{
  "_format": "hh-sol-artifact-1",
  "contractName": "Proxy",
  "sourceName": "contracts/Proxy.sol",
  "abi": [
    {
      "inputs": [],
      "stateMutability": "nonpayable",
      "type": "constructor"
    },
    {
      "anonymous": false,
      "inputs": [
        {
          "indexed": false,
          "internalType": "address",
          "name": "previousAdmin",
          "type": "address"
        },
        {
          "indexed": false,
          "internalType": "address",
          "name": "newAdmin",
          "type": "address"
        }
      ],
      "name": "AdminChanged",
      "type": "event"
    },
    {
      "anonymous": false,
      "inputs": [
        {
          "indexed": true,
          "internalType": "address",
          "name": "beacon",
          "type": "address"
        }
      ],
      "name": "BeaconUpgraded",
      "type": "event"
    },
    {
      "anonymous": false,
      "inputs": [
        {
          "indexed": false,
          "internalType": "uint8",
          "name": "version",
          "type": "uint8"
        }
      ],
      "name": "Initialized",
      "type": "event"
    },
    {
      "anonymous": false,
      "inputs": [
        {
          "indexed": true,
          "internalType": "address",
          "name": "previousOwner",
          "type": "address"
        },
        {
          "indexed": true,
          "internalType": "address",
          "name": "newOwner",
          "type": "address"
        }
      ],
      "name": "OwnershipTransferred",
      "type": "event"
    },
    {
      "anonymous": false,
      "inputs": [
        {
          "indexed": true,
          "internalType": "address",
          "name": "implementation",
          "type": "address"
        }
      ],
      "name": "Upgraded",
      "type": "event"
    },
    {
      "inputs": [],
      "name": "initialize",
      "outputs": [],
      "stateMutability": "nonpayable",
      "type": "function"
    },
    {
      "inputs": [],
      "name": "owner",
      "outputs": [
        {
          "internalType": "address",
          "name": "",
          "type": "address"
        }
      ],
      "stateMutability": "view",
      "type": "function"
    },
    {
      "inputs": [],
      "name": "proxiableUUID",
      "outputs": [
        {
          "internalType": "bytes32",
          "name": "",
          "type": "bytes32"
        }
      ],
      "stateMutability": "view",
      "type": "function"
    },
    {
      "inputs": [],
      "name": "renounceOwnership",
      "outputs": [],
      "stateMutability": "nonpayable",
      "type": "function"
    },
    {
      "inputs": [
        {
          "internalType": "address",
          "name": "newOwner",
          "type": "address"
        }
      ],
      "name": "transferOwnership",
      "outputs": [],
      "stateMutability": "nonpayable",
      "type": "function"
    },
    {
      "inputs": [
        {
          "internalType": "address",
          "name": "newImplementation",
          "type": "address"
        }
      ],
      "name": "upgradeTo",
      "outputs": [],
      "stateMutability": "nonpayable",
      "type": "function"
    },
    {
      "inputs": [
        {
          "internalType": "address",
          "name": "newImplementation",
          "type": "address"
        },
        {
          "internalType": "bytes",
          "name": "data",
          "type": "bytes"
        }
      ],
      "name": "upgradeToAndCall",
      "outputs": [],
      "stateMutability": "payable",
      "type": "function"
    }
  ],
  "bytecode": "0x60a06040523073ffffffffffffffffffffffffffffffffffffffff1660809073ffffffffffffffffffffffffffffffffffffffff168152503480156200004457600080fd5b50620000556200005b60201b60201c565b62000206565b600060019054906101000a900460ff1615620000ae576040517f08c379a0000000000000000000000000000000000000000000000000000000008152600401620000a590620001a9565b60405180910390fd5b60ff801660008054906101000a900460ff1660ff161015620001205760ff6000806101000a81548160ff021916908360ff1602179055507f7f26b83ff96e1f2b6a682f133852f6798a09c465da95921460cefb384740249860ff604051620001179190620001e9565b60405180910390a15b565b600082825260208201905092915050565b7f496e697469616c697a61626c653a20636f6e747261637420697320696e69746960008201527f616c697a696e6700000000000000000000000000000000000000000000000000602082015250565b60006200019160278362000122565b91506200019e8262000133565b604082019050919050565b60006020820190508181036000830152620001c48162000182565b9050919050565b600060ff82169050919050565b620001e381620001cb565b82525050565b6000602082019050620002006000830184620001d8565b92915050565b6080516118c46200023e60003960008181610169015281816101f8015281816102f201528181610381015261043101526118c46000f3fe6080604052600436106100705760003560e01c8063715018a61161004e578063715018a6146100e55780638129fc1c146100fc5780638da5cb5b14610113578063f2fde38b1461013e57610070565b80633659cfe6146100755780634f1ef2861461009e57806352d1902d146100ba575b600080fd5b34801561008157600080fd5b5061009c60048036038101906100979190610e4c565b610167565b005b6100b860048036038101906100b39190610fbf565b6102f0565b005b3480156100c657600080fd5b506100cf61042d565b6040516100dc9190611034565b60405180910390f35b3480156100f157600080fd5b506100fa6104e6565b005b34801561010857600080fd5b506101116104fa565b005b34801561011f57600080fd5b50610128610640565b604051610135919061105e565b60405180910390f35b34801561014a57600080fd5b5061016560048036038101906101609190610e4c565b61066a565b005b7f000000000000000000000000000000000000000000000000000000000000000073ffffffffffffffffffffffffffffffffffffffff163073ffffffffffffffffffffffffffffffffffffffff1614156101f6576040517f08c379a00000000000000000000000000000000000000000000000000000000081526004016101ed906110fc565b60405180910390fd5b7f000000000000000000000000000000000000000000000000000000000000000073ffffffffffffffffffffffffffffffffffffffff166102356106ee565b73ffffffffffffffffffffffffffffffffffffffff161461028b576040517f08c379a00000000000000000000000000000000000000000000000000000000081526004016102829061118e565b60405180910390fd5b61029481610745565b6102ed81600067ffffffffffffffff8111156102b3576102b2610e94565b5b6040519080825280601f01601f1916602001820160405280156102e55781602001600182028036833780820191505090505b506000610750565b50565b7f000000000000000000000000000000000000000000000000000000000000000073ffffffffffffffffffffffffffffffffffffffff163073ffffffffffffffffffffffffffffffffffffffff16141561037f576040517f08c379a0000000000000000000000000000000000000000000000000000000008152600401610376906110fc565b60405180910390fd5b7f000000000000000000000000000000000000000000000000000000000000000073ffffffffffffffffffffffffffffffffffffffff166103be6106ee565b73ffffffffffffffffffffffffffffffffffffffff1614610414576040517f08c379a000000000000000000000000000000000000000000000000000000000815260040161040b9061118e565b60405180910390fd5b61041d82610745565b61042982826001610750565b5050565b60007f000000000000000000000000000000000000000000000000000000000000000073ffffffffffffffffffffffffffffffffffffffff163073ffffffffffffffffffffffffffffffffffffffff16146104bd576040517f08c379a00000000000000000000000000000000000000000000000000000000081526004016104b490611220565b60405180910390fd5b7f360894a13ba1a3210667c828492db98dca3e2076cc3735a920a3ca505d382bbc60001b905090565b6104ee6108cd565b6104f8600061094b565b565b60008060019054906101000a900460ff1615905080801561052b5750600160008054906101000a900460ff1660ff16105b80610558575061053a30610a11565b1580156105575750600160008054906101000a900460ff1660ff16145b5b610597576040517f08c379a000000000000000000000000000000000000000000000000000000000815260040161058e906112b2565b60405180910390fd5b60016000806101000a81548160ff021916908360ff16021790555080156105d4576001600060016101000a81548160ff0219169083151502179055505b6105dc610a34565b6105e4610a8d565b801561063d5760008060016101000a81548160ff0219169083151502179055507f7f26b83ff96e1f2b6a682f133852f6798a09c465da95921460cefb384740249860016040516106349190611324565b60405180910390a15b50565b6000603360009054906101000a900473ffffffffffffffffffffffffffffffffffffffff16905090565b6106726108cd565b600073ffffffffffffffffffffffffffffffffffffffff168173ffffffffffffffffffffffffffffffffffffffff1614156106e2576040517f08c379a00000000000000000000000000000000000000000000000000000000081526004016106d9906113b1565b60405180910390fd5b6106eb8161094b565b50565b600061071c7f360894a13ba1a3210667c828492db98dca3e2076cc3735a920a3ca505d382bbc60001b610ade565b60000160009054906101000a900473ffffffffffffffffffffffffffffffffffffffff16905090565b61074d6108cd565b50565b61077c7f4910fdfa16fed3260ed0e7147f7cc6da11a60208b5b9406d12a635614ffd914360001b610ae8565b60000160009054906101000a900460ff16156107a05761079b83610af2565b6108c8565b8273ffffffffffffffffffffffffffffffffffffffff166352d1902d6040518163ffffffff1660e01b815260040160206040518083038186803b1580156107e657600080fd5b505afa92505050801561081757506040513d601f19601f8201168201806040525081019061081491906113fd565b60015b610856576040517f08c379a000000000000000000000000000000000000000000000000000000000815260040161084d9061149c565b60405180910390fd5b7f360894a13ba1a3210667c828492db98dca3e2076cc3735a920a3ca505d382bbc60001b81146108bb576040517f08c379a00000000000000000000000000000000000000000000000000000000081526004016108b29061152e565b60405180910390fd5b506108c7838383610bab565b5b505050565b6108d5610bd7565b73ffffffffffffffffffffffffffffffffffffffff166108f3610640565b73ffffffffffffffffffffffffffffffffffffffff1614610949576040517f08c379a00000000000000000000000000000000000000000000000000000000081526004016109409061159a565b60405180910390fd5b565b6000603360009054906101000a900473ffffffffffffffffffffffffffffffffffffffff16905081603360006101000a81548173ffffffffffffffffffffffffffffffffffffffff021916908373ffffffffffffffffffffffffffffffffffffffff1602179055508173ffffffffffffffffffffffffffffffffffffffff168173ffffffffffffffffffffffffffffffffffffffff167f8be0079c531659141344cd1fd0a4f28419497f9722a3daafe3b4186f6b6457e060405160405180910390a35050565b6000808273ffffffffffffffffffffffffffffffffffffffff163b119050919050565b600060019054906101000a900460ff16610a83576040517f08c379a0000000000000000000000000000000000000000000000000000000008152600401610a7a9061162c565b60405180910390fd5b610a8b610bdf565b565b600060019054906101000a900460ff16610adc576040517f08c379a0000000000000000000000000000000000000000000000000000000008152600401610ad39061162c565b60405180910390fd5b565b6000819050919050565b6000819050919050565b610afb81610a11565b610b3a576040517f08c379a0000000000000000000000000000000000000000000000000000000008152600401610b31906116be565b60405180910390fd5b80610b677f360894a13ba1a3210667c828492db98dca3e2076cc3735a920a3ca505d382bbc60001b610ade565b60000160006101000a81548173ffffffffffffffffffffffffffffffffffffffff021916908373ffffffffffffffffffffffffffffffffffffffff16021790555050565b610bb483610c40565b600082511180610bc15750805b15610bd257610bd08383610c8f565b505b505050565b600033905090565b600060019054906101000a900460ff16610c2e576040517f08c379a0000000000000000000000000000000000000000000000000000000008152600401610c259061162c565b60405180910390fd5b610c3e610c39610bd7565b61094b565b565b610c4981610af2565b8073ffffffffffffffffffffffffffffffffffffffff167fbc7cd75a20ee27fd9adebab32041f755214dbc6bffa90cc0225b39da2e5c2d3b60405160405180910390a250565b6060610c9a83610a11565b610cd9576040517f08c379a0000000000000000000000000000000000000000000000000000000008152600401610cd090611750565b60405180910390fd5b6000808473ffffffffffffffffffffffffffffffffffffffff1684604051610d0191906117ea565b600060405180830381855af49150503d8060008114610d3c576040519150601f19603f3d011682016040523d82523d6000602084013e610d41565b606091505b5091509150610d69828260405180606001604052806027815260200161186860279139610d73565b9250505092915050565b60608315610d8357829050610dd3565b600083511115610d965782518084602001fd5b816040517f08c379a0000000000000000000000000000000000000000000000000000000008152600401610dca9190611845565b60405180910390fd5b9392505050565b6000604051905090565b600080fd5b600080fd5b600073ffffffffffffffffffffffffffffffffffffffff82169050919050565b6000610e1982610dee565b9050919050565b610e2981610e0e565b8114610e3457600080fd5b50565b600081359050610e4681610e20565b92915050565b600060208284031215610e6257610e61610de4565b5b6000610e7084828501610e37565b91505092915050565b600080fd5b600080fd5b6000601f19601f8301169050919050565b7f4e487b7100000000000000000000000000000000000000000000000000000000600052604160045260246000fd5b610ecc82610e83565b810181811067ffffffffffffffff82111715610eeb57610eea610e94565b5b80604052505050565b6000610efe610dda565b9050610f0a8282610ec3565b919050565b600067ffffffffffffffff821115610f2a57610f29610e94565b5b610f3382610e83565b9050602081019050919050565b82818337600083830152505050565b6000610f62610f5d84610f0f565b610ef4565b905082815260208101848484011115610f7e57610f7d610e7e565b5b610f89848285610f40565b509392505050565b600082601f830112610fa657610fa5610e79565b5b8135610fb6848260208601610f4f565b91505092915050565b60008060408385031215610fd657610fd5610de4565b5b6000610fe485828601610e37565b925050602083013567ffffffffffffffff81111561100557611004610de9565b5b61101185828601610f91565b9150509250929050565b6000819050919050565b61102e8161101b565b82525050565b60006020820190506110496000830184611025565b92915050565b61105881610e0e565b82525050565b6000602082019050611073600083018461104f565b92915050565b600082825260208201905092915050565b7f46756e6374696f6e206d7573742062652063616c6c6564207468726f7567682060008201527f64656c656761746563616c6c0000000000000000000000000000000000000000602082015250565b60006110e6602c83611079565b91506110f18261108a565b604082019050919050565b60006020820190508181036000830152611115816110d9565b9050919050565b7f46756e6374696f6e206d7573742062652063616c6c6564207468726f7567682060008201527f6163746976652070726f78790000000000000000000000000000000000000000602082015250565b6000611178602c83611079565b91506111838261111c565b604082019050919050565b600060208201905081810360008301526111a78161116b565b9050919050565b7f555550535570677261646561626c653a206d757374206e6f742062652063616c60008201527f6c6564207468726f7567682064656c656761746563616c6c0000000000000000602082015250565b600061120a603883611079565b9150611215826111ae565b604082019050919050565b60006020820190508181036000830152611239816111fd565b9050919050565b7f496e697469616c697a61626c653a20636f6e747261637420697320616c72656160008201527f647920696e697469616c697a6564000000000000000000000000000000000000602082015250565b600061129c602e83611079565b91506112a782611240565b604082019050919050565b600060208201905081810360008301526112cb8161128f565b9050919050565b6000819050919050565b600060ff82169050919050565b6000819050919050565b600061130e611309611304846112d2565b6112e9565b6112dc565b9050919050565b61131e816112f3565b82525050565b60006020820190506113396000830184611315565b92915050565b7f4f776e61626c653a206e6577206f776e657220697320746865207a65726f206160008201527f6464726573730000000000000000000000000000000000000000000000000000602082015250565b600061139b602683611079565b91506113a68261133f565b604082019050919050565b600060208201905081810360008301526113ca8161138e565b9050919050565b6113da8161101b565b81146113e557600080fd5b50565b6000815190506113f7816113d1565b92915050565b60006020828403121561141357611412610de4565b5b6000611421848285016113e8565b91505092915050565b7f45524331393637557067726164653a206e657720696d706c656d656e7461746960008201527f6f6e206973206e6f742055555053000000000000000000000000000000000000602082015250565b6000611486602e83611079565b91506114918261142a565b604082019050919050565b600060208201905081810360008301526114b581611479565b9050919050565b7f45524331393637557067726164653a20756e737570706f727465642070726f7860008201527f6961626c65555549440000000000000000000000000000000000000000000000602082015250565b6000611518602983611079565b9150611523826114bc565b604082019050919050565b600060208201905081810360008301526115478161150b565b9050919050565b7f4f776e61626c653a2063616c6c6572206973206e6f7420746865206f776e6572600082015250565b6000611584602083611079565b915061158f8261154e565b602082019050919050565b600060208201905081810360008301526115b381611577565b9050919050565b7f496e697469616c697a61626c653a20636f6e7472616374206973206e6f74206960008201527f6e697469616c697a696e67000000000000000000000000000000000000000000602082015250565b6000611616602b83611079565b9150611621826115ba565b604082019050919050565b6000602082019050818103600083015261164581611609565b9050919050565b7f455243313936373a206e657720696d706c656d656e746174696f6e206973206e60008201527f6f74206120636f6e747261637400000000000000000000000000000000000000602082015250565b60006116a8602d83611079565b91506116b38261164c565b604082019050919050565b600060208201905081810360008301526116d78161169b565b9050919050565b7f416464726573733a2064656c65676174652063616c6c20746f206e6f6e2d636f60008201527f6e74726163740000000000000000000000000000000000000000000000000000602082015250565b600061173a602683611079565b9150611745826116de565b604082019050919050565b600060208201905081810360008301526117698161172d565b9050919050565b600081519050919050565b600081905092915050565b60005b838110156117a4578082015181840152602081019050611789565b838111156117b3576000848401525b50505050565b60006117c482611770565b6117ce818561177b565b93506117de818560208601611786565b80840191505092915050565b60006117f682846117b9565b915081905092915050565b600081519050919050565b600061181782611801565b6118218185611079565b9350611831818560208601611786565b61183a81610e83565b840191505092915050565b6000602082019050818103600083015261185f818461180c565b90509291505056fe416464726573733a206c6f772d6c6576656c2064656c65676174652063616c6c206661696c6564a26469706673582212204c83aeb1740a8d26806e1d987766b6456fb27284e993f92513cecd5dd761229d64736f6c63430008090033",
  "linkReferences": {},
  "deployedLinkReferences": {}
}