{"contracts/MarketWrapperFactory.sol":{"MarketWrapperFactory":{"abi":[{"inputs":[],"stateMutability":"nonpayable","type":"constructor"},{"anonymous":false,"inputs":[{"indexed":true,"internalType":"bytes32","name":"role","type":"bytes32"},{"indexed":true,"internalType":"bytes32","name":"previousAdminRole","type":"bytes32"},{"indexed":true,"internalType":"bytes32","name":"newAdminRole","type":"bytes32"}],"name":"RoleAdminChanged","type":"event"},{"anonymous":false,"inputs":[{"indexed":true,"internalType":"bytes32","name":"role","type":"bytes32"},{"indexed":true,"internalType":"address","name":"account","type":"address"},{"indexed":true,"internalType":"address","name":"sender","type":"address"}],"name":"RoleGranted","type":"event"},{"anonymous":false,"inputs":[{"indexed":true,"internalType":"bytes32","name":"role","type":"bytes32"},{"indexed":true,"internalType":"address","name":"account","type":"address"},{"indexed":true,"internalType":"address","name":"sender","type":"address"}],"name":"RoleRevoked","type":"event"},{"inputs":[],"name":"DEFAULT_ADMIN_ROLE","outputs":[{"internalType":"bytes32","name":"","type":"bytes32"}],"stateMutability":"view","type":"function"},{"inputs":[],"name":"getLatestMarketWrapper","outputs":[{"internalType":"address","name":"","type":"address"}],"stateMutability":"view","type":"function"},{"inputs":[{"internalType":"bytes32","name":"role","type":"bytes32"}],"name":"getRoleAdmin","outputs":[{"internalType":"bytes32","name":"","type":"bytes32"}],"stateMutability":"view","type":"function"},{"inputs":[{"internalType":"address","name":"_marketWrapper","type":"address"},{"internalType":"address","name":"_to","type":"address"}],"name":"giveContractOwnership","outputs":[],"stateMutability":"nonpayable","type":"function"},{"inputs":[{"internalType":"address","name":"to","type":"address"}],"name":"grantOwnerRole","outputs":[],"stateMutability":"nonpayable","type":"function"},{"inputs":[{"internalType":"bytes32","name":"role","type":"bytes32"},{"internalType":"address","name":"account","type":"address"}],"name":"grantRole","outputs":[],"stateMutability":"nonpayable","type":"function"},{"inputs":[{"internalType":"bytes32","name":"role","type":"bytes32"},{"internalType":"address","name":"account","type":"address"}],"name":"hasRole","outputs":[{"internalType":"bool","name":"","type":"bool"}],"stateMutability":"view","type":"function"},{"inputs":[{"internalType":"uint256","name":"_buyNowPrice","type":"uint256"},{"internalType":"address","name":"_marketPlace","type":"address"},{"internalType":"bytes","name":"_transactionData","type":"bytes"},{"internalType":"uint256","name":"gasEstimate","type":"uint256"}],"name":"newMarketWrapper","outputs":[{"internalType":"address","name":"","type":"address"}],"stateMutability":"nonpayable","type":"function"},{"inputs":[{"internalType":"bytes32","name":"role","type":"bytes32"},{"internalType":"address","name":"account","type":"address"}],"name":"renounceRole","outputs":[],"stateMutability":"nonpayable","type":"function"},{"inputs":[{"internalType":"bytes32","name":"role","type":"bytes32"},{"internalType":"address","name":"account","type":"address"}],"name":"revokeRole","outputs":[],"stateMutability":"nonpayable","type":"function"},{"inputs":[{"internalType":"bytes4","name":"interfaceId","type":"bytes4"}],"name":"supportsInterface","outputs":[{"internalType":"bool","name":"","type":"bool"}],"stateMutability":"view","type":"function"}],"evm":{"bytecode":{"linkReferences":{},"object":"6080604052600060025534801561001557600080fd5b506100296000801b3361002e60201b60201c565b61018c565b61003e828261011a60201b60201c565b61011657600160008084815260200190815260200160002060000160008373ffffffffffffffffffffffffffffffffffffffff1673ffffffffffffffffffffffffffffffffffffffff16815260200190815260200160002060006101000a81548160ff0219169083151502179055506100bb61018460201b60201c565b73ffffffffffffffffffffffffffffffffffffffff168173ffffffffffffffffffffffffffffffffffffffff16837f2f8788117e7eff1d82e926ec794901d17c78024a50270940304540a733656f0d60405160405180910390a45b5050565b600080600084815260200190815260200160002060000160008373ffffffffffffffffffffffffffffffffffffffff1673ffffffffffffffffffffffffffffffffffffffff16815260200190815260200160002060009054906101000a900460ff16905092915050565b600033905090565b613e4d806200019c6000396000f3fe60806040523480156200001157600080fd5b5060043610620000b85760003560e01c80635556f1aa116200007b5780635556f1aa1462000189578063613ae8cf14620001a957806391d1485414620001df578063a217fddf1462000215578063a6f660351462000237578063d547741f146200025957620000b8565b806301ffc9a714620000bd578063248a9ca314620000f35780632f2ff15d146200012957806336568abe1462000149578063397a8bab1462000169575b600080fd5b620000db6004803603810190620000d5919062000c2f565b62000279565b604051620000ea919062000c7e565b60405180910390f35b6200011160048036038101906200010b919062000cd6565b620002f6565b60405162000120919062000d19565b60405180910390f35b62000147600480360381019062000141919062000d9b565b62000315565b005b62000167600480360381019062000161919062000d9b565b6200033c565b005b62000187600480360381019062000181919062000de2565b620003c6565b005b620001a76004803603810190620001a1919062000e14565b620003e8565b005b620001c76004803603810190620001c1919062000ff8565b62000471565b604051620001d691906200109a565b60405180910390f35b620001fd6004803603810190620001f7919062000d9b565b62000551565b6040516200020c919062000c7e565b60405180910390f35b6200021f620005bb565b6040516200022e919062000d19565b60405180910390f35b62000241620005c2565b6040516200025091906200109a565b60405180910390f35b62000277600480360381019062000271919062000d9b565b6200061a565b005b60007f7965db0b000000000000000000000000000000000000000000000000000000007bffffffffffffffffffffffffffffffffffffffffffffffffffffffff1916827bffffffffffffffffffffffffffffffffffffffffffffffffffffffff19161480620002ef5750620002ee8262000641565b5b9050919050565b6000806000838152602001908152602001600020600101549050919050565b6200032082620002f6565b6200032b81620006ab565b620003378383620006c3565b505050565b62000346620007a8565b73ffffffffffffffffffffffffffffffffffffffff168173ffffffffffffffffffffffffffffffffffffffff1614620003b6576040517f08c379a0000000000000000000000000000000000000000000000000000000008152600401620003ad906200113e565b60405180910390fd5b620003c28282620007b0565b5050565b6000801b620003d581620006ab565b620003e46000801b83620006c3565b5050565b6000801b620003f781620006ab565b60008390508073ffffffffffffffffffffffffffffffffffffffff1663397a8bab846040518263ffffffff1660e01b81526004016200043791906200109a565b600060405180830381600087803b1580156200045257600080fd5b505af115801562000467573d6000803e3d6000fd5b5050505050505050565b60008060001b6200048281620006ab565b600086868686604051620004969062000bb0565b620004a5949392919062001204565b604051809103906000f080158015620004c2573d6000803e3d6000fd5b5090506001819080600181540180825580915050600190039060005260206000200160009091909190916101000a81548173ffffffffffffffffffffffffffffffffffffffff021916908373ffffffffffffffffffffffffffffffffffffffff1602179055506001600260008282546200053d919062001287565b925050819055508092505050949350505050565b600080600084815260200190815260200160002060000160008373ffffffffffffffffffffffffffffffffffffffff1673ffffffffffffffffffffffffffffffffffffffff16815260200190815260200160002060009054906101000a900460ff16905092915050565b6000801b81565b6000600180600254620005d69190620012e4565b81548110620005ea57620005e96200131f565b5b9060005260206000200160009054906101000a900473ffffffffffffffffffffffffffffffffffffffff16905090565b6200062582620002f6565b6200063081620006ab565b6200063c8383620007b0565b505050565b60007f01ffc9a7000000000000000000000000000000000000000000000000000000007bffffffffffffffffffffffffffffffffffffffffffffffffffffffff1916827bffffffffffffffffffffffffffffffffffffffffffffffffffffffff1916149050919050565b620006c081620006ba620007a8565b62000896565b50565b620006cf828262000551565b620007a457600160008084815260200190815260200160002060000160008373ffffffffffffffffffffffffffffffffffffffff1673ffffffffffffffffffffffffffffffffffffffff16815260200190815260200160002060006101000a81548160ff02191690831515021790555062000749620007a8565b73ffffffffffffffffffffffffffffffffffffffff168173ffffffffffffffffffffffffffffffffffffffff16837f2f8788117e7eff1d82e926ec794901d17c78024a50270940304540a733656f0d60405160405180910390a45b5050565b600033905090565b620007bc828262000551565b156200089257600080600084815260200190815260200160002060000160008373ffffffffffffffffffffffffffffffffffffffff1673ffffffffffffffffffffffffffffffffffffffff16815260200190815260200160002060006101000a81548160ff02191690831515021790555062000837620007a8565b73ffffffffffffffffffffffffffffffffffffffff168173ffffffffffffffffffffffffffffffffffffffff16837ff6391f5c32d9c69d2a47ea670b442974b53935d1edc7fd64eb21e047a839171b60405160405180910390a45b5050565b620008a2828262000551565b6200092257620008b28162000926565b620008c28360001c602062000955565b604051602001620008d59291906200143b565b6040516020818303038152906040526040517f08c379a0000000000000000000000000000000000000000000000000000000008152600401620009199190620014be565b60405180910390fd5b5050565b60606200094e8273ffffffffffffffffffffffffffffffffffffffff16601460ff1662000955565b9050919050565b6060600060028360026200096a9190620014e2565b62000976919062001287565b67ffffffffffffffff81111562000992576200099162000eb1565b5b6040519080825280601f01601f191660200182016040528015620009c55781602001600182028036833780820191505090505b5090507f30000000000000000000000000000000000000000000000000000000000000008160008151811062000a0057620009ff6200131f565b5b60200101907effffffffffffffffffffffffffffffffffffffffffffffffffffffffffffff1916908160001a9053507f78000000000000000000000000000000000000000000000000000000000000008160018151811062000a675762000a666200131f565b5b60200101907effffffffffffffffffffffffffffffffffffffffffffffffffffffffffffff1916908160001a9053506000600184600262000aa99190620014e2565b62000ab5919062001287565b90505b600181111562000b5f577f3031323334353637383961626364656600000000000000000000000000000000600f86166010811062000afb5762000afa6200131f565b5b1a60f81b82828151811062000b155762000b146200131f565b5b60200101907effffffffffffffffffffffffffffffffffffffffffffffffffffffffffffff1916908160001a905350600485901c94508062000b579062001543565b905062000ab8565b506000841462000ba6576040517f08c379a000000000000000000000000000000000000000000000000000000000815260040162000b9d90620015c2565b60405180910390fd5b8091505092915050565b61283380620015e583390190565b6000604051905090565b600080fd5b600080fd5b60007fffffffff0000000000000000000000000000000000000000000000000000000082169050919050565b62000c098162000bd2565b811462000c1557600080fd5b50565b60008135905062000c298162000bfe565b92915050565b60006020828403121562000c485762000c4762000bc8565b5b600062000c588482850162000c18565b91505092915050565b60008115159050919050565b62000c788162000c61565b82525050565b600060208201905062000c95600083018462000c6d565b92915050565b6000819050919050565b62000cb08162000c9b565b811462000cbc57600080fd5b50565b60008135905062000cd08162000ca5565b92915050565b60006020828403121562000cef5762000cee62000bc8565b5b600062000cff8482850162000cbf565b91505092915050565b62000d138162000c9b565b82525050565b600060208201905062000d30600083018462000d08565b92915050565b600073ffffffffffffffffffffffffffffffffffffffff82169050919050565b600062000d638262000d36565b9050919050565b62000d758162000d56565b811462000d8157600080fd5b50565b60008135905062000d958162000d6a565b92915050565b6000806040838503121562000db55762000db462000bc8565b5b600062000dc58582860162000cbf565b925050602062000dd88582860162000d84565b9150509250929050565b60006020828403121562000dfb5762000dfa62000bc8565b5b600062000e0b8482850162000d84565b91505092915050565b6000806040838503121562000e2e5762000e2d62000bc8565b5b600062000e3e8582860162000d84565b925050602062000e518582860162000d84565b9150509250929050565b6000819050919050565b62000e708162000e5b565b811462000e7c57600080fd5b50565b60008135905062000e908162000e65565b92915050565b600080fd5b600080fd5b6000601f19601f8301169050919050565b7f4e487b7100000000000000000000000000000000000000000000000000000000600052604160045260246000fd5b62000eeb8262000ea0565b810181811067ffffffffffffffff8211171562000f0d5762000f0c62000eb1565b5b80604052505050565b600062000f2262000bbe565b905062000f30828262000ee0565b919050565b600067ffffffffffffffff82111562000f535762000f5262000eb1565b5b62000f5e8262000ea0565b9050602081019050919050565b82818337600083830152505050565b600062000f9162000f8b8462000f35565b62000f16565b90508281526020810184848401111562000fb05762000faf62000e9b565b5b62000fbd84828562000f6b565b509392505050565b600082601f83011262000fdd5762000fdc62000e96565b5b813562000fef84826020860162000f7a565b91505092915050565b6000806000806080858703121562001015576200101462000bc8565b5b6000620010258782880162000e7f565b9450506020620010388782880162000d84565b935050604085013567ffffffffffffffff8111156200105c576200105b62000bcd565b5b6200106a8782880162000fc5565b92505060606200107d8782880162000e7f565b91505092959194509250565b620010948162000d56565b82525050565b6000602082019050620010b1600083018462001089565b92915050565b600082825260208201905092915050565b7f416363657373436f6e74726f6c3a2063616e206f6e6c792072656e6f756e636560008201527f20726f6c657320666f722073656c660000000000000000000000000000000000602082015250565b600062001126602f83620010b7565b91506200113382620010c8565b604082019050919050565b60006020820190508181036000830152620011598162001117565b9050919050565b6200116b8162000e5b565b82525050565b600081519050919050565b600082825260208201905092915050565b60005b83811015620011ad57808201518184015260208101905062001190565b83811115620011bd576000848401525b50505050565b6000620011d08262001171565b620011dc81856200117c565b9350620011ee8185602086016200118d565b620011f98162000ea0565b840191505092915050565b60006080820190506200121b600083018762001160565b6200122a602083018662001089565b81810360408301526200123e8185620011c3565b90506200124f606083018462001160565b95945050505050565b7f4e487b7100000000000000000000000000000000000000000000000000000000600052601160045260246000fd5b6000620012948262000e5b565b9150620012a18362000e5b565b9250827fffffffffffffffffffffffffffffffffffffffffffffffffffffffffffffffff03821115620012d957620012d862001258565b5b828201905092915050565b6000620012f18262000e5b565b9150620012fe8362000e5b565b92508282101562001314576200131362001258565b5b828203905092915050565b7f4e487b7100000000000000000000000000000000000000000000000000000000600052603260045260246000fd5b600081905092915050565b7f416363657373436f6e74726f6c3a206163636f756e7420000000000000000000600082015250565b6000620013916017836200134e565b91506200139e8262001359565b601782019050919050565b600081519050919050565b6000620013c182620013a9565b620013cd81856200134e565b9350620013df8185602086016200118d565b80840191505092915050565b7f206973206d697373696e6720726f6c6520000000000000000000000000000000600082015250565b6000620014236011836200134e565b91506200143082620013eb565b601182019050919050565b6000620014488262001382565b9150620014568285620013b4565b9150620014638262001414565b9150620014718284620013b4565b91508190509392505050565b60006200148a82620013a9565b620014968185620010b7565b9350620014a88185602086016200118d565b620014b38162000ea0565b840191505092915050565b60006020820190508181036000830152620014da81846200147d565b905092915050565b6000620014ef8262000e5b565b9150620014fc8362000e5b565b9250817fffffffffffffffffffffffffffffffffffffffffffffffffffffffffffffffff048311821515161562001538576200153762001258565b5b828202905092915050565b6000620015508262000e5b565b9150600082141562001567576200156662001258565b5b600182039050919050565b7f537472696e67733a20686578206c656e67746820696e73756666696369656e74600082015250565b6000620015aa602083620010b7565b9150620015b78262001572565b602082019050919050565b60006020820190508181036000830152620015dd816200159b565b905091905056fe60806040523480156200001157600080fd5b50604051620028333803806200283383398181016040528101906200003791906200050e565b6200004c6000801b33620000be60201b60201c565b8360018190555082600260006101000a81548173ffffffffffffffffffffffffffffffffffffffff021916908373ffffffffffffffffffffffffffffffffffffffff1602179055508160039080519060200190620000ac92919062000221565b50806004819055505050505062000604565b620000d08282620001af60201b60201c565b620001ab57600160008084815260200190815260200160002060000160008373ffffffffffffffffffffffffffffffffffffffff1673ffffffffffffffffffffffffffffffffffffffff16815260200190815260200160002060006101000a81548160ff021916908315150217905550620001506200021960201b60201c565b73ffffffffffffffffffffffffffffffffffffffff168173ffffffffffffffffffffffffffffffffffffffff16837f2f8788117e7eff1d82e926ec794901d17c78024a50270940304540a733656f0d60405160405180910390a45b5050565b600080600084815260200190815260200160002060000160008373ffffffffffffffffffffffffffffffffffffffff1673ffffffffffffffffffffffffffffffffffffffff16815260200190815260200160002060009054906101000a900460ff16905092915050565b600033905090565b8280546200022f90620005ce565b90600052602060002090601f0160209004810192826200025357600085556200029f565b82601f106200026e57805160ff19168380011785556200029f565b828001600101855582156200029f579182015b828111156200029e57825182559160200191906001019062000281565b5b509050620002ae9190620002b2565b5090565b5b80821115620002cd576000816000905550600101620002b3565b5090565b6000604051905090565b600080fd5b600080fd5b6000819050919050565b620002fa81620002e5565b81146200030657600080fd5b50565b6000815190506200031a81620002ef565b92915050565b600073ffffffffffffffffffffffffffffffffffffffff82169050919050565b60006200034d8262000320565b9050919050565b6200035f8162000340565b81146200036b57600080fd5b50565b6000815190506200037f8162000354565b92915050565b600080fd5b600080fd5b6000601f19601f8301169050919050565b7f4e487b7100000000000000000000000000000000000000000000000000000000600052604160045260246000fd5b620003da826200038f565b810181811067ffffffffffffffff82111715620003fc57620003fb620003a0565b5b80604052505050565b600062000411620002d1565b90506200041f8282620003cf565b919050565b600067ffffffffffffffff821115620004425762000441620003a0565b5b6200044d826200038f565b9050602081019050919050565b60005b838110156200047a5780820151818401526020810190506200045d565b838111156200048a576000848401525b50505050565b6000620004a7620004a18462000424565b62000405565b905082815260208101848484011115620004c657620004c56200038a565b5b620004d38482856200045a565b509392505050565b600082601f830112620004f357620004f262000385565b5b81516200050584826020860162000490565b91505092915050565b600080600080608085870312156200052b576200052a620002db565b5b60006200053b8782880162000309565b94505060206200054e878288016200036e565b935050604085015167ffffffffffffffff811115620005725762000571620002e0565b5b6200058087828801620004db565b9250506060620005938782880162000309565b91505092959194509250565b7f4e487b7100000000000000000000000000000000000000000000000000000000600052602260045260246000fd5b60006002820490506001821680620005e757607f821691505b60208210811415620005fe57620005fd6200059f565b5b50919050565b61221f80620006146000396000f3fe60806040526004361061010d5760003560e01c8063539a2c6d116100955780639c3962f0116100645780639c3962f014610362578063a217fddf1461038d578063a5587088146103b8578063d547741f146103e3578063dd0b7ffe1461040c57610114565b8063539a2c6d146102b55780635ecbdce9146102de5780636e353a1d1461030957806391d148541461032557610114565b80632e25d2a6116100dc5780632e25d2a6146101e65780632f2ff15d1461021157806330568a8d1461023a57806336568abe14610263578063397a8bab1461028c57610114565b806301ffc9a714610116578063136449db14610153578063248a9ca31461017e578063278bd065146101bb57610114565b3661011457005b005b34801561012257600080fd5b5061013d60048036038101906101389190611043565b610435565b60405161014a919061108b565b60405180910390f35b34801561015f57600080fd5b506101686104af565b60405161017591906110bf565b60405180910390f35b34801561018a57600080fd5b506101a560048036038101906101a09190611110565b6104b5565b6040516101b2919061114c565b60405180910390f35b3480156101c757600080fd5b506101d06104d4565b6040516101dd9190611200565b60405180910390f35b3480156101f257600080fd5b506101fb610562565b6040516102089190611263565b60405180910390f35b34801561021d57600080fd5b50610238600480360381019061023391906112aa565b610588565b005b34801561024657600080fd5b50610261600480360381019061025c91906112ea565b6105a9565b005b34801561026f57600080fd5b5061028a600480360381019061028591906112aa565b6105fb565b005b34801561029857600080fd5b506102b360048036038101906102ae91906112ea565b61067e565b005b3480156102c157600080fd5b506102dc60048036038101906102d791906117db565b61069c565b005b3480156102ea57600080fd5b506102f3610751565b60405161030091906110bf565b60405180910390f35b610323600480360381019061031e9190611824565b610757565b005b34801561033157600080fd5b5061034c600480360381019061034791906112aa565b610815565b604051610359919061108b565b60405180910390f35b34801561036e57600080fd5b5061037761087f565b604051610384919061108b565b60405180910390f35b34801561039957600080fd5b506103a26109b5565b6040516103af919061114c565b60405180910390f35b3480156103c457600080fd5b506103cd6109bc565b6040516103da91906110bf565b60405180910390f35b3480156103ef57600080fd5b5061040a600480360381019061040591906112aa565b6109c6565b005b34801561041857600080fd5b50610433600480360381019061042e9190611851565b6109e7565b005b60007f7965db0b000000000000000000000000000000000000000000000000000000007bffffffffffffffffffffffffffffffffffffffffffffffffffffffff1916827bffffffffffffffffffffffffffffffffffffffffffffffffffffffff191614806104a857506104a7826109ff565b5b9050919050565b60045481565b6000806000838152602001908152602001600020600101549050919050565b600380546104e1906118ad565b80601f016020809104026020016040519081016040528092919081815260200182805461050d906118ad565b801561055a5780601f1061052f5761010080835404028352916020019161055a565b820191906000526020600020905b81548152906001019060200180831161053d57829003601f168201915b505050505081565b600260009054906101000a900473ffffffffffffffffffffffffffffffffffffffff1681565b610591826104b5565b61059a81610a69565b6105a48383610a7d565b505050565b6000801b6105b681610a69565b81600260006101000a81548173ffffffffffffffffffffffffffffffffffffffff021916908373ffffffffffffffffffffffffffffffffffffffff1602179055505050565b610603610b5d565b73ffffffffffffffffffffffffffffffffffffffff168173ffffffffffffffffffffffffffffffffffffffff1614610670576040517f08c379a000000000000000000000000000000000000000000000000000000000815260040161066790611962565b60405180910390fd5b61067a8282610b65565b5050565b6000801b61068b81610a69565b6106986000801b83610a7d565b5050565b6000801b6106a981610a69565b816040516024016106ba9190611ce6565b6040516020818303038152906040527fc105f051000000000000000000000000000000000000000000000000000000007bffffffffffffffffffffffffffffffffffffffffffffffffffffffff19166020820180517bffffffffffffffffffffffffffffffffffffffffffffffffffffffff83818316178352505050506003908051906020019061074c929190610f34565b505050565b60015481565b6000801b61076481610a69565b60008273ffffffffffffffffffffffffffffffffffffffff164760405161078a90611d39565b60006040518083038185875af1925050503d80600081146107c7576040519150601f19603f3d011682016040523d82523d6000602084013e6107cc565b606091505b5050905080610810576040517f08c379a000000000000000000000000000000000000000000000000000000000815260040161080790611d9a565b60405180910390fd5b505050565b600080600084815260200190815260200160002060000160008373ffffffffffffffffffffffffffffffffffffffff1673ffffffffffffffffffffffffffffffffffffffff16815260200190815260200160002060009054906101000a900460ff16905092915050565b60008060001b61088e81610a69565b60015447101561089d57600080fd5b6000600260009054906101000a900473ffffffffffffffffffffffffffffffffffffffff1673ffffffffffffffffffffffffffffffffffffffff1660015460009060036040516108ed9190611e4e565b600060405180830381858888f193505050503d806000811461092b576040519150601f19603f3d011682016040523d82523d6000602084013e610930565b606091505b5050905080610974576040517f08c379a000000000000000000000000000000000000000000000000000000000815260040161096b90611eb1565b60405180910390fd5b7f83e31f5e5651d64b527802681a291e708d9fe310288785b1b816aa293d9b8fc660016040516109a4919061108b565b60405180910390a160019250505090565b6000801b81565b6000600154905090565b6109cf826104b5565b6109d881610a69565b6109e28383610b65565b505050565b6000801b6109f481610a69565b816001819055505050565b60007f01ffc9a7000000000000000000000000000000000000000000000000000000007bffffffffffffffffffffffffffffffffffffffffffffffffffffffff1916827bffffffffffffffffffffffffffffffffffffffffffffffffffffffff1916149050919050565b610a7a81610a75610b5d565b610c46565b50565b610a878282610815565b610b5957600160008084815260200190815260200160002060000160008373ffffffffffffffffffffffffffffffffffffffff1673ffffffffffffffffffffffffffffffffffffffff16815260200190815260200160002060006101000a81548160ff021916908315150217905550610afe610b5d565b73ffffffffffffffffffffffffffffffffffffffff168173ffffffffffffffffffffffffffffffffffffffff16837f2f8788117e7eff1d82e926ec794901d17c78024a50270940304540a733656f0d60405160405180910390a45b5050565b600033905090565b610b6f8282610815565b15610c4257600080600084815260200190815260200160002060000160008373ffffffffffffffffffffffffffffffffffffffff1673ffffffffffffffffffffffffffffffffffffffff16815260200190815260200160002060006101000a81548160ff021916908315150217905550610be7610b5d565b73ffffffffffffffffffffffffffffffffffffffff168173ffffffffffffffffffffffffffffffffffffffff16837ff6391f5c32d9c69d2a47ea670b442974b53935d1edc7fd64eb21e047a839171b60405160405180910390a45b5050565b610c508282610815565b610cc757610c5d81610ccb565b610c6b8360001c6020610cf8565b604051602001610c7c929190611fb0565b6040516020818303038152906040526040517f08c379a0000000000000000000000000000000000000000000000000000000008152600401610cbe9190612023565b60405180910390fd5b5050565b6060610cf18273ffffffffffffffffffffffffffffffffffffffff16601460ff16610cf8565b9050919050565b606060006002836002610d0b9190612074565b610d1591906120ce565b67ffffffffffffffff811115610d2e57610d2d61131c565b5b6040519080825280601f01601f191660200182016040528015610d605781602001600182028036833780820191505090505b5090507f300000000000000000000000000000000000000000000000000000000000000081600081518110610d9857610d97612124565b5b60200101907effffffffffffffffffffffffffffffffffffffffffffffffffffffffffffff1916908160001a9053507f780000000000000000000000000000000000000000000000000000000000000081600181518110610dfc57610dfb612124565b5b60200101907effffffffffffffffffffffffffffffffffffffffffffffffffffffffffffff1916908160001a90535060006001846002610e3c9190612074565b610e4691906120ce565b90505b6001811115610ee6577f3031323334353637383961626364656600000000000000000000000000000000600f861660108110610e8857610e87612124565b5b1a60f81b828281518110610e9f57610e9e612124565b5b60200101907effffffffffffffffffffffffffffffffffffffffffffffffffffffffffffff1916908160001a905350600485901c945080610edf90612153565b9050610e49565b5060008414610f2a576040517f08c379a0000000000000000000000000000000000000000000000000000000008152600401610f21906121c9565b60405180910390fd5b8091505092915050565b828054610f40906118ad565b90600052602060002090601f016020900481019282610f625760008555610fa9565b82601f10610f7b57805160ff1916838001178555610fa9565b82800160010185558215610fa9579182015b82811115610fa8578251825591602001919060010190610f8d565b5b509050610fb69190610fba565b5090565b5b80821115610fd3576000816000905550600101610fbb565b5090565b6000604051905090565b600080fd5b600080fd5b60007fffffffff0000000000000000000000000000000000000000000000000000000082169050919050565b61102081610feb565b811461102b57600080fd5b50565b60008135905061103d81611017565b92915050565b60006020828403121561105957611058610fe1565b5b60006110678482850161102e565b91505092915050565b60008115159050919050565b61108581611070565b82525050565b60006020820190506110a0600083018461107c565b92915050565b6000819050919050565b6110b9816110a6565b82525050565b60006020820190506110d460008301846110b0565b92915050565b6000819050919050565b6110ed816110da565b81146110f857600080fd5b50565b60008135905061110a816110e4565b92915050565b60006020828403121561112657611125610fe1565b5b6000611134848285016110fb565b91505092915050565b611146816110da565b82525050565b6000602082019050611161600083018461113d565b92915050565b600081519050919050565b600082825260208201905092915050565b60005b838110156111a1578082015181840152602081019050611186565b838111156111b0576000848401525b50505050565b6000601f19601f8301169050919050565b60006111d282611167565b6111dc8185611172565b93506111ec818560208601611183565b6111f5816111b6565b840191505092915050565b6000602082019050818103600083015261121a81846111c7565b905092915050565b600073ffffffffffffffffffffffffffffffffffffffff82169050919050565b600061124d82611222565b9050919050565b61125d81611242565b82525050565b60006020820190506112786000830184611254565b92915050565b61128781611242565b811461129257600080fd5b50565b6000813590506112a48161127e565b92915050565b600080604083850312156112c1576112c0610fe1565b5b60006112cf858286016110fb565b92505060206112e085828601611295565b9150509250929050565b600060208284031215611300576112ff610fe1565b5b600061130e84828501611295565b91505092915050565b600080fd5b7f4e487b7100000000000000000000000000000000000000000000000000000000600052604160045260246000fd5b611354826111b6565b810181811067ffffffffffffffff821117156113735761137261131c565b5b80604052505050565b6000611386610fd7565b9050611392828261134b565b919050565b600080fd5b6113a5816110a6565b81146113b057600080fd5b50565b6000813590506113c28161139c565b92915050565b60006113d382611222565b9050919050565b6113e3816113c8565b81146113ee57600080fd5b50565b600081359050611400816113da565b92915050565b6018811061141357600080fd5b50565b60008135905061142581611406565b92915050565b600080fd5b600067ffffffffffffffff82111561144b5761144a61131c565b5b602082029050602081019050919050565b600080fd5b60006040828403121561147757611476611317565b5b611481604061137c565b90506000611491848285016113b3565b60008301525060206114a5848285016113f1565b60208301525092915050565b60006114c46114bf84611430565b61137c565b905080838252602082019050604084028301858111156114e7576114e661145c565b5b835b8181101561151057806114fc8882611461565b8452602084019350506040810190506114e9565b5050509392505050565b600082601f83011261152f5761152e61142b565b5b813561153f8482602086016114b1565b91505092915050565b600080fd5b600067ffffffffffffffff8211156115685761156761131c565b5b611571826111b6565b9050602081019050919050565b82818337600083830152505050565b60006115a061159b8461154d565b61137c565b9050828152602081018484840111156115bc576115bb611548565b5b6115c784828561157e565b509392505050565b600082601f8301126115e4576115e361142b565b5b81356115f484826020860161158d565b91505092915050565b6000610240828403121561161457611613611317565b5b61161f61024061137c565b9050600061162f84828501611295565b6000830152506020611643848285016113b3565b6020830152506040611657848285016113b3565b604083015250606061166b848285016113f1565b606083015250608061167f84828501611295565b60808301525060a061169384828501611295565b60a08301525060c06116a7848285016113b3565b60c08301525060e06116bb848285016113b3565b60e0830152506101006116d084828501611416565b610100830152506101206116e6848285016113b3565b610120830152506101406116fc848285016113b3565b61014083015250610160611712848285016110fb565b61016083015250610180611728848285016113b3565b610180830152506101a061173e848285016110fb565b6101a0830152506101c0611754848285016110fb565b6101c0830152506101e061176a848285016113b3565b6101e08301525061020082013567ffffffffffffffff8111156117905761178f611397565b5b61179c8482850161151a565b6102008301525061022082013567ffffffffffffffff8111156117c2576117c1611397565b5b6117ce848285016115cf565b6102208301525092915050565b6000602082840312156117f1576117f0610fe1565b5b600082013567ffffffffffffffff81111561180f5761180e610fe6565b5b61181b848285016115fd565b91505092915050565b60006020828403121561183a57611839610fe1565b5b6000611848848285016113f1565b91505092915050565b60006020828403121561186757611866610fe1565b5b6000611875848285016113b3565b91505092915050565b7f4e487b7100000000000000000000000000000000000000000000000000000000600052602260045260246000fd5b600060028204905060018216806118c557607f821691505b602082108114156118d9576118d861187e565b5b50919050565b600082825260208201905092915050565b7f416363657373436f6e74726f6c3a2063616e206f6e6c792072656e6f756e636560008201527f20726f6c657320666f722073656c660000000000000000000000000000000000602082015250565b600061194c602f836118df565b9150611957826118f0565b604082019050919050565b6000602082019050818103600083015261197b8161193f565b9050919050565b61198b81611242565b82525050565b61199a816110a6565b82525050565b6119a9816113c8565b82525050565b7f4e487b7100000000000000000000000000000000000000000000000000000000600052602160045260246000fd5b601881106119ef576119ee6119af565b5b50565b6000819050611a00826119de565b919050565b6000611a10826119f2565b9050919050565b611a2081611a05565b82525050565b611a2f816110da565b82525050565b600081519050919050565b600082825260208201905092915050565b6000819050602082019050919050565b604082016000820151611a776000850182611991565b506020820151611a8a60208501826119a0565b50505050565b6000611a9c8383611a61565b60408301905092915050565b6000602082019050919050565b6000611ac082611a35565b611aca8185611a40565b9350611ad583611a51565b8060005b83811015611b06578151611aed8882611a90565b9750611af883611aa8565b925050600181019050611ad9565b5085935050505092915050565b600082825260208201905092915050565b6000611b2f82611167565b611b398185611b13565b9350611b49818560208601611183565b611b52816111b6565b840191505092915050565b600061024083016000830151611b766000860182611982565b506020830151611b896020860182611991565b506040830151611b9c6040860182611991565b506060830151611baf60608601826119a0565b506080830151611bc26080860182611982565b5060a0830151611bd560a0860182611982565b5060c0830151611be860c0860182611991565b5060e0830151611bfb60e0860182611991565b50610100830151611c10610100860182611a17565b50610120830151611c25610120860182611991565b50610140830151611c3a610140860182611991565b50610160830151611c4f610160860182611a26565b50610180830151611c64610180860182611991565b506101a0830151611c796101a0860182611a26565b506101c0830151611c8e6101c0860182611a26565b506101e0830151611ca36101e0860182611991565b50610200830151848203610200860152611cbd8282611ab5565b915050610220830151848203610220860152611cd98282611b24565b9150508091505092915050565b60006020820190508181036000830152611d008184611b5d565b905092915050565b600081905092915050565b50565b6000611d23600083611d08565b9150611d2e82611d13565b600082019050919050565b6000611d4482611d16565b9150819050919050565b7f4574686572207472616e73666572206661696c65642e00000000000000000000600082015250565b6000611d846016836118df565b9150611d8f82611d4e565b602082019050919050565b60006020820190508181036000830152611db381611d77565b9050919050565b60008190508160005260206000209050919050565b60008154611ddc816118ad565b611de68186611d08565b94506001821660008114611e015760018114611e1257611e45565b60ff19831686528186019350611e45565b611e1b85611dba565b60005b83811015611e3d57815481890152600182019150602081019050611e1e565b838801955050505b50505092915050565b6000611e5a8284611dcf565b915081905092915050565b7f5075726368617365204661696c65640000000000000000000000000000000000600082015250565b6000611e9b600f836118df565b9150611ea682611e65565b602082019050919050565b60006020820190508181036000830152611eca81611e8e565b9050919050565b600081905092915050565b7f416363657373436f6e74726f6c3a206163636f756e7420000000000000000000600082015250565b6000611f12601783611ed1565b9150611f1d82611edc565b601782019050919050565b600081519050919050565b6000611f3e82611f28565b611f488185611ed1565b9350611f58818560208601611183565b80840191505092915050565b7f206973206d697373696e6720726f6c6520000000000000000000000000000000600082015250565b6000611f9a601183611ed1565b9150611fa582611f64565b601182019050919050565b6000611fbb82611f05565b9150611fc78285611f33565b9150611fd282611f8d565b9150611fde8284611f33565b91508190509392505050565b6000611ff582611f28565b611fff81856118df565b935061200f818560208601611183565b612018816111b6565b840191505092915050565b6000602082019050818103600083015261203d8184611fea565b905092915050565b7f4e487b7100000000000000000000000000000000000000000000000000000000600052601160045260246000fd5b600061207f826110a6565b915061208a836110a6565b9250817fffffffffffffffffffffffffffffffffffffffffffffffffffffffffffffffff04831182151516156120c3576120c2612045565b5b828202905092915050565b60006120d9826110a6565b91506120e4836110a6565b9250827fffffffffffffffffffffffffffffffffffffffffffffffffffffffffffffffff0382111561211957612118612045565b5b828201905092915050565b7f4e487b7100000000000000000000000000000000000000000000000000000000600052603260045260246000fd5b600061215e826110a6565b9150600082141561217257612171612045565b5b600182039050919050565b7f537472696e67733a20686578206c656e67746820696e73756666696369656e74600082015250565b60006121b36020836118df565b91506121be8261217d565b602082019050919050565b600060208201905081810360008301526121e2816121a6565b905091905056fea2646970667358221220fd9054ef89772d1afbac8143f36214830b082cce5eb8628003b88cc864290f6864736f6c63430008090033a2646970667358221220b200f886e548b0d8c7213043ad4bbc6abd7177bf51ca9befce137ae251ca105564736f6c63430008090033","opcodes":"PUSH1 0x80 PUSH1 0x40 MSTORE PUSH1 0x0 PUSH1 0x2 SSTORE CALLVALUE DUP1 ISZERO PUSH2 0x15 JUMPI PUSH1 0x0 DUP1 REVERT JUMPDEST POP PUSH2 0x29 PUSH1 0x0 DUP1 SHL CALLER PUSH2 0x2E PUSH1 0x20 SHL PUSH1 0x20 SHR JUMP JUMPDEST PUSH2 0x18C JUMP JUMPDEST PUSH2 0x3E DUP3 DUP3 PUSH2 0x11A PUSH1 0x20 SHL PUSH1 0x20 SHR JUMP JUMPDEST PUSH2 0x116 JUMPI PUSH1 0x1 PUSH1 0x0 DUP1 DUP5 DUP2 MSTORE PUSH1 0x20 ADD SWAP1 DUP2 MSTORE PUSH1 0x20 ADD PUSH1 0x0 KECCAK256 PUSH1 0x0 ADD PUSH1 0x0 DUP4 PUSH20 0xFFFFFFFFFFFFFFFFFFFFFFFFFFFFFFFFFFFFFFFF AND PUSH20 0xFFFFFFFFFFFFFFFFFFFFFFFFFFFFFFFFFFFFFFFF AND DUP2 MSTORE PUSH1 0x20 ADD SWAP1 DUP2 MSTORE PUSH1 0x20 ADD PUSH1 0x0 KECCAK256 PUSH1 0x0 PUSH2 0x100 EXP DUP2 SLOAD DUP2 PUSH1 0xFF MUL NOT AND SWAP1 DUP4 ISZERO ISZERO MUL OR SWAP1 SSTORE POP PUSH2 0xBB PUSH2 0x184 PUSH1 0x20 SHL PUSH1 0x20 SHR JUMP JUMPDEST PUSH20 0xFFFFFFFFFFFFFFFFFFFFFFFFFFFFFFFFFFFFFFFF AND DUP2 PUSH20 0xFFFFFFFFFFFFFFFFFFFFFFFFFFFFFFFFFFFFFFFF AND DUP4 PUSH32 0x2F8788117E7EFF1D82E926EC794901D17C78024A50270940304540A733656F0D PUSH1 0x40 MLOAD PUSH1 0x40 MLOAD DUP1 SWAP2 SUB SWAP1 LOG4 JUMPDEST POP POP JUMP JUMPDEST PUSH1 0x0 DUP1 PUSH1 0x0 DUP5 DUP2 MSTORE PUSH1 0x20 ADD SWAP1 DUP2 MSTORE PUSH1 0x20 ADD PUSH1 0x0 KECCAK256 PUSH1 0x0 ADD PUSH1 0x0 DUP4 PUSH20 0xFFFFFFFFFFFFFFFFFFFFFFFFFFFFFFFFFFFFFFFF AND PUSH20 0xFFFFFFFFFFFFFFFFFFFFFFFFFFFFFFFFFFFFFFFF AND DUP2 MSTORE PUSH1 0x20 ADD SWAP1 DUP2 MSTORE PUSH1 0x20 ADD PUSH1 0x0 KECCAK256 PUSH1 0x0 SWAP1 SLOAD SWAP1 PUSH2 0x100 EXP SWAP1 DIV PUSH1 0xFF AND SWAP1 POP SWAP3 SWAP2 POP POP JUMP JUMPDEST PUSH1 0x0 CALLER SWAP1 POP SWAP1 JUMP JUMPDEST PUSH2 0x3E4D DUP1 PUSH3 0x19C PUSH1 0x0 CODECOPY PUSH1 0x0 RETURN INVALID PUSH1 0x80 PUSH1 0x40 MSTORE CALLVALUE DUP1 ISZERO PUSH3 0x11 JUMPI PUSH1 0x0 DUP1 REVERT JUMPDEST POP PUSH1 0x4 CALLDATASIZE LT PUSH3 0xB8 JUMPI PUSH1 0x0 CALLDATALOAD PUSH1 0xE0 SHR DUP1 PUSH4 0x5556F1AA GT PUSH3 0x7B JUMPI DUP1 PUSH4 0x5556F1AA EQ PUSH3 0x189 JUMPI DUP1 PUSH4 0x613AE8CF EQ PUSH3 0x1A9 JUMPI DUP1 PUSH4 0x91D14854 EQ PUSH3 0x1DF JUMPI DUP1 PUSH4 0xA217FDDF EQ PUSH3 0x215 JUMPI DUP1 PUSH4 0xA6F66035 EQ PUSH3 0x237 JUMPI DUP1 PUSH4 0xD547741F EQ PUSH3 0x259 JUMPI PUSH3 0xB8 JUMP JUMPDEST DUP1 PUSH4 0x1FFC9A7 EQ PUSH3 0xBD JUMPI DUP1 PUSH4 0x248A9CA3 EQ PUSH3 0xF3 JUMPI DUP1 PUSH4 0x2F2FF15D EQ PUSH3 0x129 JUMPI DUP1 PUSH4 0x36568ABE EQ PUSH3 0x149 JUMPI DUP1 PUSH4 0x397A8BAB EQ PUSH3 0x169 JUMPI JUMPDEST PUSH1 0x0 DUP1 REVERT JUMPDEST PUSH3 0xDB PUSH1 0x4 DUP1 CALLDATASIZE SUB DUP2 ADD SWAP1 PUSH3 0xD5 SWAP2 SWAP1 PUSH3 0xC2F JUMP JUMPDEST PUSH3 0x279 JUMP JUMPDEST PUSH1 0x40 MLOAD PUSH3 0xEA SWAP2 SWAP1 PUSH3 0xC7E JUMP JUMPDEST PUSH1 0x40 MLOAD DUP1 SWAP2 SUB SWAP1 RETURN JUMPDEST PUSH3 0x111 PUSH1 0x4 DUP1 CALLDATASIZE SUB DUP2 ADD SWAP1 PUSH3 0x10B SWAP2 SWAP1 PUSH3 0xCD6 JUMP JUMPDEST PUSH3 0x2F6 JUMP JUMPDEST PUSH1 0x40 MLOAD PUSH3 0x120 SWAP2 SWAP1 PUSH3 0xD19 JUMP JUMPDEST PUSH1 0x40 MLOAD DUP1 SWAP2 SUB SWAP1 RETURN JUMPDEST PUSH3 0x147 PUSH1 0x4 DUP1 CALLDATASIZE SUB DUP2 ADD SWAP1 PUSH3 0x141 SWAP2 SWAP1 PUSH3 0xD9B JUMP JUMPDEST PUSH3 0x315 JUMP JUMPDEST STOP JUMPDEST PUSH3 0x167 PUSH1 0x4 DUP1 CALLDATASIZE SUB DUP2 ADD SWAP1 PUSH3 0x161 SWAP2 SWAP1 PUSH3 0xD9B JUMP JUMPDEST PUSH3 0x33C JUMP JUMPDEST STOP JUMPDEST PUSH3 0x187 PUSH1 0x4 DUP1 CALLDATASIZE SUB DUP2 ADD SWAP1 PUSH3 0x181 SWAP2 SWAP1 PUSH3 0xDE2 JUMP JUMPDEST PUSH3 0x3C6 JUMP JUMPDEST STOP JUMPDEST PUSH3 0x1A7 PUSH1 0x4 DUP1 CALLDATASIZE SUB DUP2 ADD SWAP1 PUSH3 0x1A1 SWAP2 SWAP1 PUSH3 0xE14 JUMP JUMPDEST PUSH3 0x3E8 JUMP JUMPDEST STOP JUMPDEST PUSH3 0x1C7 PUSH1 0x4 DUP1 CALLDATASIZE SUB DUP2 ADD SWAP1 PUSH3 0x1C1 SWAP2 SWAP1 PUSH3 0xFF8 JUMP JUMPDEST PUSH3 0x471 JUMP JUMPDEST PUSH1 0x40 MLOAD PUSH3 0x1D6 SWAP2 SWAP1 PUSH3 0x109A JUMP JUMPDEST PUSH1 0x40 MLOAD DUP1 SWAP2 SUB SWAP1 RETURN JUMPDEST PUSH3 0x1FD PUSH1 0x4 DUP1 CALLDATASIZE SUB DUP2 ADD SWAP1 PUSH3 0x1F7 SWAP2 SWAP1 PUSH3 0xD9B JUMP JUMPDEST PUSH3 0x551 JUMP JUMPDEST PUSH1 0x40 MLOAD PUSH3 0x20C SWAP2 SWAP1 PUSH3 0xC7E JUMP JUMPDEST PUSH1 0x40 MLOAD DUP1 SWAP2 SUB SWAP1 RETURN JUMPDEST PUSH3 0x21F PUSH3 0x5BB JUMP JUMPDEST PUSH1 0x40 MLOAD PUSH3 0x22E SWAP2 SWAP1 PUSH3 0xD19 JUMP JUMPDEST PUSH1 0x40 MLOAD DUP1 SWAP2 SUB SWAP1 RETURN JUMPDEST PUSH3 0x241 PUSH3 0x5C2 JUMP JUMPDEST PUSH1 0x40 MLOAD PUSH3 0x250 SWAP2 SWAP1 PUSH3 0x109A JUMP JUMPDEST PUSH1 0x40 MLOAD DUP1 SWAP2 SUB SWAP1 RETURN JUMPDEST PUSH3 0x277 PUSH1 0x4 DUP1 CALLDATASIZE SUB DUP2 ADD SWAP1 PUSH3 0x271 SWAP2 SWAP1 PUSH3 0xD9B JUMP JUMPDEST PUSH3 0x61A JUMP JUMPDEST STOP JUMPDEST PUSH1 0x0 PUSH32 0x7965DB0B00000000000000000000000000000000000000000000000000000000 PUSH28 0xFFFFFFFFFFFFFFFFFFFFFFFFFFFFFFFFFFFFFFFFFFFFFFFFFFFFFFFF NOT AND DUP3 PUSH28 0xFFFFFFFFFFFFFFFFFFFFFFFFFFFFFFFFFFFFFFFFFFFFFFFFFFFFFFFF NOT AND EQ DUP1 PUSH3 0x2EF JUMPI POP PUSH3 0x2EE DUP3 PUSH3 0x641 JUMP JUMPDEST JUMPDEST SWAP1 POP SWAP2 SWAP1 POP JUMP JUMPDEST PUSH1 0x0 DUP1 PUSH1 0x0 DUP4 DUP2 MSTORE PUSH1 0x20 ADD SWAP1 DUP2 MSTORE PUSH1 0x20 ADD PUSH1 0x0 KECCAK256 PUSH1 0x1 ADD SLOAD SWAP1 POP SWAP2 SWAP1 POP JUMP JUMPDEST PUSH3 0x320 DUP3 PUSH3 0x2F6 JUMP JUMPDEST PUSH3 0x32B DUP2 PUSH3 0x6AB JUMP JUMPDEST PUSH3 0x337 DUP4 DUP4 PUSH3 0x6C3 JUMP JUMPDEST POP POP POP JUMP JUMPDEST PUSH3 0x346 PUSH3 0x7A8 JUMP JUMPDEST PUSH20 0xFFFFFFFFFFFFFFFFFFFFFFFFFFFFFFFFFFFFFFFF AND DUP2 PUSH20 0xFFFFFFFFFFFFFFFFFFFFFFFFFFFFFFFFFFFFFFFF AND EQ PUSH3 0x3B6 JUMPI PUSH1 0x40 MLOAD PUSH32 0x8C379A000000000000000000000000000000000000000000000000000000000 DUP2 MSTORE PUSH1 0x4 ADD PUSH3 0x3AD SWAP1 PUSH3 0x113E JUMP JUMPDEST PUSH1 0x40 MLOAD DUP1 SWAP2 SUB SWAP1 REVERT JUMPDEST PUSH3 0x3C2 DUP3 DUP3 PUSH3 0x7B0 JUMP JUMPDEST POP POP JUMP JUMPDEST PUSH1 0x0 DUP1 SHL PUSH3 0x3D5 DUP2 PUSH3 0x6AB JUMP JUMPDEST PUSH3 0x3E4 PUSH1 0x0 DUP1 SHL DUP4 PUSH3 0x6C3 JUMP JUMPDEST POP POP JUMP JUMPDEST PUSH1 0x0 DUP1 SHL PUSH3 0x3F7 DUP2 PUSH3 0x6AB JUMP JUMPDEST PUSH1 0x0 DUP4 SWAP1 POP DUP1 PUSH20 0xFFFFFFFFFFFFFFFFFFFFFFFFFFFFFFFFFFFFFFFF AND PUSH4 0x397A8BAB DUP5 PUSH1 0x40 MLOAD DUP3 PUSH4 0xFFFFFFFF AND PUSH1 0xE0 SHL DUP2 MSTORE PUSH1 0x4 ADD PUSH3 0x437 SWAP2 SWAP1 PUSH3 0x109A JUMP JUMPDEST PUSH1 0x0 PUSH1 0x40 MLOAD DUP1 DUP4 SUB DUP2 PUSH1 0x0 DUP8 DUP1 EXTCODESIZE ISZERO DUP1 ISZERO PUSH3 0x452 JUMPI PUSH1 0x0 DUP1 REVERT JUMPDEST POP GAS CALL ISZERO DUP1 ISZERO PUSH3 0x467 JUMPI RETURNDATASIZE PUSH1 0x0 DUP1 RETURNDATACOPY RETURNDATASIZE PUSH1 0x0 REVERT JUMPDEST POP POP POP POP POP POP POP POP JUMP JUMPDEST PUSH1 0x0 DUP1 PUSH1 0x0 SHL PUSH3 0x482 DUP2 PUSH3 0x6AB JUMP JUMPDEST PUSH1 0x0 DUP7 DUP7 DUP7 DUP7 PUSH1 0x40 MLOAD PUSH3 0x496 SWAP1 PUSH3 0xBB0 JUMP JUMPDEST PUSH3 0x4A5 SWAP5 SWAP4 SWAP3 SWAP2 SWAP1 PUSH3 0x1204 JUMP JUMPDEST PUSH1 0x40 MLOAD DUP1 SWAP2 SUB SWAP1 PUSH1 0x0 CREATE DUP1 ISZERO DUP1 ISZERO PUSH3 0x4C2 JUMPI RETURNDATASIZE PUSH1 0x0 DUP1 RETURNDATACOPY RETURNDATASIZE PUSH1 0x0 REVERT JUMPDEST POP SWAP1 POP PUSH1 0x1 DUP2 SWAP1 DUP1 PUSH1 0x1 DUP2 SLOAD ADD DUP1 DUP3 SSTORE DUP1 SWAP2 POP POP PUSH1 0x1 SWAP1 SUB SWAP1 PUSH1 0x0 MSTORE PUSH1 0x20 PUSH1 0x0 KECCAK256 ADD PUSH1 0x0 SWAP1 SWAP2 SWAP1 SWAP2 SWAP1 SWAP2 PUSH2 0x100 EXP DUP2 SLOAD DUP2 PUSH20 0xFFFFFFFFFFFFFFFFFFFFFFFFFFFFFFFFFFFFFFFF MUL NOT AND SWAP1 DUP4 PUSH20 0xFFFFFFFFFFFFFFFFFFFFFFFFFFFFFFFFFFFFFFFF AND MUL OR SWAP1 SSTORE POP PUSH1 0x1 PUSH1 0x2 PUSH1 0x0 DUP3 DUP3 SLOAD PUSH3 0x53D SWAP2 SWAP1 PUSH3 0x1287 JUMP JUMPDEST SWAP3 POP POP DUP2 SWAP1 SSTORE POP DUP1 SWAP3 POP POP POP SWAP5 SWAP4 POP POP POP POP JUMP JUMPDEST PUSH1 0x0 DUP1 PUSH1 0x0 DUP5 DUP2 MSTORE PUSH1 0x20 ADD SWAP1 DUP2 MSTORE PUSH1 0x20 ADD PUSH1 0x0 KECCAK256 PUSH1 0x0 ADD PUSH1 0x0 DUP4 PUSH20 0xFFFFFFFFFFFFFFFFFFFFFFFFFFFFFFFFFFFFFFFF AND PUSH20 0xFFFFFFFFFFFFFFFFFFFFFFFFFFFFFFFFFFFFFFFF AND DUP2 MSTORE PUSH1 0x20 ADD SWAP1 DUP2 MSTORE PUSH1 0x20 ADD PUSH1 0x0 KECCAK256 PUSH1 0x0 SWAP1 SLOAD SWAP1 PUSH2 0x100 EXP SWAP1 DIV PUSH1 0xFF AND SWAP1 POP SWAP3 SWAP2 POP POP JUMP JUMPDEST PUSH1 0x0 DUP1 SHL DUP2 JUMP JUMPDEST PUSH1 0x0 PUSH1 0x1 DUP1 PUSH1 0x2 SLOAD PUSH3 0x5D6 SWAP2 SWAP1 PUSH3 0x12E4 JUMP JUMPDEST DUP2 SLOAD DUP2 LT PUSH3 0x5EA JUMPI PUSH3 0x5E9 PUSH3 0x131F JUMP JUMPDEST JUMPDEST SWAP1 PUSH1 0x0 MSTORE PUSH1 0x20 PUSH1 0x0 KECCAK256 ADD PUSH1 0x0 SWAP1 SLOAD SWAP1 PUSH2 0x100 EXP SWAP1 DIV PUSH20 0xFFFFFFFFFFFFFFFFFFFFFFFFFFFFFFFFFFFFFFFF AND SWAP1 POP SWAP1 JUMP JUMPDEST PUSH3 0x625 DUP3 PUSH3 0x2F6 JUMP JUMPDEST PUSH3 0x630 DUP2 PUSH3 0x6AB JUMP JUMPDEST PUSH3 0x63C DUP4 DUP4 PUSH3 0x7B0 JUMP JUMPDEST POP POP POP JUMP JUMPDEST PUSH1 0x0 PUSH32 0x1FFC9A700000000000000000000000000000000000000000000000000000000 PUSH28 0xFFFFFFFFFFFFFFFFFFFFFFFFFFFFFFFFFFFFFFFFFFFFFFFFFFFFFFFF NOT AND DUP3 PUSH28 0xFFFFFFFFFFFFFFFFFFFFFFFFFFFFFFFFFFFFFFFFFFFFFFFFFFFFFFFF NOT AND EQ SWAP1 POP SWAP2 SWAP1 POP JUMP JUMPDEST PUSH3 0x6C0 DUP2 PUSH3 0x6BA PUSH3 0x7A8 JUMP JUMPDEST PUSH3 0x896 JUMP JUMPDEST POP JUMP JUMPDEST PUSH3 0x6CF DUP3 DUP3 PUSH3 0x551 JUMP JUMPDEST PUSH3 0x7A4 JUMPI PUSH1 0x1 PUSH1 0x0 DUP1 DUP5 DUP2 MSTORE PUSH1 0x20 ADD SWAP1 DUP2 MSTORE PUSH1 0x20 ADD PUSH1 0x0 KECCAK256 PUSH1 0x0 ADD PUSH1 0x0 DUP4 PUSH20 0xFFFFFFFFFFFFFFFFFFFFFFFFFFFFFFFFFFFFFFFF AND PUSH20 0xFFFFFFFFFFFFFFFFFFFFFFFFFFFFFFFFFFFFFFFF AND DUP2 MSTORE PUSH1 0x20 ADD SWAP1 DUP2 MSTORE PUSH1 0x20 ADD PUSH1 0x0 KECCAK256 PUSH1 0x0 PUSH2 0x100 EXP DUP2 SLOAD DUP2 PUSH1 0xFF MUL NOT AND SWAP1 DUP4 ISZERO ISZERO MUL OR SWAP1 SSTORE POP PUSH3 0x749 PUSH3 0x7A8 JUMP JUMPDEST PUSH20 0xFFFFFFFFFFFFFFFFFFFFFFFFFFFFFFFFFFFFFFFF AND DUP2 PUSH20 0xFFFFFFFFFFFFFFFFFFFFFFFFFFFFFFFFFFFFFFFF AND DUP4 PUSH32 0x2F8788117E7EFF1D82E926EC794901D17C78024A50270940304540A733656F0D PUSH1 0x40 MLOAD PUSH1 0x40 MLOAD DUP1 SWAP2 SUB SWAP1 LOG4 JUMPDEST POP POP JUMP JUMPDEST PUSH1 0x0 CALLER SWAP1 POP SWAP1 JUMP JUMPDEST PUSH3 0x7BC DUP3 DUP3 PUSH3 0x551 JUMP JUMPDEST ISZERO PUSH3 0x892 JUMPI PUSH1 0x0 DUP1 PUSH1 0x0 DUP5 DUP2 MSTORE PUSH1 0x20 ADD SWAP1 DUP2 MSTORE PUSH1 0x20 ADD PUSH1 0x0 KECCAK256 PUSH1 0x0 ADD PUSH1 0x0 DUP4 PUSH20 0xFFFFFFFFFFFFFFFFFFFFFFFFFFFFFFFFFFFFFFFF AND PUSH20 0xFFFFFFFFFFFFFFFFFFFFFFFFFFFFFFFFFFFFFFFF AND DUP2 MSTORE PUSH1 0x20 ADD SWAP1 DUP2 MSTORE PUSH1 0x20 ADD PUSH1 0x0 KECCAK256 PUSH1 0x0 PUSH2 0x100 EXP DUP2 SLOAD DUP2 PUSH1 0xFF MUL NOT AND SWAP1 DUP4 ISZERO ISZERO MUL OR SWAP1 SSTORE POP PUSH3 0x837 PUSH3 0x7A8 JUMP JUMPDEST PUSH20 0xFFFFFFFFFFFFFFFFFFFFFFFFFFFFFFFFFFFFFFFF AND DUP2 PUSH20 0xFFFFFFFFFFFFFFFFFFFFFFFFFFFFFFFFFFFFFFFF AND DUP4 PUSH32 0xF6391F5C32D9C69D2A47EA670B442974B53935D1EDC7FD64EB21E047A839171B PUSH1 0x40 MLOAD PUSH1 0x40 MLOAD DUP1 SWAP2 SUB SWAP1 LOG4 JUMPDEST POP POP JUMP JUMPDEST PUSH3 0x8A2 DUP3 DUP3 PUSH3 0x551 JUMP JUMPDEST PUSH3 0x922 JUMPI PUSH3 0x8B2 DUP2 PUSH3 0x926 JUMP JUMPDEST PUSH3 0x8C2 DUP4 PUSH1 0x0 SHR PUSH1 0x20 PUSH3 0x955 JUMP JUMPDEST PUSH1 0x40 MLOAD PUSH1 0x20 ADD PUSH3 0x8D5 SWAP3 SWAP2 SWAP1 PUSH3 0x143B JUMP JUMPDEST PUSH1 0x40 MLOAD PUSH1 0x20 DUP2 DUP4 SUB SUB DUP2 MSTORE SWAP1 PUSH1 0x40 MSTORE PUSH1 0x40 MLOAD PUSH32 0x8C379A000000000000000000000000000000000000000000000000000000000 DUP2 MSTORE PUSH1 0x4 ADD PUSH3 0x919 SWAP2 SWAP1 PUSH3 0x14BE JUMP JUMPDEST PUSH1 0x40 MLOAD DUP1 SWAP2 SUB SWAP1 REVERT JUMPDEST POP POP JUMP JUMPDEST PUSH1 0x60 PUSH3 0x94E DUP3 PUSH20 0xFFFFFFFFFFFFFFFFFFFFFFFFFFFFFFFFFFFFFFFF AND PUSH1 0x14 PUSH1 0xFF AND PUSH3 0x955 JUMP JUMPDEST SWAP1 POP SWAP2 SWAP1 POP JUMP JUMPDEST PUSH1 0x60 PUSH1 0x0 PUSH1 0x2 DUP4 PUSH1 0x2 PUSH3 0x96A SWAP2 SWAP1 PUSH3 0x14E2 JUMP JUMPDEST PUSH3 0x976 SWAP2 SWAP1 PUSH3 0x1287 JUMP JUMPDEST PUSH8 0xFFFFFFFFFFFFFFFF DUP2 GT ISZERO PUSH3 0x992 JUMPI PUSH3 0x991 PUSH3 0xEB1 JUMP JUMPDEST JUMPDEST PUSH1 0x40 MLOAD SWAP1 DUP1 DUP3 MSTORE DUP1 PUSH1 0x1F ADD PUSH1 0x1F NOT AND PUSH1 0x20 ADD DUP3 ADD PUSH1 0x40 MSTORE DUP1 ISZERO PUSH3 0x9C5 JUMPI DUP2 PUSH1 0x20 ADD PUSH1 0x1 DUP3 MUL DUP1 CALLDATASIZE DUP4 CALLDATACOPY DUP1 DUP3 ADD SWAP2 POP POP SWAP1 POP JUMPDEST POP SWAP1 POP PUSH32 0x3000000000000000000000000000000000000000000000000000000000000000 DUP2 PUSH1 0x0 DUP2 MLOAD DUP2 LT PUSH3 0xA00 JUMPI PUSH3 0x9FF PUSH3 0x131F JUMP JUMPDEST JUMPDEST PUSH1 0x20 ADD ADD SWAP1 PUSH31 0xFFFFFFFFFFFFFFFFFFFFFFFFFFFFFFFFFFFFFFFFFFFFFFFFFFFFFFFFFFFFFF NOT AND SWAP1 DUP2 PUSH1 0x0 BYTE SWAP1 MSTORE8 POP PUSH32 0x7800000000000000000000000000000000000000000000000000000000000000 DUP2 PUSH1 0x1 DUP2 MLOAD DUP2 LT PUSH3 0xA67 JUMPI PUSH3 0xA66 PUSH3 0x131F JUMP JUMPDEST JUMPDEST PUSH1 0x20 ADD ADD SWAP1 PUSH31 0xFFFFFFFFFFFFFFFFFFFFFFFFFFFFFFFFFFFFFFFFFFFFFFFFFFFFFFFFFFFFFF NOT AND SWAP1 DUP2 PUSH1 0x0 BYTE SWAP1 MSTORE8 POP PUSH1 0x0 PUSH1 0x1 DUP5 PUSH1 0x2 PUSH3 0xAA9 SWAP2 SWAP1 PUSH3 0x14E2 JUMP JUMPDEST PUSH3 0xAB5 SWAP2 SWAP1 PUSH3 0x1287 JUMP JUMPDEST SWAP1 POP JUMPDEST PUSH1 0x1 DUP2 GT ISZERO PUSH3 0xB5F JUMPI PUSH32 0x3031323334353637383961626364656600000000000000000000000000000000 PUSH1 0xF DUP7 AND PUSH1 0x10 DUP2 LT PUSH3 0xAFB JUMPI PUSH3 0xAFA PUSH3 0x131F JUMP JUMPDEST JUMPDEST BYTE PUSH1 0xF8 SHL DUP3 DUP3 DUP2 MLOAD DUP2 LT PUSH3 0xB15 JUMPI PUSH3 0xB14 PUSH3 0x131F JUMP JUMPDEST JUMPDEST PUSH1 0x20 ADD ADD SWAP1 PUSH31 0xFFFFFFFFFFFFFFFFFFFFFFFFFFFFFFFFFFFFFFFFFFFFFFFFFFFFFFFFFFFFFF NOT AND SWAP1 DUP2 PUSH1 0x0 BYTE SWAP1 MSTORE8 POP PUSH1 0x4 DUP6 SWAP1 SHR SWAP5 POP DUP1 PUSH3 0xB57 SWAP1 PUSH3 0x1543 JUMP JUMPDEST SWAP1 POP PUSH3 0xAB8 JUMP JUMPDEST POP PUSH1 0x0 DUP5 EQ PUSH3 0xBA6 JUMPI PUSH1 0x40 MLOAD PUSH32 0x8C379A000000000000000000000000000000000000000000000000000000000 DUP2 MSTORE PUSH1 0x4 ADD PUSH3 0xB9D SWAP1 PUSH3 0x15C2 JUMP JUMPDEST PUSH1 0x40 MLOAD DUP1 SWAP2 SUB SWAP1 REVERT JUMPDEST DUP1 SWAP2 POP POP SWAP3 SWAP2 POP POP JUMP JUMPDEST PUSH2 0x2833 DUP1 PUSH3 0x15E5 DUP4 CODECOPY ADD SWAP1 JUMP JUMPDEST PUSH1 0x0 PUSH1 0x40 MLOAD SWAP1 POP SWAP1 JUMP JUMPDEST PUSH1 0x0 DUP1 REVERT JUMPDEST PUSH1 0x0 DUP1 REVERT JUMPDEST PUSH1 0x0 PUSH32 0xFFFFFFFF00000000000000000000000000000000000000000000000000000000 DUP3 AND SWAP1 POP SWAP2 SWAP1 POP JUMP JUMPDEST PUSH3 0xC09 DUP2 PUSH3 0xBD2 JUMP JUMPDEST DUP2 EQ PUSH3 0xC15 JUMPI PUSH1 0x0 DUP1 REVERT JUMPDEST POP JUMP JUMPDEST PUSH1 0x0 DUP2 CALLDATALOAD SWAP1 POP PUSH3 0xC29 DUP2 PUSH3 0xBFE JUMP JUMPDEST SWAP3 SWAP2 POP POP JUMP JUMPDEST PUSH1 0x0 PUSH1 0x20 DUP3 DUP5 SUB SLT ISZERO PUSH3 0xC48 JUMPI PUSH3 0xC47 PUSH3 0xBC8 JUMP JUMPDEST JUMPDEST PUSH1 0x0 PUSH3 0xC58 DUP5 DUP3 DUP6 ADD PUSH3 0xC18 JUMP JUMPDEST SWAP2 POP POP SWAP3 SWAP2 POP POP JUMP JUMPDEST PUSH1 0x0 DUP2 ISZERO ISZERO SWAP1 POP SWAP2 SWAP1 POP JUMP JUMPDEST PUSH3 0xC78 DUP2 PUSH3 0xC61 JUMP JUMPDEST DUP3 MSTORE POP POP JUMP JUMPDEST PUSH1 0x0 PUSH1 0x20 DUP3 ADD SWAP1 POP PUSH3 0xC95 PUSH1 0x0 DUP4 ADD DUP5 PUSH3 0xC6D JUMP JUMPDEST SWAP3 SWAP2 POP POP JUMP JUMPDEST PUSH1 0x0 DUP2 SWAP1 POP SWAP2 SWAP1 POP JUMP JUMPDEST PUSH3 0xCB0 DUP2 PUSH3 0xC9B JUMP JUMPDEST DUP2 EQ PUSH3 0xCBC JUMPI PUSH1 0x0 DUP1 REVERT JUMPDEST POP JUMP JUMPDEST PUSH1 0x0 DUP2 CALLDATALOAD SWAP1 POP PUSH3 0xCD0 DUP2 PUSH3 0xCA5 JUMP JUMPDEST SWAP3 SWAP2 POP POP JUMP JUMPDEST PUSH1 0x0 PUSH1 0x20 DUP3 DUP5 SUB SLT ISZERO PUSH3 0xCEF JUMPI PUSH3 0xCEE PUSH3 0xBC8 JUMP JUMPDEST JUMPDEST PUSH1 0x0 PUSH3 0xCFF DUP5 DUP3 DUP6 ADD PUSH3 0xCBF JUMP JUMPDEST SWAP2 POP POP SWAP3 SWAP2 POP POP JUMP JUMPDEST PUSH3 0xD13 DUP2 PUSH3 0xC9B JUMP JUMPDEST DUP3 MSTORE POP POP JUMP JUMPDEST PUSH1 0x0 PUSH1 0x20 DUP3 ADD SWAP1 POP PUSH3 0xD30 PUSH1 0x0 DUP4 ADD DUP5 PUSH3 0xD08 JUMP JUMPDEST SWAP3 SWAP2 POP POP JUMP JUMPDEST PUSH1 0x0 PUSH20 0xFFFFFFFFFFFFFFFFFFFFFFFFFFFFFFFFFFFFFFFF DUP3 AND SWAP1 POP SWAP2 SWAP1 POP JUMP JUMPDEST PUSH1 0x0 PUSH3 0xD63 DUP3 PUSH3 0xD36 JUMP JUMPDEST SWAP1 POP SWAP2 SWAP1 POP JUMP JUMPDEST PUSH3 0xD75 DUP2 PUSH3 0xD56 JUMP JUMPDEST DUP2 EQ PUSH3 0xD81 JUMPI PUSH1 0x0 DUP1 REVERT JUMPDEST POP JUMP JUMPDEST PUSH1 0x0 DUP2 CALLDATALOAD SWAP1 POP PUSH3 0xD95 DUP2 PUSH3 0xD6A JUMP JUMPDEST SWAP3 SWAP2 POP POP JUMP JUMPDEST PUSH1 0x0 DUP1 PUSH1 0x40 DUP4 DUP6 SUB SLT ISZERO PUSH3 0xDB5 JUMPI PUSH3 0xDB4 PUSH3 0xBC8 JUMP JUMPDEST JUMPDEST PUSH1 0x0 PUSH3 0xDC5 DUP6 DUP3 DUP7 ADD PUSH3 0xCBF JUMP JUMPDEST SWAP3 POP POP PUSH1 0x20 PUSH3 0xDD8 DUP6 DUP3 DUP7 ADD PUSH3 0xD84 JUMP JUMPDEST SWAP2 POP POP SWAP3 POP SWAP3 SWAP1 POP JUMP JUMPDEST PUSH1 0x0 PUSH1 0x20 DUP3 DUP5 SUB SLT ISZERO PUSH3 0xDFB JUMPI PUSH3 0xDFA PUSH3 0xBC8 JUMP JUMPDEST JUMPDEST PUSH1 0x0 PUSH3 0xE0B DUP5 DUP3 DUP6 ADD PUSH3 0xD84 JUMP JUMPDEST SWAP2 POP POP SWAP3 SWAP2 POP POP JUMP JUMPDEST PUSH1 0x0 DUP1 PUSH1 0x40 DUP4 DUP6 SUB SLT ISZERO PUSH3 0xE2E JUMPI PUSH3 0xE2D PUSH3 0xBC8 JUMP JUMPDEST JUMPDEST PUSH1 0x0 PUSH3 0xE3E DUP6 DUP3 DUP7 ADD PUSH3 0xD84 JUMP JUMPDEST SWAP3 POP POP PUSH1 0x20 PUSH3 0xE51 DUP6 DUP3 DUP7 ADD PUSH3 0xD84 JUMP JUMPDEST SWAP2 POP POP SWAP3 POP SWAP3 SWAP1 POP JUMP JUMPDEST PUSH1 0x0 DUP2 SWAP1 POP SWAP2 SWAP1 POP JUMP JUMPDEST PUSH3 0xE70 DUP2 PUSH3 0xE5B JUMP JUMPDEST DUP2 EQ PUSH3 0xE7C JUMPI PUSH1 0x0 DUP1 REVERT JUMPDEST POP JUMP JUMPDEST PUSH1 0x0 DUP2 CALLDATALOAD SWAP1 POP PUSH3 0xE90 DUP2 PUSH3 0xE65 JUMP JUMPDEST SWAP3 SWAP2 POP POP JUMP JUMPDEST PUSH1 0x0 DUP1 REVERT JUMPDEST PUSH1 0x0 DUP1 REVERT JUMPDEST PUSH1 0x0 PUSH1 0x1F NOT PUSH1 0x1F DUP4 ADD AND SWAP1 POP SWAP2 SWAP1 POP JUMP JUMPDEST PUSH32 0x4E487B7100000000000000000000000000000000000000000000000000000000 PUSH1 0x0 MSTORE PUSH1 0x41 PUSH1 0x4 MSTORE PUSH1 0x24 PUSH1 0x0 REVERT JUMPDEST PUSH3 0xEEB DUP3 PUSH3 0xEA0 JUMP JUMPDEST DUP2 ADD DUP2 DUP2 LT PUSH8 0xFFFFFFFFFFFFFFFF DUP3 GT OR ISZERO PUSH3 0xF0D JUMPI PUSH3 0xF0C PUSH3 0xEB1 JUMP JUMPDEST JUMPDEST DUP1 PUSH1 0x40 MSTORE POP POP POP JUMP JUMPDEST PUSH1 0x0 PUSH3 0xF22 PUSH3 0xBBE JUMP JUMPDEST SWAP1 POP PUSH3 0xF30 DUP3 DUP3 PUSH3 0xEE0 JUMP JUMPDEST SWAP2 SWAP1 POP JUMP JUMPDEST PUSH1 0x0 PUSH8 0xFFFFFFFFFFFFFFFF DUP3 GT ISZERO PUSH3 0xF53 JUMPI PUSH3 0xF52 PUSH3 0xEB1 JUMP JUMPDEST JUMPDEST PUSH3 0xF5E DUP3 PUSH3 0xEA0 JUMP JUMPDEST SWAP1 POP PUSH1 0x20 DUP2 ADD SWAP1 POP SWAP2 SWAP1 POP JUMP JUMPDEST DUP3 DUP2 DUP4 CALLDATACOPY PUSH1 0x0 DUP4 DUP4 ADD MSTORE POP POP POP JUMP JUMPDEST PUSH1 0x0 PUSH3 0xF91 PUSH3 0xF8B DUP5 PUSH3 0xF35 JUMP JUMPDEST PUSH3 0xF16 JUMP JUMPDEST SWAP1 POP DUP3 DUP2 MSTORE PUSH1 0x20 DUP2 ADD DUP5 DUP5 DUP5 ADD GT ISZERO PUSH3 0xFB0 JUMPI PUSH3 0xFAF PUSH3 0xE9B JUMP JUMPDEST JUMPDEST PUSH3 0xFBD DUP5 DUP3 DUP6 PUSH3 0xF6B JUMP JUMPDEST POP SWAP4 SWAP3 POP POP POP JUMP JUMPDEST PUSH1 0x0 DUP3 PUSH1 0x1F DUP4 ADD SLT PUSH3 0xFDD JUMPI PUSH3 0xFDC PUSH3 0xE96 JUMP JUMPDEST JUMPDEST DUP2 CALLDATALOAD PUSH3 0xFEF DUP5 DUP3 PUSH1 0x20 DUP7 ADD PUSH3 0xF7A JUMP JUMPDEST SWAP2 POP POP SWAP3 SWAP2 POP POP JUMP JUMPDEST PUSH1 0x0 DUP1 PUSH1 0x0 DUP1 PUSH1 0x80 DUP6 DUP8 SUB SLT ISZERO PUSH3 0x1015 JUMPI PUSH3 0x1014 PUSH3 0xBC8 JUMP JUMPDEST JUMPDEST PUSH1 0x0 PUSH3 0x1025 DUP8 DUP3 DUP9 ADD PUSH3 0xE7F JUMP JUMPDEST SWAP5 POP POP PUSH1 0x20 PUSH3 0x1038 DUP8 DUP3 DUP9 ADD PUSH3 0xD84 JUMP JUMPDEST SWAP4 POP POP PUSH1 0x40 DUP6 ADD CALLDATALOAD PUSH8 0xFFFFFFFFFFFFFFFF DUP2 GT ISZERO PUSH3 0x105C JUMPI PUSH3 0x105B PUSH3 0xBCD JUMP JUMPDEST JUMPDEST PUSH3 0x106A DUP8 DUP3 DUP9 ADD PUSH3 0xFC5 JUMP JUMPDEST SWAP3 POP POP PUSH1 0x60 PUSH3 0x107D DUP8 DUP3 DUP9 ADD PUSH3 0xE7F JUMP JUMPDEST SWAP2 POP POP SWAP3 SWAP6 SWAP2 SWAP5 POP SWAP3 POP JUMP JUMPDEST PUSH3 0x1094 DUP2 PUSH3 0xD56 JUMP JUMPDEST DUP3 MSTORE POP POP JUMP JUMPDEST PUSH1 0x0 PUSH1 0x20 DUP3 ADD SWAP1 POP PUSH3 0x10B1 PUSH1 0x0 DUP4 ADD DUP5 PUSH3 0x1089 JUMP JUMPDEST SWAP3 SWAP2 POP POP JUMP JUMPDEST PUSH1 0x0 DUP3 DUP3 MSTORE PUSH1 0x20 DUP3 ADD SWAP1 POP SWAP3 SWAP2 POP POP JUMP JUMPDEST PUSH32 0x416363657373436F6E74726F6C3A2063616E206F6E6C792072656E6F756E6365 PUSH1 0x0 DUP3 ADD MSTORE PUSH32 0x20726F6C657320666F722073656C660000000000000000000000000000000000 PUSH1 0x20 DUP3 ADD MSTORE POP JUMP JUMPDEST PUSH1 0x0 PUSH3 0x1126 PUSH1 0x2F DUP4 PUSH3 0x10B7 JUMP JUMPDEST SWAP2 POP PUSH3 0x1133 DUP3 PUSH3 0x10C8 JUMP JUMPDEST PUSH1 0x40 DUP3 ADD SWAP1 POP SWAP2 SWAP1 POP JUMP JUMPDEST PUSH1 0x0 PUSH1 0x20 DUP3 ADD SWAP1 POP DUP2 DUP2 SUB PUSH1 0x0 DUP4 ADD MSTORE PUSH3 0x1159 DUP2 PUSH3 0x1117 JUMP JUMPDEST SWAP1 POP SWAP2 SWAP1 POP JUMP JUMPDEST PUSH3 0x116B DUP2 PUSH3 0xE5B JUMP JUMPDEST DUP3 MSTORE POP POP JUMP JUMPDEST PUSH1 0x0 DUP2 MLOAD SWAP1 POP SWAP2 SWAP1 POP JUMP JUMPDEST PUSH1 0x0 DUP3 DUP3 MSTORE PUSH1 0x20 DUP3 ADD SWAP1 POP SWAP3 SWAP2 POP POP JUMP JUMPDEST PUSH1 0x0 JUMPDEST DUP4 DUP2 LT ISZERO PUSH3 0x11AD JUMPI DUP1 DUP3 ADD MLOAD DUP2 DUP5 ADD MSTORE PUSH1 0x20 DUP2 ADD SWAP1 POP PUSH3 0x1190 JUMP JUMPDEST DUP4 DUP2 GT ISZERO PUSH3 0x11BD JUMPI PUSH1 0x0 DUP5 DUP5 ADD MSTORE JUMPDEST POP POP POP POP JUMP JUMPDEST PUSH1 0x0 PUSH3 0x11D0 DUP3 PUSH3 0x1171 JUMP JUMPDEST PUSH3 0x11DC DUP2 DUP6 PUSH3 0x117C JUMP JUMPDEST SWAP4 POP PUSH3 0x11EE DUP2 DUP6 PUSH1 0x20 DUP7 ADD PUSH3 0x118D JUMP JUMPDEST PUSH3 0x11F9 DUP2 PUSH3 0xEA0 JUMP JUMPDEST DUP5 ADD SWAP2 POP POP SWAP3 SWAP2 POP POP JUMP JUMPDEST PUSH1 0x0 PUSH1 0x80 DUP3 ADD SWAP1 POP PUSH3 0x121B PUSH1 0x0 DUP4 ADD DUP8 PUSH3 0x1160 JUMP JUMPDEST PUSH3 0x122A PUSH1 0x20 DUP4 ADD DUP7 PUSH3 0x1089 JUMP JUMPDEST DUP2 DUP2 SUB PUSH1 0x40 DUP4 ADD MSTORE PUSH3 0x123E DUP2 DUP6 PUSH3 0x11C3 JUMP JUMPDEST SWAP1 POP PUSH3 0x124F PUSH1 0x60 DUP4 ADD DUP5 PUSH3 0x1160 JUMP JUMPDEST SWAP6 SWAP5 POP POP POP POP POP JUMP JUMPDEST PUSH32 0x4E487B7100000000000000000000000000000000000000000000000000000000 PUSH1 0x0 MSTORE PUSH1 0x11 PUSH1 0x4 MSTORE PUSH1 0x24 PUSH1 0x0 REVERT JUMPDEST PUSH1 0x0 PUSH3 0x1294 DUP3 PUSH3 0xE5B JUMP JUMPDEST SWAP2 POP PUSH3 0x12A1 DUP4 PUSH3 0xE5B JUMP JUMPDEST SWAP3 POP DUP3 PUSH32 0xFFFFFFFFFFFFFFFFFFFFFFFFFFFFFFFFFFFFFFFFFFFFFFFFFFFFFFFFFFFFFFFF SUB DUP3 GT ISZERO PUSH3 0x12D9 JUMPI PUSH3 0x12D8 PUSH3 0x1258 JUMP JUMPDEST JUMPDEST DUP3 DUP3 ADD SWAP1 POP SWAP3 SWAP2 POP POP JUMP JUMPDEST PUSH1 0x0 PUSH3 0x12F1 DUP3 PUSH3 0xE5B JUMP JUMPDEST SWAP2 POP PUSH3 0x12FE DUP4 PUSH3 0xE5B JUMP JUMPDEST SWAP3 POP DUP3 DUP3 LT ISZERO PUSH3 0x1314 JUMPI PUSH3 0x1313 PUSH3 0x1258 JUMP JUMPDEST JUMPDEST DUP3 DUP3 SUB SWAP1 POP SWAP3 SWAP2 POP POP JUMP JUMPDEST PUSH32 0x4E487B7100000000000000000000000000000000000000000000000000000000 PUSH1 0x0 MSTORE PUSH1 0x32 PUSH1 0x4 MSTORE PUSH1 0x24 PUSH1 0x0 REVERT JUMPDEST PUSH1 0x0 DUP2 SWAP1 POP SWAP3 SWAP2 POP POP JUMP JUMPDEST PUSH32 0x416363657373436F6E74726F6C3A206163636F756E7420000000000000000000 PUSH1 0x0 DUP3 ADD MSTORE POP JUMP JUMPDEST PUSH1 0x0 PUSH3 0x1391 PUSH1 0x17 DUP4 PUSH3 0x134E JUMP JUMPDEST SWAP2 POP PUSH3 0x139E DUP3 PUSH3 0x1359 JUMP JUMPDEST PUSH1 0x17 DUP3 ADD SWAP1 POP SWAP2 SWAP1 POP JUMP JUMPDEST PUSH1 0x0 DUP2 MLOAD SWAP1 POP SWAP2 SWAP1 POP JUMP JUMPDEST PUSH1 0x0 PUSH3 0x13C1 DUP3 PUSH3 0x13A9 JUMP JUMPDEST PUSH3 0x13CD DUP2 DUP6 PUSH3 0x134E JUMP JUMPDEST SWAP4 POP PUSH3 0x13DF DUP2 DUP6 PUSH1 0x20 DUP7 ADD PUSH3 0x118D JUMP JUMPDEST DUP1 DUP5 ADD SWAP2 POP POP SWAP3 SWAP2 POP POP JUMP JUMPDEST PUSH32 0x206973206D697373696E6720726F6C6520000000000000000000000000000000 PUSH1 0x0 DUP3 ADD MSTORE POP JUMP JUMPDEST PUSH1 0x0 PUSH3 0x1423 PUSH1 0x11 DUP4 PUSH3 0x134E JUMP JUMPDEST SWAP2 POP PUSH3 0x1430 DUP3 PUSH3 0x13EB JUMP JUMPDEST PUSH1 0x11 DUP3 ADD SWAP1 POP SWAP2 SWAP1 POP JUMP JUMPDEST PUSH1 0x0 PUSH3 0x1448 DUP3 PUSH3 0x1382 JUMP JUMPDEST SWAP2 POP PUSH3 0x1456 DUP3 DUP6 PUSH3 0x13B4 JUMP JUMPDEST SWAP2 POP PUSH3 0x1463 DUP3 PUSH3 0x1414 JUMP JUMPDEST SWAP2 POP PUSH3 0x1471 DUP3 DUP5 PUSH3 0x13B4 JUMP JUMPDEST SWAP2 POP DUP2 SWAP1 POP SWAP4 SWAP3 POP POP POP JUMP JUMPDEST PUSH1 0x0 PUSH3 0x148A DUP3 PUSH3 0x13A9 JUMP JUMPDEST PUSH3 0x1496 DUP2 DUP6 PUSH3 0x10B7 JUMP JUMPDEST SWAP4 POP PUSH3 0x14A8 DUP2 DUP6 PUSH1 0x20 DUP7 ADD PUSH3 0x118D JUMP JUMPDEST PUSH3 0x14B3 DUP2 PUSH3 0xEA0 JUMP JUMPDEST DUP5 ADD SWAP2 POP POP SWAP3 SWAP2 POP POP JUMP JUMPDEST PUSH1 0x0 PUSH1 0x20 DUP3 ADD SWAP1 POP DUP2 DUP2 SUB PUSH1 0x0 DUP4 ADD MSTORE PUSH3 0x14DA DUP2 DUP5 PUSH3 0x147D JUMP JUMPDEST SWAP1 POP SWAP3 SWAP2 POP POP JUMP JUMPDEST PUSH1 0x0 PUSH3 0x14EF DUP3 PUSH3 0xE5B JUMP JUMPDEST SWAP2 POP PUSH3 0x14FC DUP4 PUSH3 0xE5B JUMP JUMPDEST SWAP3 POP DUP2 PUSH32 0xFFFFFFFFFFFFFFFFFFFFFFFFFFFFFFFFFFFFFFFFFFFFFFFFFFFFFFFFFFFFFFFF DIV DUP4 GT DUP3 ISZERO ISZERO AND ISZERO PUSH3 0x1538 JUMPI PUSH3 0x1537 PUSH3 0x1258 JUMP JUMPDEST JUMPDEST DUP3 DUP3 MUL SWAP1 POP SWAP3 SWAP2 POP POP JUMP JUMPDEST PUSH1 0x0 PUSH3 0x1550 DUP3 PUSH3 0xE5B JUMP JUMPDEST SWAP2 POP PUSH1 0x0 DUP3 EQ ISZERO PUSH3 0x1567 JUMPI PUSH3 0x1566 PUSH3 0x1258 JUMP JUMPDEST JUMPDEST PUSH1 0x1 DUP3 SUB SWAP1 POP SWAP2 SWAP1 POP JUMP JUMPDEST PUSH32 0x537472696E67733A20686578206C656E67746820696E73756666696369656E74 PUSH1 0x0 DUP3 ADD MSTORE POP JUMP JUMPDEST PUSH1 0x0 PUSH3 0x15AA PUSH1 0x20 DUP4 PUSH3 0x10B7 JUMP JUMPDEST SWAP2 POP PUSH3 0x15B7 DUP3 PUSH3 0x1572 JUMP JUMPDEST PUSH1 0x20 DUP3 ADD SWAP1 POP SWAP2 SWAP1 POP JUMP JUMPDEST PUSH1 0x0 PUSH1 0x20 DUP3 ADD SWAP1 POP DUP2 DUP2 SUB PUSH1 0x0 DUP4 ADD MSTORE PUSH3 0x15DD DUP2 PUSH3 0x159B JUMP JUMPDEST SWAP1 POP SWAP2 SWAP1 POP JUMP INVALID PUSH1 0x80 PUSH1 0x40 MSTORE CALLVALUE DUP1 ISZERO PUSH3 0x11 JUMPI PUSH1 0x0 DUP1 REVERT JUMPDEST POP PUSH1 0x40 MLOAD PUSH3 0x2833 CODESIZE SUB DUP1 PUSH3 0x2833 DUP4 CODECOPY DUP2 DUP2 ADD PUSH1 0x40 MSTORE DUP2 ADD SWAP1 PUSH3 0x37 SWAP2 SWAP1 PUSH3 0x50E JUMP JUMPDEST PUSH3 0x4C PUSH1 0x0 DUP1 SHL CALLER PUSH3 0xBE PUSH1 0x20 SHL PUSH1 0x20 SHR JUMP JUMPDEST DUP4 PUSH1 0x1 DUP2 SWAP1 SSTORE POP DUP3 PUSH1 0x2 PUSH1 0x0 PUSH2 0x100 EXP DUP2 SLOAD DUP2 PUSH20 0xFFFFFFFFFFFFFFFFFFFFFFFFFFFFFFFFFFFFFFFF MUL NOT AND SWAP1 DUP4 PUSH20 0xFFFFFFFFFFFFFFFFFFFFFFFFFFFFFFFFFFFFFFFF AND MUL OR SWAP1 SSTORE POP DUP2 PUSH1 0x3 SWAP1 DUP1 MLOAD SWAP1 PUSH1 0x20 ADD SWAP1 PUSH3 0xAC SWAP3 SWAP2 SWAP1 PUSH3 0x221 JUMP JUMPDEST POP DUP1 PUSH1 0x4 DUP2 SWAP1 SSTORE POP POP POP POP POP PUSH3 0x604 JUMP JUMPDEST PUSH3 0xD0 DUP3 DUP3 PUSH3 0x1AF PUSH1 0x20 SHL PUSH1 0x20 SHR JUMP JUMPDEST PUSH3 0x1AB JUMPI PUSH1 0x1 PUSH1 0x0 DUP1 DUP5 DUP2 MSTORE PUSH1 0x20 ADD SWAP1 DUP2 MSTORE PUSH1 0x20 ADD PUSH1 0x0 KECCAK256 PUSH1 0x0 ADD PUSH1 0x0 DUP4 PUSH20 0xFFFFFFFFFFFFFFFFFFFFFFFFFFFFFFFFFFFFFFFF AND PUSH20 0xFFFFFFFFFFFFFFFFFFFFFFFFFFFFFFFFFFFFFFFF AND DUP2 MSTORE PUSH1 0x20 ADD SWAP1 DUP2 MSTORE PUSH1 0x20 ADD PUSH1 0x0 KECCAK256 PUSH1 0x0 PUSH2 0x100 EXP DUP2 SLOAD DUP2 PUSH1 0xFF MUL NOT AND SWAP1 DUP4 ISZERO ISZERO MUL OR SWAP1 SSTORE POP PUSH3 0x150 PUSH3 0x219 PUSH1 0x20 SHL PUSH1 0x20 SHR JUMP JUMPDEST PUSH20 0xFFFFFFFFFFFFFFFFFFFFFFFFFFFFFFFFFFFFFFFF AND DUP2 PUSH20 0xFFFFFFFFFFFFFFFFFFFFFFFFFFFFFFFFFFFFFFFF AND DUP4 PUSH32 0x2F8788117E7EFF1D82E926EC794901D17C78024A50270940304540A733656F0D PUSH1 0x40 MLOAD PUSH1 0x40 MLOAD DUP1 SWAP2 SUB SWAP1 LOG4 JUMPDEST POP POP JUMP JUMPDEST PUSH1 0x0 DUP1 PUSH1 0x0 DUP5 DUP2 MSTORE PUSH1 0x20 ADD SWAP1 DUP2 MSTORE PUSH1 0x20 ADD PUSH1 0x0 KECCAK256 PUSH1 0x0 ADD PUSH1 0x0 DUP4 PUSH20 0xFFFFFFFFFFFFFFFFFFFFFFFFFFFFFFFFFFFFFFFF AND PUSH20 0xFFFFFFFFFFFFFFFFFFFFFFFFFFFFFFFFFFFFFFFF AND DUP2 MSTORE PUSH1 0x20 ADD SWAP1 DUP2 MSTORE PUSH1 0x20 ADD PUSH1 0x0 KECCAK256 PUSH1 0x0 SWAP1 SLOAD SWAP1 PUSH2 0x100 EXP SWAP1 DIV PUSH1 0xFF AND SWAP1 POP SWAP3 SWAP2 POP POP JUMP JUMPDEST PUSH1 0x0 CALLER SWAP1 POP SWAP1 JUMP JUMPDEST DUP3 DUP1 SLOAD PUSH3 0x22F SWAP1 PUSH3 0x5CE JUMP JUMPDEST SWAP1 PUSH1 0x0 MSTORE PUSH1 0x20 PUSH1 0x0 KECCAK256 SWAP1 PUSH1 0x1F ADD PUSH1 0x20 SWAP1 DIV DUP2 ADD SWAP3 DUP3 PUSH3 0x253 JUMPI PUSH1 0x0 DUP6 SSTORE PUSH3 0x29F JUMP JUMPDEST DUP3 PUSH1 0x1F LT PUSH3 0x26E JUMPI DUP1 MLOAD PUSH1 0xFF NOT AND DUP4 DUP1 ADD OR DUP6 SSTORE PUSH3 0x29F JUMP JUMPDEST DUP3 DUP1 ADD PUSH1 0x1 ADD DUP6 SSTORE DUP3 ISZERO PUSH3 0x29F JUMPI SWAP2 DUP3 ADD JUMPDEST DUP3 DUP2 GT ISZERO PUSH3 0x29E JUMPI DUP3 MLOAD DUP3 SSTORE SWAP2 PUSH1 0x20 ADD SWAP2 SWAP1 PUSH1 0x1 ADD SWAP1 PUSH3 0x281 JUMP JUMPDEST JUMPDEST POP SWAP1 POP PUSH3 0x2AE SWAP2 SWAP1 PUSH3 0x2B2 JUMP JUMPDEST POP SWAP1 JUMP JUMPDEST JUMPDEST DUP1 DUP3 GT ISZERO PUSH3 0x2CD JUMPI PUSH1 0x0 DUP2 PUSH1 0x0 SWAP1 SSTORE POP PUSH1 0x1 ADD PUSH3 0x2B3 JUMP JUMPDEST POP SWAP1 JUMP JUMPDEST PUSH1 0x0 PUSH1 0x40 MLOAD SWAP1 POP SWAP1 JUMP JUMPDEST PUSH1 0x0 DUP1 REVERT JUMPDEST PUSH1 0x0 DUP1 REVERT JUMPDEST PUSH1 0x0 DUP2 SWAP1 POP SWAP2 SWAP1 POP JUMP JUMPDEST PUSH3 0x2FA DUP2 PUSH3 0x2E5 JUMP JUMPDEST DUP2 EQ PUSH3 0x306 JUMPI PUSH1 0x0 DUP1 REVERT JUMPDEST POP JUMP JUMPDEST PUSH1 0x0 DUP2 MLOAD SWAP1 POP PUSH3 0x31A DUP2 PUSH3 0x2EF JUMP JUMPDEST SWAP3 SWAP2 POP POP JUMP JUMPDEST PUSH1 0x0 PUSH20 0xFFFFFFFFFFFFFFFFFFFFFFFFFFFFFFFFFFFFFFFF DUP3 AND SWAP1 POP SWAP2 SWAP1 POP JUMP JUMPDEST PUSH1 0x0 PUSH3 0x34D DUP3 PUSH3 0x320 JUMP JUMPDEST SWAP1 POP SWAP2 SWAP1 POP JUMP JUMPDEST PUSH3 0x35F DUP2 PUSH3 0x340 JUMP JUMPDEST DUP2 EQ PUSH3 0x36B JUMPI PUSH1 0x0 DUP1 REVERT JUMPDEST POP JUMP JUMPDEST PUSH1 0x0 DUP2 MLOAD SWAP1 POP PUSH3 0x37F DUP2 PUSH3 0x354 JUMP JUMPDEST SWAP3 SWAP2 POP POP JUMP JUMPDEST PUSH1 0x0 DUP1 REVERT JUMPDEST PUSH1 0x0 DUP1 REVERT JUMPDEST PUSH1 0x0 PUSH1 0x1F NOT PUSH1 0x1F DUP4 ADD AND SWAP1 POP SWAP2 SWAP1 POP JUMP JUMPDEST PUSH32 0x4E487B7100000000000000000000000000000000000000000000000000000000 PUSH1 0x0 MSTORE PUSH1 0x41 PUSH1 0x4 MSTORE PUSH1 0x24 PUSH1 0x0 REVERT JUMPDEST PUSH3 0x3DA DUP3 PUSH3 0x38F JUMP JUMPDEST DUP2 ADD DUP2 DUP2 LT PUSH8 0xFFFFFFFFFFFFFFFF DUP3 GT OR ISZERO PUSH3 0x3FC JUMPI PUSH3 0x3FB PUSH3 0x3A0 JUMP JUMPDEST JUMPDEST DUP1 PUSH1 0x40 MSTORE POP POP POP JUMP JUMPDEST PUSH1 0x0 PUSH3 0x411 PUSH3 0x2D1 JUMP JUMPDEST SWAP1 POP PUSH3 0x41F DUP3 DUP3 PUSH3 0x3CF JUMP JUMPDEST SWAP2 SWAP1 POP JUMP JUMPDEST PUSH1 0x0 PUSH8 0xFFFFFFFFFFFFFFFF DUP3 GT ISZERO PUSH3 0x442 JUMPI PUSH3 0x441 PUSH3 0x3A0 JUMP JUMPDEST JUMPDEST PUSH3 0x44D DUP3 PUSH3 0x38F JUMP JUMPDEST SWAP1 POP PUSH1 0x20 DUP2 ADD SWAP1 POP SWAP2 SWAP1 POP JUMP JUMPDEST PUSH1 0x0 JUMPDEST DUP4 DUP2 LT ISZERO PUSH3 0x47A JUMPI DUP1 DUP3 ADD MLOAD DUP2 DUP5 ADD MSTORE PUSH1 0x20 DUP2 ADD SWAP1 POP PUSH3 0x45D JUMP JUMPDEST DUP4 DUP2 GT ISZERO PUSH3 0x48A JUMPI PUSH1 0x0 DUP5 DUP5 ADD MSTORE JUMPDEST POP POP POP POP JUMP JUMPDEST PUSH1 0x0 PUSH3 0x4A7 PUSH3 0x4A1 DUP5 PUSH3 0x424 JUMP JUMPDEST PUSH3 0x405 JUMP JUMPDEST SWAP1 POP DUP3 DUP2 MSTORE PUSH1 0x20 DUP2 ADD DUP5 DUP5 DUP5 ADD GT ISZERO PUSH3 0x4C6 JUMPI PUSH3 0x4C5 PUSH3 0x38A JUMP JUMPDEST JUMPDEST PUSH3 0x4D3 DUP5 DUP3 DUP6 PUSH3 0x45A JUMP JUMPDEST POP SWAP4 SWAP3 POP POP POP JUMP JUMPDEST PUSH1 0x0 DUP3 PUSH1 0x1F DUP4 ADD SLT PUSH3 0x4F3 JUMPI PUSH3 0x4F2 PUSH3 0x385 JUMP JUMPDEST JUMPDEST DUP2 MLOAD PUSH3 0x505 DUP5 DUP3 PUSH1 0x20 DUP7 ADD PUSH3 0x490 JUMP JUMPDEST SWAP2 POP POP SWAP3 SWAP2 POP POP JUMP JUMPDEST PUSH1 0x0 DUP1 PUSH1 0x0 DUP1 PUSH1 0x80 DUP6 DUP8 SUB SLT ISZERO PUSH3 0x52B JUMPI PUSH3 0x52A PUSH3 0x2DB JUMP JUMPDEST JUMPDEST PUSH1 0x0 PUSH3 0x53B DUP8 DUP3 DUP9 ADD PUSH3 0x309 JUMP JUMPDEST SWAP5 POP POP PUSH1 0x20 PUSH3 0x54E DUP8 DUP3 DUP9 ADD PUSH3 0x36E JUMP JUMPDEST SWAP4 POP POP PUSH1 0x40 DUP6 ADD MLOAD PUSH8 0xFFFFFFFFFFFFFFFF DUP2 GT ISZERO PUSH3 0x572 JUMPI PUSH3 0x571 PUSH3 0x2E0 JUMP JUMPDEST JUMPDEST PUSH3 0x580 DUP8 DUP3 DUP9 ADD PUSH3 0x4DB JUMP JUMPDEST SWAP3 POP POP PUSH1 0x60 PUSH3 0x593 DUP8 DUP3 DUP9 ADD PUSH3 0x309 JUMP JUMPDEST SWAP2 POP POP SWAP3 SWAP6 SWAP2 SWAP5 POP SWAP3 POP JUMP JUMPDEST PUSH32 0x4E487B7100000000000000000000000000000000000000000000000000000000 PUSH1 0x0 MSTORE PUSH1 0x22 PUSH1 0x4 MSTORE PUSH1 0x24 PUSH1 0x0 REVERT JUMPDEST PUSH1 0x0 PUSH1 0x2 DUP3 DIV SWAP1 POP PUSH1 0x1 DUP3 AND DUP1 PUSH3 0x5E7 JUMPI PUSH1 0x7F DUP3 AND SWAP2 POP JUMPDEST PUSH1 0x20 DUP3 LT DUP2 EQ ISZERO PUSH3 0x5FE JUMPI PUSH3 0x5FD PUSH3 0x59F JUMP JUMPDEST JUMPDEST POP SWAP2 SWAP1 POP JUMP JUMPDEST PUSH2 0x221F DUP1 PUSH3 0x614 PUSH1 0x0 CODECOPY PUSH1 0x0 RETURN INVALID PUSH1 0x80 PUSH1 0x40 MSTORE PUSH1 0x4 CALLDATASIZE LT PUSH2 0x10D JUMPI PUSH1 0x0 CALLDATALOAD PUSH1 0xE0 SHR DUP1 PUSH4 0x539A2C6D GT PUSH2 0x95 JUMPI DUP1 PUSH4 0x9C3962F0 GT PUSH2 0x64 JUMPI DUP1 PUSH4 0x9C3962F0 EQ PUSH2 0x362 JUMPI DUP1 PUSH4 0xA217FDDF EQ PUSH2 0x38D JUMPI DUP1 PUSH4 0xA5587088 EQ PUSH2 0x3B8 JUMPI DUP1 PUSH4 0xD547741F EQ PUSH2 0x3E3 JUMPI DUP1 PUSH4 0xDD0B7FFE EQ PUSH2 0x40C JUMPI PUSH2 0x114 JUMP JUMPDEST DUP1 PUSH4 0x539A2C6D EQ PUSH2 0x2B5 JUMPI DUP1 PUSH4 0x5ECBDCE9 EQ PUSH2 0x2DE JUMPI DUP1 PUSH4 0x6E353A1D EQ PUSH2 0x309 JUMPI DUP1 PUSH4 0x91D14854 EQ PUSH2 0x325 JUMPI PUSH2 0x114 JUMP JUMPDEST DUP1 PUSH4 0x2E25D2A6 GT PUSH2 0xDC JUMPI DUP1 PUSH4 0x2E25D2A6 EQ PUSH2 0x1E6 JUMPI DUP1 PUSH4 0x2F2FF15D EQ PUSH2 0x211 JUMPI DUP1 PUSH4 0x30568A8D EQ PUSH2 0x23A JUMPI DUP1 PUSH4 0x36568ABE EQ PUSH2 0x263 JUMPI DUP1 PUSH4 0x397A8BAB EQ PUSH2 0x28C JUMPI PUSH2 0x114 JUMP JUMPDEST DUP1 PUSH4 0x1FFC9A7 EQ PUSH2 0x116 JUMPI DUP1 PUSH4 0x136449DB EQ PUSH2 0x153 JUMPI DUP1 PUSH4 0x248A9CA3 EQ PUSH2 0x17E JUMPI DUP1 PUSH4 0x278BD065 EQ PUSH2 0x1BB JUMPI PUSH2 0x114 JUMP JUMPDEST CALLDATASIZE PUSH2 0x114 JUMPI STOP JUMPDEST STOP JUMPDEST CALLVALUE DUP1 ISZERO PUSH2 0x122 JUMPI PUSH1 0x0 DUP1 REVERT JUMPDEST POP PUSH2 0x13D PUSH1 0x4 DUP1 CALLDATASIZE SUB DUP2 ADD SWAP1 PUSH2 0x138 SWAP2 SWAP1 PUSH2 0x1043 JUMP JUMPDEST PUSH2 0x435 JUMP JUMPDEST PUSH1 0x40 MLOAD PUSH2 0x14A SWAP2 SWAP1 PUSH2 0x108B JUMP JUMPDEST PUSH1 0x40 MLOAD DUP1 SWAP2 SUB SWAP1 RETURN JUMPDEST CALLVALUE DUP1 ISZERO PUSH2 0x15F JUMPI PUSH1 0x0 DUP1 REVERT JUMPDEST POP PUSH2 0x168 PUSH2 0x4AF JUMP JUMPDEST PUSH1 0x40 MLOAD PUSH2 0x175 SWAP2 SWAP1 PUSH2 0x10BF JUMP JUMPDEST PUSH1 0x40 MLOAD DUP1 SWAP2 SUB SWAP1 RETURN JUMPDEST CALLVALUE DUP1 ISZERO PUSH2 0x18A JUMPI PUSH1 0x0 DUP1 REVERT JUMPDEST POP PUSH2 0x1A5 PUSH1 0x4 DUP1 CALLDATASIZE SUB DUP2 ADD SWAP1 PUSH2 0x1A0 SWAP2 SWAP1 PUSH2 0x1110 JUMP JUMPDEST PUSH2 0x4B5 JUMP JUMPDEST PUSH1 0x40 MLOAD PUSH2 0x1B2 SWAP2 SWAP1 PUSH2 0x114C JUMP JUMPDEST PUSH1 0x40 MLOAD DUP1 SWAP2 SUB SWAP1 RETURN JUMPDEST CALLVALUE DUP1 ISZERO PUSH2 0x1C7 JUMPI PUSH1 0x0 DUP1 REVERT JUMPDEST POP PUSH2 0x1D0 PUSH2 0x4D4 JUMP JUMPDEST PUSH1 0x40 MLOAD PUSH2 0x1DD SWAP2 SWAP1 PUSH2 0x1200 JUMP JUMPDEST PUSH1 0x40 MLOAD DUP1 SWAP2 SUB SWAP1 RETURN JUMPDEST CALLVALUE DUP1 ISZERO PUSH2 0x1F2 JUMPI PUSH1 0x0 DUP1 REVERT JUMPDEST POP PUSH2 0x1FB PUSH2 0x562 JUMP JUMPDEST PUSH1 0x40 MLOAD PUSH2 0x208 SWAP2 SWAP1 PUSH2 0x1263 JUMP JUMPDEST PUSH1 0x40 MLOAD DUP1 SWAP2 SUB SWAP1 RETURN JUMPDEST CALLVALUE DUP1 ISZERO PUSH2 0x21D JUMPI PUSH1 0x0 DUP1 REVERT JUMPDEST POP PUSH2 0x238 PUSH1 0x4 DUP1 CALLDATASIZE SUB DUP2 ADD SWAP1 PUSH2 0x233 SWAP2 SWAP1 PUSH2 0x12AA JUMP JUMPDEST PUSH2 0x588 JUMP JUMPDEST STOP JUMPDEST CALLVALUE DUP1 ISZERO PUSH2 0x246 JUMPI PUSH1 0x0 DUP1 REVERT JUMPDEST POP PUSH2 0x261 PUSH1 0x4 DUP1 CALLDATASIZE SUB DUP2 ADD SWAP1 PUSH2 0x25C SWAP2 SWAP1 PUSH2 0x12EA JUMP JUMPDEST PUSH2 0x5A9 JUMP JUMPDEST STOP JUMPDEST CALLVALUE DUP1 ISZERO PUSH2 0x26F JUMPI PUSH1 0x0 DUP1 REVERT JUMPDEST POP PUSH2 0x28A PUSH1 0x4 DUP1 CALLDATASIZE SUB DUP2 ADD SWAP1 PUSH2 0x285 SWAP2 SWAP1 PUSH2 0x12AA JUMP JUMPDEST PUSH2 0x5FB JUMP JUMPDEST STOP JUMPDEST CALLVALUE DUP1 ISZERO PUSH2 0x298 JUMPI PUSH1 0x0 DUP1 REVERT JUMPDEST POP PUSH2 0x2B3 PUSH1 0x4 DUP1 CALLDATASIZE SUB DUP2 ADD SWAP1 PUSH2 0x2AE SWAP2 SWAP1 PUSH2 0x12EA JUMP JUMPDEST PUSH2 0x67E JUMP JUMPDEST STOP JUMPDEST CALLVALUE DUP1 ISZERO PUSH2 0x2C1 JUMPI PUSH1 0x0 DUP1 REVERT JUMPDEST POP PUSH2 0x2DC PUSH1 0x4 DUP1 CALLDATASIZE SUB DUP2 ADD SWAP1 PUSH2 0x2D7 SWAP2 SWAP1 PUSH2 0x17DB JUMP JUMPDEST PUSH2 0x69C JUMP JUMPDEST STOP JUMPDEST CALLVALUE DUP1 ISZERO PUSH2 0x2EA JUMPI PUSH1 0x0 DUP1 REVERT JUMPDEST POP PUSH2 0x2F3 PUSH2 0x751 JUMP JUMPDEST PUSH1 0x40 MLOAD PUSH2 0x300 SWAP2 SWAP1 PUSH2 0x10BF JUMP JUMPDEST PUSH1 0x40 MLOAD DUP1 SWAP2 SUB SWAP1 RETURN JUMPDEST PUSH2 0x323 PUSH1 0x4 DUP1 CALLDATASIZE SUB DUP2 ADD SWAP1 PUSH2 0x31E SWAP2 SWAP1 PUSH2 0x1824 JUMP JUMPDEST PUSH2 0x757 JUMP JUMPDEST STOP JUMPDEST CALLVALUE DUP1 ISZERO PUSH2 0x331 JUMPI PUSH1 0x0 DUP1 REVERT JUMPDEST POP PUSH2 0x34C PUSH1 0x4 DUP1 CALLDATASIZE SUB DUP2 ADD SWAP1 PUSH2 0x347 SWAP2 SWAP1 PUSH2 0x12AA JUMP JUMPDEST PUSH2 0x815 JUMP JUMPDEST PUSH1 0x40 MLOAD PUSH2 0x359 SWAP2 SWAP1 PUSH2 0x108B JUMP JUMPDEST PUSH1 0x40 MLOAD DUP1 SWAP2 SUB SWAP1 RETURN JUMPDEST CALLVALUE DUP1 ISZERO PUSH2 0x36E JUMPI PUSH1 0x0 DUP1 REVERT JUMPDEST POP PUSH2 0x377 PUSH2 0x87F JUMP JUMPDEST PUSH1 0x40 MLOAD PUSH2 0x384 SWAP2 SWAP1 PUSH2 0x108B JUMP JUMPDEST PUSH1 0x40 MLOAD DUP1 SWAP2 SUB SWAP1 RETURN JUMPDEST CALLVALUE DUP1 ISZERO PUSH2 0x399 JUMPI PUSH1 0x0 DUP1 REVERT JUMPDEST POP PUSH2 0x3A2 PUSH2 0x9B5 JUMP JUMPDEST PUSH1 0x40 MLOAD PUSH2 0x3AF SWAP2 SWAP1 PUSH2 0x114C JUMP JUMPDEST PUSH1 0x40 MLOAD DUP1 SWAP2 SUB SWAP1 RETURN JUMPDEST CALLVALUE DUP1 ISZERO PUSH2 0x3C4 JUMPI PUSH1 0x0 DUP1 REVERT JUMPDEST POP PUSH2 0x3CD PUSH2 0x9BC JUMP JUMPDEST PUSH1 0x40 MLOAD PUSH2 0x3DA SWAP2 SWAP1 PUSH2 0x10BF JUMP JUMPDEST PUSH1 0x40 MLOAD DUP1 SWAP2 SUB SWAP1 RETURN JUMPDEST CALLVALUE DUP1 ISZERO PUSH2 0x3EF JUMPI PUSH1 0x0 DUP1 REVERT JUMPDEST POP PUSH2 0x40A PUSH1 0x4 DUP1 CALLDATASIZE SUB DUP2 ADD SWAP1 PUSH2 0x405 SWAP2 SWAP1 PUSH2 0x12AA JUMP JUMPDEST PUSH2 0x9C6 JUMP JUMPDEST STOP JUMPDEST CALLVALUE DUP1 ISZERO PUSH2 0x418 JUMPI PUSH1 0x0 DUP1 REVERT JUMPDEST POP PUSH2 0x433 PUSH1 0x4 DUP1 CALLDATASIZE SUB DUP2 ADD SWAP1 PUSH2 0x42E SWAP2 SWAP1 PUSH2 0x1851 JUMP JUMPDEST PUSH2 0x9E7 JUMP JUMPDEST STOP JUMPDEST PUSH1 0x0 PUSH32 0x7965DB0B00000000000000000000000000000000000000000000000000000000 PUSH28 0xFFFFFFFFFFFFFFFFFFFFFFFFFFFFFFFFFFFFFFFFFFFFFFFFFFFFFFFF NOT AND DUP3 PUSH28 0xFFFFFFFFFFFFFFFFFFFFFFFFFFFFFFFFFFFFFFFFFFFFFFFFFFFFFFFF NOT AND EQ DUP1 PUSH2 0x4A8 JUMPI POP PUSH2 0x4A7 DUP3 PUSH2 0x9FF JUMP JUMPDEST JUMPDEST SWAP1 POP SWAP2 SWAP1 POP JUMP JUMPDEST PUSH1 0x4 SLOAD DUP2 JUMP JUMPDEST PUSH1 0x0 DUP1 PUSH1 0x0 DUP4 DUP2 MSTORE PUSH1 0x20 ADD SWAP1 DUP2 MSTORE PUSH1 0x20 ADD PUSH1 0x0 KECCAK256 PUSH1 0x1 ADD SLOAD SWAP1 POP SWAP2 SWAP1 POP JUMP JUMPDEST PUSH1 0x3 DUP1 SLOAD PUSH2 0x4E1 SWAP1 PUSH2 0x18AD JUMP JUMPDEST DUP1 PUSH1 0x1F ADD PUSH1 0x20 DUP1 SWAP2 DIV MUL PUSH1 0x20 ADD PUSH1 0x40 MLOAD SWAP1 DUP2 ADD PUSH1 0x40 MSTORE DUP1 SWAP3 SWAP2 SWAP1 DUP2 DUP2 MSTORE PUSH1 0x20 ADD DUP3 DUP1 SLOAD PUSH2 0x50D SWAP1 PUSH2 0x18AD JUMP JUMPDEST DUP1 ISZERO PUSH2 0x55A JUMPI DUP1 PUSH1 0x1F LT PUSH2 0x52F JUMPI PUSH2 0x100 DUP1 DUP4 SLOAD DIV MUL DUP4 MSTORE SWAP2 PUSH1 0x20 ADD SWAP2 PUSH2 0x55A JUMP JUMPDEST DUP3 ADD SWAP2 SWAP1 PUSH1 0x0 MSTORE PUSH1 0x20 PUSH1 0x0 KECCAK256 SWAP1 JUMPDEST DUP2 SLOAD DUP2 MSTORE SWAP1 PUSH1 0x1 ADD SWAP1 PUSH1 0x20 ADD DUP1 DUP4 GT PUSH2 0x53D JUMPI DUP3 SWAP1 SUB PUSH1 0x1F AND DUP3 ADD SWAP2 JUMPDEST POP POP POP POP POP DUP2 JUMP JUMPDEST PUSH1 0x2 PUSH1 0x0 SWAP1 SLOAD SWAP1 PUSH2 0x100 EXP SWAP1 DIV PUSH20 0xFFFFFFFFFFFFFFFFFFFFFFFFFFFFFFFFFFFFFFFF AND DUP2 JUMP JUMPDEST PUSH2 0x591 DUP3 PUSH2 0x4B5 JUMP JUMPDEST PUSH2 0x59A DUP2 PUSH2 0xA69 JUMP JUMPDEST PUSH2 0x5A4 DUP4 DUP4 PUSH2 0xA7D JUMP JUMPDEST POP POP POP JUMP JUMPDEST PUSH1 0x0 DUP1 SHL PUSH2 0x5B6 DUP2 PUSH2 0xA69 JUMP JUMPDEST DUP2 PUSH1 0x2 PUSH1 0x0 PUSH2 0x100 EXP DUP2 SLOAD DUP2 PUSH20 0xFFFFFFFFFFFFFFFFFFFFFFFFFFFFFFFFFFFFFFFF MUL NOT AND SWAP1 DUP4 PUSH20 0xFFFFFFFFFFFFFFFFFFFFFFFFFFFFFFFFFFFFFFFF AND MUL OR SWAP1 SSTORE POP POP POP JUMP JUMPDEST PUSH2 0x603 PUSH2 0xB5D JUMP JUMPDEST PUSH20 0xFFFFFFFFFFFFFFFFFFFFFFFFFFFFFFFFFFFFFFFF AND DUP2 PUSH20 0xFFFFFFFFFFFFFFFFFFFFFFFFFFFFFFFFFFFFFFFF AND EQ PUSH2 0x670 JUMPI PUSH1 0x40 MLOAD PUSH32 0x8C379A000000000000000000000000000000000000000000000000000000000 DUP2 MSTORE PUSH1 0x4 ADD PUSH2 0x667 SWAP1 PUSH2 0x1962 JUMP JUMPDEST PUSH1 0x40 MLOAD DUP1 SWAP2 SUB SWAP1 REVERT JUMPDEST PUSH2 0x67A DUP3 DUP3 PUSH2 0xB65 JUMP JUMPDEST POP POP JUMP JUMPDEST PUSH1 0x0 DUP1 SHL PUSH2 0x68B DUP2 PUSH2 0xA69 JUMP JUMPDEST PUSH2 0x698 PUSH1 0x0 DUP1 SHL DUP4 PUSH2 0xA7D JUMP JUMPDEST POP POP JUMP JUMPDEST PUSH1 0x0 DUP1 SHL PUSH2 0x6A9 DUP2 PUSH2 0xA69 JUMP JUMPDEST DUP2 PUSH1 0x40 MLOAD PUSH1 0x24 ADD PUSH2 0x6BA SWAP2 SWAP1 PUSH2 0x1CE6 JUMP JUMPDEST PUSH1 0x40 MLOAD PUSH1 0x20 DUP2 DUP4 SUB SUB DUP2 MSTORE SWAP1 PUSH1 0x40 MSTORE PUSH32 0xC105F05100000000000000000000000000000000000000000000000000000000 PUSH28 0xFFFFFFFFFFFFFFFFFFFFFFFFFFFFFFFFFFFFFFFFFFFFFFFFFFFFFFFF NOT AND PUSH1 0x20 DUP3 ADD DUP1 MLOAD PUSH28 0xFFFFFFFFFFFFFFFFFFFFFFFFFFFFFFFFFFFFFFFFFFFFFFFFFFFFFFFF DUP4 DUP2 DUP4 AND OR DUP4 MSTORE POP POP POP POP PUSH1 0x3 SWAP1 DUP1 MLOAD SWAP1 PUSH1 0x20 ADD SWAP1 PUSH2 0x74C SWAP3 SWAP2 SWAP1 PUSH2 0xF34 JUMP JUMPDEST POP POP POP JUMP JUMPDEST PUSH1 0x1 SLOAD DUP2 JUMP JUMPDEST PUSH1 0x0 DUP1 SHL PUSH2 0x764 DUP2 PUSH2 0xA69 JUMP JUMPDEST PUSH1 0x0 DUP3 PUSH20 0xFFFFFFFFFFFFFFFFFFFFFFFFFFFFFFFFFFFFFFFF AND SELFBALANCE PUSH1 0x40 MLOAD PUSH2 0x78A SWAP1 PUSH2 0x1D39 JUMP JUMPDEST PUSH1 0x0 PUSH1 0x40 MLOAD DUP1 DUP4 SUB DUP2 DUP6 DUP8 GAS CALL SWAP3 POP POP POP RETURNDATASIZE DUP1 PUSH1 0x0 DUP2 EQ PUSH2 0x7C7 JUMPI PUSH1 0x40 MLOAD SWAP2 POP PUSH1 0x1F NOT PUSH1 0x3F RETURNDATASIZE ADD AND DUP3 ADD PUSH1 0x40 MSTORE RETURNDATASIZE DUP3 MSTORE RETURNDATASIZE PUSH1 0x0 PUSH1 0x20 DUP5 ADD RETURNDATACOPY PUSH2 0x7CC JUMP JUMPDEST PUSH1 0x60 SWAP2 POP JUMPDEST POP POP SWAP1 POP DUP1 PUSH2 0x810 JUMPI PUSH1 0x40 MLOAD PUSH32 0x8C379A000000000000000000000000000000000000000000000000000000000 DUP2 MSTORE PUSH1 0x4 ADD PUSH2 0x807 SWAP1 PUSH2 0x1D9A JUMP JUMPDEST PUSH1 0x40 MLOAD DUP1 SWAP2 SUB SWAP1 REVERT JUMPDEST POP POP POP JUMP JUMPDEST PUSH1 0x0 DUP1 PUSH1 0x0 DUP5 DUP2 MSTORE PUSH1 0x20 ADD SWAP1 DUP2 MSTORE PUSH1 0x20 ADD PUSH1 0x0 KECCAK256 PUSH1 0x0 ADD PUSH1 0x0 DUP4 PUSH20 0xFFFFFFFFFFFFFFFFFFFFFFFFFFFFFFFFFFFFFFFF AND PUSH20 0xFFFFFFFFFFFFFFFFFFFFFFFFFFFFFFFFFFFFFFFF AND DUP2 MSTORE PUSH1 0x20 ADD SWAP1 DUP2 MSTORE PUSH1 0x20 ADD PUSH1 0x0 KECCAK256 PUSH1 0x0 SWAP1 SLOAD SWAP1 PUSH2 0x100 EXP SWAP1 DIV PUSH1 0xFF AND SWAP1 POP SWAP3 SWAP2 POP POP JUMP JUMPDEST PUSH1 0x0 DUP1 PUSH1 0x0 SHL PUSH2 0x88E DUP2 PUSH2 0xA69 JUMP JUMPDEST PUSH1 0x1 SLOAD SELFBALANCE LT ISZERO PUSH2 0x89D JUMPI PUSH1 0x0 DUP1 REVERT JUMPDEST PUSH1 0x0 PUSH1 0x2 PUSH1 0x0 SWAP1 SLOAD SWAP1 PUSH2 0x100 EXP SWAP1 DIV PUSH20 0xFFFFFFFFFFFFFFFFFFFFFFFFFFFFFFFFFFFFFFFF AND PUSH20 0xFFFFFFFFFFFFFFFFFFFFFFFFFFFFFFFFFFFFFFFF AND PUSH1 0x1 SLOAD PUSH1 0x0 SWAP1 PUSH1 0x3 PUSH1 0x40 MLOAD PUSH2 0x8ED SWAP2 SWAP1 PUSH2 0x1E4E JUMP JUMPDEST PUSH1 0x0 PUSH1 0x40 MLOAD DUP1 DUP4 SUB DUP2 DUP6 DUP9 DUP9 CALL SWAP4 POP POP POP POP RETURNDATASIZE DUP1 PUSH1 0x0 DUP2 EQ PUSH2 0x92B JUMPI PUSH1 0x40 MLOAD SWAP2 POP PUSH1 0x1F NOT PUSH1 0x3F RETURNDATASIZE ADD AND DUP3 ADD PUSH1 0x40 MSTORE RETURNDATASIZE DUP3 MSTORE RETURNDATASIZE PUSH1 0x0 PUSH1 0x20 DUP5 ADD RETURNDATACOPY PUSH2 0x930 JUMP JUMPDEST PUSH1 0x60 SWAP2 POP JUMPDEST POP POP SWAP1 POP DUP1 PUSH2 0x974 JUMPI PUSH1 0x40 MLOAD PUSH32 0x8C379A000000000000000000000000000000000000000000000000000000000 DUP2 MSTORE PUSH1 0x4 ADD PUSH2 0x96B SWAP1 PUSH2 0x1EB1 JUMP JUMPDEST PUSH1 0x40 MLOAD DUP1 SWAP2 SUB SWAP1 REVERT JUMPDEST PUSH32 0x83E31F5E5651D64B527802681A291E708D9FE310288785B1B816AA293D9B8FC6 PUSH1 0x1 PUSH1 0x40 MLOAD PUSH2 0x9A4 SWAP2 SWAP1 PUSH2 0x108B JUMP JUMPDEST PUSH1 0x40 MLOAD DUP1 SWAP2 SUB SWAP1 LOG1 PUSH1 0x1 SWAP3 POP POP POP SWAP1 JUMP JUMPDEST PUSH1 0x0 DUP1 SHL DUP2 JUMP JUMPDEST PUSH1 0x0 PUSH1 0x1 SLOAD SWAP1 POP SWAP1 JUMP JUMPDEST PUSH2 0x9CF DUP3 PUSH2 0x4B5 JUMP JUMPDEST PUSH2 0x9D8 DUP2 PUSH2 0xA69 JUMP JUMPDEST PUSH2 0x9E2 DUP4 DUP4 PUSH2 0xB65 JUMP JUMPDEST POP POP POP JUMP JUMPDEST PUSH1 0x0 DUP1 SHL PUSH2 0x9F4 DUP2 PUSH2 0xA69 JUMP JUMPDEST DUP2 PUSH1 0x1 DUP2 SWAP1 SSTORE POP POP POP JUMP JUMPDEST PUSH1 0x0 PUSH32 0x1FFC9A700000000000000000000000000000000000000000000000000000000 PUSH28 0xFFFFFFFFFFFFFFFFFFFFFFFFFFFFFFFFFFFFFFFFFFFFFFFFFFFFFFFF NOT AND DUP3 PUSH28 0xFFFFFFFFFFFFFFFFFFFFFFFFFFFFFFFFFFFFFFFFFFFFFFFFFFFFFFFF NOT AND EQ SWAP1 POP SWAP2 SWAP1 POP JUMP JUMPDEST PUSH2 0xA7A DUP2 PUSH2 0xA75 PUSH2 0xB5D JUMP JUMPDEST PUSH2 0xC46 JUMP JUMPDEST POP JUMP JUMPDEST PUSH2 0xA87 DUP3 DUP3 PUSH2 0x815 JUMP JUMPDEST PUSH2 0xB59 JUMPI PUSH1 0x1 PUSH1 0x0 DUP1 DUP5 DUP2 MSTORE PUSH1 0x20 ADD SWAP1 DUP2 MSTORE PUSH1 0x20 ADD PUSH1 0x0 KECCAK256 PUSH1 0x0 ADD PUSH1 0x0 DUP4 PUSH20 0xFFFFFFFFFFFFFFFFFFFFFFFFFFFFFFFFFFFFFFFF AND PUSH20 0xFFFFFFFFFFFFFFFFFFFFFFFFFFFFFFFFFFFFFFFF AND DUP2 MSTORE PUSH1 0x20 ADD SWAP1 DUP2 MSTORE PUSH1 0x20 ADD PUSH1 0x0 KECCAK256 PUSH1 0x0 PUSH2 0x100 EXP DUP2 SLOAD DUP2 PUSH1 0xFF MUL NOT AND SWAP1 DUP4 ISZERO ISZERO MUL OR SWAP1 SSTORE POP PUSH2 0xAFE PUSH2 0xB5D JUMP JUMPDEST PUSH20 0xFFFFFFFFFFFFFFFFFFFFFFFFFFFFFFFFFFFFFFFF AND DUP2 PUSH20 0xFFFFFFFFFFFFFFFFFFFFFFFFFFFFFFFFFFFFFFFF AND DUP4 PUSH32 0x2F8788117E7EFF1D82E926EC794901D17C78024A50270940304540A733656F0D PUSH1 0x40 MLOAD PUSH1 0x40 MLOAD DUP1 SWAP2 SUB SWAP1 LOG4 JUMPDEST POP POP JUMP JUMPDEST PUSH1 0x0 CALLER SWAP1 POP SWAP1 JUMP JUMPDEST PUSH2 0xB6F DUP3 DUP3 PUSH2 0x815 JUMP JUMPDEST ISZERO PUSH2 0xC42 JUMPI PUSH1 0x0 DUP1 PUSH1 0x0 DUP5 DUP2 MSTORE PUSH1 0x20 ADD SWAP1 DUP2 MSTORE PUSH1 0x20 ADD PUSH1 0x0 KECCAK256 PUSH1 0x0 ADD PUSH1 0x0 DUP4 PUSH20 0xFFFFFFFFFFFFFFFFFFFFFFFFFFFFFFFFFFFFFFFF AND PUSH20 0xFFFFFFFFFFFFFFFFFFFFFFFFFFFFFFFFFFFFFFFF AND DUP2 MSTORE PUSH1 0x20 ADD SWAP1 DUP2 MSTORE PUSH1 0x20 ADD PUSH1 0x0 KECCAK256 PUSH1 0x0 PUSH2 0x100 EXP DUP2 SLOAD DUP2 PUSH1 0xFF MUL NOT AND SWAP1 DUP4 ISZERO ISZERO MUL OR SWAP1 SSTORE POP PUSH2 0xBE7 PUSH2 0xB5D JUMP JUMPDEST PUSH20 0xFFFFFFFFFFFFFFFFFFFFFFFFFFFFFFFFFFFFFFFF AND DUP2 PUSH20 0xFFFFFFFFFFFFFFFFFFFFFFFFFFFFFFFFFFFFFFFF AND DUP4 PUSH32 0xF6391F5C32D9C69D2A47EA670B442974B53935D1EDC7FD64EB21E047A839171B PUSH1 0x40 MLOAD PUSH1 0x40 MLOAD DUP1 SWAP2 SUB SWAP1 LOG4 JUMPDEST POP POP JUMP JUMPDEST PUSH2 0xC50 DUP3 DUP3 PUSH2 0x815 JUMP JUMPDEST PUSH2 0xCC7 JUMPI PUSH2 0xC5D DUP2 PUSH2 0xCCB JUMP JUMPDEST PUSH2 0xC6B DUP4 PUSH1 0x0 SHR PUSH1 0x20 PUSH2 0xCF8 JUMP JUMPDEST PUSH1 0x40 MLOAD PUSH1 0x20 ADD PUSH2 0xC7C SWAP3 SWAP2 SWAP1 PUSH2 0x1FB0 JUMP JUMPDEST PUSH1 0x40 MLOAD PUSH1 0x20 DUP2 DUP4 SUB SUB DUP2 MSTORE SWAP1 PUSH1 0x40 MSTORE PUSH1 0x40 MLOAD PUSH32 0x8C379A000000000000000000000000000000000000000000000000000000000 DUP2 MSTORE PUSH1 0x4 ADD PUSH2 0xCBE SWAP2 SWAP1 PUSH2 0x2023 JUMP JUMPDEST PUSH1 0x40 MLOAD DUP1 SWAP2 SUB SWAP1 REVERT JUMPDEST POP POP JUMP JUMPDEST PUSH1 0x60 PUSH2 0xCF1 DUP3 PUSH20 0xFFFFFFFFFFFFFFFFFFFFFFFFFFFFFFFFFFFFFFFF AND PUSH1 0x14 PUSH1 0xFF AND PUSH2 0xCF8 JUMP JUMPDEST SWAP1 POP SWAP2 SWAP1 POP JUMP JUMPDEST PUSH1 0x60 PUSH1 0x0 PUSH1 0x2 DUP4 PUSH1 0x2 PUSH2 0xD0B SWAP2 SWAP1 PUSH2 0x2074 JUMP JUMPDEST PUSH2 0xD15 SWAP2 SWAP1 PUSH2 0x20CE JUMP JUMPDEST PUSH8 0xFFFFFFFFFFFFFFFF DUP2 GT ISZERO PUSH2 0xD2E JUMPI PUSH2 0xD2D PUSH2 0x131C JUMP JUMPDEST JUMPDEST PUSH1 0x40 MLOAD SWAP1 DUP1 DUP3 MSTORE DUP1 PUSH1 0x1F ADD PUSH1 0x1F NOT AND PUSH1 0x20 ADD DUP3 ADD PUSH1 0x40 MSTORE DUP1 ISZERO PUSH2 0xD60 JUMPI DUP2 PUSH1 0x20 ADD PUSH1 0x1 DUP3 MUL DUP1 CALLDATASIZE DUP4 CALLDATACOPY DUP1 DUP3 ADD SWAP2 POP POP SWAP1 POP JUMPDEST POP SWAP1 POP PUSH32 0x3000000000000000000000000000000000000000000000000000000000000000 DUP2 PUSH1 0x0 DUP2 MLOAD DUP2 LT PUSH2 0xD98 JUMPI PUSH2 0xD97 PUSH2 0x2124 JUMP JUMPDEST JUMPDEST PUSH1 0x20 ADD ADD SWAP1 PUSH31 0xFFFFFFFFFFFFFFFFFFFFFFFFFFFFFFFFFFFFFFFFFFFFFFFFFFFFFFFFFFFFFF NOT AND SWAP1 DUP2 PUSH1 0x0 BYTE SWAP1 MSTORE8 POP PUSH32 0x7800000000000000000000000000000000000000000000000000000000000000 DUP2 PUSH1 0x1 DUP2 MLOAD DUP2 LT PUSH2 0xDFC JUMPI PUSH2 0xDFB PUSH2 0x2124 JUMP JUMPDEST JUMPDEST PUSH1 0x20 ADD ADD SWAP1 PUSH31 0xFFFFFFFFFFFFFFFFFFFFFFFFFFFFFFFFFFFFFFFFFFFFFFFFFFFFFFFFFFFFFF NOT AND SWAP1 DUP2 PUSH1 0x0 BYTE SWAP1 MSTORE8 POP PUSH1 0x0 PUSH1 0x1 DUP5 PUSH1 0x2 PUSH2 0xE3C SWAP2 SWAP1 PUSH2 0x2074 JUMP JUMPDEST PUSH2 0xE46 SWAP2 SWAP1 PUSH2 0x20CE JUMP JUMPDEST SWAP1 POP JUMPDEST PUSH1 0x1 DUP2 GT ISZERO PUSH2 0xEE6 JUMPI PUSH32 0x3031323334353637383961626364656600000000000000000000000000000000 PUSH1 0xF DUP7 AND PUSH1 0x10 DUP2 LT PUSH2 0xE88 JUMPI PUSH2 0xE87 PUSH2 0x2124 JUMP JUMPDEST JUMPDEST BYTE PUSH1 0xF8 SHL DUP3 DUP3 DUP2 MLOAD DUP2 LT PUSH2 0xE9F JUMPI PUSH2 0xE9E PUSH2 0x2124 JUMP JUMPDEST JUMPDEST PUSH1 0x20 ADD ADD SWAP1 PUSH31 0xFFFFFFFFFFFFFFFFFFFFFFFFFFFFFFFFFFFFFFFFFFFFFFFFFFFFFFFFFFFFFF NOT AND SWAP1 DUP2 PUSH1 0x0 BYTE SWAP1 MSTORE8 POP PUSH1 0x4 DUP6 SWAP1 SHR SWAP5 POP DUP1 PUSH2 0xEDF SWAP1 PUSH2 0x2153 JUMP JUMPDEST SWAP1 POP PUSH2 0xE49 JUMP JUMPDEST POP PUSH1 0x0 DUP5 EQ PUSH2 0xF2A JUMPI PUSH1 0x40 MLOAD PUSH32 0x8C379A000000000000000000000000000000000000000000000000000000000 DUP2 MSTORE PUSH1 0x4 ADD PUSH2 0xF21 SWAP1 PUSH2 0x21C9 JUMP JUMPDEST PUSH1 0x40 MLOAD DUP1 SWAP2 SUB SWAP1 REVERT JUMPDEST DUP1 SWAP2 POP POP SWAP3 SWAP2 POP POP JUMP JUMPDEST DUP3 DUP1 SLOAD PUSH2 0xF40 SWAP1 PUSH2 0x18AD JUMP JUMPDEST SWAP1 PUSH1 0x0 MSTORE PUSH1 0x20 PUSH1 0x0 KECCAK256 SWAP1 PUSH1 0x1F ADD PUSH1 0x20 SWAP1 DIV DUP2 ADD SWAP3 DUP3 PUSH2 0xF62 JUMPI PUSH1 0x0 DUP6 SSTORE PUSH2 0xFA9 JUMP JUMPDEST DUP3 PUSH1 0x1F LT PUSH2 0xF7B JUMPI DUP1 MLOAD PUSH1 0xFF NOT AND DUP4 DUP1 ADD OR DUP6 SSTORE PUSH2 0xFA9 JUMP JUMPDEST DUP3 DUP1 ADD PUSH1 0x1 ADD DUP6 SSTORE DUP3 ISZERO PUSH2 0xFA9 JUMPI SWAP2 DUP3 ADD JUMPDEST DUP3 DUP2 GT ISZERO PUSH2 0xFA8 JUMPI DUP3 MLOAD DUP3 SSTORE SWAP2 PUSH1 0x20 ADD SWAP2 SWAP1 PUSH1 0x1 ADD SWAP1 PUSH2 0xF8D JUMP JUMPDEST JUMPDEST POP SWAP1 POP PUSH2 0xFB6 SWAP2 SWAP1 PUSH2 0xFBA JUMP JUMPDEST POP SWAP1 JUMP JUMPDEST JUMPDEST DUP1 DUP3 GT ISZERO PUSH2 0xFD3 JUMPI PUSH1 0x0 DUP2 PUSH1 0x0 SWAP1 SSTORE POP PUSH1 0x1 ADD PUSH2 0xFBB JUMP JUMPDEST POP SWAP1 JUMP JUMPDEST PUSH1 0x0 PUSH1 0x40 MLOAD SWAP1 POP SWAP1 JUMP JUMPDEST PUSH1 0x0 DUP1 REVERT JUMPDEST PUSH1 0x0 DUP1 REVERT JUMPDEST PUSH1 0x0 PUSH32 0xFFFFFFFF00000000000000000000000000000000000000000000000000000000 DUP3 AND SWAP1 POP SWAP2 SWAP1 POP JUMP JUMPDEST PUSH2 0x1020 DUP2 PUSH2 0xFEB JUMP JUMPDEST DUP2 EQ PUSH2 0x102B JUMPI PUSH1 0x0 DUP1 REVERT JUMPDEST POP JUMP JUMPDEST PUSH1 0x0 DUP2 CALLDATALOAD SWAP1 POP PUSH2 0x103D DUP2 PUSH2 0x1017 JUMP JUMPDEST SWAP3 SWAP2 POP POP JUMP JUMPDEST PUSH1 0x0 PUSH1 0x20 DUP3 DUP5 SUB SLT ISZERO PUSH2 0x1059 JUMPI PUSH2 0x1058 PUSH2 0xFE1 JUMP JUMPDEST JUMPDEST PUSH1 0x0 PUSH2 0x1067 DUP5 DUP3 DUP6 ADD PUSH2 0x102E JUMP JUMPDEST SWAP2 POP POP SWAP3 SWAP2 POP POP JUMP JUMPDEST PUSH1 0x0 DUP2 ISZERO ISZERO SWAP1 POP SWAP2 SWAP1 POP JUMP JUMPDEST PUSH2 0x1085 DUP2 PUSH2 0x1070 JUMP JUMPDEST DUP3 MSTORE POP POP JUMP JUMPDEST PUSH1 0x0 PUSH1 0x20 DUP3 ADD SWAP1 POP PUSH2 0x10A0 PUSH1 0x0 DUP4 ADD DUP5 PUSH2 0x107C JUMP JUMPDEST SWAP3 SWAP2 POP POP JUMP JUMPDEST PUSH1 0x0 DUP2 SWAP1 POP SWAP2 SWAP1 POP JUMP JUMPDEST PUSH2 0x10B9 DUP2 PUSH2 0x10A6 JUMP JUMPDEST DUP3 MSTORE POP POP JUMP JUMPDEST PUSH1 0x0 PUSH1 0x20 DUP3 ADD SWAP1 POP PUSH2 0x10D4 PUSH1 0x0 DUP4 ADD DUP5 PUSH2 0x10B0 JUMP JUMPDEST SWAP3 SWAP2 POP POP JUMP JUMPDEST PUSH1 0x0 DUP2 SWAP1 POP SWAP2 SWAP1 POP JUMP JUMPDEST PUSH2 0x10ED DUP2 PUSH2 0x10DA JUMP JUMPDEST DUP2 EQ PUSH2 0x10F8 JUMPI PUSH1 0x0 DUP1 REVERT JUMPDEST POP JUMP JUMPDEST PUSH1 0x0 DUP2 CALLDATALOAD SWAP1 POP PUSH2 0x110A DUP2 PUSH2 0x10E4 JUMP JUMPDEST SWAP3 SWAP2 POP POP JUMP JUMPDEST PUSH1 0x0 PUSH1 0x20 DUP3 DUP5 SUB SLT ISZERO PUSH2 0x1126 JUMPI PUSH2 0x1125 PUSH2 0xFE1 JUMP JUMPDEST JUMPDEST PUSH1 0x0 PUSH2 0x1134 DUP5 DUP3 DUP6 ADD PUSH2 0x10FB JUMP JUMPDEST SWAP2 POP POP SWAP3 SWAP2 POP POP JUMP JUMPDEST PUSH2 0x1146 DUP2 PUSH2 0x10DA JUMP JUMPDEST DUP3 MSTORE POP POP JUMP JUMPDEST PUSH1 0x0 PUSH1 0x20 DUP3 ADD SWAP1 POP PUSH2 0x1161 PUSH1 0x0 DUP4 ADD DUP5 PUSH2 0x113D JUMP JUMPDEST SWAP3 SWAP2 POP POP JUMP JUMPDEST PUSH1 0x0 DUP2 MLOAD SWAP1 POP SWAP2 SWAP1 POP JUMP JUMPDEST PUSH1 0x0 DUP3 DUP3 MSTORE PUSH1 0x20 DUP3 ADD SWAP1 POP SWAP3 SWAP2 POP POP JUMP JUMPDEST PUSH1 0x0 JUMPDEST DUP4 DUP2 LT ISZERO PUSH2 0x11A1 JUMPI DUP1 DUP3 ADD MLOAD DUP2 DUP5 ADD MSTORE PUSH1 0x20 DUP2 ADD SWAP1 POP PUSH2 0x1186 JUMP JUMPDEST DUP4 DUP2 GT ISZERO PUSH2 0x11B0 JUMPI PUSH1 0x0 DUP5 DUP5 ADD MSTORE JUMPDEST POP POP POP POP JUMP JUMPDEST PUSH1 0x0 PUSH1 0x1F NOT PUSH1 0x1F DUP4 ADD AND SWAP1 POP SWAP2 SWAP1 POP JUMP JUMPDEST PUSH1 0x0 PUSH2 0x11D2 DUP3 PUSH2 0x1167 JUMP JUMPDEST PUSH2 0x11DC DUP2 DUP6 PUSH2 0x1172 JUMP JUMPDEST SWAP4 POP PUSH2 0x11EC DUP2 DUP6 PUSH1 0x20 DUP7 ADD PUSH2 0x1183 JUMP JUMPDEST PUSH2 0x11F5 DUP2 PUSH2 0x11B6 JUMP JUMPDEST DUP5 ADD SWAP2 POP POP SWAP3 SWAP2 POP POP JUMP JUMPDEST PUSH1 0x0 PUSH1 0x20 DUP3 ADD SWAP1 POP DUP2 DUP2 SUB PUSH1 0x0 DUP4 ADD MSTORE PUSH2 0x121A DUP2 DUP5 PUSH2 0x11C7 JUMP JUMPDEST SWAP1 POP SWAP3 SWAP2 POP POP JUMP JUMPDEST PUSH1 0x0 PUSH20 0xFFFFFFFFFFFFFFFFFFFFFFFFFFFFFFFFFFFFFFFF DUP3 AND SWAP1 POP SWAP2 SWAP1 POP JUMP JUMPDEST PUSH1 0x0 PUSH2 0x124D DUP3 PUSH2 0x1222 JUMP JUMPDEST SWAP1 POP SWAP2 SWAP1 POP JUMP JUMPDEST PUSH2 0x125D DUP2 PUSH2 0x1242 JUMP JUMPDEST DUP3 MSTORE POP POP JUMP JUMPDEST PUSH1 0x0 PUSH1 0x20 DUP3 ADD SWAP1 POP PUSH2 0x1278 PUSH1 0x0 DUP4 ADD DUP5 PUSH2 0x1254 JUMP JUMPDEST SWAP3 SWAP2 POP POP JUMP JUMPDEST PUSH2 0x1287 DUP2 PUSH2 0x1242 JUMP JUMPDEST DUP2 EQ PUSH2 0x1292 JUMPI PUSH1 0x0 DUP1 REVERT JUMPDEST POP JUMP JUMPDEST PUSH1 0x0 DUP2 CALLDATALOAD SWAP1 POP PUSH2 0x12A4 DUP2 PUSH2 0x127E JUMP JUMPDEST SWAP3 SWAP2 POP POP JUMP JUMPDEST PUSH1 0x0 DUP1 PUSH1 0x40 DUP4 DUP6 SUB SLT ISZERO PUSH2 0x12C1 JUMPI PUSH2 0x12C0 PUSH2 0xFE1 JUMP JUMPDEST JUMPDEST PUSH1 0x0 PUSH2 0x12CF DUP6 DUP3 DUP7 ADD PUSH2 0x10FB JUMP JUMPDEST SWAP3 POP POP PUSH1 0x20 PUSH2 0x12E0 DUP6 DUP3 DUP7 ADD PUSH2 0x1295 JUMP JUMPDEST SWAP2 POP POP SWAP3 POP SWAP3 SWAP1 POP JUMP JUMPDEST PUSH1 0x0 PUSH1 0x20 DUP3 DUP5 SUB SLT ISZERO PUSH2 0x1300 JUMPI PUSH2 0x12FF PUSH2 0xFE1 JUMP JUMPDEST JUMPDEST PUSH1 0x0 PUSH2 0x130E DUP5 DUP3 DUP6 ADD PUSH2 0x1295 JUMP JUMPDEST SWAP2 POP POP SWAP3 SWAP2 POP POP JUMP JUMPDEST PUSH1 0x0 DUP1 REVERT JUMPDEST PUSH32 0x4E487B7100000000000000000000000000000000000000000000000000000000 PUSH1 0x0 MSTORE PUSH1 0x41 PUSH1 0x4 MSTORE PUSH1 0x24 PUSH1 0x0 REVERT JUMPDEST PUSH2 0x1354 DUP3 PUSH2 0x11B6 JUMP JUMPDEST DUP2 ADD DUP2 DUP2 LT PUSH8 0xFFFFFFFFFFFFFFFF DUP3 GT OR ISZERO PUSH2 0x1373 JUMPI PUSH2 0x1372 PUSH2 0x131C JUMP JUMPDEST JUMPDEST DUP1 PUSH1 0x40 MSTORE POP POP POP JUMP JUMPDEST PUSH1 0x0 PUSH2 0x1386 PUSH2 0xFD7 JUMP JUMPDEST SWAP1 POP PUSH2 0x1392 DUP3 DUP3 PUSH2 0x134B JUMP JUMPDEST SWAP2 SWAP1 POP JUMP JUMPDEST PUSH1 0x0 DUP1 REVERT JUMPDEST PUSH2 0x13A5 DUP2 PUSH2 0x10A6 JUMP JUMPDEST DUP2 EQ PUSH2 0x13B0 JUMPI PUSH1 0x0 DUP1 REVERT JUMPDEST POP JUMP JUMPDEST PUSH1 0x0 DUP2 CALLDATALOAD SWAP1 POP PUSH2 0x13C2 DUP2 PUSH2 0x139C JUMP JUMPDEST SWAP3 SWAP2 POP POP JUMP JUMPDEST PUSH1 0x0 PUSH2 0x13D3 DUP3 PUSH2 0x1222 JUMP JUMPDEST SWAP1 POP SWAP2 SWAP1 POP JUMP JUMPDEST PUSH2 0x13E3 DUP2 PUSH2 0x13C8 JUMP JUMPDEST DUP2 EQ PUSH2 0x13EE JUMPI PUSH1 0x0 DUP1 REVERT JUMPDEST POP JUMP JUMPDEST PUSH1 0x0 DUP2 CALLDATALOAD SWAP1 POP PUSH2 0x1400 DUP2 PUSH2 0x13DA JUMP JUMPDEST SWAP3 SWAP2 POP POP JUMP JUMPDEST PUSH1 0x18 DUP2 LT PUSH2 0x1413 JUMPI PUSH1 0x0 DUP1 REVERT JUMPDEST POP JUMP JUMPDEST PUSH1 0x0 DUP2 CALLDATALOAD SWAP1 POP PUSH2 0x1425 DUP2 PUSH2 0x1406 JUMP JUMPDEST SWAP3 SWAP2 POP POP JUMP JUMPDEST PUSH1 0x0 DUP1 REVERT JUMPDEST PUSH1 0x0 PUSH8 0xFFFFFFFFFFFFFFFF DUP3 GT ISZERO PUSH2 0x144B JUMPI PUSH2 0x144A PUSH2 0x131C JUMP JUMPDEST JUMPDEST PUSH1 0x20 DUP3 MUL SWAP1 POP PUSH1 0x20 DUP2 ADD SWAP1 POP SWAP2 SWAP1 POP JUMP JUMPDEST PUSH1 0x0 DUP1 REVERT JUMPDEST PUSH1 0x0 PUSH1 0x40 DUP3 DUP5 SUB SLT ISZERO PUSH2 0x1477 JUMPI PUSH2 0x1476 PUSH2 0x1317 JUMP JUMPDEST JUMPDEST PUSH2 0x1481 PUSH1 0x40 PUSH2 0x137C JUMP JUMPDEST SWAP1 POP PUSH1 0x0 PUSH2 0x1491 DUP5 DUP3 DUP6 ADD PUSH2 0x13B3 JUMP JUMPDEST PUSH1 0x0 DUP4 ADD MSTORE POP PUSH1 0x20 PUSH2 0x14A5 DUP5 DUP3 DUP6 ADD PUSH2 0x13F1 JUMP JUMPDEST PUSH1 0x20 DUP4 ADD MSTORE POP SWAP3 SWAP2 POP POP JUMP JUMPDEST PUSH1 0x0 PUSH2 0x14C4 PUSH2 0x14BF DUP5 PUSH2 0x1430 JUMP JUMPDEST PUSH2 0x137C JUMP JUMPDEST SWAP1 POP DUP1 DUP4 DUP3 MSTORE PUSH1 0x20 DUP3 ADD SWAP1 POP PUSH1 0x40 DUP5 MUL DUP4 ADD DUP6 DUP2 GT ISZERO PUSH2 0x14E7 JUMPI PUSH2 0x14E6 PUSH2 0x145C JUMP JUMPDEST JUMPDEST DUP4 JUMPDEST DUP2 DUP2 LT ISZERO PUSH2 0x1510 JUMPI DUP1 PUSH2 0x14FC DUP9 DUP3 PUSH2 0x1461 JUMP JUMPDEST DUP5 MSTORE PUSH1 0x20 DUP5 ADD SWAP4 POP POP PUSH1 0x40 DUP2 ADD SWAP1 POP PUSH2 0x14E9 JUMP JUMPDEST POP POP POP SWAP4 SWAP3 POP POP POP JUMP JUMPDEST PUSH1 0x0 DUP3 PUSH1 0x1F DUP4 ADD SLT PUSH2 0x152F JUMPI PUSH2 0x152E PUSH2 0x142B JUMP JUMPDEST JUMPDEST DUP2 CALLDATALOAD PUSH2 0x153F DUP5 DUP3 PUSH1 0x20 DUP7 ADD PUSH2 0x14B1 JUMP JUMPDEST SWAP2 POP POP SWAP3 SWAP2 POP POP JUMP JUMPDEST PUSH1 0x0 DUP1 REVERT JUMPDEST PUSH1 0x0 PUSH8 0xFFFFFFFFFFFFFFFF DUP3 GT ISZERO PUSH2 0x1568 JUMPI PUSH2 0x1567 PUSH2 0x131C JUMP JUMPDEST JUMPDEST PUSH2 0x1571 DUP3 PUSH2 0x11B6 JUMP JUMPDEST SWAP1 POP PUSH1 0x20 DUP2 ADD SWAP1 POP SWAP2 SWAP1 POP JUMP JUMPDEST DUP3 DUP2 DUP4 CALLDATACOPY PUSH1 0x0 DUP4 DUP4 ADD MSTORE POP POP POP JUMP JUMPDEST PUSH1 0x0 PUSH2 0x15A0 PUSH2 0x159B DUP5 PUSH2 0x154D JUMP JUMPDEST PUSH2 0x137C JUMP JUMPDEST SWAP1 POP DUP3 DUP2 MSTORE PUSH1 0x20 DUP2 ADD DUP5 DUP5 DUP5 ADD GT ISZERO PUSH2 0x15BC JUMPI PUSH2 0x15BB PUSH2 0x1548 JUMP JUMPDEST JUMPDEST PUSH2 0x15C7 DUP5 DUP3 DUP6 PUSH2 0x157E JUMP JUMPDEST POP SWAP4 SWAP3 POP POP POP JUMP JUMPDEST PUSH1 0x0 DUP3 PUSH1 0x1F DUP4 ADD SLT PUSH2 0x15E4 JUMPI PUSH2 0x15E3 PUSH2 0x142B JUMP JUMPDEST JUMPDEST DUP2 CALLDATALOAD PUSH2 0x15F4 DUP5 DUP3 PUSH1 0x20 DUP7 ADD PUSH2 0x158D JUMP JUMPDEST SWAP2 POP POP SWAP3 SWAP2 POP POP JUMP JUMPDEST PUSH1 0x0 PUSH2 0x240 DUP3 DUP5 SUB SLT ISZERO PUSH2 0x1614 JUMPI PUSH2 0x1613 PUSH2 0x1317 JUMP JUMPDEST JUMPDEST PUSH2 0x161F PUSH2 0x240 PUSH2 0x137C JUMP JUMPDEST SWAP1 POP PUSH1 0x0 PUSH2 0x162F DUP5 DUP3 DUP6 ADD PUSH2 0x1295 JUMP JUMPDEST PUSH1 0x0 DUP4 ADD MSTORE POP PUSH1 0x20 PUSH2 0x1643 DUP5 DUP3 DUP6 ADD PUSH2 0x13B3 JUMP JUMPDEST PUSH1 0x20 DUP4 ADD MSTORE POP PUSH1 0x40 PUSH2 0x1657 DUP5 DUP3 DUP6 ADD PUSH2 0x13B3 JUMP JUMPDEST PUSH1 0x40 DUP4 ADD MSTORE POP PUSH1 0x60 PUSH2 0x166B DUP5 DUP3 DUP6 ADD PUSH2 0x13F1 JUMP JUMPDEST PUSH1 0x60 DUP4 ADD MSTORE POP PUSH1 0x80 PUSH2 0x167F DUP5 DUP3 DUP6 ADD PUSH2 0x1295 JUMP JUMPDEST PUSH1 0x80 DUP4 ADD MSTORE POP PUSH1 0xA0 PUSH2 0x1693 DUP5 DUP3 DUP6 ADD PUSH2 0x1295 JUMP JUMPDEST PUSH1 0xA0 DUP4 ADD MSTORE POP PUSH1 0xC0 PUSH2 0x16A7 DUP5 DUP3 DUP6 ADD PUSH2 0x13B3 JUMP JUMPDEST PUSH1 0xC0 DUP4 ADD MSTORE POP PUSH1 0xE0 PUSH2 0x16BB DUP5 DUP3 DUP6 ADD PUSH2 0x13B3 JUMP JUMPDEST PUSH1 0xE0 DUP4 ADD MSTORE POP PUSH2 0x100 PUSH2 0x16D0 DUP5 DUP3 DUP6 ADD PUSH2 0x1416 JUMP JUMPDEST PUSH2 0x100 DUP4 ADD MSTORE POP PUSH2 0x120 PUSH2 0x16E6 DUP5 DUP3 DUP6 ADD PUSH2 0x13B3 JUMP JUMPDEST PUSH2 0x120 DUP4 ADD MSTORE POP PUSH2 0x140 PUSH2 0x16FC DUP5 DUP3 DUP6 ADD PUSH2 0x13B3 JUMP JUMPDEST PUSH2 0x140 DUP4 ADD MSTORE POP PUSH2 0x160 PUSH2 0x1712 DUP5 DUP3 DUP6 ADD PUSH2 0x10FB JUMP JUMPDEST PUSH2 0x160 DUP4 ADD MSTORE POP PUSH2 0x180 PUSH2 0x1728 DUP5 DUP3 DUP6 ADD PUSH2 0x13B3 JUMP JUMPDEST PUSH2 0x180 DUP4 ADD MSTORE POP PUSH2 0x1A0 PUSH2 0x173E DUP5 DUP3 DUP6 ADD PUSH2 0x10FB JUMP JUMPDEST PUSH2 0x1A0 DUP4 ADD MSTORE POP PUSH2 0x1C0 PUSH2 0x1754 DUP5 DUP3 DUP6 ADD PUSH2 0x10FB JUMP JUMPDEST PUSH2 0x1C0 DUP4 ADD MSTORE POP PUSH2 0x1E0 PUSH2 0x176A DUP5 DUP3 DUP6 ADD PUSH2 0x13B3 JUMP JUMPDEST PUSH2 0x1E0 DUP4 ADD MSTORE POP PUSH2 0x200 DUP3 ADD CALLDATALOAD PUSH8 0xFFFFFFFFFFFFFFFF DUP2 GT ISZERO PUSH2 0x1790 JUMPI PUSH2 0x178F PUSH2 0x1397 JUMP JUMPDEST JUMPDEST PUSH2 0x179C DUP5 DUP3 DUP6 ADD PUSH2 0x151A JUMP JUMPDEST PUSH2 0x200 DUP4 ADD MSTORE POP PUSH2 0x220 DUP3 ADD CALLDATALOAD PUSH8 0xFFFFFFFFFFFFFFFF DUP2 GT ISZERO PUSH2 0x17C2 JUMPI PUSH2 0x17C1 PUSH2 0x1397 JUMP JUMPDEST JUMPDEST PUSH2 0x17CE DUP5 DUP3 DUP6 ADD PUSH2 0x15CF JUMP JUMPDEST PUSH2 0x220 DUP4 ADD MSTORE POP SWAP3 SWAP2 POP POP JUMP JUMPDEST PUSH1 0x0 PUSH1 0x20 DUP3 DUP5 SUB SLT ISZERO PUSH2 0x17F1 JUMPI PUSH2 0x17F0 PUSH2 0xFE1 JUMP JUMPDEST JUMPDEST PUSH1 0x0 DUP3 ADD CALLDATALOAD PUSH8 0xFFFFFFFFFFFFFFFF DUP2 GT ISZERO PUSH2 0x180F JUMPI PUSH2 0x180E PUSH2 0xFE6 JUMP JUMPDEST JUMPDEST PUSH2 0x181B DUP5 DUP3 DUP6 ADD PUSH2 0x15FD JUMP JUMPDEST SWAP2 POP POP SWAP3 SWAP2 POP POP JUMP JUMPDEST PUSH1 0x0 PUSH1 0x20 DUP3 DUP5 SUB SLT ISZERO PUSH2 0x183A JUMPI PUSH2 0x1839 PUSH2 0xFE1 JUMP JUMPDEST JUMPDEST PUSH1 0x0 PUSH2 0x1848 DUP5 DUP3 DUP6 ADD PUSH2 0x13F1 JUMP JUMPDEST SWAP2 POP POP SWAP3 SWAP2 POP POP JUMP JUMPDEST PUSH1 0x0 PUSH1 0x20 DUP3 DUP5 SUB SLT ISZERO PUSH2 0x1867 JUMPI PUSH2 0x1866 PUSH2 0xFE1 JUMP JUMPDEST JUMPDEST PUSH1 0x0 PUSH2 0x1875 DUP5 DUP3 DUP6 ADD PUSH2 0x13B3 JUMP JUMPDEST SWAP2 POP POP SWAP3 SWAP2 POP POP JUMP JUMPDEST PUSH32 0x4E487B7100000000000000000000000000000000000000000000000000000000 PUSH1 0x0 MSTORE PUSH1 0x22 PUSH1 0x4 MSTORE PUSH1 0x24 PUSH1 0x0 REVERT JUMPDEST PUSH1 0x0 PUSH1 0x2 DUP3 DIV SWAP1 POP PUSH1 0x1 DUP3 AND DUP1 PUSH2 0x18C5 JUMPI PUSH1 0x7F DUP3 AND SWAP2 POP JUMPDEST PUSH1 0x20 DUP3 LT DUP2 EQ ISZERO PUSH2 0x18D9 JUMPI PUSH2 0x18D8 PUSH2 0x187E JUMP JUMPDEST JUMPDEST POP SWAP2 SWAP1 POP JUMP JUMPDEST PUSH1 0x0 DUP3 DUP3 MSTORE PUSH1 0x20 DUP3 ADD SWAP1 POP SWAP3 SWAP2 POP POP JUMP JUMPDEST PUSH32 0x416363657373436F6E74726F6C3A2063616E206F6E6C792072656E6F756E6365 PUSH1 0x0 DUP3 ADD MSTORE PUSH32 0x20726F6C657320666F722073656C660000000000000000000000000000000000 PUSH1 0x20 DUP3 ADD MSTORE POP JUMP JUMPDEST PUSH1 0x0 PUSH2 0x194C PUSH1 0x2F DUP4 PUSH2 0x18DF JUMP JUMPDEST SWAP2 POP PUSH2 0x1957 DUP3 PUSH2 0x18F0 JUMP JUMPDEST PUSH1 0x40 DUP3 ADD SWAP1 POP SWAP2 SWAP1 POP JUMP JUMPDEST PUSH1 0x0 PUSH1 0x20 DUP3 ADD SWAP1 POP DUP2 DUP2 SUB PUSH1 0x0 DUP4 ADD MSTORE PUSH2 0x197B DUP2 PUSH2 0x193F JUMP JUMPDEST SWAP1 POP SWAP2 SWAP1 POP JUMP JUMPDEST PUSH2 0x198B DUP2 PUSH2 0x1242 JUMP JUMPDEST DUP3 MSTORE POP POP JUMP JUMPDEST PUSH2 0x199A DUP2 PUSH2 0x10A6 JUMP JUMPDEST DUP3 MSTORE POP POP JUMP JUMPDEST PUSH2 0x19A9 DUP2 PUSH2 0x13C8 JUMP JUMPDEST DUP3 MSTORE POP POP JUMP JUMPDEST PUSH32 0x4E487B7100000000000000000000000000000000000000000000000000000000 PUSH1 0x0 MSTORE PUSH1 0x21 PUSH1 0x4 MSTORE PUSH1 0x24 PUSH1 0x0 REVERT JUMPDEST PUSH1 0x18 DUP2 LT PUSH2 0x19EF JUMPI PUSH2 0x19EE PUSH2 0x19AF JUMP JUMPDEST JUMPDEST POP JUMP JUMPDEST PUSH1 0x0 DUP2 SWAP1 POP PUSH2 0x1A00 DUP3 PUSH2 0x19DE JUMP JUMPDEST SWAP2 SWAP1 POP JUMP JUMPDEST PUSH1 0x0 PUSH2 0x1A10 DUP3 PUSH2 0x19F2 JUMP JUMPDEST SWAP1 POP SWAP2 SWAP1 POP JUMP JUMPDEST PUSH2 0x1A20 DUP2 PUSH2 0x1A05 JUMP JUMPDEST DUP3 MSTORE POP POP JUMP JUMPDEST PUSH2 0x1A2F DUP2 PUSH2 0x10DA JUMP JUMPDEST DUP3 MSTORE POP POP JUMP JUMPDEST PUSH1 0x0 DUP2 MLOAD SWAP1 POP SWAP2 SWAP1 POP JUMP JUMPDEST PUSH1 0x0 DUP3 DUP3 MSTORE PUSH1 0x20 DUP3 ADD SWAP1 POP SWAP3 SWAP2 POP POP JUMP JUMPDEST PUSH1 0x0 DUP2 SWAP1 POP PUSH1 0x20 DUP3 ADD SWAP1 POP SWAP2 SWAP1 POP JUMP JUMPDEST PUSH1 0x40 DUP3 ADD PUSH1 0x0 DUP3 ADD MLOAD PUSH2 0x1A77 PUSH1 0x0 DUP6 ADD DUP3 PUSH2 0x1991 JUMP JUMPDEST POP PUSH1 0x20 DUP3 ADD MLOAD PUSH2 0x1A8A PUSH1 0x20 DUP6 ADD DUP3 PUSH2 0x19A0 JUMP JUMPDEST POP POP POP POP JUMP JUMPDEST PUSH1 0x0 PUSH2 0x1A9C DUP4 DUP4 PUSH2 0x1A61 JUMP JUMPDEST PUSH1 0x40 DUP4 ADD SWAP1 POP SWAP3 SWAP2 POP POP JUMP JUMPDEST PUSH1 0x0 PUSH1 0x20 DUP3 ADD SWAP1 POP SWAP2 SWAP1 POP JUMP JUMPDEST PUSH1 0x0 PUSH2 0x1AC0 DUP3 PUSH2 0x1A35 JUMP JUMPDEST PUSH2 0x1ACA DUP2 DUP6 PUSH2 0x1A40 JUMP JUMPDEST SWAP4 POP PUSH2 0x1AD5 DUP4 PUSH2 0x1A51 JUMP JUMPDEST DUP1 PUSH1 0x0 JUMPDEST DUP4 DUP2 LT ISZERO PUSH2 0x1B06 JUMPI DUP2 MLOAD PUSH2 0x1AED DUP9 DUP3 PUSH2 0x1A90 JUMP JUMPDEST SWAP8 POP PUSH2 0x1AF8 DUP4 PUSH2 0x1AA8 JUMP JUMPDEST SWAP3 POP POP PUSH1 0x1 DUP2 ADD SWAP1 POP PUSH2 0x1AD9 JUMP JUMPDEST POP DUP6 SWAP4 POP POP POP POP SWAP3 SWAP2 POP POP JUMP JUMPDEST PUSH1 0x0 DUP3 DUP3 MSTORE PUSH1 0x20 DUP3 ADD SWAP1 POP SWAP3 SWAP2 POP POP JUMP JUMPDEST PUSH1 0x0 PUSH2 0x1B2F DUP3 PUSH2 0x1167 JUMP JUMPDEST PUSH2 0x1B39 DUP2 DUP6 PUSH2 0x1B13 JUMP JUMPDEST SWAP4 POP PUSH2 0x1B49 DUP2 DUP6 PUSH1 0x20 DUP7 ADD PUSH2 0x1183 JUMP JUMPDEST PUSH2 0x1B52 DUP2 PUSH2 0x11B6 JUMP JUMPDEST DUP5 ADD SWAP2 POP POP SWAP3 SWAP2 POP POP JUMP JUMPDEST PUSH1 0x0 PUSH2 0x240 DUP4 ADD PUSH1 0x0 DUP4 ADD MLOAD PUSH2 0x1B76 PUSH1 0x0 DUP7 ADD DUP3 PUSH2 0x1982 JUMP JUMPDEST POP PUSH1 0x20 DUP4 ADD MLOAD PUSH2 0x1B89 PUSH1 0x20 DUP7 ADD DUP3 PUSH2 0x1991 JUMP JUMPDEST POP PUSH1 0x40 DUP4 ADD MLOAD PUSH2 0x1B9C PUSH1 0x40 DUP7 ADD DUP3 PUSH2 0x1991 JUMP JUMPDEST POP PUSH1 0x60 DUP4 ADD MLOAD PUSH2 0x1BAF PUSH1 0x60 DUP7 ADD DUP3 PUSH2 0x19A0 JUMP JUMPDEST POP PUSH1 0x80 DUP4 ADD MLOAD PUSH2 0x1BC2 PUSH1 0x80 DUP7 ADD DUP3 PUSH2 0x1982 JUMP JUMPDEST POP PUSH1 0xA0 DUP4 ADD MLOAD PUSH2 0x1BD5 PUSH1 0xA0 DUP7 ADD DUP3 PUSH2 0x1982 JUMP JUMPDEST POP PUSH1 0xC0 DUP4 ADD MLOAD PUSH2 0x1BE8 PUSH1 0xC0 DUP7 ADD DUP3 PUSH2 0x1991 JUMP JUMPDEST POP PUSH1 0xE0 DUP4 ADD MLOAD PUSH2 0x1BFB PUSH1 0xE0 DUP7 ADD DUP3 PUSH2 0x1991 JUMP JUMPDEST POP PUSH2 0x100 DUP4 ADD MLOAD PUSH2 0x1C10 PUSH2 0x100 DUP7 ADD DUP3 PUSH2 0x1A17 JUMP JUMPDEST POP PUSH2 0x120 DUP4 ADD MLOAD PUSH2 0x1C25 PUSH2 0x120 DUP7 ADD DUP3 PUSH2 0x1991 JUMP JUMPDEST POP PUSH2 0x140 DUP4 ADD MLOAD PUSH2 0x1C3A PUSH2 0x140 DUP7 ADD DUP3 PUSH2 0x1991 JUMP JUMPDEST POP PUSH2 0x160 DUP4 ADD MLOAD PUSH2 0x1C4F PUSH2 0x160 DUP7 ADD DUP3 PUSH2 0x1A26 JUMP JUMPDEST POP PUSH2 0x180 DUP4 ADD MLOAD PUSH2 0x1C64 PUSH2 0x180 DUP7 ADD DUP3 PUSH2 0x1991 JUMP JUMPDEST POP PUSH2 0x1A0 DUP4 ADD MLOAD PUSH2 0x1C79 PUSH2 0x1A0 DUP7 ADD DUP3 PUSH2 0x1A26 JUMP JUMPDEST POP PUSH2 0x1C0 DUP4 ADD MLOAD PUSH2 0x1C8E PUSH2 0x1C0 DUP7 ADD DUP3 PUSH2 0x1A26 JUMP JUMPDEST POP PUSH2 0x1E0 DUP4 ADD MLOAD PUSH2 0x1CA3 PUSH2 0x1E0 DUP7 ADD DUP3 PUSH2 0x1991 JUMP JUMPDEST POP PUSH2 0x200 DUP4 ADD MLOAD DUP5 DUP3 SUB PUSH2 0x200 DUP7 ADD MSTORE PUSH2 0x1CBD DUP3 DUP3 PUSH2 0x1AB5 JUMP JUMPDEST SWAP2 POP POP PUSH2 0x220 DUP4 ADD MLOAD DUP5 DUP3 SUB PUSH2 0x220 DUP7 ADD MSTORE PUSH2 0x1CD9 DUP3 DUP3 PUSH2 0x1B24 JUMP JUMPDEST SWAP2 POP POP DUP1 SWAP2 POP POP SWAP3 SWAP2 POP POP JUMP JUMPDEST PUSH1 0x0 PUSH1 0x20 DUP3 ADD SWAP1 POP DUP2 DUP2 SUB PUSH1 0x0 DUP4 ADD MSTORE PUSH2 0x1D00 DUP2 DUP5 PUSH2 0x1B5D JUMP JUMPDEST SWAP1 POP SWAP3 SWAP2 POP POP JUMP JUMPDEST PUSH1 0x0 DUP2 SWAP1 POP SWAP3 SWAP2 POP POP JUMP JUMPDEST POP JUMP JUMPDEST PUSH1 0x0 PUSH2 0x1D23 PUSH1 0x0 DUP4 PUSH2 0x1D08 JUMP JUMPDEST SWAP2 POP PUSH2 0x1D2E DUP3 PUSH2 0x1D13 JUMP JUMPDEST PUSH1 0x0 DUP3 ADD SWAP1 POP SWAP2 SWAP1 POP JUMP JUMPDEST PUSH1 0x0 PUSH2 0x1D44 DUP3 PUSH2 0x1D16 JUMP JUMPDEST SWAP2 POP DUP2 SWAP1 POP SWAP2 SWAP1 POP JUMP JUMPDEST PUSH32 0x4574686572207472616E73666572206661696C65642E00000000000000000000 PUSH1 0x0 DUP3 ADD MSTORE POP JUMP JUMPDEST PUSH1 0x0 PUSH2 0x1D84 PUSH1 0x16 DUP4 PUSH2 0x18DF JUMP JUMPDEST SWAP2 POP PUSH2 0x1D8F DUP3 PUSH2 0x1D4E JUMP JUMPDEST PUSH1 0x20 DUP3 ADD SWAP1 POP SWAP2 SWAP1 POP JUMP JUMPDEST PUSH1 0x0 PUSH1 0x20 DUP3 ADD SWAP1 POP DUP2 DUP2 SUB PUSH1 0x0 DUP4 ADD MSTORE PUSH2 0x1DB3 DUP2 PUSH2 0x1D77 JUMP JUMPDEST SWAP1 POP SWAP2 SWAP1 POP JUMP JUMPDEST PUSH1 0x0 DUP2 SWAP1 POP DUP2 PUSH1 0x0 MSTORE PUSH1 0x20 PUSH1 0x0 KECCAK256 SWAP1 POP SWAP2 SWAP1 POP JUMP JUMPDEST PUSH1 0x0 DUP2 SLOAD PUSH2 0x1DDC DUP2 PUSH2 0x18AD JUMP JUMPDEST PUSH2 0x1DE6 DUP2 DUP7 PUSH2 0x1D08 JUMP JUMPDEST SWAP5 POP PUSH1 0x1 DUP3 AND PUSH1 0x0 DUP2 EQ PUSH2 0x1E01 JUMPI PUSH1 0x1 DUP2 EQ PUSH2 0x1E12 JUMPI PUSH2 0x1E45 JUMP JUMPDEST PUSH1 0xFF NOT DUP4 AND DUP7 MSTORE DUP2 DUP7 ADD SWAP4 POP PUSH2 0x1E45 JUMP JUMPDEST PUSH2 0x1E1B DUP6 PUSH2 0x1DBA JUMP JUMPDEST PUSH1 0x0 JUMPDEST DUP4 DUP2 LT ISZERO PUSH2 0x1E3D JUMPI DUP2 SLOAD DUP2 DUP10 ADD MSTORE PUSH1 0x1 DUP3 ADD SWAP2 POP PUSH1 0x20 DUP2 ADD SWAP1 POP PUSH2 0x1E1E JUMP JUMPDEST DUP4 DUP9 ADD SWAP6 POP POP POP JUMPDEST POP POP POP SWAP3 SWAP2 POP POP JUMP JUMPDEST PUSH1 0x0 PUSH2 0x1E5A DUP3 DUP5 PUSH2 0x1DCF JUMP JUMPDEST SWAP2 POP DUP2 SWAP1 POP SWAP3 SWAP2 POP POP JUMP JUMPDEST PUSH32 0x5075726368617365204661696C65640000000000000000000000000000000000 PUSH1 0x0 DUP3 ADD MSTORE POP JUMP JUMPDEST PUSH1 0x0 PUSH2 0x1E9B PUSH1 0xF DUP4 PUSH2 0x18DF JUMP JUMPDEST SWAP2 POP PUSH2 0x1EA6 DUP3 PUSH2 0x1E65 JUMP JUMPDEST PUSH1 0x20 DUP3 ADD SWAP1 POP SWAP2 SWAP1 POP JUMP JUMPDEST PUSH1 0x0 PUSH1 0x20 DUP3 ADD SWAP1 POP DUP2 DUP2 SUB PUSH1 0x0 DUP4 ADD MSTORE PUSH2 0x1ECA DUP2 PUSH2 0x1E8E JUMP JUMPDEST SWAP1 POP SWAP2 SWAP1 POP JUMP JUMPDEST PUSH1 0x0 DUP2 SWAP1 POP SWAP3 SWAP2 POP POP JUMP JUMPDEST PUSH32 0x416363657373436F6E74726F6C3A206163636F756E7420000000000000000000 PUSH1 0x0 DUP3 ADD MSTORE POP JUMP JUMPDEST PUSH1 0x0 PUSH2 0x1F12 PUSH1 0x17 DUP4 PUSH2 0x1ED1 JUMP JUMPDEST SWAP2 POP PUSH2 0x1F1D DUP3 PUSH2 0x1EDC JUMP JUMPDEST PUSH1 0x17 DUP3 ADD SWAP1 POP SWAP2 SWAP1 POP JUMP JUMPDEST PUSH1 0x0 DUP2 MLOAD SWAP1 POP SWAP2 SWAP1 POP JUMP JUMPDEST PUSH1 0x0 PUSH2 0x1F3E DUP3 PUSH2 0x1F28 JUMP JUMPDEST PUSH2 0x1F48 DUP2 DUP6 PUSH2 0x1ED1 JUMP JUMPDEST SWAP4 POP PUSH2 0x1F58 DUP2 DUP6 PUSH1 0x20 DUP7 ADD PUSH2 0x1183 JUMP JUMPDEST DUP1 DUP5 ADD SWAP2 POP POP SWAP3 SWAP2 POP POP JUMP JUMPDEST PUSH32 0x206973206D697373696E6720726F6C6520000000000000000000000000000000 PUSH1 0x0 DUP3 ADD MSTORE POP JUMP JUMPDEST PUSH1 0x0 PUSH2 0x1F9A PUSH1 0x11 DUP4 PUSH2 0x1ED1 JUMP JUMPDEST SWAP2 POP PUSH2 0x1FA5 DUP3 PUSH2 0x1F64 JUMP JUMPDEST PUSH1 0x11 DUP3 ADD SWAP1 POP SWAP2 SWAP1 POP JUMP JUMPDEST PUSH1 0x0 PUSH2 0x1FBB DUP3 PUSH2 0x1F05 JUMP JUMPDEST SWAP2 POP PUSH2 0x1FC7 DUP3 DUP6 PUSH2 0x1F33 JUMP JUMPDEST SWAP2 POP PUSH2 0x1FD2 DUP3 PUSH2 0x1F8D JUMP JUMPDEST SWAP2 POP PUSH2 0x1FDE DUP3 DUP5 PUSH2 0x1F33 JUMP JUMPDEST SWAP2 POP DUP2 SWAP1 POP SWAP4 SWAP3 POP POP POP JUMP JUMPDEST PUSH1 0x0 PUSH2 0x1FF5 DUP3 PUSH2 0x1F28 JUMP JUMPDEST PUSH2 0x1FFF DUP2 DUP6 PUSH2 0x18DF JUMP JUMPDEST SWAP4 POP PUSH2 0x200F DUP2 DUP6 PUSH1 0x20 DUP7 ADD PUSH2 0x1183 JUMP JUMPDEST PUSH2 0x2018 DUP2 PUSH2 0x11B6 JUMP JUMPDEST DUP5 ADD SWAP2 POP POP SWAP3 SWAP2 POP POP JUMP JUMPDEST PUSH1 0x0 PUSH1 0x20 DUP3 ADD SWAP1 POP DUP2 DUP2 SUB PUSH1 0x0 DUP4 ADD MSTORE PUSH2 0x203D DUP2 DUP5 PUSH2 0x1FEA JUMP JUMPDEST SWAP1 POP SWAP3 SWAP2 POP POP JUMP JUMPDEST PUSH32 0x4E487B7100000000000000000000000000000000000000000000000000000000 PUSH1 0x0 MSTORE PUSH1 0x11 PUSH1 0x4 MSTORE PUSH1 0x24 PUSH1 0x0 REVERT JUMPDEST PUSH1 0x0 PUSH2 0x207F DUP3 PUSH2 0x10A6 JUMP JUMPDEST SWAP2 POP PUSH2 0x208A DUP4 PUSH2 0x10A6 JUMP JUMPDEST SWAP3 POP DUP2 PUSH32 0xFFFFFFFFFFFFFFFFFFFFFFFFFFFFFFFFFFFFFFFFFFFFFFFFFFFFFFFFFFFFFFFF DIV DUP4 GT DUP3 ISZERO ISZERO AND ISZERO PUSH2 0x20C3 JUMPI PUSH2 0x20C2 PUSH2 0x2045 JUMP JUMPDEST JUMPDEST DUP3 DUP3 MUL SWAP1 POP SWAP3 SWAP2 POP POP JUMP JUMPDEST PUSH1 0x0 PUSH2 0x20D9 DUP3 PUSH2 0x10A6 JUMP JUMPDEST SWAP2 POP PUSH2 0x20E4 DUP4 PUSH2 0x10A6 JUMP JUMPDEST SWAP3 POP DUP3 PUSH32 0xFFFFFFFFFFFFFFFFFFFFFFFFFFFFFFFFFFFFFFFFFFFFFFFFFFFFFFFFFFFFFFFF SUB DUP3 GT ISZERO PUSH2 0x2119 JUMPI PUSH2 0x2118 PUSH2 0x2045 JUMP JUMPDEST JUMPDEST DUP3 DUP3 ADD SWAP1 POP SWAP3 SWAP2 POP POP JUMP JUMPDEST PUSH32 0x4E487B7100000000000000000000000000000000000000000000000000000000 PUSH1 0x0 MSTORE PUSH1 0x32 PUSH1 0x4 MSTORE PUSH1 0x24 PUSH1 0x0 REVERT JUMPDEST PUSH1 0x0 PUSH2 0x215E DUP3 PUSH2 0x10A6 JUMP JUMPDEST SWAP2 POP PUSH1 0x0 DUP3 EQ ISZERO PUSH2 0x2172 JUMPI PUSH2 0x2171 PUSH2 0x2045 JUMP JUMPDEST JUMPDEST PUSH1 0x1 DUP3 SUB SWAP1 POP SWAP2 SWAP1 POP JUMP JUMPDEST PUSH32 0x537472696E67733A20686578206C656E67746820696E73756666696369656E74 PUSH1 0x0 DUP3 ADD MSTORE POP JUMP JUMPDEST PUSH1 0x0 PUSH2 0x21B3 PUSH1 0x20 DUP4 PUSH2 0x18DF JUMP JUMPDEST SWAP2 POP PUSH2 0x21BE DUP3 PUSH2 0x217D JUMP JUMPDEST PUSH1 0x20 DUP3 ADD SWAP1 POP SWAP2 SWAP1 POP JUMP JUMPDEST PUSH1 0x0 PUSH1 0x20 DUP3 ADD SWAP1 POP DUP2 DUP2 SUB PUSH1 0x0 DUP4 ADD MSTORE PUSH2 0x21E2 DUP2 PUSH2 0x21A6 JUMP JUMPDEST SWAP1 POP SWAP2 SWAP1 POP JUMP INVALID LOG2 PUSH5 0x6970667358 0x22 SLT KECCAK256 REVERT SWAP1 SLOAD 0xEF DUP10 PUSH24 0x2D1AFBAC8143F36214830B082CCE5EB8628003B88CC86429 0xF PUSH9 0x64736F6C6343000809 STOP CALLER LOG2 PUSH5 0x6970667358 0x22 SLT KECCAK256 0xB2 STOP 0xF8 DUP7 0xE5 BASEFEE 0xB0 0xD8 0xC7 0x21 ADDRESS NUMBER 0xAD 0x4B 0xBC PUSH11 0xBD7177BF51CA9BEFCE137A 0xE2 MLOAD 0xCA LT SSTORE PUSH5 0x736F6C6343 STOP ADDMOD MULMOD STOP CALLER "},"methodIdentifiers":{"DEFAULT_ADMIN_ROLE()":"a217fddf","getLatestMarketWrapper()":"a6f66035","getRoleAdmin(bytes32)":"248a9ca3","giveContractOwnership(address,address)":"5556f1aa","grantOwnerRole(address)":"397a8bab","grantRole(bytes32,address)":"2f2ff15d","hasRole(bytes32,address)":"91d14854","newMarketWrapper(uint256,address,bytes,uint256)":"613ae8cf","renounceRole(bytes32,address)":"36568abe","revokeRole(bytes32,address)":"d547741f","supportsInterface(bytes4)":"01ffc9a7"}}}}}