{
  "contracts/main/MarketWrapper.sol": {
    "MarketWrapper": {
      "abi": [
        {
          "inputs": [
            {
              "internalType": "uint256",
              "name": "_buyNowPrice",
              "type": "uint256"
            },
            {
              "internalType": "address",
              "name": "_marketPlace",
              "type": "address"
            },
            {
              "components": [
                {
                  "internalType": "address",
                  "name": "considerationToken",
                  "type": "address"
                },
                {
                  "internalType": "uint256",
                  "name": "considerationIdentifier",
                  "type": "uint256"
                },
                {
                  "internalType": "uint256",
                  "name": "considerationAmount",
                  "type": "uint256"
                },
                {
                  "internalType": "address payable",
                  "name": "offerer",
                  "type": "address"
                },
                {
                  "internalType": "address",
                  "name": "zone",
                  "type": "address"
                },
                {
                  "internalType": "address",
                  "name": "offerToken",
                  "type": "address"
                },
                {
                  "internalType": "uint256",
                  "name": "offerIdentifier",
                  "type": "uint256"
                },
                {
                  "internalType": "uint256",
                  "name": "offerAmount",
                  "type": "uint256"
                },
                {
                  "internalType": "enum BasicOrderType",
                  "name": "basicOrderType",
                  "type": "uint8"
                },
                {
                  "internalType": "uint256",
                  "name": "startTime",
                  "type": "uint256"
                },
                {
                  "internalType": "uint256",
                  "name": "endTime",
                  "type": "uint256"
                },
                {
                  "internalType": "bytes32",
                  "name": "zoneHash",
                  "type": "bytes32"
                },
                {
                  "internalType": "uint256",
                  "name": "salt",
                  "type": "uint256"
                },
                {
                  "internalType": "bytes32",
                  "name": "offererConduitKey",
                  "type": "bytes32"
                },
                {
                  "internalType": "bytes32",
                  "name": "fulfillerConduitKey",
                  "type": "bytes32"
                },
                {
                  "internalType": "uint256",
                  "name": "totalOriginalAdditionalRecipients",
                  "type": "uint256"
                },
                {
                  "components": [
                    {
                      "internalType": "uint256",
                      "name": "amount",
                      "type": "uint256"
                    },
                    {
                      "internalType": "address payable",
                      "name": "recipient",
                      "type": "address"
                    }
                  ],
                  "internalType": "struct AdditionalRecipient[]",
                  "name": "additionalRecipients",
                  "type": "tuple[]"
                },
                {
                  "internalType": "bytes",
                  "name": "signature",
                  "type": "bytes"
                }
              ],
              "internalType": "struct BasicOrderParameters",
              "name": "_transactionData",
              "type": "tuple"
            }
          ],
          "stateMutability": "nonpayable",
          "type": "constructor"
        },
        {
          "anonymous": false,
          "inputs": [
            {
              "indexed": false,
              "internalType": "bool",
              "name": "success",
              "type": "bool"
            }
          ],
          "name": "Purchased",
          "type": "event"
        },
        {
          "anonymous": false,
          "inputs": [
            {
              "indexed": true,
              "internalType": "bytes32",
              "name": "role",
              "type": "bytes32"
            },
            {
              "indexed": true,
              "internalType": "bytes32",
              "name": "previousAdminRole",
              "type": "bytes32"
            },
            {
              "indexed": true,
              "internalType": "bytes32",
              "name": "newAdminRole",
              "type": "bytes32"
            }
          ],
          "name": "RoleAdminChanged",
          "type": "event"
        },
        {
          "anonymous": false,
          "inputs": [
            {
              "indexed": true,
              "internalType": "bytes32",
              "name": "role",
              "type": "bytes32"
            },
            {
              "indexed": true,
              "internalType": "address",
              "name": "account",
              "type": "address"
            },
            {
              "indexed": true,
              "internalType": "address",
              "name": "sender",
              "type": "address"
            }
          ],
          "name": "RoleGranted",
          "type": "event"
        },
        {
          "anonymous": false,
          "inputs": [
            {
              "indexed": true,
              "internalType": "bytes32",
              "name": "role",
              "type": "bytes32"
            },
            {
              "indexed": true,
              "internalType": "address",
              "name": "account",
              "type": "address"
            },
            {
              "indexed": true,
              "internalType": "address",
              "name": "sender",
              "type": "address"
            }
          ],
          "name": "RoleRevoked",
          "type": "event"
        },
        {
          "stateMutability": "payable",
          "type": "fallback"
        },
        {
          "inputs": [],
          "name": "DEFAULT_ADMIN_ROLE",
          "outputs": [
            {
              "internalType": "bytes32",
              "name": "",
              "type": "bytes32"
            }
          ],
          "stateMutability": "view",
          "type": "function"
        },
        {
          "inputs": [],
          "name": "buyNow",
          "outputs": [
            {
              "internalType": "bool",
              "name": "",
              "type": "bool"
            }
          ],
          "stateMutability": "payable",
          "type": "function"
        },
        {
          "inputs": [],
          "name": "buyNowPrice",
          "outputs": [
            {
              "internalType": "uint256",
              "name": "",
              "type": "uint256"
            }
          ],
          "stateMutability": "view",
          "type": "function"
        },
        {
          "inputs": [
            {
              "internalType": "address payable",
              "name": "to",
              "type": "address"
            }
          ],
          "name": "emergencyWithdrawal",
          "outputs": [],
          "stateMutability": "payable",
          "type": "function"
        },
        {
          "inputs": [],
          "name": "getBuyNowPrice",
          "outputs": [
            {
              "internalType": "uint256",
              "name": "",
              "type": "uint256"
            }
          ],
          "stateMutability": "view",
          "type": "function"
        },
        {
          "inputs": [
            {
              "internalType": "bytes32",
              "name": "role",
              "type": "bytes32"
            }
          ],
          "name": "getRoleAdmin",
          "outputs": [
            {
              "internalType": "bytes32",
              "name": "",
              "type": "bytes32"
            }
          ],
          "stateMutability": "view",
          "type": "function"
        },
        {
          "inputs": [
            {
              "internalType": "address",
              "name": "to",
              "type": "address"
            }
          ],
          "name": "grantOwnerRole",
          "outputs": [],
          "stateMutability": "nonpayable",
          "type": "function"
        },
        {
          "inputs": [
            {
              "internalType": "bytes32",
              "name": "role",
              "type": "bytes32"
            },
            {
              "internalType": "address",
              "name": "account",
              "type": "address"
            }
          ],
          "name": "grantRole",
          "outputs": [],
          "stateMutability": "nonpayable",
          "type": "function"
        },
        {
          "inputs": [
            {
              "internalType": "bytes32",
              "name": "role",
              "type": "bytes32"
            },
            {
              "internalType": "address",
              "name": "account",
              "type": "address"
            }
          ],
          "name": "hasRole",
          "outputs": [
            {
              "internalType": "bool",
              "name": "",
              "type": "bool"
            }
          ],
          "stateMutability": "view",
          "type": "function"
        },
        {
          "inputs": [],
          "name": "marketPlace",
          "outputs": [
            {
              "internalType": "address",
              "name": "",
              "type": "address"
            }
          ],
          "stateMutability": "view",
          "type": "function"
        },
        {
          "inputs": [
            {
              "internalType": "bytes32",
              "name": "role",
              "type": "bytes32"
            },
            {
              "internalType": "address",
              "name": "account",
              "type": "address"
            }
          ],
          "name": "renounceRole",
          "outputs": [],
          "stateMutability": "nonpayable",
          "type": "function"
        },
        {
          "inputs": [
            {
              "internalType": "bytes32",
              "name": "role",
              "type": "bytes32"
            },
            {
              "internalType": "address",
              "name": "account",
              "type": "address"
            }
          ],
          "name": "revokeRole",
          "outputs": [],
          "stateMutability": "nonpayable",
          "type": "function"
        },
        {
          "inputs": [
            {
              "internalType": "uint256",
              "name": "_price",
              "type": "uint256"
            }
          ],
          "name": "setBuyNowPrice",
          "outputs": [],
          "stateMutability": "nonpayable",
          "type": "function"
        },
        {
          "inputs": [
            {
              "internalType": "address",
              "name": "_marketPlace",
              "type": "address"
            }
          ],
          "name": "setMarketPlace",
          "outputs": [],
          "stateMutability": "nonpayable",
          "type": "function"
        },
        {
          "inputs": [
            {
              "components": [
                {
                  "internalType": "address",
                  "name": "considerationToken",
                  "type": "address"
                },
                {
                  "internalType": "uint256",
                  "name": "considerationIdentifier",
                  "type": "uint256"
                },
                {
                  "internalType": "uint256",
                  "name": "considerationAmount",
                  "type": "uint256"
                },
                {
                  "internalType": "address payable",
                  "name": "offerer",
                  "type": "address"
                },
                {
                  "internalType": "address",
                  "name": "zone",
                  "type": "address"
                },
                {
                  "internalType": "address",
                  "name": "offerToken",
                  "type": "address"
                },
                {
                  "internalType": "uint256",
                  "name": "offerIdentifier",
                  "type": "uint256"
                },
                {
                  "internalType": "uint256",
                  "name": "offerAmount",
                  "type": "uint256"
                },
                {
                  "internalType": "enum BasicOrderType",
                  "name": "basicOrderType",
                  "type": "uint8"
                },
                {
                  "internalType": "uint256",
                  "name": "startTime",
                  "type": "uint256"
                },
                {
                  "internalType": "uint256",
                  "name": "endTime",
                  "type": "uint256"
                },
                {
                  "internalType": "bytes32",
                  "name": "zoneHash",
                  "type": "bytes32"
                },
                {
                  "internalType": "uint256",
                  "name": "salt",
                  "type": "uint256"
                },
                {
                  "internalType": "bytes32",
                  "name": "offererConduitKey",
                  "type": "bytes32"
                },
                {
                  "internalType": "bytes32",
                  "name": "fulfillerConduitKey",
                  "type": "bytes32"
                },
                {
                  "internalType": "uint256",
                  "name": "totalOriginalAdditionalRecipients",
                  "type": "uint256"
                },
                {
                  "components": [
                    {
                      "internalType": "uint256",
                      "name": "amount",
                      "type": "uint256"
                    },
                    {
                      "internalType": "address payable",
                      "name": "recipient",
                      "type": "address"
                    }
                  ],
                  "internalType": "struct AdditionalRecipient[]",
                  "name": "additionalRecipients",
                  "type": "tuple[]"
                },
                {
                  "internalType": "bytes",
                  "name": "signature",
                  "type": "bytes"
                }
              ],
              "internalType": "struct BasicOrderParameters",
              "name": "_transactionData",
              "type": "tuple"
            }
          ],
          "name": "setTransactionData",
          "outputs": [],
          "stateMutability": "nonpayable",
          "type": "function"
        },
        {
          "inputs": [
            {
              "internalType": "bytes4",
              "name": "interfaceId",
              "type": "bytes4"
            }
          ],
          "name": "supportsInterface",
          "outputs": [
            {
              "internalType": "bool",
              "name": "",
              "type": "bool"
            }
          ],
          "stateMutability": "view",
          "type": "function"
        },
        {
          "stateMutability": "payable",
          "type": "receive"
        }
      ],
      "evm": {
        "bytecode": {
          "linkReferences": {},
          "object": "60806040523480156200001157600080fd5b5060405162002ee638038062002ee6833981810160405281019062000037919062000988565b6200004c6000801b336200014560201b60201c565b8260018190555081600260006101000a81548173ffffffffffffffffffffffffffffffffffffffff021916908373ffffffffffffffffffffffffffffffffffffffff16021790555080604051602401620000a7919062000dc1565b6040516020818303038152906040527fc105f051000000000000000000000000000000000000000000000000000000007bffffffffffffffffffffffffffffffffffffffffffffffffffffffff19166020820180517bffffffffffffffffffffffffffffffffffffffffffffffffffffffff8381831617835250505050600390805190602001906200013b929190620002a8565b5050505062000e4a565b6200015782826200023660201b60201c565b6200023257600160008084815260200190815260200160002060000160008373ffffffffffffffffffffffffffffffffffffffff1673ffffffffffffffffffffffffffffffffffffffff16815260200190815260200160002060006101000a81548160ff021916908315150217905550620001d7620002a060201b60201c565b73ffffffffffffffffffffffffffffffffffffffff168173ffffffffffffffffffffffffffffffffffffffff16837f2f8788117e7eff1d82e926ec794901d17c78024a50270940304540a733656f0d60405160405180910390a45b5050565b600080600084815260200190815260200160002060000160008373ffffffffffffffffffffffffffffffffffffffff1673ffffffffffffffffffffffffffffffffffffffff16815260200190815260200160002060009054906101000a900460ff16905092915050565b600033905090565b828054620002b69062000e14565b90600052602060002090601f016020900481019282620002da576000855562000326565b82601f10620002f557805160ff191683800117855562000326565b8280016001018555821562000326579182015b828111156200032557825182559160200191906001019062000308565b5b50905062000335919062000339565b5090565b5b80821115620003545760008160009055506001016200033a565b5090565b6000604051905090565b600080fd5b600080fd5b6000819050919050565b62000381816200036c565b81146200038d57600080fd5b50565b600081519050620003a18162000376565b92915050565b600073ffffffffffffffffffffffffffffffffffffffff82169050919050565b6000620003d482620003a7565b9050919050565b620003e681620003c7565b8114620003f257600080fd5b50565b6000815190506200040681620003db565b92915050565b600080fd5b6000601f19601f8301169050919050565b7f4e487b7100000000000000000000000000000000000000000000000000000000600052604160045260246000fd5b6200045c8262000411565b810181811067ffffffffffffffff821117156200047e576200047d62000422565b5b80604052505050565b60006200049362000358565b9050620004a1828262000451565b919050565b600080fd5b6000620004b882620003a7565b9050919050565b620004ca81620004ab565b8114620004d657600080fd5b50565b600081519050620004ea81620004bf565b92915050565b60188110620004fe57600080fd5b50565b6000815190506200051281620004f0565b92915050565b6000819050919050565b6200052d8162000518565b81146200053957600080fd5b50565b6000815190506200054d8162000522565b92915050565b600080fd5b600067ffffffffffffffff82111562000576576200057562000422565b5b602082029050602081019050919050565b600080fd5b600060408284031215620005a557620005a46200040c565b5b620005b1604062000487565b90506000620005c38482850162000390565b6000830152506020620005d984828501620004d9565b60208301525092915050565b6000620005fc620005f68462000558565b62000487565b9050808382526020820190506040840283018581111562000622576200062162000587565b5b835b818110156200064f57806200063a88826200058c565b84526020840193505060408101905062000624565b5050509392505050565b600082601f83011262000671576200067062000553565b5b815162000683848260208601620005e5565b91505092915050565b600080fd5b600067ffffffffffffffff821115620006af57620006ae62000422565b5b620006ba8262000411565b9050602081019050919050565b60005b83811015620006e7578082015181840152602081019050620006ca565b83811115620006f7576000848401525b50505050565b6000620007146200070e8462000691565b62000487565b9050828152602081018484840111156200073357620007326200068c565b5b62000740848285620006c7565b509392505050565b600082601f83011262000760576200075f62000553565b5b815162000772848260208601620006fd565b91505092915050565b600061024082840312156200079557620007946200040c565b5b620007a261024062000487565b90506000620007b484828501620003f5565b6000830152506020620007ca8482850162000390565b6020830152506040620007e08482850162000390565b6040830152506060620007f684828501620004d9565b60608301525060806200080c84828501620003f5565b60808301525060a06200082284828501620003f5565b60a08301525060c0620008388482850162000390565b60c08301525060e06200084e8482850162000390565b60e083015250610100620008658482850162000501565b610100830152506101206200087d8482850162000390565b61012083015250610140620008958482850162000390565b61014083015250610160620008ad848285016200053c565b61016083015250610180620008c58482850162000390565b610180830152506101a0620008dd848285016200053c565b6101a0830152506101c0620008f5848285016200053c565b6101c0830152506101e06200090d8482850162000390565b6101e08301525061020082015167ffffffffffffffff811115620009365762000935620004a6565b5b620009448482850162000659565b6102008301525061022082015167ffffffffffffffff8111156200096d576200096c620004a6565b5b6200097b8482850162000748565b6102208301525092915050565b600080600060608486031215620009a457620009a362000362565b5b6000620009b48682870162000390565b9350506020620009c786828701620003f5565b925050604084015167ffffffffffffffff811115620009eb57620009ea62000367565b5b620009f9868287016200077b565b9150509250925092565b62000a0e81620003c7565b82525050565b62000a1f816200036c565b82525050565b62000a3081620004ab565b82525050565b7f4e487b7100000000000000000000000000000000000000000000000000000000600052602160045260246000fd5b6018811062000a795762000a7862000a36565b5b50565b600081905062000a8c8262000a65565b919050565b600062000a9e8262000a7c565b9050919050565b62000ab08162000a91565b82525050565b62000ac18162000518565b82525050565b600081519050919050565b600082825260208201905092915050565b6000819050602082019050919050565b60408201600082015162000b0b600085018262000a14565b50602082015162000b20602085018262000a25565b50505050565b600062000b34838362000af3565b60408301905092915050565b6000602082019050919050565b600062000b5a8262000ac7565b62000b66818562000ad2565b935062000b738362000ae3565b8060005b8381101562000baa57815162000b8e888262000b26565b975062000b9b8362000b40565b92505060018101905062000b77565b5085935050505092915050565b600081519050919050565b600082825260208201905092915050565b600062000be08262000bb7565b62000bec818562000bc2565b935062000bfe818560208601620006c7565b62000c098162000411565b840191505092915050565b60006102408301600083015162000c2f600086018262000a03565b50602083015162000c44602086018262000a14565b50604083015162000c59604086018262000a14565b50606083015162000c6e606086018262000a25565b50608083015162000c83608086018262000a03565b5060a083015162000c9860a086018262000a03565b5060c083015162000cad60c086018262000a14565b5060e083015162000cc260e086018262000a14565b5061010083015162000cd961010086018262000aa5565b5061012083015162000cf061012086018262000a14565b5061014083015162000d0761014086018262000a14565b5061016083015162000d1e61016086018262000ab6565b5061018083015162000d3561018086018262000a14565b506101a083015162000d4c6101a086018262000ab6565b506101c083015162000d636101c086018262000ab6565b506101e083015162000d7a6101e086018262000a14565b5061020083015184820361020086015262000d96828262000b4d565b91505061022083015184820361022086015262000db4828262000bd3565b9150508091505092915050565b6000602082019050818103600083015262000ddd818462000c14565b905092915050565b7f4e487b7100000000000000000000000000000000000000000000000000000000600052602260045260246000fd5b6000600282049050600182168062000e2d57607f821691505b6020821081141562000e445762000e4362000de5565b5b50919050565b61208c8062000e5a6000396000f3fe6080604052600436106100f75760003560e01c80635ecbdce91161008a578063a217fddf11610059578063a217fddf14610314578063a55870881461033f578063d547741f1461036a578063dd0b7ffe14610393576100fe565b80635ecbdce9146102725780636e353a1d1461029d57806391d14854146102b95780639c3962f0146102f6576100fe565b806330568a8d116100c657806330568a8d146101ce57806336568abe146101f7578063397a8bab14610220578063539a2c6d14610249576100fe565b806301ffc9a714610100578063248a9ca31461013d5780632e25d2a61461017a5780632f2ff15d146101a5576100fe565b366100fe57005b005b34801561010c57600080fd5b5061012760048036038101906101229190610f1c565b6103bc565b6040516101349190610f64565b60405180910390f35b34801561014957600080fd5b50610164600480360381019061015f9190610fb5565b610436565b6040516101719190610ff1565b60405180910390f35b34801561018657600080fd5b5061018f610455565b60405161019c919061104d565b60405180910390f35b3480156101b157600080fd5b506101cc60048036038101906101c79190611094565b61047b565b005b3480156101da57600080fd5b506101f560048036038101906101f091906110d4565b61049c565b005b34801561020357600080fd5b5061021e60048036038101906102199190611094565b6104ee565b005b34801561022c57600080fd5b50610247600480360381019061024291906110d4565b610571565b005b34801561025557600080fd5b50610270600480360381019061026b91906115e0565b61058f565b005b34801561027e57600080fd5b50610287610644565b6040516102949190611638565b60405180910390f35b6102b760048036038101906102b29190611653565b61064a565b005b3480156102c557600080fd5b506102e060048036038101906102db9190611094565b610708565b6040516102ed9190610f64565b60405180910390f35b6102fe610772565b60405161030b9190610f64565b60405180910390f35b34801561032057600080fd5b506103296108a3565b6040516103369190610ff1565b60405180910390f35b34801561034b57600080fd5b506103546108aa565b6040516103619190611638565b60405180910390f35b34801561037657600080fd5b50610391600480360381019061038c9190611094565b6108b4565b005b34801561039f57600080fd5b506103ba60048036038101906103b59190611680565b6108d5565b005b60007f7965db0b000000000000000000000000000000000000000000000000000000007bffffffffffffffffffffffffffffffffffffffffffffffffffffffff1916827bffffffffffffffffffffffffffffffffffffffffffffffffffffffff1916148061042f575061042e826108ed565b5b9050919050565b6000806000838152602001908152602001600020600101549050919050565b600260009054906101000a900473ffffffffffffffffffffffffffffffffffffffff1681565b61048482610436565b61048d81610957565b610497838361096b565b505050565b6000801b6104a981610957565b81600260006101000a81548173ffffffffffffffffffffffffffffffffffffffff021916908373ffffffffffffffffffffffffffffffffffffffff1602179055505050565b6104f6610a4b565b73ffffffffffffffffffffffffffffffffffffffff168173ffffffffffffffffffffffffffffffffffffffff1614610563576040517f08c379a000000000000000000000000000000000000000000000000000000000815260040161055a90611730565b60405180910390fd5b61056d8282610a53565b5050565b6000801b61057e81610957565b61058b6000801b8361096b565b5050565b6000801b61059c81610957565b816040516024016105ad9190611af2565b6040516020818303038152906040527fc105f051000000000000000000000000000000000000000000000000000000007bffffffffffffffffffffffffffffffffffffffffffffffffffffffff19166020820180517bffffffffffffffffffffffffffffffffffffffffffffffffffffffff83818316178352505050506003908051906020019061063f929190610e0d565b505050565b60015481565b6000801b61065781610957565b60008273ffffffffffffffffffffffffffffffffffffffff164760405161067d90611b45565b60006040518083038185875af1925050503d80600081146106ba576040519150601f19603f3d011682016040523d82523d6000602084013e6106bf565b606091505b5050905080610703576040517f08c379a00000000000000000000000000000000000000000000000000000000081526004016106fa90611ba6565b60405180910390fd5b505050565b600080600084815260200190815260200160002060000160008373ffffffffffffffffffffffffffffffffffffffff1673ffffffffffffffffffffffffffffffffffffffff16815260200190815260200160002060009054906101000a900460ff16905092915050565b60008060001b61078181610957565b600154471461078f57600080fd5b6000600260009054906101000a900473ffffffffffffffffffffffffffffffffffffffff1673ffffffffffffffffffffffffffffffffffffffff1660015460036040516107dc9190611cbb565b60006040518083038185875af1925050503d8060008114610819576040519150601f19603f3d011682016040523d82523d6000602084013e61081e565b606091505b5050905080610862576040517f08c379a000000000000000000000000000000000000000000000000000000000815260040161085990611d1e565b60405180910390fd5b7f83e31f5e5651d64b527802681a291e708d9fe310288785b1b816aa293d9b8fc660016040516108929190610f64565b60405180910390a160019250505090565b6000801b81565b6000600154905090565b6108bd82610436565b6108c681610957565b6108d08383610a53565b505050565b6000801b6108e281610957565b816001819055505050565b60007f01ffc9a7000000000000000000000000000000000000000000000000000000007bffffffffffffffffffffffffffffffffffffffffffffffffffffffff1916827bffffffffffffffffffffffffffffffffffffffffffffffffffffffff1916149050919050565b61096881610963610a4b565b610b34565b50565b6109758282610708565b610a4757600160008084815260200190815260200160002060000160008373ffffffffffffffffffffffffffffffffffffffff1673ffffffffffffffffffffffffffffffffffffffff16815260200190815260200160002060006101000a81548160ff0219169083151502179055506109ec610a4b565b73ffffffffffffffffffffffffffffffffffffffff168173ffffffffffffffffffffffffffffffffffffffff16837f2f8788117e7eff1d82e926ec794901d17c78024a50270940304540a733656f0d60405160405180910390a45b5050565b600033905090565b610a5d8282610708565b15610b3057600080600084815260200190815260200160002060000160008373ffffffffffffffffffffffffffffffffffffffff1673ffffffffffffffffffffffffffffffffffffffff16815260200190815260200160002060006101000a81548160ff021916908315150217905550610ad5610a4b565b73ffffffffffffffffffffffffffffffffffffffff168173ffffffffffffffffffffffffffffffffffffffff16837ff6391f5c32d9c69d2a47ea670b442974b53935d1edc7fd64eb21e047a839171b60405160405180910390a45b5050565b610b3e8282610708565b610bcd57610b638173ffffffffffffffffffffffffffffffffffffffff166014610bd1565b610b718360001c6020610bd1565b604051602001610b82929190611e1d565b6040516020818303038152906040526040517f08c379a0000000000000000000000000000000000000000000000000000000008152600401610bc49190611e90565b60405180910390fd5b5050565b606060006002836002610be49190611ee1565b610bee9190611f3b565b67ffffffffffffffff811115610c0757610c06611117565b5b6040519080825280601f01601f191660200182016040528015610c395781602001600182028036833780820191505090505b5090507f300000000000000000000000000000000000000000000000000000000000000081600081518110610c7157610c70611f91565b5b60200101907effffffffffffffffffffffffffffffffffffffffffffffffffffffffffffff1916908160001a9053507f780000000000000000000000000000000000000000000000000000000000000081600181518110610cd557610cd4611f91565b5b60200101907effffffffffffffffffffffffffffffffffffffffffffffffffffffffffffff1916908160001a90535060006001846002610d159190611ee1565b610d1f9190611f3b565b90505b6001811115610dbf577f3031323334353637383961626364656600000000000000000000000000000000600f861660108110610d6157610d60611f91565b5b1a60f81b828281518110610d7857610d77611f91565b5b60200101907effffffffffffffffffffffffffffffffffffffffffffffffffffffffffffff1916908160001a905350600485901c945080610db890611fc0565b9050610d22565b5060008414610e03576040517f08c379a0000000000000000000000000000000000000000000000000000000008152600401610dfa90612036565b60405180910390fd5b8091505092915050565b828054610e1990611bf5565b90600052602060002090601f016020900481019282610e3b5760008555610e82565b82601f10610e5457805160ff1916838001178555610e82565b82800160010185558215610e82579182015b82811115610e81578251825591602001919060010190610e66565b5b509050610e8f9190610e93565b5090565b5b80821115610eac576000816000905550600101610e94565b5090565b6000604051905090565b600080fd5b600080fd5b60007fffffffff0000000000000000000000000000000000000000000000000000000082169050919050565b610ef981610ec4565b8114610f0457600080fd5b50565b600081359050610f1681610ef0565b92915050565b600060208284031215610f3257610f31610eba565b5b6000610f4084828501610f07565b91505092915050565b60008115159050919050565b610f5e81610f49565b82525050565b6000602082019050610f796000830184610f55565b92915050565b6000819050919050565b610f9281610f7f565b8114610f9d57600080fd5b50565b600081359050610faf81610f89565b92915050565b600060208284031215610fcb57610fca610eba565b5b6000610fd984828501610fa0565b91505092915050565b610feb81610f7f565b82525050565b60006020820190506110066000830184610fe2565b92915050565b600073ffffffffffffffffffffffffffffffffffffffff82169050919050565b60006110378261100c565b9050919050565b6110478161102c565b82525050565b6000602082019050611062600083018461103e565b92915050565b6110718161102c565b811461107c57600080fd5b50565b60008135905061108e81611068565b92915050565b600080604083850312156110ab576110aa610eba565b5b60006110b985828601610fa0565b92505060206110ca8582860161107f565b9150509250929050565b6000602082840312156110ea576110e9610eba565b5b60006110f88482850161107f565b91505092915050565b600080fd5b6000601f19601f8301169050919050565b7f4e487b7100000000000000000000000000000000000000000000000000000000600052604160045260246000fd5b61114f82611106565b810181811067ffffffffffffffff8211171561116e5761116d611117565b5b80604052505050565b6000611181610eb0565b905061118d8282611146565b919050565b600080fd5b6000819050919050565b6111aa81611197565b81146111b557600080fd5b50565b6000813590506111c7816111a1565b92915050565b60006111d88261100c565b9050919050565b6111e8816111cd565b81146111f357600080fd5b50565b600081359050611205816111df565b92915050565b6018811061121857600080fd5b50565b60008135905061122a8161120b565b92915050565b600080fd5b600067ffffffffffffffff8211156112505761124f611117565b5b602082029050602081019050919050565b600080fd5b60006040828403121561127c5761127b611101565b5b6112866040611177565b90506000611296848285016111b8565b60008301525060206112aa848285016111f6565b60208301525092915050565b60006112c96112c484611235565b611177565b905080838252602082019050604084028301858111156112ec576112eb611261565b5b835b8181101561131557806113018882611266565b8452602084019350506040810190506112ee565b5050509392505050565b600082601f83011261133457611333611230565b5b81356113448482602086016112b6565b91505092915050565b600080fd5b600067ffffffffffffffff82111561136d5761136c611117565b5b61137682611106565b9050602081019050919050565b82818337600083830152505050565b60006113a56113a084611352565b611177565b9050828152602081018484840111156113c1576113c061134d565b5b6113cc848285611383565b509392505050565b600082601f8301126113e9576113e8611230565b5b81356113f9848260208601611392565b91505092915050565b6000610240828403121561141957611418611101565b5b611424610240611177565b905060006114348482850161107f565b6000830152506020611448848285016111b8565b602083015250604061145c848285016111b8565b6040830152506060611470848285016111f6565b60608301525060806114848482850161107f565b60808301525060a06114988482850161107f565b60a08301525060c06114ac848285016111b8565b60c08301525060e06114c0848285016111b8565b60e0830152506101006114d58482850161121b565b610100830152506101206114eb848285016111b8565b61012083015250610140611501848285016111b8565b6101408301525061016061151784828501610fa0565b6101608301525061018061152d848285016111b8565b610180830152506101a061154384828501610fa0565b6101a0830152506101c061155984828501610fa0565b6101c0830152506101e061156f848285016111b8565b6101e08301525061020082013567ffffffffffffffff81111561159557611594611192565b5b6115a18482850161131f565b6102008301525061022082013567ffffffffffffffff8111156115c7576115c6611192565b5b6115d3848285016113d4565b6102208301525092915050565b6000602082840312156115f6576115f5610eba565b5b600082013567ffffffffffffffff81111561161457611613610ebf565b5b61162084828501611402565b91505092915050565b61163281611197565b82525050565b600060208201905061164d6000830184611629565b92915050565b60006020828403121561166957611668610eba565b5b6000611677848285016111f6565b91505092915050565b60006020828403121561169657611695610eba565b5b60006116a4848285016111b8565b91505092915050565b600082825260208201905092915050565b7f416363657373436f6e74726f6c3a2063616e206f6e6c792072656e6f756e636560008201527f20726f6c657320666f722073656c660000000000000000000000000000000000602082015250565b600061171a602f836116ad565b9150611725826116be565b604082019050919050565b600060208201905081810360008301526117498161170d565b9050919050565b6117598161102c565b82525050565b61176881611197565b82525050565b611777816111cd565b82525050565b7f4e487b7100000000000000000000000000000000000000000000000000000000600052602160045260246000fd5b601881106117bd576117bc61177d565b5b50565b60008190506117ce826117ac565b919050565b60006117de826117c0565b9050919050565b6117ee816117d3565b82525050565b6117fd81610f7f565b82525050565b600081519050919050565b600082825260208201905092915050565b6000819050602082019050919050565b604082016000820151611845600085018261175f565b506020820151611858602085018261176e565b50505050565b600061186a838361182f565b60408301905092915050565b6000602082019050919050565b600061188e82611803565b611898818561180e565b93506118a38361181f565b8060005b838110156118d45781516118bb888261185e565b97506118c683611876565b9250506001810190506118a7565b5085935050505092915050565b600081519050919050565b600082825260208201905092915050565b60005b8381101561191b578082015181840152602081019050611900565b8381111561192a576000848401525b50505050565b600061193b826118e1565b61194581856118ec565b93506119558185602086016118fd565b61195e81611106565b840191505092915050565b6000610240830160008301516119826000860182611750565b506020830151611995602086018261175f565b5060408301516119a8604086018261175f565b5060608301516119bb606086018261176e565b5060808301516119ce6080860182611750565b5060a08301516119e160a0860182611750565b5060c08301516119f460c086018261175f565b5060e0830151611a0760e086018261175f565b50610100830151611a1c6101008601826117e5565b50610120830151611a3161012086018261175f565b50610140830151611a4661014086018261175f565b50610160830151611a5b6101608601826117f4565b50610180830151611a7061018086018261175f565b506101a0830151611a856101a08601826117f4565b506101c0830151611a9a6101c08601826117f4565b506101e0830151611aaf6101e086018261175f565b50610200830151848203610200860152611ac98282611883565b915050610220830151848203610220860152611ae58282611930565b9150508091505092915050565b60006020820190508181036000830152611b0c8184611969565b905092915050565b600081905092915050565b50565b6000611b2f600083611b14565b9150611b3a82611b1f565b600082019050919050565b6000611b5082611b22565b9150819050919050565b7f4574686572207472616e73666572206661696c65642e00000000000000000000600082015250565b6000611b906016836116ad565b9150611b9b82611b5a565b602082019050919050565b60006020820190508181036000830152611bbf81611b83565b9050919050565b7f4e487b7100000000000000000000000000000000000000000000000000000000600052602260045260246000fd5b60006002820490506001821680611c0d57607f821691505b60208210811415611c2157611c20611bc6565b5b50919050565b60008190508160005260206000209050919050565b60008154611c4981611bf5565b611c538186611b14565b94506001821660008114611c6e5760018114611c7f57611cb2565b60ff19831686528186019350611cb2565b611c8885611c27565b60005b83811015611caa57815481890152600182019150602081019050611c8b565b838801955050505b50505092915050565b6000611cc78284611c3c565b915081905092915050565b7f5075726368617365204661696c65640000000000000000000000000000000000600082015250565b6000611d08600f836116ad565b9150611d1382611cd2565b602082019050919050565b60006020820190508181036000830152611d3781611cfb565b9050919050565b600081905092915050565b7f416363657373436f6e74726f6c3a206163636f756e7420000000000000000000600082015250565b6000611d7f601783611d3e565b9150611d8a82611d49565b601782019050919050565b600081519050919050565b6000611dab82611d95565b611db58185611d3e565b9350611dc58185602086016118fd565b80840191505092915050565b7f206973206d697373696e6720726f6c6520000000000000000000000000000000600082015250565b6000611e07601183611d3e565b9150611e1282611dd1565b601182019050919050565b6000611e2882611d72565b9150611e348285611da0565b9150611e3f82611dfa565b9150611e4b8284611da0565b91508190509392505050565b6000611e6282611d95565b611e6c81856116ad565b9350611e7c8185602086016118fd565b611e8581611106565b840191505092915050565b60006020820190508181036000830152611eaa8184611e57565b905092915050565b7f4e487b7100000000000000000000000000000000000000000000000000000000600052601160045260246000fd5b6000611eec82611197565b9150611ef783611197565b9250817fffffffffffffffffffffffffffffffffffffffffffffffffffffffffffffffff0483118215151615611f3057611f2f611eb2565b5b828202905092915050565b6000611f4682611197565b9150611f5183611197565b9250827fffffffffffffffffffffffffffffffffffffffffffffffffffffffffffffffff03821115611f8657611f85611eb2565b5b828201905092915050565b7f4e487b7100000000000000000000000000000000000000000000000000000000600052603260045260246000fd5b6000611fcb82611197565b91506000821415611fdf57611fde611eb2565b5b600182039050919050565b7f537472696e67733a20686578206c656e67746820696e73756666696369656e74600082015250565b60006120206020836116ad565b915061202b82611fea565b602082019050919050565b6000602082019050818103600083015261204f81612013565b905091905056fea2646970667358221220819ea898161e9a1d6e36757b613371ee3e5b9ce26757d5f73228df50e388feb264736f6c63430008090033",
          "opcodes": "PUSH1 0x80 PUSH1 0x40 MSTORE CALLVALUE DUP1 ISZERO PUSH3 0x11 JUMPI PUSH1 0x0 DUP1 REVERT JUMPDEST POP PUSH1 0x40 MLOAD PUSH3 0x2EE6 CODESIZE SUB DUP1 PUSH3 0x2EE6 DUP4 CODECOPY DUP2 DUP2 ADD PUSH1 0x40 MSTORE DUP2 ADD SWAP1 PUSH3 0x37 SWAP2 SWAP1 PUSH3 0x988 JUMP JUMPDEST PUSH3 0x4C PUSH1 0x0 DUP1 SHL CALLER PUSH3 0x145 PUSH1 0x20 SHL PUSH1 0x20 SHR JUMP JUMPDEST DUP3 PUSH1 0x1 DUP2 SWAP1 SSTORE POP DUP2 PUSH1 0x2 PUSH1 0x0 PUSH2 0x100 EXP DUP2 SLOAD DUP2 PUSH20 0xFFFFFFFFFFFFFFFFFFFFFFFFFFFFFFFFFFFFFFFF MUL NOT AND SWAP1 DUP4 PUSH20 0xFFFFFFFFFFFFFFFFFFFFFFFFFFFFFFFFFFFFFFFF AND MUL OR SWAP1 SSTORE POP DUP1 PUSH1 0x40 MLOAD PUSH1 0x24 ADD PUSH3 0xA7 SWAP2 SWAP1 PUSH3 0xDC1 JUMP JUMPDEST PUSH1 0x40 MLOAD PUSH1 0x20 DUP2 DUP4 SUB SUB DUP2 MSTORE SWAP1 PUSH1 0x40 MSTORE PUSH32 0xC105F05100000000000000000000000000000000000000000000000000000000 PUSH28 0xFFFFFFFFFFFFFFFFFFFFFFFFFFFFFFFFFFFFFFFFFFFFFFFFFFFFFFFF NOT AND PUSH1 0x20 DUP3 ADD DUP1 MLOAD PUSH28 0xFFFFFFFFFFFFFFFFFFFFFFFFFFFFFFFFFFFFFFFFFFFFFFFFFFFFFFFF DUP4 DUP2 DUP4 AND OR DUP4 MSTORE POP POP POP POP PUSH1 0x3 SWAP1 DUP1 MLOAD SWAP1 PUSH1 0x20 ADD SWAP1 PUSH3 0x13B SWAP3 SWAP2 SWAP1 PUSH3 0x2A8 JUMP JUMPDEST POP POP POP POP PUSH3 0xE4A JUMP JUMPDEST PUSH3 0x157 DUP3 DUP3 PUSH3 0x236 PUSH1 0x20 SHL PUSH1 0x20 SHR JUMP JUMPDEST PUSH3 0x232 JUMPI PUSH1 0x1 PUSH1 0x0 DUP1 DUP5 DUP2 MSTORE PUSH1 0x20 ADD SWAP1 DUP2 MSTORE PUSH1 0x20 ADD PUSH1 0x0 KECCAK256 PUSH1 0x0 ADD PUSH1 0x0 DUP4 PUSH20 0xFFFFFFFFFFFFFFFFFFFFFFFFFFFFFFFFFFFFFFFF AND PUSH20 0xFFFFFFFFFFFFFFFFFFFFFFFFFFFFFFFFFFFFFFFF AND DUP2 MSTORE PUSH1 0x20 ADD SWAP1 DUP2 MSTORE PUSH1 0x20 ADD PUSH1 0x0 KECCAK256 PUSH1 0x0 PUSH2 0x100 EXP DUP2 SLOAD DUP2 PUSH1 0xFF MUL NOT AND SWAP1 DUP4 ISZERO ISZERO MUL OR SWAP1 SSTORE POP PUSH3 0x1D7 PUSH3 0x2A0 PUSH1 0x20 SHL PUSH1 0x20 SHR JUMP JUMPDEST PUSH20 0xFFFFFFFFFFFFFFFFFFFFFFFFFFFFFFFFFFFFFFFF AND DUP2 PUSH20 0xFFFFFFFFFFFFFFFFFFFFFFFFFFFFFFFFFFFFFFFF AND DUP4 PUSH32 0x2F8788117E7EFF1D82E926EC794901D17C78024A50270940304540A733656F0D PUSH1 0x40 MLOAD PUSH1 0x40 MLOAD DUP1 SWAP2 SUB SWAP1 LOG4 JUMPDEST POP POP JUMP JUMPDEST PUSH1 0x0 DUP1 PUSH1 0x0 DUP5 DUP2 MSTORE PUSH1 0x20 ADD SWAP1 DUP2 MSTORE PUSH1 0x20 ADD PUSH1 0x0 KECCAK256 PUSH1 0x0 ADD PUSH1 0x0 DUP4 PUSH20 0xFFFFFFFFFFFFFFFFFFFFFFFFFFFFFFFFFFFFFFFF AND PUSH20 0xFFFFFFFFFFFFFFFFFFFFFFFFFFFFFFFFFFFFFFFF AND DUP2 MSTORE PUSH1 0x20 ADD SWAP1 DUP2 MSTORE PUSH1 0x20 ADD PUSH1 0x0 KECCAK256 PUSH1 0x0 SWAP1 SLOAD SWAP1 PUSH2 0x100 EXP SWAP1 DIV PUSH1 0xFF AND SWAP1 POP SWAP3 SWAP2 POP POP JUMP JUMPDEST PUSH1 0x0 CALLER SWAP1 POP SWAP1 JUMP JUMPDEST DUP3 DUP1 SLOAD PUSH3 0x2B6 SWAP1 PUSH3 0xE14 JUMP JUMPDEST SWAP1 PUSH1 0x0 MSTORE PUSH1 0x20 PUSH1 0x0 KECCAK256 SWAP1 PUSH1 0x1F ADD PUSH1 0x20 SWAP1 DIV DUP2 ADD SWAP3 DUP3 PUSH3 0x2DA JUMPI PUSH1 0x0 DUP6 SSTORE PUSH3 0x326 JUMP JUMPDEST DUP3 PUSH1 0x1F LT PUSH3 0x2F5 JUMPI DUP1 MLOAD PUSH1 0xFF NOT AND DUP4 DUP1 ADD OR DUP6 SSTORE PUSH3 0x326 JUMP JUMPDEST DUP3 DUP1 ADD PUSH1 0x1 ADD DUP6 SSTORE DUP3 ISZERO PUSH3 0x326 JUMPI SWAP2 DUP3 ADD JUMPDEST DUP3 DUP2 GT ISZERO PUSH3 0x325 JUMPI DUP3 MLOAD DUP3 SSTORE SWAP2 PUSH1 0x20 ADD SWAP2 SWAP1 PUSH1 0x1 ADD SWAP1 PUSH3 0x308 JUMP JUMPDEST JUMPDEST POP SWAP1 POP PUSH3 0x335 SWAP2 SWAP1 PUSH3 0x339 JUMP JUMPDEST POP SWAP1 JUMP JUMPDEST JUMPDEST DUP1 DUP3 GT ISZERO PUSH3 0x354 JUMPI PUSH1 0x0 DUP2 PUSH1 0x0 SWAP1 SSTORE POP PUSH1 0x1 ADD PUSH3 0x33A JUMP JUMPDEST POP SWAP1 JUMP JUMPDEST PUSH1 0x0 PUSH1 0x40 MLOAD SWAP1 POP SWAP1 JUMP JUMPDEST PUSH1 0x0 DUP1 REVERT JUMPDEST PUSH1 0x0 DUP1 REVERT JUMPDEST PUSH1 0x0 DUP2 SWAP1 POP SWAP2 SWAP1 POP JUMP JUMPDEST PUSH3 0x381 DUP2 PUSH3 0x36C JUMP JUMPDEST DUP2 EQ PUSH3 0x38D JUMPI PUSH1 0x0 DUP1 REVERT JUMPDEST POP JUMP JUMPDEST PUSH1 0x0 DUP2 MLOAD SWAP1 POP PUSH3 0x3A1 DUP2 PUSH3 0x376 JUMP JUMPDEST SWAP3 SWAP2 POP POP JUMP JUMPDEST PUSH1 0x0 PUSH20 0xFFFFFFFFFFFFFFFFFFFFFFFFFFFFFFFFFFFFFFFF DUP3 AND SWAP1 POP SWAP2 SWAP1 POP JUMP JUMPDEST PUSH1 0x0 PUSH3 0x3D4 DUP3 PUSH3 0x3A7 JUMP JUMPDEST SWAP1 POP SWAP2 SWAP1 POP JUMP JUMPDEST PUSH3 0x3E6 DUP2 PUSH3 0x3C7 JUMP JUMPDEST DUP2 EQ PUSH3 0x3F2 JUMPI PUSH1 0x0 DUP1 REVERT JUMPDEST POP JUMP JUMPDEST PUSH1 0x0 DUP2 MLOAD SWAP1 POP PUSH3 0x406 DUP2 PUSH3 0x3DB JUMP JUMPDEST SWAP3 SWAP2 POP POP JUMP JUMPDEST PUSH1 0x0 DUP1 REVERT JUMPDEST PUSH1 0x0 PUSH1 0x1F NOT PUSH1 0x1F DUP4 ADD AND SWAP1 POP SWAP2 SWAP1 POP JUMP JUMPDEST PUSH32 0x4E487B7100000000000000000000000000000000000000000000000000000000 PUSH1 0x0 MSTORE PUSH1 0x41 PUSH1 0x4 MSTORE PUSH1 0x24 PUSH1 0x0 REVERT JUMPDEST PUSH3 0x45C DUP3 PUSH3 0x411 JUMP JUMPDEST DUP2 ADD DUP2 DUP2 LT PUSH8 0xFFFFFFFFFFFFFFFF DUP3 GT OR ISZERO PUSH3 0x47E JUMPI PUSH3 0x47D PUSH3 0x422 JUMP JUMPDEST JUMPDEST DUP1 PUSH1 0x40 MSTORE POP POP POP JUMP JUMPDEST PUSH1 0x0 PUSH3 0x493 PUSH3 0x358 JUMP JUMPDEST SWAP1 POP PUSH3 0x4A1 DUP3 DUP3 PUSH3 0x451 JUMP JUMPDEST SWAP2 SWAP1 POP JUMP JUMPDEST PUSH1 0x0 DUP1 REVERT JUMPDEST PUSH1 0x0 PUSH3 0x4B8 DUP3 PUSH3 0x3A7 JUMP JUMPDEST SWAP1 POP SWAP2 SWAP1 POP JUMP JUMPDEST PUSH3 0x4CA DUP2 PUSH3 0x4AB JUMP JUMPDEST DUP2 EQ PUSH3 0x4D6 JUMPI PUSH1 0x0 DUP1 REVERT JUMPDEST POP JUMP JUMPDEST PUSH1 0x0 DUP2 MLOAD SWAP1 POP PUSH3 0x4EA DUP2 PUSH3 0x4BF JUMP JUMPDEST SWAP3 SWAP2 POP POP JUMP JUMPDEST PUSH1 0x18 DUP2 LT PUSH3 0x4FE JUMPI PUSH1 0x0 DUP1 REVERT JUMPDEST POP JUMP JUMPDEST PUSH1 0x0 DUP2 MLOAD SWAP1 POP PUSH3 0x512 DUP2 PUSH3 0x4F0 JUMP JUMPDEST SWAP3 SWAP2 POP POP JUMP JUMPDEST PUSH1 0x0 DUP2 SWAP1 POP SWAP2 SWAP1 POP JUMP JUMPDEST PUSH3 0x52D DUP2 PUSH3 0x518 JUMP JUMPDEST DUP2 EQ PUSH3 0x539 JUMPI PUSH1 0x0 DUP1 REVERT JUMPDEST POP JUMP JUMPDEST PUSH1 0x0 DUP2 MLOAD SWAP1 POP PUSH3 0x54D DUP2 PUSH3 0x522 JUMP JUMPDEST SWAP3 SWAP2 POP POP JUMP JUMPDEST PUSH1 0x0 DUP1 REVERT JUMPDEST PUSH1 0x0 PUSH8 0xFFFFFFFFFFFFFFFF DUP3 GT ISZERO PUSH3 0x576 JUMPI PUSH3 0x575 PUSH3 0x422 JUMP JUMPDEST JUMPDEST PUSH1 0x20 DUP3 MUL SWAP1 POP PUSH1 0x20 DUP2 ADD SWAP1 POP SWAP2 SWAP1 POP JUMP JUMPDEST PUSH1 0x0 DUP1 REVERT JUMPDEST PUSH1 0x0 PUSH1 0x40 DUP3 DUP5 SUB SLT ISZERO PUSH3 0x5A5 JUMPI PUSH3 0x5A4 PUSH3 0x40C JUMP JUMPDEST JUMPDEST PUSH3 0x5B1 PUSH1 0x40 PUSH3 0x487 JUMP JUMPDEST SWAP1 POP PUSH1 0x0 PUSH3 0x5C3 DUP5 DUP3 DUP6 ADD PUSH3 0x390 JUMP JUMPDEST PUSH1 0x0 DUP4 ADD MSTORE POP PUSH1 0x20 PUSH3 0x5D9 DUP5 DUP3 DUP6 ADD PUSH3 0x4D9 JUMP JUMPDEST PUSH1 0x20 DUP4 ADD MSTORE POP SWAP3 SWAP2 POP POP JUMP JUMPDEST PUSH1 0x0 PUSH3 0x5FC PUSH3 0x5F6 DUP5 PUSH3 0x558 JUMP JUMPDEST PUSH3 0x487 JUMP JUMPDEST SWAP1 POP DUP1 DUP4 DUP3 MSTORE PUSH1 0x20 DUP3 ADD SWAP1 POP PUSH1 0x40 DUP5 MUL DUP4 ADD DUP6 DUP2 GT ISZERO PUSH3 0x622 JUMPI PUSH3 0x621 PUSH3 0x587 JUMP JUMPDEST JUMPDEST DUP4 JUMPDEST DUP2 DUP2 LT ISZERO PUSH3 0x64F JUMPI DUP1 PUSH3 0x63A DUP9 DUP3 PUSH3 0x58C JUMP JUMPDEST DUP5 MSTORE PUSH1 0x20 DUP5 ADD SWAP4 POP POP PUSH1 0x40 DUP2 ADD SWAP1 POP PUSH3 0x624 JUMP JUMPDEST POP POP POP SWAP4 SWAP3 POP POP POP JUMP JUMPDEST PUSH1 0x0 DUP3 PUSH1 0x1F DUP4 ADD SLT PUSH3 0x671 JUMPI PUSH3 0x670 PUSH3 0x553 JUMP JUMPDEST JUMPDEST DUP2 MLOAD PUSH3 0x683 DUP5 DUP3 PUSH1 0x20 DUP7 ADD PUSH3 0x5E5 JUMP JUMPDEST SWAP2 POP POP SWAP3 SWAP2 POP POP JUMP JUMPDEST PUSH1 0x0 DUP1 REVERT JUMPDEST PUSH1 0x0 PUSH8 0xFFFFFFFFFFFFFFFF DUP3 GT ISZERO PUSH3 0x6AF JUMPI PUSH3 0x6AE PUSH3 0x422 JUMP JUMPDEST JUMPDEST PUSH3 0x6BA DUP3 PUSH3 0x411 JUMP JUMPDEST SWAP1 POP PUSH1 0x20 DUP2 ADD SWAP1 POP SWAP2 SWAP1 POP JUMP JUMPDEST PUSH1 0x0 JUMPDEST DUP4 DUP2 LT ISZERO PUSH3 0x6E7 JUMPI DUP1 DUP3 ADD MLOAD DUP2 DUP5 ADD MSTORE PUSH1 0x20 DUP2 ADD SWAP1 POP PUSH3 0x6CA JUMP JUMPDEST DUP4 DUP2 GT ISZERO PUSH3 0x6F7 JUMPI PUSH1 0x0 DUP5 DUP5 ADD MSTORE JUMPDEST POP POP POP POP JUMP JUMPDEST PUSH1 0x0 PUSH3 0x714 PUSH3 0x70E DUP5 PUSH3 0x691 JUMP JUMPDEST PUSH3 0x487 JUMP JUMPDEST SWAP1 POP DUP3 DUP2 MSTORE PUSH1 0x20 DUP2 ADD DUP5 DUP5 DUP5 ADD GT ISZERO PUSH3 0x733 JUMPI PUSH3 0x732 PUSH3 0x68C JUMP JUMPDEST JUMPDEST PUSH3 0x740 DUP5 DUP3 DUP6 PUSH3 0x6C7 JUMP JUMPDEST POP SWAP4 SWAP3 POP POP POP JUMP JUMPDEST PUSH1 0x0 DUP3 PUSH1 0x1F DUP4 ADD SLT PUSH3 0x760 JUMPI PUSH3 0x75F PUSH3 0x553 JUMP JUMPDEST JUMPDEST DUP2 MLOAD PUSH3 0x772 DUP5 DUP3 PUSH1 0x20 DUP7 ADD PUSH3 0x6FD JUMP JUMPDEST SWAP2 POP POP SWAP3 SWAP2 POP POP JUMP JUMPDEST PUSH1 0x0 PUSH2 0x240 DUP3 DUP5 SUB SLT ISZERO PUSH3 0x795 JUMPI PUSH3 0x794 PUSH3 0x40C JUMP JUMPDEST JUMPDEST PUSH3 0x7A2 PUSH2 0x240 PUSH3 0x487 JUMP JUMPDEST SWAP1 POP PUSH1 0x0 PUSH3 0x7B4 DUP5 DUP3 DUP6 ADD PUSH3 0x3F5 JUMP JUMPDEST PUSH1 0x0 DUP4 ADD MSTORE POP PUSH1 0x20 PUSH3 0x7CA DUP5 DUP3 DUP6 ADD PUSH3 0x390 JUMP JUMPDEST PUSH1 0x20 DUP4 ADD MSTORE POP PUSH1 0x40 PUSH3 0x7E0 DUP5 DUP3 DUP6 ADD PUSH3 0x390 JUMP JUMPDEST PUSH1 0x40 DUP4 ADD MSTORE POP PUSH1 0x60 PUSH3 0x7F6 DUP5 DUP3 DUP6 ADD PUSH3 0x4D9 JUMP JUMPDEST PUSH1 0x60 DUP4 ADD MSTORE POP PUSH1 0x80 PUSH3 0x80C DUP5 DUP3 DUP6 ADD PUSH3 0x3F5 JUMP JUMPDEST PUSH1 0x80 DUP4 ADD MSTORE POP PUSH1 0xA0 PUSH3 0x822 DUP5 DUP3 DUP6 ADD PUSH3 0x3F5 JUMP JUMPDEST PUSH1 0xA0 DUP4 ADD MSTORE POP PUSH1 0xC0 PUSH3 0x838 DUP5 DUP3 DUP6 ADD PUSH3 0x390 JUMP JUMPDEST PUSH1 0xC0 DUP4 ADD MSTORE POP PUSH1 0xE0 PUSH3 0x84E DUP5 DUP3 DUP6 ADD PUSH3 0x390 JUMP JUMPDEST PUSH1 0xE0 DUP4 ADD MSTORE POP PUSH2 0x100 PUSH3 0x865 DUP5 DUP3 DUP6 ADD PUSH3 0x501 JUMP JUMPDEST PUSH2 0x100 DUP4 ADD MSTORE POP PUSH2 0x120 PUSH3 0x87D DUP5 DUP3 DUP6 ADD PUSH3 0x390 JUMP JUMPDEST PUSH2 0x120 DUP4 ADD MSTORE POP PUSH2 0x140 PUSH3 0x895 DUP5 DUP3 DUP6 ADD PUSH3 0x390 JUMP JUMPDEST PUSH2 0x140 DUP4 ADD MSTORE POP PUSH2 0x160 PUSH3 0x8AD DUP5 DUP3 DUP6 ADD PUSH3 0x53C JUMP JUMPDEST PUSH2 0x160 DUP4 ADD MSTORE POP PUSH2 0x180 PUSH3 0x8C5 DUP5 DUP3 DUP6 ADD PUSH3 0x390 JUMP JUMPDEST PUSH2 0x180 DUP4 ADD MSTORE POP PUSH2 0x1A0 PUSH3 0x8DD DUP5 DUP3 DUP6 ADD PUSH3 0x53C JUMP JUMPDEST PUSH2 0x1A0 DUP4 ADD MSTORE POP PUSH2 0x1C0 PUSH3 0x8F5 DUP5 DUP3 DUP6 ADD PUSH3 0x53C JUMP JUMPDEST PUSH2 0x1C0 DUP4 ADD MSTORE POP PUSH2 0x1E0 PUSH3 0x90D DUP5 DUP3 DUP6 ADD PUSH3 0x390 JUMP JUMPDEST PUSH2 0x1E0 DUP4 ADD MSTORE POP PUSH2 0x200 DUP3 ADD MLOAD PUSH8 0xFFFFFFFFFFFFFFFF DUP2 GT ISZERO PUSH3 0x936 JUMPI PUSH3 0x935 PUSH3 0x4A6 JUMP JUMPDEST JUMPDEST PUSH3 0x944 DUP5 DUP3 DUP6 ADD PUSH3 0x659 JUMP JUMPDEST PUSH2 0x200 DUP4 ADD MSTORE POP PUSH2 0x220 DUP3 ADD MLOAD PUSH8 0xFFFFFFFFFFFFFFFF DUP2 GT ISZERO PUSH3 0x96D JUMPI PUSH3 0x96C PUSH3 0x4A6 JUMP JUMPDEST JUMPDEST PUSH3 0x97B DUP5 DUP3 DUP6 ADD PUSH3 0x748 JUMP JUMPDEST PUSH2 0x220 DUP4 ADD MSTORE POP SWAP3 SWAP2 POP POP JUMP JUMPDEST PUSH1 0x0 DUP1 PUSH1 0x0 PUSH1 0x60 DUP5 DUP7 SUB SLT ISZERO PUSH3 0x9A4 JUMPI PUSH3 0x9A3 PUSH3 0x362 JUMP JUMPDEST JUMPDEST PUSH1 0x0 PUSH3 0x9B4 DUP7 DUP3 DUP8 ADD PUSH3 0x390 JUMP JUMPDEST SWAP4 POP POP PUSH1 0x20 PUSH3 0x9C7 DUP7 DUP3 DUP8 ADD PUSH3 0x3F5 JUMP JUMPDEST SWAP3 POP POP PUSH1 0x40 DUP5 ADD MLOAD PUSH8 0xFFFFFFFFFFFFFFFF DUP2 GT ISZERO PUSH3 0x9EB JUMPI PUSH3 0x9EA PUSH3 0x367 JUMP JUMPDEST JUMPDEST PUSH3 0x9F9 DUP7 DUP3 DUP8 ADD PUSH3 0x77B JUMP JUMPDEST SWAP2 POP POP SWAP3 POP SWAP3 POP SWAP3 JUMP JUMPDEST PUSH3 0xA0E DUP2 PUSH3 0x3C7 JUMP JUMPDEST DUP3 MSTORE POP POP JUMP JUMPDEST PUSH3 0xA1F DUP2 PUSH3 0x36C JUMP JUMPDEST DUP3 MSTORE POP POP JUMP JUMPDEST PUSH3 0xA30 DUP2 PUSH3 0x4AB JUMP JUMPDEST DUP3 MSTORE POP POP JUMP JUMPDEST PUSH32 0x4E487B7100000000000000000000000000000000000000000000000000000000 PUSH1 0x0 MSTORE PUSH1 0x21 PUSH1 0x4 MSTORE PUSH1 0x24 PUSH1 0x0 REVERT JUMPDEST PUSH1 0x18 DUP2 LT PUSH3 0xA79 JUMPI PUSH3 0xA78 PUSH3 0xA36 JUMP JUMPDEST JUMPDEST POP JUMP JUMPDEST PUSH1 0x0 DUP2 SWAP1 POP PUSH3 0xA8C DUP3 PUSH3 0xA65 JUMP JUMPDEST SWAP2 SWAP1 POP JUMP JUMPDEST PUSH1 0x0 PUSH3 0xA9E DUP3 PUSH3 0xA7C JUMP JUMPDEST SWAP1 POP SWAP2 SWAP1 POP JUMP JUMPDEST PUSH3 0xAB0 DUP2 PUSH3 0xA91 JUMP JUMPDEST DUP3 MSTORE POP POP JUMP JUMPDEST PUSH3 0xAC1 DUP2 PUSH3 0x518 JUMP JUMPDEST DUP3 MSTORE POP POP JUMP JUMPDEST PUSH1 0x0 DUP2 MLOAD SWAP1 POP SWAP2 SWAP1 POP JUMP JUMPDEST PUSH1 0x0 DUP3 DUP3 MSTORE PUSH1 0x20 DUP3 ADD SWAP1 POP SWAP3 SWAP2 POP POP JUMP JUMPDEST PUSH1 0x0 DUP2 SWAP1 POP PUSH1 0x20 DUP3 ADD SWAP1 POP SWAP2 SWAP1 POP JUMP JUMPDEST PUSH1 0x40 DUP3 ADD PUSH1 0x0 DUP3 ADD MLOAD PUSH3 0xB0B PUSH1 0x0 DUP6 ADD DUP3 PUSH3 0xA14 JUMP JUMPDEST POP PUSH1 0x20 DUP3 ADD MLOAD PUSH3 0xB20 PUSH1 0x20 DUP6 ADD DUP3 PUSH3 0xA25 JUMP JUMPDEST POP POP POP POP JUMP JUMPDEST PUSH1 0x0 PUSH3 0xB34 DUP4 DUP4 PUSH3 0xAF3 JUMP JUMPDEST PUSH1 0x40 DUP4 ADD SWAP1 POP SWAP3 SWAP2 POP POP JUMP JUMPDEST PUSH1 0x0 PUSH1 0x20 DUP3 ADD SWAP1 POP SWAP2 SWAP1 POP JUMP JUMPDEST PUSH1 0x0 PUSH3 0xB5A DUP3 PUSH3 0xAC7 JUMP JUMPDEST PUSH3 0xB66 DUP2 DUP6 PUSH3 0xAD2 JUMP JUMPDEST SWAP4 POP PUSH3 0xB73 DUP4 PUSH3 0xAE3 JUMP JUMPDEST DUP1 PUSH1 0x0 JUMPDEST DUP4 DUP2 LT ISZERO PUSH3 0xBAA JUMPI DUP2 MLOAD PUSH3 0xB8E DUP9 DUP3 PUSH3 0xB26 JUMP JUMPDEST SWAP8 POP PUSH3 0xB9B DUP4 PUSH3 0xB40 JUMP JUMPDEST SWAP3 POP POP PUSH1 0x1 DUP2 ADD SWAP1 POP PUSH3 0xB77 JUMP JUMPDEST POP DUP6 SWAP4 POP POP POP POP SWAP3 SWAP2 POP POP JUMP JUMPDEST PUSH1 0x0 DUP2 MLOAD SWAP1 POP SWAP2 SWAP1 POP JUMP JUMPDEST PUSH1 0x0 DUP3 DUP3 MSTORE PUSH1 0x20 DUP3 ADD SWAP1 POP SWAP3 SWAP2 POP POP JUMP JUMPDEST PUSH1 0x0 PUSH3 0xBE0 DUP3 PUSH3 0xBB7 JUMP JUMPDEST PUSH3 0xBEC DUP2 DUP6 PUSH3 0xBC2 JUMP JUMPDEST SWAP4 POP PUSH3 0xBFE DUP2 DUP6 PUSH1 0x20 DUP7 ADD PUSH3 0x6C7 JUMP JUMPDEST PUSH3 0xC09 DUP2 PUSH3 0x411 JUMP JUMPDEST DUP5 ADD SWAP2 POP POP SWAP3 SWAP2 POP POP JUMP JUMPDEST PUSH1 0x0 PUSH2 0x240 DUP4 ADD PUSH1 0x0 DUP4 ADD MLOAD PUSH3 0xC2F PUSH1 0x0 DUP7 ADD DUP3 PUSH3 0xA03 JUMP JUMPDEST POP PUSH1 0x20 DUP4 ADD MLOAD PUSH3 0xC44 PUSH1 0x20 DUP7 ADD DUP3 PUSH3 0xA14 JUMP JUMPDEST POP PUSH1 0x40 DUP4 ADD MLOAD PUSH3 0xC59 PUSH1 0x40 DUP7 ADD DUP3 PUSH3 0xA14 JUMP JUMPDEST POP PUSH1 0x60 DUP4 ADD MLOAD PUSH3 0xC6E PUSH1 0x60 DUP7 ADD DUP3 PUSH3 0xA25 JUMP JUMPDEST POP PUSH1 0x80 DUP4 ADD MLOAD PUSH3 0xC83 PUSH1 0x80 DUP7 ADD DUP3 PUSH3 0xA03 JUMP JUMPDEST POP PUSH1 0xA0 DUP4 ADD MLOAD PUSH3 0xC98 PUSH1 0xA0 DUP7 ADD DUP3 PUSH3 0xA03 JUMP JUMPDEST POP PUSH1 0xC0 DUP4 ADD MLOAD PUSH3 0xCAD PUSH1 0xC0 DUP7 ADD DUP3 PUSH3 0xA14 JUMP JUMPDEST POP PUSH1 0xE0 DUP4 ADD MLOAD PUSH3 0xCC2 PUSH1 0xE0 DUP7 ADD DUP3 PUSH3 0xA14 JUMP JUMPDEST POP PUSH2 0x100 DUP4 ADD MLOAD PUSH3 0xCD9 PUSH2 0x100 DUP7 ADD DUP3 PUSH3 0xAA5 JUMP JUMPDEST POP PUSH2 0x120 DUP4 ADD MLOAD PUSH3 0xCF0 PUSH2 0x120 DUP7 ADD DUP3 PUSH3 0xA14 JUMP JUMPDEST POP PUSH2 0x140 DUP4 ADD MLOAD PUSH3 0xD07 PUSH2 0x140 DUP7 ADD DUP3 PUSH3 0xA14 JUMP JUMPDEST POP PUSH2 0x160 DUP4 ADD MLOAD PUSH3 0xD1E PUSH2 0x160 DUP7 ADD DUP3 PUSH3 0xAB6 JUMP JUMPDEST POP PUSH2 0x180 DUP4 ADD MLOAD PUSH3 0xD35 PUSH2 0x180 DUP7 ADD DUP3 PUSH3 0xA14 JUMP JUMPDEST POP PUSH2 0x1A0 DUP4 ADD MLOAD PUSH3 0xD4C PUSH2 0x1A0 DUP7 ADD DUP3 PUSH3 0xAB6 JUMP JUMPDEST POP PUSH2 0x1C0 DUP4 ADD MLOAD PUSH3 0xD63 PUSH2 0x1C0 DUP7 ADD DUP3 PUSH3 0xAB6 JUMP JUMPDEST POP PUSH2 0x1E0 DUP4 ADD MLOAD PUSH3 0xD7A PUSH2 0x1E0 DUP7 ADD DUP3 PUSH3 0xA14 JUMP JUMPDEST POP PUSH2 0x200 DUP4 ADD MLOAD DUP5 DUP3 SUB PUSH2 0x200 DUP7 ADD MSTORE PUSH3 0xD96 DUP3 DUP3 PUSH3 0xB4D JUMP JUMPDEST SWAP2 POP POP PUSH2 0x220 DUP4 ADD MLOAD DUP5 DUP3 SUB PUSH2 0x220 DUP7 ADD MSTORE PUSH3 0xDB4 DUP3 DUP3 PUSH3 0xBD3 JUMP JUMPDEST SWAP2 POP POP DUP1 SWAP2 POP POP SWAP3 SWAP2 POP POP JUMP JUMPDEST PUSH1 0x0 PUSH1 0x20 DUP3 ADD SWAP1 POP DUP2 DUP2 SUB PUSH1 0x0 DUP4 ADD MSTORE PUSH3 0xDDD DUP2 DUP5 PUSH3 0xC14 JUMP JUMPDEST SWAP1 POP SWAP3 SWAP2 POP POP JUMP JUMPDEST PUSH32 0x4E487B7100000000000000000000000000000000000000000000000000000000 PUSH1 0x0 MSTORE PUSH1 0x22 PUSH1 0x4 MSTORE PUSH1 0x24 PUSH1 0x0 REVERT JUMPDEST PUSH1 0x0 PUSH1 0x2 DUP3 DIV SWAP1 POP PUSH1 0x1 DUP3 AND DUP1 PUSH3 0xE2D JUMPI PUSH1 0x7F DUP3 AND SWAP2 POP JUMPDEST PUSH1 0x20 DUP3 LT DUP2 EQ ISZERO PUSH3 0xE44 JUMPI PUSH3 0xE43 PUSH3 0xDE5 JUMP JUMPDEST JUMPDEST POP SWAP2 SWAP1 POP JUMP JUMPDEST PUSH2 0x208C DUP1 PUSH3 0xE5A PUSH1 0x0 CODECOPY PUSH1 0x0 RETURN INVALID PUSH1 0x80 PUSH1 0x40 MSTORE PUSH1 0x4 CALLDATASIZE LT PUSH2 0xF7 JUMPI PUSH1 0x0 CALLDATALOAD PUSH1 0xE0 SHR DUP1 PUSH4 0x5ECBDCE9 GT PUSH2 0x8A JUMPI DUP1 PUSH4 0xA217FDDF GT PUSH2 0x59 JUMPI DUP1 PUSH4 0xA217FDDF EQ PUSH2 0x314 JUMPI DUP1 PUSH4 0xA5587088 EQ PUSH2 0x33F JUMPI DUP1 PUSH4 0xD547741F EQ PUSH2 0x36A JUMPI DUP1 PUSH4 0xDD0B7FFE EQ PUSH2 0x393 JUMPI PUSH2 0xFE JUMP JUMPDEST DUP1 PUSH4 0x5ECBDCE9 EQ PUSH2 0x272 JUMPI DUP1 PUSH4 0x6E353A1D EQ PUSH2 0x29D JUMPI DUP1 PUSH4 0x91D14854 EQ PUSH2 0x2B9 JUMPI DUP1 PUSH4 0x9C3962F0 EQ PUSH2 0x2F6 JUMPI PUSH2 0xFE JUMP JUMPDEST DUP1 PUSH4 0x30568A8D GT PUSH2 0xC6 JUMPI DUP1 PUSH4 0x30568A8D EQ PUSH2 0x1CE JUMPI DUP1 PUSH4 0x36568ABE EQ PUSH2 0x1F7 JUMPI DUP1 PUSH4 0x397A8BAB EQ PUSH2 0x220 JUMPI DUP1 PUSH4 0x539A2C6D EQ PUSH2 0x249 JUMPI PUSH2 0xFE JUMP JUMPDEST DUP1 PUSH4 0x1FFC9A7 EQ PUSH2 0x100 JUMPI DUP1 PUSH4 0x248A9CA3 EQ PUSH2 0x13D JUMPI DUP1 PUSH4 0x2E25D2A6 EQ PUSH2 0x17A JUMPI DUP1 PUSH4 0x2F2FF15D EQ PUSH2 0x1A5 JUMPI PUSH2 0xFE JUMP JUMPDEST CALLDATASIZE PUSH2 0xFE JUMPI STOP JUMPDEST STOP JUMPDEST CALLVALUE DUP1 ISZERO PUSH2 0x10C JUMPI PUSH1 0x0 DUP1 REVERT JUMPDEST POP PUSH2 0x127 PUSH1 0x4 DUP1 CALLDATASIZE SUB DUP2 ADD SWAP1 PUSH2 0x122 SWAP2 SWAP1 PUSH2 0xF1C JUMP JUMPDEST PUSH2 0x3BC JUMP JUMPDEST PUSH1 0x40 MLOAD PUSH2 0x134 SWAP2 SWAP1 PUSH2 0xF64 JUMP JUMPDEST PUSH1 0x40 MLOAD DUP1 SWAP2 SUB SWAP1 RETURN JUMPDEST CALLVALUE DUP1 ISZERO PUSH2 0x149 JUMPI PUSH1 0x0 DUP1 REVERT JUMPDEST POP PUSH2 0x164 PUSH1 0x4 DUP1 CALLDATASIZE SUB DUP2 ADD SWAP1 PUSH2 0x15F SWAP2 SWAP1 PUSH2 0xFB5 JUMP JUMPDEST PUSH2 0x436 JUMP JUMPDEST PUSH1 0x40 MLOAD PUSH2 0x171 SWAP2 SWAP1 PUSH2 0xFF1 JUMP JUMPDEST PUSH1 0x40 MLOAD DUP1 SWAP2 SUB SWAP1 RETURN JUMPDEST CALLVALUE DUP1 ISZERO PUSH2 0x186 JUMPI PUSH1 0x0 DUP1 REVERT JUMPDEST POP PUSH2 0x18F PUSH2 0x455 JUMP JUMPDEST PUSH1 0x40 MLOAD PUSH2 0x19C SWAP2 SWAP1 PUSH2 0x104D JUMP JUMPDEST PUSH1 0x40 MLOAD DUP1 SWAP2 SUB SWAP1 RETURN JUMPDEST CALLVALUE DUP1 ISZERO PUSH2 0x1B1 JUMPI PUSH1 0x0 DUP1 REVERT JUMPDEST POP PUSH2 0x1CC PUSH1 0x4 DUP1 CALLDATASIZE SUB DUP2 ADD SWAP1 PUSH2 0x1C7 SWAP2 SWAP1 PUSH2 0x1094 JUMP JUMPDEST PUSH2 0x47B JUMP JUMPDEST STOP JUMPDEST CALLVALUE DUP1 ISZERO PUSH2 0x1DA JUMPI PUSH1 0x0 DUP1 REVERT JUMPDEST POP PUSH2 0x1F5 PUSH1 0x4 DUP1 CALLDATASIZE SUB DUP2 ADD SWAP1 PUSH2 0x1F0 SWAP2 SWAP1 PUSH2 0x10D4 JUMP JUMPDEST PUSH2 0x49C JUMP JUMPDEST STOP JUMPDEST CALLVALUE DUP1 ISZERO PUSH2 0x203 JUMPI PUSH1 0x0 DUP1 REVERT JUMPDEST POP PUSH2 0x21E PUSH1 0x4 DUP1 CALLDATASIZE SUB DUP2 ADD SWAP1 PUSH2 0x219 SWAP2 SWAP1 PUSH2 0x1094 JUMP JUMPDEST PUSH2 0x4EE JUMP JUMPDEST STOP JUMPDEST CALLVALUE DUP1 ISZERO PUSH2 0x22C JUMPI PUSH1 0x0 DUP1 REVERT JUMPDEST POP PUSH2 0x247 PUSH1 0x4 DUP1 CALLDATASIZE SUB DUP2 ADD SWAP1 PUSH2 0x242 SWAP2 SWAP1 PUSH2 0x10D4 JUMP JUMPDEST PUSH2 0x571 JUMP JUMPDEST STOP JUMPDEST CALLVALUE DUP1 ISZERO PUSH2 0x255 JUMPI PUSH1 0x0 DUP1 REVERT JUMPDEST POP PUSH2 0x270 PUSH1 0x4 DUP1 CALLDATASIZE SUB DUP2 ADD SWAP1 PUSH2 0x26B SWAP2 SWAP1 PUSH2 0x15E0 JUMP JUMPDEST PUSH2 0x58F JUMP JUMPDEST STOP JUMPDEST CALLVALUE DUP1 ISZERO PUSH2 0x27E JUMPI PUSH1 0x0 DUP1 REVERT JUMPDEST POP PUSH2 0x287 PUSH2 0x644 JUMP JUMPDEST PUSH1 0x40 MLOAD PUSH2 0x294 SWAP2 SWAP1 PUSH2 0x1638 JUMP JUMPDEST PUSH1 0x40 MLOAD DUP1 SWAP2 SUB SWAP1 RETURN JUMPDEST PUSH2 0x2B7 PUSH1 0x4 DUP1 CALLDATASIZE SUB DUP2 ADD SWAP1 PUSH2 0x2B2 SWAP2 SWAP1 PUSH2 0x1653 JUMP JUMPDEST PUSH2 0x64A JUMP JUMPDEST STOP JUMPDEST CALLVALUE DUP1 ISZERO PUSH2 0x2C5 JUMPI PUSH1 0x0 DUP1 REVERT JUMPDEST POP PUSH2 0x2E0 PUSH1 0x4 DUP1 CALLDATASIZE SUB DUP2 ADD SWAP1 PUSH2 0x2DB SWAP2 SWAP1 PUSH2 0x1094 JUMP JUMPDEST PUSH2 0x708 JUMP JUMPDEST PUSH1 0x40 MLOAD PUSH2 0x2ED SWAP2 SWAP1 PUSH2 0xF64 JUMP JUMPDEST PUSH1 0x40 MLOAD DUP1 SWAP2 SUB SWAP1 RETURN JUMPDEST PUSH2 0x2FE PUSH2 0x772 JUMP JUMPDEST PUSH1 0x40 MLOAD PUSH2 0x30B SWAP2 SWAP1 PUSH2 0xF64 JUMP JUMPDEST PUSH1 0x40 MLOAD DUP1 SWAP2 SUB SWAP1 RETURN JUMPDEST CALLVALUE DUP1 ISZERO PUSH2 0x320 JUMPI PUSH1 0x0 DUP1 REVERT JUMPDEST POP PUSH2 0x329 PUSH2 0x8A3 JUMP JUMPDEST PUSH1 0x40 MLOAD PUSH2 0x336 SWAP2 SWAP1 PUSH2 0xFF1 JUMP JUMPDEST PUSH1 0x40 MLOAD DUP1 SWAP2 SUB SWAP1 RETURN JUMPDEST CALLVALUE DUP1 ISZERO PUSH2 0x34B JUMPI PUSH1 0x0 DUP1 REVERT JUMPDEST POP PUSH2 0x354 PUSH2 0x8AA JUMP JUMPDEST PUSH1 0x40 MLOAD PUSH2 0x361 SWAP2 SWAP1 PUSH2 0x1638 JUMP JUMPDEST PUSH1 0x40 MLOAD DUP1 SWAP2 SUB SWAP1 RETURN JUMPDEST CALLVALUE DUP1 ISZERO PUSH2 0x376 JUMPI PUSH1 0x0 DUP1 REVERT JUMPDEST POP PUSH2 0x391 PUSH1 0x4 DUP1 CALLDATASIZE SUB DUP2 ADD SWAP1 PUSH2 0x38C SWAP2 SWAP1 PUSH2 0x1094 JUMP JUMPDEST PUSH2 0x8B4 JUMP JUMPDEST STOP JUMPDEST CALLVALUE DUP1 ISZERO PUSH2 0x39F JUMPI PUSH1 0x0 DUP1 REVERT JUMPDEST POP PUSH2 0x3BA PUSH1 0x4 DUP1 CALLDATASIZE SUB DUP2 ADD SWAP1 PUSH2 0x3B5 SWAP2 SWAP1 PUSH2 0x1680 JUMP JUMPDEST PUSH2 0x8D5 JUMP JUMPDEST STOP JUMPDEST PUSH1 0x0 PUSH32 0x7965DB0B00000000000000000000000000000000000000000000000000000000 PUSH28 0xFFFFFFFFFFFFFFFFFFFFFFFFFFFFFFFFFFFFFFFFFFFFFFFFFFFFFFFF NOT AND DUP3 PUSH28 0xFFFFFFFFFFFFFFFFFFFFFFFFFFFFFFFFFFFFFFFFFFFFFFFFFFFFFFFF NOT AND EQ DUP1 PUSH2 0x42F JUMPI POP PUSH2 0x42E DUP3 PUSH2 0x8ED JUMP JUMPDEST JUMPDEST SWAP1 POP SWAP2 SWAP1 POP JUMP JUMPDEST PUSH1 0x0 DUP1 PUSH1 0x0 DUP4 DUP2 MSTORE PUSH1 0x20 ADD SWAP1 DUP2 MSTORE PUSH1 0x20 ADD PUSH1 0x0 KECCAK256 PUSH1 0x1 ADD SLOAD SWAP1 POP SWAP2 SWAP1 POP JUMP JUMPDEST PUSH1 0x2 PUSH1 0x0 SWAP1 SLOAD SWAP1 PUSH2 0x100 EXP SWAP1 DIV PUSH20 0xFFFFFFFFFFFFFFFFFFFFFFFFFFFFFFFFFFFFFFFF AND DUP2 JUMP JUMPDEST PUSH2 0x484 DUP3 PUSH2 0x436 JUMP JUMPDEST PUSH2 0x48D DUP2 PUSH2 0x957 JUMP JUMPDEST PUSH2 0x497 DUP4 DUP4 PUSH2 0x96B JUMP JUMPDEST POP POP POP JUMP JUMPDEST PUSH1 0x0 DUP1 SHL PUSH2 0x4A9 DUP2 PUSH2 0x957 JUMP JUMPDEST DUP2 PUSH1 0x2 PUSH1 0x0 PUSH2 0x100 EXP DUP2 SLOAD DUP2 PUSH20 0xFFFFFFFFFFFFFFFFFFFFFFFFFFFFFFFFFFFFFFFF MUL NOT AND SWAP1 DUP4 PUSH20 0xFFFFFFFFFFFFFFFFFFFFFFFFFFFFFFFFFFFFFFFF AND MUL OR SWAP1 SSTORE POP POP POP JUMP JUMPDEST PUSH2 0x4F6 PUSH2 0xA4B JUMP JUMPDEST PUSH20 0xFFFFFFFFFFFFFFFFFFFFFFFFFFFFFFFFFFFFFFFF AND DUP2 PUSH20 0xFFFFFFFFFFFFFFFFFFFFFFFFFFFFFFFFFFFFFFFF AND EQ PUSH2 0x563 JUMPI PUSH1 0x40 MLOAD PUSH32 0x8C379A000000000000000000000000000000000000000000000000000000000 DUP2 MSTORE PUSH1 0x4 ADD PUSH2 0x55A SWAP1 PUSH2 0x1730 JUMP JUMPDEST PUSH1 0x40 MLOAD DUP1 SWAP2 SUB SWAP1 REVERT JUMPDEST PUSH2 0x56D DUP3 DUP3 PUSH2 0xA53 JUMP JUMPDEST POP POP JUMP JUMPDEST PUSH1 0x0 DUP1 SHL PUSH2 0x57E DUP2 PUSH2 0x957 JUMP JUMPDEST PUSH2 0x58B PUSH1 0x0 DUP1 SHL DUP4 PUSH2 0x96B JUMP JUMPDEST POP POP JUMP JUMPDEST PUSH1 0x0 DUP1 SHL PUSH2 0x59C DUP2 PUSH2 0x957 JUMP JUMPDEST DUP2 PUSH1 0x40 MLOAD PUSH1 0x24 ADD PUSH2 0x5AD SWAP2 SWAP1 PUSH2 0x1AF2 JUMP JUMPDEST PUSH1 0x40 MLOAD PUSH1 0x20 DUP2 DUP4 SUB SUB DUP2 MSTORE SWAP1 PUSH1 0x40 MSTORE PUSH32 0xC105F05100000000000000000000000000000000000000000000000000000000 PUSH28 0xFFFFFFFFFFFFFFFFFFFFFFFFFFFFFFFFFFFFFFFFFFFFFFFFFFFFFFFF NOT AND PUSH1 0x20 DUP3 ADD DUP1 MLOAD PUSH28 0xFFFFFFFFFFFFFFFFFFFFFFFFFFFFFFFFFFFFFFFFFFFFFFFFFFFFFFFF DUP4 DUP2 DUP4 AND OR DUP4 MSTORE POP POP POP POP PUSH1 0x3 SWAP1 DUP1 MLOAD SWAP1 PUSH1 0x20 ADD SWAP1 PUSH2 0x63F SWAP3 SWAP2 SWAP1 PUSH2 0xE0D JUMP JUMPDEST POP POP POP JUMP JUMPDEST PUSH1 0x1 SLOAD DUP2 JUMP JUMPDEST PUSH1 0x0 DUP1 SHL PUSH2 0x657 DUP2 PUSH2 0x957 JUMP JUMPDEST PUSH1 0x0 DUP3 PUSH20 0xFFFFFFFFFFFFFFFFFFFFFFFFFFFFFFFFFFFFFFFF AND SELFBALANCE PUSH1 0x40 MLOAD PUSH2 0x67D SWAP1 PUSH2 0x1B45 JUMP JUMPDEST PUSH1 0x0 PUSH1 0x40 MLOAD DUP1 DUP4 SUB DUP2 DUP6 DUP8 GAS CALL SWAP3 POP POP POP RETURNDATASIZE DUP1 PUSH1 0x0 DUP2 EQ PUSH2 0x6BA JUMPI PUSH1 0x40 MLOAD SWAP2 POP PUSH1 0x1F NOT PUSH1 0x3F RETURNDATASIZE ADD AND DUP3 ADD PUSH1 0x40 MSTORE RETURNDATASIZE DUP3 MSTORE RETURNDATASIZE PUSH1 0x0 PUSH1 0x20 DUP5 ADD RETURNDATACOPY PUSH2 0x6BF JUMP JUMPDEST PUSH1 0x60 SWAP2 POP JUMPDEST POP POP SWAP1 POP DUP1 PUSH2 0x703 JUMPI PUSH1 0x40 MLOAD PUSH32 0x8C379A000000000000000000000000000000000000000000000000000000000 DUP2 MSTORE PUSH1 0x4 ADD PUSH2 0x6FA SWAP1 PUSH2 0x1BA6 JUMP JUMPDEST PUSH1 0x40 MLOAD DUP1 SWAP2 SUB SWAP1 REVERT JUMPDEST POP POP POP JUMP JUMPDEST PUSH1 0x0 DUP1 PUSH1 0x0 DUP5 DUP2 MSTORE PUSH1 0x20 ADD SWAP1 DUP2 MSTORE PUSH1 0x20 ADD PUSH1 0x0 KECCAK256 PUSH1 0x0 ADD PUSH1 0x0 DUP4 PUSH20 0xFFFFFFFFFFFFFFFFFFFFFFFFFFFFFFFFFFFFFFFF AND PUSH20 0xFFFFFFFFFFFFFFFFFFFFFFFFFFFFFFFFFFFFFFFF AND DUP2 MSTORE PUSH1 0x20 ADD SWAP1 DUP2 MSTORE PUSH1 0x20 ADD PUSH1 0x0 KECCAK256 PUSH1 0x0 SWAP1 SLOAD SWAP1 PUSH2 0x100 EXP SWAP1 DIV PUSH1 0xFF AND SWAP1 POP SWAP3 SWAP2 POP POP JUMP JUMPDEST PUSH1 0x0 DUP1 PUSH1 0x0 SHL PUSH2 0x781 DUP2 PUSH2 0x957 JUMP JUMPDEST PUSH1 0x1 SLOAD SELFBALANCE EQ PUSH2 0x78F JUMPI PUSH1 0x0 DUP1 REVERT JUMPDEST PUSH1 0x0 PUSH1 0x2 PUSH1 0x0 SWAP1 SLOAD SWAP1 PUSH2 0x100 EXP SWAP1 DIV PUSH20 0xFFFFFFFFFFFFFFFFFFFFFFFFFFFFFFFFFFFFFFFF AND PUSH20 0xFFFFFFFFFFFFFFFFFFFFFFFFFFFFFFFFFFFFFFFF AND PUSH1 0x1 SLOAD PUSH1 0x3 PUSH1 0x40 MLOAD PUSH2 0x7DC SWAP2 SWAP1 PUSH2 0x1CBB JUMP JUMPDEST PUSH1 0x0 PUSH1 0x40 MLOAD DUP1 DUP4 SUB DUP2 DUP6 DUP8 GAS CALL SWAP3 POP POP POP RETURNDATASIZE DUP1 PUSH1 0x0 DUP2 EQ PUSH2 0x819 JUMPI PUSH1 0x40 MLOAD SWAP2 POP PUSH1 0x1F NOT PUSH1 0x3F RETURNDATASIZE ADD AND DUP3 ADD PUSH1 0x40 MSTORE RETURNDATASIZE DUP3 MSTORE RETURNDATASIZE PUSH1 0x0 PUSH1 0x20 DUP5 ADD RETURNDATACOPY PUSH2 0x81E JUMP JUMPDEST PUSH1 0x60 SWAP2 POP JUMPDEST POP POP SWAP1 POP DUP1 PUSH2 0x862 JUMPI PUSH1 0x40 MLOAD PUSH32 0x8C379A000000000000000000000000000000000000000000000000000000000 DUP2 MSTORE PUSH1 0x4 ADD PUSH2 0x859 SWAP1 PUSH2 0x1D1E JUMP JUMPDEST PUSH1 0x40 MLOAD DUP1 SWAP2 SUB SWAP1 REVERT JUMPDEST PUSH32 0x83E31F5E5651D64B527802681A291E708D9FE310288785B1B816AA293D9B8FC6 PUSH1 0x1 PUSH1 0x40 MLOAD PUSH2 0x892 SWAP2 SWAP1 PUSH2 0xF64 JUMP JUMPDEST PUSH1 0x40 MLOAD DUP1 SWAP2 SUB SWAP1 LOG1 PUSH1 0x1 SWAP3 POP POP POP SWAP1 JUMP JUMPDEST PUSH1 0x0 DUP1 SHL DUP2 JUMP JUMPDEST PUSH1 0x0 PUSH1 0x1 SLOAD SWAP1 POP SWAP1 JUMP JUMPDEST PUSH2 0x8BD DUP3 PUSH2 0x436 JUMP JUMPDEST PUSH2 0x8C6 DUP2 PUSH2 0x957 JUMP JUMPDEST PUSH2 0x8D0 DUP4 DUP4 PUSH2 0xA53 JUMP JUMPDEST POP POP POP JUMP JUMPDEST PUSH1 0x0 DUP1 SHL PUSH2 0x8E2 DUP2 PUSH2 0x957 JUMP JUMPDEST DUP2 PUSH1 0x1 DUP2 SWAP1 SSTORE POP POP POP JUMP JUMPDEST PUSH1 0x0 PUSH32 0x1FFC9A700000000000000000000000000000000000000000000000000000000 PUSH28 0xFFFFFFFFFFFFFFFFFFFFFFFFFFFFFFFFFFFFFFFFFFFFFFFFFFFFFFFF NOT AND DUP3 PUSH28 0xFFFFFFFFFFFFFFFFFFFFFFFFFFFFFFFFFFFFFFFFFFFFFFFFFFFFFFFF NOT AND EQ SWAP1 POP SWAP2 SWAP1 POP JUMP JUMPDEST PUSH2 0x968 DUP2 PUSH2 0x963 PUSH2 0xA4B JUMP JUMPDEST PUSH2 0xB34 JUMP JUMPDEST POP JUMP JUMPDEST PUSH2 0x975 DUP3 DUP3 PUSH2 0x708 JUMP JUMPDEST PUSH2 0xA47 JUMPI PUSH1 0x1 PUSH1 0x0 DUP1 DUP5 DUP2 MSTORE PUSH1 0x20 ADD SWAP1 DUP2 MSTORE PUSH1 0x20 ADD PUSH1 0x0 KECCAK256 PUSH1 0x0 ADD PUSH1 0x0 DUP4 PUSH20 0xFFFFFFFFFFFFFFFFFFFFFFFFFFFFFFFFFFFFFFFF AND PUSH20 0xFFFFFFFFFFFFFFFFFFFFFFFFFFFFFFFFFFFFFFFF AND DUP2 MSTORE PUSH1 0x20 ADD SWAP1 DUP2 MSTORE PUSH1 0x20 ADD PUSH1 0x0 KECCAK256 PUSH1 0x0 PUSH2 0x100 EXP DUP2 SLOAD DUP2 PUSH1 0xFF MUL NOT AND SWAP1 DUP4 ISZERO ISZERO MUL OR SWAP1 SSTORE POP PUSH2 0x9EC PUSH2 0xA4B JUMP JUMPDEST PUSH20 0xFFFFFFFFFFFFFFFFFFFFFFFFFFFFFFFFFFFFFFFF AND DUP2 PUSH20 0xFFFFFFFFFFFFFFFFFFFFFFFFFFFFFFFFFFFFFFFF AND DUP4 PUSH32 0x2F8788117E7EFF1D82E926EC794901D17C78024A50270940304540A733656F0D PUSH1 0x40 MLOAD PUSH1 0x40 MLOAD DUP1 SWAP2 SUB SWAP1 LOG4 JUMPDEST POP POP JUMP JUMPDEST PUSH1 0x0 CALLER SWAP1 POP SWAP1 JUMP JUMPDEST PUSH2 0xA5D DUP3 DUP3 PUSH2 0x708 JUMP JUMPDEST ISZERO PUSH2 0xB30 JUMPI PUSH1 0x0 DUP1 PUSH1 0x0 DUP5 DUP2 MSTORE PUSH1 0x20 ADD SWAP1 DUP2 MSTORE PUSH1 0x20 ADD PUSH1 0x0 KECCAK256 PUSH1 0x0 ADD PUSH1 0x0 DUP4 PUSH20 0xFFFFFFFFFFFFFFFFFFFFFFFFFFFFFFFFFFFFFFFF AND PUSH20 0xFFFFFFFFFFFFFFFFFFFFFFFFFFFFFFFFFFFFFFFF AND DUP2 MSTORE PUSH1 0x20 ADD SWAP1 DUP2 MSTORE PUSH1 0x20 ADD PUSH1 0x0 KECCAK256 PUSH1 0x0 PUSH2 0x100 EXP DUP2 SLOAD DUP2 PUSH1 0xFF MUL NOT AND SWAP1 DUP4 ISZERO ISZERO MUL OR SWAP1 SSTORE POP PUSH2 0xAD5 PUSH2 0xA4B JUMP JUMPDEST PUSH20 0xFFFFFFFFFFFFFFFFFFFFFFFFFFFFFFFFFFFFFFFF AND DUP2 PUSH20 0xFFFFFFFFFFFFFFFFFFFFFFFFFFFFFFFFFFFFFFFF AND DUP4 PUSH32 0xF6391F5C32D9C69D2A47EA670B442974B53935D1EDC7FD64EB21E047A839171B PUSH1 0x40 MLOAD PUSH1 0x40 MLOAD DUP1 SWAP2 SUB SWAP1 LOG4 JUMPDEST POP POP JUMP JUMPDEST PUSH2 0xB3E DUP3 DUP3 PUSH2 0x708 JUMP JUMPDEST PUSH2 0xBCD JUMPI PUSH2 0xB63 DUP2 PUSH20 0xFFFFFFFFFFFFFFFFFFFFFFFFFFFFFFFFFFFFFFFF AND PUSH1 0x14 PUSH2 0xBD1 JUMP JUMPDEST PUSH2 0xB71 DUP4 PUSH1 0x0 SHR PUSH1 0x20 PUSH2 0xBD1 JUMP JUMPDEST PUSH1 0x40 MLOAD PUSH1 0x20 ADD PUSH2 0xB82 SWAP3 SWAP2 SWAP1 PUSH2 0x1E1D JUMP JUMPDEST PUSH1 0x40 MLOAD PUSH1 0x20 DUP2 DUP4 SUB SUB DUP2 MSTORE SWAP1 PUSH1 0x40 MSTORE PUSH1 0x40 MLOAD PUSH32 0x8C379A000000000000000000000000000000000000000000000000000000000 DUP2 MSTORE PUSH1 0x4 ADD PUSH2 0xBC4 SWAP2 SWAP1 PUSH2 0x1E90 JUMP JUMPDEST PUSH1 0x40 MLOAD DUP1 SWAP2 SUB SWAP1 REVERT JUMPDEST POP POP JUMP JUMPDEST PUSH1 0x60 PUSH1 0x0 PUSH1 0x2 DUP4 PUSH1 0x2 PUSH2 0xBE4 SWAP2 SWAP1 PUSH2 0x1EE1 JUMP JUMPDEST PUSH2 0xBEE SWAP2 SWAP1 PUSH2 0x1F3B JUMP JUMPDEST PUSH8 0xFFFFFFFFFFFFFFFF DUP2 GT ISZERO PUSH2 0xC07 JUMPI PUSH2 0xC06 PUSH2 0x1117 JUMP JUMPDEST JUMPDEST PUSH1 0x40 MLOAD SWAP1 DUP1 DUP3 MSTORE DUP1 PUSH1 0x1F ADD PUSH1 0x1F NOT AND PUSH1 0x20 ADD DUP3 ADD PUSH1 0x40 MSTORE DUP1 ISZERO PUSH2 0xC39 JUMPI DUP2 PUSH1 0x20 ADD PUSH1 0x1 DUP3 MUL DUP1 CALLDATASIZE DUP4 CALLDATACOPY DUP1 DUP3 ADD SWAP2 POP POP SWAP1 POP JUMPDEST POP SWAP1 POP PUSH32 0x3000000000000000000000000000000000000000000000000000000000000000 DUP2 PUSH1 0x0 DUP2 MLOAD DUP2 LT PUSH2 0xC71 JUMPI PUSH2 0xC70 PUSH2 0x1F91 JUMP JUMPDEST JUMPDEST PUSH1 0x20 ADD ADD SWAP1 PUSH31 0xFFFFFFFFFFFFFFFFFFFFFFFFFFFFFFFFFFFFFFFFFFFFFFFFFFFFFFFFFFFFFF NOT AND SWAP1 DUP2 PUSH1 0x0 BYTE SWAP1 MSTORE8 POP PUSH32 0x7800000000000000000000000000000000000000000000000000000000000000 DUP2 PUSH1 0x1 DUP2 MLOAD DUP2 LT PUSH2 0xCD5 JUMPI PUSH2 0xCD4 PUSH2 0x1F91 JUMP JUMPDEST JUMPDEST PUSH1 0x20 ADD ADD SWAP1 PUSH31 0xFFFFFFFFFFFFFFFFFFFFFFFFFFFFFFFFFFFFFFFFFFFFFFFFFFFFFFFFFFFFFF NOT AND SWAP1 DUP2 PUSH1 0x0 BYTE SWAP1 MSTORE8 POP PUSH1 0x0 PUSH1 0x1 DUP5 PUSH1 0x2 PUSH2 0xD15 SWAP2 SWAP1 PUSH2 0x1EE1 JUMP JUMPDEST PUSH2 0xD1F SWAP2 SWAP1 PUSH2 0x1F3B JUMP JUMPDEST SWAP1 POP JUMPDEST PUSH1 0x1 DUP2 GT ISZERO PUSH2 0xDBF JUMPI PUSH32 0x3031323334353637383961626364656600000000000000000000000000000000 PUSH1 0xF DUP7 AND PUSH1 0x10 DUP2 LT PUSH2 0xD61 JUMPI PUSH2 0xD60 PUSH2 0x1F91 JUMP JUMPDEST JUMPDEST BYTE PUSH1 0xF8 SHL DUP3 DUP3 DUP2 MLOAD DUP2 LT PUSH2 0xD78 JUMPI PUSH2 0xD77 PUSH2 0x1F91 JUMP JUMPDEST JUMPDEST PUSH1 0x20 ADD ADD SWAP1 PUSH31 0xFFFFFFFFFFFFFFFFFFFFFFFFFFFFFFFFFFFFFFFFFFFFFFFFFFFFFFFFFFFFFF NOT AND SWAP1 DUP2 PUSH1 0x0 BYTE SWAP1 MSTORE8 POP PUSH1 0x4 DUP6 SWAP1 SHR SWAP5 POP DUP1 PUSH2 0xDB8 SWAP1 PUSH2 0x1FC0 JUMP JUMPDEST SWAP1 POP PUSH2 0xD22 JUMP JUMPDEST POP PUSH1 0x0 DUP5 EQ PUSH2 0xE03 JUMPI PUSH1 0x40 MLOAD PUSH32 0x8C379A000000000000000000000000000000000000000000000000000000000 DUP2 MSTORE PUSH1 0x4 ADD PUSH2 0xDFA SWAP1 PUSH2 0x2036 JUMP JUMPDEST PUSH1 0x40 MLOAD DUP1 SWAP2 SUB SWAP1 REVERT JUMPDEST DUP1 SWAP2 POP POP SWAP3 SWAP2 POP POP JUMP JUMPDEST DUP3 DUP1 SLOAD PUSH2 0xE19 SWAP1 PUSH2 0x1BF5 JUMP JUMPDEST SWAP1 PUSH1 0x0 MSTORE PUSH1 0x20 PUSH1 0x0 KECCAK256 SWAP1 PUSH1 0x1F ADD PUSH1 0x20 SWAP1 DIV DUP2 ADD SWAP3 DUP3 PUSH2 0xE3B JUMPI PUSH1 0x0 DUP6 SSTORE PUSH2 0xE82 JUMP JUMPDEST DUP3 PUSH1 0x1F LT PUSH2 0xE54 JUMPI DUP1 MLOAD PUSH1 0xFF NOT AND DUP4 DUP1 ADD OR DUP6 SSTORE PUSH2 0xE82 JUMP JUMPDEST DUP3 DUP1 ADD PUSH1 0x1 ADD DUP6 SSTORE DUP3 ISZERO PUSH2 0xE82 JUMPI SWAP2 DUP3 ADD JUMPDEST DUP3 DUP2 GT ISZERO PUSH2 0xE81 JUMPI DUP3 MLOAD DUP3 SSTORE SWAP2 PUSH1 0x20 ADD SWAP2 SWAP1 PUSH1 0x1 ADD SWAP1 PUSH2 0xE66 JUMP JUMPDEST JUMPDEST POP SWAP1 POP PUSH2 0xE8F SWAP2 SWAP1 PUSH2 0xE93 JUMP JUMPDEST POP SWAP1 JUMP JUMPDEST JUMPDEST DUP1 DUP3 GT ISZERO PUSH2 0xEAC JUMPI PUSH1 0x0 DUP2 PUSH1 0x0 SWAP1 SSTORE POP PUSH1 0x1 ADD PUSH2 0xE94 JUMP JUMPDEST POP SWAP1 JUMP JUMPDEST PUSH1 0x0 PUSH1 0x40 MLOAD SWAP1 POP SWAP1 JUMP JUMPDEST PUSH1 0x0 DUP1 REVERT JUMPDEST PUSH1 0x0 DUP1 REVERT JUMPDEST PUSH1 0x0 PUSH32 0xFFFFFFFF00000000000000000000000000000000000000000000000000000000 DUP3 AND SWAP1 POP SWAP2 SWAP1 POP JUMP JUMPDEST PUSH2 0xEF9 DUP2 PUSH2 0xEC4 JUMP JUMPDEST DUP2 EQ PUSH2 0xF04 JUMPI PUSH1 0x0 DUP1 REVERT JUMPDEST POP JUMP JUMPDEST PUSH1 0x0 DUP2 CALLDATALOAD SWAP1 POP PUSH2 0xF16 DUP2 PUSH2 0xEF0 JUMP JUMPDEST SWAP3 SWAP2 POP POP JUMP JUMPDEST PUSH1 0x0 PUSH1 0x20 DUP3 DUP5 SUB SLT ISZERO PUSH2 0xF32 JUMPI PUSH2 0xF31 PUSH2 0xEBA JUMP JUMPDEST JUMPDEST PUSH1 0x0 PUSH2 0xF40 DUP5 DUP3 DUP6 ADD PUSH2 0xF07 JUMP JUMPDEST SWAP2 POP POP SWAP3 SWAP2 POP POP JUMP JUMPDEST PUSH1 0x0 DUP2 ISZERO ISZERO SWAP1 POP SWAP2 SWAP1 POP JUMP JUMPDEST PUSH2 0xF5E DUP2 PUSH2 0xF49 JUMP JUMPDEST DUP3 MSTORE POP POP JUMP JUMPDEST PUSH1 0x0 PUSH1 0x20 DUP3 ADD SWAP1 POP PUSH2 0xF79 PUSH1 0x0 DUP4 ADD DUP5 PUSH2 0xF55 JUMP JUMPDEST SWAP3 SWAP2 POP POP JUMP JUMPDEST PUSH1 0x0 DUP2 SWAP1 POP SWAP2 SWAP1 POP JUMP JUMPDEST PUSH2 0xF92 DUP2 PUSH2 0xF7F JUMP JUMPDEST DUP2 EQ PUSH2 0xF9D JUMPI PUSH1 0x0 DUP1 REVERT JUMPDEST POP JUMP JUMPDEST PUSH1 0x0 DUP2 CALLDATALOAD SWAP1 POP PUSH2 0xFAF DUP2 PUSH2 0xF89 JUMP JUMPDEST SWAP3 SWAP2 POP POP JUMP JUMPDEST PUSH1 0x0 PUSH1 0x20 DUP3 DUP5 SUB SLT ISZERO PUSH2 0xFCB JUMPI PUSH2 0xFCA PUSH2 0xEBA JUMP JUMPDEST JUMPDEST PUSH1 0x0 PUSH2 0xFD9 DUP5 DUP3 DUP6 ADD PUSH2 0xFA0 JUMP JUMPDEST SWAP2 POP POP SWAP3 SWAP2 POP POP JUMP JUMPDEST PUSH2 0xFEB DUP2 PUSH2 0xF7F JUMP JUMPDEST DUP3 MSTORE POP POP JUMP JUMPDEST PUSH1 0x0 PUSH1 0x20 DUP3 ADD SWAP1 POP PUSH2 0x1006 PUSH1 0x0 DUP4 ADD DUP5 PUSH2 0xFE2 JUMP JUMPDEST SWAP3 SWAP2 POP POP JUMP JUMPDEST PUSH1 0x0 PUSH20 0xFFFFFFFFFFFFFFFFFFFFFFFFFFFFFFFFFFFFFFFF DUP3 AND SWAP1 POP SWAP2 SWAP1 POP JUMP JUMPDEST PUSH1 0x0 PUSH2 0x1037 DUP3 PUSH2 0x100C JUMP JUMPDEST SWAP1 POP SWAP2 SWAP1 POP JUMP JUMPDEST PUSH2 0x1047 DUP2 PUSH2 0x102C JUMP JUMPDEST DUP3 MSTORE POP POP JUMP JUMPDEST PUSH1 0x0 PUSH1 0x20 DUP3 ADD SWAP1 POP PUSH2 0x1062 PUSH1 0x0 DUP4 ADD DUP5 PUSH2 0x103E JUMP JUMPDEST SWAP3 SWAP2 POP POP JUMP JUMPDEST PUSH2 0x1071 DUP2 PUSH2 0x102C JUMP JUMPDEST DUP2 EQ PUSH2 0x107C JUMPI PUSH1 0x0 DUP1 REVERT JUMPDEST POP JUMP JUMPDEST PUSH1 0x0 DUP2 CALLDATALOAD SWAP1 POP PUSH2 0x108E DUP2 PUSH2 0x1068 JUMP JUMPDEST SWAP3 SWAP2 POP POP JUMP JUMPDEST PUSH1 0x0 DUP1 PUSH1 0x40 DUP4 DUP6 SUB SLT ISZERO PUSH2 0x10AB JUMPI PUSH2 0x10AA PUSH2 0xEBA JUMP JUMPDEST JUMPDEST PUSH1 0x0 PUSH2 0x10B9 DUP6 DUP3 DUP7 ADD PUSH2 0xFA0 JUMP JUMPDEST SWAP3 POP POP PUSH1 0x20 PUSH2 0x10CA DUP6 DUP3 DUP7 ADD PUSH2 0x107F JUMP JUMPDEST SWAP2 POP POP SWAP3 POP SWAP3 SWAP1 POP JUMP JUMPDEST PUSH1 0x0 PUSH1 0x20 DUP3 DUP5 SUB SLT ISZERO PUSH2 0x10EA JUMPI PUSH2 0x10E9 PUSH2 0xEBA JUMP JUMPDEST JUMPDEST PUSH1 0x0 PUSH2 0x10F8 DUP5 DUP3 DUP6 ADD PUSH2 0x107F JUMP JUMPDEST SWAP2 POP POP SWAP3 SWAP2 POP POP JUMP JUMPDEST PUSH1 0x0 DUP1 REVERT JUMPDEST PUSH1 0x0 PUSH1 0x1F NOT PUSH1 0x1F DUP4 ADD AND SWAP1 POP SWAP2 SWAP1 POP JUMP JUMPDEST PUSH32 0x4E487B7100000000000000000000000000000000000000000000000000000000 PUSH1 0x0 MSTORE PUSH1 0x41 PUSH1 0x4 MSTORE PUSH1 0x24 PUSH1 0x0 REVERT JUMPDEST PUSH2 0x114F DUP3 PUSH2 0x1106 JUMP JUMPDEST DUP2 ADD DUP2 DUP2 LT PUSH8 0xFFFFFFFFFFFFFFFF DUP3 GT OR ISZERO PUSH2 0x116E JUMPI PUSH2 0x116D PUSH2 0x1117 JUMP JUMPDEST JUMPDEST DUP1 PUSH1 0x40 MSTORE POP POP POP JUMP JUMPDEST PUSH1 0x0 PUSH2 0x1181 PUSH2 0xEB0 JUMP JUMPDEST SWAP1 POP PUSH2 0x118D DUP3 DUP3 PUSH2 0x1146 JUMP JUMPDEST SWAP2 SWAP1 POP JUMP JUMPDEST PUSH1 0x0 DUP1 REVERT JUMPDEST PUSH1 0x0 DUP2 SWAP1 POP SWAP2 SWAP1 POP JUMP JUMPDEST PUSH2 0x11AA DUP2 PUSH2 0x1197 JUMP JUMPDEST DUP2 EQ PUSH2 0x11B5 JUMPI PUSH1 0x0 DUP1 REVERT JUMPDEST POP JUMP JUMPDEST PUSH1 0x0 DUP2 CALLDATALOAD SWAP1 POP PUSH2 0x11C7 DUP2 PUSH2 0x11A1 JUMP JUMPDEST SWAP3 SWAP2 POP POP JUMP JUMPDEST PUSH1 0x0 PUSH2 0x11D8 DUP3 PUSH2 0x100C JUMP JUMPDEST SWAP1 POP SWAP2 SWAP1 POP JUMP JUMPDEST PUSH2 0x11E8 DUP2 PUSH2 0x11CD JUMP JUMPDEST DUP2 EQ PUSH2 0x11F3 JUMPI PUSH1 0x0 DUP1 REVERT JUMPDEST POP JUMP JUMPDEST PUSH1 0x0 DUP2 CALLDATALOAD SWAP1 POP PUSH2 0x1205 DUP2 PUSH2 0x11DF JUMP JUMPDEST SWAP3 SWAP2 POP POP JUMP JUMPDEST PUSH1 0x18 DUP2 LT PUSH2 0x1218 JUMPI PUSH1 0x0 DUP1 REVERT JUMPDEST POP JUMP JUMPDEST PUSH1 0x0 DUP2 CALLDATALOAD SWAP1 POP PUSH2 0x122A DUP2 PUSH2 0x120B JUMP JUMPDEST SWAP3 SWAP2 POP POP JUMP JUMPDEST PUSH1 0x0 DUP1 REVERT JUMPDEST PUSH1 0x0 PUSH8 0xFFFFFFFFFFFFFFFF DUP3 GT ISZERO PUSH2 0x1250 JUMPI PUSH2 0x124F PUSH2 0x1117 JUMP JUMPDEST JUMPDEST PUSH1 0x20 DUP3 MUL SWAP1 POP PUSH1 0x20 DUP2 ADD SWAP1 POP SWAP2 SWAP1 POP JUMP JUMPDEST PUSH1 0x0 DUP1 REVERT JUMPDEST PUSH1 0x0 PUSH1 0x40 DUP3 DUP5 SUB SLT ISZERO PUSH2 0x127C JUMPI PUSH2 0x127B PUSH2 0x1101 JUMP JUMPDEST JUMPDEST PUSH2 0x1286 PUSH1 0x40 PUSH2 0x1177 JUMP JUMPDEST SWAP1 POP PUSH1 0x0 PUSH2 0x1296 DUP5 DUP3 DUP6 ADD PUSH2 0x11B8 JUMP JUMPDEST PUSH1 0x0 DUP4 ADD MSTORE POP PUSH1 0x20 PUSH2 0x12AA DUP5 DUP3 DUP6 ADD PUSH2 0x11F6 JUMP JUMPDEST PUSH1 0x20 DUP4 ADD MSTORE POP SWAP3 SWAP2 POP POP JUMP JUMPDEST PUSH1 0x0 PUSH2 0x12C9 PUSH2 0x12C4 DUP5 PUSH2 0x1235 JUMP JUMPDEST PUSH2 0x1177 JUMP JUMPDEST SWAP1 POP DUP1 DUP4 DUP3 MSTORE PUSH1 0x20 DUP3 ADD SWAP1 POP PUSH1 0x40 DUP5 MUL DUP4 ADD DUP6 DUP2 GT ISZERO PUSH2 0x12EC JUMPI PUSH2 0x12EB PUSH2 0x1261 JUMP JUMPDEST JUMPDEST DUP4 JUMPDEST DUP2 DUP2 LT ISZERO PUSH2 0x1315 JUMPI DUP1 PUSH2 0x1301 DUP9 DUP3 PUSH2 0x1266 JUMP JUMPDEST DUP5 MSTORE PUSH1 0x20 DUP5 ADD SWAP4 POP POP PUSH1 0x40 DUP2 ADD SWAP1 POP PUSH2 0x12EE JUMP JUMPDEST POP POP POP SWAP4 SWAP3 POP POP POP JUMP JUMPDEST PUSH1 0x0 DUP3 PUSH1 0x1F DUP4 ADD SLT PUSH2 0x1334 JUMPI PUSH2 0x1333 PUSH2 0x1230 JUMP JUMPDEST JUMPDEST DUP2 CALLDATALOAD PUSH2 0x1344 DUP5 DUP3 PUSH1 0x20 DUP7 ADD PUSH2 0x12B6 JUMP JUMPDEST SWAP2 POP POP SWAP3 SWAP2 POP POP JUMP JUMPDEST PUSH1 0x0 DUP1 REVERT JUMPDEST PUSH1 0x0 PUSH8 0xFFFFFFFFFFFFFFFF DUP3 GT ISZERO PUSH2 0x136D JUMPI PUSH2 0x136C PUSH2 0x1117 JUMP JUMPDEST JUMPDEST PUSH2 0x1376 DUP3 PUSH2 0x1106 JUMP JUMPDEST SWAP1 POP PUSH1 0x20 DUP2 ADD SWAP1 POP SWAP2 SWAP1 POP JUMP JUMPDEST DUP3 DUP2 DUP4 CALLDATACOPY PUSH1 0x0 DUP4 DUP4 ADD MSTORE POP POP POP JUMP JUMPDEST PUSH1 0x0 PUSH2 0x13A5 PUSH2 0x13A0 DUP5 PUSH2 0x1352 JUMP JUMPDEST PUSH2 0x1177 JUMP JUMPDEST SWAP1 POP DUP3 DUP2 MSTORE PUSH1 0x20 DUP2 ADD DUP5 DUP5 DUP5 ADD GT ISZERO PUSH2 0x13C1 JUMPI PUSH2 0x13C0 PUSH2 0x134D JUMP JUMPDEST JUMPDEST PUSH2 0x13CC DUP5 DUP3 DUP6 PUSH2 0x1383 JUMP JUMPDEST POP SWAP4 SWAP3 POP POP POP JUMP JUMPDEST PUSH1 0x0 DUP3 PUSH1 0x1F DUP4 ADD SLT PUSH2 0x13E9 JUMPI PUSH2 0x13E8 PUSH2 0x1230 JUMP JUMPDEST JUMPDEST DUP2 CALLDATALOAD PUSH2 0x13F9 DUP5 DUP3 PUSH1 0x20 DUP7 ADD PUSH2 0x1392 JUMP JUMPDEST SWAP2 POP POP SWAP3 SWAP2 POP POP JUMP JUMPDEST PUSH1 0x0 PUSH2 0x240 DUP3 DUP5 SUB SLT ISZERO PUSH2 0x1419 JUMPI PUSH2 0x1418 PUSH2 0x1101 JUMP JUMPDEST JUMPDEST PUSH2 0x1424 PUSH2 0x240 PUSH2 0x1177 JUMP JUMPDEST SWAP1 POP PUSH1 0x0 PUSH2 0x1434 DUP5 DUP3 DUP6 ADD PUSH2 0x107F JUMP JUMPDEST PUSH1 0x0 DUP4 ADD MSTORE POP PUSH1 0x20 PUSH2 0x1448 DUP5 DUP3 DUP6 ADD PUSH2 0x11B8 JUMP JUMPDEST PUSH1 0x20 DUP4 ADD MSTORE POP PUSH1 0x40 PUSH2 0x145C DUP5 DUP3 DUP6 ADD PUSH2 0x11B8 JUMP JUMPDEST PUSH1 0x40 DUP4 ADD MSTORE POP PUSH1 0x60 PUSH2 0x1470 DUP5 DUP3 DUP6 ADD PUSH2 0x11F6 JUMP JUMPDEST PUSH1 0x60 DUP4 ADD MSTORE POP PUSH1 0x80 PUSH2 0x1484 DUP5 DUP3 DUP6 ADD PUSH2 0x107F JUMP JUMPDEST PUSH1 0x80 DUP4 ADD MSTORE POP PUSH1 0xA0 PUSH2 0x1498 DUP5 DUP3 DUP6 ADD PUSH2 0x107F JUMP JUMPDEST PUSH1 0xA0 DUP4 ADD MSTORE POP PUSH1 0xC0 PUSH2 0x14AC DUP5 DUP3 DUP6 ADD PUSH2 0x11B8 JUMP JUMPDEST PUSH1 0xC0 DUP4 ADD MSTORE POP PUSH1 0xE0 PUSH2 0x14C0 DUP5 DUP3 DUP6 ADD PUSH2 0x11B8 JUMP JUMPDEST PUSH1 0xE0 DUP4 ADD MSTORE POP PUSH2 0x100 PUSH2 0x14D5 DUP5 DUP3 DUP6 ADD PUSH2 0x121B JUMP JUMPDEST PUSH2 0x100 DUP4 ADD MSTORE POP PUSH2 0x120 PUSH2 0x14EB DUP5 DUP3 DUP6 ADD PUSH2 0x11B8 JUMP JUMPDEST PUSH2 0x120 DUP4 ADD MSTORE POP PUSH2 0x140 PUSH2 0x1501 DUP5 DUP3 DUP6 ADD PUSH2 0x11B8 JUMP JUMPDEST PUSH2 0x140 DUP4 ADD MSTORE POP PUSH2 0x160 PUSH2 0x1517 DUP5 DUP3 DUP6 ADD PUSH2 0xFA0 JUMP JUMPDEST PUSH2 0x160 DUP4 ADD MSTORE POP PUSH2 0x180 PUSH2 0x152D DUP5 DUP3 DUP6 ADD PUSH2 0x11B8 JUMP JUMPDEST PUSH2 0x180 DUP4 ADD MSTORE POP PUSH2 0x1A0 PUSH2 0x1543 DUP5 DUP3 DUP6 ADD PUSH2 0xFA0 JUMP JUMPDEST PUSH2 0x1A0 DUP4 ADD MSTORE POP PUSH2 0x1C0 PUSH2 0x1559 DUP5 DUP3 DUP6 ADD PUSH2 0xFA0 JUMP JUMPDEST PUSH2 0x1C0 DUP4 ADD MSTORE POP PUSH2 0x1E0 PUSH2 0x156F DUP5 DUP3 DUP6 ADD PUSH2 0x11B8 JUMP JUMPDEST PUSH2 0x1E0 DUP4 ADD MSTORE POP PUSH2 0x200 DUP3 ADD CALLDATALOAD PUSH8 0xFFFFFFFFFFFFFFFF DUP2 GT ISZERO PUSH2 0x1595 JUMPI PUSH2 0x1594 PUSH2 0x1192 JUMP JUMPDEST JUMPDEST PUSH2 0x15A1 DUP5 DUP3 DUP6 ADD PUSH2 0x131F JUMP JUMPDEST PUSH2 0x200 DUP4 ADD MSTORE POP PUSH2 0x220 DUP3 ADD CALLDATALOAD PUSH8 0xFFFFFFFFFFFFFFFF DUP2 GT ISZERO PUSH2 0x15C7 JUMPI PUSH2 0x15C6 PUSH2 0x1192 JUMP JUMPDEST JUMPDEST PUSH2 0x15D3 DUP5 DUP3 DUP6 ADD PUSH2 0x13D4 JUMP JUMPDEST PUSH2 0x220 DUP4 ADD MSTORE POP SWAP3 SWAP2 POP POP JUMP JUMPDEST PUSH1 0x0 PUSH1 0x20 DUP3 DUP5 SUB SLT ISZERO PUSH2 0x15F6 JUMPI PUSH2 0x15F5 PUSH2 0xEBA JUMP JUMPDEST JUMPDEST PUSH1 0x0 DUP3 ADD CALLDATALOAD PUSH8 0xFFFFFFFFFFFFFFFF DUP2 GT ISZERO PUSH2 0x1614 JUMPI PUSH2 0x1613 PUSH2 0xEBF JUMP JUMPDEST JUMPDEST PUSH2 0x1620 DUP5 DUP3 DUP6 ADD PUSH2 0x1402 JUMP JUMPDEST SWAP2 POP POP SWAP3 SWAP2 POP POP JUMP JUMPDEST PUSH2 0x1632 DUP2 PUSH2 0x1197 JUMP JUMPDEST DUP3 MSTORE POP POP JUMP JUMPDEST PUSH1 0x0 PUSH1 0x20 DUP3 ADD SWAP1 POP PUSH2 0x164D PUSH1 0x0 DUP4 ADD DUP5 PUSH2 0x1629 JUMP JUMPDEST SWAP3 SWAP2 POP POP JUMP JUMPDEST PUSH1 0x0 PUSH1 0x20 DUP3 DUP5 SUB SLT ISZERO PUSH2 0x1669 JUMPI PUSH2 0x1668 PUSH2 0xEBA JUMP JUMPDEST JUMPDEST PUSH1 0x0 PUSH2 0x1677 DUP5 DUP3 DUP6 ADD PUSH2 0x11F6 JUMP JUMPDEST SWAP2 POP POP SWAP3 SWAP2 POP POP JUMP JUMPDEST PUSH1 0x0 PUSH1 0x20 DUP3 DUP5 SUB SLT ISZERO PUSH2 0x1696 JUMPI PUSH2 0x1695 PUSH2 0xEBA JUMP JUMPDEST JUMPDEST PUSH1 0x0 PUSH2 0x16A4 DUP5 DUP3 DUP6 ADD PUSH2 0x11B8 JUMP JUMPDEST SWAP2 POP POP SWAP3 SWAP2 POP POP JUMP JUMPDEST PUSH1 0x0 DUP3 DUP3 MSTORE PUSH1 0x20 DUP3 ADD SWAP1 POP SWAP3 SWAP2 POP POP JUMP JUMPDEST PUSH32 0x416363657373436F6E74726F6C3A2063616E206F6E6C792072656E6F756E6365 PUSH1 0x0 DUP3 ADD MSTORE PUSH32 0x20726F6C657320666F722073656C660000000000000000000000000000000000 PUSH1 0x20 DUP3 ADD MSTORE POP JUMP JUMPDEST PUSH1 0x0 PUSH2 0x171A PUSH1 0x2F DUP4 PUSH2 0x16AD JUMP JUMPDEST SWAP2 POP PUSH2 0x1725 DUP3 PUSH2 0x16BE JUMP JUMPDEST PUSH1 0x40 DUP3 ADD SWAP1 POP SWAP2 SWAP1 POP JUMP JUMPDEST PUSH1 0x0 PUSH1 0x20 DUP3 ADD SWAP1 POP DUP2 DUP2 SUB PUSH1 0x0 DUP4 ADD MSTORE PUSH2 0x1749 DUP2 PUSH2 0x170D JUMP JUMPDEST SWAP1 POP SWAP2 SWAP1 POP JUMP JUMPDEST PUSH2 0x1759 DUP2 PUSH2 0x102C JUMP JUMPDEST DUP3 MSTORE POP POP JUMP JUMPDEST PUSH2 0x1768 DUP2 PUSH2 0x1197 JUMP JUMPDEST DUP3 MSTORE POP POP JUMP JUMPDEST PUSH2 0x1777 DUP2 PUSH2 0x11CD JUMP JUMPDEST DUP3 MSTORE POP POP JUMP JUMPDEST PUSH32 0x4E487B7100000000000000000000000000000000000000000000000000000000 PUSH1 0x0 MSTORE PUSH1 0x21 PUSH1 0x4 MSTORE PUSH1 0x24 PUSH1 0x0 REVERT JUMPDEST PUSH1 0x18 DUP2 LT PUSH2 0x17BD JUMPI PUSH2 0x17BC PUSH2 0x177D JUMP JUMPDEST JUMPDEST POP JUMP JUMPDEST PUSH1 0x0 DUP2 SWAP1 POP PUSH2 0x17CE DUP3 PUSH2 0x17AC JUMP JUMPDEST SWAP2 SWAP1 POP JUMP JUMPDEST PUSH1 0x0 PUSH2 0x17DE DUP3 PUSH2 0x17C0 JUMP JUMPDEST SWAP1 POP SWAP2 SWAP1 POP JUMP JUMPDEST PUSH2 0x17EE DUP2 PUSH2 0x17D3 JUMP JUMPDEST DUP3 MSTORE POP POP JUMP JUMPDEST PUSH2 0x17FD DUP2 PUSH2 0xF7F JUMP JUMPDEST DUP3 MSTORE POP POP JUMP JUMPDEST PUSH1 0x0 DUP2 MLOAD SWAP1 POP SWAP2 SWAP1 POP JUMP JUMPDEST PUSH1 0x0 DUP3 DUP3 MSTORE PUSH1 0x20 DUP3 ADD SWAP1 POP SWAP3 SWAP2 POP POP JUMP JUMPDEST PUSH1 0x0 DUP2 SWAP1 POP PUSH1 0x20 DUP3 ADD SWAP1 POP SWAP2 SWAP1 POP JUMP JUMPDEST PUSH1 0x40 DUP3 ADD PUSH1 0x0 DUP3 ADD MLOAD PUSH2 0x1845 PUSH1 0x0 DUP6 ADD DUP3 PUSH2 0x175F JUMP JUMPDEST POP PUSH1 0x20 DUP3 ADD MLOAD PUSH2 0x1858 PUSH1 0x20 DUP6 ADD DUP3 PUSH2 0x176E JUMP JUMPDEST POP POP POP POP JUMP JUMPDEST PUSH1 0x0 PUSH2 0x186A DUP4 DUP4 PUSH2 0x182F JUMP JUMPDEST PUSH1 0x40 DUP4 ADD SWAP1 POP SWAP3 SWAP2 POP POP JUMP JUMPDEST PUSH1 0x0 PUSH1 0x20 DUP3 ADD SWAP1 POP SWAP2 SWAP1 POP JUMP JUMPDEST PUSH1 0x0 PUSH2 0x188E DUP3 PUSH2 0x1803 JUMP JUMPDEST PUSH2 0x1898 DUP2 DUP6 PUSH2 0x180E JUMP JUMPDEST SWAP4 POP PUSH2 0x18A3 DUP4 PUSH2 0x181F JUMP JUMPDEST DUP1 PUSH1 0x0 JUMPDEST DUP4 DUP2 LT ISZERO PUSH2 0x18D4 JUMPI DUP2 MLOAD PUSH2 0x18BB DUP9 DUP3 PUSH2 0x185E JUMP JUMPDEST SWAP8 POP PUSH2 0x18C6 DUP4 PUSH2 0x1876 JUMP JUMPDEST SWAP3 POP POP PUSH1 0x1 DUP2 ADD SWAP1 POP PUSH2 0x18A7 JUMP JUMPDEST POP DUP6 SWAP4 POP POP POP POP SWAP3 SWAP2 POP POP JUMP JUMPDEST PUSH1 0x0 DUP2 MLOAD SWAP1 POP SWAP2 SWAP1 POP JUMP JUMPDEST PUSH1 0x0 DUP3 DUP3 MSTORE PUSH1 0x20 DUP3 ADD SWAP1 POP SWAP3 SWAP2 POP POP JUMP JUMPDEST PUSH1 0x0 JUMPDEST DUP4 DUP2 LT ISZERO PUSH2 0x191B JUMPI DUP1 DUP3 ADD MLOAD DUP2 DUP5 ADD MSTORE PUSH1 0x20 DUP2 ADD SWAP1 POP PUSH2 0x1900 JUMP JUMPDEST DUP4 DUP2 GT ISZERO PUSH2 0x192A JUMPI PUSH1 0x0 DUP5 DUP5 ADD MSTORE JUMPDEST POP POP POP POP JUMP JUMPDEST PUSH1 0x0 PUSH2 0x193B DUP3 PUSH2 0x18E1 JUMP JUMPDEST PUSH2 0x1945 DUP2 DUP6 PUSH2 0x18EC JUMP JUMPDEST SWAP4 POP PUSH2 0x1955 DUP2 DUP6 PUSH1 0x20 DUP7 ADD PUSH2 0x18FD JUMP JUMPDEST PUSH2 0x195E DUP2 PUSH2 0x1106 JUMP JUMPDEST DUP5 ADD SWAP2 POP POP SWAP3 SWAP2 POP POP JUMP JUMPDEST PUSH1 0x0 PUSH2 0x240 DUP4 ADD PUSH1 0x0 DUP4 ADD MLOAD PUSH2 0x1982 PUSH1 0x0 DUP7 ADD DUP3 PUSH2 0x1750 JUMP JUMPDEST POP PUSH1 0x20 DUP4 ADD MLOAD PUSH2 0x1995 PUSH1 0x20 DUP7 ADD DUP3 PUSH2 0x175F JUMP JUMPDEST POP PUSH1 0x40 DUP4 ADD MLOAD PUSH2 0x19A8 PUSH1 0x40 DUP7 ADD DUP3 PUSH2 0x175F JUMP JUMPDEST POP PUSH1 0x60 DUP4 ADD MLOAD PUSH2 0x19BB PUSH1 0x60 DUP7 ADD DUP3 PUSH2 0x176E JUMP JUMPDEST POP PUSH1 0x80 DUP4 ADD MLOAD PUSH2 0x19CE PUSH1 0x80 DUP7 ADD DUP3 PUSH2 0x1750 JUMP JUMPDEST POP PUSH1 0xA0 DUP4 ADD MLOAD PUSH2 0x19E1 PUSH1 0xA0 DUP7 ADD DUP3 PUSH2 0x1750 JUMP JUMPDEST POP PUSH1 0xC0 DUP4 ADD MLOAD PUSH2 0x19F4 PUSH1 0xC0 DUP7 ADD DUP3 PUSH2 0x175F JUMP JUMPDEST POP PUSH1 0xE0 DUP4 ADD MLOAD PUSH2 0x1A07 PUSH1 0xE0 DUP7 ADD DUP3 PUSH2 0x175F JUMP JUMPDEST POP PUSH2 0x100 DUP4 ADD MLOAD PUSH2 0x1A1C PUSH2 0x100 DUP7 ADD DUP3 PUSH2 0x17E5 JUMP JUMPDEST POP PUSH2 0x120 DUP4 ADD MLOAD PUSH2 0x1A31 PUSH2 0x120 DUP7 ADD DUP3 PUSH2 0x175F JUMP JUMPDEST POP PUSH2 0x140 DUP4 ADD MLOAD PUSH2 0x1A46 PUSH2 0x140 DUP7 ADD DUP3 PUSH2 0x175F JUMP JUMPDEST POP PUSH2 0x160 DUP4 ADD MLOAD PUSH2 0x1A5B PUSH2 0x160 DUP7 ADD DUP3 PUSH2 0x17F4 JUMP JUMPDEST POP PUSH2 0x180 DUP4 ADD MLOAD PUSH2 0x1A70 PUSH2 0x180 DUP7 ADD DUP3 PUSH2 0x175F JUMP JUMPDEST POP PUSH2 0x1A0 DUP4 ADD MLOAD PUSH2 0x1A85 PUSH2 0x1A0 DUP7 ADD DUP3 PUSH2 0x17F4 JUMP JUMPDEST POP PUSH2 0x1C0 DUP4 ADD MLOAD PUSH2 0x1A9A PUSH2 0x1C0 DUP7 ADD DUP3 PUSH2 0x17F4 JUMP JUMPDEST POP PUSH2 0x1E0 DUP4 ADD MLOAD PUSH2 0x1AAF PUSH2 0x1E0 DUP7 ADD DUP3 PUSH2 0x175F JUMP JUMPDEST POP PUSH2 0x200 DUP4 ADD MLOAD DUP5 DUP3 SUB PUSH2 0x200 DUP7 ADD MSTORE PUSH2 0x1AC9 DUP3 DUP3 PUSH2 0x1883 JUMP JUMPDEST SWAP2 POP POP PUSH2 0x220 DUP4 ADD MLOAD DUP5 DUP3 SUB PUSH2 0x220 DUP7 ADD MSTORE PUSH2 0x1AE5 DUP3 DUP3 PUSH2 0x1930 JUMP JUMPDEST SWAP2 POP POP DUP1 SWAP2 POP POP SWAP3 SWAP2 POP POP JUMP JUMPDEST PUSH1 0x0 PUSH1 0x20 DUP3 ADD SWAP1 POP DUP2 DUP2 SUB PUSH1 0x0 DUP4 ADD MSTORE PUSH2 0x1B0C DUP2 DUP5 PUSH2 0x1969 JUMP JUMPDEST SWAP1 POP SWAP3 SWAP2 POP POP JUMP JUMPDEST PUSH1 0x0 DUP2 SWAP1 POP SWAP3 SWAP2 POP POP JUMP JUMPDEST POP JUMP JUMPDEST PUSH1 0x0 PUSH2 0x1B2F PUSH1 0x0 DUP4 PUSH2 0x1B14 JUMP JUMPDEST SWAP2 POP PUSH2 0x1B3A DUP3 PUSH2 0x1B1F JUMP JUMPDEST PUSH1 0x0 DUP3 ADD SWAP1 POP SWAP2 SWAP1 POP JUMP JUMPDEST PUSH1 0x0 PUSH2 0x1B50 DUP3 PUSH2 0x1B22 JUMP JUMPDEST SWAP2 POP DUP2 SWAP1 POP SWAP2 SWAP1 POP JUMP JUMPDEST PUSH32 0x4574686572207472616E73666572206661696C65642E00000000000000000000 PUSH1 0x0 DUP3 ADD MSTORE POP JUMP JUMPDEST PUSH1 0x0 PUSH2 0x1B90 PUSH1 0x16 DUP4 PUSH2 0x16AD JUMP JUMPDEST SWAP2 POP PUSH2 0x1B9B DUP3 PUSH2 0x1B5A JUMP JUMPDEST PUSH1 0x20 DUP3 ADD SWAP1 POP SWAP2 SWAP1 POP JUMP JUMPDEST PUSH1 0x0 PUSH1 0x20 DUP3 ADD SWAP1 POP DUP2 DUP2 SUB PUSH1 0x0 DUP4 ADD MSTORE PUSH2 0x1BBF DUP2 PUSH2 0x1B83 JUMP JUMPDEST SWAP1 POP SWAP2 SWAP1 POP JUMP JUMPDEST PUSH32 0x4E487B7100000000000000000000000000000000000000000000000000000000 PUSH1 0x0 MSTORE PUSH1 0x22 PUSH1 0x4 MSTORE PUSH1 0x24 PUSH1 0x0 REVERT JUMPDEST PUSH1 0x0 PUSH1 0x2 DUP3 DIV SWAP1 POP PUSH1 0x1 DUP3 AND DUP1 PUSH2 0x1C0D JUMPI PUSH1 0x7F DUP3 AND SWAP2 POP JUMPDEST PUSH1 0x20 DUP3 LT DUP2 EQ ISZERO PUSH2 0x1C21 JUMPI PUSH2 0x1C20 PUSH2 0x1BC6 JUMP JUMPDEST JUMPDEST POP SWAP2 SWAP1 POP JUMP JUMPDEST PUSH1 0x0 DUP2 SWAP1 POP DUP2 PUSH1 0x0 MSTORE PUSH1 0x20 PUSH1 0x0 KECCAK256 SWAP1 POP SWAP2 SWAP1 POP JUMP JUMPDEST PUSH1 0x0 DUP2 SLOAD PUSH2 0x1C49 DUP2 PUSH2 0x1BF5 JUMP JUMPDEST PUSH2 0x1C53 DUP2 DUP7 PUSH2 0x1B14 JUMP JUMPDEST SWAP5 POP PUSH1 0x1 DUP3 AND PUSH1 0x0 DUP2 EQ PUSH2 0x1C6E JUMPI PUSH1 0x1 DUP2 EQ PUSH2 0x1C7F JUMPI PUSH2 0x1CB2 JUMP JUMPDEST PUSH1 0xFF NOT DUP4 AND DUP7 MSTORE DUP2 DUP7 ADD SWAP4 POP PUSH2 0x1CB2 JUMP JUMPDEST PUSH2 0x1C88 DUP6 PUSH2 0x1C27 JUMP JUMPDEST PUSH1 0x0 JUMPDEST DUP4 DUP2 LT ISZERO PUSH2 0x1CAA JUMPI DUP2 SLOAD DUP2 DUP10 ADD MSTORE PUSH1 0x1 DUP3 ADD SWAP2 POP PUSH1 0x20 DUP2 ADD SWAP1 POP PUSH2 0x1C8B JUMP JUMPDEST DUP4 DUP9 ADD SWAP6 POP POP POP JUMPDEST POP POP POP SWAP3 SWAP2 POP POP JUMP JUMPDEST PUSH1 0x0 PUSH2 0x1CC7 DUP3 DUP5 PUSH2 0x1C3C JUMP JUMPDEST SWAP2 POP DUP2 SWAP1 POP SWAP3 SWAP2 POP POP JUMP JUMPDEST PUSH32 0x5075726368617365204661696C65640000000000000000000000000000000000 PUSH1 0x0 DUP3 ADD MSTORE POP JUMP JUMPDEST PUSH1 0x0 PUSH2 0x1D08 PUSH1 0xF DUP4 PUSH2 0x16AD JUMP JUMPDEST SWAP2 POP PUSH2 0x1D13 DUP3 PUSH2 0x1CD2 JUMP JUMPDEST PUSH1 0x20 DUP3 ADD SWAP1 POP SWAP2 SWAP1 POP JUMP JUMPDEST PUSH1 0x0 PUSH1 0x20 DUP3 ADD SWAP1 POP DUP2 DUP2 SUB PUSH1 0x0 DUP4 ADD MSTORE PUSH2 0x1D37 DUP2 PUSH2 0x1CFB JUMP JUMPDEST SWAP1 POP SWAP2 SWAP1 POP JUMP JUMPDEST PUSH1 0x0 DUP2 SWAP1 POP SWAP3 SWAP2 POP POP JUMP JUMPDEST PUSH32 0x416363657373436F6E74726F6C3A206163636F756E7420000000000000000000 PUSH1 0x0 DUP3 ADD MSTORE POP JUMP JUMPDEST PUSH1 0x0 PUSH2 0x1D7F PUSH1 0x17 DUP4 PUSH2 0x1D3E JUMP JUMPDEST SWAP2 POP PUSH2 0x1D8A DUP3 PUSH2 0x1D49 JUMP JUMPDEST PUSH1 0x17 DUP3 ADD SWAP1 POP SWAP2 SWAP1 POP JUMP JUMPDEST PUSH1 0x0 DUP2 MLOAD SWAP1 POP SWAP2 SWAP1 POP JUMP JUMPDEST PUSH1 0x0 PUSH2 0x1DAB DUP3 PUSH2 0x1D95 JUMP JUMPDEST PUSH2 0x1DB5 DUP2 DUP6 PUSH2 0x1D3E JUMP JUMPDEST SWAP4 POP PUSH2 0x1DC5 DUP2 DUP6 PUSH1 0x20 DUP7 ADD PUSH2 0x18FD JUMP JUMPDEST DUP1 DUP5 ADD SWAP2 POP POP SWAP3 SWAP2 POP POP JUMP JUMPDEST PUSH32 0x206973206D697373696E6720726F6C6520000000000000000000000000000000 PUSH1 0x0 DUP3 ADD MSTORE POP JUMP JUMPDEST PUSH1 0x0 PUSH2 0x1E07 PUSH1 0x11 DUP4 PUSH2 0x1D3E JUMP JUMPDEST SWAP2 POP PUSH2 0x1E12 DUP3 PUSH2 0x1DD1 JUMP JUMPDEST PUSH1 0x11 DUP3 ADD SWAP1 POP SWAP2 SWAP1 POP JUMP JUMPDEST PUSH1 0x0 PUSH2 0x1E28 DUP3 PUSH2 0x1D72 JUMP JUMPDEST SWAP2 POP PUSH2 0x1E34 DUP3 DUP6 PUSH2 0x1DA0 JUMP JUMPDEST SWAP2 POP PUSH2 0x1E3F DUP3 PUSH2 0x1DFA JUMP JUMPDEST SWAP2 POP PUSH2 0x1E4B DUP3 DUP5 PUSH2 0x1DA0 JUMP JUMPDEST SWAP2 POP DUP2 SWAP1 POP SWAP4 SWAP3 POP POP POP JUMP JUMPDEST PUSH1 0x0 PUSH2 0x1E62 DUP3 PUSH2 0x1D95 JUMP JUMPDEST PUSH2 0x1E6C DUP2 DUP6 PUSH2 0x16AD JUMP JUMPDEST SWAP4 POP PUSH2 0x1E7C DUP2 DUP6 PUSH1 0x20 DUP7 ADD PUSH2 0x18FD JUMP JUMPDEST PUSH2 0x1E85 DUP2 PUSH2 0x1106 JUMP JUMPDEST DUP5 ADD SWAP2 POP POP SWAP3 SWAP2 POP POP JUMP JUMPDEST PUSH1 0x0 PUSH1 0x20 DUP3 ADD SWAP1 POP DUP2 DUP2 SUB PUSH1 0x0 DUP4 ADD MSTORE PUSH2 0x1EAA DUP2 DUP5 PUSH2 0x1E57 JUMP JUMPDEST SWAP1 POP SWAP3 SWAP2 POP POP JUMP JUMPDEST PUSH32 0x4E487B7100000000000000000000000000000000000000000000000000000000 PUSH1 0x0 MSTORE PUSH1 0x11 PUSH1 0x4 MSTORE PUSH1 0x24 PUSH1 0x0 REVERT JUMPDEST PUSH1 0x0 PUSH2 0x1EEC DUP3 PUSH2 0x1197 JUMP JUMPDEST SWAP2 POP PUSH2 0x1EF7 DUP4 PUSH2 0x1197 JUMP JUMPDEST SWAP3 POP DUP2 PUSH32 0xFFFFFFFFFFFFFFFFFFFFFFFFFFFFFFFFFFFFFFFFFFFFFFFFFFFFFFFFFFFFFFFF DIV DUP4 GT DUP3 ISZERO ISZERO AND ISZERO PUSH2 0x1F30 JUMPI PUSH2 0x1F2F PUSH2 0x1EB2 JUMP JUMPDEST JUMPDEST DUP3 DUP3 MUL SWAP1 POP SWAP3 SWAP2 POP POP JUMP JUMPDEST PUSH1 0x0 PUSH2 0x1F46 DUP3 PUSH2 0x1197 JUMP JUMPDEST SWAP2 POP PUSH2 0x1F51 DUP4 PUSH2 0x1197 JUMP JUMPDEST SWAP3 POP DUP3 PUSH32 0xFFFFFFFFFFFFFFFFFFFFFFFFFFFFFFFFFFFFFFFFFFFFFFFFFFFFFFFFFFFFFFFF SUB DUP3 GT ISZERO PUSH2 0x1F86 JUMPI PUSH2 0x1F85 PUSH2 0x1EB2 JUMP JUMPDEST JUMPDEST DUP3 DUP3 ADD SWAP1 POP SWAP3 SWAP2 POP POP JUMP JUMPDEST PUSH32 0x4E487B7100000000000000000000000000000000000000000000000000000000 PUSH1 0x0 MSTORE PUSH1 0x32 PUSH1 0x4 MSTORE PUSH1 0x24 PUSH1 0x0 REVERT JUMPDEST PUSH1 0x0 PUSH2 0x1FCB DUP3 PUSH2 0x1197 JUMP JUMPDEST SWAP2 POP PUSH1 0x0 DUP3 EQ ISZERO PUSH2 0x1FDF JUMPI PUSH2 0x1FDE PUSH2 0x1EB2 JUMP JUMPDEST JUMPDEST PUSH1 0x1 DUP3 SUB SWAP1 POP SWAP2 SWAP1 POP JUMP JUMPDEST PUSH32 0x537472696E67733A20686578206C656E67746820696E73756666696369656E74 PUSH1 0x0 DUP3 ADD MSTORE POP JUMP JUMPDEST PUSH1 0x0 PUSH2 0x2020 PUSH1 0x20 DUP4 PUSH2 0x16AD JUMP JUMPDEST SWAP2 POP PUSH2 0x202B DUP3 PUSH2 0x1FEA JUMP JUMPDEST PUSH1 0x20 DUP3 ADD SWAP1 POP SWAP2 SWAP1 POP JUMP JUMPDEST PUSH1 0x0 PUSH1 0x20 DUP3 ADD SWAP1 POP DUP2 DUP2 SUB PUSH1 0x0 DUP4 ADD MSTORE PUSH2 0x204F DUP2 PUSH2 0x2013 JUMP JUMPDEST SWAP1 POP SWAP2 SWAP1 POP JUMP INVALID LOG2 PUSH5 0x6970667358 0x22 SLT KECCAK256 DUP2 SWAP15 0xA8 SWAP9 AND 0x1E SWAP11 SAR PUSH15 0x36757B613371EE3E5B9CE26757D5F7 ORIGIN 0x28 0xDF POP 0xE3 DUP9 INVALID 0xB2 PUSH5 0x736F6C6343 STOP ADDMOD MULMOD STOP CALLER "
        },
        "methodIdentifiers": {
          "DEFAULT_ADMIN_ROLE()": "a217fddf",
          "buyNow()": "9c3962f0",
          "buyNowPrice()": "5ecbdce9",
          "emergencyWithdrawal(address)": "6e353a1d",
          "getBuyNowPrice()": "a5587088",
          "getRoleAdmin(bytes32)": "248a9ca3",
          "grantOwnerRole(address)": "397a8bab",
          "grantRole(bytes32,address)": "2f2ff15d",
          "hasRole(bytes32,address)": "91d14854",
          "marketPlace()": "2e25d2a6",
          "renounceRole(bytes32,address)": "36568abe",
          "revokeRole(bytes32,address)": "d547741f",
          "setBuyNowPrice(uint256)": "dd0b7ffe",
          "setMarketPlace(address)": "30568a8d",
          "setTransactionData((address,uint256,uint256,address,address,address,uint256,uint256,uint8,uint256,uint256,bytes32,uint256,bytes32,bytes32,uint256,(uint256,address)[],bytes))": "539a2c6d",
          "supportsInterface(bytes4)": "01ffc9a7"
        }
      }
    }
  }
}