{"contracts/MoonSaleFactory.sol":{"MoonSaleFactory":{"abi":[{"inputs":[{"internalType":"address","name":"_marketWrapperFactory","type":"address"},{"internalType":"address","name":"_vaultFactory","type":"address"}],"stateMutability":"nonpayable","type":"constructor"},{"anonymous":false,"inputs":[{"indexed":true,"internalType":"bytes32","name":"role","type":"bytes32"},{"indexed":true,"internalType":"bytes32","name":"previousAdminRole","type":"bytes32"},{"indexed":true,"internalType":"bytes32","name":"newAdminRole","type":"bytes32"}],"name":"RoleAdminChanged","type":"event"},{"anonymous":false,"inputs":[{"indexed":true,"internalType":"bytes32","name":"role","type":"bytes32"},{"indexed":true,"internalType":"address","name":"account","type":"address"},{"indexed":true,"internalType":"address","name":"sender","type":"address"}],"name":"RoleGranted","type":"event"},{"anonymous":false,"inputs":[{"indexed":true,"internalType":"bytes32","name":"role","type":"bytes32"},{"indexed":true,"internalType":"address","name":"account","type":"address"},{"indexed":true,"internalType":"address","name":"sender","type":"address"}],"name":"RoleRevoked","type":"event"},{"inputs":[],"name":"DEFAULT_ADMIN_ROLE","outputs":[{"internalType":"bytes32","name":"","type":"bytes32"}],"stateMutability":"view","type":"function"},{"inputs":[{"internalType":"address payable","name":"_newFactory","type":"address"}],"name":"changeMarketWrapperFactory","outputs":[],"stateMutability":"nonpayable","type":"function"},{"inputs":[{"internalType":"address payable","name":"_newFactory","type":"address"}],"name":"changeVaultFactory","outputs":[],"stateMutability":"nonpayable","type":"function"},{"inputs":[{"internalType":"bytes32","name":"role","type":"bytes32"}],"name":"getRoleAdmin","outputs":[{"internalType":"bytes32","name":"","type":"bytes32"}],"stateMutability":"view","type":"function"},{"inputs":[{"internalType":"address","name":"to","type":"address"}],"name":"grantOwnerRole","outputs":[],"stateMutability":"nonpayable","type":"function"},{"inputs":[{"internalType":"bytes32","name":"role","type":"bytes32"},{"internalType":"address","name":"account","type":"address"}],"name":"grantRole","outputs":[],"stateMutability":"nonpayable","type":"function"},{"inputs":[{"internalType":"bytes32","name":"role","type":"bytes32"},{"internalType":"address","name":"account","type":"address"}],"name":"hasRole","outputs":[{"internalType":"bool","name":"","type":"bool"}],"stateMutability":"view","type":"function"},{"inputs":[{"internalType":"uint256","name":"_newClosingTime","type":"uint256"},{"internalType":"string","name":"_fractionalUri","type":"string"},{"internalType":"address","name":"_sale","type":"address"},{"components":[{"components":[{"internalType":"address","name":"considerationToken","type":"address"},{"internalType":"uint256","name":"considerationIdentifier","type":"uint256"},{"internalType":"uint256","name":"considerationAmount","type":"uint256"},{"internalType":"address payable","name":"offerer","type":"address"},{"internalType":"address","name":"zone","type":"address"},{"internalType":"address","name":"offerToken","type":"address"},{"internalType":"uint256","name":"offerIdentifier","type":"uint256"},{"internalType":"uint256","name":"offerAmount","type":"uint256"},{"internalType":"enum BasicOrderType","name":"basicOrderType","type":"uint8"},{"internalType":"uint256","name":"startTime","type":"uint256"},{"internalType":"uint256","name":"endTime","type":"uint256"},{"internalType":"bytes32","name":"zoneHash","type":"bytes32"},{"internalType":"uint256","name":"salt","type":"uint256"},{"internalType":"bytes32","name":"offererConduitKey","type":"bytes32"},{"internalType":"bytes32","name":"fulfillerConduitKey","type":"bytes32"},{"internalType":"uint256","name":"totalOriginalAdditionalRecipients","type":"uint256"},{"components":[{"internalType":"uint256","name":"amount","type":"uint256"},{"internalType":"address payable","name":"recipient","type":"address"}],"internalType":"struct AdditionalRecipient[]","name":"additionalRecipients","type":"tuple[]"},{"internalType":"bytes","name":"signature","type":"bytes"}],"internalType":"struct BasicOrderParameters","name":"orderParams","type":"tuple"},{"internalType":"uint256","name":"buyNowPrice","type":"uint256"},{"internalType":"address","name":"marketPlace","type":"address"}],"internalType":"struct MarketWrapperConstructorParameters","name":"_params","type":"tuple"}],"name":"migration","outputs":[],"stateMutability":"nonpayable","type":"function"},{"inputs":[{"internalType":"uint256","name":"","type":"uint256"}],"name":"moonSales","outputs":[{"internalType":"address","name":"","type":"address"}],"stateMutability":"view","type":"function"},{"inputs":[{"internalType":"uint256","name":"_rate","type":"uint256"},{"internalType":"uint256","name":"_closingTime","type":"uint256"},{"components":[{"components":[{"internalType":"address","name":"considerationToken","type":"address"},{"internalType":"uint256","name":"considerationIdentifier","type":"uint256"},{"internalType":"uint256","name":"considerationAmount","type":"uint256"},{"internalType":"address payable","name":"offerer","type":"address"},{"internalType":"address","name":"zone","type":"address"},{"internalType":"address","name":"offerToken","type":"address"},{"internalType":"uint256","name":"offerIdentifier","type":"uint256"},{"internalType":"uint256","name":"offerAmount","type":"uint256"},{"internalType":"enum BasicOrderType","name":"basicOrderType","type":"uint8"},{"internalType":"uint256","name":"startTime","type":"uint256"},{"internalType":"uint256","name":"endTime","type":"uint256"},{"internalType":"bytes32","name":"zoneHash","type":"bytes32"},{"internalType":"uint256","name":"salt","type":"uint256"},{"internalType":"bytes32","name":"offererConduitKey","type":"bytes32"},{"internalType":"bytes32","name":"fulfillerConduitKey","type":"bytes32"},{"internalType":"uint256","name":"totalOriginalAdditionalRecipients","type":"uint256"},{"components":[{"internalType":"uint256","name":"amount","type":"uint256"},{"internalType":"address payable","name":"recipient","type":"address"}],"internalType":"struct AdditionalRecipient[]","name":"additionalRecipients","type":"tuple[]"},{"internalType":"bytes","name":"signature","type":"bytes"}],"internalType":"struct BasicOrderParameters","name":"orderParams","type":"tuple"},{"internalType":"uint256","name":"buyNowPrice","type":"uint256"},{"internalType":"address","name":"marketPlace","type":"address"}],"internalType":"struct MarketWrapperConstructorParameters","name":"_params","type":"tuple"}],"name":"newMoonSale","outputs":[{"internalType":"address","name":"","type":"address"}],"stateMutability":"nonpayable","type":"function"},{"inputs":[{"internalType":"bytes32","name":"role","type":"bytes32"},{"internalType":"address","name":"account","type":"address"}],"name":"renounceRole","outputs":[],"stateMutability":"nonpayable","type":"function"},{"inputs":[{"internalType":"bytes32","name":"role","type":"bytes32"},{"internalType":"address","name":"account","type":"address"}],"name":"revokeRole","outputs":[],"stateMutability":"nonpayable","type":"function"},{"inputs":[{"internalType":"address","name":"","type":"address"}],"name":"saleMarketWrappers","outputs":[{"internalType":"address","name":"","type":"address"}],"stateMutability":"view","type":"function"},{"inputs":[{"internalType":"address","name":"","type":"address"}],"name":"saleTokens","outputs":[{"internalType":"address","name":"","type":"address"}],"stateMutability":"view","type":"function"},{"inputs":[{"internalType":"address","name":"","type":"address"}],"name":"saleVaults","outputs":[{"internalType":"address","name":"","type":"address"}],"stateMutability":"view","type":"function"},{"inputs":[{"internalType":"bytes4","name":"interfaceId","type":"bytes4"}],"name":"supportsInterface","outputs":[{"internalType":"bool","name":"","type":"bool"}],"stateMutability":"view","type":"function"}],"evm":{"bytecode":{"linkReferences":{},"object":"60806040523480156200001157600080fd5b5060405162005fdd38038062005fdd8339818101604052810190620000379190620002a3565b6200004c6000801b33620000d660201b60201c565b81600560006101000a81548173ffffffffffffffffffffffffffffffffffffffff021916908373ffffffffffffffffffffffffffffffffffffffff16021790555080600660006101000a81548173ffffffffffffffffffffffffffffffffffffffff021916908373ffffffffffffffffffffffffffffffffffffffff1602179055505050620002ea565b620000e88282620001c760201b60201c565b620001c357600160008084815260200190815260200160002060000160008373ffffffffffffffffffffffffffffffffffffffff1673ffffffffffffffffffffffffffffffffffffffff16815260200190815260200160002060006101000a81548160ff021916908315150217905550620001686200023160201b60201c565b73ffffffffffffffffffffffffffffffffffffffff168173ffffffffffffffffffffffffffffffffffffffff16837f2f8788117e7eff1d82e926ec794901d17c78024a50270940304540a733656f0d60405160405180910390a45b5050565b600080600084815260200190815260200160002060000160008373ffffffffffffffffffffffffffffffffffffffff1673ffffffffffffffffffffffffffffffffffffffff16815260200190815260200160002060009054906101000a900460ff16905092915050565b600033905090565b600080fd5b600073ffffffffffffffffffffffffffffffffffffffff82169050919050565b60006200026b826200023e565b9050919050565b6200027d816200025e565b81146200028957600080fd5b50565b6000815190506200029d8162000272565b92915050565b60008060408385031215620002bd57620002bc62000239565b5b6000620002cd858286016200028c565b9250506020620002e0858286016200028c565b9150509250929050565b615ce380620002fa6000396000f3fe60806040523480156200001157600080fd5b5060043610620001185760003560e01c806391d1485411620000a5578063dab2c379116200006f578063dab2c3791462000323578063ea51bd5a1462000359578063f87cc78d1462000379578063fb79d4fb14620003995762000118565b806391d14854146200028b578063a217fddf14620002c1578063c52e1ece14620002e3578063d547741f14620003035762000118565b806336568abe11620000e757806336568abe14620001df578063397a8bab14620001ff57806347d00345146200021f5780636587210714620002555762000118565b806301ffc9a7146200011d578063248a9ca314620001535780632f2ff15d146200018957806331296d6e14620001a9575b600080fd5b6200013b6004803603810190620001359190620018a7565b620003cf565b6040516200014a9190620018f6565b60405180910390f35b6200017160048036038101906200016b91906200194e565b6200044c565b60405162000180919062001991565b60405180910390f35b620001a76004803603810190620001a1919062001a13565b6200046b565b005b620001c76004803603810190620001c1919062001a5a565b62000492565b604051620001d6919062001a9d565b60405180910390f35b620001fd6004803603810190620001f7919062001a13565b620004c5565b005b6200021d600480360381019062000217919062001a5a565b6200054f565b005b6200023d600480360381019062000237919062001b1c565b62000571565b6040516200024c919062001a9d565b60405180910390f35b6200027360048036038101906200026d919062001a5a565b62000e01565b60405162000282919062001a9d565b60405180910390f35b620002a96004803603810190620002a3919062001a13565b62000e34565b604051620002b89190620018f6565b60405180910390f35b620002cb62000e9e565b604051620002da919062001991565b60405180910390f35b620003016004803603810190620002fb919062001cf9565b62000ea5565b005b6200032160048036038101906200031b919062001a13565b62001135565b005b6200034160048036038101906200033b919062001da9565b6200115c565b60405162000350919062001a9d565b60405180910390f35b62000377600480360381019062000371919062001e20565b6200119c565b005b62000397600480360381019062000391919062001e20565b620011f0565b005b620003b76004803603810190620003b1919062001a5a565b62001244565b604051620003c6919062001a9d565b60405180910390f35b60007f7965db0b000000000000000000000000000000000000000000000000000000007bffffffffffffffffffffffffffffffffffffffffffffffffffffffff1916827bffffffffffffffffffffffffffffffffffffffffffffffffffffffff19161480620004455750620004448262001277565b5b9050919050565b6000806000838152602001908152602001600020600101549050919050565b62000476826200044c565b6200048181620012e1565b6200048d8383620012f9565b505050565b60026020528060005260406000206000915054906101000a900473ffffffffffffffffffffffffffffffffffffffff1681565b620004cf620013de565b73ffffffffffffffffffffffffffffffffffffffff168173ffffffffffffffffffffffffffffffffffffffff16146200053f576040517f08c379a0000000000000000000000000000000000000000000000000000000008152600401620005369062001ed9565b60405180910390fd5b6200054b8282620013e6565b5050565b6000801b6200055e81620012e1565b6200056d6000801b83620012f9565b5050565b60008060001b6200058281620012e1565b6000600660009054906101000a900473ffffffffffffffffffffffffffffffffffffffff1673ffffffffffffffffffffffffffffffffffffffff16633b313a326040518163ffffffff1660e01b81526004016020604051808303816000875af1158015620005f4573d6000803e3d6000fd5b505050506040513d601f19601f820116820180604052508101906200061a919062001f12565b90506000600560009054906101000a900473ffffffffffffffffffffffffffffffffffffffff1673ffffffffffffffffffffffffffffffffffffffff166378141b22866040518263ffffffff1660e01b81526004016200067b9190620025da565b6020604051808303816000875af11580156200069b573d6000803e3d6000fd5b505050506040513d601f19601f82011682018060405250810190620006c1919062001f12565b9050600660009054906101000a900473ffffffffffffffffffffffffffffffffffffffff1673ffffffffffffffffffffffffffffffffffffffff16635556f1aa83306040518363ffffffff1660e01b815260040162000722929190620025fe565b600060405180830381600087803b1580156200073d57600080fd5b505af115801562000752573d6000803e3d6000fd5b50505050600560009054906101000a900473ffffffffffffffffffffffffffffffffffffffff1673ffffffffffffffffffffffffffffffffffffffff16635556f1aa82306040518363ffffffff1660e01b8152600401620007b5929190620025fe565b600060405180830381600087803b158015620007d057600080fd5b505af1158015620007e5573d6000803e3d6000fd5b50505050600660009054906101000a900473ffffffffffffffffffffffffffffffffffffffff1673ffffffffffffffffffffffffffffffffffffffff16635556f1aa83336040518363ffffffff1660e01b815260040162000848929190620025fe565b600060405180830381600087803b1580156200086357600080fd5b505af115801562000878573d6000803e3d6000fd5b50505050600560009054906101000a900473ffffffffffffffffffffffffffffffffffffffff1673ffffffffffffffffffffffffffffffffffffffff16635556f1aa82336040518363ffffffff1660e01b8152600401620008db929190620025fe565b600060405180830381600087803b158015620008f657600080fd5b505af11580156200090b573d6000803e3d6000fd5b5050505060006200094b8887806000019062000928919062002630565b60a00160208101906200093c919062001a5a565b428a87878c60200135620014cc565b9050600660009054906101000a900473ffffffffffffffffffffffffffffffffffffffff1673ffffffffffffffffffffffffffffffffffffffff16635556f1aa84836040518363ffffffff1660e01b8152600401620009ac929190620025fe565b600060405180830381600087803b158015620009c757600080fd5b505af1158015620009dc573d6000803e3d6000fd5b50505050600560009054906101000a900473ffffffffffffffffffffffffffffffffffffffff1673ffffffffffffffffffffffffffffffffffffffff16635556f1aa83836040518363ffffffff1660e01b815260040162000a3f929190620025fe565b600060405180830381600087803b15801562000a5a57600080fd5b505af115801562000a6f573d6000803e3d6000fd5b50505050600086806000019062000a87919062002630565b60a001602081019062000a9b919062001a5a565b90508073ffffffffffffffffffffffffffffffffffffffff1663397a8bab836040518263ffffffff1660e01b815260040162000ad8919062001a9d565b600060405180830381600087803b15801562000af357600080fd5b505af115801562000b08573d6000803e3d6000fd5b5050505060008290508073ffffffffffffffffffffffffffffffffffffffff1663397a8bab306040518263ffffffff1660e01b815260040162000b4c919062001a9d565b600060405180830381600087803b15801562000b6757600080fd5b505af115801562000b7c573d6000803e3d6000fd5b505050508073ffffffffffffffffffffffffffffffffffffffff1663397a8bab336040518263ffffffff1660e01b815260040162000bbb919062001a9d565b600060405180830381600087803b15801562000bd657600080fd5b505af115801562000beb573d6000803e3d6000fd5b505050506001839080600181540180825580915050600190039060005260206000200160009091909190916101000a81548173ffffffffffffffffffffffffffffffffffffffff021916908373ffffffffffffffffffffffffffffffffffffffff16021790555087806000019062000c64919062002630565b60a001602081019062000c78919062001a5a565b600260008573ffffffffffffffffffffffffffffffffffffffff1673ffffffffffffffffffffffffffffffffffffffff16815260200190815260200160002060006101000a81548173ffffffffffffffffffffffffffffffffffffffff021916908373ffffffffffffffffffffffffffffffffffffffff16021790555084600360008573ffffffffffffffffffffffffffffffffffffffff1673ffffffffffffffffffffffffffffffffffffffff16815260200190815260200160002060006101000a81548173ffffffffffffffffffffffffffffffffffffffff021916908373ffffffffffffffffffffffffffffffffffffffff16021790555083600460008573ffffffffffffffffffffffffffffffffffffffff1673ffffffffffffffffffffffffffffffffffffffff16815260200190815260200160002060006101000a81548173ffffffffffffffffffffffffffffffffffffffff021916908373ffffffffffffffffffffffffffffffffffffffff1602179055508296505050505050509392505050565b60046020528060005260406000206000915054906101000a900473ffffffffffffffffffffffffffffffffffffffff1681565b600080600084815260200190815260200160002060000160008373ffffffffffffffffffffffffffffffffffffffff1673ffffffffffffffffffffffffffffffffffffffff16815260200190815260200160002060009054906101000a900460ff16905092915050565b6000801b81565b6000801b62000eb481620012e1565b6000600260008573ffffffffffffffffffffffffffffffffffffffff1673ffffffffffffffffffffffffffffffffffffffff16815260200190815260200160002060009054906101000a900473ffffffffffffffffffffffffffffffffffffffff169050600073ffffffffffffffffffffffffffffffffffffffff168173ffffffffffffffffffffffffffffffffffffffff160362000f5257600080fd5b60008190508073ffffffffffffffffffffffffffffffffffffffff1663d926a5dd85806000019062000f85919062002630565b60c00135886040518363ffffffff1660e01b815260040162000fa9929190620026ef565b600060405180830381600087803b15801562000fc457600080fd5b505af115801562000fd9573d6000803e3d6000fd5b505050506000600460008773ffffffffffffffffffffffffffffffffffffffff1673ffffffffffffffffffffffffffffffffffffffff16815260200190815260200160002060009054906101000a900473ffffffffffffffffffffffffffffffffffffffff1690508073ffffffffffffffffffffffffffffffffffffffff16632c5a0a13866040518263ffffffff1660e01b81526004016200107c9190620025da565b600060405180830381600087803b1580156200109757600080fd5b505af1158015620010ac573d6000803e3d6000fd5b5050505060008690508073ffffffffffffffffffffffffffffffffffffffff1663a4bf26b68a88602001356040518363ffffffff1660e01b8152600401620010f692919062002723565b600060405180830381600087803b1580156200111157600080fd5b505af115801562001126573d6000803e3d6000fd5b50505050505050505050505050565b62001140826200044c565b6200114b81620012e1565b620011578383620013e6565b505050565b600181815481106200116d57600080fd5b906000526020600020016000915054906101000a900473ffffffffffffffffffffffffffffffffffffffff1681565b6000801b620011ab81620012e1565b81600660006101000a81548173ffffffffffffffffffffffffffffffffffffffff021916908373ffffffffffffffffffffffffffffffffffffffff1602179055505050565b6000801b620011ff81620012e1565b81600560006101000a81548173ffffffffffffffffffffffffffffffffffffffff021916908373ffffffffffffffffffffffffffffffffffffffff1602179055505050565b60036020528060005260406000206000915054906101000a900473ffffffffffffffffffffffffffffffffffffffff1681565b60007f01ffc9a7000000000000000000000000000000000000000000000000000000007bffffffffffffffffffffffffffffffffffffffffffffffffffffffff1916827bffffffffffffffffffffffffffffffffffffffffffffffffffffffff1916149050919050565b620012f681620012f0620013de565b62001525565b50565b62001305828262000e34565b620013da57600160008084815260200190815260200160002060000160008373ffffffffffffffffffffffffffffffffffffffff1673ffffffffffffffffffffffffffffffffffffffff16815260200190815260200160002060006101000a81548160ff0219169083151502179055506200137f620013de565b73ffffffffffffffffffffffffffffffffffffffff168173ffffffffffffffffffffffffffffffffffffffff16837f2f8788117e7eff1d82e926ec794901d17c78024a50270940304540a733656f0d60405160405180910390a45b5050565b600033905090565b620013f2828262000e34565b15620014c857600080600084815260200190815260200160002060000160008373ffffffffffffffffffffffffffffffffffffffff1673ffffffffffffffffffffffffffffffffffffffff16815260200190815260200160002060006101000a81548160ff0219169083151502179055506200146d620013de565b73ffffffffffffffffffffffffffffffffffffffff168173ffffffffffffffffffffffffffffffffffffffff16837ff6391f5c32d9c69d2a47ea670b442974b53935d1edc7fd64eb21e047a839171b60405160405180910390a45b5050565b60008088888888888888604051620014e49062001828565b620014f6979695949392919062002761565b604051809103906000f08015801562001513573d6000803e3d6000fd5b50905080915050979650505050505050565b62001531828262000e34565b620015c957620015598173ffffffffffffffffffffffffffffffffffffffff166014620015cd565b620015698360001c6020620015cd565b6040516020016200157c929190620028c0565b6040516020818303038152906040526040517f08c379a0000000000000000000000000000000000000000000000000000000008152600401620015c0919062002902565b60405180910390fd5b5050565b606060006002836002620015e2919062002955565b620015ee9190620029b6565b67ffffffffffffffff8111156200160a576200160962001bb2565b5b6040519080825280601f01601f1916602001820160405280156200163d5781602001600182028036833780820191505090505b5090507f30000000000000000000000000000000000000000000000000000000000000008160008151811062001678576200167762002a13565b5b60200101907effffffffffffffffffffffffffffffffffffffffffffffffffffffffffffff1916908160001a9053507f780000000000000000000000000000000000000000000000000000000000000081600181518110620016df57620016de62002a13565b5b60200101907effffffffffffffffffffffffffffffffffffffffffffffffffffffffffffff1916908160001a9053506000600184600262001721919062002955565b6200172d9190620029b6565b90505b6001811115620017d7577f3031323334353637383961626364656600000000000000000000000000000000600f86166010811062001773576200177262002a13565b5b1a60f81b8282815181106200178d576200178c62002a13565b5b60200101907effffffffffffffffffffffffffffffffffffffffffffffffffffffffffffff1916908160001a905350600485901c945080620017cf9062002a42565b905062001730565b50600084146200181e576040517f08c379a0000000000000000000000000000000000000000000000000000000008152600401620018159062002ac0565b60405180910390fd5b8091505092915050565b6131cb8062002ae383390190565b6000604051905090565b600080fd5b600080fd5b60007fffffffff0000000000000000000000000000000000000000000000000000000082169050919050565b62001881816200184a565b81146200188d57600080fd5b50565b600081359050620018a18162001876565b92915050565b600060208284031215620018c057620018bf62001840565b5b6000620018d08482850162001890565b91505092915050565b60008115159050919050565b620018f081620018d9565b82525050565b60006020820190506200190d6000830184620018e5565b92915050565b6000819050919050565b620019288162001913565b81146200193457600080fd5b50565b60008135905062001948816200191d565b92915050565b60006020828403121562001967576200196662001840565b5b6000620019778482850162001937565b91505092915050565b6200198b8162001913565b82525050565b6000602082019050620019a8600083018462001980565b92915050565b600073ffffffffffffffffffffffffffffffffffffffff82169050919050565b6000620019db82620019ae565b9050919050565b620019ed81620019ce565b8114620019f957600080fd5b50565b60008135905062001a0d81620019e2565b92915050565b6000806040838503121562001a2d5762001a2c62001840565b5b600062001a3d8582860162001937565b925050602062001a5085828601620019fc565b9150509250929050565b60006020828403121562001a735762001a7262001840565b5b600062001a8384828501620019fc565b91505092915050565b62001a9781620019ce565b82525050565b600060208201905062001ab4600083018462001a8c565b92915050565b6000819050919050565b62001acf8162001aba565b811462001adb57600080fd5b50565b60008135905062001aef8162001ac4565b92915050565b600080fd5b60006060828403121562001b135762001b1262001af5565b5b81905092915050565b60008060006060848603121562001b385762001b3762001840565b5b600062001b488682870162001ade565b935050602062001b5b8682870162001ade565b925050604084013567ffffffffffffffff81111562001b7f5762001b7e62001845565b5b62001b8d8682870162001afa565b9150509250925092565b600080fd5b600080fd5b6000601f19601f8301169050919050565b7f4e487b7100000000000000000000000000000000000000000000000000000000600052604160045260246000fd5b62001bec8262001ba1565b810181811067ffffffffffffffff8211171562001c0e5762001c0d62001bb2565b5b80604052505050565b600062001c2362001836565b905062001c31828262001be1565b919050565b600067ffffffffffffffff82111562001c545762001c5362001bb2565b5b62001c5f8262001ba1565b9050602081019050919050565b82818337600083830152505050565b600062001c9262001c8c8462001c36565b62001c17565b90508281526020810184848401111562001cb15762001cb062001b9c565b5b62001cbe84828562001c6c565b509392505050565b600082601f83011262001cde5762001cdd62001b97565b5b813562001cf084826020860162001c7b565b91505092915050565b6000806000806080858703121562001d165762001d1562001840565b5b600062001d268782880162001ade565b945050602085013567ffffffffffffffff81111562001d4a5762001d4962001845565b5b62001d588782880162001cc6565b935050604062001d6b87828801620019fc565b925050606085013567ffffffffffffffff81111562001d8f5762001d8e62001845565b5b62001d9d8782880162001afa565b91505092959194509250565b60006020828403121562001dc25762001dc162001840565b5b600062001dd28482850162001ade565b91505092915050565b600062001de882620019ae565b9050919050565b62001dfa8162001ddb565b811462001e0657600080fd5b50565b60008135905062001e1a8162001def565b92915050565b60006020828403121562001e395762001e3862001840565b5b600062001e498482850162001e09565b91505092915050565b600082825260208201905092915050565b7f416363657373436f6e74726f6c3a2063616e206f6e6c792072656e6f756e636560008201527f20726f6c657320666f722073656c660000000000000000000000000000000000602082015250565b600062001ec1602f8362001e52565b915062001ece8262001e63565b604082019050919050565b6000602082019050818103600083015262001ef48162001eb2565b9050919050565b60008151905062001f0c81620019e2565b92915050565b60006020828403121562001f2b5762001f2a62001840565b5b600062001f3b8482850162001efb565b91505092915050565b600080fd5b6000823560016102400383360303811262001f695762001f6862001f44565b5b82810191505092915050565b600062001f866020840184620019fc565b905092915050565b62001f9981620019ce565b82525050565b600062001fb0602084018462001ade565b905092915050565b62001fc38162001aba565b82525050565b600062001fda602084018462001e09565b905092915050565b62001fed8162001ddb565b82525050565b601881106200200157600080fd5b50565b600081359050620020158162001ff3565b92915050565b60006200202c602084018462002004565b905092915050565b7f4e487b7100000000000000000000000000000000000000000000000000000000600052602160045260246000fd5b6018811062002077576200207662002034565b5b50565b60008190506200208a8262002063565b919050565b60006200209c826200207a565b9050919050565b620020ae816200208f565b82525050565b6000620020c5602084018462001937565b905092915050565b620020d88162001913565b82525050565b600080fd5b600080fd5b6000808335600160200384360303811262002108576200210762001f44565b5b83810192508235915060208301925067ffffffffffffffff821115620021335762002132620020de565b5b6040820236038413156200214c576200214b620020e3565b5b509250929050565b600082825260208201905092915050565b6000819050919050565b6040820162002182600083018362001f9f565b62002191600085018262001fb8565b50620021a1602083018362001fc9565b620021b0602085018262001fe2565b50505050565b6000620021c483836200216f565b60408301905092915050565b600082905092915050565b6000604082019050919050565b6000620021f6838562002154565b9350620022038262002165565b8060005b8581101562002244576200221c8284620021d0565b620022288882620021b6565b97506200223583620021db565b92505060018101905062002207565b5085925050509392505050565b6000808335600160200384360303811262002271576200227062001f44565b5b83810192508235915060208301925067ffffffffffffffff8211156200229c576200229b620020de565b5b600182023603841315620022b557620022b4620020e3565b5b509250929050565b600082825260208201905092915050565b6000620022dc8385620022bd565b9350620022eb83858462001c6c565b620022f68362001ba1565b840190509392505050565b6000610240830162002317600084018462001f75565b62002326600086018262001f8e565b5062002336602084018462001f9f565b62002345602086018262001fb8565b5062002355604084018462001f9f565b62002364604086018262001fb8565b5062002374606084018462001fc9565b62002383606086018262001fe2565b5062002393608084018462001f75565b620023a2608086018262001f8e565b50620023b260a084018462001f75565b620023c160a086018262001f8e565b50620023d160c084018462001f9f565b620023e060c086018262001fb8565b50620023f060e084018462001f9f565b620023ff60e086018262001fb8565b50620024106101008401846200201b565b62002420610100860182620020a3565b506200243161012084018462001f9f565b6200244161012086018262001fb8565b506200245261014084018462001f9f565b6200246261014086018262001fb8565b5062002473610160840184620020b4565b62002483610160860182620020cd565b506200249461018084018462001f9f565b620024a461018086018262001fb8565b50620024b56101a0840184620020b4565b620024c56101a0860182620020cd565b50620024d66101c0840184620020b4565b620024e66101c0860182620020cd565b50620024f76101e084018462001f9f565b620025076101e086018262001fb8565b5062002518610200840184620020e8565b8583036102008701526200252e838284620021e8565b925050506200254261022084018462002251565b85830361022087015262002558838284620022ce565b925050508091505092915050565b6000606083016200257b600084018462001f49565b84820360008601526200258f828262002301565b915050620025a1602084018462001f9f565b620025b0602086018262001fb8565b50620025c0604084018462001f75565b620025cf604086018262001f8e565b508091505092915050565b60006020820190508181036000830152620025f6818462002566565b905092915050565b600060408201905062002615600083018562001a8c565b62002624602083018462001a8c565b9392505050565b600080fd5b6000823560016102400383360303811262002650576200264f6200262b565b5b80830191505092915050565b620026678162001aba565b82525050565b600081519050919050565b60005b83811015620026985780820151818401526020810190506200267b565b83811115620026a8576000848401525b50505050565b6000620026bb826200266d565b620026c7818562001e52565b9350620026d981856020860162002678565b620026e48162001ba1565b840191505092915050565b60006040820190506200270660008301856200265c565b81810360208301526200271a8184620026ae565b90509392505050565b60006040820190506200273a60008301856200265c565b6200274960208301846200265c565b9392505050565b6200275b8162001ddb565b82525050565b600060e08201905062002778600083018a6200265c565b62002787602083018962001a8c565b6200279660408301886200265c565b620027a560608301876200265c565b620027b4608083018662002750565b620027c360a083018562002750565b620027d260c08301846200265c565b98975050505050505050565b600081905092915050565b7f416363657373436f6e74726f6c3a206163636f756e7420000000000000000000600082015250565b600062002821601783620027de565b91506200282e82620027e9565b601782019050919050565b600062002846826200266d565b620028528185620027de565b93506200286481856020860162002678565b80840191505092915050565b7f206973206d697373696e6720726f6c6520000000000000000000000000000000600082015250565b6000620028a8601183620027de565b9150620028b58262002870565b601182019050919050565b6000620028cd8262002812565b9150620028db828562002839565b9150620028e88262002899565b9150620028f6828462002839565b91508190509392505050565b600060208201905081810360008301526200291e8184620026ae565b905092915050565b7f4e487b7100000000000000000000000000000000000000000000000000000000600052601160045260246000fd5b6000620029628262001aba565b91506200296f8362001aba565b9250817fffffffffffffffffffffffffffffffffffffffffffffffffffffffffffffffff0483118215151615620029ab57620029aa62002926565b5b828202905092915050565b6000620029c38262001aba565b9150620029d08362001aba565b9250827fffffffffffffffffffffffffffffffffffffffffffffffffffffffffffffffff0382111562002a085762002a0762002926565b5b828201905092915050565b7f4e487b7100000000000000000000000000000000000000000000000000000000600052603260045260246000fd5b600062002a4f8262001aba565b91506000820362002a655762002a6462002926565b5b600182039050919050565b7f537472696e67733a20686578206c656e67746820696e73756666696369656e74600082015250565b600062002aa860208362001e52565b915062002ab58262002a70565b602082019050919050565b6000602082019050818103600083015262002adb8162002a99565b905091905056fe6080604052600060075560006008553480156200001b57600080fd5b50604051620031cb380380620031cb83398181016040528101906200004191906200048b565b868686866001808190555060018410156200005b57600080fd5b600073ffffffffffffffffffffffffffffffffffffffff168373ffffffffffffffffffffffffffffffffffffffff16036200009557600080fd5b818111620000a257600080fd5b620000b76000801b33620001fe60201b60201c565b8360038190555082600260006101000a81548173ffffffffffffffffffffffffffffffffffffffff021916908373ffffffffffffffffffffffffffffffffffffffff16021790555081600481905550806005819055505050505082600660016101000a81548173ffffffffffffffffffffffffffffffffffffffff021916908373ffffffffffffffffffffffffffffffffffffffff16021790555081600b60006101000a81548173ffffffffffffffffffffffffffffffffffffffff021916908373ffffffffffffffffffffffffffffffffffffffff16021790555080600c819055506014600c54620001ab91906200059c565b600d81905550620001eb600d54600c54620001c79190620005d4565b600354670de0b6b3a7640000620001df91906200059c565b620002ef60201b60201c565b600e8190555050505050505050620006cd565b6200021082826200032f60201b60201c565b620002eb57600160008084815260200190815260200160002060000160008373ffffffffffffffffffffffffffffffffffffffff1673ffffffffffffffffffffffffffffffffffffffff16815260200190815260200160002060006101000a81548160ff021916908315150217905550620002906200039960201b60201c565b73ffffffffffffffffffffffffffffffffffffffff168173ffffffffffffffffffffffffffffffffffffffff16837f2f8788117e7eff1d82e926ec794901d17c78024a50270940304540a733656f0d60405160405180910390a45b5050565b6000818260018486620003039190620005d4565b6200030f919062000631565b6200031b91906200059c565b6200032791906200066c565b905092915050565b600080600084815260200190815260200160002060000160008373ffffffffffffffffffffffffffffffffffffffff1673ffffffffffffffffffffffffffffffffffffffff16815260200190815260200160002060009054906101000a900460ff16905092915050565b600033905090565b600080fd5b6000819050919050565b620003bb81620003a6565b8114620003c757600080fd5b50565b600081519050620003db81620003b0565b92915050565b600073ffffffffffffffffffffffffffffffffffffffff82169050919050565b60006200040e82620003e1565b9050919050565b620004208162000401565b81146200042c57600080fd5b50565b600081519050620004408162000415565b92915050565b60006200045382620003e1565b9050919050565b620004658162000446565b81146200047157600080fd5b50565b60008151905062000485816200045a565b92915050565b600080600080600080600060e0888a031215620004ad57620004ac620003a1565b5b6000620004bd8a828b01620003ca565b9750506020620004d08a828b016200042f565b9650506040620004e38a828b01620003ca565b9550506060620004f68a828b01620003ca565b9450506080620005098a828b0162000474565b93505060a06200051c8a828b0162000474565b92505060c06200052f8a828b01620003ca565b91505092959891949750929550565b7f4e487b7100000000000000000000000000000000000000000000000000000000600052601260045260246000fd5b7f4e487b7100000000000000000000000000000000000000000000000000000000600052601160045260246000fd5b6000620005a982620003a6565b9150620005b683620003a6565b925082620005c957620005c86200053e565b5b828204905092915050565b6000620005e182620003a6565b9150620005ee83620003a6565b9250827fffffffffffffffffffffffffffffffffffffffffffffffffffffffffffffffff038211156200062657620006256200056d565b5b828201905092915050565b60006200063e82620003a6565b91506200064b83620003a6565b9250828210156200066157620006606200056d565b5b828203905092915050565b60006200067982620003a6565b91506200068683620003a6565b9250817fffffffffffffffffffffffffffffffffffffffffffffffffffffffffffffffff0483118215151615620006c257620006c16200056d565b5b828202905092915050565b612aee80620006dd6000396000f3fe6080604052600436106101bb5760003560e01c80637a37ac26116100ec578063c19d93fb1161008a578063d547741f11610064578063d547741f146105e3578063ef38bf011461060c578063fbfa77cf14610637578063fc0c546a14610662576101cf565b8063c19d93fb14610562578063c392f7661461058d578063c97f8d6e146105b8576101cf565b8063a217fddf116100c6578063a217fddf146104c7578063a4bf26b6146104f2578063b7a8807c1461051b578063bbdc907714610546576101cf565b80637a37ac26146104485780638433acd11461047357806391d148541461048a576101cf565b8063397a8bab11610159578063590e1ae311610133578063590e1ae3146103bc57806361c9d81c146103c65780636e353a1d146103ef57806374d00f671461040b576101cf565b8063397a8bab1461033d57806340193883146103665780634b6753bc14610391576101cf565b80632c4e722e116101955780632c4e722e146102835780632f2ff15d146102ae57806331f36bd9146102d757806336568abe14610314576101cf565b806301ffc9a7146101de5780630c3ca20f1461021b578063248a9ca314610246576101cf565b366101cf576000801b6101cd8161068d565b005b6000801b6101dc8161068d565b005b3480156101ea57600080fd5b5061020560048036038101906102009190611d8f565b6106a1565b6040516102129190611dd7565b60405180910390f35b34801561022757600080fd5b5061023061071b565b60405161023d9190611e0b565b60405180910390f35b34801561025257600080fd5b5061026d60048036038101906102689190611e5c565b610721565b60405161027a9190611e98565b60405180910390f35b34801561028f57600080fd5b50610298610740565b6040516102a59190611e0b565b60405180910390f35b3480156102ba57600080fd5b506102d560048036038101906102d09190611f11565b610746565b005b3480156102e357600080fd5b506102fe60048036038101906102f99190611f7d565b610767565b60405161030b9190611e0b565b60405180910390f35b34801561032057600080fd5b5061033b60048036038101906103369190611f11565b61078c565b005b34801561034957600080fd5b50610364600480360381019061035f9190611fbd565b61080f565b005b34801561037257600080fd5b5061037b61082d565b6040516103889190611e0b565b60405180910390f35b34801561039d57600080fd5b506103a6610833565b6040516103b39190611e0b565b60405180910390f35b6103c4610839565b005b3480156103d257600080fd5b506103ed60048036038101906103e89190612028565b61097b565b005b61040960048036038101906104049190612028565b610acc565b005b34801561041757600080fd5b50610432600480360381019061042d9190611fbd565b610b8a565b60405161043f9190611e0b565b60405180910390f35b34801561045457600080fd5b5061045d610ba2565b60405161046a9190611e0b565b60405180910390f35b34801561047f57600080fd5b50610488610ba8565b005b34801561049657600080fd5b506104b160048036038101906104ac9190611f11565b610e7c565b6040516104be9190611dd7565b60405180910390f35b3480156104d357600080fd5b506104dc610ee6565b6040516104e99190611e98565b60405180910390f35b3480156104fe57600080fd5b5061051960048036038101906105149190612055565b610eed565b005b34801561052757600080fd5b506105306110ac565b60405161053d9190611e0b565b60405180910390f35b610560600480360381019061055b91906120c1565b6110b2565b005b34801561056e57600080fd5b5061057761118b565b6040516105849190612178565b60405180910390f35b34801561059957600080fd5b506105a261119e565b6040516105af9190611e0b565b60405180910390f35b3480156105c457600080fd5b506105cd6111a4565b6040516105da9190611e0b565b60405180910390f35b3480156105ef57600080fd5b5061060a60048036038101906106059190611f11565b6111aa565b005b34801561061857600080fd5b506106216111cb565b60405161062e91906121f2565b60405180910390f35b34801561064357600080fd5b5061064c6111f1565b604051610659919061222e565b60405180910390f35b34801561066e57600080fd5b50610677611217565b604051610684919061227c565b60405180910390f35b61069e8161069961123d565b611245565b50565b60007f7965db0b000000000000000000000000000000000000000000000000000000007bffffffffffffffffffffffffffffffffffffffffffffffffffffffff1916827bffffffffffffffffffffffffffffffffffffffffffffffffffffffff191614806107145750610713826112e2565b5b9050919050565b60075481565b6000806000838152602001908152602001600020600101549050919050565b60035481565b61074f82610721565b6107588161068d565b610762838361134c565b505050565b6009602052816000526040600020602052806000526040600020600091509150505481565b61079461123d565b73ffffffffffffffffffffffffffffffffffffffff168173ffffffffffffffffffffffffffffffffffffffff1614610801576040517f08c379a00000000000000000000000000000000000000000000000000000000081526004016107f89061231a565b60405180910390fd5b61080b828261142c565b5050565b6000801b61081c8161068d565b6108296000801b8361134c565b5050565b600e5481565b60055481565b60026001540361087e576040517f08c379a000000000000000000000000000000000000000000000000000000000815260040161087590612386565b60405180910390fd5b6002600181905550600060096000600854815260200190815260200160002060003373ffffffffffffffffffffffffffffffffffffffff1673ffffffffffffffffffffffffffffffffffffffff16815260200190815260200160002054146108e557600080fd5b600660019054906101000a900473ffffffffffffffffffffffffffffffffffffffff1673ffffffffffffffffffffffffffffffffffffffff1663fa89401a336040518263ffffffff1660e01b815260040161094091906123b5565b600060405180830381600087803b15801561095a57600080fd5b505af115801561096e573d6000803e3d6000fd5b5050505060018081905550565b6000801b6109888161068d565b6002600154036109cd576040517f08c379a00000000000000000000000000000000000000000000000000000000081526004016109c490612386565b60405180910390fd5b60026001819055506001808111156109e8576109e7612101565b5b600660009054906101000a900460ff166001811115610a0a57610a09612101565b5b14610a1457600080fd5b60008273ffffffffffffffffffffffffffffffffffffffff1647604051610a3a90612401565b60006040518083038185875af1925050503d8060008114610a77576040519150601f19603f3d011682016040523d82523d6000602084013e610a7c565b606091505b5050905080610ac0576040517f08c379a0000000000000000000000000000000000000000000000000000000008152600401610ab790612462565b60405180910390fd5b50600180819055505050565b6000801b610ad98161068d565b60008273ffffffffffffffffffffffffffffffffffffffff1647604051610aff90612401565b60006040518083038185875af1925050503d8060008114610b3c576040519150601f19603f3d011682016040523d82523d6000602084013e610b41565b606091505b5050905080610b85576040517f08c379a0000000000000000000000000000000000000000000000000000000008152600401610b7c90612462565b60405180910390fd5b505050565b600a6020528060005260406000206000915090505481565b60085481565b600260015403610bed576040517f08c379a0000000000000000000000000000000000000000000000000000000008152600401610be490612386565b60405180910390fd5b6002600181905550600180811115610c0857610c07612101565b5b600660009054906101000a900460ff166001811115610c2a57610c29612101565b5b14610c3457600080fd5b6000600a60003373ffffffffffffffffffffffffffffffffffffffff1673ffffffffffffffffffffffffffffffffffffffff1681526020019081526020016000205460096000600854815260200190815260200160002060003373ffffffffffffffffffffffffffffffffffffffff1673ffffffffffffffffffffffffffffffffffffffff16815260200190815260200160002054610cd391906124b1565b905060008111610ce257600080fd5b600660019054906101000a900473ffffffffffffffffffffffffffffffffffffffff1673ffffffffffffffffffffffffffffffffffffffff16630a2f487b3360096000600854815260200190815260200160002060003373ffffffffffffffffffffffffffffffffffffffff1673ffffffffffffffffffffffffffffffffffffffff168152602001908152602001600020546040518363ffffffff1660e01b8152600401610d91929190612516565b600060405180830381600087803b158015610dab57600080fd5b505af1158015610dbf573d6000803e3d6000fd5b50505050600060096000600854815260200190815260200160002060003373ffffffffffffffffffffffffffffffffffffffff1673ffffffffffffffffffffffffffffffffffffffff168152602001908152602001600020819055506000600a60003373ffffffffffffffffffffffffffffffffffffffff1673ffffffffffffffffffffffffffffffffffffffff16815260200190815260200160002081905550610e7233610e6d8361150d565b61152b565b5060018081905550565b600080600084815260200190815260200160002060000160008373ffffffffffffffffffffffffffffffffffffffff1673ffffffffffffffffffffffffffffffffffffffff16815260200190815260200160002060009054906101000a900460ff16905092915050565b6000801b81565b60006001811115610f0157610f00612101565b5b600660009054906101000a900460ff166001811115610f2357610f22612101565b5b14610f2d57600080fd5b6000801b610f3a8161068d565b6004548311610f4857600080fd5b81600c819055506014600c54610f5e919061256e565b600d81905550610f92600d54600c54610f7791906124b1565b600354670de0b6b3a7640000610f8d919061256e565b6115d1565b600e819055506000600660019054906101000a900473ffffffffffffffffffffffffffffffffffffffff16905060008173ffffffffffffffffffffffffffffffffffffffff16600754604051610fe790612401565b60006040518083038185875af1925050503d8060008114611024576040519150601f19603f3d011682016040523d82523d6000602084013e611029565b606091505b505090508061106d576040517f08c379a0000000000000000000000000000000000000000000000000000000008152600401611064906125eb565b60405180910390fd5b600060078190555060016008600082825461108891906124b1565b9250508190555042600481905550846005819055506110a5611609565b5050505050565b60045481565b6002600154036110f7576040517f08c379a00000000000000000000000000000000000000000000000000000000081526004016110ee90612386565b60405180910390fd5b6002600181905550600034905061110e8382611886565b60006111198261150d565b9050611126848385611910565b8373ffffffffffffffffffffffffffffffffffffffff167fcd60aa75dea3072fbc07ae6d7d856b5dc5f4eee88854f5b4abf7b680ef8bc50f838360405161116e92919061260b565b60405180910390a261117e611609565b5050600180819055505050565b600660009054906101000a900460ff1681565b600d5481565b600c5481565b6111b382610721565b6111bc8161068d565b6111c6838361142c565b505050565b600b60009054906101000a900473ffffffffffffffffffffffffffffffffffffffff1681565b600660019054906101000a900473ffffffffffffffffffffffffffffffffffffffff1681565b600260009054906101000a900473ffffffffffffffffffffffffffffffffffffffff1681565b600033905090565b61124f8282610e7c565b6112de576112748173ffffffffffffffffffffffffffffffffffffffff166014611a88565b6112828360001c6020611a88565b604051602001611293929190612746565b6040516020818303038152906040526040517f08c379a00000000000000000000000000000000000000000000000000000000081526004016112d591906127ca565b60405180910390fd5b5050565b60007f01ffc9a7000000000000000000000000000000000000000000000000000000007bffffffffffffffffffffffffffffffffffffffffffffffffffffffff1916827bffffffffffffffffffffffffffffffffffffffffffffffffffffffff1916149050919050565b6113568282610e7c565b61142857600160008084815260200190815260200160002060000160008373ffffffffffffffffffffffffffffffffffffffff1673ffffffffffffffffffffffffffffffffffffffff16815260200190815260200160002060006101000a81548160ff0219169083151502179055506113cd61123d565b73ffffffffffffffffffffffffffffffffffffffff168173ffffffffffffffffffffffffffffffffffffffff16837f2f8788117e7eff1d82e926ec794901d17c78024a50270940304540a733656f0d60405160405180910390a45b5050565b6114368282610e7c565b1561150957600080600084815260200190815260200160002060000160008373ffffffffffffffffffffffffffffffffffffffff1673ffffffffffffffffffffffffffffffffffffffff16815260200190815260200160002060006101000a81548160ff0219169083151502179055506114ae61123d565b73ffffffffffffffffffffffffffffffffffffffff168173ffffffffffffffffffffffffffffffffffffffff16837ff6391f5c32d9c69d2a47ea670b442974b53935d1edc7fd64eb21e047a839171b60405160405180910390a45b5050565b600061152460035483611cc490919063ffffffff16565b9050919050565b600260009054906101000a900473ffffffffffffffffffffffffffffffffffffffff1673ffffffffffffffffffffffffffffffffffffffff166340c10f1983670de0b6b3a76400008461157e919061256e565b6040518363ffffffff1660e01b815260040161159b929190612516565b600060405180830381600087803b1580156115b557600080fd5b505af11580156115c9573d6000803e3d6000fd5b505050505050565b60008182600184866115e391906124b1565b6115ed91906127ec565b6115f7919061256e565b6116019190612820565b905092915050565b600d54600c5461161991906124b1565b4710611884576000600b60009054906101000a900473ffffffffffffffffffffffffffffffffffffffff16905060008173ffffffffffffffffffffffffffffffffffffffff16600c5460405161166e90612401565b60006040518083038185875af1925050503d80600081146116ab576040519150601f19603f3d011682016040523d82523d6000602084013e6116b0565b606091505b50509050806116f4576040517f08c379a00000000000000000000000000000000000000000000000000000000081526004016116eb906128c6565b60405180910390fd5b6000600b60009054906101000a900473ffffffffffffffffffffffffffffffffffffffff1673ffffffffffffffffffffffffffffffffffffffff16639c3962f06040518163ffffffff1660e01b81526004016020604051808303816000875af1158015611765573d6000803e3d6000fd5b505050506040513d601f19601f8201168201806040525081019061178991906128fb565b9050806117cb576040517f08c379a00000000000000000000000000000000000000000000000000000000081526004016117c290612974565b60405180910390fd5b6000600781905550600660019054906101000a900473ffffffffffffffffffffffffffffffffffffffff1673ffffffffffffffffffffffffffffffffffffffff166343d726d66040518163ffffffff1660e01b8152600401600060405180830381600087803b15801561183d57600080fd5b505af1158015611851573d6000803e3d6000fd5b505050506001600660006101000a81548160ff0219169083600181111561187b5761187a612101565b5b02179055505050505b565b6118908282611cda565b600060018111156118a4576118a3612101565b5b600660009054906101000a900460ff1660018111156118c6576118c5612101565b5b146118d057600080fd5b6000600354670de0b6b3a76400006118e8919061256e565b826118f39190612994565b146118fd57600080fd5b600e5447111561190c57600080fd5b5050565b8015611a2c578160096000600854815260200190815260200160002060008573ffffffffffffffffffffffffffffffffffffffff1673ffffffffffffffffffffffffffffffffffffffff168152602001908152602001600020600082825461197891906124b1565b92505081905550600660019054906101000a900473ffffffffffffffffffffffffffffffffffffffff1673ffffffffffffffffffffffffffffffffffffffff16636f485d6c84846040518363ffffffff1660e01b81526004016119dc929190612516565b600060405180830381600087803b1580156119f657600080fd5b505af1158015611a0a573d6000803e3d6000fd5b505050508160076000828254611a2091906124b1565b92505081905550611a83565b81600a60008573ffffffffffffffffffffffffffffffffffffffff1673ffffffffffffffffffffffffffffffffffffffff1681526020019081526020016000206000828254611a7b91906124b1565b925050819055505b505050565b606060006002836002611a9b9190612820565b611aa591906124b1565b67ffffffffffffffff811115611abe57611abd6129c5565b5b6040519080825280601f01601f191660200182016040528015611af05781602001600182028036833780820191505090505b5090507f300000000000000000000000000000000000000000000000000000000000000081600081518110611b2857611b276129f4565b5b60200101907effffffffffffffffffffffffffffffffffffffffffffffffffffffffffffff1916908160001a9053507f780000000000000000000000000000000000000000000000000000000000000081600181518110611b8c57611b8b6129f4565b5b60200101907effffffffffffffffffffffffffffffffffffffffffffffffffffffffffffff1916908160001a90535060006001846002611bcc9190612820565b611bd691906124b1565b90505b6001811115611c76577f3031323334353637383961626364656600000000000000000000000000000000600f861660108110611c1857611c176129f4565b5b1a60f81b828281518110611c2f57611c2e6129f4565b5b60200101907effffffffffffffffffffffffffffffffffffffffffffffffffffffffffffff1916908160001a905350600485901c945080611c6f90612a23565b9050611bd9565b5060008414611cba576040517f08c379a0000000000000000000000000000000000000000000000000000000008152600401611cb190612a98565b60405180910390fd5b8091505092915050565b60008183611cd29190612820565b905092915050565b6005544210611ce857600080fd5b600073ffffffffffffffffffffffffffffffffffffffff168273ffffffffffffffffffffffffffffffffffffffff1603611d2157600080fd5b60008103611d2e57600080fd5b5050565b600080fd5b60007fffffffff0000000000000000000000000000000000000000000000000000000082169050919050565b611d6c81611d37565b8114611d7757600080fd5b50565b600081359050611d8981611d63565b92915050565b600060208284031215611da557611da4611d32565b5b6000611db384828501611d7a565b91505092915050565b60008115159050919050565b611dd181611dbc565b82525050565b6000602082019050611dec6000830184611dc8565b92915050565b6000819050919050565b611e0581611df2565b82525050565b6000602082019050611e206000830184611dfc565b92915050565b6000819050919050565b611e3981611e26565b8114611e4457600080fd5b50565b600081359050611e5681611e30565b92915050565b600060208284031215611e7257611e71611d32565b5b6000611e8084828501611e47565b91505092915050565b611e9281611e26565b82525050565b6000602082019050611ead6000830184611e89565b92915050565b600073ffffffffffffffffffffffffffffffffffffffff82169050919050565b6000611ede82611eb3565b9050919050565b611eee81611ed3565b8114611ef957600080fd5b50565b600081359050611f0b81611ee5565b92915050565b60008060408385031215611f2857611f27611d32565b5b6000611f3685828601611e47565b9250506020611f4785828601611efc565b9150509250929050565b611f5a81611df2565b8114611f6557600080fd5b50565b600081359050611f7781611f51565b92915050565b60008060408385031215611f9457611f93611d32565b5b6000611fa285828601611f68565b9250506020611fb385828601611efc565b9150509250929050565b600060208284031215611fd357611fd2611d32565b5b6000611fe184828501611efc565b91505092915050565b6000611ff582611eb3565b9050919050565b61200581611fea565b811461201057600080fd5b50565b60008135905061202281611ffc565b92915050565b60006020828403121561203e5761203d611d32565b5b600061204c84828501612013565b91505092915050565b6000806040838503121561206c5761206b611d32565b5b600061207a85828601611f68565b925050602061208b85828601611f68565b9150509250929050565b61209e81611dbc565b81146120a957600080fd5b50565b6000813590506120bb81612095565b92915050565b600080604083850312156120d8576120d7611d32565b5b60006120e685828601611efc565b92505060206120f7858286016120ac565b9150509250929050565b7f4e487b7100000000000000000000000000000000000000000000000000000000600052602160045260246000fd5b6002811061214157612140612101565b5b50565b600081905061215282612130565b919050565b600061216282612144565b9050919050565b61217281612157565b82525050565b600060208201905061218d6000830184612169565b92915050565b6000819050919050565b60006121b86121b36121ae84611eb3565b612193565b611eb3565b9050919050565b60006121ca8261219d565b9050919050565b60006121dc826121bf565b9050919050565b6121ec816121d1565b82525050565b600060208201905061220760008301846121e3565b92915050565b6000612218826121bf565b9050919050565b6122288161220d565b82525050565b6000602082019050612243600083018461221f565b92915050565b60006122548261219d565b9050919050565b600061226682612249565b9050919050565b6122768161225b565b82525050565b6000602082019050612291600083018461226d565b92915050565b600082825260208201905092915050565b7f416363657373436f6e74726f6c3a2063616e206f6e6c792072656e6f756e636560008201527f20726f6c657320666f722073656c660000000000000000000000000000000000602082015250565b6000612304602f83612297565b915061230f826122a8565b604082019050919050565b60006020820190508181036000830152612333816122f7565b9050919050565b7f5265656e7472616e637947756172643a207265656e7472616e742063616c6c00600082015250565b6000612370601f83612297565b915061237b8261233a565b602082019050919050565b6000602082019050818103600083015261239f81612363565b9050919050565b6123af81611fea565b82525050565b60006020820190506123ca60008301846123a6565b92915050565b600081905092915050565b50565b60006123eb6000836123d0565b91506123f6826123db565b600082019050919050565b600061240c826123de565b9150819050919050565b7f4574686572207472616e73666572206661696c65642e00000000000000000000600082015250565b600061244c601683612297565b915061245782612416565b602082019050919050565b6000602082019050818103600083015261247b8161243f565b9050919050565b7f4e487b7100000000000000000000000000000000000000000000000000000000600052601160045260246000fd5b60006124bc82611df2565b91506124c783611df2565b9250827fffffffffffffffffffffffffffffffffffffffffffffffffffffffffffffffff038211156124fc576124fb612482565b5b828201905092915050565b61251081611ed3565b82525050565b600060408201905061252b6000830185612507565b6125386020830184611dfc565b9392505050565b7f4e487b7100000000000000000000000000000000000000000000000000000000600052601260045260246000fd5b600061257982611df2565b915061258483611df2565b9250826125945761259361253f565b5b828204905092915050565b7f46756e6374696f6e206661696c65642e00000000000000000000000000000000600082015250565b60006125d5601083612297565b91506125e08261259f565b602082019050919050565b60006020820190508181036000830152612604816125c8565b9050919050565b60006040820190506126206000830185611dfc565b61262d6020830184611dfc565b9392505050565b600081905092915050565b7f416363657373436f6e74726f6c3a206163636f756e7420000000000000000000600082015250565b6000612675601783612634565b91506126808261263f565b601782019050919050565b600081519050919050565b60005b838110156126b4578082015181840152602081019050612699565b838111156126c3576000848401525b50505050565b60006126d48261268b565b6126de8185612634565b93506126ee818560208601612696565b80840191505092915050565b7f206973206d697373696e6720726f6c6520000000000000000000000000000000600082015250565b6000612730601183612634565b915061273b826126fa565b601182019050919050565b600061275182612668565b915061275d82856126c9565b915061276882612723565b915061277482846126c9565b91508190509392505050565b6000601f19601f8301169050919050565b600061279c8261268b565b6127a68185612297565b93506127b6818560208601612696565b6127bf81612780565b840191505092915050565b600060208201905081810360008301526127e48184612791565b905092915050565b60006127f782611df2565b915061280283611df2565b92508282101561281557612814612482565b5b828203905092915050565b600061282b82611df2565b915061283683611df2565b9250817fffffffffffffffffffffffffffffffffffffffffffffffffffffffffffffffff048311821515161561286f5761286e612482565b5b828202905092915050565b7f5472616e73666572206661696c65642e00000000000000000000000000000000600082015250565b60006128b0601083612297565b91506128bb8261287a565b602082019050919050565b600060208201905081810360008301526128df816128a3565b9050919050565b6000815190506128f581612095565b92915050565b60006020828403121561291157612910611d32565b5b600061291f848285016128e6565b91505092915050565b7f507572636861736520206661696c65642e000000000000000000000000000000600082015250565b600061295e601183612297565b915061296982612928565b602082019050919050565b6000602082019050818103600083015261298d81612951565b9050919050565b600061299f82611df2565b91506129aa83611df2565b9250826129ba576129b961253f565b5b828206905092915050565b7f4e487b7100000000000000000000000000000000000000000000000000000000600052604160045260246000fd5b7f4e487b7100000000000000000000000000000000000000000000000000000000600052603260045260246000fd5b6000612a2e82611df2565b915060008203612a4157612a40612482565b5b600182039050919050565b7f537472696e67733a20686578206c656e67746820696e73756666696369656e74600082015250565b6000612a82602083612297565b9150612a8d82612a4c565b602082019050919050565b60006020820190508181036000830152612ab181612a75565b905091905056fea264697066735822122074695c5cd3593fcfcc32edf6b7c4a906c75cb06fdaed171ffc93b3f4ae302dc464736f6c634300080d0033a2646970667358221220e51f40035f9b39f31f6b03c5ecc8c1bb15bf864c03daabb674684566958d227d64736f6c634300080d0033","opcodes":"PUSH1 0x80 PUSH1 0x40 MSTORE CALLVALUE DUP1 ISZERO PUSH3 0x11 JUMPI PUSH1 0x0 DUP1 REVERT JUMPDEST POP PUSH1 0x40 MLOAD PUSH3 0x5FDD CODESIZE SUB DUP1 PUSH3 0x5FDD DUP4 CODECOPY DUP2 DUP2 ADD PUSH1 0x40 MSTORE DUP2 ADD SWAP1 PUSH3 0x37 SWAP2 SWAP1 PUSH3 0x2A3 JUMP JUMPDEST PUSH3 0x4C PUSH1 0x0 DUP1 SHL CALLER PUSH3 0xD6 PUSH1 0x20 SHL PUSH1 0x20 SHR JUMP JUMPDEST DUP2 PUSH1 0x5 PUSH1 0x0 PUSH2 0x100 EXP DUP2 SLOAD DUP2 PUSH20 0xFFFFFFFFFFFFFFFFFFFFFFFFFFFFFFFFFFFFFFFF MUL NOT AND SWAP1 DUP4 PUSH20 0xFFFFFFFFFFFFFFFFFFFFFFFFFFFFFFFFFFFFFFFF AND MUL OR SWAP1 SSTORE POP DUP1 PUSH1 0x6 PUSH1 0x0 PUSH2 0x100 EXP DUP2 SLOAD DUP2 PUSH20 0xFFFFFFFFFFFFFFFFFFFFFFFFFFFFFFFFFFFFFFFF MUL NOT AND SWAP1 DUP4 PUSH20 0xFFFFFFFFFFFFFFFFFFFFFFFFFFFFFFFFFFFFFFFF AND MUL OR SWAP1 SSTORE POP POP POP PUSH3 0x2EA JUMP JUMPDEST PUSH3 0xE8 DUP3 DUP3 PUSH3 0x1C7 PUSH1 0x20 SHL PUSH1 0x20 SHR JUMP JUMPDEST PUSH3 0x1C3 JUMPI PUSH1 0x1 PUSH1 0x0 DUP1 DUP5 DUP2 MSTORE PUSH1 0x20 ADD SWAP1 DUP2 MSTORE PUSH1 0x20 ADD PUSH1 0x0 KECCAK256 PUSH1 0x0 ADD PUSH1 0x0 DUP4 PUSH20 0xFFFFFFFFFFFFFFFFFFFFFFFFFFFFFFFFFFFFFFFF AND PUSH20 0xFFFFFFFFFFFFFFFFFFFFFFFFFFFFFFFFFFFFFFFF AND DUP2 MSTORE PUSH1 0x20 ADD SWAP1 DUP2 MSTORE PUSH1 0x20 ADD PUSH1 0x0 KECCAK256 PUSH1 0x0 PUSH2 0x100 EXP DUP2 SLOAD DUP2 PUSH1 0xFF MUL NOT AND SWAP1 DUP4 ISZERO ISZERO MUL OR SWAP1 SSTORE POP PUSH3 0x168 PUSH3 0x231 PUSH1 0x20 SHL PUSH1 0x20 SHR JUMP JUMPDEST PUSH20 0xFFFFFFFFFFFFFFFFFFFFFFFFFFFFFFFFFFFFFFFF AND DUP2 PUSH20 0xFFFFFFFFFFFFFFFFFFFFFFFFFFFFFFFFFFFFFFFF AND DUP4 PUSH32 0x2F8788117E7EFF1D82E926EC794901D17C78024A50270940304540A733656F0D PUSH1 0x40 MLOAD PUSH1 0x40 MLOAD DUP1 SWAP2 SUB SWAP1 LOG4 JUMPDEST POP POP JUMP JUMPDEST PUSH1 0x0 DUP1 PUSH1 0x0 DUP5 DUP2 MSTORE PUSH1 0x20 ADD SWAP1 DUP2 MSTORE PUSH1 0x20 ADD PUSH1 0x0 KECCAK256 PUSH1 0x0 ADD PUSH1 0x0 DUP4 PUSH20 0xFFFFFFFFFFFFFFFFFFFFFFFFFFFFFFFFFFFFFFFF AND PUSH20 0xFFFFFFFFFFFFFFFFFFFFFFFFFFFFFFFFFFFFFFFF AND DUP2 MSTORE PUSH1 0x20 ADD SWAP1 DUP2 MSTORE PUSH1 0x20 ADD PUSH1 0x0 KECCAK256 PUSH1 0x0 SWAP1 SLOAD SWAP1 PUSH2 0x100 EXP SWAP1 DIV PUSH1 0xFF AND SWAP1 POP SWAP3 SWAP2 POP POP JUMP JUMPDEST PUSH1 0x0 CALLER SWAP1 POP SWAP1 JUMP JUMPDEST PUSH1 0x0 DUP1 REVERT JUMPDEST PUSH1 0x0 PUSH20 0xFFFFFFFFFFFFFFFFFFFFFFFFFFFFFFFFFFFFFFFF DUP3 AND SWAP1 POP SWAP2 SWAP1 POP JUMP JUMPDEST PUSH1 0x0 PUSH3 0x26B DUP3 PUSH3 0x23E JUMP JUMPDEST SWAP1 POP SWAP2 SWAP1 POP JUMP JUMPDEST PUSH3 0x27D DUP2 PUSH3 0x25E JUMP JUMPDEST DUP2 EQ PUSH3 0x289 JUMPI PUSH1 0x0 DUP1 REVERT JUMPDEST POP JUMP JUMPDEST PUSH1 0x0 DUP2 MLOAD SWAP1 POP PUSH3 0x29D DUP2 PUSH3 0x272 JUMP JUMPDEST SWAP3 SWAP2 POP POP JUMP JUMPDEST PUSH1 0x0 DUP1 PUSH1 0x40 DUP4 DUP6 SUB SLT ISZERO PUSH3 0x2BD JUMPI PUSH3 0x2BC PUSH3 0x239 JUMP JUMPDEST JUMPDEST PUSH1 0x0 PUSH3 0x2CD DUP6 DUP3 DUP7 ADD PUSH3 0x28C JUMP JUMPDEST SWAP3 POP POP PUSH1 0x20 PUSH3 0x2E0 DUP6 DUP3 DUP7 ADD PUSH3 0x28C JUMP JUMPDEST SWAP2 POP POP SWAP3 POP SWAP3 SWAP1 POP JUMP JUMPDEST PUSH2 0x5CE3 DUP1 PUSH3 0x2FA PUSH1 0x0 CODECOPY PUSH1 0x0 RETURN INVALID PUSH1 0x80 PUSH1 0x40 MSTORE CALLVALUE DUP1 ISZERO PUSH3 0x11 JUMPI PUSH1 0x0 DUP1 REVERT JUMPDEST POP PUSH1 0x4 CALLDATASIZE LT PUSH3 0x118 JUMPI PUSH1 0x0 CALLDATALOAD PUSH1 0xE0 SHR DUP1 PUSH4 0x91D14854 GT PUSH3 0xA5 JUMPI DUP1 PUSH4 0xDAB2C379 GT PUSH3 0x6F JUMPI DUP1 PUSH4 0xDAB2C379 EQ PUSH3 0x323 JUMPI DUP1 PUSH4 0xEA51BD5A EQ PUSH3 0x359 JUMPI DUP1 PUSH4 0xF87CC78D EQ PUSH3 0x379 JUMPI DUP1 PUSH4 0xFB79D4FB EQ PUSH3 0x399 JUMPI PUSH3 0x118 JUMP JUMPDEST DUP1 PUSH4 0x91D14854 EQ PUSH3 0x28B JUMPI DUP1 PUSH4 0xA217FDDF EQ PUSH3 0x2C1 JUMPI DUP1 PUSH4 0xC52E1ECE EQ PUSH3 0x2E3 JUMPI DUP1 PUSH4 0xD547741F EQ PUSH3 0x303 JUMPI PUSH3 0x118 JUMP JUMPDEST DUP1 PUSH4 0x36568ABE GT PUSH3 0xE7 JUMPI DUP1 PUSH4 0x36568ABE EQ PUSH3 0x1DF JUMPI DUP1 PUSH4 0x397A8BAB EQ PUSH3 0x1FF JUMPI DUP1 PUSH4 0x47D00345 EQ PUSH3 0x21F JUMPI DUP1 PUSH4 0x65872107 EQ PUSH3 0x255 JUMPI PUSH3 0x118 JUMP JUMPDEST DUP1 PUSH4 0x1FFC9A7 EQ PUSH3 0x11D JUMPI DUP1 PUSH4 0x248A9CA3 EQ PUSH3 0x153 JUMPI DUP1 PUSH4 0x2F2FF15D EQ PUSH3 0x189 JUMPI DUP1 PUSH4 0x31296D6E EQ PUSH3 0x1A9 JUMPI JUMPDEST PUSH1 0x0 DUP1 REVERT JUMPDEST PUSH3 0x13B PUSH1 0x4 DUP1 CALLDATASIZE SUB DUP2 ADD SWAP1 PUSH3 0x135 SWAP2 SWAP1 PUSH3 0x18A7 JUMP JUMPDEST PUSH3 0x3CF JUMP JUMPDEST PUSH1 0x40 MLOAD PUSH3 0x14A SWAP2 SWAP1 PUSH3 0x18F6 JUMP JUMPDEST PUSH1 0x40 MLOAD DUP1 SWAP2 SUB SWAP1 RETURN JUMPDEST PUSH3 0x171 PUSH1 0x4 DUP1 CALLDATASIZE SUB DUP2 ADD SWAP1 PUSH3 0x16B SWAP2 SWAP1 PUSH3 0x194E JUMP JUMPDEST PUSH3 0x44C JUMP JUMPDEST PUSH1 0x40 MLOAD PUSH3 0x180 SWAP2 SWAP1 PUSH3 0x1991 JUMP JUMPDEST PUSH1 0x40 MLOAD DUP1 SWAP2 SUB SWAP1 RETURN JUMPDEST PUSH3 0x1A7 PUSH1 0x4 DUP1 CALLDATASIZE SUB DUP2 ADD SWAP1 PUSH3 0x1A1 SWAP2 SWAP1 PUSH3 0x1A13 JUMP JUMPDEST PUSH3 0x46B JUMP JUMPDEST STOP JUMPDEST PUSH3 0x1C7 PUSH1 0x4 DUP1 CALLDATASIZE SUB DUP2 ADD SWAP1 PUSH3 0x1C1 SWAP2 SWAP1 PUSH3 0x1A5A JUMP JUMPDEST PUSH3 0x492 JUMP JUMPDEST PUSH1 0x40 MLOAD PUSH3 0x1D6 SWAP2 SWAP1 PUSH3 0x1A9D JUMP JUMPDEST PUSH1 0x40 MLOAD DUP1 SWAP2 SUB SWAP1 RETURN JUMPDEST PUSH3 0x1FD PUSH1 0x4 DUP1 CALLDATASIZE SUB DUP2 ADD SWAP1 PUSH3 0x1F7 SWAP2 SWAP1 PUSH3 0x1A13 JUMP JUMPDEST PUSH3 0x4C5 JUMP JUMPDEST STOP JUMPDEST PUSH3 0x21D PUSH1 0x4 DUP1 CALLDATASIZE SUB DUP2 ADD SWAP1 PUSH3 0x217 SWAP2 SWAP1 PUSH3 0x1A5A JUMP JUMPDEST PUSH3 0x54F JUMP JUMPDEST STOP JUMPDEST PUSH3 0x23D PUSH1 0x4 DUP1 CALLDATASIZE SUB DUP2 ADD SWAP1 PUSH3 0x237 SWAP2 SWAP1 PUSH3 0x1B1C JUMP JUMPDEST PUSH3 0x571 JUMP JUMPDEST PUSH1 0x40 MLOAD PUSH3 0x24C SWAP2 SWAP1 PUSH3 0x1A9D JUMP JUMPDEST PUSH1 0x40 MLOAD DUP1 SWAP2 SUB SWAP1 RETURN JUMPDEST PUSH3 0x273 PUSH1 0x4 DUP1 CALLDATASIZE SUB DUP2 ADD SWAP1 PUSH3 0x26D SWAP2 SWAP1 PUSH3 0x1A5A JUMP JUMPDEST PUSH3 0xE01 JUMP JUMPDEST PUSH1 0x40 MLOAD PUSH3 0x282 SWAP2 SWAP1 PUSH3 0x1A9D JUMP JUMPDEST PUSH1 0x40 MLOAD DUP1 SWAP2 SUB SWAP1 RETURN JUMPDEST PUSH3 0x2A9 PUSH1 0x4 DUP1 CALLDATASIZE SUB DUP2 ADD SWAP1 PUSH3 0x2A3 SWAP2 SWAP1 PUSH3 0x1A13 JUMP JUMPDEST PUSH3 0xE34 JUMP JUMPDEST PUSH1 0x40 MLOAD PUSH3 0x2B8 SWAP2 SWAP1 PUSH3 0x18F6 JUMP JUMPDEST PUSH1 0x40 MLOAD DUP1 SWAP2 SUB SWAP1 RETURN JUMPDEST PUSH3 0x2CB PUSH3 0xE9E JUMP JUMPDEST PUSH1 0x40 MLOAD PUSH3 0x2DA SWAP2 SWAP1 PUSH3 0x1991 JUMP JUMPDEST PUSH1 0x40 MLOAD DUP1 SWAP2 SUB SWAP1 RETURN JUMPDEST PUSH3 0x301 PUSH1 0x4 DUP1 CALLDATASIZE SUB DUP2 ADD SWAP1 PUSH3 0x2FB SWAP2 SWAP1 PUSH3 0x1CF9 JUMP JUMPDEST PUSH3 0xEA5 JUMP JUMPDEST STOP JUMPDEST PUSH3 0x321 PUSH1 0x4 DUP1 CALLDATASIZE SUB DUP2 ADD SWAP1 PUSH3 0x31B SWAP2 SWAP1 PUSH3 0x1A13 JUMP JUMPDEST PUSH3 0x1135 JUMP JUMPDEST STOP JUMPDEST PUSH3 0x341 PUSH1 0x4 DUP1 CALLDATASIZE SUB DUP2 ADD SWAP1 PUSH3 0x33B SWAP2 SWAP1 PUSH3 0x1DA9 JUMP JUMPDEST PUSH3 0x115C JUMP JUMPDEST PUSH1 0x40 MLOAD PUSH3 0x350 SWAP2 SWAP1 PUSH3 0x1A9D JUMP JUMPDEST PUSH1 0x40 MLOAD DUP1 SWAP2 SUB SWAP1 RETURN JUMPDEST PUSH3 0x377 PUSH1 0x4 DUP1 CALLDATASIZE SUB DUP2 ADD SWAP1 PUSH3 0x371 SWAP2 SWAP1 PUSH3 0x1E20 JUMP JUMPDEST PUSH3 0x119C JUMP JUMPDEST STOP JUMPDEST PUSH3 0x397 PUSH1 0x4 DUP1 CALLDATASIZE SUB DUP2 ADD SWAP1 PUSH3 0x391 SWAP2 SWAP1 PUSH3 0x1E20 JUMP JUMPDEST PUSH3 0x11F0 JUMP JUMPDEST STOP JUMPDEST PUSH3 0x3B7 PUSH1 0x4 DUP1 CALLDATASIZE SUB DUP2 ADD SWAP1 PUSH3 0x3B1 SWAP2 SWAP1 PUSH3 0x1A5A JUMP JUMPDEST PUSH3 0x1244 JUMP JUMPDEST PUSH1 0x40 MLOAD PUSH3 0x3C6 SWAP2 SWAP1 PUSH3 0x1A9D JUMP JUMPDEST PUSH1 0x40 MLOAD DUP1 SWAP2 SUB SWAP1 RETURN JUMPDEST PUSH1 0x0 PUSH32 0x7965DB0B00000000000000000000000000000000000000000000000000000000 PUSH28 0xFFFFFFFFFFFFFFFFFFFFFFFFFFFFFFFFFFFFFFFFFFFFFFFFFFFFFFFF NOT AND DUP3 PUSH28 0xFFFFFFFFFFFFFFFFFFFFFFFFFFFFFFFFFFFFFFFFFFFFFFFFFFFFFFFF NOT AND EQ DUP1 PUSH3 0x445 JUMPI POP PUSH3 0x444 DUP3 PUSH3 0x1277 JUMP JUMPDEST JUMPDEST SWAP1 POP SWAP2 SWAP1 POP JUMP JUMPDEST PUSH1 0x0 DUP1 PUSH1 0x0 DUP4 DUP2 MSTORE PUSH1 0x20 ADD SWAP1 DUP2 MSTORE PUSH1 0x20 ADD PUSH1 0x0 KECCAK256 PUSH1 0x1 ADD SLOAD SWAP1 POP SWAP2 SWAP1 POP JUMP JUMPDEST PUSH3 0x476 DUP3 PUSH3 0x44C JUMP JUMPDEST PUSH3 0x481 DUP2 PUSH3 0x12E1 JUMP JUMPDEST PUSH3 0x48D DUP4 DUP4 PUSH3 0x12F9 JUMP JUMPDEST POP POP POP JUMP JUMPDEST PUSH1 0x2 PUSH1 0x20 MSTORE DUP1 PUSH1 0x0 MSTORE PUSH1 0x40 PUSH1 0x0 KECCAK256 PUSH1 0x0 SWAP2 POP SLOAD SWAP1 PUSH2 0x100 EXP SWAP1 DIV PUSH20 0xFFFFFFFFFFFFFFFFFFFFFFFFFFFFFFFFFFFFFFFF AND DUP2 JUMP JUMPDEST PUSH3 0x4CF PUSH3 0x13DE JUMP JUMPDEST PUSH20 0xFFFFFFFFFFFFFFFFFFFFFFFFFFFFFFFFFFFFFFFF AND DUP2 PUSH20 0xFFFFFFFFFFFFFFFFFFFFFFFFFFFFFFFFFFFFFFFF AND EQ PUSH3 0x53F JUMPI PUSH1 0x40 MLOAD PUSH32 0x8C379A000000000000000000000000000000000000000000000000000000000 DUP2 MSTORE PUSH1 0x4 ADD PUSH3 0x536 SWAP1 PUSH3 0x1ED9 JUMP JUMPDEST PUSH1 0x40 MLOAD DUP1 SWAP2 SUB SWAP1 REVERT JUMPDEST PUSH3 0x54B DUP3 DUP3 PUSH3 0x13E6 JUMP JUMPDEST POP POP JUMP JUMPDEST PUSH1 0x0 DUP1 SHL PUSH3 0x55E DUP2 PUSH3 0x12E1 JUMP JUMPDEST PUSH3 0x56D PUSH1 0x0 DUP1 SHL DUP4 PUSH3 0x12F9 JUMP JUMPDEST POP POP JUMP JUMPDEST PUSH1 0x0 DUP1 PUSH1 0x0 SHL PUSH3 0x582 DUP2 PUSH3 0x12E1 JUMP JUMPDEST PUSH1 0x0 PUSH1 0x6 PUSH1 0x0 SWAP1 SLOAD SWAP1 PUSH2 0x100 EXP SWAP1 DIV PUSH20 0xFFFFFFFFFFFFFFFFFFFFFFFFFFFFFFFFFFFFFFFF AND PUSH20 0xFFFFFFFFFFFFFFFFFFFFFFFFFFFFFFFFFFFFFFFF AND PUSH4 0x3B313A32 PUSH1 0x40 MLOAD DUP2 PUSH4 0xFFFFFFFF AND PUSH1 0xE0 SHL DUP2 MSTORE PUSH1 0x4 ADD PUSH1 0x20 PUSH1 0x40 MLOAD DUP1 DUP4 SUB DUP2 PUSH1 0x0 DUP8 GAS CALL ISZERO DUP1 ISZERO PUSH3 0x5F4 JUMPI RETURNDATASIZE PUSH1 0x0 DUP1 RETURNDATACOPY RETURNDATASIZE PUSH1 0x0 REVERT JUMPDEST POP POP POP POP PUSH1 0x40 MLOAD RETURNDATASIZE PUSH1 0x1F NOT PUSH1 0x1F DUP3 ADD AND DUP3 ADD DUP1 PUSH1 0x40 MSTORE POP DUP2 ADD SWAP1 PUSH3 0x61A SWAP2 SWAP1 PUSH3 0x1F12 JUMP JUMPDEST SWAP1 POP PUSH1 0x0 PUSH1 0x5 PUSH1 0x0 SWAP1 SLOAD SWAP1 PUSH2 0x100 EXP SWAP1 DIV PUSH20 0xFFFFFFFFFFFFFFFFFFFFFFFFFFFFFFFFFFFFFFFF AND PUSH20 0xFFFFFFFFFFFFFFFFFFFFFFFFFFFFFFFFFFFFFFFF AND PUSH4 0x78141B22 DUP7 PUSH1 0x40 MLOAD DUP3 PUSH4 0xFFFFFFFF AND PUSH1 0xE0 SHL DUP2 MSTORE PUSH1 0x4 ADD PUSH3 0x67B SWAP2 SWAP1 PUSH3 0x25DA JUMP JUMPDEST PUSH1 0x20 PUSH1 0x40 MLOAD DUP1 DUP4 SUB DUP2 PUSH1 0x0 DUP8 GAS CALL ISZERO DUP1 ISZERO PUSH3 0x69B JUMPI RETURNDATASIZE PUSH1 0x0 DUP1 RETURNDATACOPY RETURNDATASIZE PUSH1 0x0 REVERT JUMPDEST POP POP POP POP PUSH1 0x40 MLOAD RETURNDATASIZE PUSH1 0x1F NOT PUSH1 0x1F DUP3 ADD AND DUP3 ADD DUP1 PUSH1 0x40 MSTORE POP DUP2 ADD SWAP1 PUSH3 0x6C1 SWAP2 SWAP1 PUSH3 0x1F12 JUMP JUMPDEST SWAP1 POP PUSH1 0x6 PUSH1 0x0 SWAP1 SLOAD SWAP1 PUSH2 0x100 EXP SWAP1 DIV PUSH20 0xFFFFFFFFFFFFFFFFFFFFFFFFFFFFFFFFFFFFFFFF AND PUSH20 0xFFFFFFFFFFFFFFFFFFFFFFFFFFFFFFFFFFFFFFFF AND PUSH4 0x5556F1AA DUP4 ADDRESS PUSH1 0x40 MLOAD DUP4 PUSH4 0xFFFFFFFF AND PUSH1 0xE0 SHL DUP2 MSTORE PUSH1 0x4 ADD PUSH3 0x722 SWAP3 SWAP2 SWAP1 PUSH3 0x25FE JUMP JUMPDEST PUSH1 0x0 PUSH1 0x40 MLOAD DUP1 DUP4 SUB DUP2 PUSH1 0x0 DUP8 DUP1 EXTCODESIZE ISZERO DUP1 ISZERO PUSH3 0x73D JUMPI PUSH1 0x0 DUP1 REVERT JUMPDEST POP GAS CALL ISZERO DUP1 ISZERO PUSH3 0x752 JUMPI RETURNDATASIZE PUSH1 0x0 DUP1 RETURNDATACOPY RETURNDATASIZE PUSH1 0x0 REVERT JUMPDEST POP POP POP POP PUSH1 0x5 PUSH1 0x0 SWAP1 SLOAD SWAP1 PUSH2 0x100 EXP SWAP1 DIV PUSH20 0xFFFFFFFFFFFFFFFFFFFFFFFFFFFFFFFFFFFFFFFF AND PUSH20 0xFFFFFFFFFFFFFFFFFFFFFFFFFFFFFFFFFFFFFFFF AND PUSH4 0x5556F1AA DUP3 ADDRESS PUSH1 0x40 MLOAD DUP4 PUSH4 0xFFFFFFFF AND PUSH1 0xE0 SHL DUP2 MSTORE PUSH1 0x4 ADD PUSH3 0x7B5 SWAP3 SWAP2 SWAP1 PUSH3 0x25FE JUMP JUMPDEST PUSH1 0x0 PUSH1 0x40 MLOAD DUP1 DUP4 SUB DUP2 PUSH1 0x0 DUP8 DUP1 EXTCODESIZE ISZERO DUP1 ISZERO PUSH3 0x7D0 JUMPI PUSH1 0x0 DUP1 REVERT JUMPDEST POP GAS CALL ISZERO DUP1 ISZERO PUSH3 0x7E5 JUMPI RETURNDATASIZE PUSH1 0x0 DUP1 RETURNDATACOPY RETURNDATASIZE PUSH1 0x0 REVERT JUMPDEST POP POP POP POP PUSH1 0x6 PUSH1 0x0 SWAP1 SLOAD SWAP1 PUSH2 0x100 EXP SWAP1 DIV PUSH20 0xFFFFFFFFFFFFFFFFFFFFFFFFFFFFFFFFFFFFFFFF AND PUSH20 0xFFFFFFFFFFFFFFFFFFFFFFFFFFFFFFFFFFFFFFFF AND PUSH4 0x5556F1AA DUP4 CALLER PUSH1 0x40 MLOAD DUP4 PUSH4 0xFFFFFFFF AND PUSH1 0xE0 SHL DUP2 MSTORE PUSH1 0x4 ADD PUSH3 0x848 SWAP3 SWAP2 SWAP1 PUSH3 0x25FE JUMP JUMPDEST PUSH1 0x0 PUSH1 0x40 MLOAD DUP1 DUP4 SUB DUP2 PUSH1 0x0 DUP8 DUP1 EXTCODESIZE ISZERO DUP1 ISZERO PUSH3 0x863 JUMPI PUSH1 0x0 DUP1 REVERT JUMPDEST POP GAS CALL ISZERO DUP1 ISZERO PUSH3 0x878 JUMPI RETURNDATASIZE PUSH1 0x0 DUP1 RETURNDATACOPY RETURNDATASIZE PUSH1 0x0 REVERT JUMPDEST POP POP POP POP PUSH1 0x5 PUSH1 0x0 SWAP1 SLOAD SWAP1 PUSH2 0x100 EXP SWAP1 DIV PUSH20 0xFFFFFFFFFFFFFFFFFFFFFFFFFFFFFFFFFFFFFFFF AND PUSH20 0xFFFFFFFFFFFFFFFFFFFFFFFFFFFFFFFFFFFFFFFF AND PUSH4 0x5556F1AA DUP3 CALLER PUSH1 0x40 MLOAD DUP4 PUSH4 0xFFFFFFFF AND PUSH1 0xE0 SHL DUP2 MSTORE PUSH1 0x4 ADD PUSH3 0x8DB SWAP3 SWAP2 SWAP1 PUSH3 0x25FE JUMP JUMPDEST PUSH1 0x0 PUSH1 0x40 MLOAD DUP1 DUP4 SUB DUP2 PUSH1 0x0 DUP8 DUP1 EXTCODESIZE ISZERO DUP1 ISZERO PUSH3 0x8F6 JUMPI PUSH1 0x0 DUP1 REVERT JUMPDEST POP GAS CALL ISZERO DUP1 ISZERO PUSH3 0x90B JUMPI RETURNDATASIZE PUSH1 0x0 DUP1 RETURNDATACOPY RETURNDATASIZE PUSH1 0x0 REVERT JUMPDEST POP POP POP POP PUSH1 0x0 PUSH3 0x94B DUP9 DUP8 DUP1 PUSH1 0x0 ADD SWAP1 PUSH3 0x928 SWAP2 SWAP1 PUSH3 0x2630 JUMP JUMPDEST PUSH1 0xA0 ADD PUSH1 0x20 DUP2 ADD SWAP1 PUSH3 0x93C SWAP2 SWAP1 PUSH3 0x1A5A JUMP JUMPDEST TIMESTAMP DUP11 DUP8 DUP8 DUP13 PUSH1 0x20 ADD CALLDATALOAD PUSH3 0x14CC JUMP JUMPDEST SWAP1 POP PUSH1 0x6 PUSH1 0x0 SWAP1 SLOAD SWAP1 PUSH2 0x100 EXP SWAP1 DIV PUSH20 0xFFFFFFFFFFFFFFFFFFFFFFFFFFFFFFFFFFFFFFFF AND PUSH20 0xFFFFFFFFFFFFFFFFFFFFFFFFFFFFFFFFFFFFFFFF AND PUSH4 0x5556F1AA DUP5 DUP4 PUSH1 0x40 MLOAD DUP4 PUSH4 0xFFFFFFFF AND PUSH1 0xE0 SHL DUP2 MSTORE PUSH1 0x4 ADD PUSH3 0x9AC SWAP3 SWAP2 SWAP1 PUSH3 0x25FE JUMP JUMPDEST PUSH1 0x0 PUSH1 0x40 MLOAD DUP1 DUP4 SUB DUP2 PUSH1 0x0 DUP8 DUP1 EXTCODESIZE ISZERO DUP1 ISZERO PUSH3 0x9C7 JUMPI PUSH1 0x0 DUP1 REVERT JUMPDEST POP GAS CALL ISZERO DUP1 ISZERO PUSH3 0x9DC JUMPI RETURNDATASIZE PUSH1 0x0 DUP1 RETURNDATACOPY RETURNDATASIZE PUSH1 0x0 REVERT JUMPDEST POP POP POP POP PUSH1 0x5 PUSH1 0x0 SWAP1 SLOAD SWAP1 PUSH2 0x100 EXP SWAP1 DIV PUSH20 0xFFFFFFFFFFFFFFFFFFFFFFFFFFFFFFFFFFFFFFFF AND PUSH20 0xFFFFFFFFFFFFFFFFFFFFFFFFFFFFFFFFFFFFFFFF AND PUSH4 0x5556F1AA DUP4 DUP4 PUSH1 0x40 MLOAD DUP4 PUSH4 0xFFFFFFFF AND PUSH1 0xE0 SHL DUP2 MSTORE PUSH1 0x4 ADD PUSH3 0xA3F SWAP3 SWAP2 SWAP1 PUSH3 0x25FE JUMP JUMPDEST PUSH1 0x0 PUSH1 0x40 MLOAD DUP1 DUP4 SUB DUP2 PUSH1 0x0 DUP8 DUP1 EXTCODESIZE ISZERO DUP1 ISZERO PUSH3 0xA5A JUMPI PUSH1 0x0 DUP1 REVERT JUMPDEST POP GAS CALL ISZERO DUP1 ISZERO PUSH3 0xA6F JUMPI RETURNDATASIZE PUSH1 0x0 DUP1 RETURNDATACOPY RETURNDATASIZE PUSH1 0x0 REVERT JUMPDEST POP POP POP POP PUSH1 0x0 DUP7 DUP1 PUSH1 0x0 ADD SWAP1 PUSH3 0xA87 SWAP2 SWAP1 PUSH3 0x2630 JUMP JUMPDEST PUSH1 0xA0 ADD PUSH1 0x20 DUP2 ADD SWAP1 PUSH3 0xA9B SWAP2 SWAP1 PUSH3 0x1A5A JUMP JUMPDEST SWAP1 POP DUP1 PUSH20 0xFFFFFFFFFFFFFFFFFFFFFFFFFFFFFFFFFFFFFFFF AND PUSH4 0x397A8BAB DUP4 PUSH1 0x40 MLOAD DUP3 PUSH4 0xFFFFFFFF AND PUSH1 0xE0 SHL DUP2 MSTORE PUSH1 0x4 ADD PUSH3 0xAD8 SWAP2 SWAP1 PUSH3 0x1A9D JUMP JUMPDEST PUSH1 0x0 PUSH1 0x40 MLOAD DUP1 DUP4 SUB DUP2 PUSH1 0x0 DUP8 DUP1 EXTCODESIZE ISZERO DUP1 ISZERO PUSH3 0xAF3 JUMPI PUSH1 0x0 DUP1 REVERT JUMPDEST POP GAS CALL ISZERO DUP1 ISZERO PUSH3 0xB08 JUMPI RETURNDATASIZE PUSH1 0x0 DUP1 RETURNDATACOPY RETURNDATASIZE PUSH1 0x0 REVERT JUMPDEST POP POP POP POP PUSH1 0x0 DUP3 SWAP1 POP DUP1 PUSH20 0xFFFFFFFFFFFFFFFFFFFFFFFFFFFFFFFFFFFFFFFF AND PUSH4 0x397A8BAB ADDRESS PUSH1 0x40 MLOAD DUP3 PUSH4 0xFFFFFFFF AND PUSH1 0xE0 SHL DUP2 MSTORE PUSH1 0x4 ADD PUSH3 0xB4C SWAP2 SWAP1 PUSH3 0x1A9D JUMP JUMPDEST PUSH1 0x0 PUSH1 0x40 MLOAD DUP1 DUP4 SUB DUP2 PUSH1 0x0 DUP8 DUP1 EXTCODESIZE ISZERO DUP1 ISZERO PUSH3 0xB67 JUMPI PUSH1 0x0 DUP1 REVERT JUMPDEST POP GAS CALL ISZERO DUP1 ISZERO PUSH3 0xB7C JUMPI RETURNDATASIZE PUSH1 0x0 DUP1 RETURNDATACOPY RETURNDATASIZE PUSH1 0x0 REVERT JUMPDEST POP POP POP POP DUP1 PUSH20 0xFFFFFFFFFFFFFFFFFFFFFFFFFFFFFFFFFFFFFFFF AND PUSH4 0x397A8BAB CALLER PUSH1 0x40 MLOAD DUP3 PUSH4 0xFFFFFFFF AND PUSH1 0xE0 SHL DUP2 MSTORE PUSH1 0x4 ADD PUSH3 0xBBB SWAP2 SWAP1 PUSH3 0x1A9D JUMP JUMPDEST PUSH1 0x0 PUSH1 0x40 MLOAD DUP1 DUP4 SUB DUP2 PUSH1 0x0 DUP8 DUP1 EXTCODESIZE ISZERO DUP1 ISZERO PUSH3 0xBD6 JUMPI PUSH1 0x0 DUP1 REVERT JUMPDEST POP GAS CALL ISZERO DUP1 ISZERO PUSH3 0xBEB JUMPI RETURNDATASIZE PUSH1 0x0 DUP1 RETURNDATACOPY RETURNDATASIZE PUSH1 0x0 REVERT JUMPDEST POP POP POP POP PUSH1 0x1 DUP4 SWAP1 DUP1 PUSH1 0x1 DUP2 SLOAD ADD DUP1 DUP3 SSTORE DUP1 SWAP2 POP POP PUSH1 0x1 SWAP1 SUB SWAP1 PUSH1 0x0 MSTORE PUSH1 0x20 PUSH1 0x0 KECCAK256 ADD PUSH1 0x0 SWAP1 SWAP2 SWAP1 SWAP2 SWAP1 SWAP2 PUSH2 0x100 EXP DUP2 SLOAD DUP2 PUSH20 0xFFFFFFFFFFFFFFFFFFFFFFFFFFFFFFFFFFFFFFFF MUL NOT AND SWAP1 DUP4 PUSH20 0xFFFFFFFFFFFFFFFFFFFFFFFFFFFFFFFFFFFFFFFF AND MUL OR SWAP1 SSTORE POP DUP8 DUP1 PUSH1 0x0 ADD SWAP1 PUSH3 0xC64 SWAP2 SWAP1 PUSH3 0x2630 JUMP JUMPDEST PUSH1 0xA0 ADD PUSH1 0x20 DUP2 ADD SWAP1 PUSH3 0xC78 SWAP2 SWAP1 PUSH3 0x1A5A JUMP JUMPDEST PUSH1 0x2 PUSH1 0x0 DUP6 PUSH20 0xFFFFFFFFFFFFFFFFFFFFFFFFFFFFFFFFFFFFFFFF AND PUSH20 0xFFFFFFFFFFFFFFFFFFFFFFFFFFFFFFFFFFFFFFFF AND DUP2 MSTORE PUSH1 0x20 ADD SWAP1 DUP2 MSTORE PUSH1 0x20 ADD PUSH1 0x0 KECCAK256 PUSH1 0x0 PUSH2 0x100 EXP DUP2 SLOAD DUP2 PUSH20 0xFFFFFFFFFFFFFFFFFFFFFFFFFFFFFFFFFFFFFFFF MUL NOT AND SWAP1 DUP4 PUSH20 0xFFFFFFFFFFFFFFFFFFFFFFFFFFFFFFFFFFFFFFFF AND MUL OR SWAP1 SSTORE POP DUP5 PUSH1 0x3 PUSH1 0x0 DUP6 PUSH20 0xFFFFFFFFFFFFFFFFFFFFFFFFFFFFFFFFFFFFFFFF AND PUSH20 0xFFFFFFFFFFFFFFFFFFFFFFFFFFFFFFFFFFFFFFFF AND DUP2 MSTORE PUSH1 0x20 ADD SWAP1 DUP2 MSTORE PUSH1 0x20 ADD PUSH1 0x0 KECCAK256 PUSH1 0x0 PUSH2 0x100 EXP DUP2 SLOAD DUP2 PUSH20 0xFFFFFFFFFFFFFFFFFFFFFFFFFFFFFFFFFFFFFFFF MUL NOT AND SWAP1 DUP4 PUSH20 0xFFFFFFFFFFFFFFFFFFFFFFFFFFFFFFFFFFFFFFFF AND MUL OR SWAP1 SSTORE POP DUP4 PUSH1 0x4 PUSH1 0x0 DUP6 PUSH20 0xFFFFFFFFFFFFFFFFFFFFFFFFFFFFFFFFFFFFFFFF AND PUSH20 0xFFFFFFFFFFFFFFFFFFFFFFFFFFFFFFFFFFFFFFFF AND DUP2 MSTORE PUSH1 0x20 ADD SWAP1 DUP2 MSTORE PUSH1 0x20 ADD PUSH1 0x0 KECCAK256 PUSH1 0x0 PUSH2 0x100 EXP DUP2 SLOAD DUP2 PUSH20 0xFFFFFFFFFFFFFFFFFFFFFFFFFFFFFFFFFFFFFFFF MUL NOT AND SWAP1 DUP4 PUSH20 0xFFFFFFFFFFFFFFFFFFFFFFFFFFFFFFFFFFFFFFFF AND MUL OR SWAP1 SSTORE POP DUP3 SWAP7 POP POP POP POP POP POP POP SWAP4 SWAP3 POP POP POP JUMP JUMPDEST PUSH1 0x4 PUSH1 0x20 MSTORE DUP1 PUSH1 0x0 MSTORE PUSH1 0x40 PUSH1 0x0 KECCAK256 PUSH1 0x0 SWAP2 POP SLOAD SWAP1 PUSH2 0x100 EXP SWAP1 DIV PUSH20 0xFFFFFFFFFFFFFFFFFFFFFFFFFFFFFFFFFFFFFFFF AND DUP2 JUMP JUMPDEST PUSH1 0x0 DUP1 PUSH1 0x0 DUP5 DUP2 MSTORE PUSH1 0x20 ADD SWAP1 DUP2 MSTORE PUSH1 0x20 ADD PUSH1 0x0 KECCAK256 PUSH1 0x0 ADD PUSH1 0x0 DUP4 PUSH20 0xFFFFFFFFFFFFFFFFFFFFFFFFFFFFFFFFFFFFFFFF AND PUSH20 0xFFFFFFFFFFFFFFFFFFFFFFFFFFFFFFFFFFFFFFFF AND DUP2 MSTORE PUSH1 0x20 ADD SWAP1 DUP2 MSTORE PUSH1 0x20 ADD PUSH1 0x0 KECCAK256 PUSH1 0x0 SWAP1 SLOAD SWAP1 PUSH2 0x100 EXP SWAP1 DIV PUSH1 0xFF AND SWAP1 POP SWAP3 SWAP2 POP POP JUMP JUMPDEST PUSH1 0x0 DUP1 SHL DUP2 JUMP JUMPDEST PUSH1 0x0 DUP1 SHL PUSH3 0xEB4 DUP2 PUSH3 0x12E1 JUMP JUMPDEST PUSH1 0x0 PUSH1 0x2 PUSH1 0x0 DUP6 PUSH20 0xFFFFFFFFFFFFFFFFFFFFFFFFFFFFFFFFFFFFFFFF AND PUSH20 0xFFFFFFFFFFFFFFFFFFFFFFFFFFFFFFFFFFFFFFFF AND DUP2 MSTORE PUSH1 0x20 ADD SWAP1 DUP2 MSTORE PUSH1 0x20 ADD PUSH1 0x0 KECCAK256 PUSH1 0x0 SWAP1 SLOAD SWAP1 PUSH2 0x100 EXP SWAP1 DIV PUSH20 0xFFFFFFFFFFFFFFFFFFFFFFFFFFFFFFFFFFFFFFFF AND SWAP1 POP PUSH1 0x0 PUSH20 0xFFFFFFFFFFFFFFFFFFFFFFFFFFFFFFFFFFFFFFFF AND DUP2 PUSH20 0xFFFFFFFFFFFFFFFFFFFFFFFFFFFFFFFFFFFFFFFF AND SUB PUSH3 0xF52 JUMPI PUSH1 0x0 DUP1 REVERT JUMPDEST PUSH1 0x0 DUP2 SWAP1 POP DUP1 PUSH20 0xFFFFFFFFFFFFFFFFFFFFFFFFFFFFFFFFFFFFFFFF AND PUSH4 0xD926A5DD DUP6 DUP1 PUSH1 0x0 ADD SWAP1 PUSH3 0xF85 SWAP2 SWAP1 PUSH3 0x2630 JUMP JUMPDEST PUSH1 0xC0 ADD CALLDATALOAD DUP9 PUSH1 0x40 MLOAD DUP4 PUSH4 0xFFFFFFFF AND PUSH1 0xE0 SHL DUP2 MSTORE PUSH1 0x4 ADD PUSH3 0xFA9 SWAP3 SWAP2 SWAP1 PUSH3 0x26EF JUMP JUMPDEST PUSH1 0x0 PUSH1 0x40 MLOAD DUP1 DUP4 SUB DUP2 PUSH1 0x0 DUP8 DUP1 EXTCODESIZE ISZERO DUP1 ISZERO PUSH3 0xFC4 JUMPI PUSH1 0x0 DUP1 REVERT JUMPDEST POP GAS CALL ISZERO DUP1 ISZERO PUSH3 0xFD9 JUMPI RETURNDATASIZE PUSH1 0x0 DUP1 RETURNDATACOPY RETURNDATASIZE PUSH1 0x0 REVERT JUMPDEST POP POP POP POP PUSH1 0x0 PUSH1 0x4 PUSH1 0x0 DUP8 PUSH20 0xFFFFFFFFFFFFFFFFFFFFFFFFFFFFFFFFFFFFFFFF AND PUSH20 0xFFFFFFFFFFFFFFFFFFFFFFFFFFFFFFFFFFFFFFFF AND DUP2 MSTORE PUSH1 0x20 ADD SWAP1 DUP2 MSTORE PUSH1 0x20 ADD PUSH1 0x0 KECCAK256 PUSH1 0x0 SWAP1 SLOAD SWAP1 PUSH2 0x100 EXP SWAP1 DIV PUSH20 0xFFFFFFFFFFFFFFFFFFFFFFFFFFFFFFFFFFFFFFFF AND SWAP1 POP DUP1 PUSH20 0xFFFFFFFFFFFFFFFFFFFFFFFFFFFFFFFFFFFFFFFF AND PUSH4 0x2C5A0A13 DUP7 PUSH1 0x40 MLOAD DUP3 PUSH4 0xFFFFFFFF AND PUSH1 0xE0 SHL DUP2 MSTORE PUSH1 0x4 ADD PUSH3 0x107C SWAP2 SWAP1 PUSH3 0x25DA JUMP JUMPDEST PUSH1 0x0 PUSH1 0x40 MLOAD DUP1 DUP4 SUB DUP2 PUSH1 0x0 DUP8 DUP1 EXTCODESIZE ISZERO DUP1 ISZERO PUSH3 0x1097 JUMPI PUSH1 0x0 DUP1 REVERT JUMPDEST POP GAS CALL ISZERO DUP1 ISZERO PUSH3 0x10AC JUMPI RETURNDATASIZE PUSH1 0x0 DUP1 RETURNDATACOPY RETURNDATASIZE PUSH1 0x0 REVERT JUMPDEST POP POP POP POP PUSH1 0x0 DUP7 SWAP1 POP DUP1 PUSH20 0xFFFFFFFFFFFFFFFFFFFFFFFFFFFFFFFFFFFFFFFF AND PUSH4 0xA4BF26B6 DUP11 DUP9 PUSH1 0x20 ADD CALLDATALOAD PUSH1 0x40 MLOAD DUP4 PUSH4 0xFFFFFFFF AND PUSH1 0xE0 SHL DUP2 MSTORE PUSH1 0x4 ADD PUSH3 0x10F6 SWAP3 SWAP2 SWAP1 PUSH3 0x2723 JUMP JUMPDEST PUSH1 0x0 PUSH1 0x40 MLOAD DUP1 DUP4 SUB DUP2 PUSH1 0x0 DUP8 DUP1 EXTCODESIZE ISZERO DUP1 ISZERO PUSH3 0x1111 JUMPI PUSH1 0x0 DUP1 REVERT JUMPDEST POP GAS CALL ISZERO DUP1 ISZERO PUSH3 0x1126 JUMPI RETURNDATASIZE PUSH1 0x0 DUP1 RETURNDATACOPY RETURNDATASIZE PUSH1 0x0 REVERT JUMPDEST POP POP POP POP POP POP POP POP POP POP POP POP POP JUMP JUMPDEST PUSH3 0x1140 DUP3 PUSH3 0x44C JUMP JUMPDEST PUSH3 0x114B DUP2 PUSH3 0x12E1 JUMP JUMPDEST PUSH3 0x1157 DUP4 DUP4 PUSH3 0x13E6 JUMP JUMPDEST POP POP POP JUMP JUMPDEST PUSH1 0x1 DUP2 DUP2 SLOAD DUP2 LT PUSH3 0x116D JUMPI PUSH1 0x0 DUP1 REVERT JUMPDEST SWAP1 PUSH1 0x0 MSTORE PUSH1 0x20 PUSH1 0x0 KECCAK256 ADD PUSH1 0x0 SWAP2 POP SLOAD SWAP1 PUSH2 0x100 EXP SWAP1 DIV PUSH20 0xFFFFFFFFFFFFFFFFFFFFFFFFFFFFFFFFFFFFFFFF AND DUP2 JUMP JUMPDEST PUSH1 0x0 DUP1 SHL PUSH3 0x11AB DUP2 PUSH3 0x12E1 JUMP JUMPDEST DUP2 PUSH1 0x6 PUSH1 0x0 PUSH2 0x100 EXP DUP2 SLOAD DUP2 PUSH20 0xFFFFFFFFFFFFFFFFFFFFFFFFFFFFFFFFFFFFFFFF MUL NOT AND SWAP1 DUP4 PUSH20 0xFFFFFFFFFFFFFFFFFFFFFFFFFFFFFFFFFFFFFFFF AND MUL OR SWAP1 SSTORE POP POP POP JUMP JUMPDEST PUSH1 0x0 DUP1 SHL PUSH3 0x11FF DUP2 PUSH3 0x12E1 JUMP JUMPDEST DUP2 PUSH1 0x5 PUSH1 0x0 PUSH2 0x100 EXP DUP2 SLOAD DUP2 PUSH20 0xFFFFFFFFFFFFFFFFFFFFFFFFFFFFFFFFFFFFFFFF MUL NOT AND SWAP1 DUP4 PUSH20 0xFFFFFFFFFFFFFFFFFFFFFFFFFFFFFFFFFFFFFFFF AND MUL OR SWAP1 SSTORE POP POP POP JUMP JUMPDEST PUSH1 0x3 PUSH1 0x20 MSTORE DUP1 PUSH1 0x0 MSTORE PUSH1 0x40 PUSH1 0x0 KECCAK256 PUSH1 0x0 SWAP2 POP SLOAD SWAP1 PUSH2 0x100 EXP SWAP1 DIV PUSH20 0xFFFFFFFFFFFFFFFFFFFFFFFFFFFFFFFFFFFFFFFF AND DUP2 JUMP JUMPDEST PUSH1 0x0 PUSH32 0x1FFC9A700000000000000000000000000000000000000000000000000000000 PUSH28 0xFFFFFFFFFFFFFFFFFFFFFFFFFFFFFFFFFFFFFFFFFFFFFFFFFFFFFFFF NOT AND DUP3 PUSH28 0xFFFFFFFFFFFFFFFFFFFFFFFFFFFFFFFFFFFFFFFFFFFFFFFFFFFFFFFF NOT AND EQ SWAP1 POP SWAP2 SWAP1 POP JUMP JUMPDEST PUSH3 0x12F6 DUP2 PUSH3 0x12F0 PUSH3 0x13DE JUMP JUMPDEST PUSH3 0x1525 JUMP JUMPDEST POP JUMP JUMPDEST PUSH3 0x1305 DUP3 DUP3 PUSH3 0xE34 JUMP JUMPDEST PUSH3 0x13DA JUMPI PUSH1 0x1 PUSH1 0x0 DUP1 DUP5 DUP2 MSTORE PUSH1 0x20 ADD SWAP1 DUP2 MSTORE PUSH1 0x20 ADD PUSH1 0x0 KECCAK256 PUSH1 0x0 ADD PUSH1 0x0 DUP4 PUSH20 0xFFFFFFFFFFFFFFFFFFFFFFFFFFFFFFFFFFFFFFFF AND PUSH20 0xFFFFFFFFFFFFFFFFFFFFFFFFFFFFFFFFFFFFFFFF AND DUP2 MSTORE PUSH1 0x20 ADD SWAP1 DUP2 MSTORE PUSH1 0x20 ADD PUSH1 0x0 KECCAK256 PUSH1 0x0 PUSH2 0x100 EXP DUP2 SLOAD DUP2 PUSH1 0xFF MUL NOT AND SWAP1 DUP4 ISZERO ISZERO MUL OR SWAP1 SSTORE POP PUSH3 0x137F PUSH3 0x13DE JUMP JUMPDEST PUSH20 0xFFFFFFFFFFFFFFFFFFFFFFFFFFFFFFFFFFFFFFFF AND DUP2 PUSH20 0xFFFFFFFFFFFFFFFFFFFFFFFFFFFFFFFFFFFFFFFF AND DUP4 PUSH32 0x2F8788117E7EFF1D82E926EC794901D17C78024A50270940304540A733656F0D PUSH1 0x40 MLOAD PUSH1 0x40 MLOAD DUP1 SWAP2 SUB SWAP1 LOG4 JUMPDEST POP POP JUMP JUMPDEST PUSH1 0x0 CALLER SWAP1 POP SWAP1 JUMP JUMPDEST PUSH3 0x13F2 DUP3 DUP3 PUSH3 0xE34 JUMP JUMPDEST ISZERO PUSH3 0x14C8 JUMPI PUSH1 0x0 DUP1 PUSH1 0x0 DUP5 DUP2 MSTORE PUSH1 0x20 ADD SWAP1 DUP2 MSTORE PUSH1 0x20 ADD PUSH1 0x0 KECCAK256 PUSH1 0x0 ADD PUSH1 0x0 DUP4 PUSH20 0xFFFFFFFFFFFFFFFFFFFFFFFFFFFFFFFFFFFFFFFF AND PUSH20 0xFFFFFFFFFFFFFFFFFFFFFFFFFFFFFFFFFFFFFFFF AND DUP2 MSTORE PUSH1 0x20 ADD SWAP1 DUP2 MSTORE PUSH1 0x20 ADD PUSH1 0x0 KECCAK256 PUSH1 0x0 PUSH2 0x100 EXP DUP2 SLOAD DUP2 PUSH1 0xFF MUL NOT AND SWAP1 DUP4 ISZERO ISZERO MUL OR SWAP1 SSTORE POP PUSH3 0x146D PUSH3 0x13DE JUMP JUMPDEST PUSH20 0xFFFFFFFFFFFFFFFFFFFFFFFFFFFFFFFFFFFFFFFF AND DUP2 PUSH20 0xFFFFFFFFFFFFFFFFFFFFFFFFFFFFFFFFFFFFFFFF AND DUP4 PUSH32 0xF6391F5C32D9C69D2A47EA670B442974B53935D1EDC7FD64EB21E047A839171B PUSH1 0x40 MLOAD PUSH1 0x40 MLOAD DUP1 SWAP2 SUB SWAP1 LOG4 JUMPDEST POP POP JUMP JUMPDEST PUSH1 0x0 DUP1 DUP9 DUP9 DUP9 DUP9 DUP9 DUP9 DUP9 PUSH1 0x40 MLOAD PUSH3 0x14E4 SWAP1 PUSH3 0x1828 JUMP JUMPDEST PUSH3 0x14F6 SWAP8 SWAP7 SWAP6 SWAP5 SWAP4 SWAP3 SWAP2 SWAP1 PUSH3 0x2761 JUMP JUMPDEST PUSH1 0x40 MLOAD DUP1 SWAP2 SUB SWAP1 PUSH1 0x0 CREATE DUP1 ISZERO DUP1 ISZERO PUSH3 0x1513 JUMPI RETURNDATASIZE PUSH1 0x0 DUP1 RETURNDATACOPY RETURNDATASIZE PUSH1 0x0 REVERT JUMPDEST POP SWAP1 POP DUP1 SWAP2 POP POP SWAP8 SWAP7 POP POP POP POP POP POP POP JUMP JUMPDEST PUSH3 0x1531 DUP3 DUP3 PUSH3 0xE34 JUMP JUMPDEST PUSH3 0x15C9 JUMPI PUSH3 0x1559 DUP2 PUSH20 0xFFFFFFFFFFFFFFFFFFFFFFFFFFFFFFFFFFFFFFFF AND PUSH1 0x14 PUSH3 0x15CD JUMP JUMPDEST PUSH3 0x1569 DUP4 PUSH1 0x0 SHR PUSH1 0x20 PUSH3 0x15CD JUMP JUMPDEST PUSH1 0x40 MLOAD PUSH1 0x20 ADD PUSH3 0x157C SWAP3 SWAP2 SWAP1 PUSH3 0x28C0 JUMP JUMPDEST PUSH1 0x40 MLOAD PUSH1 0x20 DUP2 DUP4 SUB SUB DUP2 MSTORE SWAP1 PUSH1 0x40 MSTORE PUSH1 0x40 MLOAD PUSH32 0x8C379A000000000000000000000000000000000000000000000000000000000 DUP2 MSTORE PUSH1 0x4 ADD PUSH3 0x15C0 SWAP2 SWAP1 PUSH3 0x2902 JUMP JUMPDEST PUSH1 0x40 MLOAD DUP1 SWAP2 SUB SWAP1 REVERT JUMPDEST POP POP JUMP JUMPDEST PUSH1 0x60 PUSH1 0x0 PUSH1 0x2 DUP4 PUSH1 0x2 PUSH3 0x15E2 SWAP2 SWAP1 PUSH3 0x2955 JUMP JUMPDEST PUSH3 0x15EE SWAP2 SWAP1 PUSH3 0x29B6 JUMP JUMPDEST PUSH8 0xFFFFFFFFFFFFFFFF DUP2 GT ISZERO PUSH3 0x160A JUMPI PUSH3 0x1609 PUSH3 0x1BB2 JUMP JUMPDEST JUMPDEST PUSH1 0x40 MLOAD SWAP1 DUP1 DUP3 MSTORE DUP1 PUSH1 0x1F ADD PUSH1 0x1F NOT AND PUSH1 0x20 ADD DUP3 ADD PUSH1 0x40 MSTORE DUP1 ISZERO PUSH3 0x163D JUMPI DUP2 PUSH1 0x20 ADD PUSH1 0x1 DUP3 MUL DUP1 CALLDATASIZE DUP4 CALLDATACOPY DUP1 DUP3 ADD SWAP2 POP POP SWAP1 POP JUMPDEST POP SWAP1 POP PUSH32 0x3000000000000000000000000000000000000000000000000000000000000000 DUP2 PUSH1 0x0 DUP2 MLOAD DUP2 LT PUSH3 0x1678 JUMPI PUSH3 0x1677 PUSH3 0x2A13 JUMP JUMPDEST JUMPDEST PUSH1 0x20 ADD ADD SWAP1 PUSH31 0xFFFFFFFFFFFFFFFFFFFFFFFFFFFFFFFFFFFFFFFFFFFFFFFFFFFFFFFFFFFFFF NOT AND SWAP1 DUP2 PUSH1 0x0 BYTE SWAP1 MSTORE8 POP PUSH32 0x7800000000000000000000000000000000000000000000000000000000000000 DUP2 PUSH1 0x1 DUP2 MLOAD DUP2 LT PUSH3 0x16DF JUMPI PUSH3 0x16DE PUSH3 0x2A13 JUMP JUMPDEST JUMPDEST PUSH1 0x20 ADD ADD SWAP1 PUSH31 0xFFFFFFFFFFFFFFFFFFFFFFFFFFFFFFFFFFFFFFFFFFFFFFFFFFFFFFFFFFFFFF NOT AND SWAP1 DUP2 PUSH1 0x0 BYTE SWAP1 MSTORE8 POP PUSH1 0x0 PUSH1 0x1 DUP5 PUSH1 0x2 PUSH3 0x1721 SWAP2 SWAP1 PUSH3 0x2955 JUMP JUMPDEST PUSH3 0x172D SWAP2 SWAP1 PUSH3 0x29B6 JUMP JUMPDEST SWAP1 POP JUMPDEST PUSH1 0x1 DUP2 GT ISZERO PUSH3 0x17D7 JUMPI PUSH32 0x3031323334353637383961626364656600000000000000000000000000000000 PUSH1 0xF DUP7 AND PUSH1 0x10 DUP2 LT PUSH3 0x1773 JUMPI PUSH3 0x1772 PUSH3 0x2A13 JUMP JUMPDEST JUMPDEST BYTE PUSH1 0xF8 SHL DUP3 DUP3 DUP2 MLOAD DUP2 LT PUSH3 0x178D JUMPI PUSH3 0x178C PUSH3 0x2A13 JUMP JUMPDEST JUMPDEST PUSH1 0x20 ADD ADD SWAP1 PUSH31 0xFFFFFFFFFFFFFFFFFFFFFFFFFFFFFFFFFFFFFFFFFFFFFFFFFFFFFFFFFFFFFF NOT AND SWAP1 DUP2 PUSH1 0x0 BYTE SWAP1 MSTORE8 POP PUSH1 0x4 DUP6 SWAP1 SHR SWAP5 POP DUP1 PUSH3 0x17CF SWAP1 PUSH3 0x2A42 JUMP JUMPDEST SWAP1 POP PUSH3 0x1730 JUMP JUMPDEST POP PUSH1 0x0 DUP5 EQ PUSH3 0x181E JUMPI PUSH1 0x40 MLOAD PUSH32 0x8C379A000000000000000000000000000000000000000000000000000000000 DUP2 MSTORE PUSH1 0x4 ADD PUSH3 0x1815 SWAP1 PUSH3 0x2AC0 JUMP JUMPDEST PUSH1 0x40 MLOAD DUP1 SWAP2 SUB SWAP1 REVERT JUMPDEST DUP1 SWAP2 POP POP SWAP3 SWAP2 POP POP JUMP JUMPDEST PUSH2 0x31CB DUP1 PUSH3 0x2AE3 DUP4 CODECOPY ADD SWAP1 JUMP JUMPDEST PUSH1 0x0 PUSH1 0x40 MLOAD SWAP1 POP SWAP1 JUMP JUMPDEST PUSH1 0x0 DUP1 REVERT JUMPDEST PUSH1 0x0 DUP1 REVERT JUMPDEST PUSH1 0x0 PUSH32 0xFFFFFFFF00000000000000000000000000000000000000000000000000000000 DUP3 AND SWAP1 POP SWAP2 SWAP1 POP JUMP JUMPDEST PUSH3 0x1881 DUP2 PUSH3 0x184A JUMP JUMPDEST DUP2 EQ PUSH3 0x188D JUMPI PUSH1 0x0 DUP1 REVERT JUMPDEST POP JUMP JUMPDEST PUSH1 0x0 DUP2 CALLDATALOAD SWAP1 POP PUSH3 0x18A1 DUP2 PUSH3 0x1876 JUMP JUMPDEST SWAP3 SWAP2 POP POP JUMP JUMPDEST PUSH1 0x0 PUSH1 0x20 DUP3 DUP5 SUB SLT ISZERO PUSH3 0x18C0 JUMPI PUSH3 0x18BF PUSH3 0x1840 JUMP JUMPDEST JUMPDEST PUSH1 0x0 PUSH3 0x18D0 DUP5 DUP3 DUP6 ADD PUSH3 0x1890 JUMP JUMPDEST SWAP2 POP POP SWAP3 SWAP2 POP POP JUMP JUMPDEST PUSH1 0x0 DUP2 ISZERO ISZERO SWAP1 POP SWAP2 SWAP1 POP JUMP JUMPDEST PUSH3 0x18F0 DUP2 PUSH3 0x18D9 JUMP JUMPDEST DUP3 MSTORE POP POP JUMP JUMPDEST PUSH1 0x0 PUSH1 0x20 DUP3 ADD SWAP1 POP PUSH3 0x190D PUSH1 0x0 DUP4 ADD DUP5 PUSH3 0x18E5 JUMP JUMPDEST SWAP3 SWAP2 POP POP JUMP JUMPDEST PUSH1 0x0 DUP2 SWAP1 POP SWAP2 SWAP1 POP JUMP JUMPDEST PUSH3 0x1928 DUP2 PUSH3 0x1913 JUMP JUMPDEST DUP2 EQ PUSH3 0x1934 JUMPI PUSH1 0x0 DUP1 REVERT JUMPDEST POP JUMP JUMPDEST PUSH1 0x0 DUP2 CALLDATALOAD SWAP1 POP PUSH3 0x1948 DUP2 PUSH3 0x191D JUMP JUMPDEST SWAP3 SWAP2 POP POP JUMP JUMPDEST PUSH1 0x0 PUSH1 0x20 DUP3 DUP5 SUB SLT ISZERO PUSH3 0x1967 JUMPI PUSH3 0x1966 PUSH3 0x1840 JUMP JUMPDEST JUMPDEST PUSH1 0x0 PUSH3 0x1977 DUP5 DUP3 DUP6 ADD PUSH3 0x1937 JUMP JUMPDEST SWAP2 POP POP SWAP3 SWAP2 POP POP JUMP JUMPDEST PUSH3 0x198B DUP2 PUSH3 0x1913 JUMP JUMPDEST DUP3 MSTORE POP POP JUMP JUMPDEST PUSH1 0x0 PUSH1 0x20 DUP3 ADD SWAP1 POP PUSH3 0x19A8 PUSH1 0x0 DUP4 ADD DUP5 PUSH3 0x1980 JUMP JUMPDEST SWAP3 SWAP2 POP POP JUMP JUMPDEST PUSH1 0x0 PUSH20 0xFFFFFFFFFFFFFFFFFFFFFFFFFFFFFFFFFFFFFFFF DUP3 AND SWAP1 POP SWAP2 SWAP1 POP JUMP JUMPDEST PUSH1 0x0 PUSH3 0x19DB DUP3 PUSH3 0x19AE JUMP JUMPDEST SWAP1 POP SWAP2 SWAP1 POP JUMP JUMPDEST PUSH3 0x19ED DUP2 PUSH3 0x19CE JUMP JUMPDEST DUP2 EQ PUSH3 0x19F9 JUMPI PUSH1 0x0 DUP1 REVERT JUMPDEST POP JUMP JUMPDEST PUSH1 0x0 DUP2 CALLDATALOAD SWAP1 POP PUSH3 0x1A0D DUP2 PUSH3 0x19E2 JUMP JUMPDEST SWAP3 SWAP2 POP POP JUMP JUMPDEST PUSH1 0x0 DUP1 PUSH1 0x40 DUP4 DUP6 SUB SLT ISZERO PUSH3 0x1A2D JUMPI PUSH3 0x1A2C PUSH3 0x1840 JUMP JUMPDEST JUMPDEST PUSH1 0x0 PUSH3 0x1A3D DUP6 DUP3 DUP7 ADD PUSH3 0x1937 JUMP JUMPDEST SWAP3 POP POP PUSH1 0x20 PUSH3 0x1A50 DUP6 DUP3 DUP7 ADD PUSH3 0x19FC JUMP JUMPDEST SWAP2 POP POP SWAP3 POP SWAP3 SWAP1 POP JUMP JUMPDEST PUSH1 0x0 PUSH1 0x20 DUP3 DUP5 SUB SLT ISZERO PUSH3 0x1A73 JUMPI PUSH3 0x1A72 PUSH3 0x1840 JUMP JUMPDEST JUMPDEST PUSH1 0x0 PUSH3 0x1A83 DUP5 DUP3 DUP6 ADD PUSH3 0x19FC JUMP JUMPDEST SWAP2 POP POP SWAP3 SWAP2 POP POP JUMP JUMPDEST PUSH3 0x1A97 DUP2 PUSH3 0x19CE JUMP JUMPDEST DUP3 MSTORE POP POP JUMP JUMPDEST PUSH1 0x0 PUSH1 0x20 DUP3 ADD SWAP1 POP PUSH3 0x1AB4 PUSH1 0x0 DUP4 ADD DUP5 PUSH3 0x1A8C JUMP JUMPDEST SWAP3 SWAP2 POP POP JUMP JUMPDEST PUSH1 0x0 DUP2 SWAP1 POP SWAP2 SWAP1 POP JUMP JUMPDEST PUSH3 0x1ACF DUP2 PUSH3 0x1ABA JUMP JUMPDEST DUP2 EQ PUSH3 0x1ADB JUMPI PUSH1 0x0 DUP1 REVERT JUMPDEST POP JUMP JUMPDEST PUSH1 0x0 DUP2 CALLDATALOAD SWAP1 POP PUSH3 0x1AEF DUP2 PUSH3 0x1AC4 JUMP JUMPDEST SWAP3 SWAP2 POP POP JUMP JUMPDEST PUSH1 0x0 DUP1 REVERT JUMPDEST PUSH1 0x0 PUSH1 0x60 DUP3 DUP5 SUB SLT ISZERO PUSH3 0x1B13 JUMPI PUSH3 0x1B12 PUSH3 0x1AF5 JUMP JUMPDEST JUMPDEST DUP2 SWAP1 POP SWAP3 SWAP2 POP POP JUMP JUMPDEST PUSH1 0x0 DUP1 PUSH1 0x0 PUSH1 0x60 DUP5 DUP7 SUB SLT ISZERO PUSH3 0x1B38 JUMPI PUSH3 0x1B37 PUSH3 0x1840 JUMP JUMPDEST JUMPDEST PUSH1 0x0 PUSH3 0x1B48 DUP7 DUP3 DUP8 ADD PUSH3 0x1ADE JUMP JUMPDEST SWAP4 POP POP PUSH1 0x20 PUSH3 0x1B5B DUP7 DUP3 DUP8 ADD PUSH3 0x1ADE JUMP JUMPDEST SWAP3 POP POP PUSH1 0x40 DUP5 ADD CALLDATALOAD PUSH8 0xFFFFFFFFFFFFFFFF DUP2 GT ISZERO PUSH3 0x1B7F JUMPI PUSH3 0x1B7E PUSH3 0x1845 JUMP JUMPDEST JUMPDEST PUSH3 0x1B8D DUP7 DUP3 DUP8 ADD PUSH3 0x1AFA JUMP JUMPDEST SWAP2 POP POP SWAP3 POP SWAP3 POP SWAP3 JUMP JUMPDEST PUSH1 0x0 DUP1 REVERT JUMPDEST PUSH1 0x0 DUP1 REVERT JUMPDEST PUSH1 0x0 PUSH1 0x1F NOT PUSH1 0x1F DUP4 ADD AND SWAP1 POP SWAP2 SWAP1 POP JUMP JUMPDEST PUSH32 0x4E487B7100000000000000000000000000000000000000000000000000000000 PUSH1 0x0 MSTORE PUSH1 0x41 PUSH1 0x4 MSTORE PUSH1 0x24 PUSH1 0x0 REVERT JUMPDEST PUSH3 0x1BEC DUP3 PUSH3 0x1BA1 JUMP JUMPDEST DUP2 ADD DUP2 DUP2 LT PUSH8 0xFFFFFFFFFFFFFFFF DUP3 GT OR ISZERO PUSH3 0x1C0E JUMPI PUSH3 0x1C0D PUSH3 0x1BB2 JUMP JUMPDEST JUMPDEST DUP1 PUSH1 0x40 MSTORE POP POP POP JUMP JUMPDEST PUSH1 0x0 PUSH3 0x1C23 PUSH3 0x1836 JUMP JUMPDEST SWAP1 POP PUSH3 0x1C31 DUP3 DUP3 PUSH3 0x1BE1 JUMP JUMPDEST SWAP2 SWAP1 POP JUMP JUMPDEST PUSH1 0x0 PUSH8 0xFFFFFFFFFFFFFFFF DUP3 GT ISZERO PUSH3 0x1C54 JUMPI PUSH3 0x1C53 PUSH3 0x1BB2 JUMP JUMPDEST JUMPDEST PUSH3 0x1C5F DUP3 PUSH3 0x1BA1 JUMP JUMPDEST SWAP1 POP PUSH1 0x20 DUP2 ADD SWAP1 POP SWAP2 SWAP1 POP JUMP JUMPDEST DUP3 DUP2 DUP4 CALLDATACOPY PUSH1 0x0 DUP4 DUP4 ADD MSTORE POP POP POP JUMP JUMPDEST PUSH1 0x0 PUSH3 0x1C92 PUSH3 0x1C8C DUP5 PUSH3 0x1C36 JUMP JUMPDEST PUSH3 0x1C17 JUMP JUMPDEST SWAP1 POP DUP3 DUP2 MSTORE PUSH1 0x20 DUP2 ADD DUP5 DUP5 DUP5 ADD GT ISZERO PUSH3 0x1CB1 JUMPI PUSH3 0x1CB0 PUSH3 0x1B9C JUMP JUMPDEST JUMPDEST PUSH3 0x1CBE DUP5 DUP3 DUP6 PUSH3 0x1C6C JUMP JUMPDEST POP SWAP4 SWAP3 POP POP POP JUMP JUMPDEST PUSH1 0x0 DUP3 PUSH1 0x1F DUP4 ADD SLT PUSH3 0x1CDE JUMPI PUSH3 0x1CDD PUSH3 0x1B97 JUMP JUMPDEST JUMPDEST DUP2 CALLDATALOAD PUSH3 0x1CF0 DUP5 DUP3 PUSH1 0x20 DUP7 ADD PUSH3 0x1C7B JUMP JUMPDEST SWAP2 POP POP SWAP3 SWAP2 POP POP JUMP JUMPDEST PUSH1 0x0 DUP1 PUSH1 0x0 DUP1 PUSH1 0x80 DUP6 DUP8 SUB SLT ISZERO PUSH3 0x1D16 JUMPI PUSH3 0x1D15 PUSH3 0x1840 JUMP JUMPDEST JUMPDEST PUSH1 0x0 PUSH3 0x1D26 DUP8 DUP3 DUP9 ADD PUSH3 0x1ADE JUMP JUMPDEST SWAP5 POP POP PUSH1 0x20 DUP6 ADD CALLDATALOAD PUSH8 0xFFFFFFFFFFFFFFFF DUP2 GT ISZERO PUSH3 0x1D4A JUMPI PUSH3 0x1D49 PUSH3 0x1845 JUMP JUMPDEST JUMPDEST PUSH3 0x1D58 DUP8 DUP3 DUP9 ADD PUSH3 0x1CC6 JUMP JUMPDEST SWAP4 POP POP PUSH1 0x40 PUSH3 0x1D6B DUP8 DUP3 DUP9 ADD PUSH3 0x19FC JUMP JUMPDEST SWAP3 POP POP PUSH1 0x60 DUP6 ADD CALLDATALOAD PUSH8 0xFFFFFFFFFFFFFFFF DUP2 GT ISZERO PUSH3 0x1D8F JUMPI PUSH3 0x1D8E PUSH3 0x1845 JUMP JUMPDEST JUMPDEST PUSH3 0x1D9D DUP8 DUP3 DUP9 ADD PUSH3 0x1AFA JUMP JUMPDEST SWAP2 POP POP SWAP3 SWAP6 SWAP2 SWAP5 POP SWAP3 POP JUMP JUMPDEST PUSH1 0x0 PUSH1 0x20 DUP3 DUP5 SUB SLT ISZERO PUSH3 0x1DC2 JUMPI PUSH3 0x1DC1 PUSH3 0x1840 JUMP JUMPDEST JUMPDEST PUSH1 0x0 PUSH3 0x1DD2 DUP5 DUP3 DUP6 ADD PUSH3 0x1ADE JUMP JUMPDEST SWAP2 POP POP SWAP3 SWAP2 POP POP JUMP JUMPDEST PUSH1 0x0 PUSH3 0x1DE8 DUP3 PUSH3 0x19AE JUMP JUMPDEST SWAP1 POP SWAP2 SWAP1 POP JUMP JUMPDEST PUSH3 0x1DFA DUP2 PUSH3 0x1DDB JUMP JUMPDEST DUP2 EQ PUSH3 0x1E06 JUMPI PUSH1 0x0 DUP1 REVERT JUMPDEST POP JUMP JUMPDEST PUSH1 0x0 DUP2 CALLDATALOAD SWAP1 POP PUSH3 0x1E1A DUP2 PUSH3 0x1DEF JUMP JUMPDEST SWAP3 SWAP2 POP POP JUMP JUMPDEST PUSH1 0x0 PUSH1 0x20 DUP3 DUP5 SUB SLT ISZERO PUSH3 0x1E39 JUMPI PUSH3 0x1E38 PUSH3 0x1840 JUMP JUMPDEST JUMPDEST PUSH1 0x0 PUSH3 0x1E49 DUP5 DUP3 DUP6 ADD PUSH3 0x1E09 JUMP JUMPDEST SWAP2 POP POP SWAP3 SWAP2 POP POP JUMP JUMPDEST PUSH1 0x0 DUP3 DUP3 MSTORE PUSH1 0x20 DUP3 ADD SWAP1 POP SWAP3 SWAP2 POP POP JUMP JUMPDEST PUSH32 0x416363657373436F6E74726F6C3A2063616E206F6E6C792072656E6F756E6365 PUSH1 0x0 DUP3 ADD MSTORE PUSH32 0x20726F6C657320666F722073656C660000000000000000000000000000000000 PUSH1 0x20 DUP3 ADD MSTORE POP JUMP JUMPDEST PUSH1 0x0 PUSH3 0x1EC1 PUSH1 0x2F DUP4 PUSH3 0x1E52 JUMP JUMPDEST SWAP2 POP PUSH3 0x1ECE DUP3 PUSH3 0x1E63 JUMP JUMPDEST PUSH1 0x40 DUP3 ADD SWAP1 POP SWAP2 SWAP1 POP JUMP JUMPDEST PUSH1 0x0 PUSH1 0x20 DUP3 ADD SWAP1 POP DUP2 DUP2 SUB PUSH1 0x0 DUP4 ADD MSTORE PUSH3 0x1EF4 DUP2 PUSH3 0x1EB2 JUMP JUMPDEST SWAP1 POP SWAP2 SWAP1 POP JUMP JUMPDEST PUSH1 0x0 DUP2 MLOAD SWAP1 POP PUSH3 0x1F0C DUP2 PUSH3 0x19E2 JUMP JUMPDEST SWAP3 SWAP2 POP POP JUMP JUMPDEST PUSH1 0x0 PUSH1 0x20 DUP3 DUP5 SUB SLT ISZERO PUSH3 0x1F2B JUMPI PUSH3 0x1F2A PUSH3 0x1840 JUMP JUMPDEST JUMPDEST PUSH1 0x0 PUSH3 0x1F3B DUP5 DUP3 DUP6 ADD PUSH3 0x1EFB JUMP JUMPDEST SWAP2 POP POP SWAP3 SWAP2 POP POP JUMP JUMPDEST PUSH1 0x0 DUP1 REVERT JUMPDEST PUSH1 0x0 DUP3 CALLDATALOAD PUSH1 0x1 PUSH2 0x240 SUB DUP4 CALLDATASIZE SUB SUB DUP2 SLT PUSH3 0x1F69 JUMPI PUSH3 0x1F68 PUSH3 0x1F44 JUMP JUMPDEST JUMPDEST DUP3 DUP2 ADD SWAP2 POP POP SWAP3 SWAP2 POP POP JUMP JUMPDEST PUSH1 0x0 PUSH3 0x1F86 PUSH1 0x20 DUP5 ADD DUP5 PUSH3 0x19FC JUMP JUMPDEST SWAP1 POP SWAP3 SWAP2 POP POP JUMP JUMPDEST PUSH3 0x1F99 DUP2 PUSH3 0x19CE JUMP JUMPDEST DUP3 MSTORE POP POP JUMP JUMPDEST PUSH1 0x0 PUSH3 0x1FB0 PUSH1 0x20 DUP5 ADD DUP5 PUSH3 0x1ADE JUMP JUMPDEST SWAP1 POP SWAP3 SWAP2 POP POP JUMP JUMPDEST PUSH3 0x1FC3 DUP2 PUSH3 0x1ABA JUMP JUMPDEST DUP3 MSTORE POP POP JUMP JUMPDEST PUSH1 0x0 PUSH3 0x1FDA PUSH1 0x20 DUP5 ADD DUP5 PUSH3 0x1E09 JUMP JUMPDEST SWAP1 POP SWAP3 SWAP2 POP POP JUMP JUMPDEST PUSH3 0x1FED DUP2 PUSH3 0x1DDB JUMP JUMPDEST DUP3 MSTORE POP POP JUMP JUMPDEST PUSH1 0x18 DUP2 LT PUSH3 0x2001 JUMPI PUSH1 0x0 DUP1 REVERT JUMPDEST POP JUMP JUMPDEST PUSH1 0x0 DUP2 CALLDATALOAD SWAP1 POP PUSH3 0x2015 DUP2 PUSH3 0x1FF3 JUMP JUMPDEST SWAP3 SWAP2 POP POP JUMP JUMPDEST PUSH1 0x0 PUSH3 0x202C PUSH1 0x20 DUP5 ADD DUP5 PUSH3 0x2004 JUMP JUMPDEST SWAP1 POP SWAP3 SWAP2 POP POP JUMP JUMPDEST PUSH32 0x4E487B7100000000000000000000000000000000000000000000000000000000 PUSH1 0x0 MSTORE PUSH1 0x21 PUSH1 0x4 MSTORE PUSH1 0x24 PUSH1 0x0 REVERT JUMPDEST PUSH1 0x18 DUP2 LT PUSH3 0x2077 JUMPI PUSH3 0x2076 PUSH3 0x2034 JUMP JUMPDEST JUMPDEST POP JUMP JUMPDEST PUSH1 0x0 DUP2 SWAP1 POP PUSH3 0x208A DUP3 PUSH3 0x2063 JUMP JUMPDEST SWAP2 SWAP1 POP JUMP JUMPDEST PUSH1 0x0 PUSH3 0x209C DUP3 PUSH3 0x207A JUMP JUMPDEST SWAP1 POP SWAP2 SWAP1 POP JUMP JUMPDEST PUSH3 0x20AE DUP2 PUSH3 0x208F JUMP JUMPDEST DUP3 MSTORE POP POP JUMP JUMPDEST PUSH1 0x0 PUSH3 0x20C5 PUSH1 0x20 DUP5 ADD DUP5 PUSH3 0x1937 JUMP JUMPDEST SWAP1 POP SWAP3 SWAP2 POP POP JUMP JUMPDEST PUSH3 0x20D8 DUP2 PUSH3 0x1913 JUMP JUMPDEST DUP3 MSTORE POP POP JUMP JUMPDEST PUSH1 0x0 DUP1 REVERT JUMPDEST PUSH1 0x0 DUP1 REVERT JUMPDEST PUSH1 0x0 DUP1 DUP4 CALLDATALOAD PUSH1 0x1 PUSH1 0x20 SUB DUP5 CALLDATASIZE SUB SUB DUP2 SLT PUSH3 0x2108 JUMPI PUSH3 0x2107 PUSH3 0x1F44 JUMP JUMPDEST JUMPDEST DUP4 DUP2 ADD SWAP3 POP DUP3 CALLDATALOAD SWAP2 POP PUSH1 0x20 DUP4 ADD SWAP3 POP PUSH8 0xFFFFFFFFFFFFFFFF DUP3 GT ISZERO PUSH3 0x2133 JUMPI PUSH3 0x2132 PUSH3 0x20DE JUMP JUMPDEST JUMPDEST PUSH1 0x40 DUP3 MUL CALLDATASIZE SUB DUP5 SGT ISZERO PUSH3 0x214C JUMPI PUSH3 0x214B PUSH3 0x20E3 JUMP JUMPDEST JUMPDEST POP SWAP3 POP SWAP3 SWAP1 POP JUMP JUMPDEST PUSH1 0x0 DUP3 DUP3 MSTORE PUSH1 0x20 DUP3 ADD SWAP1 POP SWAP3 SWAP2 POP POP JUMP JUMPDEST PUSH1 0x0 DUP2 SWAP1 POP SWAP2 SWAP1 POP JUMP JUMPDEST PUSH1 0x40 DUP3 ADD PUSH3 0x2182 PUSH1 0x0 DUP4 ADD DUP4 PUSH3 0x1F9F JUMP JUMPDEST PUSH3 0x2191 PUSH1 0x0 DUP6 ADD DUP3 PUSH3 0x1FB8 JUMP JUMPDEST POP PUSH3 0x21A1 PUSH1 0x20 DUP4 ADD DUP4 PUSH3 0x1FC9 JUMP JUMPDEST PUSH3 0x21B0 PUSH1 0x20 DUP6 ADD DUP3 PUSH3 0x1FE2 JUMP JUMPDEST POP POP POP POP JUMP JUMPDEST PUSH1 0x0 PUSH3 0x21C4 DUP4 DUP4 PUSH3 0x216F JUMP JUMPDEST PUSH1 0x40 DUP4 ADD SWAP1 POP SWAP3 SWAP2 POP POP JUMP JUMPDEST PUSH1 0x0 DUP3 SWAP1 POP SWAP3 SWAP2 POP POP JUMP JUMPDEST PUSH1 0x0 PUSH1 0x40 DUP3 ADD SWAP1 POP SWAP2 SWAP1 POP JUMP JUMPDEST PUSH1 0x0 PUSH3 0x21F6 DUP4 DUP6 PUSH3 0x2154 JUMP JUMPDEST SWAP4 POP PUSH3 0x2203 DUP3 PUSH3 0x2165 JUMP JUMPDEST DUP1 PUSH1 0x0 JUMPDEST DUP6 DUP2 LT ISZERO PUSH3 0x2244 JUMPI PUSH3 0x221C DUP3 DUP5 PUSH3 0x21D0 JUMP JUMPDEST PUSH3 0x2228 DUP9 DUP3 PUSH3 0x21B6 JUMP JUMPDEST SWAP8 POP PUSH3 0x2235 DUP4 PUSH3 0x21DB JUMP JUMPDEST SWAP3 POP POP PUSH1 0x1 DUP2 ADD SWAP1 POP PUSH3 0x2207 JUMP JUMPDEST POP DUP6 SWAP3 POP POP POP SWAP4 SWAP3 POP POP POP JUMP JUMPDEST PUSH1 0x0 DUP1 DUP4 CALLDATALOAD PUSH1 0x1 PUSH1 0x20 SUB DUP5 CALLDATASIZE SUB SUB DUP2 SLT PUSH3 0x2271 JUMPI PUSH3 0x2270 PUSH3 0x1F44 JUMP JUMPDEST JUMPDEST DUP4 DUP2 ADD SWAP3 POP DUP3 CALLDATALOAD SWAP2 POP PUSH1 0x20 DUP4 ADD SWAP3 POP PUSH8 0xFFFFFFFFFFFFFFFF DUP3 GT ISZERO PUSH3 0x229C JUMPI PUSH3 0x229B PUSH3 0x20DE JUMP JUMPDEST JUMPDEST PUSH1 0x1 DUP3 MUL CALLDATASIZE SUB DUP5 SGT ISZERO PUSH3 0x22B5 JUMPI PUSH3 0x22B4 PUSH3 0x20E3 JUMP JUMPDEST JUMPDEST POP SWAP3 POP SWAP3 SWAP1 POP JUMP JUMPDEST PUSH1 0x0 DUP3 DUP3 MSTORE PUSH1 0x20 DUP3 ADD SWAP1 POP SWAP3 SWAP2 POP POP JUMP JUMPDEST PUSH1 0x0 PUSH3 0x22DC DUP4 DUP6 PUSH3 0x22BD JUMP JUMPDEST SWAP4 POP PUSH3 0x22EB DUP4 DUP6 DUP5 PUSH3 0x1C6C JUMP JUMPDEST PUSH3 0x22F6 DUP4 PUSH3 0x1BA1 JUMP JUMPDEST DUP5 ADD SWAP1 POP SWAP4 SWAP3 POP POP POP JUMP JUMPDEST PUSH1 0x0 PUSH2 0x240 DUP4 ADD PUSH3 0x2317 PUSH1 0x0 DUP5 ADD DUP5 PUSH3 0x1F75 JUMP JUMPDEST PUSH3 0x2326 PUSH1 0x0 DUP7 ADD DUP3 PUSH3 0x1F8E JUMP JUMPDEST POP PUSH3 0x2336 PUSH1 0x20 DUP5 ADD DUP5 PUSH3 0x1F9F JUMP JUMPDEST PUSH3 0x2345 PUSH1 0x20 DUP7 ADD DUP3 PUSH3 0x1FB8 JUMP JUMPDEST POP PUSH3 0x2355 PUSH1 0x40 DUP5 ADD DUP5 PUSH3 0x1F9F JUMP JUMPDEST PUSH3 0x2364 PUSH1 0x40 DUP7 ADD DUP3 PUSH3 0x1FB8 JUMP JUMPDEST POP PUSH3 0x2374 PUSH1 0x60 DUP5 ADD DUP5 PUSH3 0x1FC9 JUMP JUMPDEST PUSH3 0x2383 PUSH1 0x60 DUP7 ADD DUP3 PUSH3 0x1FE2 JUMP JUMPDEST POP PUSH3 0x2393 PUSH1 0x80 DUP5 ADD DUP5 PUSH3 0x1F75 JUMP JUMPDEST PUSH3 0x23A2 PUSH1 0x80 DUP7 ADD DUP3 PUSH3 0x1F8E JUMP JUMPDEST POP PUSH3 0x23B2 PUSH1 0xA0 DUP5 ADD DUP5 PUSH3 0x1F75 JUMP JUMPDEST PUSH3 0x23C1 PUSH1 0xA0 DUP7 ADD DUP3 PUSH3 0x1F8E JUMP JUMPDEST POP PUSH3 0x23D1 PUSH1 0xC0 DUP5 ADD DUP5 PUSH3 0x1F9F JUMP JUMPDEST PUSH3 0x23E0 PUSH1 0xC0 DUP7 ADD DUP3 PUSH3 0x1FB8 JUMP JUMPDEST POP PUSH3 0x23F0 PUSH1 0xE0 DUP5 ADD DUP5 PUSH3 0x1F9F JUMP JUMPDEST PUSH3 0x23FF PUSH1 0xE0 DUP7 ADD DUP3 PUSH3 0x1FB8 JUMP JUMPDEST POP PUSH3 0x2410 PUSH2 0x100 DUP5 ADD DUP5 PUSH3 0x201B JUMP JUMPDEST PUSH3 0x2420 PUSH2 0x100 DUP7 ADD DUP3 PUSH3 0x20A3 JUMP JUMPDEST POP PUSH3 0x2431 PUSH2 0x120 DUP5 ADD DUP5 PUSH3 0x1F9F JUMP JUMPDEST PUSH3 0x2441 PUSH2 0x120 DUP7 ADD DUP3 PUSH3 0x1FB8 JUMP JUMPDEST POP PUSH3 0x2452 PUSH2 0x140 DUP5 ADD DUP5 PUSH3 0x1F9F JUMP JUMPDEST PUSH3 0x2462 PUSH2 0x140 DUP7 ADD DUP3 PUSH3 0x1FB8 JUMP JUMPDEST POP PUSH3 0x2473 PUSH2 0x160 DUP5 ADD DUP5 PUSH3 0x20B4 JUMP JUMPDEST PUSH3 0x2483 PUSH2 0x160 DUP7 ADD DUP3 PUSH3 0x20CD JUMP JUMPDEST POP PUSH3 0x2494 PUSH2 0x180 DUP5 ADD DUP5 PUSH3 0x1F9F JUMP JUMPDEST PUSH3 0x24A4 PUSH2 0x180 DUP7 ADD DUP3 PUSH3 0x1FB8 JUMP JUMPDEST POP PUSH3 0x24B5 PUSH2 0x1A0 DUP5 ADD DUP5 PUSH3 0x20B4 JUMP JUMPDEST PUSH3 0x24C5 PUSH2 0x1A0 DUP7 ADD DUP3 PUSH3 0x20CD JUMP JUMPDEST POP PUSH3 0x24D6 PUSH2 0x1C0 DUP5 ADD DUP5 PUSH3 0x20B4 JUMP JUMPDEST PUSH3 0x24E6 PUSH2 0x1C0 DUP7 ADD DUP3 PUSH3 0x20CD JUMP JUMPDEST POP PUSH3 0x24F7 PUSH2 0x1E0 DUP5 ADD DUP5 PUSH3 0x1F9F JUMP JUMPDEST PUSH3 0x2507 PUSH2 0x1E0 DUP7 ADD DUP3 PUSH3 0x1FB8 JUMP JUMPDEST POP PUSH3 0x2518 PUSH2 0x200 DUP5 ADD DUP5 PUSH3 0x20E8 JUMP JUMPDEST DUP6 DUP4 SUB PUSH2 0x200 DUP8 ADD MSTORE PUSH3 0x252E DUP4 DUP3 DUP5 PUSH3 0x21E8 JUMP JUMPDEST SWAP3 POP POP POP PUSH3 0x2542 PUSH2 0x220 DUP5 ADD DUP5 PUSH3 0x2251 JUMP JUMPDEST DUP6 DUP4 SUB PUSH2 0x220 DUP8 ADD MSTORE PUSH3 0x2558 DUP4 DUP3 DUP5 PUSH3 0x22CE JUMP JUMPDEST SWAP3 POP POP POP DUP1 SWAP2 POP POP SWAP3 SWAP2 POP POP JUMP JUMPDEST PUSH1 0x0 PUSH1 0x60 DUP4 ADD PUSH3 0x257B PUSH1 0x0 DUP5 ADD DUP5 PUSH3 0x1F49 JUMP JUMPDEST DUP5 DUP3 SUB PUSH1 0x0 DUP7 ADD MSTORE PUSH3 0x258F DUP3 DUP3 PUSH3 0x2301 JUMP JUMPDEST SWAP2 POP POP PUSH3 0x25A1 PUSH1 0x20 DUP5 ADD DUP5 PUSH3 0x1F9F JUMP JUMPDEST PUSH3 0x25B0 PUSH1 0x20 DUP7 ADD DUP3 PUSH3 0x1FB8 JUMP JUMPDEST POP PUSH3 0x25C0 PUSH1 0x40 DUP5 ADD DUP5 PUSH3 0x1F75 JUMP JUMPDEST PUSH3 0x25CF PUSH1 0x40 DUP7 ADD DUP3 PUSH3 0x1F8E JUMP JUMPDEST POP DUP1 SWAP2 POP POP SWAP3 SWAP2 POP POP JUMP JUMPDEST PUSH1 0x0 PUSH1 0x20 DUP3 ADD SWAP1 POP DUP2 DUP2 SUB PUSH1 0x0 DUP4 ADD MSTORE PUSH3 0x25F6 DUP2 DUP5 PUSH3 0x2566 JUMP JUMPDEST SWAP1 POP SWAP3 SWAP2 POP POP JUMP JUMPDEST PUSH1 0x0 PUSH1 0x40 DUP3 ADD SWAP1 POP PUSH3 0x2615 PUSH1 0x0 DUP4 ADD DUP6 PUSH3 0x1A8C JUMP JUMPDEST PUSH3 0x2624 PUSH1 0x20 DUP4 ADD DUP5 PUSH3 0x1A8C JUMP JUMPDEST SWAP4 SWAP3 POP POP POP JUMP JUMPDEST PUSH1 0x0 DUP1 REVERT JUMPDEST PUSH1 0x0 DUP3 CALLDATALOAD PUSH1 0x1 PUSH2 0x240 SUB DUP4 CALLDATASIZE SUB SUB DUP2 SLT PUSH3 0x2650 JUMPI PUSH3 0x264F PUSH3 0x262B JUMP JUMPDEST JUMPDEST DUP1 DUP4 ADD SWAP2 POP POP SWAP3 SWAP2 POP POP JUMP JUMPDEST PUSH3 0x2667 DUP2 PUSH3 0x1ABA JUMP JUMPDEST DUP3 MSTORE POP POP JUMP JUMPDEST PUSH1 0x0 DUP2 MLOAD SWAP1 POP SWAP2 SWAP1 POP JUMP JUMPDEST PUSH1 0x0 JUMPDEST DUP4 DUP2 LT ISZERO PUSH3 0x2698 JUMPI DUP1 DUP3 ADD MLOAD DUP2 DUP5 ADD MSTORE PUSH1 0x20 DUP2 ADD SWAP1 POP PUSH3 0x267B JUMP JUMPDEST DUP4 DUP2 GT ISZERO PUSH3 0x26A8 JUMPI PUSH1 0x0 DUP5 DUP5 ADD MSTORE JUMPDEST POP POP POP POP JUMP JUMPDEST PUSH1 0x0 PUSH3 0x26BB DUP3 PUSH3 0x266D JUMP JUMPDEST PUSH3 0x26C7 DUP2 DUP6 PUSH3 0x1E52 JUMP JUMPDEST SWAP4 POP PUSH3 0x26D9 DUP2 DUP6 PUSH1 0x20 DUP7 ADD PUSH3 0x2678 JUMP JUMPDEST PUSH3 0x26E4 DUP2 PUSH3 0x1BA1 JUMP JUMPDEST DUP5 ADD SWAP2 POP POP SWAP3 SWAP2 POP POP JUMP JUMPDEST PUSH1 0x0 PUSH1 0x40 DUP3 ADD SWAP1 POP PUSH3 0x2706 PUSH1 0x0 DUP4 ADD DUP6 PUSH3 0x265C JUMP JUMPDEST DUP2 DUP2 SUB PUSH1 0x20 DUP4 ADD MSTORE PUSH3 0x271A DUP2 DUP5 PUSH3 0x26AE JUMP JUMPDEST SWAP1 POP SWAP4 SWAP3 POP POP POP JUMP JUMPDEST PUSH1 0x0 PUSH1 0x40 DUP3 ADD SWAP1 POP PUSH3 0x273A PUSH1 0x0 DUP4 ADD DUP6 PUSH3 0x265C JUMP JUMPDEST PUSH3 0x2749 PUSH1 0x20 DUP4 ADD DUP5 PUSH3 0x265C JUMP JUMPDEST SWAP4 SWAP3 POP POP POP JUMP JUMPDEST PUSH3 0x275B DUP2 PUSH3 0x1DDB JUMP JUMPDEST DUP3 MSTORE POP POP JUMP JUMPDEST PUSH1 0x0 PUSH1 0xE0 DUP3 ADD SWAP1 POP PUSH3 0x2778 PUSH1 0x0 DUP4 ADD DUP11 PUSH3 0x265C JUMP JUMPDEST PUSH3 0x2787 PUSH1 0x20 DUP4 ADD DUP10 PUSH3 0x1A8C JUMP JUMPDEST PUSH3 0x2796 PUSH1 0x40 DUP4 ADD DUP9 PUSH3 0x265C JUMP JUMPDEST PUSH3 0x27A5 PUSH1 0x60 DUP4 ADD DUP8 PUSH3 0x265C JUMP JUMPDEST PUSH3 0x27B4 PUSH1 0x80 DUP4 ADD DUP7 PUSH3 0x2750 JUMP JUMPDEST PUSH3 0x27C3 PUSH1 0xA0 DUP4 ADD DUP6 PUSH3 0x2750 JUMP JUMPDEST PUSH3 0x27D2 PUSH1 0xC0 DUP4 ADD DUP5 PUSH3 0x265C JUMP JUMPDEST SWAP9 SWAP8 POP POP POP POP POP POP POP POP JUMP JUMPDEST PUSH1 0x0 DUP2 SWAP1 POP SWAP3 SWAP2 POP POP JUMP JUMPDEST PUSH32 0x416363657373436F6E74726F6C3A206163636F756E7420000000000000000000 PUSH1 0x0 DUP3 ADD MSTORE POP JUMP JUMPDEST PUSH1 0x0 PUSH3 0x2821 PUSH1 0x17 DUP4 PUSH3 0x27DE JUMP JUMPDEST SWAP2 POP PUSH3 0x282E DUP3 PUSH3 0x27E9 JUMP JUMPDEST PUSH1 0x17 DUP3 ADD SWAP1 POP SWAP2 SWAP1 POP JUMP JUMPDEST PUSH1 0x0 PUSH3 0x2846 DUP3 PUSH3 0x266D JUMP JUMPDEST PUSH3 0x2852 DUP2 DUP6 PUSH3 0x27DE JUMP JUMPDEST SWAP4 POP PUSH3 0x2864 DUP2 DUP6 PUSH1 0x20 DUP7 ADD PUSH3 0x2678 JUMP JUMPDEST DUP1 DUP5 ADD SWAP2 POP POP SWAP3 SWAP2 POP POP JUMP JUMPDEST PUSH32 0x206973206D697373696E6720726F6C6520000000000000000000000000000000 PUSH1 0x0 DUP3 ADD MSTORE POP JUMP JUMPDEST PUSH1 0x0 PUSH3 0x28A8 PUSH1 0x11 DUP4 PUSH3 0x27DE JUMP JUMPDEST SWAP2 POP PUSH3 0x28B5 DUP3 PUSH3 0x2870 JUMP JUMPDEST PUSH1 0x11 DUP3 ADD SWAP1 POP SWAP2 SWAP1 POP JUMP JUMPDEST PUSH1 0x0 PUSH3 0x28CD DUP3 PUSH3 0x2812 JUMP JUMPDEST SWAP2 POP PUSH3 0x28DB DUP3 DUP6 PUSH3 0x2839 JUMP JUMPDEST SWAP2 POP PUSH3 0x28E8 DUP3 PUSH3 0x2899 JUMP JUMPDEST SWAP2 POP PUSH3 0x28F6 DUP3 DUP5 PUSH3 0x2839 JUMP JUMPDEST SWAP2 POP DUP2 SWAP1 POP SWAP4 SWAP3 POP POP POP JUMP JUMPDEST PUSH1 0x0 PUSH1 0x20 DUP3 ADD SWAP1 POP DUP2 DUP2 SUB PUSH1 0x0 DUP4 ADD MSTORE PUSH3 0x291E DUP2 DUP5 PUSH3 0x26AE JUMP JUMPDEST SWAP1 POP SWAP3 SWAP2 POP POP JUMP JUMPDEST PUSH32 0x4E487B7100000000000000000000000000000000000000000000000000000000 PUSH1 0x0 MSTORE PUSH1 0x11 PUSH1 0x4 MSTORE PUSH1 0x24 PUSH1 0x0 REVERT JUMPDEST PUSH1 0x0 PUSH3 0x2962 DUP3 PUSH3 0x1ABA JUMP JUMPDEST SWAP2 POP PUSH3 0x296F DUP4 PUSH3 0x1ABA JUMP JUMPDEST SWAP3 POP DUP2 PUSH32 0xFFFFFFFFFFFFFFFFFFFFFFFFFFFFFFFFFFFFFFFFFFFFFFFFFFFFFFFFFFFFFFFF DIV DUP4 GT DUP3 ISZERO ISZERO AND ISZERO PUSH3 0x29AB JUMPI PUSH3 0x29AA PUSH3 0x2926 JUMP JUMPDEST JUMPDEST DUP3 DUP3 MUL SWAP1 POP SWAP3 SWAP2 POP POP JUMP JUMPDEST PUSH1 0x0 PUSH3 0x29C3 DUP3 PUSH3 0x1ABA JUMP JUMPDEST SWAP2 POP PUSH3 0x29D0 DUP4 PUSH3 0x1ABA JUMP JUMPDEST SWAP3 POP DUP3 PUSH32 0xFFFFFFFFFFFFFFFFFFFFFFFFFFFFFFFFFFFFFFFFFFFFFFFFFFFFFFFFFFFFFFFF SUB DUP3 GT ISZERO PUSH3 0x2A08 JUMPI PUSH3 0x2A07 PUSH3 0x2926 JUMP JUMPDEST JUMPDEST DUP3 DUP3 ADD SWAP1 POP SWAP3 SWAP2 POP POP JUMP JUMPDEST PUSH32 0x4E487B7100000000000000000000000000000000000000000000000000000000 PUSH1 0x0 MSTORE PUSH1 0x32 PUSH1 0x4 MSTORE PUSH1 0x24 PUSH1 0x0 REVERT JUMPDEST PUSH1 0x0 PUSH3 0x2A4F DUP3 PUSH3 0x1ABA JUMP JUMPDEST SWAP2 POP PUSH1 0x0 DUP3 SUB PUSH3 0x2A65 JUMPI PUSH3 0x2A64 PUSH3 0x2926 JUMP JUMPDEST JUMPDEST PUSH1 0x1 DUP3 SUB SWAP1 POP SWAP2 SWAP1 POP JUMP JUMPDEST PUSH32 0x537472696E67733A20686578206C656E67746820696E73756666696369656E74 PUSH1 0x0 DUP3 ADD MSTORE POP JUMP JUMPDEST PUSH1 0x0 PUSH3 0x2AA8 PUSH1 0x20 DUP4 PUSH3 0x1E52 JUMP JUMPDEST SWAP2 POP PUSH3 0x2AB5 DUP3 PUSH3 0x2A70 JUMP JUMPDEST PUSH1 0x20 DUP3 ADD SWAP1 POP SWAP2 SWAP1 POP JUMP JUMPDEST PUSH1 0x0 PUSH1 0x20 DUP3 ADD SWAP1 POP DUP2 DUP2 SUB PUSH1 0x0 DUP4 ADD MSTORE PUSH3 0x2ADB DUP2 PUSH3 0x2A99 JUMP JUMPDEST SWAP1 POP SWAP2 SWAP1 POP JUMP INVALID PUSH1 0x80 PUSH1 0x40 MSTORE PUSH1 0x0 PUSH1 0x7 SSTORE PUSH1 0x0 PUSH1 0x8 SSTORE CALLVALUE DUP1 ISZERO PUSH3 0x1B JUMPI PUSH1 0x0 DUP1 REVERT JUMPDEST POP PUSH1 0x40 MLOAD PUSH3 0x31CB CODESIZE SUB DUP1 PUSH3 0x31CB DUP4 CODECOPY DUP2 DUP2 ADD PUSH1 0x40 MSTORE DUP2 ADD SWAP1 PUSH3 0x41 SWAP2 SWAP1 PUSH3 0x48B JUMP JUMPDEST DUP7 DUP7 DUP7 DUP7 PUSH1 0x1 DUP1 DUP2 SWAP1 SSTORE POP PUSH1 0x1 DUP5 LT ISZERO PUSH3 0x5B JUMPI PUSH1 0x0 DUP1 REVERT JUMPDEST PUSH1 0x0 PUSH20 0xFFFFFFFFFFFFFFFFFFFFFFFFFFFFFFFFFFFFFFFF AND DUP4 PUSH20 0xFFFFFFFFFFFFFFFFFFFFFFFFFFFFFFFFFFFFFFFF AND SUB PUSH3 0x95 JUMPI PUSH1 0x0 DUP1 REVERT JUMPDEST DUP2 DUP2 GT PUSH3 0xA2 JUMPI PUSH1 0x0 DUP1 REVERT JUMPDEST PUSH3 0xB7 PUSH1 0x0 DUP1 SHL CALLER PUSH3 0x1FE PUSH1 0x20 SHL PUSH1 0x20 SHR JUMP JUMPDEST DUP4 PUSH1 0x3 DUP2 SWAP1 SSTORE POP DUP3 PUSH1 0x2 PUSH1 0x0 PUSH2 0x100 EXP DUP2 SLOAD DUP2 PUSH20 0xFFFFFFFFFFFFFFFFFFFFFFFFFFFFFFFFFFFFFFFF MUL NOT AND SWAP1 DUP4 PUSH20 0xFFFFFFFFFFFFFFFFFFFFFFFFFFFFFFFFFFFFFFFF AND MUL OR SWAP1 SSTORE POP DUP2 PUSH1 0x4 DUP2 SWAP1 SSTORE POP DUP1 PUSH1 0x5 DUP2 SWAP1 SSTORE POP POP POP POP POP DUP3 PUSH1 0x6 PUSH1 0x1 PUSH2 0x100 EXP DUP2 SLOAD DUP2 PUSH20 0xFFFFFFFFFFFFFFFFFFFFFFFFFFFFFFFFFFFFFFFF MUL NOT AND SWAP1 DUP4 PUSH20 0xFFFFFFFFFFFFFFFFFFFFFFFFFFFFFFFFFFFFFFFF AND MUL OR SWAP1 SSTORE POP DUP2 PUSH1 0xB PUSH1 0x0 PUSH2 0x100 EXP DUP2 SLOAD DUP2 PUSH20 0xFFFFFFFFFFFFFFFFFFFFFFFFFFFFFFFFFFFFFFFF MUL NOT AND SWAP1 DUP4 PUSH20 0xFFFFFFFFFFFFFFFFFFFFFFFFFFFFFFFFFFFFFFFF AND MUL OR SWAP1 SSTORE POP DUP1 PUSH1 0xC DUP2 SWAP1 SSTORE POP PUSH1 0x14 PUSH1 0xC SLOAD PUSH3 0x1AB SWAP2 SWAP1 PUSH3 0x59C JUMP JUMPDEST PUSH1 0xD DUP2 SWAP1 SSTORE POP PUSH3 0x1EB PUSH1 0xD SLOAD PUSH1 0xC SLOAD PUSH3 0x1C7 SWAP2 SWAP1 PUSH3 0x5D4 JUMP JUMPDEST PUSH1 0x3 SLOAD PUSH8 0xDE0B6B3A7640000 PUSH3 0x1DF SWAP2 SWAP1 PUSH3 0x59C JUMP JUMPDEST PUSH3 0x2EF PUSH1 0x20 SHL PUSH1 0x20 SHR JUMP JUMPDEST PUSH1 0xE DUP2 SWAP1 SSTORE POP POP POP POP POP POP POP POP PUSH3 0x6CD JUMP JUMPDEST PUSH3 0x210 DUP3 DUP3 PUSH3 0x32F PUSH1 0x20 SHL PUSH1 0x20 SHR JUMP JUMPDEST PUSH3 0x2EB JUMPI PUSH1 0x1 PUSH1 0x0 DUP1 DUP5 DUP2 MSTORE PUSH1 0x20 ADD SWAP1 DUP2 MSTORE PUSH1 0x20 ADD PUSH1 0x0 KECCAK256 PUSH1 0x0 ADD PUSH1 0x0 DUP4 PUSH20 0xFFFFFFFFFFFFFFFFFFFFFFFFFFFFFFFFFFFFFFFF AND PUSH20 0xFFFFFFFFFFFFFFFFFFFFFFFFFFFFFFFFFFFFFFFF AND DUP2 MSTORE PUSH1 0x20 ADD SWAP1 DUP2 MSTORE PUSH1 0x20 ADD PUSH1 0x0 KECCAK256 PUSH1 0x0 PUSH2 0x100 EXP DUP2 SLOAD DUP2 PUSH1 0xFF MUL NOT AND SWAP1 DUP4 ISZERO ISZERO MUL OR SWAP1 SSTORE POP PUSH3 0x290 PUSH3 0x399 PUSH1 0x20 SHL PUSH1 0x20 SHR JUMP JUMPDEST PUSH20 0xFFFFFFFFFFFFFFFFFFFFFFFFFFFFFFFFFFFFFFFF AND DUP2 PUSH20 0xFFFFFFFFFFFFFFFFFFFFFFFFFFFFFFFFFFFFFFFF AND DUP4 PUSH32 0x2F8788117E7EFF1D82E926EC794901D17C78024A50270940304540A733656F0D PUSH1 0x40 MLOAD PUSH1 0x40 MLOAD DUP1 SWAP2 SUB SWAP1 LOG4 JUMPDEST POP POP JUMP JUMPDEST PUSH1 0x0 DUP2 DUP3 PUSH1 0x1 DUP5 DUP7 PUSH3 0x303 SWAP2 SWAP1 PUSH3 0x5D4 JUMP JUMPDEST PUSH3 0x30F SWAP2 SWAP1 PUSH3 0x631 JUMP JUMPDEST PUSH3 0x31B SWAP2 SWAP1 PUSH3 0x59C JUMP JUMPDEST PUSH3 0x327 SWAP2 SWAP1 PUSH3 0x66C JUMP JUMPDEST SWAP1 POP SWAP3 SWAP2 POP POP JUMP JUMPDEST PUSH1 0x0 DUP1 PUSH1 0x0 DUP5 DUP2 MSTORE PUSH1 0x20 ADD SWAP1 DUP2 MSTORE PUSH1 0x20 ADD PUSH1 0x0 KECCAK256 PUSH1 0x0 ADD PUSH1 0x0 DUP4 PUSH20 0xFFFFFFFFFFFFFFFFFFFFFFFFFFFFFFFFFFFFFFFF AND PUSH20 0xFFFFFFFFFFFFFFFFFFFFFFFFFFFFFFFFFFFFFFFF AND DUP2 MSTORE PUSH1 0x20 ADD SWAP1 DUP2 MSTORE PUSH1 0x20 ADD PUSH1 0x0 KECCAK256 PUSH1 0x0 SWAP1 SLOAD SWAP1 PUSH2 0x100 EXP SWAP1 DIV PUSH1 0xFF AND SWAP1 POP SWAP3 SWAP2 POP POP JUMP JUMPDEST PUSH1 0x0 CALLER SWAP1 POP SWAP1 JUMP JUMPDEST PUSH1 0x0 DUP1 REVERT JUMPDEST PUSH1 0x0 DUP2 SWAP1 POP SWAP2 SWAP1 POP JUMP JUMPDEST PUSH3 0x3BB DUP2 PUSH3 0x3A6 JUMP JUMPDEST DUP2 EQ PUSH3 0x3C7 JUMPI PUSH1 0x0 DUP1 REVERT JUMPDEST POP JUMP JUMPDEST PUSH1 0x0 DUP2 MLOAD SWAP1 POP PUSH3 0x3DB DUP2 PUSH3 0x3B0 JUMP JUMPDEST SWAP3 SWAP2 POP POP JUMP JUMPDEST PUSH1 0x0 PUSH20 0xFFFFFFFFFFFFFFFFFFFFFFFFFFFFFFFFFFFFFFFF DUP3 AND SWAP1 POP SWAP2 SWAP1 POP JUMP JUMPDEST PUSH1 0x0 PUSH3 0x40E DUP3 PUSH3 0x3E1 JUMP JUMPDEST SWAP1 POP SWAP2 SWAP1 POP JUMP JUMPDEST PUSH3 0x420 DUP2 PUSH3 0x401 JUMP JUMPDEST DUP2 EQ PUSH3 0x42C JUMPI PUSH1 0x0 DUP1 REVERT JUMPDEST POP JUMP JUMPDEST PUSH1 0x0 DUP2 MLOAD SWAP1 POP PUSH3 0x440 DUP2 PUSH3 0x415 JUMP JUMPDEST SWAP3 SWAP2 POP POP JUMP JUMPDEST PUSH1 0x0 PUSH3 0x453 DUP3 PUSH3 0x3E1 JUMP JUMPDEST SWAP1 POP SWAP2 SWAP1 POP JUMP JUMPDEST PUSH3 0x465 DUP2 PUSH3 0x446 JUMP JUMPDEST DUP2 EQ PUSH3 0x471 JUMPI PUSH1 0x0 DUP1 REVERT JUMPDEST POP JUMP JUMPDEST PUSH1 0x0 DUP2 MLOAD SWAP1 POP PUSH3 0x485 DUP2 PUSH3 0x45A JUMP JUMPDEST SWAP3 SWAP2 POP POP JUMP JUMPDEST PUSH1 0x0 DUP1 PUSH1 0x0 DUP1 PUSH1 0x0 DUP1 PUSH1 0x0 PUSH1 0xE0 DUP9 DUP11 SUB SLT ISZERO PUSH3 0x4AD JUMPI PUSH3 0x4AC PUSH3 0x3A1 JUMP JUMPDEST JUMPDEST PUSH1 0x0 PUSH3 0x4BD DUP11 DUP3 DUP12 ADD PUSH3 0x3CA JUMP JUMPDEST SWAP8 POP POP PUSH1 0x20 PUSH3 0x4D0 DUP11 DUP3 DUP12 ADD PUSH3 0x42F JUMP JUMPDEST SWAP7 POP POP PUSH1 0x40 PUSH3 0x4E3 DUP11 DUP3 DUP12 ADD PUSH3 0x3CA JUMP JUMPDEST SWAP6 POP POP PUSH1 0x60 PUSH3 0x4F6 DUP11 DUP3 DUP12 ADD PUSH3 0x3CA JUMP JUMPDEST SWAP5 POP POP PUSH1 0x80 PUSH3 0x509 DUP11 DUP3 DUP12 ADD PUSH3 0x474 JUMP JUMPDEST SWAP4 POP POP PUSH1 0xA0 PUSH3 0x51C DUP11 DUP3 DUP12 ADD PUSH3 0x474 JUMP JUMPDEST SWAP3 POP POP PUSH1 0xC0 PUSH3 0x52F DUP11 DUP3 DUP12 ADD PUSH3 0x3CA JUMP JUMPDEST SWAP2 POP POP SWAP3 SWAP6 SWAP9 SWAP2 SWAP5 SWAP8 POP SWAP3 SWAP6 POP JUMP JUMPDEST PUSH32 0x4E487B7100000000000000000000000000000000000000000000000000000000 PUSH1 0x0 MSTORE PUSH1 0x12 PUSH1 0x4 MSTORE PUSH1 0x24 PUSH1 0x0 REVERT JUMPDEST PUSH32 0x4E487B7100000000000000000000000000000000000000000000000000000000 PUSH1 0x0 MSTORE PUSH1 0x11 PUSH1 0x4 MSTORE PUSH1 0x24 PUSH1 0x0 REVERT JUMPDEST PUSH1 0x0 PUSH3 0x5A9 DUP3 PUSH3 0x3A6 JUMP JUMPDEST SWAP2 POP PUSH3 0x5B6 DUP4 PUSH3 0x3A6 JUMP JUMPDEST SWAP3 POP DUP3 PUSH3 0x5C9 JUMPI PUSH3 0x5C8 PUSH3 0x53E JUMP JUMPDEST JUMPDEST DUP3 DUP3 DIV SWAP1 POP SWAP3 SWAP2 POP POP JUMP JUMPDEST PUSH1 0x0 PUSH3 0x5E1 DUP3 PUSH3 0x3A6 JUMP JUMPDEST SWAP2 POP PUSH3 0x5EE DUP4 PUSH3 0x3A6 JUMP JUMPDEST SWAP3 POP DUP3 PUSH32 0xFFFFFFFFFFFFFFFFFFFFFFFFFFFFFFFFFFFFFFFFFFFFFFFFFFFFFFFFFFFFFFFF SUB DUP3 GT ISZERO PUSH3 0x626 JUMPI PUSH3 0x625 PUSH3 0x56D JUMP JUMPDEST JUMPDEST DUP3 DUP3 ADD SWAP1 POP SWAP3 SWAP2 POP POP JUMP JUMPDEST PUSH1 0x0 PUSH3 0x63E DUP3 PUSH3 0x3A6 JUMP JUMPDEST SWAP2 POP PUSH3 0x64B DUP4 PUSH3 0x3A6 JUMP JUMPDEST SWAP3 POP DUP3 DUP3 LT ISZERO PUSH3 0x661 JUMPI PUSH3 0x660 PUSH3 0x56D JUMP JUMPDEST JUMPDEST DUP3 DUP3 SUB SWAP1 POP SWAP3 SWAP2 POP POP JUMP JUMPDEST PUSH1 0x0 PUSH3 0x679 DUP3 PUSH3 0x3A6 JUMP JUMPDEST SWAP2 POP PUSH3 0x686 DUP4 PUSH3 0x3A6 JUMP JUMPDEST SWAP3 POP DUP2 PUSH32 0xFFFFFFFFFFFFFFFFFFFFFFFFFFFFFFFFFFFFFFFFFFFFFFFFFFFFFFFFFFFFFFFF DIV DUP4 GT DUP3 ISZERO ISZERO AND ISZERO PUSH3 0x6C2 JUMPI PUSH3 0x6C1 PUSH3 0x56D JUMP JUMPDEST JUMPDEST DUP3 DUP3 MUL SWAP1 POP SWAP3 SWAP2 POP POP JUMP JUMPDEST PUSH2 0x2AEE DUP1 PUSH3 0x6DD PUSH1 0x0 CODECOPY PUSH1 0x0 RETURN INVALID PUSH1 0x80 PUSH1 0x40 MSTORE PUSH1 0x4 CALLDATASIZE LT PUSH2 0x1BB JUMPI PUSH1 0x0 CALLDATALOAD PUSH1 0xE0 SHR DUP1 PUSH4 0x7A37AC26 GT PUSH2 0xEC JUMPI DUP1 PUSH4 0xC19D93FB GT PUSH2 0x8A JUMPI DUP1 PUSH4 0xD547741F GT PUSH2 0x64 JUMPI DUP1 PUSH4 0xD547741F EQ PUSH2 0x5E3 JUMPI DUP1 PUSH4 0xEF38BF01 EQ PUSH2 0x60C JUMPI DUP1 PUSH4 0xFBFA77CF EQ PUSH2 0x637 JUMPI DUP1 PUSH4 0xFC0C546A EQ PUSH2 0x662 JUMPI PUSH2 0x1CF JUMP JUMPDEST DUP1 PUSH4 0xC19D93FB EQ PUSH2 0x562 JUMPI DUP1 PUSH4 0xC392F766 EQ PUSH2 0x58D JUMPI DUP1 PUSH4 0xC97F8D6E EQ PUSH2 0x5B8 JUMPI PUSH2 0x1CF JUMP JUMPDEST DUP1 PUSH4 0xA217FDDF GT PUSH2 0xC6 JUMPI DUP1 PUSH4 0xA217FDDF EQ PUSH2 0x4C7 JUMPI DUP1 PUSH4 0xA4BF26B6 EQ PUSH2 0x4F2 JUMPI DUP1 PUSH4 0xB7A8807C EQ PUSH2 0x51B JUMPI DUP1 PUSH4 0xBBDC9077 EQ PUSH2 0x546 JUMPI PUSH2 0x1CF JUMP JUMPDEST DUP1 PUSH4 0x7A37AC26 EQ PUSH2 0x448 JUMPI DUP1 PUSH4 0x8433ACD1 EQ PUSH2 0x473 JUMPI DUP1 PUSH4 0x91D14854 EQ PUSH2 0x48A JUMPI PUSH2 0x1CF JUMP JUMPDEST DUP1 PUSH4 0x397A8BAB GT PUSH2 0x159 JUMPI DUP1 PUSH4 0x590E1AE3 GT PUSH2 0x133 JUMPI DUP1 PUSH4 0x590E1AE3 EQ PUSH2 0x3BC JUMPI DUP1 PUSH4 0x61C9D81C EQ PUSH2 0x3C6 JUMPI DUP1 PUSH4 0x6E353A1D EQ PUSH2 0x3EF JUMPI DUP1 PUSH4 0x74D00F67 EQ PUSH2 0x40B JUMPI PUSH2 0x1CF JUMP JUMPDEST DUP1 PUSH4 0x397A8BAB EQ PUSH2 0x33D JUMPI DUP1 PUSH4 0x40193883 EQ PUSH2 0x366 JUMPI DUP1 PUSH4 0x4B6753BC EQ PUSH2 0x391 JUMPI PUSH2 0x1CF JUMP JUMPDEST DUP1 PUSH4 0x2C4E722E GT PUSH2 0x195 JUMPI DUP1 PUSH4 0x2C4E722E EQ PUSH2 0x283 JUMPI DUP1 PUSH4 0x2F2FF15D EQ PUSH2 0x2AE JUMPI DUP1 PUSH4 0x31F36BD9 EQ PUSH2 0x2D7 JUMPI DUP1 PUSH4 0x36568ABE EQ PUSH2 0x314 JUMPI PUSH2 0x1CF JUMP JUMPDEST DUP1 PUSH4 0x1FFC9A7 EQ PUSH2 0x1DE JUMPI DUP1 PUSH4 0xC3CA20F EQ PUSH2 0x21B JUMPI DUP1 PUSH4 0x248A9CA3 EQ PUSH2 0x246 JUMPI PUSH2 0x1CF JUMP JUMPDEST CALLDATASIZE PUSH2 0x1CF JUMPI PUSH1 0x0 DUP1 SHL PUSH2 0x1CD DUP2 PUSH2 0x68D JUMP JUMPDEST STOP JUMPDEST PUSH1 0x0 DUP1 SHL PUSH2 0x1DC DUP2 PUSH2 0x68D JUMP JUMPDEST STOP JUMPDEST CALLVALUE DUP1 ISZERO PUSH2 0x1EA JUMPI PUSH1 0x0 DUP1 REVERT JUMPDEST POP PUSH2 0x205 PUSH1 0x4 DUP1 CALLDATASIZE SUB DUP2 ADD SWAP1 PUSH2 0x200 SWAP2 SWAP1 PUSH2 0x1D8F JUMP JUMPDEST PUSH2 0x6A1 JUMP JUMPDEST PUSH1 0x40 MLOAD PUSH2 0x212 SWAP2 SWAP1 PUSH2 0x1DD7 JUMP JUMPDEST PUSH1 0x40 MLOAD DUP1 SWAP2 SUB SWAP1 RETURN JUMPDEST CALLVALUE DUP1 ISZERO PUSH2 0x227 JUMPI PUSH1 0x0 DUP1 REVERT JUMPDEST POP PUSH2 0x230 PUSH2 0x71B JUMP JUMPDEST PUSH1 0x40 MLOAD PUSH2 0x23D SWAP2 SWAP1 PUSH2 0x1E0B JUMP JUMPDEST PUSH1 0x40 MLOAD DUP1 SWAP2 SUB SWAP1 RETURN JUMPDEST CALLVALUE DUP1 ISZERO PUSH2 0x252 JUMPI PUSH1 0x0 DUP1 REVERT JUMPDEST POP PUSH2 0x26D PUSH1 0x4 DUP1 CALLDATASIZE SUB DUP2 ADD SWAP1 PUSH2 0x268 SWAP2 SWAP1 PUSH2 0x1E5C JUMP JUMPDEST PUSH2 0x721 JUMP JUMPDEST PUSH1 0x40 MLOAD PUSH2 0x27A SWAP2 SWAP1 PUSH2 0x1E98 JUMP JUMPDEST PUSH1 0x40 MLOAD DUP1 SWAP2 SUB SWAP1 RETURN JUMPDEST CALLVALUE DUP1 ISZERO PUSH2 0x28F JUMPI PUSH1 0x0 DUP1 REVERT JUMPDEST POP PUSH2 0x298 PUSH2 0x740 JUMP JUMPDEST PUSH1 0x40 MLOAD PUSH2 0x2A5 SWAP2 SWAP1 PUSH2 0x1E0B JUMP JUMPDEST PUSH1 0x40 MLOAD DUP1 SWAP2 SUB SWAP1 RETURN JUMPDEST CALLVALUE DUP1 ISZERO PUSH2 0x2BA JUMPI PUSH1 0x0 DUP1 REVERT JUMPDEST POP PUSH2 0x2D5 PUSH1 0x4 DUP1 CALLDATASIZE SUB DUP2 ADD SWAP1 PUSH2 0x2D0 SWAP2 SWAP1 PUSH2 0x1F11 JUMP JUMPDEST PUSH2 0x746 JUMP JUMPDEST STOP JUMPDEST CALLVALUE DUP1 ISZERO PUSH2 0x2E3 JUMPI PUSH1 0x0 DUP1 REVERT JUMPDEST POP PUSH2 0x2FE PUSH1 0x4 DUP1 CALLDATASIZE SUB DUP2 ADD SWAP1 PUSH2 0x2F9 SWAP2 SWAP1 PUSH2 0x1F7D JUMP JUMPDEST PUSH2 0x767 JUMP JUMPDEST PUSH1 0x40 MLOAD PUSH2 0x30B SWAP2 SWAP1 PUSH2 0x1E0B JUMP JUMPDEST PUSH1 0x40 MLOAD DUP1 SWAP2 SUB SWAP1 RETURN JUMPDEST CALLVALUE DUP1 ISZERO PUSH2 0x320 JUMPI PUSH1 0x0 DUP1 REVERT JUMPDEST POP PUSH2 0x33B PUSH1 0x4 DUP1 CALLDATASIZE SUB DUP2 ADD SWAP1 PUSH2 0x336 SWAP2 SWAP1 PUSH2 0x1F11 JUMP JUMPDEST PUSH2 0x78C JUMP JUMPDEST STOP JUMPDEST CALLVALUE DUP1 ISZERO PUSH2 0x349 JUMPI PUSH1 0x0 DUP1 REVERT JUMPDEST POP PUSH2 0x364 PUSH1 0x4 DUP1 CALLDATASIZE SUB DUP2 ADD SWAP1 PUSH2 0x35F SWAP2 SWAP1 PUSH2 0x1FBD JUMP JUMPDEST PUSH2 0x80F JUMP JUMPDEST STOP JUMPDEST CALLVALUE DUP1 ISZERO PUSH2 0x372 JUMPI PUSH1 0x0 DUP1 REVERT JUMPDEST POP PUSH2 0x37B PUSH2 0x82D JUMP JUMPDEST PUSH1 0x40 MLOAD PUSH2 0x388 SWAP2 SWAP1 PUSH2 0x1E0B JUMP JUMPDEST PUSH1 0x40 MLOAD DUP1 SWAP2 SUB SWAP1 RETURN JUMPDEST CALLVALUE DUP1 ISZERO PUSH2 0x39D JUMPI PUSH1 0x0 DUP1 REVERT JUMPDEST POP PUSH2 0x3A6 PUSH2 0x833 JUMP JUMPDEST PUSH1 0x40 MLOAD PUSH2 0x3B3 SWAP2 SWAP1 PUSH2 0x1E0B JUMP JUMPDEST PUSH1 0x40 MLOAD DUP1 SWAP2 SUB SWAP1 RETURN JUMPDEST PUSH2 0x3C4 PUSH2 0x839 JUMP JUMPDEST STOP JUMPDEST CALLVALUE DUP1 ISZERO PUSH2 0x3D2 JUMPI PUSH1 0x0 DUP1 REVERT JUMPDEST POP PUSH2 0x3ED PUSH1 0x4 DUP1 CALLDATASIZE SUB DUP2 ADD SWAP1 PUSH2 0x3E8 SWAP2 SWAP1 PUSH2 0x2028 JUMP JUMPDEST PUSH2 0x97B JUMP JUMPDEST STOP JUMPDEST PUSH2 0x409 PUSH1 0x4 DUP1 CALLDATASIZE SUB DUP2 ADD SWAP1 PUSH2 0x404 SWAP2 SWAP1 PUSH2 0x2028 JUMP JUMPDEST PUSH2 0xACC JUMP JUMPDEST STOP JUMPDEST CALLVALUE DUP1 ISZERO PUSH2 0x417 JUMPI PUSH1 0x0 DUP1 REVERT JUMPDEST POP PUSH2 0x432 PUSH1 0x4 DUP1 CALLDATASIZE SUB DUP2 ADD SWAP1 PUSH2 0x42D SWAP2 SWAP1 PUSH2 0x1FBD JUMP JUMPDEST PUSH2 0xB8A JUMP JUMPDEST PUSH1 0x40 MLOAD PUSH2 0x43F SWAP2 SWAP1 PUSH2 0x1E0B JUMP JUMPDEST PUSH1 0x40 MLOAD DUP1 SWAP2 SUB SWAP1 RETURN JUMPDEST CALLVALUE DUP1 ISZERO PUSH2 0x454 JUMPI PUSH1 0x0 DUP1 REVERT JUMPDEST POP PUSH2 0x45D PUSH2 0xBA2 JUMP JUMPDEST PUSH1 0x40 MLOAD PUSH2 0x46A SWAP2 SWAP1 PUSH2 0x1E0B JUMP JUMPDEST PUSH1 0x40 MLOAD DUP1 SWAP2 SUB SWAP1 RETURN JUMPDEST CALLVALUE DUP1 ISZERO PUSH2 0x47F JUMPI PUSH1 0x0 DUP1 REVERT JUMPDEST POP PUSH2 0x488 PUSH2 0xBA8 JUMP JUMPDEST STOP JUMPDEST CALLVALUE DUP1 ISZERO PUSH2 0x496 JUMPI PUSH1 0x0 DUP1 REVERT JUMPDEST POP PUSH2 0x4B1 PUSH1 0x4 DUP1 CALLDATASIZE SUB DUP2 ADD SWAP1 PUSH2 0x4AC SWAP2 SWAP1 PUSH2 0x1F11 JUMP JUMPDEST PUSH2 0xE7C JUMP JUMPDEST PUSH1 0x40 MLOAD PUSH2 0x4BE SWAP2 SWAP1 PUSH2 0x1DD7 JUMP JUMPDEST PUSH1 0x40 MLOAD DUP1 SWAP2 SUB SWAP1 RETURN JUMPDEST CALLVALUE DUP1 ISZERO PUSH2 0x4D3 JUMPI PUSH1 0x0 DUP1 REVERT JUMPDEST POP PUSH2 0x4DC PUSH2 0xEE6 JUMP JUMPDEST PUSH1 0x40 MLOAD PUSH2 0x4E9 SWAP2 SWAP1 PUSH2 0x1E98 JUMP JUMPDEST PUSH1 0x40 MLOAD DUP1 SWAP2 SUB SWAP1 RETURN JUMPDEST CALLVALUE DUP1 ISZERO PUSH2 0x4FE JUMPI PUSH1 0x0 DUP1 REVERT JUMPDEST POP PUSH2 0x519 PUSH1 0x4 DUP1 CALLDATASIZE SUB DUP2 ADD SWAP1 PUSH2 0x514 SWAP2 SWAP1 PUSH2 0x2055 JUMP JUMPDEST PUSH2 0xEED JUMP JUMPDEST STOP JUMPDEST CALLVALUE DUP1 ISZERO PUSH2 0x527 JUMPI PUSH1 0x0 DUP1 REVERT JUMPDEST POP PUSH2 0x530 PUSH2 0x10AC JUMP JUMPDEST PUSH1 0x40 MLOAD PUSH2 0x53D SWAP2 SWAP1 PUSH2 0x1E0B JUMP JUMPDEST PUSH1 0x40 MLOAD DUP1 SWAP2 SUB SWAP1 RETURN JUMPDEST PUSH2 0x560 PUSH1 0x4 DUP1 CALLDATASIZE SUB DUP2 ADD SWAP1 PUSH2 0x55B SWAP2 SWAP1 PUSH2 0x20C1 JUMP JUMPDEST PUSH2 0x10B2 JUMP JUMPDEST STOP JUMPDEST CALLVALUE DUP1 ISZERO PUSH2 0x56E JUMPI PUSH1 0x0 DUP1 REVERT JUMPDEST POP PUSH2 0x577 PUSH2 0x118B JUMP JUMPDEST PUSH1 0x40 MLOAD PUSH2 0x584 SWAP2 SWAP1 PUSH2 0x2178 JUMP JUMPDEST PUSH1 0x40 MLOAD DUP1 SWAP2 SUB SWAP1 RETURN JUMPDEST CALLVALUE DUP1 ISZERO PUSH2 0x599 JUMPI PUSH1 0x0 DUP1 REVERT JUMPDEST POP PUSH2 0x5A2 PUSH2 0x119E JUMP JUMPDEST PUSH1 0x40 MLOAD PUSH2 0x5AF SWAP2 SWAP1 PUSH2 0x1E0B JUMP JUMPDEST PUSH1 0x40 MLOAD DUP1 SWAP2 SUB SWAP1 RETURN JUMPDEST CALLVALUE DUP1 ISZERO PUSH2 0x5C4 JUMPI PUSH1 0x0 DUP1 REVERT JUMPDEST POP PUSH2 0x5CD PUSH2 0x11A4 JUMP JUMPDEST PUSH1 0x40 MLOAD PUSH2 0x5DA SWAP2 SWAP1 PUSH2 0x1E0B JUMP JUMPDEST PUSH1 0x40 MLOAD DUP1 SWAP2 SUB SWAP1 RETURN JUMPDEST CALLVALUE DUP1 ISZERO PUSH2 0x5EF JUMPI PUSH1 0x0 DUP1 REVERT JUMPDEST POP PUSH2 0x60A PUSH1 0x4 DUP1 CALLDATASIZE SUB DUP2 ADD SWAP1 PUSH2 0x605 SWAP2 SWAP1 PUSH2 0x1F11 JUMP JUMPDEST PUSH2 0x11AA JUMP JUMPDEST STOP JUMPDEST CALLVALUE DUP1 ISZERO PUSH2 0x618 JUMPI PUSH1 0x0 DUP1 REVERT JUMPDEST POP PUSH2 0x621 PUSH2 0x11CB JUMP JUMPDEST PUSH1 0x40 MLOAD PUSH2 0x62E SWAP2 SWAP1 PUSH2 0x21F2 JUMP JUMPDEST PUSH1 0x40 MLOAD DUP1 SWAP2 SUB SWAP1 RETURN JUMPDEST CALLVALUE DUP1 ISZERO PUSH2 0x643 JUMPI PUSH1 0x0 DUP1 REVERT JUMPDEST POP PUSH2 0x64C PUSH2 0x11F1 JUMP JUMPDEST PUSH1 0x40 MLOAD PUSH2 0x659 SWAP2 SWAP1 PUSH2 0x222E JUMP JUMPDEST PUSH1 0x40 MLOAD DUP1 SWAP2 SUB SWAP1 RETURN JUMPDEST CALLVALUE DUP1 ISZERO PUSH2 0x66E JUMPI PUSH1 0x0 DUP1 REVERT JUMPDEST POP PUSH2 0x677 PUSH2 0x1217 JUMP JUMPDEST PUSH1 0x40 MLOAD PUSH2 0x684 SWAP2 SWAP1 PUSH2 0x227C JUMP JUMPDEST PUSH1 0x40 MLOAD DUP1 SWAP2 SUB SWAP1 RETURN JUMPDEST PUSH2 0x69E DUP2 PUSH2 0x699 PUSH2 0x123D JUMP JUMPDEST PUSH2 0x1245 JUMP JUMPDEST POP JUMP JUMPDEST PUSH1 0x0 PUSH32 0x7965DB0B00000000000000000000000000000000000000000000000000000000 PUSH28 0xFFFFFFFFFFFFFFFFFFFFFFFFFFFFFFFFFFFFFFFFFFFFFFFFFFFFFFFF NOT AND DUP3 PUSH28 0xFFFFFFFFFFFFFFFFFFFFFFFFFFFFFFFFFFFFFFFFFFFFFFFFFFFFFFFF NOT AND EQ DUP1 PUSH2 0x714 JUMPI POP PUSH2 0x713 DUP3 PUSH2 0x12E2 JUMP JUMPDEST JUMPDEST SWAP1 POP SWAP2 SWAP1 POP JUMP JUMPDEST PUSH1 0x7 SLOAD DUP2 JUMP JUMPDEST PUSH1 0x0 DUP1 PUSH1 0x0 DUP4 DUP2 MSTORE PUSH1 0x20 ADD SWAP1 DUP2 MSTORE PUSH1 0x20 ADD PUSH1 0x0 KECCAK256 PUSH1 0x1 ADD SLOAD SWAP1 POP SWAP2 SWAP1 POP JUMP JUMPDEST PUSH1 0x3 SLOAD DUP2 JUMP JUMPDEST PUSH2 0x74F DUP3 PUSH2 0x721 JUMP JUMPDEST PUSH2 0x758 DUP2 PUSH2 0x68D JUMP JUMPDEST PUSH2 0x762 DUP4 DUP4 PUSH2 0x134C JUMP JUMPDEST POP POP POP JUMP JUMPDEST PUSH1 0x9 PUSH1 0x20 MSTORE DUP2 PUSH1 0x0 MSTORE PUSH1 0x40 PUSH1 0x0 KECCAK256 PUSH1 0x20 MSTORE DUP1 PUSH1 0x0 MSTORE PUSH1 0x40 PUSH1 0x0 KECCAK256 PUSH1 0x0 SWAP2 POP SWAP2 POP POP SLOAD DUP2 JUMP JUMPDEST PUSH2 0x794 PUSH2 0x123D JUMP JUMPDEST PUSH20 0xFFFFFFFFFFFFFFFFFFFFFFFFFFFFFFFFFFFFFFFF AND DUP2 PUSH20 0xFFFFFFFFFFFFFFFFFFFFFFFFFFFFFFFFFFFFFFFF AND EQ PUSH2 0x801 JUMPI PUSH1 0x40 MLOAD PUSH32 0x8C379A000000000000000000000000000000000000000000000000000000000 DUP2 MSTORE PUSH1 0x4 ADD PUSH2 0x7F8 SWAP1 PUSH2 0x231A JUMP JUMPDEST PUSH1 0x40 MLOAD DUP1 SWAP2 SUB SWAP1 REVERT JUMPDEST PUSH2 0x80B DUP3 DUP3 PUSH2 0x142C JUMP JUMPDEST POP POP JUMP JUMPDEST PUSH1 0x0 DUP1 SHL PUSH2 0x81C DUP2 PUSH2 0x68D JUMP JUMPDEST PUSH2 0x829 PUSH1 0x0 DUP1 SHL DUP4 PUSH2 0x134C JUMP JUMPDEST POP POP JUMP JUMPDEST PUSH1 0xE SLOAD DUP2 JUMP JUMPDEST PUSH1 0x5 SLOAD DUP2 JUMP JUMPDEST PUSH1 0x2 PUSH1 0x1 SLOAD SUB PUSH2 0x87E JUMPI PUSH1 0x40 MLOAD PUSH32 0x8C379A000000000000000000000000000000000000000000000000000000000 DUP2 MSTORE PUSH1 0x4 ADD PUSH2 0x875 SWAP1 PUSH2 0x2386 JUMP JUMPDEST PUSH1 0x40 MLOAD DUP1 SWAP2 SUB SWAP1 REVERT JUMPDEST PUSH1 0x2 PUSH1 0x1 DUP2 SWAP1 SSTORE POP PUSH1 0x0 PUSH1 0x9 PUSH1 0x0 PUSH1 0x8 SLOAD DUP2 MSTORE PUSH1 0x20 ADD SWAP1 DUP2 MSTORE PUSH1 0x20 ADD PUSH1 0x0 KECCAK256 PUSH1 0x0 CALLER PUSH20 0xFFFFFFFFFFFFFFFFFFFFFFFFFFFFFFFFFFFFFFFF AND PUSH20 0xFFFFFFFFFFFFFFFFFFFFFFFFFFFFFFFFFFFFFFFF AND DUP2 MSTORE PUSH1 0x20 ADD SWAP1 DUP2 MSTORE PUSH1 0x20 ADD PUSH1 0x0 KECCAK256 SLOAD EQ PUSH2 0x8E5 JUMPI PUSH1 0x0 DUP1 REVERT JUMPDEST PUSH1 0x6 PUSH1 0x1 SWAP1 SLOAD SWAP1 PUSH2 0x100 EXP SWAP1 DIV PUSH20 0xFFFFFFFFFFFFFFFFFFFFFFFFFFFFFFFFFFFFFFFF AND PUSH20 0xFFFFFFFFFFFFFFFFFFFFFFFFFFFFFFFFFFFFFFFF AND PUSH4 0xFA89401A CALLER PUSH1 0x40 MLOAD DUP3 PUSH4 0xFFFFFFFF AND PUSH1 0xE0 SHL DUP2 MSTORE PUSH1 0x4 ADD PUSH2 0x940 SWAP2 SWAP1 PUSH2 0x23B5 JUMP JUMPDEST PUSH1 0x0 PUSH1 0x40 MLOAD DUP1 DUP4 SUB DUP2 PUSH1 0x0 DUP8 DUP1 EXTCODESIZE ISZERO DUP1 ISZERO PUSH2 0x95A JUMPI PUSH1 0x0 DUP1 REVERT JUMPDEST POP GAS CALL ISZERO DUP1 ISZERO PUSH2 0x96E JUMPI RETURNDATASIZE PUSH1 0x0 DUP1 RETURNDATACOPY RETURNDATASIZE PUSH1 0x0 REVERT JUMPDEST POP POP POP POP PUSH1 0x1 DUP1 DUP2 SWAP1 SSTORE POP JUMP JUMPDEST PUSH1 0x0 DUP1 SHL PUSH2 0x988 DUP2 PUSH2 0x68D JUMP JUMPDEST PUSH1 0x2 PUSH1 0x1 SLOAD SUB PUSH2 0x9CD JUMPI PUSH1 0x40 MLOAD PUSH32 0x8C379A000000000000000000000000000000000000000000000000000000000 DUP2 MSTORE PUSH1 0x4 ADD PUSH2 0x9C4 SWAP1 PUSH2 0x2386 JUMP JUMPDEST PUSH1 0x40 MLOAD DUP1 SWAP2 SUB SWAP1 REVERT JUMPDEST PUSH1 0x2 PUSH1 0x1 DUP2 SWAP1 SSTORE POP PUSH1 0x1 DUP1 DUP2 GT ISZERO PUSH2 0x9E8 JUMPI PUSH2 0x9E7 PUSH2 0x2101 JUMP JUMPDEST JUMPDEST PUSH1 0x6 PUSH1 0x0 SWAP1 SLOAD SWAP1 PUSH2 0x100 EXP SWAP1 DIV PUSH1 0xFF AND PUSH1 0x1 DUP2 GT ISZERO PUSH2 0xA0A JUMPI PUSH2 0xA09 PUSH2 0x2101 JUMP JUMPDEST JUMPDEST EQ PUSH2 0xA14 JUMPI PUSH1 0x0 DUP1 REVERT JUMPDEST PUSH1 0x0 DUP3 PUSH20 0xFFFFFFFFFFFFFFFFFFFFFFFFFFFFFFFFFFFFFFFF AND SELFBALANCE PUSH1 0x40 MLOAD PUSH2 0xA3A SWAP1 PUSH2 0x2401 JUMP JUMPDEST PUSH1 0x0 PUSH1 0x40 MLOAD DUP1 DUP4 SUB DUP2 DUP6 DUP8 GAS CALL SWAP3 POP POP POP RETURNDATASIZE DUP1 PUSH1 0x0 DUP2 EQ PUSH2 0xA77 JUMPI PUSH1 0x40 MLOAD SWAP2 POP PUSH1 0x1F NOT PUSH1 0x3F RETURNDATASIZE ADD AND DUP3 ADD PUSH1 0x40 MSTORE RETURNDATASIZE DUP3 MSTORE RETURNDATASIZE PUSH1 0x0 PUSH1 0x20 DUP5 ADD RETURNDATACOPY PUSH2 0xA7C JUMP JUMPDEST PUSH1 0x60 SWAP2 POP JUMPDEST POP POP SWAP1 POP DUP1 PUSH2 0xAC0 JUMPI PUSH1 0x40 MLOAD PUSH32 0x8C379A000000000000000000000000000000000000000000000000000000000 DUP2 MSTORE PUSH1 0x4 ADD PUSH2 0xAB7 SWAP1 PUSH2 0x2462 JUMP JUMPDEST PUSH1 0x40 MLOAD DUP1 SWAP2 SUB SWAP1 REVERT JUMPDEST POP PUSH1 0x1 DUP1 DUP2 SWAP1 SSTORE POP POP POP JUMP JUMPDEST PUSH1 0x0 DUP1 SHL PUSH2 0xAD9 DUP2 PUSH2 0x68D JUMP JUMPDEST PUSH1 0x0 DUP3 PUSH20 0xFFFFFFFFFFFFFFFFFFFFFFFFFFFFFFFFFFFFFFFF AND SELFBALANCE PUSH1 0x40 MLOAD PUSH2 0xAFF SWAP1 PUSH2 0x2401 JUMP JUMPDEST PUSH1 0x0 PUSH1 0x40 MLOAD DUP1 DUP4 SUB DUP2 DUP6 DUP8 GAS CALL SWAP3 POP POP POP RETURNDATASIZE DUP1 PUSH1 0x0 DUP2 EQ PUSH2 0xB3C JUMPI PUSH1 0x40 MLOAD SWAP2 POP PUSH1 0x1F NOT PUSH1 0x3F RETURNDATASIZE ADD AND DUP3 ADD PUSH1 0x40 MSTORE RETURNDATASIZE DUP3 MSTORE RETURNDATASIZE PUSH1 0x0 PUSH1 0x20 DUP5 ADD RETURNDATACOPY PUSH2 0xB41 JUMP JUMPDEST PUSH1 0x60 SWAP2 POP JUMPDEST POP POP SWAP1 POP DUP1 PUSH2 0xB85 JUMPI PUSH1 0x40 MLOAD PUSH32 0x8C379A000000000000000000000000000000000000000000000000000000000 DUP2 MSTORE PUSH1 0x4 ADD PUSH2 0xB7C SWAP1 PUSH2 0x2462 JUMP JUMPDEST PUSH1 0x40 MLOAD DUP1 SWAP2 SUB SWAP1 REVERT JUMPDEST POP POP POP JUMP JUMPDEST PUSH1 0xA PUSH1 0x20 MSTORE DUP1 PUSH1 0x0 MSTORE PUSH1 0x40 PUSH1 0x0 KECCAK256 PUSH1 0x0 SWAP2 POP SWAP1 POP SLOAD DUP2 JUMP JUMPDEST PUSH1 0x8 SLOAD DUP2 JUMP JUMPDEST PUSH1 0x2 PUSH1 0x1 SLOAD SUB PUSH2 0xBED JUMPI PUSH1 0x40 MLOAD PUSH32 0x8C379A000000000000000000000000000000000000000000000000000000000 DUP2 MSTORE PUSH1 0x4 ADD PUSH2 0xBE4 SWAP1 PUSH2 0x2386 JUMP JUMPDEST PUSH1 0x40 MLOAD DUP1 SWAP2 SUB SWAP1 REVERT JUMPDEST PUSH1 0x2 PUSH1 0x1 DUP2 SWAP1 SSTORE POP PUSH1 0x1 DUP1 DUP2 GT ISZERO PUSH2 0xC08 JUMPI PUSH2 0xC07 PUSH2 0x2101 JUMP JUMPDEST JUMPDEST PUSH1 0x6 PUSH1 0x0 SWAP1 SLOAD SWAP1 PUSH2 0x100 EXP SWAP1 DIV PUSH1 0xFF AND PUSH1 0x1 DUP2 GT ISZERO PUSH2 0xC2A JUMPI PUSH2 0xC29 PUSH2 0x2101 JUMP JUMPDEST JUMPDEST EQ PUSH2 0xC34 JUMPI PUSH1 0x0 DUP1 REVERT JUMPDEST PUSH1 0x0 PUSH1 0xA PUSH1 0x0 CALLER PUSH20 0xFFFFFFFFFFFFFFFFFFFFFFFFFFFFFFFFFFFFFFFF AND PUSH20 0xFFFFFFFFFFFFFFFFFFFFFFFFFFFFFFFFFFFFFFFF AND DUP2 MSTORE PUSH1 0x20 ADD SWAP1 DUP2 MSTORE PUSH1 0x20 ADD PUSH1 0x0 KECCAK256 SLOAD PUSH1 0x9 PUSH1 0x0 PUSH1 0x8 SLOAD DUP2 MSTORE PUSH1 0x20 ADD SWAP1 DUP2 MSTORE PUSH1 0x20 ADD PUSH1 0x0 KECCAK256 PUSH1 0x0 CALLER PUSH20 0xFFFFFFFFFFFFFFFFFFFFFFFFFFFFFFFFFFFFFFFF AND PUSH20 0xFFFFFFFFFFFFFFFFFFFFFFFFFFFFFFFFFFFFFFFF AND DUP2 MSTORE PUSH1 0x20 ADD SWAP1 DUP2 MSTORE PUSH1 0x20 ADD PUSH1 0x0 KECCAK256 SLOAD PUSH2 0xCD3 SWAP2 SWAP1 PUSH2 0x24B1 JUMP JUMPDEST SWAP1 POP PUSH1 0x0 DUP2 GT PUSH2 0xCE2 JUMPI PUSH1 0x0 DUP1 REVERT JUMPDEST PUSH1 0x6 PUSH1 0x1 SWAP1 SLOAD SWAP1 PUSH2 0x100 EXP SWAP1 DIV PUSH20 0xFFFFFFFFFFFFFFFFFFFFFFFFFFFFFFFFFFFFFFFF AND PUSH20 0xFFFFFFFFFFFFFFFFFFFFFFFFFFFFFFFFFFFFFFFF AND PUSH4 0xA2F487B CALLER PUSH1 0x9 PUSH1 0x0 PUSH1 0x8 SLOAD DUP2 MSTORE PUSH1 0x20 ADD SWAP1 DUP2 MSTORE PUSH1 0x20 ADD PUSH1 0x0 KECCAK256 PUSH1 0x0 CALLER PUSH20 0xFFFFFFFFFFFFFFFFFFFFFFFFFFFFFFFFFFFFFFFF AND PUSH20 0xFFFFFFFFFFFFFFFFFFFFFFFFFFFFFFFFFFFFFFFF AND DUP2 MSTORE PUSH1 0x20 ADD SWAP1 DUP2 MSTORE PUSH1 0x20 ADD PUSH1 0x0 KECCAK256 SLOAD PUSH1 0x40 MLOAD DUP4 PUSH4 0xFFFFFFFF AND PUSH1 0xE0 SHL DUP2 MSTORE PUSH1 0x4 ADD PUSH2 0xD91 SWAP3 SWAP2 SWAP1 PUSH2 0x2516 JUMP JUMPDEST PUSH1 0x0 PUSH1 0x40 MLOAD DUP1 DUP4 SUB DUP2 PUSH1 0x0 DUP8 DUP1 EXTCODESIZE ISZERO DUP1 ISZERO PUSH2 0xDAB JUMPI PUSH1 0x0 DUP1 REVERT JUMPDEST POP GAS CALL ISZERO DUP1 ISZERO PUSH2 0xDBF JUMPI RETURNDATASIZE PUSH1 0x0 DUP1 RETURNDATACOPY RETURNDATASIZE PUSH1 0x0 REVERT JUMPDEST POP POP POP POP PUSH1 0x0 PUSH1 0x9 PUSH1 0x0 PUSH1 0x8 SLOAD DUP2 MSTORE PUSH1 0x20 ADD SWAP1 DUP2 MSTORE PUSH1 0x20 ADD PUSH1 0x0 KECCAK256 PUSH1 0x0 CALLER PUSH20 0xFFFFFFFFFFFFFFFFFFFFFFFFFFFFFFFFFFFFFFFF AND PUSH20 0xFFFFFFFFFFFFFFFFFFFFFFFFFFFFFFFFFFFFFFFF AND DUP2 MSTORE PUSH1 0x20 ADD SWAP1 DUP2 MSTORE PUSH1 0x20 ADD PUSH1 0x0 KECCAK256 DUP2 SWAP1 SSTORE POP PUSH1 0x0 PUSH1 0xA PUSH1 0x0 CALLER PUSH20 0xFFFFFFFFFFFFFFFFFFFFFFFFFFFFFFFFFFFFFFFF AND PUSH20 0xFFFFFFFFFFFFFFFFFFFFFFFFFFFFFFFFFFFFFFFF AND DUP2 MSTORE PUSH1 0x20 ADD SWAP1 DUP2 MSTORE PUSH1 0x20 ADD PUSH1 0x0 KECCAK256 DUP2 SWAP1 SSTORE POP PUSH2 0xE72 CALLER PUSH2 0xE6D DUP4 PUSH2 0x150D JUMP JUMPDEST PUSH2 0x152B JUMP JUMPDEST POP PUSH1 0x1 DUP1 DUP2 SWAP1 SSTORE POP JUMP JUMPDEST PUSH1 0x0 DUP1 PUSH1 0x0 DUP5 DUP2 MSTORE PUSH1 0x20 ADD SWAP1 DUP2 MSTORE PUSH1 0x20 ADD PUSH1 0x0 KECCAK256 PUSH1 0x0 ADD PUSH1 0x0 DUP4 PUSH20 0xFFFFFFFFFFFFFFFFFFFFFFFFFFFFFFFFFFFFFFFF AND PUSH20 0xFFFFFFFFFFFFFFFFFFFFFFFFFFFFFFFFFFFFFFFF AND DUP2 MSTORE PUSH1 0x20 ADD SWAP1 DUP2 MSTORE PUSH1 0x20 ADD PUSH1 0x0 KECCAK256 PUSH1 0x0 SWAP1 SLOAD SWAP1 PUSH2 0x100 EXP SWAP1 DIV PUSH1 0xFF AND SWAP1 POP SWAP3 SWAP2 POP POP JUMP JUMPDEST PUSH1 0x0 DUP1 SHL DUP2 JUMP JUMPDEST PUSH1 0x0 PUSH1 0x1 DUP2 GT ISZERO PUSH2 0xF01 JUMPI PUSH2 0xF00 PUSH2 0x2101 JUMP JUMPDEST JUMPDEST PUSH1 0x6 PUSH1 0x0 SWAP1 SLOAD SWAP1 PUSH2 0x100 EXP SWAP1 DIV PUSH1 0xFF AND PUSH1 0x1 DUP2 GT ISZERO PUSH2 0xF23 JUMPI PUSH2 0xF22 PUSH2 0x2101 JUMP JUMPDEST JUMPDEST EQ PUSH2 0xF2D JUMPI PUSH1 0x0 DUP1 REVERT JUMPDEST PUSH1 0x0 DUP1 SHL PUSH2 0xF3A DUP2 PUSH2 0x68D JUMP JUMPDEST PUSH1 0x4 SLOAD DUP4 GT PUSH2 0xF48 JUMPI PUSH1 0x0 DUP1 REVERT JUMPDEST DUP2 PUSH1 0xC DUP2 SWAP1 SSTORE POP PUSH1 0x14 PUSH1 0xC SLOAD PUSH2 0xF5E SWAP2 SWAP1 PUSH2 0x256E JUMP JUMPDEST PUSH1 0xD DUP2 SWAP1 SSTORE POP PUSH2 0xF92 PUSH1 0xD SLOAD PUSH1 0xC SLOAD PUSH2 0xF77 SWAP2 SWAP1 PUSH2 0x24B1 JUMP JUMPDEST PUSH1 0x3 SLOAD PUSH8 0xDE0B6B3A7640000 PUSH2 0xF8D SWAP2 SWAP1 PUSH2 0x256E JUMP JUMPDEST PUSH2 0x15D1 JUMP JUMPDEST PUSH1 0xE DUP2 SWAP1 SSTORE POP PUSH1 0x0 PUSH1 0x6 PUSH1 0x1 SWAP1 SLOAD SWAP1 PUSH2 0x100 EXP SWAP1 DIV PUSH20 0xFFFFFFFFFFFFFFFFFFFFFFFFFFFFFFFFFFFFFFFF AND SWAP1 POP PUSH1 0x0 DUP2 PUSH20 0xFFFFFFFFFFFFFFFFFFFFFFFFFFFFFFFFFFFFFFFF AND PUSH1 0x7 SLOAD PUSH1 0x40 MLOAD PUSH2 0xFE7 SWAP1 PUSH2 0x2401 JUMP JUMPDEST PUSH1 0x0 PUSH1 0x40 MLOAD DUP1 DUP4 SUB DUP2 DUP6 DUP8 GAS CALL SWAP3 POP POP POP RETURNDATASIZE DUP1 PUSH1 0x0 DUP2 EQ PUSH2 0x1024 JUMPI PUSH1 0x40 MLOAD SWAP2 POP PUSH1 0x1F NOT PUSH1 0x3F RETURNDATASIZE ADD AND DUP3 ADD PUSH1 0x40 MSTORE RETURNDATASIZE DUP3 MSTORE RETURNDATASIZE PUSH1 0x0 PUSH1 0x20 DUP5 ADD RETURNDATACOPY PUSH2 0x1029 JUMP JUMPDEST PUSH1 0x60 SWAP2 POP JUMPDEST POP POP SWAP1 POP DUP1 PUSH2 0x106D JUMPI PUSH1 0x40 MLOAD PUSH32 0x8C379A000000000000000000000000000000000000000000000000000000000 DUP2 MSTORE PUSH1 0x4 ADD PUSH2 0x1064 SWAP1 PUSH2 0x25EB JUMP JUMPDEST PUSH1 0x40 MLOAD DUP1 SWAP2 SUB SWAP1 REVERT JUMPDEST PUSH1 0x0 PUSH1 0x7 DUP2 SWAP1 SSTORE POP PUSH1 0x1 PUSH1 0x8 PUSH1 0x0 DUP3 DUP3 SLOAD PUSH2 0x1088 SWAP2 SWAP1 PUSH2 0x24B1 JUMP JUMPDEST SWAP3 POP POP DUP2 SWAP1 SSTORE POP TIMESTAMP PUSH1 0x4 DUP2 SWAP1 SSTORE POP DUP5 PUSH1 0x5 DUP2 SWAP1 SSTORE POP PUSH2 0x10A5 PUSH2 0x1609 JUMP JUMPDEST POP POP POP POP POP JUMP JUMPDEST PUSH1 0x4 SLOAD DUP2 JUMP JUMPDEST PUSH1 0x2 PUSH1 0x1 SLOAD SUB PUSH2 0x10F7 JUMPI PUSH1 0x40 MLOAD PUSH32 0x8C379A000000000000000000000000000000000000000000000000000000000 DUP2 MSTORE PUSH1 0x4 ADD PUSH2 0x10EE SWAP1 PUSH2 0x2386 JUMP JUMPDEST PUSH1 0x40 MLOAD DUP1 SWAP2 SUB SWAP1 REVERT JUMPDEST PUSH1 0x2 PUSH1 0x1 DUP2 SWAP1 SSTORE POP PUSH1 0x0 CALLVALUE SWAP1 POP PUSH2 0x110E DUP4 DUP3 PUSH2 0x1886 JUMP JUMPDEST PUSH1 0x0 PUSH2 0x1119 DUP3 PUSH2 0x150D JUMP JUMPDEST SWAP1 POP PUSH2 0x1126 DUP5 DUP4 DUP6 PUSH2 0x1910 JUMP JUMPDEST DUP4 PUSH20 0xFFFFFFFFFFFFFFFFFFFFFFFFFFFFFFFFFFFFFFFF AND PUSH32 0xCD60AA75DEA3072FBC07AE6D7D856B5DC5F4EEE88854F5B4ABF7B680EF8BC50F DUP4 DUP4 PUSH1 0x40 MLOAD PUSH2 0x116E SWAP3 SWAP2 SWAP1 PUSH2 0x260B JUMP JUMPDEST PUSH1 0x40 MLOAD DUP1 SWAP2 SUB SWAP1 LOG2 PUSH2 0x117E PUSH2 0x1609 JUMP JUMPDEST POP POP PUSH1 0x1 DUP1 DUP2 SWAP1 SSTORE POP POP POP JUMP JUMPDEST PUSH1 0x6 PUSH1 0x0 SWAP1 SLOAD SWAP1 PUSH2 0x100 EXP SWAP1 DIV PUSH1 0xFF AND DUP2 JUMP JUMPDEST PUSH1 0xD SLOAD DUP2 JUMP JUMPDEST PUSH1 0xC SLOAD DUP2 JUMP JUMPDEST PUSH2 0x11B3 DUP3 PUSH2 0x721 JUMP JUMPDEST PUSH2 0x11BC DUP2 PUSH2 0x68D JUMP JUMPDEST PUSH2 0x11C6 DUP4 DUP4 PUSH2 0x142C JUMP JUMPDEST POP POP POP JUMP JUMPDEST PUSH1 0xB PUSH1 0x0 SWAP1 SLOAD SWAP1 PUSH2 0x100 EXP SWAP1 DIV PUSH20 0xFFFFFFFFFFFFFFFFFFFFFFFFFFFFFFFFFFFFFFFF AND DUP2 JUMP JUMPDEST PUSH1 0x6 PUSH1 0x1 SWAP1 SLOAD SWAP1 PUSH2 0x100 EXP SWAP1 DIV PUSH20 0xFFFFFFFFFFFFFFFFFFFFFFFFFFFFFFFFFFFFFFFF AND DUP2 JUMP JUMPDEST PUSH1 0x2 PUSH1 0x0 SWAP1 SLOAD SWAP1 PUSH2 0x100 EXP SWAP1 DIV PUSH20 0xFFFFFFFFFFFFFFFFFFFFFFFFFFFFFFFFFFFFFFFF AND DUP2 JUMP JUMPDEST PUSH1 0x0 CALLER SWAP1 POP SWAP1 JUMP JUMPDEST PUSH2 0x124F DUP3 DUP3 PUSH2 0xE7C JUMP JUMPDEST PUSH2 0x12DE JUMPI PUSH2 0x1274 DUP2 PUSH20 0xFFFFFFFFFFFFFFFFFFFFFFFFFFFFFFFFFFFFFFFF AND PUSH1 0x14 PUSH2 0x1A88 JUMP JUMPDEST PUSH2 0x1282 DUP4 PUSH1 0x0 SHR PUSH1 0x20 PUSH2 0x1A88 JUMP JUMPDEST PUSH1 0x40 MLOAD PUSH1 0x20 ADD PUSH2 0x1293 SWAP3 SWAP2 SWAP1 PUSH2 0x2746 JUMP JUMPDEST PUSH1 0x40 MLOAD PUSH1 0x20 DUP2 DUP4 SUB SUB DUP2 MSTORE SWAP1 PUSH1 0x40 MSTORE PUSH1 0x40 MLOAD PUSH32 0x8C379A000000000000000000000000000000000000000000000000000000000 DUP2 MSTORE PUSH1 0x4 ADD PUSH2 0x12D5 SWAP2 SWAP1 PUSH2 0x27CA JUMP JUMPDEST PUSH1 0x40 MLOAD DUP1 SWAP2 SUB SWAP1 REVERT JUMPDEST POP POP JUMP JUMPDEST PUSH1 0x0 PUSH32 0x1FFC9A700000000000000000000000000000000000000000000000000000000 PUSH28 0xFFFFFFFFFFFFFFFFFFFFFFFFFFFFFFFFFFFFFFFFFFFFFFFFFFFFFFFF NOT AND DUP3 PUSH28 0xFFFFFFFFFFFFFFFFFFFFFFFFFFFFFFFFFFFFFFFFFFFFFFFFFFFFFFFF NOT AND EQ SWAP1 POP SWAP2 SWAP1 POP JUMP JUMPDEST PUSH2 0x1356 DUP3 DUP3 PUSH2 0xE7C JUMP JUMPDEST PUSH2 0x1428 JUMPI PUSH1 0x1 PUSH1 0x0 DUP1 DUP5 DUP2 MSTORE PUSH1 0x20 ADD SWAP1 DUP2 MSTORE PUSH1 0x20 ADD PUSH1 0x0 KECCAK256 PUSH1 0x0 ADD PUSH1 0x0 DUP4 PUSH20 0xFFFFFFFFFFFFFFFFFFFFFFFFFFFFFFFFFFFFFFFF AND PUSH20 0xFFFFFFFFFFFFFFFFFFFFFFFFFFFFFFFFFFFFFFFF AND DUP2 MSTORE PUSH1 0x20 ADD SWAP1 DUP2 MSTORE PUSH1 0x20 ADD PUSH1 0x0 KECCAK256 PUSH1 0x0 PUSH2 0x100 EXP DUP2 SLOAD DUP2 PUSH1 0xFF MUL NOT AND SWAP1 DUP4 ISZERO ISZERO MUL OR SWAP1 SSTORE POP PUSH2 0x13CD PUSH2 0x123D JUMP JUMPDEST PUSH20 0xFFFFFFFFFFFFFFFFFFFFFFFFFFFFFFFFFFFFFFFF AND DUP2 PUSH20 0xFFFFFFFFFFFFFFFFFFFFFFFFFFFFFFFFFFFFFFFF AND DUP4 PUSH32 0x2F8788117E7EFF1D82E926EC794901D17C78024A50270940304540A733656F0D PUSH1 0x40 MLOAD PUSH1 0x40 MLOAD DUP1 SWAP2 SUB SWAP1 LOG4 JUMPDEST POP POP JUMP JUMPDEST PUSH2 0x1436 DUP3 DUP3 PUSH2 0xE7C JUMP JUMPDEST ISZERO PUSH2 0x1509 JUMPI PUSH1 0x0 DUP1 PUSH1 0x0 DUP5 DUP2 MSTORE PUSH1 0x20 ADD SWAP1 DUP2 MSTORE PUSH1 0x20 ADD PUSH1 0x0 KECCAK256 PUSH1 0x0 ADD PUSH1 0x0 DUP4 PUSH20 0xFFFFFFFFFFFFFFFFFFFFFFFFFFFFFFFFFFFFFFFF AND PUSH20 0xFFFFFFFFFFFFFFFFFFFFFFFFFFFFFFFFFFFFFFFF AND DUP2 MSTORE PUSH1 0x20 ADD SWAP1 DUP2 MSTORE PUSH1 0x20 ADD PUSH1 0x0 KECCAK256 PUSH1 0x0 PUSH2 0x100 EXP DUP2 SLOAD DUP2 PUSH1 0xFF MUL NOT AND SWAP1 DUP4 ISZERO ISZERO MUL OR SWAP1 SSTORE POP PUSH2 0x14AE PUSH2 0x123D JUMP JUMPDEST PUSH20 0xFFFFFFFFFFFFFFFFFFFFFFFFFFFFFFFFFFFFFFFF AND DUP2 PUSH20 0xFFFFFFFFFFFFFFFFFFFFFFFFFFFFFFFFFFFFFFFF AND DUP4 PUSH32 0xF6391F5C32D9C69D2A47EA670B442974B53935D1EDC7FD64EB21E047A839171B PUSH1 0x40 MLOAD PUSH1 0x40 MLOAD DUP1 SWAP2 SUB SWAP1 LOG4 JUMPDEST POP POP JUMP JUMPDEST PUSH1 0x0 PUSH2 0x1524 PUSH1 0x3 SLOAD DUP4 PUSH2 0x1CC4 SWAP1 SWAP2 SWAP1 PUSH4 0xFFFFFFFF AND JUMP JUMPDEST SWAP1 POP SWAP2 SWAP1 POP JUMP JUMPDEST PUSH1 0x2 PUSH1 0x0 SWAP1 SLOAD SWAP1 PUSH2 0x100 EXP SWAP1 DIV PUSH20 0xFFFFFFFFFFFFFFFFFFFFFFFFFFFFFFFFFFFFFFFF AND PUSH20 0xFFFFFFFFFFFFFFFFFFFFFFFFFFFFFFFFFFFFFFFF AND PUSH4 0x40C10F19 DUP4 PUSH8 0xDE0B6B3A7640000 DUP5 PUSH2 0x157E SWAP2 SWAP1 PUSH2 0x256E JUMP JUMPDEST PUSH1 0x40 MLOAD DUP4 PUSH4 0xFFFFFFFF AND PUSH1 0xE0 SHL DUP2 MSTORE PUSH1 0x4 ADD PUSH2 0x159B SWAP3 SWAP2 SWAP1 PUSH2 0x2516 JUMP JUMPDEST PUSH1 0x0 PUSH1 0x40 MLOAD DUP1 DUP4 SUB DUP2 PUSH1 0x0 DUP8 DUP1 EXTCODESIZE ISZERO DUP1 ISZERO PUSH2 0x15B5 JUMPI PUSH1 0x0 DUP1 REVERT JUMPDEST POP GAS CALL ISZERO DUP1 ISZERO PUSH2 0x15C9 JUMPI RETURNDATASIZE PUSH1 0x0 DUP1 RETURNDATACOPY RETURNDATASIZE PUSH1 0x0 REVERT JUMPDEST POP POP POP POP POP POP JUMP JUMPDEST PUSH1 0x0 DUP2 DUP3 PUSH1 0x1 DUP5 DUP7 PUSH2 0x15E3 SWAP2 SWAP1 PUSH2 0x24B1 JUMP JUMPDEST PUSH2 0x15ED SWAP2 SWAP1 PUSH2 0x27EC JUMP JUMPDEST PUSH2 0x15F7 SWAP2 SWAP1 PUSH2 0x256E JUMP JUMPDEST PUSH2 0x1601 SWAP2 SWAP1 PUSH2 0x2820 JUMP JUMPDEST SWAP1 POP SWAP3 SWAP2 POP POP JUMP JUMPDEST PUSH1 0xD SLOAD PUSH1 0xC SLOAD PUSH2 0x1619 SWAP2 SWAP1 PUSH2 0x24B1 JUMP JUMPDEST SELFBALANCE LT PUSH2 0x1884 JUMPI PUSH1 0x0 PUSH1 0xB PUSH1 0x0 SWAP1 SLOAD SWAP1 PUSH2 0x100 EXP SWAP1 DIV PUSH20 0xFFFFFFFFFFFFFFFFFFFFFFFFFFFFFFFFFFFFFFFF AND SWAP1 POP PUSH1 0x0 DUP2 PUSH20 0xFFFFFFFFFFFFFFFFFFFFFFFFFFFFFFFFFFFFFFFF AND PUSH1 0xC SLOAD PUSH1 0x40 MLOAD PUSH2 0x166E SWAP1 PUSH2 0x2401 JUMP JUMPDEST PUSH1 0x0 PUSH1 0x40 MLOAD DUP1 DUP4 SUB DUP2 DUP6 DUP8 GAS CALL SWAP3 POP POP POP RETURNDATASIZE DUP1 PUSH1 0x0 DUP2 EQ PUSH2 0x16AB JUMPI PUSH1 0x40 MLOAD SWAP2 POP PUSH1 0x1F NOT PUSH1 0x3F RETURNDATASIZE ADD AND DUP3 ADD PUSH1 0x40 MSTORE RETURNDATASIZE DUP3 MSTORE RETURNDATASIZE PUSH1 0x0 PUSH1 0x20 DUP5 ADD RETURNDATACOPY PUSH2 0x16B0 JUMP JUMPDEST PUSH1 0x60 SWAP2 POP JUMPDEST POP POP SWAP1 POP DUP1 PUSH2 0x16F4 JUMPI PUSH1 0x40 MLOAD PUSH32 0x8C379A000000000000000000000000000000000000000000000000000000000 DUP2 MSTORE PUSH1 0x4 ADD PUSH2 0x16EB SWAP1 PUSH2 0x28C6 JUMP JUMPDEST PUSH1 0x40 MLOAD DUP1 SWAP2 SUB SWAP1 REVERT JUMPDEST PUSH1 0x0 PUSH1 0xB PUSH1 0x0 SWAP1 SLOAD SWAP1 PUSH2 0x100 EXP SWAP1 DIV PUSH20 0xFFFFFFFFFFFFFFFFFFFFFFFFFFFFFFFFFFFFFFFF AND PUSH20 0xFFFFFFFFFFFFFFFFFFFFFFFFFFFFFFFFFFFFFFFF AND PUSH4 0x9C3962F0 PUSH1 0x40 MLOAD DUP2 PUSH4 0xFFFFFFFF AND PUSH1 0xE0 SHL DUP2 MSTORE PUSH1 0x4 ADD PUSH1 0x20 PUSH1 0x40 MLOAD DUP1 DUP4 SUB DUP2 PUSH1 0x0 DUP8 GAS CALL ISZERO DUP1 ISZERO PUSH2 0x1765 JUMPI RETURNDATASIZE PUSH1 0x0 DUP1 RETURNDATACOPY RETURNDATASIZE PUSH1 0x0 REVERT JUMPDEST POP POP POP POP PUSH1 0x40 MLOAD RETURNDATASIZE PUSH1 0x1F NOT PUSH1 0x1F DUP3 ADD AND DUP3 ADD DUP1 PUSH1 0x40 MSTORE POP DUP2 ADD SWAP1 PUSH2 0x1789 SWAP2 SWAP1 PUSH2 0x28FB JUMP JUMPDEST SWAP1 POP DUP1 PUSH2 0x17CB JUMPI PUSH1 0x40 MLOAD PUSH32 0x8C379A000000000000000000000000000000000000000000000000000000000 DUP2 MSTORE PUSH1 0x4 ADD PUSH2 0x17C2 SWAP1 PUSH2 0x2974 JUMP JUMPDEST PUSH1 0x40 MLOAD DUP1 SWAP2 SUB SWAP1 REVERT JUMPDEST PUSH1 0x0 PUSH1 0x7 DUP2 SWAP1 SSTORE POP PUSH1 0x6 PUSH1 0x1 SWAP1 SLOAD SWAP1 PUSH2 0x100 EXP SWAP1 DIV PUSH20 0xFFFFFFFFFFFFFFFFFFFFFFFFFFFFFFFFFFFFFFFF AND PUSH20 0xFFFFFFFFFFFFFFFFFFFFFFFFFFFFFFFFFFFFFFFF AND PUSH4 0x43D726D6 PUSH1 0x40 MLOAD DUP2 PUSH4 0xFFFFFFFF AND PUSH1 0xE0 SHL DUP2 MSTORE PUSH1 0x4 ADD PUSH1 0x0 PUSH1 0x40 MLOAD DUP1 DUP4 SUB DUP2 PUSH1 0x0 DUP8 DUP1 EXTCODESIZE ISZERO DUP1 ISZERO PUSH2 0x183D JUMPI PUSH1 0x0 DUP1 REVERT JUMPDEST POP GAS CALL ISZERO DUP1 ISZERO PUSH2 0x1851 JUMPI RETURNDATASIZE PUSH1 0x0 DUP1 RETURNDATACOPY RETURNDATASIZE PUSH1 0x0 REVERT JUMPDEST POP POP POP POP PUSH1 0x1 PUSH1 0x6 PUSH1 0x0 PUSH2 0x100 EXP DUP2 SLOAD DUP2 PUSH1 0xFF MUL NOT AND SWAP1 DUP4 PUSH1 0x1 DUP2 GT ISZERO PUSH2 0x187B JUMPI PUSH2 0x187A PUSH2 0x2101 JUMP JUMPDEST JUMPDEST MUL OR SWAP1 SSTORE POP POP POP POP JUMPDEST JUMP JUMPDEST PUSH2 0x1890 DUP3 DUP3 PUSH2 0x1CDA JUMP JUMPDEST PUSH1 0x0 PUSH1 0x1 DUP2 GT ISZERO PUSH2 0x18A4 JUMPI PUSH2 0x18A3 PUSH2 0x2101 JUMP JUMPDEST JUMPDEST PUSH1 0x6 PUSH1 0x0 SWAP1 SLOAD SWAP1 PUSH2 0x100 EXP SWAP1 DIV PUSH1 0xFF AND PUSH1 0x1 DUP2 GT ISZERO PUSH2 0x18C6 JUMPI PUSH2 0x18C5 PUSH2 0x2101 JUMP JUMPDEST JUMPDEST EQ PUSH2 0x18D0 JUMPI PUSH1 0x0 DUP1 REVERT JUMPDEST PUSH1 0x0 PUSH1 0x3 SLOAD PUSH8 0xDE0B6B3A7640000 PUSH2 0x18E8 SWAP2 SWAP1 PUSH2 0x256E JUMP JUMPDEST DUP3 PUSH2 0x18F3 SWAP2 SWAP1 PUSH2 0x2994 JUMP JUMPDEST EQ PUSH2 0x18FD JUMPI PUSH1 0x0 DUP1 REVERT JUMPDEST PUSH1 0xE SLOAD SELFBALANCE GT ISZERO PUSH2 0x190C JUMPI PUSH1 0x0 DUP1 REVERT JUMPDEST POP POP JUMP JUMPDEST DUP1 ISZERO PUSH2 0x1A2C JUMPI DUP2 PUSH1 0x9 PUSH1 0x0 PUSH1 0x8 SLOAD DUP2 MSTORE PUSH1 0x20 ADD SWAP1 DUP2 MSTORE PUSH1 0x20 ADD PUSH1 0x0 KECCAK256 PUSH1 0x0 DUP6 PUSH20 0xFFFFFFFFFFFFFFFFFFFFFFFFFFFFFFFFFFFFFFFF AND PUSH20 0xFFFFFFFFFFFFFFFFFFFFFFFFFFFFFFFFFFFFFFFF AND DUP2 MSTORE PUSH1 0x20 ADD SWAP1 DUP2 MSTORE PUSH1 0x20 ADD PUSH1 0x0 KECCAK256 PUSH1 0x0 DUP3 DUP3 SLOAD PUSH2 0x1978 SWAP2 SWAP1 PUSH2 0x24B1 JUMP JUMPDEST SWAP3 POP POP DUP2 SWAP1 SSTORE POP PUSH1 0x6 PUSH1 0x1 SWAP1 SLOAD SWAP1 PUSH2 0x100 EXP SWAP1 DIV PUSH20 0xFFFFFFFFFFFFFFFFFFFFFFFFFFFFFFFFFFFFFFFF AND PUSH20 0xFFFFFFFFFFFFFFFFFFFFFFFFFFFFFFFFFFFFFFFF AND PUSH4 0x6F485D6C DUP5 DUP5 PUSH1 0x40 MLOAD DUP4 PUSH4 0xFFFFFFFF AND PUSH1 0xE0 SHL DUP2 MSTORE PUSH1 0x4 ADD PUSH2 0x19DC SWAP3 SWAP2 SWAP1 PUSH2 0x2516 JUMP JUMPDEST PUSH1 0x0 PUSH1 0x40 MLOAD DUP1 DUP4 SUB DUP2 PUSH1 0x0 DUP8 DUP1 EXTCODESIZE ISZERO DUP1 ISZERO PUSH2 0x19F6 JUMPI PUSH1 0x0 DUP1 REVERT JUMPDEST POP GAS CALL ISZERO DUP1 ISZERO PUSH2 0x1A0A JUMPI RETURNDATASIZE PUSH1 0x0 DUP1 RETURNDATACOPY RETURNDATASIZE PUSH1 0x0 REVERT JUMPDEST POP POP POP POP DUP2 PUSH1 0x7 PUSH1 0x0 DUP3 DUP3 SLOAD PUSH2 0x1A20 SWAP2 SWAP1 PUSH2 0x24B1 JUMP JUMPDEST SWAP3 POP POP DUP2 SWAP1 SSTORE POP PUSH2 0x1A83 JUMP JUMPDEST DUP2 PUSH1 0xA PUSH1 0x0 DUP6 PUSH20 0xFFFFFFFFFFFFFFFFFFFFFFFFFFFFFFFFFFFFFFFF AND PUSH20 0xFFFFFFFFFFFFFFFFFFFFFFFFFFFFFFFFFFFFFFFF AND DUP2 MSTORE PUSH1 0x20 ADD SWAP1 DUP2 MSTORE PUSH1 0x20 ADD PUSH1 0x0 KECCAK256 PUSH1 0x0 DUP3 DUP3 SLOAD PUSH2 0x1A7B SWAP2 SWAP1 PUSH2 0x24B1 JUMP JUMPDEST SWAP3 POP POP DUP2 SWAP1 SSTORE POP JUMPDEST POP POP POP JUMP JUMPDEST PUSH1 0x60 PUSH1 0x0 PUSH1 0x2 DUP4 PUSH1 0x2 PUSH2 0x1A9B SWAP2 SWAP1 PUSH2 0x2820 JUMP JUMPDEST PUSH2 0x1AA5 SWAP2 SWAP1 PUSH2 0x24B1 JUMP JUMPDEST PUSH8 0xFFFFFFFFFFFFFFFF DUP2 GT ISZERO PUSH2 0x1ABE JUMPI PUSH2 0x1ABD PUSH2 0x29C5 JUMP JUMPDEST JUMPDEST PUSH1 0x40 MLOAD SWAP1 DUP1 DUP3 MSTORE DUP1 PUSH1 0x1F ADD PUSH1 0x1F NOT AND PUSH1 0x20 ADD DUP3 ADD PUSH1 0x40 MSTORE DUP1 ISZERO PUSH2 0x1AF0 JUMPI DUP2 PUSH1 0x20 ADD PUSH1 0x1 DUP3 MUL DUP1 CALLDATASIZE DUP4 CALLDATACOPY DUP1 DUP3 ADD SWAP2 POP POP SWAP1 POP JUMPDEST POP SWAP1 POP PUSH32 0x3000000000000000000000000000000000000000000000000000000000000000 DUP2 PUSH1 0x0 DUP2 MLOAD DUP2 LT PUSH2 0x1B28 JUMPI PUSH2 0x1B27 PUSH2 0x29F4 JUMP JUMPDEST JUMPDEST PUSH1 0x20 ADD ADD SWAP1 PUSH31 0xFFFFFFFFFFFFFFFFFFFFFFFFFFFFFFFFFFFFFFFFFFFFFFFFFFFFFFFFFFFFFF NOT AND SWAP1 DUP2 PUSH1 0x0 BYTE SWAP1 MSTORE8 POP PUSH32 0x7800000000000000000000000000000000000000000000000000000000000000 DUP2 PUSH1 0x1 DUP2 MLOAD DUP2 LT PUSH2 0x1B8C JUMPI PUSH2 0x1B8B PUSH2 0x29F4 JUMP JUMPDEST JUMPDEST PUSH1 0x20 ADD ADD SWAP1 PUSH31 0xFFFFFFFFFFFFFFFFFFFFFFFFFFFFFFFFFFFFFFFFFFFFFFFFFFFFFFFFFFFFFF NOT AND SWAP1 DUP2 PUSH1 0x0 BYTE SWAP1 MSTORE8 POP PUSH1 0x0 PUSH1 0x1 DUP5 PUSH1 0x2 PUSH2 0x1BCC SWAP2 SWAP1 PUSH2 0x2820 JUMP JUMPDEST PUSH2 0x1BD6 SWAP2 SWAP1 PUSH2 0x24B1 JUMP JUMPDEST SWAP1 POP JUMPDEST PUSH1 0x1 DUP2 GT ISZERO PUSH2 0x1C76 JUMPI PUSH32 0x3031323334353637383961626364656600000000000000000000000000000000 PUSH1 0xF DUP7 AND PUSH1 0x10 DUP2 LT PUSH2 0x1C18 JUMPI PUSH2 0x1C17 PUSH2 0x29F4 JUMP JUMPDEST JUMPDEST BYTE PUSH1 0xF8 SHL DUP3 DUP3 DUP2 MLOAD DUP2 LT PUSH2 0x1C2F JUMPI PUSH2 0x1C2E PUSH2 0x29F4 JUMP JUMPDEST JUMPDEST PUSH1 0x20 ADD ADD SWAP1 PUSH31 0xFFFFFFFFFFFFFFFFFFFFFFFFFFFFFFFFFFFFFFFFFFFFFFFFFFFFFFFFFFFFFF NOT AND SWAP1 DUP2 PUSH1 0x0 BYTE SWAP1 MSTORE8 POP PUSH1 0x4 DUP6 SWAP1 SHR SWAP5 POP DUP1 PUSH2 0x1C6F SWAP1 PUSH2 0x2A23 JUMP JUMPDEST SWAP1 POP PUSH2 0x1BD9 JUMP JUMPDEST POP PUSH1 0x0 DUP5 EQ PUSH2 0x1CBA JUMPI PUSH1 0x40 MLOAD PUSH32 0x8C379A000000000000000000000000000000000000000000000000000000000 DUP2 MSTORE PUSH1 0x4 ADD PUSH2 0x1CB1 SWAP1 PUSH2 0x2A98 JUMP JUMPDEST PUSH1 0x40 MLOAD DUP1 SWAP2 SUB SWAP1 REVERT JUMPDEST DUP1 SWAP2 POP POP SWAP3 SWAP2 POP POP JUMP JUMPDEST PUSH1 0x0 DUP2 DUP4 PUSH2 0x1CD2 SWAP2 SWAP1 PUSH2 0x2820 JUMP JUMPDEST SWAP1 POP SWAP3 SWAP2 POP POP JUMP JUMPDEST PUSH1 0x5 SLOAD TIMESTAMP LT PUSH2 0x1CE8 JUMPI PUSH1 0x0 DUP1 REVERT JUMPDEST PUSH1 0x0 PUSH20 0xFFFFFFFFFFFFFFFFFFFFFFFFFFFFFFFFFFFFFFFF AND DUP3 PUSH20 0xFFFFFFFFFFFFFFFFFFFFFFFFFFFFFFFFFFFFFFFF AND SUB PUSH2 0x1D21 JUMPI PUSH1 0x0 DUP1 REVERT JUMPDEST PUSH1 0x0 DUP2 SUB PUSH2 0x1D2E JUMPI PUSH1 0x0 DUP1 REVERT JUMPDEST POP POP JUMP JUMPDEST PUSH1 0x0 DUP1 REVERT JUMPDEST PUSH1 0x0 PUSH32 0xFFFFFFFF00000000000000000000000000000000000000000000000000000000 DUP3 AND SWAP1 POP SWAP2 SWAP1 POP JUMP JUMPDEST PUSH2 0x1D6C DUP2 PUSH2 0x1D37 JUMP JUMPDEST DUP2 EQ PUSH2 0x1D77 JUMPI PUSH1 0x0 DUP1 REVERT JUMPDEST POP JUMP JUMPDEST PUSH1 0x0 DUP2 CALLDATALOAD SWAP1 POP PUSH2 0x1D89 DUP2 PUSH2 0x1D63 JUMP JUMPDEST SWAP3 SWAP2 POP POP JUMP JUMPDEST PUSH1 0x0 PUSH1 0x20 DUP3 DUP5 SUB SLT ISZERO PUSH2 0x1DA5 JUMPI PUSH2 0x1DA4 PUSH2 0x1D32 JUMP JUMPDEST JUMPDEST PUSH1 0x0 PUSH2 0x1DB3 DUP5 DUP3 DUP6 ADD PUSH2 0x1D7A JUMP JUMPDEST SWAP2 POP POP SWAP3 SWAP2 POP POP JUMP JUMPDEST PUSH1 0x0 DUP2 ISZERO ISZERO SWAP1 POP SWAP2 SWAP1 POP JUMP JUMPDEST PUSH2 0x1DD1 DUP2 PUSH2 0x1DBC JUMP JUMPDEST DUP3 MSTORE POP POP JUMP JUMPDEST PUSH1 0x0 PUSH1 0x20 DUP3 ADD SWAP1 POP PUSH2 0x1DEC PUSH1 0x0 DUP4 ADD DUP5 PUSH2 0x1DC8 JUMP JUMPDEST SWAP3 SWAP2 POP POP JUMP JUMPDEST PUSH1 0x0 DUP2 SWAP1 POP SWAP2 SWAP1 POP JUMP JUMPDEST PUSH2 0x1E05 DUP2 PUSH2 0x1DF2 JUMP JUMPDEST DUP3 MSTORE POP POP JUMP JUMPDEST PUSH1 0x0 PUSH1 0x20 DUP3 ADD SWAP1 POP PUSH2 0x1E20 PUSH1 0x0 DUP4 ADD DUP5 PUSH2 0x1DFC JUMP JUMPDEST SWAP3 SWAP2 POP POP JUMP JUMPDEST PUSH1 0x0 DUP2 SWAP1 POP SWAP2 SWAP1 POP JUMP JUMPDEST PUSH2 0x1E39 DUP2 PUSH2 0x1E26 JUMP JUMPDEST DUP2 EQ PUSH2 0x1E44 JUMPI PUSH1 0x0 DUP1 REVERT JUMPDEST POP JUMP JUMPDEST PUSH1 0x0 DUP2 CALLDATALOAD SWAP1 POP PUSH2 0x1E56 DUP2 PUSH2 0x1E30 JUMP JUMPDEST SWAP3 SWAP2 POP POP JUMP JUMPDEST PUSH1 0x0 PUSH1 0x20 DUP3 DUP5 SUB SLT ISZERO PUSH2 0x1E72 JUMPI PUSH2 0x1E71 PUSH2 0x1D32 JUMP JUMPDEST JUMPDEST PUSH1 0x0 PUSH2 0x1E80 DUP5 DUP3 DUP6 ADD PUSH2 0x1E47 JUMP JUMPDEST SWAP2 POP POP SWAP3 SWAP2 POP POP JUMP JUMPDEST PUSH2 0x1E92 DUP2 PUSH2 0x1E26 JUMP JUMPDEST DUP3 MSTORE POP POP JUMP JUMPDEST PUSH1 0x0 PUSH1 0x20 DUP3 ADD SWAP1 POP PUSH2 0x1EAD PUSH1 0x0 DUP4 ADD DUP5 PUSH2 0x1E89 JUMP JUMPDEST SWAP3 SWAP2 POP POP JUMP JUMPDEST PUSH1 0x0 PUSH20 0xFFFFFFFFFFFFFFFFFFFFFFFFFFFFFFFFFFFFFFFF DUP3 AND SWAP1 POP SWAP2 SWAP1 POP JUMP JUMPDEST PUSH1 0x0 PUSH2 0x1EDE DUP3 PUSH2 0x1EB3 JUMP JUMPDEST SWAP1 POP SWAP2 SWAP1 POP JUMP JUMPDEST PUSH2 0x1EEE DUP2 PUSH2 0x1ED3 JUMP JUMPDEST DUP2 EQ PUSH2 0x1EF9 JUMPI PUSH1 0x0 DUP1 REVERT JUMPDEST POP JUMP JUMPDEST PUSH1 0x0 DUP2 CALLDATALOAD SWAP1 POP PUSH2 0x1F0B DUP2 PUSH2 0x1EE5 JUMP JUMPDEST SWAP3 SWAP2 POP POP JUMP JUMPDEST PUSH1 0x0 DUP1 PUSH1 0x40 DUP4 DUP6 SUB SLT ISZERO PUSH2 0x1F28 JUMPI PUSH2 0x1F27 PUSH2 0x1D32 JUMP JUMPDEST JUMPDEST PUSH1 0x0 PUSH2 0x1F36 DUP6 DUP3 DUP7 ADD PUSH2 0x1E47 JUMP JUMPDEST SWAP3 POP POP PUSH1 0x20 PUSH2 0x1F47 DUP6 DUP3 DUP7 ADD PUSH2 0x1EFC JUMP JUMPDEST SWAP2 POP POP SWAP3 POP SWAP3 SWAP1 POP JUMP JUMPDEST PUSH2 0x1F5A DUP2 PUSH2 0x1DF2 JUMP JUMPDEST DUP2 EQ PUSH2 0x1F65 JUMPI PUSH1 0x0 DUP1 REVERT JUMPDEST POP JUMP JUMPDEST PUSH1 0x0 DUP2 CALLDATALOAD SWAP1 POP PUSH2 0x1F77 DUP2 PUSH2 0x1F51 JUMP JUMPDEST SWAP3 SWAP2 POP POP JUMP JUMPDEST PUSH1 0x0 DUP1 PUSH1 0x40 DUP4 DUP6 SUB SLT ISZERO PUSH2 0x1F94 JUMPI PUSH2 0x1F93 PUSH2 0x1D32 JUMP JUMPDEST JUMPDEST PUSH1 0x0 PUSH2 0x1FA2 DUP6 DUP3 DUP7 ADD PUSH2 0x1F68 JUMP JUMPDEST SWAP3 POP POP PUSH1 0x20 PUSH2 0x1FB3 DUP6 DUP3 DUP7 ADD PUSH2 0x1EFC JUMP JUMPDEST SWAP2 POP POP SWAP3 POP SWAP3 SWAP1 POP JUMP JUMPDEST PUSH1 0x0 PUSH1 0x20 DUP3 DUP5 SUB SLT ISZERO PUSH2 0x1FD3 JUMPI PUSH2 0x1FD2 PUSH2 0x1D32 JUMP JUMPDEST JUMPDEST PUSH1 0x0 PUSH2 0x1FE1 DUP5 DUP3 DUP6 ADD PUSH2 0x1EFC JUMP JUMPDEST SWAP2 POP POP SWAP3 SWAP2 POP POP JUMP JUMPDEST PUSH1 0x0 PUSH2 0x1FF5 DUP3 PUSH2 0x1EB3 JUMP JUMPDEST SWAP1 POP SWAP2 SWAP1 POP JUMP JUMPDEST PUSH2 0x2005 DUP2 PUSH2 0x1FEA JUMP JUMPDEST DUP2 EQ PUSH2 0x2010 JUMPI PUSH1 0x0 DUP1 REVERT JUMPDEST POP JUMP JUMPDEST PUSH1 0x0 DUP2 CALLDATALOAD SWAP1 POP PUSH2 0x2022 DUP2 PUSH2 0x1FFC JUMP JUMPDEST SWAP3 SWAP2 POP POP JUMP JUMPDEST PUSH1 0x0 PUSH1 0x20 DUP3 DUP5 SUB SLT ISZERO PUSH2 0x203E JUMPI PUSH2 0x203D PUSH2 0x1D32 JUMP JUMPDEST JUMPDEST PUSH1 0x0 PUSH2 0x204C DUP5 DUP3 DUP6 ADD PUSH2 0x2013 JUMP JUMPDEST SWAP2 POP POP SWAP3 SWAP2 POP POP JUMP JUMPDEST PUSH1 0x0 DUP1 PUSH1 0x40 DUP4 DUP6 SUB SLT ISZERO PUSH2 0x206C JUMPI PUSH2 0x206B PUSH2 0x1D32 JUMP JUMPDEST JUMPDEST PUSH1 0x0 PUSH2 0x207A DUP6 DUP3 DUP7 ADD PUSH2 0x1F68 JUMP JUMPDEST SWAP3 POP POP PUSH1 0x20 PUSH2 0x208B DUP6 DUP3 DUP7 ADD PUSH2 0x1F68 JUMP JUMPDEST SWAP2 POP POP SWAP3 POP SWAP3 SWAP1 POP JUMP JUMPDEST PUSH2 0x209E DUP2 PUSH2 0x1DBC JUMP JUMPDEST DUP2 EQ PUSH2 0x20A9 JUMPI PUSH1 0x0 DUP1 REVERT JUMPDEST POP JUMP JUMPDEST PUSH1 0x0 DUP2 CALLDATALOAD SWAP1 POP PUSH2 0x20BB DUP2 PUSH2 0x2095 JUMP JUMPDEST SWAP3 SWAP2 POP POP JUMP JUMPDEST PUSH1 0x0 DUP1 PUSH1 0x40 DUP4 DUP6 SUB SLT ISZERO PUSH2 0x20D8 JUMPI PUSH2 0x20D7 PUSH2 0x1D32 JUMP JUMPDEST JUMPDEST PUSH1 0x0 PUSH2 0x20E6 DUP6 DUP3 DUP7 ADD PUSH2 0x1EFC JUMP JUMPDEST SWAP3 POP POP PUSH1 0x20 PUSH2 0x20F7 DUP6 DUP3 DUP7 ADD PUSH2 0x20AC JUMP JUMPDEST SWAP2 POP POP SWAP3 POP SWAP3 SWAP1 POP JUMP JUMPDEST PUSH32 0x4E487B7100000000000000000000000000000000000000000000000000000000 PUSH1 0x0 MSTORE PUSH1 0x21 PUSH1 0x4 MSTORE PUSH1 0x24 PUSH1 0x0 REVERT JUMPDEST PUSH1 0x2 DUP2 LT PUSH2 0x2141 JUMPI PUSH2 0x2140 PUSH2 0x2101 JUMP JUMPDEST JUMPDEST POP JUMP JUMPDEST PUSH1 0x0 DUP2 SWAP1 POP PUSH2 0x2152 DUP3 PUSH2 0x2130 JUMP JUMPDEST SWAP2 SWAP1 POP JUMP JUMPDEST PUSH1 0x0 PUSH2 0x2162 DUP3 PUSH2 0x2144 JUMP JUMPDEST SWAP1 POP SWAP2 SWAP1 POP JUMP JUMPDEST PUSH2 0x2172 DUP2 PUSH2 0x2157 JUMP JUMPDEST DUP3 MSTORE POP POP JUMP JUMPDEST PUSH1 0x0 PUSH1 0x20 DUP3 ADD SWAP1 POP PUSH2 0x218D PUSH1 0x0 DUP4 ADD DUP5 PUSH2 0x2169 JUMP JUMPDEST SWAP3 SWAP2 POP POP JUMP JUMPDEST PUSH1 0x0 DUP2 SWAP1 POP SWAP2 SWAP1 POP JUMP JUMPDEST PUSH1 0x0 PUSH2 0x21B8 PUSH2 0x21B3 PUSH2 0x21AE DUP5 PUSH2 0x1EB3 JUMP JUMPDEST PUSH2 0x2193 JUMP JUMPDEST PUSH2 0x1EB3 JUMP JUMPDEST SWAP1 POP SWAP2 SWAP1 POP JUMP JUMPDEST PUSH1 0x0 PUSH2 0x21CA DUP3 PUSH2 0x219D JUMP JUMPDEST SWAP1 POP SWAP2 SWAP1 POP JUMP JUMPDEST PUSH1 0x0 PUSH2 0x21DC DUP3 PUSH2 0x21BF JUMP JUMPDEST SWAP1 POP SWAP2 SWAP1 POP JUMP JUMPDEST PUSH2 0x21EC DUP2 PUSH2 0x21D1 JUMP JUMPDEST DUP3 MSTORE POP POP JUMP JUMPDEST PUSH1 0x0 PUSH1 0x20 DUP3 ADD SWAP1 POP PUSH2 0x2207 PUSH1 0x0 DUP4 ADD DUP5 PUSH2 0x21E3 JUMP JUMPDEST SWAP3 SWAP2 POP POP JUMP JUMPDEST PUSH1 0x0 PUSH2 0x2218 DUP3 PUSH2 0x21BF JUMP JUMPDEST SWAP1 POP SWAP2 SWAP1 POP JUMP JUMPDEST PUSH2 0x2228 DUP2 PUSH2 0x220D JUMP JUMPDEST DUP3 MSTORE POP POP JUMP JUMPDEST PUSH1 0x0 PUSH1 0x20 DUP3 ADD SWAP1 POP PUSH2 0x2243 PUSH1 0x0 DUP4 ADD DUP5 PUSH2 0x221F JUMP JUMPDEST SWAP3 SWAP2 POP POP JUMP JUMPDEST PUSH1 0x0 PUSH2 0x2254 DUP3 PUSH2 0x219D JUMP JUMPDEST SWAP1 POP SWAP2 SWAP1 POP JUMP JUMPDEST PUSH1 0x0 PUSH2 0x2266 DUP3 PUSH2 0x2249 JUMP JUMPDEST SWAP1 POP SWAP2 SWAP1 POP JUMP JUMPDEST PUSH2 0x2276 DUP2 PUSH2 0x225B JUMP JUMPDEST DUP3 MSTORE POP POP JUMP JUMPDEST PUSH1 0x0 PUSH1 0x20 DUP3 ADD SWAP1 POP PUSH2 0x2291 PUSH1 0x0 DUP4 ADD DUP5 PUSH2 0x226D JUMP JUMPDEST SWAP3 SWAP2 POP POP JUMP JUMPDEST PUSH1 0x0 DUP3 DUP3 MSTORE PUSH1 0x20 DUP3 ADD SWAP1 POP SWAP3 SWAP2 POP POP JUMP JUMPDEST PUSH32 0x416363657373436F6E74726F6C3A2063616E206F6E6C792072656E6F756E6365 PUSH1 0x0 DUP3 ADD MSTORE PUSH32 0x20726F6C657320666F722073656C660000000000000000000000000000000000 PUSH1 0x20 DUP3 ADD MSTORE POP JUMP JUMPDEST PUSH1 0x0 PUSH2 0x2304 PUSH1 0x2F DUP4 PUSH2 0x2297 JUMP JUMPDEST SWAP2 POP PUSH2 0x230F DUP3 PUSH2 0x22A8 JUMP JUMPDEST PUSH1 0x40 DUP3 ADD SWAP1 POP SWAP2 SWAP1 POP JUMP JUMPDEST PUSH1 0x0 PUSH1 0x20 DUP3 ADD SWAP1 POP DUP2 DUP2 SUB PUSH1 0x0 DUP4 ADD MSTORE PUSH2 0x2333 DUP2 PUSH2 0x22F7 JUMP JUMPDEST SWAP1 POP SWAP2 SWAP1 POP JUMP JUMPDEST PUSH32 0x5265656E7472616E637947756172643A207265656E7472616E742063616C6C00 PUSH1 0x0 DUP3 ADD MSTORE POP JUMP JUMPDEST PUSH1 0x0 PUSH2 0x2370 PUSH1 0x1F DUP4 PUSH2 0x2297 JUMP JUMPDEST SWAP2 POP PUSH2 0x237B DUP3 PUSH2 0x233A JUMP JUMPDEST PUSH1 0x20 DUP3 ADD SWAP1 POP SWAP2 SWAP1 POP JUMP JUMPDEST PUSH1 0x0 PUSH1 0x20 DUP3 ADD SWAP1 POP DUP2 DUP2 SUB PUSH1 0x0 DUP4 ADD MSTORE PUSH2 0x239F DUP2 PUSH2 0x2363 JUMP JUMPDEST SWAP1 POP SWAP2 SWAP1 POP JUMP JUMPDEST PUSH2 0x23AF DUP2 PUSH2 0x1FEA JUMP JUMPDEST DUP3 MSTORE POP POP JUMP JUMPDEST PUSH1 0x0 PUSH1 0x20 DUP3 ADD SWAP1 POP PUSH2 0x23CA PUSH1 0x0 DUP4 ADD DUP5 PUSH2 0x23A6 JUMP JUMPDEST SWAP3 SWAP2 POP POP JUMP JUMPDEST PUSH1 0x0 DUP2 SWAP1 POP SWAP3 SWAP2 POP POP JUMP JUMPDEST POP JUMP JUMPDEST PUSH1 0x0 PUSH2 0x23EB PUSH1 0x0 DUP4 PUSH2 0x23D0 JUMP JUMPDEST SWAP2 POP PUSH2 0x23F6 DUP3 PUSH2 0x23DB JUMP JUMPDEST PUSH1 0x0 DUP3 ADD SWAP1 POP SWAP2 SWAP1 POP JUMP JUMPDEST PUSH1 0x0 PUSH2 0x240C DUP3 PUSH2 0x23DE JUMP JUMPDEST SWAP2 POP DUP2 SWAP1 POP SWAP2 SWAP1 POP JUMP JUMPDEST PUSH32 0x4574686572207472616E73666572206661696C65642E00000000000000000000 PUSH1 0x0 DUP3 ADD MSTORE POP JUMP JUMPDEST PUSH1 0x0 PUSH2 0x244C PUSH1 0x16 DUP4 PUSH2 0x2297 JUMP JUMPDEST SWAP2 POP PUSH2 0x2457 DUP3 PUSH2 0x2416 JUMP JUMPDEST PUSH1 0x20 DUP3 ADD SWAP1 POP SWAP2 SWAP1 POP JUMP JUMPDEST PUSH1 0x0 PUSH1 0x20 DUP3 ADD SWAP1 POP DUP2 DUP2 SUB PUSH1 0x0 DUP4 ADD MSTORE PUSH2 0x247B DUP2 PUSH2 0x243F JUMP JUMPDEST SWAP1 POP SWAP2 SWAP1 POP JUMP JUMPDEST PUSH32 0x4E487B7100000000000000000000000000000000000000000000000000000000 PUSH1 0x0 MSTORE PUSH1 0x11 PUSH1 0x4 MSTORE PUSH1 0x24 PUSH1 0x0 REVERT JUMPDEST PUSH1 0x0 PUSH2 0x24BC DUP3 PUSH2 0x1DF2 JUMP JUMPDEST SWAP2 POP PUSH2 0x24C7 DUP4 PUSH2 0x1DF2 JUMP JUMPDEST SWAP3 POP DUP3 PUSH32 0xFFFFFFFFFFFFFFFFFFFFFFFFFFFFFFFFFFFFFFFFFFFFFFFFFFFFFFFFFFFFFFFF SUB DUP3 GT ISZERO PUSH2 0x24FC JUMPI PUSH2 0x24FB PUSH2 0x2482 JUMP JUMPDEST JUMPDEST DUP3 DUP3 ADD SWAP1 POP SWAP3 SWAP2 POP POP JUMP JUMPDEST PUSH2 0x2510 DUP2 PUSH2 0x1ED3 JUMP JUMPDEST DUP3 MSTORE POP POP JUMP JUMPDEST PUSH1 0x0 PUSH1 0x40 DUP3 ADD SWAP1 POP PUSH2 0x252B PUSH1 0x0 DUP4 ADD DUP6 PUSH2 0x2507 JUMP JUMPDEST PUSH2 0x2538 PUSH1 0x20 DUP4 ADD DUP5 PUSH2 0x1DFC JUMP JUMPDEST SWAP4 SWAP3 POP POP POP JUMP JUMPDEST PUSH32 0x4E487B7100000000000000000000000000000000000000000000000000000000 PUSH1 0x0 MSTORE PUSH1 0x12 PUSH1 0x4 MSTORE PUSH1 0x24 PUSH1 0x0 REVERT JUMPDEST PUSH1 0x0 PUSH2 0x2579 DUP3 PUSH2 0x1DF2 JUMP JUMPDEST SWAP2 POP PUSH2 0x2584 DUP4 PUSH2 0x1DF2 JUMP JUMPDEST SWAP3 POP DUP3 PUSH2 0x2594 JUMPI PUSH2 0x2593 PUSH2 0x253F JUMP JUMPDEST JUMPDEST DUP3 DUP3 DIV SWAP1 POP SWAP3 SWAP2 POP POP JUMP JUMPDEST PUSH32 0x46756E6374696F6E206661696C65642E00000000000000000000000000000000 PUSH1 0x0 DUP3 ADD MSTORE POP JUMP JUMPDEST PUSH1 0x0 PUSH2 0x25D5 PUSH1 0x10 DUP4 PUSH2 0x2297 JUMP JUMPDEST SWAP2 POP PUSH2 0x25E0 DUP3 PUSH2 0x259F JUMP JUMPDEST PUSH1 0x20 DUP3 ADD SWAP1 POP SWAP2 SWAP1 POP JUMP JUMPDEST PUSH1 0x0 PUSH1 0x20 DUP3 ADD SWAP1 POP DUP2 DUP2 SUB PUSH1 0x0 DUP4 ADD MSTORE PUSH2 0x2604 DUP2 PUSH2 0x25C8 JUMP JUMPDEST SWAP1 POP SWAP2 SWAP1 POP JUMP JUMPDEST PUSH1 0x0 PUSH1 0x40 DUP3 ADD SWAP1 POP PUSH2 0x2620 PUSH1 0x0 DUP4 ADD DUP6 PUSH2 0x1DFC JUMP JUMPDEST PUSH2 0x262D PUSH1 0x20 DUP4 ADD DUP5 PUSH2 0x1DFC JUMP JUMPDEST SWAP4 SWAP3 POP POP POP JUMP JUMPDEST PUSH1 0x0 DUP2 SWAP1 POP SWAP3 SWAP2 POP POP JUMP JUMPDEST PUSH32 0x416363657373436F6E74726F6C3A206163636F756E7420000000000000000000 PUSH1 0x0 DUP3 ADD MSTORE POP JUMP JUMPDEST PUSH1 0x0 PUSH2 0x2675 PUSH1 0x17 DUP4 PUSH2 0x2634 JUMP JUMPDEST SWAP2 POP PUSH2 0x2680 DUP3 PUSH2 0x263F JUMP JUMPDEST PUSH1 0x17 DUP3 ADD SWAP1 POP SWAP2 SWAP1 POP JUMP JUMPDEST PUSH1 0x0 DUP2 MLOAD SWAP1 POP SWAP2 SWAP1 POP JUMP JUMPDEST PUSH1 0x0 JUMPDEST DUP4 DUP2 LT ISZERO PUSH2 0x26B4 JUMPI DUP1 DUP3 ADD MLOAD DUP2 DUP5 ADD MSTORE PUSH1 0x20 DUP2 ADD SWAP1 POP PUSH2 0x2699 JUMP JUMPDEST DUP4 DUP2 GT ISZERO PUSH2 0x26C3 JUMPI PUSH1 0x0 DUP5 DUP5 ADD MSTORE JUMPDEST POP POP POP POP JUMP JUMPDEST PUSH1 0x0 PUSH2 0x26D4 DUP3 PUSH2 0x268B JUMP JUMPDEST PUSH2 0x26DE DUP2 DUP6 PUSH2 0x2634 JUMP JUMPDEST SWAP4 POP PUSH2 0x26EE DUP2 DUP6 PUSH1 0x20 DUP7 ADD PUSH2 0x2696 JUMP JUMPDEST DUP1 DUP5 ADD SWAP2 POP POP SWAP3 SWAP2 POP POP JUMP JUMPDEST PUSH32 0x206973206D697373696E6720726F6C6520000000000000000000000000000000 PUSH1 0x0 DUP3 ADD MSTORE POP JUMP JUMPDEST PUSH1 0x0 PUSH2 0x2730 PUSH1 0x11 DUP4 PUSH2 0x2634 JUMP JUMPDEST SWAP2 POP PUSH2 0x273B DUP3 PUSH2 0x26FA JUMP JUMPDEST PUSH1 0x11 DUP3 ADD SWAP1 POP SWAP2 SWAP1 POP JUMP JUMPDEST PUSH1 0x0 PUSH2 0x2751 DUP3 PUSH2 0x2668 JUMP JUMPDEST SWAP2 POP PUSH2 0x275D DUP3 DUP6 PUSH2 0x26C9 JUMP JUMPDEST SWAP2 POP PUSH2 0x2768 DUP3 PUSH2 0x2723 JUMP JUMPDEST SWAP2 POP PUSH2 0x2774 DUP3 DUP5 PUSH2 0x26C9 JUMP JUMPDEST SWAP2 POP DUP2 SWAP1 POP SWAP4 SWAP3 POP POP POP JUMP JUMPDEST PUSH1 0x0 PUSH1 0x1F NOT PUSH1 0x1F DUP4 ADD AND SWAP1 POP SWAP2 SWAP1 POP JUMP JUMPDEST PUSH1 0x0 PUSH2 0x279C DUP3 PUSH2 0x268B JUMP JUMPDEST PUSH2 0x27A6 DUP2 DUP6 PUSH2 0x2297 JUMP JUMPDEST SWAP4 POP PUSH2 0x27B6 DUP2 DUP6 PUSH1 0x20 DUP7 ADD PUSH2 0x2696 JUMP JUMPDEST PUSH2 0x27BF DUP2 PUSH2 0x2780 JUMP JUMPDEST DUP5 ADD SWAP2 POP POP SWAP3 SWAP2 POP POP JUMP JUMPDEST PUSH1 0x0 PUSH1 0x20 DUP3 ADD SWAP1 POP DUP2 DUP2 SUB PUSH1 0x0 DUP4 ADD MSTORE PUSH2 0x27E4 DUP2 DUP5 PUSH2 0x2791 JUMP JUMPDEST SWAP1 POP SWAP3 SWAP2 POP POP JUMP JUMPDEST PUSH1 0x0 PUSH2 0x27F7 DUP3 PUSH2 0x1DF2 JUMP JUMPDEST SWAP2 POP PUSH2 0x2802 DUP4 PUSH2 0x1DF2 JUMP JUMPDEST SWAP3 POP DUP3 DUP3 LT ISZERO PUSH2 0x2815 JUMPI PUSH2 0x2814 PUSH2 0x2482 JUMP JUMPDEST JUMPDEST DUP3 DUP3 SUB SWAP1 POP SWAP3 SWAP2 POP POP JUMP JUMPDEST PUSH1 0x0 PUSH2 0x282B DUP3 PUSH2 0x1DF2 JUMP JUMPDEST SWAP2 POP PUSH2 0x2836 DUP4 PUSH2 0x1DF2 JUMP JUMPDEST SWAP3 POP DUP2 PUSH32 0xFFFFFFFFFFFFFFFFFFFFFFFFFFFFFFFFFFFFFFFFFFFFFFFFFFFFFFFFFFFFFFFF DIV DUP4 GT DUP3 ISZERO ISZERO AND ISZERO PUSH2 0x286F JUMPI PUSH2 0x286E PUSH2 0x2482 JUMP JUMPDEST JUMPDEST DUP3 DUP3 MUL SWAP1 POP SWAP3 SWAP2 POP POP JUMP JUMPDEST PUSH32 0x5472616E73666572206661696C65642E00000000000000000000000000000000 PUSH1 0x0 DUP3 ADD MSTORE POP JUMP JUMPDEST PUSH1 0x0 PUSH2 0x28B0 PUSH1 0x10 DUP4 PUSH2 0x2297 JUMP JUMPDEST SWAP2 POP PUSH2 0x28BB DUP3 PUSH2 0x287A JUMP JUMPDEST PUSH1 0x20 DUP3 ADD SWAP1 POP SWAP2 SWAP1 POP JUMP JUMPDEST PUSH1 0x0 PUSH1 0x20 DUP3 ADD SWAP1 POP DUP2 DUP2 SUB PUSH1 0x0 DUP4 ADD MSTORE PUSH2 0x28DF DUP2 PUSH2 0x28A3 JUMP JUMPDEST SWAP1 POP SWAP2 SWAP1 POP JUMP JUMPDEST PUSH1 0x0 DUP2 MLOAD SWAP1 POP PUSH2 0x28F5 DUP2 PUSH2 0x2095 JUMP JUMPDEST SWAP3 SWAP2 POP POP JUMP JUMPDEST PUSH1 0x0 PUSH1 0x20 DUP3 DUP5 SUB SLT ISZERO PUSH2 0x2911 JUMPI PUSH2 0x2910 PUSH2 0x1D32 JUMP JUMPDEST JUMPDEST PUSH1 0x0 PUSH2 0x291F DUP5 DUP3 DUP6 ADD PUSH2 0x28E6 JUMP JUMPDEST SWAP2 POP POP SWAP3 SWAP2 POP POP JUMP JUMPDEST PUSH32 0x507572636861736520206661696C65642E000000000000000000000000000000 PUSH1 0x0 DUP3 ADD MSTORE POP JUMP JUMPDEST PUSH1 0x0 PUSH2 0x295E PUSH1 0x11 DUP4 PUSH2 0x2297 JUMP JUMPDEST SWAP2 POP PUSH2 0x2969 DUP3 PUSH2 0x2928 JUMP JUMPDEST PUSH1 0x20 DUP3 ADD SWAP1 POP SWAP2 SWAP1 POP JUMP JUMPDEST PUSH1 0x0 PUSH1 0x20 DUP3 ADD SWAP1 POP DUP2 DUP2 SUB PUSH1 0x0 DUP4 ADD MSTORE PUSH2 0x298D DUP2 PUSH2 0x2951 JUMP JUMPDEST SWAP1 POP SWAP2 SWAP1 POP JUMP JUMPDEST PUSH1 0x0 PUSH2 0x299F DUP3 PUSH2 0x1DF2 JUMP JUMPDEST SWAP2 POP PUSH2 0x29AA DUP4 PUSH2 0x1DF2 JUMP JUMPDEST SWAP3 POP DUP3 PUSH2 0x29BA JUMPI PUSH2 0x29B9 PUSH2 0x253F JUMP JUMPDEST JUMPDEST DUP3 DUP3 MOD SWAP1 POP SWAP3 SWAP2 POP POP JUMP JUMPDEST PUSH32 0x4E487B7100000000000000000000000000000000000000000000000000000000 PUSH1 0x0 MSTORE PUSH1 0x41 PUSH1 0x4 MSTORE PUSH1 0x24 PUSH1 0x0 REVERT JUMPDEST PUSH32 0x4E487B7100000000000000000000000000000000000000000000000000000000 PUSH1 0x0 MSTORE PUSH1 0x32 PUSH1 0x4 MSTORE PUSH1 0x24 PUSH1 0x0 REVERT JUMPDEST PUSH1 0x0 PUSH2 0x2A2E DUP3 PUSH2 0x1DF2 JUMP JUMPDEST SWAP2 POP PUSH1 0x0 DUP3 SUB PUSH2 0x2A41 JUMPI PUSH2 0x2A40 PUSH2 0x2482 JUMP JUMPDEST JUMPDEST PUSH1 0x1 DUP3 SUB SWAP1 POP SWAP2 SWAP1 POP JUMP JUMPDEST PUSH32 0x537472696E67733A20686578206C656E67746820696E73756666696369656E74 PUSH1 0x0 DUP3 ADD MSTORE POP JUMP JUMPDEST PUSH1 0x0 PUSH2 0x2A82 PUSH1 0x20 DUP4 PUSH2 0x2297 JUMP JUMPDEST SWAP2 POP PUSH2 0x2A8D DUP3 PUSH2 0x2A4C JUMP JUMPDEST PUSH1 0x20 DUP3 ADD SWAP1 POP SWAP2 SWAP1 POP JUMP JUMPDEST PUSH1 0x0 PUSH1 0x20 DUP3 ADD SWAP1 POP DUP2 DUP2 SUB PUSH1 0x0 DUP4 ADD MSTORE PUSH2 0x2AB1 DUP2 PUSH2 0x2A75 JUMP JUMPDEST SWAP1 POP SWAP2 SWAP1 POP JUMP INVALID LOG2 PUSH5 0x6970667358 0x22 SLT KECCAK256 PUSH21 0x695C5CD3593FCFCC32EDF6B7C4A906C75CB06FDAED OR 0x1F 0xFC SWAP4 0xB3 DELEGATECALL 0xAE ADDRESS 0x2D 0xC4 PUSH5 0x736F6C6343 STOP ADDMOD 0xD STOP CALLER LOG2 PUSH5 0x6970667358 0x22 SLT KECCAK256 0xE5 0x1F BLOCKHASH SUB 0x5F SWAP12 CODECOPY RETURN 0x1F PUSH12 0x3C5ECC8C1BB15BF864C03DA 0xAB 0xB6 PUSH21 0x684566958D227D64736F6C634300080D0033000000 "},"methodIdentifiers":{"DEFAULT_ADMIN_ROLE()":"a217fddf","changeMarketWrapperFactory(address)":"f87cc78d","changeVaultFactory(address)":"ea51bd5a","getRoleAdmin(bytes32)":"248a9ca3","grantOwnerRole(address)":"397a8bab","grantRole(bytes32,address)":"2f2ff15d","hasRole(bytes32,address)":"91d14854","migration(uint256,string,address,((address,uint256,uint256,address,address,address,uint256,uint256,uint8,uint256,uint256,bytes32,uint256,bytes32,bytes32,uint256,(uint256,address)[],bytes),uint256,address))":"c52e1ece","moonSales(uint256)":"dab2c379","newMoonSale(uint256,uint256,((address,uint256,uint256,address,address,address,uint256,uint256,uint8,uint256,uint256,bytes32,uint256,bytes32,bytes32,uint256,(uint256,address)[],bytes),uint256,address))":"47d00345","renounceRole(bytes32,address)":"36568abe","revokeRole(bytes32,address)":"d547741f","saleMarketWrappers(address)":"65872107","saleTokens(address)":"31296d6e","saleVaults(address)":"fb79d4fb","supportsInterface(bytes4)":"01ffc9a7"}}}}}