{
  "_format": "hh-sol-artifact-1",
  "contractName": "MoonlightCrowdsale",
  "sourceName": "contracts/old-contracts/MoonlightCrowdsale.sol",
  "abi": [
    {
      "inputs": [
        {
          "internalType": "uint256",
          "name": "_rate",
          "type": "uint256"
        },
        {
          "internalType": "contract MoonlightNFT",
          "name": "_token",
          "type": "address"
        },
        {
          "internalType": "uint256",
          "name": "_openingTime",
          "type": "uint256"
        },
        {
          "internalType": "uint256",
          "name": "_closingTime",
          "type": "uint256"
        }
      ],
      "stateMutability": "nonpayable",
      "type": "constructor"
    },
    {
      "anonymous": false,
      "inputs": [
        {
          "indexed": true,
          "internalType": "address",
          "name": "previousOwner",
          "type": "address"
        },
        {
          "indexed": true,
          "internalType": "address",
          "name": "newOwner",
          "type": "address"
        }
      ],
      "name": "OwnershipTransferred",
      "type": "event"
    },
    {
      "anonymous": false,
      "inputs": [
        {
          "indexed": true,
          "internalType": "address",
          "name": "beneficiary",
          "type": "address"
        },
        {
          "indexed": false,
          "internalType": "uint256",
          "name": "value",
          "type": "uint256"
        },
        {
          "indexed": false,
          "internalType": "uint256",
          "name": "amount",
          "type": "uint256"
        }
      ],
      "name": "TokenPurchase",
      "type": "event"
    },
    {
      "stateMutability": "payable",
      "type": "fallback"
    },
    {
      "inputs": [],
      "name": "buyNowPriceInWei",
      "outputs": [
        {
          "internalType": "uint256",
          "name": "",
          "type": "uint256"
        }
      ],
      "stateMutability": "view",
      "type": "function"
    },
    {
      "inputs": [
        {
          "internalType": "address",
          "name": "_beneficiary",
          "type": "address"
        },
        {
          "internalType": "bool",
          "name": "_refundable",
          "type": "bool"
        }
      ],
      "name": "buyTokens",
      "outputs": [],
      "stateMutability": "payable",
      "type": "function"
    },
    {
      "inputs": [],
      "name": "closingTime",
      "outputs": [
        {
          "internalType": "uint256",
          "name": "",
          "type": "uint256"
        }
      ],
      "stateMutability": "view",
      "type": "function"
    },
    {
      "inputs": [],
      "name": "collectTokens",
      "outputs": [],
      "stateMutability": "nonpayable",
      "type": "function"
    },
    {
      "inputs": [
        {
          "internalType": "uint256",
          "name": "",
          "type": "uint256"
        },
        {
          "internalType": "address",
          "name": "",
          "type": "address"
        }
      ],
      "name": "currentRefundableBalances",
      "outputs": [
        {
          "internalType": "uint256",
          "name": "",
          "type": "uint256"
        }
      ],
      "stateMutability": "view",
      "type": "function"
    },
    {
      "inputs": [],
      "name": "currentRefundableWei",
      "outputs": [
        {
          "internalType": "uint256",
          "name": "",
          "type": "uint256"
        }
      ],
      "stateMutability": "view",
      "type": "function"
    },
    {
      "inputs": [],
      "name": "getMaxBidInWei",
      "outputs": [
        {
          "internalType": "uint256",
          "name": "",
          "type": "uint256"
        }
      ],
      "stateMutability": "nonpayable",
      "type": "function"
    },
    {
      "inputs": [],
      "name": "getState",
      "outputs": [
        {
          "internalType": "enum MoonlightCrowdsale.State",
          "name": "",
          "type": "uint8"
        }
      ],
      "stateMutability": "nonpayable",
      "type": "function"
    },
    {
      "inputs": [
        {
          "internalType": "uint256",
          "name": "_newClosingTime",
          "type": "uint256"
        }
      ],
      "name": "migration",
      "outputs": [],
      "stateMutability": "nonpayable",
      "type": "function"
    },
    {
      "inputs": [],
      "name": "migrationCount",
      "outputs": [
        {
          "internalType": "uint256",
          "name": "",
          "type": "uint256"
        }
      ],
      "stateMutability": "view",
      "type": "function"
    },
    {
      "inputs": [
        {
          "internalType": "address",
          "name": "",
          "type": "address"
        }
      ],
      "name": "nonRefundableBalances",
      "outputs": [
        {
          "internalType": "uint256",
          "name": "",
          "type": "uint256"
        }
      ],
      "stateMutability": "view",
      "type": "function"
    },
    {
      "inputs": [],
      "name": "openingTime",
      "outputs": [
        {
          "internalType": "uint256",
          "name": "",
          "type": "uint256"
        }
      ],
      "stateMutability": "view",
      "type": "function"
    },
    {
      "inputs": [],
      "name": "owner",
      "outputs": [
        {
          "internalType": "address",
          "name": "",
          "type": "address"
        }
      ],
      "stateMutability": "view",
      "type": "function"
    },
    {
      "inputs": [],
      "name": "rate",
      "outputs": [
        {
          "internalType": "uint256",
          "name": "",
          "type": "uint256"
        }
      ],
      "stateMutability": "view",
      "type": "function"
    },
    {
      "inputs": [],
      "name": "refund",
      "outputs": [],
      "stateMutability": "payable",
      "type": "function"
    },
    {
      "inputs": [],
      "name": "renounceOwnership",
      "outputs": [],
      "stateMutability": "nonpayable",
      "type": "function"
    },
    {
      "inputs": [],
      "name": "token",
      "outputs": [
        {
          "internalType": "contract MoonlightNFT",
          "name": "",
          "type": "address"
        }
      ],
      "stateMutability": "view",
      "type": "function"
    },
    {
      "inputs": [
        {
          "internalType": "address",
          "name": "newOwner",
          "type": "address"
        }
      ],
      "name": "transferOwnership",
      "outputs": [],
      "stateMutability": "nonpayable",
      "type": "function"
    },
    {
      "inputs": [],
      "name": "vault",
      "outputs": [
        {
          "internalType": "contract NFTVault",
          "name": "",
          "type": "address"
        }
      ],
      "stateMutability": "view",
      "type": "function"
    },
    {
      "stateMutability": "payable",
      "type": "receive"
    }
  ],
  "bytecode": "0x6080604052600060075560006008553480156200001b57600080fd5b50604051620027553803806200275583398181016040528101906200004191906200032d565b8383838362000065620000596200019a60201b60201c565b620001a260201b60201c565b60018410156200007457600080fd5b600073ffffffffffffffffffffffffffffffffffffffff168373ffffffffffffffffffffffffffffffffffffffff161415620000af57600080fd5b42821015620000bd57600080fd5b818111620000ca57600080fd5b8360028190555082600160006101000a81548173ffffffffffffffffffffffffffffffffffffffff021916908373ffffffffffffffffffffffffffffffffffffffff160217905550816003819055508060048190555050505050604051620001329062000266565b604051809103906000f0801580156200014f573d6000803e3d6000fd5b50600b60006101000a81548173ffffffffffffffffffffffffffffffffffffffff021916908373ffffffffffffffffffffffffffffffffffffffff160217905550505050506200039f565b600033905090565b60008060009054906101000a900473ffffffffffffffffffffffffffffffffffffffff169050816000806101000a81548173ffffffffffffffffffffffffffffffffffffffff021916908373ffffffffffffffffffffffffffffffffffffffff1602179055508173ffffffffffffffffffffffffffffffffffffffff168173ffffffffffffffffffffffffffffffffffffffff167f8be0079c531659141344cd1fd0a4f28419497f9722a3daafe3b4186f6b6457e060405160405180910390a35050565b610d5980620019fc83390190565b600080fd5b6000819050919050565b6200028e8162000279565b81146200029a57600080fd5b50565b600081519050620002ae8162000283565b92915050565b600073ffffffffffffffffffffffffffffffffffffffff82169050919050565b6000620002e182620002b4565b9050919050565b6000620002f582620002d4565b9050919050565b6200030781620002e8565b81146200031357600080fd5b50565b6000815190506200032781620002fc565b92915050565b600080600080608085870312156200034a576200034962000274565b5b60006200035a878288016200029d565b94505060206200036d8782880162000316565b935050604062000380878288016200029d565b925050606062000393878288016200029d565b91505092959194509250565b61164d80620003af6000396000f3fe6080604052600436106101185760003560e01c80638433acd1116100a0578063c97f8d6e11610064578063c97f8d6e1461035d578063e640d86214610388578063f2fde38b146103b1578063fbfa77cf146103da578063fc0c546a146104055761012a565b80638433acd1146102a95780638da5cb5b146102c057806394d3f5b3146102eb578063b7a8807c14610316578063bbdc9077146103415761012a565b80634b6753bc116100e75780634b6753bc146101f5578063590e1ae314610220578063715018a61461022a57806374d00f67146102415780637a37ac261461027e5761012a565b80630c3ca20f146101375780631865c57d146101625780632c4e722e1461018d57806331f36bd9146101b85761012a565b3661012a57610128336001610430565b005b610135336001610430565b005b34801561014357600080fd5b5061014c6104bf565b604051610159919061105b565b60405180910390f35b34801561016e57600080fd5b506101776104c5565b60405161018491906110ed565b60405180910390f35b34801561019957600080fd5b506101a261056a565b6040516101af919061105b565b60405180910390f35b3480156101c457600080fd5b506101df60048036038101906101da9190611197565b610570565b6040516101ec919061105b565b60405180910390f35b34801561020157600080fd5b5061020a610595565b604051610217919061105b565b60405180910390f35b61022861059b565b005b34801561023657600080fd5b5061023f610689565b005b34801561024d57600080fd5b50610268600480360381019061026391906111d7565b61069d565b604051610275919061105b565b60405180910390f35b34801561028a57600080fd5b506102936106b5565b6040516102a0919061105b565b60405180910390f35b3480156102b557600080fd5b506102be6106bb565b005b3480156102cc57600080fd5b506102d5610933565b6040516102e29190611213565b60405180910390f35b3480156102f757600080fd5b5061030061095c565b60405161030d919061105b565b60405180910390f35b34801561032257600080fd5b5061032b610961565b604051610338919061105b565b60405180910390f35b61035b60048036038101906103569190611266565b610430565b005b34801561036957600080fd5b50610372610967565b60405161037f919061105b565b60405180910390f35b34801561039457600080fd5b506103af60048036038101906103aa91906112a6565b61096d565b005b3480156103bd57600080fd5b506103d860048036038101906103d391906111d7565b610a1b565b005b3480156103e657600080fd5b506103ef610a9f565b6040516103fc9190611332565b60405180910390f35b34801561041157600080fd5b5061041a610ac5565b6040516104279190611380565b60405180910390f35b600034905061043f8382610aeb565b600061044a82610b61565b9050610457848385610b7f565b8373ffffffffffffffffffffffffffffffffffffffff167fcd60aa75dea3072fbc07ae6d7d856b5dc5f4eee88854f5b4abf7b680ef8bc50f838360405161049f92919061139b565b60405180910390a26104af610cf7565b6104b98483610df1565b50505050565b60075481565b60006002808111156104da576104d9611076565b5b600560009054906101000a900460ff1660028111156104fc576104fb611076565b5b141561051957600560009054906101000a900460ff169050610567565b61052161095c565b471015610554576000600560006101000a81548160ff0219169083600281111561054e5761054d611076565b5b02179055505b600560009054906101000a900460ff1690505b90565b60025481565b6009602052816000526040600020602052806000526040600020600091509150505481565b60045481565b600060096000600854815260200190815260200160002060003373ffffffffffffffffffffffffffffffffffffffff1673ffffffffffffffffffffffffffffffffffffffff16815260200190815260200160002054146105fa57600080fd5b600b60009054906101000a900473ffffffffffffffffffffffffffffffffffffffff1673ffffffffffffffffffffffffffffffffffffffff1663fa89401a336040518263ffffffff1660e01b815260040161065591906113e5565b600060405180830381600087803b15801561066f57600080fd5b505af1158015610683573d6000803e3d6000fd5b50505050565b610691610df5565b61069b6000610e73565b565b600a6020528060005260406000206000915090505481565b60085481565b6002808111156106ce576106cd611076565b5b6106d66104c5565b60028111156106e8576106e7611076565b5b146106f257600080fd5b6000600a60003373ffffffffffffffffffffffffffffffffffffffff1673ffffffffffffffffffffffffffffffffffffffff1681526020019081526020016000205460096000600854815260200190815260200160002060003373ffffffffffffffffffffffffffffffffffffffff1673ffffffffffffffffffffffffffffffffffffffff16815260200190815260200160002054610791919061142f565b9050600081116107a057600080fd5b600b60009054906101000a900473ffffffffffffffffffffffffffffffffffffffff1673ffffffffffffffffffffffffffffffffffffffff16630a2f487b3360096000600854815260200190815260200160002060003373ffffffffffffffffffffffffffffffffffffffff1673ffffffffffffffffffffffffffffffffffffffff168152602001908152602001600020546040518363ffffffff1660e01b815260040161084f929190611485565b600060405180830381600087803b15801561086957600080fd5b505af115801561087d573d6000803e3d6000fd5b50505050600060096000600854815260200190815260200160002060003373ffffffffffffffffffffffffffffffffffffffff1673ffffffffffffffffffffffffffffffffffffffff168152602001908152602001600020819055506000600a60003373ffffffffffffffffffffffffffffffffffffffff1673ffffffffffffffffffffffffffffffffffffffff168152602001908152602001600020819055506109303361092b83610b61565b610f37565b50565b60008060009054906101000a900473ffffffffffffffffffffffffffffffffffffffff16905090565b600090565b60035481565b60065481565b610975610df5565b600b60009054906101000a900473ffffffffffffffffffffffffffffffffffffffff1673ffffffffffffffffffffffffffffffffffffffff166108fc6007549081150290604051600060405180830381858888f193505050501580156109df573d6000803e3d6000fd5b5060006007819055506001600860008282546109fb919061142f565b925050819055504260038190555080600481905550610a18610cf7565b50565b610a23610df5565b600073ffffffffffffffffffffffffffffffffffffffff168173ffffffffffffffffffffffffffffffffffffffff161415610a93576040517f08c379a0000000000000000000000000000000000000000000000000000000008152600401610a8a90611531565b60405180910390fd5b610a9c81610e73565b50565b600b60009054906101000a900473ffffffffffffffffffffffffffffffffffffffff1681565b600160009054906101000a900473ffffffffffffffffffffffffffffffffffffffff1681565b610af58282610fca565b60006002811115610b0957610b08611076565b5b610b116104c5565b6002811115610b2357610b22611076565b5b14610b2d57600080fd5b6001610b3882610b61565b1015610b4357600080fd5b6006548147610b52919061142f565b1115610b5d57600080fd5b5050565b6000610b786002548361102490919063ffffffff16565b9050919050565b8015610c9b578160096000600854815260200190815260200160002060008573ffffffffffffffffffffffffffffffffffffffff1673ffffffffffffffffffffffffffffffffffffffff1681526020019081526020016000206000828254610be7919061142f565b92505081905550600b60009054906101000a900473ffffffffffffffffffffffffffffffffffffffff1673ffffffffffffffffffffffffffffffffffffffff16636f485d6c84846040518363ffffffff1660e01b8152600401610c4b929190611485565b600060405180830381600087803b158015610c6557600080fd5b505af1158015610c79573d6000803e3d6000fd5b505050508160076000828254610c8f919061142f565b92505081905550610cf2565b81600a60008573ffffffffffffffffffffffffffffffffffffffff1673ffffffffffffffffffffffffffffffffffffffff1681526020019081526020016000206000828254610cea919061142f565b925050819055505b505050565b600654471415610db357600b60009054906101000a900473ffffffffffffffffffffffffffffffffffffffff1673ffffffffffffffffffffffffffffffffffffffff166343d726d66040518163ffffffff1660e01b8152600401600060405180830381600087803b158015610d6b57600080fd5b505af1158015610d7f573d6000803e3d6000fd5b505050506002600560006101000a81548160ff02191690836002811115610da957610da8611076565b5b0217905550610def565b610dbb61095c565b471115610dee576001600560006101000a81548160ff02191690836002811115610de857610de7611076565b5b02179055505b5b565b5050565b610dfd61103a565b73ffffffffffffffffffffffffffffffffffffffff16610e1b610933565b73ffffffffffffffffffffffffffffffffffffffff1614610e71576040517f08c379a0000000000000000000000000000000000000000000000000000000008152600401610e689061159d565b60405180910390fd5b565b60008060009054906101000a900473ffffffffffffffffffffffffffffffffffffffff169050816000806101000a81548173ffffffffffffffffffffffffffffffffffffffff021916908373ffffffffffffffffffffffffffffffffffffffff1602179055508173ffffffffffffffffffffffffffffffffffffffff168173ffffffffffffffffffffffffffffffffffffffff167f8be0079c531659141344cd1fd0a4f28419497f9722a3daafe3b4186f6b6457e060405160405180910390a35050565b600160009054906101000a900473ffffffffffffffffffffffffffffffffffffffff1673ffffffffffffffffffffffffffffffffffffffff166340c10f1983836040518363ffffffff1660e01b8152600401610f94929190611485565b600060405180830381600087803b158015610fae57600080fd5b505af1158015610fc2573d6000803e3d6000fd5b505050505050565b6004544210610fd857600080fd5b600073ffffffffffffffffffffffffffffffffffffffff168273ffffffffffffffffffffffffffffffffffffffff16141561101257600080fd5b600081141561102057600080fd5b5050565b6000818361103291906115bd565b905092915050565b600033905090565b6000819050919050565b61105581611042565b82525050565b6000602082019050611070600083018461104c565b92915050565b7f4e487b7100000000000000000000000000000000000000000000000000000000600052602160045260246000fd5b600381106110b6576110b5611076565b5b50565b60008190506110c7826110a5565b919050565b60006110d7826110b9565b9050919050565b6110e7816110cc565b82525050565b600060208201905061110260008301846110de565b92915050565b600080fd5b61111681611042565b811461112157600080fd5b50565b6000813590506111338161110d565b92915050565b600073ffffffffffffffffffffffffffffffffffffffff82169050919050565b600061116482611139565b9050919050565b61117481611159565b811461117f57600080fd5b50565b6000813590506111918161116b565b92915050565b600080604083850312156111ae576111ad611108565b5b60006111bc85828601611124565b92505060206111cd85828601611182565b9150509250929050565b6000602082840312156111ed576111ec611108565b5b60006111fb84828501611182565b91505092915050565b61120d81611159565b82525050565b60006020820190506112286000830184611204565b92915050565b60008115159050919050565b6112438161122e565b811461124e57600080fd5b50565b6000813590506112608161123a565b92915050565b6000806040838503121561127d5761127c611108565b5b600061128b85828601611182565b925050602061129c85828601611251565b9150509250929050565b6000602082840312156112bc576112bb611108565b5b60006112ca84828501611124565b91505092915050565b6000819050919050565b60006112f86112f36112ee84611139565b6112d3565b611139565b9050919050565b600061130a826112dd565b9050919050565b600061131c826112ff565b9050919050565b61132c81611311565b82525050565b60006020820190506113476000830184611323565b92915050565b6000611358826112dd565b9050919050565b600061136a8261134d565b9050919050565b61137a8161135f565b82525050565b60006020820190506113956000830184611371565b92915050565b60006040820190506113b0600083018561104c565b6113bd602083018461104c565b9392505050565b60006113cf82611139565b9050919050565b6113df816113c4565b82525050565b60006020820190506113fa60008301846113d6565b92915050565b7f4e487b7100000000000000000000000000000000000000000000000000000000600052601160045260246000fd5b600061143a82611042565b915061144583611042565b9250827fffffffffffffffffffffffffffffffffffffffffffffffffffffffffffffffff0382111561147a57611479611400565b5b828201905092915050565b600060408201905061149a6000830185611204565b6114a7602083018461104c565b9392505050565b600082825260208201905092915050565b7f4f776e61626c653a206e6577206f776e657220697320746865207a65726f206160008201527f6464726573730000000000000000000000000000000000000000000000000000602082015250565b600061151b6026836114ae565b9150611526826114bf565b604082019050919050565b6000602082019050818103600083015261154a8161150e565b9050919050565b7f4f776e61626c653a2063616c6c6572206973206e6f7420746865206f776e6572600082015250565b60006115876020836114ae565b915061159282611551565b602082019050919050565b600060208201905081810360008301526115b68161157a565b9050919050565b60006115c882611042565b91506115d383611042565b9250817fffffffffffffffffffffffffffffffffffffffffffffffffffffffffffffffff048311821515161561160c5761160b611400565b5b82820290509291505056fea26469706673582212205ce008fcf3d5b3b945e1be2b21507ff170809e1259f19c507eaa8d8c7b17146264736f6c63430008090033608060405234801561001057600080fd5b5061002d61002261005c60201b60201c565b61006460201b60201c565b60008060146101000a81548160ff0219169083600181111561005257610051610128565b5b0217905550610157565b600033905090565b60008060009054906101000a900473ffffffffffffffffffffffffffffffffffffffff169050816000806101000a81548173ffffffffffffffffffffffffffffffffffffffff021916908373ffffffffffffffffffffffffffffffffffffffff1602179055508173ffffffffffffffffffffffffffffffffffffffff168173ffffffffffffffffffffffffffffffffffffffff167f8be0079c531659141344cd1fd0a4f28419497f9722a3daafe3b4186f6b6457e060405160405180910390a35050565b7f4e487b7100000000000000000000000000000000000000000000000000000000600052602160045260246000fd5b610bf3806101666000396000f3fe60806040526004361061008a5760003560e01c8063715018a611610059578063715018a6146101395780638da5cb5b14610150578063c19d93fb1461017b578063f2fde38b146101a6578063fa89401a146101cf57610091565b80630a2f487b146100935780633dd2281d146100bc57806343d726d6146100f95780636f485d6c1461011057610091565b3661009157005b005b34801561009f57600080fd5b506100ba60048036038101906100b59190610837565b6101f8565b005b3480156100c857600080fd5b506100e360048036038101906100de9190610877565b61025a565b6040516100f091906108b3565b60405180910390f35b34801561010557600080fd5b5061010e610272565b005b34801561011c57600080fd5b5061013760048036038101906101329190610837565b610313565b005b34801561014557600080fd5b5061014e6103f4565b005b34801561015c57600080fd5b50610165610408565b60405161017291906108dd565b60405180910390f35b34801561018757600080fd5b50610190610431565b60405161019d919061096f565b60405180910390f35b3480156101b257600080fd5b506101cd60048036038101906101c89190610877565b610444565b005b3480156101db57600080fd5b506101f660048036038101906101f191906109c8565b6104c8565b005b61020061063e565b80600160008473ffffffffffffffffffffffffffffffffffffffff1673ffffffffffffffffffffffffffffffffffffffff168152602001908152602001600020600082825461024f9190610a24565b925050819055505050565b60016020528060005260406000206000915090505481565b61027a61063e565b6000600181111561028e5761028d6108f8565b5b600060149054906101000a900460ff1660018111156102b0576102af6108f8565b5b146102ba57600080fd5b6001600060146101000a81548160ff021916908360018111156102e0576102df6108f8565b5b02179055507f1cdde67b72a90f19919ac732a437ac2f7a10fc128d28c2a6e525d89ce5cd9d3a60405160405180910390a1565b60006001811115610327576103266108f8565b5b600060149054906101000a900460ff166001811115610349576103486108f8565b5b1461035357600080fd5b61035b61063e565b6103ad81600160008573ffffffffffffffffffffffffffffffffffffffff1673ffffffffffffffffffffffffffffffffffffffff168152602001908152602001600020546106bc90919063ffffffff16565b600160008473ffffffffffffffffffffffffffffffffffffffff1673ffffffffffffffffffffffffffffffffffffffff168152602001908152602001600020819055505050565b6103fc61063e565b61040660006106d2565b565b60008060009054906101000a900473ffffffffffffffffffffffffffffffffffffffff16905090565b600060149054906101000a900460ff1681565b61044c61063e565b600073ffffffffffffffffffffffffffffffffffffffff168173ffffffffffffffffffffffffffffffffffffffff1614156104bc576040517f08c379a00000000000000000000000000000000000000000000000000000000081526004016104b390610adb565b60405180910390fd5b6104c5816106d2565b50565b6104d061063e565b6000600160008373ffffffffffffffffffffffffffffffffffffffff1673ffffffffffffffffffffffffffffffffffffffff168152602001908152602001600020541161051c57600080fd5b6000600160008373ffffffffffffffffffffffffffffffffffffffff1673ffffffffffffffffffffffffffffffffffffffff1681526020019081526020016000205490506000600160008473ffffffffffffffffffffffffffffffffffffffff1673ffffffffffffffffffffffffffffffffffffffff168152602001908152602001600020819055508173ffffffffffffffffffffffffffffffffffffffff166108fc829081150290604051600060405180830381858888f193505050501580156105eb573d6000803e3d6000fd5b508173ffffffffffffffffffffffffffffffffffffffff167fd7dee2702d63ad89917b6a4da9981c90c4d24f8c2bdfd64c604ecae57d8d06518260405161063291906108b3565b60405180910390a25050565b610646610796565b73ffffffffffffffffffffffffffffffffffffffff16610664610408565b73ffffffffffffffffffffffffffffffffffffffff16146106ba576040517f08c379a00000000000000000000000000000000000000000000000000000000081526004016106b190610b47565b60405180910390fd5b565b600081836106ca9190610b67565b905092915050565b60008060009054906101000a900473ffffffffffffffffffffffffffffffffffffffff169050816000806101000a81548173ffffffffffffffffffffffffffffffffffffffff021916908373ffffffffffffffffffffffffffffffffffffffff1602179055508173ffffffffffffffffffffffffffffffffffffffff168173ffffffffffffffffffffffffffffffffffffffff167f8be0079c531659141344cd1fd0a4f28419497f9722a3daafe3b4186f6b6457e060405160405180910390a35050565b600033905090565b600080fd5b600073ffffffffffffffffffffffffffffffffffffffff82169050919050565b60006107ce826107a3565b9050919050565b6107de816107c3565b81146107e957600080fd5b50565b6000813590506107fb816107d5565b92915050565b6000819050919050565b61081481610801565b811461081f57600080fd5b50565b6000813590506108318161080b565b92915050565b6000806040838503121561084e5761084d61079e565b5b600061085c858286016107ec565b925050602061086d85828601610822565b9150509250929050565b60006020828403121561088d5761088c61079e565b5b600061089b848285016107ec565b91505092915050565b6108ad81610801565b82525050565b60006020820190506108c860008301846108a4565b92915050565b6108d7816107c3565b82525050565b60006020820190506108f260008301846108ce565b92915050565b7f4e487b7100000000000000000000000000000000000000000000000000000000600052602160045260246000fd5b60028110610938576109376108f8565b5b50565b600081905061094982610927565b919050565b60006109598261093b565b9050919050565b6109698161094e565b82525050565b60006020820190506109846000830184610960565b92915050565b6000610995826107a3565b9050919050565b6109a58161098a565b81146109b057600080fd5b50565b6000813590506109c28161099c565b92915050565b6000602082840312156109de576109dd61079e565b5b60006109ec848285016109b3565b91505092915050565b7f4e487b7100000000000000000000000000000000000000000000000000000000600052601160045260246000fd5b6000610a2f82610801565b9150610a3a83610801565b925082821015610a4d57610a4c6109f5565b5b828203905092915050565b600082825260208201905092915050565b7f4f776e61626c653a206e6577206f776e657220697320746865207a65726f206160008201527f6464726573730000000000000000000000000000000000000000000000000000602082015250565b6000610ac5602683610a58565b9150610ad082610a69565b604082019050919050565b60006020820190508181036000830152610af481610ab8565b9050919050565b7f4f776e61626c653a2063616c6c6572206973206e6f7420746865206f776e6572600082015250565b6000610b31602083610a58565b9150610b3c82610afb565b602082019050919050565b60006020820190508181036000830152610b6081610b24565b9050919050565b6000610b7282610801565b9150610b7d83610801565b9250827fffffffffffffffffffffffffffffffffffffffffffffffffffffffffffffffff03821115610bb257610bb16109f5565b5b82820190509291505056fea264697066735822122000a9cfe33e85b980b7933d9aa999481fec6f2b6e8b26ffc6389a456fffdd7bfe64736f6c63430008090033",
  "linkReferences": {},
  "deployedLinkReferences": {}
}