{
  "_format": "hh-sol-artifact-1",
  "contractName": "MoonVault",
  "sourceName": "contracts/main/MoonVault.sol",
  "abi": [
    {
      "inputs": [],
      "stateMutability": "nonpayable",
      "type": "constructor"
    },
    {
      "anonymous": false,
      "inputs": [],
      "name": "Closed",
      "type": "event"
    },
    {
      "anonymous": false,
      "inputs": [
        {
          "indexed": true,
          "internalType": "address",
          "name": "beneficiary",
          "type": "address"
        },
        {
          "indexed": false,
          "internalType": "uint256",
          "name": "weiAmount",
          "type": "uint256"
        }
      ],
      "name": "Refunded",
      "type": "event"
    },
    {
      "anonymous": false,
      "inputs": [
        {
          "indexed": true,
          "internalType": "bytes32",
          "name": "role",
          "type": "bytes32"
        },
        {
          "indexed": true,
          "internalType": "bytes32",
          "name": "previousAdminRole",
          "type": "bytes32"
        },
        {
          "indexed": true,
          "internalType": "bytes32",
          "name": "newAdminRole",
          "type": "bytes32"
        }
      ],
      "name": "RoleAdminChanged",
      "type": "event"
    },
    {
      "anonymous": false,
      "inputs": [
        {
          "indexed": true,
          "internalType": "bytes32",
          "name": "role",
          "type": "bytes32"
        },
        {
          "indexed": true,
          "internalType": "address",
          "name": "account",
          "type": "address"
        },
        {
          "indexed": true,
          "internalType": "address",
          "name": "sender",
          "type": "address"
        }
      ],
      "name": "RoleGranted",
      "type": "event"
    },
    {
      "anonymous": false,
      "inputs": [
        {
          "indexed": true,
          "internalType": "bytes32",
          "name": "role",
          "type": "bytes32"
        },
        {
          "indexed": true,
          "internalType": "address",
          "name": "account",
          "type": "address"
        },
        {
          "indexed": true,
          "internalType": "address",
          "name": "sender",
          "type": "address"
        }
      ],
      "name": "RoleRevoked",
      "type": "event"
    },
    {
      "stateMutability": "payable",
      "type": "fallback"
    },
    {
      "inputs": [],
      "name": "DEFAULT_ADMIN_ROLE",
      "outputs": [
        {
          "internalType": "bytes32",
          "name": "",
          "type": "bytes32"
        }
      ],
      "stateMutability": "view",
      "type": "function"
    },
    {
      "inputs": [],
      "name": "close",
      "outputs": [],
      "stateMutability": "nonpayable",
      "type": "function"
    },
    {
      "inputs": [
        {
          "internalType": "address",
          "name": "investor",
          "type": "address"
        },
        {
          "internalType": "uint256",
          "name": "weiAmount",
          "type": "uint256"
        }
      ],
      "name": "deductRefundableBalances",
      "outputs": [],
      "stateMutability": "nonpayable",
      "type": "function"
    },
    {
      "inputs": [
        {
          "internalType": "address payable",
          "name": "to",
          "type": "address"
        }
      ],
      "name": "emergencyWithdrawal",
      "outputs": [],
      "stateMutability": "payable",
      "type": "function"
    },
    {
      "inputs": [
        {
          "internalType": "bytes32",
          "name": "role",
          "type": "bytes32"
        }
      ],
      "name": "getRoleAdmin",
      "outputs": [
        {
          "internalType": "bytes32",
          "name": "",
          "type": "bytes32"
        }
      ],
      "stateMutability": "view",
      "type": "function"
    },
    {
      "inputs": [
        {
          "internalType": "address",
          "name": "to",
          "type": "address"
        }
      ],
      "name": "grantOwnerRole",
      "outputs": [],
      "stateMutability": "nonpayable",
      "type": "function"
    },
    {
      "inputs": [
        {
          "internalType": "bytes32",
          "name": "role",
          "type": "bytes32"
        },
        {
          "internalType": "address",
          "name": "account",
          "type": "address"
        }
      ],
      "name": "grantRole",
      "outputs": [],
      "stateMutability": "nonpayable",
      "type": "function"
    },
    {
      "inputs": [
        {
          "internalType": "bytes32",
          "name": "role",
          "type": "bytes32"
        },
        {
          "internalType": "address",
          "name": "account",
          "type": "address"
        }
      ],
      "name": "hasRole",
      "outputs": [
        {
          "internalType": "bool",
          "name": "",
          "type": "bool"
        }
      ],
      "stateMutability": "view",
      "type": "function"
    },
    {
      "inputs": [
        {
          "internalType": "address payable",
          "name": "investor",
          "type": "address"
        }
      ],
      "name": "refund",
      "outputs": [],
      "stateMutability": "nonpayable",
      "type": "function"
    },
    {
      "inputs": [
        {
          "internalType": "address",
          "name": "",
          "type": "address"
        }
      ],
      "name": "refundableBalances",
      "outputs": [
        {
          "internalType": "uint256",
          "name": "",
          "type": "uint256"
        }
      ],
      "stateMutability": "view",
      "type": "function"
    },
    {
      "inputs": [
        {
          "internalType": "bytes32",
          "name": "role",
          "type": "bytes32"
        },
        {
          "internalType": "address",
          "name": "account",
          "type": "address"
        }
      ],
      "name": "renounceRole",
      "outputs": [],
      "stateMutability": "nonpayable",
      "type": "function"
    },
    {
      "inputs": [
        {
          "internalType": "bytes32",
          "name": "role",
          "type": "bytes32"
        },
        {
          "internalType": "address",
          "name": "account",
          "type": "address"
        }
      ],
      "name": "revokeRole",
      "outputs": [],
      "stateMutability": "nonpayable",
      "type": "function"
    },
    {
      "inputs": [],
      "name": "state",
      "outputs": [
        {
          "internalType": "enum MoonVault.State",
          "name": "",
          "type": "uint8"
        }
      ],
      "stateMutability": "view",
      "type": "function"
    },
    {
      "inputs": [
        {
          "internalType": "bytes4",
          "name": "interfaceId",
          "type": "bytes4"
        }
      ],
      "name": "supportsInterface",
      "outputs": [
        {
          "internalType": "bool",
          "name": "",
          "type": "bool"
        }
      ],
      "stateMutability": "view",
      "type": "function"
    },
    {
      "inputs": [
        {
          "internalType": "address",
          "name": "investor",
          "type": "address"
        },
        {
          "internalType": "uint256",
          "name": "weiAmount",
          "type": "uint256"
        }
      ],
      "name": "updateRefundableBalances",
      "outputs": [],
      "stateMutability": "nonpayable",
      "type": "function"
    },
    {
      "stateMutability": "payable",
      "type": "receive"
    }
  ],
  "bytecode": "0x60806040523480156200001157600080fd5b50620000276000801b336200005b60201b60201c565b6000600160006101000a81548160ff0219169083600181111562000050576200004f620001be565b5b0217905550620001ed565b6200006d82826200014c60201b60201c565b6200014857600160008084815260200190815260200160002060000160008373ffffffffffffffffffffffffffffffffffffffff1673ffffffffffffffffffffffffffffffffffffffff16815260200190815260200160002060006101000a81548160ff021916908315150217905550620000ed620001b660201b60201c565b73ffffffffffffffffffffffffffffffffffffffff168173ffffffffffffffffffffffffffffffffffffffff16837f2f8788117e7eff1d82e926ec794901d17c78024a50270940304540a733656f0d60405160405180910390a45b5050565b600080600084815260200190815260200160002060000160008373ffffffffffffffffffffffffffffffffffffffff1673ffffffffffffffffffffffffffffffffffffffff16815260200190815260200160002060009054906101000a900460ff16905092915050565b600033905090565b7f4e487b7100000000000000000000000000000000000000000000000000000000600052602160045260246000fd5b6118c780620001fd6000396000f3fe6080604052600436106100ec5760003560e01c806343d726d61161008a578063a217fddf11610059578063a217fddf146102e9578063c19d93fb14610314578063d547741f1461033f578063fa89401a14610368576100f3565b806343d726d6146102505780636e353a1d146102675780636f485d6c1461028357806391d14854146102ac576100f3565b80632f2ff15d116100c65780632f2ff15d1461019857806336568abe146101c1578063397a8bab146101ea5780633dd2281d14610213576100f3565b806301ffc9a7146100f55780630a2f487b14610132578063248a9ca31461015b576100f3565b366100f357005b005b34801561010157600080fd5b5061011c60048036038101906101179190611025565b610391565b604051610129919061106d565b60405180910390f35b34801561013e57600080fd5b506101596004803603810190610154919061111c565b61040b565b005b34801561016757600080fd5b50610182600480360381019061017d9190611192565b610507565b60405161018f91906111ce565b60405180910390f35b3480156101a457600080fd5b506101bf60048036038101906101ba91906111e9565b610526565b005b3480156101cd57600080fd5b506101e860048036038101906101e391906111e9565b610547565b005b3480156101f657600080fd5b50610211600480360381019061020c9190611229565b6105ca565b005b34801561021f57600080fd5b5061023a60048036038101906102359190611229565b6105e8565b6040516102479190611265565b60405180910390f35b34801561025c57600080fd5b50610265610600565b005b610281600480360381019061027c91906112be565b6106a6565b005b34801561028f57600080fd5b506102aa60048036038101906102a5919061111c565b610764565b005b3480156102b857600080fd5b506102d360048036038101906102ce91906111e9565b61080c565b6040516102e0919061106d565b60405180910390f35b3480156102f557600080fd5b506102fe610876565b60405161030b91906111ce565b60405180910390f35b34801561032057600080fd5b5061032961087d565b6040516103369190611362565b60405180910390f35b34801561034b57600080fd5b50610366600480360381019061036191906111e9565b610890565b005b34801561037457600080fd5b5061038f600480360381019061038a91906112be565b6108b1565b005b60007f7965db0b000000000000000000000000000000000000000000000000000000007bffffffffffffffffffffffffffffffffffffffffffffffffffffffff1916827bffffffffffffffffffffffffffffffffffffffffffffffffffffffff19161480610404575061040382610a93565b5b9050919050565b6000801b61041881610afd565b6000600260008573ffffffffffffffffffffffffffffffffffffffff1673ffffffffffffffffffffffffffffffffffffffff16815260200190815260200160002054101561046557600080fd5b81600260008573ffffffffffffffffffffffffffffffffffffffff1673ffffffffffffffffffffffffffffffffffffffff16815260200190815260200160002054106105025781600260008573ffffffffffffffffffffffffffffffffffffffff1673ffffffffffffffffffffffffffffffffffffffff16815260200190815260200160002060008282546104fa91906113ac565b925050819055505b505050565b6000806000838152602001908152602001600020600101549050919050565b61052f82610507565b61053881610afd565b6105428383610b11565b505050565b61054f610bf1565b73ffffffffffffffffffffffffffffffffffffffff168173ffffffffffffffffffffffffffffffffffffffff16146105bc576040517f08c379a00000000000000000000000000000000000000000000000000000000081526004016105b390611463565b60405180910390fd5b6105c68282610bf9565b5050565b6000801b6105d781610afd565b6105e46000801b83610b11565b5050565b60026020528060005260406000206000915090505481565b6000801b61060d81610afd565b60006001811115610621576106206112eb565b5b600160009054906101000a900460ff166001811115610643576106426112eb565b5b1461064d57600080fd5b60018060006101000a81548160ff02191690836001811115610672576106716112eb565b5b02179055507f1cdde67b72a90f19919ac732a437ac2f7a10fc128d28c2a6e525d89ce5cd9d3a60405160405180910390a150565b6000801b6106b381610afd565b60008273ffffffffffffffffffffffffffffffffffffffff16476040516106d9906114b4565b60006040518083038185875af1925050503d8060008114610716576040519150601f19603f3d011682016040523d82523d6000602084013e61071b565b606091505b505090508061075f576040517f08c379a000000000000000000000000000000000000000000000000000000000815260040161075690611515565b60405180910390fd5b505050565b60006001811115610778576107776112eb565b5b600160009054906101000a900460ff16600181111561079a576107996112eb565b5b146107a457600080fd5b6000801b6107b181610afd565b81600260008573ffffffffffffffffffffffffffffffffffffffff1673ffffffffffffffffffffffffffffffffffffffff16815260200190815260200160002060008282546108009190611535565b92505081905550505050565b600080600084815260200190815260200160002060000160008373ffffffffffffffffffffffffffffffffffffffff1673ffffffffffffffffffffffffffffffffffffffff16815260200190815260200160002060009054906101000a900460ff16905092915050565b6000801b81565b600160009054906101000a900460ff1681565b61089982610507565b6108a281610afd565b6108ac8383610bf9565b505050565b6000801b6108be81610afd565b6000600260008473ffffffffffffffffffffffffffffffffffffffff1673ffffffffffffffffffffffffffffffffffffffff168152602001908152602001600020541161090a57600080fd5b6000600260008473ffffffffffffffffffffffffffffffffffffffff1673ffffffffffffffffffffffffffffffffffffffff1681526020019081526020016000205490506000600260008573ffffffffffffffffffffffffffffffffffffffff1673ffffffffffffffffffffffffffffffffffffffff1681526020019081526020016000208190555060008373ffffffffffffffffffffffffffffffffffffffff16826040516109b9906114b4565b60006040518083038185875af1925050503d80600081146109f6576040519150601f19603f3d011682016040523d82523d6000602084013e6109fb565b606091505b5050905080610a3f576040517f08c379a0000000000000000000000000000000000000000000000000000000008152600401610a3690611515565b60405180910390fd5b8373ffffffffffffffffffffffffffffffffffffffff167fd7dee2702d63ad89917b6a4da9981c90c4d24f8c2bdfd64c604ecae57d8d065183604051610a859190611265565b60405180910390a250505050565b60007f01ffc9a7000000000000000000000000000000000000000000000000000000007bffffffffffffffffffffffffffffffffffffffffffffffffffffffff1916827bffffffffffffffffffffffffffffffffffffffffffffffffffffffff1916149050919050565b610b0e81610b09610bf1565b610cda565b50565b610b1b828261080c565b610bed57600160008084815260200190815260200160002060000160008373ffffffffffffffffffffffffffffffffffffffff1673ffffffffffffffffffffffffffffffffffffffff16815260200190815260200160002060006101000a81548160ff021916908315150217905550610b92610bf1565b73ffffffffffffffffffffffffffffffffffffffff168173ffffffffffffffffffffffffffffffffffffffff16837f2f8788117e7eff1d82e926ec794901d17c78024a50270940304540a733656f0d60405160405180910390a45b5050565b600033905090565b610c03828261080c565b15610cd657600080600084815260200190815260200160002060000160008373ffffffffffffffffffffffffffffffffffffffff1673ffffffffffffffffffffffffffffffffffffffff16815260200190815260200160002060006101000a81548160ff021916908315150217905550610c7b610bf1565b73ffffffffffffffffffffffffffffffffffffffff168173ffffffffffffffffffffffffffffffffffffffff16837ff6391f5c32d9c69d2a47ea670b442974b53935d1edc7fd64eb21e047a839171b60405160405180910390a45b5050565b610ce4828261080c565b610d5b57610cf181610d5f565b610cff8360001c6020610d8c565b604051602001610d1092919061169d565b6040516020818303038152906040526040517f08c379a0000000000000000000000000000000000000000000000000000000008152600401610d529190611721565b60405180910390fd5b5050565b6060610d858273ffffffffffffffffffffffffffffffffffffffff16601460ff16610d8c565b9050919050565b606060006002836002610d9f9190611743565b610da99190611535565b67ffffffffffffffff811115610dc257610dc161179d565b5b6040519080825280601f01601f191660200182016040528015610df45781602001600182028036833780820191505090505b5090507f300000000000000000000000000000000000000000000000000000000000000081600081518110610e2c57610e2b6117cc565b5b60200101907effffffffffffffffffffffffffffffffffffffffffffffffffffffffffffff1916908160001a9053507f780000000000000000000000000000000000000000000000000000000000000081600181518110610e9057610e8f6117cc565b5b60200101907effffffffffffffffffffffffffffffffffffffffffffffffffffffffffffff1916908160001a90535060006001846002610ed09190611743565b610eda9190611535565b90505b6001811115610f7a577f3031323334353637383961626364656600000000000000000000000000000000600f861660108110610f1c57610f1b6117cc565b5b1a60f81b828281518110610f3357610f326117cc565b5b60200101907effffffffffffffffffffffffffffffffffffffffffffffffffffffffffffff1916908160001a905350600485901c945080610f73906117fb565b9050610edd565b5060008414610fbe576040517f08c379a0000000000000000000000000000000000000000000000000000000008152600401610fb590611871565b60405180910390fd5b8091505092915050565b600080fd5b60007fffffffff0000000000000000000000000000000000000000000000000000000082169050919050565b61100281610fcd565b811461100d57600080fd5b50565b60008135905061101f81610ff9565b92915050565b60006020828403121561103b5761103a610fc8565b5b600061104984828501611010565b91505092915050565b60008115159050919050565b61106781611052565b82525050565b6000602082019050611082600083018461105e565b92915050565b600073ffffffffffffffffffffffffffffffffffffffff82169050919050565b60006110b382611088565b9050919050565b6110c3816110a8565b81146110ce57600080fd5b50565b6000813590506110e0816110ba565b92915050565b6000819050919050565b6110f9816110e6565b811461110457600080fd5b50565b600081359050611116816110f0565b92915050565b6000806040838503121561113357611132610fc8565b5b6000611141858286016110d1565b925050602061115285828601611107565b9150509250929050565b6000819050919050565b61116f8161115c565b811461117a57600080fd5b50565b60008135905061118c81611166565b92915050565b6000602082840312156111a8576111a7610fc8565b5b60006111b68482850161117d565b91505092915050565b6111c88161115c565b82525050565b60006020820190506111e360008301846111bf565b92915050565b60008060408385031215611200576111ff610fc8565b5b600061120e8582860161117d565b925050602061121f858286016110d1565b9150509250929050565b60006020828403121561123f5761123e610fc8565b5b600061124d848285016110d1565b91505092915050565b61125f816110e6565b82525050565b600060208201905061127a6000830184611256565b92915050565b600061128b82611088565b9050919050565b61129b81611280565b81146112a657600080fd5b50565b6000813590506112b881611292565b92915050565b6000602082840312156112d4576112d3610fc8565b5b60006112e2848285016112a9565b91505092915050565b7f4e487b7100000000000000000000000000000000000000000000000000000000600052602160045260246000fd5b6002811061132b5761132a6112eb565b5b50565b600081905061133c8261131a565b919050565b600061134c8261132e565b9050919050565b61135c81611341565b82525050565b60006020820190506113776000830184611353565b92915050565b7f4e487b7100000000000000000000000000000000000000000000000000000000600052601160045260246000fd5b60006113b7826110e6565b91506113c2836110e6565b9250828210156113d5576113d461137d565b5b828203905092915050565b600082825260208201905092915050565b7f416363657373436f6e74726f6c3a2063616e206f6e6c792072656e6f756e636560008201527f20726f6c657320666f722073656c660000000000000000000000000000000000602082015250565b600061144d602f836113e0565b9150611458826113f1565b604082019050919050565b6000602082019050818103600083015261147c81611440565b9050919050565b600081905092915050565b50565b600061149e600083611483565b91506114a98261148e565b600082019050919050565b60006114bf82611491565b9150819050919050565b7f4574686572207472616e73666572206661696c65642e00000000000000000000600082015250565b60006114ff6016836113e0565b915061150a826114c9565b602082019050919050565b6000602082019050818103600083015261152e816114f2565b9050919050565b6000611540826110e6565b915061154b836110e6565b9250827fffffffffffffffffffffffffffffffffffffffffffffffffffffffffffffffff038211156115805761157f61137d565b5b828201905092915050565b600081905092915050565b7f416363657373436f6e74726f6c3a206163636f756e7420000000000000000000600082015250565b60006115cc60178361158b565b91506115d782611596565b601782019050919050565b600081519050919050565b60005b8381101561160b5780820151818401526020810190506115f0565b8381111561161a576000848401525b50505050565b600061162b826115e2565b611635818561158b565b93506116458185602086016115ed565b80840191505092915050565b7f206973206d697373696e6720726f6c6520000000000000000000000000000000600082015250565b600061168760118361158b565b915061169282611651565b601182019050919050565b60006116a8826115bf565b91506116b48285611620565b91506116bf8261167a565b91506116cb8284611620565b91508190509392505050565b6000601f19601f8301169050919050565b60006116f3826115e2565b6116fd81856113e0565b935061170d8185602086016115ed565b611716816116d7565b840191505092915050565b6000602082019050818103600083015261173b81846116e8565b905092915050565b600061174e826110e6565b9150611759836110e6565b9250817fffffffffffffffffffffffffffffffffffffffffffffffffffffffffffffffff04831182151516156117925761179161137d565b5b828202905092915050565b7f4e487b7100000000000000000000000000000000000000000000000000000000600052604160045260246000fd5b7f4e487b7100000000000000000000000000000000000000000000000000000000600052603260045260246000fd5b6000611806826110e6565b9150600082141561181a5761181961137d565b5b600182039050919050565b7f537472696e67733a20686578206c656e67746820696e73756666696369656e74600082015250565b600061185b6020836113e0565b915061186682611825565b602082019050919050565b6000602082019050818103600083015261188a8161184e565b905091905056fea264697066735822122091ef2b44ad607636ee74b45849e92cf34e87c0da9d4119d41306a99dd35497cf64736f6c63430008090033",
  "linkReferences": {},
  "deployedLinkReferences": {}
}