{
  "_format": "hh-sol-artifact-1",
  "contractName": "MoonlightFactory",
  "sourceName": "contracts/MoonlightFactory.sol",
  "abi": [
    {
      "inputs": [],
      "stateMutability": "nonpayable",
      "type": "constructor"
    },
    {
      "anonymous": false,
      "inputs": [
        {
          "indexed": true,
          "internalType": "address",
          "name": "previousOwner",
          "type": "address"
        },
        {
          "indexed": true,
          "internalType": "address",
          "name": "newOwner",
          "type": "address"
        }
      ],
      "name": "OwnershipTransferred",
      "type": "event"
    },
    {
      "inputs": [
        {
          "internalType": "address",
          "name": "",
          "type": "address"
        }
      ],
      "name": "crowdsaleToToken",
      "outputs": [
        {
          "internalType": "contract NFTToken",
          "name": "",
          "type": "address"
        }
      ],
      "stateMutability": "view",
      "type": "function"
    },
    {
      "inputs": [
        {
          "internalType": "address payable",
          "name": "crowdsale",
          "type": "address"
        },
        {
          "internalType": "string",
          "name": "name",
          "type": "string"
        },
        {
          "internalType": "string",
          "name": "symbol",
          "type": "string"
        },
        {
          "internalType": "uint256",
          "name": "_openingTime",
          "type": "uint256"
        },
        {
          "internalType": "uint256",
          "name": "_closingTime",
          "type": "uint256"
        }
      ],
      "name": "migration",
      "outputs": [],
      "stateMutability": "nonpayable",
      "type": "function"
    },
    {
      "inputs": [],
      "name": "owner",
      "outputs": [
        {
          "internalType": "address",
          "name": "",
          "type": "address"
        }
      ],
      "stateMutability": "view",
      "type": "function"
    },
    {
      "inputs": [],
      "name": "renounceOwnership",
      "outputs": [],
      "stateMutability": "nonpayable",
      "type": "function"
    },
    {
      "inputs": [
        {
          "internalType": "uint256",
          "name": "_rate",
          "type": "uint256"
        },
        {
          "internalType": "address payable",
          "name": "_wallet",
          "type": "address"
        },
        {
          "internalType": "string",
          "name": "name",
          "type": "string"
        },
        {
          "internalType": "string",
          "name": "symbol",
          "type": "string"
        },
        {
          "internalType": "uint256",
          "name": "_openingTime",
          "type": "uint256"
        },
        {
          "internalType": "uint256",
          "name": "_closingTime",
          "type": "uint256"
        }
      ],
      "name": "startMoonlightCrowdsale",
      "outputs": [],
      "stateMutability": "nonpayable",
      "type": "function"
    },
    {
      "inputs": [
        {
          "internalType": "address",
          "name": "newOwner",
          "type": "address"
        }
      ],
      "name": "transferOwnership",
      "outputs": [],
      "stateMutability": "nonpayable",
      "type": "function"
    }
  ],
  "bytecode": "0x608060405234801561001057600080fd5b5061002d61002261003260201b60201c565b61003a60201b60201c565b6100fe565b600033905090565b60008060009054906101000a900473ffffffffffffffffffffffffffffffffffffffff169050816000806101000a81548173ffffffffffffffffffffffffffffffffffffffff021916908373ffffffffffffffffffffffffffffffffffffffff1602179055508173ffffffffffffffffffffffffffffffffffffffff168173ffffffffffffffffffffffffffffffffffffffff167f8be0079c531659141344cd1fd0a4f28419497f9722a3daafe3b4186f6b6457e060405160405180910390a35050565b6164e58061010d6000396000f3fe60806040523480156200001157600080fd5b50600436106200006a5760003560e01c8063715018a6146200006f5780637260c4a9146200007b578063866f54fc14620000b15780638da5cb5b14620000d1578063a252155114620000f3578063f2fde38b1462000113575b600080fd5b6200007962000133565b005b62000099600480360381019062000093919062000758565b6200014b565b604051620000a89190620007f5565b60405180910390f35b620000cf6004803603810190620000c99190620009f4565b6200017e565b005b620000db62000366565b604051620000ea919062000adf565b60405180910390f35b6200011160048036038101906200010b919062000afc565b6200038f565b005b6200013160048036038101906200012b919062000758565b620004e7565b005b6200013d62000572565b620001496000620005f7565b565b60026020528060005260406000206000915054906101000a900473ffffffffffffffffffffffffffffffffffffffff1681565b6200018862000572565b600084846040516200019a90620006c3565b620001a792919062000c55565b604051809103906000f080158015620001c4573d6000803e3d6000fd5b50905060008787838686604051620001dc90620006d1565b620001ec95949392919062000cb2565b604051809103906000f08015801562000209573d6000803e3d6000fd5b5090508173ffffffffffffffffffffffffffffffffffffffff1663d500d44f826040518263ffffffff1660e01b815260040162000247919062000adf565b600060405180830381600087803b1580156200026257600080fd5b505af115801562000277573d6000803e3d6000fd5b505050506001819080600181540180825580915050600190039060005260206000200160009091909190916101000a81548173ffffffffffffffffffffffffffffffffffffffff021916908373ffffffffffffffffffffffffffffffffffffffff16021790555081600260008373ffffffffffffffffffffffffffffffffffffffff1673ffffffffffffffffffffffffffffffffffffffff16815260200190815260200160002060006101000a81548173ffffffffffffffffffffffffffffffffffffffff021916908373ffffffffffffffffffffffffffffffffffffffff1602179055505050505050505050565b60008060009054906101000a900473ffffffffffffffffffffffffffffffffffffffff16905090565b6200039962000572565b6000600260008773ffffffffffffffffffffffffffffffffffffffff1673ffffffffffffffffffffffffffffffffffffffff16815260200190815260200160002060009054906101000a900473ffffffffffffffffffffffffffffffffffffffff1690508073ffffffffffffffffffffffffffffffffffffffff166342e6b46c86866040518363ffffffff1660e01b81526004016200043a92919062000c55565b600060405180830381600087803b1580156200045557600080fd5b505af11580156200046a573d6000803e3d6000fd5b505050508573ffffffffffffffffffffffffffffffffffffffff1663a4bf26b684846040518363ffffffff1660e01b8152600401620004ab92919062000d0f565b600060405180830381600087803b158015620004c657600080fd5b505af1158015620004db573d6000803e3d6000fd5b50505050505050505050565b620004f162000572565b600073ffffffffffffffffffffffffffffffffffffffff168173ffffffffffffffffffffffffffffffffffffffff16141562000564576040517f08c379a00000000000000000000000000000000000000000000000000000000081526004016200055b9062000db2565b60405180910390fd5b6200056f81620005f7565b50565b6200057c620006bb565b73ffffffffffffffffffffffffffffffffffffffff166200059c62000366565b73ffffffffffffffffffffffffffffffffffffffff1614620005f5576040517f08c379a0000000000000000000000000000000000000000000000000000000008152600401620005ec9062000e24565b60405180910390fd5b565b60008060009054906101000a900473ffffffffffffffffffffffffffffffffffffffff169050816000806101000a81548173ffffffffffffffffffffffffffffffffffffffff021916908373ffffffffffffffffffffffffffffffffffffffff1602179055508173ffffffffffffffffffffffffffffffffffffffff168173ffffffffffffffffffffffffffffffffffffffff167f8be0079c531659141344cd1fd0a4f28419497f9722a3daafe3b4186f6b6457e060405160405180910390a35050565b600033905090565b612a0e8062000e4783390190565b612c5b806200385583390190565b6000604051905090565b600080fd5b600080fd5b600073ffffffffffffffffffffffffffffffffffffffff82169050919050565b60006200072082620006f3565b9050919050565b620007328162000713565b81146200073e57600080fd5b50565b600081359050620007528162000727565b92915050565b600060208284031215620007715762000770620006e9565b5b6000620007818482850162000741565b91505092915050565b6000819050919050565b6000620007b5620007af620007a984620006f3565b6200078a565b620006f3565b9050919050565b6000620007c98262000794565b9050919050565b6000620007dd82620007bc565b9050919050565b620007ef81620007d0565b82525050565b60006020820190506200080c6000830184620007e4565b92915050565b6000819050919050565b620008278162000812565b81146200083357600080fd5b50565b60008135905062000847816200081c565b92915050565b60006200085a82620006f3565b9050919050565b6200086c816200084d565b81146200087857600080fd5b50565b6000813590506200088c8162000861565b92915050565b600080fd5b600080fd5b6000601f19601f8301169050919050565b7f4e487b7100000000000000000000000000000000000000000000000000000000600052604160045260246000fd5b620008e7826200089c565b810181811067ffffffffffffffff82111715620009095762000908620008ad565b5b80604052505050565b60006200091e620006df565b90506200092c8282620008dc565b919050565b600067ffffffffffffffff8211156200094f576200094e620008ad565b5b6200095a826200089c565b9050602081019050919050565b82818337600083830152505050565b60006200098d620009878462000931565b62000912565b905082815260208101848484011115620009ac57620009ab62000897565b5b620009b984828562000967565b509392505050565b600082601f830112620009d957620009d862000892565b5b8135620009eb84826020860162000976565b91505092915050565b60008060008060008060c0878903121562000a145762000a13620006e9565b5b600062000a2489828a0162000836565b965050602062000a3789828a016200087b565b955050604087013567ffffffffffffffff81111562000a5b5762000a5a620006ee565b5b62000a6989828a01620009c1565b945050606087013567ffffffffffffffff81111562000a8d5762000a8c620006ee565b5b62000a9b89828a01620009c1565b935050608062000aae89828a0162000836565b92505060a062000ac189828a0162000836565b9150509295509295509295565b62000ad98162000713565b82525050565b600060208201905062000af6600083018462000ace565b92915050565b600080600080600060a0868803121562000b1b5762000b1a620006e9565b5b600062000b2b888289016200087b565b955050602086013567ffffffffffffffff81111562000b4f5762000b4e620006ee565b5b62000b5d88828901620009c1565b945050604086013567ffffffffffffffff81111562000b815762000b80620006ee565b5b62000b8f88828901620009c1565b935050606062000ba28882890162000836565b925050608062000bb58882890162000836565b9150509295509295909350565b600081519050919050565b600082825260208201905092915050565b60005b8381101562000bfe57808201518184015260208101905062000be1565b8381111562000c0e576000848401525b50505050565b600062000c218262000bc2565b62000c2d818562000bcd565b935062000c3f81856020860162000bde565b62000c4a816200089c565b840191505092915050565b6000604082019050818103600083015262000c71818562000c14565b9050818103602083015262000c87818462000c14565b90509392505050565b62000c9b8162000812565b82525050565b62000cac816200084d565b82525050565b600060a08201905062000cc9600083018862000c90565b62000cd8602083018762000ca1565b62000ce76040830186620007e4565b62000cf6606083018562000c90565b62000d05608083018462000c90565b9695505050505050565b600060408201905062000d26600083018562000c90565b62000d35602083018462000c90565b9392505050565b7f4f776e61626c653a206e6577206f776e657220697320746865207a65726f206160008201527f6464726573730000000000000000000000000000000000000000000000000000602082015250565b600062000d9a60268362000bcd565b915062000da78262000d3c565b604082019050919050565b6000602082019050818103600083015262000dcd8162000d8b565b9050919050565b7f4f776e61626c653a2063616c6c6572206973206e6f7420746865206f776e6572600082015250565b600062000e0c60208362000bcd565b915062000e198262000dd4565b602082019050919050565b6000602082019050818103600083015262000e3f8162000dfd565b905091905056fe60806040523480156200001157600080fd5b5060405162002a0e38038062002a0e8339818101604052810190620000379190620004a0565b818181600390805190602001906200005192919062000253565b5080600490805190602001906200006a92919062000253565b50505081600690805190602001906200008592919062000253565b5080600790805190602001906200009e92919062000253565b50620000b46000801b33620000ee60201b60201c565b620000e67f9f2df0fed2c77648de5860a4cc508cd0818c85b8b8a1ab4ceeef8d981c8956a633620000ee60201b60201c565b50506200058a565b620001008282620001e060201b60201c565b620001dc5760016005600084815260200190815260200160002060000160008373ffffffffffffffffffffffffffffffffffffffff1673ffffffffffffffffffffffffffffffffffffffff16815260200190815260200160002060006101000a81548160ff021916908315150217905550620001816200024b60201b60201c565b73ffffffffffffffffffffffffffffffffffffffff168173ffffffffffffffffffffffffffffffffffffffff16837f2f8788117e7eff1d82e926ec794901d17c78024a50270940304540a733656f0d60405160405180910390a45b5050565b60006005600084815260200190815260200160002060000160008373ffffffffffffffffffffffffffffffffffffffff1673ffffffffffffffffffffffffffffffffffffffff16815260200190815260200160002060009054906101000a900460ff16905092915050565b600033905090565b828054620002619062000554565b90600052602060002090601f016020900481019282620002855760008555620002d1565b82601f10620002a057805160ff1916838001178555620002d1565b82800160010185558215620002d1579182015b82811115620002d0578251825591602001919060010190620002b3565b5b509050620002e09190620002e4565b5090565b5b80821115620002ff576000816000905550600101620002e5565b5090565b6000604051905090565b600080fd5b600080fd5b600080fd5b600080fd5b6000601f19601f8301169050919050565b7f4e487b7100000000000000000000000000000000000000000000000000000000600052604160045260246000fd5b6200036c8262000321565b810181811067ffffffffffffffff821117156200038e576200038d62000332565b5b80604052505050565b6000620003a362000303565b9050620003b1828262000361565b919050565b600067ffffffffffffffff821115620003d457620003d362000332565b5b620003df8262000321565b9050602081019050919050565b60005b838110156200040c578082015181840152602081019050620003ef565b838111156200041c576000848401525b50505050565b6000620004396200043384620003b6565b62000397565b9050828152602081018484840111156200045857620004576200031c565b5b62000465848285620003ec565b509392505050565b600082601f83011262000485576200048462000317565b5b81516200049784826020860162000422565b91505092915050565b60008060408385031215620004ba57620004b96200030d565b5b600083015167ffffffffffffffff811115620004db57620004da62000312565b5b620004e9858286016200046d565b925050602083015167ffffffffffffffff8111156200050d576200050c62000312565b5b6200051b858286016200046d565b9150509250929050565b7f4e487b7100000000000000000000000000000000000000000000000000000000600052602260045260246000fd5b600060028204905060018216806200056d57607f821691505b6020821081141562000584576200058362000525565b5b50919050565b612474806200059a6000396000f3fe608060405234801561001057600080fd5b50600436106101425760003560e01c806342e6b46c116100b8578063a457c2d71161007c578063a457c2d71461039d578063a9059cbb146103cd578063d500d44f146103fd578063d539139314610419578063d547741f14610437578063dd62ed3e1461045357610142565b806342e6b46c146102e557806370a082311461030157806391d148541461033157806395d89b4114610361578063a217fddf1461037f57610142565b8063248a9ca31161010a578063248a9ca3146102135780632f2ff15d14610243578063313ce5671461025f57806336568abe1461027d578063395093511461029957806340c10f19146102c957610142565b806301ffc9a71461014757806306fdde0314610177578063095ea7b31461019557806318160ddd146101c557806323b872dd146101e3575b600080fd5b610161600480360381019061015c91906116c8565b610483565b60405161016e9190611710565b60405180910390f35b61017f6104fd565b60405161018c91906117c4565b60405180910390f35b6101af60048036038101906101aa919061187a565b61058f565b6040516101bc9190611710565b60405180910390f35b6101cd6105b2565b6040516101da91906118c9565b60405180910390f35b6101fd60048036038101906101f891906118e4565b6105bc565b60405161020a9190611710565b60405180910390f35b61022d6004803603810190610228919061196d565b6105eb565b60405161023a91906119a9565b60405180910390f35b61025d600480360381019061025891906119c4565b61060b565b005b61026761062c565b6040516102749190611a20565b60405180910390f35b610297600480360381019061029291906119c4565b610635565b005b6102b360048036038101906102ae919061187a565b6106b8565b6040516102c09190611710565b60405180910390f35b6102e360048036038101906102de919061187a565b6106ef565b005b6102ff60048036038101906102fa9190611b70565b610728565b005b61031b60048036038101906103169190611be8565b610768565b60405161032891906118c9565b60405180910390f35b61034b600480360381019061034691906119c4565b6107b0565b6040516103589190611710565b60405180910390f35b61036961081b565b60405161037691906117c4565b60405180910390f35b6103876108ad565b60405161039491906119a9565b60405180910390f35b6103b760048036038101906103b2919061187a565b6108b4565b6040516103c49190611710565b60405180910390f35b6103e760048036038101906103e2919061187a565b61092b565b6040516103f49190611710565b60405180910390f35b61041760048036038101906104129190611be8565b61094e565b005b610421610989565b60405161042e91906119a9565b60405180910390f35b610451600480360381019061044c91906119c4565b6109ad565b005b61046d60048036038101906104689190611c15565b6109ce565b60405161047a91906118c9565b60405180910390f35b60007f7965db0b000000000000000000000000000000000000000000000000000000007bffffffffffffffffffffffffffffffffffffffffffffffffffffffff1916827bffffffffffffffffffffffffffffffffffffffffffffffffffffffff191614806104f657506104f582610a55565b5b9050919050565b60606006805461050c90611c84565b80601f016020809104026020016040519081016040528092919081815260200182805461053890611c84565b80156105855780601f1061055a57610100808354040283529160200191610585565b820191906000526020600020905b81548152906001019060200180831161056857829003601f168201915b5050505050905090565b60008061059a610abf565b90506105a7818585610ac7565b600191505092915050565b6000600254905090565b6000806105c7610abf565b90506105d4858285610c92565b6105df858585610d1e565b60019150509392505050565b600060056000838152602001908152602001600020600101549050919050565b610614826105eb565b61061d81610f9f565b6106278383610fb3565b505050565b60006012905090565b61063d610abf565b73ffffffffffffffffffffffffffffffffffffffff168173ffffffffffffffffffffffffffffffffffffffff16146106aa576040517f08c379a00000000000000000000000000000000000000000000000000000000081526004016106a190611d28565b60405180910390fd5b6106b48282611094565b5050565b6000806106c3610abf565b90506106e48185856106d585896109ce565b6106df9190611d77565b610ac7565b600191505092915050565b7f9f2df0fed2c77648de5860a4cc508cd0818c85b8b8a1ab4ceeef8d981c8956a661071981610f9f565b6107238383611176565b505050565b6000801b61073581610f9f565b826006908051906020019061074b9291906115b9565b5081600790805190602001906107629291906115b9565b50505050565b60008060008373ffffffffffffffffffffffffffffffffffffffff1673ffffffffffffffffffffffffffffffffffffffff168152602001908152602001600020549050919050565b60006005600084815260200190815260200160002060000160008373ffffffffffffffffffffffffffffffffffffffff1673ffffffffffffffffffffffffffffffffffffffff16815260200190815260200160002060009054906101000a900460ff16905092915050565b60606007805461082a90611c84565b80601f016020809104026020016040519081016040528092919081815260200182805461085690611c84565b80156108a35780601f10610878576101008083540402835291602001916108a3565b820191906000526020600020905b81548152906001019060200180831161088657829003601f168201915b5050505050905090565b6000801b81565b6000806108bf610abf565b905060006108cd82866109ce565b905083811015610912576040517f08c379a000000000000000000000000000000000000000000000000000000000815260040161090990611e3f565b60405180910390fd5b61091f8286868403610ac7565b60019250505092915050565b600080610936610abf565b9050610943818585610d1e565b600191505092915050565b6000801b61095b81610f9f565b6109857f9f2df0fed2c77648de5860a4cc508cd0818c85b8b8a1ab4ceeef8d981c8956a683610fb3565b5050565b7f9f2df0fed2c77648de5860a4cc508cd0818c85b8b8a1ab4ceeef8d981c8956a681565b6109b6826105eb565b6109bf81610f9f565b6109c98383611094565b505050565b6000600160008473ffffffffffffffffffffffffffffffffffffffff1673ffffffffffffffffffffffffffffffffffffffff16815260200190815260200160002060008373ffffffffffffffffffffffffffffffffffffffff1673ffffffffffffffffffffffffffffffffffffffff16815260200190815260200160002054905092915050565b60007f01ffc9a7000000000000000000000000000000000000000000000000000000007bffffffffffffffffffffffffffffffffffffffffffffffffffffffff1916827bffffffffffffffffffffffffffffffffffffffffffffffffffffffff1916149050919050565b600033905090565b600073ffffffffffffffffffffffffffffffffffffffff168373ffffffffffffffffffffffffffffffffffffffff161415610b37576040517f08c379a0000000000000000000000000000000000000000000000000000000008152600401610b2e90611ed1565b60405180910390fd5b600073ffffffffffffffffffffffffffffffffffffffff168273ffffffffffffffffffffffffffffffffffffffff161415610ba7576040517f08c379a0000000000000000000000000000000000000000000000000000000008152600401610b9e90611f63565b60405180910390fd5b80600160008573ffffffffffffffffffffffffffffffffffffffff1673ffffffffffffffffffffffffffffffffffffffff16815260200190815260200160002060008473ffffffffffffffffffffffffffffffffffffffff1673ffffffffffffffffffffffffffffffffffffffff168152602001908152602001600020819055508173ffffffffffffffffffffffffffffffffffffffff168373ffffffffffffffffffffffffffffffffffffffff167f8c5be1e5ebec7d5bd14f71427d1e84f3dd0314c0f7b2291e5b200ac8c7c3b92583604051610c8591906118c9565b60405180910390a3505050565b6000610c9e84846109ce565b90507fffffffffffffffffffffffffffffffffffffffffffffffffffffffffffffffff8114610d185781811015610d0a576040517f08c379a0000000000000000000000000000000000000000000000000000000008152600401610d0190611fcf565b60405180910390fd5b610d178484848403610ac7565b5b50505050565b600073ffffffffffffffffffffffffffffffffffffffff168373ffffffffffffffffffffffffffffffffffffffff161415610d8e576040517f08c379a0000000000000000000000000000000000000000000000000000000008152600401610d8590612061565b60405180910390fd5b600073ffffffffffffffffffffffffffffffffffffffff168273ffffffffffffffffffffffffffffffffffffffff161415610dfe576040517f08c379a0000000000000000000000000000000000000000000000000000000008152600401610df5906120f3565b60405180910390fd5b610e098383836112d6565b60008060008573ffffffffffffffffffffffffffffffffffffffff1673ffffffffffffffffffffffffffffffffffffffff16815260200190815260200160002054905081811015610e8f576040517f08c379a0000000000000000000000000000000000000000000000000000000008152600401610e8690612185565b60405180910390fd5b8181036000808673ffffffffffffffffffffffffffffffffffffffff1673ffffffffffffffffffffffffffffffffffffffff16815260200190815260200160002081905550816000808573ffffffffffffffffffffffffffffffffffffffff1673ffffffffffffffffffffffffffffffffffffffff1681526020019081526020016000206000828254610f229190611d77565b925050819055508273ffffffffffffffffffffffffffffffffffffffff168473ffffffffffffffffffffffffffffffffffffffff167fddf252ad1be2c89b69c2b068fc378daa952ba7f163c4a11628f55a4df523b3ef84604051610f8691906118c9565b60405180910390a3610f998484846112db565b50505050565b610fb081610fab610abf565b6112e0565b50565b610fbd82826107b0565b6110905760016005600084815260200190815260200160002060000160008373ffffffffffffffffffffffffffffffffffffffff1673ffffffffffffffffffffffffffffffffffffffff16815260200190815260200160002060006101000a81548160ff021916908315150217905550611035610abf565b73ffffffffffffffffffffffffffffffffffffffff168173ffffffffffffffffffffffffffffffffffffffff16837f2f8788117e7eff1d82e926ec794901d17c78024a50270940304540a733656f0d60405160405180910390a45b5050565b61109e82826107b0565b156111725760006005600084815260200190815260200160002060000160008373ffffffffffffffffffffffffffffffffffffffff1673ffffffffffffffffffffffffffffffffffffffff16815260200190815260200160002060006101000a81548160ff021916908315150217905550611117610abf565b73ffffffffffffffffffffffffffffffffffffffff168173ffffffffffffffffffffffffffffffffffffffff16837ff6391f5c32d9c69d2a47ea670b442974b53935d1edc7fd64eb21e047a839171b60405160405180910390a45b5050565b600073ffffffffffffffffffffffffffffffffffffffff168273ffffffffffffffffffffffffffffffffffffffff1614156111e6576040517f08c379a00000000000000000000000000000000000000000000000000000000081526004016111dd906121f1565b60405180910390fd5b6111f2600083836112d6565b80600260008282546112049190611d77565b92505081905550806000808473ffffffffffffffffffffffffffffffffffffffff1673ffffffffffffffffffffffffffffffffffffffff16815260200190815260200160002060008282546112599190611d77565b925050819055508173ffffffffffffffffffffffffffffffffffffffff16600073ffffffffffffffffffffffffffffffffffffffff167fddf252ad1be2c89b69c2b068fc378daa952ba7f163c4a11628f55a4df523b3ef836040516112be91906118c9565b60405180910390a36112d2600083836112db565b5050565b505050565b505050565b6112ea82826107b0565b6113795761130f8173ffffffffffffffffffffffffffffffffffffffff16601461137d565b61131d8360001c602061137d565b60405160200161132e9291906122e5565b6040516020818303038152906040526040517f08c379a000000000000000000000000000000000000000000000000000000000815260040161137091906117c4565b60405180910390fd5b5050565b606060006002836002611390919061231f565b61139a9190611d77565b67ffffffffffffffff8111156113b3576113b2611a45565b5b6040519080825280601f01601f1916602001820160405280156113e55781602001600182028036833780820191505090505b5090507f30000000000000000000000000000000000000000000000000000000000000008160008151811061141d5761141c612379565b5b60200101907effffffffffffffffffffffffffffffffffffffffffffffffffffffffffffff1916908160001a9053507f78000000000000000000000000000000000000000000000000000000000000008160018151811061148157611480612379565b5b60200101907effffffffffffffffffffffffffffffffffffffffffffffffffffffffffffff1916908160001a905350600060018460026114c1919061231f565b6114cb9190611d77565b90505b600181111561156b577f3031323334353637383961626364656600000000000000000000000000000000600f86166010811061150d5761150c612379565b5b1a60f81b82828151811061152457611523612379565b5b60200101907effffffffffffffffffffffffffffffffffffffffffffffffffffffffffffff1916908160001a905350600485901c945080611564906123a8565b90506114ce565b50600084146115af576040517f08c379a00000000000000000000000000000000000000000000000000000000081526004016115a69061241e565b60405180910390fd5b8091505092915050565b8280546115c590611c84565b90600052602060002090601f0160209004810192826115e7576000855561162e565b82601f1061160057805160ff191683800117855561162e565b8280016001018555821561162e579182015b8281111561162d578251825591602001919060010190611612565b5b50905061163b919061163f565b5090565b5b80821115611658576000816000905550600101611640565b5090565b6000604051905090565b600080fd5b600080fd5b60007fffffffff0000000000000000000000000000000000000000000000000000000082169050919050565b6116a581611670565b81146116b057600080fd5b50565b6000813590506116c28161169c565b92915050565b6000602082840312156116de576116dd611666565b5b60006116ec848285016116b3565b91505092915050565b60008115159050919050565b61170a816116f5565b82525050565b60006020820190506117256000830184611701565b92915050565b600081519050919050565b600082825260208201905092915050565b60005b8381101561176557808201518184015260208101905061174a565b83811115611774576000848401525b50505050565b6000601f19601f8301169050919050565b60006117968261172b565b6117a08185611736565b93506117b0818560208601611747565b6117b98161177a565b840191505092915050565b600060208201905081810360008301526117de818461178b565b905092915050565b600073ffffffffffffffffffffffffffffffffffffffff82169050919050565b6000611811826117e6565b9050919050565b61182181611806565b811461182c57600080fd5b50565b60008135905061183e81611818565b92915050565b6000819050919050565b61185781611844565b811461186257600080fd5b50565b6000813590506118748161184e565b92915050565b6000806040838503121561189157611890611666565b5b600061189f8582860161182f565b92505060206118b085828601611865565b9150509250929050565b6118c381611844565b82525050565b60006020820190506118de60008301846118ba565b92915050565b6000806000606084860312156118fd576118fc611666565b5b600061190b8682870161182f565b935050602061191c8682870161182f565b925050604061192d86828701611865565b9150509250925092565b6000819050919050565b61194a81611937565b811461195557600080fd5b50565b60008135905061196781611941565b92915050565b60006020828403121561198357611982611666565b5b600061199184828501611958565b91505092915050565b6119a381611937565b82525050565b60006020820190506119be600083018461199a565b92915050565b600080604083850312156119db576119da611666565b5b60006119e985828601611958565b92505060206119fa8582860161182f565b9150509250929050565b600060ff82169050919050565b611a1a81611a04565b82525050565b6000602082019050611a356000830184611a11565b92915050565b600080fd5b600080fd5b7f4e487b7100000000000000000000000000000000000000000000000000000000600052604160045260246000fd5b611a7d8261177a565b810181811067ffffffffffffffff82111715611a9c57611a9b611a45565b5b80604052505050565b6000611aaf61165c565b9050611abb8282611a74565b919050565b600067ffffffffffffffff821115611adb57611ada611a45565b5b611ae48261177a565b9050602081019050919050565b82818337600083830152505050565b6000611b13611b0e84611ac0565b611aa5565b905082815260208101848484011115611b2f57611b2e611a40565b5b611b3a848285611af1565b509392505050565b600082601f830112611b5757611b56611a3b565b5b8135611b67848260208601611b00565b91505092915050565b60008060408385031215611b8757611b86611666565b5b600083013567ffffffffffffffff811115611ba557611ba461166b565b5b611bb185828601611b42565b925050602083013567ffffffffffffffff811115611bd257611bd161166b565b5b611bde85828601611b42565b9150509250929050565b600060208284031215611bfe57611bfd611666565b5b6000611c0c8482850161182f565b91505092915050565b60008060408385031215611c2c57611c2b611666565b5b6000611c3a8582860161182f565b9250506020611c4b8582860161182f565b9150509250929050565b7f4e487b7100000000000000000000000000000000000000000000000000000000600052602260045260246000fd5b60006002820490506001821680611c9c57607f821691505b60208210811415611cb057611caf611c55565b5b50919050565b7f416363657373436f6e74726f6c3a2063616e206f6e6c792072656e6f756e636560008201527f20726f6c657320666f722073656c660000000000000000000000000000000000602082015250565b6000611d12602f83611736565b9150611d1d82611cb6565b604082019050919050565b60006020820190508181036000830152611d4181611d05565b9050919050565b7f4e487b7100000000000000000000000000000000000000000000000000000000600052601160045260246000fd5b6000611d8282611844565b9150611d8d83611844565b9250827fffffffffffffffffffffffffffffffffffffffffffffffffffffffffffffffff03821115611dc257611dc1611d48565b5b828201905092915050565b7f45524332303a2064656372656173656420616c6c6f77616e63652062656c6f7760008201527f207a65726f000000000000000000000000000000000000000000000000000000602082015250565b6000611e29602583611736565b9150611e3482611dcd565b604082019050919050565b60006020820190508181036000830152611e5881611e1c565b9050919050565b7f45524332303a20617070726f76652066726f6d20746865207a65726f2061646460008201527f7265737300000000000000000000000000000000000000000000000000000000602082015250565b6000611ebb602483611736565b9150611ec682611e5f565b604082019050919050565b60006020820190508181036000830152611eea81611eae565b9050919050565b7f45524332303a20617070726f766520746f20746865207a65726f20616464726560008201527f7373000000000000000000000000000000000000000000000000000000000000602082015250565b6000611f4d602283611736565b9150611f5882611ef1565b604082019050919050565b60006020820190508181036000830152611f7c81611f40565b9050919050565b7f45524332303a20696e73756666696369656e7420616c6c6f77616e6365000000600082015250565b6000611fb9601d83611736565b9150611fc482611f83565b602082019050919050565b60006020820190508181036000830152611fe881611fac565b9050919050565b7f45524332303a207472616e736665722066726f6d20746865207a65726f20616460008201527f6472657373000000000000000000000000000000000000000000000000000000602082015250565b600061204b602583611736565b915061205682611fef565b604082019050919050565b6000602082019050818103600083015261207a8161203e565b9050919050565b7f45524332303a207472616e7366657220746f20746865207a65726f206164647260008201527f6573730000000000000000000000000000000000000000000000000000000000602082015250565b60006120dd602383611736565b91506120e882612081565b604082019050919050565b6000602082019050818103600083015261210c816120d0565b9050919050565b7f45524332303a207472616e7366657220616d6f756e742065786365656473206260008201527f616c616e63650000000000000000000000000000000000000000000000000000602082015250565b600061216f602683611736565b915061217a82612113565b604082019050919050565b6000602082019050818103600083015261219e81612162565b9050919050565b7f45524332303a206d696e7420746f20746865207a65726f206164647265737300600082015250565b60006121db601f83611736565b91506121e6826121a5565b602082019050919050565b6000602082019050818103600083015261220a816121ce565b9050919050565b600081905092915050565b7f416363657373436f6e74726f6c3a206163636f756e7420000000000000000000600082015250565b6000612252601783612211565b915061225d8261221c565b601782019050919050565b60006122738261172b565b61227d8185612211565b935061228d818560208601611747565b80840191505092915050565b7f206973206d697373696e6720726f6c6520000000000000000000000000000000600082015250565b60006122cf601183612211565b91506122da82612299565b601182019050919050565b60006122f082612245565b91506122fc8285612268565b9150612307826122c2565b91506123138284612268565b91508190509392505050565b600061232a82611844565b915061233583611844565b9250817fffffffffffffffffffffffffffffffffffffffffffffffffffffffffffffffff048311821515161561236e5761236d611d48565b5b828202905092915050565b7f4e487b7100000000000000000000000000000000000000000000000000000000600052603260045260246000fd5b60006123b382611844565b915060008214156123c7576123c6611d48565b5b600182039050919050565b7f537472696e67733a20686578206c656e67746820696e73756666696369656e74600082015250565b6000612408602083611736565b9150612413826123d2565b602082019050919050565b60006020820190508181036000830152612437816123fb565b905091905056fea26469706673582212208b93b321618a772a3129bf385071bba85a6434961ee5f3f7f4e70f4b651756d464736f6c63430008090033608060405260006009556000600a553480156200001b57600080fd5b5060405162002c5b38038062002c5b833981810160405281019062000041919062000420565b8484848484620000666200005a6200024860201b60201c565b6200025060201b60201c565b600085116200007457600080fd5b600073ffffffffffffffffffffffffffffffffffffffff168473ffffffffffffffffffffffffffffffffffffffff161415620000af57600080fd5b600073ffffffffffffffffffffffffffffffffffffffff168373ffffffffffffffffffffffffffffffffffffffff161415620000ea57600080fd5b42821015620000f857600080fd5b818110156200010657600080fd5b8460038190555083600260006101000a81548173ffffffffffffffffffffffffffffffffffffffff021916908373ffffffffffffffffffffffffffffffffffffffff16021790555082600160006101000a81548173ffffffffffffffffffffffffffffffffffffffff021916908373ffffffffffffffffffffffffffffffffffffffff16021790555081600581905550806006819055505050505050600260009054906101000a900473ffffffffffffffffffffffffffffffffffffffff16604051620001d39062000314565b620001df9190620004b9565b604051809103906000f080158015620001fc573d6000803e3d6000fd5b50600d60006101000a81548173ffffffffffffffffffffffffffffffffffffffff021916908373ffffffffffffffffffffffffffffffffffffffff1602179055505050505050620004d6565b600033905090565b60008060009054906101000a900473ffffffffffffffffffffffffffffffffffffffff169050816000806101000a81548173ffffffffffffffffffffffffffffffffffffffff021916908373ffffffffffffffffffffffffffffffffffffffff1602179055508173ffffffffffffffffffffffffffffffffffffffff168173ffffffffffffffffffffffffffffffffffffffff167f8be0079c531659141344cd1fd0a4f28419497f9722a3daafe3b4186f6b6457e060405160405180910390a35050565b610ebd8062001d9e83390190565b600080fd5b6000819050919050565b6200033c8162000327565b81146200034857600080fd5b50565b6000815190506200035c8162000331565b92915050565b600073ffffffffffffffffffffffffffffffffffffffff82169050919050565b60006200038f8262000362565b9050919050565b620003a18162000382565b8114620003ad57600080fd5b50565b600081519050620003c18162000396565b92915050565b6000620003d48262000362565b9050919050565b6000620003e882620003c7565b9050919050565b620003fa81620003db565b81146200040657600080fd5b50565b6000815190506200041a81620003ef565b92915050565b600080600080600060a086880312156200043f576200043e62000322565b5b60006200044f888289016200034b565b95505060206200046288828901620003b0565b9450506040620004758882890162000409565b935050606062000488888289016200034b565b92505060806200049b888289016200034b565b9150509295509295909350565b620004b38162000382565b82525050565b6000602082019050620004d06000830184620004a8565b92915050565b6118b880620004e66000396000f3fe6080604052600436106101445760003560e01c80638433acd1116100b6578063bbdc90771161006f578063bbdc907714610429578063c97f8d6e14610445578063e1c3fb9114610470578063f2fde38b1461049b578063fbfa77cf146104c4578063fc0c546a146104ef57610156565b80638433acd11461032b5780638da5cb5b1461034257806390a7b13e1461036d578063a4bf26b614610398578063abf1ca17146103c1578063b7a8807c146103fe57610156565b80634b6753bc116101085780634b6753bc1461024c578063521eb27314610277578063590e1ae3146102a2578063715018a6146102ac57806374d00f67146102c35780637a37ac261461030057610156565b80630b98e0d5146101635780631865c57d1461018e5780632c4e722e146101b957806331f36bd9146101e45780634042b66f1461022157610156565b366101565761015433600161051a565b005b61016133600161051a565b005b34801561016f57600080fd5b506101786105e4565b60405161018591906111fc565b60405180910390f35b34801561019a57600080fd5b506101a36105ea565b6040516101b0919061128e565b60405180910390f35b3480156101c557600080fd5b506101ce6106c1565b6040516101db91906111fc565b60405180910390f35b3480156101f057600080fd5b5061020b60048036038101906102069190611338565b6106c7565b60405161021891906111fc565b60405180910390f35b34801561022d57600080fd5b506102366106ec565b60405161024391906111fc565b60405180910390f35b34801561025857600080fd5b506102616106f2565b60405161026e91906111fc565b60405180910390f35b34801561028357600080fd5b5061028c6106f8565b6040516102999190611399565b60405180910390f35b6102aa61071e565b005b3480156102b857600080fd5b506102c16107bf565b005b3480156102cf57600080fd5b506102ea60048036038101906102e591906113b4565b6107d3565b6040516102f791906111fc565b60405180910390f35b34801561030c57600080fd5b506103156107eb565b60405161032291906111fc565b60405180910390f35b34801561033757600080fd5b506103406107f1565b005b34801561034e57600080fd5b5061035761099c565b60405161036491906113f0565b60405180910390f35b34801561037957600080fd5b506103826109c5565b60405161038f91906111fc565b60405180910390f35b3480156103a457600080fd5b506103bf60048036038101906103ba919061140b565b6109ca565b005b3480156103cd57600080fd5b506103e860048036038101906103e391906113b4565b610a1c565b6040516103f59190611466565b60405180910390f35b34801561040a57600080fd5b50610413610ad6565b60405161042091906111fc565b60405180910390f35b610443600480360381019061043e91906114ad565b61051a565b005b34801561045157600080fd5b5061045a610adc565b60405161046791906111fc565b60405180910390f35b34801561047c57600080fd5b50610485610ae2565b6040516104929190611466565b60405180910390f35b3480156104a757600080fd5b506104c260048036038101906104bd91906113b4565b610aee565b005b3480156104d057600080fd5b506104d9610b72565b6040516104e6919061154c565b60405180910390f35b3480156104fb57600080fd5b50610504610b98565b6040516105119190611588565b60405180910390f35b60003490506105298382610bbe565b600061053482610c20565b905061054b82600454610c3e90919063ffffffff16565b60048190555061055c848385610c54565b8373ffffffffffffffffffffffffffffffffffffffff163373ffffffffffffffffffffffffffffffffffffffff167f623b3804fa71d67900d064613da8f94b9617215ee90799290593e1745087ad1884846040516105bb9291906115a3565b60405180910390a36105cb610d3d565b6105d483610eda565b6105de8483610f6d565b50505050565b60095481565b60006002808111156105ff576105fe611217565b5b600760009054906101000a900460ff16600281111561062157610620611217565b5b141561063e57600760009054906101000a900460ff1690506106be565b6106466109c5565b600454101561067f576000600760006101000a81548160ff0219169083600281111561067557610674611217565b5b02179055506106ab565b6001600760006101000a81548160ff021916908360028111156106a5576106a4611217565b5b02179055505b600760009054906101000a900460ff1690505b90565b60035481565b600b602052816000526040600020602052806000526040600020600091509150505481565b60045481565b60065481565b600260009054906101000a900473ffffffffffffffffffffffffffffffffffffffff1681565b61072733610a1c565b61073057600080fd5b600d60009054906101000a900473ffffffffffffffffffffffffffffffffffffffff1673ffffffffffffffffffffffffffffffffffffffff1663fa89401a336040518263ffffffff1660e01b815260040161078b9190611399565b600060405180830381600087803b1580156107a557600080fd5b505af11580156107b9573d6000803e3d6000fd5b50505050565b6107c7610f71565b6107d16000610fef565b565b600c6020528060005260406000206000915090505481565b600a5481565b60028081111561080457610803611217565b5b61080c6105ea565b600281111561081e5761081d611217565b5b1461082857600080fd5b6000600b6000600a54815260200190815260200160002060003373ffffffffffffffffffffffffffffffffffffffff1673ffffffffffffffffffffffffffffffffffffffff168152602001908152602001600020548161088891906115fb565b9050600c60003373ffffffffffffffffffffffffffffffffffffffff1673ffffffffffffffffffffffffffffffffffffffff16815260200190815260200160002054816108d591906115fb565b9050600081116108e457600080fd5b6000600b6000600a54815260200190815260200160002060003373ffffffffffffffffffffffffffffffffffffffff1673ffffffffffffffffffffffffffffffffffffffff168152602001908152602001600020819055506000600c60003373ffffffffffffffffffffffffffffffffffffffff1673ffffffffffffffffffffffffffffffffffffffff16815260200190815260200160002081905550600061098c82610c20565b905061099833826110b3565b5050565b60008060009054906101000a900473ffffffffffffffffffffffffffffffffffffffff16905090565b600090565b6109d2610f71565b81600581905550806006819055506009546004546109f09190611651565b60048190555060006009819055506001600a6000828254610a1191906115fb565b925050819055505050565b600080600b6000600a54815260200190815260200160002060008473ffffffffffffffffffffffffffffffffffffffff1673ffffffffffffffffffffffffffffffffffffffff16815260200190815260200160002054148015610abe57506000600c60008473ffffffffffffffffffffffffffffffffffffffff1673ffffffffffffffffffffffffffffffffffffffff16815260200190815260200160002054145b15610acc5760019050610ad1565b600090505b919050565b60055481565b60085481565b60006006544211905090565b610af6610f71565b600073ffffffffffffffffffffffffffffffffffffffff168173ffffffffffffffffffffffffffffffffffffffff161415610b66576040517f08c379a0000000000000000000000000000000000000000000000000000000008152600401610b5d90611708565b60405180910390fd5b610b6f81610fef565b50565b600d60009054906101000a900473ffffffffffffffffffffffffffffffffffffffff1681565b600160009054906101000a900473ffffffffffffffffffffffffffffffffffffffff1681565b610bc88282611167565b60006002811115610bdc57610bdb611217565b5b610be46105ea565b6002811115610bf657610bf5611217565b5b14610c0057600080fd5b60085481600454610c1191906115fb565b1115610c1c57600080fd5b5050565b6000610c37600354836111c590919063ffffffff16565b9050919050565b60008183610c4c91906115fb565b905092915050565b8015610cc85781600b6000600a54815260200190815260200160002060008573ffffffffffffffffffffffffffffffffffffffff1673ffffffffffffffffffffffffffffffffffffffff1681526020019081526020016000206000828254610cbc91906115fb565b92505081905550610d38565b81600c60008573ffffffffffffffffffffffffffffffffffffffff1673ffffffffffffffffffffffffffffffffffffffff1681526020019081526020016000206000828254610d1791906115fb565b925050819055508160096000828254610d3091906115fb565b925050819055505b505050565b6008546004541415610e9a576000610d56600454610c20565b9050600160009054906101000a900473ffffffffffffffffffffffffffffffffffffffff1673ffffffffffffffffffffffffffffffffffffffff166340c10f1930836040518363ffffffff1660e01b8152600401610db5929190611728565b600060405180830381600087803b158015610dcf57600080fd5b505af1158015610de3573d6000803e3d6000fd5b50505050600d60009054906101000a900473ffffffffffffffffffffffffffffffffffffffff1673ffffffffffffffffffffffffffffffffffffffff166343d726d66040518163ffffffff1660e01b8152600401600060405180830381600087803b158015610e5157600080fd5b505af1158015610e65573d6000803e3d6000fd5b505050506002600760006101000a81548160ff02191690836002811115610e8f57610e8e611217565b5b021790555050610ed8565b610ea26109c5565b6004541115610ed7576001600760006101000a81548160ff02191690836002811115610ed157610ed0611217565b5b02179055505b5b565b600d60009054906101000a900473ffffffffffffffffffffffffffffffffffffffff1673ffffffffffffffffffffffffffffffffffffffff1663adc9740c3433846040518463ffffffff1660e01b8152600401610f38929190611751565b6000604051808303818588803b158015610f5157600080fd5b505af1158015610f65573d6000803e3d6000fd5b505050505050565b5050565b610f796111db565b73ffffffffffffffffffffffffffffffffffffffff16610f9761099c565b73ffffffffffffffffffffffffffffffffffffffff1614610fed576040517f08c379a0000000000000000000000000000000000000000000000000000000008152600401610fe4906117c6565b60405180910390fd5b565b60008060009054906101000a900473ffffffffffffffffffffffffffffffffffffffff169050816000806101000a81548173ffffffffffffffffffffffffffffffffffffffff021916908373ffffffffffffffffffffffffffffffffffffffff1602179055508173ffffffffffffffffffffffffffffffffffffffff168173ffffffffffffffffffffffffffffffffffffffff167f8be0079c531659141344cd1fd0a4f28419497f9722a3daafe3b4186f6b6457e060405160405180910390a35050565b600160009054906101000a900473ffffffffffffffffffffffffffffffffffffffff1673ffffffffffffffffffffffffffffffffffffffff1663a9059cbb83836040518363ffffffff1660e01b8152600401611110929190611728565b602060405180830381600087803b15801561112a57600080fd5b505af115801561113e573d6000803e3d6000fd5b505050506040513d601f19601f8201168201806040525081019061116291906117fb565b505050565b61116f610ae2565b1561117957600080fd5b600073ffffffffffffffffffffffffffffffffffffffff168273ffffffffffffffffffffffffffffffffffffffff1614156111b357600080fd5b60008114156111c157600080fd5b5050565b600081836111d39190611828565b905092915050565b600033905090565b6000819050919050565b6111f6816111e3565b82525050565b600060208201905061121160008301846111ed565b92915050565b7f4e487b7100000000000000000000000000000000000000000000000000000000600052602160045260246000fd5b6003811061125757611256611217565b5b50565b600081905061126882611246565b919050565b60006112788261125a565b9050919050565b6112888161126d565b82525050565b60006020820190506112a3600083018461127f565b92915050565b600080fd5b6112b7816111e3565b81146112c257600080fd5b50565b6000813590506112d4816112ae565b92915050565b600073ffffffffffffffffffffffffffffffffffffffff82169050919050565b6000611305826112da565b9050919050565b611315816112fa565b811461132057600080fd5b50565b6000813590506113328161130c565b92915050565b6000806040838503121561134f5761134e6112a9565b5b600061135d858286016112c5565b925050602061136e85828601611323565b9150509250929050565b6000611383826112da565b9050919050565b61139381611378565b82525050565b60006020820190506113ae600083018461138a565b92915050565b6000602082840312156113ca576113c96112a9565b5b60006113d884828501611323565b91505092915050565b6113ea816112fa565b82525050565b600060208201905061140560008301846113e1565b92915050565b60008060408385031215611422576114216112a9565b5b6000611430858286016112c5565b9250506020611441858286016112c5565b9150509250929050565b60008115159050919050565b6114608161144b565b82525050565b600060208201905061147b6000830184611457565b92915050565b61148a8161144b565b811461149557600080fd5b50565b6000813590506114a781611481565b92915050565b600080604083850312156114c4576114c36112a9565b5b60006114d285828601611323565b92505060206114e385828601611498565b9150509250929050565b6000819050919050565b600061151261150d611508846112da565b6114ed565b6112da565b9050919050565b6000611524826114f7565b9050919050565b600061153682611519565b9050919050565b6115468161152b565b82525050565b6000602082019050611561600083018461153d565b92915050565b600061157282611519565b9050919050565b61158281611567565b82525050565b600060208201905061159d6000830184611579565b92915050565b60006040820190506115b860008301856111ed565b6115c560208301846111ed565b9392505050565b7f4e487b7100000000000000000000000000000000000000000000000000000000600052601160045260246000fd5b6000611606826111e3565b9150611611836111e3565b9250827fffffffffffffffffffffffffffffffffffffffffffffffffffffffffffffffff03821115611646576116456115cc565b5b828201905092915050565b600061165c826111e3565b9150611667836111e3565b92508282101561167a576116796115cc565b5b828203905092915050565b600082825260208201905092915050565b7f4f776e61626c653a206e6577206f776e657220697320746865207a65726f206160008201527f6464726573730000000000000000000000000000000000000000000000000000602082015250565b60006116f2602683611685565b91506116fd82611696565b604082019050919050565b60006020820190508181036000830152611721816116e5565b9050919050565b600060408201905061173d60008301856113e1565b61174a60208301846111ed565b9392505050565b600060408201905061176660008301856113e1565b6117736020830184611457565b9392505050565b7f4f776e61626c653a2063616c6c6572206973206e6f7420746865206f776e6572600082015250565b60006117b0602083611685565b91506117bb8261177a565b602082019050919050565b600060208201905081810360008301526117df816117a3565b9050919050565b6000815190506117f581611481565b92915050565b600060208284031215611811576118106112a9565b5b600061181f848285016117e6565b91505092915050565b6000611833826111e3565b915061183e836111e3565b9250817fffffffffffffffffffffffffffffffffffffffffffffffffffffffffffffffff0483118215151615611877576118766115cc565b5b82820290509291505056fea264697066735822122067af061f1c2711252b206922279e201d1d10c4287bb0f5a5350b39771735944264736f6c6343000809003360806040523480156200001157600080fd5b5060405162000ebd38038062000ebd83398181016040528101906200003791906200023e565b620000576200004b6200010860201b60201c565b6200011060201b60201c565b600073ffffffffffffffffffffffffffffffffffffffff168173ffffffffffffffffffffffffffffffffffffffff1614156200009257600080fd5b80600260006101000a81548173ffffffffffffffffffffffffffffffffffffffff021916908373ffffffffffffffffffffffffffffffffffffffff1602179055506000600260146101000a81548160ff02191690836001811115620000fc57620000fb62000270565b5b0217905550506200029f565b600033905090565b60008060009054906101000a900473ffffffffffffffffffffffffffffffffffffffff169050816000806101000a81548173ffffffffffffffffffffffffffffffffffffffff021916908373ffffffffffffffffffffffffffffffffffffffff1602179055508173ffffffffffffffffffffffffffffffffffffffff168173ffffffffffffffffffffffffffffffffffffffff167f8be0079c531659141344cd1fd0a4f28419497f9722a3daafe3b4186f6b6457e060405160405180910390a35050565b600080fd5b600073ffffffffffffffffffffffffffffffffffffffff82169050919050565b60006200020682620001d9565b9050919050565b6200021881620001f9565b81146200022457600080fd5b50565b60008151905062000238816200020d565b92915050565b600060208284031215620002575762000256620001d4565b5b6000620002678482850162000227565b91505092915050565b7f4e487b7100000000000000000000000000000000000000000000000000000000600052602160045260246000fd5b610c0e80620002af6000396000f3fe6080604052600436106100865760003560e01c80638da5cb5b116100595780638da5cb5b14610121578063adc9740c1461014c578063c19d93fb14610168578063f2fde38b14610193578063fa89401a146101bc57610086565b80633dd2281d1461008b57806343d726d6146100c8578063521eb273146100df578063715018a61461010a575b600080fd5b34801561009757600080fd5b506100b260048036038101906100ad919061081a565b6101e5565b6040516100bf9190610860565b60405180910390f35b3480156100d457600080fd5b506100dd6101fd565b005b3480156100eb57600080fd5b506100f4610307565b604051610101919061089c565b60405180910390f35b34801561011657600080fd5b5061011f61032d565b005b34801561012d57600080fd5b50610136610341565b60405161014391906108c6565b60405180910390f35b61016660048036038101906101619190610919565b61036a565b005b34801561017457600080fd5b5061017d610452565b60405161018a91906109d0565b60405180910390f35b34801561019f57600080fd5b506101ba60048036038101906101b5919061081a565b610465565b005b3480156101c857600080fd5b506101e360048036038101906101de9190610a17565b6104e9565b005b60016020528060005260406000206000915090505481565b610205610657565b6000600181111561021957610218610959565b5b600260149054906101000a900460ff16600181111561023b5761023a610959565b5b1461024557600080fd5b6001600260146101000a81548160ff0219169083600181111561026b5761026a610959565b5b02179055507f1cdde67b72a90f19919ac732a437ac2f7a10fc128d28c2a6e525d89ce5cd9d3a60405160405180910390a1600260009054906101000a900473ffffffffffffffffffffffffffffffffffffffff1673ffffffffffffffffffffffffffffffffffffffff166108fc479081150290604051600060405180830381858888f19350505050158015610304573d6000803e3d6000fd5b50565b600260009054906101000a900473ffffffffffffffffffffffffffffffffffffffff1681565b610335610657565b61033f60006106d5565b565b60008060009054906101000a900473ffffffffffffffffffffffffffffffffffffffff16905090565b6000600181111561037e5761037d610959565b5b600260149054906101000a900460ff1660018111156103a05761039f610959565b5b146103aa57600080fd5b6103b2610657565b801561044e5761040a34600160008573ffffffffffffffffffffffffffffffffffffffff1673ffffffffffffffffffffffffffffffffffffffff1681526020019081526020016000205461079990919063ffffffff16565b600160008473ffffffffffffffffffffffffffffffffffffffff1673ffffffffffffffffffffffffffffffffffffffff168152602001908152602001600020819055505b5050565b600260149054906101000a900460ff1681565b61046d610657565b600073ffffffffffffffffffffffffffffffffffffffff168173ffffffffffffffffffffffffffffffffffffffff1614156104dd576040517f08c379a00000000000000000000000000000000000000000000000000000000081526004016104d490610ac7565b60405180910390fd5b6104e6816106d5565b50565b6000600160008373ffffffffffffffffffffffffffffffffffffffff1673ffffffffffffffffffffffffffffffffffffffff168152602001908152602001600020541161053557600080fd5b6000600160008373ffffffffffffffffffffffffffffffffffffffff1673ffffffffffffffffffffffffffffffffffffffff1681526020019081526020016000205490506000600160008473ffffffffffffffffffffffffffffffffffffffff1673ffffffffffffffffffffffffffffffffffffffff168152602001908152602001600020819055508173ffffffffffffffffffffffffffffffffffffffff166108fc829081150290604051600060405180830381858888f19350505050158015610604573d6000803e3d6000fd5b508173ffffffffffffffffffffffffffffffffffffffff167fd7dee2702d63ad89917b6a4da9981c90c4d24f8c2bdfd64c604ecae57d8d06518260405161064b9190610860565b60405180910390a25050565b61065f6107af565b73ffffffffffffffffffffffffffffffffffffffff1661067d610341565b73ffffffffffffffffffffffffffffffffffffffff16146106d3576040517f08c379a00000000000000000000000000000000000000000000000000000000081526004016106ca90610b33565b60405180910390fd5b565b60008060009054906101000a900473ffffffffffffffffffffffffffffffffffffffff169050816000806101000a81548173ffffffffffffffffffffffffffffffffffffffff021916908373ffffffffffffffffffffffffffffffffffffffff1602179055508173ffffffffffffffffffffffffffffffffffffffff168173ffffffffffffffffffffffffffffffffffffffff167f8be0079c531659141344cd1fd0a4f28419497f9722a3daafe3b4186f6b6457e060405160405180910390a35050565b600081836107a79190610b82565b905092915050565b600033905090565b600080fd5b600073ffffffffffffffffffffffffffffffffffffffff82169050919050565b60006107e7826107bc565b9050919050565b6107f7816107dc565b811461080257600080fd5b50565b600081359050610814816107ee565b92915050565b6000602082840312156108305761082f6107b7565b5b600061083e84828501610805565b91505092915050565b6000819050919050565b61085a81610847565b82525050565b60006020820190506108756000830184610851565b92915050565b6000610886826107bc565b9050919050565b6108968161087b565b82525050565b60006020820190506108b1600083018461088d565b92915050565b6108c0816107dc565b82525050565b60006020820190506108db60008301846108b7565b92915050565b60008115159050919050565b6108f6816108e1565b811461090157600080fd5b50565b600081359050610913816108ed565b92915050565b600080604083850312156109305761092f6107b7565b5b600061093e85828601610805565b925050602061094f85828601610904565b9150509250929050565b7f4e487b7100000000000000000000000000000000000000000000000000000000600052602160045260246000fd5b6002811061099957610998610959565b5b50565b60008190506109aa82610988565b919050565b60006109ba8261099c565b9050919050565b6109ca816109af565b82525050565b60006020820190506109e560008301846109c1565b92915050565b6109f48161087b565b81146109ff57600080fd5b50565b600081359050610a11816109eb565b92915050565b600060208284031215610a2d57610a2c6107b7565b5b6000610a3b84828501610a02565b91505092915050565b600082825260208201905092915050565b7f4f776e61626c653a206e6577206f776e657220697320746865207a65726f206160008201527f6464726573730000000000000000000000000000000000000000000000000000602082015250565b6000610ab1602683610a44565b9150610abc82610a55565b604082019050919050565b60006020820190508181036000830152610ae081610aa4565b9050919050565b7f4f776e61626c653a2063616c6c6572206973206e6f7420746865206f776e6572600082015250565b6000610b1d602083610a44565b9150610b2882610ae7565b602082019050919050565b60006020820190508181036000830152610b4c81610b10565b9050919050565b7f4e487b7100000000000000000000000000000000000000000000000000000000600052601160045260246000fd5b6000610b8d82610847565b9150610b9883610847565b9250827fffffffffffffffffffffffffffffffffffffffffffffffffffffffffffffffff03821115610bcd57610bcc610b53565b5b82820190509291505056fea26469706673582212209bf1639e5afbc30f9433f92d753bc0ebfc09caaadd8035aa5d6212f39885a63364736f6c63430008090033a2646970667358221220e653378111e2b0d05e52689eb4d46a4b3586f0b7db687059d4c0c339769b360d64736f6c63430008090033",
  "linkReferences": {},
  "deployedLinkReferences": {}
}