{
  "_format": "hh-sol-artifact-1",
  "contractName": "MoonVaultFactory",
  "sourceName": "contracts/MoonVaultFactory.sol",
  "abi": [
    {
      "inputs": [],
      "stateMutability": "nonpayable",
      "type": "constructor"
    },
    {
      "anonymous": false,
      "inputs": [
        {
          "indexed": true,
          "internalType": "bytes32",
          "name": "role",
          "type": "bytes32"
        },
        {
          "indexed": true,
          "internalType": "bytes32",
          "name": "previousAdminRole",
          "type": "bytes32"
        },
        {
          "indexed": true,
          "internalType": "bytes32",
          "name": "newAdminRole",
          "type": "bytes32"
        }
      ],
      "name": "RoleAdminChanged",
      "type": "event"
    },
    {
      "anonymous": false,
      "inputs": [
        {
          "indexed": true,
          "internalType": "bytes32",
          "name": "role",
          "type": "bytes32"
        },
        {
          "indexed": true,
          "internalType": "address",
          "name": "account",
          "type": "address"
        },
        {
          "indexed": true,
          "internalType": "address",
          "name": "sender",
          "type": "address"
        }
      ],
      "name": "RoleGranted",
      "type": "event"
    },
    {
      "anonymous": false,
      "inputs": [
        {
          "indexed": true,
          "internalType": "bytes32",
          "name": "role",
          "type": "bytes32"
        },
        {
          "indexed": true,
          "internalType": "address",
          "name": "account",
          "type": "address"
        },
        {
          "indexed": true,
          "internalType": "address",
          "name": "sender",
          "type": "address"
        }
      ],
      "name": "RoleRevoked",
      "type": "event"
    },
    {
      "inputs": [],
      "name": "DEFAULT_ADMIN_ROLE",
      "outputs": [
        {
          "internalType": "bytes32",
          "name": "",
          "type": "bytes32"
        }
      ],
      "stateMutability": "view",
      "type": "function"
    },
    {
      "inputs": [],
      "name": "getLatestVault",
      "outputs": [
        {
          "internalType": "address",
          "name": "",
          "type": "address"
        }
      ],
      "stateMutability": "view",
      "type": "function"
    },
    {
      "inputs": [
        {
          "internalType": "bytes32",
          "name": "role",
          "type": "bytes32"
        }
      ],
      "name": "getRoleAdmin",
      "outputs": [
        {
          "internalType": "bytes32",
          "name": "",
          "type": "bytes32"
        }
      ],
      "stateMutability": "view",
      "type": "function"
    },
    {
      "inputs": [
        {
          "internalType": "address",
          "name": "_vault",
          "type": "address"
        },
        {
          "internalType": "address",
          "name": "_to",
          "type": "address"
        }
      ],
      "name": "giveContractOwnership",
      "outputs": [],
      "stateMutability": "nonpayable",
      "type": "function"
    },
    {
      "inputs": [
        {
          "internalType": "address",
          "name": "to",
          "type": "address"
        }
      ],
      "name": "grantOwnerRole",
      "outputs": [],
      "stateMutability": "nonpayable",
      "type": "function"
    },
    {
      "inputs": [
        {
          "internalType": "bytes32",
          "name": "role",
          "type": "bytes32"
        },
        {
          "internalType": "address",
          "name": "account",
          "type": "address"
        }
      ],
      "name": "grantRole",
      "outputs": [],
      "stateMutability": "nonpayable",
      "type": "function"
    },
    {
      "inputs": [
        {
          "internalType": "bytes32",
          "name": "role",
          "type": "bytes32"
        },
        {
          "internalType": "address",
          "name": "account",
          "type": "address"
        }
      ],
      "name": "hasRole",
      "outputs": [
        {
          "internalType": "bool",
          "name": "",
          "type": "bool"
        }
      ],
      "stateMutability": "view",
      "type": "function"
    },
    {
      "inputs": [],
      "name": "newMoonVault",
      "outputs": [
        {
          "internalType": "address",
          "name": "",
          "type": "address"
        }
      ],
      "stateMutability": "nonpayable",
      "type": "function"
    },
    {
      "inputs": [
        {
          "internalType": "bytes32",
          "name": "role",
          "type": "bytes32"
        },
        {
          "internalType": "address",
          "name": "account",
          "type": "address"
        }
      ],
      "name": "renounceRole",
      "outputs": [],
      "stateMutability": "nonpayable",
      "type": "function"
    },
    {
      "inputs": [
        {
          "internalType": "bytes32",
          "name": "role",
          "type": "bytes32"
        },
        {
          "internalType": "address",
          "name": "account",
          "type": "address"
        }
      ],
      "name": "revokeRole",
      "outputs": [],
      "stateMutability": "nonpayable",
      "type": "function"
    },
    {
      "inputs": [
        {
          "internalType": "bytes4",
          "name": "interfaceId",
          "type": "bytes4"
        }
      ],
      "name": "supportsInterface",
      "outputs": [
        {
          "internalType": "bool",
          "name": "",
          "type": "bool"
        }
      ],
      "stateMutability": "view",
      "type": "function"
    }
  ],
  "bytecode": "0x6080604052600060015534801561001557600080fd5b506100296000801b3361002e60201b60201c565b61018c565b61003e828261011a60201b60201c565b61011657600160008084815260200190815260200160002060000160008373ffffffffffffffffffffffffffffffffffffffff1673ffffffffffffffffffffffffffffffffffffffff16815260200190815260200160002060006101000a81548160ff0219169083151502179055506100bb61018460201b60201c565b73ffffffffffffffffffffffffffffffffffffffff168173ffffffffffffffffffffffffffffffffffffffff16837f2f8788117e7eff1d82e926ec794901d17c78024a50270940304540a733656f0d60405160405180910390a45b5050565b600080600084815260200190815260200160002060000160008373ffffffffffffffffffffffffffffffffffffffff1673ffffffffffffffffffffffffffffffffffffffff16815260200190815260200160002060009054906101000a900460ff16905092915050565b600033905090565b612ddb8061019b6000396000f3fe60806040523480156200001157600080fd5b5060043610620000b85760003560e01c80633b313a32116200007b5780633b313a3214620001895780635556f1aa14620001ab57806391d1485414620001cb578063a217fddf1462000201578063a4b8b8401462000223578063d547741f146200024557620000b8565b806301ffc9a714620000bd578063248a9ca314620000f35780632f2ff15d146200012957806336568abe1462000149578063397a8bab1462000169575b600080fd5b620000db6004803603810190620000d5919062000bdc565b62000265565b604051620000ea919062000c2b565b60405180910390f35b6200011160048036038101906200010b919062000c83565b620002e2565b60405162000120919062000cc6565b60405180910390f35b62000147600480360381019062000141919062000d48565b62000301565b005b62000167600480360381019062000161919062000d48565b62000328565b005b62000187600480360381019062000181919062000d8f565b620003b2565b005b62000193620003d4565b604051620001a2919062000dd2565b60405180910390f35b620001c96004803603810190620001c3919062000def565b6200049b565b005b620001e96004803603810190620001e3919062000d48565b62000524565b604051620001f8919062000c2b565b60405180910390f35b6200020b6200058e565b6040516200021a919062000cc6565b60405180910390f35b6200022d62000595565b6040516200023c919062000dd2565b60405180910390f35b6200026360048036038101906200025d919062000d48565b620005ed565b005b60007f7965db0b000000000000000000000000000000000000000000000000000000007bffffffffffffffffffffffffffffffffffffffffffffffffffffffff1916827bffffffffffffffffffffffffffffffffffffffffffffffffffffffff19161480620002db5750620002da8262000614565b5b9050919050565b6000806000838152602001908152602001600020600101549050919050565b6200030c82620002e2565b62000317816200067e565b62000323838362000696565b505050565b620003326200077b565b73ffffffffffffffffffffffffffffffffffffffff168173ffffffffffffffffffffffffffffffffffffffff1614620003a2576040517f08c379a0000000000000000000000000000000000000000000000000000000008152600401620003999062000ebd565b60405180910390fd5b620003ae828262000783565b5050565b6000801b620003c1816200067e565b620003d06000801b8362000696565b5050565b60008060001b620003e5816200067e565b6000604051620003f59062000b6c565b604051809103906000f08015801562000412573d6000803e3d6000fd5b5090506002819080600181540180825580915050600190039060005260206000200160009091909190916101000a81548173ffffffffffffffffffffffffffffffffffffffff021916908373ffffffffffffffffffffffffffffffffffffffff16021790555060018060008282546200048c919062000f18565b92505081905550809250505090565b6000801b620004aa816200067e565b60008390508073ffffffffffffffffffffffffffffffffffffffff1663397a8bab846040518263ffffffff1660e01b8152600401620004ea919062000dd2565b600060405180830381600087803b1580156200050557600080fd5b505af11580156200051a573d6000803e3d6000fd5b5050505050505050565b600080600084815260200190815260200160002060000160008373ffffffffffffffffffffffffffffffffffffffff1673ffffffffffffffffffffffffffffffffffffffff16815260200190815260200160002060009054906101000a900460ff16905092915050565b6000801b81565b6000600260018054620005a9919062000f75565b81548110620005bd57620005bc62000fb0565b5b9060005260206000200160009054906101000a900473ffffffffffffffffffffffffffffffffffffffff16905090565b620005f882620002e2565b62000603816200067e565b6200060f838362000783565b505050565b60007f01ffc9a7000000000000000000000000000000000000000000000000000000007bffffffffffffffffffffffffffffffffffffffffffffffffffffffff1916827bffffffffffffffffffffffffffffffffffffffffffffffffffffffff1916149050919050565b62000693816200068d6200077b565b62000869565b50565b620006a2828262000524565b6200077757600160008084815260200190815260200160002060000160008373ffffffffffffffffffffffffffffffffffffffff1673ffffffffffffffffffffffffffffffffffffffff16815260200190815260200160002060006101000a81548160ff0219169083151502179055506200071c6200077b565b73ffffffffffffffffffffffffffffffffffffffff168173ffffffffffffffffffffffffffffffffffffffff16837f2f8788117e7eff1d82e926ec794901d17c78024a50270940304540a733656f0d60405160405180910390a45b5050565b600033905090565b6200078f828262000524565b156200086557600080600084815260200190815260200160002060000160008373ffffffffffffffffffffffffffffffffffffffff1673ffffffffffffffffffffffffffffffffffffffff16815260200190815260200160002060006101000a81548160ff0219169083151502179055506200080a6200077b565b73ffffffffffffffffffffffffffffffffffffffff168173ffffffffffffffffffffffffffffffffffffffff16837ff6391f5c32d9c69d2a47ea670b442974b53935d1edc7fd64eb21e047a839171b60405160405180910390a45b5050565b62000875828262000524565b6200090d576200089d8173ffffffffffffffffffffffffffffffffffffffff16601462000911565b620008ad8360001c602062000911565b604051602001620008c092919062001102565b6040516020818303038152906040526040517f08c379a000000000000000000000000000000000000000000000000000000000815260040162000904919062001196565b60405180910390fd5b5050565b606060006002836002620009269190620011ba565b62000932919062000f18565b67ffffffffffffffff8111156200094e576200094d6200121b565b5b6040519080825280601f01601f191660200182016040528015620009815781602001600182028036833780820191505090505b5090507f300000000000000000000000000000000000000000000000000000000000000081600081518110620009bc57620009bb62000fb0565b5b60200101907effffffffffffffffffffffffffffffffffffffffffffffffffffffffffffff1916908160001a9053507f78000000000000000000000000000000000000000000000000000000000000008160018151811062000a235762000a2262000fb0565b5b60200101907effffffffffffffffffffffffffffffffffffffffffffffffffffffffffffff1916908160001a9053506000600184600262000a659190620011ba565b62000a71919062000f18565b90505b600181111562000b1b577f3031323334353637383961626364656600000000000000000000000000000000600f86166010811062000ab75762000ab662000fb0565b5b1a60f81b82828151811062000ad15762000ad062000fb0565b5b60200101907effffffffffffffffffffffffffffffffffffffffffffffffffffffffffffff1916908160001a905350600485901c94508062000b13906200124a565b905062000a74565b506000841462000b62576040517f08c379a000000000000000000000000000000000000000000000000000000000815260040162000b5990620012c8565b60405180910390fd5b8091505092915050565b611abb80620012eb83390190565b600080fd5b60007fffffffff0000000000000000000000000000000000000000000000000000000082169050919050565b62000bb68162000b7f565b811462000bc257600080fd5b50565b60008135905062000bd68162000bab565b92915050565b60006020828403121562000bf55762000bf462000b7a565b5b600062000c058482850162000bc5565b91505092915050565b60008115159050919050565b62000c258162000c0e565b82525050565b600060208201905062000c42600083018462000c1a565b92915050565b6000819050919050565b62000c5d8162000c48565b811462000c6957600080fd5b50565b60008135905062000c7d8162000c52565b92915050565b60006020828403121562000c9c5762000c9b62000b7a565b5b600062000cac8482850162000c6c565b91505092915050565b62000cc08162000c48565b82525050565b600060208201905062000cdd600083018462000cb5565b92915050565b600073ffffffffffffffffffffffffffffffffffffffff82169050919050565b600062000d108262000ce3565b9050919050565b62000d228162000d03565b811462000d2e57600080fd5b50565b60008135905062000d428162000d17565b92915050565b6000806040838503121562000d625762000d6162000b7a565b5b600062000d728582860162000c6c565b925050602062000d858582860162000d31565b9150509250929050565b60006020828403121562000da85762000da762000b7a565b5b600062000db88482850162000d31565b91505092915050565b62000dcc8162000d03565b82525050565b600060208201905062000de9600083018462000dc1565b92915050565b6000806040838503121562000e095762000e0862000b7a565b5b600062000e198582860162000d31565b925050602062000e2c8582860162000d31565b9150509250929050565b600082825260208201905092915050565b7f416363657373436f6e74726f6c3a2063616e206f6e6c792072656e6f756e636560008201527f20726f6c657320666f722073656c660000000000000000000000000000000000602082015250565b600062000ea5602f8362000e36565b915062000eb28262000e47565b604082019050919050565b6000602082019050818103600083015262000ed88162000e96565b9050919050565b6000819050919050565b7f4e487b7100000000000000000000000000000000000000000000000000000000600052601160045260246000fd5b600062000f258262000edf565b915062000f328362000edf565b9250827fffffffffffffffffffffffffffffffffffffffffffffffffffffffffffffffff0382111562000f6a5762000f6962000ee9565b5b828201905092915050565b600062000f828262000edf565b915062000f8f8362000edf565b92508282101562000fa55762000fa462000ee9565b5b828203905092915050565b7f4e487b7100000000000000000000000000000000000000000000000000000000600052603260045260246000fd5b600081905092915050565b7f416363657373436f6e74726f6c3a206163636f756e7420000000000000000000600082015250565b60006200102260178362000fdf565b91506200102f8262000fea565b601782019050919050565b600081519050919050565b60005b838110156200106557808201518184015260208101905062001048565b8381111562001075576000848401525b50505050565b600062001088826200103a565b62001094818562000fdf565b9350620010a681856020860162001045565b80840191505092915050565b7f206973206d697373696e6720726f6c6520000000000000000000000000000000600082015250565b6000620010ea60118362000fdf565b9150620010f782620010b2565b601182019050919050565b60006200110f8262001013565b91506200111d82856200107b565b91506200112a82620010db565b91506200113882846200107b565b91508190509392505050565b6000601f19601f8301169050919050565b600062001162826200103a565b6200116e818562000e36565b93506200118081856020860162001045565b6200118b8162001144565b840191505092915050565b60006020820190508181036000830152620011b2818462001155565b905092915050565b6000620011c78262000edf565b9150620011d48362000edf565b9250817fffffffffffffffffffffffffffffffffffffffffffffffffffffffffffffffff048311821515161562001210576200120f62000ee9565b5b828202905092915050565b7f4e487b7100000000000000000000000000000000000000000000000000000000600052604160045260246000fd5b6000620012578262000edf565b9150600082036200126d576200126c62000ee9565b5b600182039050919050565b7f537472696e67733a20686578206c656e67746820696e73756666696369656e74600082015250565b6000620012b060208362000e36565b9150620012bd8262001278565b602082019050919050565b60006020820190508181036000830152620012e381620012a1565b905091905056fe60806040523480156200001157600080fd5b50620000276000801b336200005b60201b60201c565b6000600160006101000a81548160ff0219169083600181111562000050576200004f620001be565b5b0217905550620001ed565b6200006d82826200014c60201b60201c565b6200014857600160008084815260200190815260200160002060000160008373ffffffffffffffffffffffffffffffffffffffff1673ffffffffffffffffffffffffffffffffffffffff16815260200190815260200160002060006101000a81548160ff021916908315150217905550620000ed620001b660201b60201c565b73ffffffffffffffffffffffffffffffffffffffff168173ffffffffffffffffffffffffffffffffffffffff16837f2f8788117e7eff1d82e926ec794901d17c78024a50270940304540a733656f0d60405160405180910390a45b5050565b600080600084815260200190815260200160002060000160008373ffffffffffffffffffffffffffffffffffffffff1673ffffffffffffffffffffffffffffffffffffffff16815260200190815260200160002060009054906101000a900460ff16905092915050565b600033905090565b7f4e487b7100000000000000000000000000000000000000000000000000000000600052602160045260246000fd5b6118be80620001fd6000396000f3fe6080604052600436106100ec5760003560e01c806343d726d61161008a578063a217fddf11610059578063a217fddf146102f6578063c19d93fb14610321578063d547741f1461034c578063fa89401a1461037557610100565b806343d726d61461025d5780636e353a1d146102745780636f485d6c1461029057806391d14854146102b957610100565b80632f2ff15d116100c65780632f2ff15d146101a557806336568abe146101ce578063397a8bab146101f75780633dd2281d1461022057610100565b806301ffc9a7146101025780630a2f487b1461013f578063248a9ca31461016857610100565b36610100576000801b6100fe8161039e565b005b005b34801561010e57600080fd5b506101296004803603810190610124919061101d565b6103b2565b6040516101369190611065565b60405180910390f35b34801561014b57600080fd5b5061016660048036038101906101619190611114565b61042c565b005b34801561017457600080fd5b5061018f600480360381019061018a919061118a565b610528565b60405161019c91906111c6565b60405180910390f35b3480156101b157600080fd5b506101cc60048036038101906101c791906111e1565b610547565b005b3480156101da57600080fd5b506101f560048036038101906101f091906111e1565b610568565b005b34801561020357600080fd5b5061021e60048036038101906102199190611221565b6105eb565b005b34801561022c57600080fd5b5061024760048036038101906102429190611221565b610609565b604051610254919061125d565b60405180910390f35b34801561026957600080fd5b50610272610621565b005b61028e600480360381019061028991906112b6565b6106c7565b005b34801561029c57600080fd5b506102b760048036038101906102b29190611114565b610785565b005b3480156102c557600080fd5b506102e060048036038101906102db91906111e1565b61082d565b6040516102ed9190611065565b60405180910390f35b34801561030257600080fd5b5061030b610897565b60405161031891906111c6565b60405180910390f35b34801561032d57600080fd5b5061033661089e565b604051610343919061135a565b60405180910390f35b34801561035857600080fd5b50610373600480360381019061036e91906111e1565b6108b1565b005b34801561038157600080fd5b5061039c600480360381019061039791906112b6565b6108d2565b005b6103af816103aa610ab4565b610abc565b50565b60007f7965db0b000000000000000000000000000000000000000000000000000000007bffffffffffffffffffffffffffffffffffffffffffffffffffffffff1916827bffffffffffffffffffffffffffffffffffffffffffffffffffffffff19161480610425575061042482610b59565b5b9050919050565b6000801b6104398161039e565b6000600260008573ffffffffffffffffffffffffffffffffffffffff1673ffffffffffffffffffffffffffffffffffffffff16815260200190815260200160002054101561048657600080fd5b81600260008573ffffffffffffffffffffffffffffffffffffffff1673ffffffffffffffffffffffffffffffffffffffff16815260200190815260200160002054106105235781600260008573ffffffffffffffffffffffffffffffffffffffff1673ffffffffffffffffffffffffffffffffffffffff168152602001908152602001600020600082825461051b91906113a4565b925050819055505b505050565b6000806000838152602001908152602001600020600101549050919050565b61055082610528565b6105598161039e565b6105638383610bc3565b505050565b610570610ab4565b73ffffffffffffffffffffffffffffffffffffffff168173ffffffffffffffffffffffffffffffffffffffff16146105dd576040517f08c379a00000000000000000000000000000000000000000000000000000000081526004016105d49061145b565b60405180910390fd5b6105e78282610ca3565b5050565b6000801b6105f88161039e565b6106056000801b83610bc3565b5050565b60026020528060005260406000206000915090505481565b6000801b61062e8161039e565b60006001811115610642576106416112e3565b5b600160009054906101000a900460ff166001811115610664576106636112e3565b5b1461066e57600080fd5b60018060006101000a81548160ff02191690836001811115610693576106926112e3565b5b02179055507f1cdde67b72a90f19919ac732a437ac2f7a10fc128d28c2a6e525d89ce5cd9d3a60405160405180910390a150565b6000801b6106d48161039e565b60008273ffffffffffffffffffffffffffffffffffffffff16476040516106fa906114ac565b60006040518083038185875af1925050503d8060008114610737576040519150601f19603f3d011682016040523d82523d6000602084013e61073c565b606091505b5050905080610780576040517f08c379a00000000000000000000000000000000000000000000000000000000081526004016107779061150d565b60405180910390fd5b505050565b60006001811115610799576107986112e3565b5b600160009054906101000a900460ff1660018111156107bb576107ba6112e3565b5b146107c557600080fd5b6000801b6107d28161039e565b81600260008573ffffffffffffffffffffffffffffffffffffffff1673ffffffffffffffffffffffffffffffffffffffff1681526020019081526020016000206000828254610821919061152d565b92505081905550505050565b600080600084815260200190815260200160002060000160008373ffffffffffffffffffffffffffffffffffffffff1673ffffffffffffffffffffffffffffffffffffffff16815260200190815260200160002060009054906101000a900460ff16905092915050565b6000801b81565b600160009054906101000a900460ff1681565b6108ba82610528565b6108c38161039e565b6108cd8383610ca3565b505050565b6000801b6108df8161039e565b6000600260008473ffffffffffffffffffffffffffffffffffffffff1673ffffffffffffffffffffffffffffffffffffffff168152602001908152602001600020541161092b57600080fd5b6000600260008473ffffffffffffffffffffffffffffffffffffffff1673ffffffffffffffffffffffffffffffffffffffff1681526020019081526020016000205490506000600260008573ffffffffffffffffffffffffffffffffffffffff1673ffffffffffffffffffffffffffffffffffffffff1681526020019081526020016000208190555060008373ffffffffffffffffffffffffffffffffffffffff16826040516109da906114ac565b60006040518083038185875af1925050503d8060008114610a17576040519150601f19603f3d011682016040523d82523d6000602084013e610a1c565b606091505b5050905080610a60576040517f08c379a0000000000000000000000000000000000000000000000000000000008152600401610a579061150d565b60405180910390fd5b8373ffffffffffffffffffffffffffffffffffffffff167fd7dee2702d63ad89917b6a4da9981c90c4d24f8c2bdfd64c604ecae57d8d065183604051610aa6919061125d565b60405180910390a250505050565b600033905090565b610ac6828261082d565b610b5557610aeb8173ffffffffffffffffffffffffffffffffffffffff166014610d84565b610af98360001c6020610d84565b604051602001610b0a929190611695565b6040516020818303038152906040526040517f08c379a0000000000000000000000000000000000000000000000000000000008152600401610b4c9190611719565b60405180910390fd5b5050565b60007f01ffc9a7000000000000000000000000000000000000000000000000000000007bffffffffffffffffffffffffffffffffffffffffffffffffffffffff1916827bffffffffffffffffffffffffffffffffffffffffffffffffffffffff1916149050919050565b610bcd828261082d565b610c9f57600160008084815260200190815260200160002060000160008373ffffffffffffffffffffffffffffffffffffffff1673ffffffffffffffffffffffffffffffffffffffff16815260200190815260200160002060006101000a81548160ff021916908315150217905550610c44610ab4565b73ffffffffffffffffffffffffffffffffffffffff168173ffffffffffffffffffffffffffffffffffffffff16837f2f8788117e7eff1d82e926ec794901d17c78024a50270940304540a733656f0d60405160405180910390a45b5050565b610cad828261082d565b15610d8057600080600084815260200190815260200160002060000160008373ffffffffffffffffffffffffffffffffffffffff1673ffffffffffffffffffffffffffffffffffffffff16815260200190815260200160002060006101000a81548160ff021916908315150217905550610d25610ab4565b73ffffffffffffffffffffffffffffffffffffffff168173ffffffffffffffffffffffffffffffffffffffff16837ff6391f5c32d9c69d2a47ea670b442974b53935d1edc7fd64eb21e047a839171b60405160405180910390a45b5050565b606060006002836002610d97919061173b565b610da1919061152d565b67ffffffffffffffff811115610dba57610db9611795565b5b6040519080825280601f01601f191660200182016040528015610dec5781602001600182028036833780820191505090505b5090507f300000000000000000000000000000000000000000000000000000000000000081600081518110610e2457610e236117c4565b5b60200101907effffffffffffffffffffffffffffffffffffffffffffffffffffffffffffff1916908160001a9053507f780000000000000000000000000000000000000000000000000000000000000081600181518110610e8857610e876117c4565b5b60200101907effffffffffffffffffffffffffffffffffffffffffffffffffffffffffffff1916908160001a90535060006001846002610ec8919061173b565b610ed2919061152d565b90505b6001811115610f72577f3031323334353637383961626364656600000000000000000000000000000000600f861660108110610f1457610f136117c4565b5b1a60f81b828281518110610f2b57610f2a6117c4565b5b60200101907effffffffffffffffffffffffffffffffffffffffffffffffffffffffffffff1916908160001a905350600485901c945080610f6b906117f3565b9050610ed5565b5060008414610fb6576040517f08c379a0000000000000000000000000000000000000000000000000000000008152600401610fad90611868565b60405180910390fd5b8091505092915050565b600080fd5b60007fffffffff0000000000000000000000000000000000000000000000000000000082169050919050565b610ffa81610fc5565b811461100557600080fd5b50565b60008135905061101781610ff1565b92915050565b60006020828403121561103357611032610fc0565b5b600061104184828501611008565b91505092915050565b60008115159050919050565b61105f8161104a565b82525050565b600060208201905061107a6000830184611056565b92915050565b600073ffffffffffffffffffffffffffffffffffffffff82169050919050565b60006110ab82611080565b9050919050565b6110bb816110a0565b81146110c657600080fd5b50565b6000813590506110d8816110b2565b92915050565b6000819050919050565b6110f1816110de565b81146110fc57600080fd5b50565b60008135905061110e816110e8565b92915050565b6000806040838503121561112b5761112a610fc0565b5b6000611139858286016110c9565b925050602061114a858286016110ff565b9150509250929050565b6000819050919050565b61116781611154565b811461117257600080fd5b50565b6000813590506111848161115e565b92915050565b6000602082840312156111a05761119f610fc0565b5b60006111ae84828501611175565b91505092915050565b6111c081611154565b82525050565b60006020820190506111db60008301846111b7565b92915050565b600080604083850312156111f8576111f7610fc0565b5b600061120685828601611175565b9250506020611217858286016110c9565b9150509250929050565b60006020828403121561123757611236610fc0565b5b6000611245848285016110c9565b91505092915050565b611257816110de565b82525050565b6000602082019050611272600083018461124e565b92915050565b600061128382611080565b9050919050565b61129381611278565b811461129e57600080fd5b50565b6000813590506112b08161128a565b92915050565b6000602082840312156112cc576112cb610fc0565b5b60006112da848285016112a1565b91505092915050565b7f4e487b7100000000000000000000000000000000000000000000000000000000600052602160045260246000fd5b60028110611323576113226112e3565b5b50565b600081905061133482611312565b919050565b600061134482611326565b9050919050565b61135481611339565b82525050565b600060208201905061136f600083018461134b565b92915050565b7f4e487b7100000000000000000000000000000000000000000000000000000000600052601160045260246000fd5b60006113af826110de565b91506113ba836110de565b9250828210156113cd576113cc611375565b5b828203905092915050565b600082825260208201905092915050565b7f416363657373436f6e74726f6c3a2063616e206f6e6c792072656e6f756e636560008201527f20726f6c657320666f722073656c660000000000000000000000000000000000602082015250565b6000611445602f836113d8565b9150611450826113e9565b604082019050919050565b6000602082019050818103600083015261147481611438565b9050919050565b600081905092915050565b50565b600061149660008361147b565b91506114a182611486565b600082019050919050565b60006114b782611489565b9150819050919050565b7f4574686572207472616e73666572206661696c65642e00000000000000000000600082015250565b60006114f76016836113d8565b9150611502826114c1565b602082019050919050565b60006020820190508181036000830152611526816114ea565b9050919050565b6000611538826110de565b9150611543836110de565b9250827fffffffffffffffffffffffffffffffffffffffffffffffffffffffffffffffff0382111561157857611577611375565b5b828201905092915050565b600081905092915050565b7f416363657373436f6e74726f6c3a206163636f756e7420000000000000000000600082015250565b60006115c4601783611583565b91506115cf8261158e565b601782019050919050565b600081519050919050565b60005b838110156116035780820151818401526020810190506115e8565b83811115611612576000848401525b50505050565b6000611623826115da565b61162d8185611583565b935061163d8185602086016115e5565b80840191505092915050565b7f206973206d697373696e6720726f6c6520000000000000000000000000000000600082015250565b600061167f601183611583565b915061168a82611649565b601182019050919050565b60006116a0826115b7565b91506116ac8285611618565b91506116b782611672565b91506116c38284611618565b91508190509392505050565b6000601f19601f8301169050919050565b60006116eb826115da565b6116f581856113d8565b93506117058185602086016115e5565b61170e816116cf565b840191505092915050565b6000602082019050818103600083015261173381846116e0565b905092915050565b6000611746826110de565b9150611751836110de565b9250817fffffffffffffffffffffffffffffffffffffffffffffffffffffffffffffffff048311821515161561178a57611789611375565b5b828202905092915050565b7f4e487b7100000000000000000000000000000000000000000000000000000000600052604160045260246000fd5b7f4e487b7100000000000000000000000000000000000000000000000000000000600052603260045260246000fd5b60006117fe826110de565b91506000820361181157611810611375565b5b600182039050919050565b7f537472696e67733a20686578206c656e67746820696e73756666696369656e74600082015250565b60006118526020836113d8565b915061185d8261181c565b602082019050919050565b6000602082019050818103600083015261188181611845565b905091905056fea264697066735822122079ba682920de5bcbb9b3bce6d4a67def7dda6ed859d02bc34cab3c8bba907d9464736f6c634300080d0033a264697066735822122003b024124c0bec2cf889e8ae5a30fef5669a36a3964060c424398a6c202f9d6864736f6c634300080d0033",
  "linkReferences": {},
  "deployedLinkReferences": {}
}