{
  "_format": "hh-sol-artifact-1",
  "contractName": "MoonVaultFactory",
  "sourceName": "contracts/MoonVaultFactory.sol",
  "abi": [
    {
      "inputs": [],
      "stateMutability": "nonpayable",
      "type": "constructor"
    },
    {
      "anonymous": false,
      "inputs": [
        {
          "indexed": true,
          "internalType": "bytes32",
          "name": "role",
          "type": "bytes32"
        },
        {
          "indexed": true,
          "internalType": "bytes32",
          "name": "previousAdminRole",
          "type": "bytes32"
        },
        {
          "indexed": true,
          "internalType": "bytes32",
          "name": "newAdminRole",
          "type": "bytes32"
        }
      ],
      "name": "RoleAdminChanged",
      "type": "event"
    },
    {
      "anonymous": false,
      "inputs": [
        {
          "indexed": true,
          "internalType": "bytes32",
          "name": "role",
          "type": "bytes32"
        },
        {
          "indexed": true,
          "internalType": "address",
          "name": "account",
          "type": "address"
        },
        {
          "indexed": true,
          "internalType": "address",
          "name": "sender",
          "type": "address"
        }
      ],
      "name": "RoleGranted",
      "type": "event"
    },
    {
      "anonymous": false,
      "inputs": [
        {
          "indexed": true,
          "internalType": "bytes32",
          "name": "role",
          "type": "bytes32"
        },
        {
          "indexed": true,
          "internalType": "address",
          "name": "account",
          "type": "address"
        },
        {
          "indexed": true,
          "internalType": "address",
          "name": "sender",
          "type": "address"
        }
      ],
      "name": "RoleRevoked",
      "type": "event"
    },
    {
      "inputs": [],
      "name": "DEFAULT_ADMIN_ROLE",
      "outputs": [
        {
          "internalType": "bytes32",
          "name": "",
          "type": "bytes32"
        }
      ],
      "stateMutability": "view",
      "type": "function"
    },
    {
      "inputs": [],
      "name": "getLatestVault",
      "outputs": [
        {
          "internalType": "address",
          "name": "",
          "type": "address"
        }
      ],
      "stateMutability": "view",
      "type": "function"
    },
    {
      "inputs": [
        {
          "internalType": "bytes32",
          "name": "role",
          "type": "bytes32"
        }
      ],
      "name": "getRoleAdmin",
      "outputs": [
        {
          "internalType": "bytes32",
          "name": "",
          "type": "bytes32"
        }
      ],
      "stateMutability": "view",
      "type": "function"
    },
    {
      "inputs": [
        {
          "internalType": "address",
          "name": "_vault",
          "type": "address"
        },
        {
          "internalType": "address",
          "name": "_to",
          "type": "address"
        }
      ],
      "name": "giveContractOwnership",
      "outputs": [],
      "stateMutability": "nonpayable",
      "type": "function"
    },
    {
      "inputs": [
        {
          "internalType": "address",
          "name": "to",
          "type": "address"
        }
      ],
      "name": "grantOwnerRole",
      "outputs": [],
      "stateMutability": "nonpayable",
      "type": "function"
    },
    {
      "inputs": [
        {
          "internalType": "bytes32",
          "name": "role",
          "type": "bytes32"
        },
        {
          "internalType": "address",
          "name": "account",
          "type": "address"
        }
      ],
      "name": "grantRole",
      "outputs": [],
      "stateMutability": "nonpayable",
      "type": "function"
    },
    {
      "inputs": [
        {
          "internalType": "bytes32",
          "name": "role",
          "type": "bytes32"
        },
        {
          "internalType": "address",
          "name": "account",
          "type": "address"
        }
      ],
      "name": "hasRole",
      "outputs": [
        {
          "internalType": "bool",
          "name": "",
          "type": "bool"
        }
      ],
      "stateMutability": "view",
      "type": "function"
    },
    {
      "inputs": [],
      "name": "newMoonVault",
      "outputs": [
        {
          "internalType": "address",
          "name": "",
          "type": "address"
        }
      ],
      "stateMutability": "nonpayable",
      "type": "function"
    },
    {
      "inputs": [
        {
          "internalType": "bytes32",
          "name": "role",
          "type": "bytes32"
        },
        {
          "internalType": "address",
          "name": "account",
          "type": "address"
        }
      ],
      "name": "renounceRole",
      "outputs": [],
      "stateMutability": "nonpayable",
      "type": "function"
    },
    {
      "inputs": [
        {
          "internalType": "bytes32",
          "name": "role",
          "type": "bytes32"
        },
        {
          "internalType": "address",
          "name": "account",
          "type": "address"
        }
      ],
      "name": "revokeRole",
      "outputs": [],
      "stateMutability": "nonpayable",
      "type": "function"
    },
    {
      "inputs": [
        {
          "internalType": "bytes4",
          "name": "interfaceId",
          "type": "bytes4"
        }
      ],
      "name": "supportsInterface",
      "outputs": [
        {
          "internalType": "bool",
          "name": "",
          "type": "bool"
        }
      ],
      "stateMutability": "view",
      "type": "function"
    }
  ],
  "bytecode": "0x6080604052600060015534801561001557600080fd5b506100296000801b3361002e60201b60201c565b61018c565b61003e828261011a60201b60201c565b61011657600160008084815260200190815260200160002060000160008373ffffffffffffffffffffffffffffffffffffffff1673ffffffffffffffffffffffffffffffffffffffff16815260200190815260200160002060006101000a81548160ff0219169083151502179055506100bb61018460201b60201c565b73ffffffffffffffffffffffffffffffffffffffff168173ffffffffffffffffffffffffffffffffffffffff16837f2f8788117e7eff1d82e926ec794901d17c78024a50270940304540a733656f0d60405160405180910390a45b5050565b600080600084815260200190815260200160002060000160008373ffffffffffffffffffffffffffffffffffffffff1673ffffffffffffffffffffffffffffffffffffffff16815260200190815260200160002060009054906101000a900460ff16905092915050565b600033905090565b612dfc8061019b6000396000f3fe60806040523480156200001157600080fd5b5060043610620000b85760003560e01c80633b313a32116200007b5780633b313a3214620001895780635556f1aa14620001ab57806391d1485414620001cb578063a217fddf1462000201578063a4b8b8401462000223578063d547741f146200024557620000b8565b806301ffc9a714620000bd578063248a9ca314620000f35780632f2ff15d146200012957806336568abe1462000149578063397a8bab1462000169575b600080fd5b620000db6004803603810190620000d5919062000bf3565b62000265565b604051620000ea919062000c42565b60405180910390f35b6200011160048036038101906200010b919062000c9a565b620002e2565b60405162000120919062000cdd565b60405180910390f35b62000147600480360381019062000141919062000d5f565b62000301565b005b62000167600480360381019062000161919062000d5f565b62000328565b005b62000187600480360381019062000181919062000da6565b620003b2565b005b62000193620003d4565b604051620001a2919062000de9565b60405180910390f35b620001c96004803603810190620001c3919062000e06565b6200049b565b005b620001e96004803603810190620001e3919062000d5f565b62000524565b604051620001f8919062000c42565b60405180910390f35b6200020b6200058e565b6040516200021a919062000cdd565b60405180910390f35b6200022d62000595565b6040516200023c919062000de9565b60405180910390f35b6200026360048036038101906200025d919062000d5f565b620005ed565b005b60007f7965db0b000000000000000000000000000000000000000000000000000000007bffffffffffffffffffffffffffffffffffffffffffffffffffffffff1916827bffffffffffffffffffffffffffffffffffffffffffffffffffffffff19161480620002db5750620002da8262000614565b5b9050919050565b6000806000838152602001908152602001600020600101549050919050565b6200030c82620002e2565b62000317816200067e565b62000323838362000696565b505050565b620003326200077b565b73ffffffffffffffffffffffffffffffffffffffff168173ffffffffffffffffffffffffffffffffffffffff1614620003a2576040517f08c379a0000000000000000000000000000000000000000000000000000000008152600401620003999062000ed4565b60405180910390fd5b620003ae828262000783565b5050565b6000801b620003c1816200067e565b620003d06000801b8362000696565b5050565b60008060001b620003e5816200067e565b6000604051620003f59062000b83565b604051809103906000f08015801562000412573d6000803e3d6000fd5b5090506002819080600181540180825580915050600190039060005260206000200160009091909190916101000a81548173ffffffffffffffffffffffffffffffffffffffff021916908373ffffffffffffffffffffffffffffffffffffffff16021790555060018060008282546200048c919062000f2f565b92505081905550809250505090565b6000801b620004aa816200067e565b60008390508073ffffffffffffffffffffffffffffffffffffffff1663397a8bab846040518263ffffffff1660e01b8152600401620004ea919062000de9565b600060405180830381600087803b1580156200050557600080fd5b505af11580156200051a573d6000803e3d6000fd5b5050505050505050565b600080600084815260200190815260200160002060000160008373ffffffffffffffffffffffffffffffffffffffff1673ffffffffffffffffffffffffffffffffffffffff16815260200190815260200160002060009054906101000a900460ff16905092915050565b6000801b81565b6000600260018054620005a9919062000f8c565b81548110620005bd57620005bc62000fc7565b5b9060005260206000200160009054906101000a900473ffffffffffffffffffffffffffffffffffffffff16905090565b620005f882620002e2565b62000603816200067e565b6200060f838362000783565b505050565b60007f01ffc9a7000000000000000000000000000000000000000000000000000000007bffffffffffffffffffffffffffffffffffffffffffffffffffffffff1916827bffffffffffffffffffffffffffffffffffffffffffffffffffffffff1916149050919050565b62000693816200068d6200077b565b62000869565b50565b620006a2828262000524565b6200077757600160008084815260200190815260200160002060000160008373ffffffffffffffffffffffffffffffffffffffff1673ffffffffffffffffffffffffffffffffffffffff16815260200190815260200160002060006101000a81548160ff0219169083151502179055506200071c6200077b565b73ffffffffffffffffffffffffffffffffffffffff168173ffffffffffffffffffffffffffffffffffffffff16837f2f8788117e7eff1d82e926ec794901d17c78024a50270940304540a733656f0d60405160405180910390a45b5050565b600033905090565b6200078f828262000524565b156200086557600080600084815260200190815260200160002060000160008373ffffffffffffffffffffffffffffffffffffffff1673ffffffffffffffffffffffffffffffffffffffff16815260200190815260200160002060006101000a81548160ff0219169083151502179055506200080a6200077b565b73ffffffffffffffffffffffffffffffffffffffff168173ffffffffffffffffffffffffffffffffffffffff16837ff6391f5c32d9c69d2a47ea670b442974b53935d1edc7fd64eb21e047a839171b60405160405180910390a45b5050565b62000875828262000524565b620008f5576200088581620008f9565b620008958360001c602062000928565b604051602001620008a892919062001119565b6040516020818303038152906040526040517f08c379a0000000000000000000000000000000000000000000000000000000008152600401620008ec9190620011ad565b60405180910390fd5b5050565b6060620009218273ffffffffffffffffffffffffffffffffffffffff16601460ff1662000928565b9050919050565b6060600060028360026200093d9190620011d1565b62000949919062000f2f565b67ffffffffffffffff81111562000965576200096462001232565b5b6040519080825280601f01601f191660200182016040528015620009985781602001600182028036833780820191505090505b5090507f300000000000000000000000000000000000000000000000000000000000000081600081518110620009d357620009d262000fc7565b5b60200101907effffffffffffffffffffffffffffffffffffffffffffffffffffffffffffff1916908160001a9053507f78000000000000000000000000000000000000000000000000000000000000008160018151811062000a3a5762000a3962000fc7565b5b60200101907effffffffffffffffffffffffffffffffffffffffffffffffffffffffffffff1916908160001a9053506000600184600262000a7c9190620011d1565b62000a88919062000f2f565b90505b600181111562000b32577f3031323334353637383961626364656600000000000000000000000000000000600f86166010811062000ace5762000acd62000fc7565b5b1a60f81b82828151811062000ae85762000ae762000fc7565b5b60200101907effffffffffffffffffffffffffffffffffffffffffffffffffffffffffffff1916908160001a905350600485901c94508062000b2a9062001261565b905062000a8b565b506000841462000b79576040517f08c379a000000000000000000000000000000000000000000000000000000000815260040162000b7090620012e0565b60405180910390fd5b8091505092915050565b611ac4806200130383390190565b600080fd5b60007fffffffff0000000000000000000000000000000000000000000000000000000082169050919050565b62000bcd8162000b96565b811462000bd957600080fd5b50565b60008135905062000bed8162000bc2565b92915050565b60006020828403121562000c0c5762000c0b62000b91565b5b600062000c1c8482850162000bdc565b91505092915050565b60008115159050919050565b62000c3c8162000c25565b82525050565b600060208201905062000c59600083018462000c31565b92915050565b6000819050919050565b62000c748162000c5f565b811462000c8057600080fd5b50565b60008135905062000c948162000c69565b92915050565b60006020828403121562000cb35762000cb262000b91565b5b600062000cc38482850162000c83565b91505092915050565b62000cd78162000c5f565b82525050565b600060208201905062000cf4600083018462000ccc565b92915050565b600073ffffffffffffffffffffffffffffffffffffffff82169050919050565b600062000d278262000cfa565b9050919050565b62000d398162000d1a565b811462000d4557600080fd5b50565b60008135905062000d598162000d2e565b92915050565b6000806040838503121562000d795762000d7862000b91565b5b600062000d898582860162000c83565b925050602062000d9c8582860162000d48565b9150509250929050565b60006020828403121562000dbf5762000dbe62000b91565b5b600062000dcf8482850162000d48565b91505092915050565b62000de38162000d1a565b82525050565b600060208201905062000e00600083018462000dd8565b92915050565b6000806040838503121562000e205762000e1f62000b91565b5b600062000e308582860162000d48565b925050602062000e438582860162000d48565b9150509250929050565b600082825260208201905092915050565b7f416363657373436f6e74726f6c3a2063616e206f6e6c792072656e6f756e636560008201527f20726f6c657320666f722073656c660000000000000000000000000000000000602082015250565b600062000ebc602f8362000e4d565b915062000ec98262000e5e565b604082019050919050565b6000602082019050818103600083015262000eef8162000ead565b9050919050565b6000819050919050565b7f4e487b7100000000000000000000000000000000000000000000000000000000600052601160045260246000fd5b600062000f3c8262000ef6565b915062000f498362000ef6565b9250827fffffffffffffffffffffffffffffffffffffffffffffffffffffffffffffffff0382111562000f815762000f8062000f00565b5b828201905092915050565b600062000f998262000ef6565b915062000fa68362000ef6565b92508282101562000fbc5762000fbb62000f00565b5b828203905092915050565b7f4e487b7100000000000000000000000000000000000000000000000000000000600052603260045260246000fd5b600081905092915050565b7f416363657373436f6e74726f6c3a206163636f756e7420000000000000000000600082015250565b60006200103960178362000ff6565b9150620010468262001001565b601782019050919050565b600081519050919050565b60005b838110156200107c5780820151818401526020810190506200105f565b838111156200108c576000848401525b50505050565b60006200109f8262001051565b620010ab818562000ff6565b9350620010bd8185602086016200105c565b80840191505092915050565b7f206973206d697373696e6720726f6c6520000000000000000000000000000000600082015250565b60006200110160118362000ff6565b91506200110e82620010c9565b601182019050919050565b600062001126826200102a565b915062001134828562001092565b91506200114182620010f2565b91506200114f828462001092565b91508190509392505050565b6000601f19601f8301169050919050565b6000620011798262001051565b62001185818562000e4d565b9350620011978185602086016200105c565b620011a2816200115b565b840191505092915050565b60006020820190508181036000830152620011c981846200116c565b905092915050565b6000620011de8262000ef6565b9150620011eb8362000ef6565b9250817fffffffffffffffffffffffffffffffffffffffffffffffffffffffffffffffff048311821515161562001227576200122662000f00565b5b828202905092915050565b7f4e487b7100000000000000000000000000000000000000000000000000000000600052604160045260246000fd5b60006200126e8262000ef6565b9150600082141562001285576200128462000f00565b5b600182039050919050565b7f537472696e67733a20686578206c656e67746820696e73756666696369656e74600082015250565b6000620012c860208362000e4d565b9150620012d58262001290565b602082019050919050565b60006020820190508181036000830152620012fb81620012b9565b905091905056fe60806040523480156200001157600080fd5b50620000276000801b336200005b60201b60201c565b6000600160006101000a81548160ff0219169083600181111562000050576200004f620001be565b5b0217905550620001ed565b6200006d82826200014c60201b60201c565b6200014857600160008084815260200190815260200160002060000160008373ffffffffffffffffffffffffffffffffffffffff1673ffffffffffffffffffffffffffffffffffffffff16815260200190815260200160002060006101000a81548160ff021916908315150217905550620000ed620001b660201b60201c565b73ffffffffffffffffffffffffffffffffffffffff168173ffffffffffffffffffffffffffffffffffffffff16837f2f8788117e7eff1d82e926ec794901d17c78024a50270940304540a733656f0d60405160405180910390a45b5050565b600080600084815260200190815260200160002060000160008373ffffffffffffffffffffffffffffffffffffffff1673ffffffffffffffffffffffffffffffffffffffff16815260200190815260200160002060009054906101000a900460ff16905092915050565b600033905090565b7f4e487b7100000000000000000000000000000000000000000000000000000000600052602160045260246000fd5b6118c780620001fd6000396000f3fe6080604052600436106100ec5760003560e01c806343d726d61161008a578063a217fddf11610059578063a217fddf146102e9578063c19d93fb14610314578063d547741f1461033f578063fa89401a14610368576100f3565b806343d726d6146102505780636e353a1d146102675780636f485d6c1461028357806391d14854146102ac576100f3565b80632f2ff15d116100c65780632f2ff15d1461019857806336568abe146101c1578063397a8bab146101ea5780633dd2281d14610213576100f3565b806301ffc9a7146100f55780630a2f487b14610132578063248a9ca31461015b576100f3565b366100f357005b005b34801561010157600080fd5b5061011c60048036038101906101179190611025565b610391565b604051610129919061106d565b60405180910390f35b34801561013e57600080fd5b506101596004803603810190610154919061111c565b61040b565b005b34801561016757600080fd5b50610182600480360381019061017d9190611192565b610507565b60405161018f91906111ce565b60405180910390f35b3480156101a457600080fd5b506101bf60048036038101906101ba91906111e9565b610526565b005b3480156101cd57600080fd5b506101e860048036038101906101e391906111e9565b610547565b005b3480156101f657600080fd5b50610211600480360381019061020c9190611229565b6105ca565b005b34801561021f57600080fd5b5061023a60048036038101906102359190611229565b6105e8565b6040516102479190611265565b60405180910390f35b34801561025c57600080fd5b50610265610600565b005b610281600480360381019061027c91906112be565b6106a6565b005b34801561028f57600080fd5b506102aa60048036038101906102a5919061111c565b610764565b005b3480156102b857600080fd5b506102d360048036038101906102ce91906111e9565b61080c565b6040516102e0919061106d565b60405180910390f35b3480156102f557600080fd5b506102fe610876565b60405161030b91906111ce565b60405180910390f35b34801561032057600080fd5b5061032961087d565b6040516103369190611362565b60405180910390f35b34801561034b57600080fd5b50610366600480360381019061036191906111e9565b610890565b005b34801561037457600080fd5b5061038f600480360381019061038a91906112be565b6108b1565b005b60007f7965db0b000000000000000000000000000000000000000000000000000000007bffffffffffffffffffffffffffffffffffffffffffffffffffffffff1916827bffffffffffffffffffffffffffffffffffffffffffffffffffffffff19161480610404575061040382610a93565b5b9050919050565b6000801b61041881610afd565b6000600260008573ffffffffffffffffffffffffffffffffffffffff1673ffffffffffffffffffffffffffffffffffffffff16815260200190815260200160002054101561046557600080fd5b81600260008573ffffffffffffffffffffffffffffffffffffffff1673ffffffffffffffffffffffffffffffffffffffff16815260200190815260200160002054106105025781600260008573ffffffffffffffffffffffffffffffffffffffff1673ffffffffffffffffffffffffffffffffffffffff16815260200190815260200160002060008282546104fa91906113ac565b925050819055505b505050565b6000806000838152602001908152602001600020600101549050919050565b61052f82610507565b61053881610afd565b6105428383610b11565b505050565b61054f610bf1565b73ffffffffffffffffffffffffffffffffffffffff168173ffffffffffffffffffffffffffffffffffffffff16146105bc576040517f08c379a00000000000000000000000000000000000000000000000000000000081526004016105b390611463565b60405180910390fd5b6105c68282610bf9565b5050565b6000801b6105d781610afd565b6105e46000801b83610b11565b5050565b60026020528060005260406000206000915090505481565b6000801b61060d81610afd565b60006001811115610621576106206112eb565b5b600160009054906101000a900460ff166001811115610643576106426112eb565b5b1461064d57600080fd5b60018060006101000a81548160ff02191690836001811115610672576106716112eb565b5b02179055507f1cdde67b72a90f19919ac732a437ac2f7a10fc128d28c2a6e525d89ce5cd9d3a60405160405180910390a150565b6000801b6106b381610afd565b60008273ffffffffffffffffffffffffffffffffffffffff16476040516106d9906114b4565b60006040518083038185875af1925050503d8060008114610716576040519150601f19603f3d011682016040523d82523d6000602084013e61071b565b606091505b505090508061075f576040517f08c379a000000000000000000000000000000000000000000000000000000000815260040161075690611515565b60405180910390fd5b505050565b60006001811115610778576107776112eb565b5b600160009054906101000a900460ff16600181111561079a576107996112eb565b5b146107a457600080fd5b6000801b6107b181610afd565b81600260008573ffffffffffffffffffffffffffffffffffffffff1673ffffffffffffffffffffffffffffffffffffffff16815260200190815260200160002060008282546108009190611535565b92505081905550505050565b600080600084815260200190815260200160002060000160008373ffffffffffffffffffffffffffffffffffffffff1673ffffffffffffffffffffffffffffffffffffffff16815260200190815260200160002060009054906101000a900460ff16905092915050565b6000801b81565b600160009054906101000a900460ff1681565b61089982610507565b6108a281610afd565b6108ac8383610bf9565b505050565b6000801b6108be81610afd565b6000600260008473ffffffffffffffffffffffffffffffffffffffff1673ffffffffffffffffffffffffffffffffffffffff168152602001908152602001600020541161090a57600080fd5b6000600260008473ffffffffffffffffffffffffffffffffffffffff1673ffffffffffffffffffffffffffffffffffffffff1681526020019081526020016000205490506000600260008573ffffffffffffffffffffffffffffffffffffffff1673ffffffffffffffffffffffffffffffffffffffff1681526020019081526020016000208190555060008373ffffffffffffffffffffffffffffffffffffffff16826040516109b9906114b4565b60006040518083038185875af1925050503d80600081146109f6576040519150601f19603f3d011682016040523d82523d6000602084013e6109fb565b606091505b5050905080610a3f576040517f08c379a0000000000000000000000000000000000000000000000000000000008152600401610a3690611515565b60405180910390fd5b8373ffffffffffffffffffffffffffffffffffffffff167fd7dee2702d63ad89917b6a4da9981c90c4d24f8c2bdfd64c604ecae57d8d065183604051610a859190611265565b60405180910390a250505050565b60007f01ffc9a7000000000000000000000000000000000000000000000000000000007bffffffffffffffffffffffffffffffffffffffffffffffffffffffff1916827bffffffffffffffffffffffffffffffffffffffffffffffffffffffff1916149050919050565b610b0e81610b09610bf1565b610cda565b50565b610b1b828261080c565b610bed57600160008084815260200190815260200160002060000160008373ffffffffffffffffffffffffffffffffffffffff1673ffffffffffffffffffffffffffffffffffffffff16815260200190815260200160002060006101000a81548160ff021916908315150217905550610b92610bf1565b73ffffffffffffffffffffffffffffffffffffffff168173ffffffffffffffffffffffffffffffffffffffff16837f2f8788117e7eff1d82e926ec794901d17c78024a50270940304540a733656f0d60405160405180910390a45b5050565b600033905090565b610c03828261080c565b15610cd657600080600084815260200190815260200160002060000160008373ffffffffffffffffffffffffffffffffffffffff1673ffffffffffffffffffffffffffffffffffffffff16815260200190815260200160002060006101000a81548160ff021916908315150217905550610c7b610bf1565b73ffffffffffffffffffffffffffffffffffffffff168173ffffffffffffffffffffffffffffffffffffffff16837ff6391f5c32d9c69d2a47ea670b442974b53935d1edc7fd64eb21e047a839171b60405160405180910390a45b5050565b610ce4828261080c565b610d5b57610cf181610d5f565b610cff8360001c6020610d8c565b604051602001610d1092919061169d565b6040516020818303038152906040526040517f08c379a0000000000000000000000000000000000000000000000000000000008152600401610d529190611721565b60405180910390fd5b5050565b6060610d858273ffffffffffffffffffffffffffffffffffffffff16601460ff16610d8c565b9050919050565b606060006002836002610d9f9190611743565b610da99190611535565b67ffffffffffffffff811115610dc257610dc161179d565b5b6040519080825280601f01601f191660200182016040528015610df45781602001600182028036833780820191505090505b5090507f300000000000000000000000000000000000000000000000000000000000000081600081518110610e2c57610e2b6117cc565b5b60200101907effffffffffffffffffffffffffffffffffffffffffffffffffffffffffffff1916908160001a9053507f780000000000000000000000000000000000000000000000000000000000000081600181518110610e9057610e8f6117cc565b5b60200101907effffffffffffffffffffffffffffffffffffffffffffffffffffffffffffff1916908160001a90535060006001846002610ed09190611743565b610eda9190611535565b90505b6001811115610f7a577f3031323334353637383961626364656600000000000000000000000000000000600f861660108110610f1c57610f1b6117cc565b5b1a60f81b828281518110610f3357610f326117cc565b5b60200101907effffffffffffffffffffffffffffffffffffffffffffffffffffffffffffff1916908160001a905350600485901c945080610f73906117fb565b9050610edd565b5060008414610fbe576040517f08c379a0000000000000000000000000000000000000000000000000000000008152600401610fb590611871565b60405180910390fd5b8091505092915050565b600080fd5b60007fffffffff0000000000000000000000000000000000000000000000000000000082169050919050565b61100281610fcd565b811461100d57600080fd5b50565b60008135905061101f81610ff9565b92915050565b60006020828403121561103b5761103a610fc8565b5b600061104984828501611010565b91505092915050565b60008115159050919050565b61106781611052565b82525050565b6000602082019050611082600083018461105e565b92915050565b600073ffffffffffffffffffffffffffffffffffffffff82169050919050565b60006110b382611088565b9050919050565b6110c3816110a8565b81146110ce57600080fd5b50565b6000813590506110e0816110ba565b92915050565b6000819050919050565b6110f9816110e6565b811461110457600080fd5b50565b600081359050611116816110f0565b92915050565b6000806040838503121561113357611132610fc8565b5b6000611141858286016110d1565b925050602061115285828601611107565b9150509250929050565b6000819050919050565b61116f8161115c565b811461117a57600080fd5b50565b60008135905061118c81611166565b92915050565b6000602082840312156111a8576111a7610fc8565b5b60006111b68482850161117d565b91505092915050565b6111c88161115c565b82525050565b60006020820190506111e360008301846111bf565b92915050565b60008060408385031215611200576111ff610fc8565b5b600061120e8582860161117d565b925050602061121f858286016110d1565b9150509250929050565b60006020828403121561123f5761123e610fc8565b5b600061124d848285016110d1565b91505092915050565b61125f816110e6565b82525050565b600060208201905061127a6000830184611256565b92915050565b600061128b82611088565b9050919050565b61129b81611280565b81146112a657600080fd5b50565b6000813590506112b881611292565b92915050565b6000602082840312156112d4576112d3610fc8565b5b60006112e2848285016112a9565b91505092915050565b7f4e487b7100000000000000000000000000000000000000000000000000000000600052602160045260246000fd5b6002811061132b5761132a6112eb565b5b50565b600081905061133c8261131a565b919050565b600061134c8261132e565b9050919050565b61135c81611341565b82525050565b60006020820190506113776000830184611353565b92915050565b7f4e487b7100000000000000000000000000000000000000000000000000000000600052601160045260246000fd5b60006113b7826110e6565b91506113c2836110e6565b9250828210156113d5576113d461137d565b5b828203905092915050565b600082825260208201905092915050565b7f416363657373436f6e74726f6c3a2063616e206f6e6c792072656e6f756e636560008201527f20726f6c657320666f722073656c660000000000000000000000000000000000602082015250565b600061144d602f836113e0565b9150611458826113f1565b604082019050919050565b6000602082019050818103600083015261147c81611440565b9050919050565b600081905092915050565b50565b600061149e600083611483565b91506114a98261148e565b600082019050919050565b60006114bf82611491565b9150819050919050565b7f4574686572207472616e73666572206661696c65642e00000000000000000000600082015250565b60006114ff6016836113e0565b915061150a826114c9565b602082019050919050565b6000602082019050818103600083015261152e816114f2565b9050919050565b6000611540826110e6565b915061154b836110e6565b9250827fffffffffffffffffffffffffffffffffffffffffffffffffffffffffffffffff038211156115805761157f61137d565b5b828201905092915050565b600081905092915050565b7f416363657373436f6e74726f6c3a206163636f756e7420000000000000000000600082015250565b60006115cc60178361158b565b91506115d782611596565b601782019050919050565b600081519050919050565b60005b8381101561160b5780820151818401526020810190506115f0565b8381111561161a576000848401525b50505050565b600061162b826115e2565b611635818561158b565b93506116458185602086016115ed565b80840191505092915050565b7f206973206d697373696e6720726f6c6520000000000000000000000000000000600082015250565b600061168760118361158b565b915061169282611651565b601182019050919050565b60006116a8826115bf565b91506116b48285611620565b91506116bf8261167a565b91506116cb8284611620565b91508190509392505050565b6000601f19601f8301169050919050565b60006116f3826115e2565b6116fd81856113e0565b935061170d8185602086016115ed565b611716816116d7565b840191505092915050565b6000602082019050818103600083015261173b81846116e8565b905092915050565b600061174e826110e6565b9150611759836110e6565b9250817fffffffffffffffffffffffffffffffffffffffffffffffffffffffffffffffff04831182151516156117925761179161137d565b5b828202905092915050565b7f4e487b7100000000000000000000000000000000000000000000000000000000600052604160045260246000fd5b7f4e487b7100000000000000000000000000000000000000000000000000000000600052603260045260246000fd5b6000611806826110e6565b9150600082141561181a5761181961137d565b5b600182039050919050565b7f537472696e67733a20686578206c656e67746820696e73756666696369656e74600082015250565b600061185b6020836113e0565b915061186682611825565b602082019050919050565b6000602082019050818103600083015261188a8161184e565b905091905056fea264697066735822122091ef2b44ad607636ee74b45849e92cf34e87c0da9d4119d41306a99dd35497cf64736f6c63430008090033a26469706673582212207178394ac6abc70ec6b8659be5418f581b69943590f70ba2e3962b2e98d7cb8764736f6c63430008090033",
  "linkReferences": {},
  "deployedLinkReferences": {}
}