{
  "_format": "hh-sol-artifact-1",
  "contractName": "MoonlightFactory",
  "sourceName": "contracts/old-contracts/MoonlightFactory.sol",
  "abi": [
    {
      "inputs": [],
      "stateMutability": "nonpayable",
      "type": "constructor"
    },
    {
      "anonymous": false,
      "inputs": [
        {
          "indexed": true,
          "internalType": "address",
          "name": "previousOwner",
          "type": "address"
        },
        {
          "indexed": true,
          "internalType": "address",
          "name": "newOwner",
          "type": "address"
        }
      ],
      "name": "OwnershipTransferred",
      "type": "event"
    },
    {
      "inputs": [
        {
          "internalType": "address",
          "name": "",
          "type": "address"
        }
      ],
      "name": "crowdsaleToToken",
      "outputs": [
        {
          "internalType": "contract MoonlightNFT",
          "name": "",
          "type": "address"
        }
      ],
      "stateMutability": "view",
      "type": "function"
    },
    {
      "inputs": [
        {
          "internalType": "address payable",
          "name": "crowdsale",
          "type": "address"
        },
        {
          "internalType": "uint256",
          "name": "NFTbaseId",
          "type": "uint256"
        },
        {
          "internalType": "uint256",
          "name": "_closingTime",
          "type": "uint256"
        }
      ],
      "name": "migration",
      "outputs": [],
      "stateMutability": "nonpayable",
      "type": "function"
    },
    {
      "inputs": [],
      "name": "owner",
      "outputs": [
        {
          "internalType": "address",
          "name": "",
          "type": "address"
        }
      ],
      "stateMutability": "view",
      "type": "function"
    },
    {
      "inputs": [],
      "name": "renounceOwnership",
      "outputs": [],
      "stateMutability": "nonpayable",
      "type": "function"
    },
    {
      "inputs": [
        {
          "internalType": "uint256",
          "name": "_rate",
          "type": "uint256"
        },
        {
          "internalType": "string",
          "name": "name",
          "type": "string"
        },
        {
          "internalType": "string",
          "name": "symbol",
          "type": "string"
        },
        {
          "internalType": "uint256",
          "name": "NFTbaseId",
          "type": "uint256"
        },
        {
          "internalType": "uint256",
          "name": "_openingTime",
          "type": "uint256"
        },
        {
          "internalType": "uint256",
          "name": "_closingTime",
          "type": "uint256"
        }
      ],
      "name": "startMoonlightCrowdsale",
      "outputs": [],
      "stateMutability": "nonpayable",
      "type": "function"
    },
    {
      "inputs": [
        {
          "internalType": "address",
          "name": "newOwner",
          "type": "address"
        }
      ],
      "name": "transferOwnership",
      "outputs": [],
      "stateMutability": "nonpayable",
      "type": "function"
    }
  ],
  "bytecode": "0x608060405234801561001057600080fd5b5061002d61002261003260201b60201c565b61003a60201b60201c565b6100fe565b600033905090565b60008060009054906101000a900473ffffffffffffffffffffffffffffffffffffffff169050816000806101000a81548173ffffffffffffffffffffffffffffffffffffffff021916908373ffffffffffffffffffffffffffffffffffffffff1602179055508173ffffffffffffffffffffffffffffffffffffffff168173ffffffffffffffffffffffffffffffffffffffff167f8be0079c531659141344cd1fd0a4f28419497f9722a3daafe3b4186f6b6457e060405160405180910390a35050565b6176be8061010d6000396000f3fe60806040523480156200001157600080fd5b50600436106200006a5760003560e01c8063715018a6146200006f5780637260c4a9146200007b5780638da5cb5b14620000b15780639a09ef3214620000d3578063e17372bf14620000f3578063f2fde38b1462000113575b600080fd5b6200007962000133565b005b62000099600480360381019062000093919062000752565b6200014b565b604051620000a89190620007ef565b60405180910390f35b620000bb6200017e565b604051620000ca91906200081d565b60405180910390f35b620000f16004803603810190620000eb9190620008ba565b620001a7565b005b6200011160048036038101906200010b919062000a78565b620002f9565b005b6200013160048036038101906200012b919062000752565b620004e1565b005b6200013d6200056c565b620001496000620005f1565b565b60026020528060005260406000206000915054906101000a900473ffffffffffffffffffffffffffffffffffffffff1681565b60008060009054906101000a900473ffffffffffffffffffffffffffffffffffffffff16905090565b620001b16200056c565b6000600260008573ffffffffffffffffffffffffffffffffffffffff1673ffffffffffffffffffffffffffffffffffffffff16815260200190815260200160002060009054906101000a900473ffffffffffffffffffffffffffffffffffffffff1690508073ffffffffffffffffffffffffffffffffffffffff1663e640d862846040518263ffffffff1660e01b815260040162000250919062000b63565b600060405180830381600087803b1580156200026b57600080fd5b505af115801562000280573d6000803e3d6000fd5b505050508373ffffffffffffffffffffffffffffffffffffffff1663e640d862836040518263ffffffff1660e01b8152600401620002bf919062000b63565b600060405180830381600087803b158015620002da57600080fd5b505af1158015620002ef573d6000803e3d6000fd5b5050505050505050565b620003036200056c565b60008585856040516200031690620006bd565b620003249392919062000c13565b604051809103906000f08015801562000341573d6000803e3d6000fd5b5090506000878285856040516200035890620006cb565b62000367949392919062000c5e565b604051809103906000f08015801562000384573d6000803e3d6000fd5b5090508173ffffffffffffffffffffffffffffffffffffffff1663d500d44f826040518263ffffffff1660e01b8152600401620003c291906200081d565b600060405180830381600087803b158015620003dd57600080fd5b505af1158015620003f2573d6000803e3d6000fd5b505050506001819080600181540180825580915050600190039060005260206000200160009091909190916101000a81548173ffffffffffffffffffffffffffffffffffffffff021916908373ffffffffffffffffffffffffffffffffffffffff16021790555081600260008373ffffffffffffffffffffffffffffffffffffffff1673ffffffffffffffffffffffffffffffffffffffff16815260200190815260200160002060006101000a81548173ffffffffffffffffffffffffffffffffffffffff021916908373ffffffffffffffffffffffffffffffffffffffff1602179055505050505050505050565b620004eb6200056c565b600073ffffffffffffffffffffffffffffffffffffffff168173ffffffffffffffffffffffffffffffffffffffff1614156200055e576040517f08c379a0000000000000000000000000000000000000000000000000000000008152600401620005559062000d21565b60405180910390fd5b6200056981620005f1565b50565b62000576620006b5565b73ffffffffffffffffffffffffffffffffffffffff16620005966200017e565b73ffffffffffffffffffffffffffffffffffffffff1614620005ef576040517f08c379a0000000000000000000000000000000000000000000000000000000008152600401620005e69062000d93565b60405180910390fd5b565b60008060009054906101000a900473ffffffffffffffffffffffffffffffffffffffff169050816000806101000a81548173ffffffffffffffffffffffffffffffffffffffff021916908373ffffffffffffffffffffffffffffffffffffffff1602179055508173ffffffffffffffffffffffffffffffffffffffff168173ffffffffffffffffffffffffffffffffffffffff167f8be0079c531659141344cd1fd0a4f28419497f9722a3daafe3b4186f6b6457e060405160405180910390a35050565b600033905090565b61417e8062000db683390190565b6127558062004f3483390190565b6000604051905090565b600080fd5b600080fd5b600073ffffffffffffffffffffffffffffffffffffffff82169050919050565b60006200071a82620006ed565b9050919050565b6200072c816200070d565b81146200073857600080fd5b50565b6000813590506200074c8162000721565b92915050565b6000602082840312156200076b576200076a620006e3565b5b60006200077b848285016200073b565b91505092915050565b6000819050919050565b6000620007af620007a9620007a384620006ed565b62000784565b620006ed565b9050919050565b6000620007c3826200078e565b9050919050565b6000620007d782620007b6565b9050919050565b620007e981620007ca565b82525050565b6000602082019050620008066000830184620007de565b92915050565b62000817816200070d565b82525050565b60006020820190506200083460008301846200080c565b92915050565b60006200084782620006ed565b9050919050565b62000859816200083a565b81146200086557600080fd5b50565b60008135905062000879816200084e565b92915050565b6000819050919050565b62000894816200087f565b8114620008a057600080fd5b50565b600081359050620008b48162000889565b92915050565b600080600060608486031215620008d657620008d5620006e3565b5b6000620008e68682870162000868565b9350506020620008f986828701620008a3565b92505060406200090c86828701620008a3565b9150509250925092565b600080fd5b600080fd5b6000601f19601f8301169050919050565b7f4e487b7100000000000000000000000000000000000000000000000000000000600052604160045260246000fd5b6200096b8262000920565b810181811067ffffffffffffffff821117156200098d576200098c62000931565b5b80604052505050565b6000620009a2620006d9565b9050620009b0828262000960565b919050565b600067ffffffffffffffff821115620009d357620009d262000931565b5b620009de8262000920565b9050602081019050919050565b82818337600083830152505050565b600062000a1162000a0b84620009b5565b62000996565b90508281526020810184848401111562000a305762000a2f6200091b565b5b62000a3d848285620009eb565b509392505050565b600082601f83011262000a5d5762000a5c62000916565b5b813562000a6f848260208601620009fa565b91505092915050565b60008060008060008060c0878903121562000a985762000a97620006e3565b5b600062000aa889828a01620008a3565b965050602087013567ffffffffffffffff81111562000acc5762000acb620006e8565b5b62000ada89828a0162000a45565b955050604087013567ffffffffffffffff81111562000afe5762000afd620006e8565b5b62000b0c89828a0162000a45565b945050606062000b1f89828a01620008a3565b935050608062000b3289828a01620008a3565b92505060a062000b4589828a01620008a3565b9150509295509295509295565b62000b5d816200087f565b82525050565b600060208201905062000b7a600083018462000b52565b92915050565b600081519050919050565b600082825260208201905092915050565b60005b8381101562000bbc57808201518184015260208101905062000b9f565b8381111562000bcc576000848401525b50505050565b600062000bdf8262000b80565b62000beb818562000b8b565b935062000bfd81856020860162000b9c565b62000c088162000920565b840191505092915050565b6000606082019050818103600083015262000c2f818662000bd2565b9050818103602083015262000c45818562000bd2565b905062000c56604083018462000b52565b949350505050565b600060808201905062000c75600083018762000b52565b62000c846020830186620007de565b62000c93604083018562000b52565b62000ca2606083018462000b52565b95945050505050565b7f4f776e61626c653a206e6577206f776e657220697320746865207a65726f206160008201527f6464726573730000000000000000000000000000000000000000000000000000602082015250565b600062000d0960268362000b8b565b915062000d168262000cab565b604082019050919050565b6000602082019050818103600083015262000d3c8162000cfa565b9050919050565b7f4f776e61626c653a2063616c6c6572206973206e6f7420746865206f776e6572600082015250565b600062000d7b60208362000b8b565b915062000d888262000d43565b602082019050919050565b6000602082019050818103600083015262000dae8162000d6c565b905091905056fe60806040523480156200001157600080fd5b506040516200417e3803806200417e8339818101604052810190620000379190620004b1565b828281600190805190602001906200005192919062000229565b5080600290805190602001906200006a92919062000229565b505050620000826000801b33620000c460201b60201c565b620000b47f9f2df0fed2c77648de5860a4cc508cd0818c85b8b8a1ab4ceeef8d981c8956a633620000c460201b60201c565b80600881905550505050620005b0565b620000d68282620001b660201b60201c565b620001b25760016007600084815260200190815260200160002060000160008373ffffffffffffffffffffffffffffffffffffffff1673ffffffffffffffffffffffffffffffffffffffff16815260200190815260200160002060006101000a81548160ff021916908315150217905550620001576200022160201b60201c565b73ffffffffffffffffffffffffffffffffffffffff168173ffffffffffffffffffffffffffffffffffffffff16837f2f8788117e7eff1d82e926ec794901d17c78024a50270940304540a733656f0d60405160405180910390a45b5050565b60006007600084815260200190815260200160002060000160008373ffffffffffffffffffffffffffffffffffffffff1673ffffffffffffffffffffffffffffffffffffffff16815260200190815260200160002060009054906101000a900460ff16905092915050565b600033905090565b82805462000237906200057a565b90600052602060002090601f0160209004810192826200025b5760008555620002a7565b82601f106200027657805160ff1916838001178555620002a7565b82800160010185558215620002a7579182015b82811115620002a657825182559160200191906001019062000289565b5b509050620002b69190620002ba565b5090565b5b80821115620002d5576000816000905550600101620002bb565b5090565b6000604051905090565b600080fd5b600080fd5b600080fd5b600080fd5b6000601f19601f8301169050919050565b7f4e487b7100000000000000000000000000000000000000000000000000000000600052604160045260246000fd5b6200034282620002f7565b810181811067ffffffffffffffff8211171562000364576200036362000308565b5b80604052505050565b600062000379620002d9565b905062000387828262000337565b919050565b600067ffffffffffffffff821115620003aa57620003a962000308565b5b620003b582620002f7565b9050602081019050919050565b60005b83811015620003e2578082015181840152602081019050620003c5565b83811115620003f2576000848401525b50505050565b60006200040f62000409846200038c565b6200036d565b9050828152602081018484840111156200042e576200042d620002f2565b5b6200043b848285620003c2565b509392505050565b600082601f8301126200045b576200045a620002ed565b5b81516200046d848260208601620003f8565b91505092915050565b6000819050919050565b6200048b8162000476565b81146200049757600080fd5b50565b600081519050620004ab8162000480565b92915050565b600080600060608486031215620004cd57620004cc620002e3565b5b600084015167ffffffffffffffff811115620004ee57620004ed620002e8565b5b620004fc8682870162000443565b935050602084015167ffffffffffffffff81111562000520576200051f620002e8565b5b6200052e8682870162000443565b925050604062000541868287016200049a565b9150509250925092565b7f4e487b7100000000000000000000000000000000000000000000000000000000600052602260045260246000fd5b600060028204905060018216806200059357607f821691505b60208210811415620005aa57620005a96200054b565b5b50919050565b613bbe80620005c06000396000f3fe608060405234801561001057600080fd5b50600436106101a95760003560e01c80636352211e116100f9578063b88d4fde11610097578063d539139311610071578063d5391393146104f0578063d547741f1461050e578063e640d8621461052a578063e985e9c514610546576101a9565b8063b88d4fde14610488578063c87b56dd146104a4578063d500d44f146104d4576101a9565b806391d14854116100d357806391d148541461040057806395d89b4114610430578063a217fddf1461044e578063a22cb4651461046c576101a9565b80636352211e1461038257806370a08231146103b257806374cc0d1a146103e2576101a9565b8063248a9ca31161016657806336568abe1161014057806336568abe146102fe57806340c10f191461031a57806342842e0e146103365780634f6ccce714610352576101a9565b8063248a9ca3146102825780632f2ff15d146102b25780632f745c59146102ce576101a9565b806301ffc9a7146101ae57806306fdde03146101de578063081812fc146101fc578063095ea7b31461022c57806318160ddd1461024857806323b872dd14610266575b600080fd5b6101c860048036038101906101c3919061251e565b610576565b6040516101d59190612566565b60405180910390f35b6101e6610588565b6040516101f3919061261a565b60405180910390f35b61021660048036038101906102119190612672565b61061a565b60405161022391906126e0565b60405180910390f35b61024660048036038101906102419190612727565b61069f565b005b6102506107b7565b60405161025d9190612776565b60405180910390f35b610280600480360381019061027b9190612791565b6107c1565b005b61029c6004803603810190610297919061281a565b610821565b6040516102a99190612856565b60405180910390f35b6102cc60048036038101906102c79190612871565b610841565b005b6102e860048036038101906102e39190612727565b610862565b6040516102f59190612776565b60405180910390f35b61031860048036038101906103139190612871565b610935565b005b610334600480360381019061032f9190612727565b6109b8565b005b610350600480360381019061034b9190612791565b6109f1565b005b61036c60048036038101906103679190612672565b610a11565b6040516103799190612776565b60405180910390f35b61039c60048036038101906103979190612672565b610ab4565b6040516103a991906126e0565b60405180910390f35b6103cc60048036038101906103c791906128b1565b610acc565b6040516103d99190612776565b60405180910390f35b6103ea610bbe565b6040516103f79190612776565b60405180910390f35b61041a60048036038101906104159190612871565b610bc4565b6040516104279190612566565b60405180910390f35b610438610c2f565b604051610445919061261a565b60405180910390f35b610456610cc1565b6040516104639190612856565b60405180910390f35b6104866004803603810190610481919061290a565b610cc8565b005b6104a2600480360381019061049d9190612a7f565b610e49565b005b6104be60048036038101906104b99190612672565b610eab565b6040516104cb919061261a565b60405180910390f35b6104ee60048036038101906104e991906128b1565b610f52565b005b6104f8610f8d565b6040516105059190612856565b60405180910390f35b61052860048036038101906105239190612871565b610fb1565b005b610544600480360381019061053f9190612672565b610fd2565b005b610560600480360381019061055b9190612b02565b610fea565b60405161056d9190612566565b60405180910390f35b60006105818261107e565b9050919050565b60606001805461059790612b71565b80601f01602080910402602001604051908101604052809291908181526020018280546105c390612b71565b80156106105780601f106105e557610100808354040283529160200191610610565b820191906000526020600020905b8154815290600101906020018083116105f357829003601f168201915b5050505050905090565b6000610625826110f8565b610664576040517f08c379a000000000000000000000000000000000000000000000000000000000815260040161065b90612c15565b60405180910390fd5b6005600083815260200190815260200160002060009054906101000a900473ffffffffffffffffffffffffffffffffffffffff169050919050565b60006106aa82610ab4565b90508073ffffffffffffffffffffffffffffffffffffffff168373ffffffffffffffffffffffffffffffffffffffff16141561071b576040517f08c379a000000000000000000000000000000000000000000000000000000000815260040161071290612ca7565b60405180910390fd5b8073ffffffffffffffffffffffffffffffffffffffff1661073a611106565b73ffffffffffffffffffffffffffffffffffffffff161480610769575061076881610763611106565b610fea565b5b6107a8576040517f08c379a000000000000000000000000000000000000000000000000000000000815260040161079f90612d39565b60405180910390fd5b6107b2838361110e565b505050565b6000600454905090565b6107d26107cc611106565b826111c7565b610811576040517f08c379a000000000000000000000000000000000000000000000000000000000815260040161080890612dcb565b60405180910390fd5b61081c8383836112a5565b505050565b600060076000838152602001908152602001600020600101549050919050565b61084a82610821565b61085381611528565b61085d838361153c565b505050565b60008060005b6004548110156108f35761087b816110f8565b80156108ba575061088b81610ab4565b73ffffffffffffffffffffffffffffffffffffffff168573ffffffffffffffffffffffffffffffffffffffff16145b156108e057838214156108d157809250505061092f565b81806108dc90612e1a565b9250505b80806108eb90612e1a565b915050610868565b506040517f08c379a000000000000000000000000000000000000000000000000000000000815260040161092690612ed5565b60405180910390fd5b92915050565b61093d611106565b73ffffffffffffffffffffffffffffffffffffffff168173ffffffffffffffffffffffffffffffffffffffff16146109aa576040517f08c379a00000000000000000000000000000000000000000000000000000000081526004016109a190612f67565b60405180910390fd5b6109b4828261161d565b5050565b7f9f2df0fed2c77648de5860a4cc508cd0818c85b8b8a1ab4ceeef8d981c8956a66109e281611528565b6109ec83836116ff565b505050565b610a0c83838360405180602001604052806000815250610e49565b505050565b6000610a1b6107b7565b8210610a5c576040517f08c379a0000000000000000000000000000000000000000000000000000000008152600401610a5390612ff9565b60405180910390fd5b6000805b600454811015610aac57610a73816110f8565b15610a995783821415610a8a578092505050610aaf565b8180610a9590612e1a565b9250505b8080610aa490612e1a565b915050610a60565b50505b919050565b600080610ac08361171d565b50905080915050919050565b60008073ffffffffffffffffffffffffffffffffffffffff168273ffffffffffffffffffffffffffffffffffffffff161415610b3d576040517f08c379a0000000000000000000000000000000000000000000000000000000008152600401610b349061308b565b60405180910390fd5b6000805b600454811015610bb457610b54816110f8565b15610ba357610b6281610ab4565b73ffffffffffffffffffffffffffffffffffffffff168473ffffffffffffffffffffffffffffffffffffffff161415610ba25781610b9f90612e1a565b91505b5b80610bad90612e1a565b9050610b41565b5080915050919050565b60085481565b60006007600084815260200190815260200160002060000160008373ffffffffffffffffffffffffffffffffffffffff1673ffffffffffffffffffffffffffffffffffffffff16815260200190815260200160002060009054906101000a900460ff16905092915050565b606060028054610c3e90612b71565b80601f0160208091040260200160405190810160405280929190818152602001828054610c6a90612b71565b8015610cb75780601f10610c8c57610100808354040283529160200191610cb7565b820191906000526020600020905b815481529060010190602001808311610c9a57829003601f168201915b5050505050905090565b6000801b81565b610cd0611106565b73ffffffffffffffffffffffffffffffffffffffff168273ffffffffffffffffffffffffffffffffffffffff161415610d3e576040517f08c379a0000000000000000000000000000000000000000000000000000000008152600401610d35906130f7565b60405180910390fd5b8060066000610d4b611106565b73ffffffffffffffffffffffffffffffffffffffff1673ffffffffffffffffffffffffffffffffffffffff16815260200190815260200160002060008473ffffffffffffffffffffffffffffffffffffffff1673ffffffffffffffffffffffffffffffffffffffff16815260200190815260200160002060006101000a81548160ff0219169083151502179055508173ffffffffffffffffffffffffffffffffffffffff16610df8611106565b73ffffffffffffffffffffffffffffffffffffffff167f17307eab39ab6107e8899845ad3d59bd9653f200f220920489ca2b5937696c3183604051610e3d9190612566565b60405180910390a35050565b610e5a610e54611106565b836111c7565b610e99576040517f08c379a0000000000000000000000000000000000000000000000000000000008152600401610e9090612dcb565b60405180910390fd5b610ea5848484846117ae565b50505050565b6060610eb6826110f8565b610ef5576040517f08c379a0000000000000000000000000000000000000000000000000000000008152600401610eec90613189565b60405180910390fd5b6000610eff61180c565b90506000815111610f1f5760405180602001604052806000815250610f4a565b80610f2984611823565b604051602001610f3a9291906131e5565b6040516020818303038152906040525b915050919050565b6000801b610f5f81611528565b610f897f9f2df0fed2c77648de5860a4cc508cd0818c85b8b8a1ab4ceeef8d981c8956a68361153c565b5050565b7f9f2df0fed2c77648de5860a4cc508cd0818c85b8b8a1ab4ceeef8d981c8956a681565b610fba82610821565b610fc381611528565b610fcd838361161d565b505050565b6000801b610fdf81611528565b816008819055505050565b6000600660008473ffffffffffffffffffffffffffffffffffffffff1673ffffffffffffffffffffffffffffffffffffffff16815260200190815260200160002060008373ffffffffffffffffffffffffffffffffffffffff1673ffffffffffffffffffffffffffffffffffffffff16815260200190815260200160002060009054906101000a900460ff16905092915050565b60007f7965db0b000000000000000000000000000000000000000000000000000000007bffffffffffffffffffffffffffffffffffffffffffffffffffffffff1916827bffffffffffffffffffffffffffffffffffffffffffffffffffffffff191614806110f157506110f082611984565b5b9050919050565b600060045482109050919050565b600033905090565b816005600083815260200190815260200160002060006101000a81548173ffffffffffffffffffffffffffffffffffffffff021916908373ffffffffffffffffffffffffffffffffffffffff160217905550808273ffffffffffffffffffffffffffffffffffffffff1661118183610ab4565b73ffffffffffffffffffffffffffffffffffffffff167f8c5be1e5ebec7d5bd14f71427d1e84f3dd0314c0f7b2291e5b200ac8c7c3b92560405160405180910390a45050565b60006111d2826110f8565b611211576040517f08c379a00000000000000000000000000000000000000000000000000000000081526004016112089061327b565b60405180910390fd5b600061121c83610ab4565b90508073ffffffffffffffffffffffffffffffffffffffff168473ffffffffffffffffffffffffffffffffffffffff16148061128b57508373ffffffffffffffffffffffffffffffffffffffff166112738461061a565b73ffffffffffffffffffffffffffffffffffffffff16145b8061129c575061129b8185610fea565b5b91505092915050565b6000806112b18361171d565b915091508473ffffffffffffffffffffffffffffffffffffffff168273ffffffffffffffffffffffffffffffffffffffff1614611323576040517f08c379a000000000000000000000000000000000000000000000000000000000815260040161131a9061330d565b60405180910390fd5b600073ffffffffffffffffffffffffffffffffffffffff168473ffffffffffffffffffffffffffffffffffffffff161415611393576040517f08c379a000000000000000000000000000000000000000000000000000000000815260040161138a9061339f565b60405180910390fd5b6113a08585856001611ace565b6113ab60008461110e565b60006001846113ba91906133bf565b90506113d0816000611ad490919063ffffffff16565b1580156113de575060045481105b1561144a57856003600083815260200190815260200160002060006101000a81548173ffffffffffffffffffffffffffffffffffffffff021916908373ffffffffffffffffffffffffffffffffffffffff160217905550611449816000611b2f90919063ffffffff16565b5b846003600086815260200190815260200160002060006101000a81548173ffffffffffffffffffffffffffffffffffffffff021916908373ffffffffffffffffffffffffffffffffffffffff1602179055508184146114b8576114b7846000611b2f90919063ffffffff16565b5b838573ffffffffffffffffffffffffffffffffffffffff168773ffffffffffffffffffffffffffffffffffffffff167fddf252ad1be2c89b69c2b068fc378daa952ba7f163c4a11628f55a4df523b3ef60405160405180910390a46115208686866001611b8c565b505050505050565b61153981611534611106565b611b92565b50565b6115468282610bc4565b6116195760016007600084815260200190815260200160002060000160008373ffffffffffffffffffffffffffffffffffffffff1673ffffffffffffffffffffffffffffffffffffffff16815260200190815260200160002060006101000a81548160ff0219169083151502179055506115be611106565b73ffffffffffffffffffffffffffffffffffffffff168173ffffffffffffffffffffffffffffffffffffffff16837f2f8788117e7eff1d82e926ec794901d17c78024a50270940304540a733656f0d60405160405180910390a45b5050565b6116278282610bc4565b156116fb5760006007600084815260200190815260200160002060000160008373ffffffffffffffffffffffffffffffffffffffff1673ffffffffffffffffffffffffffffffffffffffff16815260200190815260200160002060006101000a81548160ff0219169083151502179055506116a0611106565b73ffffffffffffffffffffffffffffffffffffffff168173ffffffffffffffffffffffffffffffffffffffff16837ff6391f5c32d9c69d2a47ea670b442974b53935d1edc7fd64eb21e047a839171b60405160405180910390a45b5050565b611719828260405180602001604052806000815250611c2f565b5050565b600080611729836110f8565b611768576040517f08c379a000000000000000000000000000000000000000000000000000000000815260040161175f90613487565b60405180910390fd5b61177183611c93565b90506003600082815260200190815260200160002060009054906101000a900473ffffffffffffffffffffffffffffffffffffffff169150915091565b6117b98484846112a5565b6117c7848484600185611cb0565b611806576040517f08c379a00000000000000000000000000000000000000000000000000000000081526004016117fd90613519565b60405180910390fd5b50505050565b606060405180602001604052806000815250905090565b6060600082141561186b576040518060400160405280600181526020017f3000000000000000000000000000000000000000000000000000000000000000815250905061197f565b600082905060005b6000821461189d57808061188690612e1a565b915050600a826118969190613568565b9150611873565b60008167ffffffffffffffff8111156118b9576118b8612954565b5b6040519080825280601f01601f1916602001820160405280156118eb5781602001600182028036833780820191505090505b5090505b60008514611978576001826119049190613599565b9150600a8561191391906135cd565b603061191f91906133bf565b60f81b818381518110611935576119346135fe565b5b60200101907effffffffffffffffffffffffffffffffffffffffffffffffffffffffffffff1916908160001a905350600a856119719190613568565b94506118ef565b8093505050505b919050565b60007f80ac58cd000000000000000000000000000000000000000000000000000000007bffffffffffffffffffffffffffffffffffffffffffffffffffffffff1916827bffffffffffffffffffffffffffffffffffffffffffffffffffffffff19161480611a4f57507f5b5e139f000000000000000000000000000000000000000000000000000000007bffffffffffffffffffffffffffffffffffffffffffffffffffffffff1916827bffffffffffffffffffffffffffffffffffffffffffffffffffffffff1916145b80611ab757507f780e9d63000000000000000000000000000000000000000000000000000000007bffffffffffffffffffffffffffffffffffffffffffffffffffffffff1916827bffffffffffffffffffffffffffffffffffffffffffffffffffffffff1916145b80611ac75750611ac682611e82565b5b9050919050565b50505050565b600080600883901c9050600060ff84167f8000000000000000000000000000000000000000000000000000000000000000901c9050600081866000016000858152602001908152602001600020541614159250505092915050565b6000600882901c9050600060ff83167f8000000000000000000000000000000000000000000000000000000000000000901c9050808460000160008481526020019081526020016000206000828254179250508190555050505050565b50505050565b611b9c8282610bc4565b611c2b57611bc18173ffffffffffffffffffffffffffffffffffffffff166014611eec565b611bcf8360001c6020611eec565b604051602001611be09291906136c5565b6040516020818303038152906040526040517f08c379a0000000000000000000000000000000000000000000000000000000008152600401611c22919061261a565b60405180910390fd5b5050565b60006004549050611c408484612128565b611c4e600085838686611cb0565b611c8d576040517f08c379a0000000000000000000000000000000000000000000000000000000008152600401611c8490613519565b60405180910390fd5b50505050565b6000611ca982600061230990919063ffffffff16565b9050919050565b6000611cd18573ffffffffffffffffffffffffffffffffffffffff16612402565b15611e74576001905060008490505b8385611cec91906133bf565b811015611e6e578573ffffffffffffffffffffffffffffffffffffffff1663150b7a02611d17611106565b8984876040518563ffffffff1660e01b8152600401611d399493929190613754565b602060405180830381600087803b158015611d5357600080fd5b505af1925050508015611d8457506040513d601f19601f82011682018060405250810190611d8191906137b5565b60015b611e07573d8060008114611db4576040519150601f19603f3d011682016040523d82523d6000602084013e611db9565b606091505b50600081511415611dff576040517f08c379a0000000000000000000000000000000000000000000000000000000008152600401611df690613519565b60405180910390fd5b805181602001fd5b828015611e58575063150b7a0260e01b7bffffffffffffffffffffffffffffffffffffffffffffffffffffffff1916817bffffffffffffffffffffffffffffffffffffffffffffffffffffffff1916145b9250508080611e6690612e1a565b915050611ce0565b50611e79565b600190505b95945050505050565b60007f01ffc9a7000000000000000000000000000000000000000000000000000000007bffffffffffffffffffffffffffffffffffffffffffffffffffffffff1916827bffffffffffffffffffffffffffffffffffffffffffffffffffffffff1916149050919050565b606060006002836002611eff91906137e2565b611f0991906133bf565b67ffffffffffffffff811115611f2257611f21612954565b5b6040519080825280601f01601f191660200182016040528015611f545781602001600182028036833780820191505090505b5090507f300000000000000000000000000000000000000000000000000000000000000081600081518110611f8c57611f8b6135fe565b5b60200101907effffffffffffffffffffffffffffffffffffffffffffffffffffffffffffff1916908160001a9053507f780000000000000000000000000000000000000000000000000000000000000081600181518110611ff057611fef6135fe565b5b60200101907effffffffffffffffffffffffffffffffffffffffffffffffffffffffffffff1916908160001a9053506000600184600261203091906137e2565b61203a91906133bf565b90505b60018111156120da577f3031323334353637383961626364656600000000000000000000000000000000600f86166010811061207c5761207b6135fe565b5b1a60f81b828281518110612093576120926135fe565b5b60200101907effffffffffffffffffffffffffffffffffffffffffffffffffffffffffffff1916908160001a905350600485901c9450806120d39061383c565b905061203d565b506000841461211e576040517f08c379a0000000000000000000000000000000000000000000000000000000008152600401612115906138b2565b60405180910390fd5b8091505092915050565b6000600454905060008211612172576040517f08c379a000000000000000000000000000000000000000000000000000000000815260040161216990613944565b60405180910390fd5b600073ffffffffffffffffffffffffffffffffffffffff168373ffffffffffffffffffffffffffffffffffffffff1614156121e2576040517f08c379a00000000000000000000000000000000000000000000000000000000081526004016121d9906139d6565b60405180910390fd5b6121ef6000848385611ace565b816004600082825461220191906133bf565b92505081905550826003600083815260200190815260200160002060006101000a81548173ffffffffffffffffffffffffffffffffffffffff021916908373ffffffffffffffffffffffffffffffffffffffff16021790555061226e816000611b2f90919063ffffffff16565b61227b6000848385611b8c565b60008190505b828261228d91906133bf565b81101561230357808473ffffffffffffffffffffffffffffffffffffffff16600073ffffffffffffffffffffffffffffffffffffffff167fddf252ad1be2c89b69c2b068fc378daa952ba7f163c4a11628f55a4df523b3ef60405160405180910390a480806122fb90612e1a565b915050612281565b50505050565b600080600883901c9050600060ff8416905060008560000160008481526020019081526020016000205490508160ff1881901c905060008111156123625761235081612425565b60ff168203600884901b1793506123f9565b5b6001156123f857600083116123ad576040517f08c379a00000000000000000000000000000000000000000000000000000000081526004016123a490613a68565b60405180910390fd5b82806001900393505085600001600084815260200190815260200160002054905060008111156123f3576123e081612425565b60ff0360ff16600884901b1793506123f8565b612363565b5b50505092915050565b6000808273ffffffffffffffffffffffffffffffffffffffff163b119050919050565b60006040518061012001604052806101008152602001613a89610100913960f87e818283848586878898a8b8c8d8e8f929395969799a9b9d9e9faaeb6bedeeff61246e85612497565b02901c81518110612482576124816135fe565b5b602001015160f81c60f81b60f81c9050919050565b60008082116124a557600080fd5b8160000382169050919050565b6000604051905090565b600080fd5b600080fd5b60007fffffffff0000000000000000000000000000000000000000000000000000000082169050919050565b6124fb816124c6565b811461250657600080fd5b50565b600081359050612518816124f2565b92915050565b600060208284031215612534576125336124bc565b5b600061254284828501612509565b91505092915050565b60008115159050919050565b6125608161254b565b82525050565b600060208201905061257b6000830184612557565b92915050565b600081519050919050565b600082825260208201905092915050565b60005b838110156125bb5780820151818401526020810190506125a0565b838111156125ca576000848401525b50505050565b6000601f19601f8301169050919050565b60006125ec82612581565b6125f6818561258c565b935061260681856020860161259d565b61260f816125d0565b840191505092915050565b6000602082019050818103600083015261263481846125e1565b905092915050565b6000819050919050565b61264f8161263c565b811461265a57600080fd5b50565b60008135905061266c81612646565b92915050565b600060208284031215612688576126876124bc565b5b60006126968482850161265d565b91505092915050565b600073ffffffffffffffffffffffffffffffffffffffff82169050919050565b60006126ca8261269f565b9050919050565b6126da816126bf565b82525050565b60006020820190506126f560008301846126d1565b92915050565b612704816126bf565b811461270f57600080fd5b50565b600081359050612721816126fb565b92915050565b6000806040838503121561273e5761273d6124bc565b5b600061274c85828601612712565b925050602061275d8582860161265d565b9150509250929050565b6127708161263c565b82525050565b600060208201905061278b6000830184612767565b92915050565b6000806000606084860312156127aa576127a96124bc565b5b60006127b886828701612712565b93505060206127c986828701612712565b92505060406127da8682870161265d565b9150509250925092565b6000819050919050565b6127f7816127e4565b811461280257600080fd5b50565b600081359050612814816127ee565b92915050565b6000602082840312156128305761282f6124bc565b5b600061283e84828501612805565b91505092915050565b612850816127e4565b82525050565b600060208201905061286b6000830184612847565b92915050565b60008060408385031215612888576128876124bc565b5b600061289685828601612805565b92505060206128a785828601612712565b9150509250929050565b6000602082840312156128c7576128c66124bc565b5b60006128d584828501612712565b91505092915050565b6128e78161254b565b81146128f257600080fd5b50565b600081359050612904816128de565b92915050565b60008060408385031215612921576129206124bc565b5b600061292f85828601612712565b9250506020612940858286016128f5565b9150509250929050565b600080fd5b600080fd5b7f4e487b7100000000000000000000000000000000000000000000000000000000600052604160045260246000fd5b61298c826125d0565b810181811067ffffffffffffffff821117156129ab576129aa612954565b5b80604052505050565b60006129be6124b2565b90506129ca8282612983565b919050565b600067ffffffffffffffff8211156129ea576129e9612954565b5b6129f3826125d0565b9050602081019050919050565b82818337600083830152505050565b6000612a22612a1d846129cf565b6129b4565b905082815260208101848484011115612a3e57612a3d61294f565b5b612a49848285612a00565b509392505050565b600082601f830112612a6657612a6561294a565b5b8135612a76848260208601612a0f565b91505092915050565b60008060008060808587031215612a9957612a986124bc565b5b6000612aa787828801612712565b9450506020612ab887828801612712565b9350506040612ac98782880161265d565b925050606085013567ffffffffffffffff811115612aea57612ae96124c1565b5b612af687828801612a51565b91505092959194509250565b60008060408385031215612b1957612b186124bc565b5b6000612b2785828601612712565b9250506020612b3885828601612712565b9150509250929050565b7f4e487b7100000000000000000000000000000000000000000000000000000000600052602260045260246000fd5b60006002820490506001821680612b8957607f821691505b60208210811415612b9d57612b9c612b42565b5b50919050565b7f4552433732315073693a20617070726f76656420717565727920666f72206e6f60008201527f6e6578697374656e7420746f6b656e0000000000000000000000000000000000602082015250565b6000612bff602f8361258c565b9150612c0a82612ba3565b604082019050919050565b60006020820190508181036000830152612c2e81612bf2565b9050919050565b7f4552433732315073693a20617070726f76616c20746f2063757272656e74206f60008201527f776e657200000000000000000000000000000000000000000000000000000000602082015250565b6000612c9160248361258c565b9150612c9c82612c35565b604082019050919050565b60006020820190508181036000830152612cc081612c84565b9050919050565b7f4552433732315073693a20617070726f76652063616c6c6572206973206e6f7460008201527f206f776e6572206e6f7220617070726f76656420666f7220616c6c0000000000602082015250565b6000612d23603b8361258c565b9150612d2e82612cc7565b604082019050919050565b60006020820190508181036000830152612d5281612d16565b9050919050565b7f4552433732315073693a207472616e736665722063616c6c6572206973206e6f60008201527f74206f776e6572206e6f7220617070726f766564000000000000000000000000602082015250565b6000612db560348361258c565b9150612dc082612d59565b604082019050919050565b60006020820190508181036000830152612de481612da8565b9050919050565b7f4e487b7100000000000000000000000000000000000000000000000000000000600052601160045260246000fd5b6000612e258261263c565b91507fffffffffffffffffffffffffffffffffffffffffffffffffffffffffffffffff821415612e5857612e57612deb565b5b600182019050919050565b7f4552433732315073693a206f776e657220696e646578206f7574206f6620626f60008201527f756e647300000000000000000000000000000000000000000000000000000000602082015250565b6000612ebf60248361258c565b9150612eca82612e63565b604082019050919050565b60006020820190508181036000830152612eee81612eb2565b9050919050565b7f416363657373436f6e74726f6c3a2063616e206f6e6c792072656e6f756e636560008201527f20726f6c657320666f722073656c660000000000000000000000000000000000602082015250565b6000612f51602f8361258c565b9150612f5c82612ef5565b604082019050919050565b60006020820190508181036000830152612f8081612f44565b9050919050565b7f4552433732315073693a20676c6f62616c20696e646578206f7574206f66206260008201527f6f756e6473000000000000000000000000000000000000000000000000000000602082015250565b6000612fe360258361258c565b9150612fee82612f87565b604082019050919050565b6000602082019050818103600083015261301281612fd6565b9050919050565b7f4552433732315073693a2062616c616e636520717565727920666f722074686560008201527f207a65726f206164647265737300000000000000000000000000000000000000602082015250565b6000613075602d8361258c565b915061308082613019565b604082019050919050565b600060208201905081810360008301526130a481613068565b9050919050565b7f4552433732315073693a20617070726f766520746f2063616c6c657200000000600082015250565b60006130e1601c8361258c565b91506130ec826130ab565b602082019050919050565b60006020820190508181036000830152613110816130d4565b9050919050565b7f4552433732315073693a2055524920717565727920666f72206e6f6e6578697360008201527f74656e7420746f6b656e00000000000000000000000000000000000000000000602082015250565b6000613173602a8361258c565b915061317e82613117565b604082019050919050565b600060208201905081810360008301526131a281613166565b9050919050565b600081905092915050565b60006131bf82612581565b6131c981856131a9565b93506131d981856020860161259d565b80840191505092915050565b60006131f182856131b4565b91506131fd82846131b4565b91508190509392505050565b7f4552433732315073693a206f70657261746f7220717565727920666f72206e6f60008201527f6e6578697374656e7420746f6b656e0000000000000000000000000000000000602082015250565b6000613265602f8361258c565b915061327082613209565b604082019050919050565b6000602082019050818103600083015261329481613258565b9050919050565b7f4552433732315073693a207472616e73666572206f6620746f6b656e2074686160008201527f74206973206e6f74206f776e0000000000000000000000000000000000000000602082015250565b60006132f7602c8361258c565b91506133028261329b565b604082019050919050565b60006020820190508181036000830152613326816132ea565b9050919050565b7f4552433732315073693a207472616e7366657220746f20746865207a65726f2060008201527f6164647265737300000000000000000000000000000000000000000000000000602082015250565b600061338960278361258c565b91506133948261332d565b604082019050919050565b600060208201905081810360008301526133b88161337c565b9050919050565b60006133ca8261263c565b91506133d58361263c565b9250827fffffffffffffffffffffffffffffffffffffffffffffffffffffffffffffffff0382111561340a57613409612deb565b5b828201905092915050565b7f4552433732315073693a206f776e657220717565727920666f72206e6f6e657860008201527f697374656e7420746f6b656e0000000000000000000000000000000000000000602082015250565b6000613471602c8361258c565b915061347c82613415565b604082019050919050565b600060208201905081810360008301526134a081613464565b9050919050565b7f4552433732315073693a207472616e7366657220746f206e6f6e20455243373260008201527f31526563656976657220696d706c656d656e7465720000000000000000000000602082015250565b600061350360358361258c565b915061350e826134a7565b604082019050919050565b60006020820190508181036000830152613532816134f6565b9050919050565b7f4e487b7100000000000000000000000000000000000000000000000000000000600052601260045260246000fd5b60006135738261263c565b915061357e8361263c565b92508261358e5761358d613539565b5b828204905092915050565b60006135a48261263c565b91506135af8361263c565b9250828210156135c2576135c1612deb565b5b828203905092915050565b60006135d88261263c565b91506135e38361263c565b9250826135f3576135f2613539565b5b828206905092915050565b7f4e487b7100000000000000000000000000000000000000000000000000000000600052603260045260246000fd5b7f416363657373436f6e74726f6c3a206163636f756e7420000000000000000000600082015250565b60006136636017836131a9565b915061366e8261362d565b601782019050919050565b7f206973206d697373696e6720726f6c6520000000000000000000000000000000600082015250565b60006136af6011836131a9565b91506136ba82613679565b601182019050919050565b60006136d082613656565b91506136dc82856131b4565b91506136e7826136a2565b91506136f382846131b4565b91508190509392505050565b600081519050919050565b600082825260208201905092915050565b6000613726826136ff565b613730818561370a565b935061374081856020860161259d565b613749816125d0565b840191505092915050565b600060808201905061376960008301876126d1565b61377660208301866126d1565b6137836040830185612767565b8181036060830152613795818461371b565b905095945050505050565b6000815190506137af816124f2565b92915050565b6000602082840312156137cb576137ca6124bc565b5b60006137d9848285016137a0565b91505092915050565b60006137ed8261263c565b91506137f88361263c565b9250817fffffffffffffffffffffffffffffffffffffffffffffffffffffffffffffffff048311821515161561383157613830612deb565b5b828202905092915050565b60006138478261263c565b9150600082141561385b5761385a612deb565b5b600182039050919050565b7f537472696e67733a20686578206c656e67746820696e73756666696369656e74600082015250565b600061389c60208361258c565b91506138a782613866565b602082019050919050565b600060208201905081810360008301526138cb8161388f565b9050919050565b7f4552433732315073693a207175616e74697479206d757374206265206772656160008201527f7465722030000000000000000000000000000000000000000000000000000000602082015250565b600061392e60258361258c565b9150613939826138d2565b604082019050919050565b6000602082019050818103600083015261395d81613921565b9050919050565b7f4552433732315073693a206d696e7420746f20746865207a65726f206164647260008201527f6573730000000000000000000000000000000000000000000000000000000000602082015250565b60006139c060238361258c565b91506139cb82613964565b604082019050919050565b600060208201905081810360008301526139ef816139b3565b9050919050565b7f4269744d6170733a205468652073657420626974206265666f7265207468652060008201527f696e64657820646f65736e27742065786973742e000000000000000000000000602082015250565b6000613a5260348361258c565b9150613a5d826139f6565b604082019050919050565b60006020820190508181036000830152613a8181613a45565b905091905056fe0001020903110a19042112290b311a3905412245134d2a550c5d32651b6d3a7506264262237d468514804e8d2b95569d0d495ea533a966b11c886eb93bc176c9071727374353637324837e9b47af86c7155181ad4fd18ed32c9096db57d59ee30e2e4a6a5f92a6be3498aae067ddb2eb1d5989b56fd7baf33ca0c2ee77e5caf7ff0810182028303840444c545c646c7425617c847f8c949c48a4a8b087b8c0c816365272829aaec650acd0d28fdad4e22d6991bd97dfdcea58b4d6f29fede4f6fe0f1f2f3f4b5b6b607b8b93a3a7b7bf357199c5abcfd9e168bcdee9b3f1ecf5fd1e3e5a7a8aa2b670c4ced8bbe8f0f4fc3d79a1c3cde7effb78cce6facbf9f8a2646970667358221220d0dcbd6a8e6c064ea2669d116d410c74ae42d1d15303c0c7f86fd43b16a8067f64736f6c634300080900336080604052600060075560006008553480156200001b57600080fd5b50604051620027553803806200275583398181016040528101906200004191906200032d565b8383838362000065620000596200019a60201b60201c565b620001a260201b60201c565b60018410156200007457600080fd5b600073ffffffffffffffffffffffffffffffffffffffff168373ffffffffffffffffffffffffffffffffffffffff161415620000af57600080fd5b42821015620000bd57600080fd5b818111620000ca57600080fd5b8360028190555082600160006101000a81548173ffffffffffffffffffffffffffffffffffffffff021916908373ffffffffffffffffffffffffffffffffffffffff160217905550816003819055508060048190555050505050604051620001329062000266565b604051809103906000f0801580156200014f573d6000803e3d6000fd5b50600b60006101000a81548173ffffffffffffffffffffffffffffffffffffffff021916908373ffffffffffffffffffffffffffffffffffffffff160217905550505050506200039f565b600033905090565b60008060009054906101000a900473ffffffffffffffffffffffffffffffffffffffff169050816000806101000a81548173ffffffffffffffffffffffffffffffffffffffff021916908373ffffffffffffffffffffffffffffffffffffffff1602179055508173ffffffffffffffffffffffffffffffffffffffff168173ffffffffffffffffffffffffffffffffffffffff167f8be0079c531659141344cd1fd0a4f28419497f9722a3daafe3b4186f6b6457e060405160405180910390a35050565b610d5980620019fc83390190565b600080fd5b6000819050919050565b6200028e8162000279565b81146200029a57600080fd5b50565b600081519050620002ae8162000283565b92915050565b600073ffffffffffffffffffffffffffffffffffffffff82169050919050565b6000620002e182620002b4565b9050919050565b6000620002f582620002d4565b9050919050565b6200030781620002e8565b81146200031357600080fd5b50565b6000815190506200032781620002fc565b92915050565b600080600080608085870312156200034a576200034962000274565b5b60006200035a878288016200029d565b94505060206200036d8782880162000316565b935050604062000380878288016200029d565b925050606062000393878288016200029d565b91505092959194509250565b61164d80620003af6000396000f3fe6080604052600436106101185760003560e01c80638433acd1116100a0578063c97f8d6e11610064578063c97f8d6e1461035d578063e640d86214610388578063f2fde38b146103b1578063fbfa77cf146103da578063fc0c546a146104055761012a565b80638433acd1146102a95780638da5cb5b146102c057806394d3f5b3146102eb578063b7a8807c14610316578063bbdc9077146103415761012a565b80634b6753bc116100e75780634b6753bc146101f5578063590e1ae314610220578063715018a61461022a57806374d00f67146102415780637a37ac261461027e5761012a565b80630c3ca20f146101375780631865c57d146101625780632c4e722e1461018d57806331f36bd9146101b85761012a565b3661012a57610128336001610430565b005b610135336001610430565b005b34801561014357600080fd5b5061014c6104bf565b604051610159919061105b565b60405180910390f35b34801561016e57600080fd5b506101776104c5565b60405161018491906110ed565b60405180910390f35b34801561019957600080fd5b506101a261056a565b6040516101af919061105b565b60405180910390f35b3480156101c457600080fd5b506101df60048036038101906101da9190611197565b610570565b6040516101ec919061105b565b60405180910390f35b34801561020157600080fd5b5061020a610595565b604051610217919061105b565b60405180910390f35b61022861059b565b005b34801561023657600080fd5b5061023f610689565b005b34801561024d57600080fd5b50610268600480360381019061026391906111d7565b61069d565b604051610275919061105b565b60405180910390f35b34801561028a57600080fd5b506102936106b5565b6040516102a0919061105b565b60405180910390f35b3480156102b557600080fd5b506102be6106bb565b005b3480156102cc57600080fd5b506102d5610933565b6040516102e29190611213565b60405180910390f35b3480156102f757600080fd5b5061030061095c565b60405161030d919061105b565b60405180910390f35b34801561032257600080fd5b5061032b610961565b604051610338919061105b565b60405180910390f35b61035b60048036038101906103569190611266565b610430565b005b34801561036957600080fd5b50610372610967565b60405161037f919061105b565b60405180910390f35b34801561039457600080fd5b506103af60048036038101906103aa91906112a6565b61096d565b005b3480156103bd57600080fd5b506103d860048036038101906103d391906111d7565b610a1b565b005b3480156103e657600080fd5b506103ef610a9f565b6040516103fc9190611332565b60405180910390f35b34801561041157600080fd5b5061041a610ac5565b6040516104279190611380565b60405180910390f35b600034905061043f8382610aeb565b600061044a82610b61565b9050610457848385610b7f565b8373ffffffffffffffffffffffffffffffffffffffff167fcd60aa75dea3072fbc07ae6d7d856b5dc5f4eee88854f5b4abf7b680ef8bc50f838360405161049f92919061139b565b60405180910390a26104af610cf7565b6104b98483610df1565b50505050565b60075481565b60006002808111156104da576104d9611076565b5b600560009054906101000a900460ff1660028111156104fc576104fb611076565b5b141561051957600560009054906101000a900460ff169050610567565b61052161095c565b471015610554576000600560006101000a81548160ff0219169083600281111561054e5761054d611076565b5b02179055505b600560009054906101000a900460ff1690505b90565b60025481565b6009602052816000526040600020602052806000526040600020600091509150505481565b60045481565b600060096000600854815260200190815260200160002060003373ffffffffffffffffffffffffffffffffffffffff1673ffffffffffffffffffffffffffffffffffffffff16815260200190815260200160002054146105fa57600080fd5b600b60009054906101000a900473ffffffffffffffffffffffffffffffffffffffff1673ffffffffffffffffffffffffffffffffffffffff1663fa89401a336040518263ffffffff1660e01b815260040161065591906113e5565b600060405180830381600087803b15801561066f57600080fd5b505af1158015610683573d6000803e3d6000fd5b50505050565b610691610df5565b61069b6000610e73565b565b600a6020528060005260406000206000915090505481565b60085481565b6002808111156106ce576106cd611076565b5b6106d66104c5565b60028111156106e8576106e7611076565b5b146106f257600080fd5b6000600a60003373ffffffffffffffffffffffffffffffffffffffff1673ffffffffffffffffffffffffffffffffffffffff1681526020019081526020016000205460096000600854815260200190815260200160002060003373ffffffffffffffffffffffffffffffffffffffff1673ffffffffffffffffffffffffffffffffffffffff16815260200190815260200160002054610791919061142f565b9050600081116107a057600080fd5b600b60009054906101000a900473ffffffffffffffffffffffffffffffffffffffff1673ffffffffffffffffffffffffffffffffffffffff16630a2f487b3360096000600854815260200190815260200160002060003373ffffffffffffffffffffffffffffffffffffffff1673ffffffffffffffffffffffffffffffffffffffff168152602001908152602001600020546040518363ffffffff1660e01b815260040161084f929190611485565b600060405180830381600087803b15801561086957600080fd5b505af115801561087d573d6000803e3d6000fd5b50505050600060096000600854815260200190815260200160002060003373ffffffffffffffffffffffffffffffffffffffff1673ffffffffffffffffffffffffffffffffffffffff168152602001908152602001600020819055506000600a60003373ffffffffffffffffffffffffffffffffffffffff1673ffffffffffffffffffffffffffffffffffffffff168152602001908152602001600020819055506109303361092b83610b61565b610f37565b50565b60008060009054906101000a900473ffffffffffffffffffffffffffffffffffffffff16905090565b600090565b60035481565b60065481565b610975610df5565b600b60009054906101000a900473ffffffffffffffffffffffffffffffffffffffff1673ffffffffffffffffffffffffffffffffffffffff166108fc6007549081150290604051600060405180830381858888f193505050501580156109df573d6000803e3d6000fd5b5060006007819055506001600860008282546109fb919061142f565b925050819055504260038190555080600481905550610a18610cf7565b50565b610a23610df5565b600073ffffffffffffffffffffffffffffffffffffffff168173ffffffffffffffffffffffffffffffffffffffff161415610a93576040517f08c379a0000000000000000000000000000000000000000000000000000000008152600401610a8a90611531565b60405180910390fd5b610a9c81610e73565b50565b600b60009054906101000a900473ffffffffffffffffffffffffffffffffffffffff1681565b600160009054906101000a900473ffffffffffffffffffffffffffffffffffffffff1681565b610af58282610fca565b60006002811115610b0957610b08611076565b5b610b116104c5565b6002811115610b2357610b22611076565b5b14610b2d57600080fd5b6001610b3882610b61565b1015610b4357600080fd5b6006548147610b52919061142f565b1115610b5d57600080fd5b5050565b6000610b786002548361102490919063ffffffff16565b9050919050565b8015610c9b578160096000600854815260200190815260200160002060008573ffffffffffffffffffffffffffffffffffffffff1673ffffffffffffffffffffffffffffffffffffffff1681526020019081526020016000206000828254610be7919061142f565b92505081905550600b60009054906101000a900473ffffffffffffffffffffffffffffffffffffffff1673ffffffffffffffffffffffffffffffffffffffff16636f485d6c84846040518363ffffffff1660e01b8152600401610c4b929190611485565b600060405180830381600087803b158015610c6557600080fd5b505af1158015610c79573d6000803e3d6000fd5b505050508160076000828254610c8f919061142f565b92505081905550610cf2565b81600a60008573ffffffffffffffffffffffffffffffffffffffff1673ffffffffffffffffffffffffffffffffffffffff1681526020019081526020016000206000828254610cea919061142f565b925050819055505b505050565b600654471415610db357600b60009054906101000a900473ffffffffffffffffffffffffffffffffffffffff1673ffffffffffffffffffffffffffffffffffffffff166343d726d66040518163ffffffff1660e01b8152600401600060405180830381600087803b158015610d6b57600080fd5b505af1158015610d7f573d6000803e3d6000fd5b505050506002600560006101000a81548160ff02191690836002811115610da957610da8611076565b5b0217905550610def565b610dbb61095c565b471115610dee576001600560006101000a81548160ff02191690836002811115610de857610de7611076565b5b02179055505b5b565b5050565b610dfd61103a565b73ffffffffffffffffffffffffffffffffffffffff16610e1b610933565b73ffffffffffffffffffffffffffffffffffffffff1614610e71576040517f08c379a0000000000000000000000000000000000000000000000000000000008152600401610e689061159d565b60405180910390fd5b565b60008060009054906101000a900473ffffffffffffffffffffffffffffffffffffffff169050816000806101000a81548173ffffffffffffffffffffffffffffffffffffffff021916908373ffffffffffffffffffffffffffffffffffffffff1602179055508173ffffffffffffffffffffffffffffffffffffffff168173ffffffffffffffffffffffffffffffffffffffff167f8be0079c531659141344cd1fd0a4f28419497f9722a3daafe3b4186f6b6457e060405160405180910390a35050565b600160009054906101000a900473ffffffffffffffffffffffffffffffffffffffff1673ffffffffffffffffffffffffffffffffffffffff166340c10f1983836040518363ffffffff1660e01b8152600401610f94929190611485565b600060405180830381600087803b158015610fae57600080fd5b505af1158015610fc2573d6000803e3d6000fd5b505050505050565b6004544210610fd857600080fd5b600073ffffffffffffffffffffffffffffffffffffffff168273ffffffffffffffffffffffffffffffffffffffff16141561101257600080fd5b600081141561102057600080fd5b5050565b6000818361103291906115bd565b905092915050565b600033905090565b6000819050919050565b61105581611042565b82525050565b6000602082019050611070600083018461104c565b92915050565b7f4e487b7100000000000000000000000000000000000000000000000000000000600052602160045260246000fd5b600381106110b6576110b5611076565b5b50565b60008190506110c7826110a5565b919050565b60006110d7826110b9565b9050919050565b6110e7816110cc565b82525050565b600060208201905061110260008301846110de565b92915050565b600080fd5b61111681611042565b811461112157600080fd5b50565b6000813590506111338161110d565b92915050565b600073ffffffffffffffffffffffffffffffffffffffff82169050919050565b600061116482611139565b9050919050565b61117481611159565b811461117f57600080fd5b50565b6000813590506111918161116b565b92915050565b600080604083850312156111ae576111ad611108565b5b60006111bc85828601611124565b92505060206111cd85828601611182565b9150509250929050565b6000602082840312156111ed576111ec611108565b5b60006111fb84828501611182565b91505092915050565b61120d81611159565b82525050565b60006020820190506112286000830184611204565b92915050565b60008115159050919050565b6112438161122e565b811461124e57600080fd5b50565b6000813590506112608161123a565b92915050565b6000806040838503121561127d5761127c611108565b5b600061128b85828601611182565b925050602061129c85828601611251565b9150509250929050565b6000602082840312156112bc576112bb611108565b5b60006112ca84828501611124565b91505092915050565b6000819050919050565b60006112f86112f36112ee84611139565b6112d3565b611139565b9050919050565b600061130a826112dd565b9050919050565b600061131c826112ff565b9050919050565b61132c81611311565b82525050565b60006020820190506113476000830184611323565b92915050565b6000611358826112dd565b9050919050565b600061136a8261134d565b9050919050565b61137a8161135f565b82525050565b60006020820190506113956000830184611371565b92915050565b60006040820190506113b0600083018561104c565b6113bd602083018461104c565b9392505050565b60006113cf82611139565b9050919050565b6113df816113c4565b82525050565b60006020820190506113fa60008301846113d6565b92915050565b7f4e487b7100000000000000000000000000000000000000000000000000000000600052601160045260246000fd5b600061143a82611042565b915061144583611042565b9250827fffffffffffffffffffffffffffffffffffffffffffffffffffffffffffffffff0382111561147a57611479611400565b5b828201905092915050565b600060408201905061149a6000830185611204565b6114a7602083018461104c565b9392505050565b600082825260208201905092915050565b7f4f776e61626c653a206e6577206f776e657220697320746865207a65726f206160008201527f6464726573730000000000000000000000000000000000000000000000000000602082015250565b600061151b6026836114ae565b9150611526826114bf565b604082019050919050565b6000602082019050818103600083015261154a8161150e565b9050919050565b7f4f776e61626c653a2063616c6c6572206973206e6f7420746865206f776e6572600082015250565b60006115876020836114ae565b915061159282611551565b602082019050919050565b600060208201905081810360008301526115b68161157a565b9050919050565b60006115c882611042565b91506115d383611042565b9250817fffffffffffffffffffffffffffffffffffffffffffffffffffffffffffffffff048311821515161561160c5761160b611400565b5b82820290509291505056fea26469706673582212205ce008fcf3d5b3b945e1be2b21507ff170809e1259f19c507eaa8d8c7b17146264736f6c63430008090033608060405234801561001057600080fd5b5061002d61002261005c60201b60201c565b61006460201b60201c565b60008060146101000a81548160ff0219169083600181111561005257610051610128565b5b0217905550610157565b600033905090565b60008060009054906101000a900473ffffffffffffffffffffffffffffffffffffffff169050816000806101000a81548173ffffffffffffffffffffffffffffffffffffffff021916908373ffffffffffffffffffffffffffffffffffffffff1602179055508173ffffffffffffffffffffffffffffffffffffffff168173ffffffffffffffffffffffffffffffffffffffff167f8be0079c531659141344cd1fd0a4f28419497f9722a3daafe3b4186f6b6457e060405160405180910390a35050565b7f4e487b7100000000000000000000000000000000000000000000000000000000600052602160045260246000fd5b610bf3806101666000396000f3fe60806040526004361061008a5760003560e01c8063715018a611610059578063715018a6146101395780638da5cb5b14610150578063c19d93fb1461017b578063f2fde38b146101a6578063fa89401a146101cf57610091565b80630a2f487b146100935780633dd2281d146100bc57806343d726d6146100f95780636f485d6c1461011057610091565b3661009157005b005b34801561009f57600080fd5b506100ba60048036038101906100b59190610837565b6101f8565b005b3480156100c857600080fd5b506100e360048036038101906100de9190610877565b61025a565b6040516100f091906108b3565b60405180910390f35b34801561010557600080fd5b5061010e610272565b005b34801561011c57600080fd5b5061013760048036038101906101329190610837565b610313565b005b34801561014557600080fd5b5061014e6103f4565b005b34801561015c57600080fd5b50610165610408565b60405161017291906108dd565b60405180910390f35b34801561018757600080fd5b50610190610431565b60405161019d919061096f565b60405180910390f35b3480156101b257600080fd5b506101cd60048036038101906101c89190610877565b610444565b005b3480156101db57600080fd5b506101f660048036038101906101f191906109c8565b6104c8565b005b61020061063e565b80600160008473ffffffffffffffffffffffffffffffffffffffff1673ffffffffffffffffffffffffffffffffffffffff168152602001908152602001600020600082825461024f9190610a24565b925050819055505050565b60016020528060005260406000206000915090505481565b61027a61063e565b6000600181111561028e5761028d6108f8565b5b600060149054906101000a900460ff1660018111156102b0576102af6108f8565b5b146102ba57600080fd5b6001600060146101000a81548160ff021916908360018111156102e0576102df6108f8565b5b02179055507f1cdde67b72a90f19919ac732a437ac2f7a10fc128d28c2a6e525d89ce5cd9d3a60405160405180910390a1565b60006001811115610327576103266108f8565b5b600060149054906101000a900460ff166001811115610349576103486108f8565b5b1461035357600080fd5b61035b61063e565b6103ad81600160008573ffffffffffffffffffffffffffffffffffffffff1673ffffffffffffffffffffffffffffffffffffffff168152602001908152602001600020546106bc90919063ffffffff16565b600160008473ffffffffffffffffffffffffffffffffffffffff1673ffffffffffffffffffffffffffffffffffffffff168152602001908152602001600020819055505050565b6103fc61063e565b61040660006106d2565b565b60008060009054906101000a900473ffffffffffffffffffffffffffffffffffffffff16905090565b600060149054906101000a900460ff1681565b61044c61063e565b600073ffffffffffffffffffffffffffffffffffffffff168173ffffffffffffffffffffffffffffffffffffffff1614156104bc576040517f08c379a00000000000000000000000000000000000000000000000000000000081526004016104b390610adb565b60405180910390fd5b6104c5816106d2565b50565b6104d061063e565b6000600160008373ffffffffffffffffffffffffffffffffffffffff1673ffffffffffffffffffffffffffffffffffffffff168152602001908152602001600020541161051c57600080fd5b6000600160008373ffffffffffffffffffffffffffffffffffffffff1673ffffffffffffffffffffffffffffffffffffffff1681526020019081526020016000205490506000600160008473ffffffffffffffffffffffffffffffffffffffff1673ffffffffffffffffffffffffffffffffffffffff168152602001908152602001600020819055508173ffffffffffffffffffffffffffffffffffffffff166108fc829081150290604051600060405180830381858888f193505050501580156105eb573d6000803e3d6000fd5b508173ffffffffffffffffffffffffffffffffffffffff167fd7dee2702d63ad89917b6a4da9981c90c4d24f8c2bdfd64c604ecae57d8d06518260405161063291906108b3565b60405180910390a25050565b610646610796565b73ffffffffffffffffffffffffffffffffffffffff16610664610408565b73ffffffffffffffffffffffffffffffffffffffff16146106ba576040517f08c379a00000000000000000000000000000000000000000000000000000000081526004016106b190610b47565b60405180910390fd5b565b600081836106ca9190610b67565b905092915050565b60008060009054906101000a900473ffffffffffffffffffffffffffffffffffffffff169050816000806101000a81548173ffffffffffffffffffffffffffffffffffffffff021916908373ffffffffffffffffffffffffffffffffffffffff1602179055508173ffffffffffffffffffffffffffffffffffffffff168173ffffffffffffffffffffffffffffffffffffffff167f8be0079c531659141344cd1fd0a4f28419497f9722a3daafe3b4186f6b6457e060405160405180910390a35050565b600033905090565b600080fd5b600073ffffffffffffffffffffffffffffffffffffffff82169050919050565b60006107ce826107a3565b9050919050565b6107de816107c3565b81146107e957600080fd5b50565b6000813590506107fb816107d5565b92915050565b6000819050919050565b61081481610801565b811461081f57600080fd5b50565b6000813590506108318161080b565b92915050565b6000806040838503121561084e5761084d61079e565b5b600061085c858286016107ec565b925050602061086d85828601610822565b9150509250929050565b60006020828403121561088d5761088c61079e565b5b600061089b848285016107ec565b91505092915050565b6108ad81610801565b82525050565b60006020820190506108c860008301846108a4565b92915050565b6108d7816107c3565b82525050565b60006020820190506108f260008301846108ce565b92915050565b7f4e487b7100000000000000000000000000000000000000000000000000000000600052602160045260246000fd5b60028110610938576109376108f8565b5b50565b600081905061094982610927565b919050565b60006109598261093b565b9050919050565b6109698161094e565b82525050565b60006020820190506109846000830184610960565b92915050565b6000610995826107a3565b9050919050565b6109a58161098a565b81146109b057600080fd5b50565b6000813590506109c28161099c565b92915050565b6000602082840312156109de576109dd61079e565b5b60006109ec848285016109b3565b91505092915050565b7f4e487b7100000000000000000000000000000000000000000000000000000000600052601160045260246000fd5b6000610a2f82610801565b9150610a3a83610801565b925082821015610a4d57610a4c6109f5565b5b828203905092915050565b600082825260208201905092915050565b7f4f776e61626c653a206e6577206f776e657220697320746865207a65726f206160008201527f6464726573730000000000000000000000000000000000000000000000000000602082015250565b6000610ac5602683610a58565b9150610ad082610a69565b604082019050919050565b60006020820190508181036000830152610af481610ab8565b9050919050565b7f4f776e61626c653a2063616c6c6572206973206e6f7420746865206f776e6572600082015250565b6000610b31602083610a58565b9150610b3c82610afb565b602082019050919050565b60006020820190508181036000830152610b6081610b24565b9050919050565b6000610b7282610801565b9150610b7d83610801565b9250827fffffffffffffffffffffffffffffffffffffffffffffffffffffffffffffffff03821115610bb257610bb16109f5565b5b82820190509291505056fea264697066735822122000a9cfe33e85b980b7933d9aa999481fec6f2b6e8b26ffc6389a456fffdd7bfe64736f6c63430008090033a2646970667358221220a31788c38a30a95ec230e3dc73b8d44b8cd5920b4dfc98ef2cf7147014a19f1764736f6c63430008090033",
  "linkReferences": {},
  "deployedLinkReferences": {}
}