{
  "_format": "hh-sol-artifact-1",
  "contractName": "MoonToken",
  "sourceName": "contracts/main/MoonToken.sol",
  "abi": [
    {
      "inputs": [
        {
          "internalType": "string",
          "name": "_name",
          "type": "string"
        },
        {
          "internalType": "string",
          "name": "_symbol",
          "type": "string"
        },
        {
          "internalType": "uint256",
          "name": "_baseNftID",
          "type": "uint256"
        }
      ],
      "stateMutability": "nonpayable",
      "type": "constructor"
    },
    {
      "anonymous": false,
      "inputs": [
        {
          "indexed": true,
          "internalType": "address",
          "name": "owner",
          "type": "address"
        },
        {
          "indexed": true,
          "internalType": "address",
          "name": "approved",
          "type": "address"
        },
        {
          "indexed": true,
          "internalType": "uint256",
          "name": "tokenId",
          "type": "uint256"
        }
      ],
      "name": "Approval",
      "type": "event"
    },
    {
      "anonymous": false,
      "inputs": [
        {
          "indexed": true,
          "internalType": "address",
          "name": "owner",
          "type": "address"
        },
        {
          "indexed": true,
          "internalType": "address",
          "name": "operator",
          "type": "address"
        },
        {
          "indexed": false,
          "internalType": "bool",
          "name": "approved",
          "type": "bool"
        }
      ],
      "name": "ApprovalForAll",
      "type": "event"
    },
    {
      "anonymous": false,
      "inputs": [
        {
          "indexed": true,
          "internalType": "bytes32",
          "name": "role",
          "type": "bytes32"
        },
        {
          "indexed": true,
          "internalType": "bytes32",
          "name": "previousAdminRole",
          "type": "bytes32"
        },
        {
          "indexed": true,
          "internalType": "bytes32",
          "name": "newAdminRole",
          "type": "bytes32"
        }
      ],
      "name": "RoleAdminChanged",
      "type": "event"
    },
    {
      "anonymous": false,
      "inputs": [
        {
          "indexed": true,
          "internalType": "bytes32",
          "name": "role",
          "type": "bytes32"
        },
        {
          "indexed": true,
          "internalType": "address",
          "name": "account",
          "type": "address"
        },
        {
          "indexed": true,
          "internalType": "address",
          "name": "sender",
          "type": "address"
        }
      ],
      "name": "RoleGranted",
      "type": "event"
    },
    {
      "anonymous": false,
      "inputs": [
        {
          "indexed": true,
          "internalType": "bytes32",
          "name": "role",
          "type": "bytes32"
        },
        {
          "indexed": true,
          "internalType": "address",
          "name": "account",
          "type": "address"
        },
        {
          "indexed": true,
          "internalType": "address",
          "name": "sender",
          "type": "address"
        }
      ],
      "name": "RoleRevoked",
      "type": "event"
    },
    {
      "anonymous": false,
      "inputs": [
        {
          "indexed": true,
          "internalType": "address",
          "name": "from",
          "type": "address"
        },
        {
          "indexed": true,
          "internalType": "address",
          "name": "to",
          "type": "address"
        },
        {
          "indexed": true,
          "internalType": "uint256",
          "name": "tokenId",
          "type": "uint256"
        }
      ],
      "name": "Transfer",
      "type": "event"
    },
    {
      "inputs": [],
      "name": "DEFAULT_ADMIN_ROLE",
      "outputs": [
        {
          "internalType": "bytes32",
          "name": "",
          "type": "bytes32"
        }
      ],
      "stateMutability": "view",
      "type": "function"
    },
    {
      "inputs": [
        {
          "internalType": "address",
          "name": "to",
          "type": "address"
        },
        {
          "internalType": "uint256",
          "name": "tokenId",
          "type": "uint256"
        }
      ],
      "name": "approve",
      "outputs": [],
      "stateMutability": "nonpayable",
      "type": "function"
    },
    {
      "inputs": [
        {
          "internalType": "address",
          "name": "owner",
          "type": "address"
        }
      ],
      "name": "balanceOf",
      "outputs": [
        {
          "internalType": "uint256",
          "name": "",
          "type": "uint256"
        }
      ],
      "stateMutability": "view",
      "type": "function"
    },
    {
      "inputs": [],
      "name": "baseNftID",
      "outputs": [
        {
          "internalType": "uint256",
          "name": "",
          "type": "uint256"
        }
      ],
      "stateMutability": "view",
      "type": "function"
    },
    {
      "inputs": [
        {
          "internalType": "uint256",
          "name": "tokenId",
          "type": "uint256"
        }
      ],
      "name": "getApproved",
      "outputs": [
        {
          "internalType": "address",
          "name": "",
          "type": "address"
        }
      ],
      "stateMutability": "view",
      "type": "function"
    },
    {
      "inputs": [
        {
          "internalType": "bytes32",
          "name": "role",
          "type": "bytes32"
        }
      ],
      "name": "getRoleAdmin",
      "outputs": [
        {
          "internalType": "bytes32",
          "name": "",
          "type": "bytes32"
        }
      ],
      "stateMutability": "view",
      "type": "function"
    },
    {
      "inputs": [
        {
          "internalType": "address",
          "name": "to",
          "type": "address"
        }
      ],
      "name": "grantOwnerRole",
      "outputs": [],
      "stateMutability": "nonpayable",
      "type": "function"
    },
    {
      "inputs": [
        {
          "internalType": "bytes32",
          "name": "role",
          "type": "bytes32"
        },
        {
          "internalType": "address",
          "name": "account",
          "type": "address"
        }
      ],
      "name": "grantRole",
      "outputs": [],
      "stateMutability": "nonpayable",
      "type": "function"
    },
    {
      "inputs": [
        {
          "internalType": "bytes32",
          "name": "role",
          "type": "bytes32"
        },
        {
          "internalType": "address",
          "name": "account",
          "type": "address"
        }
      ],
      "name": "hasRole",
      "outputs": [
        {
          "internalType": "bool",
          "name": "",
          "type": "bool"
        }
      ],
      "stateMutability": "view",
      "type": "function"
    },
    {
      "inputs": [
        {
          "internalType": "address",
          "name": "owner",
          "type": "address"
        },
        {
          "internalType": "address",
          "name": "operator",
          "type": "address"
        }
      ],
      "name": "isApprovedForAll",
      "outputs": [
        {
          "internalType": "bool",
          "name": "",
          "type": "bool"
        }
      ],
      "stateMutability": "view",
      "type": "function"
    },
    {
      "inputs": [
        {
          "internalType": "uint256",
          "name": "_baseNftID",
          "type": "uint256"
        }
      ],
      "name": "migration",
      "outputs": [],
      "stateMutability": "nonpayable",
      "type": "function"
    },
    {
      "inputs": [
        {
          "internalType": "address",
          "name": "to",
          "type": "address"
        },
        {
          "internalType": "uint256",
          "name": "amount",
          "type": "uint256"
        }
      ],
      "name": "mint",
      "outputs": [],
      "stateMutability": "nonpayable",
      "type": "function"
    },
    {
      "inputs": [],
      "name": "name",
      "outputs": [
        {
          "internalType": "string",
          "name": "",
          "type": "string"
        }
      ],
      "stateMutability": "view",
      "type": "function"
    },
    {
      "inputs": [
        {
          "internalType": "uint256",
          "name": "tokenId",
          "type": "uint256"
        }
      ],
      "name": "ownerOf",
      "outputs": [
        {
          "internalType": "address",
          "name": "",
          "type": "address"
        }
      ],
      "stateMutability": "view",
      "type": "function"
    },
    {
      "inputs": [
        {
          "internalType": "bytes32",
          "name": "role",
          "type": "bytes32"
        },
        {
          "internalType": "address",
          "name": "account",
          "type": "address"
        }
      ],
      "name": "renounceRole",
      "outputs": [],
      "stateMutability": "nonpayable",
      "type": "function"
    },
    {
      "inputs": [
        {
          "internalType": "bytes32",
          "name": "role",
          "type": "bytes32"
        },
        {
          "internalType": "address",
          "name": "account",
          "type": "address"
        }
      ],
      "name": "revokeRole",
      "outputs": [],
      "stateMutability": "nonpayable",
      "type": "function"
    },
    {
      "inputs": [
        {
          "internalType": "address",
          "name": "from",
          "type": "address"
        },
        {
          "internalType": "address",
          "name": "to",
          "type": "address"
        },
        {
          "internalType": "uint256",
          "name": "tokenId",
          "type": "uint256"
        }
      ],
      "name": "safeTransferFrom",
      "outputs": [],
      "stateMutability": "nonpayable",
      "type": "function"
    },
    {
      "inputs": [
        {
          "internalType": "address",
          "name": "from",
          "type": "address"
        },
        {
          "internalType": "address",
          "name": "to",
          "type": "address"
        },
        {
          "internalType": "uint256",
          "name": "tokenId",
          "type": "uint256"
        },
        {
          "internalType": "bytes",
          "name": "data",
          "type": "bytes"
        }
      ],
      "name": "safeTransferFrom",
      "outputs": [],
      "stateMutability": "nonpayable",
      "type": "function"
    },
    {
      "inputs": [
        {
          "internalType": "address",
          "name": "operator",
          "type": "address"
        },
        {
          "internalType": "bool",
          "name": "approved",
          "type": "bool"
        }
      ],
      "name": "setApprovalForAll",
      "outputs": [],
      "stateMutability": "nonpayable",
      "type": "function"
    },
    {
      "inputs": [
        {
          "internalType": "bytes4",
          "name": "interfaceId",
          "type": "bytes4"
        }
      ],
      "name": "supportsInterface",
      "outputs": [
        {
          "internalType": "bool",
          "name": "",
          "type": "bool"
        }
      ],
      "stateMutability": "view",
      "type": "function"
    },
    {
      "inputs": [],
      "name": "symbol",
      "outputs": [
        {
          "internalType": "string",
          "name": "",
          "type": "string"
        }
      ],
      "stateMutability": "view",
      "type": "function"
    },
    {
      "inputs": [
        {
          "internalType": "uint256",
          "name": "tokenId",
          "type": "uint256"
        }
      ],
      "name": "tokenURI",
      "outputs": [
        {
          "internalType": "string",
          "name": "",
          "type": "string"
        }
      ],
      "stateMutability": "view",
      "type": "function"
    },
    {
      "inputs": [
        {
          "internalType": "address",
          "name": "from",
          "type": "address"
        },
        {
          "internalType": "address",
          "name": "to",
          "type": "address"
        },
        {
          "internalType": "uint256",
          "name": "tokenId",
          "type": "uint256"
        }
      ],
      "name": "transferFrom",
      "outputs": [],
      "stateMutability": "nonpayable",
      "type": "function"
    }
  ],
  "bytecode": "0x60806040523480156200001157600080fd5b50604051620036bb380380620036bb833981810160405281019062000037919062000483565b82828181816000908051906020019062000053929190620001fb565b5080600190805190602001906200006c929190620001fb565b505050620000846000801b336200009660201b60201c565b50508060088190555050505062000582565b620000a882826200018860201b60201c565b620001845760016007600084815260200190815260200160002060000160008373ffffffffffffffffffffffffffffffffffffffff1673ffffffffffffffffffffffffffffffffffffffff16815260200190815260200160002060006101000a81548160ff02191690831515021790555062000129620001f360201b60201c565b73ffffffffffffffffffffffffffffffffffffffff168173ffffffffffffffffffffffffffffffffffffffff16837f2f8788117e7eff1d82e926ec794901d17c78024a50270940304540a733656f0d60405160405180910390a45b5050565b60006007600084815260200190815260200160002060000160008373ffffffffffffffffffffffffffffffffffffffff1673ffffffffffffffffffffffffffffffffffffffff16815260200190815260200160002060009054906101000a900460ff16905092915050565b600033905090565b82805462000209906200054c565b90600052602060002090601f0160209004810192826200022d576000855562000279565b82601f106200024857805160ff191683800117855562000279565b8280016001018555821562000279579182015b82811115620002785782518255916020019190600101906200025b565b5b5090506200028891906200028c565b5090565b5b80821115620002a75760008160009055506001016200028d565b5090565b6000604051905090565b600080fd5b600080fd5b600080fd5b600080fd5b6000601f19601f8301169050919050565b7f4e487b7100000000000000000000000000000000000000000000000000000000600052604160045260246000fd5b6200031482620002c9565b810181811067ffffffffffffffff82111715620003365762000335620002da565b5b80604052505050565b60006200034b620002ab565b905062000359828262000309565b919050565b600067ffffffffffffffff8211156200037c576200037b620002da565b5b6200038782620002c9565b9050602081019050919050565b60005b83811015620003b457808201518184015260208101905062000397565b83811115620003c4576000848401525b50505050565b6000620003e1620003db846200035e565b6200033f565b9050828152602081018484840111156200040057620003ff620002c4565b5b6200040d84828562000394565b509392505050565b600082601f8301126200042d576200042c620002bf565b5b81516200043f848260208601620003ca565b91505092915050565b6000819050919050565b6200045d8162000448565b81146200046957600080fd5b50565b6000815190506200047d8162000452565b92915050565b6000806000606084860312156200049f576200049e620002b5565b5b600084015167ffffffffffffffff811115620004c057620004bf620002ba565b5b620004ce8682870162000415565b935050602084015167ffffffffffffffff811115620004f257620004f1620002ba565b5b620005008682870162000415565b925050604062000513868287016200046c565b9150509250925092565b7f4e487b7100000000000000000000000000000000000000000000000000000000600052602260045260246000fd5b600060028204905060018216806200056557607f821691505b602082108114156200057c576200057b6200051d565b5b50919050565b61312980620005926000396000f3fe608060405234801561001057600080fd5b506004361061014d5760003560e01c80636352211e116100c3578063b88d4fde1161007c578063b88d4fde146103ac578063b9b22c29146103c8578063c87b56dd146103e6578063d547741f14610416578063e640d86214610432578063e985e9c51461044e5761014d565b80636352211e146102c457806370a08231146102f457806391d148541461032457806395d89b4114610354578063a217fddf14610372578063a22cb465146103905761014d565b8063248a9ca311610115578063248a9ca3146102085780632f2ff15d1461023857806336568abe14610254578063397a8bab1461027057806340c10f191461028c57806342842e0e146102a85761014d565b806301ffc9a71461015257806306fdde0314610182578063081812fc146101a0578063095ea7b3146101d057806323b872dd146101ec575b600080fd5b61016c60048036038101906101679190611f67565b61047e565b6040516101799190611faf565b60405180910390f35b61018a610490565b6040516101979190612063565b60405180910390f35b6101ba60048036038101906101b591906120bb565b610522565b6040516101c79190612129565b60405180910390f35b6101ea60048036038101906101e59190612170565b610568565b005b610206600480360381019061020191906121b0565b610680565b005b610222600480360381019061021d9190612239565b6106e0565b60405161022f9190612275565b60405180910390f35b610252600480360381019061024d9190612290565b610700565b005b61026e60048036038101906102699190612290565b610721565b005b61028a600480360381019061028591906122d0565b6107a4565b005b6102a660048036038101906102a19190612170565b6107c2565b005b6102c260048036038101906102bd91906121b0565b6107de565b005b6102de60048036038101906102d991906120bb565b6107fe565b6040516102eb9190612129565b60405180910390f35b61030e600480360381019061030991906122d0565b6108b0565b60405161031b919061230c565b60405180910390f35b61033e60048036038101906103399190612290565b610968565b60405161034b9190611faf565b60405180910390f35b61035c6109d3565b6040516103699190612063565b60405180910390f35b61037a610a65565b6040516103879190612275565b60405180910390f35b6103aa60048036038101906103a59190612353565b610a6c565b005b6103c660048036038101906103c191906124c8565b610a82565b005b6103d0610ae4565b6040516103dd919061230c565b60405180910390f35b61040060048036038101906103fb91906120bb565b610aea565b60405161040d9190612063565b60405180910390f35b610430600480360381019061042b9190612290565b610bfd565b005b61044c600480360381019061044791906120bb565b610c1e565b005b6104686004803603810190610463919061254b565b610c36565b6040516104759190611faf565b60405180910390f35b600061048982610cca565b9050919050565b60606000805461049f906125ba565b80601f01602080910402602001604051908101604052809291908181526020018280546104cb906125ba565b80156105185780601f106104ed57610100808354040283529160200191610518565b820191906000526020600020905b8154815290600101906020018083116104fb57829003601f168201915b5050505050905090565b600061052d82610d44565b6004600083815260200190815260200160002060009054906101000a900473ffffffffffffffffffffffffffffffffffffffff169050919050565b6000610573826107fe565b90508073ffffffffffffffffffffffffffffffffffffffff168373ffffffffffffffffffffffffffffffffffffffff1614156105e4576040517f08c379a00000000000000000000000000000000000000000000000000000000081526004016105db9061265e565b60405180910390fd5b8073ffffffffffffffffffffffffffffffffffffffff16610603610d8f565b73ffffffffffffffffffffffffffffffffffffffff16148061063257506106318161062c610d8f565b610c36565b5b610671576040517f08c379a0000000000000000000000000000000000000000000000000000000008152600401610668906126f0565b60405180910390fd5b61067b8383610d97565b505050565b61069161068b610d8f565b82610e50565b6106d0576040517f08c379a00000000000000000000000000000000000000000000000000000000081526004016106c790612782565b60405180910390fd5b6106db838383610ee5565b505050565b600060076000838152602001908152602001600020600101549050919050565b610709826106e0565b6107128161114c565b61071c8383611160565b505050565b610729610d8f565b73ffffffffffffffffffffffffffffffffffffffff168173ffffffffffffffffffffffffffffffffffffffff1614610796576040517f08c379a000000000000000000000000000000000000000000000000000000000815260040161078d90612814565b60405180910390fd5b6107a08282611241565b5050565b6000801b6107b18161114c565b6107be6000801b83611160565b5050565b6000801b6107cf8161114c565b6107d98383611323565b505050565b6107f983838360405180602001604052806000815250610a82565b505050565b6000806002600084815260200190815260200160002060009054906101000a900473ffffffffffffffffffffffffffffffffffffffff169050600073ffffffffffffffffffffffffffffffffffffffff168173ffffffffffffffffffffffffffffffffffffffff1614156108a7576040517f08c379a000000000000000000000000000000000000000000000000000000000815260040161089e90612880565b60405180910390fd5b80915050919050565b60008073ffffffffffffffffffffffffffffffffffffffff168273ffffffffffffffffffffffffffffffffffffffff161415610921576040517f08c379a000000000000000000000000000000000000000000000000000000000815260040161091890612912565b60405180910390fd5b600360008373ffffffffffffffffffffffffffffffffffffffff1673ffffffffffffffffffffffffffffffffffffffff168152602001908152602001600020549050919050565b60006007600084815260200190815260200160002060000160008373ffffffffffffffffffffffffffffffffffffffff1673ffffffffffffffffffffffffffffffffffffffff16815260200190815260200160002060009054906101000a900460ff16905092915050565b6060600180546109e2906125ba565b80601f0160208091040260200160405190810160405280929190818152602001828054610a0e906125ba565b8015610a5b5780601f10610a3057610100808354040283529160200191610a5b565b820191906000526020600020905b815481529060010190602001808311610a3e57829003601f168201915b5050505050905090565b6000801b81565b610a7e610a77610d8f565b83836114fd565b5050565b610a93610a8d610d8f565b83610e50565b610ad2576040517f08c379a0000000000000000000000000000000000000000000000000000000008152600401610ac990612782565b60405180910390fd5b610ade8484848461166a565b50505050565b60085481565b6060610af582610d44565b6000600660008481526020019081526020016000208054610b15906125ba565b80601f0160208091040260200160405190810160405280929190818152602001828054610b41906125ba565b8015610b8e5780601f10610b6357610100808354040283529160200191610b8e565b820191906000526020600020905b815481529060010190602001808311610b7157829003601f168201915b505050505090506000610b9f6116c6565b9050600081511415610bb5578192505050610bf8565b600082511115610bea578082604051602001610bd292919061296e565b60405160208183030381529060405292505050610bf8565b610bf3846116dd565b925050505b919050565b610c06826106e0565b610c0f8161114c565b610c198383611241565b505050565b6000801b610c2b8161114c565b816008819055505050565b6000600560008473ffffffffffffffffffffffffffffffffffffffff1673ffffffffffffffffffffffffffffffffffffffff16815260200190815260200160002060008373ffffffffffffffffffffffffffffffffffffffff1673ffffffffffffffffffffffffffffffffffffffff16815260200190815260200160002060009054906101000a900460ff16905092915050565b60007f7965db0b000000000000000000000000000000000000000000000000000000007bffffffffffffffffffffffffffffffffffffffffffffffffffffffff1916827bffffffffffffffffffffffffffffffffffffffffffffffffffffffff19161480610d3d5750610d3c82611745565b5b9050919050565b610d4d81611827565b610d8c576040517f08c379a0000000000000000000000000000000000000000000000000000000008152600401610d8390612880565b60405180910390fd5b50565b600033905090565b816004600083815260200190815260200160002060006101000a81548173ffffffffffffffffffffffffffffffffffffffff021916908373ffffffffffffffffffffffffffffffffffffffff160217905550808273ffffffffffffffffffffffffffffffffffffffff16610e0a836107fe565b73ffffffffffffffffffffffffffffffffffffffff167f8c5be1e5ebec7d5bd14f71427d1e84f3dd0314c0f7b2291e5b200ac8c7c3b92560405160405180910390a45050565b600080610e5c836107fe565b90508073ffffffffffffffffffffffffffffffffffffffff168473ffffffffffffffffffffffffffffffffffffffff161480610e9e5750610e9d8185610c36565b5b80610edc57508373ffffffffffffffffffffffffffffffffffffffff16610ec484610522565b73ffffffffffffffffffffffffffffffffffffffff16145b91505092915050565b8273ffffffffffffffffffffffffffffffffffffffff16610f05826107fe565b73ffffffffffffffffffffffffffffffffffffffff1614610f5b576040517f08c379a0000000000000000000000000000000000000000000000000000000008152600401610f5290612a04565b60405180910390fd5b600073ffffffffffffffffffffffffffffffffffffffff168273ffffffffffffffffffffffffffffffffffffffff161415610fcb576040517f08c379a0000000000000000000000000000000000000000000000000000000008152600401610fc290612a96565b60405180910390fd5b610fd6838383611893565b610fe1600082610d97565b6001600360008573ffffffffffffffffffffffffffffffffffffffff1673ffffffffffffffffffffffffffffffffffffffff16815260200190815260200160002060008282546110319190612ae5565b925050819055506001600360008473ffffffffffffffffffffffffffffffffffffffff1673ffffffffffffffffffffffffffffffffffffffff16815260200190815260200160002060008282546110889190612b19565b92505081905550816002600083815260200190815260200160002060006101000a81548173ffffffffffffffffffffffffffffffffffffffff021916908373ffffffffffffffffffffffffffffffffffffffff160217905550808273ffffffffffffffffffffffffffffffffffffffff168473ffffffffffffffffffffffffffffffffffffffff167fddf252ad1be2c89b69c2b068fc378daa952ba7f163c4a11628f55a4df523b3ef60405160405180910390a4611147838383611898565b505050565b61115d81611158610d8f565b61189d565b50565b61116a8282610968565b61123d5760016007600084815260200190815260200160002060000160008373ffffffffffffffffffffffffffffffffffffffff1673ffffffffffffffffffffffffffffffffffffffff16815260200190815260200160002060006101000a81548160ff0219169083151502179055506111e2610d8f565b73ffffffffffffffffffffffffffffffffffffffff168173ffffffffffffffffffffffffffffffffffffffff16837f2f8788117e7eff1d82e926ec794901d17c78024a50270940304540a733656f0d60405160405180910390a45b5050565b61124b8282610968565b1561131f5760006007600084815260200190815260200160002060000160008373ffffffffffffffffffffffffffffffffffffffff1673ffffffffffffffffffffffffffffffffffffffff16815260200190815260200160002060006101000a81548160ff0219169083151502179055506112c4610d8f565b73ffffffffffffffffffffffffffffffffffffffff168173ffffffffffffffffffffffffffffffffffffffff16837ff6391f5c32d9c69d2a47ea670b442974b53935d1edc7fd64eb21e047a839171b60405160405180910390a45b5050565b600073ffffffffffffffffffffffffffffffffffffffff168273ffffffffffffffffffffffffffffffffffffffff161415611393576040517f08c379a000000000000000000000000000000000000000000000000000000000815260040161138a90612bbb565b60405180910390fd5b61139c81611827565b156113dc576040517f08c379a00000000000000000000000000000000000000000000000000000000081526004016113d390612c27565b60405180910390fd5b6113e860008383611893565b6001600360008473ffffffffffffffffffffffffffffffffffffffff1673ffffffffffffffffffffffffffffffffffffffff16815260200190815260200160002060008282546114389190612b19565b92505081905550816002600083815260200190815260200160002060006101000a81548173ffffffffffffffffffffffffffffffffffffffff021916908373ffffffffffffffffffffffffffffffffffffffff160217905550808273ffffffffffffffffffffffffffffffffffffffff16600073ffffffffffffffffffffffffffffffffffffffff167fddf252ad1be2c89b69c2b068fc378daa952ba7f163c4a11628f55a4df523b3ef60405160405180910390a46114f960008383611898565b5050565b8173ffffffffffffffffffffffffffffffffffffffff168373ffffffffffffffffffffffffffffffffffffffff16141561156c576040517f08c379a000000000000000000000000000000000000000000000000000000000815260040161156390612c93565b60405180910390fd5b80600560008573ffffffffffffffffffffffffffffffffffffffff1673ffffffffffffffffffffffffffffffffffffffff16815260200190815260200160002060008473ffffffffffffffffffffffffffffffffffffffff1673ffffffffffffffffffffffffffffffffffffffff16815260200190815260200160002060006101000a81548160ff0219169083151502179055508173ffffffffffffffffffffffffffffffffffffffff168373ffffffffffffffffffffffffffffffffffffffff167f17307eab39ab6107e8899845ad3d59bd9653f200f220920489ca2b5937696c318360405161165d9190611faf565b60405180910390a3505050565b611675848484610ee5565b6116818484848461193a565b6116c0576040517f08c379a00000000000000000000000000000000000000000000000000000000081526004016116b790612d25565b60405180910390fd5b50505050565b606060405180602001604052806000815250905090565b60606116e882610d44565b60006116f26116c6565b90506000815111611712576040518060200160405280600081525061173d565b8061171c84611ad1565b60405160200161172d92919061296e565b6040516020818303038152906040525b915050919050565b60007f80ac58cd000000000000000000000000000000000000000000000000000000007bffffffffffffffffffffffffffffffffffffffffffffffffffffffff1916827bffffffffffffffffffffffffffffffffffffffffffffffffffffffff1916148061181057507f5b5e139f000000000000000000000000000000000000000000000000000000007bffffffffffffffffffffffffffffffffffffffffffffffffffffffff1916827bffffffffffffffffffffffffffffffffffffffffffffffffffffffff1916145b80611820575061181f82611c32565b5b9050919050565b60008073ffffffffffffffffffffffffffffffffffffffff166002600084815260200190815260200160002060009054906101000a900473ffffffffffffffffffffffffffffffffffffffff1673ffffffffffffffffffffffffffffffffffffffff1614159050919050565b505050565b505050565b6118a78282610968565b611936576118cc8173ffffffffffffffffffffffffffffffffffffffff166014611c9c565b6118da8360001c6020611c9c565b6040516020016118eb929190612ddd565b6040516020818303038152906040526040517f08c379a000000000000000000000000000000000000000000000000000000000815260040161192d9190612063565b60405180910390fd5b5050565b600061195b8473ffffffffffffffffffffffffffffffffffffffff16611ed8565b15611ac4578373ffffffffffffffffffffffffffffffffffffffff1663150b7a02611984610d8f565b8786866040518563ffffffff1660e01b81526004016119a69493929190612e6c565b602060405180830381600087803b1580156119c057600080fd5b505af19250505080156119f157506040513d601f19601f820116820180604052508101906119ee9190612ecd565b60015b611a74573d8060008114611a21576040519150601f19603f3d011682016040523d82523d6000602084013e611a26565b606091505b50600081511415611a6c576040517f08c379a0000000000000000000000000000000000000000000000000000000008152600401611a6390612d25565b60405180910390fd5b805181602001fd5b63150b7a0260e01b7bffffffffffffffffffffffffffffffffffffffffffffffffffffffff1916817bffffffffffffffffffffffffffffffffffffffffffffffffffffffff191614915050611ac9565b600190505b949350505050565b60606000821415611b19576040518060400160405280600181526020017f30000000000000000000000000000000000000000000000000000000000000008152509050611c2d565b600082905060005b60008214611b4b578080611b3490612efa565b915050600a82611b449190612f72565b9150611b21565b60008167ffffffffffffffff811115611b6757611b6661239d565b5b6040519080825280601f01601f191660200182016040528015611b995781602001600182028036833780820191505090505b5090505b60008514611c2657600182611bb29190612ae5565b9150600a85611bc19190612fa3565b6030611bcd9190612b19565b60f81b818381518110611be357611be2612fd4565b5b60200101907effffffffffffffffffffffffffffffffffffffffffffffffffffffffffffff1916908160001a905350600a85611c1f9190612f72565b9450611b9d565b8093505050505b919050565b60007f01ffc9a7000000000000000000000000000000000000000000000000000000007bffffffffffffffffffffffffffffffffffffffffffffffffffffffff1916827bffffffffffffffffffffffffffffffffffffffffffffffffffffffff1916149050919050565b606060006002836002611caf9190613003565b611cb99190612b19565b67ffffffffffffffff811115611cd257611cd161239d565b5b6040519080825280601f01601f191660200182016040528015611d045781602001600182028036833780820191505090505b5090507f300000000000000000000000000000000000000000000000000000000000000081600081518110611d3c57611d3b612fd4565b5b60200101907effffffffffffffffffffffffffffffffffffffffffffffffffffffffffffff1916908160001a9053507f780000000000000000000000000000000000000000000000000000000000000081600181518110611da057611d9f612fd4565b5b60200101907effffffffffffffffffffffffffffffffffffffffffffffffffffffffffffff1916908160001a90535060006001846002611de09190613003565b611dea9190612b19565b90505b6001811115611e8a577f3031323334353637383961626364656600000000000000000000000000000000600f861660108110611e2c57611e2b612fd4565b5b1a60f81b828281518110611e4357611e42612fd4565b5b60200101907effffffffffffffffffffffffffffffffffffffffffffffffffffffffffffff1916908160001a905350600485901c945080611e839061305d565b9050611ded565b5060008414611ece576040517f08c379a0000000000000000000000000000000000000000000000000000000008152600401611ec5906130d3565b60405180910390fd5b8091505092915050565b6000808273ffffffffffffffffffffffffffffffffffffffff163b119050919050565b6000604051905090565b600080fd5b600080fd5b60007fffffffff0000000000000000000000000000000000000000000000000000000082169050919050565b611f4481611f0f565b8114611f4f57600080fd5b50565b600081359050611f6181611f3b565b92915050565b600060208284031215611f7d57611f7c611f05565b5b6000611f8b84828501611f52565b91505092915050565b60008115159050919050565b611fa981611f94565b82525050565b6000602082019050611fc46000830184611fa0565b92915050565b600081519050919050565b600082825260208201905092915050565b60005b83811015612004578082015181840152602081019050611fe9565b83811115612013576000848401525b50505050565b6000601f19601f8301169050919050565b600061203582611fca565b61203f8185611fd5565b935061204f818560208601611fe6565b61205881612019565b840191505092915050565b6000602082019050818103600083015261207d818461202a565b905092915050565b6000819050919050565b61209881612085565b81146120a357600080fd5b50565b6000813590506120b58161208f565b92915050565b6000602082840312156120d1576120d0611f05565b5b60006120df848285016120a6565b91505092915050565b600073ffffffffffffffffffffffffffffffffffffffff82169050919050565b6000612113826120e8565b9050919050565b61212381612108565b82525050565b600060208201905061213e600083018461211a565b92915050565b61214d81612108565b811461215857600080fd5b50565b60008135905061216a81612144565b92915050565b6000806040838503121561218757612186611f05565b5b60006121958582860161215b565b92505060206121a6858286016120a6565b9150509250929050565b6000806000606084860312156121c9576121c8611f05565b5b60006121d78682870161215b565b93505060206121e88682870161215b565b92505060406121f9868287016120a6565b9150509250925092565b6000819050919050565b61221681612203565b811461222157600080fd5b50565b6000813590506122338161220d565b92915050565b60006020828403121561224f5761224e611f05565b5b600061225d84828501612224565b91505092915050565b61226f81612203565b82525050565b600060208201905061228a6000830184612266565b92915050565b600080604083850312156122a7576122a6611f05565b5b60006122b585828601612224565b92505060206122c68582860161215b565b9150509250929050565b6000602082840312156122e6576122e5611f05565b5b60006122f48482850161215b565b91505092915050565b61230681612085565b82525050565b600060208201905061232160008301846122fd565b92915050565b61233081611f94565b811461233b57600080fd5b50565b60008135905061234d81612327565b92915050565b6000806040838503121561236a57612369611f05565b5b60006123788582860161215b565b92505060206123898582860161233e565b9150509250929050565b600080fd5b600080fd5b7f4e487b7100000000000000000000000000000000000000000000000000000000600052604160045260246000fd5b6123d582612019565b810181811067ffffffffffffffff821117156123f4576123f361239d565b5b80604052505050565b6000612407611efb565b905061241382826123cc565b919050565b600067ffffffffffffffff8211156124335761243261239d565b5b61243c82612019565b9050602081019050919050565b82818337600083830152505050565b600061246b61246684612418565b6123fd565b90508281526020810184848401111561248757612486612398565b5b612492848285612449565b509392505050565b600082601f8301126124af576124ae612393565b5b81356124bf848260208601612458565b91505092915050565b600080600080608085870312156124e2576124e1611f05565b5b60006124f08782880161215b565b94505060206125018782880161215b565b9350506040612512878288016120a6565b925050606085013567ffffffffffffffff81111561253357612532611f0a565b5b61253f8782880161249a565b91505092959194509250565b6000806040838503121561256257612561611f05565b5b60006125708582860161215b565b92505060206125818582860161215b565b9150509250929050565b7f4e487b7100000000000000000000000000000000000000000000000000000000600052602260045260246000fd5b600060028204905060018216806125d257607f821691505b602082108114156125e6576125e561258b565b5b50919050565b7f4552433732313a20617070726f76616c20746f2063757272656e74206f776e6560008201527f7200000000000000000000000000000000000000000000000000000000000000602082015250565b6000612648602183611fd5565b9150612653826125ec565b604082019050919050565b600060208201905081810360008301526126778161263b565b9050919050565b7f4552433732313a20617070726f76652063616c6c6572206973206e6f7420746f60008201527f6b656e206f776e6572206e6f7220617070726f76656420666f7220616c6c0000602082015250565b60006126da603e83611fd5565b91506126e58261267e565b604082019050919050565b60006020820190508181036000830152612709816126cd565b9050919050565b7f4552433732313a2063616c6c6572206973206e6f7420746f6b656e206f776e6560008201527f72206e6f7220617070726f766564000000000000000000000000000000000000602082015250565b600061276c602e83611fd5565b915061277782612710565b604082019050919050565b6000602082019050818103600083015261279b8161275f565b9050919050565b7f416363657373436f6e74726f6c3a2063616e206f6e6c792072656e6f756e636560008201527f20726f6c657320666f722073656c660000000000000000000000000000000000602082015250565b60006127fe602f83611fd5565b9150612809826127a2565b604082019050919050565b6000602082019050818103600083015261282d816127f1565b9050919050565b7f4552433732313a20696e76616c696420746f6b656e2049440000000000000000600082015250565b600061286a601883611fd5565b915061287582612834565b602082019050919050565b600060208201905081810360008301526128998161285d565b9050919050565b7f4552433732313a2061646472657373207a65726f206973206e6f74206120766160008201527f6c6964206f776e65720000000000000000000000000000000000000000000000602082015250565b60006128fc602983611fd5565b9150612907826128a0565b604082019050919050565b6000602082019050818103600083015261292b816128ef565b9050919050565b600081905092915050565b600061294882611fca565b6129528185612932565b9350612962818560208601611fe6565b80840191505092915050565b600061297a828561293d565b9150612986828461293d565b91508190509392505050565b7f4552433732313a207472616e736665722066726f6d20696e636f72726563742060008201527f6f776e6572000000000000000000000000000000000000000000000000000000602082015250565b60006129ee602583611fd5565b91506129f982612992565b604082019050919050565b60006020820190508181036000830152612a1d816129e1565b9050919050565b7f4552433732313a207472616e7366657220746f20746865207a65726f2061646460008201527f7265737300000000000000000000000000000000000000000000000000000000602082015250565b6000612a80602483611fd5565b9150612a8b82612a24565b604082019050919050565b60006020820190508181036000830152612aaf81612a73565b9050919050565b7f4e487b7100000000000000000000000000000000000000000000000000000000600052601160045260246000fd5b6000612af082612085565b9150612afb83612085565b925082821015612b0e57612b0d612ab6565b5b828203905092915050565b6000612b2482612085565b9150612b2f83612085565b9250827fffffffffffffffffffffffffffffffffffffffffffffffffffffffffffffffff03821115612b6457612b63612ab6565b5b828201905092915050565b7f4552433732313a206d696e7420746f20746865207a65726f2061646472657373600082015250565b6000612ba5602083611fd5565b9150612bb082612b6f565b602082019050919050565b60006020820190508181036000830152612bd481612b98565b9050919050565b7f4552433732313a20746f6b656e20616c7265616479206d696e74656400000000600082015250565b6000612c11601c83611fd5565b9150612c1c82612bdb565b602082019050919050565b60006020820190508181036000830152612c4081612c04565b9050919050565b7f4552433732313a20617070726f766520746f2063616c6c657200000000000000600082015250565b6000612c7d601983611fd5565b9150612c8882612c47565b602082019050919050565b60006020820190508181036000830152612cac81612c70565b9050919050565b7f4552433732313a207472616e7366657220746f206e6f6e20455243373231526560008201527f63656976657220696d706c656d656e7465720000000000000000000000000000602082015250565b6000612d0f603283611fd5565b9150612d1a82612cb3565b604082019050919050565b60006020820190508181036000830152612d3e81612d02565b9050919050565b7f416363657373436f6e74726f6c3a206163636f756e7420000000000000000000600082015250565b6000612d7b601783612932565b9150612d8682612d45565b601782019050919050565b7f206973206d697373696e6720726f6c6520000000000000000000000000000000600082015250565b6000612dc7601183612932565b9150612dd282612d91565b601182019050919050565b6000612de882612d6e565b9150612df4828561293d565b9150612dff82612dba565b9150612e0b828461293d565b91508190509392505050565b600081519050919050565b600082825260208201905092915050565b6000612e3e82612e17565b612e488185612e22565b9350612e58818560208601611fe6565b612e6181612019565b840191505092915050565b6000608082019050612e81600083018761211a565b612e8e602083018661211a565b612e9b60408301856122fd565b8181036060830152612ead8184612e33565b905095945050505050565b600081519050612ec781611f3b565b92915050565b600060208284031215612ee357612ee2611f05565b5b6000612ef184828501612eb8565b91505092915050565b6000612f0582612085565b91507fffffffffffffffffffffffffffffffffffffffffffffffffffffffffffffffff821415612f3857612f37612ab6565b5b600182019050919050565b7f4e487b7100000000000000000000000000000000000000000000000000000000600052601260045260246000fd5b6000612f7d82612085565b9150612f8883612085565b925082612f9857612f97612f43565b5b828204905092915050565b6000612fae82612085565b9150612fb983612085565b925082612fc957612fc8612f43565b5b828206905092915050565b7f4e487b7100000000000000000000000000000000000000000000000000000000600052603260045260246000fd5b600061300e82612085565b915061301983612085565b9250817fffffffffffffffffffffffffffffffffffffffffffffffffffffffffffffffff048311821515161561305257613051612ab6565b5b828202905092915050565b600061306882612085565b9150600082141561307c5761307b612ab6565b5b600182039050919050565b7f537472696e67733a20686578206c656e67746820696e73756666696369656e74600082015250565b60006130bd602083611fd5565b91506130c882613087565b602082019050919050565b600060208201905081810360008301526130ec816130b0565b905091905056fea2646970667358221220d7214091f3db4806e4f20eaf7c02e4d6dff5d55f589bc9d526f2887e97d7bfe064736f6c63430008090033",
  "linkReferences": {},
  "deployedLinkReferences": {}
}