{
  "_format": "hh-sol-artifact-1",
  "contractName": "MoonToken",
  "sourceName": "contracts/new-contracts/main/MoonToken.sol",
  "abi": [
    {
      "inputs": [
        {
          "internalType": "string",
          "name": "_name",
          "type": "string"
        },
        {
          "internalType": "string",
          "name": "_symbol",
          "type": "string"
        },
        {
          "internalType": "uint256",
          "name": "_baseNftID",
          "type": "uint256"
        }
      ],
      "stateMutability": "nonpayable",
      "type": "constructor"
    },
    {
      "anonymous": false,
      "inputs": [
        {
          "indexed": true,
          "internalType": "address",
          "name": "owner",
          "type": "address"
        },
        {
          "indexed": true,
          "internalType": "address",
          "name": "approved",
          "type": "address"
        },
        {
          "indexed": true,
          "internalType": "uint256",
          "name": "tokenId",
          "type": "uint256"
        }
      ],
      "name": "Approval",
      "type": "event"
    },
    {
      "anonymous": false,
      "inputs": [
        {
          "indexed": true,
          "internalType": "address",
          "name": "owner",
          "type": "address"
        },
        {
          "indexed": true,
          "internalType": "address",
          "name": "operator",
          "type": "address"
        },
        {
          "indexed": false,
          "internalType": "bool",
          "name": "approved",
          "type": "bool"
        }
      ],
      "name": "ApprovalForAll",
      "type": "event"
    },
    {
      "anonymous": false,
      "inputs": [
        {
          "indexed": true,
          "internalType": "bytes32",
          "name": "role",
          "type": "bytes32"
        },
        {
          "indexed": true,
          "internalType": "bytes32",
          "name": "previousAdminRole",
          "type": "bytes32"
        },
        {
          "indexed": true,
          "internalType": "bytes32",
          "name": "newAdminRole",
          "type": "bytes32"
        }
      ],
      "name": "RoleAdminChanged",
      "type": "event"
    },
    {
      "anonymous": false,
      "inputs": [
        {
          "indexed": true,
          "internalType": "bytes32",
          "name": "role",
          "type": "bytes32"
        },
        {
          "indexed": true,
          "internalType": "address",
          "name": "account",
          "type": "address"
        },
        {
          "indexed": true,
          "internalType": "address",
          "name": "sender",
          "type": "address"
        }
      ],
      "name": "RoleGranted",
      "type": "event"
    },
    {
      "anonymous": false,
      "inputs": [
        {
          "indexed": true,
          "internalType": "bytes32",
          "name": "role",
          "type": "bytes32"
        },
        {
          "indexed": true,
          "internalType": "address",
          "name": "account",
          "type": "address"
        },
        {
          "indexed": true,
          "internalType": "address",
          "name": "sender",
          "type": "address"
        }
      ],
      "name": "RoleRevoked",
      "type": "event"
    },
    {
      "anonymous": false,
      "inputs": [
        {
          "indexed": true,
          "internalType": "address",
          "name": "from",
          "type": "address"
        },
        {
          "indexed": true,
          "internalType": "address",
          "name": "to",
          "type": "address"
        },
        {
          "indexed": true,
          "internalType": "uint256",
          "name": "tokenId",
          "type": "uint256"
        }
      ],
      "name": "Transfer",
      "type": "event"
    },
    {
      "inputs": [],
      "name": "DEFAULT_ADMIN_ROLE",
      "outputs": [
        {
          "internalType": "bytes32",
          "name": "",
          "type": "bytes32"
        }
      ],
      "stateMutability": "view",
      "type": "function"
    },
    {
      "inputs": [],
      "name": "MINTER_ROLE",
      "outputs": [
        {
          "internalType": "bytes32",
          "name": "",
          "type": "bytes32"
        }
      ],
      "stateMutability": "view",
      "type": "function"
    },
    {
      "inputs": [
        {
          "internalType": "address",
          "name": "to",
          "type": "address"
        },
        {
          "internalType": "uint256",
          "name": "tokenId",
          "type": "uint256"
        }
      ],
      "name": "approve",
      "outputs": [],
      "stateMutability": "nonpayable",
      "type": "function"
    },
    {
      "inputs": [
        {
          "internalType": "address",
          "name": "owner",
          "type": "address"
        }
      ],
      "name": "balanceOf",
      "outputs": [
        {
          "internalType": "uint256",
          "name": "",
          "type": "uint256"
        }
      ],
      "stateMutability": "view",
      "type": "function"
    },
    {
      "inputs": [],
      "name": "baseNftID",
      "outputs": [
        {
          "internalType": "uint256",
          "name": "",
          "type": "uint256"
        }
      ],
      "stateMutability": "view",
      "type": "function"
    },
    {
      "inputs": [
        {
          "internalType": "uint256",
          "name": "tokenId",
          "type": "uint256"
        }
      ],
      "name": "getApproved",
      "outputs": [
        {
          "internalType": "address",
          "name": "",
          "type": "address"
        }
      ],
      "stateMutability": "view",
      "type": "function"
    },
    {
      "inputs": [
        {
          "internalType": "bytes32",
          "name": "role",
          "type": "bytes32"
        }
      ],
      "name": "getRoleAdmin",
      "outputs": [
        {
          "internalType": "bytes32",
          "name": "",
          "type": "bytes32"
        }
      ],
      "stateMutability": "view",
      "type": "function"
    },
    {
      "inputs": [
        {
          "internalType": "address",
          "name": "to",
          "type": "address"
        }
      ],
      "name": "grantMinterRole",
      "outputs": [],
      "stateMutability": "nonpayable",
      "type": "function"
    },
    {
      "inputs": [
        {
          "internalType": "address",
          "name": "to",
          "type": "address"
        }
      ],
      "name": "grantOwnerRole",
      "outputs": [],
      "stateMutability": "nonpayable",
      "type": "function"
    },
    {
      "inputs": [
        {
          "internalType": "bytes32",
          "name": "role",
          "type": "bytes32"
        },
        {
          "internalType": "address",
          "name": "account",
          "type": "address"
        }
      ],
      "name": "grantRole",
      "outputs": [],
      "stateMutability": "nonpayable",
      "type": "function"
    },
    {
      "inputs": [
        {
          "internalType": "bytes32",
          "name": "role",
          "type": "bytes32"
        },
        {
          "internalType": "address",
          "name": "account",
          "type": "address"
        }
      ],
      "name": "hasRole",
      "outputs": [
        {
          "internalType": "bool",
          "name": "",
          "type": "bool"
        }
      ],
      "stateMutability": "view",
      "type": "function"
    },
    {
      "inputs": [
        {
          "internalType": "address",
          "name": "owner",
          "type": "address"
        },
        {
          "internalType": "address",
          "name": "operator",
          "type": "address"
        }
      ],
      "name": "isApprovedForAll",
      "outputs": [
        {
          "internalType": "bool",
          "name": "",
          "type": "bool"
        }
      ],
      "stateMutability": "view",
      "type": "function"
    },
    {
      "inputs": [
        {
          "internalType": "uint256",
          "name": "_baseNftID",
          "type": "uint256"
        }
      ],
      "name": "migration",
      "outputs": [],
      "stateMutability": "nonpayable",
      "type": "function"
    },
    {
      "inputs": [
        {
          "internalType": "address",
          "name": "to",
          "type": "address"
        },
        {
          "internalType": "uint256",
          "name": "quantity",
          "type": "uint256"
        }
      ],
      "name": "mint",
      "outputs": [],
      "stateMutability": "nonpayable",
      "type": "function"
    },
    {
      "inputs": [],
      "name": "name",
      "outputs": [
        {
          "internalType": "string",
          "name": "",
          "type": "string"
        }
      ],
      "stateMutability": "view",
      "type": "function"
    },
    {
      "inputs": [
        {
          "internalType": "uint256",
          "name": "tokenId",
          "type": "uint256"
        }
      ],
      "name": "ownerOf",
      "outputs": [
        {
          "internalType": "address",
          "name": "",
          "type": "address"
        }
      ],
      "stateMutability": "view",
      "type": "function"
    },
    {
      "inputs": [
        {
          "internalType": "bytes32",
          "name": "role",
          "type": "bytes32"
        },
        {
          "internalType": "address",
          "name": "account",
          "type": "address"
        }
      ],
      "name": "renounceRole",
      "outputs": [],
      "stateMutability": "nonpayable",
      "type": "function"
    },
    {
      "inputs": [
        {
          "internalType": "bytes32",
          "name": "role",
          "type": "bytes32"
        },
        {
          "internalType": "address",
          "name": "account",
          "type": "address"
        }
      ],
      "name": "revokeRole",
      "outputs": [],
      "stateMutability": "nonpayable",
      "type": "function"
    },
    {
      "inputs": [
        {
          "internalType": "address",
          "name": "from",
          "type": "address"
        },
        {
          "internalType": "address",
          "name": "to",
          "type": "address"
        },
        {
          "internalType": "uint256",
          "name": "tokenId",
          "type": "uint256"
        }
      ],
      "name": "safeTransferFrom",
      "outputs": [],
      "stateMutability": "nonpayable",
      "type": "function"
    },
    {
      "inputs": [
        {
          "internalType": "address",
          "name": "from",
          "type": "address"
        },
        {
          "internalType": "address",
          "name": "to",
          "type": "address"
        },
        {
          "internalType": "uint256",
          "name": "tokenId",
          "type": "uint256"
        },
        {
          "internalType": "bytes",
          "name": "_data",
          "type": "bytes"
        }
      ],
      "name": "safeTransferFrom",
      "outputs": [],
      "stateMutability": "nonpayable",
      "type": "function"
    },
    {
      "inputs": [
        {
          "internalType": "address",
          "name": "operator",
          "type": "address"
        },
        {
          "internalType": "bool",
          "name": "approved",
          "type": "bool"
        }
      ],
      "name": "setApprovalForAll",
      "outputs": [],
      "stateMutability": "nonpayable",
      "type": "function"
    },
    {
      "inputs": [
        {
          "internalType": "bytes4",
          "name": "interfaceId",
          "type": "bytes4"
        }
      ],
      "name": "supportsInterface",
      "outputs": [
        {
          "internalType": "bool",
          "name": "",
          "type": "bool"
        }
      ],
      "stateMutability": "view",
      "type": "function"
    },
    {
      "inputs": [],
      "name": "symbol",
      "outputs": [
        {
          "internalType": "string",
          "name": "",
          "type": "string"
        }
      ],
      "stateMutability": "view",
      "type": "function"
    },
    {
      "inputs": [
        {
          "internalType": "uint256",
          "name": "index",
          "type": "uint256"
        }
      ],
      "name": "tokenByIndex",
      "outputs": [
        {
          "internalType": "uint256",
          "name": "tokenId",
          "type": "uint256"
        }
      ],
      "stateMutability": "view",
      "type": "function"
    },
    {
      "inputs": [
        {
          "internalType": "address",
          "name": "owner",
          "type": "address"
        },
        {
          "internalType": "uint256",
          "name": "index",
          "type": "uint256"
        }
      ],
      "name": "tokenOfOwnerByIndex",
      "outputs": [
        {
          "internalType": "uint256",
          "name": "tokenId",
          "type": "uint256"
        }
      ],
      "stateMutability": "view",
      "type": "function"
    },
    {
      "inputs": [
        {
          "internalType": "uint256",
          "name": "tokenId",
          "type": "uint256"
        }
      ],
      "name": "tokenURI",
      "outputs": [
        {
          "internalType": "string",
          "name": "",
          "type": "string"
        }
      ],
      "stateMutability": "view",
      "type": "function"
    },
    {
      "inputs": [],
      "name": "totalSupply",
      "outputs": [
        {
          "internalType": "uint256",
          "name": "",
          "type": "uint256"
        }
      ],
      "stateMutability": "view",
      "type": "function"
    },
    {
      "inputs": [
        {
          "internalType": "address",
          "name": "from",
          "type": "address"
        },
        {
          "internalType": "address",
          "name": "to",
          "type": "address"
        },
        {
          "internalType": "uint256",
          "name": "tokenId",
          "type": "uint256"
        }
      ],
      "name": "transferFrom",
      "outputs": [],
      "stateMutability": "nonpayable",
      "type": "function"
    }
  ],
  "bytecode": "0x60806040523480156200001157600080fd5b50604051620041d7380380620041d78339818101604052810190620000379190620004b5565b828281818160019080519060200190620000539291906200022d565b5080600290805190602001906200006c9291906200022d565b505050620000846000801b33620000c860201b60201c565b620000b67f9f2df0fed2c77648de5860a4cc508cd0818c85b8b8a1ab4ceeef8d981c8956a633620000c860201b60201c565b505080600881905550505050620005b4565b620000da8282620001ba60201b60201c565b620001b65760016007600084815260200190815260200160002060000160008373ffffffffffffffffffffffffffffffffffffffff1673ffffffffffffffffffffffffffffffffffffffff16815260200190815260200160002060006101000a81548160ff0219169083151502179055506200015b6200022560201b60201c565b73ffffffffffffffffffffffffffffffffffffffff168173ffffffffffffffffffffffffffffffffffffffff16837f2f8788117e7eff1d82e926ec794901d17c78024a50270940304540a733656f0d60405160405180910390a45b5050565b60006007600084815260200190815260200160002060000160008373ffffffffffffffffffffffffffffffffffffffff1673ffffffffffffffffffffffffffffffffffffffff16815260200190815260200160002060009054906101000a900460ff16905092915050565b600033905090565b8280546200023b906200057e565b90600052602060002090601f0160209004810192826200025f5760008555620002ab565b82601f106200027a57805160ff1916838001178555620002ab565b82800160010185558215620002ab579182015b82811115620002aa5782518255916020019190600101906200028d565b5b509050620002ba9190620002be565b5090565b5b80821115620002d9576000816000905550600101620002bf565b5090565b6000604051905090565b600080fd5b600080fd5b600080fd5b600080fd5b6000601f19601f8301169050919050565b7f4e487b7100000000000000000000000000000000000000000000000000000000600052604160045260246000fd5b6200034682620002fb565b810181811067ffffffffffffffff821117156200036857620003676200030c565b5b80604052505050565b60006200037d620002dd565b90506200038b82826200033b565b919050565b600067ffffffffffffffff821115620003ae57620003ad6200030c565b5b620003b982620002fb565b9050602081019050919050565b60005b83811015620003e6578082015181840152602081019050620003c9565b83811115620003f6576000848401525b50505050565b6000620004136200040d8462000390565b62000371565b905082815260208101848484011115620004325762000431620002f6565b5b6200043f848285620003c6565b509392505050565b600082601f8301126200045f576200045e620002f1565b5b815162000471848260208601620003fc565b91505092915050565b6000819050919050565b6200048f816200047a565b81146200049b57600080fd5b50565b600081519050620004af8162000484565b92915050565b600080600060608486031215620004d157620004d0620002e7565b5b600084015167ffffffffffffffff811115620004f257620004f1620002ec565b5b620005008682870162000447565b935050602084015167ffffffffffffffff811115620005245762000523620002ec565b5b620005328682870162000447565b925050604062000545868287016200049e565b9150509250925092565b7f4e487b7100000000000000000000000000000000000000000000000000000000600052602260045260246000fd5b600060028204905060018216806200059757607f821691505b60208210811415620005ae57620005ad6200054f565b5b50919050565b613c1380620005c46000396000f3fe608060405234801561001057600080fd5b50600436106101c45760003560e01c80634f6ccce7116100f9578063b88d4fde11610097578063d539139311610071578063d539139314610527578063d547741f14610545578063e640d86214610561578063e985e9c51461057d576101c4565b8063b88d4fde146104bd578063b9b22c29146104d9578063c87b56dd146104f7576101c4565b806391d14854116100d357806391d148541461043557806395d89b4114610465578063a217fddf14610483578063a22cb465146104a1576101c4565b80634f6ccce7146103a55780636352211e146103d557806370a0823114610405576101c4565b80632f2ff15d11610166578063397a8bab11610140578063397a8bab146103355780633dd1eb611461035157806340c10f191461036d57806342842e0e14610389576101c4565b80632f2ff15d146102cd5780632f745c59146102e957806336568abe14610319576101c4565b8063095ea7b3116101a2578063095ea7b31461024757806318160ddd1461026357806323b872dd14610281578063248a9ca31461029d576101c4565b806301ffc9a7146101c957806306fdde03146101f9578063081812fc14610217575b600080fd5b6101e360048036038101906101de9190612573565b6105ad565b6040516101f091906125bb565b60405180910390f35b6102016105bf565b60405161020e919061266f565b60405180910390f35b610231600480360381019061022c91906126c7565b610651565b60405161023e9190612735565b60405180910390f35b610261600480360381019061025c919061277c565b6106d6565b005b61026b6107ee565b60405161027891906127cb565b60405180910390f35b61029b600480360381019061029691906127e6565b6107f8565b005b6102b760048036038101906102b2919061286f565b610858565b6040516102c491906128ab565b60405180910390f35b6102e760048036038101906102e291906128c6565b610878565b005b61030360048036038101906102fe919061277c565b610899565b60405161031091906127cb565b60405180910390f35b610333600480360381019061032e91906128c6565b61096c565b005b61034f600480360381019061034a9190612906565b6109ef565b005b61036b60048036038101906103669190612906565b610a0d565b005b6103876004803603810190610382919061277c565b610a48565b005b6103a3600480360381019061039e91906127e6565b610a81565b005b6103bf60048036038101906103ba91906126c7565b610aa1565b6040516103cc91906127cb565b60405180910390f35b6103ef60048036038101906103ea91906126c7565b610b44565b6040516103fc9190612735565b60405180910390f35b61041f600480360381019061041a9190612906565b610b5c565b60405161042c91906127cb565b60405180910390f35b61044f600480360381019061044a91906128c6565b610c4e565b60405161045c91906125bb565b60405180910390f35b61046d610cb9565b60405161047a919061266f565b60405180910390f35b61048b610d4b565b60405161049891906128ab565b60405180910390f35b6104bb60048036038101906104b6919061295f565b610d52565b005b6104d760048036038101906104d29190612ad4565b610ed3565b005b6104e1610f35565b6040516104ee91906127cb565b60405180910390f35b610511600480360381019061050c91906126c7565b610f3b565b60405161051e919061266f565b60405180910390f35b61052f610fe2565b60405161053c91906128ab565b60405180910390f35b61055f600480360381019061055a91906128c6565b611006565b005b61057b600480360381019061057691906126c7565b611027565b005b61059760048036038101906105929190612b57565b61103f565b6040516105a491906125bb565b60405180910390f35b60006105b8826110d3565b9050919050565b6060600180546105ce90612bc6565b80601f01602080910402602001604051908101604052809291908181526020018280546105fa90612bc6565b80156106475780601f1061061c57610100808354040283529160200191610647565b820191906000526020600020905b81548152906001019060200180831161062a57829003601f168201915b5050505050905090565b600061065c8261114d565b61069b576040517f08c379a000000000000000000000000000000000000000000000000000000000815260040161069290612c6a565b60405180910390fd5b6005600083815260200190815260200160002060009054906101000a900473ffffffffffffffffffffffffffffffffffffffff169050919050565b60006106e182610b44565b90508073ffffffffffffffffffffffffffffffffffffffff168373ffffffffffffffffffffffffffffffffffffffff161415610752576040517f08c379a000000000000000000000000000000000000000000000000000000000815260040161074990612cfc565b60405180910390fd5b8073ffffffffffffffffffffffffffffffffffffffff1661077161115b565b73ffffffffffffffffffffffffffffffffffffffff1614806107a0575061079f8161079a61115b565b61103f565b5b6107df576040517f08c379a00000000000000000000000000000000000000000000000000000000081526004016107d690612d8e565b60405180910390fd5b6107e98383611163565b505050565b6000600454905090565b61080961080361115b565b8261121c565b610848576040517f08c379a000000000000000000000000000000000000000000000000000000000815260040161083f90612e20565b60405180910390fd5b6108538383836112fa565b505050565b600060076000838152602001908152602001600020600101549050919050565b61088182610858565b61088a8161157d565b6108948383611591565b505050565b60008060005b60045481101561092a576108b28161114d565b80156108f157506108c281610b44565b73ffffffffffffffffffffffffffffffffffffffff168573ffffffffffffffffffffffffffffffffffffffff16145b156109175783821415610908578092505050610966565b818061091390612e6f565b9250505b808061092290612e6f565b91505061089f565b506040517f08c379a000000000000000000000000000000000000000000000000000000000815260040161095d90612f2a565b60405180910390fd5b92915050565b61097461115b565b73ffffffffffffffffffffffffffffffffffffffff168173ffffffffffffffffffffffffffffffffffffffff16146109e1576040517f08c379a00000000000000000000000000000000000000000000000000000000081526004016109d890612fbc565b60405180910390fd5b6109eb8282611672565b5050565b6000801b6109fc8161157d565b610a096000801b83611591565b5050565b6000801b610a1a8161157d565b610a447f9f2df0fed2c77648de5860a4cc508cd0818c85b8b8a1ab4ceeef8d981c8956a683611591565b5050565b7f9f2df0fed2c77648de5860a4cc508cd0818c85b8b8a1ab4ceeef8d981c8956a6610a728161157d565b610a7c8383611754565b505050565b610a9c83838360405180602001604052806000815250610ed3565b505050565b6000610aab6107ee565b8210610aec576040517f08c379a0000000000000000000000000000000000000000000000000000000008152600401610ae39061304e565b60405180910390fd5b6000805b600454811015610b3c57610b038161114d565b15610b295783821415610b1a578092505050610b3f565b8180610b2590612e6f565b9250505b8080610b3490612e6f565b915050610af0565b50505b919050565b600080610b5083611772565b50905080915050919050565b60008073ffffffffffffffffffffffffffffffffffffffff168273ffffffffffffffffffffffffffffffffffffffff161415610bcd576040517f08c379a0000000000000000000000000000000000000000000000000000000008152600401610bc4906130e0565b60405180910390fd5b6000805b600454811015610c4457610be48161114d565b15610c3357610bf281610b44565b73ffffffffffffffffffffffffffffffffffffffff168473ffffffffffffffffffffffffffffffffffffffff161415610c325781610c2f90612e6f565b91505b5b80610c3d90612e6f565b9050610bd1565b5080915050919050565b60006007600084815260200190815260200160002060000160008373ffffffffffffffffffffffffffffffffffffffff1673ffffffffffffffffffffffffffffffffffffffff16815260200190815260200160002060009054906101000a900460ff16905092915050565b606060028054610cc890612bc6565b80601f0160208091040260200160405190810160405280929190818152602001828054610cf490612bc6565b8015610d415780601f10610d1657610100808354040283529160200191610d41565b820191906000526020600020905b815481529060010190602001808311610d2457829003601f168201915b5050505050905090565b6000801b81565b610d5a61115b565b73ffffffffffffffffffffffffffffffffffffffff168273ffffffffffffffffffffffffffffffffffffffff161415610dc8576040517f08c379a0000000000000000000000000000000000000000000000000000000008152600401610dbf9061314c565b60405180910390fd5b8060066000610dd561115b565b73ffffffffffffffffffffffffffffffffffffffff1673ffffffffffffffffffffffffffffffffffffffff16815260200190815260200160002060008473ffffffffffffffffffffffffffffffffffffffff1673ffffffffffffffffffffffffffffffffffffffff16815260200190815260200160002060006101000a81548160ff0219169083151502179055508173ffffffffffffffffffffffffffffffffffffffff16610e8261115b565b73ffffffffffffffffffffffffffffffffffffffff167f17307eab39ab6107e8899845ad3d59bd9653f200f220920489ca2b5937696c3183604051610ec791906125bb565b60405180910390a35050565b610ee4610ede61115b565b8361121c565b610f23576040517f08c379a0000000000000000000000000000000000000000000000000000000008152600401610f1a90612e20565b60405180910390fd5b610f2f84848484611803565b50505050565b60085481565b6060610f468261114d565b610f85576040517f08c379a0000000000000000000000000000000000000000000000000000000008152600401610f7c906131de565b60405180910390fd5b6000610f8f611861565b90506000815111610faf5760405180602001604052806000815250610fda565b80610fb984611878565b604051602001610fca92919061323a565b6040516020818303038152906040525b915050919050565b7f9f2df0fed2c77648de5860a4cc508cd0818c85b8b8a1ab4ceeef8d981c8956a681565b61100f82610858565b6110188161157d565b6110228383611672565b505050565b6000801b6110348161157d565b816008819055505050565b6000600660008473ffffffffffffffffffffffffffffffffffffffff1673ffffffffffffffffffffffffffffffffffffffff16815260200190815260200160002060008373ffffffffffffffffffffffffffffffffffffffff1673ffffffffffffffffffffffffffffffffffffffff16815260200190815260200160002060009054906101000a900460ff16905092915050565b60007f7965db0b000000000000000000000000000000000000000000000000000000007bffffffffffffffffffffffffffffffffffffffffffffffffffffffff1916827bffffffffffffffffffffffffffffffffffffffffffffffffffffffff191614806111465750611145826119d9565b5b9050919050565b600060045482109050919050565b600033905090565b816005600083815260200190815260200160002060006101000a81548173ffffffffffffffffffffffffffffffffffffffff021916908373ffffffffffffffffffffffffffffffffffffffff160217905550808273ffffffffffffffffffffffffffffffffffffffff166111d683610b44565b73ffffffffffffffffffffffffffffffffffffffff167f8c5be1e5ebec7d5bd14f71427d1e84f3dd0314c0f7b2291e5b200ac8c7c3b92560405160405180910390a45050565b60006112278261114d565b611266576040517f08c379a000000000000000000000000000000000000000000000000000000000815260040161125d906132d0565b60405180910390fd5b600061127183610b44565b90508073ffffffffffffffffffffffffffffffffffffffff168473ffffffffffffffffffffffffffffffffffffffff1614806112e057508373ffffffffffffffffffffffffffffffffffffffff166112c884610651565b73ffffffffffffffffffffffffffffffffffffffff16145b806112f157506112f0818561103f565b5b91505092915050565b60008061130683611772565b915091508473ffffffffffffffffffffffffffffffffffffffff168273ffffffffffffffffffffffffffffffffffffffff1614611378576040517f08c379a000000000000000000000000000000000000000000000000000000000815260040161136f90613362565b60405180910390fd5b600073ffffffffffffffffffffffffffffffffffffffff168473ffffffffffffffffffffffffffffffffffffffff1614156113e8576040517f08c379a00000000000000000000000000000000000000000000000000000000081526004016113df906133f4565b60405180910390fd5b6113f58585856001611b23565b611400600084611163565b600060018461140f9190613414565b9050611425816000611b2990919063ffffffff16565b158015611433575060045481105b1561149f57856003600083815260200190815260200160002060006101000a81548173ffffffffffffffffffffffffffffffffffffffff021916908373ffffffffffffffffffffffffffffffffffffffff16021790555061149e816000611b8490919063ffffffff16565b5b846003600086815260200190815260200160002060006101000a81548173ffffffffffffffffffffffffffffffffffffffff021916908373ffffffffffffffffffffffffffffffffffffffff16021790555081841461150d5761150c846000611b8490919063ffffffff16565b5b838573ffffffffffffffffffffffffffffffffffffffff168773ffffffffffffffffffffffffffffffffffffffff167fddf252ad1be2c89b69c2b068fc378daa952ba7f163c4a11628f55a4df523b3ef60405160405180910390a46115758686866001611be1565b505050505050565b61158e8161158961115b565b611be7565b50565b61159b8282610c4e565b61166e5760016007600084815260200190815260200160002060000160008373ffffffffffffffffffffffffffffffffffffffff1673ffffffffffffffffffffffffffffffffffffffff16815260200190815260200160002060006101000a81548160ff02191690831515021790555061161361115b565b73ffffffffffffffffffffffffffffffffffffffff168173ffffffffffffffffffffffffffffffffffffffff16837f2f8788117e7eff1d82e926ec794901d17c78024a50270940304540a733656f0d60405160405180910390a45b5050565b61167c8282610c4e565b156117505760006007600084815260200190815260200160002060000160008373ffffffffffffffffffffffffffffffffffffffff1673ffffffffffffffffffffffffffffffffffffffff16815260200190815260200160002060006101000a81548160ff0219169083151502179055506116f561115b565b73ffffffffffffffffffffffffffffffffffffffff168173ffffffffffffffffffffffffffffffffffffffff16837ff6391f5c32d9c69d2a47ea670b442974b53935d1edc7fd64eb21e047a839171b60405160405180910390a45b5050565b61176e828260405180602001604052806000815250611c84565b5050565b60008061177e8361114d565b6117bd576040517f08c379a00000000000000000000000000000000000000000000000000000000081526004016117b4906134dc565b60405180910390fd5b6117c683611ce8565b90506003600082815260200190815260200160002060009054906101000a900473ffffffffffffffffffffffffffffffffffffffff169150915091565b61180e8484846112fa565b61181c848484600185611d05565b61185b576040517f08c379a00000000000000000000000000000000000000000000000000000000081526004016118529061356e565b60405180910390fd5b50505050565b606060405180602001604052806000815250905090565b606060008214156118c0576040518060400160405280600181526020017f300000000000000000000000000000000000000000000000000000000000000081525090506119d4565b600082905060005b600082146118f25780806118db90612e6f565b915050600a826118eb91906135bd565b91506118c8565b60008167ffffffffffffffff81111561190e5761190d6129a9565b5b6040519080825280601f01601f1916602001820160405280156119405781602001600182028036833780820191505090505b5090505b600085146119cd5760018261195991906135ee565b9150600a856119689190613622565b60306119749190613414565b60f81b81838151811061198a57611989613653565b5b60200101907effffffffffffffffffffffffffffffffffffffffffffffffffffffffffffff1916908160001a905350600a856119c691906135bd565b9450611944565b8093505050505b919050565b60007f80ac58cd000000000000000000000000000000000000000000000000000000007bffffffffffffffffffffffffffffffffffffffffffffffffffffffff1916827bffffffffffffffffffffffffffffffffffffffffffffffffffffffff19161480611aa457507f5b5e139f000000000000000000000000000000000000000000000000000000007bffffffffffffffffffffffffffffffffffffffffffffffffffffffff1916827bffffffffffffffffffffffffffffffffffffffffffffffffffffffff1916145b80611b0c57507f780e9d63000000000000000000000000000000000000000000000000000000007bffffffffffffffffffffffffffffffffffffffffffffffffffffffff1916827bffffffffffffffffffffffffffffffffffffffffffffffffffffffff1916145b80611b1c5750611b1b82611ed7565b5b9050919050565b50505050565b600080600883901c9050600060ff84167f8000000000000000000000000000000000000000000000000000000000000000901c9050600081866000016000858152602001908152602001600020541614159250505092915050565b6000600882901c9050600060ff83167f8000000000000000000000000000000000000000000000000000000000000000901c9050808460000160008481526020019081526020016000206000828254179250508190555050505050565b50505050565b611bf18282610c4e565b611c8057611c168173ffffffffffffffffffffffffffffffffffffffff166014611f41565b611c248360001c6020611f41565b604051602001611c3592919061371a565b6040516020818303038152906040526040517f08c379a0000000000000000000000000000000000000000000000000000000008152600401611c77919061266f565b60405180910390fd5b5050565b60006004549050611c95848461217d565b611ca3600085838686611d05565b611ce2576040517f08c379a0000000000000000000000000000000000000000000000000000000008152600401611cd99061356e565b60405180910390fd5b50505050565b6000611cfe82600061235e90919063ffffffff16565b9050919050565b6000611d268573ffffffffffffffffffffffffffffffffffffffff16612457565b15611ec9576001905060008490505b8385611d419190613414565b811015611ec3578573ffffffffffffffffffffffffffffffffffffffff1663150b7a02611d6c61115b565b8984876040518563ffffffff1660e01b8152600401611d8e94939291906137a9565b602060405180830381600087803b158015611da857600080fd5b505af1925050508015611dd957506040513d601f19601f82011682018060405250810190611dd6919061380a565b60015b611e5c573d8060008114611e09576040519150601f19603f3d011682016040523d82523d6000602084013e611e0e565b606091505b50600081511415611e54576040517f08c379a0000000000000000000000000000000000000000000000000000000008152600401611e4b9061356e565b60405180910390fd5b805181602001fd5b828015611ead575063150b7a0260e01b7bffffffffffffffffffffffffffffffffffffffffffffffffffffffff1916817bffffffffffffffffffffffffffffffffffffffffffffffffffffffff1916145b9250508080611ebb90612e6f565b915050611d35565b50611ece565b600190505b95945050505050565b60007f01ffc9a7000000000000000000000000000000000000000000000000000000007bffffffffffffffffffffffffffffffffffffffffffffffffffffffff1916827bffffffffffffffffffffffffffffffffffffffffffffffffffffffff1916149050919050565b606060006002836002611f549190613837565b611f5e9190613414565b67ffffffffffffffff811115611f7757611f766129a9565b5b6040519080825280601f01601f191660200182016040528015611fa95781602001600182028036833780820191505090505b5090507f300000000000000000000000000000000000000000000000000000000000000081600081518110611fe157611fe0613653565b5b60200101907effffffffffffffffffffffffffffffffffffffffffffffffffffffffffffff1916908160001a9053507f78000000000000000000000000000000000000000000000000000000000000008160018151811061204557612044613653565b5b60200101907effffffffffffffffffffffffffffffffffffffffffffffffffffffffffffff1916908160001a905350600060018460026120859190613837565b61208f9190613414565b90505b600181111561212f577f3031323334353637383961626364656600000000000000000000000000000000600f8616601081106120d1576120d0613653565b5b1a60f81b8282815181106120e8576120e7613653565b5b60200101907effffffffffffffffffffffffffffffffffffffffffffffffffffffffffffff1916908160001a905350600485901c94508061212890613891565b9050612092565b5060008414612173576040517f08c379a000000000000000000000000000000000000000000000000000000000815260040161216a90613907565b60405180910390fd5b8091505092915050565b60006004549050600082116121c7576040517f08c379a00000000000000000000000000000000000000000000000000000000081526004016121be90613999565b60405180910390fd5b600073ffffffffffffffffffffffffffffffffffffffff168373ffffffffffffffffffffffffffffffffffffffff161415612237576040517f08c379a000000000000000000000000000000000000000000000000000000000815260040161222e90613a2b565b60405180910390fd5b6122446000848385611b23565b81600460008282546122569190613414565b92505081905550826003600083815260200190815260200160002060006101000a81548173ffffffffffffffffffffffffffffffffffffffff021916908373ffffffffffffffffffffffffffffffffffffffff1602179055506122c3816000611b8490919063ffffffff16565b6122d06000848385611be1565b60008190505b82826122e29190613414565b81101561235857808473ffffffffffffffffffffffffffffffffffffffff16600073ffffffffffffffffffffffffffffffffffffffff167fddf252ad1be2c89b69c2b068fc378daa952ba7f163c4a11628f55a4df523b3ef60405160405180910390a4808061235090612e6f565b9150506122d6565b50505050565b600080600883901c9050600060ff8416905060008560000160008481526020019081526020016000205490508160ff1881901c905060008111156123b7576123a58161247a565b60ff168203600884901b17935061244e565b5b60011561244d5760008311612402576040517f08c379a00000000000000000000000000000000000000000000000000000000081526004016123f990613abd565b60405180910390fd5b8280600190039350508560000160008481526020019081526020016000205490506000811115612448576124358161247a565b60ff0360ff16600884901b17935061244d565b6123b8565b5b50505092915050565b6000808273ffffffffffffffffffffffffffffffffffffffff163b119050919050565b60006040518061012001604052806101008152602001613ade610100913960f87e818283848586878898a8b8c8d8e8f929395969799a9b9d9e9faaeb6bedeeff6124c3856124ec565b02901c815181106124d7576124d6613653565b5b602001015160f81c60f81b60f81c9050919050565b60008082116124fa57600080fd5b8160000382169050919050565b6000604051905090565b600080fd5b600080fd5b60007fffffffff0000000000000000000000000000000000000000000000000000000082169050919050565b6125508161251b565b811461255b57600080fd5b50565b60008135905061256d81612547565b92915050565b60006020828403121561258957612588612511565b5b60006125978482850161255e565b91505092915050565b60008115159050919050565b6125b5816125a0565b82525050565b60006020820190506125d060008301846125ac565b92915050565b600081519050919050565b600082825260208201905092915050565b60005b838110156126105780820151818401526020810190506125f5565b8381111561261f576000848401525b50505050565b6000601f19601f8301169050919050565b6000612641826125d6565b61264b81856125e1565b935061265b8185602086016125f2565b61266481612625565b840191505092915050565b600060208201905081810360008301526126898184612636565b905092915050565b6000819050919050565b6126a481612691565b81146126af57600080fd5b50565b6000813590506126c18161269b565b92915050565b6000602082840312156126dd576126dc612511565b5b60006126eb848285016126b2565b91505092915050565b600073ffffffffffffffffffffffffffffffffffffffff82169050919050565b600061271f826126f4565b9050919050565b61272f81612714565b82525050565b600060208201905061274a6000830184612726565b92915050565b61275981612714565b811461276457600080fd5b50565b60008135905061277681612750565b92915050565b6000806040838503121561279357612792612511565b5b60006127a185828601612767565b92505060206127b2858286016126b2565b9150509250929050565b6127c581612691565b82525050565b60006020820190506127e060008301846127bc565b92915050565b6000806000606084860312156127ff576127fe612511565b5b600061280d86828701612767565b935050602061281e86828701612767565b925050604061282f868287016126b2565b9150509250925092565b6000819050919050565b61284c81612839565b811461285757600080fd5b50565b60008135905061286981612843565b92915050565b60006020828403121561288557612884612511565b5b60006128938482850161285a565b91505092915050565b6128a581612839565b82525050565b60006020820190506128c0600083018461289c565b92915050565b600080604083850312156128dd576128dc612511565b5b60006128eb8582860161285a565b92505060206128fc85828601612767565b9150509250929050565b60006020828403121561291c5761291b612511565b5b600061292a84828501612767565b91505092915050565b61293c816125a0565b811461294757600080fd5b50565b60008135905061295981612933565b92915050565b6000806040838503121561297657612975612511565b5b600061298485828601612767565b92505060206129958582860161294a565b9150509250929050565b600080fd5b600080fd5b7f4e487b7100000000000000000000000000000000000000000000000000000000600052604160045260246000fd5b6129e182612625565b810181811067ffffffffffffffff82111715612a00576129ff6129a9565b5b80604052505050565b6000612a13612507565b9050612a1f82826129d8565b919050565b600067ffffffffffffffff821115612a3f57612a3e6129a9565b5b612a4882612625565b9050602081019050919050565b82818337600083830152505050565b6000612a77612a7284612a24565b612a09565b905082815260208101848484011115612a9357612a926129a4565b5b612a9e848285612a55565b509392505050565b600082601f830112612abb57612aba61299f565b5b8135612acb848260208601612a64565b91505092915050565b60008060008060808587031215612aee57612aed612511565b5b6000612afc87828801612767565b9450506020612b0d87828801612767565b9350506040612b1e878288016126b2565b925050606085013567ffffffffffffffff811115612b3f57612b3e612516565b5b612b4b87828801612aa6565b91505092959194509250565b60008060408385031215612b6e57612b6d612511565b5b6000612b7c85828601612767565b9250506020612b8d85828601612767565b9150509250929050565b7f4e487b7100000000000000000000000000000000000000000000000000000000600052602260045260246000fd5b60006002820490506001821680612bde57607f821691505b60208210811415612bf257612bf1612b97565b5b50919050565b7f4552433732315073693a20617070726f76656420717565727920666f72206e6f60008201527f6e6578697374656e7420746f6b656e0000000000000000000000000000000000602082015250565b6000612c54602f836125e1565b9150612c5f82612bf8565b604082019050919050565b60006020820190508181036000830152612c8381612c47565b9050919050565b7f4552433732315073693a20617070726f76616c20746f2063757272656e74206f60008201527f776e657200000000000000000000000000000000000000000000000000000000602082015250565b6000612ce66024836125e1565b9150612cf182612c8a565b604082019050919050565b60006020820190508181036000830152612d1581612cd9565b9050919050565b7f4552433732315073693a20617070726f76652063616c6c6572206973206e6f7460008201527f206f776e6572206e6f7220617070726f76656420666f7220616c6c0000000000602082015250565b6000612d78603b836125e1565b9150612d8382612d1c565b604082019050919050565b60006020820190508181036000830152612da781612d6b565b9050919050565b7f4552433732315073693a207472616e736665722063616c6c6572206973206e6f60008201527f74206f776e6572206e6f7220617070726f766564000000000000000000000000602082015250565b6000612e0a6034836125e1565b9150612e1582612dae565b604082019050919050565b60006020820190508181036000830152612e3981612dfd565b9050919050565b7f4e487b7100000000000000000000000000000000000000000000000000000000600052601160045260246000fd5b6000612e7a82612691565b91507fffffffffffffffffffffffffffffffffffffffffffffffffffffffffffffffff821415612ead57612eac612e40565b5b600182019050919050565b7f4552433732315073693a206f776e657220696e646578206f7574206f6620626f60008201527f756e647300000000000000000000000000000000000000000000000000000000602082015250565b6000612f146024836125e1565b9150612f1f82612eb8565b604082019050919050565b60006020820190508181036000830152612f4381612f07565b9050919050565b7f416363657373436f6e74726f6c3a2063616e206f6e6c792072656e6f756e636560008201527f20726f6c657320666f722073656c660000000000000000000000000000000000602082015250565b6000612fa6602f836125e1565b9150612fb182612f4a565b604082019050919050565b60006020820190508181036000830152612fd581612f99565b9050919050565b7f4552433732315073693a20676c6f62616c20696e646578206f7574206f66206260008201527f6f756e6473000000000000000000000000000000000000000000000000000000602082015250565b60006130386025836125e1565b915061304382612fdc565b604082019050919050565b600060208201905081810360008301526130678161302b565b9050919050565b7f4552433732315073693a2062616c616e636520717565727920666f722074686560008201527f207a65726f206164647265737300000000000000000000000000000000000000602082015250565b60006130ca602d836125e1565b91506130d58261306e565b604082019050919050565b600060208201905081810360008301526130f9816130bd565b9050919050565b7f4552433732315073693a20617070726f766520746f2063616c6c657200000000600082015250565b6000613136601c836125e1565b915061314182613100565b602082019050919050565b6000602082019050818103600083015261316581613129565b9050919050565b7f4552433732315073693a2055524920717565727920666f72206e6f6e6578697360008201527f74656e7420746f6b656e00000000000000000000000000000000000000000000602082015250565b60006131c8602a836125e1565b91506131d38261316c565b604082019050919050565b600060208201905081810360008301526131f7816131bb565b9050919050565b600081905092915050565b6000613214826125d6565b61321e81856131fe565b935061322e8185602086016125f2565b80840191505092915050565b60006132468285613209565b91506132528284613209565b91508190509392505050565b7f4552433732315073693a206f70657261746f7220717565727920666f72206e6f60008201527f6e6578697374656e7420746f6b656e0000000000000000000000000000000000602082015250565b60006132ba602f836125e1565b91506132c58261325e565b604082019050919050565b600060208201905081810360008301526132e9816132ad565b9050919050565b7f4552433732315073693a207472616e73666572206f6620746f6b656e2074686160008201527f74206973206e6f74206f776e0000000000000000000000000000000000000000602082015250565b600061334c602c836125e1565b9150613357826132f0565b604082019050919050565b6000602082019050818103600083015261337b8161333f565b9050919050565b7f4552433732315073693a207472616e7366657220746f20746865207a65726f2060008201527f6164647265737300000000000000000000000000000000000000000000000000602082015250565b60006133de6027836125e1565b91506133e982613382565b604082019050919050565b6000602082019050818103600083015261340d816133d1565b9050919050565b600061341f82612691565b915061342a83612691565b9250827fffffffffffffffffffffffffffffffffffffffffffffffffffffffffffffffff0382111561345f5761345e612e40565b5b828201905092915050565b7f4552433732315073693a206f776e657220717565727920666f72206e6f6e657860008201527f697374656e7420746f6b656e0000000000000000000000000000000000000000602082015250565b60006134c6602c836125e1565b91506134d18261346a565b604082019050919050565b600060208201905081810360008301526134f5816134b9565b9050919050565b7f4552433732315073693a207472616e7366657220746f206e6f6e20455243373260008201527f31526563656976657220696d706c656d656e7465720000000000000000000000602082015250565b60006135586035836125e1565b9150613563826134fc565b604082019050919050565b600060208201905081810360008301526135878161354b565b9050919050565b7f4e487b7100000000000000000000000000000000000000000000000000000000600052601260045260246000fd5b60006135c882612691565b91506135d383612691565b9250826135e3576135e261358e565b5b828204905092915050565b60006135f982612691565b915061360483612691565b92508282101561361757613616612e40565b5b828203905092915050565b600061362d82612691565b915061363883612691565b9250826136485761364761358e565b5b828206905092915050565b7f4e487b7100000000000000000000000000000000000000000000000000000000600052603260045260246000fd5b7f416363657373436f6e74726f6c3a206163636f756e7420000000000000000000600082015250565b60006136b86017836131fe565b91506136c382613682565b601782019050919050565b7f206973206d697373696e6720726f6c6520000000000000000000000000000000600082015250565b60006137046011836131fe565b915061370f826136ce565b601182019050919050565b6000613725826136ab565b91506137318285613209565b915061373c826136f7565b91506137488284613209565b91508190509392505050565b600081519050919050565b600082825260208201905092915050565b600061377b82613754565b613785818561375f565b93506137958185602086016125f2565b61379e81612625565b840191505092915050565b60006080820190506137be6000830187612726565b6137cb6020830186612726565b6137d860408301856127bc565b81810360608301526137ea8184613770565b905095945050505050565b60008151905061380481612547565b92915050565b6000602082840312156138205761381f612511565b5b600061382e848285016137f5565b91505092915050565b600061384282612691565b915061384d83612691565b9250817fffffffffffffffffffffffffffffffffffffffffffffffffffffffffffffffff048311821515161561388657613885612e40565b5b828202905092915050565b600061389c82612691565b915060008214156138b0576138af612e40565b5b600182039050919050565b7f537472696e67733a20686578206c656e67746820696e73756666696369656e74600082015250565b60006138f16020836125e1565b91506138fc826138bb565b602082019050919050565b60006020820190508181036000830152613920816138e4565b9050919050565b7f4552433732315073693a207175616e74697479206d757374206265206772656160008201527f7465722030000000000000000000000000000000000000000000000000000000602082015250565b60006139836025836125e1565b915061398e82613927565b604082019050919050565b600060208201905081810360008301526139b281613976565b9050919050565b7f4552433732315073693a206d696e7420746f20746865207a65726f206164647260008201527f6573730000000000000000000000000000000000000000000000000000000000602082015250565b6000613a156023836125e1565b9150613a20826139b9565b604082019050919050565b60006020820190508181036000830152613a4481613a08565b9050919050565b7f4269744d6170733a205468652073657420626974206265666f7265207468652060008201527f696e64657820646f65736e27742065786973742e000000000000000000000000602082015250565b6000613aa76034836125e1565b9150613ab282613a4b565b604082019050919050565b60006020820190508181036000830152613ad681613a9a565b905091905056fe0001020903110a19042112290b311a3905412245134d2a550c5d32651b6d3a7506264262237d468514804e8d2b95569d0d495ea533a966b11c886eb93bc176c9071727374353637324837e9b47af86c7155181ad4fd18ed32c9096db57d59ee30e2e4a6a5f92a6be3498aae067ddb2eb1d5989b56fd7baf33ca0c2ee77e5caf7ff0810182028303840444c545c646c7425617c847f8c949c48a4a8b087b8c0c816365272829aaec650acd0d28fdad4e22d6991bd97dfdcea58b4d6f29fede4f6fe0f1f2f3f4b5b6b607b8b93a3a7b7bf357199c5abcfd9e168bcdee9b3f1ecf5fd1e3e5a7a8aa2b670c4ced8bbe8f0f4fc3d79a1c3cde7effb78cce6facbf9f8a264697066735822122066e3a94d5cd22682013c3a758998474db4818a7ba2860abc0fb5f343baab7b6564736f6c63430008090033",
  "linkReferences": {},
  "deployedLinkReferences": {}
}