{
  "_format": "hh-sol-artifact-1",
  "contractName": "NFTVault",
  "sourceName": "contracts/old-contracts/NFTVault.sol",
  "abi": [
    {
      "inputs": [],
      "stateMutability": "nonpayable",
      "type": "constructor"
    },
    {
      "anonymous": false,
      "inputs": [],
      "name": "Closed",
      "type": "event"
    },
    {
      "anonymous": false,
      "inputs": [
        {
          "indexed": true,
          "internalType": "address",
          "name": "previousOwner",
          "type": "address"
        },
        {
          "indexed": true,
          "internalType": "address",
          "name": "newOwner",
          "type": "address"
        }
      ],
      "name": "OwnershipTransferred",
      "type": "event"
    },
    {
      "anonymous": false,
      "inputs": [
        {
          "indexed": true,
          "internalType": "address",
          "name": "beneficiary",
          "type": "address"
        },
        {
          "indexed": false,
          "internalType": "uint256",
          "name": "weiAmount",
          "type": "uint256"
        }
      ],
      "name": "Refunded",
      "type": "event"
    },
    {
      "stateMutability": "payable",
      "type": "fallback"
    },
    {
      "inputs": [],
      "name": "close",
      "outputs": [],
      "stateMutability": "nonpayable",
      "type": "function"
    },
    {
      "inputs": [
        {
          "internalType": "address",
          "name": "investor",
          "type": "address"
        },
        {
          "internalType": "uint256",
          "name": "deduct",
          "type": "uint256"
        }
      ],
      "name": "deductRefundableBalances",
      "outputs": [],
      "stateMutability": "nonpayable",
      "type": "function"
    },
    {
      "inputs": [],
      "name": "owner",
      "outputs": [
        {
          "internalType": "address",
          "name": "",
          "type": "address"
        }
      ],
      "stateMutability": "view",
      "type": "function"
    },
    {
      "inputs": [
        {
          "internalType": "address payable",
          "name": "investor",
          "type": "address"
        }
      ],
      "name": "refund",
      "outputs": [],
      "stateMutability": "nonpayable",
      "type": "function"
    },
    {
      "inputs": [
        {
          "internalType": "address",
          "name": "",
          "type": "address"
        }
      ],
      "name": "refundableBalances",
      "outputs": [
        {
          "internalType": "uint256",
          "name": "",
          "type": "uint256"
        }
      ],
      "stateMutability": "view",
      "type": "function"
    },
    {
      "inputs": [],
      "name": "renounceOwnership",
      "outputs": [],
      "stateMutability": "nonpayable",
      "type": "function"
    },
    {
      "inputs": [],
      "name": "state",
      "outputs": [
        {
          "internalType": "enum NFTVault.State",
          "name": "",
          "type": "uint8"
        }
      ],
      "stateMutability": "view",
      "type": "function"
    },
    {
      "inputs": [
        {
          "internalType": "address",
          "name": "newOwner",
          "type": "address"
        }
      ],
      "name": "transferOwnership",
      "outputs": [],
      "stateMutability": "nonpayable",
      "type": "function"
    },
    {
      "inputs": [
        {
          "internalType": "address",
          "name": "investor",
          "type": "address"
        },
        {
          "internalType": "uint256",
          "name": "weiAmount",
          "type": "uint256"
        }
      ],
      "name": "updateRefundableBalances",
      "outputs": [],
      "stateMutability": "nonpayable",
      "type": "function"
    },
    {
      "stateMutability": "payable",
      "type": "receive"
    }
  ],
  "bytecode": "0x608060405234801561001057600080fd5b5061002d61002261005c60201b60201c565b61006460201b60201c565b60008060146101000a81548160ff0219169083600181111561005257610051610128565b5b0217905550610157565b600033905090565b60008060009054906101000a900473ffffffffffffffffffffffffffffffffffffffff169050816000806101000a81548173ffffffffffffffffffffffffffffffffffffffff021916908373ffffffffffffffffffffffffffffffffffffffff1602179055508173ffffffffffffffffffffffffffffffffffffffff168173ffffffffffffffffffffffffffffffffffffffff167f8be0079c531659141344cd1fd0a4f28419497f9722a3daafe3b4186f6b6457e060405160405180910390a35050565b7f4e487b7100000000000000000000000000000000000000000000000000000000600052602160045260246000fd5b610bf3806101666000396000f3fe60806040526004361061008a5760003560e01c8063715018a611610059578063715018a6146101395780638da5cb5b14610150578063c19d93fb1461017b578063f2fde38b146101a6578063fa89401a146101cf57610091565b80630a2f487b146100935780633dd2281d146100bc57806343d726d6146100f95780636f485d6c1461011057610091565b3661009157005b005b34801561009f57600080fd5b506100ba60048036038101906100b59190610837565b6101f8565b005b3480156100c857600080fd5b506100e360048036038101906100de9190610877565b61025a565b6040516100f091906108b3565b60405180910390f35b34801561010557600080fd5b5061010e610272565b005b34801561011c57600080fd5b5061013760048036038101906101329190610837565b610313565b005b34801561014557600080fd5b5061014e6103f4565b005b34801561015c57600080fd5b50610165610408565b60405161017291906108dd565b60405180910390f35b34801561018757600080fd5b50610190610431565b60405161019d919061096f565b60405180910390f35b3480156101b257600080fd5b506101cd60048036038101906101c89190610877565b610444565b005b3480156101db57600080fd5b506101f660048036038101906101f191906109c8565b6104c8565b005b61020061063e565b80600160008473ffffffffffffffffffffffffffffffffffffffff1673ffffffffffffffffffffffffffffffffffffffff168152602001908152602001600020600082825461024f9190610a24565b925050819055505050565b60016020528060005260406000206000915090505481565b61027a61063e565b6000600181111561028e5761028d6108f8565b5b600060149054906101000a900460ff1660018111156102b0576102af6108f8565b5b146102ba57600080fd5b6001600060146101000a81548160ff021916908360018111156102e0576102df6108f8565b5b02179055507f1cdde67b72a90f19919ac732a437ac2f7a10fc128d28c2a6e525d89ce5cd9d3a60405160405180910390a1565b60006001811115610327576103266108f8565b5b600060149054906101000a900460ff166001811115610349576103486108f8565b5b1461035357600080fd5b61035b61063e565b6103ad81600160008573ffffffffffffffffffffffffffffffffffffffff1673ffffffffffffffffffffffffffffffffffffffff168152602001908152602001600020546106bc90919063ffffffff16565b600160008473ffffffffffffffffffffffffffffffffffffffff1673ffffffffffffffffffffffffffffffffffffffff168152602001908152602001600020819055505050565b6103fc61063e565b61040660006106d2565b565b60008060009054906101000a900473ffffffffffffffffffffffffffffffffffffffff16905090565b600060149054906101000a900460ff1681565b61044c61063e565b600073ffffffffffffffffffffffffffffffffffffffff168173ffffffffffffffffffffffffffffffffffffffff1614156104bc576040517f08c379a00000000000000000000000000000000000000000000000000000000081526004016104b390610adb565b60405180910390fd5b6104c5816106d2565b50565b6104d061063e565b6000600160008373ffffffffffffffffffffffffffffffffffffffff1673ffffffffffffffffffffffffffffffffffffffff168152602001908152602001600020541161051c57600080fd5b6000600160008373ffffffffffffffffffffffffffffffffffffffff1673ffffffffffffffffffffffffffffffffffffffff1681526020019081526020016000205490506000600160008473ffffffffffffffffffffffffffffffffffffffff1673ffffffffffffffffffffffffffffffffffffffff168152602001908152602001600020819055508173ffffffffffffffffffffffffffffffffffffffff166108fc829081150290604051600060405180830381858888f193505050501580156105eb573d6000803e3d6000fd5b508173ffffffffffffffffffffffffffffffffffffffff167fd7dee2702d63ad89917b6a4da9981c90c4d24f8c2bdfd64c604ecae57d8d06518260405161063291906108b3565b60405180910390a25050565b610646610796565b73ffffffffffffffffffffffffffffffffffffffff16610664610408565b73ffffffffffffffffffffffffffffffffffffffff16146106ba576040517f08c379a00000000000000000000000000000000000000000000000000000000081526004016106b190610b47565b60405180910390fd5b565b600081836106ca9190610b67565b905092915050565b60008060009054906101000a900473ffffffffffffffffffffffffffffffffffffffff169050816000806101000a81548173ffffffffffffffffffffffffffffffffffffffff021916908373ffffffffffffffffffffffffffffffffffffffff1602179055508173ffffffffffffffffffffffffffffffffffffffff168173ffffffffffffffffffffffffffffffffffffffff167f8be0079c531659141344cd1fd0a4f28419497f9722a3daafe3b4186f6b6457e060405160405180910390a35050565b600033905090565b600080fd5b600073ffffffffffffffffffffffffffffffffffffffff82169050919050565b60006107ce826107a3565b9050919050565b6107de816107c3565b81146107e957600080fd5b50565b6000813590506107fb816107d5565b92915050565b6000819050919050565b61081481610801565b811461081f57600080fd5b50565b6000813590506108318161080b565b92915050565b6000806040838503121561084e5761084d61079e565b5b600061085c858286016107ec565b925050602061086d85828601610822565b9150509250929050565b60006020828403121561088d5761088c61079e565b5b600061089b848285016107ec565b91505092915050565b6108ad81610801565b82525050565b60006020820190506108c860008301846108a4565b92915050565b6108d7816107c3565b82525050565b60006020820190506108f260008301846108ce565b92915050565b7f4e487b7100000000000000000000000000000000000000000000000000000000600052602160045260246000fd5b60028110610938576109376108f8565b5b50565b600081905061094982610927565b919050565b60006109598261093b565b9050919050565b6109698161094e565b82525050565b60006020820190506109846000830184610960565b92915050565b6000610995826107a3565b9050919050565b6109a58161098a565b81146109b057600080fd5b50565b6000813590506109c28161099c565b92915050565b6000602082840312156109de576109dd61079e565b5b60006109ec848285016109b3565b91505092915050565b7f4e487b7100000000000000000000000000000000000000000000000000000000600052601160045260246000fd5b6000610a2f82610801565b9150610a3a83610801565b925082821015610a4d57610a4c6109f5565b5b828203905092915050565b600082825260208201905092915050565b7f4f776e61626c653a206e6577206f776e657220697320746865207a65726f206160008201527f6464726573730000000000000000000000000000000000000000000000000000602082015250565b6000610ac5602683610a58565b9150610ad082610a69565b604082019050919050565b60006020820190508181036000830152610af481610ab8565b9050919050565b7f4f776e61626c653a2063616c6c6572206973206e6f7420746865206f776e6572600082015250565b6000610b31602083610a58565b9150610b3c82610afb565b602082019050919050565b60006020820190508181036000830152610b6081610b24565b9050919050565b6000610b7282610801565b9150610b7d83610801565b9250827fffffffffffffffffffffffffffffffffffffffffffffffffffffffffffffffff03821115610bb257610bb16109f5565b5b82820190509291505056fea264697066735822122000a9cfe33e85b980b7933d9aa999481fec6f2b6e8b26ffc6389a456fffdd7bfe64736f6c63430008090033",
  "linkReferences": {},
  "deployedLinkReferences": {}
}