{
  "_format": "hh-sol-artifact-1",
  "contractName": "MoonSaleFactory",
  "sourceName": "contracts/MoonSaleFactory.sol",
  "abi": [
    {
      "inputs": [
        {
          "internalType": "address",
          "name": "_marketWrapperFactory",
          "type": "address"
        },
        {
          "internalType": "address",
          "name": "_vaultFactory",
          "type": "address"
        }
      ],
      "stateMutability": "nonpayable",
      "type": "constructor"
    },
    {
      "anonymous": false,
      "inputs": [
        {
          "indexed": true,
          "internalType": "bytes32",
          "name": "role",
          "type": "bytes32"
        },
        {
          "indexed": true,
          "internalType": "bytes32",
          "name": "previousAdminRole",
          "type": "bytes32"
        },
        {
          "indexed": true,
          "internalType": "bytes32",
          "name": "newAdminRole",
          "type": "bytes32"
        }
      ],
      "name": "RoleAdminChanged",
      "type": "event"
    },
    {
      "anonymous": false,
      "inputs": [
        {
          "indexed": true,
          "internalType": "bytes32",
          "name": "role",
          "type": "bytes32"
        },
        {
          "indexed": true,
          "internalType": "address",
          "name": "account",
          "type": "address"
        },
        {
          "indexed": true,
          "internalType": "address",
          "name": "sender",
          "type": "address"
        }
      ],
      "name": "RoleGranted",
      "type": "event"
    },
    {
      "anonymous": false,
      "inputs": [
        {
          "indexed": true,
          "internalType": "bytes32",
          "name": "role",
          "type": "bytes32"
        },
        {
          "indexed": true,
          "internalType": "address",
          "name": "account",
          "type": "address"
        },
        {
          "indexed": true,
          "internalType": "address",
          "name": "sender",
          "type": "address"
        }
      ],
      "name": "RoleRevoked",
      "type": "event"
    },
    {
      "inputs": [],
      "name": "DEFAULT_ADMIN_ROLE",
      "outputs": [
        {
          "internalType": "bytes32",
          "name": "",
          "type": "bytes32"
        }
      ],
      "stateMutability": "view",
      "type": "function"
    },
    {
      "inputs": [
        {
          "internalType": "bytes32",
          "name": "role",
          "type": "bytes32"
        }
      ],
      "name": "getRoleAdmin",
      "outputs": [
        {
          "internalType": "bytes32",
          "name": "",
          "type": "bytes32"
        }
      ],
      "stateMutability": "view",
      "type": "function"
    },
    {
      "inputs": [
        {
          "internalType": "address",
          "name": "to",
          "type": "address"
        }
      ],
      "name": "grantOwnerRole",
      "outputs": [],
      "stateMutability": "nonpayable",
      "type": "function"
    },
    {
      "inputs": [
        {
          "internalType": "bytes32",
          "name": "role",
          "type": "bytes32"
        },
        {
          "internalType": "address",
          "name": "account",
          "type": "address"
        }
      ],
      "name": "grantRole",
      "outputs": [],
      "stateMutability": "nonpayable",
      "type": "function"
    },
    {
      "inputs": [
        {
          "internalType": "bytes32",
          "name": "role",
          "type": "bytes32"
        },
        {
          "internalType": "address",
          "name": "account",
          "type": "address"
        }
      ],
      "name": "hasRole",
      "outputs": [
        {
          "internalType": "bool",
          "name": "",
          "type": "bool"
        }
      ],
      "stateMutability": "view",
      "type": "function"
    },
    {
      "inputs": [
        {
          "internalType": "uint256",
          "name": "_newClosingTime",
          "type": "uint256"
        },
        {
          "internalType": "string",
          "name": "_fractionalUri",
          "type": "string"
        },
        {
          "internalType": "address",
          "name": "_sale",
          "type": "address"
        },
        {
          "components": [
            {
              "components": [
                {
                  "internalType": "address",
                  "name": "considerationToken",
                  "type": "address"
                },
                {
                  "internalType": "uint256",
                  "name": "considerationIdentifier",
                  "type": "uint256"
                },
                {
                  "internalType": "uint256",
                  "name": "considerationAmount",
                  "type": "uint256"
                },
                {
                  "internalType": "address payable",
                  "name": "offerer",
                  "type": "address"
                },
                {
                  "internalType": "address",
                  "name": "zone",
                  "type": "address"
                },
                {
                  "internalType": "address",
                  "name": "offerToken",
                  "type": "address"
                },
                {
                  "internalType": "uint256",
                  "name": "offerIdentifier",
                  "type": "uint256"
                },
                {
                  "internalType": "uint256",
                  "name": "offerAmount",
                  "type": "uint256"
                },
                {
                  "internalType": "enum BasicOrderType",
                  "name": "basicOrderType",
                  "type": "uint8"
                },
                {
                  "internalType": "uint256",
                  "name": "startTime",
                  "type": "uint256"
                },
                {
                  "internalType": "uint256",
                  "name": "endTime",
                  "type": "uint256"
                },
                {
                  "internalType": "bytes32",
                  "name": "zoneHash",
                  "type": "bytes32"
                },
                {
                  "internalType": "uint256",
                  "name": "salt",
                  "type": "uint256"
                },
                {
                  "internalType": "bytes32",
                  "name": "offererConduitKey",
                  "type": "bytes32"
                },
                {
                  "internalType": "bytes32",
                  "name": "fulfillerConduitKey",
                  "type": "bytes32"
                },
                {
                  "internalType": "uint256",
                  "name": "totalOriginalAdditionalRecipients",
                  "type": "uint256"
                },
                {
                  "components": [
                    {
                      "internalType": "uint256",
                      "name": "amount",
                      "type": "uint256"
                    },
                    {
                      "internalType": "address payable",
                      "name": "recipient",
                      "type": "address"
                    }
                  ],
                  "internalType": "struct AdditionalRecipient[]",
                  "name": "additionalRecipients",
                  "type": "tuple[]"
                },
                {
                  "internalType": "bytes",
                  "name": "signature",
                  "type": "bytes"
                }
              ],
              "internalType": "struct BasicOrderParameters",
              "name": "orderParams",
              "type": "tuple"
            },
            {
              "internalType": "uint256",
              "name": "buyNowPrice",
              "type": "uint256"
            },
            {
              "internalType": "address",
              "name": "marketPlace",
              "type": "address"
            }
          ],
          "internalType": "struct MarketWrapperConstructorParameters",
          "name": "_params",
          "type": "tuple"
        }
      ],
      "name": "migration",
      "outputs": [],
      "stateMutability": "nonpayable",
      "type": "function"
    },
    {
      "inputs": [
        {
          "internalType": "uint256",
          "name": "",
          "type": "uint256"
        }
      ],
      "name": "moonSales",
      "outputs": [
        {
          "internalType": "address",
          "name": "saleAddress",
          "type": "address"
        },
        {
          "internalType": "address",
          "name": "collectionAddress",
          "type": "address"
        },
        {
          "internalType": "uint256",
          "name": "tokenId",
          "type": "uint256"
        }
      ],
      "stateMutability": "view",
      "type": "function"
    },
    {
      "inputs": [
        {
          "internalType": "uint256",
          "name": "_rate",
          "type": "uint256"
        },
        {
          "internalType": "uint256",
          "name": "_closingTime",
          "type": "uint256"
        },
        {
          "internalType": "address",
          "name": "tokenAddress",
          "type": "address"
        },
        {
          "components": [
            {
              "components": [
                {
                  "internalType": "address",
                  "name": "considerationToken",
                  "type": "address"
                },
                {
                  "internalType": "uint256",
                  "name": "considerationIdentifier",
                  "type": "uint256"
                },
                {
                  "internalType": "uint256",
                  "name": "considerationAmount",
                  "type": "uint256"
                },
                {
                  "internalType": "address payable",
                  "name": "offerer",
                  "type": "address"
                },
                {
                  "internalType": "address",
                  "name": "zone",
                  "type": "address"
                },
                {
                  "internalType": "address",
                  "name": "offerToken",
                  "type": "address"
                },
                {
                  "internalType": "uint256",
                  "name": "offerIdentifier",
                  "type": "uint256"
                },
                {
                  "internalType": "uint256",
                  "name": "offerAmount",
                  "type": "uint256"
                },
                {
                  "internalType": "enum BasicOrderType",
                  "name": "basicOrderType",
                  "type": "uint8"
                },
                {
                  "internalType": "uint256",
                  "name": "startTime",
                  "type": "uint256"
                },
                {
                  "internalType": "uint256",
                  "name": "endTime",
                  "type": "uint256"
                },
                {
                  "internalType": "bytes32",
                  "name": "zoneHash",
                  "type": "bytes32"
                },
                {
                  "internalType": "uint256",
                  "name": "salt",
                  "type": "uint256"
                },
                {
                  "internalType": "bytes32",
                  "name": "offererConduitKey",
                  "type": "bytes32"
                },
                {
                  "internalType": "bytes32",
                  "name": "fulfillerConduitKey",
                  "type": "bytes32"
                },
                {
                  "internalType": "uint256",
                  "name": "totalOriginalAdditionalRecipients",
                  "type": "uint256"
                },
                {
                  "components": [
                    {
                      "internalType": "uint256",
                      "name": "amount",
                      "type": "uint256"
                    },
                    {
                      "internalType": "address payable",
                      "name": "recipient",
                      "type": "address"
                    }
                  ],
                  "internalType": "struct AdditionalRecipient[]",
                  "name": "additionalRecipients",
                  "type": "tuple[]"
                },
                {
                  "internalType": "bytes",
                  "name": "signature",
                  "type": "bytes"
                }
              ],
              "internalType": "struct BasicOrderParameters",
              "name": "orderParams",
              "type": "tuple"
            },
            {
              "internalType": "uint256",
              "name": "buyNowPrice",
              "type": "uint256"
            },
            {
              "internalType": "address",
              "name": "marketPlace",
              "type": "address"
            }
          ],
          "internalType": "struct MarketWrapperConstructorParameters",
          "name": "_params",
          "type": "tuple"
        }
      ],
      "name": "newMoonSale",
      "outputs": [
        {
          "internalType": "address",
          "name": "",
          "type": "address"
        }
      ],
      "stateMutability": "nonpayable",
      "type": "function"
    },
    {
      "inputs": [],
      "name": "numSales",
      "outputs": [
        {
          "internalType": "uint256",
          "name": "count",
          "type": "uint256"
        }
      ],
      "stateMutability": "view",
      "type": "function"
    },
    {
      "inputs": [
        {
          "internalType": "bytes32",
          "name": "role",
          "type": "bytes32"
        },
        {
          "internalType": "address",
          "name": "account",
          "type": "address"
        }
      ],
      "name": "renounceRole",
      "outputs": [],
      "stateMutability": "nonpayable",
      "type": "function"
    },
    {
      "inputs": [
        {
          "internalType": "bytes32",
          "name": "role",
          "type": "bytes32"
        },
        {
          "internalType": "address",
          "name": "account",
          "type": "address"
        }
      ],
      "name": "revokeRole",
      "outputs": [],
      "stateMutability": "nonpayable",
      "type": "function"
    },
    {
      "inputs": [
        {
          "internalType": "address",
          "name": "",
          "type": "address"
        }
      ],
      "name": "saleMarketWrappers",
      "outputs": [
        {
          "internalType": "address",
          "name": "",
          "type": "address"
        }
      ],
      "stateMutability": "view",
      "type": "function"
    },
    {
      "inputs": [
        {
          "internalType": "address",
          "name": "",
          "type": "address"
        }
      ],
      "name": "saleTokens",
      "outputs": [
        {
          "internalType": "address",
          "name": "",
          "type": "address"
        }
      ],
      "stateMutability": "view",
      "type": "function"
    },
    {
      "inputs": [
        {
          "internalType": "address",
          "name": "",
          "type": "address"
        }
      ],
      "name": "saleVaults",
      "outputs": [
        {
          "internalType": "address",
          "name": "",
          "type": "address"
        }
      ],
      "stateMutability": "view",
      "type": "function"
    },
    {
      "inputs": [
        {
          "internalType": "bytes4",
          "name": "interfaceId",
          "type": "bytes4"
        }
      ],
      "name": "supportsInterface",
      "outputs": [
        {
          "internalType": "bool",
          "name": "",
          "type": "bool"
        }
      ],
      "stateMutability": "view",
      "type": "function"
    }
  ],
  "bytecode": "0x60806040523480156200001157600080fd5b50604051620062f7380380620062f78339818101604052810190620000379190620002a3565b6200004c6000801b33620000d660201b60201c565b81600560006101000a81548173ffffffffffffffffffffffffffffffffffffffff021916908373ffffffffffffffffffffffffffffffffffffffff16021790555080600660006101000a81548173ffffffffffffffffffffffffffffffffffffffff021916908373ffffffffffffffffffffffffffffffffffffffff1602179055505050620002ea565b620000e88282620001c760201b60201c565b620001c357600160008084815260200190815260200160002060000160008373ffffffffffffffffffffffffffffffffffffffff1673ffffffffffffffffffffffffffffffffffffffff16815260200190815260200160002060006101000a81548160ff021916908315150217905550620001686200023160201b60201c565b73ffffffffffffffffffffffffffffffffffffffff168173ffffffffffffffffffffffffffffffffffffffff16837f2f8788117e7eff1d82e926ec794901d17c78024a50270940304540a733656f0d60405160405180910390a45b5050565b600080600084815260200190815260200160002060000160008373ffffffffffffffffffffffffffffffffffffffff1673ffffffffffffffffffffffffffffffffffffffff16815260200190815260200160002060009054906101000a900460ff16905092915050565b600033905090565b600080fd5b600073ffffffffffffffffffffffffffffffffffffffff82169050919050565b60006200026b826200023e565b9050919050565b6200027d816200025e565b81146200028957600080fd5b50565b6000815190506200029d8162000272565b92915050565b60008060408385031215620002bd57620002bc62000239565b5b6000620002cd858286016200028c565b9250506020620002e0858286016200028c565b9150509250929050565b615ffd80620002fa6000396000f3fe60806040523480156200001157600080fd5b50600436106200010c5760003560e01c80636587210711620000a5578063c52e1ece116200006f578063c52e1ece14620002f9578063d547741f1462000319578063dab2c3791462000339578063fb79d4fb1462000371576200010c565b806365872107146200024957806391d14854146200027f57806399aa93c814620002b5578063a217fddf14620002d7576200010c565b80632f2ff15d11620000e75780632f2ff15d14620001b357806331296d6e14620001d357806336568abe1462000209578063397a8bab1462000229576200010c565b806301ffc9a71462000111578063079fb2271462000147578063248a9ca3146200017d575b600080fd5b6200012f600480360381019062000129919062001ac4565b620003a7565b6040516200013e919062001b13565b60405180910390f35b6200016560048036038101906200015f919062001bf7565b62000424565b60405162000174919062001c99565b60405180910390f35b6200019b600480360381019062000195919062001cf1565b62000de8565b604051620001aa919062001d34565b60405180910390f35b620001d16004803603810190620001cb919062001d51565b62000e07565b005b620001f16004803603810190620001eb919062001d98565b62000e2e565b60405162000200919062001c99565b60405180910390f35b62000227600480360381019062000221919062001d51565b62000e61565b005b62000247600480360381019062000241919062001d98565b62000eeb565b005b62000267600480360381019062000261919062001d98565b62000f0d565b60405162000276919062001c99565b60405180910390f35b6200029d600480360381019062000297919062001d51565b62000f40565b604051620002ac919062001b13565b60405180910390f35b620002bf62000faa565b604051620002ce919062001ddb565b60405180910390f35b620002e162000fb7565b604051620002f0919062001d34565b60405180910390f35b62000317600480360381019062000311919062001f5a565b62000fbe565b005b62000337600480360381019062000331919062001d51565b62001372565b005b6200035760048036038101906200035191906200200a565b62001399565b60405162000368939291906200203c565b60405180910390f35b6200038f600480360381019062000389919062001d98565b62001414565b6040516200039e919062001c99565b60405180910390f35b60007f7965db0b000000000000000000000000000000000000000000000000000000007bffffffffffffffffffffffffffffffffffffffffffffffffffffffff1916827bffffffffffffffffffffffffffffffffffffffffffffffffffffffff191614806200041d57506200041c8262001447565b5b9050919050565b60008060001b6200043581620014b1565b6000600660009054906101000a900473ffffffffffffffffffffffffffffffffffffffff1673ffffffffffffffffffffffffffffffffffffffff16633b313a326040518163ffffffff1660e01b81526004016020604051808303816000875af1158015620004a7573d6000803e3d6000fd5b505050506040513d601f19601f82011682018060405250810190620004cd919062002090565b90506000600560009054906101000a900473ffffffffffffffffffffffffffffffffffffffff1673ffffffffffffffffffffffffffffffffffffffff166378141b22866040518263ffffffff1660e01b81526004016200052e91906200279d565b6020604051808303816000875af11580156200054e573d6000803e3d6000fd5b505050506040513d601f19601f8201168201806040525081019062000574919062002090565b9050600660009054906101000a900473ffffffffffffffffffffffffffffffffffffffff1673ffffffffffffffffffffffffffffffffffffffff16635556f1aa83306040518363ffffffff1660e01b8152600401620005d5929190620027c1565b600060405180830381600087803b158015620005f057600080fd5b505af115801562000605573d6000803e3d6000fd5b50505050600560009054906101000a900473ffffffffffffffffffffffffffffffffffffffff1673ffffffffffffffffffffffffffffffffffffffff16635556f1aa82306040518363ffffffff1660e01b815260040162000668929190620027c1565b600060405180830381600087803b1580156200068357600080fd5b505af115801562000698573d6000803e3d6000fd5b50505050600660009054906101000a900473ffffffffffffffffffffffffffffffffffffffff1673ffffffffffffffffffffffffffffffffffffffff16635556f1aa83336040518363ffffffff1660e01b8152600401620006fb929190620027c1565b600060405180830381600087803b1580156200071657600080fd5b505af11580156200072b573d6000803e3d6000fd5b50505050600560009054906101000a900473ffffffffffffffffffffffffffffffffffffffff1673ffffffffffffffffffffffffffffffffffffffff16635556f1aa82336040518363ffffffff1660e01b81526004016200078e929190620027c1565b600060405180830381600087803b158015620007a957600080fd5b505af1158015620007be573d6000803e3d6000fd5b505050506000620007d98988428b87878c60200135620014c9565b9050600660009054906101000a900473ffffffffffffffffffffffffffffffffffffffff1673ffffffffffffffffffffffffffffffffffffffff16635556f1aa84836040518363ffffffff1660e01b81526004016200083a929190620027c1565b600060405180830381600087803b1580156200085557600080fd5b505af11580156200086a573d6000803e3d6000fd5b50505050600560009054906101000a900473ffffffffffffffffffffffffffffffffffffffff1673ffffffffffffffffffffffffffffffffffffffff16635556f1aa83836040518363ffffffff1660e01b8152600401620008cd929190620027c1565b600060405180830381600087803b158015620008e857600080fd5b505af1158015620008fd573d6000803e3d6000fd5b5050505060008790508073ffffffffffffffffffffffffffffffffffffffff1663397a8bab836040518263ffffffff1660e01b815260040162000941919062001c99565b600060405180830381600087803b1580156200095c57600080fd5b505af115801562000971573d6000803e3d6000fd5b5050505060008290508073ffffffffffffffffffffffffffffffffffffffff1663397a8bab306040518263ffffffff1660e01b8152600401620009b5919062001c99565b600060405180830381600087803b158015620009d057600080fd5b505af1158015620009e5573d6000803e3d6000fd5b505050508073ffffffffffffffffffffffffffffffffffffffff1663397a8bab336040518263ffffffff1660e01b815260040162000a24919062001c99565b600060405180830381600087803b15801562000a3f57600080fd5b505af115801562000a54573d6000803e3d6000fd5b5050505062000a62620019f8565b83816000019073ffffffffffffffffffffffffffffffffffffffff16908173ffffffffffffffffffffffffffffffffffffffff168152505088806000019062000aac9190620027f3565b60a001602081019062000ac0919062001d98565b816020019073ffffffffffffffffffffffffffffffffffffffff16908173ffffffffffffffffffffffffffffffffffffffff168152505088806000019062000b099190620027f3565b60c00135816040018181525050600160405180606001604052808673ffffffffffffffffffffffffffffffffffffffff1681526020018b806000019062000b519190620027f3565b60a001602081019062000b65919062001d98565b73ffffffffffffffffffffffffffffffffffffffff1681526020018b806000019062000b929190620027f3565b60c00135815250908060018154018082558091505060019003906000526020600020906003020160009091909190915060008201518160000160006101000a81548173ffffffffffffffffffffffffffffffffffffffff021916908373ffffffffffffffffffffffffffffffffffffffff16021790555060208201518160010160006101000a81548173ffffffffffffffffffffffffffffffffffffffff021916908373ffffffffffffffffffffffffffffffffffffffff16021790555060408201518160020155505089600260008673ffffffffffffffffffffffffffffffffffffffff1673ffffffffffffffffffffffffffffffffffffffff16815260200190815260200160002060006101000a81548173ffffffffffffffffffffffffffffffffffffffff021916908373ffffffffffffffffffffffffffffffffffffffff16021790555085600360008673ffffffffffffffffffffffffffffffffffffffff1673ffffffffffffffffffffffffffffffffffffffff16815260200190815260200160002060006101000a81548173ffffffffffffffffffffffffffffffffffffffff021916908373ffffffffffffffffffffffffffffffffffffffff16021790555084600460008673ffffffffffffffffffffffffffffffffffffffff1673ffffffffffffffffffffffffffffffffffffffff16815260200190815260200160002060006101000a81548173ffffffffffffffffffffffffffffffffffffffff021916908373ffffffffffffffffffffffffffffffffffffffff16021790555083975050505050505050949350505050565b6000806000838152602001908152602001600020600101549050919050565b62000e128262000de8565b62000e1d81620014b1565b62000e29838362001522565b505050565b60026020528060005260406000206000915054906101000a900473ffffffffffffffffffffffffffffffffffffffff1681565b62000e6b62001607565b73ffffffffffffffffffffffffffffffffffffffff168173ffffffffffffffffffffffffffffffffffffffff161462000edb576040517f08c379a000000000000000000000000000000000000000000000000000000000815260040162000ed290620028a6565b60405180910390fd5b62000ee782826200160f565b5050565b6000801b62000efa81620014b1565b62000f096000801b8362001522565b5050565b60046020528060005260406000206000915054906101000a900473ffffffffffffffffffffffffffffffffffffffff1681565b600080600084815260200190815260200160002060000160008373ffffffffffffffffffffffffffffffffffffffff1673ffffffffffffffffffffffffffffffffffffffff16815260200190815260200160002060009054906101000a900460ff16905092915050565b6000600180549050905090565b6000801b81565b6000801b62000fcd81620014b1565b6000805b600180549050811015620010b7576001818154811062000ff65762000ff5620028c8565b5b906000526020600020906003020160000160009054906101000a900473ffffffffffffffffffffffffffffffffffffffff1673ffffffffffffffffffffffffffffffffffffffff168573ffffffffffffffffffffffffffffffffffffffff1603620010a157849150838060000190620010709190620027f3565b60c00135600182815481106200108b576200108a620028c8565b5b9060005260206000209060030201600201819055505b8080620010ae9062002926565b91505062000fd1565b50600073ffffffffffffffffffffffffffffffffffffffff168173ffffffffffffffffffffffffffffffffffffffff16036200112a576040517f08c379a00000000000000000000000000000000000000000000000000000000081526004016200112190620029c3565b60405180910390fd5b6000600260008673ffffffffffffffffffffffffffffffffffffffff1673ffffffffffffffffffffffffffffffffffffffff16815260200190815260200160002060009054906101000a900473ffffffffffffffffffffffffffffffffffffffff16905060008190508073ffffffffffffffffffffffffffffffffffffffff1663d926a5dd868060000190620011c19190620027f3565b60c00135896040518363ffffffff1660e01b8152600401620011e592919062002a67565b600060405180830381600087803b1580156200120057600080fd5b505af115801562001215573d6000803e3d6000fd5b505050506000600460008873ffffffffffffffffffffffffffffffffffffffff1673ffffffffffffffffffffffffffffffffffffffff16815260200190815260200160002060009054906101000a900473ffffffffffffffffffffffffffffffffffffffff1690508073ffffffffffffffffffffffffffffffffffffffff16632c5a0a13876040518263ffffffff1660e01b8152600401620012b891906200279d565b600060405180830381600087803b158015620012d357600080fd5b505af1158015620012e8573d6000803e3d6000fd5b5050505060008790508073ffffffffffffffffffffffffffffffffffffffff1663a4bf26b68b89602001356040518363ffffffff1660e01b81526004016200133292919062002a9b565b600060405180830381600087803b1580156200134d57600080fd5b505af115801562001362573d6000803e3d6000fd5b5050505050505050505050505050565b6200137d8262000de8565b6200138881620014b1565b6200139483836200160f565b505050565b60018181548110620013aa57600080fd5b90600052602060002090600302016000915090508060000160009054906101000a900473ffffffffffffffffffffffffffffffffffffffff16908060010160009054906101000a900473ffffffffffffffffffffffffffffffffffffffff16908060020154905083565b60036020528060005260406000206000915054906101000a900473ffffffffffffffffffffffffffffffffffffffff1681565b60007f01ffc9a7000000000000000000000000000000000000000000000000000000007bffffffffffffffffffffffffffffffffffffffffffffffffffffffff1916827bffffffffffffffffffffffffffffffffffffffffffffffffffffffff1916149050919050565b620014c681620014c062001607565b620016f5565b50565b60008088888888888888604051620014e19062001a45565b620014f3979695949392919062002ad9565b604051809103906000f08015801562001510573d6000803e3d6000fd5b50905080915050979650505050505050565b6200152e828262000f40565b6200160357600160008084815260200190815260200160002060000160008373ffffffffffffffffffffffffffffffffffffffff1673ffffffffffffffffffffffffffffffffffffffff16815260200190815260200160002060006101000a81548160ff021916908315150217905550620015a862001607565b73ffffffffffffffffffffffffffffffffffffffff168173ffffffffffffffffffffffffffffffffffffffff16837f2f8788117e7eff1d82e926ec794901d17c78024a50270940304540a733656f0d60405160405180910390a45b5050565b600033905090565b6200161b828262000f40565b15620016f157600080600084815260200190815260200160002060000160008373ffffffffffffffffffffffffffffffffffffffff1673ffffffffffffffffffffffffffffffffffffffff16815260200190815260200160002060006101000a81548160ff0219169083151502179055506200169662001607565b73ffffffffffffffffffffffffffffffffffffffff168173ffffffffffffffffffffffffffffffffffffffff16837ff6391f5c32d9c69d2a47ea670b442974b53935d1edc7fd64eb21e047a839171b60405160405180910390a45b5050565b62001701828262000f40565b6200179957620017298173ffffffffffffffffffffffffffffffffffffffff1660146200179d565b620017398360001c60206200179d565b6040516020016200174c92919062002c38565b6040516020818303038152906040526040517f08c379a000000000000000000000000000000000000000000000000000000000815260040162001790919062002c7a565b60405180910390fd5b5050565b606060006002836002620017b2919062002c9e565b620017be919062002cff565b67ffffffffffffffff811115620017da57620017d962001e13565b5b6040519080825280601f01601f1916602001820160405280156200180d5781602001600182028036833780820191505090505b5090507f300000000000000000000000000000000000000000000000000000000000000081600081518110620018485762001847620028c8565b5b60200101907effffffffffffffffffffffffffffffffffffffffffffffffffffffffffffff1916908160001a9053507f780000000000000000000000000000000000000000000000000000000000000081600181518110620018af57620018ae620028c8565b5b60200101907effffffffffffffffffffffffffffffffffffffffffffffffffffffffffffff1916908160001a90535060006001846002620018f1919062002c9e565b620018fd919062002cff565b90505b6001811115620019a7577f3031323334353637383961626364656600000000000000000000000000000000600f861660108110620019435762001942620028c8565b5b1a60f81b8282815181106200195d576200195c620028c8565b5b60200101907effffffffffffffffffffffffffffffffffffffffffffffffffffffffffffff1916908160001a905350600485901c9450806200199f9062002d5c565b905062001900565b5060008414620019ee576040517f08c379a0000000000000000000000000000000000000000000000000000000008152600401620019e59062002dda565b60405180910390fd5b8091505092915050565b6040518060600160405280600073ffffffffffffffffffffffffffffffffffffffff168152602001600073ffffffffffffffffffffffffffffffffffffffff168152602001600081525090565b6131cb8062002dfd83390190565b6000604051905090565b600080fd5b600080fd5b60007fffffffff0000000000000000000000000000000000000000000000000000000082169050919050565b62001a9e8162001a67565b811462001aaa57600080fd5b50565b60008135905062001abe8162001a93565b92915050565b60006020828403121562001add5762001adc62001a5d565b5b600062001aed8482850162001aad565b91505092915050565b60008115159050919050565b62001b0d8162001af6565b82525050565b600060208201905062001b2a600083018462001b02565b92915050565b6000819050919050565b62001b458162001b30565b811462001b5157600080fd5b50565b60008135905062001b658162001b3a565b92915050565b600073ffffffffffffffffffffffffffffffffffffffff82169050919050565b600062001b988262001b6b565b9050919050565b62001baa8162001b8b565b811462001bb657600080fd5b50565b60008135905062001bca8162001b9f565b92915050565b600080fd5b60006060828403121562001bee5762001bed62001bd0565b5b81905092915050565b6000806000806080858703121562001c145762001c1362001a5d565b5b600062001c248782880162001b54565b945050602062001c378782880162001b54565b935050604062001c4a8782880162001bb9565b925050606085013567ffffffffffffffff81111562001c6e5762001c6d62001a62565b5b62001c7c8782880162001bd5565b91505092959194509250565b62001c938162001b8b565b82525050565b600060208201905062001cb0600083018462001c88565b92915050565b6000819050919050565b62001ccb8162001cb6565b811462001cd757600080fd5b50565b60008135905062001ceb8162001cc0565b92915050565b60006020828403121562001d0a5762001d0962001a5d565b5b600062001d1a8482850162001cda565b91505092915050565b62001d2e8162001cb6565b82525050565b600060208201905062001d4b600083018462001d23565b92915050565b6000806040838503121562001d6b5762001d6a62001a5d565b5b600062001d7b8582860162001cda565b925050602062001d8e8582860162001bb9565b9150509250929050565b60006020828403121562001db15762001db062001a5d565b5b600062001dc18482850162001bb9565b91505092915050565b62001dd58162001b30565b82525050565b600060208201905062001df2600083018462001dca565b92915050565b600080fd5b600080fd5b6000601f19601f8301169050919050565b7f4e487b7100000000000000000000000000000000000000000000000000000000600052604160045260246000fd5b62001e4d8262001e02565b810181811067ffffffffffffffff8211171562001e6f5762001e6e62001e13565b5b80604052505050565b600062001e8462001a53565b905062001e92828262001e42565b919050565b600067ffffffffffffffff82111562001eb55762001eb462001e13565b5b62001ec08262001e02565b9050602081019050919050565b82818337600083830152505050565b600062001ef362001eed8462001e97565b62001e78565b90508281526020810184848401111562001f125762001f1162001dfd565b5b62001f1f84828562001ecd565b509392505050565b600082601f83011262001f3f5762001f3e62001df8565b5b813562001f5184826020860162001edc565b91505092915050565b6000806000806080858703121562001f775762001f7662001a5d565b5b600062001f878782880162001b54565b945050602085013567ffffffffffffffff81111562001fab5762001faa62001a62565b5b62001fb98782880162001f27565b935050604062001fcc8782880162001bb9565b925050606085013567ffffffffffffffff81111562001ff05762001fef62001a62565b5b62001ffe8782880162001bd5565b91505092959194509250565b60006020828403121562002023576200202262001a5d565b5b6000620020338482850162001b54565b91505092915050565b600060608201905062002053600083018662001c88565b62002062602083018562001c88565b62002071604083018462001dca565b949350505050565b6000815190506200208a8162001b9f565b92915050565b600060208284031215620020a957620020a862001a5d565b5b6000620020b98482850162002079565b91505092915050565b600080fd5b60008235600161024003833603038112620020e757620020e6620020c2565b5b82810191505092915050565b600062002104602084018462001bb9565b905092915050565b620021178162001b8b565b82525050565b60006200212e602084018462001b54565b905092915050565b620021418162001b30565b82525050565b6000620021548262001b6b565b9050919050565b620021668162002147565b81146200217257600080fd5b50565b60008135905062002186816200215b565b92915050565b60006200219d602084018462002175565b905092915050565b620021b08162002147565b82525050565b60188110620021c457600080fd5b50565b600081359050620021d881620021b6565b92915050565b6000620021ef6020840184620021c7565b905092915050565b7f4e487b7100000000000000000000000000000000000000000000000000000000600052602160045260246000fd5b601881106200223a5762002239620021f7565b5b50565b60008190506200224d8262002226565b919050565b60006200225f826200223d565b9050919050565b620022718162002252565b82525050565b600062002288602084018462001cda565b905092915050565b6200229b8162001cb6565b82525050565b600080fd5b600080fd5b60008083356001602003843603038112620022cb57620022ca620020c2565b5b83810192508235915060208301925067ffffffffffffffff821115620022f657620022f5620022a1565b5b6040820236038413156200230f576200230e620022a6565b5b509250929050565b600082825260208201905092915050565b6000819050919050565b604082016200234560008301836200211d565b62002354600085018262002136565b506200236460208301836200218c565b620023736020850182620021a5565b50505050565b600062002387838362002332565b60408301905092915050565b600082905092915050565b6000604082019050919050565b6000620023b9838562002317565b9350620023c68262002328565b8060005b858110156200240757620023df828462002393565b620023eb888262002379565b9750620023f8836200239e565b925050600181019050620023ca565b5085925050509392505050565b60008083356001602003843603038112620024345762002433620020c2565b5b83810192508235915060208301925067ffffffffffffffff8211156200245f576200245e620022a1565b5b600182023603841315620024785762002477620022a6565b5b509250929050565b600082825260208201905092915050565b60006200249f838562002480565b9350620024ae83858462001ecd565b620024b98362001e02565b840190509392505050565b60006102408301620024da6000840184620020f3565b620024e960008601826200210c565b50620024f960208401846200211d565b62002508602086018262002136565b506200251860408401846200211d565b62002527604086018262002136565b506200253760608401846200218c565b620025466060860182620021a5565b50620025566080840184620020f3565b6200256560808601826200210c565b506200257560a0840184620020f3565b6200258460a08601826200210c565b506200259460c08401846200211d565b620025a360c086018262002136565b50620025b360e08401846200211d565b620025c260e086018262002136565b50620025d3610100840184620021de565b620025e361010086018262002266565b50620025f46101208401846200211d565b6200260461012086018262002136565b50620026156101408401846200211d565b6200262561014086018262002136565b506200263661016084018462002277565b6200264661016086018262002290565b50620026576101808401846200211d565b6200266761018086018262002136565b50620026786101a084018462002277565b620026886101a086018262002290565b50620026996101c084018462002277565b620026a96101c086018262002290565b50620026ba6101e08401846200211d565b620026ca6101e086018262002136565b50620026db610200840184620022ab565b858303610200870152620026f1838284620023ab565b925050506200270561022084018462002414565b8583036102208701526200271b83828462002491565b925050508091505092915050565b6000606083016200273e6000840184620020c7565b8482036000860152620027528282620024c4565b9150506200276460208401846200211d565b62002773602086018262002136565b50620027836040840184620020f3565b6200279260408601826200210c565b508091505092915050565b60006020820190508181036000830152620027b9818462002729565b905092915050565b6000604082019050620027d8600083018562001c88565b620027e7602083018462001c88565b9392505050565b600080fd5b60008235600161024003833603038112620028135762002812620027ee565b5b80830191505092915050565b600082825260208201905092915050565b7f416363657373436f6e74726f6c3a2063616e206f6e6c792072656e6f756e636560008201527f20726f6c657320666f722073656c660000000000000000000000000000000000602082015250565b60006200288e602f836200281f565b91506200289b8262002830565b604082019050919050565b60006020820190508181036000830152620028c1816200287f565b9050919050565b7f4e487b7100000000000000000000000000000000000000000000000000000000600052603260045260246000fd5b7f4e487b7100000000000000000000000000000000000000000000000000000000600052601160045260246000fd5b6000620029338262001b30565b91507fffffffffffffffffffffffffffffffffffffffffffffffffffffffffffffffff8203620029685762002967620028f7565b5b600182019050919050565b7f546861742053616c6520446f6573206e6f742045786973740000000000000000600082015250565b6000620029ab6018836200281f565b9150620029b88262002973565b602082019050919050565b60006020820190508181036000830152620029de816200299c565b9050919050565b600081519050919050565b60005b8381101562002a10578082015181840152602081019050620029f3565b8381111562002a20576000848401525b50505050565b600062002a3382620029e5565b62002a3f81856200281f565b935062002a51818560208601620029f0565b62002a5c8162001e02565b840191505092915050565b600060408201905062002a7e600083018562001dca565b818103602083015262002a92818462002a26565b90509392505050565b600060408201905062002ab2600083018562001dca565b62002ac1602083018462001dca565b9392505050565b62002ad38162002147565b82525050565b600060e08201905062002af0600083018a62001dca565b62002aff602083018962001c88565b62002b0e604083018862001dca565b62002b1d606083018762001dca565b62002b2c608083018662002ac8565b62002b3b60a083018562002ac8565b62002b4a60c083018462001dca565b98975050505050505050565b600081905092915050565b7f416363657373436f6e74726f6c3a206163636f756e7420000000000000000000600082015250565b600062002b9960178362002b56565b915062002ba68262002b61565b601782019050919050565b600062002bbe82620029e5565b62002bca818562002b56565b935062002bdc818560208601620029f0565b80840191505092915050565b7f206973206d697373696e6720726f6c6520000000000000000000000000000000600082015250565b600062002c2060118362002b56565b915062002c2d8262002be8565b601182019050919050565b600062002c458262002b8a565b915062002c53828562002bb1565b915062002c608262002c11565b915062002c6e828462002bb1565b91508190509392505050565b6000602082019050818103600083015262002c96818462002a26565b905092915050565b600062002cab8262001b30565b915062002cb88362001b30565b9250817fffffffffffffffffffffffffffffffffffffffffffffffffffffffffffffffff048311821515161562002cf45762002cf3620028f7565b5b828202905092915050565b600062002d0c8262001b30565b915062002d198362001b30565b9250827fffffffffffffffffffffffffffffffffffffffffffffffffffffffffffffffff0382111562002d515762002d50620028f7565b5b828201905092915050565b600062002d698262001b30565b91506000820362002d7f5762002d7e620028f7565b5b600182039050919050565b7f537472696e67733a20686578206c656e67746820696e73756666696369656e74600082015250565b600062002dc26020836200281f565b915062002dcf8262002d8a565b602082019050919050565b6000602082019050818103600083015262002df58162002db3565b905091905056fe6080604052600060075560006008553480156200001b57600080fd5b50604051620031cb380380620031cb83398181016040528101906200004191906200048b565b868686866001808190555060018410156200005b57600080fd5b600073ffffffffffffffffffffffffffffffffffffffff168373ffffffffffffffffffffffffffffffffffffffff16036200009557600080fd5b818111620000a257600080fd5b620000b76000801b33620001fe60201b60201c565b8360038190555082600260006101000a81548173ffffffffffffffffffffffffffffffffffffffff021916908373ffffffffffffffffffffffffffffffffffffffff16021790555081600481905550806005819055505050505082600660016101000a81548173ffffffffffffffffffffffffffffffffffffffff021916908373ffffffffffffffffffffffffffffffffffffffff16021790555081600b60006101000a81548173ffffffffffffffffffffffffffffffffffffffff021916908373ffffffffffffffffffffffffffffffffffffffff16021790555080600c819055506014600c54620001ab91906200059c565b600d81905550620001eb600d54600c54620001c79190620005d4565b600354670de0b6b3a7640000620001df91906200059c565b620002ef60201b60201c565b600e8190555050505050505050620006cd565b6200021082826200032f60201b60201c565b620002eb57600160008084815260200190815260200160002060000160008373ffffffffffffffffffffffffffffffffffffffff1673ffffffffffffffffffffffffffffffffffffffff16815260200190815260200160002060006101000a81548160ff021916908315150217905550620002906200039960201b60201c565b73ffffffffffffffffffffffffffffffffffffffff168173ffffffffffffffffffffffffffffffffffffffff16837f2f8788117e7eff1d82e926ec794901d17c78024a50270940304540a733656f0d60405160405180910390a45b5050565b6000818260018486620003039190620005d4565b6200030f919062000631565b6200031b91906200059c565b6200032791906200066c565b905092915050565b600080600084815260200190815260200160002060000160008373ffffffffffffffffffffffffffffffffffffffff1673ffffffffffffffffffffffffffffffffffffffff16815260200190815260200160002060009054906101000a900460ff16905092915050565b600033905090565b600080fd5b6000819050919050565b620003bb81620003a6565b8114620003c757600080fd5b50565b600081519050620003db81620003b0565b92915050565b600073ffffffffffffffffffffffffffffffffffffffff82169050919050565b60006200040e82620003e1565b9050919050565b620004208162000401565b81146200042c57600080fd5b50565b600081519050620004408162000415565b92915050565b60006200045382620003e1565b9050919050565b620004658162000446565b81146200047157600080fd5b50565b60008151905062000485816200045a565b92915050565b600080600080600080600060e0888a031215620004ad57620004ac620003a1565b5b6000620004bd8a828b01620003ca565b9750506020620004d08a828b016200042f565b9650506040620004e38a828b01620003ca565b9550506060620004f68a828b01620003ca565b9450506080620005098a828b0162000474565b93505060a06200051c8a828b0162000474565b92505060c06200052f8a828b01620003ca565b91505092959891949750929550565b7f4e487b7100000000000000000000000000000000000000000000000000000000600052601260045260246000fd5b7f4e487b7100000000000000000000000000000000000000000000000000000000600052601160045260246000fd5b6000620005a982620003a6565b9150620005b683620003a6565b925082620005c957620005c86200053e565b5b828204905092915050565b6000620005e182620003a6565b9150620005ee83620003a6565b9250827fffffffffffffffffffffffffffffffffffffffffffffffffffffffffffffffff038211156200062657620006256200056d565b5b828201905092915050565b60006200063e82620003a6565b91506200064b83620003a6565b9250828210156200066157620006606200056d565b5b828203905092915050565b60006200067982620003a6565b91506200068683620003a6565b9250817fffffffffffffffffffffffffffffffffffffffffffffffffffffffffffffffff0483118215151615620006c257620006c16200056d565b5b828202905092915050565b612aee80620006dd6000396000f3fe6080604052600436106101bb5760003560e01c80637a37ac26116100ec578063c19d93fb1161008a578063d547741f11610064578063d547741f146105e3578063ef38bf011461060c578063fbfa77cf14610637578063fc0c546a14610662576101cf565b8063c19d93fb14610562578063c392f7661461058d578063c97f8d6e146105b8576101cf565b8063a217fddf116100c6578063a217fddf146104c7578063a4bf26b6146104f2578063b7a8807c1461051b578063bbdc907714610546576101cf565b80637a37ac26146104485780638433acd11461047357806391d148541461048a576101cf565b8063397a8bab11610159578063590e1ae311610133578063590e1ae3146103bc57806361c9d81c146103c65780636e353a1d146103ef57806374d00f671461040b576101cf565b8063397a8bab1461033d57806340193883146103665780634b6753bc14610391576101cf565b80632c4e722e116101955780632c4e722e146102835780632f2ff15d146102ae57806331f36bd9146102d757806336568abe14610314576101cf565b806301ffc9a7146101de5780630c3ca20f1461021b578063248a9ca314610246576101cf565b366101cf576000801b6101cd8161068d565b005b6000801b6101dc8161068d565b005b3480156101ea57600080fd5b5061020560048036038101906102009190611d8f565b6106a1565b6040516102129190611dd7565b60405180910390f35b34801561022757600080fd5b5061023061071b565b60405161023d9190611e0b565b60405180910390f35b34801561025257600080fd5b5061026d60048036038101906102689190611e5c565b610721565b60405161027a9190611e98565b60405180910390f35b34801561028f57600080fd5b50610298610740565b6040516102a59190611e0b565b60405180910390f35b3480156102ba57600080fd5b506102d560048036038101906102d09190611f11565b610746565b005b3480156102e357600080fd5b506102fe60048036038101906102f99190611f7d565b610767565b60405161030b9190611e0b565b60405180910390f35b34801561032057600080fd5b5061033b60048036038101906103369190611f11565b61078c565b005b34801561034957600080fd5b50610364600480360381019061035f9190611fbd565b61080f565b005b34801561037257600080fd5b5061037b61082d565b6040516103889190611e0b565b60405180910390f35b34801561039d57600080fd5b506103a6610833565b6040516103b39190611e0b565b60405180910390f35b6103c4610839565b005b3480156103d257600080fd5b506103ed60048036038101906103e89190612028565b61097b565b005b61040960048036038101906104049190612028565b610acc565b005b34801561041757600080fd5b50610432600480360381019061042d9190611fbd565b610b8a565b60405161043f9190611e0b565b60405180910390f35b34801561045457600080fd5b5061045d610ba2565b60405161046a9190611e0b565b60405180910390f35b34801561047f57600080fd5b50610488610ba8565b005b34801561049657600080fd5b506104b160048036038101906104ac9190611f11565b610e7c565b6040516104be9190611dd7565b60405180910390f35b3480156104d357600080fd5b506104dc610ee6565b6040516104e99190611e98565b60405180910390f35b3480156104fe57600080fd5b5061051960048036038101906105149190612055565b610eed565b005b34801561052757600080fd5b506105306110ac565b60405161053d9190611e0b565b60405180910390f35b610560600480360381019061055b91906120c1565b6110b2565b005b34801561056e57600080fd5b5061057761118b565b6040516105849190612178565b60405180910390f35b34801561059957600080fd5b506105a261119e565b6040516105af9190611e0b565b60405180910390f35b3480156105c457600080fd5b506105cd6111a4565b6040516105da9190611e0b565b60405180910390f35b3480156105ef57600080fd5b5061060a60048036038101906106059190611f11565b6111aa565b005b34801561061857600080fd5b506106216111cb565b60405161062e91906121f2565b60405180910390f35b34801561064357600080fd5b5061064c6111f1565b604051610659919061222e565b60405180910390f35b34801561066e57600080fd5b50610677611217565b604051610684919061227c565b60405180910390f35b61069e8161069961123d565b611245565b50565b60007f7965db0b000000000000000000000000000000000000000000000000000000007bffffffffffffffffffffffffffffffffffffffffffffffffffffffff1916827bffffffffffffffffffffffffffffffffffffffffffffffffffffffff191614806107145750610713826112e2565b5b9050919050565b60075481565b6000806000838152602001908152602001600020600101549050919050565b60035481565b61074f82610721565b6107588161068d565b610762838361134c565b505050565b6009602052816000526040600020602052806000526040600020600091509150505481565b61079461123d565b73ffffffffffffffffffffffffffffffffffffffff168173ffffffffffffffffffffffffffffffffffffffff1614610801576040517f08c379a00000000000000000000000000000000000000000000000000000000081526004016107f89061231a565b60405180910390fd5b61080b828261142c565b5050565b6000801b61081c8161068d565b6108296000801b8361134c565b5050565b600e5481565b60055481565b60026001540361087e576040517f08c379a000000000000000000000000000000000000000000000000000000000815260040161087590612386565b60405180910390fd5b6002600181905550600060096000600854815260200190815260200160002060003373ffffffffffffffffffffffffffffffffffffffff1673ffffffffffffffffffffffffffffffffffffffff16815260200190815260200160002054146108e557600080fd5b600660019054906101000a900473ffffffffffffffffffffffffffffffffffffffff1673ffffffffffffffffffffffffffffffffffffffff1663fa89401a336040518263ffffffff1660e01b815260040161094091906123b5565b600060405180830381600087803b15801561095a57600080fd5b505af115801561096e573d6000803e3d6000fd5b5050505060018081905550565b6000801b6109888161068d565b6002600154036109cd576040517f08c379a00000000000000000000000000000000000000000000000000000000081526004016109c490612386565b60405180910390fd5b60026001819055506001808111156109e8576109e7612101565b5b600660009054906101000a900460ff166001811115610a0a57610a09612101565b5b14610a1457600080fd5b60008273ffffffffffffffffffffffffffffffffffffffff1647604051610a3a90612401565b60006040518083038185875af1925050503d8060008114610a77576040519150601f19603f3d011682016040523d82523d6000602084013e610a7c565b606091505b5050905080610ac0576040517f08c379a0000000000000000000000000000000000000000000000000000000008152600401610ab790612462565b60405180910390fd5b50600180819055505050565b6000801b610ad98161068d565b60008273ffffffffffffffffffffffffffffffffffffffff1647604051610aff90612401565b60006040518083038185875af1925050503d8060008114610b3c576040519150601f19603f3d011682016040523d82523d6000602084013e610b41565b606091505b5050905080610b85576040517f08c379a0000000000000000000000000000000000000000000000000000000008152600401610b7c90612462565b60405180910390fd5b505050565b600a6020528060005260406000206000915090505481565b60085481565b600260015403610bed576040517f08c379a0000000000000000000000000000000000000000000000000000000008152600401610be490612386565b60405180910390fd5b6002600181905550600180811115610c0857610c07612101565b5b600660009054906101000a900460ff166001811115610c2a57610c29612101565b5b14610c3457600080fd5b6000600a60003373ffffffffffffffffffffffffffffffffffffffff1673ffffffffffffffffffffffffffffffffffffffff1681526020019081526020016000205460096000600854815260200190815260200160002060003373ffffffffffffffffffffffffffffffffffffffff1673ffffffffffffffffffffffffffffffffffffffff16815260200190815260200160002054610cd391906124b1565b905060008111610ce257600080fd5b600660019054906101000a900473ffffffffffffffffffffffffffffffffffffffff1673ffffffffffffffffffffffffffffffffffffffff16630a2f487b3360096000600854815260200190815260200160002060003373ffffffffffffffffffffffffffffffffffffffff1673ffffffffffffffffffffffffffffffffffffffff168152602001908152602001600020546040518363ffffffff1660e01b8152600401610d91929190612516565b600060405180830381600087803b158015610dab57600080fd5b505af1158015610dbf573d6000803e3d6000fd5b50505050600060096000600854815260200190815260200160002060003373ffffffffffffffffffffffffffffffffffffffff1673ffffffffffffffffffffffffffffffffffffffff168152602001908152602001600020819055506000600a60003373ffffffffffffffffffffffffffffffffffffffff1673ffffffffffffffffffffffffffffffffffffffff16815260200190815260200160002081905550610e7233610e6d8361150d565b61152b565b5060018081905550565b600080600084815260200190815260200160002060000160008373ffffffffffffffffffffffffffffffffffffffff1673ffffffffffffffffffffffffffffffffffffffff16815260200190815260200160002060009054906101000a900460ff16905092915050565b6000801b81565b60006001811115610f0157610f00612101565b5b600660009054906101000a900460ff166001811115610f2357610f22612101565b5b14610f2d57600080fd5b6000801b610f3a8161068d565b6004548311610f4857600080fd5b81600c819055506014600c54610f5e919061256e565b600d81905550610f92600d54600c54610f7791906124b1565b600354670de0b6b3a7640000610f8d919061256e565b6115d1565b600e819055506000600660019054906101000a900473ffffffffffffffffffffffffffffffffffffffff16905060008173ffffffffffffffffffffffffffffffffffffffff16600754604051610fe790612401565b60006040518083038185875af1925050503d8060008114611024576040519150601f19603f3d011682016040523d82523d6000602084013e611029565b606091505b505090508061106d576040517f08c379a0000000000000000000000000000000000000000000000000000000008152600401611064906125eb565b60405180910390fd5b600060078190555060016008600082825461108891906124b1565b9250508190555042600481905550846005819055506110a5611609565b5050505050565b60045481565b6002600154036110f7576040517f08c379a00000000000000000000000000000000000000000000000000000000081526004016110ee90612386565b60405180910390fd5b6002600181905550600034905061110e8382611886565b60006111198261150d565b9050611126848385611910565b8373ffffffffffffffffffffffffffffffffffffffff167fcd60aa75dea3072fbc07ae6d7d856b5dc5f4eee88854f5b4abf7b680ef8bc50f838360405161116e92919061260b565b60405180910390a261117e611609565b5050600180819055505050565b600660009054906101000a900460ff1681565b600d5481565b600c5481565b6111b382610721565b6111bc8161068d565b6111c6838361142c565b505050565b600b60009054906101000a900473ffffffffffffffffffffffffffffffffffffffff1681565b600660019054906101000a900473ffffffffffffffffffffffffffffffffffffffff1681565b600260009054906101000a900473ffffffffffffffffffffffffffffffffffffffff1681565b600033905090565b61124f8282610e7c565b6112de576112748173ffffffffffffffffffffffffffffffffffffffff166014611a88565b6112828360001c6020611a88565b604051602001611293929190612746565b6040516020818303038152906040526040517f08c379a00000000000000000000000000000000000000000000000000000000081526004016112d591906127ca565b60405180910390fd5b5050565b60007f01ffc9a7000000000000000000000000000000000000000000000000000000007bffffffffffffffffffffffffffffffffffffffffffffffffffffffff1916827bffffffffffffffffffffffffffffffffffffffffffffffffffffffff1916149050919050565b6113568282610e7c565b61142857600160008084815260200190815260200160002060000160008373ffffffffffffffffffffffffffffffffffffffff1673ffffffffffffffffffffffffffffffffffffffff16815260200190815260200160002060006101000a81548160ff0219169083151502179055506113cd61123d565b73ffffffffffffffffffffffffffffffffffffffff168173ffffffffffffffffffffffffffffffffffffffff16837f2f8788117e7eff1d82e926ec794901d17c78024a50270940304540a733656f0d60405160405180910390a45b5050565b6114368282610e7c565b1561150957600080600084815260200190815260200160002060000160008373ffffffffffffffffffffffffffffffffffffffff1673ffffffffffffffffffffffffffffffffffffffff16815260200190815260200160002060006101000a81548160ff0219169083151502179055506114ae61123d565b73ffffffffffffffffffffffffffffffffffffffff168173ffffffffffffffffffffffffffffffffffffffff16837ff6391f5c32d9c69d2a47ea670b442974b53935d1edc7fd64eb21e047a839171b60405160405180910390a45b5050565b600061152460035483611cc490919063ffffffff16565b9050919050565b600260009054906101000a900473ffffffffffffffffffffffffffffffffffffffff1673ffffffffffffffffffffffffffffffffffffffff166340c10f1983670de0b6b3a76400008461157e919061256e565b6040518363ffffffff1660e01b815260040161159b929190612516565b600060405180830381600087803b1580156115b557600080fd5b505af11580156115c9573d6000803e3d6000fd5b505050505050565b60008182600184866115e391906124b1565b6115ed91906127ec565b6115f7919061256e565b6116019190612820565b905092915050565b600d54600c5461161991906124b1565b4710611884576000600b60009054906101000a900473ffffffffffffffffffffffffffffffffffffffff16905060008173ffffffffffffffffffffffffffffffffffffffff16600c5460405161166e90612401565b60006040518083038185875af1925050503d80600081146116ab576040519150601f19603f3d011682016040523d82523d6000602084013e6116b0565b606091505b50509050806116f4576040517f08c379a00000000000000000000000000000000000000000000000000000000081526004016116eb906128c6565b60405180910390fd5b6000600b60009054906101000a900473ffffffffffffffffffffffffffffffffffffffff1673ffffffffffffffffffffffffffffffffffffffff16639c3962f06040518163ffffffff1660e01b81526004016020604051808303816000875af1158015611765573d6000803e3d6000fd5b505050506040513d601f19601f8201168201806040525081019061178991906128fb565b9050806117cb576040517f08c379a00000000000000000000000000000000000000000000000000000000081526004016117c290612974565b60405180910390fd5b6000600781905550600660019054906101000a900473ffffffffffffffffffffffffffffffffffffffff1673ffffffffffffffffffffffffffffffffffffffff166343d726d66040518163ffffffff1660e01b8152600401600060405180830381600087803b15801561183d57600080fd5b505af1158015611851573d6000803e3d6000fd5b505050506001600660006101000a81548160ff0219169083600181111561187b5761187a612101565b5b02179055505050505b565b6118908282611cda565b600060018111156118a4576118a3612101565b5b600660009054906101000a900460ff1660018111156118c6576118c5612101565b5b146118d057600080fd5b6000600354670de0b6b3a76400006118e8919061256e565b826118f39190612994565b146118fd57600080fd5b600e5447111561190c57600080fd5b5050565b8015611a2c578160096000600854815260200190815260200160002060008573ffffffffffffffffffffffffffffffffffffffff1673ffffffffffffffffffffffffffffffffffffffff168152602001908152602001600020600082825461197891906124b1565b92505081905550600660019054906101000a900473ffffffffffffffffffffffffffffffffffffffff1673ffffffffffffffffffffffffffffffffffffffff16636f485d6c84846040518363ffffffff1660e01b81526004016119dc929190612516565b600060405180830381600087803b1580156119f657600080fd5b505af1158015611a0a573d6000803e3d6000fd5b505050508160076000828254611a2091906124b1565b92505081905550611a83565b81600a60008573ffffffffffffffffffffffffffffffffffffffff1673ffffffffffffffffffffffffffffffffffffffff1681526020019081526020016000206000828254611a7b91906124b1565b925050819055505b505050565b606060006002836002611a9b9190612820565b611aa591906124b1565b67ffffffffffffffff811115611abe57611abd6129c5565b5b6040519080825280601f01601f191660200182016040528015611af05781602001600182028036833780820191505090505b5090507f300000000000000000000000000000000000000000000000000000000000000081600081518110611b2857611b276129f4565b5b60200101907effffffffffffffffffffffffffffffffffffffffffffffffffffffffffffff1916908160001a9053507f780000000000000000000000000000000000000000000000000000000000000081600181518110611b8c57611b8b6129f4565b5b60200101907effffffffffffffffffffffffffffffffffffffffffffffffffffffffffffff1916908160001a90535060006001846002611bcc9190612820565b611bd691906124b1565b90505b6001811115611c76577f3031323334353637383961626364656600000000000000000000000000000000600f861660108110611c1857611c176129f4565b5b1a60f81b828281518110611c2f57611c2e6129f4565b5b60200101907effffffffffffffffffffffffffffffffffffffffffffffffffffffffffffff1916908160001a905350600485901c945080611c6f90612a23565b9050611bd9565b5060008414611cba576040517f08c379a0000000000000000000000000000000000000000000000000000000008152600401611cb190612a98565b60405180910390fd5b8091505092915050565b60008183611cd29190612820565b905092915050565b6005544210611ce857600080fd5b600073ffffffffffffffffffffffffffffffffffffffff168273ffffffffffffffffffffffffffffffffffffffff1603611d2157600080fd5b60008103611d2e57600080fd5b5050565b600080fd5b60007fffffffff0000000000000000000000000000000000000000000000000000000082169050919050565b611d6c81611d37565b8114611d7757600080fd5b50565b600081359050611d8981611d63565b92915050565b600060208284031215611da557611da4611d32565b5b6000611db384828501611d7a565b91505092915050565b60008115159050919050565b611dd181611dbc565b82525050565b6000602082019050611dec6000830184611dc8565b92915050565b6000819050919050565b611e0581611df2565b82525050565b6000602082019050611e206000830184611dfc565b92915050565b6000819050919050565b611e3981611e26565b8114611e4457600080fd5b50565b600081359050611e5681611e30565b92915050565b600060208284031215611e7257611e71611d32565b5b6000611e8084828501611e47565b91505092915050565b611e9281611e26565b82525050565b6000602082019050611ead6000830184611e89565b92915050565b600073ffffffffffffffffffffffffffffffffffffffff82169050919050565b6000611ede82611eb3565b9050919050565b611eee81611ed3565b8114611ef957600080fd5b50565b600081359050611f0b81611ee5565b92915050565b60008060408385031215611f2857611f27611d32565b5b6000611f3685828601611e47565b9250506020611f4785828601611efc565b9150509250929050565b611f5a81611df2565b8114611f6557600080fd5b50565b600081359050611f7781611f51565b92915050565b60008060408385031215611f9457611f93611d32565b5b6000611fa285828601611f68565b9250506020611fb385828601611efc565b9150509250929050565b600060208284031215611fd357611fd2611d32565b5b6000611fe184828501611efc565b91505092915050565b6000611ff582611eb3565b9050919050565b61200581611fea565b811461201057600080fd5b50565b60008135905061202281611ffc565b92915050565b60006020828403121561203e5761203d611d32565b5b600061204c84828501612013565b91505092915050565b6000806040838503121561206c5761206b611d32565b5b600061207a85828601611f68565b925050602061208b85828601611f68565b9150509250929050565b61209e81611dbc565b81146120a957600080fd5b50565b6000813590506120bb81612095565b92915050565b600080604083850312156120d8576120d7611d32565b5b60006120e685828601611efc565b92505060206120f7858286016120ac565b9150509250929050565b7f4e487b7100000000000000000000000000000000000000000000000000000000600052602160045260246000fd5b6002811061214157612140612101565b5b50565b600081905061215282612130565b919050565b600061216282612144565b9050919050565b61217281612157565b82525050565b600060208201905061218d6000830184612169565b92915050565b6000819050919050565b60006121b86121b36121ae84611eb3565b612193565b611eb3565b9050919050565b60006121ca8261219d565b9050919050565b60006121dc826121bf565b9050919050565b6121ec816121d1565b82525050565b600060208201905061220760008301846121e3565b92915050565b6000612218826121bf565b9050919050565b6122288161220d565b82525050565b6000602082019050612243600083018461221f565b92915050565b60006122548261219d565b9050919050565b600061226682612249565b9050919050565b6122768161225b565b82525050565b6000602082019050612291600083018461226d565b92915050565b600082825260208201905092915050565b7f416363657373436f6e74726f6c3a2063616e206f6e6c792072656e6f756e636560008201527f20726f6c657320666f722073656c660000000000000000000000000000000000602082015250565b6000612304602f83612297565b915061230f826122a8565b604082019050919050565b60006020820190508181036000830152612333816122f7565b9050919050565b7f5265656e7472616e637947756172643a207265656e7472616e742063616c6c00600082015250565b6000612370601f83612297565b915061237b8261233a565b602082019050919050565b6000602082019050818103600083015261239f81612363565b9050919050565b6123af81611fea565b82525050565b60006020820190506123ca60008301846123a6565b92915050565b600081905092915050565b50565b60006123eb6000836123d0565b91506123f6826123db565b600082019050919050565b600061240c826123de565b9150819050919050565b7f4574686572207472616e73666572206661696c65642e00000000000000000000600082015250565b600061244c601683612297565b915061245782612416565b602082019050919050565b6000602082019050818103600083015261247b8161243f565b9050919050565b7f4e487b7100000000000000000000000000000000000000000000000000000000600052601160045260246000fd5b60006124bc82611df2565b91506124c783611df2565b9250827fffffffffffffffffffffffffffffffffffffffffffffffffffffffffffffffff038211156124fc576124fb612482565b5b828201905092915050565b61251081611ed3565b82525050565b600060408201905061252b6000830185612507565b6125386020830184611dfc565b9392505050565b7f4e487b7100000000000000000000000000000000000000000000000000000000600052601260045260246000fd5b600061257982611df2565b915061258483611df2565b9250826125945761259361253f565b5b828204905092915050565b7f46756e6374696f6e206661696c65642e00000000000000000000000000000000600082015250565b60006125d5601083612297565b91506125e08261259f565b602082019050919050565b60006020820190508181036000830152612604816125c8565b9050919050565b60006040820190506126206000830185611dfc565b61262d6020830184611dfc565b9392505050565b600081905092915050565b7f416363657373436f6e74726f6c3a206163636f756e7420000000000000000000600082015250565b6000612675601783612634565b91506126808261263f565b601782019050919050565b600081519050919050565b60005b838110156126b4578082015181840152602081019050612699565b838111156126c3576000848401525b50505050565b60006126d48261268b565b6126de8185612634565b93506126ee818560208601612696565b80840191505092915050565b7f206973206d697373696e6720726f6c6520000000000000000000000000000000600082015250565b6000612730601183612634565b915061273b826126fa565b601182019050919050565b600061275182612668565b915061275d82856126c9565b915061276882612723565b915061277482846126c9565b91508190509392505050565b6000601f19601f8301169050919050565b600061279c8261268b565b6127a68185612297565b93506127b6818560208601612696565b6127bf81612780565b840191505092915050565b600060208201905081810360008301526127e48184612791565b905092915050565b60006127f782611df2565b915061280283611df2565b92508282101561281557612814612482565b5b828203905092915050565b600061282b82611df2565b915061283683611df2565b9250817fffffffffffffffffffffffffffffffffffffffffffffffffffffffffffffffff048311821515161561286f5761286e612482565b5b828202905092915050565b7f5472616e73666572206661696c65642e00000000000000000000000000000000600082015250565b60006128b0601083612297565b91506128bb8261287a565b602082019050919050565b600060208201905081810360008301526128df816128a3565b9050919050565b6000815190506128f581612095565b92915050565b60006020828403121561291157612910611d32565b5b600061291f848285016128e6565b91505092915050565b7f507572636861736520206661696c65642e000000000000000000000000000000600082015250565b600061295e601183612297565b915061296982612928565b602082019050919050565b6000602082019050818103600083015261298d81612951565b9050919050565b600061299f82611df2565b91506129aa83611df2565b9250826129ba576129b961253f565b5b828206905092915050565b7f4e487b7100000000000000000000000000000000000000000000000000000000600052604160045260246000fd5b7f4e487b7100000000000000000000000000000000000000000000000000000000600052603260045260246000fd5b6000612a2e82611df2565b915060008203612a4157612a40612482565b5b600182039050919050565b7f537472696e67733a20686578206c656e67746820696e73756666696369656e74600082015250565b6000612a82602083612297565b9150612a8d82612a4c565b602082019050919050565b60006020820190508181036000830152612ab181612a75565b905091905056fea26469706673582212208f006edaa5f95c9f363e581aa330c61f89cf105f4a4541f9cd0693a2d6abea3f64736f6c634300080d0033a26469706673582212201bf06b68d7bf1a2ad670014286898a425694d44a3e85498c6412ef8ac46557bb64736f6c634300080d0033",
  "linkReferences": {},
  "deployedLinkReferences": {}
}