{
  "_format": "hh-sol-artifact-1",
  "contractName": "MoonSaleFactory",
  "sourceName": "contracts/MoonSaleFactory.sol",
  "abi": [
    {
      "inputs": [
        {
          "internalType": "address",
          "name": "_tokenFactory",
          "type": "address"
        },
        {
          "internalType": "address",
          "name": "_marketWrapperFactory",
          "type": "address"
        },
        {
          "internalType": "address",
          "name": "_vaultFactory",
          "type": "address"
        }
      ],
      "stateMutability": "nonpayable",
      "type": "constructor"
    },
    {
      "anonymous": false,
      "inputs": [
        {
          "indexed": true,
          "internalType": "bytes32",
          "name": "role",
          "type": "bytes32"
        },
        {
          "indexed": true,
          "internalType": "bytes32",
          "name": "previousAdminRole",
          "type": "bytes32"
        },
        {
          "indexed": true,
          "internalType": "bytes32",
          "name": "newAdminRole",
          "type": "bytes32"
        }
      ],
      "name": "RoleAdminChanged",
      "type": "event"
    },
    {
      "anonymous": false,
      "inputs": [
        {
          "indexed": true,
          "internalType": "bytes32",
          "name": "role",
          "type": "bytes32"
        },
        {
          "indexed": true,
          "internalType": "address",
          "name": "account",
          "type": "address"
        },
        {
          "indexed": true,
          "internalType": "address",
          "name": "sender",
          "type": "address"
        }
      ],
      "name": "RoleGranted",
      "type": "event"
    },
    {
      "anonymous": false,
      "inputs": [
        {
          "indexed": true,
          "internalType": "bytes32",
          "name": "role",
          "type": "bytes32"
        },
        {
          "indexed": true,
          "internalType": "address",
          "name": "account",
          "type": "address"
        },
        {
          "indexed": true,
          "internalType": "address",
          "name": "sender",
          "type": "address"
        }
      ],
      "name": "RoleRevoked",
      "type": "event"
    },
    {
      "inputs": [],
      "name": "DEFAULT_ADMIN_ROLE",
      "outputs": [
        {
          "internalType": "bytes32",
          "name": "",
          "type": "bytes32"
        }
      ],
      "stateMutability": "view",
      "type": "function"
    },
    {
      "inputs": [
        {
          "internalType": "address payable",
          "name": "_newFactory",
          "type": "address"
        }
      ],
      "name": "changeMarketWrapperFactory",
      "outputs": [],
      "stateMutability": "nonpayable",
      "type": "function"
    },
    {
      "inputs": [
        {
          "internalType": "address payable",
          "name": "_newFactory",
          "type": "address"
        }
      ],
      "name": "changeTokenFactory",
      "outputs": [],
      "stateMutability": "nonpayable",
      "type": "function"
    },
    {
      "inputs": [
        {
          "internalType": "address payable",
          "name": "_newFactory",
          "type": "address"
        }
      ],
      "name": "changeVaultFactory",
      "outputs": [],
      "stateMutability": "nonpayable",
      "type": "function"
    },
    {
      "inputs": [],
      "name": "count",
      "outputs": [
        {
          "internalType": "uint256",
          "name": "",
          "type": "uint256"
        }
      ],
      "stateMutability": "view",
      "type": "function"
    },
    {
      "inputs": [
        {
          "internalType": "address",
          "name": "_sale",
          "type": "address"
        },
        {
          "internalType": "address payable",
          "name": "_to",
          "type": "address"
        }
      ],
      "name": "emergencyWithdrawal",
      "outputs": [],
      "stateMutability": "payable",
      "type": "function"
    },
    {
      "inputs": [],
      "name": "getLatestSale",
      "outputs": [
        {
          "internalType": "address",
          "name": "",
          "type": "address"
        }
      ],
      "stateMutability": "view",
      "type": "function"
    },
    {
      "inputs": [
        {
          "internalType": "bytes32",
          "name": "role",
          "type": "bytes32"
        }
      ],
      "name": "getRoleAdmin",
      "outputs": [
        {
          "internalType": "bytes32",
          "name": "",
          "type": "bytes32"
        }
      ],
      "stateMutability": "view",
      "type": "function"
    },
    {
      "inputs": [
        {
          "internalType": "address",
          "name": "to",
          "type": "address"
        }
      ],
      "name": "grantOwnerRole",
      "outputs": [],
      "stateMutability": "nonpayable",
      "type": "function"
    },
    {
      "inputs": [
        {
          "internalType": "bytes32",
          "name": "role",
          "type": "bytes32"
        },
        {
          "internalType": "address",
          "name": "account",
          "type": "address"
        }
      ],
      "name": "grantRole",
      "outputs": [],
      "stateMutability": "nonpayable",
      "type": "function"
    },
    {
      "inputs": [
        {
          "internalType": "bytes32",
          "name": "role",
          "type": "bytes32"
        },
        {
          "internalType": "address",
          "name": "account",
          "type": "address"
        }
      ],
      "name": "hasRole",
      "outputs": [
        {
          "internalType": "bool",
          "name": "",
          "type": "bool"
        }
      ],
      "stateMutability": "view",
      "type": "function"
    },
    {
      "inputs": [
        {
          "internalType": "address",
          "name": "_sale",
          "type": "address"
        },
        {
          "internalType": "uint256",
          "name": "_newClosingTime",
          "type": "uint256"
        },
        {
          "internalType": "uint256",
          "name": "_baseNftID",
          "type": "uint256"
        },
        {
          "internalType": "uint256",
          "name": "_buyNowPrice",
          "type": "uint256"
        }
      ],
      "name": "migration",
      "outputs": [],
      "stateMutability": "nonpayable",
      "type": "function"
    },
    {
      "inputs": [
        {
          "internalType": "uint256",
          "name": "",
          "type": "uint256"
        }
      ],
      "name": "moonSales",
      "outputs": [
        {
          "internalType": "address",
          "name": "",
          "type": "address"
        }
      ],
      "stateMutability": "view",
      "type": "function"
    },
    {
      "inputs": [
        {
          "internalType": "uint256",
          "name": "_rate",
          "type": "uint256"
        },
        {
          "internalType": "uint256",
          "name": "_openingTime",
          "type": "uint256"
        },
        {
          "internalType": "uint256",
          "name": "_closingTime",
          "type": "uint256"
        },
        {
          "internalType": "string",
          "name": "_name",
          "type": "string"
        },
        {
          "internalType": "string",
          "name": "_symbol",
          "type": "string"
        },
        {
          "internalType": "uint256",
          "name": "_baseNftID",
          "type": "uint256"
        },
        {
          "internalType": "uint256",
          "name": "_buyNowPrice",
          "type": "uint256"
        }
      ],
      "name": "newMoonSale",
      "outputs": [
        {
          "internalType": "address",
          "name": "",
          "type": "address"
        }
      ],
      "stateMutability": "nonpayable",
      "type": "function"
    },
    {
      "inputs": [
        {
          "internalType": "bytes32",
          "name": "role",
          "type": "bytes32"
        },
        {
          "internalType": "address",
          "name": "account",
          "type": "address"
        }
      ],
      "name": "renounceRole",
      "outputs": [],
      "stateMutability": "nonpayable",
      "type": "function"
    },
    {
      "inputs": [
        {
          "internalType": "bytes32",
          "name": "role",
          "type": "bytes32"
        },
        {
          "internalType": "address",
          "name": "account",
          "type": "address"
        }
      ],
      "name": "revokeRole",
      "outputs": [],
      "stateMutability": "nonpayable",
      "type": "function"
    },
    {
      "inputs": [
        {
          "internalType": "address",
          "name": "",
          "type": "address"
        }
      ],
      "name": "saleMarketWrappers",
      "outputs": [
        {
          "internalType": "address",
          "name": "",
          "type": "address"
        }
      ],
      "stateMutability": "view",
      "type": "function"
    },
    {
      "inputs": [
        {
          "internalType": "address",
          "name": "",
          "type": "address"
        }
      ],
      "name": "saleTokens",
      "outputs": [
        {
          "internalType": "address",
          "name": "",
          "type": "address"
        }
      ],
      "stateMutability": "view",
      "type": "function"
    },
    {
      "inputs": [
        {
          "internalType": "address",
          "name": "",
          "type": "address"
        }
      ],
      "name": "saleVaults",
      "outputs": [
        {
          "internalType": "address",
          "name": "",
          "type": "address"
        }
      ],
      "stateMutability": "view",
      "type": "function"
    },
    {
      "inputs": [
        {
          "internalType": "bytes4",
          "name": "interfaceId",
          "type": "bytes4"
        }
      ],
      "name": "supportsInterface",
      "outputs": [
        {
          "internalType": "bool",
          "name": "",
          "type": "bool"
        }
      ],
      "stateMutability": "view",
      "type": "function"
    }
  ],
  "bytecode": "0x608060405260006002553480156200001657600080fd5b50604051620062003803806200620083398181016040528101906200003c9190620002ea565b620000516000801b336200011d60201b60201c565b82600660006101000a81548173ffffffffffffffffffffffffffffffffffffffff021916908373ffffffffffffffffffffffffffffffffffffffff16021790555081600760006101000a81548173ffffffffffffffffffffffffffffffffffffffff021916908373ffffffffffffffffffffffffffffffffffffffff16021790555080600860006101000a81548173ffffffffffffffffffffffffffffffffffffffff021916908373ffffffffffffffffffffffffffffffffffffffff16021790555050505062000346565b6200012f82826200020e60201b60201c565b6200020a57600160008084815260200190815260200160002060000160008373ffffffffffffffffffffffffffffffffffffffff1673ffffffffffffffffffffffffffffffffffffffff16815260200190815260200160002060006101000a81548160ff021916908315150217905550620001af6200027860201b60201c565b73ffffffffffffffffffffffffffffffffffffffff168173ffffffffffffffffffffffffffffffffffffffff16837f2f8788117e7eff1d82e926ec794901d17c78024a50270940304540a733656f0d60405160405180910390a45b5050565b600080600084815260200190815260200160002060000160008373ffffffffffffffffffffffffffffffffffffffff1673ffffffffffffffffffffffffffffffffffffffff16815260200190815260200160002060009054906101000a900460ff16905092915050565b600033905090565b600080fd5b600073ffffffffffffffffffffffffffffffffffffffff82169050919050565b6000620002b28262000285565b9050919050565b620002c481620002a5565b8114620002d057600080fd5b50565b600081519050620002e481620002b9565b92915050565b60008060006060848603121562000306576200030562000280565b5b60006200031686828701620002d3565b93505060206200032986828701620002d3565b92505060406200033c86828701620002d3565b9150509250925092565b615eaa80620003566000396000f3fe6080604052600436106200013a5760003560e01c80636587210711620000af578063d547741f116200006d578063d547741f146200046d578063dab2c379146200049b578063ea51bd5a14620004df578063f87cc78d146200050d578063fb79d4fb146200053b576200013a565b806365872107146200036557806391d1485414620003a9578063944df04514620003ed578063a217fddf146200041d578063aa24dca2146200044d576200013a565b806331296d6e11620000fd57806331296d6e146200025357806336568abe1462000297578063397a8bab14620002c55780635af8c18014620002f35780635ead75e51462000321576200013a565b806301ffc9a7146200013f57806306661abd14620001835780631c5d5ecc14620001b3578063248a9ca314620001e15780632f2ff15d1462000225575b600080fd5b3480156200014c57600080fd5b506200016b600480360381019062000165919062002147565b6200057f565b6040516200017a919062002196565b60405180910390f35b3480156200019057600080fd5b506200019b620005fc565b604051620001aa9190620021ce565b60405180910390f35b348015620001c057600080fd5b50620001df6004803603810190620001d9919062002250565b62000602565b005b348015620001ee57600080fd5b506200020d6004803603810190620002079190620022bd565b62000656565b6040516200021c919062002300565b60405180910390f35b3480156200023257600080fd5b506200025160048036038101906200024b919062002362565b62000675565b005b3480156200026057600080fd5b506200027f6004803603810190620002799190620023a9565b6200069c565b6040516200028e9190620023ec565b60405180910390f35b348015620002a457600080fd5b50620002c36004803603810190620002bd919062002362565b620006cf565b005b348015620002d257600080fd5b50620002f16004803603810190620002eb9190620023a9565b62000759565b005b3480156200030057600080fd5b506200031f60048036038101906200031991906200243a565b6200077b565b005b3480156200032e57600080fd5b506200034d60048036038101906200034791906200260e565b62000c72565b6040516200035c9190620023ec565b60405180910390f35b3480156200037257600080fd5b506200039160048036038101906200038b9190620023a9565b62001701565b604051620003a09190620023ec565b60405180910390f35b348015620003b657600080fd5b50620003d56004803603810190620003cf919062002362565b62001734565b604051620003e4919062002196565b60405180910390f35b348015620003fa57600080fd5b50620004056200179e565b604051620004149190620023ec565b60405180910390f35b3480156200042a57600080fd5b5062000435620017f6565b60405162000444919062002300565b60405180910390f35b6200046b6004803603810190620004659190620026ff565b620017fd565b005b3480156200047a57600080fd5b5062000499600480360381019062000493919062002362565b62001a2e565b005b348015620004a857600080fd5b50620004c76004803603810190620004c1919062002746565b62001a55565b604051620004d69190620023ec565b60405180910390f35b348015620004ec57600080fd5b506200050b600480360381019062000505919062002250565b62001a95565b005b3480156200051a57600080fd5b5062000539600480360381019062000533919062002250565b62001ae9565b005b3480156200054857600080fd5b50620005676004803603810190620005619190620023a9565b62001b3d565b604051620005769190620023ec565b60405180910390f35b60007f7965db0b000000000000000000000000000000000000000000000000000000007bffffffffffffffffffffffffffffffffffffffffffffffffffffffff1916827bffffffffffffffffffffffffffffffffffffffffffffffffffffffff19161480620005f55750620005f48262001b70565b5b9050919050565b60025481565b6000801b620006118162001bda565b81600660006101000a81548173ffffffffffffffffffffffffffffffffffffffff021916908373ffffffffffffffffffffffffffffffffffffffff1602179055505050565b6000806000838152602001908152602001600020600101549050919050565b620006808262000656565b6200068b8162001bda565b62000697838362001bf2565b505050565b60036020528060005260406000206000915054906101000a900473ffffffffffffffffffffffffffffffffffffffff1681565b620006d962001cd7565b73ffffffffffffffffffffffffffffffffffffffff168173ffffffffffffffffffffffffffffffffffffffff161462000749576040517f08c379a00000000000000000000000000000000000000000000000000000000081526004016200074090620027ff565b60405180910390fd5b62000755828262001cdf565b5050565b6000801b620007688162001bda565b620007776000801b8362001bf2565b5050565b6000801b6200078a8162001bda565b6000600360008773ffffffffffffffffffffffffffffffffffffffff1673ffffffffffffffffffffffffffffffffffffffff16815260200190815260200160002060009054906101000a900473ffffffffffffffffffffffffffffffffffffffff1690508073ffffffffffffffffffffffffffffffffffffffff1663e640d862856040518263ffffffff1660e01b8152600401620008299190620021ce565b600060405180830381600087803b1580156200084457600080fd5b505af115801562000859573d6000803e3d6000fd5b50505050600760009054906101000a900473ffffffffffffffffffffffffffffffffffffffff1673ffffffffffffffffffffffffffffffffffffffff16635bb0ae79846040518263ffffffff1660e01b8152600401620008ba9190620021ce565b602060405180830381600087803b158015620008d557600080fd5b505af1158015620008ea573d6000803e3d6000fd5b505050506040513d601f19601f8201168201806040525081019062000910919062002838565b506000600760009054906101000a900473ffffffffffffffffffffffffffffffffffffffff1673ffffffffffffffffffffffffffffffffffffffff1663a6f660356040518163ffffffff1660e01b8152600401602060405180830381600087803b1580156200097e57600080fd5b505af115801562000993573d6000803e3d6000fd5b505050506040513d601f19601f82011682018060405250810190620009b9919062002838565b9050600760009054906101000a900473ffffffffffffffffffffffffffffffffffffffff1673ffffffffffffffffffffffffffffffffffffffff16635556f1aa82306040518363ffffffff1660e01b815260040162000a1a9291906200286a565b600060405180830381600087803b15801562000a3557600080fd5b505af115801562000a4a573d6000803e3d6000fd5b50505050600760009054906101000a900473ffffffffffffffffffffffffffffffffffffffff1673ffffffffffffffffffffffffffffffffffffffff16635556f1aa82336040518363ffffffff1660e01b815260040162000aad9291906200286a565b600060405180830381600087803b15801562000ac857600080fd5b505af115801562000add573d6000803e3d6000fd5b50505050600760009054906101000a900473ffffffffffffffffffffffffffffffffffffffff1673ffffffffffffffffffffffffffffffffffffffff16635556f1aa82896040518363ffffffff1660e01b815260040162000b409291906200286a565b600060405180830381600087803b15801562000b5b57600080fd5b505af115801562000b70573d6000803e3d6000fd5b5050505060008790508073ffffffffffffffffffffffffffffffffffffffff16638c6f334988846040518363ffffffff1660e01b815260040162000bb692919062002897565b600060405180830381600087803b15801562000bd157600080fd5b505af115801562000be6573d6000803e3d6000fd5b5050505081600560008a73ffffffffffffffffffffffffffffffffffffffff1673ffffffffffffffffffffffffffffffffffffffff16815260200190815260200160002060006101000a81548173ffffffffffffffffffffffffffffffffffffffff021916908373ffffffffffffffffffffffffffffffffffffffff1602179055505050505050505050565b60008060001b62000c838162001bda565b6000600860009054906101000a900473ffffffffffffffffffffffffffffffffffffffff1673ffffffffffffffffffffffffffffffffffffffff16633b313a326040518163ffffffff1660e01b8152600401602060405180830381600087803b15801562000cf057600080fd5b505af115801562000d05573d6000803e3d6000fd5b505050506040513d601f19601f8201168201806040525081019062000d2b919062002838565b90506000600760009054906101000a900473ffffffffffffffffffffffffffffffffffffffff1673ffffffffffffffffffffffffffffffffffffffff16635bb0ae79866040518263ffffffff1660e01b815260040162000d8c9190620021ce565b602060405180830381600087803b15801562000da757600080fd5b505af115801562000dbc573d6000803e3d6000fd5b505050506040513d601f19601f8201168201806040525081019062000de2919062002838565b90506000600660009054906101000a900473ffffffffffffffffffffffffffffffffffffffff1673ffffffffffffffffffffffffffffffffffffffff1663d2191e758a8a8a6040518463ffffffff1660e01b815260040162000e479392919062002970565b602060405180830381600087803b15801562000e6257600080fd5b505af115801562000e77573d6000803e3d6000fd5b505050506040513d601f19601f8201168201806040525081019062000e9d919062002838565b9050600860009054906101000a900473ffffffffffffffffffffffffffffffffffffffff1673ffffffffffffffffffffffffffffffffffffffff16635556f1aa84306040518363ffffffff1660e01b815260040162000efe9291906200286a565b600060405180830381600087803b15801562000f1957600080fd5b505af115801562000f2e573d6000803e3d6000fd5b50505050600760009054906101000a900473ffffffffffffffffffffffffffffffffffffffff1673ffffffffffffffffffffffffffffffffffffffff16635556f1aa83306040518363ffffffff1660e01b815260040162000f919291906200286a565b600060405180830381600087803b15801562000fac57600080fd5b505af115801562000fc1573d6000803e3d6000fd5b50505050600660009054906101000a900473ffffffffffffffffffffffffffffffffffffffff1673ffffffffffffffffffffffffffffffffffffffff16635556f1aa82306040518363ffffffff1660e01b8152600401620010249291906200286a565b600060405180830381600087803b1580156200103f57600080fd5b505af115801562001054573d6000803e3d6000fd5b50505050600860009054906101000a900473ffffffffffffffffffffffffffffffffffffffff1673ffffffffffffffffffffffffffffffffffffffff16635556f1aa84336040518363ffffffff1660e01b8152600401620010b79291906200286a565b600060405180830381600087803b158015620010d257600080fd5b505af1158015620010e7573d6000803e3d6000fd5b50505050600760009054906101000a900473ffffffffffffffffffffffffffffffffffffffff1673ffffffffffffffffffffffffffffffffffffffff16635556f1aa83336040518363ffffffff1660e01b81526004016200114a9291906200286a565b600060405180830381600087803b1580156200116557600080fd5b505af11580156200117a573d6000803e3d6000fd5b50505050600660009054906101000a900473ffffffffffffffffffffffffffffffffffffffff1673ffffffffffffffffffffffffffffffffffffffff16635556f1aa82336040518363ffffffff1660e01b8152600401620011dd9291906200286a565b600060405180830381600087803b158015620011f857600080fd5b505af11580156200120d573d6000803e3d6000fd5b5050505060008c828d8d87876040516200122790620020c8565b6200123896959493929190620029e1565b604051809103906000f08015801562001255573d6000803e3d6000fd5b5090506000819050600860009054906101000a900473ffffffffffffffffffffffffffffffffffffffff1673ffffffffffffffffffffffffffffffffffffffff16635556f1aa86836040518363ffffffff1660e01b8152600401620012bc9291906200286a565b600060405180830381600087803b158015620012d757600080fd5b505af1158015620012ec573d6000803e3d6000fd5b50505050600760009054906101000a900473ffffffffffffffffffffffffffffffffffffffff1673ffffffffffffffffffffffffffffffffffffffff16635556f1aa85836040518363ffffffff1660e01b81526004016200134f9291906200286a565b600060405180830381600087803b1580156200136a57600080fd5b505af11580156200137f573d6000803e3d6000fd5b50505050600660009054906101000a900473ffffffffffffffffffffffffffffffffffffffff1673ffffffffffffffffffffffffffffffffffffffff16635556f1aa84836040518363ffffffff1660e01b8152600401620013e29291906200286a565b600060405180830381600087803b158015620013fd57600080fd5b505af115801562001412573d6000803e3d6000fd5b505050508173ffffffffffffffffffffffffffffffffffffffff1663397a8bab306040518263ffffffff1660e01b8152600401620014519190620023ec565b600060405180830381600087803b1580156200146c57600080fd5b505af115801562001481573d6000803e3d6000fd5b505050508173ffffffffffffffffffffffffffffffffffffffff1663397a8bab336040518263ffffffff1660e01b8152600401620014c09190620023ec565b600060405180830381600087803b158015620014db57600080fd5b505af1158015620014f0573d6000803e3d6000fd5b505050506001819080600181540180825580915050600190039060005260206000200160009091909190916101000a81548173ffffffffffffffffffffffffffffffffffffffff021916908373ffffffffffffffffffffffffffffffffffffffff1602179055506001600260008282546200156c919062002a7d565b9250508190555082600360008373ffffffffffffffffffffffffffffffffffffffff1673ffffffffffffffffffffffffffffffffffffffff16815260200190815260200160002060006101000a81548173ffffffffffffffffffffffffffffffffffffffff021916908373ffffffffffffffffffffffffffffffffffffffff16021790555084600460008373ffffffffffffffffffffffffffffffffffffffff1673ffffffffffffffffffffffffffffffffffffffff16815260200190815260200160002060006101000a81548173ffffffffffffffffffffffffffffffffffffffff021916908373ffffffffffffffffffffffffffffffffffffffff16021790555083600560008373ffffffffffffffffffffffffffffffffffffffff1673ffffffffffffffffffffffffffffffffffffffff16815260200190815260200160002060006101000a81548173ffffffffffffffffffffffffffffffffffffffff021916908373ffffffffffffffffffffffffffffffffffffffff160217905550809650505050505050979650505050505050565b60056020528060005260406000206000915054906101000a900473ffffffffffffffffffffffffffffffffffffffff1681565b600080600084815260200190815260200160002060000160008373ffffffffffffffffffffffffffffffffffffffff1673ffffffffffffffffffffffffffffffffffffffff16815260200190815260200160002060009054906101000a900460ff16905092915050565b6000600180600254620017b2919062002ada565b81548110620017c657620017c562002b15565b5b9060005260206000200160009054906101000a900473ffffffffffffffffffffffffffffffffffffffff16905090565b6000801b81565b6000801b6200180c8162001bda565b6000600560008573ffffffffffffffffffffffffffffffffffffffff1673ffffffffffffffffffffffffffffffffffffffff16815260200190815260200160002060009054906101000a900473ffffffffffffffffffffffffffffffffffffffff1690506000600460008673ffffffffffffffffffffffffffffffffffffffff1673ffffffffffffffffffffffffffffffffffffffff16815260200190815260200160002060009054906101000a900473ffffffffffffffffffffffffffffffffffffffff16905060008590508273ffffffffffffffffffffffffffffffffffffffff16636e353a1d866040518263ffffffff1660e01b815260040162001914919062002b44565b600060405180830381600087803b1580156200192f57600080fd5b505af115801562001944573d6000803e3d6000fd5b505050508173ffffffffffffffffffffffffffffffffffffffff16636e353a1d866040518263ffffffff1660e01b815260040162001983919062002b44565b600060405180830381600087803b1580156200199e57600080fd5b505af1158015620019b3573d6000803e3d6000fd5b505050508073ffffffffffffffffffffffffffffffffffffffff16636e353a1d866040518263ffffffff1660e01b8152600401620019f2919062002b44565b600060405180830381600087803b15801562001a0d57600080fd5b505af115801562001a22573d6000803e3d6000fd5b50505050505050505050565b62001a398262000656565b62001a448162001bda565b62001a50838362001cdf565b505050565b6001818154811062001a6657600080fd5b906000526020600020016000915054906101000a900473ffffffffffffffffffffffffffffffffffffffff1681565b6000801b62001aa48162001bda565b81600860006101000a81548173ffffffffffffffffffffffffffffffffffffffff021916908373ffffffffffffffffffffffffffffffffffffffff1602179055505050565b6000801b62001af88162001bda565b81600760006101000a81548173ffffffffffffffffffffffffffffffffffffffff021916908373ffffffffffffffffffffffffffffffffffffffff1602179055505050565b60046020528060005260406000206000915054906101000a900473ffffffffffffffffffffffffffffffffffffffff1681565b60007f01ffc9a7000000000000000000000000000000000000000000000000000000007bffffffffffffffffffffffffffffffffffffffffffffffffffffffff1916827bffffffffffffffffffffffffffffffffffffffffffffffffffffffff1916149050919050565b62001bef8162001be962001cd7565b62001dc5565b50565b62001bfe828262001734565b62001cd357600160008084815260200190815260200160002060000160008373ffffffffffffffffffffffffffffffffffffffff1673ffffffffffffffffffffffffffffffffffffffff16815260200190815260200160002060006101000a81548160ff02191690831515021790555062001c7862001cd7565b73ffffffffffffffffffffffffffffffffffffffff168173ffffffffffffffffffffffffffffffffffffffff16837f2f8788117e7eff1d82e926ec794901d17c78024a50270940304540a733656f0d60405160405180910390a45b5050565b600033905090565b62001ceb828262001734565b1562001dc157600080600084815260200190815260200160002060000160008373ffffffffffffffffffffffffffffffffffffffff1673ffffffffffffffffffffffffffffffffffffffff16815260200190815260200160002060006101000a81548160ff02191690831515021790555062001d6662001cd7565b73ffffffffffffffffffffffffffffffffffffffff168173ffffffffffffffffffffffffffffffffffffffff16837ff6391f5c32d9c69d2a47ea670b442974b53935d1edc7fd64eb21e047a839171b60405160405180910390a45b5050565b62001dd1828262001734565b62001e695762001df98173ffffffffffffffffffffffffffffffffffffffff16601462001e6d565b62001e098360001c602062001e6d565b60405160200162001e1c92919062002c43565b6040516020818303038152906040526040517f08c379a000000000000000000000000000000000000000000000000000000000815260040162001e60919062002c85565b60405180910390fd5b5050565b60606000600283600262001e82919062002ca9565b62001e8e919062002a7d565b67ffffffffffffffff81111562001eaa5762001ea9620024c7565b5b6040519080825280601f01601f19166020018201604052801562001edd5781602001600182028036833780820191505090505b5090507f30000000000000000000000000000000000000000000000000000000000000008160008151811062001f185762001f1762002b15565b5b60200101907effffffffffffffffffffffffffffffffffffffffffffffffffffffffffffff1916908160001a9053507f78000000000000000000000000000000000000000000000000000000000000008160018151811062001f7f5762001f7e62002b15565b5b60200101907effffffffffffffffffffffffffffffffffffffffffffffffffffffffffffff1916908160001a9053506000600184600262001fc1919062002ca9565b62001fcd919062002a7d565b90505b600181111562002077577f3031323334353637383961626364656600000000000000000000000000000000600f86166010811062002013576200201262002b15565b5b1a60f81b8282815181106200202d576200202c62002b15565b5b60200101907effffffffffffffffffffffffffffffffffffffffffffffffffffffffffffff1916908160001a905350600485901c9450806200206f9062002d0a565b905062001fd0565b5060008414620020be576040517f08c379a0000000000000000000000000000000000000000000000000000000008152600401620020b59062002d89565b60405180910390fd5b8091505092915050565b6130c98062002dac83390190565b6000604051905090565b600080fd5b600080fd5b60007fffffffff0000000000000000000000000000000000000000000000000000000082169050919050565b6200212181620020ea565b81146200212d57600080fd5b50565b600081359050620021418162002116565b92915050565b60006020828403121562002160576200215f620020e0565b5b6000620021708482850162002130565b91505092915050565b60008115159050919050565b620021908162002179565b82525050565b6000602082019050620021ad600083018462002185565b92915050565b6000819050919050565b620021c881620021b3565b82525050565b6000602082019050620021e56000830184620021bd565b92915050565b600073ffffffffffffffffffffffffffffffffffffffff82169050919050565b60006200221882620021eb565b9050919050565b6200222a816200220b565b81146200223657600080fd5b50565b6000813590506200224a816200221f565b92915050565b600060208284031215620022695762002268620020e0565b5b6000620022798482850162002239565b91505092915050565b6000819050919050565b620022978162002282565b8114620022a357600080fd5b50565b600081359050620022b7816200228c565b92915050565b600060208284031215620022d657620022d5620020e0565b5b6000620022e684828501620022a6565b91505092915050565b620022fa8162002282565b82525050565b6000602082019050620023176000830184620022ef565b92915050565b60006200232a82620021eb565b9050919050565b6200233c816200231d565b81146200234857600080fd5b50565b6000813590506200235c8162002331565b92915050565b600080604083850312156200237c576200237b620020e0565b5b60006200238c85828601620022a6565b92505060206200239f858286016200234b565b9150509250929050565b600060208284031215620023c257620023c1620020e0565b5b6000620023d2848285016200234b565b91505092915050565b620023e6816200231d565b82525050565b6000602082019050620024036000830184620023db565b92915050565b6200241481620021b3565b81146200242057600080fd5b50565b600081359050620024348162002409565b92915050565b60008060008060808587031215620024575762002456620020e0565b5b600062002467878288016200234b565b94505060206200247a8782880162002423565b93505060406200248d8782880162002423565b9250506060620024a08782880162002423565b91505092959194509250565b600080fd5b600080fd5b6000601f19601f8301169050919050565b7f4e487b7100000000000000000000000000000000000000000000000000000000600052604160045260246000fd5b6200250182620024b6565b810181811067ffffffffffffffff82111715620025235762002522620024c7565b5b80604052505050565b600062002538620020d6565b9050620025468282620024f6565b919050565b600067ffffffffffffffff821115620025695762002568620024c7565b5b6200257482620024b6565b9050602081019050919050565b82818337600083830152505050565b6000620025a7620025a1846200254b565b6200252c565b905082815260208101848484011115620025c657620025c5620024b1565b5b620025d384828562002581565b509392505050565b600082601f830112620025f357620025f2620024ac565b5b81356200260584826020860162002590565b91505092915050565b600080600080600080600060e0888a03121562002630576200262f620020e0565b5b6000620026408a828b0162002423565b9750506020620026538a828b0162002423565b9650506040620026668a828b0162002423565b955050606088013567ffffffffffffffff8111156200268a5762002689620020e5565b5b620026988a828b01620025db565b945050608088013567ffffffffffffffff811115620026bc57620026bb620020e5565b5b620026ca8a828b01620025db565b93505060a0620026dd8a828b0162002423565b92505060c0620026f08a828b0162002423565b91505092959891949750929550565b60008060408385031215620027195762002718620020e0565b5b600062002729858286016200234b565b92505060206200273c8582860162002239565b9150509250929050565b6000602082840312156200275f576200275e620020e0565b5b60006200276f8482850162002423565b91505092915050565b600082825260208201905092915050565b7f416363657373436f6e74726f6c3a2063616e206f6e6c792072656e6f756e636560008201527f20726f6c657320666f722073656c660000000000000000000000000000000000602082015250565b6000620027e7602f8362002778565b9150620027f48262002789565b604082019050919050565b600060208201905081810360008301526200281a81620027d8565b9050919050565b600081519050620028328162002331565b92915050565b600060208284031215620028515762002850620020e0565b5b6000620028618482850162002821565b91505092915050565b6000604082019050620028816000830185620023db565b620028906020830184620023db565b9392505050565b6000604082019050620028ae6000830185620021bd565b620028bd6020830184620023db565b9392505050565b600081519050919050565b60005b83811015620028ef578082015181840152602081019050620028d2565b83811115620028ff576000848401525b50505050565b60006200291282620028c4565b6200291e818562002778565b935062002930818560208601620028cf565b6200293b81620024b6565b840191505092915050565b50565b60006200295860008362002778565b9150620029658262002946565b600082019050919050565b600060808201905081810360008301526200298c818662002905565b90508181036020830152620029a2818562002905565b9050620029b36040830184620021bd565b8181036060830152620029c68162002949565b9050949350505050565b620029db816200220b565b82525050565b600060c082019050620029f86000830189620021bd565b62002a076020830188620023db565b62002a166040830187620021bd565b62002a256060830186620021bd565b62002a346080830185620029d0565b62002a4360a0830184620029d0565b979650505050505050565b7f4e487b7100000000000000000000000000000000000000000000000000000000600052601160045260246000fd5b600062002a8a82620021b3565b915062002a9783620021b3565b9250827fffffffffffffffffffffffffffffffffffffffffffffffffffffffffffffffff0382111562002acf5762002ace62002a4e565b5b828201905092915050565b600062002ae782620021b3565b915062002af483620021b3565b92508282101562002b0a5762002b0962002a4e565b5b828203905092915050565b7f4e487b7100000000000000000000000000000000000000000000000000000000600052603260045260246000fd5b600060208201905062002b5b6000830184620029d0565b92915050565b600081905092915050565b7f416363657373436f6e74726f6c3a206163636f756e7420000000000000000000600082015250565b600062002ba460178362002b61565b915062002bb18262002b6c565b601782019050919050565b600062002bc982620028c4565b62002bd5818562002b61565b935062002be7818560208601620028cf565b80840191505092915050565b7f206973206d697373696e6720726f6c6520000000000000000000000000000000600082015250565b600062002c2b60118362002b61565b915062002c388262002bf3565b601182019050919050565b600062002c508262002b95565b915062002c5e828562002bbc565b915062002c6b8262002c1c565b915062002c79828462002bbc565b91508190509392505050565b6000602082019050818103600083015262002ca1818462002905565b905092915050565b600062002cb682620021b3565b915062002cc383620021b3565b9250817fffffffffffffffffffffffffffffffffffffffffffffffffffffffffffffffff048311821515161562002cff5762002cfe62002a4e565b5b828202905092915050565b600062002d1782620021b3565b9150600082141562002d2e5762002d2d62002a4e565b5b600182039050919050565b7f537472696e67733a20686578206c656e67746820696e73756666696369656e74600082015250565b600062002d7160208362002778565b915062002d7e8262002d39565b602082019050919050565b6000602082019050818103600083015262002da48162002d62565b905091905056fe6080604052600060075560006008553480156200001b57600080fd5b50604051620030c9380380620030c98339818101604052810190620000419190620004be565b858585856001808190555060018410156200005b57600080fd5b600073ffffffffffffffffffffffffffffffffffffffff168373ffffffffffffffffffffffffffffffffffffffff1614156200009657600080fd5b42821015620000a457600080fd5b818111620000b157600080fd5b620000c66000801b336200027160201b60201c565b8360038190555082600260006101000a81548173ffffffffffffffffffffffffffffffffffffffff021916908373ffffffffffffffffffffffffffffffffffffffff16021790555081600481905550806005819055505050505081600660016101000a81548173ffffffffffffffffffffffffffffffffffffffff021916908373ffffffffffffffffffffffffffffffffffffffff16021790555080600b60006101000a81548173ffffffffffffffffffffffffffffffffffffffff021916908373ffffffffffffffffffffffffffffffffffffffff160217905550600b60009054906101000a900473ffffffffffffffffffffffffffffffffffffffff1673ffffffffffffffffffffffffffffffffffffffff1663a55870886040518163ffffffff1660e01b8152600401602060405180830381600087803b1580156200020d57600080fd5b505af115801562000222573d6000803e3d6000fd5b505050506040513d601f19601f820116820180604052508101906200024891906200055a565b600c819055506014600c546200025f9190620005bb565b600d81905550505050505050620005f3565b6200028382826200036260201b60201c565b6200035e57600160008084815260200190815260200160002060000160008373ffffffffffffffffffffffffffffffffffffffff1673ffffffffffffffffffffffffffffffffffffffff16815260200190815260200160002060006101000a81548160ff02191690831515021790555062000303620003cc60201b60201c565b73ffffffffffffffffffffffffffffffffffffffff168173ffffffffffffffffffffffffffffffffffffffff16837f2f8788117e7eff1d82e926ec794901d17c78024a50270940304540a733656f0d60405160405180910390a45b5050565b600080600084815260200190815260200160002060000160008373ffffffffffffffffffffffffffffffffffffffff1673ffffffffffffffffffffffffffffffffffffffff16815260200190815260200160002060009054906101000a900460ff16905092915050565b600033905090565b600080fd5b6000819050919050565b620003ee81620003d9565b8114620003fa57600080fd5b50565b6000815190506200040e81620003e3565b92915050565b600073ffffffffffffffffffffffffffffffffffffffff82169050919050565b6000620004418262000414565b9050919050565b620004538162000434565b81146200045f57600080fd5b50565b600081519050620004738162000448565b92915050565b6000620004868262000414565b9050919050565b620004988162000479565b8114620004a457600080fd5b50565b600081519050620004b8816200048d565b92915050565b60008060008060008060c08789031215620004de57620004dd620003d4565b5b6000620004ee89828a01620003fd565b96505060206200050189828a0162000462565b95505060406200051489828a01620003fd565b94505060606200052789828a01620003fd565b93505060806200053a89828a01620004a7565b92505060a06200054d89828a01620004a7565b9150509295509295509295565b600060208284031215620005735762000572620003d4565b5b60006200058384828501620003fd565b91505092915050565b7f4e487b7100000000000000000000000000000000000000000000000000000000600052601260045260246000fd5b6000620005c882620003d9565b9150620005d583620003d9565b925082620005e857620005e76200058c565b5b828204905092915050565b612ac680620006036000396000f3fe6080604052600436106101a05760003560e01c80637a37ac26116100ec578063c19d93fb1161008a578063d547741f11610064578063d547741f14610599578063ef38bf01146105c2578063fbfa77cf146105ed578063fc0c546a14610618576101b2565b8063c19d93fb14610518578063c392f76614610543578063c97f8d6e1461056e576101b2565b806391d14854116100c657806391d1485414610469578063a217fddf146104a6578063b7a8807c146104d1578063bbdc9077146104fc576101b2565b80637a37ac26146103fe5780638433acd1146104295780638c6f334914610440576101b2565b806336568abe11610159578063590e1ae311610133578063590e1ae31461037257806361c9d81c1461037c5780636e353a1d146103a557806374d00f67146103c1576101b2565b806336568abe146102f5578063397a8bab1461031e5780634b6753bc14610347576101b2565b806301ffc9a7146101bf5780630c3ca20f146101fc578063248a9ca3146102275780632c4e722e146102645780632f2ff15d1461028f57806331f36bd9146102b8576101b2565b366101b2576101b0336001610643565b005b6101bd336001610643565b005b3480156101cb57600080fd5b506101e660048036038101906101e19190611dc9565b61071d565b6040516101f39190611e11565b60405180910390f35b34801561020857600080fd5b50610211610797565b60405161021e9190611e45565b60405180910390f35b34801561023357600080fd5b5061024e60048036038101906102499190611e96565b61079d565b60405161025b9190611ed2565b60405180910390f35b34801561027057600080fd5b506102796107bc565b6040516102869190611e45565b60405180910390f35b34801561029b57600080fd5b506102b660048036038101906102b19190611f4b565b6107c2565b005b3480156102c457600080fd5b506102df60048036038101906102da9190611fb7565b6107e3565b6040516102ec9190611e45565b60405180910390f35b34801561030157600080fd5b5061031c60048036038101906103179190611f4b565b610808565b005b34801561032a57600080fd5b5061034560048036038101906103409190611ff7565b61088b565b005b34801561035357600080fd5b5061035c6108a9565b6040516103699190611e45565b60405180910390f35b61037a6108af565b005b34801561038857600080fd5b506103a3600480360381019061039e9190612062565b6109f2565b005b6103bf60048036038101906103ba9190612062565b610b44565b005b3480156103cd57600080fd5b506103e860048036038101906103e39190611ff7565b610c02565b6040516103f59190611e45565b60405180910390f35b34801561040a57600080fd5b50610413610c1a565b6040516104209190611e45565b60405180910390f35b34801561043557600080fd5b5061043e610c20565b005b34801561044c57600080fd5b5061046760048036038101906104629190611fb7565b610ef5565b005b34801561047557600080fd5b50610490600480360381019061048b9190611f4b565b611162565b60405161049d9190611e11565b60405180910390f35b3480156104b257600080fd5b506104bb6111cc565b6040516104c89190611ed2565b60405180910390f35b3480156104dd57600080fd5b506104e66111d3565b6040516104f39190611e45565b60405180910390f35b610516600480360381019061051191906120bb565b610643565b005b34801561052457600080fd5b5061052d6111d9565b60405161053a9190612172565b60405180910390f35b34801561054f57600080fd5b506105586111ec565b6040516105659190611e45565b60405180910390f35b34801561057a57600080fd5b506105836111f2565b6040516105909190611e45565b60405180910390f35b3480156105a557600080fd5b506105c060048036038101906105bb9190611f4b565b6111f8565b005b3480156105ce57600080fd5b506105d7611219565b6040516105e491906121ec565b60405180910390f35b3480156105f957600080fd5b5061060261123f565b60405161060f9190612228565b60405180910390f35b34801561062457600080fd5b5061062d611265565b60405161063a9190612276565b60405180910390f35b60026001541415610689576040517f08c379a0000000000000000000000000000000000000000000000000000000008152600401610680906122ee565b60405180910390fd5b600260018190555060003490506106a0838261128b565b60006106ab82611327565b90506106b8848385611345565b8373ffffffffffffffffffffffffffffffffffffffff167fcd60aa75dea3072fbc07ae6d7d856b5dc5f4eee88854f5b4abf7b680ef8bc50f838360405161070092919061230e565b60405180910390a26107106114bd565b5050600180819055505050565b60007f7965db0b000000000000000000000000000000000000000000000000000000007bffffffffffffffffffffffffffffffffffffffffffffffffffffffff1916827bffffffffffffffffffffffffffffffffffffffffffffffffffffffff19161480610790575061078f82611749565b5b9050919050565b60075481565b6000806000838152602001908152602001600020600101549050919050565b60035481565b6107cb8261079d565b6107d4816117b3565b6107de83836117c7565b505050565b6009602052816000526040600020602052806000526040600020600091509150505481565b6108106118a7565b73ffffffffffffffffffffffffffffffffffffffff168173ffffffffffffffffffffffffffffffffffffffff161461087d576040517f08c379a0000000000000000000000000000000000000000000000000000000008152600401610874906123a9565b60405180910390fd5b61088782826118af565b5050565b6000801b610898816117b3565b6108a56000801b836117c7565b5050565b60055481565b600260015414156108f5576040517f08c379a00000000000000000000000000000000000000000000000000000000081526004016108ec906122ee565b60405180910390fd5b6002600181905550600060096000600854815260200190815260200160002060003373ffffffffffffffffffffffffffffffffffffffff1673ffffffffffffffffffffffffffffffffffffffff168152602001908152602001600020541461095c57600080fd5b600660019054906101000a900473ffffffffffffffffffffffffffffffffffffffff1673ffffffffffffffffffffffffffffffffffffffff1663fa89401a336040518263ffffffff1660e01b81526004016109b791906123d8565b600060405180830381600087803b1580156109d157600080fd5b505af11580156109e5573d6000803e3d6000fd5b5050505060018081905550565b6000801b6109ff816117b3565b60026001541415610a45576040517f08c379a0000000000000000000000000000000000000000000000000000000008152600401610a3c906122ee565b60405180910390fd5b6002600181905550600180811115610a6057610a5f6120fb565b5b600660009054906101000a900460ff166001811115610a8257610a816120fb565b5b14610a8c57600080fd5b60008273ffffffffffffffffffffffffffffffffffffffff1647604051610ab290612424565b60006040518083038185875af1925050503d8060008114610aef576040519150601f19603f3d011682016040523d82523d6000602084013e610af4565b606091505b5050905080610b38576040517f08c379a0000000000000000000000000000000000000000000000000000000008152600401610b2f90612485565b60405180910390fd5b50600180819055505050565b6000801b610b51816117b3565b60008273ffffffffffffffffffffffffffffffffffffffff1647604051610b7790612424565b60006040518083038185875af1925050503d8060008114610bb4576040519150601f19603f3d011682016040523d82523d6000602084013e610bb9565b606091505b5050905080610bfd576040517f08c379a0000000000000000000000000000000000000000000000000000000008152600401610bf490612485565b60405180910390fd5b505050565b600a6020528060005260406000206000915090505481565b60085481565b60026001541415610c66576040517f08c379a0000000000000000000000000000000000000000000000000000000008152600401610c5d906122ee565b60405180910390fd5b6002600181905550600180811115610c8157610c806120fb565b5b600660009054906101000a900460ff166001811115610ca357610ca26120fb565b5b14610cad57600080fd5b6000600a60003373ffffffffffffffffffffffffffffffffffffffff1673ffffffffffffffffffffffffffffffffffffffff1681526020019081526020016000205460096000600854815260200190815260200160002060003373ffffffffffffffffffffffffffffffffffffffff1673ffffffffffffffffffffffffffffffffffffffff16815260200190815260200160002054610d4c91906124d4565b905060008111610d5b57600080fd5b600660019054906101000a900473ffffffffffffffffffffffffffffffffffffffff1673ffffffffffffffffffffffffffffffffffffffff16630a2f487b3360096000600854815260200190815260200160002060003373ffffffffffffffffffffffffffffffffffffffff1673ffffffffffffffffffffffffffffffffffffffff168152602001908152602001600020546040518363ffffffff1660e01b8152600401610e0a929190612539565b600060405180830381600087803b158015610e2457600080fd5b505af1158015610e38573d6000803e3d6000fd5b50505050600060096000600854815260200190815260200160002060003373ffffffffffffffffffffffffffffffffffffffff1673ffffffffffffffffffffffffffffffffffffffff168152602001908152602001600020819055506000600a60003373ffffffffffffffffffffffffffffffffffffffff1673ffffffffffffffffffffffffffffffffffffffff16815260200190815260200160002081905550610eeb33610ee683611327565b611990565b5060018081905550565b60006001811115610f0957610f086120fb565b5b600660009054906101000a900460ff166001811115610f2b57610f2a6120fb565b5b14610f3557600080fd5b6000801b610f42816117b3565b6004548311610f5057600080fd5b81600b60006101000a81548173ffffffffffffffffffffffffffffffffffffffff021916908373ffffffffffffffffffffffffffffffffffffffff160217905550600b60009054906101000a900473ffffffffffffffffffffffffffffffffffffffff1673ffffffffffffffffffffffffffffffffffffffff1663a55870886040518163ffffffff1660e01b8152600401602060405180830381600087803b158015610ffb57600080fd5b505af115801561100f573d6000803e3d6000fd5b505050506040513d601f19601f820116820180604052508101906110339190612577565b600c819055506014600c5461104891906125d3565b600d819055506000600660019054906101000a900473ffffffffffffffffffffffffffffffffffffffff16905060008173ffffffffffffffffffffffffffffffffffffffff1660075460405161109d90612424565b60006040518083038185875af1925050503d80600081146110da576040519150601f19603f3d011682016040523d82523d6000602084013e6110df565b606091505b5050905080611123576040517f08c379a000000000000000000000000000000000000000000000000000000000815260040161111a90612650565b60405180910390fd5b600060078190555060016008600082825461113e91906124d4565b92505081905550426004819055508460058190555061115b6114bd565b5050505050565b600080600084815260200190815260200160002060000160008373ffffffffffffffffffffffffffffffffffffffff1673ffffffffffffffffffffffffffffffffffffffff16815260200190815260200160002060009054906101000a900460ff16905092915050565b6000801b81565b60045481565b600660009054906101000a900460ff1681565b600d5481565b600c5481565b6112018261079d565b61120a816117b3565b61121483836118af565b505050565b600b60009054906101000a900473ffffffffffffffffffffffffffffffffffffffff1681565b600660019054906101000a900473ffffffffffffffffffffffffffffffffffffffff1681565b600260009054906101000a900473ffffffffffffffffffffffffffffffffffffffff1681565b6112958282611a23565b600060018111156112a9576112a86120fb565b5b600660009054906101000a900460ff1660018111156112cb576112ca6120fb565b5b146112d557600080fd5b60016112e082611327565b10156112eb57600080fd5b6064611305600d54600c5461130091906124d4565b611327565b61130f91906124d4565b61131847611327565b111561132357600080fd5b5050565b600061133e60035483611a7d90919063ffffffff16565b9050919050565b8015611461578160096000600854815260200190815260200160002060008573ffffffffffffffffffffffffffffffffffffffff1673ffffffffffffffffffffffffffffffffffffffff16815260200190815260200160002060008282546113ad91906124d4565b92505081905550600660019054906101000a900473ffffffffffffffffffffffffffffffffffffffff1673ffffffffffffffffffffffffffffffffffffffff16636f485d6c84846040518363ffffffff1660e01b8152600401611411929190612539565b600060405180830381600087803b15801561142b57600080fd5b505af115801561143f573d6000803e3d6000fd5b50505050816007600082825461145591906124d4565b925050819055506114b8565b81600a60008573ffffffffffffffffffffffffffffffffffffffff1673ffffffffffffffffffffffffffffffffffffffff16815260200190815260200160002060008282546114b091906124d4565b925050819055505b505050565b600d54600c546114cd91906124d4565b4710611747576000600b60009054906101000a900473ffffffffffffffffffffffffffffffffffffffff16905060008173ffffffffffffffffffffffffffffffffffffffff16600c5460405161152290612424565b60006040518083038185875af1925050503d806000811461155f576040519150601f19603f3d011682016040523d82523d6000602084013e611564565b606091505b50509050806115a8576040517f08c379a000000000000000000000000000000000000000000000000000000000815260040161159f906126bc565b60405180910390fd5b6000600b60009054906101000a900473ffffffffffffffffffffffffffffffffffffffff1673ffffffffffffffffffffffffffffffffffffffff16639c3962f06040518163ffffffff1660e01b8152600401602060405180830381600087803b15801561161457600080fd5b505af1158015611628573d6000803e3d6000fd5b505050506040513d601f19601f8201168201806040525081019061164c91906126f1565b90508061168e576040517f08c379a00000000000000000000000000000000000000000000000000000000081526004016116859061276a565b60405180910390fd5b6000600781905550600660019054906101000a900473ffffffffffffffffffffffffffffffffffffffff1673ffffffffffffffffffffffffffffffffffffffff166343d726d66040518163ffffffff1660e01b8152600401600060405180830381600087803b15801561170057600080fd5b505af1158015611714573d6000803e3d6000fd5b505050506001600660006101000a81548160ff0219169083600181111561173e5761173d6120fb565b5b02179055505050505b565b60007f01ffc9a7000000000000000000000000000000000000000000000000000000007bffffffffffffffffffffffffffffffffffffffffffffffffffffffff1916827bffffffffffffffffffffffffffffffffffffffffffffffffffffffff1916149050919050565b6117c4816117bf6118a7565b611a93565b50565b6117d18282611162565b6118a357600160008084815260200190815260200160002060000160008373ffffffffffffffffffffffffffffffffffffffff1673ffffffffffffffffffffffffffffffffffffffff16815260200190815260200160002060006101000a81548160ff0219169083151502179055506118486118a7565b73ffffffffffffffffffffffffffffffffffffffff168173ffffffffffffffffffffffffffffffffffffffff16837f2f8788117e7eff1d82e926ec794901d17c78024a50270940304540a733656f0d60405160405180910390a45b5050565b600033905090565b6118b98282611162565b1561198c57600080600084815260200190815260200160002060000160008373ffffffffffffffffffffffffffffffffffffffff1673ffffffffffffffffffffffffffffffffffffffff16815260200190815260200160002060006101000a81548160ff0219169083151502179055506119316118a7565b73ffffffffffffffffffffffffffffffffffffffff168173ffffffffffffffffffffffffffffffffffffffff16837ff6391f5c32d9c69d2a47ea670b442974b53935d1edc7fd64eb21e047a839171b60405160405180910390a45b5050565b600260009054906101000a900473ffffffffffffffffffffffffffffffffffffffff1673ffffffffffffffffffffffffffffffffffffffff166340c10f1983836040518363ffffffff1660e01b81526004016119ed929190612539565b600060405180830381600087803b158015611a0757600080fd5b505af1158015611a1b573d6000803e3d6000fd5b505050505050565b6005544210611a3157600080fd5b600073ffffffffffffffffffffffffffffffffffffffff168273ffffffffffffffffffffffffffffffffffffffff161415611a6b57600080fd5b6000811415611a7957600080fd5b5050565b60008183611a8b919061278a565b905092915050565b611a9d8282611162565b611b2c57611ac28173ffffffffffffffffffffffffffffffffffffffff166014611b30565b611ad08360001c6020611b30565b604051602001611ae19291906128f6565b6040516020818303038152906040526040517f08c379a0000000000000000000000000000000000000000000000000000000008152600401611b23919061297a565b60405180910390fd5b5050565b606060006002836002611b43919061278a565b611b4d91906124d4565b67ffffffffffffffff811115611b6657611b6561299c565b5b6040519080825280601f01601f191660200182016040528015611b985781602001600182028036833780820191505090505b5090507f300000000000000000000000000000000000000000000000000000000000000081600081518110611bd057611bcf6129cb565b5b60200101907effffffffffffffffffffffffffffffffffffffffffffffffffffffffffffff1916908160001a9053507f780000000000000000000000000000000000000000000000000000000000000081600181518110611c3457611c336129cb565b5b60200101907effffffffffffffffffffffffffffffffffffffffffffffffffffffffffffff1916908160001a90535060006001846002611c74919061278a565b611c7e91906124d4565b90505b6001811115611d1e577f3031323334353637383961626364656600000000000000000000000000000000600f861660108110611cc057611cbf6129cb565b5b1a60f81b828281518110611cd757611cd66129cb565b5b60200101907effffffffffffffffffffffffffffffffffffffffffffffffffffffffffffff1916908160001a905350600485901c945080611d17906129fa565b9050611c81565b5060008414611d62576040517f08c379a0000000000000000000000000000000000000000000000000000000008152600401611d5990612a70565b60405180910390fd5b8091505092915050565b600080fd5b60007fffffffff0000000000000000000000000000000000000000000000000000000082169050919050565b611da681611d71565b8114611db157600080fd5b50565b600081359050611dc381611d9d565b92915050565b600060208284031215611ddf57611dde611d6c565b5b6000611ded84828501611db4565b91505092915050565b60008115159050919050565b611e0b81611df6565b82525050565b6000602082019050611e266000830184611e02565b92915050565b6000819050919050565b611e3f81611e2c565b82525050565b6000602082019050611e5a6000830184611e36565b92915050565b6000819050919050565b611e7381611e60565b8114611e7e57600080fd5b50565b600081359050611e9081611e6a565b92915050565b600060208284031215611eac57611eab611d6c565b5b6000611eba84828501611e81565b91505092915050565b611ecc81611e60565b82525050565b6000602082019050611ee76000830184611ec3565b92915050565b600073ffffffffffffffffffffffffffffffffffffffff82169050919050565b6000611f1882611eed565b9050919050565b611f2881611f0d565b8114611f3357600080fd5b50565b600081359050611f4581611f1f565b92915050565b60008060408385031215611f6257611f61611d6c565b5b6000611f7085828601611e81565b9250506020611f8185828601611f36565b9150509250929050565b611f9481611e2c565b8114611f9f57600080fd5b50565b600081359050611fb181611f8b565b92915050565b60008060408385031215611fce57611fcd611d6c565b5b6000611fdc85828601611fa2565b9250506020611fed85828601611f36565b9150509250929050565b60006020828403121561200d5761200c611d6c565b5b600061201b84828501611f36565b91505092915050565b600061202f82611eed565b9050919050565b61203f81612024565b811461204a57600080fd5b50565b60008135905061205c81612036565b92915050565b60006020828403121561207857612077611d6c565b5b60006120868482850161204d565b91505092915050565b61209881611df6565b81146120a357600080fd5b50565b6000813590506120b58161208f565b92915050565b600080604083850312156120d2576120d1611d6c565b5b60006120e085828601611f36565b92505060206120f1858286016120a6565b9150509250929050565b7f4e487b7100000000000000000000000000000000000000000000000000000000600052602160045260246000fd5b6002811061213b5761213a6120fb565b5b50565b600081905061214c8261212a565b919050565b600061215c8261213e565b9050919050565b61216c81612151565b82525050565b60006020820190506121876000830184612163565b92915050565b6000819050919050565b60006121b26121ad6121a884611eed565b61218d565b611eed565b9050919050565b60006121c482612197565b9050919050565b60006121d6826121b9565b9050919050565b6121e6816121cb565b82525050565b600060208201905061220160008301846121dd565b92915050565b6000612212826121b9565b9050919050565b61222281612207565b82525050565b600060208201905061223d6000830184612219565b92915050565b600061224e82612197565b9050919050565b600061226082612243565b9050919050565b61227081612255565b82525050565b600060208201905061228b6000830184612267565b92915050565b600082825260208201905092915050565b7f5265656e7472616e637947756172643a207265656e7472616e742063616c6c00600082015250565b60006122d8601f83612291565b91506122e3826122a2565b602082019050919050565b60006020820190508181036000830152612307816122cb565b9050919050565b60006040820190506123236000830185611e36565b6123306020830184611e36565b9392505050565b7f416363657373436f6e74726f6c3a2063616e206f6e6c792072656e6f756e636560008201527f20726f6c657320666f722073656c660000000000000000000000000000000000602082015250565b6000612393602f83612291565b915061239e82612337565b604082019050919050565b600060208201905081810360008301526123c281612386565b9050919050565b6123d281612024565b82525050565b60006020820190506123ed60008301846123c9565b92915050565b600081905092915050565b50565b600061240e6000836123f3565b9150612419826123fe565b600082019050919050565b600061242f82612401565b9150819050919050565b7f4574686572207472616e73666572206661696c65642e00000000000000000000600082015250565b600061246f601683612291565b915061247a82612439565b602082019050919050565b6000602082019050818103600083015261249e81612462565b9050919050565b7f4e487b7100000000000000000000000000000000000000000000000000000000600052601160045260246000fd5b60006124df82611e2c565b91506124ea83611e2c565b9250827fffffffffffffffffffffffffffffffffffffffffffffffffffffffffffffffff0382111561251f5761251e6124a5565b5b828201905092915050565b61253381611f0d565b82525050565b600060408201905061254e600083018561252a565b61255b6020830184611e36565b9392505050565b60008151905061257181611f8b565b92915050565b60006020828403121561258d5761258c611d6c565b5b600061259b84828501612562565b91505092915050565b7f4e487b7100000000000000000000000000000000000000000000000000000000600052601260045260246000fd5b60006125de82611e2c565b91506125e983611e2c565b9250826125f9576125f86125a4565b5b828204905092915050565b7f46756e6374696f6e206661696c65642e00000000000000000000000000000000600082015250565b600061263a601083612291565b915061264582612604565b602082019050919050565b600060208201905081810360008301526126698161262d565b9050919050565b7f5472616e73666572206661696c65642e00000000000000000000000000000000600082015250565b60006126a6601083612291565b91506126b182612670565b602082019050919050565b600060208201905081810360008301526126d581612699565b9050919050565b6000815190506126eb8161208f565b92915050565b60006020828403121561270757612706611d6c565b5b6000612715848285016126dc565b91505092915050565b7f507572636861736520206661696c65642e000000000000000000000000000000600082015250565b6000612754601183612291565b915061275f8261271e565b602082019050919050565b6000602082019050818103600083015261278381612747565b9050919050565b600061279582611e2c565b91506127a083611e2c565b9250817fffffffffffffffffffffffffffffffffffffffffffffffffffffffffffffffff04831182151516156127d9576127d86124a5565b5b828202905092915050565b600081905092915050565b7f416363657373436f6e74726f6c3a206163636f756e7420000000000000000000600082015250565b60006128256017836127e4565b9150612830826127ef565b601782019050919050565b600081519050919050565b60005b83811015612864578082015181840152602081019050612849565b83811115612873576000848401525b50505050565b60006128848261283b565b61288e81856127e4565b935061289e818560208601612846565b80840191505092915050565b7f206973206d697373696e6720726f6c6520000000000000000000000000000000600082015250565b60006128e06011836127e4565b91506128eb826128aa565b601182019050919050565b600061290182612818565b915061290d8285612879565b9150612918826128d3565b91506129248284612879565b91508190509392505050565b6000601f19601f8301169050919050565b600061294c8261283b565b6129568185612291565b9350612966818560208601612846565b61296f81612930565b840191505092915050565b600060208201905081810360008301526129948184612941565b905092915050565b7f4e487b7100000000000000000000000000000000000000000000000000000000600052604160045260246000fd5b7f4e487b7100000000000000000000000000000000000000000000000000000000600052603260045260246000fd5b6000612a0582611e2c565b91506000821415612a1957612a186124a5565b5b600182039050919050565b7f537472696e67733a20686578206c656e67746820696e73756666696369656e74600082015250565b6000612a5a602083612291565b9150612a6582612a24565b602082019050919050565b60006020820190508181036000830152612a8981612a4d565b905091905056fea26469706673582212207803f53c13ddec5bdf6eff0ff09b1dbbd834e3be114fc16c26379778b8e42f4564736f6c63430008090033a26469706673582212209ee5fa76ed0f5563530e0daca1cff7d264764990b8b71b35e62891b892bf172a64736f6c63430008090033",
  "linkReferences": {},
  "deployedLinkReferences": {}
}