{
  "_format": "hh-sol-artifact-1",
  "contractName": "MoonSaleFactory",
  "sourceName": "contracts/MoonSaleFactory.sol",
  "abi": [
    {
      "inputs": [
        {
          "internalType": "address",
          "name": "_tokenFactory",
          "type": "address"
        },
        {
          "internalType": "address",
          "name": "_marketWrapperFactory",
          "type": "address"
        },
        {
          "internalType": "address",
          "name": "_vaultFactory",
          "type": "address"
        }
      ],
      "stateMutability": "nonpayable",
      "type": "constructor"
    },
    {
      "anonymous": false,
      "inputs": [
        {
          "indexed": true,
          "internalType": "bytes32",
          "name": "role",
          "type": "bytes32"
        },
        {
          "indexed": true,
          "internalType": "bytes32",
          "name": "previousAdminRole",
          "type": "bytes32"
        },
        {
          "indexed": true,
          "internalType": "bytes32",
          "name": "newAdminRole",
          "type": "bytes32"
        }
      ],
      "name": "RoleAdminChanged",
      "type": "event"
    },
    {
      "anonymous": false,
      "inputs": [
        {
          "indexed": true,
          "internalType": "bytes32",
          "name": "role",
          "type": "bytes32"
        },
        {
          "indexed": true,
          "internalType": "address",
          "name": "account",
          "type": "address"
        },
        {
          "indexed": true,
          "internalType": "address",
          "name": "sender",
          "type": "address"
        }
      ],
      "name": "RoleGranted",
      "type": "event"
    },
    {
      "anonymous": false,
      "inputs": [
        {
          "indexed": true,
          "internalType": "bytes32",
          "name": "role",
          "type": "bytes32"
        },
        {
          "indexed": true,
          "internalType": "address",
          "name": "account",
          "type": "address"
        },
        {
          "indexed": true,
          "internalType": "address",
          "name": "sender",
          "type": "address"
        }
      ],
      "name": "RoleRevoked",
      "type": "event"
    },
    {
      "inputs": [],
      "name": "DEFAULT_ADMIN_ROLE",
      "outputs": [
        {
          "internalType": "bytes32",
          "name": "",
          "type": "bytes32"
        }
      ],
      "stateMutability": "view",
      "type": "function"
    },
    {
      "inputs": [
        {
          "internalType": "address payable",
          "name": "_newFactory",
          "type": "address"
        }
      ],
      "name": "changeMarketWrapperFactory",
      "outputs": [],
      "stateMutability": "nonpayable",
      "type": "function"
    },
    {
      "inputs": [
        {
          "internalType": "address payable",
          "name": "_newFactory",
          "type": "address"
        }
      ],
      "name": "changeTokenFactory",
      "outputs": [],
      "stateMutability": "nonpayable",
      "type": "function"
    },
    {
      "inputs": [
        {
          "internalType": "address payable",
          "name": "_newFactory",
          "type": "address"
        }
      ],
      "name": "changeVaultFactory",
      "outputs": [],
      "stateMutability": "nonpayable",
      "type": "function"
    },
    {
      "inputs": [],
      "name": "count",
      "outputs": [
        {
          "internalType": "uint256",
          "name": "",
          "type": "uint256"
        }
      ],
      "stateMutability": "view",
      "type": "function"
    },
    {
      "inputs": [
        {
          "internalType": "address",
          "name": "_sale",
          "type": "address"
        },
        {
          "internalType": "address payable",
          "name": "_to",
          "type": "address"
        }
      ],
      "name": "emergencyWithdrawal",
      "outputs": [],
      "stateMutability": "payable",
      "type": "function"
    },
    {
      "inputs": [],
      "name": "getLatestSale",
      "outputs": [
        {
          "internalType": "address",
          "name": "",
          "type": "address"
        }
      ],
      "stateMutability": "view",
      "type": "function"
    },
    {
      "inputs": [
        {
          "internalType": "bytes32",
          "name": "role",
          "type": "bytes32"
        }
      ],
      "name": "getRoleAdmin",
      "outputs": [
        {
          "internalType": "bytes32",
          "name": "",
          "type": "bytes32"
        }
      ],
      "stateMutability": "view",
      "type": "function"
    },
    {
      "inputs": [
        {
          "internalType": "address",
          "name": "to",
          "type": "address"
        }
      ],
      "name": "grantOwnerRole",
      "outputs": [],
      "stateMutability": "nonpayable",
      "type": "function"
    },
    {
      "inputs": [
        {
          "internalType": "bytes32",
          "name": "role",
          "type": "bytes32"
        },
        {
          "internalType": "address",
          "name": "account",
          "type": "address"
        }
      ],
      "name": "grantRole",
      "outputs": [],
      "stateMutability": "nonpayable",
      "type": "function"
    },
    {
      "inputs": [
        {
          "internalType": "bytes32",
          "name": "role",
          "type": "bytes32"
        },
        {
          "internalType": "address",
          "name": "account",
          "type": "address"
        }
      ],
      "name": "hasRole",
      "outputs": [
        {
          "internalType": "bool",
          "name": "",
          "type": "bool"
        }
      ],
      "stateMutability": "view",
      "type": "function"
    },
    {
      "inputs": [
        {
          "internalType": "address",
          "name": "_sale",
          "type": "address"
        },
        {
          "internalType": "uint256",
          "name": "_newClosingTime",
          "type": "uint256"
        },
        {
          "internalType": "uint256",
          "name": "_baseNftID",
          "type": "uint256"
        },
        {
          "internalType": "uint256",
          "name": "_buyNowPrice",
          "type": "uint256"
        },
        {
          "internalType": "address",
          "name": "_marketPlace",
          "type": "address"
        },
        {
          "internalType": "string",
          "name": "_ethTransactionData",
          "type": "string"
        }
      ],
      "name": "migration",
      "outputs": [],
      "stateMutability": "nonpayable",
      "type": "function"
    },
    {
      "inputs": [
        {
          "internalType": "uint256",
          "name": "",
          "type": "uint256"
        }
      ],
      "name": "moonSales",
      "outputs": [
        {
          "internalType": "address",
          "name": "",
          "type": "address"
        }
      ],
      "stateMutability": "view",
      "type": "function"
    },
    {
      "inputs": [
        {
          "internalType": "uint256",
          "name": "_rate",
          "type": "uint256"
        },
        {
          "internalType": "uint256",
          "name": "_openingTime",
          "type": "uint256"
        },
        {
          "internalType": "uint256",
          "name": "_closingTime",
          "type": "uint256"
        },
        {
          "internalType": "string",
          "name": "_name",
          "type": "string"
        },
        {
          "internalType": "string",
          "name": "_symbol",
          "type": "string"
        },
        {
          "internalType": "uint256",
          "name": "_baseNftID",
          "type": "uint256"
        },
        {
          "internalType": "uint256",
          "name": "_buyNowPrice",
          "type": "uint256"
        },
        {
          "internalType": "address",
          "name": "_marketPlace",
          "type": "address"
        },
        {
          "internalType": "string",
          "name": "ethTransactionData",
          "type": "string"
        }
      ],
      "name": "newMoonSale",
      "outputs": [
        {
          "internalType": "address",
          "name": "",
          "type": "address"
        }
      ],
      "stateMutability": "nonpayable",
      "type": "function"
    },
    {
      "inputs": [
        {
          "internalType": "bytes32",
          "name": "role",
          "type": "bytes32"
        },
        {
          "internalType": "address",
          "name": "account",
          "type": "address"
        }
      ],
      "name": "renounceRole",
      "outputs": [],
      "stateMutability": "nonpayable",
      "type": "function"
    },
    {
      "inputs": [
        {
          "internalType": "bytes32",
          "name": "role",
          "type": "bytes32"
        },
        {
          "internalType": "address",
          "name": "account",
          "type": "address"
        }
      ],
      "name": "revokeRole",
      "outputs": [],
      "stateMutability": "nonpayable",
      "type": "function"
    },
    {
      "inputs": [
        {
          "internalType": "address",
          "name": "",
          "type": "address"
        }
      ],
      "name": "saleMarketWrappers",
      "outputs": [
        {
          "internalType": "address",
          "name": "",
          "type": "address"
        }
      ],
      "stateMutability": "view",
      "type": "function"
    },
    {
      "inputs": [
        {
          "internalType": "address",
          "name": "",
          "type": "address"
        }
      ],
      "name": "saleTokens",
      "outputs": [
        {
          "internalType": "address",
          "name": "",
          "type": "address"
        }
      ],
      "stateMutability": "view",
      "type": "function"
    },
    {
      "inputs": [
        {
          "internalType": "address",
          "name": "",
          "type": "address"
        }
      ],
      "name": "saleVaults",
      "outputs": [
        {
          "internalType": "address",
          "name": "",
          "type": "address"
        }
      ],
      "stateMutability": "view",
      "type": "function"
    },
    {
      "inputs": [
        {
          "internalType": "bytes4",
          "name": "interfaceId",
          "type": "bytes4"
        }
      ],
      "name": "supportsInterface",
      "outputs": [
        {
          "internalType": "bool",
          "name": "",
          "type": "bool"
        }
      ],
      "stateMutability": "view",
      "type": "function"
    }
  ],
  "bytecode": "0x608060405260006002553480156200001657600080fd5b50604051620062a5380380620062a583398181016040528101906200003c9190620002ea565b620000516000801b336200011d60201b60201c565b82600660006101000a81548173ffffffffffffffffffffffffffffffffffffffff021916908373ffffffffffffffffffffffffffffffffffffffff16021790555081600760006101000a81548173ffffffffffffffffffffffffffffffffffffffff021916908373ffffffffffffffffffffffffffffffffffffffff16021790555080600860006101000a81548173ffffffffffffffffffffffffffffffffffffffff021916908373ffffffffffffffffffffffffffffffffffffffff16021790555050505062000346565b6200012f82826200020e60201b60201c565b6200020a57600160008084815260200190815260200160002060000160008373ffffffffffffffffffffffffffffffffffffffff1673ffffffffffffffffffffffffffffffffffffffff16815260200190815260200160002060006101000a81548160ff021916908315150217905550620001af6200027860201b60201c565b73ffffffffffffffffffffffffffffffffffffffff168173ffffffffffffffffffffffffffffffffffffffff16837f2f8788117e7eff1d82e926ec794901d17c78024a50270940304540a733656f0d60405160405180910390a45b5050565b600080600084815260200190815260200160002060000160008373ffffffffffffffffffffffffffffffffffffffff1673ffffffffffffffffffffffffffffffffffffffff16815260200190815260200160002060009054906101000a900460ff16905092915050565b600033905090565b600080fd5b600073ffffffffffffffffffffffffffffffffffffffff82169050919050565b6000620002b28262000285565b9050919050565b620002c481620002a5565b8114620002d057600080fd5b50565b600081519050620002e481620002b9565b92915050565b60008060006060848603121562000306576200030562000280565b5b60006200031686828701620002d3565b93505060206200032986828701620002d3565b92505060406200033c86828701620002d3565b9150509250925092565b615f4f80620003566000396000f3fe6080604052600436106200013a5760003560e01c806391d1485411620000af578063d547741f116200006d578063d547741f146200046d578063dab2c379146200049b578063ea51bd5a14620004df578063f87cc78d146200050d578063fb79d4fb146200053b576200013a565b806391d14854146200037b578063944df04514620003bf578063a217fddf14620003ef578063aa24dca2146200041f578063ce747854146200043f576200013a565b80632f2ff15d11620000fd5780632f2ff15d146200026957806331296d6e146200029757806336568abe14620002db578063397a8bab1462000309578063658721071462000337576200013a565b806301ffc9a7146200013f57806306661abd14620001835780631c5d5ecc14620001b3578063248a9ca314620001e15780632b2d1b8c1462000225575b600080fd5b3480156200014c57600080fd5b506200016b600480360381019062000165919062002153565b6200057f565b6040516200017a9190620021a2565b60405180910390f35b3480156200019057600080fd5b506200019b620005fc565b604051620001aa9190620021da565b60405180910390f35b348015620001c057600080fd5b50620001df6004803603810190620001d991906200225c565b62000602565b005b348015620001ee57600080fd5b506200020d6004803603810190620002079190620022c9565b62000656565b6040516200021c91906200230c565b60405180910390f35b3480156200023257600080fd5b506200025160048036038101906200024b919062002501565b62000675565b6040516200026091906200264e565b60405180910390f35b3480156200027657600080fd5b506200029560048036038101906200028f91906200266b565b6200110a565b005b348015620002a457600080fd5b50620002c36004803603810190620002bd9190620026b2565b62001131565b604051620002d291906200264e565b60405180910390f35b348015620002e857600080fd5b506200030760048036038101906200030191906200266b565b62001164565b005b3480156200031657600080fd5b506200033560048036038101906200032f9190620026b2565b620011ee565b005b3480156200034457600080fd5b506200036360048036038101906200035d9190620026b2565b62001210565b6040516200037291906200264e565b60405180910390f35b3480156200038857600080fd5b50620003a76004803603810190620003a191906200266b565b62001243565b604051620003b69190620021a2565b60405180910390f35b348015620003cc57600080fd5b50620003d7620012ad565b604051620003e691906200264e565b60405180910390f35b348015620003fc57600080fd5b506200040762001305565b6040516200041691906200230c565b60405180910390f35b6200043d6004803603810190620004379190620026e4565b6200130c565b005b3480156200044c57600080fd5b506200046b60048036038101906200046591906200272b565b6200153d565b005b3480156200047a57600080fd5b506200049960048036038101906200049391906200266b565b62001a3a565b005b348015620004a857600080fd5b50620004c76004803603810190620004c19190620027e6565b62001a61565b604051620004d691906200264e565b60405180910390f35b348015620004ec57600080fd5b506200050b60048036038101906200050591906200225c565b62001aa1565b005b3480156200051a57600080fd5b506200053960048036038101906200053391906200225c565b62001af5565b005b3480156200054857600080fd5b50620005676004803603810190620005619190620026b2565b62001b49565b6040516200057691906200264e565b60405180910390f35b60007f7965db0b000000000000000000000000000000000000000000000000000000007bffffffffffffffffffffffffffffffffffffffffffffffffffffffff1916827bffffffffffffffffffffffffffffffffffffffffffffffffffffffff19161480620005f55750620005f48262001b7c565b5b9050919050565b60025481565b6000801b620006118162001be6565b81600660006101000a81548173ffffffffffffffffffffffffffffffffffffffff021916908373ffffffffffffffffffffffffffffffffffffffff1602179055505050565b6000806000838152602001908152602001600020600101549050919050565b60008060001b620006868162001be6565b6000600860009054906101000a900473ffffffffffffffffffffffffffffffffffffffff1673ffffffffffffffffffffffffffffffffffffffff16633b313a326040518163ffffffff1660e01b8152600401602060405180830381600087803b158015620006f357600080fd5b505af115801562000708573d6000803e3d6000fd5b505050506040513d601f19601f820116820180604052508101906200072e91906200282f565b90506000600760009054906101000a900473ffffffffffffffffffffffffffffffffffffffff1673ffffffffffffffffffffffffffffffffffffffff1663e5789eb48888886040518463ffffffff1660e01b81526004016200079393929190620028f4565b602060405180830381600087803b158015620007ae57600080fd5b505af1158015620007c3573d6000803e3d6000fd5b505050506040513d601f19601f82011682018060405250810190620007e991906200282f565b90506000600660009054906101000a900473ffffffffffffffffffffffffffffffffffffffff1673ffffffffffffffffffffffffffffffffffffffff1663dd5d67138c8c8c6040518463ffffffff1660e01b81526004016200084e9392919062002938565b602060405180830381600087803b1580156200086957600080fd5b505af11580156200087e573d6000803e3d6000fd5b505050506040513d601f19601f82011682018060405250810190620008a491906200282f565b9050600860009054906101000a900473ffffffffffffffffffffffffffffffffffffffff1673ffffffffffffffffffffffffffffffffffffffff16635556f1aa84306040518363ffffffff1660e01b81526004016200090592919062002983565b600060405180830381600087803b1580156200092057600080fd5b505af115801562000935573d6000803e3d6000fd5b50505050600760009054906101000a900473ffffffffffffffffffffffffffffffffffffffff1673ffffffffffffffffffffffffffffffffffffffff16635556f1aa83306040518363ffffffff1660e01b81526004016200099892919062002983565b600060405180830381600087803b158015620009b357600080fd5b505af1158015620009c8573d6000803e3d6000fd5b50505050600660009054906101000a900473ffffffffffffffffffffffffffffffffffffffff1673ffffffffffffffffffffffffffffffffffffffff16635556f1aa82306040518363ffffffff1660e01b815260040162000a2b92919062002983565b600060405180830381600087803b15801562000a4657600080fd5b505af115801562000a5b573d6000803e3d6000fd5b50505050600860009054906101000a900473ffffffffffffffffffffffffffffffffffffffff1673ffffffffffffffffffffffffffffffffffffffff16635556f1aa84336040518363ffffffff1660e01b815260040162000abe92919062002983565b600060405180830381600087803b15801562000ad957600080fd5b505af115801562000aee573d6000803e3d6000fd5b50505050600760009054906101000a900473ffffffffffffffffffffffffffffffffffffffff1673ffffffffffffffffffffffffffffffffffffffff16635556f1aa83336040518363ffffffff1660e01b815260040162000b5192919062002983565b600060405180830381600087803b15801562000b6c57600080fd5b505af115801562000b81573d6000803e3d6000fd5b50505050600660009054906101000a900473ffffffffffffffffffffffffffffffffffffffff1673ffffffffffffffffffffffffffffffffffffffff16635556f1aa82336040518363ffffffff1660e01b815260040162000be492919062002983565b600060405180830381600087803b15801562000bff57600080fd5b505af115801562000c14573d6000803e3d6000fd5b5050505060008e828f8f878760405162000c2e90620020d4565b62000c3f96959493929190620029c1565b604051809103906000f08015801562000c5c573d6000803e3d6000fd5b5090506000819050600860009054906101000a900473ffffffffffffffffffffffffffffffffffffffff1673ffffffffffffffffffffffffffffffffffffffff16635556f1aa86836040518363ffffffff1660e01b815260040162000cc392919062002983565b600060405180830381600087803b15801562000cde57600080fd5b505af115801562000cf3573d6000803e3d6000fd5b50505050600760009054906101000a900473ffffffffffffffffffffffffffffffffffffffff1673ffffffffffffffffffffffffffffffffffffffff16635556f1aa85836040518363ffffffff1660e01b815260040162000d5692919062002983565b600060405180830381600087803b15801562000d7157600080fd5b505af115801562000d86573d6000803e3d6000fd5b50505050600660009054906101000a900473ffffffffffffffffffffffffffffffffffffffff1673ffffffffffffffffffffffffffffffffffffffff16635556f1aa84836040518363ffffffff1660e01b815260040162000de992919062002983565b600060405180830381600087803b15801562000e0457600080fd5b505af115801562000e19573d6000803e3d6000fd5b505050508173ffffffffffffffffffffffffffffffffffffffff1663397a8bab306040518263ffffffff1660e01b815260040162000e5891906200264e565b600060405180830381600087803b15801562000e7357600080fd5b505af115801562000e88573d6000803e3d6000fd5b505050508173ffffffffffffffffffffffffffffffffffffffff1663397a8bab336040518263ffffffff1660e01b815260040162000ec791906200264e565b600060405180830381600087803b15801562000ee257600080fd5b505af115801562000ef7573d6000803e3d6000fd5b505050506001819080600181540180825580915050600190039060005260206000200160009091909190916101000a81548173ffffffffffffffffffffffffffffffffffffffff021916908373ffffffffffffffffffffffffffffffffffffffff16021790555060016002600082825462000f73919062002a5d565b9250508190555082600360008373ffffffffffffffffffffffffffffffffffffffff1673ffffffffffffffffffffffffffffffffffffffff16815260200190815260200160002060006101000a81548173ffffffffffffffffffffffffffffffffffffffff021916908373ffffffffffffffffffffffffffffffffffffffff16021790555084600460008373ffffffffffffffffffffffffffffffffffffffff1673ffffffffffffffffffffffffffffffffffffffff16815260200190815260200160002060006101000a81548173ffffffffffffffffffffffffffffffffffffffff021916908373ffffffffffffffffffffffffffffffffffffffff16021790555083600560008373ffffffffffffffffffffffffffffffffffffffff1673ffffffffffffffffffffffffffffffffffffffff16815260200190815260200160002060006101000a81548173ffffffffffffffffffffffffffffffffffffffff021916908373ffffffffffffffffffffffffffffffffffffffff1602179055508096505050505050509998505050505050505050565b620011158262000656565b620011208162001be6565b6200112c838362001bfe565b505050565b60036020528060005260406000206000915054906101000a900473ffffffffffffffffffffffffffffffffffffffff1681565b6200116e62001ce3565b73ffffffffffffffffffffffffffffffffffffffff168173ffffffffffffffffffffffffffffffffffffffff1614620011de576040517f08c379a0000000000000000000000000000000000000000000000000000000008152600401620011d59062002b30565b60405180910390fd5b620011ea828262001ceb565b5050565b6000801b620011fd8162001be6565b6200120c6000801b8362001bfe565b5050565b60056020528060005260406000206000915054906101000a900473ffffffffffffffffffffffffffffffffffffffff1681565b600080600084815260200190815260200160002060000160008373ffffffffffffffffffffffffffffffffffffffff1673ffffffffffffffffffffffffffffffffffffffff16815260200190815260200160002060009054906101000a900460ff16905092915050565b6000600180600254620012c1919062002b52565b81548110620012d557620012d462002b8d565b5b9060005260206000200160009054906101000a900473ffffffffffffffffffffffffffffffffffffffff16905090565b6000801b81565b6000801b6200131b8162001be6565b6000600560008573ffffffffffffffffffffffffffffffffffffffff1673ffffffffffffffffffffffffffffffffffffffff16815260200190815260200160002060009054906101000a900473ffffffffffffffffffffffffffffffffffffffff1690506000600460008673ffffffffffffffffffffffffffffffffffffffff1673ffffffffffffffffffffffffffffffffffffffff16815260200190815260200160002060009054906101000a900473ffffffffffffffffffffffffffffffffffffffff16905060008590508273ffffffffffffffffffffffffffffffffffffffff16636e353a1d866040518263ffffffff1660e01b815260040162001423919062002bbc565b600060405180830381600087803b1580156200143e57600080fd5b505af115801562001453573d6000803e3d6000fd5b505050508173ffffffffffffffffffffffffffffffffffffffff16636e353a1d866040518263ffffffff1660e01b815260040162001492919062002bbc565b600060405180830381600087803b158015620014ad57600080fd5b505af1158015620014c2573d6000803e3d6000fd5b505050508073ffffffffffffffffffffffffffffffffffffffff16636e353a1d866040518263ffffffff1660e01b815260040162001501919062002bbc565b600060405180830381600087803b1580156200151c57600080fd5b505af115801562001531573d6000803e3d6000fd5b50505050505050505050565b6000801b6200154c8162001be6565b6000600360008973ffffffffffffffffffffffffffffffffffffffff1673ffffffffffffffffffffffffffffffffffffffff16815260200190815260200160002060009054906101000a900473ffffffffffffffffffffffffffffffffffffffff1690508073ffffffffffffffffffffffffffffffffffffffff1663e640d862876040518263ffffffff1660e01b8152600401620015eb9190620021da565b600060405180830381600087803b1580156200160657600080fd5b505af11580156200161b573d6000803e3d6000fd5b50505050600760009054906101000a900473ffffffffffffffffffffffffffffffffffffffff1673ffffffffffffffffffffffffffffffffffffffff1663e5789eb48686866040518463ffffffff1660e01b81526004016200168093929190620028f4565b602060405180830381600087803b1580156200169b57600080fd5b505af1158015620016b0573d6000803e3d6000fd5b505050506040513d601f19601f82011682018060405250810190620016d691906200282f565b506000600760009054906101000a900473ffffffffffffffffffffffffffffffffffffffff1673ffffffffffffffffffffffffffffffffffffffff1663a6f660356040518163ffffffff1660e01b8152600401602060405180830381600087803b1580156200174457600080fd5b505af115801562001759573d6000803e3d6000fd5b505050506040513d601f19601f820116820180604052508101906200177f91906200282f565b9050600760009054906101000a900473ffffffffffffffffffffffffffffffffffffffff1673ffffffffffffffffffffffffffffffffffffffff16635556f1aa82306040518363ffffffff1660e01b8152600401620017e092919062002983565b600060405180830381600087803b158015620017fb57600080fd5b505af115801562001810573d6000803e3d6000fd5b50505050600760009054906101000a900473ffffffffffffffffffffffffffffffffffffffff1673ffffffffffffffffffffffffffffffffffffffff16635556f1aa82336040518363ffffffff1660e01b81526004016200187392919062002983565b600060405180830381600087803b1580156200188e57600080fd5b505af1158015620018a3573d6000803e3d6000fd5b50505050600760009054906101000a900473ffffffffffffffffffffffffffffffffffffffff1673ffffffffffffffffffffffffffffffffffffffff16635556f1aa828b6040518363ffffffff1660e01b81526004016200190692919062002983565b600060405180830381600087803b1580156200192157600080fd5b505af115801562001936573d6000803e3d6000fd5b5050505060008990508073ffffffffffffffffffffffffffffffffffffffff16638c6f33498a846040518363ffffffff1660e01b81526004016200197c92919062002bd9565b600060405180830381600087803b1580156200199757600080fd5b505af1158015620019ac573d6000803e3d6000fd5b5050505081600560008c73ffffffffffffffffffffffffffffffffffffffff1673ffffffffffffffffffffffffffffffffffffffff16815260200190815260200160002060006101000a81548173ffffffffffffffffffffffffffffffffffffffff021916908373ffffffffffffffffffffffffffffffffffffffff16021790555050505050505050505050565b62001a458262000656565b62001a508162001be6565b62001a5c838362001ceb565b505050565b6001818154811062001a7257600080fd5b906000526020600020016000915054906101000a900473ffffffffffffffffffffffffffffffffffffffff1681565b6000801b62001ab08162001be6565b81600860006101000a81548173ffffffffffffffffffffffffffffffffffffffff021916908373ffffffffffffffffffffffffffffffffffffffff1602179055505050565b6000801b62001b048162001be6565b81600760006101000a81548173ffffffffffffffffffffffffffffffffffffffff021916908373ffffffffffffffffffffffffffffffffffffffff1602179055505050565b60046020528060005260406000206000915054906101000a900473ffffffffffffffffffffffffffffffffffffffff1681565b60007f01ffc9a7000000000000000000000000000000000000000000000000000000007bffffffffffffffffffffffffffffffffffffffffffffffffffffffff1916827bffffffffffffffffffffffffffffffffffffffffffffffffffffffff1916149050919050565b62001bfb8162001bf562001ce3565b62001dd1565b50565b62001c0a828262001243565b62001cdf57600160008084815260200190815260200160002060000160008373ffffffffffffffffffffffffffffffffffffffff1673ffffffffffffffffffffffffffffffffffffffff16815260200190815260200160002060006101000a81548160ff02191690831515021790555062001c8462001ce3565b73ffffffffffffffffffffffffffffffffffffffff168173ffffffffffffffffffffffffffffffffffffffff16837f2f8788117e7eff1d82e926ec794901d17c78024a50270940304540a733656f0d60405160405180910390a45b5050565b600033905090565b62001cf7828262001243565b1562001dcd57600080600084815260200190815260200160002060000160008373ffffffffffffffffffffffffffffffffffffffff1673ffffffffffffffffffffffffffffffffffffffff16815260200190815260200160002060006101000a81548160ff02191690831515021790555062001d7262001ce3565b73ffffffffffffffffffffffffffffffffffffffff168173ffffffffffffffffffffffffffffffffffffffff16837ff6391f5c32d9c69d2a47ea670b442974b53935d1edc7fd64eb21e047a839171b60405160405180910390a45b5050565b62001ddd828262001243565b62001e755762001e058173ffffffffffffffffffffffffffffffffffffffff16601462001e79565b62001e158360001c602062001e79565b60405160200162001e2892919062002ce8565b6040516020818303038152906040526040517f08c379a000000000000000000000000000000000000000000000000000000000815260040162001e6c919062002d2a565b60405180910390fd5b5050565b60606000600283600262001e8e919062002d4e565b62001e9a919062002a5d565b67ffffffffffffffff81111562001eb65762001eb562002375565b5b6040519080825280601f01601f19166020018201604052801562001ee95781602001600182028036833780820191505090505b5090507f30000000000000000000000000000000000000000000000000000000000000008160008151811062001f245762001f2362002b8d565b5b60200101907effffffffffffffffffffffffffffffffffffffffffffffffffffffffffffff1916908160001a9053507f78000000000000000000000000000000000000000000000000000000000000008160018151811062001f8b5762001f8a62002b8d565b5b60200101907effffffffffffffffffffffffffffffffffffffffffffffffffffffffffffff1916908160001a9053506000600184600262001fcd919062002d4e565b62001fd9919062002a5d565b90505b600181111562002083577f3031323334353637383961626364656600000000000000000000000000000000600f8616601081106200201f576200201e62002b8d565b5b1a60f81b82828151811062002039576200203862002b8d565b5b60200101907effffffffffffffffffffffffffffffffffffffffffffffffffffffffffffff1916908160001a905350600485901c9450806200207b9062002daf565b905062001fdc565b5060008414620020ca576040517f08c379a0000000000000000000000000000000000000000000000000000000008152600401620020c19062002e2e565b60405180910390fd5b8091505092915050565b6130c98062002e5183390190565b6000604051905090565b600080fd5b600080fd5b60007fffffffff0000000000000000000000000000000000000000000000000000000082169050919050565b6200212d81620020f6565b81146200213957600080fd5b50565b6000813590506200214d8162002122565b92915050565b6000602082840312156200216c576200216b620020ec565b5b60006200217c848285016200213c565b91505092915050565b60008115159050919050565b6200219c8162002185565b82525050565b6000602082019050620021b9600083018462002191565b92915050565b6000819050919050565b620021d481620021bf565b82525050565b6000602082019050620021f16000830184620021c9565b92915050565b600073ffffffffffffffffffffffffffffffffffffffff82169050919050565b60006200222482620021f7565b9050919050565b620022368162002217565b81146200224257600080fd5b50565b60008135905062002256816200222b565b92915050565b600060208284031215620022755762002274620020ec565b5b6000620022858482850162002245565b91505092915050565b6000819050919050565b620022a3816200228e565b8114620022af57600080fd5b50565b600081359050620022c38162002298565b92915050565b600060208284031215620022e257620022e1620020ec565b5b6000620022f284828501620022b2565b91505092915050565b62002306816200228e565b82525050565b6000602082019050620023236000830184620022fb565b92915050565b6200233481620021bf565b81146200234057600080fd5b50565b600081359050620023548162002329565b92915050565b600080fd5b600080fd5b6000601f19601f8301169050919050565b7f4e487b7100000000000000000000000000000000000000000000000000000000600052604160045260246000fd5b620023af8262002364565b810181811067ffffffffffffffff82111715620023d157620023d062002375565b5b80604052505050565b6000620023e6620020e2565b9050620023f48282620023a4565b919050565b600067ffffffffffffffff82111562002417576200241662002375565b5b620024228262002364565b9050602081019050919050565b82818337600083830152505050565b6000620024556200244f84620023f9565b620023da565b9050828152602081018484840111156200247457620024736200235f565b5b620024818482856200242f565b509392505050565b600082601f830112620024a157620024a06200235a565b5b8135620024b38482602086016200243e565b91505092915050565b6000620024c982620021f7565b9050919050565b620024db81620024bc565b8114620024e757600080fd5b50565b600081359050620024fb81620024d0565b92915050565b60008060008060008060008060006101208a8c031215620025275762002526620020ec565b5b6000620025378c828d0162002343565b99505060206200254a8c828d0162002343565b98505060406200255d8c828d0162002343565b97505060608a013567ffffffffffffffff811115620025815762002580620020f1565b5b6200258f8c828d0162002489565b96505060808a013567ffffffffffffffff811115620025b357620025b2620020f1565b5b620025c18c828d0162002489565b95505060a0620025d48c828d0162002343565b94505060c0620025e78c828d0162002343565b93505060e0620025fa8c828d01620024ea565b9250506101008a013567ffffffffffffffff8111156200261f576200261e620020f1565b5b6200262d8c828d0162002489565b9150509295985092959850929598565b6200264881620024bc565b82525050565b60006020820190506200266560008301846200263d565b92915050565b60008060408385031215620026855762002684620020ec565b5b60006200269585828601620022b2565b9250506020620026a885828601620024ea565b9150509250929050565b600060208284031215620026cb57620026ca620020ec565b5b6000620026db84828501620024ea565b91505092915050565b60008060408385031215620026fe57620026fd620020ec565b5b60006200270e85828601620024ea565b9250506020620027218582860162002245565b9150509250929050565b60008060008060008060c087890312156200274b576200274a620020ec565b5b60006200275b89828a01620024ea565b96505060206200276e89828a0162002343565b95505060406200278189828a0162002343565b94505060606200279489828a0162002343565b9350506080620027a789828a01620024ea565b92505060a087013567ffffffffffffffff811115620027cb57620027ca620020f1565b5b620027d989828a0162002489565b9150509295509295509295565b600060208284031215620027ff57620027fe620020ec565b5b60006200280f8482850162002343565b91505092915050565b6000815190506200282981620024d0565b92915050565b600060208284031215620028485762002847620020ec565b5b6000620028588482850162002818565b91505092915050565b600081519050919050565b600082825260208201905092915050565b60005b838110156200289d57808201518184015260208101905062002880565b83811115620028ad576000848401525b50505050565b6000620028c08262002861565b620028cc81856200286c565b9350620028de8185602086016200287d565b620028e98162002364565b840191505092915050565b60006060820190506200290b6000830186620021c9565b6200291a60208301856200263d565b81810360408301526200292e8184620028b3565b9050949350505050565b60006060820190508181036000830152620029548186620028b3565b905081810360208301526200296a8185620028b3565b90506200297b6040830184620021c9565b949350505050565b60006040820190506200299a60008301856200263d565b620029a960208301846200263d565b9392505050565b620029bb8162002217565b82525050565b600060c082019050620029d86000830189620021c9565b620029e760208301886200263d565b620029f66040830187620021c9565b62002a056060830186620021c9565b62002a146080830185620029b0565b62002a2360a0830184620029b0565b979650505050505050565b7f4e487b7100000000000000000000000000000000000000000000000000000000600052601160045260246000fd5b600062002a6a82620021bf565b915062002a7783620021bf565b9250827fffffffffffffffffffffffffffffffffffffffffffffffffffffffffffffffff0382111562002aaf5762002aae62002a2e565b5b828201905092915050565b7f416363657373436f6e74726f6c3a2063616e206f6e6c792072656e6f756e636560008201527f20726f6c657320666f722073656c660000000000000000000000000000000000602082015250565b600062002b18602f836200286c565b915062002b258262002aba565b604082019050919050565b6000602082019050818103600083015262002b4b8162002b09565b9050919050565b600062002b5f82620021bf565b915062002b6c83620021bf565b92508282101562002b825762002b8162002a2e565b5b828203905092915050565b7f4e487b7100000000000000000000000000000000000000000000000000000000600052603260045260246000fd5b600060208201905062002bd36000830184620029b0565b92915050565b600060408201905062002bf06000830185620021c9565b62002bff60208301846200263d565b9392505050565b600081905092915050565b7f416363657373436f6e74726f6c3a206163636f756e7420000000000000000000600082015250565b600062002c4960178362002c06565b915062002c568262002c11565b601782019050919050565b600062002c6e8262002861565b62002c7a818562002c06565b935062002c8c8185602086016200287d565b80840191505092915050565b7f206973206d697373696e6720726f6c6520000000000000000000000000000000600082015250565b600062002cd060118362002c06565b915062002cdd8262002c98565b601182019050919050565b600062002cf58262002c3a565b915062002d03828562002c61565b915062002d108262002cc1565b915062002d1e828462002c61565b91508190509392505050565b6000602082019050818103600083015262002d468184620028b3565b905092915050565b600062002d5b82620021bf565b915062002d6883620021bf565b9250817fffffffffffffffffffffffffffffffffffffffffffffffffffffffffffffffff048311821515161562002da45762002da362002a2e565b5b828202905092915050565b600062002dbc82620021bf565b9150600082141562002dd35762002dd262002a2e565b5b600182039050919050565b7f537472696e67733a20686578206c656e67746820696e73756666696369656e74600082015250565b600062002e166020836200286c565b915062002e238262002dde565b602082019050919050565b6000602082019050818103600083015262002e498162002e07565b905091905056fe6080604052600060075560006008553480156200001b57600080fd5b50604051620030c9380380620030c98339818101604052810190620000419190620004be565b858585856001808190555060018410156200005b57600080fd5b600073ffffffffffffffffffffffffffffffffffffffff168373ffffffffffffffffffffffffffffffffffffffff1614156200009657600080fd5b42821015620000a457600080fd5b818111620000b157600080fd5b620000c66000801b336200027160201b60201c565b8360038190555082600260006101000a81548173ffffffffffffffffffffffffffffffffffffffff021916908373ffffffffffffffffffffffffffffffffffffffff16021790555081600481905550806005819055505050505081600660016101000a81548173ffffffffffffffffffffffffffffffffffffffff021916908373ffffffffffffffffffffffffffffffffffffffff16021790555080600b60006101000a81548173ffffffffffffffffffffffffffffffffffffffff021916908373ffffffffffffffffffffffffffffffffffffffff160217905550600b60009054906101000a900473ffffffffffffffffffffffffffffffffffffffff1673ffffffffffffffffffffffffffffffffffffffff1663a55870886040518163ffffffff1660e01b8152600401602060405180830381600087803b1580156200020d57600080fd5b505af115801562000222573d6000803e3d6000fd5b505050506040513d601f19601f820116820180604052508101906200024891906200055a565b600c819055506014600c546200025f9190620005bb565b600d81905550505050505050620005f3565b6200028382826200036260201b60201c565b6200035e57600160008084815260200190815260200160002060000160008373ffffffffffffffffffffffffffffffffffffffff1673ffffffffffffffffffffffffffffffffffffffff16815260200190815260200160002060006101000a81548160ff02191690831515021790555062000303620003cc60201b60201c565b73ffffffffffffffffffffffffffffffffffffffff168173ffffffffffffffffffffffffffffffffffffffff16837f2f8788117e7eff1d82e926ec794901d17c78024a50270940304540a733656f0d60405160405180910390a45b5050565b600080600084815260200190815260200160002060000160008373ffffffffffffffffffffffffffffffffffffffff1673ffffffffffffffffffffffffffffffffffffffff16815260200190815260200160002060009054906101000a900460ff16905092915050565b600033905090565b600080fd5b6000819050919050565b620003ee81620003d9565b8114620003fa57600080fd5b50565b6000815190506200040e81620003e3565b92915050565b600073ffffffffffffffffffffffffffffffffffffffff82169050919050565b6000620004418262000414565b9050919050565b620004538162000434565b81146200045f57600080fd5b50565b600081519050620004738162000448565b92915050565b6000620004868262000414565b9050919050565b620004988162000479565b8114620004a457600080fd5b50565b600081519050620004b8816200048d565b92915050565b60008060008060008060c08789031215620004de57620004dd620003d4565b5b6000620004ee89828a01620003fd565b96505060206200050189828a0162000462565b95505060406200051489828a01620003fd565b94505060606200052789828a01620003fd565b93505060806200053a89828a01620004a7565b92505060a06200054d89828a01620004a7565b9150509295509295509295565b600060208284031215620005735762000572620003d4565b5b60006200058384828501620003fd565b91505092915050565b7f4e487b7100000000000000000000000000000000000000000000000000000000600052601260045260246000fd5b6000620005c882620003d9565b9150620005d583620003d9565b925082620005e857620005e76200058c565b5b828204905092915050565b612ac680620006036000396000f3fe6080604052600436106101a05760003560e01c80637a37ac26116100ec578063c19d93fb1161008a578063d547741f11610064578063d547741f14610599578063ef38bf01146105c2578063fbfa77cf146105ed578063fc0c546a14610618576101b2565b8063c19d93fb14610518578063c392f76614610543578063c97f8d6e1461056e576101b2565b806391d14854116100c657806391d1485414610469578063a217fddf146104a6578063b7a8807c146104d1578063bbdc9077146104fc576101b2565b80637a37ac26146103fe5780638433acd1146104295780638c6f334914610440576101b2565b806336568abe11610159578063590e1ae311610133578063590e1ae31461037257806361c9d81c1461037c5780636e353a1d146103a557806374d00f67146103c1576101b2565b806336568abe146102f5578063397a8bab1461031e5780634b6753bc14610347576101b2565b806301ffc9a7146101bf5780630c3ca20f146101fc578063248a9ca3146102275780632c4e722e146102645780632f2ff15d1461028f57806331f36bd9146102b8576101b2565b366101b2576101b0336001610643565b005b6101bd336001610643565b005b3480156101cb57600080fd5b506101e660048036038101906101e19190611dc9565b61071d565b6040516101f39190611e11565b60405180910390f35b34801561020857600080fd5b50610211610797565b60405161021e9190611e45565b60405180910390f35b34801561023357600080fd5b5061024e60048036038101906102499190611e96565b61079d565b60405161025b9190611ed2565b60405180910390f35b34801561027057600080fd5b506102796107bc565b6040516102869190611e45565b60405180910390f35b34801561029b57600080fd5b506102b660048036038101906102b19190611f4b565b6107c2565b005b3480156102c457600080fd5b506102df60048036038101906102da9190611fb7565b6107e3565b6040516102ec9190611e45565b60405180910390f35b34801561030157600080fd5b5061031c60048036038101906103179190611f4b565b610808565b005b34801561032a57600080fd5b5061034560048036038101906103409190611ff7565b61088b565b005b34801561035357600080fd5b5061035c6108a9565b6040516103699190611e45565b60405180910390f35b61037a6108af565b005b34801561038857600080fd5b506103a3600480360381019061039e9190612062565b6109f2565b005b6103bf60048036038101906103ba9190612062565b610b44565b005b3480156103cd57600080fd5b506103e860048036038101906103e39190611ff7565b610c02565b6040516103f59190611e45565b60405180910390f35b34801561040a57600080fd5b50610413610c1a565b6040516104209190611e45565b60405180910390f35b34801561043557600080fd5b5061043e610c20565b005b34801561044c57600080fd5b5061046760048036038101906104629190611fb7565b610ef5565b005b34801561047557600080fd5b50610490600480360381019061048b9190611f4b565b611162565b60405161049d9190611e11565b60405180910390f35b3480156104b257600080fd5b506104bb6111cc565b6040516104c89190611ed2565b60405180910390f35b3480156104dd57600080fd5b506104e66111d3565b6040516104f39190611e45565b60405180910390f35b610516600480360381019061051191906120bb565b610643565b005b34801561052457600080fd5b5061052d6111d9565b60405161053a9190612172565b60405180910390f35b34801561054f57600080fd5b506105586111ec565b6040516105659190611e45565b60405180910390f35b34801561057a57600080fd5b506105836111f2565b6040516105909190611e45565b60405180910390f35b3480156105a557600080fd5b506105c060048036038101906105bb9190611f4b565b6111f8565b005b3480156105ce57600080fd5b506105d7611219565b6040516105e491906121ec565b60405180910390f35b3480156105f957600080fd5b5061060261123f565b60405161060f9190612228565b60405180910390f35b34801561062457600080fd5b5061062d611265565b60405161063a9190612276565b60405180910390f35b60026001541415610689576040517f08c379a0000000000000000000000000000000000000000000000000000000008152600401610680906122ee565b60405180910390fd5b600260018190555060003490506106a0838261128b565b60006106ab82611327565b90506106b8848385611345565b8373ffffffffffffffffffffffffffffffffffffffff167fcd60aa75dea3072fbc07ae6d7d856b5dc5f4eee88854f5b4abf7b680ef8bc50f838360405161070092919061230e565b60405180910390a26107106114bd565b5050600180819055505050565b60007f7965db0b000000000000000000000000000000000000000000000000000000007bffffffffffffffffffffffffffffffffffffffffffffffffffffffff1916827bffffffffffffffffffffffffffffffffffffffffffffffffffffffff19161480610790575061078f82611749565b5b9050919050565b60075481565b6000806000838152602001908152602001600020600101549050919050565b60035481565b6107cb8261079d565b6107d4816117b3565b6107de83836117c7565b505050565b6009602052816000526040600020602052806000526040600020600091509150505481565b6108106118a7565b73ffffffffffffffffffffffffffffffffffffffff168173ffffffffffffffffffffffffffffffffffffffff161461087d576040517f08c379a0000000000000000000000000000000000000000000000000000000008152600401610874906123a9565b60405180910390fd5b61088782826118af565b5050565b6000801b610898816117b3565b6108a56000801b836117c7565b5050565b60055481565b600260015414156108f5576040517f08c379a00000000000000000000000000000000000000000000000000000000081526004016108ec906122ee565b60405180910390fd5b6002600181905550600060096000600854815260200190815260200160002060003373ffffffffffffffffffffffffffffffffffffffff1673ffffffffffffffffffffffffffffffffffffffff168152602001908152602001600020541461095c57600080fd5b600660019054906101000a900473ffffffffffffffffffffffffffffffffffffffff1673ffffffffffffffffffffffffffffffffffffffff1663fa89401a336040518263ffffffff1660e01b81526004016109b791906123d8565b600060405180830381600087803b1580156109d157600080fd5b505af11580156109e5573d6000803e3d6000fd5b5050505060018081905550565b6000801b6109ff816117b3565b60026001541415610a45576040517f08c379a0000000000000000000000000000000000000000000000000000000008152600401610a3c906122ee565b60405180910390fd5b6002600181905550600180811115610a6057610a5f6120fb565b5b600660009054906101000a900460ff166001811115610a8257610a816120fb565b5b14610a8c57600080fd5b60008273ffffffffffffffffffffffffffffffffffffffff1647604051610ab290612424565b60006040518083038185875af1925050503d8060008114610aef576040519150601f19603f3d011682016040523d82523d6000602084013e610af4565b606091505b5050905080610b38576040517f08c379a0000000000000000000000000000000000000000000000000000000008152600401610b2f90612485565b60405180910390fd5b50600180819055505050565b6000801b610b51816117b3565b60008273ffffffffffffffffffffffffffffffffffffffff1647604051610b7790612424565b60006040518083038185875af1925050503d8060008114610bb4576040519150601f19603f3d011682016040523d82523d6000602084013e610bb9565b606091505b5050905080610bfd576040517f08c379a0000000000000000000000000000000000000000000000000000000008152600401610bf490612485565b60405180910390fd5b505050565b600a6020528060005260406000206000915090505481565b60085481565b60026001541415610c66576040517f08c379a0000000000000000000000000000000000000000000000000000000008152600401610c5d906122ee565b60405180910390fd5b6002600181905550600180811115610c8157610c806120fb565b5b600660009054906101000a900460ff166001811115610ca357610ca26120fb565b5b14610cad57600080fd5b6000600a60003373ffffffffffffffffffffffffffffffffffffffff1673ffffffffffffffffffffffffffffffffffffffff1681526020019081526020016000205460096000600854815260200190815260200160002060003373ffffffffffffffffffffffffffffffffffffffff1673ffffffffffffffffffffffffffffffffffffffff16815260200190815260200160002054610d4c91906124d4565b905060008111610d5b57600080fd5b600660019054906101000a900473ffffffffffffffffffffffffffffffffffffffff1673ffffffffffffffffffffffffffffffffffffffff16630a2f487b3360096000600854815260200190815260200160002060003373ffffffffffffffffffffffffffffffffffffffff1673ffffffffffffffffffffffffffffffffffffffff168152602001908152602001600020546040518363ffffffff1660e01b8152600401610e0a929190612539565b600060405180830381600087803b158015610e2457600080fd5b505af1158015610e38573d6000803e3d6000fd5b50505050600060096000600854815260200190815260200160002060003373ffffffffffffffffffffffffffffffffffffffff1673ffffffffffffffffffffffffffffffffffffffff168152602001908152602001600020819055506000600a60003373ffffffffffffffffffffffffffffffffffffffff1673ffffffffffffffffffffffffffffffffffffffff16815260200190815260200160002081905550610eeb33610ee683611327565b611990565b5060018081905550565b60006001811115610f0957610f086120fb565b5b600660009054906101000a900460ff166001811115610f2b57610f2a6120fb565b5b14610f3557600080fd5b6000801b610f42816117b3565b6004548311610f5057600080fd5b81600b60006101000a81548173ffffffffffffffffffffffffffffffffffffffff021916908373ffffffffffffffffffffffffffffffffffffffff160217905550600b60009054906101000a900473ffffffffffffffffffffffffffffffffffffffff1673ffffffffffffffffffffffffffffffffffffffff1663a55870886040518163ffffffff1660e01b8152600401602060405180830381600087803b158015610ffb57600080fd5b505af115801561100f573d6000803e3d6000fd5b505050506040513d601f19601f820116820180604052508101906110339190612577565b600c819055506014600c5461104891906125d3565b600d819055506000600660019054906101000a900473ffffffffffffffffffffffffffffffffffffffff16905060008173ffffffffffffffffffffffffffffffffffffffff1660075460405161109d90612424565b60006040518083038185875af1925050503d80600081146110da576040519150601f19603f3d011682016040523d82523d6000602084013e6110df565b606091505b5050905080611123576040517f08c379a000000000000000000000000000000000000000000000000000000000815260040161111a90612650565b60405180910390fd5b600060078190555060016008600082825461113e91906124d4565b92505081905550426004819055508460058190555061115b6114bd565b5050505050565b600080600084815260200190815260200160002060000160008373ffffffffffffffffffffffffffffffffffffffff1673ffffffffffffffffffffffffffffffffffffffff16815260200190815260200160002060009054906101000a900460ff16905092915050565b6000801b81565b60045481565b600660009054906101000a900460ff1681565b600d5481565b600c5481565b6112018261079d565b61120a816117b3565b61121483836118af565b505050565b600b60009054906101000a900473ffffffffffffffffffffffffffffffffffffffff1681565b600660019054906101000a900473ffffffffffffffffffffffffffffffffffffffff1681565b600260009054906101000a900473ffffffffffffffffffffffffffffffffffffffff1681565b6112958282611a23565b600060018111156112a9576112a86120fb565b5b600660009054906101000a900460ff1660018111156112cb576112ca6120fb565b5b146112d557600080fd5b60016112e082611327565b10156112eb57600080fd5b6064611305600d54600c5461130091906124d4565b611327565b61130f91906124d4565b61131847611327565b111561132357600080fd5b5050565b600061133e60035483611a7d90919063ffffffff16565b9050919050565b8015611461578160096000600854815260200190815260200160002060008573ffffffffffffffffffffffffffffffffffffffff1673ffffffffffffffffffffffffffffffffffffffff16815260200190815260200160002060008282546113ad91906124d4565b92505081905550600660019054906101000a900473ffffffffffffffffffffffffffffffffffffffff1673ffffffffffffffffffffffffffffffffffffffff16636f485d6c84846040518363ffffffff1660e01b8152600401611411929190612539565b600060405180830381600087803b15801561142b57600080fd5b505af115801561143f573d6000803e3d6000fd5b50505050816007600082825461145591906124d4565b925050819055506114b8565b81600a60008573ffffffffffffffffffffffffffffffffffffffff1673ffffffffffffffffffffffffffffffffffffffff16815260200190815260200160002060008282546114b091906124d4565b925050819055505b505050565b600d54600c546114cd91906124d4565b4710611747576000600b60009054906101000a900473ffffffffffffffffffffffffffffffffffffffff16905060008173ffffffffffffffffffffffffffffffffffffffff16600c5460405161152290612424565b60006040518083038185875af1925050503d806000811461155f576040519150601f19603f3d011682016040523d82523d6000602084013e611564565b606091505b50509050806115a8576040517f08c379a000000000000000000000000000000000000000000000000000000000815260040161159f906126bc565b60405180910390fd5b6000600b60009054906101000a900473ffffffffffffffffffffffffffffffffffffffff1673ffffffffffffffffffffffffffffffffffffffff16639c3962f06040518163ffffffff1660e01b8152600401602060405180830381600087803b15801561161457600080fd5b505af1158015611628573d6000803e3d6000fd5b505050506040513d601f19601f8201168201806040525081019061164c91906126f1565b90508061168e576040517f08c379a00000000000000000000000000000000000000000000000000000000081526004016116859061276a565b60405180910390fd5b6000600781905550600660019054906101000a900473ffffffffffffffffffffffffffffffffffffffff1673ffffffffffffffffffffffffffffffffffffffff166343d726d66040518163ffffffff1660e01b8152600401600060405180830381600087803b15801561170057600080fd5b505af1158015611714573d6000803e3d6000fd5b505050506001600660006101000a81548160ff0219169083600181111561173e5761173d6120fb565b5b02179055505050505b565b60007f01ffc9a7000000000000000000000000000000000000000000000000000000007bffffffffffffffffffffffffffffffffffffffffffffffffffffffff1916827bffffffffffffffffffffffffffffffffffffffffffffffffffffffff1916149050919050565b6117c4816117bf6118a7565b611a93565b50565b6117d18282611162565b6118a357600160008084815260200190815260200160002060000160008373ffffffffffffffffffffffffffffffffffffffff1673ffffffffffffffffffffffffffffffffffffffff16815260200190815260200160002060006101000a81548160ff0219169083151502179055506118486118a7565b73ffffffffffffffffffffffffffffffffffffffff168173ffffffffffffffffffffffffffffffffffffffff16837f2f8788117e7eff1d82e926ec794901d17c78024a50270940304540a733656f0d60405160405180910390a45b5050565b600033905090565b6118b98282611162565b1561198c57600080600084815260200190815260200160002060000160008373ffffffffffffffffffffffffffffffffffffffff1673ffffffffffffffffffffffffffffffffffffffff16815260200190815260200160002060006101000a81548160ff0219169083151502179055506119316118a7565b73ffffffffffffffffffffffffffffffffffffffff168173ffffffffffffffffffffffffffffffffffffffff16837ff6391f5c32d9c69d2a47ea670b442974b53935d1edc7fd64eb21e047a839171b60405160405180910390a45b5050565b600260009054906101000a900473ffffffffffffffffffffffffffffffffffffffff1673ffffffffffffffffffffffffffffffffffffffff166340c10f1983836040518363ffffffff1660e01b81526004016119ed929190612539565b600060405180830381600087803b158015611a0757600080fd5b505af1158015611a1b573d6000803e3d6000fd5b505050505050565b6005544210611a3157600080fd5b600073ffffffffffffffffffffffffffffffffffffffff168273ffffffffffffffffffffffffffffffffffffffff161415611a6b57600080fd5b6000811415611a7957600080fd5b5050565b60008183611a8b919061278a565b905092915050565b611a9d8282611162565b611b2c57611ac28173ffffffffffffffffffffffffffffffffffffffff166014611b30565b611ad08360001c6020611b30565b604051602001611ae19291906128f6565b6040516020818303038152906040526040517f08c379a0000000000000000000000000000000000000000000000000000000008152600401611b23919061297a565b60405180910390fd5b5050565b606060006002836002611b43919061278a565b611b4d91906124d4565b67ffffffffffffffff811115611b6657611b6561299c565b5b6040519080825280601f01601f191660200182016040528015611b985781602001600182028036833780820191505090505b5090507f300000000000000000000000000000000000000000000000000000000000000081600081518110611bd057611bcf6129cb565b5b60200101907effffffffffffffffffffffffffffffffffffffffffffffffffffffffffffff1916908160001a9053507f780000000000000000000000000000000000000000000000000000000000000081600181518110611c3457611c336129cb565b5b60200101907effffffffffffffffffffffffffffffffffffffffffffffffffffffffffffff1916908160001a90535060006001846002611c74919061278a565b611c7e91906124d4565b90505b6001811115611d1e577f3031323334353637383961626364656600000000000000000000000000000000600f861660108110611cc057611cbf6129cb565b5b1a60f81b828281518110611cd757611cd66129cb565b5b60200101907effffffffffffffffffffffffffffffffffffffffffffffffffffffffffffff1916908160001a905350600485901c945080611d17906129fa565b9050611c81565b5060008414611d62576040517f08c379a0000000000000000000000000000000000000000000000000000000008152600401611d5990612a70565b60405180910390fd5b8091505092915050565b600080fd5b60007fffffffff0000000000000000000000000000000000000000000000000000000082169050919050565b611da681611d71565b8114611db157600080fd5b50565b600081359050611dc381611d9d565b92915050565b600060208284031215611ddf57611dde611d6c565b5b6000611ded84828501611db4565b91505092915050565b60008115159050919050565b611e0b81611df6565b82525050565b6000602082019050611e266000830184611e02565b92915050565b6000819050919050565b611e3f81611e2c565b82525050565b6000602082019050611e5a6000830184611e36565b92915050565b6000819050919050565b611e7381611e60565b8114611e7e57600080fd5b50565b600081359050611e9081611e6a565b92915050565b600060208284031215611eac57611eab611d6c565b5b6000611eba84828501611e81565b91505092915050565b611ecc81611e60565b82525050565b6000602082019050611ee76000830184611ec3565b92915050565b600073ffffffffffffffffffffffffffffffffffffffff82169050919050565b6000611f1882611eed565b9050919050565b611f2881611f0d565b8114611f3357600080fd5b50565b600081359050611f4581611f1f565b92915050565b60008060408385031215611f6257611f61611d6c565b5b6000611f7085828601611e81565b9250506020611f8185828601611f36565b9150509250929050565b611f9481611e2c565b8114611f9f57600080fd5b50565b600081359050611fb181611f8b565b92915050565b60008060408385031215611fce57611fcd611d6c565b5b6000611fdc85828601611fa2565b9250506020611fed85828601611f36565b9150509250929050565b60006020828403121561200d5761200c611d6c565b5b600061201b84828501611f36565b91505092915050565b600061202f82611eed565b9050919050565b61203f81612024565b811461204a57600080fd5b50565b60008135905061205c81612036565b92915050565b60006020828403121561207857612077611d6c565b5b60006120868482850161204d565b91505092915050565b61209881611df6565b81146120a357600080fd5b50565b6000813590506120b58161208f565b92915050565b600080604083850312156120d2576120d1611d6c565b5b60006120e085828601611f36565b92505060206120f1858286016120a6565b9150509250929050565b7f4e487b7100000000000000000000000000000000000000000000000000000000600052602160045260246000fd5b6002811061213b5761213a6120fb565b5b50565b600081905061214c8261212a565b919050565b600061215c8261213e565b9050919050565b61216c81612151565b82525050565b60006020820190506121876000830184612163565b92915050565b6000819050919050565b60006121b26121ad6121a884611eed565b61218d565b611eed565b9050919050565b60006121c482612197565b9050919050565b60006121d6826121b9565b9050919050565b6121e6816121cb565b82525050565b600060208201905061220160008301846121dd565b92915050565b6000612212826121b9565b9050919050565b61222281612207565b82525050565b600060208201905061223d6000830184612219565b92915050565b600061224e82612197565b9050919050565b600061226082612243565b9050919050565b61227081612255565b82525050565b600060208201905061228b6000830184612267565b92915050565b600082825260208201905092915050565b7f5265656e7472616e637947756172643a207265656e7472616e742063616c6c00600082015250565b60006122d8601f83612291565b91506122e3826122a2565b602082019050919050565b60006020820190508181036000830152612307816122cb565b9050919050565b60006040820190506123236000830185611e36565b6123306020830184611e36565b9392505050565b7f416363657373436f6e74726f6c3a2063616e206f6e6c792072656e6f756e636560008201527f20726f6c657320666f722073656c660000000000000000000000000000000000602082015250565b6000612393602f83612291565b915061239e82612337565b604082019050919050565b600060208201905081810360008301526123c281612386565b9050919050565b6123d281612024565b82525050565b60006020820190506123ed60008301846123c9565b92915050565b600081905092915050565b50565b600061240e6000836123f3565b9150612419826123fe565b600082019050919050565b600061242f82612401565b9150819050919050565b7f4574686572207472616e73666572206661696c65642e00000000000000000000600082015250565b600061246f601683612291565b915061247a82612439565b602082019050919050565b6000602082019050818103600083015261249e81612462565b9050919050565b7f4e487b7100000000000000000000000000000000000000000000000000000000600052601160045260246000fd5b60006124df82611e2c565b91506124ea83611e2c565b9250827fffffffffffffffffffffffffffffffffffffffffffffffffffffffffffffffff0382111561251f5761251e6124a5565b5b828201905092915050565b61253381611f0d565b82525050565b600060408201905061254e600083018561252a565b61255b6020830184611e36565b9392505050565b60008151905061257181611f8b565b92915050565b60006020828403121561258d5761258c611d6c565b5b600061259b84828501612562565b91505092915050565b7f4e487b7100000000000000000000000000000000000000000000000000000000600052601260045260246000fd5b60006125de82611e2c565b91506125e983611e2c565b9250826125f9576125f86125a4565b5b828204905092915050565b7f46756e6374696f6e206661696c65642e00000000000000000000000000000000600082015250565b600061263a601083612291565b915061264582612604565b602082019050919050565b600060208201905081810360008301526126698161262d565b9050919050565b7f5472616e73666572206661696c65642e00000000000000000000000000000000600082015250565b60006126a6601083612291565b91506126b182612670565b602082019050919050565b600060208201905081810360008301526126d581612699565b9050919050565b6000815190506126eb8161208f565b92915050565b60006020828403121561270757612706611d6c565b5b6000612715848285016126dc565b91505092915050565b7f507572636861736520206661696c65642e000000000000000000000000000000600082015250565b6000612754601183612291565b915061275f8261271e565b602082019050919050565b6000602082019050818103600083015261278381612747565b9050919050565b600061279582611e2c565b91506127a083611e2c565b9250817fffffffffffffffffffffffffffffffffffffffffffffffffffffffffffffffff04831182151516156127d9576127d86124a5565b5b828202905092915050565b600081905092915050565b7f416363657373436f6e74726f6c3a206163636f756e7420000000000000000000600082015250565b60006128256017836127e4565b9150612830826127ef565b601782019050919050565b600081519050919050565b60005b83811015612864578082015181840152602081019050612849565b83811115612873576000848401525b50505050565b60006128848261283b565b61288e81856127e4565b935061289e818560208601612846565b80840191505092915050565b7f206973206d697373696e6720726f6c6520000000000000000000000000000000600082015250565b60006128e06011836127e4565b91506128eb826128aa565b601182019050919050565b600061290182612818565b915061290d8285612879565b9150612918826128d3565b91506129248284612879565b91508190509392505050565b6000601f19601f8301169050919050565b600061294c8261283b565b6129568185612291565b9350612966818560208601612846565b61296f81612930565b840191505092915050565b600060208201905081810360008301526129948184612941565b905092915050565b7f4e487b7100000000000000000000000000000000000000000000000000000000600052604160045260246000fd5b7f4e487b7100000000000000000000000000000000000000000000000000000000600052603260045260246000fd5b6000612a0582611e2c565b91506000821415612a1957612a186124a5565b5b600182039050919050565b7f537472696e67733a20686578206c656e67746820696e73756666696369656e74600082015250565b6000612a5a602083612291565b9150612a6582612a24565b602082019050919050565b60006020820190508181036000830152612a8981612a4d565b905091905056fea2646970667358221220d0ffc7af1b4ccf582083ca7826a614628e6daaa355e4e7ffd42dc86e22ee60e364736f6c63430008090033a26469706673582212205dbc6d2bb7bb9fd43b3894760acf4850992cc7b2c9ebe3a821a9489bfcf1d36164736f6c63430008090033",
  "linkReferences": {},
  "deployedLinkReferences": {}
}