{
  "_format": "hh-sol-artifact-1",
  "contractName": "MoonSale",
  "sourceName": "contracts/main/MoonSale.sol",
  "abi": [
    {
      "inputs": [
        {
          "internalType": "uint256",
          "name": "_rate",
          "type": "uint256"
        },
        {
          "internalType": "address",
          "name": "_token",
          "type": "address"
        },
        {
          "internalType": "uint256",
          "name": "_openingTime",
          "type": "uint256"
        },
        {
          "internalType": "uint256",
          "name": "_closingTime",
          "type": "uint256"
        },
        {
          "internalType": "address payable",
          "name": "_vault",
          "type": "address"
        },
        {
          "internalType": "address payable",
          "name": "_marketWrapper",
          "type": "address"
        }
      ],
      "stateMutability": "nonpayable",
      "type": "constructor"
    },
    {
      "anonymous": false,
      "inputs": [
        {
          "indexed": true,
          "internalType": "bytes32",
          "name": "role",
          "type": "bytes32"
        },
        {
          "indexed": true,
          "internalType": "bytes32",
          "name": "previousAdminRole",
          "type": "bytes32"
        },
        {
          "indexed": true,
          "internalType": "bytes32",
          "name": "newAdminRole",
          "type": "bytes32"
        }
      ],
      "name": "RoleAdminChanged",
      "type": "event"
    },
    {
      "anonymous": false,
      "inputs": [
        {
          "indexed": true,
          "internalType": "bytes32",
          "name": "role",
          "type": "bytes32"
        },
        {
          "indexed": true,
          "internalType": "address",
          "name": "account",
          "type": "address"
        },
        {
          "indexed": true,
          "internalType": "address",
          "name": "sender",
          "type": "address"
        }
      ],
      "name": "RoleGranted",
      "type": "event"
    },
    {
      "anonymous": false,
      "inputs": [
        {
          "indexed": true,
          "internalType": "bytes32",
          "name": "role",
          "type": "bytes32"
        },
        {
          "indexed": true,
          "internalType": "address",
          "name": "account",
          "type": "address"
        },
        {
          "indexed": true,
          "internalType": "address",
          "name": "sender",
          "type": "address"
        }
      ],
      "name": "RoleRevoked",
      "type": "event"
    },
    {
      "anonymous": false,
      "inputs": [
        {
          "indexed": true,
          "internalType": "address",
          "name": "beneficiary",
          "type": "address"
        },
        {
          "indexed": false,
          "internalType": "uint256",
          "name": "value",
          "type": "uint256"
        },
        {
          "indexed": false,
          "internalType": "uint256",
          "name": "amount",
          "type": "uint256"
        }
      ],
      "name": "TokenPurchase",
      "type": "event"
    },
    {
      "stateMutability": "payable",
      "type": "fallback"
    },
    {
      "inputs": [],
      "name": "DEFAULT_ADMIN_ROLE",
      "outputs": [
        {
          "internalType": "bytes32",
          "name": "",
          "type": "bytes32"
        }
      ],
      "stateMutability": "view",
      "type": "function"
    },
    {
      "inputs": [],
      "name": "buyNowPriceInWei",
      "outputs": [
        {
          "internalType": "uint256",
          "name": "",
          "type": "uint256"
        }
      ],
      "stateMutability": "view",
      "type": "function"
    },
    {
      "inputs": [
        {
          "internalType": "address",
          "name": "_beneficiary",
          "type": "address"
        },
        {
          "internalType": "bool",
          "name": "_refundable",
          "type": "bool"
        }
      ],
      "name": "buyTokens",
      "outputs": [],
      "stateMutability": "payable",
      "type": "function"
    },
    {
      "inputs": [],
      "name": "closingTime",
      "outputs": [
        {
          "internalType": "uint256",
          "name": "",
          "type": "uint256"
        }
      ],
      "stateMutability": "view",
      "type": "function"
    },
    {
      "inputs": [],
      "name": "collectTokens",
      "outputs": [],
      "stateMutability": "nonpayable",
      "type": "function"
    },
    {
      "inputs": [
        {
          "internalType": "uint256",
          "name": "",
          "type": "uint256"
        },
        {
          "internalType": "address",
          "name": "",
          "type": "address"
        }
      ],
      "name": "currentRefundableBalances",
      "outputs": [
        {
          "internalType": "uint256",
          "name": "",
          "type": "uint256"
        }
      ],
      "stateMutability": "view",
      "type": "function"
    },
    {
      "inputs": [],
      "name": "currentRefundableWei",
      "outputs": [
        {
          "internalType": "uint256",
          "name": "",
          "type": "uint256"
        }
      ],
      "stateMutability": "view",
      "type": "function"
    },
    {
      "inputs": [
        {
          "internalType": "address payable",
          "name": "to",
          "type": "address"
        }
      ],
      "name": "emergencyWithdrawal",
      "outputs": [],
      "stateMutability": "payable",
      "type": "function"
    },
    {
      "inputs": [
        {
          "internalType": "bytes32",
          "name": "role",
          "type": "bytes32"
        }
      ],
      "name": "getRoleAdmin",
      "outputs": [
        {
          "internalType": "bytes32",
          "name": "",
          "type": "bytes32"
        }
      ],
      "stateMutability": "view",
      "type": "function"
    },
    {
      "inputs": [
        {
          "internalType": "address",
          "name": "to",
          "type": "address"
        }
      ],
      "name": "grantOwnerRole",
      "outputs": [],
      "stateMutability": "nonpayable",
      "type": "function"
    },
    {
      "inputs": [
        {
          "internalType": "bytes32",
          "name": "role",
          "type": "bytes32"
        },
        {
          "internalType": "address",
          "name": "account",
          "type": "address"
        }
      ],
      "name": "grantRole",
      "outputs": [],
      "stateMutability": "nonpayable",
      "type": "function"
    },
    {
      "inputs": [
        {
          "internalType": "bytes32",
          "name": "role",
          "type": "bytes32"
        },
        {
          "internalType": "address",
          "name": "account",
          "type": "address"
        }
      ],
      "name": "hasRole",
      "outputs": [
        {
          "internalType": "bool",
          "name": "",
          "type": "bool"
        }
      ],
      "stateMutability": "view",
      "type": "function"
    },
    {
      "inputs": [],
      "name": "marketWrapper",
      "outputs": [
        {
          "internalType": "contract IMarketWrapper",
          "name": "",
          "type": "address"
        }
      ],
      "stateMutability": "view",
      "type": "function"
    },
    {
      "inputs": [
        {
          "internalType": "uint256",
          "name": "_newClosingTime",
          "type": "uint256"
        },
        {
          "internalType": "address",
          "name": "_marketWrapper",
          "type": "address"
        }
      ],
      "name": "migration",
      "outputs": [],
      "stateMutability": "nonpayable",
      "type": "function"
    },
    {
      "inputs": [],
      "name": "migrationCount",
      "outputs": [
        {
          "internalType": "uint256",
          "name": "",
          "type": "uint256"
        }
      ],
      "stateMutability": "view",
      "type": "function"
    },
    {
      "inputs": [
        {
          "internalType": "address",
          "name": "",
          "type": "address"
        }
      ],
      "name": "nonRefundableBalances",
      "outputs": [
        {
          "internalType": "uint256",
          "name": "",
          "type": "uint256"
        }
      ],
      "stateMutability": "view",
      "type": "function"
    },
    {
      "inputs": [],
      "name": "openingTime",
      "outputs": [
        {
          "internalType": "uint256",
          "name": "",
          "type": "uint256"
        }
      ],
      "stateMutability": "view",
      "type": "function"
    },
    {
      "inputs": [],
      "name": "rate",
      "outputs": [
        {
          "internalType": "uint256",
          "name": "",
          "type": "uint256"
        }
      ],
      "stateMutability": "view",
      "type": "function"
    },
    {
      "inputs": [],
      "name": "refund",
      "outputs": [],
      "stateMutability": "payable",
      "type": "function"
    },
    {
      "inputs": [
        {
          "internalType": "bytes32",
          "name": "role",
          "type": "bytes32"
        },
        {
          "internalType": "address",
          "name": "account",
          "type": "address"
        }
      ],
      "name": "renounceRole",
      "outputs": [],
      "stateMutability": "nonpayable",
      "type": "function"
    },
    {
      "inputs": [
        {
          "internalType": "bytes32",
          "name": "role",
          "type": "bytes32"
        },
        {
          "internalType": "address",
          "name": "account",
          "type": "address"
        }
      ],
      "name": "revokeRole",
      "outputs": [],
      "stateMutability": "nonpayable",
      "type": "function"
    },
    {
      "inputs": [
        {
          "internalType": "bytes4",
          "name": "interfaceId",
          "type": "bytes4"
        }
      ],
      "name": "supportsInterface",
      "outputs": [
        {
          "internalType": "bool",
          "name": "",
          "type": "bool"
        }
      ],
      "stateMutability": "view",
      "type": "function"
    },
    {
      "inputs": [],
      "name": "token",
      "outputs": [
        {
          "internalType": "contract IToken",
          "name": "",
          "type": "address"
        }
      ],
      "stateMutability": "view",
      "type": "function"
    },
    {
      "inputs": [],
      "name": "vault",
      "outputs": [
        {
          "internalType": "contract IVault",
          "name": "",
          "type": "address"
        }
      ],
      "stateMutability": "view",
      "type": "function"
    },
    {
      "stateMutability": "payable",
      "type": "receive"
    }
  ],
  "bytecode": "0x6080604052600060075560006008553480156200001b57600080fd5b5060405162002b2b38038062002b2b8339818101604052810190620000419190620004a7565b858585856001808190555060018410156200005b57600080fd5b600073ffffffffffffffffffffffffffffffffffffffff168373ffffffffffffffffffffffffffffffffffffffff1614156200009657600080fd5b42821015620000a457600080fd5b818111620000b157600080fd5b620000c66000801b336200025a60201b60201c565b8360038190555082600260006101000a81548173ffffffffffffffffffffffffffffffffffffffff021916908373ffffffffffffffffffffffffffffffffffffffff16021790555081600481905550806005819055505050505081600660016101000a81548173ffffffffffffffffffffffffffffffffffffffff021916908373ffffffffffffffffffffffffffffffffffffffff16021790555080600b60006101000a81548173ffffffffffffffffffffffffffffffffffffffff021916908373ffffffffffffffffffffffffffffffffffffffff160217905550600b60009054906101000a900473ffffffffffffffffffffffffffffffffffffffff1673ffffffffffffffffffffffffffffffffffffffff1663a55870886040518163ffffffff1660e01b8152600401602060405180830381600087803b1580156200020d57600080fd5b505af115801562000222573d6000803e3d6000fd5b505050506040513d601f19601f8201168201806040525081019062000248919062000543565b600c8190555050505050505062000575565b6200026c82826200034b60201b60201c565b6200034757600160008084815260200190815260200160002060000160008373ffffffffffffffffffffffffffffffffffffffff1673ffffffffffffffffffffffffffffffffffffffff16815260200190815260200160002060006101000a81548160ff021916908315150217905550620002ec620003b560201b60201c565b73ffffffffffffffffffffffffffffffffffffffff168173ffffffffffffffffffffffffffffffffffffffff16837f2f8788117e7eff1d82e926ec794901d17c78024a50270940304540a733656f0d60405160405180910390a45b5050565b600080600084815260200190815260200160002060000160008373ffffffffffffffffffffffffffffffffffffffff1673ffffffffffffffffffffffffffffffffffffffff16815260200190815260200160002060009054906101000a900460ff16905092915050565b600033905090565b600080fd5b6000819050919050565b620003d781620003c2565b8114620003e357600080fd5b50565b600081519050620003f781620003cc565b92915050565b600073ffffffffffffffffffffffffffffffffffffffff82169050919050565b60006200042a82620003fd565b9050919050565b6200043c816200041d565b81146200044857600080fd5b50565b6000815190506200045c8162000431565b92915050565b60006200046f82620003fd565b9050919050565b620004818162000462565b81146200048d57600080fd5b50565b600081519050620004a18162000476565b92915050565b60008060008060008060c08789031215620004c757620004c6620003bd565b5b6000620004d789828a01620003e6565b9650506020620004ea89828a016200044b565b9550506040620004fd89828a01620003e6565b94505060606200051089828a01620003e6565b93505060806200052389828a0162000490565b92505060a06200053689828a0162000490565b9150509295509295509295565b6000602082840312156200055c576200055b620003bd565b5b60006200056c84828501620003e6565b91505092915050565b6125a680620005856000396000f3fe60806040526004361061014f5760003560e01c80637a37ac26116100b6578063bbdc90771161006f578063bbdc907714610482578063c97f8d6e1461049e578063d547741f146104c9578063ef38bf01146104f2578063fbfa77cf1461051d578063fc0c546a1461054857610161565b80637a37ac26146103845780638433acd1146103af5780638c6f3349146103c657806391d14854146103ef578063a217fddf1461042c578063b7a8807c1461045757610161565b806336568abe1161010857806336568abe146102a4578063397a8bab146102cd5780634b6753bc146102f6578063590e1ae3146103215780636e353a1d1461032b57806374d00f671461034757610161565b806301ffc9a71461016e5780630c3ca20f146101ab578063248a9ca3146101d65780632c4e722e146102135780632f2ff15d1461023e57806331f36bd91461026757610161565b366101615761015f336001610573565b005b61016c336001610573565b005b34801561017a57600080fd5b5061019560048036038101906101909190611a1a565b61064d565b6040516101a29190611a62565b60405180910390f35b3480156101b757600080fd5b506101c06106c7565b6040516101cd9190611a96565b60405180910390f35b3480156101e257600080fd5b506101fd60048036038101906101f89190611ae7565b6106cd565b60405161020a9190611b23565b60405180910390f35b34801561021f57600080fd5b506102286106ec565b6040516102359190611a96565b60405180910390f35b34801561024a57600080fd5b5061026560048036038101906102609190611b9c565b6106f2565b005b34801561027357600080fd5b5061028e60048036038101906102899190611c08565b610713565b60405161029b9190611a96565b60405180910390f35b3480156102b057600080fd5b506102cb60048036038101906102c69190611b9c565b610738565b005b3480156102d957600080fd5b506102f460048036038101906102ef9190611c48565b6107bb565b005b34801561030257600080fd5b5061030b6107d9565b6040516103189190611a96565b60405180910390f35b6103296107df565b005b61034560048036038101906103409190611cb3565b610922565b005b34801561035357600080fd5b5061036e60048036038101906103699190611c48565b6109e0565b60405161037b9190611a96565b60405180910390f35b34801561039057600080fd5b506103996109f8565b6040516103a69190611a96565b60405180910390f35b3480156103bb57600080fd5b506103c46109fe565b005b3480156103d257600080fd5b506103ed60048036038101906103e89190611c08565b610cd3565b005b3480156103fb57600080fd5b5061041660048036038101906104119190611b9c565b610e35565b6040516104239190611a62565b60405180910390f35b34801561043857600080fd5b50610441610e9f565b60405161044e9190611b23565b60405180910390f35b34801561046357600080fd5b5061046c610ea6565b6040516104799190611a96565b60405180910390f35b61049c60048036038101906104979190611d0c565b610573565b005b3480156104aa57600080fd5b506104b3610eac565b6040516104c09190611a96565b60405180910390f35b3480156104d557600080fd5b506104f060048036038101906104eb9190611b9c565b610eb2565b005b3480156104fe57600080fd5b50610507610ed3565b6040516105149190611dab565b60405180910390f35b34801561052957600080fd5b50610532610ef9565b60405161053f9190611de7565b60405180910390f35b34801561055457600080fd5b5061055d610f1f565b60405161056a9190611e35565b60405180910390f35b600260015414156105b9576040517f08c379a00000000000000000000000000000000000000000000000000000000081526004016105b090611ead565b60405180910390fd5b600260018190555060003490506105d08382610f45565b60006105db82610fd3565b90506105e8848385610ff1565b8373ffffffffffffffffffffffffffffffffffffffff167fcd60aa75dea3072fbc07ae6d7d856b5dc5f4eee88854f5b4abf7b680ef8bc50f8383604051610630929190611ecd565b60405180910390a2610640611169565b5050600180819055505050565b60007f7965db0b000000000000000000000000000000000000000000000000000000007bffffffffffffffffffffffffffffffffffffffffffffffffffffffff1916827bffffffffffffffffffffffffffffffffffffffffffffffffffffffff191614806106c057506106bf8261139a565b5b9050919050565b60075481565b6000806000838152602001908152602001600020600101549050919050565b60035481565b6106fb826106cd565b61070481611404565b61070e8383611418565b505050565b6009602052816000526040600020602052806000526040600020600091509150505481565b6107406114f8565b73ffffffffffffffffffffffffffffffffffffffff168173ffffffffffffffffffffffffffffffffffffffff16146107ad576040517f08c379a00000000000000000000000000000000000000000000000000000000081526004016107a490611f68565b60405180910390fd5b6107b78282611500565b5050565b6000801b6107c881611404565b6107d56000801b83611418565b5050565b60055481565b60026001541415610825576040517f08c379a000000000000000000000000000000000000000000000000000000000815260040161081c90611ead565b60405180910390fd5b6002600181905550600060096000600854815260200190815260200160002060003373ffffffffffffffffffffffffffffffffffffffff1673ffffffffffffffffffffffffffffffffffffffff168152602001908152602001600020541461088c57600080fd5b600660019054906101000a900473ffffffffffffffffffffffffffffffffffffffff1673ffffffffffffffffffffffffffffffffffffffff1663fa89401a336040518263ffffffff1660e01b81526004016108e79190611f97565b600060405180830381600087803b15801561090157600080fd5b505af1158015610915573d6000803e3d6000fd5b5050505060018081905550565b6000801b61092f81611404565b60008273ffffffffffffffffffffffffffffffffffffffff164760405161095590611fe3565b60006040518083038185875af1925050503d8060008114610992576040519150601f19603f3d011682016040523d82523d6000602084013e610997565b606091505b50509050806109db576040517f08c379a00000000000000000000000000000000000000000000000000000000081526004016109d290612044565b60405180910390fd5b505050565b600a6020528060005260406000206000915090505481565b60085481565b60026001541415610a44576040517f08c379a0000000000000000000000000000000000000000000000000000000008152600401610a3b90611ead565b60405180910390fd5b6002600181905550600180811115610a5f57610a5e612064565b5b600660009054906101000a900460ff166001811115610a8157610a80612064565b5b14610a8b57600080fd5b6000600a60003373ffffffffffffffffffffffffffffffffffffffff1673ffffffffffffffffffffffffffffffffffffffff1681526020019081526020016000205460096000600854815260200190815260200160002060003373ffffffffffffffffffffffffffffffffffffffff1673ffffffffffffffffffffffffffffffffffffffff16815260200190815260200160002054610b2a91906120c2565b905060008111610b3957600080fd5b600660019054906101000a900473ffffffffffffffffffffffffffffffffffffffff1673ffffffffffffffffffffffffffffffffffffffff16630a2f487b3360096000600854815260200190815260200160002060003373ffffffffffffffffffffffffffffffffffffffff1673ffffffffffffffffffffffffffffffffffffffff168152602001908152602001600020546040518363ffffffff1660e01b8152600401610be8929190612127565b600060405180830381600087803b158015610c0257600080fd5b505af1158015610c16573d6000803e3d6000fd5b50505050600060096000600854815260200190815260200160002060003373ffffffffffffffffffffffffffffffffffffffff1673ffffffffffffffffffffffffffffffffffffffff168152602001908152602001600020819055506000600a60003373ffffffffffffffffffffffffffffffffffffffff1673ffffffffffffffffffffffffffffffffffffffff16815260200190815260200160002081905550610cc933610cc483610fd3565b6115e1565b5060018081905550565b6000801b610ce081611404565b81600b60006101000a81548173ffffffffffffffffffffffffffffffffffffffff021916908373ffffffffffffffffffffffffffffffffffffffff1602179055506000600660019054906101000a900473ffffffffffffffffffffffffffffffffffffffff16905060008173ffffffffffffffffffffffffffffffffffffffff16600754604051610d7090611fe3565b60006040518083038185875af1925050503d8060008114610dad576040519150601f19603f3d011682016040523d82523d6000602084013e610db2565b606091505b5050905080610df6576040517f08c379a0000000000000000000000000000000000000000000000000000000008152600401610ded9061219c565b60405180910390fd5b6000600781905550600160086000828254610e1191906120c2565b925050819055504260048190555084600581905550610e2e611169565b5050505050565b600080600084815260200190815260200160002060000160008373ffffffffffffffffffffffffffffffffffffffff1673ffffffffffffffffffffffffffffffffffffffff16815260200190815260200160002060009054906101000a900460ff16905092915050565b6000801b81565b60045481565b600c5481565b610ebb826106cd565b610ec481611404565b610ece8383611500565b505050565b600b60009054906101000a900473ffffffffffffffffffffffffffffffffffffffff1681565b600660019054906101000a900473ffffffffffffffffffffffffffffffffffffffff1681565b600260009054906101000a900473ffffffffffffffffffffffffffffffffffffffff1681565b610f4f8282611674565b60006001811115610f6357610f62612064565b5b600660009054906101000a900460ff166001811115610f8557610f84612064565b5b14610f8f57600080fd5b6001610f9a82610fd3565b1015610fa557600080fd5b610fb0600c54610fd3565b610fc48247610fbf91906120c2565b610fd3565b1115610fcf57600080fd5b5050565b6000610fea600354836116ce90919063ffffffff16565b9050919050565b801561110d578160096000600854815260200190815260200160002060008573ffffffffffffffffffffffffffffffffffffffff1673ffffffffffffffffffffffffffffffffffffffff168152602001908152602001600020600082825461105991906120c2565b92505081905550600660019054906101000a900473ffffffffffffffffffffffffffffffffffffffff1673ffffffffffffffffffffffffffffffffffffffff16636f485d6c84846040518363ffffffff1660e01b81526004016110bd929190612127565b600060405180830381600087803b1580156110d757600080fd5b505af11580156110eb573d6000803e3d6000fd5b50505050816007600082825461110191906120c2565b92505081905550611164565b81600a60008573ffffffffffffffffffffffffffffffffffffffff1673ffffffffffffffffffffffffffffffffffffffff168152602001908152602001600020600082825461115c91906120c2565b925050819055505b505050565b600c544710611398576000600b60009054906101000a900473ffffffffffffffffffffffffffffffffffffffff16905060008173ffffffffffffffffffffffffffffffffffffffff16476040516111bf90611fe3565b60006040518083038185875af1925050503d80600081146111fc576040519150601f19603f3d011682016040523d82523d6000602084013e611201565b606091505b5050905080611245576040517f08c379a000000000000000000000000000000000000000000000000000000000815260040161123c90612208565b60405180910390fd5b600b60009054906101000a900473ffffffffffffffffffffffffffffffffffffffff1673ffffffffffffffffffffffffffffffffffffffff16639c3962f06040518163ffffffff1660e01b8152600401602060405180830381600087803b1580156112af57600080fd5b505af11580156112c3573d6000803e3d6000fd5b505050506040513d601f19601f820116820180604052508101906112e7919061223d565b50600660019054906101000a900473ffffffffffffffffffffffffffffffffffffffff1673ffffffffffffffffffffffffffffffffffffffff166343d726d66040518163ffffffff1660e01b8152600401600060405180830381600087803b15801561135257600080fd5b505af1158015611366573d6000803e3d6000fd5b505050506001600660006101000a81548160ff021916908360018111156113905761138f612064565b5b021790555050505b565b60007f01ffc9a7000000000000000000000000000000000000000000000000000000007bffffffffffffffffffffffffffffffffffffffffffffffffffffffff1916827bffffffffffffffffffffffffffffffffffffffffffffffffffffffff1916149050919050565b611415816114106114f8565b6116e4565b50565b6114228282610e35565b6114f457600160008084815260200190815260200160002060000160008373ffffffffffffffffffffffffffffffffffffffff1673ffffffffffffffffffffffffffffffffffffffff16815260200190815260200160002060006101000a81548160ff0219169083151502179055506114996114f8565b73ffffffffffffffffffffffffffffffffffffffff168173ffffffffffffffffffffffffffffffffffffffff16837f2f8788117e7eff1d82e926ec794901d17c78024a50270940304540a733656f0d60405160405180910390a45b5050565b600033905090565b61150a8282610e35565b156115dd57600080600084815260200190815260200160002060000160008373ffffffffffffffffffffffffffffffffffffffff1673ffffffffffffffffffffffffffffffffffffffff16815260200190815260200160002060006101000a81548160ff0219169083151502179055506115826114f8565b73ffffffffffffffffffffffffffffffffffffffff168173ffffffffffffffffffffffffffffffffffffffff16837ff6391f5c32d9c69d2a47ea670b442974b53935d1edc7fd64eb21e047a839171b60405160405180910390a45b5050565b600260009054906101000a900473ffffffffffffffffffffffffffffffffffffffff1673ffffffffffffffffffffffffffffffffffffffff166340c10f1983836040518363ffffffff1660e01b815260040161163e929190612127565b600060405180830381600087803b15801561165857600080fd5b505af115801561166c573d6000803e3d6000fd5b505050505050565b600554421061168257600080fd5b600073ffffffffffffffffffffffffffffffffffffffff168273ffffffffffffffffffffffffffffffffffffffff1614156116bc57600080fd5b60008114156116ca57600080fd5b5050565b600081836116dc919061226a565b905092915050565b6116ee8282610e35565b61177d576117138173ffffffffffffffffffffffffffffffffffffffff166014611781565b6117218360001c6020611781565b6040516020016117329291906123d6565b6040516020818303038152906040526040517f08c379a0000000000000000000000000000000000000000000000000000000008152600401611774919061245a565b60405180910390fd5b5050565b606060006002836002611794919061226a565b61179e91906120c2565b67ffffffffffffffff8111156117b7576117b661247c565b5b6040519080825280601f01601f1916602001820160405280156117e95781602001600182028036833780820191505090505b5090507f300000000000000000000000000000000000000000000000000000000000000081600081518110611821576118206124ab565b5b60200101907effffffffffffffffffffffffffffffffffffffffffffffffffffffffffffff1916908160001a9053507f780000000000000000000000000000000000000000000000000000000000000081600181518110611885576118846124ab565b5b60200101907effffffffffffffffffffffffffffffffffffffffffffffffffffffffffffff1916908160001a905350600060018460026118c5919061226a565b6118cf91906120c2565b90505b600181111561196f577f3031323334353637383961626364656600000000000000000000000000000000600f861660108110611911576119106124ab565b5b1a60f81b828281518110611928576119276124ab565b5b60200101907effffffffffffffffffffffffffffffffffffffffffffffffffffffffffffff1916908160001a905350600485901c945080611968906124da565b90506118d2565b50600084146119b3576040517f08c379a00000000000000000000000000000000000000000000000000000000081526004016119aa90612550565b60405180910390fd5b8091505092915050565b600080fd5b60007fffffffff0000000000000000000000000000000000000000000000000000000082169050919050565b6119f7816119c2565b8114611a0257600080fd5b50565b600081359050611a14816119ee565b92915050565b600060208284031215611a3057611a2f6119bd565b5b6000611a3e84828501611a05565b91505092915050565b60008115159050919050565b611a5c81611a47565b82525050565b6000602082019050611a776000830184611a53565b92915050565b6000819050919050565b611a9081611a7d565b82525050565b6000602082019050611aab6000830184611a87565b92915050565b6000819050919050565b611ac481611ab1565b8114611acf57600080fd5b50565b600081359050611ae181611abb565b92915050565b600060208284031215611afd57611afc6119bd565b5b6000611b0b84828501611ad2565b91505092915050565b611b1d81611ab1565b82525050565b6000602082019050611b386000830184611b14565b92915050565b600073ffffffffffffffffffffffffffffffffffffffff82169050919050565b6000611b6982611b3e565b9050919050565b611b7981611b5e565b8114611b8457600080fd5b50565b600081359050611b9681611b70565b92915050565b60008060408385031215611bb357611bb26119bd565b5b6000611bc185828601611ad2565b9250506020611bd285828601611b87565b9150509250929050565b611be581611a7d565b8114611bf057600080fd5b50565b600081359050611c0281611bdc565b92915050565b60008060408385031215611c1f57611c1e6119bd565b5b6000611c2d85828601611bf3565b9250506020611c3e85828601611b87565b9150509250929050565b600060208284031215611c5e57611c5d6119bd565b5b6000611c6c84828501611b87565b91505092915050565b6000611c8082611b3e565b9050919050565b611c9081611c75565b8114611c9b57600080fd5b50565b600081359050611cad81611c87565b92915050565b600060208284031215611cc957611cc86119bd565b5b6000611cd784828501611c9e565b91505092915050565b611ce981611a47565b8114611cf457600080fd5b50565b600081359050611d0681611ce0565b92915050565b60008060408385031215611d2357611d226119bd565b5b6000611d3185828601611b87565b9250506020611d4285828601611cf7565b9150509250929050565b6000819050919050565b6000611d71611d6c611d6784611b3e565b611d4c565b611b3e565b9050919050565b6000611d8382611d56565b9050919050565b6000611d9582611d78565b9050919050565b611da581611d8a565b82525050565b6000602082019050611dc06000830184611d9c565b92915050565b6000611dd182611d78565b9050919050565b611de181611dc6565b82525050565b6000602082019050611dfc6000830184611dd8565b92915050565b6000611e0d82611d56565b9050919050565b6000611e1f82611e02565b9050919050565b611e2f81611e14565b82525050565b6000602082019050611e4a6000830184611e26565b92915050565b600082825260208201905092915050565b7f5265656e7472616e637947756172643a207265656e7472616e742063616c6c00600082015250565b6000611e97601f83611e50565b9150611ea282611e61565b602082019050919050565b60006020820190508181036000830152611ec681611e8a565b9050919050565b6000604082019050611ee26000830185611a87565b611eef6020830184611a87565b9392505050565b7f416363657373436f6e74726f6c3a2063616e206f6e6c792072656e6f756e636560008201527f20726f6c657320666f722073656c660000000000000000000000000000000000602082015250565b6000611f52602f83611e50565b9150611f5d82611ef6565b604082019050919050565b60006020820190508181036000830152611f8181611f45565b9050919050565b611f9181611c75565b82525050565b6000602082019050611fac6000830184611f88565b92915050565b600081905092915050565b50565b6000611fcd600083611fb2565b9150611fd882611fbd565b600082019050919050565b6000611fee82611fc0565b9150819050919050565b7f4574686572207472616e73666572206661696c65642e00000000000000000000600082015250565b600061202e601683611e50565b915061203982611ff8565b602082019050919050565b6000602082019050818103600083015261205d81612021565b9050919050565b7f4e487b7100000000000000000000000000000000000000000000000000000000600052602160045260246000fd5b7f4e487b7100000000000000000000000000000000000000000000000000000000600052601160045260246000fd5b60006120cd82611a7d565b91506120d883611a7d565b9250827fffffffffffffffffffffffffffffffffffffffffffffffffffffffffffffffff0382111561210d5761210c612093565b5b828201905092915050565b61212181611b5e565b82525050565b600060408201905061213c6000830185612118565b6121496020830184611a87565b9392505050565b7f46756e6374696f6e206661696c65642e00000000000000000000000000000000600082015250565b6000612186601083611e50565b915061219182612150565b602082019050919050565b600060208201905081810360008301526121b581612179565b9050919050565b7f5075726368617365206661696c65642e00000000000000000000000000000000600082015250565b60006121f2601083611e50565b91506121fd826121bc565b602082019050919050565b60006020820190508181036000830152612221816121e5565b9050919050565b60008151905061223781611ce0565b92915050565b600060208284031215612253576122526119bd565b5b600061226184828501612228565b91505092915050565b600061227582611a7d565b915061228083611a7d565b9250817fffffffffffffffffffffffffffffffffffffffffffffffffffffffffffffffff04831182151516156122b9576122b8612093565b5b828202905092915050565b600081905092915050565b7f416363657373436f6e74726f6c3a206163636f756e7420000000000000000000600082015250565b60006123056017836122c4565b9150612310826122cf565b601782019050919050565b600081519050919050565b60005b83811015612344578082015181840152602081019050612329565b83811115612353576000848401525b50505050565b60006123648261231b565b61236e81856122c4565b935061237e818560208601612326565b80840191505092915050565b7f206973206d697373696e6720726f6c6520000000000000000000000000000000600082015250565b60006123c06011836122c4565b91506123cb8261238a565b601182019050919050565b60006123e1826122f8565b91506123ed8285612359565b91506123f8826123b3565b91506124048284612359565b91508190509392505050565b6000601f19601f8301169050919050565b600061242c8261231b565b6124368185611e50565b9350612446818560208601612326565b61244f81612410565b840191505092915050565b600060208201905081810360008301526124748184612421565b905092915050565b7f4e487b7100000000000000000000000000000000000000000000000000000000600052604160045260246000fd5b7f4e487b7100000000000000000000000000000000000000000000000000000000600052603260045260246000fd5b60006124e582611a7d565b915060008214156124f9576124f8612093565b5b600182039050919050565b7f537472696e67733a20686578206c656e67746820696e73756666696369656e74600082015250565b600061253a602083611e50565b915061254582612504565b602082019050919050565b600060208201905081810360008301526125698161252d565b905091905056fea2646970667358221220b859400251288cac538fb77ef47b33de2a2398aca6bf558215c79f9b852dc55164736f6c63430008090033",
  "linkReferences": {},
  "deployedLinkReferences": {}
}