{
  "_format": "hh-sol-artifact-1",
  "contractName": "MoonSale",
  "sourceName": "contracts/main/MoonSale.sol",
  "abi": [
    {
      "inputs": [
        {
          "internalType": "uint256",
          "name": "_rate",
          "type": "uint256"
        },
        {
          "internalType": "address",
          "name": "_token",
          "type": "address"
        },
        {
          "internalType": "uint256",
          "name": "_openingTime",
          "type": "uint256"
        },
        {
          "internalType": "uint256",
          "name": "_closingTime",
          "type": "uint256"
        },
        {
          "internalType": "address payable",
          "name": "_vault",
          "type": "address"
        },
        {
          "internalType": "address payable",
          "name": "_marketWrapper",
          "type": "address"
        }
      ],
      "stateMutability": "nonpayable",
      "type": "constructor"
    },
    {
      "anonymous": false,
      "inputs": [
        {
          "indexed": true,
          "internalType": "bytes32",
          "name": "role",
          "type": "bytes32"
        },
        {
          "indexed": true,
          "internalType": "bytes32",
          "name": "previousAdminRole",
          "type": "bytes32"
        },
        {
          "indexed": true,
          "internalType": "bytes32",
          "name": "newAdminRole",
          "type": "bytes32"
        }
      ],
      "name": "RoleAdminChanged",
      "type": "event"
    },
    {
      "anonymous": false,
      "inputs": [
        {
          "indexed": true,
          "internalType": "bytes32",
          "name": "role",
          "type": "bytes32"
        },
        {
          "indexed": true,
          "internalType": "address",
          "name": "account",
          "type": "address"
        },
        {
          "indexed": true,
          "internalType": "address",
          "name": "sender",
          "type": "address"
        }
      ],
      "name": "RoleGranted",
      "type": "event"
    },
    {
      "anonymous": false,
      "inputs": [
        {
          "indexed": true,
          "internalType": "bytes32",
          "name": "role",
          "type": "bytes32"
        },
        {
          "indexed": true,
          "internalType": "address",
          "name": "account",
          "type": "address"
        },
        {
          "indexed": true,
          "internalType": "address",
          "name": "sender",
          "type": "address"
        }
      ],
      "name": "RoleRevoked",
      "type": "event"
    },
    {
      "anonymous": false,
      "inputs": [
        {
          "indexed": true,
          "internalType": "address",
          "name": "beneficiary",
          "type": "address"
        },
        {
          "indexed": false,
          "internalType": "uint256",
          "name": "value",
          "type": "uint256"
        },
        {
          "indexed": false,
          "internalType": "uint256",
          "name": "amount",
          "type": "uint256"
        }
      ],
      "name": "TokenPurchase",
      "type": "event"
    },
    {
      "stateMutability": "payable",
      "type": "fallback"
    },
    {
      "inputs": [],
      "name": "DEFAULT_ADMIN_ROLE",
      "outputs": [
        {
          "internalType": "bytes32",
          "name": "",
          "type": "bytes32"
        }
      ],
      "stateMutability": "view",
      "type": "function"
    },
    {
      "inputs": [],
      "name": "buyNowPriceInWei",
      "outputs": [
        {
          "internalType": "uint256",
          "name": "",
          "type": "uint256"
        }
      ],
      "stateMutability": "view",
      "type": "function"
    },
    {
      "inputs": [
        {
          "internalType": "address",
          "name": "_beneficiary",
          "type": "address"
        },
        {
          "internalType": "bool",
          "name": "_refundable",
          "type": "bool"
        }
      ],
      "name": "buyTokens",
      "outputs": [],
      "stateMutability": "payable",
      "type": "function"
    },
    {
      "inputs": [],
      "name": "closingTime",
      "outputs": [
        {
          "internalType": "uint256",
          "name": "",
          "type": "uint256"
        }
      ],
      "stateMutability": "view",
      "type": "function"
    },
    {
      "inputs": [
        {
          "internalType": "address payable",
          "name": "to",
          "type": "address"
        }
      ],
      "name": "collectInterest",
      "outputs": [],
      "stateMutability": "nonpayable",
      "type": "function"
    },
    {
      "inputs": [],
      "name": "collectTokens",
      "outputs": [],
      "stateMutability": "nonpayable",
      "type": "function"
    },
    {
      "inputs": [
        {
          "internalType": "uint256",
          "name": "",
          "type": "uint256"
        },
        {
          "internalType": "address",
          "name": "",
          "type": "address"
        }
      ],
      "name": "currentRefundableBalances",
      "outputs": [
        {
          "internalType": "uint256",
          "name": "",
          "type": "uint256"
        }
      ],
      "stateMutability": "view",
      "type": "function"
    },
    {
      "inputs": [],
      "name": "currentRefundableWei",
      "outputs": [
        {
          "internalType": "uint256",
          "name": "",
          "type": "uint256"
        }
      ],
      "stateMutability": "view",
      "type": "function"
    },
    {
      "inputs": [
        {
          "internalType": "address payable",
          "name": "to",
          "type": "address"
        }
      ],
      "name": "emergencyWithdrawal",
      "outputs": [],
      "stateMutability": "payable",
      "type": "function"
    },
    {
      "inputs": [
        {
          "internalType": "bytes32",
          "name": "role",
          "type": "bytes32"
        }
      ],
      "name": "getRoleAdmin",
      "outputs": [
        {
          "internalType": "bytes32",
          "name": "",
          "type": "bytes32"
        }
      ],
      "stateMutability": "view",
      "type": "function"
    },
    {
      "inputs": [],
      "name": "goal",
      "outputs": [
        {
          "internalType": "uint256",
          "name": "",
          "type": "uint256"
        }
      ],
      "stateMutability": "view",
      "type": "function"
    },
    {
      "inputs": [
        {
          "internalType": "address",
          "name": "to",
          "type": "address"
        }
      ],
      "name": "grantOwnerRole",
      "outputs": [],
      "stateMutability": "nonpayable",
      "type": "function"
    },
    {
      "inputs": [
        {
          "internalType": "bytes32",
          "name": "role",
          "type": "bytes32"
        },
        {
          "internalType": "address",
          "name": "account",
          "type": "address"
        }
      ],
      "name": "grantRole",
      "outputs": [],
      "stateMutability": "nonpayable",
      "type": "function"
    },
    {
      "inputs": [
        {
          "internalType": "bytes32",
          "name": "role",
          "type": "bytes32"
        },
        {
          "internalType": "address",
          "name": "account",
          "type": "address"
        }
      ],
      "name": "hasRole",
      "outputs": [
        {
          "internalType": "bool",
          "name": "",
          "type": "bool"
        }
      ],
      "stateMutability": "view",
      "type": "function"
    },
    {
      "inputs": [],
      "name": "interest",
      "outputs": [
        {
          "internalType": "uint256",
          "name": "",
          "type": "uint256"
        }
      ],
      "stateMutability": "view",
      "type": "function"
    },
    {
      "inputs": [],
      "name": "marketWrapper",
      "outputs": [
        {
          "internalType": "contract IMarketWrapper",
          "name": "",
          "type": "address"
        }
      ],
      "stateMutability": "view",
      "type": "function"
    },
    {
      "inputs": [
        {
          "internalType": "uint256",
          "name": "_newClosingTime",
          "type": "uint256"
        }
      ],
      "name": "migration",
      "outputs": [],
      "stateMutability": "nonpayable",
      "type": "function"
    },
    {
      "inputs": [],
      "name": "migrationCount",
      "outputs": [
        {
          "internalType": "uint256",
          "name": "",
          "type": "uint256"
        }
      ],
      "stateMutability": "view",
      "type": "function"
    },
    {
      "inputs": [
        {
          "internalType": "address",
          "name": "",
          "type": "address"
        }
      ],
      "name": "nonRefundableBalances",
      "outputs": [
        {
          "internalType": "uint256",
          "name": "",
          "type": "uint256"
        }
      ],
      "stateMutability": "view",
      "type": "function"
    },
    {
      "inputs": [],
      "name": "openingTime",
      "outputs": [
        {
          "internalType": "uint256",
          "name": "",
          "type": "uint256"
        }
      ],
      "stateMutability": "view",
      "type": "function"
    },
    {
      "inputs": [],
      "name": "rate",
      "outputs": [
        {
          "internalType": "uint256",
          "name": "",
          "type": "uint256"
        }
      ],
      "stateMutability": "view",
      "type": "function"
    },
    {
      "inputs": [],
      "name": "refund",
      "outputs": [],
      "stateMutability": "payable",
      "type": "function"
    },
    {
      "inputs": [
        {
          "internalType": "bytes32",
          "name": "role",
          "type": "bytes32"
        },
        {
          "internalType": "address",
          "name": "account",
          "type": "address"
        }
      ],
      "name": "renounceRole",
      "outputs": [],
      "stateMutability": "nonpayable",
      "type": "function"
    },
    {
      "inputs": [
        {
          "internalType": "bytes32",
          "name": "role",
          "type": "bytes32"
        },
        {
          "internalType": "address",
          "name": "account",
          "type": "address"
        }
      ],
      "name": "revokeRole",
      "outputs": [],
      "stateMutability": "nonpayable",
      "type": "function"
    },
    {
      "inputs": [],
      "name": "state",
      "outputs": [
        {
          "internalType": "enum MoonSale.State",
          "name": "",
          "type": "uint8"
        }
      ],
      "stateMutability": "view",
      "type": "function"
    },
    {
      "inputs": [
        {
          "internalType": "bytes4",
          "name": "interfaceId",
          "type": "bytes4"
        }
      ],
      "name": "supportsInterface",
      "outputs": [
        {
          "internalType": "bool",
          "name": "",
          "type": "bool"
        }
      ],
      "stateMutability": "view",
      "type": "function"
    },
    {
      "inputs": [],
      "name": "token",
      "outputs": [
        {
          "internalType": "contract IToken",
          "name": "",
          "type": "address"
        }
      ],
      "stateMutability": "view",
      "type": "function"
    },
    {
      "inputs": [],
      "name": "vault",
      "outputs": [
        {
          "internalType": "contract IVault",
          "name": "",
          "type": "address"
        }
      ],
      "stateMutability": "view",
      "type": "function"
    },
    {
      "stateMutability": "payable",
      "type": "receive"
    }
  ],
  "bytecode": "0x6080604052600060075560006008553480156200001b57600080fd5b50604051620033513803806200335183398181016040528101906200004191906200052d565b858585856001808190555060018410156200005b57600080fd5b600073ffffffffffffffffffffffffffffffffffffffff168373ffffffffffffffffffffffffffffffffffffffff16036200009557600080fd5b42821015620000a357600080fd5b818111620000b057600080fd5b620000c56000801b33620002a060201b60201c565b8360038190555082600260006101000a81548173ffffffffffffffffffffffffffffffffffffffff021916908373ffffffffffffffffffffffffffffffffffffffff16021790555081600481905550806005819055505050505081600660016101000a81548173ffffffffffffffffffffffffffffffffffffffff021916908373ffffffffffffffffffffffffffffffffffffffff16021790555080600b60006101000a81548173ffffffffffffffffffffffffffffffffffffffff021916908373ffffffffffffffffffffffffffffffffffffffff160217905550600b60009054906101000a900473ffffffffffffffffffffffffffffffffffffffff1673ffffffffffffffffffffffffffffffffffffffff1663a55870886040518163ffffffff1660e01b81526004016020604051808303816000875af115801562000211573d6000803e3d6000fd5b505050506040513d601f19601f82011682018060405250810190620002379190620005c9565b600c819055506014600c546200024e919062000659565b600d819055506200028e600d54600c546200026a919062000691565b600354670de0b6b3a764000062000282919062000659565b6200039160201b60201c565b600e819055505050505050506200078a565b620002b28282620003d160201b60201c565b6200038d57600160008084815260200190815260200160002060000160008373ffffffffffffffffffffffffffffffffffffffff1673ffffffffffffffffffffffffffffffffffffffff16815260200190815260200160002060006101000a81548160ff021916908315150217905550620003326200043b60201b60201c565b73ffffffffffffffffffffffffffffffffffffffff168173ffffffffffffffffffffffffffffffffffffffff16837f2f8788117e7eff1d82e926ec794901d17c78024a50270940304540a733656f0d60405160405180910390a45b5050565b6000818260018486620003a5919062000691565b620003b19190620006ee565b620003bd919062000659565b620003c9919062000729565b905092915050565b600080600084815260200190815260200160002060000160008373ffffffffffffffffffffffffffffffffffffffff1673ffffffffffffffffffffffffffffffffffffffff16815260200190815260200160002060009054906101000a900460ff16905092915050565b600033905090565b600080fd5b6000819050919050565b6200045d8162000448565b81146200046957600080fd5b50565b6000815190506200047d8162000452565b92915050565b600073ffffffffffffffffffffffffffffffffffffffff82169050919050565b6000620004b08262000483565b9050919050565b620004c281620004a3565b8114620004ce57600080fd5b50565b600081519050620004e281620004b7565b92915050565b6000620004f58262000483565b9050919050565b6200050781620004e8565b81146200051357600080fd5b50565b6000815190506200052781620004fc565b92915050565b60008060008060008060c087890312156200054d576200054c62000443565b5b60006200055d89828a016200046c565b96505060206200057089828a01620004d1565b95505060406200058389828a016200046c565b94505060606200059689828a016200046c565b9350506080620005a989828a0162000516565b92505060a0620005bc89828a0162000516565b9150509295509295509295565b600060208284031215620005e257620005e162000443565b5b6000620005f2848285016200046c565b91505092915050565b7f4e487b7100000000000000000000000000000000000000000000000000000000600052601260045260246000fd5b7f4e487b7100000000000000000000000000000000000000000000000000000000600052601160045260246000fd5b6000620006668262000448565b9150620006738362000448565b925082620006865762000685620005fb565b5b828204905092915050565b60006200069e8262000448565b9150620006ab8362000448565b9250827fffffffffffffffffffffffffffffffffffffffffffffffffffffffffffffffff03821115620006e357620006e26200062a565b5b828201905092915050565b6000620006fb8262000448565b9150620007088362000448565b9250828210156200071e576200071d6200062a565b5b828203905092915050565b6000620007368262000448565b9150620007438362000448565b9250817fffffffffffffffffffffffffffffffffffffffffffffffffffffffffffffffff04831182151516156200077f576200077e6200062a565b5b828202905092915050565b612bb7806200079a6000396000f3fe6080604052600436106101bb5760003560e01c80637a37ac26116100ec578063c392f7661161008a578063e640d86211610064578063e640d862146105df578063ef38bf0114610608578063fbfa77cf14610633578063fc0c546a1461065e576101cd565b8063c392f76614610560578063c97f8d6e1461058b578063d547741f146105b6576101cd565b8063a217fddf116100c6578063a217fddf146104c3578063b7a8807c146104ee578063bbdc907714610519578063c19d93fb14610535576101cd565b80637a37ac26146104445780638433acd11461046f57806391d1485414610486576101cd565b8063397a8bab11610159578063590e1ae311610133578063590e1ae3146103b857806361c9d81c146103c25780636e353a1d146103eb57806374d00f6714610407576101cd565b8063397a8bab1461033957806340193883146103625780634b6753bc1461038d576101cd565b80632c4e722e116101955780632c4e722e1461027f5780632f2ff15d146102aa57806331f36bd9146102d357806336568abe14610310576101cd565b806301ffc9a7146101da5780630c3ca20f14610217578063248a9ca314610242576101cd565b366101cd576101cb336001610689565b005b6101d8336001610689565b005b3480156101e657600080fd5b5061020160048036038101906101fc9190611e29565b610762565b60405161020e9190611e71565b60405180910390f35b34801561022357600080fd5b5061022c6107dc565b6040516102399190611ea5565b60405180910390f35b34801561024e57600080fd5b5061026960048036038101906102649190611ef6565b6107e2565b6040516102769190611f32565b60405180910390f35b34801561028b57600080fd5b50610294610801565b6040516102a19190611ea5565b60405180910390f35b3480156102b657600080fd5b506102d160048036038101906102cc9190611fab565b610807565b005b3480156102df57600080fd5b506102fa60048036038101906102f59190612017565b610828565b6040516103079190611ea5565b60405180910390f35b34801561031c57600080fd5b5061033760048036038101906103329190611fab565b61084d565b005b34801561034557600080fd5b50610360600480360381019061035b9190612057565b6108d0565b005b34801561036e57600080fd5b506103776108ee565b6040516103849190611ea5565b60405180910390f35b34801561039957600080fd5b506103a26108f4565b6040516103af9190611ea5565b60405180910390f35b6103c06108fa565b005b3480156103ce57600080fd5b506103e960048036038101906103e491906120c2565b610a3c565b005b610405600480360381019061040091906120c2565b610b8d565b005b34801561041357600080fd5b5061042e60048036038101906104299190612057565b610c4b565b60405161043b9190611ea5565b60405180910390f35b34801561045057600080fd5b50610459610c63565b6040516104669190611ea5565b60405180910390f35b34801561047b57600080fd5b50610484610c69565b005b34801561049257600080fd5b506104ad60048036038101906104a89190611fab565b610f3d565b6040516104ba9190611e71565b60405180910390f35b3480156104cf57600080fd5b506104d8610fa7565b6040516104e59190611f32565b60405180910390f35b3480156104fa57600080fd5b50610503610fae565b6040516105109190611ea5565b60405180910390f35b610533600480360381019061052e919061211b565b610689565b005b34801561054157600080fd5b5061054a610fb4565b60405161055791906121d2565b60405180910390f35b34801561056c57600080fd5b50610575610fc7565b6040516105829190611ea5565b60405180910390f35b34801561059757600080fd5b506105a0610fcd565b6040516105ad9190611ea5565b60405180910390f35b3480156105c257600080fd5b506105dd60048036038101906105d89190611fab565b610fd3565b005b3480156105eb57600080fd5b50610606600480360381019061060191906121ed565b610ff4565b005b34801561061457600080fd5b5061061d611244565b60405161062a9190612279565b60405180910390f35b34801561063f57600080fd5b5061064861126a565b60405161065591906122b5565b60405180910390f35b34801561066a57600080fd5b50610673611290565b6040516106809190612303565b60405180910390f35b6002600154036106ce576040517f08c379a00000000000000000000000000000000000000000000000000000000081526004016106c59061237b565b60405180910390fd5b600260018190555060003490506106e583826112b6565b60006106f082611340565b90506106fd84838561135e565b8373ffffffffffffffffffffffffffffffffffffffff167fcd60aa75dea3072fbc07ae6d7d856b5dc5f4eee88854f5b4abf7b680ef8bc50f838360405161074592919061239b565b60405180910390a26107556114d6565b5050600180819055505050565b60007f7965db0b000000000000000000000000000000000000000000000000000000007bffffffffffffffffffffffffffffffffffffffffffffffffffffffff1916827bffffffffffffffffffffffffffffffffffffffffffffffffffffffff191614806107d557506107d482611753565b5b9050919050565b60075481565b6000806000838152602001908152602001600020600101549050919050565b60035481565b610810826107e2565b610819816117bd565b61082383836117d1565b505050565b6009602052816000526040600020602052806000526040600020600091509150505481565b6108556118b1565b73ffffffffffffffffffffffffffffffffffffffff168173ffffffffffffffffffffffffffffffffffffffff16146108c2576040517f08c379a00000000000000000000000000000000000000000000000000000000081526004016108b990612436565b60405180910390fd5b6108cc82826118b9565b5050565b6000801b6108dd816117bd565b6108ea6000801b836117d1565b5050565b600e5481565b60055481565b60026001540361093f576040517f08c379a00000000000000000000000000000000000000000000000000000000081526004016109369061237b565b60405180910390fd5b6002600181905550600060096000600854815260200190815260200160002060003373ffffffffffffffffffffffffffffffffffffffff1673ffffffffffffffffffffffffffffffffffffffff16815260200190815260200160002054146109a657600080fd5b600660019054906101000a900473ffffffffffffffffffffffffffffffffffffffff1673ffffffffffffffffffffffffffffffffffffffff1663fa89401a336040518263ffffffff1660e01b8152600401610a019190612465565b600060405180830381600087803b158015610a1b57600080fd5b505af1158015610a2f573d6000803e3d6000fd5b5050505060018081905550565b6000801b610a49816117bd565b600260015403610a8e576040517f08c379a0000000000000000000000000000000000000000000000000000000008152600401610a859061237b565b60405180910390fd5b6002600181905550600180811115610aa957610aa861215b565b5b600660009054906101000a900460ff166001811115610acb57610aca61215b565b5b14610ad557600080fd5b60008273ffffffffffffffffffffffffffffffffffffffff1647604051610afb906124b1565b60006040518083038185875af1925050503d8060008114610b38576040519150601f19603f3d011682016040523d82523d6000602084013e610b3d565b606091505b5050905080610b81576040517f08c379a0000000000000000000000000000000000000000000000000000000008152600401610b7890612512565b60405180910390fd5b50600180819055505050565b6000801b610b9a816117bd565b60008273ffffffffffffffffffffffffffffffffffffffff1647604051610bc0906124b1565b60006040518083038185875af1925050503d8060008114610bfd576040519150601f19603f3d011682016040523d82523d6000602084013e610c02565b606091505b5050905080610c46576040517f08c379a0000000000000000000000000000000000000000000000000000000008152600401610c3d90612512565b60405180910390fd5b505050565b600a6020528060005260406000206000915090505481565b60085481565b600260015403610cae576040517f08c379a0000000000000000000000000000000000000000000000000000000008152600401610ca59061237b565b60405180910390fd5b6002600181905550600180811115610cc957610cc861215b565b5b600660009054906101000a900460ff166001811115610ceb57610cea61215b565b5b14610cf557600080fd5b6000600a60003373ffffffffffffffffffffffffffffffffffffffff1673ffffffffffffffffffffffffffffffffffffffff1681526020019081526020016000205460096000600854815260200190815260200160002060003373ffffffffffffffffffffffffffffffffffffffff1673ffffffffffffffffffffffffffffffffffffffff16815260200190815260200160002054610d949190612561565b905060008111610da357600080fd5b600660019054906101000a900473ffffffffffffffffffffffffffffffffffffffff1673ffffffffffffffffffffffffffffffffffffffff16630a2f487b3360096000600854815260200190815260200160002060003373ffffffffffffffffffffffffffffffffffffffff1673ffffffffffffffffffffffffffffffffffffffff168152602001908152602001600020546040518363ffffffff1660e01b8152600401610e529291906125c6565b600060405180830381600087803b158015610e6c57600080fd5b505af1158015610e80573d6000803e3d6000fd5b50505050600060096000600854815260200190815260200160002060003373ffffffffffffffffffffffffffffffffffffffff1673ffffffffffffffffffffffffffffffffffffffff168152602001908152602001600020819055506000600a60003373ffffffffffffffffffffffffffffffffffffffff1673ffffffffffffffffffffffffffffffffffffffff16815260200190815260200160002081905550610f3333610f2e83611340565b61199a565b5060018081905550565b600080600084815260200190815260200160002060000160008373ffffffffffffffffffffffffffffffffffffffff1673ffffffffffffffffffffffffffffffffffffffff16815260200190815260200160002060009054906101000a900460ff16905092915050565b6000801b81565b60045481565b600660009054906101000a900460ff1681565b600d5481565b600c5481565b610fdc826107e2565b610fe5816117bd565b610fef83836118b9565b505050565b600060018111156110085761100761215b565b5b600660009054906101000a900460ff16600181111561102a5761102961215b565b5b1461103457600080fd5b6000801b611041816117bd565b600454821161104f57600080fd5b600b60009054906101000a900473ffffffffffffffffffffffffffffffffffffffff1673ffffffffffffffffffffffffffffffffffffffff1663a55870886040518163ffffffff1660e01b81526004016020604051808303816000875af11580156110be573d6000803e3d6000fd5b505050506040513d601f19601f820116820180604052508101906110e29190612604565b600c819055506014600c546110f79190612660565b600d8190555061112b600d54600c546111109190612561565b600354670de0b6b3a76400006111269190612660565b611a4d565b600e819055506000600660019054906101000a900473ffffffffffffffffffffffffffffffffffffffff16905060008173ffffffffffffffffffffffffffffffffffffffff16600754604051611180906124b1565b60006040518083038185875af1925050503d80600081146111bd576040519150601f19603f3d011682016040523d82523d6000602084013e6111c2565b606091505b5050905080611206576040517f08c379a00000000000000000000000000000000000000000000000000000000081526004016111fd906126dd565b60405180910390fd5b60006007819055506001600860008282546112219190612561565b92505081905550426004819055508360058190555061123e6114d6565b50505050565b600b60009054906101000a900473ffffffffffffffffffffffffffffffffffffffff1681565b600660019054906101000a900473ffffffffffffffffffffffffffffffffffffffff1681565b600260009054906101000a900473ffffffffffffffffffffffffffffffffffffffff1681565b6112c08282611a85565b600060018111156112d4576112d361215b565b5b600660009054906101000a900460ff1660018111156112f6576112f561215b565b5b1461130057600080fd5b6000600354670de0b6b3a76400006113189190612660565b8261132391906126fd565b1461132d57600080fd5b600e5447111561133c57600080fd5b5050565b600061135760035483611add90919063ffffffff16565b9050919050565b801561147a578160096000600854815260200190815260200160002060008573ffffffffffffffffffffffffffffffffffffffff1673ffffffffffffffffffffffffffffffffffffffff16815260200190815260200160002060008282546113c69190612561565b92505081905550600660019054906101000a900473ffffffffffffffffffffffffffffffffffffffff1673ffffffffffffffffffffffffffffffffffffffff16636f485d6c84846040518363ffffffff1660e01b815260040161142a9291906125c6565b600060405180830381600087803b15801561144457600080fd5b505af1158015611458573d6000803e3d6000fd5b50505050816007600082825461146e9190612561565b925050819055506114d1565b81600a60008573ffffffffffffffffffffffffffffffffffffffff1673ffffffffffffffffffffffffffffffffffffffff16815260200190815260200160002060008282546114c99190612561565b925050819055505b505050565b600d54600c546114e69190612561565b4710611751576000600b60009054906101000a900473ffffffffffffffffffffffffffffffffffffffff16905060008173ffffffffffffffffffffffffffffffffffffffff16600c5460405161153b906124b1565b60006040518083038185875af1925050503d8060008114611578576040519150601f19603f3d011682016040523d82523d6000602084013e61157d565b606091505b50509050806115c1576040517f08c379a00000000000000000000000000000000000000000000000000000000081526004016115b89061277a565b60405180910390fd5b6000600b60009054906101000a900473ffffffffffffffffffffffffffffffffffffffff1673ffffffffffffffffffffffffffffffffffffffff16639c3962f06040518163ffffffff1660e01b81526004016020604051808303816000875af1158015611632573d6000803e3d6000fd5b505050506040513d601f19601f8201168201806040525081019061165691906127af565b905080611698576040517f08c379a000000000000000000000000000000000000000000000000000000000815260040161168f90612828565b60405180910390fd5b6000600781905550600660019054906101000a900473ffffffffffffffffffffffffffffffffffffffff1673ffffffffffffffffffffffffffffffffffffffff166343d726d66040518163ffffffff1660e01b8152600401600060405180830381600087803b15801561170a57600080fd5b505af115801561171e573d6000803e3d6000fd5b505050506001600660006101000a81548160ff021916908360018111156117485761174761215b565b5b02179055505050505b565b60007f01ffc9a7000000000000000000000000000000000000000000000000000000007bffffffffffffffffffffffffffffffffffffffffffffffffffffffff1916827bffffffffffffffffffffffffffffffffffffffffffffffffffffffff1916149050919050565b6117ce816117c96118b1565b611af3565b50565b6117db8282610f3d565b6118ad57600160008084815260200190815260200160002060000160008373ffffffffffffffffffffffffffffffffffffffff1673ffffffffffffffffffffffffffffffffffffffff16815260200190815260200160002060006101000a81548160ff0219169083151502179055506118526118b1565b73ffffffffffffffffffffffffffffffffffffffff168173ffffffffffffffffffffffffffffffffffffffff16837f2f8788117e7eff1d82e926ec794901d17c78024a50270940304540a733656f0d60405160405180910390a45b5050565b600033905090565b6118c38282610f3d565b1561199657600080600084815260200190815260200160002060000160008373ffffffffffffffffffffffffffffffffffffffff1673ffffffffffffffffffffffffffffffffffffffff16815260200190815260200160002060006101000a81548160ff02191690831515021790555061193b6118b1565b73ffffffffffffffffffffffffffffffffffffffff168173ffffffffffffffffffffffffffffffffffffffff16837ff6391f5c32d9c69d2a47ea670b442974b53935d1edc7fd64eb21e047a839171b60405160405180910390a45b5050565b600260009054906101000a900473ffffffffffffffffffffffffffffffffffffffff1673ffffffffffffffffffffffffffffffffffffffff166340c10f1983600354670de0b6b3a76400006119ef9190612660565b846119fa9190612660565b6040518363ffffffff1660e01b8152600401611a179291906125c6565b600060405180830381600087803b158015611a3157600080fd5b505af1158015611a45573d6000803e3d6000fd5b505050505050565b6000818260018486611a5f9190612561565b611a699190612848565b611a739190612660565b611a7d919061287c565b905092915050565b6005544210611a9357600080fd5b600073ffffffffffffffffffffffffffffffffffffffff168273ffffffffffffffffffffffffffffffffffffffff1603611acc57600080fd5b60008103611ad957600080fd5b5050565b60008183611aeb919061287c565b905092915050565b611afd8282610f3d565b611b8c57611b228173ffffffffffffffffffffffffffffffffffffffff166014611b90565b611b308360001c6020611b90565b604051602001611b419291906129e8565b6040516020818303038152906040526040517f08c379a0000000000000000000000000000000000000000000000000000000008152600401611b839190612a6c565b60405180910390fd5b5050565b606060006002836002611ba3919061287c565b611bad9190612561565b67ffffffffffffffff811115611bc657611bc5612a8e565b5b6040519080825280601f01601f191660200182016040528015611bf85781602001600182028036833780820191505090505b5090507f300000000000000000000000000000000000000000000000000000000000000081600081518110611c3057611c2f612abd565b5b60200101907effffffffffffffffffffffffffffffffffffffffffffffffffffffffffffff1916908160001a9053507f780000000000000000000000000000000000000000000000000000000000000081600181518110611c9457611c93612abd565b5b60200101907effffffffffffffffffffffffffffffffffffffffffffffffffffffffffffff1916908160001a90535060006001846002611cd4919061287c565b611cde9190612561565b90505b6001811115611d7e577f3031323334353637383961626364656600000000000000000000000000000000600f861660108110611d2057611d1f612abd565b5b1a60f81b828281518110611d3757611d36612abd565b5b60200101907effffffffffffffffffffffffffffffffffffffffffffffffffffffffffffff1916908160001a905350600485901c945080611d7790612aec565b9050611ce1565b5060008414611dc2576040517f08c379a0000000000000000000000000000000000000000000000000000000008152600401611db990612b61565b60405180910390fd5b8091505092915050565b600080fd5b60007fffffffff0000000000000000000000000000000000000000000000000000000082169050919050565b611e0681611dd1565b8114611e1157600080fd5b50565b600081359050611e2381611dfd565b92915050565b600060208284031215611e3f57611e3e611dcc565b5b6000611e4d84828501611e14565b91505092915050565b60008115159050919050565b611e6b81611e56565b82525050565b6000602082019050611e866000830184611e62565b92915050565b6000819050919050565b611e9f81611e8c565b82525050565b6000602082019050611eba6000830184611e96565b92915050565b6000819050919050565b611ed381611ec0565b8114611ede57600080fd5b50565b600081359050611ef081611eca565b92915050565b600060208284031215611f0c57611f0b611dcc565b5b6000611f1a84828501611ee1565b91505092915050565b611f2c81611ec0565b82525050565b6000602082019050611f476000830184611f23565b92915050565b600073ffffffffffffffffffffffffffffffffffffffff82169050919050565b6000611f7882611f4d565b9050919050565b611f8881611f6d565b8114611f9357600080fd5b50565b600081359050611fa581611f7f565b92915050565b60008060408385031215611fc257611fc1611dcc565b5b6000611fd085828601611ee1565b9250506020611fe185828601611f96565b9150509250929050565b611ff481611e8c565b8114611fff57600080fd5b50565b60008135905061201181611feb565b92915050565b6000806040838503121561202e5761202d611dcc565b5b600061203c85828601612002565b925050602061204d85828601611f96565b9150509250929050565b60006020828403121561206d5761206c611dcc565b5b600061207b84828501611f96565b91505092915050565b600061208f82611f4d565b9050919050565b61209f81612084565b81146120aa57600080fd5b50565b6000813590506120bc81612096565b92915050565b6000602082840312156120d8576120d7611dcc565b5b60006120e6848285016120ad565b91505092915050565b6120f881611e56565b811461210357600080fd5b50565b600081359050612115816120ef565b92915050565b6000806040838503121561213257612131611dcc565b5b600061214085828601611f96565b925050602061215185828601612106565b9150509250929050565b7f4e487b7100000000000000000000000000000000000000000000000000000000600052602160045260246000fd5b6002811061219b5761219a61215b565b5b50565b60008190506121ac8261218a565b919050565b60006121bc8261219e565b9050919050565b6121cc816121b1565b82525050565b60006020820190506121e760008301846121c3565b92915050565b60006020828403121561220357612202611dcc565b5b600061221184828501612002565b91505092915050565b6000819050919050565b600061223f61223a61223584611f4d565b61221a565b611f4d565b9050919050565b600061225182612224565b9050919050565b600061226382612246565b9050919050565b61227381612258565b82525050565b600060208201905061228e600083018461226a565b92915050565b600061229f82612246565b9050919050565b6122af81612294565b82525050565b60006020820190506122ca60008301846122a6565b92915050565b60006122db82612224565b9050919050565b60006122ed826122d0565b9050919050565b6122fd816122e2565b82525050565b600060208201905061231860008301846122f4565b92915050565b600082825260208201905092915050565b7f5265656e7472616e637947756172643a207265656e7472616e742063616c6c00600082015250565b6000612365601f8361231e565b91506123708261232f565b602082019050919050565b6000602082019050818103600083015261239481612358565b9050919050565b60006040820190506123b06000830185611e96565b6123bd6020830184611e96565b9392505050565b7f416363657373436f6e74726f6c3a2063616e206f6e6c792072656e6f756e636560008201527f20726f6c657320666f722073656c660000000000000000000000000000000000602082015250565b6000612420602f8361231e565b915061242b826123c4565b604082019050919050565b6000602082019050818103600083015261244f81612413565b9050919050565b61245f81612084565b82525050565b600060208201905061247a6000830184612456565b92915050565b600081905092915050565b50565b600061249b600083612480565b91506124a68261248b565b600082019050919050565b60006124bc8261248e565b9150819050919050565b7f4574686572207472616e73666572206661696c65642e00000000000000000000600082015250565b60006124fc60168361231e565b9150612507826124c6565b602082019050919050565b6000602082019050818103600083015261252b816124ef565b9050919050565b7f4e487b7100000000000000000000000000000000000000000000000000000000600052601160045260246000fd5b600061256c82611e8c565b915061257783611e8c565b9250827fffffffffffffffffffffffffffffffffffffffffffffffffffffffffffffffff038211156125ac576125ab612532565b5b828201905092915050565b6125c081611f6d565b82525050565b60006040820190506125db60008301856125b7565b6125e86020830184611e96565b9392505050565b6000815190506125fe81611feb565b92915050565b60006020828403121561261a57612619611dcc565b5b6000612628848285016125ef565b91505092915050565b7f4e487b7100000000000000000000000000000000000000000000000000000000600052601260045260246000fd5b600061266b82611e8c565b915061267683611e8c565b92508261268657612685612631565b5b828204905092915050565b7f46756e6374696f6e206661696c65642e00000000000000000000000000000000600082015250565b60006126c760108361231e565b91506126d282612691565b602082019050919050565b600060208201905081810360008301526126f6816126ba565b9050919050565b600061270882611e8c565b915061271383611e8c565b92508261272357612722612631565b5b828206905092915050565b7f5472616e73666572206661696c65642e00000000000000000000000000000000600082015250565b600061276460108361231e565b915061276f8261272e565b602082019050919050565b6000602082019050818103600083015261279381612757565b9050919050565b6000815190506127a9816120ef565b92915050565b6000602082840312156127c5576127c4611dcc565b5b60006127d38482850161279a565b91505092915050565b7f507572636861736520206661696c65642e000000000000000000000000000000600082015250565b600061281260118361231e565b915061281d826127dc565b602082019050919050565b6000602082019050818103600083015261284181612805565b9050919050565b600061285382611e8c565b915061285e83611e8c565b92508282101561287157612870612532565b5b828203905092915050565b600061288782611e8c565b915061289283611e8c565b9250817fffffffffffffffffffffffffffffffffffffffffffffffffffffffffffffffff04831182151516156128cb576128ca612532565b5b828202905092915050565b600081905092915050565b7f416363657373436f6e74726f6c3a206163636f756e7420000000000000000000600082015250565b60006129176017836128d6565b9150612922826128e1565b601782019050919050565b600081519050919050565b60005b8381101561295657808201518184015260208101905061293b565b83811115612965576000848401525b50505050565b60006129768261292d565b61298081856128d6565b9350612990818560208601612938565b80840191505092915050565b7f206973206d697373696e6720726f6c6520000000000000000000000000000000600082015250565b60006129d26011836128d6565b91506129dd8261299c565b601182019050919050565b60006129f38261290a565b91506129ff828561296b565b9150612a0a826129c5565b9150612a16828461296b565b91508190509392505050565b6000601f19601f8301169050919050565b6000612a3e8261292d565b612a48818561231e565b9350612a58818560208601612938565b612a6181612a22565b840191505092915050565b60006020820190508181036000830152612a868184612a33565b905092915050565b7f4e487b7100000000000000000000000000000000000000000000000000000000600052604160045260246000fd5b7f4e487b7100000000000000000000000000000000000000000000000000000000600052603260045260246000fd5b6000612af782611e8c565b915060008203612b0a57612b09612532565b5b600182039050919050565b7f537472696e67733a20686578206c656e67746820696e73756666696369656e74600082015250565b6000612b4b60208361231e565b9150612b5682612b15565b602082019050919050565b60006020820190508181036000830152612b7a81612b3e565b905091905056fea26469706673582212204d90bf2bcdf24ab1a44555186a8e5156ec616a42624a2d718faf3b48638ceb7664736f6c634300080d0033",
  "linkReferences": {},
  "deployedLinkReferences": {}
}