{
  "_format": "hh-sol-artifact-1",
  "contractName": "MoonSale",
  "sourceName": "contracts/main/MoonSale.sol",
  "abi": [
    {
      "inputs": [
        {
          "internalType": "uint256",
          "name": "_rate",
          "type": "uint256"
        },
        {
          "internalType": "address",
          "name": "_token",
          "type": "address"
        },
        {
          "internalType": "uint256",
          "name": "_openingTime",
          "type": "uint256"
        },
        {
          "internalType": "uint256",
          "name": "_closingTime",
          "type": "uint256"
        },
        {
          "internalType": "address payable",
          "name": "_vault",
          "type": "address"
        },
        {
          "internalType": "address payable",
          "name": "_marketWrapper",
          "type": "address"
        }
      ],
      "stateMutability": "nonpayable",
      "type": "constructor"
    },
    {
      "anonymous": false,
      "inputs": [
        {
          "indexed": true,
          "internalType": "bytes32",
          "name": "role",
          "type": "bytes32"
        },
        {
          "indexed": true,
          "internalType": "bytes32",
          "name": "previousAdminRole",
          "type": "bytes32"
        },
        {
          "indexed": true,
          "internalType": "bytes32",
          "name": "newAdminRole",
          "type": "bytes32"
        }
      ],
      "name": "RoleAdminChanged",
      "type": "event"
    },
    {
      "anonymous": false,
      "inputs": [
        {
          "indexed": true,
          "internalType": "bytes32",
          "name": "role",
          "type": "bytes32"
        },
        {
          "indexed": true,
          "internalType": "address",
          "name": "account",
          "type": "address"
        },
        {
          "indexed": true,
          "internalType": "address",
          "name": "sender",
          "type": "address"
        }
      ],
      "name": "RoleGranted",
      "type": "event"
    },
    {
      "anonymous": false,
      "inputs": [
        {
          "indexed": true,
          "internalType": "bytes32",
          "name": "role",
          "type": "bytes32"
        },
        {
          "indexed": true,
          "internalType": "address",
          "name": "account",
          "type": "address"
        },
        {
          "indexed": true,
          "internalType": "address",
          "name": "sender",
          "type": "address"
        }
      ],
      "name": "RoleRevoked",
      "type": "event"
    },
    {
      "anonymous": false,
      "inputs": [
        {
          "indexed": true,
          "internalType": "address",
          "name": "beneficiary",
          "type": "address"
        },
        {
          "indexed": false,
          "internalType": "uint256",
          "name": "value",
          "type": "uint256"
        },
        {
          "indexed": false,
          "internalType": "uint256",
          "name": "amount",
          "type": "uint256"
        }
      ],
      "name": "TokenPurchase",
      "type": "event"
    },
    {
      "stateMutability": "payable",
      "type": "fallback"
    },
    {
      "inputs": [],
      "name": "DEFAULT_ADMIN_ROLE",
      "outputs": [
        {
          "internalType": "bytes32",
          "name": "",
          "type": "bytes32"
        }
      ],
      "stateMutability": "view",
      "type": "function"
    },
    {
      "inputs": [],
      "name": "buyNowPriceInWei",
      "outputs": [
        {
          "internalType": "uint256",
          "name": "",
          "type": "uint256"
        }
      ],
      "stateMutability": "view",
      "type": "function"
    },
    {
      "inputs": [
        {
          "internalType": "address",
          "name": "_beneficiary",
          "type": "address"
        },
        {
          "internalType": "bool",
          "name": "_refundable",
          "type": "bool"
        }
      ],
      "name": "buyTokens",
      "outputs": [],
      "stateMutability": "payable",
      "type": "function"
    },
    {
      "inputs": [],
      "name": "closingTime",
      "outputs": [
        {
          "internalType": "uint256",
          "name": "",
          "type": "uint256"
        }
      ],
      "stateMutability": "view",
      "type": "function"
    },
    {
      "inputs": [
        {
          "internalType": "address payable",
          "name": "to",
          "type": "address"
        }
      ],
      "name": "collectInterest",
      "outputs": [],
      "stateMutability": "nonpayable",
      "type": "function"
    },
    {
      "inputs": [],
      "name": "collectTokens",
      "outputs": [],
      "stateMutability": "nonpayable",
      "type": "function"
    },
    {
      "inputs": [
        {
          "internalType": "uint256",
          "name": "",
          "type": "uint256"
        },
        {
          "internalType": "address",
          "name": "",
          "type": "address"
        }
      ],
      "name": "currentRefundableBalances",
      "outputs": [
        {
          "internalType": "uint256",
          "name": "",
          "type": "uint256"
        }
      ],
      "stateMutability": "view",
      "type": "function"
    },
    {
      "inputs": [],
      "name": "currentRefundableWei",
      "outputs": [
        {
          "internalType": "uint256",
          "name": "",
          "type": "uint256"
        }
      ],
      "stateMutability": "view",
      "type": "function"
    },
    {
      "inputs": [
        {
          "internalType": "address payable",
          "name": "to",
          "type": "address"
        }
      ],
      "name": "emergencyWithdrawal",
      "outputs": [],
      "stateMutability": "payable",
      "type": "function"
    },
    {
      "inputs": [
        {
          "internalType": "bytes32",
          "name": "role",
          "type": "bytes32"
        }
      ],
      "name": "getRoleAdmin",
      "outputs": [
        {
          "internalType": "bytes32",
          "name": "",
          "type": "bytes32"
        }
      ],
      "stateMutability": "view",
      "type": "function"
    },
    {
      "inputs": [],
      "name": "goal",
      "outputs": [
        {
          "internalType": "uint256",
          "name": "",
          "type": "uint256"
        }
      ],
      "stateMutability": "view",
      "type": "function"
    },
    {
      "inputs": [
        {
          "internalType": "address",
          "name": "to",
          "type": "address"
        }
      ],
      "name": "grantOwnerRole",
      "outputs": [],
      "stateMutability": "nonpayable",
      "type": "function"
    },
    {
      "inputs": [
        {
          "internalType": "bytes32",
          "name": "role",
          "type": "bytes32"
        },
        {
          "internalType": "address",
          "name": "account",
          "type": "address"
        }
      ],
      "name": "grantRole",
      "outputs": [],
      "stateMutability": "nonpayable",
      "type": "function"
    },
    {
      "inputs": [
        {
          "internalType": "bytes32",
          "name": "role",
          "type": "bytes32"
        },
        {
          "internalType": "address",
          "name": "account",
          "type": "address"
        }
      ],
      "name": "hasRole",
      "outputs": [
        {
          "internalType": "bool",
          "name": "",
          "type": "bool"
        }
      ],
      "stateMutability": "view",
      "type": "function"
    },
    {
      "inputs": [],
      "name": "interest",
      "outputs": [
        {
          "internalType": "uint256",
          "name": "",
          "type": "uint256"
        }
      ],
      "stateMutability": "view",
      "type": "function"
    },
    {
      "inputs": [],
      "name": "marketWrapper",
      "outputs": [
        {
          "internalType": "contract IMarketWrapper",
          "name": "",
          "type": "address"
        }
      ],
      "stateMutability": "view",
      "type": "function"
    },
    {
      "inputs": [
        {
          "internalType": "uint256",
          "name": "_newClosingTime",
          "type": "uint256"
        }
      ],
      "name": "migration",
      "outputs": [],
      "stateMutability": "nonpayable",
      "type": "function"
    },
    {
      "inputs": [],
      "name": "migrationCount",
      "outputs": [
        {
          "internalType": "uint256",
          "name": "",
          "type": "uint256"
        }
      ],
      "stateMutability": "view",
      "type": "function"
    },
    {
      "inputs": [
        {
          "internalType": "address",
          "name": "",
          "type": "address"
        }
      ],
      "name": "nonRefundableBalances",
      "outputs": [
        {
          "internalType": "uint256",
          "name": "",
          "type": "uint256"
        }
      ],
      "stateMutability": "view",
      "type": "function"
    },
    {
      "inputs": [],
      "name": "openingTime",
      "outputs": [
        {
          "internalType": "uint256",
          "name": "",
          "type": "uint256"
        }
      ],
      "stateMutability": "view",
      "type": "function"
    },
    {
      "inputs": [],
      "name": "rate",
      "outputs": [
        {
          "internalType": "uint256",
          "name": "",
          "type": "uint256"
        }
      ],
      "stateMutability": "view",
      "type": "function"
    },
    {
      "inputs": [],
      "name": "refund",
      "outputs": [],
      "stateMutability": "payable",
      "type": "function"
    },
    {
      "inputs": [
        {
          "internalType": "bytes32",
          "name": "role",
          "type": "bytes32"
        },
        {
          "internalType": "address",
          "name": "account",
          "type": "address"
        }
      ],
      "name": "renounceRole",
      "outputs": [],
      "stateMutability": "nonpayable",
      "type": "function"
    },
    {
      "inputs": [
        {
          "internalType": "bytes32",
          "name": "role",
          "type": "bytes32"
        },
        {
          "internalType": "address",
          "name": "account",
          "type": "address"
        }
      ],
      "name": "revokeRole",
      "outputs": [],
      "stateMutability": "nonpayable",
      "type": "function"
    },
    {
      "inputs": [],
      "name": "state",
      "outputs": [
        {
          "internalType": "enum MoonSale.State",
          "name": "",
          "type": "uint8"
        }
      ],
      "stateMutability": "view",
      "type": "function"
    },
    {
      "inputs": [
        {
          "internalType": "bytes4",
          "name": "interfaceId",
          "type": "bytes4"
        }
      ],
      "name": "supportsInterface",
      "outputs": [
        {
          "internalType": "bool",
          "name": "",
          "type": "bool"
        }
      ],
      "stateMutability": "view",
      "type": "function"
    },
    {
      "inputs": [],
      "name": "token",
      "outputs": [
        {
          "internalType": "contract IToken",
          "name": "",
          "type": "address"
        }
      ],
      "stateMutability": "view",
      "type": "function"
    },
    {
      "inputs": [],
      "name": "vault",
      "outputs": [
        {
          "internalType": "contract IVault",
          "name": "",
          "type": "address"
        }
      ],
      "stateMutability": "view",
      "type": "function"
    },
    {
      "stateMutability": "payable",
      "type": "receive"
    }
  ],
  "bytecode": "0x6080604052600060075560006008553480156200001b57600080fd5b50604051620033483803806200334883398181016040528101906200004191906200052d565b858585856001808190555060018410156200005b57600080fd5b600073ffffffffffffffffffffffffffffffffffffffff168373ffffffffffffffffffffffffffffffffffffffff16036200009557600080fd5b42821015620000a357600080fd5b818111620000b057600080fd5b620000c56000801b33620002a060201b60201c565b8360038190555082600260006101000a81548173ffffffffffffffffffffffffffffffffffffffff021916908373ffffffffffffffffffffffffffffffffffffffff16021790555081600481905550806005819055505050505081600660016101000a81548173ffffffffffffffffffffffffffffffffffffffff021916908373ffffffffffffffffffffffffffffffffffffffff16021790555080600b60006101000a81548173ffffffffffffffffffffffffffffffffffffffff021916908373ffffffffffffffffffffffffffffffffffffffff160217905550600b60009054906101000a900473ffffffffffffffffffffffffffffffffffffffff1673ffffffffffffffffffffffffffffffffffffffff1663a55870886040518163ffffffff1660e01b81526004016020604051808303816000875af115801562000211573d6000803e3d6000fd5b505050506040513d601f19601f82011682018060405250810190620002379190620005c9565b600c819055506014600c546200024e919062000659565b600d819055506200028e600d54600c546200026a919062000691565b600354670de0b6b3a764000062000282919062000659565b6200039160201b60201c565b600e819055505050505050506200078a565b620002b28282620003d160201b60201c565b6200038d57600160008084815260200190815260200160002060000160008373ffffffffffffffffffffffffffffffffffffffff1673ffffffffffffffffffffffffffffffffffffffff16815260200190815260200160002060006101000a81548160ff021916908315150217905550620003326200043b60201b60201c565b73ffffffffffffffffffffffffffffffffffffffff168173ffffffffffffffffffffffffffffffffffffffff16837f2f8788117e7eff1d82e926ec794901d17c78024a50270940304540a733656f0d60405160405180910390a45b5050565b6000818260018486620003a5919062000691565b620003b19190620006ee565b620003bd919062000659565b620003c9919062000729565b905092915050565b600080600084815260200190815260200160002060000160008373ffffffffffffffffffffffffffffffffffffffff1673ffffffffffffffffffffffffffffffffffffffff16815260200190815260200160002060009054906101000a900460ff16905092915050565b600033905090565b600080fd5b6000819050919050565b6200045d8162000448565b81146200046957600080fd5b50565b6000815190506200047d8162000452565b92915050565b600073ffffffffffffffffffffffffffffffffffffffff82169050919050565b6000620004b08262000483565b9050919050565b620004c281620004a3565b8114620004ce57600080fd5b50565b600081519050620004e281620004b7565b92915050565b6000620004f58262000483565b9050919050565b6200050781620004e8565b81146200051357600080fd5b50565b6000815190506200052781620004fc565b92915050565b60008060008060008060c087890312156200054d576200054c62000443565b5b60006200055d89828a016200046c565b96505060206200057089828a01620004d1565b95505060406200058389828a016200046c565b94505060606200059689828a016200046c565b9350506080620005a989828a0162000516565b92505060a0620005bc89828a0162000516565b9150509295509295509295565b600060208284031215620005e257620005e162000443565b5b6000620005f2848285016200046c565b91505092915050565b7f4e487b7100000000000000000000000000000000000000000000000000000000600052601260045260246000fd5b7f4e487b7100000000000000000000000000000000000000000000000000000000600052601160045260246000fd5b6000620006668262000448565b9150620006738362000448565b925082620006865762000685620005fb565b5b828204905092915050565b60006200069e8262000448565b9150620006ab8362000448565b9250827fffffffffffffffffffffffffffffffffffffffffffffffffffffffffffffffff03821115620006e357620006e26200062a565b5b828201905092915050565b6000620006fb8262000448565b9150620007088362000448565b9250828210156200071e576200071d6200062a565b5b828203905092915050565b6000620007368262000448565b9150620007438362000448565b9250817fffffffffffffffffffffffffffffffffffffffffffffffffffffffffffffffff04831182151516156200077f576200077e6200062a565b5b828202905092915050565b612bae806200079a6000396000f3fe6080604052600436106101bb5760003560e01c80637a37ac26116100ec578063c392f7661161008a578063e640d86211610064578063e640d862146105e3578063ef38bf011461060c578063fbfa77cf14610637578063fc0c546a14610662576101cf565b8063c392f76614610564578063c97f8d6e1461058f578063d547741f146105ba576101cf565b8063a217fddf116100c6578063a217fddf146104c7578063b7a8807c146104f2578063bbdc90771461051d578063c19d93fb14610539576101cf565b80637a37ac26146104485780638433acd11461047357806391d148541461048a576101cf565b8063397a8bab11610159578063590e1ae311610133578063590e1ae3146103bc57806361c9d81c146103c65780636e353a1d146103ef57806374d00f671461040b576101cf565b8063397a8bab1461033d57806340193883146103665780634b6753bc14610391576101cf565b80632c4e722e116101955780632c4e722e146102835780632f2ff15d146102ae57806331f36bd9146102d757806336568abe14610314576101cf565b806301ffc9a7146101de5780630c3ca20f1461021b578063248a9ca314610246576101cf565b366101cf576000801b6101cd8161068d565b005b6000801b6101dc8161068d565b005b3480156101ea57600080fd5b5061020560048036038101906102009190611e20565b6106a1565b6040516102129190611e68565b60405180910390f35b34801561022757600080fd5b5061023061071b565b60405161023d9190611e9c565b60405180910390f35b34801561025257600080fd5b5061026d60048036038101906102689190611eed565b610721565b60405161027a9190611f29565b60405180910390f35b34801561028f57600080fd5b50610298610740565b6040516102a59190611e9c565b60405180910390f35b3480156102ba57600080fd5b506102d560048036038101906102d09190611fa2565b610746565b005b3480156102e357600080fd5b506102fe60048036038101906102f9919061200e565b610767565b60405161030b9190611e9c565b60405180910390f35b34801561032057600080fd5b5061033b60048036038101906103369190611fa2565b61078c565b005b34801561034957600080fd5b50610364600480360381019061035f919061204e565b61080f565b005b34801561037257600080fd5b5061037b61082d565b6040516103889190611e9c565b60405180910390f35b34801561039d57600080fd5b506103a6610833565b6040516103b39190611e9c565b60405180910390f35b6103c4610839565b005b3480156103d257600080fd5b506103ed60048036038101906103e891906120b9565b61097b565b005b610409600480360381019061040491906120b9565b610acc565b005b34801561041757600080fd5b50610432600480360381019061042d919061204e565b610b8a565b60405161043f9190611e9c565b60405180910390f35b34801561045457600080fd5b5061045d610ba2565b60405161046a9190611e9c565b60405180910390f35b34801561047f57600080fd5b50610488610ba8565b005b34801561049657600080fd5b506104b160048036038101906104ac9190611fa2565b610e7c565b6040516104be9190611e68565b60405180910390f35b3480156104d357600080fd5b506104dc610ee6565b6040516104e99190611f29565b60405180910390f35b3480156104fe57600080fd5b50610507610eed565b6040516105149190611e9c565b60405180910390f35b61053760048036038101906105329190612112565b610ef3565b005b34801561054557600080fd5b5061054e610fcc565b60405161055b91906121c9565b60405180910390f35b34801561057057600080fd5b50610579610fdf565b6040516105869190611e9c565b60405180910390f35b34801561059b57600080fd5b506105a4610fe5565b6040516105b19190611e9c565b60405180910390f35b3480156105c657600080fd5b506105e160048036038101906105dc9190611fa2565b610feb565b005b3480156105ef57600080fd5b5061060a600480360381019061060591906121e4565b61100c565b005b34801561061857600080fd5b5061062161125c565b60405161062e9190612270565b60405180910390f35b34801561064357600080fd5b5061064c611282565b60405161065991906122ac565b60405180910390f35b34801561066e57600080fd5b506106776112a8565b60405161068491906122fa565b60405180910390f35b61069e816106996112ce565b6112d6565b50565b60007f7965db0b000000000000000000000000000000000000000000000000000000007bffffffffffffffffffffffffffffffffffffffffffffffffffffffff1916827bffffffffffffffffffffffffffffffffffffffffffffffffffffffff19161480610714575061071382611373565b5b9050919050565b60075481565b6000806000838152602001908152602001600020600101549050919050565b60035481565b61074f82610721565b6107588161068d565b61076283836113dd565b505050565b6009602052816000526040600020602052806000526040600020600091509150505481565b6107946112ce565b73ffffffffffffffffffffffffffffffffffffffff168173ffffffffffffffffffffffffffffffffffffffff1614610801576040517f08c379a00000000000000000000000000000000000000000000000000000000081526004016107f890612398565b60405180910390fd5b61080b82826114bd565b5050565b6000801b61081c8161068d565b6108296000801b836113dd565b5050565b600e5481565b60055481565b60026001540361087e576040517f08c379a000000000000000000000000000000000000000000000000000000000815260040161087590612404565b60405180910390fd5b6002600181905550600060096000600854815260200190815260200160002060003373ffffffffffffffffffffffffffffffffffffffff1673ffffffffffffffffffffffffffffffffffffffff16815260200190815260200160002054146108e557600080fd5b600660019054906101000a900473ffffffffffffffffffffffffffffffffffffffff1673ffffffffffffffffffffffffffffffffffffffff1663fa89401a336040518263ffffffff1660e01b81526004016109409190612433565b600060405180830381600087803b15801561095a57600080fd5b505af115801561096e573d6000803e3d6000fd5b5050505060018081905550565b6000801b6109888161068d565b6002600154036109cd576040517f08c379a00000000000000000000000000000000000000000000000000000000081526004016109c490612404565b60405180910390fd5b60026001819055506001808111156109e8576109e7612152565b5b600660009054906101000a900460ff166001811115610a0a57610a09612152565b5b14610a1457600080fd5b60008273ffffffffffffffffffffffffffffffffffffffff1647604051610a3a9061247f565b60006040518083038185875af1925050503d8060008114610a77576040519150601f19603f3d011682016040523d82523d6000602084013e610a7c565b606091505b5050905080610ac0576040517f08c379a0000000000000000000000000000000000000000000000000000000008152600401610ab7906124e0565b60405180910390fd5b50600180819055505050565b6000801b610ad98161068d565b60008273ffffffffffffffffffffffffffffffffffffffff1647604051610aff9061247f565b60006040518083038185875af1925050503d8060008114610b3c576040519150601f19603f3d011682016040523d82523d6000602084013e610b41565b606091505b5050905080610b85576040517f08c379a0000000000000000000000000000000000000000000000000000000008152600401610b7c906124e0565b60405180910390fd5b505050565b600a6020528060005260406000206000915090505481565b60085481565b600260015403610bed576040517f08c379a0000000000000000000000000000000000000000000000000000000008152600401610be490612404565b60405180910390fd5b6002600181905550600180811115610c0857610c07612152565b5b600660009054906101000a900460ff166001811115610c2a57610c29612152565b5b14610c3457600080fd5b6000600a60003373ffffffffffffffffffffffffffffffffffffffff1673ffffffffffffffffffffffffffffffffffffffff1681526020019081526020016000205460096000600854815260200190815260200160002060003373ffffffffffffffffffffffffffffffffffffffff1673ffffffffffffffffffffffffffffffffffffffff16815260200190815260200160002054610cd3919061252f565b905060008111610ce257600080fd5b600660019054906101000a900473ffffffffffffffffffffffffffffffffffffffff1673ffffffffffffffffffffffffffffffffffffffff16630a2f487b3360096000600854815260200190815260200160002060003373ffffffffffffffffffffffffffffffffffffffff1673ffffffffffffffffffffffffffffffffffffffff168152602001908152602001600020546040518363ffffffff1660e01b8152600401610d91929190612594565b600060405180830381600087803b158015610dab57600080fd5b505af1158015610dbf573d6000803e3d6000fd5b50505050600060096000600854815260200190815260200160002060003373ffffffffffffffffffffffffffffffffffffffff1673ffffffffffffffffffffffffffffffffffffffff168152602001908152602001600020819055506000600a60003373ffffffffffffffffffffffffffffffffffffffff1673ffffffffffffffffffffffffffffffffffffffff16815260200190815260200160002081905550610e7233610e6d8361159e565b6115bc565b5060018081905550565b600080600084815260200190815260200160002060000160008373ffffffffffffffffffffffffffffffffffffffff1673ffffffffffffffffffffffffffffffffffffffff16815260200190815260200160002060009054906101000a900460ff16905092915050565b6000801b81565b60045481565b600260015403610f38576040517f08c379a0000000000000000000000000000000000000000000000000000000008152600401610f2f90612404565b60405180910390fd5b60026001819055506000349050610f4f8382611662565b6000610f5a8261159e565b9050610f678483856116ec565b8373ffffffffffffffffffffffffffffffffffffffff167fcd60aa75dea3072fbc07ae6d7d856b5dc5f4eee88854f5b4abf7b680ef8bc50f8383604051610faf9291906125bd565b60405180910390a2610fbf611864565b5050600180819055505050565b600660009054906101000a900460ff1681565b600d5481565b600c5481565b610ff482610721565b610ffd8161068d565b61100783836114bd565b505050565b600060018111156110205761101f612152565b5b600660009054906101000a900460ff16600181111561104257611041612152565b5b1461104c57600080fd5b6000801b6110598161068d565b600454821161106757600080fd5b600b60009054906101000a900473ffffffffffffffffffffffffffffffffffffffff1673ffffffffffffffffffffffffffffffffffffffff1663a55870886040518163ffffffff1660e01b81526004016020604051808303816000875af11580156110d6573d6000803e3d6000fd5b505050506040513d601f19601f820116820180604052508101906110fa91906125fb565b600c819055506014600c5461110f9190612657565b600d81905550611143600d54600c54611128919061252f565b600354670de0b6b3a764000061113e9190612657565b611ae1565b600e819055506000600660019054906101000a900473ffffffffffffffffffffffffffffffffffffffff16905060008173ffffffffffffffffffffffffffffffffffffffff166007546040516111989061247f565b60006040518083038185875af1925050503d80600081146111d5576040519150601f19603f3d011682016040523d82523d6000602084013e6111da565b606091505b505090508061121e576040517f08c379a0000000000000000000000000000000000000000000000000000000008152600401611215906126d4565b60405180910390fd5b6000600781905550600160086000828254611239919061252f565b925050819055504260048190555083600581905550611256611864565b50505050565b600b60009054906101000a900473ffffffffffffffffffffffffffffffffffffffff1681565b600660019054906101000a900473ffffffffffffffffffffffffffffffffffffffff1681565b600260009054906101000a900473ffffffffffffffffffffffffffffffffffffffff1681565b600033905090565b6112e08282610e7c565b61136f576113058173ffffffffffffffffffffffffffffffffffffffff166014611b19565b6113138360001c6020611b19565b604051602001611324929190612806565b6040516020818303038152906040526040517f08c379a0000000000000000000000000000000000000000000000000000000008152600401611366919061288a565b60405180910390fd5b5050565b60007f01ffc9a7000000000000000000000000000000000000000000000000000000007bffffffffffffffffffffffffffffffffffffffffffffffffffffffff1916827bffffffffffffffffffffffffffffffffffffffffffffffffffffffff1916149050919050565b6113e78282610e7c565b6114b957600160008084815260200190815260200160002060000160008373ffffffffffffffffffffffffffffffffffffffff1673ffffffffffffffffffffffffffffffffffffffff16815260200190815260200160002060006101000a81548160ff02191690831515021790555061145e6112ce565b73ffffffffffffffffffffffffffffffffffffffff168173ffffffffffffffffffffffffffffffffffffffff16837f2f8788117e7eff1d82e926ec794901d17c78024a50270940304540a733656f0d60405160405180910390a45b5050565b6114c78282610e7c565b1561159a57600080600084815260200190815260200160002060000160008373ffffffffffffffffffffffffffffffffffffffff1673ffffffffffffffffffffffffffffffffffffffff16815260200190815260200160002060006101000a81548160ff02191690831515021790555061153f6112ce565b73ffffffffffffffffffffffffffffffffffffffff168173ffffffffffffffffffffffffffffffffffffffff16837ff6391f5c32d9c69d2a47ea670b442974b53935d1edc7fd64eb21e047a839171b60405160405180910390a45b5050565b60006115b560035483611d5590919063ffffffff16565b9050919050565b600260009054906101000a900473ffffffffffffffffffffffffffffffffffffffff1673ffffffffffffffffffffffffffffffffffffffff166340c10f1983670de0b6b3a76400008461160f9190612657565b6040518363ffffffff1660e01b815260040161162c929190612594565b600060405180830381600087803b15801561164657600080fd5b505af115801561165a573d6000803e3d6000fd5b505050505050565b61166c8282611d6b565b600060018111156116805761167f612152565b5b600660009054906101000a900460ff1660018111156116a2576116a1612152565b5b146116ac57600080fd5b6000600354670de0b6b3a76400006116c49190612657565b826116cf91906128ac565b146116d957600080fd5b600e544711156116e857600080fd5b5050565b8015611808578160096000600854815260200190815260200160002060008573ffffffffffffffffffffffffffffffffffffffff1673ffffffffffffffffffffffffffffffffffffffff1681526020019081526020016000206000828254611754919061252f565b92505081905550600660019054906101000a900473ffffffffffffffffffffffffffffffffffffffff1673ffffffffffffffffffffffffffffffffffffffff16636f485d6c84846040518363ffffffff1660e01b81526004016117b8929190612594565b600060405180830381600087803b1580156117d257600080fd5b505af11580156117e6573d6000803e3d6000fd5b5050505081600760008282546117fc919061252f565b9250508190555061185f565b81600a60008573ffffffffffffffffffffffffffffffffffffffff1673ffffffffffffffffffffffffffffffffffffffff1681526020019081526020016000206000828254611857919061252f565b925050819055505b505050565b600d54600c54611874919061252f565b4710611adf576000600b60009054906101000a900473ffffffffffffffffffffffffffffffffffffffff16905060008173ffffffffffffffffffffffffffffffffffffffff16600c546040516118c99061247f565b60006040518083038185875af1925050503d8060008114611906576040519150601f19603f3d011682016040523d82523d6000602084013e61190b565b606091505b505090508061194f576040517f08c379a000000000000000000000000000000000000000000000000000000000815260040161194690612929565b60405180910390fd5b6000600b60009054906101000a900473ffffffffffffffffffffffffffffffffffffffff1673ffffffffffffffffffffffffffffffffffffffff16639c3962f06040518163ffffffff1660e01b81526004016020604051808303816000875af11580156119c0573d6000803e3d6000fd5b505050506040513d601f19601f820116820180604052508101906119e4919061295e565b905080611a26576040517f08c379a0000000000000000000000000000000000000000000000000000000008152600401611a1d906129d7565b60405180910390fd5b6000600781905550600660019054906101000a900473ffffffffffffffffffffffffffffffffffffffff1673ffffffffffffffffffffffffffffffffffffffff166343d726d66040518163ffffffff1660e01b8152600401600060405180830381600087803b158015611a9857600080fd5b505af1158015611aac573d6000803e3d6000fd5b505050506001600660006101000a81548160ff02191690836001811115611ad657611ad5612152565b5b02179055505050505b565b6000818260018486611af3919061252f565b611afd91906129f7565b611b079190612657565b611b119190612a2b565b905092915050565b606060006002836002611b2c9190612a2b565b611b36919061252f565b67ffffffffffffffff811115611b4f57611b4e612a85565b5b6040519080825280601f01601f191660200182016040528015611b815781602001600182028036833780820191505090505b5090507f300000000000000000000000000000000000000000000000000000000000000081600081518110611bb957611bb8612ab4565b5b60200101907effffffffffffffffffffffffffffffffffffffffffffffffffffffffffffff1916908160001a9053507f780000000000000000000000000000000000000000000000000000000000000081600181518110611c1d57611c1c612ab4565b5b60200101907effffffffffffffffffffffffffffffffffffffffffffffffffffffffffffff1916908160001a90535060006001846002611c5d9190612a2b565b611c67919061252f565b90505b6001811115611d07577f3031323334353637383961626364656600000000000000000000000000000000600f861660108110611ca957611ca8612ab4565b5b1a60f81b828281518110611cc057611cbf612ab4565b5b60200101907effffffffffffffffffffffffffffffffffffffffffffffffffffffffffffff1916908160001a905350600485901c945080611d0090612ae3565b9050611c6a565b5060008414611d4b576040517f08c379a0000000000000000000000000000000000000000000000000000000008152600401611d4290612b58565b60405180910390fd5b8091505092915050565b60008183611d639190612a2b565b905092915050565b6005544210611d7957600080fd5b600073ffffffffffffffffffffffffffffffffffffffff168273ffffffffffffffffffffffffffffffffffffffff1603611db257600080fd5b60008103611dbf57600080fd5b5050565b600080fd5b60007fffffffff0000000000000000000000000000000000000000000000000000000082169050919050565b611dfd81611dc8565b8114611e0857600080fd5b50565b600081359050611e1a81611df4565b92915050565b600060208284031215611e3657611e35611dc3565b5b6000611e4484828501611e0b565b91505092915050565b60008115159050919050565b611e6281611e4d565b82525050565b6000602082019050611e7d6000830184611e59565b92915050565b6000819050919050565b611e9681611e83565b82525050565b6000602082019050611eb16000830184611e8d565b92915050565b6000819050919050565b611eca81611eb7565b8114611ed557600080fd5b50565b600081359050611ee781611ec1565b92915050565b600060208284031215611f0357611f02611dc3565b5b6000611f1184828501611ed8565b91505092915050565b611f2381611eb7565b82525050565b6000602082019050611f3e6000830184611f1a565b92915050565b600073ffffffffffffffffffffffffffffffffffffffff82169050919050565b6000611f6f82611f44565b9050919050565b611f7f81611f64565b8114611f8a57600080fd5b50565b600081359050611f9c81611f76565b92915050565b60008060408385031215611fb957611fb8611dc3565b5b6000611fc785828601611ed8565b9250506020611fd885828601611f8d565b9150509250929050565b611feb81611e83565b8114611ff657600080fd5b50565b60008135905061200881611fe2565b92915050565b6000806040838503121561202557612024611dc3565b5b600061203385828601611ff9565b925050602061204485828601611f8d565b9150509250929050565b60006020828403121561206457612063611dc3565b5b600061207284828501611f8d565b91505092915050565b600061208682611f44565b9050919050565b6120968161207b565b81146120a157600080fd5b50565b6000813590506120b38161208d565b92915050565b6000602082840312156120cf576120ce611dc3565b5b60006120dd848285016120a4565b91505092915050565b6120ef81611e4d565b81146120fa57600080fd5b50565b60008135905061210c816120e6565b92915050565b6000806040838503121561212957612128611dc3565b5b600061213785828601611f8d565b9250506020612148858286016120fd565b9150509250929050565b7f4e487b7100000000000000000000000000000000000000000000000000000000600052602160045260246000fd5b6002811061219257612191612152565b5b50565b60008190506121a382612181565b919050565b60006121b382612195565b9050919050565b6121c3816121a8565b82525050565b60006020820190506121de60008301846121ba565b92915050565b6000602082840312156121fa576121f9611dc3565b5b600061220884828501611ff9565b91505092915050565b6000819050919050565b600061223661223161222c84611f44565b612211565b611f44565b9050919050565b60006122488261221b565b9050919050565b600061225a8261223d565b9050919050565b61226a8161224f565b82525050565b60006020820190506122856000830184612261565b92915050565b60006122968261223d565b9050919050565b6122a68161228b565b82525050565b60006020820190506122c1600083018461229d565b92915050565b60006122d28261221b565b9050919050565b60006122e4826122c7565b9050919050565b6122f4816122d9565b82525050565b600060208201905061230f60008301846122eb565b92915050565b600082825260208201905092915050565b7f416363657373436f6e74726f6c3a2063616e206f6e6c792072656e6f756e636560008201527f20726f6c657320666f722073656c660000000000000000000000000000000000602082015250565b6000612382602f83612315565b915061238d82612326565b604082019050919050565b600060208201905081810360008301526123b181612375565b9050919050565b7f5265656e7472616e637947756172643a207265656e7472616e742063616c6c00600082015250565b60006123ee601f83612315565b91506123f9826123b8565b602082019050919050565b6000602082019050818103600083015261241d816123e1565b9050919050565b61242d8161207b565b82525050565b60006020820190506124486000830184612424565b92915050565b600081905092915050565b50565b600061246960008361244e565b915061247482612459565b600082019050919050565b600061248a8261245c565b9150819050919050565b7f4574686572207472616e73666572206661696c65642e00000000000000000000600082015250565b60006124ca601683612315565b91506124d582612494565b602082019050919050565b600060208201905081810360008301526124f9816124bd565b9050919050565b7f4e487b7100000000000000000000000000000000000000000000000000000000600052601160045260246000fd5b600061253a82611e83565b915061254583611e83565b9250827fffffffffffffffffffffffffffffffffffffffffffffffffffffffffffffffff0382111561257a57612579612500565b5b828201905092915050565b61258e81611f64565b82525050565b60006040820190506125a96000830185612585565b6125b66020830184611e8d565b9392505050565b60006040820190506125d26000830185611e8d565b6125df6020830184611e8d565b9392505050565b6000815190506125f581611fe2565b92915050565b60006020828403121561261157612610611dc3565b5b600061261f848285016125e6565b91505092915050565b7f4e487b7100000000000000000000000000000000000000000000000000000000600052601260045260246000fd5b600061266282611e83565b915061266d83611e83565b92508261267d5761267c612628565b5b828204905092915050565b7f46756e6374696f6e206661696c65642e00000000000000000000000000000000600082015250565b60006126be601083612315565b91506126c982612688565b602082019050919050565b600060208201905081810360008301526126ed816126b1565b9050919050565b600081905092915050565b7f416363657373436f6e74726f6c3a206163636f756e7420000000000000000000600082015250565b60006127356017836126f4565b9150612740826126ff565b601782019050919050565b600081519050919050565b60005b83811015612774578082015181840152602081019050612759565b83811115612783576000848401525b50505050565b60006127948261274b565b61279e81856126f4565b93506127ae818560208601612756565b80840191505092915050565b7f206973206d697373696e6720726f6c6520000000000000000000000000000000600082015250565b60006127f06011836126f4565b91506127fb826127ba565b601182019050919050565b600061281182612728565b915061281d8285612789565b9150612828826127e3565b91506128348284612789565b91508190509392505050565b6000601f19601f8301169050919050565b600061285c8261274b565b6128668185612315565b9350612876818560208601612756565b61287f81612840565b840191505092915050565b600060208201905081810360008301526128a48184612851565b905092915050565b60006128b782611e83565b91506128c283611e83565b9250826128d2576128d1612628565b5b828206905092915050565b7f5472616e73666572206661696c65642e00000000000000000000000000000000600082015250565b6000612913601083612315565b915061291e826128dd565b602082019050919050565b6000602082019050818103600083015261294281612906565b9050919050565b600081519050612958816120e6565b92915050565b60006020828403121561297457612973611dc3565b5b600061298284828501612949565b91505092915050565b7f507572636861736520206661696c65642e000000000000000000000000000000600082015250565b60006129c1601183612315565b91506129cc8261298b565b602082019050919050565b600060208201905081810360008301526129f0816129b4565b9050919050565b6000612a0282611e83565b9150612a0d83611e83565b925082821015612a2057612a1f612500565b5b828203905092915050565b6000612a3682611e83565b9150612a4183611e83565b9250817fffffffffffffffffffffffffffffffffffffffffffffffffffffffffffffffff0483118215151615612a7a57612a79612500565b5b828202905092915050565b7f4e487b7100000000000000000000000000000000000000000000000000000000600052604160045260246000fd5b7f4e487b7100000000000000000000000000000000000000000000000000000000600052603260045260246000fd5b6000612aee82611e83565b915060008203612b0157612b00612500565b5b600182039050919050565b7f537472696e67733a20686578206c656e67746820696e73756666696369656e74600082015250565b6000612b42602083612315565b9150612b4d82612b0c565b602082019050919050565b60006020820190508181036000830152612b7181612b35565b905091905056fea2646970667358221220af5f8f856e28ffeee31ba4b97d83f9be970b33ef1b5f7af25459e1d58229453964736f6c634300080d0033",
  "linkReferences": {},
  "deployedLinkReferences": {}
}