{
  "_format": "hh-sol-artifact-1",
  "contractName": "MoonSale",
  "sourceName": "contracts/main/MoonSale.sol",
  "abi": [
    {
      "inputs": [
        {
          "internalType": "uint256",
          "name": "_rate",
          "type": "uint256"
        },
        {
          "internalType": "address",
          "name": "_token",
          "type": "address"
        },
        {
          "internalType": "uint256",
          "name": "_openingTime",
          "type": "uint256"
        },
        {
          "internalType": "uint256",
          "name": "_closingTime",
          "type": "uint256"
        },
        {
          "internalType": "address payable",
          "name": "_vault",
          "type": "address"
        },
        {
          "internalType": "address payable",
          "name": "_marketWrapper",
          "type": "address"
        }
      ],
      "stateMutability": "nonpayable",
      "type": "constructor"
    },
    {
      "anonymous": false,
      "inputs": [
        {
          "indexed": true,
          "internalType": "bytes32",
          "name": "role",
          "type": "bytes32"
        },
        {
          "indexed": true,
          "internalType": "bytes32",
          "name": "previousAdminRole",
          "type": "bytes32"
        },
        {
          "indexed": true,
          "internalType": "bytes32",
          "name": "newAdminRole",
          "type": "bytes32"
        }
      ],
      "name": "RoleAdminChanged",
      "type": "event"
    },
    {
      "anonymous": false,
      "inputs": [
        {
          "indexed": true,
          "internalType": "bytes32",
          "name": "role",
          "type": "bytes32"
        },
        {
          "indexed": true,
          "internalType": "address",
          "name": "account",
          "type": "address"
        },
        {
          "indexed": true,
          "internalType": "address",
          "name": "sender",
          "type": "address"
        }
      ],
      "name": "RoleGranted",
      "type": "event"
    },
    {
      "anonymous": false,
      "inputs": [
        {
          "indexed": true,
          "internalType": "bytes32",
          "name": "role",
          "type": "bytes32"
        },
        {
          "indexed": true,
          "internalType": "address",
          "name": "account",
          "type": "address"
        },
        {
          "indexed": true,
          "internalType": "address",
          "name": "sender",
          "type": "address"
        }
      ],
      "name": "RoleRevoked",
      "type": "event"
    },
    {
      "anonymous": false,
      "inputs": [
        {
          "indexed": true,
          "internalType": "address",
          "name": "beneficiary",
          "type": "address"
        },
        {
          "indexed": false,
          "internalType": "uint256",
          "name": "value",
          "type": "uint256"
        },
        {
          "indexed": false,
          "internalType": "uint256",
          "name": "amount",
          "type": "uint256"
        }
      ],
      "name": "TokenPurchase",
      "type": "event"
    },
    {
      "stateMutability": "payable",
      "type": "fallback"
    },
    {
      "inputs": [],
      "name": "DEFAULT_ADMIN_ROLE",
      "outputs": [
        {
          "internalType": "bytes32",
          "name": "",
          "type": "bytes32"
        }
      ],
      "stateMutability": "view",
      "type": "function"
    },
    {
      "inputs": [],
      "name": "buyNowPriceInWei",
      "outputs": [
        {
          "internalType": "uint256",
          "name": "",
          "type": "uint256"
        }
      ],
      "stateMutability": "view",
      "type": "function"
    },
    {
      "inputs": [
        {
          "internalType": "address",
          "name": "_beneficiary",
          "type": "address"
        },
        {
          "internalType": "bool",
          "name": "_refundable",
          "type": "bool"
        }
      ],
      "name": "buyTokens",
      "outputs": [],
      "stateMutability": "payable",
      "type": "function"
    },
    {
      "inputs": [],
      "name": "closingTime",
      "outputs": [
        {
          "internalType": "uint256",
          "name": "",
          "type": "uint256"
        }
      ],
      "stateMutability": "view",
      "type": "function"
    },
    {
      "inputs": [],
      "name": "collectTokens",
      "outputs": [],
      "stateMutability": "nonpayable",
      "type": "function"
    },
    {
      "inputs": [
        {
          "internalType": "uint256",
          "name": "",
          "type": "uint256"
        },
        {
          "internalType": "address",
          "name": "",
          "type": "address"
        }
      ],
      "name": "currentRefundableBalances",
      "outputs": [
        {
          "internalType": "uint256",
          "name": "",
          "type": "uint256"
        }
      ],
      "stateMutability": "view",
      "type": "function"
    },
    {
      "inputs": [],
      "name": "currentRefundableWei",
      "outputs": [
        {
          "internalType": "uint256",
          "name": "",
          "type": "uint256"
        }
      ],
      "stateMutability": "view",
      "type": "function"
    },
    {
      "inputs": [
        {
          "internalType": "address payable",
          "name": "to",
          "type": "address"
        }
      ],
      "name": "emergencyWithdrawal",
      "outputs": [],
      "stateMutability": "payable",
      "type": "function"
    },
    {
      "inputs": [
        {
          "internalType": "bytes32",
          "name": "role",
          "type": "bytes32"
        }
      ],
      "name": "getRoleAdmin",
      "outputs": [
        {
          "internalType": "bytes32",
          "name": "",
          "type": "bytes32"
        }
      ],
      "stateMutability": "view",
      "type": "function"
    },
    {
      "inputs": [
        {
          "internalType": "address",
          "name": "to",
          "type": "address"
        }
      ],
      "name": "grantOwnerRole",
      "outputs": [],
      "stateMutability": "nonpayable",
      "type": "function"
    },
    {
      "inputs": [
        {
          "internalType": "bytes32",
          "name": "role",
          "type": "bytes32"
        },
        {
          "internalType": "address",
          "name": "account",
          "type": "address"
        }
      ],
      "name": "grantRole",
      "outputs": [],
      "stateMutability": "nonpayable",
      "type": "function"
    },
    {
      "inputs": [
        {
          "internalType": "bytes32",
          "name": "role",
          "type": "bytes32"
        },
        {
          "internalType": "address",
          "name": "account",
          "type": "address"
        }
      ],
      "name": "hasRole",
      "outputs": [
        {
          "internalType": "bool",
          "name": "",
          "type": "bool"
        }
      ],
      "stateMutability": "view",
      "type": "function"
    },
    {
      "inputs": [],
      "name": "marketWrapper",
      "outputs": [
        {
          "internalType": "contract IMarketWrapper",
          "name": "",
          "type": "address"
        }
      ],
      "stateMutability": "view",
      "type": "function"
    },
    {
      "inputs": [
        {
          "internalType": "uint256",
          "name": "_newClosingTime",
          "type": "uint256"
        },
        {
          "internalType": "address",
          "name": "_marketWrapper",
          "type": "address"
        }
      ],
      "name": "migration",
      "outputs": [],
      "stateMutability": "nonpayable",
      "type": "function"
    },
    {
      "inputs": [],
      "name": "migrationCount",
      "outputs": [
        {
          "internalType": "uint256",
          "name": "",
          "type": "uint256"
        }
      ],
      "stateMutability": "view",
      "type": "function"
    },
    {
      "inputs": [
        {
          "internalType": "address",
          "name": "",
          "type": "address"
        }
      ],
      "name": "nonRefundableBalances",
      "outputs": [
        {
          "internalType": "uint256",
          "name": "",
          "type": "uint256"
        }
      ],
      "stateMutability": "view",
      "type": "function"
    },
    {
      "inputs": [],
      "name": "openingTime",
      "outputs": [
        {
          "internalType": "uint256",
          "name": "",
          "type": "uint256"
        }
      ],
      "stateMutability": "view",
      "type": "function"
    },
    {
      "inputs": [],
      "name": "rate",
      "outputs": [
        {
          "internalType": "uint256",
          "name": "",
          "type": "uint256"
        }
      ],
      "stateMutability": "view",
      "type": "function"
    },
    {
      "inputs": [],
      "name": "refund",
      "outputs": [],
      "stateMutability": "payable",
      "type": "function"
    },
    {
      "inputs": [
        {
          "internalType": "bytes32",
          "name": "role",
          "type": "bytes32"
        },
        {
          "internalType": "address",
          "name": "account",
          "type": "address"
        }
      ],
      "name": "renounceRole",
      "outputs": [],
      "stateMutability": "nonpayable",
      "type": "function"
    },
    {
      "inputs": [
        {
          "internalType": "bytes32",
          "name": "role",
          "type": "bytes32"
        },
        {
          "internalType": "address",
          "name": "account",
          "type": "address"
        }
      ],
      "name": "revokeRole",
      "outputs": [],
      "stateMutability": "nonpayable",
      "type": "function"
    },
    {
      "inputs": [
        {
          "internalType": "bytes4",
          "name": "interfaceId",
          "type": "bytes4"
        }
      ],
      "name": "supportsInterface",
      "outputs": [
        {
          "internalType": "bool",
          "name": "",
          "type": "bool"
        }
      ],
      "stateMutability": "view",
      "type": "function"
    },
    {
      "inputs": [],
      "name": "token",
      "outputs": [
        {
          "internalType": "contract IToken",
          "name": "",
          "type": "address"
        }
      ],
      "stateMutability": "view",
      "type": "function"
    },
    {
      "inputs": [],
      "name": "vault",
      "outputs": [
        {
          "internalType": "contract IVault",
          "name": "",
          "type": "address"
        }
      ],
      "stateMutability": "view",
      "type": "function"
    },
    {
      "stateMutability": "payable",
      "type": "receive"
    }
  ],
  "bytecode": "0x6080604052600060075560006008553480156200001b57600080fd5b5060405162002ac838038062002ac88339818101604052810190620000419190620004a7565b858585856001808190555060018410156200005b57600080fd5b600073ffffffffffffffffffffffffffffffffffffffff168373ffffffffffffffffffffffffffffffffffffffff1614156200009657600080fd5b42821015620000a457600080fd5b818111620000b157600080fd5b620000c66000801b336200025a60201b60201c565b8360038190555082600260006101000a81548173ffffffffffffffffffffffffffffffffffffffff021916908373ffffffffffffffffffffffffffffffffffffffff16021790555081600481905550806005819055505050505081600660016101000a81548173ffffffffffffffffffffffffffffffffffffffff021916908373ffffffffffffffffffffffffffffffffffffffff16021790555080600b60006101000a81548173ffffffffffffffffffffffffffffffffffffffff021916908373ffffffffffffffffffffffffffffffffffffffff160217905550600b60009054906101000a900473ffffffffffffffffffffffffffffffffffffffff1673ffffffffffffffffffffffffffffffffffffffff1663a55870886040518163ffffffff1660e01b8152600401602060405180830381600087803b1580156200020d57600080fd5b505af115801562000222573d6000803e3d6000fd5b505050506040513d601f19601f8201168201806040525081019062000248919062000543565b600c8190555050505050505062000575565b6200026c82826200034b60201b60201c565b6200034757600160008084815260200190815260200160002060000160008373ffffffffffffffffffffffffffffffffffffffff1673ffffffffffffffffffffffffffffffffffffffff16815260200190815260200160002060006101000a81548160ff021916908315150217905550620002ec620003b560201b60201c565b73ffffffffffffffffffffffffffffffffffffffff168173ffffffffffffffffffffffffffffffffffffffff16837f2f8788117e7eff1d82e926ec794901d17c78024a50270940304540a733656f0d60405160405180910390a45b5050565b600080600084815260200190815260200160002060000160008373ffffffffffffffffffffffffffffffffffffffff1673ffffffffffffffffffffffffffffffffffffffff16815260200190815260200160002060009054906101000a900460ff16905092915050565b600033905090565b600080fd5b6000819050919050565b620003d781620003c2565b8114620003e357600080fd5b50565b600081519050620003f781620003cc565b92915050565b600073ffffffffffffffffffffffffffffffffffffffff82169050919050565b60006200042a82620003fd565b9050919050565b6200043c816200041d565b81146200044857600080fd5b50565b6000815190506200045c8162000431565b92915050565b60006200046f82620003fd565b9050919050565b620004818162000462565b81146200048d57600080fd5b50565b600081519050620004a18162000476565b92915050565b60008060008060008060c08789031215620004c757620004c6620003bd565b5b6000620004d789828a01620003e6565b9650506020620004ea89828a016200044b565b9550506040620004fd89828a01620003e6565b94505060606200051089828a01620003e6565b93505060806200052389828a0162000490565b92505060a06200053689828a0162000490565b9150509295509295509295565b6000602082840312156200055c576200055b620003bd565b5b60006200056c84828501620003e6565b91505092915050565b61254380620005856000396000f3fe60806040526004361061014f5760003560e01c80637a37ac26116100b6578063bbdc90771161006f578063bbdc907714610482578063c97f8d6e1461049e578063d547741f146104c9578063ef38bf01146104f2578063fbfa77cf1461051d578063fc0c546a1461054857610161565b80637a37ac26146103845780638433acd1146103af5780638c6f3349146103c657806391d14854146103ef578063a217fddf1461042c578063b7a8807c1461045757610161565b806336568abe1161010857806336568abe146102a4578063397a8bab146102cd5780634b6753bc146102f6578063590e1ae3146103215780636e353a1d1461032b57806374d00f671461034757610161565b806301ffc9a71461016e5780630c3ca20f146101ab578063248a9ca3146101d65780632c4e722e146102135780632f2ff15d1461023e57806331f36bd91461026757610161565b366101615761015f336001610573565b005b61016c336001610573565b005b34801561017a57600080fd5b50610195600480360381019061019091906119f9565b61064d565b6040516101a29190611a41565b60405180910390f35b3480156101b757600080fd5b506101c06106c7565b6040516101cd9190611a75565b60405180910390f35b3480156101e257600080fd5b506101fd60048036038101906101f89190611ac6565b6106cd565b60405161020a9190611b02565b60405180910390f35b34801561021f57600080fd5b506102286106ec565b6040516102359190611a75565b60405180910390f35b34801561024a57600080fd5b5061026560048036038101906102609190611b7b565b6106f2565b005b34801561027357600080fd5b5061028e60048036038101906102899190611be7565b610713565b60405161029b9190611a75565b60405180910390f35b3480156102b057600080fd5b506102cb60048036038101906102c69190611b7b565b610738565b005b3480156102d957600080fd5b506102f460048036038101906102ef9190611c27565b6107bb565b005b34801561030257600080fd5b5061030b6107d9565b6040516103189190611a75565b60405180910390f35b6103296107df565b005b61034560048036038101906103409190611c92565b610922565b005b34801561035357600080fd5b5061036e60048036038101906103699190611c27565b6109e0565b60405161037b9190611a75565b60405180910390f35b34801561039057600080fd5b506103996109f8565b6040516103a69190611a75565b60405180910390f35b3480156103bb57600080fd5b506103c46109fe565b005b3480156103d257600080fd5b506103ed60048036038101906103e89190611be7565b610cd3565b005b3480156103fb57600080fd5b5061041660048036038101906104119190611b7b565b610e35565b6040516104239190611a41565b60405180910390f35b34801561043857600080fd5b50610441610e9f565b60405161044e9190611b02565b60405180910390f35b34801561046357600080fd5b5061046c610ea6565b6040516104799190611a75565b60405180910390f35b61049c60048036038101906104979190611ceb565b610573565b005b3480156104aa57600080fd5b506104b3610eac565b6040516104c09190611a75565b60405180910390f35b3480156104d557600080fd5b506104f060048036038101906104eb9190611b7b565b610eb2565b005b3480156104fe57600080fd5b50610507610ed3565b6040516105149190611d8a565b60405180910390f35b34801561052957600080fd5b50610532610ef9565b60405161053f9190611dc6565b60405180910390f35b34801561055457600080fd5b5061055d610f1f565b60405161056a9190611e14565b60405180910390f35b600260015414156105b9576040517f08c379a00000000000000000000000000000000000000000000000000000000081526004016105b090611e8c565b60405180910390fd5b600260018190555060003490506105d08382610f45565b60006105db82610fd3565b90506105e8848385610ff1565b8373ffffffffffffffffffffffffffffffffffffffff167fcd60aa75dea3072fbc07ae6d7d856b5dc5f4eee88854f5b4abf7b680ef8bc50f8383604051610630929190611eac565b60405180910390a2610640611169565b5050600180819055505050565b60007f7965db0b000000000000000000000000000000000000000000000000000000007bffffffffffffffffffffffffffffffffffffffffffffffffffffffff1916827bffffffffffffffffffffffffffffffffffffffffffffffffffffffff191614806106c057506106bf82611379565b5b9050919050565b60075481565b6000806000838152602001908152602001600020600101549050919050565b60035481565b6106fb826106cd565b610704816113e3565b61070e83836113f7565b505050565b6009602052816000526040600020602052806000526040600020600091509150505481565b6107406114d7565b73ffffffffffffffffffffffffffffffffffffffff168173ffffffffffffffffffffffffffffffffffffffff16146107ad576040517f08c379a00000000000000000000000000000000000000000000000000000000081526004016107a490611f47565b60405180910390fd5b6107b782826114df565b5050565b6000801b6107c8816113e3565b6107d56000801b836113f7565b5050565b60055481565b60026001541415610825576040517f08c379a000000000000000000000000000000000000000000000000000000000815260040161081c90611e8c565b60405180910390fd5b6002600181905550600060096000600854815260200190815260200160002060003373ffffffffffffffffffffffffffffffffffffffff1673ffffffffffffffffffffffffffffffffffffffff168152602001908152602001600020541461088c57600080fd5b600660019054906101000a900473ffffffffffffffffffffffffffffffffffffffff1673ffffffffffffffffffffffffffffffffffffffff1663fa89401a336040518263ffffffff1660e01b81526004016108e79190611f76565b600060405180830381600087803b15801561090157600080fd5b505af1158015610915573d6000803e3d6000fd5b5050505060018081905550565b6000801b61092f816113e3565b60008273ffffffffffffffffffffffffffffffffffffffff164760405161095590611fc2565b60006040518083038185875af1925050503d8060008114610992576040519150601f19603f3d011682016040523d82523d6000602084013e610997565b606091505b50509050806109db576040517f08c379a00000000000000000000000000000000000000000000000000000000081526004016109d290612023565b60405180910390fd5b505050565b600a6020528060005260406000206000915090505481565b60085481565b60026001541415610a44576040517f08c379a0000000000000000000000000000000000000000000000000000000008152600401610a3b90611e8c565b60405180910390fd5b6002600181905550600180811115610a5f57610a5e612043565b5b600660009054906101000a900460ff166001811115610a8157610a80612043565b5b14610a8b57600080fd5b6000600a60003373ffffffffffffffffffffffffffffffffffffffff1673ffffffffffffffffffffffffffffffffffffffff1681526020019081526020016000205460096000600854815260200190815260200160002060003373ffffffffffffffffffffffffffffffffffffffff1673ffffffffffffffffffffffffffffffffffffffff16815260200190815260200160002054610b2a91906120a1565b905060008111610b3957600080fd5b600660019054906101000a900473ffffffffffffffffffffffffffffffffffffffff1673ffffffffffffffffffffffffffffffffffffffff16630a2f487b3360096000600854815260200190815260200160002060003373ffffffffffffffffffffffffffffffffffffffff1673ffffffffffffffffffffffffffffffffffffffff168152602001908152602001600020546040518363ffffffff1660e01b8152600401610be8929190612106565b600060405180830381600087803b158015610c0257600080fd5b505af1158015610c16573d6000803e3d6000fd5b50505050600060096000600854815260200190815260200160002060003373ffffffffffffffffffffffffffffffffffffffff1673ffffffffffffffffffffffffffffffffffffffff168152602001908152602001600020819055506000600a60003373ffffffffffffffffffffffffffffffffffffffff1673ffffffffffffffffffffffffffffffffffffffff16815260200190815260200160002081905550610cc933610cc483610fd3565b6115c0565b5060018081905550565b6000801b610ce0816113e3565b81600b60006101000a81548173ffffffffffffffffffffffffffffffffffffffff021916908373ffffffffffffffffffffffffffffffffffffffff1602179055506000600660019054906101000a900473ffffffffffffffffffffffffffffffffffffffff16905060008173ffffffffffffffffffffffffffffffffffffffff16600754604051610d7090611fc2565b60006040518083038185875af1925050503d8060008114610dad576040519150601f19603f3d011682016040523d82523d6000602084013e610db2565b606091505b5050905080610df6576040517f08c379a0000000000000000000000000000000000000000000000000000000008152600401610ded9061217b565b60405180910390fd5b6000600781905550600160086000828254610e1191906120a1565b925050819055504260048190555084600581905550610e2e611169565b5050505050565b600080600084815260200190815260200160002060000160008373ffffffffffffffffffffffffffffffffffffffff1673ffffffffffffffffffffffffffffffffffffffff16815260200190815260200160002060009054906101000a900460ff16905092915050565b6000801b81565b60045481565b600c5481565b610ebb826106cd565b610ec4816113e3565b610ece83836114df565b505050565b600b60009054906101000a900473ffffffffffffffffffffffffffffffffffffffff1681565b600660019054906101000a900473ffffffffffffffffffffffffffffffffffffffff1681565b600260009054906101000a900473ffffffffffffffffffffffffffffffffffffffff1681565b610f4f8282611653565b60006001811115610f6357610f62612043565b5b600660009054906101000a900460ff166001811115610f8557610f84612043565b5b14610f8f57600080fd5b6001610f9a82610fd3565b1015610fa557600080fd5b610fb0600c54610fd3565b610fc48247610fbf91906120a1565b610fd3565b1115610fcf57600080fd5b5050565b6000610fea600354836116ad90919063ffffffff16565b9050919050565b801561110d578160096000600854815260200190815260200160002060008573ffffffffffffffffffffffffffffffffffffffff1673ffffffffffffffffffffffffffffffffffffffff168152602001908152602001600020600082825461105991906120a1565b92505081905550600660019054906101000a900473ffffffffffffffffffffffffffffffffffffffff1673ffffffffffffffffffffffffffffffffffffffff16636f485d6c84846040518363ffffffff1660e01b81526004016110bd929190612106565b600060405180830381600087803b1580156110d757600080fd5b505af11580156110eb573d6000803e3d6000fd5b50505050816007600082825461110191906120a1565b92505081905550611164565b81600a60008573ffffffffffffffffffffffffffffffffffffffff1673ffffffffffffffffffffffffffffffffffffffff168152602001908152602001600020600082825461115c91906120a1565b925050819055505b505050565b600c544710611377576000600b60009054906101000a900473ffffffffffffffffffffffffffffffffffffffff16905060008173ffffffffffffffffffffffffffffffffffffffff16476040516111bf90611fc2565b60006040518083038185875af1925050503d80600081146111fc576040519150601f19603f3d011682016040523d82523d6000602084013e611201565b606091505b5050905080611245576040517f08c379a000000000000000000000000000000000000000000000000000000000815260040161123c906121e7565b60405180910390fd5b600b60009054906101000a900473ffffffffffffffffffffffffffffffffffffffff1673ffffffffffffffffffffffffffffffffffffffff16639c3962f06040518163ffffffff1660e01b8152600401600060405180830381600087803b1580156112af57600080fd5b505af11580156112c3573d6000803e3d6000fd5b50505050600660019054906101000a900473ffffffffffffffffffffffffffffffffffffffff1673ffffffffffffffffffffffffffffffffffffffff166343d726d66040518163ffffffff1660e01b8152600401600060405180830381600087803b15801561133157600080fd5b505af1158015611345573d6000803e3d6000fd5b505050506001600660006101000a81548160ff0219169083600181111561136f5761136e612043565b5b021790555050505b565b60007f01ffc9a7000000000000000000000000000000000000000000000000000000007bffffffffffffffffffffffffffffffffffffffffffffffffffffffff1916827bffffffffffffffffffffffffffffffffffffffffffffffffffffffff1916149050919050565b6113f4816113ef6114d7565b6116c3565b50565b6114018282610e35565b6114d357600160008084815260200190815260200160002060000160008373ffffffffffffffffffffffffffffffffffffffff1673ffffffffffffffffffffffffffffffffffffffff16815260200190815260200160002060006101000a81548160ff0219169083151502179055506114786114d7565b73ffffffffffffffffffffffffffffffffffffffff168173ffffffffffffffffffffffffffffffffffffffff16837f2f8788117e7eff1d82e926ec794901d17c78024a50270940304540a733656f0d60405160405180910390a45b5050565b600033905090565b6114e98282610e35565b156115bc57600080600084815260200190815260200160002060000160008373ffffffffffffffffffffffffffffffffffffffff1673ffffffffffffffffffffffffffffffffffffffff16815260200190815260200160002060006101000a81548160ff0219169083151502179055506115616114d7565b73ffffffffffffffffffffffffffffffffffffffff168173ffffffffffffffffffffffffffffffffffffffff16837ff6391f5c32d9c69d2a47ea670b442974b53935d1edc7fd64eb21e047a839171b60405160405180910390a45b5050565b600260009054906101000a900473ffffffffffffffffffffffffffffffffffffffff1673ffffffffffffffffffffffffffffffffffffffff166340c10f1983836040518363ffffffff1660e01b815260040161161d929190612106565b600060405180830381600087803b15801561163757600080fd5b505af115801561164b573d6000803e3d6000fd5b505050505050565b600554421061166157600080fd5b600073ffffffffffffffffffffffffffffffffffffffff168273ffffffffffffffffffffffffffffffffffffffff16141561169b57600080fd5b60008114156116a957600080fd5b5050565b600081836116bb9190612207565b905092915050565b6116cd8282610e35565b61175c576116f28173ffffffffffffffffffffffffffffffffffffffff166014611760565b6117008360001c6020611760565b604051602001611711929190612373565b6040516020818303038152906040526040517f08c379a000000000000000000000000000000000000000000000000000000000815260040161175391906123f7565b60405180910390fd5b5050565b6060600060028360026117739190612207565b61177d91906120a1565b67ffffffffffffffff81111561179657611795612419565b5b6040519080825280601f01601f1916602001820160405280156117c85781602001600182028036833780820191505090505b5090507f300000000000000000000000000000000000000000000000000000000000000081600081518110611800576117ff612448565b5b60200101907effffffffffffffffffffffffffffffffffffffffffffffffffffffffffffff1916908160001a9053507f78000000000000000000000000000000000000000000000000000000000000008160018151811061186457611863612448565b5b60200101907effffffffffffffffffffffffffffffffffffffffffffffffffffffffffffff1916908160001a905350600060018460026118a49190612207565b6118ae91906120a1565b90505b600181111561194e577f3031323334353637383961626364656600000000000000000000000000000000600f8616601081106118f0576118ef612448565b5b1a60f81b82828151811061190757611906612448565b5b60200101907effffffffffffffffffffffffffffffffffffffffffffffffffffffffffffff1916908160001a905350600485901c94508061194790612477565b90506118b1565b5060008414611992576040517f08c379a0000000000000000000000000000000000000000000000000000000008152600401611989906124ed565b60405180910390fd5b8091505092915050565b600080fd5b60007fffffffff0000000000000000000000000000000000000000000000000000000082169050919050565b6119d6816119a1565b81146119e157600080fd5b50565b6000813590506119f3816119cd565b92915050565b600060208284031215611a0f57611a0e61199c565b5b6000611a1d848285016119e4565b91505092915050565b60008115159050919050565b611a3b81611a26565b82525050565b6000602082019050611a566000830184611a32565b92915050565b6000819050919050565b611a6f81611a5c565b82525050565b6000602082019050611a8a6000830184611a66565b92915050565b6000819050919050565b611aa381611a90565b8114611aae57600080fd5b50565b600081359050611ac081611a9a565b92915050565b600060208284031215611adc57611adb61199c565b5b6000611aea84828501611ab1565b91505092915050565b611afc81611a90565b82525050565b6000602082019050611b176000830184611af3565b92915050565b600073ffffffffffffffffffffffffffffffffffffffff82169050919050565b6000611b4882611b1d565b9050919050565b611b5881611b3d565b8114611b6357600080fd5b50565b600081359050611b7581611b4f565b92915050565b60008060408385031215611b9257611b9161199c565b5b6000611ba085828601611ab1565b9250506020611bb185828601611b66565b9150509250929050565b611bc481611a5c565b8114611bcf57600080fd5b50565b600081359050611be181611bbb565b92915050565b60008060408385031215611bfe57611bfd61199c565b5b6000611c0c85828601611bd2565b9250506020611c1d85828601611b66565b9150509250929050565b600060208284031215611c3d57611c3c61199c565b5b6000611c4b84828501611b66565b91505092915050565b6000611c5f82611b1d565b9050919050565b611c6f81611c54565b8114611c7a57600080fd5b50565b600081359050611c8c81611c66565b92915050565b600060208284031215611ca857611ca761199c565b5b6000611cb684828501611c7d565b91505092915050565b611cc881611a26565b8114611cd357600080fd5b50565b600081359050611ce581611cbf565b92915050565b60008060408385031215611d0257611d0161199c565b5b6000611d1085828601611b66565b9250506020611d2185828601611cd6565b9150509250929050565b6000819050919050565b6000611d50611d4b611d4684611b1d565b611d2b565b611b1d565b9050919050565b6000611d6282611d35565b9050919050565b6000611d7482611d57565b9050919050565b611d8481611d69565b82525050565b6000602082019050611d9f6000830184611d7b565b92915050565b6000611db082611d57565b9050919050565b611dc081611da5565b82525050565b6000602082019050611ddb6000830184611db7565b92915050565b6000611dec82611d35565b9050919050565b6000611dfe82611de1565b9050919050565b611e0e81611df3565b82525050565b6000602082019050611e296000830184611e05565b92915050565b600082825260208201905092915050565b7f5265656e7472616e637947756172643a207265656e7472616e742063616c6c00600082015250565b6000611e76601f83611e2f565b9150611e8182611e40565b602082019050919050565b60006020820190508181036000830152611ea581611e69565b9050919050565b6000604082019050611ec16000830185611a66565b611ece6020830184611a66565b9392505050565b7f416363657373436f6e74726f6c3a2063616e206f6e6c792072656e6f756e636560008201527f20726f6c657320666f722073656c660000000000000000000000000000000000602082015250565b6000611f31602f83611e2f565b9150611f3c82611ed5565b604082019050919050565b60006020820190508181036000830152611f6081611f24565b9050919050565b611f7081611c54565b82525050565b6000602082019050611f8b6000830184611f67565b92915050565b600081905092915050565b50565b6000611fac600083611f91565b9150611fb782611f9c565b600082019050919050565b6000611fcd82611f9f565b9150819050919050565b7f4574686572207472616e73666572206661696c65642e00000000000000000000600082015250565b600061200d601683611e2f565b915061201882611fd7565b602082019050919050565b6000602082019050818103600083015261203c81612000565b9050919050565b7f4e487b7100000000000000000000000000000000000000000000000000000000600052602160045260246000fd5b7f4e487b7100000000000000000000000000000000000000000000000000000000600052601160045260246000fd5b60006120ac82611a5c565b91506120b783611a5c565b9250827fffffffffffffffffffffffffffffffffffffffffffffffffffffffffffffffff038211156120ec576120eb612072565b5b828201905092915050565b61210081611b3d565b82525050565b600060408201905061211b60008301856120f7565b6121286020830184611a66565b9392505050565b7f46756e6374696f6e206661696c65642e00000000000000000000000000000000600082015250565b6000612165601083611e2f565b91506121708261212f565b602082019050919050565b6000602082019050818103600083015261219481612158565b9050919050565b7f5075726368617365206661696c65642e00000000000000000000000000000000600082015250565b60006121d1601083611e2f565b91506121dc8261219b565b602082019050919050565b60006020820190508181036000830152612200816121c4565b9050919050565b600061221282611a5c565b915061221d83611a5c565b9250817fffffffffffffffffffffffffffffffffffffffffffffffffffffffffffffffff048311821515161561225657612255612072565b5b828202905092915050565b600081905092915050565b7f416363657373436f6e74726f6c3a206163636f756e7420000000000000000000600082015250565b60006122a2601783612261565b91506122ad8261226c565b601782019050919050565b600081519050919050565b60005b838110156122e15780820151818401526020810190506122c6565b838111156122f0576000848401525b50505050565b6000612301826122b8565b61230b8185612261565b935061231b8185602086016122c3565b80840191505092915050565b7f206973206d697373696e6720726f6c6520000000000000000000000000000000600082015250565b600061235d601183612261565b915061236882612327565b601182019050919050565b600061237e82612295565b915061238a82856122f6565b915061239582612350565b91506123a182846122f6565b91508190509392505050565b6000601f19601f8301169050919050565b60006123c9826122b8565b6123d38185611e2f565b93506123e38185602086016122c3565b6123ec816123ad565b840191505092915050565b6000602082019050818103600083015261241181846123be565b905092915050565b7f4e487b7100000000000000000000000000000000000000000000000000000000600052604160045260246000fd5b7f4e487b7100000000000000000000000000000000000000000000000000000000600052603260045260246000fd5b600061248282611a5c565b9150600082141561249657612495612072565b5b600182039050919050565b7f537472696e67733a20686578206c656e67746820696e73756666696369656e74600082015250565b60006124d7602083611e2f565b91506124e2826124a1565b602082019050919050565b60006020820190508181036000830152612506816124ca565b905091905056fea2646970667358221220c16ae5475293caf7fb3ab5256c4464459c8ad6c2c27ff1417a55e203f21fdb2464736f6c63430008090033",
  "linkReferences": {},
  "deployedLinkReferences": {}
}