{
  "_format": "hh-sol-artifact-1",
  "contractName": "MoonSale",
  "sourceName": "contracts/main/MoonSale.sol",
  "abi": [
    {
      "inputs": [
        {
          "internalType": "uint256",
          "name": "_rate",
          "type": "uint256"
        },
        {
          "internalType": "address",
          "name": "_token",
          "type": "address"
        },
        {
          "internalType": "uint256",
          "name": "_openingTime",
          "type": "uint256"
        },
        {
          "internalType": "uint256",
          "name": "_closingTime",
          "type": "uint256"
        },
        {
          "internalType": "address payable",
          "name": "_vault",
          "type": "address"
        },
        {
          "internalType": "address payable",
          "name": "_marketWrapper",
          "type": "address"
        }
      ],
      "stateMutability": "nonpayable",
      "type": "constructor"
    },
    {
      "anonymous": false,
      "inputs": [
        {
          "indexed": true,
          "internalType": "bytes32",
          "name": "role",
          "type": "bytes32"
        },
        {
          "indexed": true,
          "internalType": "bytes32",
          "name": "previousAdminRole",
          "type": "bytes32"
        },
        {
          "indexed": true,
          "internalType": "bytes32",
          "name": "newAdminRole",
          "type": "bytes32"
        }
      ],
      "name": "RoleAdminChanged",
      "type": "event"
    },
    {
      "anonymous": false,
      "inputs": [
        {
          "indexed": true,
          "internalType": "bytes32",
          "name": "role",
          "type": "bytes32"
        },
        {
          "indexed": true,
          "internalType": "address",
          "name": "account",
          "type": "address"
        },
        {
          "indexed": true,
          "internalType": "address",
          "name": "sender",
          "type": "address"
        }
      ],
      "name": "RoleGranted",
      "type": "event"
    },
    {
      "anonymous": false,
      "inputs": [
        {
          "indexed": true,
          "internalType": "bytes32",
          "name": "role",
          "type": "bytes32"
        },
        {
          "indexed": true,
          "internalType": "address",
          "name": "account",
          "type": "address"
        },
        {
          "indexed": true,
          "internalType": "address",
          "name": "sender",
          "type": "address"
        }
      ],
      "name": "RoleRevoked",
      "type": "event"
    },
    {
      "anonymous": false,
      "inputs": [
        {
          "indexed": true,
          "internalType": "address",
          "name": "beneficiary",
          "type": "address"
        },
        {
          "indexed": false,
          "internalType": "uint256",
          "name": "value",
          "type": "uint256"
        },
        {
          "indexed": false,
          "internalType": "uint256",
          "name": "amount",
          "type": "uint256"
        }
      ],
      "name": "TokenPurchase",
      "type": "event"
    },
    {
      "stateMutability": "payable",
      "type": "fallback"
    },
    {
      "inputs": [],
      "name": "DEFAULT_ADMIN_ROLE",
      "outputs": [
        {
          "internalType": "bytes32",
          "name": "",
          "type": "bytes32"
        }
      ],
      "stateMutability": "view",
      "type": "function"
    },
    {
      "inputs": [],
      "name": "buyNowPriceInWei",
      "outputs": [
        {
          "internalType": "uint256",
          "name": "",
          "type": "uint256"
        }
      ],
      "stateMutability": "view",
      "type": "function"
    },
    {
      "inputs": [
        {
          "internalType": "address",
          "name": "_beneficiary",
          "type": "address"
        },
        {
          "internalType": "bool",
          "name": "_refundable",
          "type": "bool"
        }
      ],
      "name": "buyTokens",
      "outputs": [],
      "stateMutability": "payable",
      "type": "function"
    },
    {
      "inputs": [],
      "name": "closingTime",
      "outputs": [
        {
          "internalType": "uint256",
          "name": "",
          "type": "uint256"
        }
      ],
      "stateMutability": "view",
      "type": "function"
    },
    {
      "inputs": [
        {
          "internalType": "address payable",
          "name": "to",
          "type": "address"
        }
      ],
      "name": "collectInterest",
      "outputs": [],
      "stateMutability": "nonpayable",
      "type": "function"
    },
    {
      "inputs": [],
      "name": "collectTokens",
      "outputs": [],
      "stateMutability": "nonpayable",
      "type": "function"
    },
    {
      "inputs": [
        {
          "internalType": "uint256",
          "name": "",
          "type": "uint256"
        },
        {
          "internalType": "address",
          "name": "",
          "type": "address"
        }
      ],
      "name": "currentRefundableBalances",
      "outputs": [
        {
          "internalType": "uint256",
          "name": "",
          "type": "uint256"
        }
      ],
      "stateMutability": "view",
      "type": "function"
    },
    {
      "inputs": [],
      "name": "currentRefundableWei",
      "outputs": [
        {
          "internalType": "uint256",
          "name": "",
          "type": "uint256"
        }
      ],
      "stateMutability": "view",
      "type": "function"
    },
    {
      "inputs": [
        {
          "internalType": "address payable",
          "name": "to",
          "type": "address"
        }
      ],
      "name": "emergencyWithdrawal",
      "outputs": [],
      "stateMutability": "payable",
      "type": "function"
    },
    {
      "inputs": [
        {
          "internalType": "bytes32",
          "name": "role",
          "type": "bytes32"
        }
      ],
      "name": "getRoleAdmin",
      "outputs": [
        {
          "internalType": "bytes32",
          "name": "",
          "type": "bytes32"
        }
      ],
      "stateMutability": "view",
      "type": "function"
    },
    {
      "inputs": [
        {
          "internalType": "address",
          "name": "to",
          "type": "address"
        }
      ],
      "name": "grantOwnerRole",
      "outputs": [],
      "stateMutability": "nonpayable",
      "type": "function"
    },
    {
      "inputs": [
        {
          "internalType": "bytes32",
          "name": "role",
          "type": "bytes32"
        },
        {
          "internalType": "address",
          "name": "account",
          "type": "address"
        }
      ],
      "name": "grantRole",
      "outputs": [],
      "stateMutability": "nonpayable",
      "type": "function"
    },
    {
      "inputs": [
        {
          "internalType": "bytes32",
          "name": "role",
          "type": "bytes32"
        },
        {
          "internalType": "address",
          "name": "account",
          "type": "address"
        }
      ],
      "name": "hasRole",
      "outputs": [
        {
          "internalType": "bool",
          "name": "",
          "type": "bool"
        }
      ],
      "stateMutability": "view",
      "type": "function"
    },
    {
      "inputs": [],
      "name": "interest",
      "outputs": [
        {
          "internalType": "uint256",
          "name": "",
          "type": "uint256"
        }
      ],
      "stateMutability": "view",
      "type": "function"
    },
    {
      "inputs": [],
      "name": "marketWrapper",
      "outputs": [
        {
          "internalType": "contract IMarketWrapper",
          "name": "",
          "type": "address"
        }
      ],
      "stateMutability": "view",
      "type": "function"
    },
    {
      "inputs": [
        {
          "internalType": "uint256",
          "name": "_newClosingTime",
          "type": "uint256"
        },
        {
          "internalType": "address",
          "name": "_marketWrapper",
          "type": "address"
        }
      ],
      "name": "migration",
      "outputs": [],
      "stateMutability": "nonpayable",
      "type": "function"
    },
    {
      "inputs": [],
      "name": "migrationCount",
      "outputs": [
        {
          "internalType": "uint256",
          "name": "",
          "type": "uint256"
        }
      ],
      "stateMutability": "view",
      "type": "function"
    },
    {
      "inputs": [
        {
          "internalType": "address",
          "name": "",
          "type": "address"
        }
      ],
      "name": "nonRefundableBalances",
      "outputs": [
        {
          "internalType": "uint256",
          "name": "",
          "type": "uint256"
        }
      ],
      "stateMutability": "view",
      "type": "function"
    },
    {
      "inputs": [],
      "name": "openingTime",
      "outputs": [
        {
          "internalType": "uint256",
          "name": "",
          "type": "uint256"
        }
      ],
      "stateMutability": "view",
      "type": "function"
    },
    {
      "inputs": [],
      "name": "rate",
      "outputs": [
        {
          "internalType": "uint256",
          "name": "",
          "type": "uint256"
        }
      ],
      "stateMutability": "view",
      "type": "function"
    },
    {
      "inputs": [],
      "name": "refund",
      "outputs": [],
      "stateMutability": "payable",
      "type": "function"
    },
    {
      "inputs": [
        {
          "internalType": "bytes32",
          "name": "role",
          "type": "bytes32"
        },
        {
          "internalType": "address",
          "name": "account",
          "type": "address"
        }
      ],
      "name": "renounceRole",
      "outputs": [],
      "stateMutability": "nonpayable",
      "type": "function"
    },
    {
      "inputs": [
        {
          "internalType": "bytes32",
          "name": "role",
          "type": "bytes32"
        },
        {
          "internalType": "address",
          "name": "account",
          "type": "address"
        }
      ],
      "name": "revokeRole",
      "outputs": [],
      "stateMutability": "nonpayable",
      "type": "function"
    },
    {
      "inputs": [],
      "name": "state",
      "outputs": [
        {
          "internalType": "enum MoonSale.State",
          "name": "",
          "type": "uint8"
        }
      ],
      "stateMutability": "view",
      "type": "function"
    },
    {
      "inputs": [
        {
          "internalType": "bytes4",
          "name": "interfaceId",
          "type": "bytes4"
        }
      ],
      "name": "supportsInterface",
      "outputs": [
        {
          "internalType": "bool",
          "name": "",
          "type": "bool"
        }
      ],
      "stateMutability": "view",
      "type": "function"
    },
    {
      "inputs": [],
      "name": "token",
      "outputs": [
        {
          "internalType": "contract IToken",
          "name": "",
          "type": "address"
        }
      ],
      "stateMutability": "view",
      "type": "function"
    },
    {
      "inputs": [],
      "name": "vault",
      "outputs": [
        {
          "internalType": "contract IVault",
          "name": "",
          "type": "address"
        }
      ],
      "stateMutability": "view",
      "type": "function"
    },
    {
      "stateMutability": "payable",
      "type": "receive"
    }
  ],
  "bytecode": "0x6080604052600060075560006008553480156200001b57600080fd5b5060405162003023380380620030238339818101604052810190620000419190620004be565b858585856001808190555060018410156200005b57600080fd5b600073ffffffffffffffffffffffffffffffffffffffff168373ffffffffffffffffffffffffffffffffffffffff1614156200009657600080fd5b42821015620000a457600080fd5b818111620000b157600080fd5b620000c66000801b336200027160201b60201c565b8360038190555082600260006101000a81548173ffffffffffffffffffffffffffffffffffffffff021916908373ffffffffffffffffffffffffffffffffffffffff16021790555081600481905550806005819055505050505081600660016101000a81548173ffffffffffffffffffffffffffffffffffffffff021916908373ffffffffffffffffffffffffffffffffffffffff16021790555080600b60006101000a81548173ffffffffffffffffffffffffffffffffffffffff021916908373ffffffffffffffffffffffffffffffffffffffff160217905550600b60009054906101000a900473ffffffffffffffffffffffffffffffffffffffff1673ffffffffffffffffffffffffffffffffffffffff1663a55870886040518163ffffffff1660e01b8152600401602060405180830381600087803b1580156200020d57600080fd5b505af115801562000222573d6000803e3d6000fd5b505050506040513d601f19601f820116820180604052508101906200024891906200055a565b600c819055506014600c546200025f9190620005bb565b600d81905550505050505050620005f3565b6200028382826200036260201b60201c565b6200035e57600160008084815260200190815260200160002060000160008373ffffffffffffffffffffffffffffffffffffffff1673ffffffffffffffffffffffffffffffffffffffff16815260200190815260200160002060006101000a81548160ff02191690831515021790555062000303620003cc60201b60201c565b73ffffffffffffffffffffffffffffffffffffffff168173ffffffffffffffffffffffffffffffffffffffff16837f2f8788117e7eff1d82e926ec794901d17c78024a50270940304540a733656f0d60405160405180910390a45b5050565b600080600084815260200190815260200160002060000160008373ffffffffffffffffffffffffffffffffffffffff1673ffffffffffffffffffffffffffffffffffffffff16815260200190815260200160002060009054906101000a900460ff16905092915050565b600033905090565b600080fd5b6000819050919050565b620003ee81620003d9565b8114620003fa57600080fd5b50565b6000815190506200040e81620003e3565b92915050565b600073ffffffffffffffffffffffffffffffffffffffff82169050919050565b6000620004418262000414565b9050919050565b620004538162000434565b81146200045f57600080fd5b50565b600081519050620004738162000448565b92915050565b6000620004868262000414565b9050919050565b620004988162000479565b8114620004a457600080fd5b50565b600081519050620004b8816200048d565b92915050565b60008060008060008060c08789031215620004de57620004dd620003d4565b5b6000620004ee89828a01620003fd565b96505060206200050189828a0162000462565b95505060406200051489828a01620003fd565b94505060606200052789828a01620003fd565b93505060806200053a89828a01620004a7565b92505060a06200054d89828a01620004a7565b9150509295509295509295565b600060208284031215620005735762000572620003d4565b5b60006200058384828501620003fd565b91505092915050565b7f4e487b7100000000000000000000000000000000000000000000000000000000600052601260045260246000fd5b6000620005c882620003d9565b9150620005d583620003d9565b925082620005e857620005e76200058c565b5b828204905092915050565b612a2080620006036000396000f3fe6080604052600436106101a05760003560e01c80637a37ac26116100ec578063c19d93fb1161008a578063d547741f11610064578063d547741f14610599578063ef38bf01146105c2578063fbfa77cf146105ed578063fc0c546a14610618576101b2565b8063c19d93fb14610518578063c392f76614610543578063c97f8d6e1461056e576101b2565b806391d14854116100c657806391d1485414610469578063a217fddf146104a6578063b7a8807c146104d1578063bbdc9077146104fc576101b2565b80637a37ac26146103fe5780638433acd1146104295780638c6f334914610440576101b2565b806336568abe11610159578063590e1ae311610133578063590e1ae31461037257806361c9d81c1461037c5780636e353a1d146103a557806374d00f67146103c1576101b2565b806336568abe146102f5578063397a8bab1461031e5780634b6753bc14610347576101b2565b806301ffc9a7146101bf5780630c3ca20f146101fc578063248a9ca3146102275780632c4e722e146102645780632f2ff15d1461028f57806331f36bd9146102b8576101b2565b366101b2576101b0336001610643565b005b6101bd336001610643565b005b3480156101cb57600080fd5b506101e660048036038101906101e19190611d23565b6106d8565b6040516101f39190611d6b565b60405180910390f35b34801561020857600080fd5b50610211610752565b60405161021e9190611d9f565b60405180910390f35b34801561023357600080fd5b5061024e60048036038101906102499190611df0565b610758565b60405161025b9190611e2c565b60405180910390f35b34801561027057600080fd5b50610279610777565b6040516102869190611d9f565b60405180910390f35b34801561029b57600080fd5b506102b660048036038101906102b19190611ea5565b61077d565b005b3480156102c457600080fd5b506102df60048036038101906102da9190611f11565b61079e565b6040516102ec9190611d9f565b60405180910390f35b34801561030157600080fd5b5061031c60048036038101906103179190611ea5565b6107c3565b005b34801561032a57600080fd5b5061034560048036038101906103409190611f51565b610846565b005b34801561035357600080fd5b5061035c610864565b6040516103699190611d9f565b60405180910390f35b61037a61086a565b005b34801561038857600080fd5b506103a3600480360381019061039e9190611fbc565b610968565b005b6103bf60048036038101906103ba9190611fbc565b610a75565b005b3480156103cd57600080fd5b506103e860048036038101906103e39190611f51565b610b33565b6040516103f59190611d9f565b60405180910390f35b34801561040a57600080fd5b50610413610b4b565b6040516104209190611d9f565b60405180910390f35b34801561043557600080fd5b5061043e610b51565b005b34801561044c57600080fd5b5061046760048036038101906104629190611f11565b610de1565b005b34801561047557600080fd5b50610490600480360381019061048b9190611ea5565b61104e565b60405161049d9190611d6b565b60405180910390f35b3480156104b257600080fd5b506104bb6110b8565b6040516104c89190611e2c565b60405180910390f35b3480156104dd57600080fd5b506104e66110bf565b6040516104f39190611d9f565b60405180910390f35b61051660048036038101906105119190612015565b610643565b005b34801561052457600080fd5b5061052d6110c5565b60405161053a91906120cc565b60405180910390f35b34801561054f57600080fd5b506105586110d8565b6040516105659190611d9f565b60405180910390f35b34801561057a57600080fd5b506105836110de565b6040516105909190611d9f565b60405180910390f35b3480156105a557600080fd5b506105c060048036038101906105bb9190611ea5565b6110e4565b005b3480156105ce57600080fd5b506105d7611105565b6040516105e49190612146565b60405180910390f35b3480156105f957600080fd5b5061060261112b565b60405161060f9190612182565b60405180910390f35b34801561062457600080fd5b5061062d611151565b60405161063a91906121d0565b60405180910390f35b61064b611177565b600034905061065a83826111c7565b600061066582611263565b9050610672848385611281565b8373ffffffffffffffffffffffffffffffffffffffff167fcd60aa75dea3072fbc07ae6d7d856b5dc5f4eee88854f5b4abf7b680ef8bc50f83836040516106ba9291906121eb565b60405180910390a26106ca6113f9565b50506106d4611685565b5050565b60007f7965db0b000000000000000000000000000000000000000000000000000000007bffffffffffffffffffffffffffffffffffffffffffffffffffffffff1916827bffffffffffffffffffffffffffffffffffffffffffffffffffffffff1916148061074b575061074a8261168e565b5b9050919050565b60075481565b6000806000838152602001908152602001600020600101549050919050565b60035481565b61078682610758565b61078f816116f8565b610799838361170c565b505050565b6009602052816000526040600020602052806000526040600020600091509150505481565b6107cb6117ec565b73ffffffffffffffffffffffffffffffffffffffff168173ffffffffffffffffffffffffffffffffffffffff1614610838576040517f08c379a000000000000000000000000000000000000000000000000000000000815260040161082f90612297565b60405180910390fd5b61084282826117f4565b5050565b6000801b610853816116f8565b6108606000801b8361170c565b5050565b60055481565b610872611177565b600060096000600854815260200190815260200160002060003373ffffffffffffffffffffffffffffffffffffffff1673ffffffffffffffffffffffffffffffffffffffff16815260200190815260200160002054146108d157600080fd5b600660019054906101000a900473ffffffffffffffffffffffffffffffffffffffff1673ffffffffffffffffffffffffffffffffffffffff1663fa89401a336040518263ffffffff1660e01b815260040161092c91906122c6565b600060405180830381600087803b15801561094657600080fd5b505af115801561095a573d6000803e3d6000fd5b50505050610966611685565b565b6000801b610975816116f8565b61097d611177565b6001808111156109905761098f612055565b5b600660009054906101000a900460ff1660018111156109b2576109b1612055565b5b146109bc57600080fd5b60008273ffffffffffffffffffffffffffffffffffffffff16476040516109e290612312565b60006040518083038185875af1925050503d8060008114610a1f576040519150601f19603f3d011682016040523d82523d6000602084013e610a24565b606091505b5050905080610a68576040517f08c379a0000000000000000000000000000000000000000000000000000000008152600401610a5f90612373565b60405180910390fd5b50610a71611685565b5050565b6000801b610a82816116f8565b60008273ffffffffffffffffffffffffffffffffffffffff1647604051610aa890612312565b60006040518083038185875af1925050503d8060008114610ae5576040519150601f19603f3d011682016040523d82523d6000602084013e610aea565b606091505b5050905080610b2e576040517f08c379a0000000000000000000000000000000000000000000000000000000008152600401610b2590612373565b60405180910390fd5b505050565b600a6020528060005260406000206000915090505481565b60085481565b610b59611177565b600180811115610b6c57610b6b612055565b5b600660009054906101000a900460ff166001811115610b8e57610b8d612055565b5b14610b9857600080fd5b6000600a60003373ffffffffffffffffffffffffffffffffffffffff1673ffffffffffffffffffffffffffffffffffffffff1681526020019081526020016000205460096000600854815260200190815260200160002060003373ffffffffffffffffffffffffffffffffffffffff1673ffffffffffffffffffffffffffffffffffffffff16815260200190815260200160002054610c3791906123c2565b905060008111610c4657600080fd5b600660019054906101000a900473ffffffffffffffffffffffffffffffffffffffff1673ffffffffffffffffffffffffffffffffffffffff16630a2f487b3360096000600854815260200190815260200160002060003373ffffffffffffffffffffffffffffffffffffffff1673ffffffffffffffffffffffffffffffffffffffff168152602001908152602001600020546040518363ffffffff1660e01b8152600401610cf5929190612427565b600060405180830381600087803b158015610d0f57600080fd5b505af1158015610d23573d6000803e3d6000fd5b50505050600060096000600854815260200190815260200160002060003373ffffffffffffffffffffffffffffffffffffffff1673ffffffffffffffffffffffffffffffffffffffff168152602001908152602001600020819055506000600a60003373ffffffffffffffffffffffffffffffffffffffff1673ffffffffffffffffffffffffffffffffffffffff16815260200190815260200160002081905550610dd633610dd183611263565b6118d5565b50610ddf611685565b565b60006001811115610df557610df4612055565b5b600660009054906101000a900460ff166001811115610e1757610e16612055565b5b14610e2157600080fd5b6000801b610e2e816116f8565b6004548311610e3c57600080fd5b81600b60006101000a81548173ffffffffffffffffffffffffffffffffffffffff021916908373ffffffffffffffffffffffffffffffffffffffff160217905550600b60009054906101000a900473ffffffffffffffffffffffffffffffffffffffff1673ffffffffffffffffffffffffffffffffffffffff1663a55870886040518163ffffffff1660e01b8152600401602060405180830381600087803b158015610ee757600080fd5b505af1158015610efb573d6000803e3d6000fd5b505050506040513d601f19601f82011682018060405250810190610f1f9190612465565b600c819055506014600c54610f3491906124c1565b600d819055506000600660019054906101000a900473ffffffffffffffffffffffffffffffffffffffff16905060008173ffffffffffffffffffffffffffffffffffffffff16600754604051610f8990612312565b60006040518083038185875af1925050503d8060008114610fc6576040519150601f19603f3d011682016040523d82523d6000602084013e610fcb565b606091505b505090508061100f576040517f08c379a00000000000000000000000000000000000000000000000000000000081526004016110069061253e565b60405180910390fd5b600060078190555060016008600082825461102a91906123c2565b9250508190555042600481905550846005819055506110476113f9565b5050505050565b600080600084815260200190815260200160002060000160008373ffffffffffffffffffffffffffffffffffffffff1673ffffffffffffffffffffffffffffffffffffffff16815260200190815260200160002060009054906101000a900460ff16905092915050565b6000801b81565b60045481565b600660009054906101000a900460ff1681565b600d5481565b600c5481565b6110ed82610758565b6110f6816116f8565b61110083836117f4565b505050565b600b60009054906101000a900473ffffffffffffffffffffffffffffffffffffffff1681565b600660019054906101000a900473ffffffffffffffffffffffffffffffffffffffff1681565b600260009054906101000a900473ffffffffffffffffffffffffffffffffffffffff1681565b600260015414156111bd576040517f08c379a00000000000000000000000000000000000000000000000000000000081526004016111b4906125aa565b60405180910390fd5b6002600181905550565b6111d18282611968565b600060018111156111e5576111e4612055565b5b600660009054906101000a900460ff16600181111561120757611206612055565b5b1461121157600080fd5b600161121c82611263565b101561122757600080fd5b6064611241600d54600c5461123c91906123c2565b611263565b61124b91906123c2565b61125447611263565b111561125f57600080fd5b5050565b600061127a600354836119c290919063ffffffff16565b9050919050565b801561139d578160096000600854815260200190815260200160002060008573ffffffffffffffffffffffffffffffffffffffff1673ffffffffffffffffffffffffffffffffffffffff16815260200190815260200160002060008282546112e991906123c2565b92505081905550600660019054906101000a900473ffffffffffffffffffffffffffffffffffffffff1673ffffffffffffffffffffffffffffffffffffffff16636f485d6c84846040518363ffffffff1660e01b815260040161134d929190612427565b600060405180830381600087803b15801561136757600080fd5b505af115801561137b573d6000803e3d6000fd5b50505050816007600082825461139191906123c2565b925050819055506113f4565b81600a60008573ffffffffffffffffffffffffffffffffffffffff1673ffffffffffffffffffffffffffffffffffffffff16815260200190815260200160002060008282546113ec91906123c2565b925050819055505b505050565b600d54600c5461140991906123c2565b4710611683576000600b60009054906101000a900473ffffffffffffffffffffffffffffffffffffffff16905060008173ffffffffffffffffffffffffffffffffffffffff16600c5460405161145e90612312565b60006040518083038185875af1925050503d806000811461149b576040519150601f19603f3d011682016040523d82523d6000602084013e6114a0565b606091505b50509050806114e4576040517f08c379a00000000000000000000000000000000000000000000000000000000081526004016114db90612616565b60405180910390fd5b6000600b60009054906101000a900473ffffffffffffffffffffffffffffffffffffffff1673ffffffffffffffffffffffffffffffffffffffff16639c3962f06040518163ffffffff1660e01b8152600401602060405180830381600087803b15801561155057600080fd5b505af1158015611564573d6000803e3d6000fd5b505050506040513d601f19601f82011682018060405250810190611588919061264b565b9050806115ca576040517f08c379a00000000000000000000000000000000000000000000000000000000081526004016115c1906126c4565b60405180910390fd5b6000600781905550600660019054906101000a900473ffffffffffffffffffffffffffffffffffffffff1673ffffffffffffffffffffffffffffffffffffffff166343d726d66040518163ffffffff1660e01b8152600401600060405180830381600087803b15801561163c57600080fd5b505af1158015611650573d6000803e3d6000fd5b505050506001600660006101000a81548160ff0219169083600181111561167a57611679612055565b5b02179055505050505b565b60018081905550565b60007f01ffc9a7000000000000000000000000000000000000000000000000000000007bffffffffffffffffffffffffffffffffffffffffffffffffffffffff1916827bffffffffffffffffffffffffffffffffffffffffffffffffffffffff1916149050919050565b611709816117046117ec565b6119d8565b50565b611716828261104e565b6117e857600160008084815260200190815260200160002060000160008373ffffffffffffffffffffffffffffffffffffffff1673ffffffffffffffffffffffffffffffffffffffff16815260200190815260200160002060006101000a81548160ff02191690831515021790555061178d6117ec565b73ffffffffffffffffffffffffffffffffffffffff168173ffffffffffffffffffffffffffffffffffffffff16837f2f8788117e7eff1d82e926ec794901d17c78024a50270940304540a733656f0d60405160405180910390a45b5050565b600033905090565b6117fe828261104e565b156118d157600080600084815260200190815260200160002060000160008373ffffffffffffffffffffffffffffffffffffffff1673ffffffffffffffffffffffffffffffffffffffff16815260200190815260200160002060006101000a81548160ff0219169083151502179055506118766117ec565b73ffffffffffffffffffffffffffffffffffffffff168173ffffffffffffffffffffffffffffffffffffffff16837ff6391f5c32d9c69d2a47ea670b442974b53935d1edc7fd64eb21e047a839171b60405160405180910390a45b5050565b600260009054906101000a900473ffffffffffffffffffffffffffffffffffffffff1673ffffffffffffffffffffffffffffffffffffffff166340c10f1983836040518363ffffffff1660e01b8152600401611932929190612427565b600060405180830381600087803b15801561194c57600080fd5b505af1158015611960573d6000803e3d6000fd5b505050505050565b600554421061197657600080fd5b600073ffffffffffffffffffffffffffffffffffffffff168273ffffffffffffffffffffffffffffffffffffffff1614156119b057600080fd5b60008114156119be57600080fd5b5050565b600081836119d091906126e4565b905092915050565b6119e2828261104e565b611a59576119ef81611a5d565b6119fd8360001c6020611a8a565b604051602001611a0e929190612850565b6040516020818303038152906040526040517f08c379a0000000000000000000000000000000000000000000000000000000008152600401611a5091906128d4565b60405180910390fd5b5050565b6060611a838273ffffffffffffffffffffffffffffffffffffffff16601460ff16611a8a565b9050919050565b606060006002836002611a9d91906126e4565b611aa791906123c2565b67ffffffffffffffff811115611ac057611abf6128f6565b5b6040519080825280601f01601f191660200182016040528015611af25781602001600182028036833780820191505090505b5090507f300000000000000000000000000000000000000000000000000000000000000081600081518110611b2a57611b29612925565b5b60200101907effffffffffffffffffffffffffffffffffffffffffffffffffffffffffffff1916908160001a9053507f780000000000000000000000000000000000000000000000000000000000000081600181518110611b8e57611b8d612925565b5b60200101907effffffffffffffffffffffffffffffffffffffffffffffffffffffffffffff1916908160001a90535060006001846002611bce91906126e4565b611bd891906123c2565b90505b6001811115611c78577f3031323334353637383961626364656600000000000000000000000000000000600f861660108110611c1a57611c19612925565b5b1a60f81b828281518110611c3157611c30612925565b5b60200101907effffffffffffffffffffffffffffffffffffffffffffffffffffffffffffff1916908160001a905350600485901c945080611c7190612954565b9050611bdb565b5060008414611cbc576040517f08c379a0000000000000000000000000000000000000000000000000000000008152600401611cb3906129ca565b60405180910390fd5b8091505092915050565b600080fd5b60007fffffffff0000000000000000000000000000000000000000000000000000000082169050919050565b611d0081611ccb565b8114611d0b57600080fd5b50565b600081359050611d1d81611cf7565b92915050565b600060208284031215611d3957611d38611cc6565b5b6000611d4784828501611d0e565b91505092915050565b60008115159050919050565b611d6581611d50565b82525050565b6000602082019050611d806000830184611d5c565b92915050565b6000819050919050565b611d9981611d86565b82525050565b6000602082019050611db46000830184611d90565b92915050565b6000819050919050565b611dcd81611dba565b8114611dd857600080fd5b50565b600081359050611dea81611dc4565b92915050565b600060208284031215611e0657611e05611cc6565b5b6000611e1484828501611ddb565b91505092915050565b611e2681611dba565b82525050565b6000602082019050611e416000830184611e1d565b92915050565b600073ffffffffffffffffffffffffffffffffffffffff82169050919050565b6000611e7282611e47565b9050919050565b611e8281611e67565b8114611e8d57600080fd5b50565b600081359050611e9f81611e79565b92915050565b60008060408385031215611ebc57611ebb611cc6565b5b6000611eca85828601611ddb565b9250506020611edb85828601611e90565b9150509250929050565b611eee81611d86565b8114611ef957600080fd5b50565b600081359050611f0b81611ee5565b92915050565b60008060408385031215611f2857611f27611cc6565b5b6000611f3685828601611efc565b9250506020611f4785828601611e90565b9150509250929050565b600060208284031215611f6757611f66611cc6565b5b6000611f7584828501611e90565b91505092915050565b6000611f8982611e47565b9050919050565b611f9981611f7e565b8114611fa457600080fd5b50565b600081359050611fb681611f90565b92915050565b600060208284031215611fd257611fd1611cc6565b5b6000611fe084828501611fa7565b91505092915050565b611ff281611d50565b8114611ffd57600080fd5b50565b60008135905061200f81611fe9565b92915050565b6000806040838503121561202c5761202b611cc6565b5b600061203a85828601611e90565b925050602061204b85828601612000565b9150509250929050565b7f4e487b7100000000000000000000000000000000000000000000000000000000600052602160045260246000fd5b6002811061209557612094612055565b5b50565b60008190506120a682612084565b919050565b60006120b682612098565b9050919050565b6120c6816120ab565b82525050565b60006020820190506120e160008301846120bd565b92915050565b6000819050919050565b600061210c61210761210284611e47565b6120e7565b611e47565b9050919050565b600061211e826120f1565b9050919050565b600061213082612113565b9050919050565b61214081612125565b82525050565b600060208201905061215b6000830184612137565b92915050565b600061216c82612113565b9050919050565b61217c81612161565b82525050565b60006020820190506121976000830184612173565b92915050565b60006121a8826120f1565b9050919050565b60006121ba8261219d565b9050919050565b6121ca816121af565b82525050565b60006020820190506121e560008301846121c1565b92915050565b60006040820190506122006000830185611d90565b61220d6020830184611d90565b9392505050565b600082825260208201905092915050565b7f416363657373436f6e74726f6c3a2063616e206f6e6c792072656e6f756e636560008201527f20726f6c657320666f722073656c660000000000000000000000000000000000602082015250565b6000612281602f83612214565b915061228c82612225565b604082019050919050565b600060208201905081810360008301526122b081612274565b9050919050565b6122c081611f7e565b82525050565b60006020820190506122db60008301846122b7565b92915050565b600081905092915050565b50565b60006122fc6000836122e1565b9150612307826122ec565b600082019050919050565b600061231d826122ef565b9150819050919050565b7f4574686572207472616e73666572206661696c65642e00000000000000000000600082015250565b600061235d601683612214565b915061236882612327565b602082019050919050565b6000602082019050818103600083015261238c81612350565b9050919050565b7f4e487b7100000000000000000000000000000000000000000000000000000000600052601160045260246000fd5b60006123cd82611d86565b91506123d883611d86565b9250827fffffffffffffffffffffffffffffffffffffffffffffffffffffffffffffffff0382111561240d5761240c612393565b5b828201905092915050565b61242181611e67565b82525050565b600060408201905061243c6000830185612418565b6124496020830184611d90565b9392505050565b60008151905061245f81611ee5565b92915050565b60006020828403121561247b5761247a611cc6565b5b600061248984828501612450565b91505092915050565b7f4e487b7100000000000000000000000000000000000000000000000000000000600052601260045260246000fd5b60006124cc82611d86565b91506124d783611d86565b9250826124e7576124e6612492565b5b828204905092915050565b7f46756e6374696f6e206661696c65642e00000000000000000000000000000000600082015250565b6000612528601083612214565b9150612533826124f2565b602082019050919050565b600060208201905081810360008301526125578161251b565b9050919050565b7f5265656e7472616e637947756172643a207265656e7472616e742063616c6c00600082015250565b6000612594601f83612214565b915061259f8261255e565b602082019050919050565b600060208201905081810360008301526125c381612587565b9050919050565b7f5472616e73666572206661696c65642e00000000000000000000000000000000600082015250565b6000612600601083612214565b915061260b826125ca565b602082019050919050565b6000602082019050818103600083015261262f816125f3565b9050919050565b60008151905061264581611fe9565b92915050565b60006020828403121561266157612660611cc6565b5b600061266f84828501612636565b91505092915050565b7f507572636861736520206661696c65642e000000000000000000000000000000600082015250565b60006126ae601183612214565b91506126b982612678565b602082019050919050565b600060208201905081810360008301526126dd816126a1565b9050919050565b60006126ef82611d86565b91506126fa83611d86565b9250817fffffffffffffffffffffffffffffffffffffffffffffffffffffffffffffffff048311821515161561273357612732612393565b5b828202905092915050565b600081905092915050565b7f416363657373436f6e74726f6c3a206163636f756e7420000000000000000000600082015250565b600061277f60178361273e565b915061278a82612749565b601782019050919050565b600081519050919050565b60005b838110156127be5780820151818401526020810190506127a3565b838111156127cd576000848401525b50505050565b60006127de82612795565b6127e8818561273e565b93506127f88185602086016127a0565b80840191505092915050565b7f206973206d697373696e6720726f6c6520000000000000000000000000000000600082015250565b600061283a60118361273e565b915061284582612804565b601182019050919050565b600061285b82612772565b915061286782856127d3565b91506128728261282d565b915061287e82846127d3565b91508190509392505050565b6000601f19601f8301169050919050565b60006128a682612795565b6128b08185612214565b93506128c08185602086016127a0565b6128c98161288a565b840191505092915050565b600060208201905081810360008301526128ee818461289b565b905092915050565b7f4e487b7100000000000000000000000000000000000000000000000000000000600052604160045260246000fd5b7f4e487b7100000000000000000000000000000000000000000000000000000000600052603260045260246000fd5b600061295f82611d86565b9150600082141561297357612972612393565b5b600182039050919050565b7f537472696e67733a20686578206c656e67746820696e73756666696369656e74600082015250565b60006129b4602083612214565b91506129bf8261297e565b602082019050919050565b600060208201905081810360008301526129e3816129a7565b905091905056fea2646970667358221220206255775d893ec311c5613fdf2d6b9965dae8e690751601ad5174cffee884e364736f6c63430008090033",
  "linkReferences": {},
  "deployedLinkReferences": {}
}