{
  "_format": "hh-sol-artifact-1",
  "contractName": "ModifiedCrowdsale",
  "sourceName": "contracts/ModifiedCrowdsale.sol",
  "abi": [
    {
      "inputs": [
        {
          "internalType": "uint256",
          "name": "_rate",
          "type": "uint256"
        },
        {
          "internalType": "address payable",
          "name": "_wallet",
          "type": "address"
        },
        {
          "internalType": "contract NFTToken",
          "name": "_token",
          "type": "address"
        },
        {
          "internalType": "uint256",
          "name": "_openingTime",
          "type": "uint256"
        },
        {
          "internalType": "uint256",
          "name": "_closingTime",
          "type": "uint256"
        }
      ],
      "stateMutability": "nonpayable",
      "type": "constructor"
    },
    {
      "anonymous": false,
      "inputs": [
        {
          "indexed": true,
          "internalType": "address",
          "name": "previousOwner",
          "type": "address"
        },
        {
          "indexed": true,
          "internalType": "address",
          "name": "newOwner",
          "type": "address"
        }
      ],
      "name": "OwnershipTransferred",
      "type": "event"
    },
    {
      "anonymous": false,
      "inputs": [
        {
          "indexed": true,
          "internalType": "address",
          "name": "purchaser",
          "type": "address"
        },
        {
          "indexed": true,
          "internalType": "address",
          "name": "beneficiary",
          "type": "address"
        },
        {
          "indexed": false,
          "internalType": "uint256",
          "name": "value",
          "type": "uint256"
        },
        {
          "indexed": false,
          "internalType": "uint256",
          "name": "amount",
          "type": "uint256"
        }
      ],
      "name": "TokenPurchase",
      "type": "event"
    },
    {
      "stateMutability": "payable",
      "type": "fallback"
    },
    {
      "inputs": [],
      "name": "_hasClosed",
      "outputs": [
        {
          "internalType": "bool",
          "name": "",
          "type": "bool"
        }
      ],
      "stateMutability": "view",
      "type": "function"
    },
    {
      "inputs": [
        {
          "internalType": "address",
          "name": "_beneficiary",
          "type": "address"
        },
        {
          "internalType": "bool",
          "name": "_refundable",
          "type": "bool"
        }
      ],
      "name": "buyTokens",
      "outputs": [],
      "stateMutability": "payable",
      "type": "function"
    },
    {
      "inputs": [],
      "name": "closingTime",
      "outputs": [
        {
          "internalType": "uint256",
          "name": "",
          "type": "uint256"
        }
      ],
      "stateMutability": "view",
      "type": "function"
    },
    {
      "inputs": [],
      "name": "openingTime",
      "outputs": [
        {
          "internalType": "uint256",
          "name": "",
          "type": "uint256"
        }
      ],
      "stateMutability": "view",
      "type": "function"
    },
    {
      "inputs": [],
      "name": "owner",
      "outputs": [
        {
          "internalType": "address",
          "name": "",
          "type": "address"
        }
      ],
      "stateMutability": "view",
      "type": "function"
    },
    {
      "inputs": [],
      "name": "rate",
      "outputs": [
        {
          "internalType": "uint256",
          "name": "",
          "type": "uint256"
        }
      ],
      "stateMutability": "view",
      "type": "function"
    },
    {
      "inputs": [],
      "name": "renounceOwnership",
      "outputs": [],
      "stateMutability": "nonpayable",
      "type": "function"
    },
    {
      "inputs": [],
      "name": "token",
      "outputs": [
        {
          "internalType": "contract NFTToken",
          "name": "",
          "type": "address"
        }
      ],
      "stateMutability": "view",
      "type": "function"
    },
    {
      "inputs": [
        {
          "internalType": "address",
          "name": "newOwner",
          "type": "address"
        }
      ],
      "name": "transferOwnership",
      "outputs": [],
      "stateMutability": "nonpayable",
      "type": "function"
    },
    {
      "inputs": [],
      "name": "wallet",
      "outputs": [
        {
          "internalType": "address payable",
          "name": "",
          "type": "address"
        }
      ],
      "stateMutability": "view",
      "type": "function"
    },
    {
      "inputs": [],
      "name": "weiRaised",
      "outputs": [
        {
          "internalType": "uint256",
          "name": "",
          "type": "uint256"
        }
      ],
      "stateMutability": "view",
      "type": "function"
    },
    {
      "stateMutability": "payable",
      "type": "receive"
    }
  ],
  "bytecode": "0x60806040523480156200001157600080fd5b5060405162000efc38038062000efc833981810160405281019062000037919062000363565b620000576200004b6200019960201b60201c565b620001a160201b60201c565b600085116200006557600080fd5b600073ffffffffffffffffffffffffffffffffffffffff168473ffffffffffffffffffffffffffffffffffffffff161415620000a057600080fd5b600073ffffffffffffffffffffffffffffffffffffffff168373ffffffffffffffffffffffffffffffffffffffff161415620000db57600080fd5b42821015620000e957600080fd5b81811015620000f757600080fd5b8460038190555083600260006101000a81548173ffffffffffffffffffffffffffffffffffffffff021916908373ffffffffffffffffffffffffffffffffffffffff16021790555082600160006101000a81548173ffffffffffffffffffffffffffffffffffffffff021916908373ffffffffffffffffffffffffffffffffffffffff16021790555081600581905550806006819055505050505050620003eb565b600033905090565b60008060009054906101000a900473ffffffffffffffffffffffffffffffffffffffff169050816000806101000a81548173ffffffffffffffffffffffffffffffffffffffff021916908373ffffffffffffffffffffffffffffffffffffffff1602179055508173ffffffffffffffffffffffffffffffffffffffff168173ffffffffffffffffffffffffffffffffffffffff167f8be0079c531659141344cd1fd0a4f28419497f9722a3daafe3b4186f6b6457e060405160405180910390a35050565b600080fd5b6000819050919050565b6200027f816200026a565b81146200028b57600080fd5b50565b6000815190506200029f8162000274565b92915050565b600073ffffffffffffffffffffffffffffffffffffffff82169050919050565b6000620002d282620002a5565b9050919050565b620002e481620002c5565b8114620002f057600080fd5b50565b6000815190506200030481620002d9565b92915050565b60006200031782620002a5565b9050919050565b60006200032b826200030a565b9050919050565b6200033d816200031e565b81146200034957600080fd5b50565b6000815190506200035d8162000332565b92915050565b600080600080600060a0868803121562000382576200038162000265565b5b600062000392888289016200028e565b9550506020620003a588828901620002f3565b9450506040620003b8888289016200034c565b9350506060620003cb888289016200028e565b9250506080620003de888289016200028e565b9150509295509295909350565b610b0180620003fb6000396000f3fe6080604052600436106100a05760003560e01c80638da5cb5b116100645780638da5cb5b14610182578063b7a8807c146101ad578063bbdc9077146101d8578063e1c3fb91146101f4578063f2fde38b1461021f578063fc0c546a14610248576100b2565b80632c4e722e146100bf5780634042b66f146100ea5780634b6753bc14610115578063521eb27314610140578063715018a61461016b576100b2565b366100b2576100b0336001610273565b005b6100bd336001610273565b005b3480156100cb57600080fd5b506100d461033d565b6040516100e19190610687565b60405180910390f35b3480156100f657600080fd5b506100ff610343565b60405161010c9190610687565b60405180910390f35b34801561012157600080fd5b5061012a610349565b6040516101379190610687565b60405180910390f35b34801561014c57600080fd5b5061015561034f565b60405161016291906106e3565b60405180910390f35b34801561017757600080fd5b50610180610375565b005b34801561018e57600080fd5b50610197610389565b6040516101a4919061071f565b60405180910390f35b3480156101b957600080fd5b506101c26103b2565b6040516101cf9190610687565b60405180910390f35b6101f260048036038101906101ed91906107a3565b610273565b005b34801561020057600080fd5b506102096103b8565b60405161021691906107f2565b60405180910390f35b34801561022b57600080fd5b506102466004803603810190610241919061080d565b6103c4565b005b34801561025457600080fd5b5061025d610448565b60405161026a9190610899565b60405180910390f35b6000349050610282838261046e565b600061028d826104cc565b90506102a4826004546104ea90919063ffffffff16565b6004819055506102b5848385610500565b8373ffffffffffffffffffffffffffffffffffffffff163373ffffffffffffffffffffffffffffffffffffffff167f623b3804fa71d67900d064613da8f94b9617215ee90799290593e1745087ad1884846040516103149291906108b4565b60405180910390a3610324610505565b61032d83610507565b610337848361050a565b50505050565b60035481565b60045481565b60065481565b600260009054906101000a900473ffffffffffffffffffffffffffffffffffffffff1681565b61037d61050e565b610387600061058c565b565b60008060009054906101000a900473ffffffffffffffffffffffffffffffffffffffff16905090565b60055481565b60006006544211905090565b6103cc61050e565b600073ffffffffffffffffffffffffffffffffffffffff168173ffffffffffffffffffffffffffffffffffffffff16141561043c576040517f08c379a000000000000000000000000000000000000000000000000000000000815260040161043390610960565b60405180910390fd5b6104458161058c565b50565b600160009054906101000a900473ffffffffffffffffffffffffffffffffffffffff1681565b6104766103b8565b1561048057600080fd5b600073ffffffffffffffffffffffffffffffffffffffff168273ffffffffffffffffffffffffffffffffffffffff1614156104ba57600080fd5b60008114156104c857600080fd5b5050565b60006104e36003548361065090919063ffffffff16565b9050919050565b600081836104f891906109af565b905092915050565b505050565b565b50565b5050565b610516610666565b73ffffffffffffffffffffffffffffffffffffffff16610534610389565b73ffffffffffffffffffffffffffffffffffffffff161461058a576040517f08c379a000000000000000000000000000000000000000000000000000000000815260040161058190610a51565b60405180910390fd5b565b60008060009054906101000a900473ffffffffffffffffffffffffffffffffffffffff169050816000806101000a81548173ffffffffffffffffffffffffffffffffffffffff021916908373ffffffffffffffffffffffffffffffffffffffff1602179055508173ffffffffffffffffffffffffffffffffffffffff168173ffffffffffffffffffffffffffffffffffffffff167f8be0079c531659141344cd1fd0a4f28419497f9722a3daafe3b4186f6b6457e060405160405180910390a35050565b6000818361065e9190610a71565b905092915050565b600033905090565b6000819050919050565b6106818161066e565b82525050565b600060208201905061069c6000830184610678565b92915050565b600073ffffffffffffffffffffffffffffffffffffffff82169050919050565b60006106cd826106a2565b9050919050565b6106dd816106c2565b82525050565b60006020820190506106f860008301846106d4565b92915050565b6000610709826106a2565b9050919050565b610719816106fe565b82525050565b60006020820190506107346000830184610710565b92915050565b600080fd5b610748816106fe565b811461075357600080fd5b50565b6000813590506107658161073f565b92915050565b60008115159050919050565b6107808161076b565b811461078b57600080fd5b50565b60008135905061079d81610777565b92915050565b600080604083850312156107ba576107b961073a565b5b60006107c885828601610756565b92505060206107d98582860161078e565b9150509250929050565b6107ec8161076b565b82525050565b600060208201905061080760008301846107e3565b92915050565b6000602082840312156108235761082261073a565b5b600061083184828501610756565b91505092915050565b6000819050919050565b600061085f61085a610855846106a2565b61083a565b6106a2565b9050919050565b600061087182610844565b9050919050565b600061088382610866565b9050919050565b61089381610878565b82525050565b60006020820190506108ae600083018461088a565b92915050565b60006040820190506108c96000830185610678565b6108d66020830184610678565b9392505050565b600082825260208201905092915050565b7f4f776e61626c653a206e6577206f776e657220697320746865207a65726f206160008201527f6464726573730000000000000000000000000000000000000000000000000000602082015250565b600061094a6026836108dd565b9150610955826108ee565b604082019050919050565b600060208201905081810360008301526109798161093d565b9050919050565b7f4e487b7100000000000000000000000000000000000000000000000000000000600052601160045260246000fd5b60006109ba8261066e565b91506109c58361066e565b9250827fffffffffffffffffffffffffffffffffffffffffffffffffffffffffffffffff038211156109fa576109f9610980565b5b828201905092915050565b7f4f776e61626c653a2063616c6c6572206973206e6f7420746865206f776e6572600082015250565b6000610a3b6020836108dd565b9150610a4682610a05565b602082019050919050565b60006020820190508181036000830152610a6a81610a2e565b9050919050565b6000610a7c8261066e565b9150610a878361066e565b9250817fffffffffffffffffffffffffffffffffffffffffffffffffffffffffffffffff0483118215151615610ac057610abf610980565b5b82820290509291505056fea26469706673582212200a89eed9099f37674c2ab57762c4e43c76680b1de8c09bc234708574faa36e2864736f6c63430008090033",
  "linkReferences": {},
  "deployedLinkReferences": {}
}