{
  "_format": "hh-sol-artifact-1",
  "contractName": "NFTToken",
  "sourceName": "contracts/NFTToken.sol",
  "abi": [
    {
      "inputs": [
        {
          "internalType": "string",
          "name": "name_",
          "type": "string"
        },
        {
          "internalType": "string",
          "name": "symbol_",
          "type": "string"
        }
      ],
      "stateMutability": "nonpayable",
      "type": "constructor"
    },
    {
      "anonymous": false,
      "inputs": [
        {
          "indexed": true,
          "internalType": "address",
          "name": "owner",
          "type": "address"
        },
        {
          "indexed": true,
          "internalType": "address",
          "name": "spender",
          "type": "address"
        },
        {
          "indexed": false,
          "internalType": "uint256",
          "name": "value",
          "type": "uint256"
        }
      ],
      "name": "Approval",
      "type": "event"
    },
    {
      "anonymous": false,
      "inputs": [
        {
          "indexed": true,
          "internalType": "bytes32",
          "name": "role",
          "type": "bytes32"
        },
        {
          "indexed": true,
          "internalType": "bytes32",
          "name": "previousAdminRole",
          "type": "bytes32"
        },
        {
          "indexed": true,
          "internalType": "bytes32",
          "name": "newAdminRole",
          "type": "bytes32"
        }
      ],
      "name": "RoleAdminChanged",
      "type": "event"
    },
    {
      "anonymous": false,
      "inputs": [
        {
          "indexed": true,
          "internalType": "bytes32",
          "name": "role",
          "type": "bytes32"
        },
        {
          "indexed": true,
          "internalType": "address",
          "name": "account",
          "type": "address"
        },
        {
          "indexed": true,
          "internalType": "address",
          "name": "sender",
          "type": "address"
        }
      ],
      "name": "RoleGranted",
      "type": "event"
    },
    {
      "anonymous": false,
      "inputs": [
        {
          "indexed": true,
          "internalType": "bytes32",
          "name": "role",
          "type": "bytes32"
        },
        {
          "indexed": true,
          "internalType": "address",
          "name": "account",
          "type": "address"
        },
        {
          "indexed": true,
          "internalType": "address",
          "name": "sender",
          "type": "address"
        }
      ],
      "name": "RoleRevoked",
      "type": "event"
    },
    {
      "anonymous": false,
      "inputs": [
        {
          "indexed": true,
          "internalType": "address",
          "name": "from",
          "type": "address"
        },
        {
          "indexed": true,
          "internalType": "address",
          "name": "to",
          "type": "address"
        },
        {
          "indexed": false,
          "internalType": "uint256",
          "name": "value",
          "type": "uint256"
        }
      ],
      "name": "Transfer",
      "type": "event"
    },
    {
      "inputs": [],
      "name": "DEFAULT_ADMIN_ROLE",
      "outputs": [
        {
          "internalType": "bytes32",
          "name": "",
          "type": "bytes32"
        }
      ],
      "stateMutability": "view",
      "type": "function"
    },
    {
      "inputs": [],
      "name": "MINTER_ROLE",
      "outputs": [
        {
          "internalType": "bytes32",
          "name": "",
          "type": "bytes32"
        }
      ],
      "stateMutability": "view",
      "type": "function"
    },
    {
      "inputs": [
        {
          "internalType": "address",
          "name": "owner",
          "type": "address"
        },
        {
          "internalType": "address",
          "name": "spender",
          "type": "address"
        }
      ],
      "name": "allowance",
      "outputs": [
        {
          "internalType": "uint256",
          "name": "",
          "type": "uint256"
        }
      ],
      "stateMutability": "view",
      "type": "function"
    },
    {
      "inputs": [
        {
          "internalType": "address",
          "name": "spender",
          "type": "address"
        },
        {
          "internalType": "uint256",
          "name": "amount",
          "type": "uint256"
        }
      ],
      "name": "approve",
      "outputs": [
        {
          "internalType": "bool",
          "name": "",
          "type": "bool"
        }
      ],
      "stateMutability": "nonpayable",
      "type": "function"
    },
    {
      "inputs": [
        {
          "internalType": "address",
          "name": "account",
          "type": "address"
        }
      ],
      "name": "balanceOf",
      "outputs": [
        {
          "internalType": "uint256",
          "name": "",
          "type": "uint256"
        }
      ],
      "stateMutability": "view",
      "type": "function"
    },
    {
      "inputs": [],
      "name": "decimals",
      "outputs": [
        {
          "internalType": "uint8",
          "name": "",
          "type": "uint8"
        }
      ],
      "stateMutability": "view",
      "type": "function"
    },
    {
      "inputs": [
        {
          "internalType": "address",
          "name": "spender",
          "type": "address"
        },
        {
          "internalType": "uint256",
          "name": "subtractedValue",
          "type": "uint256"
        }
      ],
      "name": "decreaseAllowance",
      "outputs": [
        {
          "internalType": "bool",
          "name": "",
          "type": "bool"
        }
      ],
      "stateMutability": "nonpayable",
      "type": "function"
    },
    {
      "inputs": [
        {
          "internalType": "bytes32",
          "name": "role",
          "type": "bytes32"
        }
      ],
      "name": "getRoleAdmin",
      "outputs": [
        {
          "internalType": "bytes32",
          "name": "",
          "type": "bytes32"
        }
      ],
      "stateMutability": "view",
      "type": "function"
    },
    {
      "inputs": [
        {
          "internalType": "address",
          "name": "to",
          "type": "address"
        }
      ],
      "name": "grantMintability",
      "outputs": [],
      "stateMutability": "nonpayable",
      "type": "function"
    },
    {
      "inputs": [
        {
          "internalType": "bytes32",
          "name": "role",
          "type": "bytes32"
        },
        {
          "internalType": "address",
          "name": "account",
          "type": "address"
        }
      ],
      "name": "grantRole",
      "outputs": [],
      "stateMutability": "nonpayable",
      "type": "function"
    },
    {
      "inputs": [
        {
          "internalType": "bytes32",
          "name": "role",
          "type": "bytes32"
        },
        {
          "internalType": "address",
          "name": "account",
          "type": "address"
        }
      ],
      "name": "hasRole",
      "outputs": [
        {
          "internalType": "bool",
          "name": "",
          "type": "bool"
        }
      ],
      "stateMutability": "view",
      "type": "function"
    },
    {
      "inputs": [
        {
          "internalType": "address",
          "name": "spender",
          "type": "address"
        },
        {
          "internalType": "uint256",
          "name": "addedValue",
          "type": "uint256"
        }
      ],
      "name": "increaseAllowance",
      "outputs": [
        {
          "internalType": "bool",
          "name": "",
          "type": "bool"
        }
      ],
      "stateMutability": "nonpayable",
      "type": "function"
    },
    {
      "inputs": [
        {
          "internalType": "string",
          "name": "name_",
          "type": "string"
        },
        {
          "internalType": "string",
          "name": "symbol_",
          "type": "string"
        }
      ],
      "name": "migration",
      "outputs": [],
      "stateMutability": "nonpayable",
      "type": "function"
    },
    {
      "inputs": [
        {
          "internalType": "address",
          "name": "to",
          "type": "address"
        },
        {
          "internalType": "uint256",
          "name": "amount",
          "type": "uint256"
        }
      ],
      "name": "mint",
      "outputs": [],
      "stateMutability": "nonpayable",
      "type": "function"
    },
    {
      "inputs": [],
      "name": "name",
      "outputs": [
        {
          "internalType": "string",
          "name": "",
          "type": "string"
        }
      ],
      "stateMutability": "view",
      "type": "function"
    },
    {
      "inputs": [
        {
          "internalType": "bytes32",
          "name": "role",
          "type": "bytes32"
        },
        {
          "internalType": "address",
          "name": "account",
          "type": "address"
        }
      ],
      "name": "renounceRole",
      "outputs": [],
      "stateMutability": "nonpayable",
      "type": "function"
    },
    {
      "inputs": [
        {
          "internalType": "bytes32",
          "name": "role",
          "type": "bytes32"
        },
        {
          "internalType": "address",
          "name": "account",
          "type": "address"
        }
      ],
      "name": "revokeRole",
      "outputs": [],
      "stateMutability": "nonpayable",
      "type": "function"
    },
    {
      "inputs": [
        {
          "internalType": "bytes4",
          "name": "interfaceId",
          "type": "bytes4"
        }
      ],
      "name": "supportsInterface",
      "outputs": [
        {
          "internalType": "bool",
          "name": "",
          "type": "bool"
        }
      ],
      "stateMutability": "view",
      "type": "function"
    },
    {
      "inputs": [],
      "name": "symbol",
      "outputs": [
        {
          "internalType": "string",
          "name": "",
          "type": "string"
        }
      ],
      "stateMutability": "view",
      "type": "function"
    },
    {
      "inputs": [],
      "name": "totalSupply",
      "outputs": [
        {
          "internalType": "uint256",
          "name": "",
          "type": "uint256"
        }
      ],
      "stateMutability": "view",
      "type": "function"
    },
    {
      "inputs": [
        {
          "internalType": "address",
          "name": "to",
          "type": "address"
        },
        {
          "internalType": "uint256",
          "name": "amount",
          "type": "uint256"
        }
      ],
      "name": "transfer",
      "outputs": [
        {
          "internalType": "bool",
          "name": "",
          "type": "bool"
        }
      ],
      "stateMutability": "nonpayable",
      "type": "function"
    },
    {
      "inputs": [
        {
          "internalType": "address",
          "name": "from",
          "type": "address"
        },
        {
          "internalType": "address",
          "name": "to",
          "type": "address"
        },
        {
          "internalType": "uint256",
          "name": "amount",
          "type": "uint256"
        }
      ],
      "name": "transferFrom",
      "outputs": [
        {
          "internalType": "bool",
          "name": "",
          "type": "bool"
        }
      ],
      "stateMutability": "nonpayable",
      "type": "function"
    }
  ],
  "bytecode": "0x60806040523480156200001157600080fd5b5060405162002a0e38038062002a0e8339818101604052810190620000379190620004a0565b818181600390805190602001906200005192919062000253565b5080600490805190602001906200006a92919062000253565b50505081600690805190602001906200008592919062000253565b5080600790805190602001906200009e92919062000253565b50620000b46000801b33620000ee60201b60201c565b620000e67f9f2df0fed2c77648de5860a4cc508cd0818c85b8b8a1ab4ceeef8d981c8956a633620000ee60201b60201c565b50506200058a565b620001008282620001e060201b60201c565b620001dc5760016005600084815260200190815260200160002060000160008373ffffffffffffffffffffffffffffffffffffffff1673ffffffffffffffffffffffffffffffffffffffff16815260200190815260200160002060006101000a81548160ff021916908315150217905550620001816200024b60201b60201c565b73ffffffffffffffffffffffffffffffffffffffff168173ffffffffffffffffffffffffffffffffffffffff16837f2f8788117e7eff1d82e926ec794901d17c78024a50270940304540a733656f0d60405160405180910390a45b5050565b60006005600084815260200190815260200160002060000160008373ffffffffffffffffffffffffffffffffffffffff1673ffffffffffffffffffffffffffffffffffffffff16815260200190815260200160002060009054906101000a900460ff16905092915050565b600033905090565b828054620002619062000554565b90600052602060002090601f016020900481019282620002855760008555620002d1565b82601f10620002a057805160ff1916838001178555620002d1565b82800160010185558215620002d1579182015b82811115620002d0578251825591602001919060010190620002b3565b5b509050620002e09190620002e4565b5090565b5b80821115620002ff576000816000905550600101620002e5565b5090565b6000604051905090565b600080fd5b600080fd5b600080fd5b600080fd5b6000601f19601f8301169050919050565b7f4e487b7100000000000000000000000000000000000000000000000000000000600052604160045260246000fd5b6200036c8262000321565b810181811067ffffffffffffffff821117156200038e576200038d62000332565b5b80604052505050565b6000620003a362000303565b9050620003b1828262000361565b919050565b600067ffffffffffffffff821115620003d457620003d362000332565b5b620003df8262000321565b9050602081019050919050565b60005b838110156200040c578082015181840152602081019050620003ef565b838111156200041c576000848401525b50505050565b6000620004396200043384620003b6565b62000397565b9050828152602081018484840111156200045857620004576200031c565b5b62000465848285620003ec565b509392505050565b600082601f83011262000485576200048462000317565b5b81516200049784826020860162000422565b91505092915050565b60008060408385031215620004ba57620004b96200030d565b5b600083015167ffffffffffffffff811115620004db57620004da62000312565b5b620004e9858286016200046d565b925050602083015167ffffffffffffffff8111156200050d576200050c62000312565b5b6200051b858286016200046d565b9150509250929050565b7f4e487b7100000000000000000000000000000000000000000000000000000000600052602260045260246000fd5b600060028204905060018216806200056d57607f821691505b6020821081141562000584576200058362000525565b5b50919050565b612474806200059a6000396000f3fe608060405234801561001057600080fd5b50600436106101425760003560e01c806342e6b46c116100b8578063a457c2d71161007c578063a457c2d71461039d578063a9059cbb146103cd578063d500d44f146103fd578063d539139314610419578063d547741f14610437578063dd62ed3e1461045357610142565b806342e6b46c146102e557806370a082311461030157806391d148541461033157806395d89b4114610361578063a217fddf1461037f57610142565b8063248a9ca31161010a578063248a9ca3146102135780632f2ff15d14610243578063313ce5671461025f57806336568abe1461027d578063395093511461029957806340c10f19146102c957610142565b806301ffc9a71461014757806306fdde0314610177578063095ea7b31461019557806318160ddd146101c557806323b872dd146101e3575b600080fd5b610161600480360381019061015c91906116c8565b610483565b60405161016e9190611710565b60405180910390f35b61017f6104fd565b60405161018c91906117c4565b60405180910390f35b6101af60048036038101906101aa919061187a565b61058f565b6040516101bc9190611710565b60405180910390f35b6101cd6105b2565b6040516101da91906118c9565b60405180910390f35b6101fd60048036038101906101f891906118e4565b6105bc565b60405161020a9190611710565b60405180910390f35b61022d6004803603810190610228919061196d565b6105eb565b60405161023a91906119a9565b60405180910390f35b61025d600480360381019061025891906119c4565b61060b565b005b61026761062c565b6040516102749190611a20565b60405180910390f35b610297600480360381019061029291906119c4565b610635565b005b6102b360048036038101906102ae919061187a565b6106b8565b6040516102c09190611710565b60405180910390f35b6102e360048036038101906102de919061187a565b6106ef565b005b6102ff60048036038101906102fa9190611b70565b610728565b005b61031b60048036038101906103169190611be8565b610768565b60405161032891906118c9565b60405180910390f35b61034b600480360381019061034691906119c4565b6107b0565b6040516103589190611710565b60405180910390f35b61036961081b565b60405161037691906117c4565b60405180910390f35b6103876108ad565b60405161039491906119a9565b60405180910390f35b6103b760048036038101906103b2919061187a565b6108b4565b6040516103c49190611710565b60405180910390f35b6103e760048036038101906103e2919061187a565b61092b565b6040516103f49190611710565b60405180910390f35b61041760048036038101906104129190611be8565b61094e565b005b610421610989565b60405161042e91906119a9565b60405180910390f35b610451600480360381019061044c91906119c4565b6109ad565b005b61046d60048036038101906104689190611c15565b6109ce565b60405161047a91906118c9565b60405180910390f35b60007f7965db0b000000000000000000000000000000000000000000000000000000007bffffffffffffffffffffffffffffffffffffffffffffffffffffffff1916827bffffffffffffffffffffffffffffffffffffffffffffffffffffffff191614806104f657506104f582610a55565b5b9050919050565b60606006805461050c90611c84565b80601f016020809104026020016040519081016040528092919081815260200182805461053890611c84565b80156105855780601f1061055a57610100808354040283529160200191610585565b820191906000526020600020905b81548152906001019060200180831161056857829003601f168201915b5050505050905090565b60008061059a610abf565b90506105a7818585610ac7565b600191505092915050565b6000600254905090565b6000806105c7610abf565b90506105d4858285610c92565b6105df858585610d1e565b60019150509392505050565b600060056000838152602001908152602001600020600101549050919050565b610614826105eb565b61061d81610f9f565b6106278383610fb3565b505050565b60006012905090565b61063d610abf565b73ffffffffffffffffffffffffffffffffffffffff168173ffffffffffffffffffffffffffffffffffffffff16146106aa576040517f08c379a00000000000000000000000000000000000000000000000000000000081526004016106a190611d28565b60405180910390fd5b6106b48282611094565b5050565b6000806106c3610abf565b90506106e48185856106d585896109ce565b6106df9190611d77565b610ac7565b600191505092915050565b7f9f2df0fed2c77648de5860a4cc508cd0818c85b8b8a1ab4ceeef8d981c8956a661071981610f9f565b6107238383611176565b505050565b6000801b61073581610f9f565b826006908051906020019061074b9291906115b9565b5081600790805190602001906107629291906115b9565b50505050565b60008060008373ffffffffffffffffffffffffffffffffffffffff1673ffffffffffffffffffffffffffffffffffffffff168152602001908152602001600020549050919050565b60006005600084815260200190815260200160002060000160008373ffffffffffffffffffffffffffffffffffffffff1673ffffffffffffffffffffffffffffffffffffffff16815260200190815260200160002060009054906101000a900460ff16905092915050565b60606007805461082a90611c84565b80601f016020809104026020016040519081016040528092919081815260200182805461085690611c84565b80156108a35780601f10610878576101008083540402835291602001916108a3565b820191906000526020600020905b81548152906001019060200180831161088657829003601f168201915b5050505050905090565b6000801b81565b6000806108bf610abf565b905060006108cd82866109ce565b905083811015610912576040517f08c379a000000000000000000000000000000000000000000000000000000000815260040161090990611e3f565b60405180910390fd5b61091f8286868403610ac7565b60019250505092915050565b600080610936610abf565b9050610943818585610d1e565b600191505092915050565b6000801b61095b81610f9f565b6109857f9f2df0fed2c77648de5860a4cc508cd0818c85b8b8a1ab4ceeef8d981c8956a683610fb3565b5050565b7f9f2df0fed2c77648de5860a4cc508cd0818c85b8b8a1ab4ceeef8d981c8956a681565b6109b6826105eb565b6109bf81610f9f565b6109c98383611094565b505050565b6000600160008473ffffffffffffffffffffffffffffffffffffffff1673ffffffffffffffffffffffffffffffffffffffff16815260200190815260200160002060008373ffffffffffffffffffffffffffffffffffffffff1673ffffffffffffffffffffffffffffffffffffffff16815260200190815260200160002054905092915050565b60007f01ffc9a7000000000000000000000000000000000000000000000000000000007bffffffffffffffffffffffffffffffffffffffffffffffffffffffff1916827bffffffffffffffffffffffffffffffffffffffffffffffffffffffff1916149050919050565b600033905090565b600073ffffffffffffffffffffffffffffffffffffffff168373ffffffffffffffffffffffffffffffffffffffff161415610b37576040517f08c379a0000000000000000000000000000000000000000000000000000000008152600401610b2e90611ed1565b60405180910390fd5b600073ffffffffffffffffffffffffffffffffffffffff168273ffffffffffffffffffffffffffffffffffffffff161415610ba7576040517f08c379a0000000000000000000000000000000000000000000000000000000008152600401610b9e90611f63565b60405180910390fd5b80600160008573ffffffffffffffffffffffffffffffffffffffff1673ffffffffffffffffffffffffffffffffffffffff16815260200190815260200160002060008473ffffffffffffffffffffffffffffffffffffffff1673ffffffffffffffffffffffffffffffffffffffff168152602001908152602001600020819055508173ffffffffffffffffffffffffffffffffffffffff168373ffffffffffffffffffffffffffffffffffffffff167f8c5be1e5ebec7d5bd14f71427d1e84f3dd0314c0f7b2291e5b200ac8c7c3b92583604051610c8591906118c9565b60405180910390a3505050565b6000610c9e84846109ce565b90507fffffffffffffffffffffffffffffffffffffffffffffffffffffffffffffffff8114610d185781811015610d0a576040517f08c379a0000000000000000000000000000000000000000000000000000000008152600401610d0190611fcf565b60405180910390fd5b610d178484848403610ac7565b5b50505050565b600073ffffffffffffffffffffffffffffffffffffffff168373ffffffffffffffffffffffffffffffffffffffff161415610d8e576040517f08c379a0000000000000000000000000000000000000000000000000000000008152600401610d8590612061565b60405180910390fd5b600073ffffffffffffffffffffffffffffffffffffffff168273ffffffffffffffffffffffffffffffffffffffff161415610dfe576040517f08c379a0000000000000000000000000000000000000000000000000000000008152600401610df5906120f3565b60405180910390fd5b610e098383836112d6565b60008060008573ffffffffffffffffffffffffffffffffffffffff1673ffffffffffffffffffffffffffffffffffffffff16815260200190815260200160002054905081811015610e8f576040517f08c379a0000000000000000000000000000000000000000000000000000000008152600401610e8690612185565b60405180910390fd5b8181036000808673ffffffffffffffffffffffffffffffffffffffff1673ffffffffffffffffffffffffffffffffffffffff16815260200190815260200160002081905550816000808573ffffffffffffffffffffffffffffffffffffffff1673ffffffffffffffffffffffffffffffffffffffff1681526020019081526020016000206000828254610f229190611d77565b925050819055508273ffffffffffffffffffffffffffffffffffffffff168473ffffffffffffffffffffffffffffffffffffffff167fddf252ad1be2c89b69c2b068fc378daa952ba7f163c4a11628f55a4df523b3ef84604051610f8691906118c9565b60405180910390a3610f998484846112db565b50505050565b610fb081610fab610abf565b6112e0565b50565b610fbd82826107b0565b6110905760016005600084815260200190815260200160002060000160008373ffffffffffffffffffffffffffffffffffffffff1673ffffffffffffffffffffffffffffffffffffffff16815260200190815260200160002060006101000a81548160ff021916908315150217905550611035610abf565b73ffffffffffffffffffffffffffffffffffffffff168173ffffffffffffffffffffffffffffffffffffffff16837f2f8788117e7eff1d82e926ec794901d17c78024a50270940304540a733656f0d60405160405180910390a45b5050565b61109e82826107b0565b156111725760006005600084815260200190815260200160002060000160008373ffffffffffffffffffffffffffffffffffffffff1673ffffffffffffffffffffffffffffffffffffffff16815260200190815260200160002060006101000a81548160ff021916908315150217905550611117610abf565b73ffffffffffffffffffffffffffffffffffffffff168173ffffffffffffffffffffffffffffffffffffffff16837ff6391f5c32d9c69d2a47ea670b442974b53935d1edc7fd64eb21e047a839171b60405160405180910390a45b5050565b600073ffffffffffffffffffffffffffffffffffffffff168273ffffffffffffffffffffffffffffffffffffffff1614156111e6576040517f08c379a00000000000000000000000000000000000000000000000000000000081526004016111dd906121f1565b60405180910390fd5b6111f2600083836112d6565b80600260008282546112049190611d77565b92505081905550806000808473ffffffffffffffffffffffffffffffffffffffff1673ffffffffffffffffffffffffffffffffffffffff16815260200190815260200160002060008282546112599190611d77565b925050819055508173ffffffffffffffffffffffffffffffffffffffff16600073ffffffffffffffffffffffffffffffffffffffff167fddf252ad1be2c89b69c2b068fc378daa952ba7f163c4a11628f55a4df523b3ef836040516112be91906118c9565b60405180910390a36112d2600083836112db565b5050565b505050565b505050565b6112ea82826107b0565b6113795761130f8173ffffffffffffffffffffffffffffffffffffffff16601461137d565b61131d8360001c602061137d565b60405160200161132e9291906122e5565b6040516020818303038152906040526040517f08c379a000000000000000000000000000000000000000000000000000000000815260040161137091906117c4565b60405180910390fd5b5050565b606060006002836002611390919061231f565b61139a9190611d77565b67ffffffffffffffff8111156113b3576113b2611a45565b5b6040519080825280601f01601f1916602001820160405280156113e55781602001600182028036833780820191505090505b5090507f30000000000000000000000000000000000000000000000000000000000000008160008151811061141d5761141c612379565b5b60200101907effffffffffffffffffffffffffffffffffffffffffffffffffffffffffffff1916908160001a9053507f78000000000000000000000000000000000000000000000000000000000000008160018151811061148157611480612379565b5b60200101907effffffffffffffffffffffffffffffffffffffffffffffffffffffffffffff1916908160001a905350600060018460026114c1919061231f565b6114cb9190611d77565b90505b600181111561156b577f3031323334353637383961626364656600000000000000000000000000000000600f86166010811061150d5761150c612379565b5b1a60f81b82828151811061152457611523612379565b5b60200101907effffffffffffffffffffffffffffffffffffffffffffffffffffffffffffff1916908160001a905350600485901c945080611564906123a8565b90506114ce565b50600084146115af576040517f08c379a00000000000000000000000000000000000000000000000000000000081526004016115a69061241e565b60405180910390fd5b8091505092915050565b8280546115c590611c84565b90600052602060002090601f0160209004810192826115e7576000855561162e565b82601f1061160057805160ff191683800117855561162e565b8280016001018555821561162e579182015b8281111561162d578251825591602001919060010190611612565b5b50905061163b919061163f565b5090565b5b80821115611658576000816000905550600101611640565b5090565b6000604051905090565b600080fd5b600080fd5b60007fffffffff0000000000000000000000000000000000000000000000000000000082169050919050565b6116a581611670565b81146116b057600080fd5b50565b6000813590506116c28161169c565b92915050565b6000602082840312156116de576116dd611666565b5b60006116ec848285016116b3565b91505092915050565b60008115159050919050565b61170a816116f5565b82525050565b60006020820190506117256000830184611701565b92915050565b600081519050919050565b600082825260208201905092915050565b60005b8381101561176557808201518184015260208101905061174a565b83811115611774576000848401525b50505050565b6000601f19601f8301169050919050565b60006117968261172b565b6117a08185611736565b93506117b0818560208601611747565b6117b98161177a565b840191505092915050565b600060208201905081810360008301526117de818461178b565b905092915050565b600073ffffffffffffffffffffffffffffffffffffffff82169050919050565b6000611811826117e6565b9050919050565b61182181611806565b811461182c57600080fd5b50565b60008135905061183e81611818565b92915050565b6000819050919050565b61185781611844565b811461186257600080fd5b50565b6000813590506118748161184e565b92915050565b6000806040838503121561189157611890611666565b5b600061189f8582860161182f565b92505060206118b085828601611865565b9150509250929050565b6118c381611844565b82525050565b60006020820190506118de60008301846118ba565b92915050565b6000806000606084860312156118fd576118fc611666565b5b600061190b8682870161182f565b935050602061191c8682870161182f565b925050604061192d86828701611865565b9150509250925092565b6000819050919050565b61194a81611937565b811461195557600080fd5b50565b60008135905061196781611941565b92915050565b60006020828403121561198357611982611666565b5b600061199184828501611958565b91505092915050565b6119a381611937565b82525050565b60006020820190506119be600083018461199a565b92915050565b600080604083850312156119db576119da611666565b5b60006119e985828601611958565b92505060206119fa8582860161182f565b9150509250929050565b600060ff82169050919050565b611a1a81611a04565b82525050565b6000602082019050611a356000830184611a11565b92915050565b600080fd5b600080fd5b7f4e487b7100000000000000000000000000000000000000000000000000000000600052604160045260246000fd5b611a7d8261177a565b810181811067ffffffffffffffff82111715611a9c57611a9b611a45565b5b80604052505050565b6000611aaf61165c565b9050611abb8282611a74565b919050565b600067ffffffffffffffff821115611adb57611ada611a45565b5b611ae48261177a565b9050602081019050919050565b82818337600083830152505050565b6000611b13611b0e84611ac0565b611aa5565b905082815260208101848484011115611b2f57611b2e611a40565b5b611b3a848285611af1565b509392505050565b600082601f830112611b5757611b56611a3b565b5b8135611b67848260208601611b00565b91505092915050565b60008060408385031215611b8757611b86611666565b5b600083013567ffffffffffffffff811115611ba557611ba461166b565b5b611bb185828601611b42565b925050602083013567ffffffffffffffff811115611bd257611bd161166b565b5b611bde85828601611b42565b9150509250929050565b600060208284031215611bfe57611bfd611666565b5b6000611c0c8482850161182f565b91505092915050565b60008060408385031215611c2c57611c2b611666565b5b6000611c3a8582860161182f565b9250506020611c4b8582860161182f565b9150509250929050565b7f4e487b7100000000000000000000000000000000000000000000000000000000600052602260045260246000fd5b60006002820490506001821680611c9c57607f821691505b60208210811415611cb057611caf611c55565b5b50919050565b7f416363657373436f6e74726f6c3a2063616e206f6e6c792072656e6f756e636560008201527f20726f6c657320666f722073656c660000000000000000000000000000000000602082015250565b6000611d12602f83611736565b9150611d1d82611cb6565b604082019050919050565b60006020820190508181036000830152611d4181611d05565b9050919050565b7f4e487b7100000000000000000000000000000000000000000000000000000000600052601160045260246000fd5b6000611d8282611844565b9150611d8d83611844565b9250827fffffffffffffffffffffffffffffffffffffffffffffffffffffffffffffffff03821115611dc257611dc1611d48565b5b828201905092915050565b7f45524332303a2064656372656173656420616c6c6f77616e63652062656c6f7760008201527f207a65726f000000000000000000000000000000000000000000000000000000602082015250565b6000611e29602583611736565b9150611e3482611dcd565b604082019050919050565b60006020820190508181036000830152611e5881611e1c565b9050919050565b7f45524332303a20617070726f76652066726f6d20746865207a65726f2061646460008201527f7265737300000000000000000000000000000000000000000000000000000000602082015250565b6000611ebb602483611736565b9150611ec682611e5f565b604082019050919050565b60006020820190508181036000830152611eea81611eae565b9050919050565b7f45524332303a20617070726f766520746f20746865207a65726f20616464726560008201527f7373000000000000000000000000000000000000000000000000000000000000602082015250565b6000611f4d602283611736565b9150611f5882611ef1565b604082019050919050565b60006020820190508181036000830152611f7c81611f40565b9050919050565b7f45524332303a20696e73756666696369656e7420616c6c6f77616e6365000000600082015250565b6000611fb9601d83611736565b9150611fc482611f83565b602082019050919050565b60006020820190508181036000830152611fe881611fac565b9050919050565b7f45524332303a207472616e736665722066726f6d20746865207a65726f20616460008201527f6472657373000000000000000000000000000000000000000000000000000000602082015250565b600061204b602583611736565b915061205682611fef565b604082019050919050565b6000602082019050818103600083015261207a8161203e565b9050919050565b7f45524332303a207472616e7366657220746f20746865207a65726f206164647260008201527f6573730000000000000000000000000000000000000000000000000000000000602082015250565b60006120dd602383611736565b91506120e882612081565b604082019050919050565b6000602082019050818103600083015261210c816120d0565b9050919050565b7f45524332303a207472616e7366657220616d6f756e742065786365656473206260008201527f616c616e63650000000000000000000000000000000000000000000000000000602082015250565b600061216f602683611736565b915061217a82612113565b604082019050919050565b6000602082019050818103600083015261219e81612162565b9050919050565b7f45524332303a206d696e7420746f20746865207a65726f206164647265737300600082015250565b60006121db601f83611736565b91506121e6826121a5565b602082019050919050565b6000602082019050818103600083015261220a816121ce565b9050919050565b600081905092915050565b7f416363657373436f6e74726f6c3a206163636f756e7420000000000000000000600082015250565b6000612252601783612211565b915061225d8261221c565b601782019050919050565b60006122738261172b565b61227d8185612211565b935061228d818560208601611747565b80840191505092915050565b7f206973206d697373696e6720726f6c6520000000000000000000000000000000600082015250565b60006122cf601183612211565b91506122da82612299565b601182019050919050565b60006122f082612245565b91506122fc8285612268565b9150612307826122c2565b91506123138284612268565b91508190509392505050565b600061232a82611844565b915061233583611844565b9250817fffffffffffffffffffffffffffffffffffffffffffffffffffffffffffffffff048311821515161561236e5761236d611d48565b5b828202905092915050565b7f4e487b7100000000000000000000000000000000000000000000000000000000600052603260045260246000fd5b60006123b382611844565b915060008214156123c7576123c6611d48565b5b600182039050919050565b7f537472696e67733a20686578206c656e67746820696e73756666696369656e74600082015250565b6000612408602083611736565b9150612413826123d2565b602082019050919050565b60006020820190508181036000830152612437816123fb565b905091905056fea26469706673582212208b93b321618a772a3129bf385071bba85a6434961ee5f3f7f4e70f4b651756d464736f6c63430008090033",
  "linkReferences": {},
  "deployedLinkReferences": {}
}