{
  "_format": "hh-sol-artifact-1",
  "contractName": "MoonlightCrowdsale",
  "sourceName": "contracts/MoonlightCrowdsale.sol",
  "abi": [
    {
      "inputs": [
        {
          "internalType": "uint256",
          "name": "_rate",
          "type": "uint256"
        },
        {
          "internalType": "address payable",
          "name": "_wallet",
          "type": "address"
        },
        {
          "internalType": "contract NFTToken",
          "name": "_token",
          "type": "address"
        },
        {
          "internalType": "uint256",
          "name": "_openingTime",
          "type": "uint256"
        },
        {
          "internalType": "uint256",
          "name": "_closingTime",
          "type": "uint256"
        }
      ],
      "stateMutability": "nonpayable",
      "type": "constructor"
    },
    {
      "anonymous": false,
      "inputs": [
        {
          "indexed": true,
          "internalType": "address",
          "name": "previousOwner",
          "type": "address"
        },
        {
          "indexed": true,
          "internalType": "address",
          "name": "newOwner",
          "type": "address"
        }
      ],
      "name": "OwnershipTransferred",
      "type": "event"
    },
    {
      "anonymous": false,
      "inputs": [
        {
          "indexed": true,
          "internalType": "address",
          "name": "purchaser",
          "type": "address"
        },
        {
          "indexed": true,
          "internalType": "address",
          "name": "beneficiary",
          "type": "address"
        },
        {
          "indexed": false,
          "internalType": "uint256",
          "name": "value",
          "type": "uint256"
        },
        {
          "indexed": false,
          "internalType": "uint256",
          "name": "amount",
          "type": "uint256"
        }
      ],
      "name": "TokenPurchase",
      "type": "event"
    },
    {
      "stateMutability": "payable",
      "type": "fallback"
    },
    {
      "inputs": [],
      "name": "_hasClosed",
      "outputs": [
        {
          "internalType": "bool",
          "name": "",
          "type": "bool"
        }
      ],
      "stateMutability": "view",
      "type": "function"
    },
    {
      "inputs": [],
      "name": "buyNowPriceInWei",
      "outputs": [
        {
          "internalType": "uint256",
          "name": "",
          "type": "uint256"
        }
      ],
      "stateMutability": "view",
      "type": "function"
    },
    {
      "inputs": [
        {
          "internalType": "address",
          "name": "_beneficiary",
          "type": "address"
        },
        {
          "internalType": "bool",
          "name": "_refundable",
          "type": "bool"
        }
      ],
      "name": "buyTokens",
      "outputs": [],
      "stateMutability": "payable",
      "type": "function"
    },
    {
      "inputs": [
        {
          "internalType": "address",
          "name": "_refundee",
          "type": "address"
        }
      ],
      "name": "canBeRefunded",
      "outputs": [
        {
          "internalType": "bool",
          "name": "",
          "type": "bool"
        }
      ],
      "stateMutability": "view",
      "type": "function"
    },
    {
      "inputs": [],
      "name": "closingTime",
      "outputs": [
        {
          "internalType": "uint256",
          "name": "",
          "type": "uint256"
        }
      ],
      "stateMutability": "view",
      "type": "function"
    },
    {
      "inputs": [],
      "name": "collectTokens",
      "outputs": [],
      "stateMutability": "nonpayable",
      "type": "function"
    },
    {
      "inputs": [
        {
          "internalType": "uint256",
          "name": "",
          "type": "uint256"
        },
        {
          "internalType": "address",
          "name": "",
          "type": "address"
        }
      ],
      "name": "currentRefundableBalances",
      "outputs": [
        {
          "internalType": "uint256",
          "name": "",
          "type": "uint256"
        }
      ],
      "stateMutability": "view",
      "type": "function"
    },
    {
      "inputs": [],
      "name": "getMinBidInWei",
      "outputs": [
        {
          "internalType": "uint256",
          "name": "",
          "type": "uint256"
        }
      ],
      "stateMutability": "nonpayable",
      "type": "function"
    },
    {
      "inputs": [],
      "name": "getState",
      "outputs": [
        {
          "internalType": "enum MoonlightCrowdsale.State",
          "name": "",
          "type": "uint8"
        }
      ],
      "stateMutability": "nonpayable",
      "type": "function"
    },
    {
      "inputs": [
        {
          "internalType": "uint256",
          "name": "_newOpeningTime",
          "type": "uint256"
        },
        {
          "internalType": "uint256",
          "name": "_newClosingTime",
          "type": "uint256"
        }
      ],
      "name": "migration",
      "outputs": [],
      "stateMutability": "nonpayable",
      "type": "function"
    },
    {
      "inputs": [],
      "name": "migrationCount",
      "outputs": [
        {
          "internalType": "uint256",
          "name": "",
          "type": "uint256"
        }
      ],
      "stateMutability": "view",
      "type": "function"
    },
    {
      "inputs": [
        {
          "internalType": "address",
          "name": "",
          "type": "address"
        }
      ],
      "name": "nonRefundableBalances",
      "outputs": [
        {
          "internalType": "uint256",
          "name": "",
          "type": "uint256"
        }
      ],
      "stateMutability": "view",
      "type": "function"
    },
    {
      "inputs": [],
      "name": "openingTime",
      "outputs": [
        {
          "internalType": "uint256",
          "name": "",
          "type": "uint256"
        }
      ],
      "stateMutability": "view",
      "type": "function"
    },
    {
      "inputs": [],
      "name": "owner",
      "outputs": [
        {
          "internalType": "address",
          "name": "",
          "type": "address"
        }
      ],
      "stateMutability": "view",
      "type": "function"
    },
    {
      "inputs": [],
      "name": "rate",
      "outputs": [
        {
          "internalType": "uint256",
          "name": "",
          "type": "uint256"
        }
      ],
      "stateMutability": "view",
      "type": "function"
    },
    {
      "inputs": [],
      "name": "refund",
      "outputs": [],
      "stateMutability": "payable",
      "type": "function"
    },
    {
      "inputs": [],
      "name": "refundableWei",
      "outputs": [
        {
          "internalType": "uint256",
          "name": "",
          "type": "uint256"
        }
      ],
      "stateMutability": "view",
      "type": "function"
    },
    {
      "inputs": [],
      "name": "renounceOwnership",
      "outputs": [],
      "stateMutability": "nonpayable",
      "type": "function"
    },
    {
      "inputs": [],
      "name": "token",
      "outputs": [
        {
          "internalType": "contract NFTToken",
          "name": "",
          "type": "address"
        }
      ],
      "stateMutability": "view",
      "type": "function"
    },
    {
      "inputs": [
        {
          "internalType": "address",
          "name": "newOwner",
          "type": "address"
        }
      ],
      "name": "transferOwnership",
      "outputs": [],
      "stateMutability": "nonpayable",
      "type": "function"
    },
    {
      "inputs": [],
      "name": "vault",
      "outputs": [
        {
          "internalType": "contract NFTVault",
          "name": "",
          "type": "address"
        }
      ],
      "stateMutability": "view",
      "type": "function"
    },
    {
      "inputs": [],
      "name": "wallet",
      "outputs": [
        {
          "internalType": "address payable",
          "name": "",
          "type": "address"
        }
      ],
      "stateMutability": "view",
      "type": "function"
    },
    {
      "inputs": [],
      "name": "weiRaised",
      "outputs": [
        {
          "internalType": "uint256",
          "name": "",
          "type": "uint256"
        }
      ],
      "stateMutability": "view",
      "type": "function"
    },
    {
      "stateMutability": "payable",
      "type": "receive"
    }
  ],
  "bytecode": "0x608060405260006009556000600a553480156200001b57600080fd5b5060405162002c5b38038062002c5b833981810160405281019062000041919062000420565b8484848484620000666200005a6200024860201b60201c565b6200025060201b60201c565b600085116200007457600080fd5b600073ffffffffffffffffffffffffffffffffffffffff168473ffffffffffffffffffffffffffffffffffffffff161415620000af57600080fd5b600073ffffffffffffffffffffffffffffffffffffffff168373ffffffffffffffffffffffffffffffffffffffff161415620000ea57600080fd5b42821015620000f857600080fd5b818110156200010657600080fd5b8460038190555083600260006101000a81548173ffffffffffffffffffffffffffffffffffffffff021916908373ffffffffffffffffffffffffffffffffffffffff16021790555082600160006101000a81548173ffffffffffffffffffffffffffffffffffffffff021916908373ffffffffffffffffffffffffffffffffffffffff16021790555081600581905550806006819055505050505050600260009054906101000a900473ffffffffffffffffffffffffffffffffffffffff16604051620001d39062000314565b620001df9190620004b9565b604051809103906000f080158015620001fc573d6000803e3d6000fd5b50600d60006101000a81548173ffffffffffffffffffffffffffffffffffffffff021916908373ffffffffffffffffffffffffffffffffffffffff1602179055505050505050620004d6565b600033905090565b60008060009054906101000a900473ffffffffffffffffffffffffffffffffffffffff169050816000806101000a81548173ffffffffffffffffffffffffffffffffffffffff021916908373ffffffffffffffffffffffffffffffffffffffff1602179055508173ffffffffffffffffffffffffffffffffffffffff168173ffffffffffffffffffffffffffffffffffffffff167f8be0079c531659141344cd1fd0a4f28419497f9722a3daafe3b4186f6b6457e060405160405180910390a35050565b610ebd8062001d9e83390190565b600080fd5b6000819050919050565b6200033c8162000327565b81146200034857600080fd5b50565b6000815190506200035c8162000331565b92915050565b600073ffffffffffffffffffffffffffffffffffffffff82169050919050565b60006200038f8262000362565b9050919050565b620003a18162000382565b8114620003ad57600080fd5b50565b600081519050620003c18162000396565b92915050565b6000620003d48262000362565b9050919050565b6000620003e882620003c7565b9050919050565b620003fa81620003db565b81146200040657600080fd5b50565b6000815190506200041a81620003ef565b92915050565b600080600080600060a086880312156200043f576200043e62000322565b5b60006200044f888289016200034b565b95505060206200046288828901620003b0565b9450506040620004758882890162000409565b935050606062000488888289016200034b565b92505060806200049b888289016200034b565b9150509295509295909350565b620004b38162000382565b82525050565b6000602082019050620004d06000830184620004a8565b92915050565b6118b880620004e66000396000f3fe6080604052600436106101445760003560e01c80638433acd1116100b6578063bbdc90771161006f578063bbdc907714610429578063c97f8d6e14610445578063e1c3fb9114610470578063f2fde38b1461049b578063fbfa77cf146104c4578063fc0c546a146104ef57610156565b80638433acd11461032b5780638da5cb5b1461034257806390a7b13e1461036d578063a4bf26b614610398578063abf1ca17146103c1578063b7a8807c146103fe57610156565b80634b6753bc116101085780634b6753bc1461024c578063521eb27314610277578063590e1ae3146102a2578063715018a6146102ac57806374d00f67146102c35780637a37ac261461030057610156565b80630b98e0d5146101635780631865c57d1461018e5780632c4e722e146101b957806331f36bd9146101e45780634042b66f1461022157610156565b366101565761015433600161051a565b005b61016133600161051a565b005b34801561016f57600080fd5b506101786105e4565b60405161018591906111fc565b60405180910390f35b34801561019a57600080fd5b506101a36105ea565b6040516101b0919061128e565b60405180910390f35b3480156101c557600080fd5b506101ce6106c1565b6040516101db91906111fc565b60405180910390f35b3480156101f057600080fd5b5061020b60048036038101906102069190611338565b6106c7565b60405161021891906111fc565b60405180910390f35b34801561022d57600080fd5b506102366106ec565b60405161024391906111fc565b60405180910390f35b34801561025857600080fd5b506102616106f2565b60405161026e91906111fc565b60405180910390f35b34801561028357600080fd5b5061028c6106f8565b6040516102999190611399565b60405180910390f35b6102aa61071e565b005b3480156102b857600080fd5b506102c16107bf565b005b3480156102cf57600080fd5b506102ea60048036038101906102e591906113b4565b6107d3565b6040516102f791906111fc565b60405180910390f35b34801561030c57600080fd5b506103156107eb565b60405161032291906111fc565b60405180910390f35b34801561033757600080fd5b506103406107f1565b005b34801561034e57600080fd5b5061035761099c565b60405161036491906113f0565b60405180910390f35b34801561037957600080fd5b506103826109c5565b60405161038f91906111fc565b60405180910390f35b3480156103a457600080fd5b506103bf60048036038101906103ba919061140b565b6109ca565b005b3480156103cd57600080fd5b506103e860048036038101906103e391906113b4565b610a1c565b6040516103f59190611466565b60405180910390f35b34801561040a57600080fd5b50610413610ad6565b60405161042091906111fc565b60405180910390f35b610443600480360381019061043e91906114ad565b61051a565b005b34801561045157600080fd5b5061045a610adc565b60405161046791906111fc565b60405180910390f35b34801561047c57600080fd5b50610485610ae2565b6040516104929190611466565b60405180910390f35b3480156104a757600080fd5b506104c260048036038101906104bd91906113b4565b610aee565b005b3480156104d057600080fd5b506104d9610b72565b6040516104e6919061154c565b60405180910390f35b3480156104fb57600080fd5b50610504610b98565b6040516105119190611588565b60405180910390f35b60003490506105298382610bbe565b600061053482610c20565b905061054b82600454610c3e90919063ffffffff16565b60048190555061055c848385610c54565b8373ffffffffffffffffffffffffffffffffffffffff163373ffffffffffffffffffffffffffffffffffffffff167f623b3804fa71d67900d064613da8f94b9617215ee90799290593e1745087ad1884846040516105bb9291906115a3565b60405180910390a36105cb610d3d565b6105d483610eda565b6105de8483610f6d565b50505050565b60095481565b60006002808111156105ff576105fe611217565b5b600760009054906101000a900460ff16600281111561062157610620611217565b5b141561063e57600760009054906101000a900460ff1690506106be565b6106466109c5565b600454101561067f576000600760006101000a81548160ff0219169083600281111561067557610674611217565b5b02179055506106ab565b6001600760006101000a81548160ff021916908360028111156106a5576106a4611217565b5b02179055505b600760009054906101000a900460ff1690505b90565b60035481565b600b602052816000526040600020602052806000526040600020600091509150505481565b60045481565b60065481565b600260009054906101000a900473ffffffffffffffffffffffffffffffffffffffff1681565b61072733610a1c565b61073057600080fd5b600d60009054906101000a900473ffffffffffffffffffffffffffffffffffffffff1673ffffffffffffffffffffffffffffffffffffffff1663fa89401a336040518263ffffffff1660e01b815260040161078b9190611399565b600060405180830381600087803b1580156107a557600080fd5b505af11580156107b9573d6000803e3d6000fd5b50505050565b6107c7610f71565b6107d16000610fef565b565b600c6020528060005260406000206000915090505481565b600a5481565b60028081111561080457610803611217565b5b61080c6105ea565b600281111561081e5761081d611217565b5b1461082857600080fd5b6000600b6000600a54815260200190815260200160002060003373ffffffffffffffffffffffffffffffffffffffff1673ffffffffffffffffffffffffffffffffffffffff168152602001908152602001600020548161088891906115fb565b9050600c60003373ffffffffffffffffffffffffffffffffffffffff1673ffffffffffffffffffffffffffffffffffffffff16815260200190815260200160002054816108d591906115fb565b9050600081116108e457600080fd5b6000600b6000600a54815260200190815260200160002060003373ffffffffffffffffffffffffffffffffffffffff1673ffffffffffffffffffffffffffffffffffffffff168152602001908152602001600020819055506000600c60003373ffffffffffffffffffffffffffffffffffffffff1673ffffffffffffffffffffffffffffffffffffffff16815260200190815260200160002081905550600061098c82610c20565b905061099833826110b3565b5050565b60008060009054906101000a900473ffffffffffffffffffffffffffffffffffffffff16905090565b600090565b6109d2610f71565b81600581905550806006819055506009546004546109f09190611651565b60048190555060006009819055506001600a6000828254610a1191906115fb565b925050819055505050565b600080600b6000600a54815260200190815260200160002060008473ffffffffffffffffffffffffffffffffffffffff1673ffffffffffffffffffffffffffffffffffffffff16815260200190815260200160002054148015610abe57506000600c60008473ffffffffffffffffffffffffffffffffffffffff1673ffffffffffffffffffffffffffffffffffffffff16815260200190815260200160002054145b15610acc5760019050610ad1565b600090505b919050565b60055481565b60085481565b60006006544211905090565b610af6610f71565b600073ffffffffffffffffffffffffffffffffffffffff168173ffffffffffffffffffffffffffffffffffffffff161415610b66576040517f08c379a0000000000000000000000000000000000000000000000000000000008152600401610b5d90611708565b60405180910390fd5b610b6f81610fef565b50565b600d60009054906101000a900473ffffffffffffffffffffffffffffffffffffffff1681565b600160009054906101000a900473ffffffffffffffffffffffffffffffffffffffff1681565b610bc88282611167565b60006002811115610bdc57610bdb611217565b5b610be46105ea565b6002811115610bf657610bf5611217565b5b14610c0057600080fd5b60085481600454610c1191906115fb565b1115610c1c57600080fd5b5050565b6000610c37600354836111c590919063ffffffff16565b9050919050565b60008183610c4c91906115fb565b905092915050565b8015610cc85781600b6000600a54815260200190815260200160002060008573ffffffffffffffffffffffffffffffffffffffff1673ffffffffffffffffffffffffffffffffffffffff1681526020019081526020016000206000828254610cbc91906115fb565b92505081905550610d38565b81600c60008573ffffffffffffffffffffffffffffffffffffffff1673ffffffffffffffffffffffffffffffffffffffff1681526020019081526020016000206000828254610d1791906115fb565b925050819055508160096000828254610d3091906115fb565b925050819055505b505050565b6008546004541415610e9a576000610d56600454610c20565b9050600160009054906101000a900473ffffffffffffffffffffffffffffffffffffffff1673ffffffffffffffffffffffffffffffffffffffff166340c10f1930836040518363ffffffff1660e01b8152600401610db5929190611728565b600060405180830381600087803b158015610dcf57600080fd5b505af1158015610de3573d6000803e3d6000fd5b50505050600d60009054906101000a900473ffffffffffffffffffffffffffffffffffffffff1673ffffffffffffffffffffffffffffffffffffffff166343d726d66040518163ffffffff1660e01b8152600401600060405180830381600087803b158015610e5157600080fd5b505af1158015610e65573d6000803e3d6000fd5b505050506002600760006101000a81548160ff02191690836002811115610e8f57610e8e611217565b5b021790555050610ed8565b610ea26109c5565b6004541115610ed7576001600760006101000a81548160ff02191690836002811115610ed157610ed0611217565b5b02179055505b5b565b600d60009054906101000a900473ffffffffffffffffffffffffffffffffffffffff1673ffffffffffffffffffffffffffffffffffffffff1663adc9740c3433846040518463ffffffff1660e01b8152600401610f38929190611751565b6000604051808303818588803b158015610f5157600080fd5b505af1158015610f65573d6000803e3d6000fd5b505050505050565b5050565b610f796111db565b73ffffffffffffffffffffffffffffffffffffffff16610f9761099c565b73ffffffffffffffffffffffffffffffffffffffff1614610fed576040517f08c379a0000000000000000000000000000000000000000000000000000000008152600401610fe4906117c6565b60405180910390fd5b565b60008060009054906101000a900473ffffffffffffffffffffffffffffffffffffffff169050816000806101000a81548173ffffffffffffffffffffffffffffffffffffffff021916908373ffffffffffffffffffffffffffffffffffffffff1602179055508173ffffffffffffffffffffffffffffffffffffffff168173ffffffffffffffffffffffffffffffffffffffff167f8be0079c531659141344cd1fd0a4f28419497f9722a3daafe3b4186f6b6457e060405160405180910390a35050565b600160009054906101000a900473ffffffffffffffffffffffffffffffffffffffff1673ffffffffffffffffffffffffffffffffffffffff1663a9059cbb83836040518363ffffffff1660e01b8152600401611110929190611728565b602060405180830381600087803b15801561112a57600080fd5b505af115801561113e573d6000803e3d6000fd5b505050506040513d601f19601f8201168201806040525081019061116291906117fb565b505050565b61116f610ae2565b1561117957600080fd5b600073ffffffffffffffffffffffffffffffffffffffff168273ffffffffffffffffffffffffffffffffffffffff1614156111b357600080fd5b60008114156111c157600080fd5b5050565b600081836111d39190611828565b905092915050565b600033905090565b6000819050919050565b6111f6816111e3565b82525050565b600060208201905061121160008301846111ed565b92915050565b7f4e487b7100000000000000000000000000000000000000000000000000000000600052602160045260246000fd5b6003811061125757611256611217565b5b50565b600081905061126882611246565b919050565b60006112788261125a565b9050919050565b6112888161126d565b82525050565b60006020820190506112a3600083018461127f565b92915050565b600080fd5b6112b7816111e3565b81146112c257600080fd5b50565b6000813590506112d4816112ae565b92915050565b600073ffffffffffffffffffffffffffffffffffffffff82169050919050565b6000611305826112da565b9050919050565b611315816112fa565b811461132057600080fd5b50565b6000813590506113328161130c565b92915050565b6000806040838503121561134f5761134e6112a9565b5b600061135d858286016112c5565b925050602061136e85828601611323565b9150509250929050565b6000611383826112da565b9050919050565b61139381611378565b82525050565b60006020820190506113ae600083018461138a565b92915050565b6000602082840312156113ca576113c96112a9565b5b60006113d884828501611323565b91505092915050565b6113ea816112fa565b82525050565b600060208201905061140560008301846113e1565b92915050565b60008060408385031215611422576114216112a9565b5b6000611430858286016112c5565b9250506020611441858286016112c5565b9150509250929050565b60008115159050919050565b6114608161144b565b82525050565b600060208201905061147b6000830184611457565b92915050565b61148a8161144b565b811461149557600080fd5b50565b6000813590506114a781611481565b92915050565b600080604083850312156114c4576114c36112a9565b5b60006114d285828601611323565b92505060206114e385828601611498565b9150509250929050565b6000819050919050565b600061151261150d611508846112da565b6114ed565b6112da565b9050919050565b6000611524826114f7565b9050919050565b600061153682611519565b9050919050565b6115468161152b565b82525050565b6000602082019050611561600083018461153d565b92915050565b600061157282611519565b9050919050565b61158281611567565b82525050565b600060208201905061159d6000830184611579565b92915050565b60006040820190506115b860008301856111ed565b6115c560208301846111ed565b9392505050565b7f4e487b7100000000000000000000000000000000000000000000000000000000600052601160045260246000fd5b6000611606826111e3565b9150611611836111e3565b9250827fffffffffffffffffffffffffffffffffffffffffffffffffffffffffffffffff03821115611646576116456115cc565b5b828201905092915050565b600061165c826111e3565b9150611667836111e3565b92508282101561167a576116796115cc565b5b828203905092915050565b600082825260208201905092915050565b7f4f776e61626c653a206e6577206f776e657220697320746865207a65726f206160008201527f6464726573730000000000000000000000000000000000000000000000000000602082015250565b60006116f2602683611685565b91506116fd82611696565b604082019050919050565b60006020820190508181036000830152611721816116e5565b9050919050565b600060408201905061173d60008301856113e1565b61174a60208301846111ed565b9392505050565b600060408201905061176660008301856113e1565b6117736020830184611457565b9392505050565b7f4f776e61626c653a2063616c6c6572206973206e6f7420746865206f776e6572600082015250565b60006117b0602083611685565b91506117bb8261177a565b602082019050919050565b600060208201905081810360008301526117df816117a3565b9050919050565b6000815190506117f581611481565b92915050565b600060208284031215611811576118106112a9565b5b600061181f848285016117e6565b91505092915050565b6000611833826111e3565b915061183e836111e3565b9250817fffffffffffffffffffffffffffffffffffffffffffffffffffffffffffffffff0483118215151615611877576118766115cc565b5b82820290509291505056fea264697066735822122067af061f1c2711252b206922279e201d1d10c4287bb0f5a5350b39771735944264736f6c6343000809003360806040523480156200001157600080fd5b5060405162000ebd38038062000ebd83398181016040528101906200003791906200023e565b620000576200004b6200010860201b60201c565b6200011060201b60201c565b600073ffffffffffffffffffffffffffffffffffffffff168173ffffffffffffffffffffffffffffffffffffffff1614156200009257600080fd5b80600260006101000a81548173ffffffffffffffffffffffffffffffffffffffff021916908373ffffffffffffffffffffffffffffffffffffffff1602179055506000600260146101000a81548160ff02191690836001811115620000fc57620000fb62000270565b5b0217905550506200029f565b600033905090565b60008060009054906101000a900473ffffffffffffffffffffffffffffffffffffffff169050816000806101000a81548173ffffffffffffffffffffffffffffffffffffffff021916908373ffffffffffffffffffffffffffffffffffffffff1602179055508173ffffffffffffffffffffffffffffffffffffffff168173ffffffffffffffffffffffffffffffffffffffff167f8be0079c531659141344cd1fd0a4f28419497f9722a3daafe3b4186f6b6457e060405160405180910390a35050565b600080fd5b600073ffffffffffffffffffffffffffffffffffffffff82169050919050565b60006200020682620001d9565b9050919050565b6200021881620001f9565b81146200022457600080fd5b50565b60008151905062000238816200020d565b92915050565b600060208284031215620002575762000256620001d4565b5b6000620002678482850162000227565b91505092915050565b7f4e487b7100000000000000000000000000000000000000000000000000000000600052602160045260246000fd5b610c0e80620002af6000396000f3fe6080604052600436106100865760003560e01c80638da5cb5b116100595780638da5cb5b14610121578063adc9740c1461014c578063c19d93fb14610168578063f2fde38b14610193578063fa89401a146101bc57610086565b80633dd2281d1461008b57806343d726d6146100c8578063521eb273146100df578063715018a61461010a575b600080fd5b34801561009757600080fd5b506100b260048036038101906100ad919061081a565b6101e5565b6040516100bf9190610860565b60405180910390f35b3480156100d457600080fd5b506100dd6101fd565b005b3480156100eb57600080fd5b506100f4610307565b604051610101919061089c565b60405180910390f35b34801561011657600080fd5b5061011f61032d565b005b34801561012d57600080fd5b50610136610341565b60405161014391906108c6565b60405180910390f35b61016660048036038101906101619190610919565b61036a565b005b34801561017457600080fd5b5061017d610452565b60405161018a91906109d0565b60405180910390f35b34801561019f57600080fd5b506101ba60048036038101906101b5919061081a565b610465565b005b3480156101c857600080fd5b506101e360048036038101906101de9190610a17565b6104e9565b005b60016020528060005260406000206000915090505481565b610205610657565b6000600181111561021957610218610959565b5b600260149054906101000a900460ff16600181111561023b5761023a610959565b5b1461024557600080fd5b6001600260146101000a81548160ff0219169083600181111561026b5761026a610959565b5b02179055507f1cdde67b72a90f19919ac732a437ac2f7a10fc128d28c2a6e525d89ce5cd9d3a60405160405180910390a1600260009054906101000a900473ffffffffffffffffffffffffffffffffffffffff1673ffffffffffffffffffffffffffffffffffffffff166108fc479081150290604051600060405180830381858888f19350505050158015610304573d6000803e3d6000fd5b50565b600260009054906101000a900473ffffffffffffffffffffffffffffffffffffffff1681565b610335610657565b61033f60006106d5565b565b60008060009054906101000a900473ffffffffffffffffffffffffffffffffffffffff16905090565b6000600181111561037e5761037d610959565b5b600260149054906101000a900460ff1660018111156103a05761039f610959565b5b146103aa57600080fd5b6103b2610657565b801561044e5761040a34600160008573ffffffffffffffffffffffffffffffffffffffff1673ffffffffffffffffffffffffffffffffffffffff1681526020019081526020016000205461079990919063ffffffff16565b600160008473ffffffffffffffffffffffffffffffffffffffff1673ffffffffffffffffffffffffffffffffffffffff168152602001908152602001600020819055505b5050565b600260149054906101000a900460ff1681565b61046d610657565b600073ffffffffffffffffffffffffffffffffffffffff168173ffffffffffffffffffffffffffffffffffffffff1614156104dd576040517f08c379a00000000000000000000000000000000000000000000000000000000081526004016104d490610ac7565b60405180910390fd5b6104e6816106d5565b50565b6000600160008373ffffffffffffffffffffffffffffffffffffffff1673ffffffffffffffffffffffffffffffffffffffff168152602001908152602001600020541161053557600080fd5b6000600160008373ffffffffffffffffffffffffffffffffffffffff1673ffffffffffffffffffffffffffffffffffffffff1681526020019081526020016000205490506000600160008473ffffffffffffffffffffffffffffffffffffffff1673ffffffffffffffffffffffffffffffffffffffff168152602001908152602001600020819055508173ffffffffffffffffffffffffffffffffffffffff166108fc829081150290604051600060405180830381858888f19350505050158015610604573d6000803e3d6000fd5b508173ffffffffffffffffffffffffffffffffffffffff167fd7dee2702d63ad89917b6a4da9981c90c4d24f8c2bdfd64c604ecae57d8d06518260405161064b9190610860565b60405180910390a25050565b61065f6107af565b73ffffffffffffffffffffffffffffffffffffffff1661067d610341565b73ffffffffffffffffffffffffffffffffffffffff16146106d3576040517f08c379a00000000000000000000000000000000000000000000000000000000081526004016106ca90610b33565b60405180910390fd5b565b60008060009054906101000a900473ffffffffffffffffffffffffffffffffffffffff169050816000806101000a81548173ffffffffffffffffffffffffffffffffffffffff021916908373ffffffffffffffffffffffffffffffffffffffff1602179055508173ffffffffffffffffffffffffffffffffffffffff168173ffffffffffffffffffffffffffffffffffffffff167f8be0079c531659141344cd1fd0a4f28419497f9722a3daafe3b4186f6b6457e060405160405180910390a35050565b600081836107a79190610b82565b905092915050565b600033905090565b600080fd5b600073ffffffffffffffffffffffffffffffffffffffff82169050919050565b60006107e7826107bc565b9050919050565b6107f7816107dc565b811461080257600080fd5b50565b600081359050610814816107ee565b92915050565b6000602082840312156108305761082f6107b7565b5b600061083e84828501610805565b91505092915050565b6000819050919050565b61085a81610847565b82525050565b60006020820190506108756000830184610851565b92915050565b6000610886826107bc565b9050919050565b6108968161087b565b82525050565b60006020820190506108b1600083018461088d565b92915050565b6108c0816107dc565b82525050565b60006020820190506108db60008301846108b7565b92915050565b60008115159050919050565b6108f6816108e1565b811461090157600080fd5b50565b600081359050610913816108ed565b92915050565b600080604083850312156109305761092f6107b7565b5b600061093e85828601610805565b925050602061094f85828601610904565b9150509250929050565b7f4e487b7100000000000000000000000000000000000000000000000000000000600052602160045260246000fd5b6002811061099957610998610959565b5b50565b60008190506109aa82610988565b919050565b60006109ba8261099c565b9050919050565b6109ca816109af565b82525050565b60006020820190506109e560008301846109c1565b92915050565b6109f48161087b565b81146109ff57600080fd5b50565b600081359050610a11816109eb565b92915050565b600060208284031215610a2d57610a2c6107b7565b5b6000610a3b84828501610a02565b91505092915050565b600082825260208201905092915050565b7f4f776e61626c653a206e6577206f776e657220697320746865207a65726f206160008201527f6464726573730000000000000000000000000000000000000000000000000000602082015250565b6000610ab1602683610a44565b9150610abc82610a55565b604082019050919050565b60006020820190508181036000830152610ae081610aa4565b9050919050565b7f4f776e61626c653a2063616c6c6572206973206e6f7420746865206f776e6572600082015250565b6000610b1d602083610a44565b9150610b2882610ae7565b602082019050919050565b60006020820190508181036000830152610b4c81610b10565b9050919050565b7f4e487b7100000000000000000000000000000000000000000000000000000000600052601160045260246000fd5b6000610b8d82610847565b9150610b9883610847565b9250827fffffffffffffffffffffffffffffffffffffffffffffffffffffffffffffffff03821115610bcd57610bcc610b53565b5b82820190509291505056fea26469706673582212209bf1639e5afbc30f9433f92d753bc0ebfc09caaadd8035aa5d6212f39885a63364736f6c63430008090033",
  "linkReferences": {},
  "deployedLinkReferences": {}
}