{
  "_format": "hh-sol-artifact-1",
  "contractName": "MoonTokenFactory",
  "sourceName": "contracts/MoonTokenFactory.sol",
  "abi": [
    {
      "inputs": [],
      "stateMutability": "nonpayable",
      "type": "constructor"
    },
    {
      "anonymous": false,
      "inputs": [
        {
          "indexed": true,
          "internalType": "bytes32",
          "name": "role",
          "type": "bytes32"
        },
        {
          "indexed": true,
          "internalType": "bytes32",
          "name": "previousAdminRole",
          "type": "bytes32"
        },
        {
          "indexed": true,
          "internalType": "bytes32",
          "name": "newAdminRole",
          "type": "bytes32"
        }
      ],
      "name": "RoleAdminChanged",
      "type": "event"
    },
    {
      "anonymous": false,
      "inputs": [
        {
          "indexed": true,
          "internalType": "bytes32",
          "name": "role",
          "type": "bytes32"
        },
        {
          "indexed": true,
          "internalType": "address",
          "name": "account",
          "type": "address"
        },
        {
          "indexed": true,
          "internalType": "address",
          "name": "sender",
          "type": "address"
        }
      ],
      "name": "RoleGranted",
      "type": "event"
    },
    {
      "anonymous": false,
      "inputs": [
        {
          "indexed": true,
          "internalType": "bytes32",
          "name": "role",
          "type": "bytes32"
        },
        {
          "indexed": true,
          "internalType": "address",
          "name": "account",
          "type": "address"
        },
        {
          "indexed": true,
          "internalType": "address",
          "name": "sender",
          "type": "address"
        }
      ],
      "name": "RoleRevoked",
      "type": "event"
    },
    {
      "inputs": [],
      "name": "DEFAULT_ADMIN_ROLE",
      "outputs": [
        {
          "internalType": "bytes32",
          "name": "",
          "type": "bytes32"
        }
      ],
      "stateMutability": "view",
      "type": "function"
    },
    {
      "inputs": [],
      "name": "getLatestToken",
      "outputs": [
        {
          "internalType": "address",
          "name": "",
          "type": "address"
        }
      ],
      "stateMutability": "view",
      "type": "function"
    },
    {
      "inputs": [
        {
          "internalType": "bytes32",
          "name": "role",
          "type": "bytes32"
        }
      ],
      "name": "getRoleAdmin",
      "outputs": [
        {
          "internalType": "bytes32",
          "name": "",
          "type": "bytes32"
        }
      ],
      "stateMutability": "view",
      "type": "function"
    },
    {
      "inputs": [
        {
          "internalType": "address",
          "name": "_token",
          "type": "address"
        },
        {
          "internalType": "address",
          "name": "_to",
          "type": "address"
        }
      ],
      "name": "giveContractOwnership",
      "outputs": [],
      "stateMutability": "nonpayable",
      "type": "function"
    },
    {
      "inputs": [
        {
          "internalType": "address",
          "name": "to",
          "type": "address"
        }
      ],
      "name": "grantOwnerRole",
      "outputs": [],
      "stateMutability": "nonpayable",
      "type": "function"
    },
    {
      "inputs": [
        {
          "internalType": "bytes32",
          "name": "role",
          "type": "bytes32"
        },
        {
          "internalType": "address",
          "name": "account",
          "type": "address"
        }
      ],
      "name": "grantRole",
      "outputs": [],
      "stateMutability": "nonpayable",
      "type": "function"
    },
    {
      "inputs": [
        {
          "internalType": "bytes32",
          "name": "role",
          "type": "bytes32"
        },
        {
          "internalType": "address",
          "name": "account",
          "type": "address"
        }
      ],
      "name": "hasRole",
      "outputs": [
        {
          "internalType": "bool",
          "name": "",
          "type": "bool"
        }
      ],
      "stateMutability": "view",
      "type": "function"
    },
    {
      "inputs": [
        {
          "internalType": "string",
          "name": "_name",
          "type": "string"
        },
        {
          "internalType": "string",
          "name": "_symbol",
          "type": "string"
        },
        {
          "internalType": "uint256",
          "name": "_baseNftID",
          "type": "uint256"
        },
        {
          "internalType": "string",
          "name": "nftURI",
          "type": "string"
        }
      ],
      "name": "newMoonToken",
      "outputs": [
        {
          "internalType": "address",
          "name": "",
          "type": "address"
        }
      ],
      "stateMutability": "nonpayable",
      "type": "function"
    },
    {
      "inputs": [
        {
          "internalType": "bytes32",
          "name": "role",
          "type": "bytes32"
        },
        {
          "internalType": "address",
          "name": "account",
          "type": "address"
        }
      ],
      "name": "renounceRole",
      "outputs": [],
      "stateMutability": "nonpayable",
      "type": "function"
    },
    {
      "inputs": [
        {
          "internalType": "bytes32",
          "name": "role",
          "type": "bytes32"
        },
        {
          "internalType": "address",
          "name": "account",
          "type": "address"
        }
      ],
      "name": "revokeRole",
      "outputs": [],
      "stateMutability": "nonpayable",
      "type": "function"
    },
    {
      "inputs": [
        {
          "internalType": "bytes4",
          "name": "interfaceId",
          "type": "bytes4"
        }
      ],
      "name": "supportsInterface",
      "outputs": [
        {
          "internalType": "bool",
          "name": "",
          "type": "bool"
        }
      ],
      "stateMutability": "view",
      "type": "function"
    }
  ],
  "bytecode": "0x6080604052600060015534801561001557600080fd5b506100296000801b3361002e60201b60201c565b61018c565b61003e828261011a60201b60201c565b61011657600160008084815260200190815260200160002060000160008373ffffffffffffffffffffffffffffffffffffffff1673ffffffffffffffffffffffffffffffffffffffff16815260200190815260200160002060006101000a81548160ff0219169083151502179055506100bb61018460201b60201c565b73ffffffffffffffffffffffffffffffffffffffff168173ffffffffffffffffffffffffffffffffffffffff16837f2f8788117e7eff1d82e926ec794901d17c78024a50270940304540a733656f0d60405160405180910390a45b5050565b600080600084815260200190815260200160002060000160008373ffffffffffffffffffffffffffffffffffffffff1673ffffffffffffffffffffffffffffffffffffffff16815260200190815260200160002060009054906101000a900460ff16905092915050565b600033905090565b614fea806200019c6000396000f3fe60806040523480156200001157600080fd5b5060043610620000b85760003560e01c80635556f1aa116200007b5780635556f1aa14620001895780636f344c5014620001a957806391d1485414620001cb578063a217fddf1462000201578063d2191e751462000223578063d547741f146200025957620000b8565b806301ffc9a714620000bd578063248a9ca314620000f35780632f2ff15d146200012957806336568abe1462000149578063397a8bab1462000169575b600080fd5b620000db6004803603810190620000d5919062000c17565b62000279565b604051620000ea919062000c66565b60405180910390f35b6200011160048036038101906200010b919062000cbe565b620002f6565b60405162000120919062000d01565b60405180910390f35b62000147600480360381019062000141919062000d83565b62000315565b005b62000167600480360381019062000161919062000d83565b6200033c565b005b62000187600480360381019062000181919062000dca565b620003c6565b005b620001a76004803603810190620001a1919062000dfc565b620003e8565b005b620001b362000471565b604051620001c2919062000e54565b60405180910390f35b620001e96004803603810190620001e3919062000d83565b620004c9565b604051620001f8919062000c66565b60405180910390f35b6200020b62000533565b6040516200021a919062000d01565b60405180910390f35b6200024160048036038101906200023b91906200100e565b6200053a565b60405162000250919062000e54565b60405180910390f35b62000277600480360381019062000271919062000d83565b62000619565b005b60007f7965db0b000000000000000000000000000000000000000000000000000000007bffffffffffffffffffffffffffffffffffffffffffffffffffffffff1916827bffffffffffffffffffffffffffffffffffffffffffffffffffffffff19161480620002ef5750620002ee8262000640565b5b9050919050565b6000806000838152602001908152602001600020600101549050919050565b6200032082620002f6565b6200032b81620006aa565b620003378383620006c2565b505050565b62000346620007a7565b73ffffffffffffffffffffffffffffffffffffffff168173ffffffffffffffffffffffffffffffffffffffff1614620003b6576040517f08c379a0000000000000000000000000000000000000000000000000000000008152600401620003ad9062001164565b60405180910390fd5b620003c28282620007af565b5050565b6000801b620003d581620006aa565b620003e46000801b83620006c2565b5050565b6000801b620003f781620006aa565b60008390508073ffffffffffffffffffffffffffffffffffffffff1663397a8bab846040518263ffffffff1660e01b815260040162000437919062000e54565b600060405180830381600087803b1580156200045257600080fd5b505af115801562000467573d6000803e3d6000fd5b5050505050505050565b6000600260018054620004859190620011b5565b81548110620004995762000498620011f0565b5b9060005260206000200160009054906101000a900473ffffffffffffffffffffffffffffffffffffffff16905090565b600080600084815260200190815260200160002060000160008373ffffffffffffffffffffffffffffffffffffffff1673ffffffffffffffffffffffffffffffffffffffff16815260200190815260200160002060009054906101000a900460ff16905092915050565b6000801b81565b60008060001b6200054b81620006aa565b6000868686866040516200055f9062000b98565b6200056e9493929190620012b2565b604051809103906000f0801580156200058b573d6000803e3d6000fd5b5090506002819080600181540180825580915050600190039060005260206000200160009091909190916101000a81548173ffffffffffffffffffffffffffffffffffffffff021916908373ffffffffffffffffffffffffffffffffffffffff160217905550600180600082825462000605919062001314565b925050819055508092505050949350505050565b6200062482620002f6565b6200062f81620006aa565b6200063b8383620007af565b505050565b60007f01ffc9a7000000000000000000000000000000000000000000000000000000007bffffffffffffffffffffffffffffffffffffffffffffffffffffffff1916827bffffffffffffffffffffffffffffffffffffffffffffffffffffffff1916149050919050565b620006bf81620006b9620007a7565b62000895565b50565b620006ce8282620004c9565b620007a357600160008084815260200190815260200160002060000160008373ffffffffffffffffffffffffffffffffffffffff1673ffffffffffffffffffffffffffffffffffffffff16815260200190815260200160002060006101000a81548160ff02191690831515021790555062000748620007a7565b73ffffffffffffffffffffffffffffffffffffffff168173ffffffffffffffffffffffffffffffffffffffff16837f2f8788117e7eff1d82e926ec794901d17c78024a50270940304540a733656f0d60405160405180910390a45b5050565b600033905090565b620007bb8282620004c9565b156200089157600080600084815260200190815260200160002060000160008373ffffffffffffffffffffffffffffffffffffffff1673ffffffffffffffffffffffffffffffffffffffff16815260200190815260200160002060006101000a81548160ff02191690831515021790555062000836620007a7565b73ffffffffffffffffffffffffffffffffffffffff168173ffffffffffffffffffffffffffffffffffffffff16837ff6391f5c32d9c69d2a47ea670b442974b53935d1edc7fd64eb21e047a839171b60405160405180910390a45b5050565b620008a18282620004c9565b6200093957620008c98173ffffffffffffffffffffffffffffffffffffffff1660146200093d565b620008d98360001c60206200093d565b604051602001620008ec92919062001453565b6040516020818303038152906040526040517f08c379a000000000000000000000000000000000000000000000000000000000815260040162000930919062001495565b60405180910390fd5b5050565b606060006002836002620009529190620014b9565b6200095e919062001314565b67ffffffffffffffff8111156200097a576200097962000e8c565b5b6040519080825280601f01601f191660200182016040528015620009ad5781602001600182028036833780820191505090505b5090507f300000000000000000000000000000000000000000000000000000000000000081600081518110620009e857620009e7620011f0565b5b60200101907effffffffffffffffffffffffffffffffffffffffffffffffffffffffffffff1916908160001a9053507f78000000000000000000000000000000000000000000000000000000000000008160018151811062000a4f5762000a4e620011f0565b5b60200101907effffffffffffffffffffffffffffffffffffffffffffffffffffffffffffff1916908160001a9053506000600184600262000a919190620014b9565b62000a9d919062001314565b90505b600181111562000b47577f3031323334353637383961626364656600000000000000000000000000000000600f86166010811062000ae35762000ae2620011f0565b5b1a60f81b82828151811062000afd5762000afc620011f0565b5b60200101907effffffffffffffffffffffffffffffffffffffffffffffffffffffffffffff1916908160001a905350600485901c94508062000b3f906200151a565b905062000aa0565b506000841462000b8e576040517f08c379a000000000000000000000000000000000000000000000000000000000815260040162000b859062001599565b60405180910390fd5b8091505092915050565b6139f980620015bc83390190565b6000604051905090565b600080fd5b600080fd5b60007fffffffff0000000000000000000000000000000000000000000000000000000082169050919050565b62000bf18162000bba565b811462000bfd57600080fd5b50565b60008135905062000c118162000be6565b92915050565b60006020828403121562000c305762000c2f62000bb0565b5b600062000c408482850162000c00565b91505092915050565b60008115159050919050565b62000c608162000c49565b82525050565b600060208201905062000c7d600083018462000c55565b92915050565b6000819050919050565b62000c988162000c83565b811462000ca457600080fd5b50565b60008135905062000cb88162000c8d565b92915050565b60006020828403121562000cd75762000cd662000bb0565b5b600062000ce78482850162000ca7565b91505092915050565b62000cfb8162000c83565b82525050565b600060208201905062000d18600083018462000cf0565b92915050565b600073ffffffffffffffffffffffffffffffffffffffff82169050919050565b600062000d4b8262000d1e565b9050919050565b62000d5d8162000d3e565b811462000d6957600080fd5b50565b60008135905062000d7d8162000d52565b92915050565b6000806040838503121562000d9d5762000d9c62000bb0565b5b600062000dad8582860162000ca7565b925050602062000dc08582860162000d6c565b9150509250929050565b60006020828403121562000de35762000de262000bb0565b5b600062000df38482850162000d6c565b91505092915050565b6000806040838503121562000e165762000e1562000bb0565b5b600062000e268582860162000d6c565b925050602062000e398582860162000d6c565b9150509250929050565b62000e4e8162000d3e565b82525050565b600060208201905062000e6b600083018462000e43565b92915050565b600080fd5b600080fd5b6000601f19601f8301169050919050565b7f4e487b7100000000000000000000000000000000000000000000000000000000600052604160045260246000fd5b62000ec68262000e7b565b810181811067ffffffffffffffff8211171562000ee85762000ee762000e8c565b5b80604052505050565b600062000efd62000ba6565b905062000f0b828262000ebb565b919050565b600067ffffffffffffffff82111562000f2e5762000f2d62000e8c565b5b62000f398262000e7b565b9050602081019050919050565b82818337600083830152505050565b600062000f6c62000f668462000f10565b62000ef1565b90508281526020810184848401111562000f8b5762000f8a62000e76565b5b62000f9884828562000f46565b509392505050565b600082601f83011262000fb85762000fb762000e71565b5b813562000fca84826020860162000f55565b91505092915050565b6000819050919050565b62000fe88162000fd3565b811462000ff457600080fd5b50565b600081359050620010088162000fdd565b92915050565b600080600080608085870312156200102b576200102a62000bb0565b5b600085013567ffffffffffffffff8111156200104c576200104b62000bb5565b5b6200105a8782880162000fa0565b945050602085013567ffffffffffffffff8111156200107e576200107d62000bb5565b5b6200108c8782880162000fa0565b93505060406200109f8782880162000ff7565b925050606085013567ffffffffffffffff811115620010c357620010c262000bb5565b5b620010d18782880162000fa0565b91505092959194509250565b600082825260208201905092915050565b7f416363657373436f6e74726f6c3a2063616e206f6e6c792072656e6f756e636560008201527f20726f6c657320666f722073656c660000000000000000000000000000000000602082015250565b60006200114c602f83620010dd565b91506200115982620010ee565b604082019050919050565b600060208201905081810360008301526200117f816200113d565b9050919050565b7f4e487b7100000000000000000000000000000000000000000000000000000000600052601160045260246000fd5b6000620011c28262000fd3565b9150620011cf8362000fd3565b925082821015620011e557620011e462001186565b5b828203905092915050565b7f4e487b7100000000000000000000000000000000000000000000000000000000600052603260045260246000fd5b600081519050919050565b60005b838110156200124a5780820151818401526020810190506200122d565b838111156200125a576000848401525b50505050565b60006200126d826200121f565b620012798185620010dd565b93506200128b8185602086016200122a565b620012968162000e7b565b840191505092915050565b620012ac8162000fd3565b82525050565b60006080820190508181036000830152620012ce818762001260565b90508181036020830152620012e4818662001260565b9050620012f56040830185620012a1565b818103606083015262001309818462001260565b905095945050505050565b6000620013218262000fd3565b91506200132e8362000fd3565b9250827fffffffffffffffffffffffffffffffffffffffffffffffffffffffffffffffff0382111562001366576200136562001186565b5b828201905092915050565b600081905092915050565b7f416363657373436f6e74726f6c3a206163636f756e7420000000000000000000600082015250565b6000620013b460178362001371565b9150620013c1826200137c565b601782019050919050565b6000620013d9826200121f565b620013e5818562001371565b9350620013f78185602086016200122a565b80840191505092915050565b7f206973206d697373696e6720726f6c6520000000000000000000000000000000600082015250565b60006200143b60118362001371565b9150620014488262001403565b601182019050919050565b60006200146082620013a5565b91506200146e8285620013cc565b91506200147b826200142c565b9150620014898284620013cc565b91508190509392505050565b60006020820190508181036000830152620014b1818462001260565b905092915050565b6000620014c68262000fd3565b9150620014d38362000fd3565b9250817fffffffffffffffffffffffffffffffffffffffffffffffffffffffffffffffff04831182151516156200150f576200150e62001186565b5b828202905092915050565b6000620015278262000fd3565b915060008214156200153e576200153d62001186565b5b600182039050919050565b7f537472696e67733a20686578206c656e67746820696e73756666696369656e74600082015250565b600062001581602083620010dd565b91506200158e8262001549565b602082019050919050565b60006020820190508181036000830152620015b48162001572565b905091905056fe60806040523480156200001157600080fd5b50604051620039f9380380620039f98339818101604052810190620000379190620004ad565b80806200004a81620000a460201b60201c565b50620000606000801b33620000c060201b60201c565b5083600590805190602001906200007992919062000225565b5082600690805190602001906200009292919062000225565b508160048190555050505050620005e1565b8060029080519060200190620000bc92919062000225565b5050565b620000d28282620001b260201b60201c565b620001ae5760016003600084815260200190815260200160002060000160008373ffffffffffffffffffffffffffffffffffffffff1673ffffffffffffffffffffffffffffffffffffffff16815260200190815260200160002060006101000a81548160ff021916908315150217905550620001536200021d60201b60201c565b73ffffffffffffffffffffffffffffffffffffffff168173ffffffffffffffffffffffffffffffffffffffff16837f2f8788117e7eff1d82e926ec794901d17c78024a50270940304540a733656f0d60405160405180910390a45b5050565b60006003600084815260200190815260200160002060000160008373ffffffffffffffffffffffffffffffffffffffff1673ffffffffffffffffffffffffffffffffffffffff16815260200190815260200160002060009054906101000a900460ff16905092915050565b600033905090565b8280546200023390620005ab565b90600052602060002090601f016020900481019282620002575760008555620002a3565b82601f106200027257805160ff1916838001178555620002a3565b82800160010185558215620002a3579182015b82811115620002a257825182559160200191906001019062000285565b5b509050620002b29190620002b6565b5090565b5b80821115620002d1576000816000905550600101620002b7565b5090565b6000604051905090565b600080fd5b600080fd5b600080fd5b600080fd5b6000601f19601f8301169050919050565b7f4e487b7100000000000000000000000000000000000000000000000000000000600052604160045260246000fd5b6200033e82620002f3565b810181811067ffffffffffffffff8211171562000360576200035f62000304565b5b80604052505050565b600062000375620002d5565b905062000383828262000333565b919050565b600067ffffffffffffffff821115620003a657620003a562000304565b5b620003b182620002f3565b9050602081019050919050565b60005b83811015620003de578082015181840152602081019050620003c1565b83811115620003ee576000848401525b50505050565b60006200040b620004058462000388565b62000369565b9050828152602081018484840111156200042a5762000429620002ee565b5b62000437848285620003be565b509392505050565b600082601f830112620004575762000456620002e9565b5b815162000469848260208601620003f4565b91505092915050565b6000819050919050565b620004878162000472565b81146200049357600080fd5b50565b600081519050620004a7816200047c565b92915050565b60008060008060808587031215620004ca57620004c9620002df565b5b600085015167ffffffffffffffff811115620004eb57620004ea620002e4565b5b620004f9878288016200043f565b945050602085015167ffffffffffffffff8111156200051d576200051c620002e4565b5b6200052b878288016200043f565b93505060406200053e8782880162000496565b925050606085015167ffffffffffffffff811115620005625762000561620002e4565b5b62000570878288016200043f565b91505092959194509250565b7f4e487b7100000000000000000000000000000000000000000000000000000000600052602260045260246000fd5b60006002820490506001821680620005c457607f821691505b60208210811415620005db57620005da6200057c565b5b50919050565b61340880620005f16000396000f3fe608060405234801561001057600080fd5b50600436106101155760003560e01c80634e1273f4116100a2578063b9b22c2911610071578063b9b22c2914610314578063d547741f14610332578063e640d8621461034e578063e985e9c51461036a578063f242432a1461039a57610115565b80634e1273f41461027a57806391d14854146102aa578063a217fddf146102da578063a22cb465146102f857610115565b80632eb2c2d6116100e95780632eb2c2d6146101da5780632f2ff15d146101f657806336568abe14610212578063397a8bab1461022e57806340c10f191461024a57610115565b8062fdd58e1461011a57806301ffc9a71461014a5780630e89341c1461017a578063248a9ca3146101aa575b600080fd5b610134600480360381019061012f9190611e72565b6103b6565b6040516101419190611ec1565b60405180910390f35b610164600480360381019061015f9190611f34565b61047f565b6040516101719190611f7c565b60405180910390f35b610194600480360381019061018f9190611f97565b610491565b6040516101a1919061205d565b60405180910390f35b6101c460048036038101906101bf91906120b5565b610525565b6040516101d191906120f1565b60405180910390f35b6101f460048036038101906101ef9190612309565b610545565b005b610210600480360381019061020b91906123d8565b6105e6565b005b61022c600480360381019061022791906123d8565b610607565b005b61024860048036038101906102439190612418565b61068a565b005b610264600480360381019061025f9190611e72565b6106a8565b6040516102719190611ec1565b60405180910390f35b610294600480360381019061028f9190612508565b6106e0565b6040516102a1919061263e565b60405180910390f35b6102c460048036038101906102bf91906123d8565b6107f9565b6040516102d19190611f7c565b60405180910390f35b6102e2610864565b6040516102ef91906120f1565b60405180910390f35b610312600480360381019061030d919061268c565b61086b565b005b61031c610881565b6040516103299190611ec1565b60405180910390f35b61034c600480360381019061034791906123d8565b610887565b005b61036860048036038101906103639190611f97565b6108a8565b005b610384600480360381019061037f91906126cc565b6108c0565b6040516103919190611f7c565b60405180910390f35b6103b460048036038101906103af919061270c565b610954565b005b60008073ffffffffffffffffffffffffffffffffffffffff168373ffffffffffffffffffffffffffffffffffffffff161415610427576040517f08c379a000000000000000000000000000000000000000000000000000000000815260040161041e90612815565b60405180910390fd5b60008083815260200190815260200160002060008473ffffffffffffffffffffffffffffffffffffffff1673ffffffffffffffffffffffffffffffffffffffff16815260200190815260200160002054905092915050565b600061048a826109f5565b9050919050565b6060600280546104a090612864565b80601f01602080910402602001604051908101604052809291908181526020018280546104cc90612864565b80156105195780601f106104ee57610100808354040283529160200191610519565b820191906000526020600020905b8154815290600101906020018083116104fc57829003601f168201915b50505050509050919050565b600060036000838152602001908152602001600020600101549050919050565b61054d610a6f565b73ffffffffffffffffffffffffffffffffffffffff168573ffffffffffffffffffffffffffffffffffffffff16148061059357506105928561058d610a6f565b6108c0565b5b6105d2576040517f08c379a00000000000000000000000000000000000000000000000000000000081526004016105c990612908565b60405180910390fd5b6105df8585858585610a77565b5050505050565b6105ef82610525565b6105f881610d99565b6106028383610dad565b505050565b61060f610a6f565b73ffffffffffffffffffffffffffffffffffffffff168173ffffffffffffffffffffffffffffffffffffffff161461067c576040517f08c379a00000000000000000000000000000000000000000000000000000000081526004016106739061299a565b60405180910390fd5b6106868282610e8e565b5050565b6000801b61069781610d99565b6106a46000801b83610dad565b5050565b60008060001b6106b781610d99565b6106d4846004548560405180602001604052806000815250610f70565b60045491505092915050565b60608151835114610726576040517f08c379a000000000000000000000000000000000000000000000000000000000815260040161071d90612a2c565b60405180910390fd5b6000835167ffffffffffffffff81111561074357610742612111565b5b6040519080825280602002602001820160405280156107715781602001602082028036833780820191505090505b50905060005b84518110156107ee576107be85828151811061079657610795612a4c565b5b60200260200101518583815181106107b1576107b0612a4c565b5b60200260200101516103b6565b8282815181106107d1576107d0612a4c565b5b602002602001018181525050806107e790612aaa565b9050610777565b508091505092915050565b60006003600084815260200190815260200160002060000160008373ffffffffffffffffffffffffffffffffffffffff1673ffffffffffffffffffffffffffffffffffffffff16815260200190815260200160002060009054906101000a900460ff16905092915050565b6000801b81565b61087d610876610a6f565b8383611121565b5050565b60045481565b61089082610525565b61089981610d99565b6108a38383610e8e565b505050565b6000801b6108b581610d99565b816004819055505050565b6000600160008473ffffffffffffffffffffffffffffffffffffffff1673ffffffffffffffffffffffffffffffffffffffff16815260200190815260200160002060008373ffffffffffffffffffffffffffffffffffffffff1673ffffffffffffffffffffffffffffffffffffffff16815260200190815260200160002060009054906101000a900460ff16905092915050565b61095c610a6f565b73ffffffffffffffffffffffffffffffffffffffff168573ffffffffffffffffffffffffffffffffffffffff1614806109a257506109a18561099c610a6f565b6108c0565b5b6109e1576040517f08c379a00000000000000000000000000000000000000000000000000000000081526004016109d890612908565b60405180910390fd5b6109ee858585858561128e565b5050505050565b60007f7965db0b000000000000000000000000000000000000000000000000000000007bffffffffffffffffffffffffffffffffffffffffffffffffffffffff1916827bffffffffffffffffffffffffffffffffffffffffffffffffffffffff19161480610a685750610a678261152a565b5b9050919050565b600033905090565b8151835114610abb576040517f08c379a0000000000000000000000000000000000000000000000000000000008152600401610ab290612b65565b60405180910390fd5b600073ffffffffffffffffffffffffffffffffffffffff168473ffffffffffffffffffffffffffffffffffffffff161415610b2b576040517f08c379a0000000000000000000000000000000000000000000000000000000008152600401610b2290612bf7565b60405180910390fd5b6000610b35610a6f565b9050610b4581878787878761160c565b60005b8451811015610cf6576000858281518110610b6657610b65612a4c565b5b602002602001015190506000858381518110610b8557610b84612a4c565b5b60200260200101519050600080600084815260200190815260200160002060008b73ffffffffffffffffffffffffffffffffffffffff1673ffffffffffffffffffffffffffffffffffffffff16815260200190815260200160002054905081811015610c26576040517f08c379a0000000000000000000000000000000000000000000000000000000008152600401610c1d90612c89565b60405180910390fd5b81810360008085815260200190815260200160002060008c73ffffffffffffffffffffffffffffffffffffffff1673ffffffffffffffffffffffffffffffffffffffff168152602001908152602001600020819055508160008085815260200190815260200160002060008b73ffffffffffffffffffffffffffffffffffffffff1673ffffffffffffffffffffffffffffffffffffffff1681526020019081526020016000206000828254610cdb9190612ca9565b9250508190555050505080610cef90612aaa565b9050610b48565b508473ffffffffffffffffffffffffffffffffffffffff168673ffffffffffffffffffffffffffffffffffffffff168273ffffffffffffffffffffffffffffffffffffffff167f4a39dc06d4c0dbc64b70af90fd698a233a518aa5d07e595d983b8c0526c8f7fb8787604051610d6d929190612cff565b60405180910390a4610d83818787878787611614565b610d9181878787878761161c565b505050505050565b610daa81610da5610a6f565b611803565b50565b610db782826107f9565b610e8a5760016003600084815260200190815260200160002060000160008373ffffffffffffffffffffffffffffffffffffffff1673ffffffffffffffffffffffffffffffffffffffff16815260200190815260200160002060006101000a81548160ff021916908315150217905550610e2f610a6f565b73ffffffffffffffffffffffffffffffffffffffff168173ffffffffffffffffffffffffffffffffffffffff16837f2f8788117e7eff1d82e926ec794901d17c78024a50270940304540a733656f0d60405160405180910390a45b5050565b610e9882826107f9565b15610f6c5760006003600084815260200190815260200160002060000160008373ffffffffffffffffffffffffffffffffffffffff1673ffffffffffffffffffffffffffffffffffffffff16815260200190815260200160002060006101000a81548160ff021916908315150217905550610f11610a6f565b73ffffffffffffffffffffffffffffffffffffffff168173ffffffffffffffffffffffffffffffffffffffff16837ff6391f5c32d9c69d2a47ea670b442974b53935d1edc7fd64eb21e047a839171b60405160405180910390a45b5050565b600073ffffffffffffffffffffffffffffffffffffffff168473ffffffffffffffffffffffffffffffffffffffff161415610fe0576040517f08c379a0000000000000000000000000000000000000000000000000000000008152600401610fd790612da8565b60405180910390fd5b6000610fea610a6f565b90506000610ff7856118a0565b90506000611004856118a0565b90506110158360008985858961160c565b8460008088815260200190815260200160002060008973ffffffffffffffffffffffffffffffffffffffff1673ffffffffffffffffffffffffffffffffffffffff16815260200190815260200160002060008282546110749190612ca9565b925050819055508673ffffffffffffffffffffffffffffffffffffffff16600073ffffffffffffffffffffffffffffffffffffffff168473ffffffffffffffffffffffffffffffffffffffff167fc3d58168c5ae7397731d063d5bbf3d657854427343f4c083240f7aacaa2d0f6289896040516110f2929190612dc8565b60405180910390a461110983600089858589611614565b6111188360008989898961191a565b50505050505050565b8173ffffffffffffffffffffffffffffffffffffffff168373ffffffffffffffffffffffffffffffffffffffff161415611190576040517f08c379a000000000000000000000000000000000000000000000000000000000815260040161118790612e63565b60405180910390fd5b80600160008573ffffffffffffffffffffffffffffffffffffffff1673ffffffffffffffffffffffffffffffffffffffff16815260200190815260200160002060008473ffffffffffffffffffffffffffffffffffffffff1673ffffffffffffffffffffffffffffffffffffffff16815260200190815260200160002060006101000a81548160ff0219169083151502179055508173ffffffffffffffffffffffffffffffffffffffff168373ffffffffffffffffffffffffffffffffffffffff167f17307eab39ab6107e8899845ad3d59bd9653f200f220920489ca2b5937696c31836040516112819190611f7c565b60405180910390a3505050565b600073ffffffffffffffffffffffffffffffffffffffff168473ffffffffffffffffffffffffffffffffffffffff1614156112fe576040517f08c379a00000000000000000000000000000000000000000000000000000000081526004016112f590612bf7565b60405180910390fd5b6000611308610a6f565b90506000611315856118a0565b90506000611322856118a0565b905061133283898985858961160c565b600080600088815260200190815260200160002060008a73ffffffffffffffffffffffffffffffffffffffff1673ffffffffffffffffffffffffffffffffffffffff168152602001908152602001600020549050858110156113c9576040517f08c379a00000000000000000000000000000000000000000000000000000000081526004016113c090612c89565b60405180910390fd5b85810360008089815260200190815260200160002060008b73ffffffffffffffffffffffffffffffffffffffff1673ffffffffffffffffffffffffffffffffffffffff168152602001908152602001600020819055508560008089815260200190815260200160002060008a73ffffffffffffffffffffffffffffffffffffffff1673ffffffffffffffffffffffffffffffffffffffff168152602001908152602001600020600082825461147e9190612ca9565b925050819055508773ffffffffffffffffffffffffffffffffffffffff168973ffffffffffffffffffffffffffffffffffffffff168573ffffffffffffffffffffffffffffffffffffffff167fc3d58168c5ae7397731d063d5bbf3d657854427343f4c083240f7aacaa2d0f628a8a6040516114fb929190612dc8565b60405180910390a4611511848a8a86868a611614565b61151f848a8a8a8a8a61191a565b505050505050505050565b60007fd9b67a26000000000000000000000000000000000000000000000000000000007bffffffffffffffffffffffffffffffffffffffffffffffffffffffff1916827bffffffffffffffffffffffffffffffffffffffffffffffffffffffff191614806115f557507f0e89341c000000000000000000000000000000000000000000000000000000007bffffffffffffffffffffffffffffffffffffffffffffffffffffffff1916827bffffffffffffffffffffffffffffffffffffffffffffffffffffffff1916145b80611605575061160482611b01565b5b9050919050565b505050505050565b505050505050565b61163b8473ffffffffffffffffffffffffffffffffffffffff16611b6b565b156117fb578373ffffffffffffffffffffffffffffffffffffffff1663bc197c8187878686866040518663ffffffff1660e01b8152600401611681959493929190612ee7565b602060405180830381600087803b15801561169b57600080fd5b505af19250505080156116cc57506040513d601f19601f820116820180604052508101906116c99190612f64565b60015b611772576116d8612f9e565b806308c379a0141561173557506116ed612fc0565b806116f85750611737565b806040517f08c379a000000000000000000000000000000000000000000000000000000000815260040161172c919061205d565b60405180910390fd5b505b6040517f08c379a0000000000000000000000000000000000000000000000000000000008152600401611769906130c8565b60405180910390fd5b63bc197c8160e01b7bffffffffffffffffffffffffffffffffffffffffffffffffffffffff1916817bffffffffffffffffffffffffffffffffffffffffffffffffffffffff1916146117f9576040517f08c379a00000000000000000000000000000000000000000000000000000000081526004016117f09061315a565b60405180910390fd5b505b505050505050565b61180d82826107f9565b61189c576118328173ffffffffffffffffffffffffffffffffffffffff166014611b8e565b6118408360001c6020611b8e565b60405160200161185192919061324e565b6040516020818303038152906040526040517f08c379a0000000000000000000000000000000000000000000000000000000008152600401611893919061205d565b60405180910390fd5b5050565b60606000600167ffffffffffffffff8111156118bf576118be612111565b5b6040519080825280602002602001820160405280156118ed5781602001602082028036833780820191505090505b509050828160008151811061190557611904612a4c565b5b60200260200101818152505080915050919050565b6119398473ffffffffffffffffffffffffffffffffffffffff16611b6b565b15611af9578373ffffffffffffffffffffffffffffffffffffffff1663f23a6e6187878686866040518663ffffffff1660e01b815260040161197f959493929190613288565b602060405180830381600087803b15801561199957600080fd5b505af19250505080156119ca57506040513d601f19601f820116820180604052508101906119c79190612f64565b60015b611a70576119d6612f9e565b806308c379a01415611a3357506119eb612fc0565b806119f65750611a35565b806040517f08c379a0000000000000000000000000000000000000000000000000000000008152600401611a2a919061205d565b60405180910390fd5b505b6040517f08c379a0000000000000000000000000000000000000000000000000000000008152600401611a67906130c8565b60405180910390fd5b63f23a6e6160e01b7bffffffffffffffffffffffffffffffffffffffffffffffffffffffff1916817bffffffffffffffffffffffffffffffffffffffffffffffffffffffff191614611af7576040517f08c379a0000000000000000000000000000000000000000000000000000000008152600401611aee9061315a565b60405180910390fd5b505b505050505050565b60007f01ffc9a7000000000000000000000000000000000000000000000000000000007bffffffffffffffffffffffffffffffffffffffffffffffffffffffff1916827bffffffffffffffffffffffffffffffffffffffffffffffffffffffff1916149050919050565b6000808273ffffffffffffffffffffffffffffffffffffffff163b119050919050565b606060006002836002611ba191906132e2565b611bab9190612ca9565b67ffffffffffffffff811115611bc457611bc3612111565b5b6040519080825280601f01601f191660200182016040528015611bf65781602001600182028036833780820191505090505b5090507f300000000000000000000000000000000000000000000000000000000000000081600081518110611c2e57611c2d612a4c565b5b60200101907effffffffffffffffffffffffffffffffffffffffffffffffffffffffffffff1916908160001a9053507f780000000000000000000000000000000000000000000000000000000000000081600181518110611c9257611c91612a4c565b5b60200101907effffffffffffffffffffffffffffffffffffffffffffffffffffffffffffff1916908160001a90535060006001846002611cd291906132e2565b611cdc9190612ca9565b90505b6001811115611d7c577f3031323334353637383961626364656600000000000000000000000000000000600f861660108110611d1e57611d1d612a4c565b5b1a60f81b828281518110611d3557611d34612a4c565b5b60200101907effffffffffffffffffffffffffffffffffffffffffffffffffffffffffffff1916908160001a905350600485901c945080611d759061333c565b9050611cdf565b5060008414611dc0576040517f08c379a0000000000000000000000000000000000000000000000000000000008152600401611db7906133b2565b60405180910390fd5b8091505092915050565b6000604051905090565b600080fd5b600080fd5b600073ffffffffffffffffffffffffffffffffffffffff82169050919050565b6000611e0982611dde565b9050919050565b611e1981611dfe565b8114611e2457600080fd5b50565b600081359050611e3681611e10565b92915050565b6000819050919050565b611e4f81611e3c565b8114611e5a57600080fd5b50565b600081359050611e6c81611e46565b92915050565b60008060408385031215611e8957611e88611dd4565b5b6000611e9785828601611e27565b9250506020611ea885828601611e5d565b9150509250929050565b611ebb81611e3c565b82525050565b6000602082019050611ed66000830184611eb2565b92915050565b60007fffffffff0000000000000000000000000000000000000000000000000000000082169050919050565b611f1181611edc565b8114611f1c57600080fd5b50565b600081359050611f2e81611f08565b92915050565b600060208284031215611f4a57611f49611dd4565b5b6000611f5884828501611f1f565b91505092915050565b60008115159050919050565b611f7681611f61565b82525050565b6000602082019050611f916000830184611f6d565b92915050565b600060208284031215611fad57611fac611dd4565b5b6000611fbb84828501611e5d565b91505092915050565b600081519050919050565b600082825260208201905092915050565b60005b83811015611ffe578082015181840152602081019050611fe3565b8381111561200d576000848401525b50505050565b6000601f19601f8301169050919050565b600061202f82611fc4565b6120398185611fcf565b9350612049818560208601611fe0565b61205281612013565b840191505092915050565b600060208201905081810360008301526120778184612024565b905092915050565b6000819050919050565b6120928161207f565b811461209d57600080fd5b50565b6000813590506120af81612089565b92915050565b6000602082840312156120cb576120ca611dd4565b5b60006120d9848285016120a0565b91505092915050565b6120eb8161207f565b82525050565b600060208201905061210660008301846120e2565b92915050565b600080fd5b7f4e487b7100000000000000000000000000000000000000000000000000000000600052604160045260246000fd5b61214982612013565b810181811067ffffffffffffffff8211171561216857612167612111565b5b80604052505050565b600061217b611dca565b90506121878282612140565b919050565b600067ffffffffffffffff8211156121a7576121a6612111565b5b602082029050602081019050919050565b600080fd5b60006121d06121cb8461218c565b612171565b905080838252602082019050602084028301858111156121f3576121f26121b8565b5b835b8181101561221c57806122088882611e5d565b8452602084019350506020810190506121f5565b5050509392505050565b600082601f83011261223b5761223a61210c565b5b813561224b8482602086016121bd565b91505092915050565b600080fd5b600067ffffffffffffffff82111561227457612273612111565b5b61227d82612013565b9050602081019050919050565b82818337600083830152505050565b60006122ac6122a784612259565b612171565b9050828152602081018484840111156122c8576122c7612254565b5b6122d384828561228a565b509392505050565b600082601f8301126122f0576122ef61210c565b5b8135612300848260208601612299565b91505092915050565b600080600080600060a0868803121561232557612324611dd4565b5b600061233388828901611e27565b955050602061234488828901611e27565b945050604086013567ffffffffffffffff81111561236557612364611dd9565b5b61237188828901612226565b935050606086013567ffffffffffffffff81111561239257612391611dd9565b5b61239e88828901612226565b925050608086013567ffffffffffffffff8111156123bf576123be611dd9565b5b6123cb888289016122db565b9150509295509295909350565b600080604083850312156123ef576123ee611dd4565b5b60006123fd858286016120a0565b925050602061240e85828601611e27565b9150509250929050565b60006020828403121561242e5761242d611dd4565b5b600061243c84828501611e27565b91505092915050565b600067ffffffffffffffff8211156124605761245f612111565b5b602082029050602081019050919050565b600061248461247f84612445565b612171565b905080838252602082019050602084028301858111156124a7576124a66121b8565b5b835b818110156124d057806124bc8882611e27565b8452602084019350506020810190506124a9565b5050509392505050565b600082601f8301126124ef576124ee61210c565b5b81356124ff848260208601612471565b91505092915050565b6000806040838503121561251f5761251e611dd4565b5b600083013567ffffffffffffffff81111561253d5761253c611dd9565b5b612549858286016124da565b925050602083013567ffffffffffffffff81111561256a57612569611dd9565b5b61257685828601612226565b9150509250929050565b600081519050919050565b600082825260208201905092915050565b6000819050602082019050919050565b6125b581611e3c565b82525050565b60006125c783836125ac565b60208301905092915050565b6000602082019050919050565b60006125eb82612580565b6125f5818561258b565b93506126008361259c565b8060005b8381101561263157815161261888826125bb565b9750612623836125d3565b925050600181019050612604565b5085935050505092915050565b6000602082019050818103600083015261265881846125e0565b905092915050565b61266981611f61565b811461267457600080fd5b50565b60008135905061268681612660565b92915050565b600080604083850312156126a3576126a2611dd4565b5b60006126b185828601611e27565b92505060206126c285828601612677565b9150509250929050565b600080604083850312156126e3576126e2611dd4565b5b60006126f185828601611e27565b925050602061270285828601611e27565b9150509250929050565b600080600080600060a0868803121561272857612727611dd4565b5b600061273688828901611e27565b955050602061274788828901611e27565b945050604061275888828901611e5d565b935050606061276988828901611e5d565b925050608086013567ffffffffffffffff81111561278a57612789611dd9565b5b612796888289016122db565b9150509295509295909350565b7f455243313135353a2061646472657373207a65726f206973206e6f742061207660008201527f616c6964206f776e657200000000000000000000000000000000000000000000602082015250565b60006127ff602a83611fcf565b915061280a826127a3565b604082019050919050565b6000602082019050818103600083015261282e816127f2565b9050919050565b7f4e487b7100000000000000000000000000000000000000000000000000000000600052602260045260246000fd5b6000600282049050600182168061287c57607f821691505b602082108114156128905761288f612835565b5b50919050565b7f455243313135353a2063616c6c6572206973206e6f7420746f6b656e206f776e60008201527f6572206e6f7220617070726f7665640000000000000000000000000000000000602082015250565b60006128f2602f83611fcf565b91506128fd82612896565b604082019050919050565b60006020820190508181036000830152612921816128e5565b9050919050565b7f416363657373436f6e74726f6c3a2063616e206f6e6c792072656e6f756e636560008201527f20726f6c657320666f722073656c660000000000000000000000000000000000602082015250565b6000612984602f83611fcf565b915061298f82612928565b604082019050919050565b600060208201905081810360008301526129b381612977565b9050919050565b7f455243313135353a206163636f756e747320616e6420696473206c656e67746860008201527f206d69736d617463680000000000000000000000000000000000000000000000602082015250565b6000612a16602983611fcf565b9150612a21826129ba565b604082019050919050565b60006020820190508181036000830152612a4581612a09565b9050919050565b7f4e487b7100000000000000000000000000000000000000000000000000000000600052603260045260246000fd5b7f4e487b7100000000000000000000000000000000000000000000000000000000600052601160045260246000fd5b6000612ab582611e3c565b91507fffffffffffffffffffffffffffffffffffffffffffffffffffffffffffffffff821415612ae857612ae7612a7b565b5b600182019050919050565b7f455243313135353a2069647320616e6420616d6f756e7473206c656e6774682060008201527f6d69736d61746368000000000000000000000000000000000000000000000000602082015250565b6000612b4f602883611fcf565b9150612b5a82612af3565b604082019050919050565b60006020820190508181036000830152612b7e81612b42565b9050919050565b7f455243313135353a207472616e7366657220746f20746865207a65726f20616460008201527f6472657373000000000000000000000000000000000000000000000000000000602082015250565b6000612be1602583611fcf565b9150612bec82612b85565b604082019050919050565b60006020820190508181036000830152612c1081612bd4565b9050919050565b7f455243313135353a20696e73756666696369656e742062616c616e636520666f60008201527f72207472616e7366657200000000000000000000000000000000000000000000602082015250565b6000612c73602a83611fcf565b9150612c7e82612c17565b604082019050919050565b60006020820190508181036000830152612ca281612c66565b9050919050565b6000612cb482611e3c565b9150612cbf83611e3c565b9250827fffffffffffffffffffffffffffffffffffffffffffffffffffffffffffffffff03821115612cf457612cf3612a7b565b5b828201905092915050565b60006040820190508181036000830152612d1981856125e0565b90508181036020830152612d2d81846125e0565b90509392505050565b7f455243313135353a206d696e7420746f20746865207a65726f2061646472657360008201527f7300000000000000000000000000000000000000000000000000000000000000602082015250565b6000612d92602183611fcf565b9150612d9d82612d36565b604082019050919050565b60006020820190508181036000830152612dc181612d85565b9050919050565b6000604082019050612ddd6000830185611eb2565b612dea6020830184611eb2565b9392505050565b7f455243313135353a2073657474696e6720617070726f76616c2073746174757360008201527f20666f722073656c660000000000000000000000000000000000000000000000602082015250565b6000612e4d602983611fcf565b9150612e5882612df1565b604082019050919050565b60006020820190508181036000830152612e7c81612e40565b9050919050565b612e8c81611dfe565b82525050565b600081519050919050565b600082825260208201905092915050565b6000612eb982612e92565b612ec38185612e9d565b9350612ed3818560208601611fe0565b612edc81612013565b840191505092915050565b600060a082019050612efc6000830188612e83565b612f096020830187612e83565b8181036040830152612f1b81866125e0565b90508181036060830152612f2f81856125e0565b90508181036080830152612f438184612eae565b90509695505050505050565b600081519050612f5e81611f08565b92915050565b600060208284031215612f7a57612f79611dd4565b5b6000612f8884828501612f4f565b91505092915050565b60008160e01c9050919050565b600060033d1115612fbd5760046000803e612fba600051612f91565b90505b90565b600060443d1015612fd057613053565b612fd8611dca565b60043d036004823e80513d602482011167ffffffffffffffff82111715613000575050613053565b808201805167ffffffffffffffff81111561301e5750505050613053565b80602083010160043d03850181111561303b575050505050613053565b61304a82602001850186612140565b82955050505050505b90565b7f455243313135353a207472616e7366657220746f206e6f6e204552433131353560008201527f526563656976657220696d706c656d656e746572000000000000000000000000602082015250565b60006130b2603483611fcf565b91506130bd82613056565b604082019050919050565b600060208201905081810360008301526130e1816130a5565b9050919050565b7f455243313135353a204552433131353552656365697665722072656a6563746560008201527f6420746f6b656e73000000000000000000000000000000000000000000000000602082015250565b6000613144602883611fcf565b915061314f826130e8565b604082019050919050565b6000602082019050818103600083015261317381613137565b9050919050565b600081905092915050565b7f416363657373436f6e74726f6c3a206163636f756e7420000000000000000000600082015250565b60006131bb60178361317a565b91506131c682613185565b601782019050919050565b60006131dc82611fc4565b6131e6818561317a565b93506131f6818560208601611fe0565b80840191505092915050565b7f206973206d697373696e6720726f6c6520000000000000000000000000000000600082015250565b600061323860118361317a565b915061324382613202565b601182019050919050565b6000613259826131ae565b915061326582856131d1565b91506132708261322b565b915061327c82846131d1565b91508190509392505050565b600060a08201905061329d6000830188612e83565b6132aa6020830187612e83565b6132b76040830186611eb2565b6132c46060830185611eb2565b81810360808301526132d68184612eae565b90509695505050505050565b60006132ed82611e3c565b91506132f883611e3c565b9250817fffffffffffffffffffffffffffffffffffffffffffffffffffffffffffffffff048311821515161561333157613330612a7b565b5b828202905092915050565b600061334782611e3c565b9150600082141561335b5761335a612a7b565b5b600182039050919050565b7f537472696e67733a20686578206c656e67746820696e73756666696369656e74600082015250565b600061339c602083611fcf565b91506133a782613366565b602082019050919050565b600060208201905081810360008301526133cb8161338f565b905091905056fea2646970667358221220b9892b426a0c36f50fc524dbc413efcde7d52286efe283054dd0dada8d223c4464736f6c63430008090033a2646970667358221220717dd793fc52b27c62a5e67bdf6e770a505ed466e3f28485456fbbe186bbb0d664736f6c63430008090033",
  "linkReferences": {},
  "deployedLinkReferences": {}
}