{
  "_format": "hh-sol-artifact-1",
  "contractName": "MoonTokenFactory",
  "sourceName": "contracts/MoonTokenFactory.sol",
  "abi": [
    {
      "inputs": [],
      "stateMutability": "nonpayable",
      "type": "constructor"
    },
    {
      "anonymous": false,
      "inputs": [
        {
          "indexed": true,
          "internalType": "bytes32",
          "name": "role",
          "type": "bytes32"
        },
        {
          "indexed": true,
          "internalType": "bytes32",
          "name": "previousAdminRole",
          "type": "bytes32"
        },
        {
          "indexed": true,
          "internalType": "bytes32",
          "name": "newAdminRole",
          "type": "bytes32"
        }
      ],
      "name": "RoleAdminChanged",
      "type": "event"
    },
    {
      "anonymous": false,
      "inputs": [
        {
          "indexed": true,
          "internalType": "bytes32",
          "name": "role",
          "type": "bytes32"
        },
        {
          "indexed": true,
          "internalType": "address",
          "name": "account",
          "type": "address"
        },
        {
          "indexed": true,
          "internalType": "address",
          "name": "sender",
          "type": "address"
        }
      ],
      "name": "RoleGranted",
      "type": "event"
    },
    {
      "anonymous": false,
      "inputs": [
        {
          "indexed": true,
          "internalType": "bytes32",
          "name": "role",
          "type": "bytes32"
        },
        {
          "indexed": true,
          "internalType": "address",
          "name": "account",
          "type": "address"
        },
        {
          "indexed": true,
          "internalType": "address",
          "name": "sender",
          "type": "address"
        }
      ],
      "name": "RoleRevoked",
      "type": "event"
    },
    {
      "inputs": [],
      "name": "DEFAULT_ADMIN_ROLE",
      "outputs": [
        {
          "internalType": "bytes32",
          "name": "",
          "type": "bytes32"
        }
      ],
      "stateMutability": "view",
      "type": "function"
    },
    {
      "inputs": [],
      "name": "getLatestToken",
      "outputs": [
        {
          "internalType": "address",
          "name": "",
          "type": "address"
        }
      ],
      "stateMutability": "view",
      "type": "function"
    },
    {
      "inputs": [
        {
          "internalType": "bytes32",
          "name": "role",
          "type": "bytes32"
        }
      ],
      "name": "getRoleAdmin",
      "outputs": [
        {
          "internalType": "bytes32",
          "name": "",
          "type": "bytes32"
        }
      ],
      "stateMutability": "view",
      "type": "function"
    },
    {
      "inputs": [
        {
          "internalType": "address",
          "name": "_token",
          "type": "address"
        },
        {
          "internalType": "address",
          "name": "_to",
          "type": "address"
        }
      ],
      "name": "giveContractOwnership",
      "outputs": [],
      "stateMutability": "nonpayable",
      "type": "function"
    },
    {
      "inputs": [
        {
          "internalType": "address",
          "name": "to",
          "type": "address"
        }
      ],
      "name": "grantOwnerRole",
      "outputs": [],
      "stateMutability": "nonpayable",
      "type": "function"
    },
    {
      "inputs": [
        {
          "internalType": "bytes32",
          "name": "role",
          "type": "bytes32"
        },
        {
          "internalType": "address",
          "name": "account",
          "type": "address"
        }
      ],
      "name": "grantRole",
      "outputs": [],
      "stateMutability": "nonpayable",
      "type": "function"
    },
    {
      "inputs": [
        {
          "internalType": "bytes32",
          "name": "role",
          "type": "bytes32"
        },
        {
          "internalType": "address",
          "name": "account",
          "type": "address"
        }
      ],
      "name": "hasRole",
      "outputs": [
        {
          "internalType": "bool",
          "name": "",
          "type": "bool"
        }
      ],
      "stateMutability": "view",
      "type": "function"
    },
    {
      "inputs": [
        {
          "internalType": "string",
          "name": "_name",
          "type": "string"
        },
        {
          "internalType": "string",
          "name": "_symbol",
          "type": "string"
        },
        {
          "internalType": "uint256",
          "name": "_baseNftID",
          "type": "uint256"
        }
      ],
      "name": "newMoonToken",
      "outputs": [
        {
          "internalType": "address",
          "name": "",
          "type": "address"
        }
      ],
      "stateMutability": "nonpayable",
      "type": "function"
    },
    {
      "inputs": [
        {
          "internalType": "bytes32",
          "name": "role",
          "type": "bytes32"
        },
        {
          "internalType": "address",
          "name": "account",
          "type": "address"
        }
      ],
      "name": "renounceRole",
      "outputs": [],
      "stateMutability": "nonpayable",
      "type": "function"
    },
    {
      "inputs": [
        {
          "internalType": "bytes32",
          "name": "role",
          "type": "bytes32"
        },
        {
          "internalType": "address",
          "name": "account",
          "type": "address"
        }
      ],
      "name": "revokeRole",
      "outputs": [],
      "stateMutability": "nonpayable",
      "type": "function"
    },
    {
      "inputs": [
        {
          "internalType": "bytes4",
          "name": "interfaceId",
          "type": "bytes4"
        }
      ],
      "name": "supportsInterface",
      "outputs": [
        {
          "internalType": "bool",
          "name": "",
          "type": "bool"
        }
      ],
      "stateMutability": "view",
      "type": "function"
    }
  ],
  "bytecode": "0x6080604052600060015534801561001557600080fd5b506100296000801b3361002e60201b60201c565b61018c565b61003e828261011a60201b60201c565b61011657600160008084815260200190815260200160002060000160008373ffffffffffffffffffffffffffffffffffffffff1673ffffffffffffffffffffffffffffffffffffffff16815260200190815260200160002060006101000a81548160ff0219169083151502179055506100bb61018460201b60201c565b73ffffffffffffffffffffffffffffffffffffffff168173ffffffffffffffffffffffffffffffffffffffff16837f2f8788117e7eff1d82e926ec794901d17c78024a50270940304540a733656f0d60405160405180910390a45b5050565b600080600084815260200190815260200160002060000160008373ffffffffffffffffffffffffffffffffffffffff1673ffffffffffffffffffffffffffffffffffffffff16815260200190815260200160002060009054906101000a900460ff16905092915050565b600033905090565b613d3f806200019c6000396000f3fe60806040523480156200001157600080fd5b5060043610620000b85760003560e01c80635556f1aa116200007b5780635556f1aa14620001895780636f344c5014620001a957806391d1485414620001cb578063a217fddf1462000201578063d547741f1462000223578063dd5d6713146200024357620000b8565b806301ffc9a714620000bd578063248a9ca314620000f35780632f2ff15d146200012957806336568abe1462000149578063397a8bab1462000169575b600080fd5b620000db6004803603810190620000d5919062000c2b565b62000279565b604051620000ea919062000c7a565b60405180910390f35b6200011160048036038101906200010b919062000cd2565b620002f6565b60405162000120919062000d15565b60405180910390f35b62000147600480360381019062000141919062000d97565b62000315565b005b62000167600480360381019062000161919062000d97565b6200033c565b005b62000187600480360381019062000181919062000dde565b620003c6565b005b620001a76004803603810190620001a1919062000e10565b620003e8565b005b620001b362000471565b604051620001c2919062000e68565b60405180910390f35b620001e96004803603810190620001e3919062000d97565b620004c9565b604051620001f8919062000c7a565b60405180910390f35b6200020b62000533565b6040516200021a919062000d15565b60405180910390f35b6200024160048036038101906200023b919062000d97565b6200053a565b005b6200026160048036038101906200025b919062001022565b62000561565b60405162000270919062000e68565b60405180910390f35b60007f7965db0b000000000000000000000000000000000000000000000000000000007bffffffffffffffffffffffffffffffffffffffffffffffffffffffff1916827bffffffffffffffffffffffffffffffffffffffffffffffffffffffff19161480620002ef5750620002ee826200063d565b5b9050919050565b6000806000838152602001908152602001600020600101549050919050565b6200032082620002f6565b6200032b81620006a7565b620003378383620006bf565b505050565b62000346620007a4565b73ffffffffffffffffffffffffffffffffffffffff168173ffffffffffffffffffffffffffffffffffffffff1614620003b6576040517f08c379a0000000000000000000000000000000000000000000000000000000008152600401620003ad9062001143565b60405180910390fd5b620003c28282620007ac565b5050565b6000801b620003d581620006a7565b620003e46000801b83620006bf565b5050565b6000801b620003f781620006a7565b60008390508073ffffffffffffffffffffffffffffffffffffffff1663397a8bab846040518263ffffffff1660e01b815260040162000437919062000e68565b600060405180830381600087803b1580156200045257600080fd5b505af115801562000467573d6000803e3d6000fd5b5050505050505050565b600060026001805462000485919062001194565b81548110620004995762000498620011cf565b5b9060005260206000200160009054906101000a900473ffffffffffffffffffffffffffffffffffffffff16905090565b600080600084815260200190815260200160002060000160008373ffffffffffffffffffffffffffffffffffffffff1673ffffffffffffffffffffffffffffffffffffffff16815260200190815260200160002060009054906101000a900460ff16905092915050565b6000801b81565b6200054582620002f6565b6200055081620006a7565b6200055c8383620007ac565b505050565b60008060001b6200057281620006a7565b6000858585604051620005859062000bac565b620005939392919062001291565b604051809103906000f080158015620005b0573d6000803e3d6000fd5b5090506002819080600181540180825580915050600190039060005260206000200160009091909190916101000a81548173ffffffffffffffffffffffffffffffffffffffff021916908373ffffffffffffffffffffffffffffffffffffffff16021790555060018060008282546200062a9190620012dc565b9250508190555080925050509392505050565b60007f01ffc9a7000000000000000000000000000000000000000000000000000000007bffffffffffffffffffffffffffffffffffffffffffffffffffffffff1916827bffffffffffffffffffffffffffffffffffffffffffffffffffffffff1916149050919050565b620006bc81620006b6620007a4565b62000892565b50565b620006cb8282620004c9565b620007a057600160008084815260200190815260200160002060000160008373ffffffffffffffffffffffffffffffffffffffff1673ffffffffffffffffffffffffffffffffffffffff16815260200190815260200160002060006101000a81548160ff02191690831515021790555062000745620007a4565b73ffffffffffffffffffffffffffffffffffffffff168173ffffffffffffffffffffffffffffffffffffffff16837f2f8788117e7eff1d82e926ec794901d17c78024a50270940304540a733656f0d60405160405180910390a45b5050565b600033905090565b620007b88282620004c9565b156200088e57600080600084815260200190815260200160002060000160008373ffffffffffffffffffffffffffffffffffffffff1673ffffffffffffffffffffffffffffffffffffffff16815260200190815260200160002060006101000a81548160ff02191690831515021790555062000833620007a4565b73ffffffffffffffffffffffffffffffffffffffff168173ffffffffffffffffffffffffffffffffffffffff16837ff6391f5c32d9c69d2a47ea670b442974b53935d1edc7fd64eb21e047a839171b60405160405180910390a45b5050565b6200089e8282620004c9565b6200091e57620008ae8162000922565b620008be8360001c602062000951565b604051602001620008d19291906200141b565b6040516020818303038152906040526040517f08c379a00000000000000000000000000000000000000000000000000000000081526004016200091591906200145d565b60405180910390fd5b5050565b60606200094a8273ffffffffffffffffffffffffffffffffffffffff16601460ff1662000951565b9050919050565b60606000600283600262000966919062001481565b620009729190620012dc565b67ffffffffffffffff8111156200098e576200098d62000ea0565b5b6040519080825280601f01601f191660200182016040528015620009c15781602001600182028036833780820191505090505b5090507f300000000000000000000000000000000000000000000000000000000000000081600081518110620009fc57620009fb620011cf565b5b60200101907effffffffffffffffffffffffffffffffffffffffffffffffffffffffffffff1916908160001a9053507f78000000000000000000000000000000000000000000000000000000000000008160018151811062000a635762000a62620011cf565b5b60200101907effffffffffffffffffffffffffffffffffffffffffffffffffffffffffffff1916908160001a9053506000600184600262000aa5919062001481565b62000ab19190620012dc565b90505b600181111562000b5b577f3031323334353637383961626364656600000000000000000000000000000000600f86166010811062000af75762000af6620011cf565b5b1a60f81b82828151811062000b115762000b10620011cf565b5b60200101907effffffffffffffffffffffffffffffffffffffffffffffffffffffffffffff1916908160001a905350600485901c94508062000b5390620014e2565b905062000ab4565b506000841462000ba2576040517f08c379a000000000000000000000000000000000000000000000000000000000815260040162000b999062001561565b60405180910390fd5b8091505092915050565b612786806200158483390190565b6000604051905090565b600080fd5b600080fd5b60007fffffffff0000000000000000000000000000000000000000000000000000000082169050919050565b62000c058162000bce565b811462000c1157600080fd5b50565b60008135905062000c258162000bfa565b92915050565b60006020828403121562000c445762000c4362000bc4565b5b600062000c548482850162000c14565b91505092915050565b60008115159050919050565b62000c748162000c5d565b82525050565b600060208201905062000c91600083018462000c69565b92915050565b6000819050919050565b62000cac8162000c97565b811462000cb857600080fd5b50565b60008135905062000ccc8162000ca1565b92915050565b60006020828403121562000ceb5762000cea62000bc4565b5b600062000cfb8482850162000cbb565b91505092915050565b62000d0f8162000c97565b82525050565b600060208201905062000d2c600083018462000d04565b92915050565b600073ffffffffffffffffffffffffffffffffffffffff82169050919050565b600062000d5f8262000d32565b9050919050565b62000d718162000d52565b811462000d7d57600080fd5b50565b60008135905062000d918162000d66565b92915050565b6000806040838503121562000db15762000db062000bc4565b5b600062000dc18582860162000cbb565b925050602062000dd48582860162000d80565b9150509250929050565b60006020828403121562000df75762000df662000bc4565b5b600062000e078482850162000d80565b91505092915050565b6000806040838503121562000e2a5762000e2962000bc4565b5b600062000e3a8582860162000d80565b925050602062000e4d8582860162000d80565b9150509250929050565b62000e628162000d52565b82525050565b600060208201905062000e7f600083018462000e57565b92915050565b600080fd5b600080fd5b6000601f19601f8301169050919050565b7f4e487b7100000000000000000000000000000000000000000000000000000000600052604160045260246000fd5b62000eda8262000e8f565b810181811067ffffffffffffffff8211171562000efc5762000efb62000ea0565b5b80604052505050565b600062000f1162000bba565b905062000f1f828262000ecf565b919050565b600067ffffffffffffffff82111562000f425762000f4162000ea0565b5b62000f4d8262000e8f565b9050602081019050919050565b82818337600083830152505050565b600062000f8062000f7a8462000f24565b62000f05565b90508281526020810184848401111562000f9f5762000f9e62000e8a565b5b62000fac84828562000f5a565b509392505050565b600082601f83011262000fcc5762000fcb62000e85565b5b813562000fde84826020860162000f69565b91505092915050565b6000819050919050565b62000ffc8162000fe7565b81146200100857600080fd5b50565b6000813590506200101c8162000ff1565b92915050565b6000806000606084860312156200103e576200103d62000bc4565b5b600084013567ffffffffffffffff8111156200105f576200105e62000bc9565b5b6200106d8682870162000fb4565b935050602084013567ffffffffffffffff81111562001091576200109062000bc9565b5b6200109f8682870162000fb4565b9250506040620010b2868287016200100b565b9150509250925092565b600082825260208201905092915050565b7f416363657373436f6e74726f6c3a2063616e206f6e6c792072656e6f756e636560008201527f20726f6c657320666f722073656c660000000000000000000000000000000000602082015250565b60006200112b602f83620010bc565b91506200113882620010cd565b604082019050919050565b600060208201905081810360008301526200115e816200111c565b9050919050565b7f4e487b7100000000000000000000000000000000000000000000000000000000600052601160045260246000fd5b6000620011a18262000fe7565b9150620011ae8362000fe7565b925082821015620011c457620011c362001165565b5b828203905092915050565b7f4e487b7100000000000000000000000000000000000000000000000000000000600052603260045260246000fd5b600081519050919050565b60005b83811015620012295780820151818401526020810190506200120c565b8381111562001239576000848401525b50505050565b60006200124c82620011fe565b620012588185620010bc565b93506200126a81856020860162001209565b620012758162000e8f565b840191505092915050565b6200128b8162000fe7565b82525050565b60006060820190508181036000830152620012ad81866200123f565b90508181036020830152620012c381856200123f565b9050620012d4604083018462001280565b949350505050565b6000620012e98262000fe7565b9150620012f68362000fe7565b9250827fffffffffffffffffffffffffffffffffffffffffffffffffffffffffffffffff038211156200132e576200132d62001165565b5b828201905092915050565b600081905092915050565b7f416363657373436f6e74726f6c3a206163636f756e7420000000000000000000600082015250565b60006200137c60178362001339565b9150620013898262001344565b601782019050919050565b6000620013a182620011fe565b620013ad818562001339565b9350620013bf81856020860162001209565b80840191505092915050565b7f206973206d697373696e6720726f6c6520000000000000000000000000000000600082015250565b60006200140360118362001339565b91506200141082620013cb565b601182019050919050565b600062001428826200136d565b915062001436828562001394565b91506200144382620013f4565b915062001451828462001394565b91508190509392505050565b600060208201905081810360008301526200147981846200123f565b905092915050565b60006200148e8262000fe7565b91506200149b8362000fe7565b9250817fffffffffffffffffffffffffffffffffffffffffffffffffffffffffffffffff0483118215151615620014d757620014d662001165565b5b828202905092915050565b6000620014ef8262000fe7565b9150600082141562001506576200150562001165565b5b600182039050919050565b7f537472696e67733a20686578206c656e67746820696e73756666696369656e74600082015250565b600062001549602083620010bc565b9150620015568262001511565b602082019050919050565b600060208201905081810360008301526200157c816200153a565b905091905056fe60806040523480156200001157600080fd5b506040516200278638038062002786833981810160405281019062000037919062000483565b82828181816003908051906020019062000053929190620001fb565b5080600490805190602001906200006c929190620001fb565b505050620000846000801b336200009660201b60201c565b50508060068190555050505062000582565b620000a882826200018860201b60201c565b620001845760016005600084815260200190815260200160002060000160008373ffffffffffffffffffffffffffffffffffffffff1673ffffffffffffffffffffffffffffffffffffffff16815260200190815260200160002060006101000a81548160ff02191690831515021790555062000129620001f360201b60201c565b73ffffffffffffffffffffffffffffffffffffffff168173ffffffffffffffffffffffffffffffffffffffff16837f2f8788117e7eff1d82e926ec794901d17c78024a50270940304540a733656f0d60405160405180910390a45b5050565b60006005600084815260200190815260200160002060000160008373ffffffffffffffffffffffffffffffffffffffff1673ffffffffffffffffffffffffffffffffffffffff16815260200190815260200160002060009054906101000a900460ff16905092915050565b600033905090565b82805462000209906200054c565b90600052602060002090601f0160209004810192826200022d576000855562000279565b82601f106200024857805160ff191683800117855562000279565b8280016001018555821562000279579182015b82811115620002785782518255916020019190600101906200025b565b5b5090506200028891906200028c565b5090565b5b80821115620002a75760008160009055506001016200028d565b5090565b6000604051905090565b600080fd5b600080fd5b600080fd5b600080fd5b6000601f19601f8301169050919050565b7f4e487b7100000000000000000000000000000000000000000000000000000000600052604160045260246000fd5b6200031482620002c9565b810181811067ffffffffffffffff82111715620003365762000335620002da565b5b80604052505050565b60006200034b620002ab565b905062000359828262000309565b919050565b600067ffffffffffffffff8211156200037c576200037b620002da565b5b6200038782620002c9565b9050602081019050919050565b60005b83811015620003b457808201518184015260208101905062000397565b83811115620003c4576000848401525b50505050565b6000620003e1620003db846200035e565b6200033f565b9050828152602081018484840111156200040057620003ff620002c4565b5b6200040d84828562000394565b509392505050565b600082601f8301126200042d576200042c620002bf565b5b81516200043f848260208601620003ca565b91505092915050565b6000819050919050565b6200045d8162000448565b81146200046957600080fd5b50565b6000815190506200047d8162000452565b92915050565b6000806000606084860312156200049f576200049e620002b5565b5b600084015167ffffffffffffffff811115620004c057620004bf620002ba565b5b620004ce8682870162000415565b935050602084015167ffffffffffffffff811115620004f257620004f1620002ba565b5b620005008682870162000415565b925050604062000513868287016200046c565b9150509250925092565b7f4e487b7100000000000000000000000000000000000000000000000000000000600052602260045260246000fd5b600060028204905060018216806200056557607f821691505b602082108114156200057c576200057b6200051d565b5b50919050565b6121f480620005926000396000f3fe608060405234801561001057600080fd5b50600436106101425760003560e01c806340c10f19116100b8578063a457c2d71161007c578063a457c2d71461039d578063a9059cbb146103cd578063b9b22c29146103fd578063d547741f1461041b578063dd62ed3e14610437578063e640d8621461046757610142565b806340c10f19146102e557806370a082311461030157806391d148541461033157806395d89b4114610361578063a217fddf1461037f57610142565b8063248a9ca31161010a578063248a9ca3146102135780632f2ff15d14610243578063313ce5671461025f57806336568abe1461027d5780633950935114610299578063397a8bab146102c957610142565b806301ffc9a71461014757806306fdde0314610177578063095ea7b31461019557806318160ddd146101c557806323b872dd146101e3575b600080fd5b610161600480360381019061015c9190611599565b610483565b60405161016e91906115e1565b60405180910390f35b61017f6104fd565b60405161018c9190611695565b60405180910390f35b6101af60048036038101906101aa919061174b565b61058f565b6040516101bc91906115e1565b60405180910390f35b6101cd6105b2565b6040516101da919061179a565b60405180910390f35b6101fd60048036038101906101f891906117b5565b6105bc565b60405161020a91906115e1565b60405180910390f35b61022d6004803603810190610228919061183e565b6105eb565b60405161023a919061187a565b60405180910390f35b61025d60048036038101906102589190611895565b61060b565b005b61026761062c565b60405161027491906118f1565b60405180910390f35b61029760048036038101906102929190611895565b610635565b005b6102b360048036038101906102ae919061174b565b6106b8565b6040516102c091906115e1565b60405180910390f35b6102e360048036038101906102de919061190c565b6106ef565b005b6102ff60048036038101906102fa919061174b565b61070d565b005b61031b6004803603810190610316919061190c565b610729565b604051610328919061179a565b60405180910390f35b61034b60048036038101906103469190611895565b610771565b60405161035891906115e1565b60405180910390f35b6103696107dc565b6040516103769190611695565b60405180910390f35b61038761086e565b604051610394919061187a565b60405180910390f35b6103b760048036038101906103b2919061174b565b610875565b6040516103c491906115e1565b60405180910390f35b6103e760048036038101906103e2919061174b565b6108ec565b6040516103f491906115e1565b60405180910390f35b61040561090f565b604051610412919061179a565b60405180910390f35b61043560048036038101906104309190611895565b610915565b005b610451600480360381019061044c9190611939565b610936565b60405161045e919061179a565b60405180910390f35b610481600480360381019061047c9190611979565b6109bd565b005b60007f7965db0b000000000000000000000000000000000000000000000000000000007bffffffffffffffffffffffffffffffffffffffffffffffffffffffff1916827bffffffffffffffffffffffffffffffffffffffffffffffffffffffff191614806104f657506104f5826109d5565b5b9050919050565b60606003805461050c906119d5565b80601f0160208091040260200160405190810160405280929190818152602001828054610538906119d5565b80156105855780601f1061055a57610100808354040283529160200191610585565b820191906000526020600020905b81548152906001019060200180831161056857829003601f168201915b5050505050905090565b60008061059a610a3f565b90506105a7818585610a47565b600191505092915050565b6000600254905090565b6000806105c7610a3f565b90506105d4858285610c12565b6105df858585610c9e565b60019150509392505050565b600060056000838152602001908152602001600020600101549050919050565b610614826105eb565b61061d81610f16565b6106278383610f2a565b505050565b60006012905090565b61063d610a3f565b73ffffffffffffffffffffffffffffffffffffffff168173ffffffffffffffffffffffffffffffffffffffff16146106aa576040517f08c379a00000000000000000000000000000000000000000000000000000000081526004016106a190611a79565b60405180910390fd5b6106b4828261100b565b5050565b6000806106c3610a3f565b90506106e48185856106d58589610936565b6106df9190611ac8565b610a47565b600191505092915050565b6000801b6106fc81610f16565b6107096000801b83610f2a565b5050565b6000801b61071a81610f16565b61072483836110ed565b505050565b60008060008373ffffffffffffffffffffffffffffffffffffffff1673ffffffffffffffffffffffffffffffffffffffff168152602001908152602001600020549050919050565b60006005600084815260200190815260200160002060000160008373ffffffffffffffffffffffffffffffffffffffff1673ffffffffffffffffffffffffffffffffffffffff16815260200190815260200160002060009054906101000a900460ff16905092915050565b6060600480546107eb906119d5565b80601f0160208091040260200160405190810160405280929190818152602001828054610817906119d5565b80156108645780601f1061083957610100808354040283529160200191610864565b820191906000526020600020905b81548152906001019060200180831161084757829003601f168201915b5050505050905090565b6000801b81565b600080610880610a3f565b9050600061088e8286610936565b9050838110156108d3576040517f08c379a00000000000000000000000000000000000000000000000000000000081526004016108ca90611b90565b60405180910390fd5b6108e08286868403610a47565b60019250505092915050565b6000806108f7610a3f565b9050610904818585610c9e565b600191505092915050565b60065481565b61091e826105eb565b61092781610f16565b610931838361100b565b505050565b6000600160008473ffffffffffffffffffffffffffffffffffffffff1673ffffffffffffffffffffffffffffffffffffffff16815260200190815260200160002060008373ffffffffffffffffffffffffffffffffffffffff1673ffffffffffffffffffffffffffffffffffffffff16815260200190815260200160002054905092915050565b6000801b6109ca81610f16565b816006819055505050565b60007f01ffc9a7000000000000000000000000000000000000000000000000000000007bffffffffffffffffffffffffffffffffffffffffffffffffffffffff1916827bffffffffffffffffffffffffffffffffffffffffffffffffffffffff1916149050919050565b600033905090565b600073ffffffffffffffffffffffffffffffffffffffff168373ffffffffffffffffffffffffffffffffffffffff161415610ab7576040517f08c379a0000000000000000000000000000000000000000000000000000000008152600401610aae90611c22565b60405180910390fd5b600073ffffffffffffffffffffffffffffffffffffffff168273ffffffffffffffffffffffffffffffffffffffff161415610b27576040517f08c379a0000000000000000000000000000000000000000000000000000000008152600401610b1e90611cb4565b60405180910390fd5b80600160008573ffffffffffffffffffffffffffffffffffffffff1673ffffffffffffffffffffffffffffffffffffffff16815260200190815260200160002060008473ffffffffffffffffffffffffffffffffffffffff1673ffffffffffffffffffffffffffffffffffffffff168152602001908152602001600020819055508173ffffffffffffffffffffffffffffffffffffffff168373ffffffffffffffffffffffffffffffffffffffff167f8c5be1e5ebec7d5bd14f71427d1e84f3dd0314c0f7b2291e5b200ac8c7c3b92583604051610c05919061179a565b60405180910390a3505050565b6000610c1e8484610936565b90507fffffffffffffffffffffffffffffffffffffffffffffffffffffffffffffffff8114610c985781811015610c8a576040517f08c379a0000000000000000000000000000000000000000000000000000000008152600401610c8190611d20565b60405180910390fd5b610c978484848403610a47565b5b50505050565b600073ffffffffffffffffffffffffffffffffffffffff168373ffffffffffffffffffffffffffffffffffffffff161415610d0e576040517f08c379a0000000000000000000000000000000000000000000000000000000008152600401610d0590611db2565b60405180910390fd5b600073ffffffffffffffffffffffffffffffffffffffff168273ffffffffffffffffffffffffffffffffffffffff161415610d7e576040517f08c379a0000000000000000000000000000000000000000000000000000000008152600401610d7590611e44565b60405180910390fd5b610d89838383611244565b60008060008573ffffffffffffffffffffffffffffffffffffffff1673ffffffffffffffffffffffffffffffffffffffff16815260200190815260200160002054905081811015610e0f576040517f08c379a0000000000000000000000000000000000000000000000000000000008152600401610e0690611ed6565b60405180910390fd5b8181036000808673ffffffffffffffffffffffffffffffffffffffff1673ffffffffffffffffffffffffffffffffffffffff16815260200190815260200160002081905550816000808573ffffffffffffffffffffffffffffffffffffffff1673ffffffffffffffffffffffffffffffffffffffff168152602001908152602001600020600082825401925050819055508273ffffffffffffffffffffffffffffffffffffffff168473ffffffffffffffffffffffffffffffffffffffff167fddf252ad1be2c89b69c2b068fc378daa952ba7f163c4a11628f55a4df523b3ef84604051610efd919061179a565b60405180910390a3610f10848484611249565b50505050565b610f2781610f22610a3f565b61124e565b50565b610f348282610771565b6110075760016005600084815260200190815260200160002060000160008373ffffffffffffffffffffffffffffffffffffffff1673ffffffffffffffffffffffffffffffffffffffff16815260200190815260200160002060006101000a81548160ff021916908315150217905550610fac610a3f565b73ffffffffffffffffffffffffffffffffffffffff168173ffffffffffffffffffffffffffffffffffffffff16837f2f8788117e7eff1d82e926ec794901d17c78024a50270940304540a733656f0d60405160405180910390a45b5050565b6110158282610771565b156110e95760006005600084815260200190815260200160002060000160008373ffffffffffffffffffffffffffffffffffffffff1673ffffffffffffffffffffffffffffffffffffffff16815260200190815260200160002060006101000a81548160ff02191690831515021790555061108e610a3f565b73ffffffffffffffffffffffffffffffffffffffff168173ffffffffffffffffffffffffffffffffffffffff16837ff6391f5c32d9c69d2a47ea670b442974b53935d1edc7fd64eb21e047a839171b60405160405180910390a45b5050565b600073ffffffffffffffffffffffffffffffffffffffff168273ffffffffffffffffffffffffffffffffffffffff16141561115d576040517f08c379a000000000000000000000000000000000000000000000000000000000815260040161115490611f42565b60405180910390fd5b61116960008383611244565b806002600082825461117b9190611ac8565b92505081905550806000808473ffffffffffffffffffffffffffffffffffffffff1673ffffffffffffffffffffffffffffffffffffffff168152602001908152602001600020600082825401925050819055508173ffffffffffffffffffffffffffffffffffffffff16600073ffffffffffffffffffffffffffffffffffffffff167fddf252ad1be2c89b69c2b068fc378daa952ba7f163c4a11628f55a4df523b3ef8360405161122c919061179a565b60405180910390a361124060008383611249565b5050565b505050565b505050565b6112588282610771565b6112cf57611265816112d3565b6112738360001c6020611300565b604051602001611284929190612036565b6040516020818303038152906040526040517f08c379a00000000000000000000000000000000000000000000000000000000081526004016112c69190611695565b60405180910390fd5b5050565b60606112f98273ffffffffffffffffffffffffffffffffffffffff16601460ff16611300565b9050919050565b6060600060028360026113139190612070565b61131d9190611ac8565b67ffffffffffffffff811115611336576113356120ca565b5b6040519080825280601f01601f1916602001820160405280156113685781602001600182028036833780820191505090505b5090507f3000000000000000000000000000000000000000000000000000000000000000816000815181106113a05761139f6120f9565b5b60200101907effffffffffffffffffffffffffffffffffffffffffffffffffffffffffffff1916908160001a9053507f780000000000000000000000000000000000000000000000000000000000000081600181518110611404576114036120f9565b5b60200101907effffffffffffffffffffffffffffffffffffffffffffffffffffffffffffff1916908160001a905350600060018460026114449190612070565b61144e9190611ac8565b90505b60018111156114ee577f3031323334353637383961626364656600000000000000000000000000000000600f8616601081106114905761148f6120f9565b5b1a60f81b8282815181106114a7576114a66120f9565b5b60200101907effffffffffffffffffffffffffffffffffffffffffffffffffffffffffffff1916908160001a905350600485901c9450806114e790612128565b9050611451565b5060008414611532576040517f08c379a00000000000000000000000000000000000000000000000000000000081526004016115299061219e565b60405180910390fd5b8091505092915050565b600080fd5b60007fffffffff0000000000000000000000000000000000000000000000000000000082169050919050565b61157681611541565b811461158157600080fd5b50565b6000813590506115938161156d565b92915050565b6000602082840312156115af576115ae61153c565b5b60006115bd84828501611584565b91505092915050565b60008115159050919050565b6115db816115c6565b82525050565b60006020820190506115f660008301846115d2565b92915050565b600081519050919050565b600082825260208201905092915050565b60005b8381101561163657808201518184015260208101905061161b565b83811115611645576000848401525b50505050565b6000601f19601f8301169050919050565b6000611667826115fc565b6116718185611607565b9350611681818560208601611618565b61168a8161164b565b840191505092915050565b600060208201905081810360008301526116af818461165c565b905092915050565b600073ffffffffffffffffffffffffffffffffffffffff82169050919050565b60006116e2826116b7565b9050919050565b6116f2816116d7565b81146116fd57600080fd5b50565b60008135905061170f816116e9565b92915050565b6000819050919050565b61172881611715565b811461173357600080fd5b50565b6000813590506117458161171f565b92915050565b600080604083850312156117625761176161153c565b5b600061177085828601611700565b925050602061178185828601611736565b9150509250929050565b61179481611715565b82525050565b60006020820190506117af600083018461178b565b92915050565b6000806000606084860312156117ce576117cd61153c565b5b60006117dc86828701611700565b93505060206117ed86828701611700565b92505060406117fe86828701611736565b9150509250925092565b6000819050919050565b61181b81611808565b811461182657600080fd5b50565b60008135905061183881611812565b92915050565b6000602082840312156118545761185361153c565b5b600061186284828501611829565b91505092915050565b61187481611808565b82525050565b600060208201905061188f600083018461186b565b92915050565b600080604083850312156118ac576118ab61153c565b5b60006118ba85828601611829565b92505060206118cb85828601611700565b9150509250929050565b600060ff82169050919050565b6118eb816118d5565b82525050565b600060208201905061190660008301846118e2565b92915050565b6000602082840312156119225761192161153c565b5b600061193084828501611700565b91505092915050565b600080604083850312156119505761194f61153c565b5b600061195e85828601611700565b925050602061196f85828601611700565b9150509250929050565b60006020828403121561198f5761198e61153c565b5b600061199d84828501611736565b91505092915050565b7f4e487b7100000000000000000000000000000000000000000000000000000000600052602260045260246000fd5b600060028204905060018216806119ed57607f821691505b60208210811415611a0157611a006119a6565b5b50919050565b7f416363657373436f6e74726f6c3a2063616e206f6e6c792072656e6f756e636560008201527f20726f6c657320666f722073656c660000000000000000000000000000000000602082015250565b6000611a63602f83611607565b9150611a6e82611a07565b604082019050919050565b60006020820190508181036000830152611a9281611a56565b9050919050565b7f4e487b7100000000000000000000000000000000000000000000000000000000600052601160045260246000fd5b6000611ad382611715565b9150611ade83611715565b9250827fffffffffffffffffffffffffffffffffffffffffffffffffffffffffffffffff03821115611b1357611b12611a99565b5b828201905092915050565b7f45524332303a2064656372656173656420616c6c6f77616e63652062656c6f7760008201527f207a65726f000000000000000000000000000000000000000000000000000000602082015250565b6000611b7a602583611607565b9150611b8582611b1e565b604082019050919050565b60006020820190508181036000830152611ba981611b6d565b9050919050565b7f45524332303a20617070726f76652066726f6d20746865207a65726f2061646460008201527f7265737300000000000000000000000000000000000000000000000000000000602082015250565b6000611c0c602483611607565b9150611c1782611bb0565b604082019050919050565b60006020820190508181036000830152611c3b81611bff565b9050919050565b7f45524332303a20617070726f766520746f20746865207a65726f20616464726560008201527f7373000000000000000000000000000000000000000000000000000000000000602082015250565b6000611c9e602283611607565b9150611ca982611c42565b604082019050919050565b60006020820190508181036000830152611ccd81611c91565b9050919050565b7f45524332303a20696e73756666696369656e7420616c6c6f77616e6365000000600082015250565b6000611d0a601d83611607565b9150611d1582611cd4565b602082019050919050565b60006020820190508181036000830152611d3981611cfd565b9050919050565b7f45524332303a207472616e736665722066726f6d20746865207a65726f20616460008201527f6472657373000000000000000000000000000000000000000000000000000000602082015250565b6000611d9c602583611607565b9150611da782611d40565b604082019050919050565b60006020820190508181036000830152611dcb81611d8f565b9050919050565b7f45524332303a207472616e7366657220746f20746865207a65726f206164647260008201527f6573730000000000000000000000000000000000000000000000000000000000602082015250565b6000611e2e602383611607565b9150611e3982611dd2565b604082019050919050565b60006020820190508181036000830152611e5d81611e21565b9050919050565b7f45524332303a207472616e7366657220616d6f756e742065786365656473206260008201527f616c616e63650000000000000000000000000000000000000000000000000000602082015250565b6000611ec0602683611607565b9150611ecb82611e64565b604082019050919050565b60006020820190508181036000830152611eef81611eb3565b9050919050565b7f45524332303a206d696e7420746f20746865207a65726f206164647265737300600082015250565b6000611f2c601f83611607565b9150611f3782611ef6565b602082019050919050565b60006020820190508181036000830152611f5b81611f1f565b9050919050565b600081905092915050565b7f416363657373436f6e74726f6c3a206163636f756e7420000000000000000000600082015250565b6000611fa3601783611f62565b9150611fae82611f6d565b601782019050919050565b6000611fc4826115fc565b611fce8185611f62565b9350611fde818560208601611618565b80840191505092915050565b7f206973206d697373696e6720726f6c6520000000000000000000000000000000600082015250565b6000612020601183611f62565b915061202b82611fea565b601182019050919050565b600061204182611f96565b915061204d8285611fb9565b915061205882612013565b91506120648284611fb9565b91508190509392505050565b600061207b82611715565b915061208683611715565b9250817fffffffffffffffffffffffffffffffffffffffffffffffffffffffffffffffff04831182151516156120bf576120be611a99565b5b828202905092915050565b7f4e487b7100000000000000000000000000000000000000000000000000000000600052604160045260246000fd5b7f4e487b7100000000000000000000000000000000000000000000000000000000600052603260045260246000fd5b600061213382611715565b9150600082141561214757612146611a99565b5b600182039050919050565b7f537472696e67733a20686578206c656e67746820696e73756666696369656e74600082015250565b6000612188602083611607565b915061219382612152565b602082019050919050565b600060208201905081810360008301526121b78161217b565b905091905056fea26469706673582212206e2d4e46f4f182ff463179f21438fc4651b70019f5c6c4f1deed31f1c2998fe664736f6c63430008090033a26469706673582212201b1768b57d8a17a35832434d4db3e102d4b0ba14024eae6261999a08df29f3dd64736f6c63430008090033",
  "linkReferences": {},
  "deployedLinkReferences": {}
}