{
  "_format": "hh-sol-artifact-1",
  "contractName": "ModifiedCrowdsale",
  "sourceName": "contracts/old-contracts/ModifiedCrowdsale.sol",
  "abi": [
    {
      "inputs": [
        {
          "internalType": "uint256",
          "name": "_rate",
          "type": "uint256"
        },
        {
          "internalType": "contract MoonlightNFT",
          "name": "_token",
          "type": "address"
        },
        {
          "internalType": "uint256",
          "name": "_openingTime",
          "type": "uint256"
        },
        {
          "internalType": "uint256",
          "name": "_closingTime",
          "type": "uint256"
        }
      ],
      "stateMutability": "nonpayable",
      "type": "constructor"
    },
    {
      "anonymous": false,
      "inputs": [
        {
          "indexed": true,
          "internalType": "address",
          "name": "previousOwner",
          "type": "address"
        },
        {
          "indexed": true,
          "internalType": "address",
          "name": "newOwner",
          "type": "address"
        }
      ],
      "name": "OwnershipTransferred",
      "type": "event"
    },
    {
      "anonymous": false,
      "inputs": [
        {
          "indexed": true,
          "internalType": "address",
          "name": "beneficiary",
          "type": "address"
        },
        {
          "indexed": false,
          "internalType": "uint256",
          "name": "value",
          "type": "uint256"
        },
        {
          "indexed": false,
          "internalType": "uint256",
          "name": "amount",
          "type": "uint256"
        }
      ],
      "name": "TokenPurchase",
      "type": "event"
    },
    {
      "stateMutability": "payable",
      "type": "fallback"
    },
    {
      "inputs": [
        {
          "internalType": "address",
          "name": "_beneficiary",
          "type": "address"
        },
        {
          "internalType": "bool",
          "name": "_refundable",
          "type": "bool"
        }
      ],
      "name": "buyTokens",
      "outputs": [],
      "stateMutability": "payable",
      "type": "function"
    },
    {
      "inputs": [],
      "name": "closingTime",
      "outputs": [
        {
          "internalType": "uint256",
          "name": "",
          "type": "uint256"
        }
      ],
      "stateMutability": "view",
      "type": "function"
    },
    {
      "inputs": [],
      "name": "openingTime",
      "outputs": [
        {
          "internalType": "uint256",
          "name": "",
          "type": "uint256"
        }
      ],
      "stateMutability": "view",
      "type": "function"
    },
    {
      "inputs": [],
      "name": "owner",
      "outputs": [
        {
          "internalType": "address",
          "name": "",
          "type": "address"
        }
      ],
      "stateMutability": "view",
      "type": "function"
    },
    {
      "inputs": [],
      "name": "rate",
      "outputs": [
        {
          "internalType": "uint256",
          "name": "",
          "type": "uint256"
        }
      ],
      "stateMutability": "view",
      "type": "function"
    },
    {
      "inputs": [],
      "name": "renounceOwnership",
      "outputs": [],
      "stateMutability": "nonpayable",
      "type": "function"
    },
    {
      "inputs": [],
      "name": "token",
      "outputs": [
        {
          "internalType": "contract MoonlightNFT",
          "name": "",
          "type": "address"
        }
      ],
      "stateMutability": "view",
      "type": "function"
    },
    {
      "inputs": [
        {
          "internalType": "address",
          "name": "newOwner",
          "type": "address"
        }
      ],
      "name": "transferOwnership",
      "outputs": [],
      "stateMutability": "nonpayable",
      "type": "function"
    },
    {
      "stateMutability": "payable",
      "type": "receive"
    }
  ],
  "bytecode": "0x60806040523480156200001157600080fd5b5060405162000c3638038062000c368339818101604052810190620000379190620002a1565b620000576200004b6200011c60201b60201c565b6200012460201b60201c565b60018410156200006657600080fd5b600073ffffffffffffffffffffffffffffffffffffffff168373ffffffffffffffffffffffffffffffffffffffff161415620000a157600080fd5b42821015620000af57600080fd5b818111620000bc57600080fd5b8360028190555082600160006101000a81548173ffffffffffffffffffffffffffffffffffffffff021916908373ffffffffffffffffffffffffffffffffffffffff16021790555081600381905550806004819055505050505062000313565b600033905090565b60008060009054906101000a900473ffffffffffffffffffffffffffffffffffffffff169050816000806101000a81548173ffffffffffffffffffffffffffffffffffffffff021916908373ffffffffffffffffffffffffffffffffffffffff1602179055508173ffffffffffffffffffffffffffffffffffffffff168173ffffffffffffffffffffffffffffffffffffffff167f8be0079c531659141344cd1fd0a4f28419497f9722a3daafe3b4186f6b6457e060405160405180910390a35050565b600080fd5b6000819050919050565b6200020281620001ed565b81146200020e57600080fd5b50565b6000815190506200022281620001f7565b92915050565b600073ffffffffffffffffffffffffffffffffffffffff82169050919050565b6000620002558262000228565b9050919050565b6000620002698262000248565b9050919050565b6200027b816200025c565b81146200028757600080fd5b50565b6000815190506200029b8162000270565b92915050565b60008060008060808587031215620002be57620002bd620001e8565b5b6000620002ce8782880162000211565b9450506020620002e1878288016200028a565b9350506040620002f48782880162000211565b9250506060620003078782880162000211565b91505092959194509250565b61091380620003236000396000f3fe60806040526004361061007f5760003560e01c8063b7a8807c1161004e578063b7a8807c14610136578063bbdc907714610161578063f2fde38b1461017d578063fc0c546a146101a657610091565b80632c4e722e1461009e5780634b6753bc146100c9578063715018a6146100f45780638da5cb5b1461010b57610091565b366100915761008f3360016101d1565b005b61009c3360016101d1565b005b3480156100aa57600080fd5b506100b3610260565b6040516100c09190610555565b60405180910390f35b3480156100d557600080fd5b506100de610266565b6040516100eb9190610555565b60405180910390f35b34801561010057600080fd5b5061010961026c565b005b34801561011757600080fd5b50610120610280565b60405161012d91906105b1565b60405180910390f35b34801561014257600080fd5b5061014b6102a9565b6040516101589190610555565b60405180910390f35b61017b60048036038101906101769190610635565b6101d1565b005b34801561018957600080fd5b506101a4600480360381019061019f9190610675565b6102af565b005b3480156101b257600080fd5b506101bb610333565b6040516101c89190610701565b60405180910390f35b60003490506101e08382610359565b60006101eb826103b3565b90506101f88483856103d1565b8373ffffffffffffffffffffffffffffffffffffffff167fcd60aa75dea3072fbc07ae6d7d856b5dc5f4eee88854f5b4abf7b680ef8bc50f838360405161024092919061071c565b60405180910390a26102506103d6565b61025a84836103d8565b50505050565b60025481565b60045481565b6102746103dc565b61027e600061045a565b565b60008060009054906101000a900473ffffffffffffffffffffffffffffffffffffffff16905090565b60035481565b6102b76103dc565b600073ffffffffffffffffffffffffffffffffffffffff168173ffffffffffffffffffffffffffffffffffffffff161415610327576040517f08c379a000000000000000000000000000000000000000000000000000000000815260040161031e906107c8565b60405180910390fd5b6103308161045a565b50565b600160009054906101000a900473ffffffffffffffffffffffffffffffffffffffff1681565b600454421061036757600080fd5b600073ffffffffffffffffffffffffffffffffffffffff168273ffffffffffffffffffffffffffffffffffffffff1614156103a157600080fd5b60008114156103af57600080fd5b5050565b60006103ca6002548361051e90919063ffffffff16565b9050919050565b505050565b565b5050565b6103e4610534565b73ffffffffffffffffffffffffffffffffffffffff16610402610280565b73ffffffffffffffffffffffffffffffffffffffff1614610458576040517f08c379a000000000000000000000000000000000000000000000000000000000815260040161044f90610834565b60405180910390fd5b565b60008060009054906101000a900473ffffffffffffffffffffffffffffffffffffffff169050816000806101000a81548173ffffffffffffffffffffffffffffffffffffffff021916908373ffffffffffffffffffffffffffffffffffffffff1602179055508173ffffffffffffffffffffffffffffffffffffffff168173ffffffffffffffffffffffffffffffffffffffff167f8be0079c531659141344cd1fd0a4f28419497f9722a3daafe3b4186f6b6457e060405160405180910390a35050565b6000818361052c9190610883565b905092915050565b600033905090565b6000819050919050565b61054f8161053c565b82525050565b600060208201905061056a6000830184610546565b92915050565b600073ffffffffffffffffffffffffffffffffffffffff82169050919050565b600061059b82610570565b9050919050565b6105ab81610590565b82525050565b60006020820190506105c660008301846105a2565b92915050565b600080fd5b6105da81610590565b81146105e557600080fd5b50565b6000813590506105f7816105d1565b92915050565b60008115159050919050565b610612816105fd565b811461061d57600080fd5b50565b60008135905061062f81610609565b92915050565b6000806040838503121561064c5761064b6105cc565b5b600061065a858286016105e8565b925050602061066b85828601610620565b9150509250929050565b60006020828403121561068b5761068a6105cc565b5b6000610699848285016105e8565b91505092915050565b6000819050919050565b60006106c76106c26106bd84610570565b6106a2565b610570565b9050919050565b60006106d9826106ac565b9050919050565b60006106eb826106ce565b9050919050565b6106fb816106e0565b82525050565b600060208201905061071660008301846106f2565b92915050565b60006040820190506107316000830185610546565b61073e6020830184610546565b9392505050565b600082825260208201905092915050565b7f4f776e61626c653a206e6577206f776e657220697320746865207a65726f206160008201527f6464726573730000000000000000000000000000000000000000000000000000602082015250565b60006107b2602683610745565b91506107bd82610756565b604082019050919050565b600060208201905081810360008301526107e1816107a5565b9050919050565b7f4f776e61626c653a2063616c6c6572206973206e6f7420746865206f776e6572600082015250565b600061081e602083610745565b9150610829826107e8565b602082019050919050565b6000602082019050818103600083015261084d81610811565b9050919050565b7f4e487b7100000000000000000000000000000000000000000000000000000000600052601160045260246000fd5b600061088e8261053c565b91506108998361053c565b9250817fffffffffffffffffffffffffffffffffffffffffffffffffffffffffffffffff04831182151516156108d2576108d1610854565b5b82820290509291505056fea2646970667358221220280cc140f280eec639f66a70c671d7dc6efd953f9e525f31e577d601aea3346764736f6c63430008090033",
  "linkReferences": {},
  "deployedLinkReferences": {}
}