{
  "_format": "hh-sol-artifact-1",
  "contractName": "MarketWrapperFactory",
  "sourceName": "contracts/MarketWrapperFactory.sol",
  "abi": [
    {
      "inputs": [],
      "stateMutability": "nonpayable",
      "type": "constructor"
    },
    {
      "anonymous": false,
      "inputs": [
        {
          "indexed": true,
          "internalType": "bytes32",
          "name": "role",
          "type": "bytes32"
        },
        {
          "indexed": true,
          "internalType": "bytes32",
          "name": "previousAdminRole",
          "type": "bytes32"
        },
        {
          "indexed": true,
          "internalType": "bytes32",
          "name": "newAdminRole",
          "type": "bytes32"
        }
      ],
      "name": "RoleAdminChanged",
      "type": "event"
    },
    {
      "anonymous": false,
      "inputs": [
        {
          "indexed": true,
          "internalType": "bytes32",
          "name": "role",
          "type": "bytes32"
        },
        {
          "indexed": true,
          "internalType": "address",
          "name": "account",
          "type": "address"
        },
        {
          "indexed": true,
          "internalType": "address",
          "name": "sender",
          "type": "address"
        }
      ],
      "name": "RoleGranted",
      "type": "event"
    },
    {
      "anonymous": false,
      "inputs": [
        {
          "indexed": true,
          "internalType": "bytes32",
          "name": "role",
          "type": "bytes32"
        },
        {
          "indexed": true,
          "internalType": "address",
          "name": "account",
          "type": "address"
        },
        {
          "indexed": true,
          "internalType": "address",
          "name": "sender",
          "type": "address"
        }
      ],
      "name": "RoleRevoked",
      "type": "event"
    },
    {
      "inputs": [],
      "name": "DEFAULT_ADMIN_ROLE",
      "outputs": [
        {
          "internalType": "bytes32",
          "name": "",
          "type": "bytes32"
        }
      ],
      "stateMutability": "view",
      "type": "function"
    },
    {
      "inputs": [],
      "name": "getLatestMarketWrapper",
      "outputs": [
        {
          "internalType": "address",
          "name": "",
          "type": "address"
        }
      ],
      "stateMutability": "view",
      "type": "function"
    },
    {
      "inputs": [
        {
          "internalType": "bytes32",
          "name": "role",
          "type": "bytes32"
        }
      ],
      "name": "getRoleAdmin",
      "outputs": [
        {
          "internalType": "bytes32",
          "name": "",
          "type": "bytes32"
        }
      ],
      "stateMutability": "view",
      "type": "function"
    },
    {
      "inputs": [
        {
          "internalType": "address",
          "name": "_marketWrapper",
          "type": "address"
        },
        {
          "internalType": "address",
          "name": "_to",
          "type": "address"
        }
      ],
      "name": "giveContractOwnership",
      "outputs": [],
      "stateMutability": "nonpayable",
      "type": "function"
    },
    {
      "inputs": [
        {
          "internalType": "address",
          "name": "to",
          "type": "address"
        }
      ],
      "name": "grantOwnerRole",
      "outputs": [],
      "stateMutability": "nonpayable",
      "type": "function"
    },
    {
      "inputs": [
        {
          "internalType": "bytes32",
          "name": "role",
          "type": "bytes32"
        },
        {
          "internalType": "address",
          "name": "account",
          "type": "address"
        }
      ],
      "name": "grantRole",
      "outputs": [],
      "stateMutability": "nonpayable",
      "type": "function"
    },
    {
      "inputs": [
        {
          "internalType": "bytes32",
          "name": "role",
          "type": "bytes32"
        },
        {
          "internalType": "address",
          "name": "account",
          "type": "address"
        }
      ],
      "name": "hasRole",
      "outputs": [
        {
          "internalType": "bool",
          "name": "",
          "type": "bool"
        }
      ],
      "stateMutability": "view",
      "type": "function"
    },
    {
      "inputs": [
        {
          "internalType": "uint256",
          "name": "_buyNowPrice",
          "type": "uint256"
        },
        {
          "internalType": "address",
          "name": "_marketPlace",
          "type": "address"
        },
        {
          "internalType": "bytes",
          "name": "_transactionData",
          "type": "bytes"
        }
      ],
      "name": "newMarketWrapper",
      "outputs": [
        {
          "internalType": "address",
          "name": "",
          "type": "address"
        }
      ],
      "stateMutability": "nonpayable",
      "type": "function"
    },
    {
      "inputs": [
        {
          "internalType": "bytes32",
          "name": "role",
          "type": "bytes32"
        },
        {
          "internalType": "address",
          "name": "account",
          "type": "address"
        }
      ],
      "name": "renounceRole",
      "outputs": [],
      "stateMutability": "nonpayable",
      "type": "function"
    },
    {
      "inputs": [
        {
          "internalType": "bytes32",
          "name": "role",
          "type": "bytes32"
        },
        {
          "internalType": "address",
          "name": "account",
          "type": "address"
        }
      ],
      "name": "revokeRole",
      "outputs": [],
      "stateMutability": "nonpayable",
      "type": "function"
    },
    {
      "inputs": [
        {
          "internalType": "bytes4",
          "name": "interfaceId",
          "type": "bytes4"
        }
      ],
      "name": "supportsInterface",
      "outputs": [
        {
          "internalType": "bool",
          "name": "",
          "type": "bool"
        }
      ],
      "stateMutability": "view",
      "type": "function"
    }
  ],
  "bytecode": "0x6080604052600060025534801561001557600080fd5b506100296000801b3361002e60201b60201c565b61018c565b61003e828261011a60201b60201c565b61011657600160008084815260200190815260200160002060000160008373ffffffffffffffffffffffffffffffffffffffff1673ffffffffffffffffffffffffffffffffffffffff16815260200190815260200160002060006101000a81548160ff0219169083151502179055506100bb61018460201b60201c565b73ffffffffffffffffffffffffffffffffffffffff168173ffffffffffffffffffffffffffffffffffffffff16837f2f8788117e7eff1d82e926ec794901d17c78024a50270940304540a733656f0d60405160405180910390a45b5050565b600080600084815260200190815260200160002060000160008373ffffffffffffffffffffffffffffffffffffffff1673ffffffffffffffffffffffffffffffffffffffff16815260200190815260200160002060009054906101000a900460ff16905092915050565b600033905090565b6136fa806200019c6000396000f3fe60806040523480156200001157600080fd5b5060043610620000b85760003560e01c8063397a8bab116200007b578063397a8bab146200019f5780635556f1aa14620001bf57806391d1485414620001df578063a217fddf1462000215578063a6f660351462000237578063d547741f146200025957620000b8565b806301ffc9a714620000bd578063248a9ca314620000f3578063259f0f4c14620001295780632f2ff15d146200015f57806336568abe146200017f575b600080fd5b620000db6004803603810190620000d5919062000c15565b62000279565b604051620000ea919062000c64565b60405180910390f35b6200011160048036038101906200010b919062000cbc565b620002f6565b60405162000120919062000cff565b60405180910390f35b62000147600480360381019062000141919062000f1e565b62000315565b60405162000156919062000faa565b60405180910390f35b6200017d600480360381019062000177919062000fc7565b620003f2565b005b6200019d600480360381019062000197919062000fc7565b62000419565b005b620001bd6004803603810190620001b791906200100e565b620004a3565b005b620001dd6004803603810190620001d7919062001040565b620004c5565b005b620001fd6004803603810190620001f7919062000fc7565b6200054e565b6040516200020c919062000c64565b60405180910390f35b6200021f620005b8565b6040516200022e919062000cff565b60405180910390f35b62000241620005bf565b60405162000250919062000faa565b60405180910390f35b62000277600480360381019062000271919062000fc7565b62000617565b005b60007f7965db0b000000000000000000000000000000000000000000000000000000007bffffffffffffffffffffffffffffffffffffffffffffffffffffffff1916827bffffffffffffffffffffffffffffffffffffffffffffffffffffffff19161480620002ef5750620002ee826200063e565b5b9050919050565b6000806000838152602001908152602001600020600101549050919050565b60008060001b6200032681620006a8565b6000858585604051620003399062000b96565b62000347939291906200112b565b604051809103906000f08015801562000364573d6000803e3d6000fd5b5090506001819080600181540180825580915050600190039060005260206000200160009091909190916101000a81548173ffffffffffffffffffffffffffffffffffffffff021916908373ffffffffffffffffffffffffffffffffffffffff160217905550600160026000828254620003df91906200119e565b9250508190555080925050509392505050565b620003fd82620002f6565b6200040881620006a8565b620004148383620006c0565b505050565b62000423620007a5565b73ffffffffffffffffffffffffffffffffffffffff168173ffffffffffffffffffffffffffffffffffffffff161462000493576040517f08c379a00000000000000000000000000000000000000000000000000000000081526004016200048a9062001282565b60405180910390fd5b6200049f8282620007ad565b5050565b6000801b620004b281620006a8565b620004c16000801b83620006c0565b5050565b6000801b620004d481620006a8565b60008390508073ffffffffffffffffffffffffffffffffffffffff1663397a8bab846040518263ffffffff1660e01b815260040162000514919062000faa565b600060405180830381600087803b1580156200052f57600080fd5b505af115801562000544573d6000803e3d6000fd5b5050505050505050565b600080600084815260200190815260200160002060000160008373ffffffffffffffffffffffffffffffffffffffff1673ffffffffffffffffffffffffffffffffffffffff16815260200190815260200160002060009054906101000a900460ff16905092915050565b6000801b81565b6000600180600254620005d39190620012a4565b81548110620005e757620005e6620012df565b5b9060005260206000200160009054906101000a900473ffffffffffffffffffffffffffffffffffffffff16905090565b6200062282620002f6565b6200062d81620006a8565b620006398383620007ad565b505050565b60007f01ffc9a7000000000000000000000000000000000000000000000000000000007bffffffffffffffffffffffffffffffffffffffffffffffffffffffff1916827bffffffffffffffffffffffffffffffffffffffffffffffffffffffff1916149050919050565b620006bd81620006b7620007a5565b62000893565b50565b620006cc82826200054e565b620007a157600160008084815260200190815260200160002060000160008373ffffffffffffffffffffffffffffffffffffffff1673ffffffffffffffffffffffffffffffffffffffff16815260200190815260200160002060006101000a81548160ff02191690831515021790555062000746620007a5565b73ffffffffffffffffffffffffffffffffffffffff168173ffffffffffffffffffffffffffffffffffffffff16837f2f8788117e7eff1d82e926ec794901d17c78024a50270940304540a733656f0d60405160405180910390a45b5050565b600033905090565b620007b982826200054e565b156200088f57600080600084815260200190815260200160002060000160008373ffffffffffffffffffffffffffffffffffffffff1673ffffffffffffffffffffffffffffffffffffffff16815260200190815260200160002060006101000a81548160ff02191690831515021790555062000834620007a5565b73ffffffffffffffffffffffffffffffffffffffff168173ffffffffffffffffffffffffffffffffffffffff16837ff6391f5c32d9c69d2a47ea670b442974b53935d1edc7fd64eb21e047a839171b60405160405180910390a45b5050565b6200089f82826200054e565b6200093757620008c78173ffffffffffffffffffffffffffffffffffffffff1660146200093b565b620008d78360001c60206200093b565b604051602001620008ea929190620013fb565b6040516020818303038152906040526040517f08c379a00000000000000000000000000000000000000000000000000000000081526004016200092e91906200147e565b60405180910390fd5b5050565b606060006002836002620009509190620014a2565b6200095c91906200119e565b67ffffffffffffffff81111562000978576200097762000dd7565b5b6040519080825280601f01601f191660200182016040528015620009ab5781602001600182028036833780820191505090505b5090507f300000000000000000000000000000000000000000000000000000000000000081600081518110620009e657620009e5620012df565b5b60200101907effffffffffffffffffffffffffffffffffffffffffffffffffffffffffffff1916908160001a9053507f78000000000000000000000000000000000000000000000000000000000000008160018151811062000a4d5762000a4c620012df565b5b60200101907effffffffffffffffffffffffffffffffffffffffffffffffffffffffffffff1916908160001a9053506000600184600262000a8f9190620014a2565b62000a9b91906200119e565b90505b600181111562000b45577f3031323334353637383961626364656600000000000000000000000000000000600f86166010811062000ae15762000ae0620012df565b5b1a60f81b82828151811062000afb5762000afa620012df565b5b60200101907effffffffffffffffffffffffffffffffffffffffffffffffffffffffffffff1916908160001a905350600485901c94508062000b3d9062001503565b905062000a9e565b506000841462000b8c576040517f08c379a000000000000000000000000000000000000000000000000000000000815260040162000b839062001581565b60405180910390fd5b8091505092915050565b61212180620015a483390190565b6000604051905090565b600080fd5b600080fd5b60007fffffffff0000000000000000000000000000000000000000000000000000000082169050919050565b62000bef8162000bb8565b811462000bfb57600080fd5b50565b60008135905062000c0f8162000be4565b92915050565b60006020828403121562000c2e5762000c2d62000bae565b5b600062000c3e8482850162000bfe565b91505092915050565b60008115159050919050565b62000c5e8162000c47565b82525050565b600060208201905062000c7b600083018462000c53565b92915050565b6000819050919050565b62000c968162000c81565b811462000ca257600080fd5b50565b60008135905062000cb68162000c8b565b92915050565b60006020828403121562000cd55762000cd462000bae565b5b600062000ce58482850162000ca5565b91505092915050565b62000cf98162000c81565b82525050565b600060208201905062000d16600083018462000cee565b92915050565b6000819050919050565b62000d318162000d1c565b811462000d3d57600080fd5b50565b60008135905062000d518162000d26565b92915050565b600073ffffffffffffffffffffffffffffffffffffffff82169050919050565b600062000d848262000d57565b9050919050565b62000d968162000d77565b811462000da257600080fd5b50565b60008135905062000db68162000d8b565b92915050565b600080fd5b600080fd5b6000601f19601f8301169050919050565b7f4e487b7100000000000000000000000000000000000000000000000000000000600052604160045260246000fd5b62000e118262000dc6565b810181811067ffffffffffffffff8211171562000e335762000e3262000dd7565b5b80604052505050565b600062000e4862000ba4565b905062000e56828262000e06565b919050565b600067ffffffffffffffff82111562000e795762000e7862000dd7565b5b62000e848262000dc6565b9050602081019050919050565b82818337600083830152505050565b600062000eb762000eb18462000e5b565b62000e3c565b90508281526020810184848401111562000ed65762000ed562000dc1565b5b62000ee384828562000e91565b509392505050565b600082601f83011262000f035762000f0262000dbc565b5b813562000f1584826020860162000ea0565b91505092915050565b60008060006060848603121562000f3a5762000f3962000bae565b5b600062000f4a8682870162000d40565b935050602062000f5d8682870162000da5565b925050604084013567ffffffffffffffff81111562000f815762000f8062000bb3565b5b62000f8f8682870162000eeb565b9150509250925092565b62000fa48162000d77565b82525050565b600060208201905062000fc1600083018462000f99565b92915050565b6000806040838503121562000fe15762000fe062000bae565b5b600062000ff18582860162000ca5565b9250506020620010048582860162000da5565b9150509250929050565b60006020828403121562001027576200102662000bae565b5b6000620010378482850162000da5565b91505092915050565b600080604083850312156200105a576200105962000bae565b5b60006200106a8582860162000da5565b92505060206200107d8582860162000da5565b9150509250929050565b620010928162000d1c565b82525050565b600081519050919050565b600082825260208201905092915050565b60005b83811015620010d4578082015181840152602081019050620010b7565b83811115620010e4576000848401525b50505050565b6000620010f78262001098565b620011038185620010a3565b935062001115818560208601620010b4565b620011208162000dc6565b840191505092915050565b600060608201905062001142600083018662001087565b62001151602083018562000f99565b8181036040830152620011658184620010ea565b9050949350505050565b7f4e487b7100000000000000000000000000000000000000000000000000000000600052601160045260246000fd5b6000620011ab8262000d1c565b9150620011b88362000d1c565b9250827fffffffffffffffffffffffffffffffffffffffffffffffffffffffffffffffff03821115620011f057620011ef6200116f565b5b828201905092915050565b600082825260208201905092915050565b7f416363657373436f6e74726f6c3a2063616e206f6e6c792072656e6f756e636560008201527f20726f6c657320666f722073656c660000000000000000000000000000000000602082015250565b60006200126a602f83620011fb565b915062001277826200120c565b604082019050919050565b600060208201905081810360008301526200129d816200125b565b9050919050565b6000620012b18262000d1c565b9150620012be8362000d1c565b925082821015620012d457620012d36200116f565b5b828203905092915050565b7f4e487b7100000000000000000000000000000000000000000000000000000000600052603260045260246000fd5b600081905092915050565b7f416363657373436f6e74726f6c3a206163636f756e7420000000000000000000600082015250565b6000620013516017836200130e565b91506200135e8262001319565b601782019050919050565b600081519050919050565b6000620013818262001369565b6200138d81856200130e565b93506200139f818560208601620010b4565b80840191505092915050565b7f206973206d697373696e6720726f6c6520000000000000000000000000000000600082015250565b6000620013e36011836200130e565b9150620013f082620013ab565b601182019050919050565b6000620014088262001342565b915062001416828562001374565b91506200142382620013d4565b915062001431828462001374565b91508190509392505050565b60006200144a8262001369565b620014568185620011fb565b935062001468818560208601620010b4565b620014738162000dc6565b840191505092915050565b600060208201905081810360008301526200149a81846200143d565b905092915050565b6000620014af8262000d1c565b9150620014bc8362000d1c565b9250817fffffffffffffffffffffffffffffffffffffffffffffffffffffffffffffffff0483118215151615620014f857620014f76200116f565b5b828202905092915050565b6000620015108262000d1c565b9150600082036200152657620015256200116f565b5b600182039050919050565b7f537472696e67733a20686578206c656e67746820696e73756666696369656e74600082015250565b600062001569602083620011fb565b9150620015768262001531565b602082019050919050565b600060208201905081810360008301526200159c816200155a565b905091905056fe60806040523480156200001157600080fd5b506040516200212138038062002121833981810160405281019062000037919062000506565b6200004c6000801b33620000b660201b60201c565b8260018190555081600260006101000a81548173ffffffffffffffffffffffffffffffffffffffff021916908373ffffffffffffffffffffffffffffffffffffffff1602179055508060039080519060200190620000ac92919062000219565b50505050620005e5565b620000c88282620001a760201b60201c565b620001a357600160008084815260200190815260200160002060000160008373ffffffffffffffffffffffffffffffffffffffff1673ffffffffffffffffffffffffffffffffffffffff16815260200190815260200160002060006101000a81548160ff021916908315150217905550620001486200021160201b60201c565b73ffffffffffffffffffffffffffffffffffffffff168173ffffffffffffffffffffffffffffffffffffffff16837f2f8788117e7eff1d82e926ec794901d17c78024a50270940304540a733656f0d60405160405180910390a45b5050565b600080600084815260200190815260200160002060000160008373ffffffffffffffffffffffffffffffffffffffff1673ffffffffffffffffffffffffffffffffffffffff16815260200190815260200160002060009054906101000a900460ff16905092915050565b600033905090565b8280546200022790620005b0565b90600052602060002090601f0160209004810192826200024b576000855562000297565b82601f106200026657805160ff191683800117855562000297565b8280016001018555821562000297579182015b828111156200029657825182559160200191906001019062000279565b5b509050620002a69190620002aa565b5090565b5b80821115620002c5576000816000905550600101620002ab565b5090565b6000604051905090565b600080fd5b600080fd5b6000819050919050565b620002f281620002dd565b8114620002fe57600080fd5b50565b6000815190506200031281620002e7565b92915050565b600073ffffffffffffffffffffffffffffffffffffffff82169050919050565b6000620003458262000318565b9050919050565b620003578162000338565b81146200036357600080fd5b50565b60008151905062000377816200034c565b92915050565b600080fd5b600080fd5b6000601f19601f8301169050919050565b7f4e487b7100000000000000000000000000000000000000000000000000000000600052604160045260246000fd5b620003d28262000387565b810181811067ffffffffffffffff82111715620003f457620003f362000398565b5b80604052505050565b600062000409620002c9565b9050620004178282620003c7565b919050565b600067ffffffffffffffff8211156200043a576200043962000398565b5b620004458262000387565b9050602081019050919050565b60005b838110156200047257808201518184015260208101905062000455565b8381111562000482576000848401525b50505050565b60006200049f62000499846200041c565b620003fd565b905082815260208101848484011115620004be57620004bd62000382565b5b620004cb84828562000452565b509392505050565b600082601f830112620004eb57620004ea6200037d565b5b8151620004fd84826020860162000488565b91505092915050565b600080600060608486031215620005225762000521620002d3565b5b6000620005328682870162000301565b9350506020620005458682870162000366565b925050604084015167ffffffffffffffff811115620005695762000568620002d8565b5b6200057786828701620004d3565b9150509250925092565b7f4e487b7100000000000000000000000000000000000000000000000000000000600052602260045260246000fd5b60006002820490506001821680620005c957607f821691505b602082108103620005df57620005de62000581565b5b50919050565b611b2c80620005f56000396000f3fe6080604052600436106101025760003560e01c80635ecbdce9116100955780639c3962f0116100645780639c3962f014610346578063a217fddf14610364578063a55870881461038f578063d547741f146103ba578063dd0b7ffe146103e357610116565b80635ecbdce9146102995780636e353a1d146102c45780638c3028d6146102e057806391d148541461030957610116565b80632f2ff15d116100d15780632f2ff15d146101f557806336568abe1461021e578063397a8bab146102475780635592da871461027057610116565b806301ffc9a714610125578063248a9ca314610162578063278bd0651461019f5780632e25d2a6146101ca57610116565b36610116576000801b6101148161040c565b005b6000801b6101238161040c565b005b34801561013157600080fd5b5061014c60048036038101906101479190610f8e565b610420565b6040516101599190610fd6565b60405180910390f35b34801561016e57600080fd5b5061018960048036038101906101849190611027565b61049a565b6040516101969190611063565b60405180910390f35b3480156101ab57600080fd5b506101b46104b9565b6040516101c19190611117565b60405180910390f35b3480156101d657600080fd5b506101df610547565b6040516101ec919061117a565b60405180910390f35b34801561020157600080fd5b5061021c600480360381019061021791906111c1565b61056d565b005b34801561022a57600080fd5b50610245600480360381019061024091906111c1565b61058e565b005b34801561025357600080fd5b5061026e60048036038101906102699190611201565b610611565b005b34801561027c57600080fd5b5061029760048036038101906102929190611363565b61062f565b005b3480156102a557600080fd5b506102ae610657565b6040516102bb91906113c5565b60405180910390f35b6102de60048036038101906102d9919061141e565b61065d565b005b3480156102ec57600080fd5b5061030760048036038101906103029190611477565b61071b565b005b34801561031557600080fd5b50610330600480360381019061032b91906111c1565b61078d565b60405161033d9190610fd6565b60405180910390f35b61034e6107f7565b60405161035b9190610fd6565b60405180910390f35b34801561037057600080fd5b50610379610929565b6040516103869190611063565b60405180910390f35b34801561039b57600080fd5b506103a4610930565b6040516103b191906113c5565b60405180910390f35b3480156103c657600080fd5b506103e160048036038101906103dc91906111c1565b61093a565b005b3480156103ef57600080fd5b5061040a600480360381019061040591906114e6565b61095b565b005b61041d81610418610973565b61097b565b50565b60007f7965db0b000000000000000000000000000000000000000000000000000000007bffffffffffffffffffffffffffffffffffffffffffffffffffffffff1916827bffffffffffffffffffffffffffffffffffffffffffffffffffffffff19161480610493575061049282610a18565b5b9050919050565b6000806000838152602001908152602001600020600101549050919050565b600380546104c690611542565b80601f01602080910402602001604051908101604052809291908181526020018280546104f290611542565b801561053f5780601f106105145761010080835404028352916020019161053f565b820191906000526020600020905b81548152906001019060200180831161052257829003601f168201915b505050505081565b600260009054906101000a900473ffffffffffffffffffffffffffffffffffffffff1681565b6105768261049a565b61057f8161040c565b6105898383610a82565b505050565b610596610973565b73ffffffffffffffffffffffffffffffffffffffff168173ffffffffffffffffffffffffffffffffffffffff1614610603576040517f08c379a00000000000000000000000000000000000000000000000000000000081526004016105fa906115f6565b60405180910390fd5b61060d8282610b62565b5050565b6000801b61061e8161040c565b61062b6000801b83610a82565b5050565b6000801b61063c8161040c565b8160039080519060200190610652929190610e7f565b505050565b60015481565b6000801b61066a8161040c565b60008273ffffffffffffffffffffffffffffffffffffffff164760405161069090611647565b60006040518083038185875af1925050503d80600081146106cd576040519150601f19603f3d011682016040523d82523d6000602084013e6106d2565b606091505b5050905080610716576040517f08c379a000000000000000000000000000000000000000000000000000000000815260040161070d906116a8565b60405180910390fd5b505050565b6000801b6107288161040c565b8360018190555082600260006101000a81548173ffffffffffffffffffffffffffffffffffffffff021916908373ffffffffffffffffffffffffffffffffffffffff1602179055508160039080519060200190610786929190610e7f565b5050505050565b600080600084815260200190815260200160002060000160008373ffffffffffffffffffffffffffffffffffffffff1673ffffffffffffffffffffffffffffffffffffffff16815260200190815260200160002060009054906101000a900460ff16905092915050565b60008060001b6108068161040c565b60015447101561081557600080fd5b6000600260009054906101000a900473ffffffffffffffffffffffffffffffffffffffff1673ffffffffffffffffffffffffffffffffffffffff166001546003604051610862919061175c565b60006040518083038185875af1925050503d806000811461089f576040519150601f19603f3d011682016040523d82523d6000602084013e6108a4565b606091505b50509050806108e8576040517f08c379a00000000000000000000000000000000000000000000000000000000081526004016108df906117bf565b60405180910390fd5b7f83e31f5e5651d64b527802681a291e708d9fe310288785b1b816aa293d9b8fc660016040516109189190610fd6565b60405180910390a160019250505090565b6000801b81565b6000600154905090565b6109438261049a565b61094c8161040c565b6109568383610b62565b505050565b6000801b6109688161040c565b816001819055505050565b600033905090565b610985828261078d565b610a14576109aa8173ffffffffffffffffffffffffffffffffffffffff166014610c43565b6109b88360001c6020610c43565b6040516020016109c99291906118be565b6040516020818303038152906040526040517f08c379a0000000000000000000000000000000000000000000000000000000008152600401610a0b9190611931565b60405180910390fd5b5050565b60007f01ffc9a7000000000000000000000000000000000000000000000000000000007bffffffffffffffffffffffffffffffffffffffffffffffffffffffff1916827bffffffffffffffffffffffffffffffffffffffffffffffffffffffff1916149050919050565b610a8c828261078d565b610b5e57600160008084815260200190815260200160002060000160008373ffffffffffffffffffffffffffffffffffffffff1673ffffffffffffffffffffffffffffffffffffffff16815260200190815260200160002060006101000a81548160ff021916908315150217905550610b03610973565b73ffffffffffffffffffffffffffffffffffffffff168173ffffffffffffffffffffffffffffffffffffffff16837f2f8788117e7eff1d82e926ec794901d17c78024a50270940304540a733656f0d60405160405180910390a45b5050565b610b6c828261078d565b15610c3f57600080600084815260200190815260200160002060000160008373ffffffffffffffffffffffffffffffffffffffff1673ffffffffffffffffffffffffffffffffffffffff16815260200190815260200160002060006101000a81548160ff021916908315150217905550610be4610973565b73ffffffffffffffffffffffffffffffffffffffff168173ffffffffffffffffffffffffffffffffffffffff16837ff6391f5c32d9c69d2a47ea670b442974b53935d1edc7fd64eb21e047a839171b60405160405180910390a45b5050565b606060006002836002610c569190611982565b610c6091906119dc565b67ffffffffffffffff811115610c7957610c78611238565b5b6040519080825280601f01601f191660200182016040528015610cab5781602001600182028036833780820191505090505b5090507f300000000000000000000000000000000000000000000000000000000000000081600081518110610ce357610ce2611a32565b5b60200101907effffffffffffffffffffffffffffffffffffffffffffffffffffffffffffff1916908160001a9053507f780000000000000000000000000000000000000000000000000000000000000081600181518110610d4757610d46611a32565b5b60200101907effffffffffffffffffffffffffffffffffffffffffffffffffffffffffffff1916908160001a90535060006001846002610d879190611982565b610d9191906119dc565b90505b6001811115610e31577f3031323334353637383961626364656600000000000000000000000000000000600f861660108110610dd357610dd2611a32565b5b1a60f81b828281518110610dea57610de9611a32565b5b60200101907effffffffffffffffffffffffffffffffffffffffffffffffffffffffffffff1916908160001a905350600485901c945080610e2a90611a61565b9050610d94565b5060008414610e75576040517f08c379a0000000000000000000000000000000000000000000000000000000008152600401610e6c90611ad6565b60405180910390fd5b8091505092915050565b828054610e8b90611542565b90600052602060002090601f016020900481019282610ead5760008555610ef4565b82601f10610ec657805160ff1916838001178555610ef4565b82800160010185558215610ef4579182015b82811115610ef3578251825591602001919060010190610ed8565b5b509050610f019190610f05565b5090565b5b80821115610f1e576000816000905550600101610f06565b5090565b6000604051905090565b600080fd5b600080fd5b60007fffffffff0000000000000000000000000000000000000000000000000000000082169050919050565b610f6b81610f36565b8114610f7657600080fd5b50565b600081359050610f8881610f62565b92915050565b600060208284031215610fa457610fa3610f2c565b5b6000610fb284828501610f79565b91505092915050565b60008115159050919050565b610fd081610fbb565b82525050565b6000602082019050610feb6000830184610fc7565b92915050565b6000819050919050565b61100481610ff1565b811461100f57600080fd5b50565b60008135905061102181610ffb565b92915050565b60006020828403121561103d5761103c610f2c565b5b600061104b84828501611012565b91505092915050565b61105d81610ff1565b82525050565b60006020820190506110786000830184611054565b92915050565b600081519050919050565b600082825260208201905092915050565b60005b838110156110b857808201518184015260208101905061109d565b838111156110c7576000848401525b50505050565b6000601f19601f8301169050919050565b60006110e98261107e565b6110f38185611089565b935061110381856020860161109a565b61110c816110cd565b840191505092915050565b6000602082019050818103600083015261113181846110de565b905092915050565b600073ffffffffffffffffffffffffffffffffffffffff82169050919050565b600061116482611139565b9050919050565b61117481611159565b82525050565b600060208201905061118f600083018461116b565b92915050565b61119e81611159565b81146111a957600080fd5b50565b6000813590506111bb81611195565b92915050565b600080604083850312156111d8576111d7610f2c565b5b60006111e685828601611012565b92505060206111f7858286016111ac565b9150509250929050565b60006020828403121561121757611216610f2c565b5b6000611225848285016111ac565b91505092915050565b600080fd5b600080fd5b7f4e487b7100000000000000000000000000000000000000000000000000000000600052604160045260246000fd5b611270826110cd565b810181811067ffffffffffffffff8211171561128f5761128e611238565b5b80604052505050565b60006112a2610f22565b90506112ae8282611267565b919050565b600067ffffffffffffffff8211156112ce576112cd611238565b5b6112d7826110cd565b9050602081019050919050565b82818337600083830152505050565b6000611306611301846112b3565b611298565b90508281526020810184848401111561132257611321611233565b5b61132d8482856112e4565b509392505050565b600082601f83011261134a5761134961122e565b5b813561135a8482602086016112f3565b91505092915050565b60006020828403121561137957611378610f2c565b5b600082013567ffffffffffffffff81111561139757611396610f31565b5b6113a384828501611335565b91505092915050565b6000819050919050565b6113bf816113ac565b82525050565b60006020820190506113da60008301846113b6565b92915050565b60006113eb82611139565b9050919050565b6113fb816113e0565b811461140657600080fd5b50565b600081359050611418816113f2565b92915050565b60006020828403121561143457611433610f2c565b5b600061144284828501611409565b91505092915050565b611454816113ac565b811461145f57600080fd5b50565b6000813590506114718161144b565b92915050565b6000806000606084860312156114905761148f610f2c565b5b600061149e86828701611462565b93505060206114af868287016111ac565b925050604084013567ffffffffffffffff8111156114d0576114cf610f31565b5b6114dc86828701611335565b9150509250925092565b6000602082840312156114fc576114fb610f2c565b5b600061150a84828501611462565b91505092915050565b7f4e487b7100000000000000000000000000000000000000000000000000000000600052602260045260246000fd5b6000600282049050600182168061155a57607f821691505b60208210810361156d5761156c611513565b5b50919050565b600082825260208201905092915050565b7f416363657373436f6e74726f6c3a2063616e206f6e6c792072656e6f756e636560008201527f20726f6c657320666f722073656c660000000000000000000000000000000000602082015250565b60006115e0602f83611573565b91506115eb82611584565b604082019050919050565b6000602082019050818103600083015261160f816115d3565b9050919050565b600081905092915050565b50565b6000611631600083611616565b915061163c82611621565b600082019050919050565b600061165282611624565b9150819050919050565b7f4574686572207472616e73666572206661696c65642e00000000000000000000600082015250565b6000611692601683611573565b915061169d8261165c565b602082019050919050565b600060208201905081810360008301526116c181611685565b9050919050565b60008190508160005260206000209050919050565b600081546116ea81611542565b6116f48186611616565b9450600182166000811461170f576001811461172057611753565b60ff19831686528186019350611753565b611729856116c8565b60005b8381101561174b5781548189015260018201915060208101905061172c565b838801955050505b50505092915050565b600061176882846116dd565b915081905092915050565b7f5075726368617365204661696c65640000000000000000000000000000000000600082015250565b60006117a9600f83611573565b91506117b482611773565b602082019050919050565b600060208201905081810360008301526117d88161179c565b9050919050565b600081905092915050565b7f416363657373436f6e74726f6c3a206163636f756e7420000000000000000000600082015250565b60006118206017836117df565b915061182b826117ea565b601782019050919050565b600081519050919050565b600061184c82611836565b61185681856117df565b935061186681856020860161109a565b80840191505092915050565b7f206973206d697373696e6720726f6c6520000000000000000000000000000000600082015250565b60006118a86011836117df565b91506118b382611872565b601182019050919050565b60006118c982611813565b91506118d58285611841565b91506118e08261189b565b91506118ec8284611841565b91508190509392505050565b600061190382611836565b61190d8185611573565b935061191d81856020860161109a565b611926816110cd565b840191505092915050565b6000602082019050818103600083015261194b81846118f8565b905092915050565b7f4e487b7100000000000000000000000000000000000000000000000000000000600052601160045260246000fd5b600061198d826113ac565b9150611998836113ac565b9250817fffffffffffffffffffffffffffffffffffffffffffffffffffffffffffffffff04831182151516156119d1576119d0611953565b5b828202905092915050565b60006119e7826113ac565b91506119f2836113ac565b9250827fffffffffffffffffffffffffffffffffffffffffffffffffffffffffffffffff03821115611a2757611a26611953565b5b828201905092915050565b7f4e487b7100000000000000000000000000000000000000000000000000000000600052603260045260246000fd5b6000611a6c826113ac565b915060008203611a7f57611a7e611953565b5b600182039050919050565b7f537472696e67733a20686578206c656e67746820696e73756666696369656e74600082015250565b6000611ac0602083611573565b9150611acb82611a8a565b602082019050919050565b60006020820190508181036000830152611aef81611ab3565b905091905056fea2646970667358221220cb44e4826d92b734744ad6d6f97481d81b1c19a642c1810983271a882ac72b0c64736f6c634300080d0033a2646970667358221220928b8e94969891a01ace9d33a9b688ee6658488f5e1c8c3ff3332c63b772a83d64736f6c634300080d0033",
  "linkReferences": {},
  "deployedLinkReferences": {}
}