{
  "_format": "hh-sol-artifact-1",
  "contractName": "MarketWrapperFactory",
  "sourceName": "contracts/MarketWrapperFactory.sol",
  "abi": [
    {
      "inputs": [],
      "stateMutability": "nonpayable",
      "type": "constructor"
    },
    {
      "anonymous": false,
      "inputs": [
        {
          "indexed": true,
          "internalType": "bytes32",
          "name": "role",
          "type": "bytes32"
        },
        {
          "indexed": true,
          "internalType": "bytes32",
          "name": "previousAdminRole",
          "type": "bytes32"
        },
        {
          "indexed": true,
          "internalType": "bytes32",
          "name": "newAdminRole",
          "type": "bytes32"
        }
      ],
      "name": "RoleAdminChanged",
      "type": "event"
    },
    {
      "anonymous": false,
      "inputs": [
        {
          "indexed": true,
          "internalType": "bytes32",
          "name": "role",
          "type": "bytes32"
        },
        {
          "indexed": true,
          "internalType": "address",
          "name": "account",
          "type": "address"
        },
        {
          "indexed": true,
          "internalType": "address",
          "name": "sender",
          "type": "address"
        }
      ],
      "name": "RoleGranted",
      "type": "event"
    },
    {
      "anonymous": false,
      "inputs": [
        {
          "indexed": true,
          "internalType": "bytes32",
          "name": "role",
          "type": "bytes32"
        },
        {
          "indexed": true,
          "internalType": "address",
          "name": "account",
          "type": "address"
        },
        {
          "indexed": true,
          "internalType": "address",
          "name": "sender",
          "type": "address"
        }
      ],
      "name": "RoleRevoked",
      "type": "event"
    },
    {
      "inputs": [],
      "name": "DEFAULT_ADMIN_ROLE",
      "outputs": [
        {
          "internalType": "bytes32",
          "name": "",
          "type": "bytes32"
        }
      ],
      "stateMutability": "view",
      "type": "function"
    },
    {
      "inputs": [],
      "name": "getLatestMarketWrapper",
      "outputs": [
        {
          "internalType": "address",
          "name": "",
          "type": "address"
        }
      ],
      "stateMutability": "view",
      "type": "function"
    },
    {
      "inputs": [
        {
          "internalType": "bytes32",
          "name": "role",
          "type": "bytes32"
        }
      ],
      "name": "getRoleAdmin",
      "outputs": [
        {
          "internalType": "bytes32",
          "name": "",
          "type": "bytes32"
        }
      ],
      "stateMutability": "view",
      "type": "function"
    },
    {
      "inputs": [
        {
          "internalType": "address",
          "name": "_marketWrapper",
          "type": "address"
        },
        {
          "internalType": "address",
          "name": "_to",
          "type": "address"
        }
      ],
      "name": "giveContractOwnership",
      "outputs": [],
      "stateMutability": "nonpayable",
      "type": "function"
    },
    {
      "inputs": [
        {
          "internalType": "address",
          "name": "to",
          "type": "address"
        }
      ],
      "name": "grantOwnerRole",
      "outputs": [],
      "stateMutability": "nonpayable",
      "type": "function"
    },
    {
      "inputs": [
        {
          "internalType": "bytes32",
          "name": "role",
          "type": "bytes32"
        },
        {
          "internalType": "address",
          "name": "account",
          "type": "address"
        }
      ],
      "name": "grantRole",
      "outputs": [],
      "stateMutability": "nonpayable",
      "type": "function"
    },
    {
      "inputs": [
        {
          "internalType": "bytes32",
          "name": "role",
          "type": "bytes32"
        },
        {
          "internalType": "address",
          "name": "account",
          "type": "address"
        }
      ],
      "name": "hasRole",
      "outputs": [
        {
          "internalType": "bool",
          "name": "",
          "type": "bool"
        }
      ],
      "stateMutability": "view",
      "type": "function"
    },
    {
      "inputs": [
        {
          "internalType": "uint256",
          "name": "_buyNowPrice",
          "type": "uint256"
        },
        {
          "internalType": "uint256",
          "name": "_gasEstimate",
          "type": "uint256"
        },
        {
          "internalType": "address",
          "name": "_marketPlace",
          "type": "address"
        },
        {
          "internalType": "bytes",
          "name": "_transactionData",
          "type": "bytes"
        }
      ],
      "name": "newMarketWrapper",
      "outputs": [
        {
          "internalType": "address",
          "name": "",
          "type": "address"
        }
      ],
      "stateMutability": "nonpayable",
      "type": "function"
    },
    {
      "inputs": [
        {
          "internalType": "bytes32",
          "name": "role",
          "type": "bytes32"
        },
        {
          "internalType": "address",
          "name": "account",
          "type": "address"
        }
      ],
      "name": "renounceRole",
      "outputs": [],
      "stateMutability": "nonpayable",
      "type": "function"
    },
    {
      "inputs": [
        {
          "internalType": "bytes32",
          "name": "role",
          "type": "bytes32"
        },
        {
          "internalType": "address",
          "name": "account",
          "type": "address"
        }
      ],
      "name": "revokeRole",
      "outputs": [],
      "stateMutability": "nonpayable",
      "type": "function"
    },
    {
      "inputs": [
        {
          "internalType": "bytes4",
          "name": "interfaceId",
          "type": "bytes4"
        }
      ],
      "name": "supportsInterface",
      "outputs": [
        {
          "internalType": "bool",
          "name": "",
          "type": "bool"
        }
      ],
      "stateMutability": "view",
      "type": "function"
    }
  ],
  "bytecode": "0x6080604052600060025534801561001557600080fd5b506100296000801b3361002e60201b60201c565b61018c565b61003e828261011a60201b60201c565b61011657600160008084815260200190815260200160002060000160008373ffffffffffffffffffffffffffffffffffffffff1673ffffffffffffffffffffffffffffffffffffffff16815260200190815260200160002060006101000a81548160ff0219169083151502179055506100bb61018460201b60201c565b73ffffffffffffffffffffffffffffffffffffffff168173ffffffffffffffffffffffffffffffffffffffff16837f2f8788117e7eff1d82e926ec794901d17c78024a50270940304540a733656f0d60405160405180910390a45b5050565b600080600084815260200190815260200160002060000160008373ffffffffffffffffffffffffffffffffffffffff1673ffffffffffffffffffffffffffffffffffffffff16815260200190815260200160002060009054906101000a900460ff16905092915050565b600033905090565b6137e9806200019c6000396000f3fe60806040523480156200001157600080fd5b5060043610620000b85760003560e01c80635556f1aa116200007b5780635556f1aa146200018957806391d1485414620001a9578063a217fddf14620001df578063a6f660351462000201578063d50c213e1462000223578063d547741f146200025957620000b8565b806301ffc9a714620000bd578063248a9ca314620000f35780632f2ff15d146200012957806336568abe1462000149578063397a8bab1462000169575b600080fd5b620000db6004803603810190620000d5919062000c18565b62000279565b604051620000ea919062000c67565b60405180910390f35b6200011160048036038101906200010b919062000cbf565b620002f6565b60405162000120919062000d02565b60405180910390f35b62000147600480360381019062000141919062000d84565b62000315565b005b62000167600480360381019062000161919062000d84565b6200033c565b005b62000187600480360381019062000181919062000dcb565b620003c6565b005b620001a76004803603810190620001a1919062000dfd565b620003e8565b005b620001c76004803603810190620001c1919062000d84565b62000471565b604051620001d6919062000c67565b60405180910390f35b620001e9620004db565b604051620001f8919062000d02565b60405180910390f35b6200020b620004e2565b6040516200021a919062000e55565b60405180910390f35b6200024160048036038101906200023b91906200100f565b6200053a565b60405162000250919062000e55565b60405180910390f35b62000277600480360381019062000271919062000d84565b6200061a565b005b60007f7965db0b000000000000000000000000000000000000000000000000000000007bffffffffffffffffffffffffffffffffffffffffffffffffffffffff1916827bffffffffffffffffffffffffffffffffffffffffffffffffffffffff19161480620002ef5750620002ee8262000641565b5b9050919050565b6000806000838152602001908152602001600020600101549050919050565b6200032082620002f6565b6200032b81620006ab565b620003378383620006c3565b505050565b62000346620007a8565b73ffffffffffffffffffffffffffffffffffffffff168173ffffffffffffffffffffffffffffffffffffffff1614620003b6576040517f08c379a0000000000000000000000000000000000000000000000000000000008152600401620003ad9062001127565b60405180910390fd5b620003c28282620007b0565b5050565b6000801b620003d581620006ab565b620003e46000801b83620006c3565b5050565b6000801b620003f781620006ab565b60008390508073ffffffffffffffffffffffffffffffffffffffff1663397a8bab846040518263ffffffff1660e01b815260040162000437919062000e55565b600060405180830381600087803b1580156200045257600080fd5b505af115801562000467573d6000803e3d6000fd5b5050505050505050565b600080600084815260200190815260200160002060000160008373ffffffffffffffffffffffffffffffffffffffff1673ffffffffffffffffffffffffffffffffffffffff16815260200190815260200160002060009054906101000a900460ff16905092915050565b6000801b81565b6000600180600254620004f6919062001178565b815481106200050a5762000509620011b3565b5b9060005260206000200160009054906101000a900473ffffffffffffffffffffffffffffffffffffffff16905090565b60008060001b6200054b81620006ab565b6000868686866040516200055f9062000b99565b6200056e949392919062001286565b604051809103906000f0801580156200058b573d6000803e3d6000fd5b5090506001819080600181540180825580915050600190039060005260206000200160009091909190916101000a81548173ffffffffffffffffffffffffffffffffffffffff021916908373ffffffffffffffffffffffffffffffffffffffff160217905550600160026000828254620006069190620012da565b925050819055508092505050949350505050565b6200062582620002f6565b6200063081620006ab565b6200063c8383620007b0565b505050565b60007f01ffc9a7000000000000000000000000000000000000000000000000000000007bffffffffffffffffffffffffffffffffffffffffffffffffffffffff1916827bffffffffffffffffffffffffffffffffffffffffffffffffffffffff1916149050919050565b620006c081620006ba620007a8565b62000896565b50565b620006cf828262000471565b620007a457600160008084815260200190815260200160002060000160008373ffffffffffffffffffffffffffffffffffffffff1673ffffffffffffffffffffffffffffffffffffffff16815260200190815260200160002060006101000a81548160ff02191690831515021790555062000749620007a8565b73ffffffffffffffffffffffffffffffffffffffff168173ffffffffffffffffffffffffffffffffffffffff16837f2f8788117e7eff1d82e926ec794901d17c78024a50270940304540a733656f0d60405160405180910390a45b5050565b600033905090565b620007bc828262000471565b156200089257600080600084815260200190815260200160002060000160008373ffffffffffffffffffffffffffffffffffffffff1673ffffffffffffffffffffffffffffffffffffffff16815260200190815260200160002060006101000a81548160ff02191690831515021790555062000837620007a8565b73ffffffffffffffffffffffffffffffffffffffff168173ffffffffffffffffffffffffffffffffffffffff16837ff6391f5c32d9c69d2a47ea670b442974b53935d1edc7fd64eb21e047a839171b60405160405180910390a45b5050565b620008a2828262000471565b6200093a57620008ca8173ffffffffffffffffffffffffffffffffffffffff1660146200093e565b620008da8360001c60206200093e565b604051602001620008ed92919062001424565b6040516020818303038152906040526040517f08c379a0000000000000000000000000000000000000000000000000000000008152600401620009319190620014a7565b60405180910390fd5b5050565b606060006002836002620009539190620014cb565b6200095f9190620012da565b67ffffffffffffffff8111156200097b576200097a62000ec8565b5b6040519080825280601f01601f191660200182016040528015620009ae5781602001600182028036833780820191505090505b5090507f300000000000000000000000000000000000000000000000000000000000000081600081518110620009e957620009e8620011b3565b5b60200101907effffffffffffffffffffffffffffffffffffffffffffffffffffffffffffff1916908160001a9053507f78000000000000000000000000000000000000000000000000000000000000008160018151811062000a505762000a4f620011b3565b5b60200101907effffffffffffffffffffffffffffffffffffffffffffffffffffffffffffff1916908160001a9053506000600184600262000a929190620014cb565b62000a9e9190620012da565b90505b600181111562000b48577f3031323334353637383961626364656600000000000000000000000000000000600f86166010811062000ae45762000ae3620011b3565b5b1a60f81b82828151811062000afe5762000afd620011b3565b5b60200101907effffffffffffffffffffffffffffffffffffffffffffffffffffffffffffff1916908160001a905350600485901c94508062000b40906200152c565b905062000aa1565b506000841462000b8f576040517f08c379a000000000000000000000000000000000000000000000000000000000815260040162000b8690620015aa565b60405180910390fd5b8091505092915050565b6121e780620015cd83390190565b6000604051905090565b600080fd5b600080fd5b60007fffffffff0000000000000000000000000000000000000000000000000000000082169050919050565b62000bf28162000bbb565b811462000bfe57600080fd5b50565b60008135905062000c128162000be7565b92915050565b60006020828403121562000c315762000c3062000bb1565b5b600062000c418482850162000c01565b91505092915050565b60008115159050919050565b62000c618162000c4a565b82525050565b600060208201905062000c7e600083018462000c56565b92915050565b6000819050919050565b62000c998162000c84565b811462000ca557600080fd5b50565b60008135905062000cb98162000c8e565b92915050565b60006020828403121562000cd85762000cd762000bb1565b5b600062000ce88482850162000ca8565b91505092915050565b62000cfc8162000c84565b82525050565b600060208201905062000d19600083018462000cf1565b92915050565b600073ffffffffffffffffffffffffffffffffffffffff82169050919050565b600062000d4c8262000d1f565b9050919050565b62000d5e8162000d3f565b811462000d6a57600080fd5b50565b60008135905062000d7e8162000d53565b92915050565b6000806040838503121562000d9e5762000d9d62000bb1565b5b600062000dae8582860162000ca8565b925050602062000dc18582860162000d6d565b9150509250929050565b60006020828403121562000de45762000de362000bb1565b5b600062000df48482850162000d6d565b91505092915050565b6000806040838503121562000e175762000e1662000bb1565b5b600062000e278582860162000d6d565b925050602062000e3a8582860162000d6d565b9150509250929050565b62000e4f8162000d3f565b82525050565b600060208201905062000e6c600083018462000e44565b92915050565b6000819050919050565b62000e878162000e72565b811462000e9357600080fd5b50565b60008135905062000ea78162000e7c565b92915050565b600080fd5b600080fd5b6000601f19601f8301169050919050565b7f4e487b7100000000000000000000000000000000000000000000000000000000600052604160045260246000fd5b62000f028262000eb7565b810181811067ffffffffffffffff8211171562000f245762000f2362000ec8565b5b80604052505050565b600062000f3962000ba7565b905062000f47828262000ef7565b919050565b600067ffffffffffffffff82111562000f6a5762000f6962000ec8565b5b62000f758262000eb7565b9050602081019050919050565b82818337600083830152505050565b600062000fa862000fa28462000f4c565b62000f2d565b90508281526020810184848401111562000fc75762000fc662000eb2565b5b62000fd484828562000f82565b509392505050565b600082601f83011262000ff45762000ff362000ead565b5b81356200100684826020860162000f91565b91505092915050565b600080600080608085870312156200102c576200102b62000bb1565b5b60006200103c8782880162000e96565b94505060206200104f8782880162000e96565b9350506040620010628782880162000d6d565b925050606085013567ffffffffffffffff81111562001086576200108562000bb6565b5b620010948782880162000fdc565b91505092959194509250565b600082825260208201905092915050565b7f416363657373436f6e74726f6c3a2063616e206f6e6c792072656e6f756e636560008201527f20726f6c657320666f722073656c660000000000000000000000000000000000602082015250565b60006200110f602f83620010a0565b91506200111c82620010b1565b604082019050919050565b60006020820190508181036000830152620011428162001100565b9050919050565b7f4e487b7100000000000000000000000000000000000000000000000000000000600052601160045260246000fd5b6000620011858262000e72565b9150620011928362000e72565b925082821015620011a857620011a762001149565b5b828203905092915050565b7f4e487b7100000000000000000000000000000000000000000000000000000000600052603260045260246000fd5b620011ed8162000e72565b82525050565b600081519050919050565b600082825260208201905092915050565b60005b838110156200122f57808201518184015260208101905062001212565b838111156200123f576000848401525b50505050565b60006200125282620011f3565b6200125e8185620011fe565b9350620012708185602086016200120f565b6200127b8162000eb7565b840191505092915050565b60006080820190506200129d6000830187620011e2565b620012ac6020830186620011e2565b620012bb604083018562000e44565b8181036060830152620012cf818462001245565b905095945050505050565b6000620012e78262000e72565b9150620012f48362000e72565b9250827fffffffffffffffffffffffffffffffffffffffffffffffffffffffffffffffff038211156200132c576200132b62001149565b5b828201905092915050565b600081905092915050565b7f416363657373436f6e74726f6c3a206163636f756e7420000000000000000000600082015250565b60006200137a60178362001337565b9150620013878262001342565b601782019050919050565b600081519050919050565b6000620013aa8262001392565b620013b6818562001337565b9350620013c88185602086016200120f565b80840191505092915050565b7f206973206d697373696e6720726f6c6520000000000000000000000000000000600082015250565b60006200140c60118362001337565b91506200141982620013d4565b601182019050919050565b600062001431826200136b565b91506200143f82856200139d565b91506200144c82620013fd565b91506200145a82846200139d565b91508190509392505050565b6000620014738262001392565b6200147f8185620010a0565b9350620014918185602086016200120f565b6200149c8162000eb7565b840191505092915050565b60006020820190508181036000830152620014c3818462001466565b905092915050565b6000620014d88262000e72565b9150620014e58362000e72565b9250817fffffffffffffffffffffffffffffffffffffffffffffffffffffffffffffffff048311821515161562001521576200152062001149565b5b828202905092915050565b6000620015398262000e72565b9150600082036200154f576200154e62001149565b5b600182039050919050565b7f537472696e67733a20686578206c656e67746820696e73756666696369656e74600082015250565b600062001592602083620010a0565b91506200159f826200155a565b602082019050919050565b60006020820190508181036000830152620015c58162001583565b905091905056fe60806040523480156200001157600080fd5b50604051620021e7380380620021e783398181016040528101906200003791906200050e565b6200004c6000801b33620000be60201b60201c565b8360018190555081600260006101000a81548173ffffffffffffffffffffffffffffffffffffffff021916908373ffffffffffffffffffffffffffffffffffffffff1602179055508060039080519060200190620000ac92919062000221565b50826004819055505050505062000603565b620000d08282620001af60201b60201c565b620001ab57600160008084815260200190815260200160002060000160008373ffffffffffffffffffffffffffffffffffffffff1673ffffffffffffffffffffffffffffffffffffffff16815260200190815260200160002060006101000a81548160ff021916908315150217905550620001506200021960201b60201c565b73ffffffffffffffffffffffffffffffffffffffff168173ffffffffffffffffffffffffffffffffffffffff16837f2f8788117e7eff1d82e926ec794901d17c78024a50270940304540a733656f0d60405160405180910390a45b5050565b600080600084815260200190815260200160002060000160008373ffffffffffffffffffffffffffffffffffffffff1673ffffffffffffffffffffffffffffffffffffffff16815260200190815260200160002060009054906101000a900460ff16905092915050565b600033905090565b8280546200022f90620005ce565b90600052602060002090601f0160209004810192826200025357600085556200029f565b82601f106200026e57805160ff19168380011785556200029f565b828001600101855582156200029f579182015b828111156200029e57825182559160200191906001019062000281565b5b509050620002ae9190620002b2565b5090565b5b80821115620002cd576000816000905550600101620002b3565b5090565b6000604051905090565b600080fd5b600080fd5b6000819050919050565b620002fa81620002e5565b81146200030657600080fd5b50565b6000815190506200031a81620002ef565b92915050565b600073ffffffffffffffffffffffffffffffffffffffff82169050919050565b60006200034d8262000320565b9050919050565b6200035f8162000340565b81146200036b57600080fd5b50565b6000815190506200037f8162000354565b92915050565b600080fd5b600080fd5b6000601f19601f8301169050919050565b7f4e487b7100000000000000000000000000000000000000000000000000000000600052604160045260246000fd5b620003da826200038f565b810181811067ffffffffffffffff82111715620003fc57620003fb620003a0565b5b80604052505050565b600062000411620002d1565b90506200041f8282620003cf565b919050565b600067ffffffffffffffff821115620004425762000441620003a0565b5b6200044d826200038f565b9050602081019050919050565b60005b838110156200047a5780820151818401526020810190506200045d565b838111156200048a576000848401525b50505050565b6000620004a7620004a18462000424565b62000405565b905082815260208101848484011115620004c657620004c56200038a565b5b620004d38482856200045a565b509392505050565b600082601f830112620004f357620004f262000385565b5b81516200050584826020860162000490565b91505092915050565b600080600080608085870312156200052b576200052a620002db565b5b60006200053b8782880162000309565b94505060206200054e8782880162000309565b935050604062000561878288016200036e565b925050606085015167ffffffffffffffff811115620005855762000584620002e0565b5b6200059387828801620004db565b91505092959194509250565b7f4e487b7100000000000000000000000000000000000000000000000000000000600052602260045260246000fd5b60006002820490506001821680620005e757607f821691505b602082108103620005fd57620005fc6200059f565b5b50919050565b611bd480620006136000396000f3fe6080604052600436106101175760003560e01c80635592da87116100a05780639c3962f0116100645780639c3962f0146103af578063a217fddf146103cd578063a5587088146103f8578063d547741f14610423578063dd0b7ffe1461044c5761012b565b80635592da87146102d95780635ecbdce9146103025780636e0f1c081461032d5780636e353a1d1461035657806391d14854146103725761012b565b8063278bd065116100e7578063278bd065146102085780632e25d2a6146102335780632f2ff15d1461025e57806336568abe14610287578063397a8bab146102b05761012b565b8062fa23941461013a57806301ffc9a714610163578063136449db146101a0578063248a9ca3146101cb5761012b565b3661012b576000801b61012981610475565b005b6000801b61013881610475565b005b34801561014657600080fd5b50610161600480360381019061015c91906111a4565b610489565b005b34801561016f57600080fd5b5061018a6004803603810190610185919061127f565b610503565b60405161019791906112c7565b60405180910390f35b3480156101ac57600080fd5b506101b561057d565b6040516101c291906112f1565b60405180910390f35b3480156101d757600080fd5b506101f260048036038101906101ed9190611342565b610583565b6040516101ff919061137e565b60405180910390f35b34801561021457600080fd5b5061021d6105a2565b60405161022a9190611421565b60405180910390f35b34801561023f57600080fd5b50610248610630565b6040516102559190611452565b60405180910390f35b34801561026a57600080fd5b506102856004803603810190610280919061146d565b610656565b005b34801561029357600080fd5b506102ae60048036038101906102a9919061146d565b610677565b005b3480156102bc57600080fd5b506102d760048036038101906102d291906114ad565b6106fa565b005b3480156102e557600080fd5b5061030060048036038101906102fb91906114da565b610718565b005b34801561030e57600080fd5b50610317610740565b60405161032491906112f1565b60405180910390f35b34801561033957600080fd5b50610354600480360381019061034f9190611523565b610746565b005b610370600480360381019061036b919061158e565b61075e565b005b34801561037e57600080fd5b506103996004803603810190610394919061146d565b61081c565b6040516103a691906112c7565b60405180910390f35b6103b7610886565b6040516103c491906112c7565b60405180910390f35b3480156103d957600080fd5b506103e26109bd565b6040516103ef919061137e565b60405180910390f35b34801561040457600080fd5b5061040d6109c4565b60405161041a91906112f1565b60405180910390f35b34801561042f57600080fd5b5061044a6004803603810190610445919061146d565b6109ce565b005b34801561045857600080fd5b50610473600480360381019061046e9190611523565b6109ef565b005b61048681610481610a07565b610a0f565b50565b6000801b61049681610475565b8460018190555082600260006101000a81548173ffffffffffffffffffffffffffffffffffffffff021916908373ffffffffffffffffffffffffffffffffffffffff16021790555081600390805190602001906104f4929190610f13565b50836004819055505050505050565b60007f7965db0b000000000000000000000000000000000000000000000000000000007bffffffffffffffffffffffffffffffffffffffffffffffffffffffff1916827bffffffffffffffffffffffffffffffffffffffffffffffffffffffff19161480610576575061057582610aac565b5b9050919050565b60045481565b6000806000838152602001908152602001600020600101549050919050565b600380546105af906115ea565b80601f01602080910402602001604051908101604052809291908181526020018280546105db906115ea565b80156106285780601f106105fd57610100808354040283529160200191610628565b820191906000526020600020905b81548152906001019060200180831161060b57829003601f168201915b505050505081565b600260009054906101000a900473ffffffffffffffffffffffffffffffffffffffff1681565b61065f82610583565b61066881610475565b6106728383610b16565b505050565b61067f610a07565b73ffffffffffffffffffffffffffffffffffffffff168173ffffffffffffffffffffffffffffffffffffffff16146106ec576040517f08c379a00000000000000000000000000000000000000000000000000000000081526004016106e39061169e565b60405180910390fd5b6106f68282610bf6565b5050565b6000801b61070781610475565b6107146000801b83610b16565b5050565b6000801b61072581610475565b816003908051906020019061073b929190610f13565b505050565b60015481565b6000801b61075381610475565b816004819055505050565b6000801b61076b81610475565b60008273ffffffffffffffffffffffffffffffffffffffff1647604051610791906116ef565b60006040518083038185875af1925050503d80600081146107ce576040519150601f19603f3d011682016040523d82523d6000602084013e6107d3565b606091505b5050905080610817576040517f08c379a000000000000000000000000000000000000000000000000000000000815260040161080e90611750565b60405180910390fd5b505050565b600080600084815260200190815260200160002060000160008373ffffffffffffffffffffffffffffffffffffffff1673ffffffffffffffffffffffffffffffffffffffff16815260200190815260200160002060009054906101000a900460ff16905092915050565b60008060001b61089581610475565b6001544710156108a457600080fd5b6000600260009054906101000a900473ffffffffffffffffffffffffffffffffffffffff1673ffffffffffffffffffffffffffffffffffffffff166001546004549060036040516108f59190611804565b600060405180830381858888f193505050503d8060008114610933576040519150601f19603f3d011682016040523d82523d6000602084013e610938565b606091505b505090508061097c576040517f08c379a000000000000000000000000000000000000000000000000000000000815260040161097390611867565b60405180910390fd5b7f83e31f5e5651d64b527802681a291e708d9fe310288785b1b816aa293d9b8fc660016040516109ac91906112c7565b60405180910390a160019250505090565b6000801b81565b6000600154905090565b6109d782610583565b6109e081610475565b6109ea8383610bf6565b505050565b6000801b6109fc81610475565b816001819055505050565b600033905090565b610a19828261081c565b610aa857610a3e8173ffffffffffffffffffffffffffffffffffffffff166014610cd7565b610a4c8360001c6020610cd7565b604051602001610a5d929190611966565b6040516020818303038152906040526040517f08c379a0000000000000000000000000000000000000000000000000000000008152600401610a9f91906119d9565b60405180910390fd5b5050565b60007f01ffc9a7000000000000000000000000000000000000000000000000000000007bffffffffffffffffffffffffffffffffffffffffffffffffffffffff1916827bffffffffffffffffffffffffffffffffffffffffffffffffffffffff1916149050919050565b610b20828261081c565b610bf257600160008084815260200190815260200160002060000160008373ffffffffffffffffffffffffffffffffffffffff1673ffffffffffffffffffffffffffffffffffffffff16815260200190815260200160002060006101000a81548160ff021916908315150217905550610b97610a07565b73ffffffffffffffffffffffffffffffffffffffff168173ffffffffffffffffffffffffffffffffffffffff16837f2f8788117e7eff1d82e926ec794901d17c78024a50270940304540a733656f0d60405160405180910390a45b5050565b610c00828261081c565b15610cd357600080600084815260200190815260200160002060000160008373ffffffffffffffffffffffffffffffffffffffff1673ffffffffffffffffffffffffffffffffffffffff16815260200190815260200160002060006101000a81548160ff021916908315150217905550610c78610a07565b73ffffffffffffffffffffffffffffffffffffffff168173ffffffffffffffffffffffffffffffffffffffff16837ff6391f5c32d9c69d2a47ea670b442974b53935d1edc7fd64eb21e047a839171b60405160405180910390a45b5050565b606060006002836002610cea9190611a2a565b610cf49190611a84565b67ffffffffffffffff811115610d0d57610d0c611079565b5b6040519080825280601f01601f191660200182016040528015610d3f5781602001600182028036833780820191505090505b5090507f300000000000000000000000000000000000000000000000000000000000000081600081518110610d7757610d76611ada565b5b60200101907effffffffffffffffffffffffffffffffffffffffffffffffffffffffffffff1916908160001a9053507f780000000000000000000000000000000000000000000000000000000000000081600181518110610ddb57610dda611ada565b5b60200101907effffffffffffffffffffffffffffffffffffffffffffffffffffffffffffff1916908160001a90535060006001846002610e1b9190611a2a565b610e259190611a84565b90505b6001811115610ec5577f3031323334353637383961626364656600000000000000000000000000000000600f861660108110610e6757610e66611ada565b5b1a60f81b828281518110610e7e57610e7d611ada565b5b60200101907effffffffffffffffffffffffffffffffffffffffffffffffffffffffffffff1916908160001a905350600485901c945080610ebe90611b09565b9050610e28565b5060008414610f09576040517f08c379a0000000000000000000000000000000000000000000000000000000008152600401610f0090611b7e565b60405180910390fd5b8091505092915050565b828054610f1f906115ea565b90600052602060002090601f016020900481019282610f415760008555610f88565b82601f10610f5a57805160ff1916838001178555610f88565b82800160010185558215610f88579182015b82811115610f87578251825591602001919060010190610f6c565b5b509050610f959190610f99565b5090565b5b80821115610fb2576000816000905550600101610f9a565b5090565b6000604051905090565b600080fd5b600080fd5b6000819050919050565b610fdd81610fca565b8114610fe857600080fd5b50565b600081359050610ffa81610fd4565b92915050565b600073ffffffffffffffffffffffffffffffffffffffff82169050919050565b600061102b82611000565b9050919050565b61103b81611020565b811461104657600080fd5b50565b60008135905061105881611032565b92915050565b600080fd5b600080fd5b6000601f19601f8301169050919050565b7f4e487b7100000000000000000000000000000000000000000000000000000000600052604160045260246000fd5b6110b182611068565b810181811067ffffffffffffffff821117156110d0576110cf611079565b5b80604052505050565b60006110e3610fb6565b90506110ef82826110a8565b919050565b600067ffffffffffffffff82111561110f5761110e611079565b5b61111882611068565b9050602081019050919050565b82818337600083830152505050565b6000611147611142846110f4565b6110d9565b90508281526020810184848401111561116357611162611063565b5b61116e848285611125565b509392505050565b600082601f83011261118b5761118a61105e565b5b813561119b848260208601611134565b91505092915050565b600080600080608085870312156111be576111bd610fc0565b5b60006111cc87828801610feb565b94505060206111dd87828801610feb565b93505060406111ee87828801611049565b925050606085013567ffffffffffffffff81111561120f5761120e610fc5565b5b61121b87828801611176565b91505092959194509250565b60007fffffffff0000000000000000000000000000000000000000000000000000000082169050919050565b61125c81611227565b811461126757600080fd5b50565b60008135905061127981611253565b92915050565b60006020828403121561129557611294610fc0565b5b60006112a38482850161126a565b91505092915050565b60008115159050919050565b6112c1816112ac565b82525050565b60006020820190506112dc60008301846112b8565b92915050565b6112eb81610fca565b82525050565b600060208201905061130660008301846112e2565b92915050565b6000819050919050565b61131f8161130c565b811461132a57600080fd5b50565b60008135905061133c81611316565b92915050565b60006020828403121561135857611357610fc0565b5b60006113668482850161132d565b91505092915050565b6113788161130c565b82525050565b6000602082019050611393600083018461136f565b92915050565b600081519050919050565b600082825260208201905092915050565b60005b838110156113d35780820151818401526020810190506113b8565b838111156113e2576000848401525b50505050565b60006113f382611399565b6113fd81856113a4565b935061140d8185602086016113b5565b61141681611068565b840191505092915050565b6000602082019050818103600083015261143b81846113e8565b905092915050565b61144c81611020565b82525050565b60006020820190506114676000830184611443565b92915050565b6000806040838503121561148457611483610fc0565b5b60006114928582860161132d565b92505060206114a385828601611049565b9150509250929050565b6000602082840312156114c3576114c2610fc0565b5b60006114d184828501611049565b91505092915050565b6000602082840312156114f0576114ef610fc0565b5b600082013567ffffffffffffffff81111561150e5761150d610fc5565b5b61151a84828501611176565b91505092915050565b60006020828403121561153957611538610fc0565b5b600061154784828501610feb565b91505092915050565b600061155b82611000565b9050919050565b61156b81611550565b811461157657600080fd5b50565b60008135905061158881611562565b92915050565b6000602082840312156115a4576115a3610fc0565b5b60006115b284828501611579565b91505092915050565b7f4e487b7100000000000000000000000000000000000000000000000000000000600052602260045260246000fd5b6000600282049050600182168061160257607f821691505b602082108103611615576116146115bb565b5b50919050565b600082825260208201905092915050565b7f416363657373436f6e74726f6c3a2063616e206f6e6c792072656e6f756e636560008201527f20726f6c657320666f722073656c660000000000000000000000000000000000602082015250565b6000611688602f8361161b565b91506116938261162c565b604082019050919050565b600060208201905081810360008301526116b78161167b565b9050919050565b600081905092915050565b50565b60006116d96000836116be565b91506116e4826116c9565b600082019050919050565b60006116fa826116cc565b9150819050919050565b7f4574686572207472616e73666572206661696c65642e00000000000000000000600082015250565b600061173a60168361161b565b915061174582611704565b602082019050919050565b600060208201905081810360008301526117698161172d565b9050919050565b60008190508160005260206000209050919050565b60008154611792816115ea565b61179c81866116be565b945060018216600081146117b757600181146117c8576117fb565b60ff198316865281860193506117fb565b6117d185611770565b60005b838110156117f3578154818901526001820191506020810190506117d4565b838801955050505b50505092915050565b60006118108284611785565b915081905092915050565b7f5075726368617365204661696c65640000000000000000000000000000000000600082015250565b6000611851600f8361161b565b915061185c8261181b565b602082019050919050565b6000602082019050818103600083015261188081611844565b9050919050565b600081905092915050565b7f416363657373436f6e74726f6c3a206163636f756e7420000000000000000000600082015250565b60006118c8601783611887565b91506118d382611892565b601782019050919050565b600081519050919050565b60006118f4826118de565b6118fe8185611887565b935061190e8185602086016113b5565b80840191505092915050565b7f206973206d697373696e6720726f6c6520000000000000000000000000000000600082015250565b6000611950601183611887565b915061195b8261191a565b601182019050919050565b6000611971826118bb565b915061197d82856118e9565b915061198882611943565b915061199482846118e9565b91508190509392505050565b60006119ab826118de565b6119b5818561161b565b93506119c58185602086016113b5565b6119ce81611068565b840191505092915050565b600060208201905081810360008301526119f381846119a0565b905092915050565b7f4e487b7100000000000000000000000000000000000000000000000000000000600052601160045260246000fd5b6000611a3582610fca565b9150611a4083610fca565b9250817fffffffffffffffffffffffffffffffffffffffffffffffffffffffffffffffff0483118215151615611a7957611a786119fb565b5b828202905092915050565b6000611a8f82610fca565b9150611a9a83610fca565b9250827fffffffffffffffffffffffffffffffffffffffffffffffffffffffffffffffff03821115611acf57611ace6119fb565b5b828201905092915050565b7f4e487b7100000000000000000000000000000000000000000000000000000000600052603260045260246000fd5b6000611b1482610fca565b915060008203611b2757611b266119fb565b5b600182039050919050565b7f537472696e67733a20686578206c656e67746820696e73756666696369656e74600082015250565b6000611b6860208361161b565b9150611b7382611b32565b602082019050919050565b60006020820190508181036000830152611b9781611b5b565b905091905056fea2646970667358221220fb07187975978ee06a500fe109b9e3e22341f1d600ecfdc53d67049b2367f8f864736f6c634300080d0033a2646970667358221220eb3570d0025db08b95f2f1cbc8d2da105e450783e121fc2bc7a3e3f617c814ee64736f6c634300080d0033",
  "linkReferences": {},
  "deployedLinkReferences": {}
}