{
  "_format": "hh-sol-artifact-1",
  "contractName": "MarketWrapperFactory",
  "sourceName": "contracts/MarketWrapperFactory.sol",
  "abi": [
    {
      "inputs": [],
      "stateMutability": "nonpayable",
      "type": "constructor"
    },
    {
      "anonymous": false,
      "inputs": [
        {
          "indexed": true,
          "internalType": "bytes32",
          "name": "role",
          "type": "bytes32"
        },
        {
          "indexed": true,
          "internalType": "bytes32",
          "name": "previousAdminRole",
          "type": "bytes32"
        },
        {
          "indexed": true,
          "internalType": "bytes32",
          "name": "newAdminRole",
          "type": "bytes32"
        }
      ],
      "name": "RoleAdminChanged",
      "type": "event"
    },
    {
      "anonymous": false,
      "inputs": [
        {
          "indexed": true,
          "internalType": "bytes32",
          "name": "role",
          "type": "bytes32"
        },
        {
          "indexed": true,
          "internalType": "address",
          "name": "account",
          "type": "address"
        },
        {
          "indexed": true,
          "internalType": "address",
          "name": "sender",
          "type": "address"
        }
      ],
      "name": "RoleGranted",
      "type": "event"
    },
    {
      "anonymous": false,
      "inputs": [
        {
          "indexed": true,
          "internalType": "bytes32",
          "name": "role",
          "type": "bytes32"
        },
        {
          "indexed": true,
          "internalType": "address",
          "name": "account",
          "type": "address"
        },
        {
          "indexed": true,
          "internalType": "address",
          "name": "sender",
          "type": "address"
        }
      ],
      "name": "RoleRevoked",
      "type": "event"
    },
    {
      "inputs": [],
      "name": "DEFAULT_ADMIN_ROLE",
      "outputs": [
        {
          "internalType": "bytes32",
          "name": "",
          "type": "bytes32"
        }
      ],
      "stateMutability": "view",
      "type": "function"
    },
    {
      "inputs": [],
      "name": "getLatestMarketWrapper",
      "outputs": [
        {
          "internalType": "address",
          "name": "",
          "type": "address"
        }
      ],
      "stateMutability": "view",
      "type": "function"
    },
    {
      "inputs": [
        {
          "internalType": "bytes32",
          "name": "role",
          "type": "bytes32"
        }
      ],
      "name": "getRoleAdmin",
      "outputs": [
        {
          "internalType": "bytes32",
          "name": "",
          "type": "bytes32"
        }
      ],
      "stateMutability": "view",
      "type": "function"
    },
    {
      "inputs": [
        {
          "internalType": "address",
          "name": "_marketWrapper",
          "type": "address"
        },
        {
          "internalType": "address",
          "name": "_to",
          "type": "address"
        }
      ],
      "name": "giveContractOwnership",
      "outputs": [],
      "stateMutability": "nonpayable",
      "type": "function"
    },
    {
      "inputs": [
        {
          "internalType": "address",
          "name": "to",
          "type": "address"
        }
      ],
      "name": "grantOwnerRole",
      "outputs": [],
      "stateMutability": "nonpayable",
      "type": "function"
    },
    {
      "inputs": [
        {
          "internalType": "bytes32",
          "name": "role",
          "type": "bytes32"
        },
        {
          "internalType": "address",
          "name": "account",
          "type": "address"
        }
      ],
      "name": "grantRole",
      "outputs": [],
      "stateMutability": "nonpayable",
      "type": "function"
    },
    {
      "inputs": [
        {
          "internalType": "bytes32",
          "name": "role",
          "type": "bytes32"
        },
        {
          "internalType": "address",
          "name": "account",
          "type": "address"
        }
      ],
      "name": "hasRole",
      "outputs": [
        {
          "internalType": "bool",
          "name": "",
          "type": "bool"
        }
      ],
      "stateMutability": "view",
      "type": "function"
    },
    {
      "inputs": [
        {
          "internalType": "uint256",
          "name": "_buyNowPrice",
          "type": "uint256"
        },
        {
          "internalType": "uint256",
          "name": "_gasEstimate",
          "type": "uint256"
        },
        {
          "internalType": "address",
          "name": "_marketPlace",
          "type": "address"
        },
        {
          "internalType": "bytes",
          "name": "_transactionData",
          "type": "bytes"
        }
      ],
      "name": "newMarketWrapper",
      "outputs": [
        {
          "internalType": "address",
          "name": "",
          "type": "address"
        }
      ],
      "stateMutability": "nonpayable",
      "type": "function"
    },
    {
      "inputs": [
        {
          "internalType": "bytes32",
          "name": "role",
          "type": "bytes32"
        },
        {
          "internalType": "address",
          "name": "account",
          "type": "address"
        }
      ],
      "name": "renounceRole",
      "outputs": [],
      "stateMutability": "nonpayable",
      "type": "function"
    },
    {
      "inputs": [
        {
          "internalType": "bytes32",
          "name": "role",
          "type": "bytes32"
        },
        {
          "internalType": "address",
          "name": "account",
          "type": "address"
        }
      ],
      "name": "revokeRole",
      "outputs": [],
      "stateMutability": "nonpayable",
      "type": "function"
    },
    {
      "inputs": [
        {
          "internalType": "bytes4",
          "name": "interfaceId",
          "type": "bytes4"
        }
      ],
      "name": "supportsInterface",
      "outputs": [
        {
          "internalType": "bool",
          "name": "",
          "type": "bool"
        }
      ],
      "stateMutability": "view",
      "type": "function"
    }
  ],
  "bytecode": "0x6080604052600060025534801561001557600080fd5b506100296000801b3361002e60201b60201c565b61018c565b61003e828261011a60201b60201c565b61011657600160008084815260200190815260200160002060000160008373ffffffffffffffffffffffffffffffffffffffff1673ffffffffffffffffffffffffffffffffffffffff16815260200190815260200160002060006101000a81548160ff0219169083151502179055506100bb61018460201b60201c565b73ffffffffffffffffffffffffffffffffffffffff168173ffffffffffffffffffffffffffffffffffffffff16837f2f8788117e7eff1d82e926ec794901d17c78024a50270940304540a733656f0d60405160405180910390a45b5050565b600080600084815260200190815260200160002060000160008373ffffffffffffffffffffffffffffffffffffffff1673ffffffffffffffffffffffffffffffffffffffff16815260200190815260200160002060009054906101000a900460ff16905092915050565b600033905090565b6137dc806200019c6000396000f3fe60806040523480156200001157600080fd5b5060043610620000b85760003560e01c80635556f1aa116200007b5780635556f1aa146200018957806391d1485414620001a9578063a217fddf14620001df578063a6f660351462000201578063d50c213e1462000223578063d547741f146200025957620000b8565b806301ffc9a714620000bd578063248a9ca314620000f35780632f2ff15d146200012957806336568abe1462000149578063397a8bab1462000169575b600080fd5b620000db6004803603810190620000d5919062000c18565b62000279565b604051620000ea919062000c67565b60405180910390f35b6200011160048036038101906200010b919062000cbf565b620002f6565b60405162000120919062000d02565b60405180910390f35b62000147600480360381019062000141919062000d84565b62000315565b005b62000167600480360381019062000161919062000d84565b6200033c565b005b62000187600480360381019062000181919062000dcb565b620003c6565b005b620001a76004803603810190620001a1919062000dfd565b620003e8565b005b620001c76004803603810190620001c1919062000d84565b62000471565b604051620001d6919062000c67565b60405180910390f35b620001e9620004db565b604051620001f8919062000d02565b60405180910390f35b6200020b620004e2565b6040516200021a919062000e55565b60405180910390f35b6200024160048036038101906200023b91906200100f565b6200053a565b60405162000250919062000e55565b60405180910390f35b62000277600480360381019062000271919062000d84565b6200061a565b005b60007f7965db0b000000000000000000000000000000000000000000000000000000007bffffffffffffffffffffffffffffffffffffffffffffffffffffffff1916827bffffffffffffffffffffffffffffffffffffffffffffffffffffffff19161480620002ef5750620002ee8262000641565b5b9050919050565b6000806000838152602001908152602001600020600101549050919050565b6200032082620002f6565b6200032b81620006ab565b620003378383620006c3565b505050565b62000346620007a8565b73ffffffffffffffffffffffffffffffffffffffff168173ffffffffffffffffffffffffffffffffffffffff1614620003b6576040517f08c379a0000000000000000000000000000000000000000000000000000000008152600401620003ad9062001127565b60405180910390fd5b620003c28282620007b0565b5050565b6000801b620003d581620006ab565b620003e46000801b83620006c3565b5050565b6000801b620003f781620006ab565b60008390508073ffffffffffffffffffffffffffffffffffffffff1663397a8bab846040518263ffffffff1660e01b815260040162000437919062000e55565b600060405180830381600087803b1580156200045257600080fd5b505af115801562000467573d6000803e3d6000fd5b5050505050505050565b600080600084815260200190815260200160002060000160008373ffffffffffffffffffffffffffffffffffffffff1673ffffffffffffffffffffffffffffffffffffffff16815260200190815260200160002060009054906101000a900460ff16905092915050565b6000801b81565b6000600180600254620004f6919062001178565b815481106200050a5762000509620011b3565b5b9060005260206000200160009054906101000a900473ffffffffffffffffffffffffffffffffffffffff16905090565b60008060001b6200054b81620006ab565b6000868686866040516200055f9062000b99565b6200056e949392919062001286565b604051809103906000f0801580156200058b573d6000803e3d6000fd5b5090506001819080600181540180825580915050600190039060005260206000200160009091909190916101000a81548173ffffffffffffffffffffffffffffffffffffffff021916908373ffffffffffffffffffffffffffffffffffffffff160217905550600160026000828254620006069190620012da565b925050819055508092505050949350505050565b6200062582620002f6565b6200063081620006ab565b6200063c8383620007b0565b505050565b60007f01ffc9a7000000000000000000000000000000000000000000000000000000007bffffffffffffffffffffffffffffffffffffffffffffffffffffffff1916827bffffffffffffffffffffffffffffffffffffffffffffffffffffffff1916149050919050565b620006c081620006ba620007a8565b62000896565b50565b620006cf828262000471565b620007a457600160008084815260200190815260200160002060000160008373ffffffffffffffffffffffffffffffffffffffff1673ffffffffffffffffffffffffffffffffffffffff16815260200190815260200160002060006101000a81548160ff02191690831515021790555062000749620007a8565b73ffffffffffffffffffffffffffffffffffffffff168173ffffffffffffffffffffffffffffffffffffffff16837f2f8788117e7eff1d82e926ec794901d17c78024a50270940304540a733656f0d60405160405180910390a45b5050565b600033905090565b620007bc828262000471565b156200089257600080600084815260200190815260200160002060000160008373ffffffffffffffffffffffffffffffffffffffff1673ffffffffffffffffffffffffffffffffffffffff16815260200190815260200160002060006101000a81548160ff02191690831515021790555062000837620007a8565b73ffffffffffffffffffffffffffffffffffffffff168173ffffffffffffffffffffffffffffffffffffffff16837ff6391f5c32d9c69d2a47ea670b442974b53935d1edc7fd64eb21e047a839171b60405160405180910390a45b5050565b620008a2828262000471565b6200093a57620008ca8173ffffffffffffffffffffffffffffffffffffffff1660146200093e565b620008da8360001c60206200093e565b604051602001620008ed92919062001424565b6040516020818303038152906040526040517f08c379a0000000000000000000000000000000000000000000000000000000008152600401620009319190620014a7565b60405180910390fd5b5050565b606060006002836002620009539190620014cb565b6200095f9190620012da565b67ffffffffffffffff8111156200097b576200097a62000ec8565b5b6040519080825280601f01601f191660200182016040528015620009ae5781602001600182028036833780820191505090505b5090507f300000000000000000000000000000000000000000000000000000000000000081600081518110620009e957620009e8620011b3565b5b60200101907effffffffffffffffffffffffffffffffffffffffffffffffffffffffffffff1916908160001a9053507f78000000000000000000000000000000000000000000000000000000000000008160018151811062000a505762000a4f620011b3565b5b60200101907effffffffffffffffffffffffffffffffffffffffffffffffffffffffffffff1916908160001a9053506000600184600262000a929190620014cb565b62000a9e9190620012da565b90505b600181111562000b48577f3031323334353637383961626364656600000000000000000000000000000000600f86166010811062000ae45762000ae3620011b3565b5b1a60f81b82828151811062000afe5762000afd620011b3565b5b60200101907effffffffffffffffffffffffffffffffffffffffffffffffffffffffffffff1916908160001a905350600485901c94508062000b40906200152c565b905062000aa1565b506000841462000b8f576040517f08c379a000000000000000000000000000000000000000000000000000000000815260040162000b8690620015aa565b60405180910390fd5b8091505092915050565b6121da80620015cd83390190565b6000604051905090565b600080fd5b600080fd5b60007fffffffff0000000000000000000000000000000000000000000000000000000082169050919050565b62000bf28162000bbb565b811462000bfe57600080fd5b50565b60008135905062000c128162000be7565b92915050565b60006020828403121562000c315762000c3062000bb1565b5b600062000c418482850162000c01565b91505092915050565b60008115159050919050565b62000c618162000c4a565b82525050565b600060208201905062000c7e600083018462000c56565b92915050565b6000819050919050565b62000c998162000c84565b811462000ca557600080fd5b50565b60008135905062000cb98162000c8e565b92915050565b60006020828403121562000cd85762000cd762000bb1565b5b600062000ce88482850162000ca8565b91505092915050565b62000cfc8162000c84565b82525050565b600060208201905062000d19600083018462000cf1565b92915050565b600073ffffffffffffffffffffffffffffffffffffffff82169050919050565b600062000d4c8262000d1f565b9050919050565b62000d5e8162000d3f565b811462000d6a57600080fd5b50565b60008135905062000d7e8162000d53565b92915050565b6000806040838503121562000d9e5762000d9d62000bb1565b5b600062000dae8582860162000ca8565b925050602062000dc18582860162000d6d565b9150509250929050565b60006020828403121562000de45762000de362000bb1565b5b600062000df48482850162000d6d565b91505092915050565b6000806040838503121562000e175762000e1662000bb1565b5b600062000e278582860162000d6d565b925050602062000e3a8582860162000d6d565b9150509250929050565b62000e4f8162000d3f565b82525050565b600060208201905062000e6c600083018462000e44565b92915050565b6000819050919050565b62000e878162000e72565b811462000e9357600080fd5b50565b60008135905062000ea78162000e7c565b92915050565b600080fd5b600080fd5b6000601f19601f8301169050919050565b7f4e487b7100000000000000000000000000000000000000000000000000000000600052604160045260246000fd5b62000f028262000eb7565b810181811067ffffffffffffffff8211171562000f245762000f2362000ec8565b5b80604052505050565b600062000f3962000ba7565b905062000f47828262000ef7565b919050565b600067ffffffffffffffff82111562000f6a5762000f6962000ec8565b5b62000f758262000eb7565b9050602081019050919050565b82818337600083830152505050565b600062000fa862000fa28462000f4c565b62000f2d565b90508281526020810184848401111562000fc75762000fc662000eb2565b5b62000fd484828562000f82565b509392505050565b600082601f83011262000ff45762000ff362000ead565b5b81356200100684826020860162000f91565b91505092915050565b600080600080608085870312156200102c576200102b62000bb1565b5b60006200103c8782880162000e96565b94505060206200104f8782880162000e96565b9350506040620010628782880162000d6d565b925050606085013567ffffffffffffffff81111562001086576200108562000bb6565b5b620010948782880162000fdc565b91505092959194509250565b600082825260208201905092915050565b7f416363657373436f6e74726f6c3a2063616e206f6e6c792072656e6f756e636560008201527f20726f6c657320666f722073656c660000000000000000000000000000000000602082015250565b60006200110f602f83620010a0565b91506200111c82620010b1565b604082019050919050565b60006020820190508181036000830152620011428162001100565b9050919050565b7f4e487b7100000000000000000000000000000000000000000000000000000000600052601160045260246000fd5b6000620011858262000e72565b9150620011928362000e72565b925082821015620011a857620011a762001149565b5b828203905092915050565b7f4e487b7100000000000000000000000000000000000000000000000000000000600052603260045260246000fd5b620011ed8162000e72565b82525050565b600081519050919050565b600082825260208201905092915050565b60005b838110156200122f57808201518184015260208101905062001212565b838111156200123f576000848401525b50505050565b60006200125282620011f3565b6200125e8185620011fe565b9350620012708185602086016200120f565b6200127b8162000eb7565b840191505092915050565b60006080820190506200129d6000830187620011e2565b620012ac6020830186620011e2565b620012bb604083018562000e44565b8181036060830152620012cf818462001245565b905095945050505050565b6000620012e78262000e72565b9150620012f48362000e72565b9250827fffffffffffffffffffffffffffffffffffffffffffffffffffffffffffffffff038211156200132c576200132b62001149565b5b828201905092915050565b600081905092915050565b7f416363657373436f6e74726f6c3a206163636f756e7420000000000000000000600082015250565b60006200137a60178362001337565b9150620013878262001342565b601782019050919050565b600081519050919050565b6000620013aa8262001392565b620013b6818562001337565b9350620013c88185602086016200120f565b80840191505092915050565b7f206973206d697373696e6720726f6c6520000000000000000000000000000000600082015250565b60006200140c60118362001337565b91506200141982620013d4565b601182019050919050565b600062001431826200136b565b91506200143f82856200139d565b91506200144c82620013fd565b91506200145a82846200139d565b91508190509392505050565b6000620014738262001392565b6200147f8185620010a0565b9350620014918185602086016200120f565b6200149c8162000eb7565b840191505092915050565b60006020820190508181036000830152620014c3818462001466565b905092915050565b6000620014d88262000e72565b9150620014e58362000e72565b9250817fffffffffffffffffffffffffffffffffffffffffffffffffffffffffffffffff048311821515161562001521576200152062001149565b5b828202905092915050565b6000620015398262000e72565b9150600082036200154f576200154e62001149565b5b600182039050919050565b7f537472696e67733a20686578206c656e67746820696e73756666696369656e74600082015250565b600062001592602083620010a0565b91506200159f826200155a565b602082019050919050565b60006020820190508181036000830152620015c58162001583565b905091905056fe60806040523480156200001157600080fd5b50604051620021da380380620021da83398181016040528101906200003791906200050e565b6200004c6000801b33620000be60201b60201c565b8360018190555081600260006101000a81548173ffffffffffffffffffffffffffffffffffffffff021916908373ffffffffffffffffffffffffffffffffffffffff1602179055508060039080519060200190620000ac92919062000221565b50826004819055505050505062000603565b620000d08282620001af60201b60201c565b620001ab57600160008084815260200190815260200160002060000160008373ffffffffffffffffffffffffffffffffffffffff1673ffffffffffffffffffffffffffffffffffffffff16815260200190815260200160002060006101000a81548160ff021916908315150217905550620001506200021960201b60201c565b73ffffffffffffffffffffffffffffffffffffffff168173ffffffffffffffffffffffffffffffffffffffff16837f2f8788117e7eff1d82e926ec794901d17c78024a50270940304540a733656f0d60405160405180910390a45b5050565b600080600084815260200190815260200160002060000160008373ffffffffffffffffffffffffffffffffffffffff1673ffffffffffffffffffffffffffffffffffffffff16815260200190815260200160002060009054906101000a900460ff16905092915050565b600033905090565b8280546200022f90620005ce565b90600052602060002090601f0160209004810192826200025357600085556200029f565b82601f106200026e57805160ff19168380011785556200029f565b828001600101855582156200029f579182015b828111156200029e57825182559160200191906001019062000281565b5b509050620002ae9190620002b2565b5090565b5b80821115620002cd576000816000905550600101620002b3565b5090565b6000604051905090565b600080fd5b600080fd5b6000819050919050565b620002fa81620002e5565b81146200030657600080fd5b50565b6000815190506200031a81620002ef565b92915050565b600073ffffffffffffffffffffffffffffffffffffffff82169050919050565b60006200034d8262000320565b9050919050565b6200035f8162000340565b81146200036b57600080fd5b50565b6000815190506200037f8162000354565b92915050565b600080fd5b600080fd5b6000601f19601f8301169050919050565b7f4e487b7100000000000000000000000000000000000000000000000000000000600052604160045260246000fd5b620003da826200038f565b810181811067ffffffffffffffff82111715620003fc57620003fb620003a0565b5b80604052505050565b600062000411620002d1565b90506200041f8282620003cf565b919050565b600067ffffffffffffffff821115620004425762000441620003a0565b5b6200044d826200038f565b9050602081019050919050565b60005b838110156200047a5780820151818401526020810190506200045d565b838111156200048a576000848401525b50505050565b6000620004a7620004a18462000424565b62000405565b905082815260208101848484011115620004c657620004c56200038a565b5b620004d38482856200045a565b509392505050565b600082601f830112620004f357620004f262000385565b5b81516200050584826020860162000490565b91505092915050565b600080600080608085870312156200052b576200052a620002db565b5b60006200053b8782880162000309565b94505060206200054e8782880162000309565b935050604062000561878288016200036e565b925050606085015167ffffffffffffffff811115620005855762000584620002e0565b5b6200059387828801620004db565b91505092959194509250565b7f4e487b7100000000000000000000000000000000000000000000000000000000600052602260045260246000fd5b60006002820490506001821680620005e757607f821691505b602082108103620005fd57620005fc6200059f565b5b50919050565b611bc780620006136000396000f3fe6080604052600436106101175760003560e01c80635592da87116100a05780639c3962f0116100645780639c3962f0146103a2578063a217fddf146103c0578063a5587088146103eb578063d547741f14610416578063dd0b7ffe1461043f5761012b565b80635592da87146102cc5780635ecbdce9146102f55780636e0f1c08146103205780636e353a1d1461034957806391d14854146103655761012b565b8063278bd065116100e7578063278bd065146101fb5780632e25d2a6146102265780632f2ff15d1461025157806336568abe1461027a578063397a8bab146102a35761012b565b8062fa23941461012d57806301ffc9a714610156578063136449db14610193578063248a9ca3146101be5761012b565b3661012b576000801b61012981610468565b005b005b34801561013957600080fd5b50610154600480360381019061014f9190611197565b61047c565b005b34801561016257600080fd5b5061017d60048036038101906101789190611272565b6104f6565b60405161018a91906112ba565b60405180910390f35b34801561019f57600080fd5b506101a8610570565b6040516101b591906112e4565b60405180910390f35b3480156101ca57600080fd5b506101e560048036038101906101e09190611335565b610576565b6040516101f29190611371565b60405180910390f35b34801561020757600080fd5b50610210610595565b60405161021d9190611414565b60405180910390f35b34801561023257600080fd5b5061023b610623565b6040516102489190611445565b60405180910390f35b34801561025d57600080fd5b5061027860048036038101906102739190611460565b610649565b005b34801561028657600080fd5b506102a1600480360381019061029c9190611460565b61066a565b005b3480156102af57600080fd5b506102ca60048036038101906102c591906114a0565b6106ed565b005b3480156102d857600080fd5b506102f360048036038101906102ee91906114cd565b61070b565b005b34801561030157600080fd5b5061030a610733565b60405161031791906112e4565b60405180910390f35b34801561032c57600080fd5b5061034760048036038101906103429190611516565b610739565b005b610363600480360381019061035e9190611581565b610751565b005b34801561037157600080fd5b5061038c60048036038101906103879190611460565b61080f565b60405161039991906112ba565b60405180910390f35b6103aa610879565b6040516103b791906112ba565b60405180910390f35b3480156103cc57600080fd5b506103d56109b0565b6040516103e29190611371565b60405180910390f35b3480156103f757600080fd5b506104006109b7565b60405161040d91906112e4565b60405180910390f35b34801561042257600080fd5b5061043d60048036038101906104389190611460565b6109c1565b005b34801561044b57600080fd5b5061046660048036038101906104619190611516565b6109e2565b005b610479816104746109fa565b610a02565b50565b6000801b61048981610468565b8460018190555082600260006101000a81548173ffffffffffffffffffffffffffffffffffffffff021916908373ffffffffffffffffffffffffffffffffffffffff16021790555081600390805190602001906104e7929190610f06565b50836004819055505050505050565b60007f7965db0b000000000000000000000000000000000000000000000000000000007bffffffffffffffffffffffffffffffffffffffffffffffffffffffff1916827bffffffffffffffffffffffffffffffffffffffffffffffffffffffff19161480610569575061056882610a9f565b5b9050919050565b60045481565b6000806000838152602001908152602001600020600101549050919050565b600380546105a2906115dd565b80601f01602080910402602001604051908101604052809291908181526020018280546105ce906115dd565b801561061b5780601f106105f05761010080835404028352916020019161061b565b820191906000526020600020905b8154815290600101906020018083116105fe57829003601f168201915b505050505081565b600260009054906101000a900473ffffffffffffffffffffffffffffffffffffffff1681565b61065282610576565b61065b81610468565b6106658383610b09565b505050565b6106726109fa565b73ffffffffffffffffffffffffffffffffffffffff168173ffffffffffffffffffffffffffffffffffffffff16146106df576040517f08c379a00000000000000000000000000000000000000000000000000000000081526004016106d690611691565b60405180910390fd5b6106e98282610be9565b5050565b6000801b6106fa81610468565b6107076000801b83610b09565b5050565b6000801b61071881610468565b816003908051906020019061072e929190610f06565b505050565b60015481565b6000801b61074681610468565b816004819055505050565b6000801b61075e81610468565b60008273ffffffffffffffffffffffffffffffffffffffff1647604051610784906116e2565b60006040518083038185875af1925050503d80600081146107c1576040519150601f19603f3d011682016040523d82523d6000602084013e6107c6565b606091505b505090508061080a576040517f08c379a000000000000000000000000000000000000000000000000000000000815260040161080190611743565b60405180910390fd5b505050565b600080600084815260200190815260200160002060000160008373ffffffffffffffffffffffffffffffffffffffff1673ffffffffffffffffffffffffffffffffffffffff16815260200190815260200160002060009054906101000a900460ff16905092915050565b60008060001b61088881610468565b60015447101561089757600080fd5b6000600260009054906101000a900473ffffffffffffffffffffffffffffffffffffffff1673ffffffffffffffffffffffffffffffffffffffff166001546004549060036040516108e891906117f7565b600060405180830381858888f193505050503d8060008114610926576040519150601f19603f3d011682016040523d82523d6000602084013e61092b565b606091505b505090508061096f576040517f08c379a00000000000000000000000000000000000000000000000000000000081526004016109669061185a565b60405180910390fd5b7f83e31f5e5651d64b527802681a291e708d9fe310288785b1b816aa293d9b8fc6600160405161099f91906112ba565b60405180910390a160019250505090565b6000801b81565b6000600154905090565b6109ca82610576565b6109d381610468565b6109dd8383610be9565b505050565b6000801b6109ef81610468565b816001819055505050565b600033905090565b610a0c828261080f565b610a9b57610a318173ffffffffffffffffffffffffffffffffffffffff166014610cca565b610a3f8360001c6020610cca565b604051602001610a50929190611959565b6040516020818303038152906040526040517f08c379a0000000000000000000000000000000000000000000000000000000008152600401610a9291906119cc565b60405180910390fd5b5050565b60007f01ffc9a7000000000000000000000000000000000000000000000000000000007bffffffffffffffffffffffffffffffffffffffffffffffffffffffff1916827bffffffffffffffffffffffffffffffffffffffffffffffffffffffff1916149050919050565b610b13828261080f565b610be557600160008084815260200190815260200160002060000160008373ffffffffffffffffffffffffffffffffffffffff1673ffffffffffffffffffffffffffffffffffffffff16815260200190815260200160002060006101000a81548160ff021916908315150217905550610b8a6109fa565b73ffffffffffffffffffffffffffffffffffffffff168173ffffffffffffffffffffffffffffffffffffffff16837f2f8788117e7eff1d82e926ec794901d17c78024a50270940304540a733656f0d60405160405180910390a45b5050565b610bf3828261080f565b15610cc657600080600084815260200190815260200160002060000160008373ffffffffffffffffffffffffffffffffffffffff1673ffffffffffffffffffffffffffffffffffffffff16815260200190815260200160002060006101000a81548160ff021916908315150217905550610c6b6109fa565b73ffffffffffffffffffffffffffffffffffffffff168173ffffffffffffffffffffffffffffffffffffffff16837ff6391f5c32d9c69d2a47ea670b442974b53935d1edc7fd64eb21e047a839171b60405160405180910390a45b5050565b606060006002836002610cdd9190611a1d565b610ce79190611a77565b67ffffffffffffffff811115610d0057610cff61106c565b5b6040519080825280601f01601f191660200182016040528015610d325781602001600182028036833780820191505090505b5090507f300000000000000000000000000000000000000000000000000000000000000081600081518110610d6a57610d69611acd565b5b60200101907effffffffffffffffffffffffffffffffffffffffffffffffffffffffffffff1916908160001a9053507f780000000000000000000000000000000000000000000000000000000000000081600181518110610dce57610dcd611acd565b5b60200101907effffffffffffffffffffffffffffffffffffffffffffffffffffffffffffff1916908160001a90535060006001846002610e0e9190611a1d565b610e189190611a77565b90505b6001811115610eb8577f3031323334353637383961626364656600000000000000000000000000000000600f861660108110610e5a57610e59611acd565b5b1a60f81b828281518110610e7157610e70611acd565b5b60200101907effffffffffffffffffffffffffffffffffffffffffffffffffffffffffffff1916908160001a905350600485901c945080610eb190611afc565b9050610e1b565b5060008414610efc576040517f08c379a0000000000000000000000000000000000000000000000000000000008152600401610ef390611b71565b60405180910390fd5b8091505092915050565b828054610f12906115dd565b90600052602060002090601f016020900481019282610f345760008555610f7b565b82601f10610f4d57805160ff1916838001178555610f7b565b82800160010185558215610f7b579182015b82811115610f7a578251825591602001919060010190610f5f565b5b509050610f889190610f8c565b5090565b5b80821115610fa5576000816000905550600101610f8d565b5090565b6000604051905090565b600080fd5b600080fd5b6000819050919050565b610fd081610fbd565b8114610fdb57600080fd5b50565b600081359050610fed81610fc7565b92915050565b600073ffffffffffffffffffffffffffffffffffffffff82169050919050565b600061101e82610ff3565b9050919050565b61102e81611013565b811461103957600080fd5b50565b60008135905061104b81611025565b92915050565b600080fd5b600080fd5b6000601f19601f8301169050919050565b7f4e487b7100000000000000000000000000000000000000000000000000000000600052604160045260246000fd5b6110a48261105b565b810181811067ffffffffffffffff821117156110c3576110c261106c565b5b80604052505050565b60006110d6610fa9565b90506110e2828261109b565b919050565b600067ffffffffffffffff8211156111025761110161106c565b5b61110b8261105b565b9050602081019050919050565b82818337600083830152505050565b600061113a611135846110e7565b6110cc565b90508281526020810184848401111561115657611155611056565b5b611161848285611118565b509392505050565b600082601f83011261117e5761117d611051565b5b813561118e848260208601611127565b91505092915050565b600080600080608085870312156111b1576111b0610fb3565b5b60006111bf87828801610fde565b94505060206111d087828801610fde565b93505060406111e18782880161103c565b925050606085013567ffffffffffffffff81111561120257611201610fb8565b5b61120e87828801611169565b91505092959194509250565b60007fffffffff0000000000000000000000000000000000000000000000000000000082169050919050565b61124f8161121a565b811461125a57600080fd5b50565b60008135905061126c81611246565b92915050565b60006020828403121561128857611287610fb3565b5b60006112968482850161125d565b91505092915050565b60008115159050919050565b6112b48161129f565b82525050565b60006020820190506112cf60008301846112ab565b92915050565b6112de81610fbd565b82525050565b60006020820190506112f960008301846112d5565b92915050565b6000819050919050565b611312816112ff565b811461131d57600080fd5b50565b60008135905061132f81611309565b92915050565b60006020828403121561134b5761134a610fb3565b5b600061135984828501611320565b91505092915050565b61136b816112ff565b82525050565b60006020820190506113866000830184611362565b92915050565b600081519050919050565b600082825260208201905092915050565b60005b838110156113c65780820151818401526020810190506113ab565b838111156113d5576000848401525b50505050565b60006113e68261138c565b6113f08185611397565b93506114008185602086016113a8565b6114098161105b565b840191505092915050565b6000602082019050818103600083015261142e81846113db565b905092915050565b61143f81611013565b82525050565b600060208201905061145a6000830184611436565b92915050565b6000806040838503121561147757611476610fb3565b5b600061148585828601611320565b92505060206114968582860161103c565b9150509250929050565b6000602082840312156114b6576114b5610fb3565b5b60006114c48482850161103c565b91505092915050565b6000602082840312156114e3576114e2610fb3565b5b600082013567ffffffffffffffff81111561150157611500610fb8565b5b61150d84828501611169565b91505092915050565b60006020828403121561152c5761152b610fb3565b5b600061153a84828501610fde565b91505092915050565b600061154e82610ff3565b9050919050565b61155e81611543565b811461156957600080fd5b50565b60008135905061157b81611555565b92915050565b60006020828403121561159757611596610fb3565b5b60006115a58482850161156c565b91505092915050565b7f4e487b7100000000000000000000000000000000000000000000000000000000600052602260045260246000fd5b600060028204905060018216806115f557607f821691505b602082108103611608576116076115ae565b5b50919050565b600082825260208201905092915050565b7f416363657373436f6e74726f6c3a2063616e206f6e6c792072656e6f756e636560008201527f20726f6c657320666f722073656c660000000000000000000000000000000000602082015250565b600061167b602f8361160e565b91506116868261161f565b604082019050919050565b600060208201905081810360008301526116aa8161166e565b9050919050565b600081905092915050565b50565b60006116cc6000836116b1565b91506116d7826116bc565b600082019050919050565b60006116ed826116bf565b9150819050919050565b7f4574686572207472616e73666572206661696c65642e00000000000000000000600082015250565b600061172d60168361160e565b9150611738826116f7565b602082019050919050565b6000602082019050818103600083015261175c81611720565b9050919050565b60008190508160005260206000209050919050565b60008154611785816115dd565b61178f81866116b1565b945060018216600081146117aa57600181146117bb576117ee565b60ff198316865281860193506117ee565b6117c485611763565b60005b838110156117e6578154818901526001820191506020810190506117c7565b838801955050505b50505092915050565b60006118038284611778565b915081905092915050565b7f5075726368617365204661696c65640000000000000000000000000000000000600082015250565b6000611844600f8361160e565b915061184f8261180e565b602082019050919050565b6000602082019050818103600083015261187381611837565b9050919050565b600081905092915050565b7f416363657373436f6e74726f6c3a206163636f756e7420000000000000000000600082015250565b60006118bb60178361187a565b91506118c682611885565b601782019050919050565b600081519050919050565b60006118e7826118d1565b6118f1818561187a565b93506119018185602086016113a8565b80840191505092915050565b7f206973206d697373696e6720726f6c6520000000000000000000000000000000600082015250565b600061194360118361187a565b915061194e8261190d565b601182019050919050565b6000611964826118ae565b915061197082856118dc565b915061197b82611936565b915061198782846118dc565b91508190509392505050565b600061199e826118d1565b6119a8818561160e565b93506119b88185602086016113a8565b6119c18161105b565b840191505092915050565b600060208201905081810360008301526119e68184611993565b905092915050565b7f4e487b7100000000000000000000000000000000000000000000000000000000600052601160045260246000fd5b6000611a2882610fbd565b9150611a3383610fbd565b9250817fffffffffffffffffffffffffffffffffffffffffffffffffffffffffffffffff0483118215151615611a6c57611a6b6119ee565b5b828202905092915050565b6000611a8282610fbd565b9150611a8d83610fbd565b9250827fffffffffffffffffffffffffffffffffffffffffffffffffffffffffffffffff03821115611ac257611ac16119ee565b5b828201905092915050565b7f4e487b7100000000000000000000000000000000000000000000000000000000600052603260045260246000fd5b6000611b0782610fbd565b915060008203611b1a57611b196119ee565b5b600182039050919050565b7f537472696e67733a20686578206c656e67746820696e73756666696369656e74600082015250565b6000611b5b60208361160e565b9150611b6682611b25565b602082019050919050565b60006020820190508181036000830152611b8a81611b4e565b905091905056fea26469706673582212202059dccbb5e99306ce1d7d810abd33b086cecc543340c552f0aca59dce53188764736f6c634300080d0033a26469706673582212201fba4e29e70ce4004b1367e19acce63c5aa60d5c57fdf41479b778ad0c0b3d0164736f6c634300080d0033",
  "linkReferences": {},
  "deployedLinkReferences": {}
}