{
  "_format": "hh-sol-artifact-1",
  "contractName": "MarketWrapperFactory",
  "sourceName": "contracts/MarketWrapperFactory.sol",
  "abi": [
    {
      "inputs": [],
      "stateMutability": "nonpayable",
      "type": "constructor"
    },
    {
      "anonymous": false,
      "inputs": [
        {
          "indexed": true,
          "internalType": "bytes32",
          "name": "role",
          "type": "bytes32"
        },
        {
          "indexed": true,
          "internalType": "bytes32",
          "name": "previousAdminRole",
          "type": "bytes32"
        },
        {
          "indexed": true,
          "internalType": "bytes32",
          "name": "newAdminRole",
          "type": "bytes32"
        }
      ],
      "name": "RoleAdminChanged",
      "type": "event"
    },
    {
      "anonymous": false,
      "inputs": [
        {
          "indexed": true,
          "internalType": "bytes32",
          "name": "role",
          "type": "bytes32"
        },
        {
          "indexed": true,
          "internalType": "address",
          "name": "account",
          "type": "address"
        },
        {
          "indexed": true,
          "internalType": "address",
          "name": "sender",
          "type": "address"
        }
      ],
      "name": "RoleGranted",
      "type": "event"
    },
    {
      "anonymous": false,
      "inputs": [
        {
          "indexed": true,
          "internalType": "bytes32",
          "name": "role",
          "type": "bytes32"
        },
        {
          "indexed": true,
          "internalType": "address",
          "name": "account",
          "type": "address"
        },
        {
          "indexed": true,
          "internalType": "address",
          "name": "sender",
          "type": "address"
        }
      ],
      "name": "RoleRevoked",
      "type": "event"
    },
    {
      "inputs": [],
      "name": "DEFAULT_ADMIN_ROLE",
      "outputs": [
        {
          "internalType": "bytes32",
          "name": "",
          "type": "bytes32"
        }
      ],
      "stateMutability": "view",
      "type": "function"
    },
    {
      "inputs": [],
      "name": "getLatestMarketWrapper",
      "outputs": [
        {
          "internalType": "address",
          "name": "",
          "type": "address"
        }
      ],
      "stateMutability": "view",
      "type": "function"
    },
    {
      "inputs": [
        {
          "internalType": "bytes32",
          "name": "role",
          "type": "bytes32"
        }
      ],
      "name": "getRoleAdmin",
      "outputs": [
        {
          "internalType": "bytes32",
          "name": "",
          "type": "bytes32"
        }
      ],
      "stateMutability": "view",
      "type": "function"
    },
    {
      "inputs": [
        {
          "internalType": "address",
          "name": "_marketWrapper",
          "type": "address"
        },
        {
          "internalType": "address",
          "name": "_to",
          "type": "address"
        }
      ],
      "name": "giveContractOwnership",
      "outputs": [],
      "stateMutability": "nonpayable",
      "type": "function"
    },
    {
      "inputs": [
        {
          "internalType": "address",
          "name": "to",
          "type": "address"
        }
      ],
      "name": "grantOwnerRole",
      "outputs": [],
      "stateMutability": "nonpayable",
      "type": "function"
    },
    {
      "inputs": [
        {
          "internalType": "bytes32",
          "name": "role",
          "type": "bytes32"
        },
        {
          "internalType": "address",
          "name": "account",
          "type": "address"
        }
      ],
      "name": "grantRole",
      "outputs": [],
      "stateMutability": "nonpayable",
      "type": "function"
    },
    {
      "inputs": [
        {
          "internalType": "bytes32",
          "name": "role",
          "type": "bytes32"
        },
        {
          "internalType": "address",
          "name": "account",
          "type": "address"
        }
      ],
      "name": "hasRole",
      "outputs": [
        {
          "internalType": "bool",
          "name": "",
          "type": "bool"
        }
      ],
      "stateMutability": "view",
      "type": "function"
    },
    {
      "inputs": [
        {
          "internalType": "uint256",
          "name": "_buyNowPrice",
          "type": "uint256"
        },
        {
          "internalType": "address",
          "name": "_marketPlace",
          "type": "address"
        },
        {
          "internalType": "bytes",
          "name": "_transactionData",
          "type": "bytes"
        },
        {
          "internalType": "uint256",
          "name": "gasEstimate",
          "type": "uint256"
        }
      ],
      "name": "newMarketWrapper",
      "outputs": [
        {
          "internalType": "address",
          "name": "",
          "type": "address"
        }
      ],
      "stateMutability": "nonpayable",
      "type": "function"
    },
    {
      "inputs": [
        {
          "internalType": "bytes32",
          "name": "role",
          "type": "bytes32"
        },
        {
          "internalType": "address",
          "name": "account",
          "type": "address"
        }
      ],
      "name": "renounceRole",
      "outputs": [],
      "stateMutability": "nonpayable",
      "type": "function"
    },
    {
      "inputs": [
        {
          "internalType": "bytes32",
          "name": "role",
          "type": "bytes32"
        },
        {
          "internalType": "address",
          "name": "account",
          "type": "address"
        }
      ],
      "name": "revokeRole",
      "outputs": [],
      "stateMutability": "nonpayable",
      "type": "function"
    },
    {
      "inputs": [
        {
          "internalType": "bytes4",
          "name": "interfaceId",
          "type": "bytes4"
        }
      ],
      "name": "supportsInterface",
      "outputs": [
        {
          "internalType": "bool",
          "name": "",
          "type": "bool"
        }
      ],
      "stateMutability": "view",
      "type": "function"
    }
  ],
  "bytecode": "0x6080604052600060025534801561001557600080fd5b506100296000801b3361002e60201b60201c565b61018c565b61003e828261011a60201b60201c565b61011657600160008084815260200190815260200160002060000160008373ffffffffffffffffffffffffffffffffffffffff1673ffffffffffffffffffffffffffffffffffffffff16815260200190815260200160002060006101000a81548160ff0219169083151502179055506100bb61018460201b60201c565b73ffffffffffffffffffffffffffffffffffffffff168173ffffffffffffffffffffffffffffffffffffffff16837f2f8788117e7eff1d82e926ec794901d17c78024a50270940304540a733656f0d60405160405180910390a45b5050565b600080600084815260200190815260200160002060000160008373ffffffffffffffffffffffffffffffffffffffff1673ffffffffffffffffffffffffffffffffffffffff16815260200190815260200160002060009054906101000a900460ff16905092915050565b600033905090565b613e15806200019c6000396000f3fe60806040523480156200001157600080fd5b5060043610620000b85760003560e01c80635556f1aa116200007b5780635556f1aa1462000189578063613ae8cf14620001a957806391d1485414620001df578063a217fddf1462000215578063a6f660351462000237578063d547741f146200025957620000b8565b806301ffc9a714620000bd578063248a9ca314620000f35780632f2ff15d146200012957806336568abe1462000149578063397a8bab1462000169575b600080fd5b620000db6004803603810190620000d5919062000c18565b62000279565b604051620000ea919062000c67565b60405180910390f35b6200011160048036038101906200010b919062000cbf565b620002f6565b60405162000120919062000d02565b60405180910390f35b62000147600480360381019062000141919062000d84565b62000315565b005b62000167600480360381019062000161919062000d84565b6200033c565b005b62000187600480360381019062000181919062000dcb565b620003c6565b005b620001a76004803603810190620001a1919062000dfd565b620003e8565b005b620001c76004803603810190620001c1919062000fe1565b62000471565b604051620001d6919062001083565b60405180910390f35b620001fd6004803603810190620001f7919062000d84565b62000551565b6040516200020c919062000c67565b60405180910390f35b6200021f620005bb565b6040516200022e919062000d02565b60405180910390f35b62000241620005c2565b60405162000250919062001083565b60405180910390f35b62000277600480360381019062000271919062000d84565b6200061a565b005b60007f7965db0b000000000000000000000000000000000000000000000000000000007bffffffffffffffffffffffffffffffffffffffffffffffffffffffff1916827bffffffffffffffffffffffffffffffffffffffffffffffffffffffff19161480620002ef5750620002ee8262000641565b5b9050919050565b6000806000838152602001908152602001600020600101549050919050565b6200032082620002f6565b6200032b81620006ab565b620003378383620006c3565b505050565b62000346620007a8565b73ffffffffffffffffffffffffffffffffffffffff168173ffffffffffffffffffffffffffffffffffffffff1614620003b6576040517f08c379a0000000000000000000000000000000000000000000000000000000008152600401620003ad9062001127565b60405180910390fd5b620003c28282620007b0565b5050565b6000801b620003d581620006ab565b620003e46000801b83620006c3565b5050565b6000801b620003f781620006ab565b60008390508073ffffffffffffffffffffffffffffffffffffffff1663397a8bab846040518263ffffffff1660e01b815260040162000437919062001083565b600060405180830381600087803b1580156200045257600080fd5b505af115801562000467573d6000803e3d6000fd5b5050505050505050565b60008060001b6200048281620006ab565b600086868686604051620004969062000b99565b620004a59493929190620011ed565b604051809103906000f080158015620004c2573d6000803e3d6000fd5b5090506001819080600181540180825580915050600190039060005260206000200160009091909190916101000a81548173ffffffffffffffffffffffffffffffffffffffff021916908373ffffffffffffffffffffffffffffffffffffffff1602179055506001600260008282546200053d919062001270565b925050819055508092505050949350505050565b600080600084815260200190815260200160002060000160008373ffffffffffffffffffffffffffffffffffffffff1673ffffffffffffffffffffffffffffffffffffffff16815260200190815260200160002060009054906101000a900460ff16905092915050565b6000801b81565b6000600180600254620005d69190620012cd565b81548110620005ea57620005e962001308565b5b9060005260206000200160009054906101000a900473ffffffffffffffffffffffffffffffffffffffff16905090565b6200062582620002f6565b6200063081620006ab565b6200063c8383620007b0565b505050565b60007f01ffc9a7000000000000000000000000000000000000000000000000000000007bffffffffffffffffffffffffffffffffffffffffffffffffffffffff1916827bffffffffffffffffffffffffffffffffffffffffffffffffffffffff1916149050919050565b620006c081620006ba620007a8565b62000896565b50565b620006cf828262000551565b620007a457600160008084815260200190815260200160002060000160008373ffffffffffffffffffffffffffffffffffffffff1673ffffffffffffffffffffffffffffffffffffffff16815260200190815260200160002060006101000a81548160ff02191690831515021790555062000749620007a8565b73ffffffffffffffffffffffffffffffffffffffff168173ffffffffffffffffffffffffffffffffffffffff16837f2f8788117e7eff1d82e926ec794901d17c78024a50270940304540a733656f0d60405160405180910390a45b5050565b600033905090565b620007bc828262000551565b156200089257600080600084815260200190815260200160002060000160008373ffffffffffffffffffffffffffffffffffffffff1673ffffffffffffffffffffffffffffffffffffffff16815260200190815260200160002060006101000a81548160ff02191690831515021790555062000837620007a8565b73ffffffffffffffffffffffffffffffffffffffff168173ffffffffffffffffffffffffffffffffffffffff16837ff6391f5c32d9c69d2a47ea670b442974b53935d1edc7fd64eb21e047a839171b60405160405180910390a45b5050565b620008a2828262000551565b6200093a57620008ca8173ffffffffffffffffffffffffffffffffffffffff1660146200093e565b620008da8360001c60206200093e565b604051602001620008ed92919062001424565b6040516020818303038152906040526040517f08c379a0000000000000000000000000000000000000000000000000000000008152600401620009319190620014a7565b60405180910390fd5b5050565b606060006002836002620009539190620014cb565b6200095f919062001270565b67ffffffffffffffff8111156200097b576200097a62000e9a565b5b6040519080825280601f01601f191660200182016040528015620009ae5781602001600182028036833780820191505090505b5090507f300000000000000000000000000000000000000000000000000000000000000081600081518110620009e957620009e862001308565b5b60200101907effffffffffffffffffffffffffffffffffffffffffffffffffffffffffffff1916908160001a9053507f78000000000000000000000000000000000000000000000000000000000000008160018151811062000a505762000a4f62001308565b5b60200101907effffffffffffffffffffffffffffffffffffffffffffffffffffffffffffff1916908160001a9053506000600184600262000a929190620014cb565b62000a9e919062001270565b90505b600181111562000b48577f3031323334353637383961626364656600000000000000000000000000000000600f86166010811062000ae45762000ae362001308565b5b1a60f81b82828151811062000afe5762000afd62001308565b5b60200101907effffffffffffffffffffffffffffffffffffffffffffffffffffffffffffff1916908160001a905350600485901c94508062000b40906200152c565b905062000aa1565b506000841462000b8f576040517f08c379a000000000000000000000000000000000000000000000000000000000815260040162000b8690620015ab565b60405180910390fd5b8091505092915050565b61281280620015ce83390190565b6000604051905090565b600080fd5b600080fd5b60007fffffffff0000000000000000000000000000000000000000000000000000000082169050919050565b62000bf28162000bbb565b811462000bfe57600080fd5b50565b60008135905062000c128162000be7565b92915050565b60006020828403121562000c315762000c3062000bb1565b5b600062000c418482850162000c01565b91505092915050565b60008115159050919050565b62000c618162000c4a565b82525050565b600060208201905062000c7e600083018462000c56565b92915050565b6000819050919050565b62000c998162000c84565b811462000ca557600080fd5b50565b60008135905062000cb98162000c8e565b92915050565b60006020828403121562000cd85762000cd762000bb1565b5b600062000ce88482850162000ca8565b91505092915050565b62000cfc8162000c84565b82525050565b600060208201905062000d19600083018462000cf1565b92915050565b600073ffffffffffffffffffffffffffffffffffffffff82169050919050565b600062000d4c8262000d1f565b9050919050565b62000d5e8162000d3f565b811462000d6a57600080fd5b50565b60008135905062000d7e8162000d53565b92915050565b6000806040838503121562000d9e5762000d9d62000bb1565b5b600062000dae8582860162000ca8565b925050602062000dc18582860162000d6d565b9150509250929050565b60006020828403121562000de45762000de362000bb1565b5b600062000df48482850162000d6d565b91505092915050565b6000806040838503121562000e175762000e1662000bb1565b5b600062000e278582860162000d6d565b925050602062000e3a8582860162000d6d565b9150509250929050565b6000819050919050565b62000e598162000e44565b811462000e6557600080fd5b50565b60008135905062000e798162000e4e565b92915050565b600080fd5b600080fd5b6000601f19601f8301169050919050565b7f4e487b7100000000000000000000000000000000000000000000000000000000600052604160045260246000fd5b62000ed48262000e89565b810181811067ffffffffffffffff8211171562000ef65762000ef562000e9a565b5b80604052505050565b600062000f0b62000ba7565b905062000f19828262000ec9565b919050565b600067ffffffffffffffff82111562000f3c5762000f3b62000e9a565b5b62000f478262000e89565b9050602081019050919050565b82818337600083830152505050565b600062000f7a62000f748462000f1e565b62000eff565b90508281526020810184848401111562000f995762000f9862000e84565b5b62000fa684828562000f54565b509392505050565b600082601f83011262000fc65762000fc562000e7f565b5b813562000fd884826020860162000f63565b91505092915050565b6000806000806080858703121562000ffe5762000ffd62000bb1565b5b60006200100e8782880162000e68565b9450506020620010218782880162000d6d565b935050604085013567ffffffffffffffff81111562001045576200104462000bb6565b5b620010538782880162000fae565b9250506060620010668782880162000e68565b91505092959194509250565b6200107d8162000d3f565b82525050565b60006020820190506200109a600083018462001072565b92915050565b600082825260208201905092915050565b7f416363657373436f6e74726f6c3a2063616e206f6e6c792072656e6f756e636560008201527f20726f6c657320666f722073656c660000000000000000000000000000000000602082015250565b60006200110f602f83620010a0565b91506200111c82620010b1565b604082019050919050565b60006020820190508181036000830152620011428162001100565b9050919050565b620011548162000e44565b82525050565b600081519050919050565b600082825260208201905092915050565b60005b838110156200119657808201518184015260208101905062001179565b83811115620011a6576000848401525b50505050565b6000620011b9826200115a565b620011c5818562001165565b9350620011d781856020860162001176565b620011e28162000e89565b840191505092915050565b600060808201905062001204600083018762001149565b62001213602083018662001072565b8181036040830152620012278185620011ac565b905062001238606083018462001149565b95945050505050565b7f4e487b7100000000000000000000000000000000000000000000000000000000600052601160045260246000fd5b60006200127d8262000e44565b91506200128a8362000e44565b9250827fffffffffffffffffffffffffffffffffffffffffffffffffffffffffffffffff03821115620012c257620012c162001241565b5b828201905092915050565b6000620012da8262000e44565b9150620012e78362000e44565b925082821015620012fd57620012fc62001241565b5b828203905092915050565b7f4e487b7100000000000000000000000000000000000000000000000000000000600052603260045260246000fd5b600081905092915050565b7f416363657373436f6e74726f6c3a206163636f756e7420000000000000000000600082015250565b60006200137a60178362001337565b9150620013878262001342565b601782019050919050565b600081519050919050565b6000620013aa8262001392565b620013b6818562001337565b9350620013c881856020860162001176565b80840191505092915050565b7f206973206d697373696e6720726f6c6520000000000000000000000000000000600082015250565b60006200140c60118362001337565b91506200141982620013d4565b601182019050919050565b600062001431826200136b565b91506200143f82856200139d565b91506200144c82620013fd565b91506200145a82846200139d565b91508190509392505050565b6000620014738262001392565b6200147f8185620010a0565b93506200149181856020860162001176565b6200149c8162000e89565b840191505092915050565b60006020820190508181036000830152620014c3818462001466565b905092915050565b6000620014d88262000e44565b9150620014e58362000e44565b9250817fffffffffffffffffffffffffffffffffffffffffffffffffffffffffffffffff048311821515161562001521576200152062001241565b5b828202905092915050565b6000620015398262000e44565b9150600082141562001550576200154f62001241565b5b600182039050919050565b7f537472696e67733a20686578206c656e67746820696e73756666696369656e74600082015250565b600062001593602083620010a0565b9150620015a0826200155b565b602082019050919050565b60006020820190508181036000830152620015c68162001584565b905091905056fe60806040523480156200001157600080fd5b50604051620028123803806200281283398181016040528101906200003791906200050e565b6200004c6000801b33620000be60201b60201c565b8360018190555082600260006101000a81548173ffffffffffffffffffffffffffffffffffffffff021916908373ffffffffffffffffffffffffffffffffffffffff1602179055508160039080519060200190620000ac92919062000221565b50806004819055505050505062000604565b620000d08282620001af60201b60201c565b620001ab57600160008084815260200190815260200160002060000160008373ffffffffffffffffffffffffffffffffffffffff1673ffffffffffffffffffffffffffffffffffffffff16815260200190815260200160002060006101000a81548160ff021916908315150217905550620001506200021960201b60201c565b73ffffffffffffffffffffffffffffffffffffffff168173ffffffffffffffffffffffffffffffffffffffff16837f2f8788117e7eff1d82e926ec794901d17c78024a50270940304540a733656f0d60405160405180910390a45b5050565b600080600084815260200190815260200160002060000160008373ffffffffffffffffffffffffffffffffffffffff1673ffffffffffffffffffffffffffffffffffffffff16815260200190815260200160002060009054906101000a900460ff16905092915050565b600033905090565b8280546200022f90620005ce565b90600052602060002090601f0160209004810192826200025357600085556200029f565b82601f106200026e57805160ff19168380011785556200029f565b828001600101855582156200029f579182015b828111156200029e57825182559160200191906001019062000281565b5b509050620002ae9190620002b2565b5090565b5b80821115620002cd576000816000905550600101620002b3565b5090565b6000604051905090565b600080fd5b600080fd5b6000819050919050565b620002fa81620002e5565b81146200030657600080fd5b50565b6000815190506200031a81620002ef565b92915050565b600073ffffffffffffffffffffffffffffffffffffffff82169050919050565b60006200034d8262000320565b9050919050565b6200035f8162000340565b81146200036b57600080fd5b50565b6000815190506200037f8162000354565b92915050565b600080fd5b600080fd5b6000601f19601f8301169050919050565b7f4e487b7100000000000000000000000000000000000000000000000000000000600052604160045260246000fd5b620003da826200038f565b810181811067ffffffffffffffff82111715620003fc57620003fb620003a0565b5b80604052505050565b600062000411620002d1565b90506200041f8282620003cf565b919050565b600067ffffffffffffffff821115620004425762000441620003a0565b5b6200044d826200038f565b9050602081019050919050565b60005b838110156200047a5780820151818401526020810190506200045d565b838111156200048a576000848401525b50505050565b6000620004a7620004a18462000424565b62000405565b905082815260208101848484011115620004c657620004c56200038a565b5b620004d38482856200045a565b509392505050565b600082601f830112620004f357620004f262000385565b5b81516200050584826020860162000490565b91505092915050565b600080600080608085870312156200052b576200052a620002db565b5b60006200053b8782880162000309565b94505060206200054e878288016200036e565b935050604085015167ffffffffffffffff811115620005725762000571620002e0565b5b6200058087828801620004db565b9250506060620005938782880162000309565b91505092959194509250565b7f4e487b7100000000000000000000000000000000000000000000000000000000600052602260045260246000fd5b60006002820490506001821680620005e757607f821691505b60208210811415620005fe57620005fd6200059f565b5b50919050565b6121fe80620006146000396000f3fe60806040526004361061010d5760003560e01c8063539a2c6d116100955780639c3962f0116100645780639c3962f014610362578063a217fddf14610380578063a5587088146103ab578063d547741f146103d6578063dd0b7ffe146103ff57610114565b8063539a2c6d146102b55780635ecbdce9146102de5780636e353a1d1461030957806391d148541461032557610114565b80632e25d2a6116100dc5780632e25d2a6146101e65780632f2ff15d1461021157806330568a8d1461023a57806336568abe14610263578063397a8bab1461028c57610114565b806301ffc9a714610116578063136449db14610153578063248a9ca31461017e578063278bd065146101bb57610114565b3661011457005b005b34801561012257600080fd5b5061013d60048036038101906101389190611022565b610428565b60405161014a919061106a565b60405180910390f35b34801561015f57600080fd5b506101686104a2565b604051610175919061109e565b60405180910390f35b34801561018a57600080fd5b506101a560048036038101906101a091906110ef565b6104a8565b6040516101b2919061112b565b60405180910390f35b3480156101c757600080fd5b506101d06104c7565b6040516101dd91906111df565b60405180910390f35b3480156101f257600080fd5b506101fb610555565b6040516102089190611242565b60405180910390f35b34801561021d57600080fd5b5061023860048036038101906102339190611289565b61057b565b005b34801561024657600080fd5b50610261600480360381019061025c91906112c9565b61059c565b005b34801561026f57600080fd5b5061028a60048036038101906102859190611289565b6105ee565b005b34801561029857600080fd5b506102b360048036038101906102ae91906112c9565b610671565b005b3480156102c157600080fd5b506102dc60048036038101906102d791906117ba565b61068f565b005b3480156102ea57600080fd5b506102f3610744565b604051610300919061109e565b60405180910390f35b610323600480360381019061031e9190611803565b61074a565b005b34801561033157600080fd5b5061034c60048036038101906103479190611289565b610808565b604051610359919061106a565b60405180910390f35b61036a610872565b604051610377919061106a565b60405180910390f35b34801561038c57600080fd5b506103956109a9565b6040516103a2919061112b565b60405180910390f35b3480156103b757600080fd5b506103c06109b0565b6040516103cd919061109e565b60405180910390f35b3480156103e257600080fd5b506103fd60048036038101906103f89190611289565b6109ba565b005b34801561040b57600080fd5b5061042660048036038101906104219190611830565b6109db565b005b60007f7965db0b000000000000000000000000000000000000000000000000000000007bffffffffffffffffffffffffffffffffffffffffffffffffffffffff1916827bffffffffffffffffffffffffffffffffffffffffffffffffffffffff1916148061049b575061049a826109f3565b5b9050919050565b60045481565b6000806000838152602001908152602001600020600101549050919050565b600380546104d49061188c565b80601f01602080910402602001604051908101604052809291908181526020018280546105009061188c565b801561054d5780601f106105225761010080835404028352916020019161054d565b820191906000526020600020905b81548152906001019060200180831161053057829003601f168201915b505050505081565b600260009054906101000a900473ffffffffffffffffffffffffffffffffffffffff1681565b610584826104a8565b61058d81610a5d565b6105978383610a71565b505050565b6000801b6105a981610a5d565b81600260006101000a81548173ffffffffffffffffffffffffffffffffffffffff021916908373ffffffffffffffffffffffffffffffffffffffff1602179055505050565b6105f6610b51565b73ffffffffffffffffffffffffffffffffffffffff168173ffffffffffffffffffffffffffffffffffffffff1614610663576040517f08c379a000000000000000000000000000000000000000000000000000000000815260040161065a90611941565b60405180910390fd5b61066d8282610b59565b5050565b6000801b61067e81610a5d565b61068b6000801b83610a71565b5050565b6000801b61069c81610a5d565b816040516024016106ad9190611cc5565b6040516020818303038152906040527fc105f051000000000000000000000000000000000000000000000000000000007bffffffffffffffffffffffffffffffffffffffffffffffffffffffff19166020820180517bffffffffffffffffffffffffffffffffffffffffffffffffffffffff83818316178352505050506003908051906020019061073f929190610f13565b505050565b60015481565b6000801b61075781610a5d565b60008273ffffffffffffffffffffffffffffffffffffffff164760405161077d90611d18565b60006040518083038185875af1925050503d80600081146107ba576040519150601f19603f3d011682016040523d82523d6000602084013e6107bf565b606091505b5050905080610803576040517f08c379a00000000000000000000000000000000000000000000000000000000081526004016107fa90611d79565b60405180910390fd5b505050565b600080600084815260200190815260200160002060000160008373ffffffffffffffffffffffffffffffffffffffff1673ffffffffffffffffffffffffffffffffffffffff16815260200190815260200160002060009054906101000a900460ff16905092915050565b60008060001b61088181610a5d565b60015447101561089057600080fd5b6000600260009054906101000a900473ffffffffffffffffffffffffffffffffffffffff1673ffffffffffffffffffffffffffffffffffffffff166001546004549060036040516108e19190611e2d565b600060405180830381858888f193505050503d806000811461091f576040519150601f19603f3d011682016040523d82523d6000602084013e610924565b606091505b5050905080610968576040517f08c379a000000000000000000000000000000000000000000000000000000000815260040161095f90611e90565b60405180910390fd5b7f83e31f5e5651d64b527802681a291e708d9fe310288785b1b816aa293d9b8fc66001604051610998919061106a565b60405180910390a160019250505090565b6000801b81565b6000600154905090565b6109c3826104a8565b6109cc81610a5d565b6109d68383610b59565b505050565b6000801b6109e881610a5d565b816001819055505050565b60007f01ffc9a7000000000000000000000000000000000000000000000000000000007bffffffffffffffffffffffffffffffffffffffffffffffffffffffff1916827bffffffffffffffffffffffffffffffffffffffffffffffffffffffff1916149050919050565b610a6e81610a69610b51565b610c3a565b50565b610a7b8282610808565b610b4d57600160008084815260200190815260200160002060000160008373ffffffffffffffffffffffffffffffffffffffff1673ffffffffffffffffffffffffffffffffffffffff16815260200190815260200160002060006101000a81548160ff021916908315150217905550610af2610b51565b73ffffffffffffffffffffffffffffffffffffffff168173ffffffffffffffffffffffffffffffffffffffff16837f2f8788117e7eff1d82e926ec794901d17c78024a50270940304540a733656f0d60405160405180910390a45b5050565b600033905090565b610b638282610808565b15610c3657600080600084815260200190815260200160002060000160008373ffffffffffffffffffffffffffffffffffffffff1673ffffffffffffffffffffffffffffffffffffffff16815260200190815260200160002060006101000a81548160ff021916908315150217905550610bdb610b51565b73ffffffffffffffffffffffffffffffffffffffff168173ffffffffffffffffffffffffffffffffffffffff16837ff6391f5c32d9c69d2a47ea670b442974b53935d1edc7fd64eb21e047a839171b60405160405180910390a45b5050565b610c448282610808565b610cd357610c698173ffffffffffffffffffffffffffffffffffffffff166014610cd7565b610c778360001c6020610cd7565b604051602001610c88929190611f8f565b6040516020818303038152906040526040517f08c379a0000000000000000000000000000000000000000000000000000000008152600401610cca9190612002565b60405180910390fd5b5050565b606060006002836002610cea9190612053565b610cf491906120ad565b67ffffffffffffffff811115610d0d57610d0c6112fb565b5b6040519080825280601f01601f191660200182016040528015610d3f5781602001600182028036833780820191505090505b5090507f300000000000000000000000000000000000000000000000000000000000000081600081518110610d7757610d76612103565b5b60200101907effffffffffffffffffffffffffffffffffffffffffffffffffffffffffffff1916908160001a9053507f780000000000000000000000000000000000000000000000000000000000000081600181518110610ddb57610dda612103565b5b60200101907effffffffffffffffffffffffffffffffffffffffffffffffffffffffffffff1916908160001a90535060006001846002610e1b9190612053565b610e2591906120ad565b90505b6001811115610ec5577f3031323334353637383961626364656600000000000000000000000000000000600f861660108110610e6757610e66612103565b5b1a60f81b828281518110610e7e57610e7d612103565b5b60200101907effffffffffffffffffffffffffffffffffffffffffffffffffffffffffffff1916908160001a905350600485901c945080610ebe90612132565b9050610e28565b5060008414610f09576040517f08c379a0000000000000000000000000000000000000000000000000000000008152600401610f00906121a8565b60405180910390fd5b8091505092915050565b828054610f1f9061188c565b90600052602060002090601f016020900481019282610f415760008555610f88565b82601f10610f5a57805160ff1916838001178555610f88565b82800160010185558215610f88579182015b82811115610f87578251825591602001919060010190610f6c565b5b509050610f959190610f99565b5090565b5b80821115610fb2576000816000905550600101610f9a565b5090565b6000604051905090565b600080fd5b600080fd5b60007fffffffff0000000000000000000000000000000000000000000000000000000082169050919050565b610fff81610fca565b811461100a57600080fd5b50565b60008135905061101c81610ff6565b92915050565b60006020828403121561103857611037610fc0565b5b60006110468482850161100d565b91505092915050565b60008115159050919050565b6110648161104f565b82525050565b600060208201905061107f600083018461105b565b92915050565b6000819050919050565b61109881611085565b82525050565b60006020820190506110b3600083018461108f565b92915050565b6000819050919050565b6110cc816110b9565b81146110d757600080fd5b50565b6000813590506110e9816110c3565b92915050565b60006020828403121561110557611104610fc0565b5b6000611113848285016110da565b91505092915050565b611125816110b9565b82525050565b6000602082019050611140600083018461111c565b92915050565b600081519050919050565b600082825260208201905092915050565b60005b83811015611180578082015181840152602081019050611165565b8381111561118f576000848401525b50505050565b6000601f19601f8301169050919050565b60006111b182611146565b6111bb8185611151565b93506111cb818560208601611162565b6111d481611195565b840191505092915050565b600060208201905081810360008301526111f981846111a6565b905092915050565b600073ffffffffffffffffffffffffffffffffffffffff82169050919050565b600061122c82611201565b9050919050565b61123c81611221565b82525050565b60006020820190506112576000830184611233565b92915050565b61126681611221565b811461127157600080fd5b50565b6000813590506112838161125d565b92915050565b600080604083850312156112a05761129f610fc0565b5b60006112ae858286016110da565b92505060206112bf85828601611274565b9150509250929050565b6000602082840312156112df576112de610fc0565b5b60006112ed84828501611274565b91505092915050565b600080fd5b7f4e487b7100000000000000000000000000000000000000000000000000000000600052604160045260246000fd5b61133382611195565b810181811067ffffffffffffffff82111715611352576113516112fb565b5b80604052505050565b6000611365610fb6565b9050611371828261132a565b919050565b600080fd5b61138481611085565b811461138f57600080fd5b50565b6000813590506113a18161137b565b92915050565b60006113b282611201565b9050919050565b6113c2816113a7565b81146113cd57600080fd5b50565b6000813590506113df816113b9565b92915050565b601881106113f257600080fd5b50565b600081359050611404816113e5565b92915050565b600080fd5b600067ffffffffffffffff82111561142a576114296112fb565b5b602082029050602081019050919050565b600080fd5b600060408284031215611456576114556112f6565b5b611460604061135b565b9050600061147084828501611392565b6000830152506020611484848285016113d0565b60208301525092915050565b60006114a361149e8461140f565b61135b565b905080838252602082019050604084028301858111156114c6576114c561143b565b5b835b818110156114ef57806114db8882611440565b8452602084019350506040810190506114c8565b5050509392505050565b600082601f83011261150e5761150d61140a565b5b813561151e848260208601611490565b91505092915050565b600080fd5b600067ffffffffffffffff821115611547576115466112fb565b5b61155082611195565b9050602081019050919050565b82818337600083830152505050565b600061157f61157a8461152c565b61135b565b90508281526020810184848401111561159b5761159a611527565b5b6115a684828561155d565b509392505050565b600082601f8301126115c3576115c261140a565b5b81356115d384826020860161156c565b91505092915050565b600061024082840312156115f3576115f26112f6565b5b6115fe61024061135b565b9050600061160e84828501611274565b600083015250602061162284828501611392565b602083015250604061163684828501611392565b604083015250606061164a848285016113d0565b606083015250608061165e84828501611274565b60808301525060a061167284828501611274565b60a08301525060c061168684828501611392565b60c08301525060e061169a84828501611392565b60e0830152506101006116af848285016113f5565b610100830152506101206116c584828501611392565b610120830152506101406116db84828501611392565b610140830152506101606116f1848285016110da565b6101608301525061018061170784828501611392565b610180830152506101a061171d848285016110da565b6101a0830152506101c0611733848285016110da565b6101c0830152506101e061174984828501611392565b6101e08301525061020082013567ffffffffffffffff81111561176f5761176e611376565b5b61177b848285016114f9565b6102008301525061022082013567ffffffffffffffff8111156117a1576117a0611376565b5b6117ad848285016115ae565b6102208301525092915050565b6000602082840312156117d0576117cf610fc0565b5b600082013567ffffffffffffffff8111156117ee576117ed610fc5565b5b6117fa848285016115dc565b91505092915050565b60006020828403121561181957611818610fc0565b5b6000611827848285016113d0565b91505092915050565b60006020828403121561184657611845610fc0565b5b600061185484828501611392565b91505092915050565b7f4e487b7100000000000000000000000000000000000000000000000000000000600052602260045260246000fd5b600060028204905060018216806118a457607f821691505b602082108114156118b8576118b761185d565b5b50919050565b600082825260208201905092915050565b7f416363657373436f6e74726f6c3a2063616e206f6e6c792072656e6f756e636560008201527f20726f6c657320666f722073656c660000000000000000000000000000000000602082015250565b600061192b602f836118be565b9150611936826118cf565b604082019050919050565b6000602082019050818103600083015261195a8161191e565b9050919050565b61196a81611221565b82525050565b61197981611085565b82525050565b611988816113a7565b82525050565b7f4e487b7100000000000000000000000000000000000000000000000000000000600052602160045260246000fd5b601881106119ce576119cd61198e565b5b50565b60008190506119df826119bd565b919050565b60006119ef826119d1565b9050919050565b6119ff816119e4565b82525050565b611a0e816110b9565b82525050565b600081519050919050565b600082825260208201905092915050565b6000819050602082019050919050565b604082016000820151611a566000850182611970565b506020820151611a69602085018261197f565b50505050565b6000611a7b8383611a40565b60408301905092915050565b6000602082019050919050565b6000611a9f82611a14565b611aa98185611a1f565b9350611ab483611a30565b8060005b83811015611ae5578151611acc8882611a6f565b9750611ad783611a87565b925050600181019050611ab8565b5085935050505092915050565b600082825260208201905092915050565b6000611b0e82611146565b611b188185611af2565b9350611b28818560208601611162565b611b3181611195565b840191505092915050565b600061024083016000830151611b556000860182611961565b506020830151611b686020860182611970565b506040830151611b7b6040860182611970565b506060830151611b8e606086018261197f565b506080830151611ba16080860182611961565b5060a0830151611bb460a0860182611961565b5060c0830151611bc760c0860182611970565b5060e0830151611bda60e0860182611970565b50610100830151611bef6101008601826119f6565b50610120830151611c04610120860182611970565b50610140830151611c19610140860182611970565b50610160830151611c2e610160860182611a05565b50610180830151611c43610180860182611970565b506101a0830151611c586101a0860182611a05565b506101c0830151611c6d6101c0860182611a05565b506101e0830151611c826101e0860182611970565b50610200830151848203610200860152611c9c8282611a94565b915050610220830151848203610220860152611cb88282611b03565b9150508091505092915050565b60006020820190508181036000830152611cdf8184611b3c565b905092915050565b600081905092915050565b50565b6000611d02600083611ce7565b9150611d0d82611cf2565b600082019050919050565b6000611d2382611cf5565b9150819050919050565b7f4574686572207472616e73666572206661696c65642e00000000000000000000600082015250565b6000611d636016836118be565b9150611d6e82611d2d565b602082019050919050565b60006020820190508181036000830152611d9281611d56565b9050919050565b60008190508160005260206000209050919050565b60008154611dbb8161188c565b611dc58186611ce7565b94506001821660008114611de05760018114611df157611e24565b60ff19831686528186019350611e24565b611dfa85611d99565b60005b83811015611e1c57815481890152600182019150602081019050611dfd565b838801955050505b50505092915050565b6000611e398284611dae565b915081905092915050565b7f5075726368617365204661696c65640000000000000000000000000000000000600082015250565b6000611e7a600f836118be565b9150611e8582611e44565b602082019050919050565b60006020820190508181036000830152611ea981611e6d565b9050919050565b600081905092915050565b7f416363657373436f6e74726f6c3a206163636f756e7420000000000000000000600082015250565b6000611ef1601783611eb0565b9150611efc82611ebb565b601782019050919050565b600081519050919050565b6000611f1d82611f07565b611f278185611eb0565b9350611f37818560208601611162565b80840191505092915050565b7f206973206d697373696e6720726f6c6520000000000000000000000000000000600082015250565b6000611f79601183611eb0565b9150611f8482611f43565b601182019050919050565b6000611f9a82611ee4565b9150611fa68285611f12565b9150611fb182611f6c565b9150611fbd8284611f12565b91508190509392505050565b6000611fd482611f07565b611fde81856118be565b9350611fee818560208601611162565b611ff781611195565b840191505092915050565b6000602082019050818103600083015261201c8184611fc9565b905092915050565b7f4e487b7100000000000000000000000000000000000000000000000000000000600052601160045260246000fd5b600061205e82611085565b915061206983611085565b9250817fffffffffffffffffffffffffffffffffffffffffffffffffffffffffffffffff04831182151516156120a2576120a1612024565b5b828202905092915050565b60006120b882611085565b91506120c383611085565b9250827fffffffffffffffffffffffffffffffffffffffffffffffffffffffffffffffff038211156120f8576120f7612024565b5b828201905092915050565b7f4e487b7100000000000000000000000000000000000000000000000000000000600052603260045260246000fd5b600061213d82611085565b9150600082141561215157612150612024565b5b600182039050919050565b7f537472696e67733a20686578206c656e67746820696e73756666696369656e74600082015250565b60006121926020836118be565b915061219d8261215c565b602082019050919050565b600060208201905081810360008301526121c181612185565b905091905056fea2646970667358221220caf6b11ecd27b6548a12fd24af76e9ac5133643933f8a32965871df33d2bb8b764736f6c63430008090033a264697066735822122044111128d68c7627793a1469767aea43466dacdae71de95a5ce2cee97e6aba6e64736f6c63430008090033",
  "linkReferences": {},
  "deployedLinkReferences": {}
}