{
  "_format": "hh-sol-artifact-1",
  "contractName": "MarketWrapperFactory",
  "sourceName": "contracts/MarketWrapperFactory.sol",
  "abi": [
    {
      "inputs": [],
      "stateMutability": "nonpayable",
      "type": "constructor"
    },
    {
      "anonymous": false,
      "inputs": [
        {
          "indexed": true,
          "internalType": "bytes32",
          "name": "role",
          "type": "bytes32"
        },
        {
          "indexed": true,
          "internalType": "bytes32",
          "name": "previousAdminRole",
          "type": "bytes32"
        },
        {
          "indexed": true,
          "internalType": "bytes32",
          "name": "newAdminRole",
          "type": "bytes32"
        }
      ],
      "name": "RoleAdminChanged",
      "type": "event"
    },
    {
      "anonymous": false,
      "inputs": [
        {
          "indexed": true,
          "internalType": "bytes32",
          "name": "role",
          "type": "bytes32"
        },
        {
          "indexed": true,
          "internalType": "address",
          "name": "account",
          "type": "address"
        },
        {
          "indexed": true,
          "internalType": "address",
          "name": "sender",
          "type": "address"
        }
      ],
      "name": "RoleGranted",
      "type": "event"
    },
    {
      "anonymous": false,
      "inputs": [
        {
          "indexed": true,
          "internalType": "bytes32",
          "name": "role",
          "type": "bytes32"
        },
        {
          "indexed": true,
          "internalType": "address",
          "name": "account",
          "type": "address"
        },
        {
          "indexed": true,
          "internalType": "address",
          "name": "sender",
          "type": "address"
        }
      ],
      "name": "RoleRevoked",
      "type": "event"
    },
    {
      "inputs": [],
      "name": "DEFAULT_ADMIN_ROLE",
      "outputs": [
        {
          "internalType": "bytes32",
          "name": "",
          "type": "bytes32"
        }
      ],
      "stateMutability": "view",
      "type": "function"
    },
    {
      "inputs": [],
      "name": "getLatestMarketWrapper",
      "outputs": [
        {
          "internalType": "address",
          "name": "",
          "type": "address"
        }
      ],
      "stateMutability": "view",
      "type": "function"
    },
    {
      "inputs": [
        {
          "internalType": "bytes32",
          "name": "role",
          "type": "bytes32"
        }
      ],
      "name": "getRoleAdmin",
      "outputs": [
        {
          "internalType": "bytes32",
          "name": "",
          "type": "bytes32"
        }
      ],
      "stateMutability": "view",
      "type": "function"
    },
    {
      "inputs": [
        {
          "internalType": "address",
          "name": "_marketWrapper",
          "type": "address"
        },
        {
          "internalType": "address",
          "name": "_to",
          "type": "address"
        }
      ],
      "name": "giveContractOwnership",
      "outputs": [],
      "stateMutability": "nonpayable",
      "type": "function"
    },
    {
      "inputs": [
        {
          "internalType": "address",
          "name": "to",
          "type": "address"
        }
      ],
      "name": "grantOwnerRole",
      "outputs": [],
      "stateMutability": "nonpayable",
      "type": "function"
    },
    {
      "inputs": [
        {
          "internalType": "bytes32",
          "name": "role",
          "type": "bytes32"
        },
        {
          "internalType": "address",
          "name": "account",
          "type": "address"
        }
      ],
      "name": "grantRole",
      "outputs": [],
      "stateMutability": "nonpayable",
      "type": "function"
    },
    {
      "inputs": [
        {
          "internalType": "bytes32",
          "name": "role",
          "type": "bytes32"
        },
        {
          "internalType": "address",
          "name": "account",
          "type": "address"
        }
      ],
      "name": "hasRole",
      "outputs": [
        {
          "internalType": "bool",
          "name": "",
          "type": "bool"
        }
      ],
      "stateMutability": "view",
      "type": "function"
    },
    {
      "inputs": [
        {
          "internalType": "uint256",
          "name": "_buyNowPrice",
          "type": "uint256"
        }
      ],
      "name": "newMarketWrapper",
      "outputs": [
        {
          "internalType": "address",
          "name": "",
          "type": "address"
        }
      ],
      "stateMutability": "nonpayable",
      "type": "function"
    },
    {
      "inputs": [
        {
          "internalType": "bytes32",
          "name": "role",
          "type": "bytes32"
        },
        {
          "internalType": "address",
          "name": "account",
          "type": "address"
        }
      ],
      "name": "renounceRole",
      "outputs": [],
      "stateMutability": "nonpayable",
      "type": "function"
    },
    {
      "inputs": [
        {
          "internalType": "bytes32",
          "name": "role",
          "type": "bytes32"
        },
        {
          "internalType": "address",
          "name": "account",
          "type": "address"
        }
      ],
      "name": "revokeRole",
      "outputs": [],
      "stateMutability": "nonpayable",
      "type": "function"
    },
    {
      "inputs": [
        {
          "internalType": "bytes4",
          "name": "interfaceId",
          "type": "bytes4"
        }
      ],
      "name": "supportsInterface",
      "outputs": [
        {
          "internalType": "bool",
          "name": "",
          "type": "bool"
        }
      ],
      "stateMutability": "view",
      "type": "function"
    }
  ],
  "bytecode": "0x6080604052600060025534801561001557600080fd5b506100296000801b3361002e60201b60201c565b61018c565b61003e828261011a60201b60201c565b61011657600160008084815260200190815260200160002060000160008373ffffffffffffffffffffffffffffffffffffffff1673ffffffffffffffffffffffffffffffffffffffff16815260200190815260200160002060006101000a81548160ff0219169083151502179055506100bb61018460201b60201c565b73ffffffffffffffffffffffffffffffffffffffff168173ffffffffffffffffffffffffffffffffffffffff16837f2f8788117e7eff1d82e926ec794901d17c78024a50270940304540a733656f0d60405160405180910390a45b5050565b600080600084815260200190815260200160002060000160008373ffffffffffffffffffffffffffffffffffffffff1673ffffffffffffffffffffffffffffffffffffffff16815260200190815260200160002060009054906101000a900460ff16905092915050565b600033905090565b61294d8061019b6000396000f3fe60806040523480156200001157600080fd5b5060043610620000b85760003560e01c80635556f1aa116200007b5780635556f1aa14620001895780635bb0ae7914620001a957806391d1485414620001df578063a217fddf1462000215578063a6f660351462000237578063d547741f146200025957620000b8565b806301ffc9a714620000bd578063248a9ca314620000f35780632f2ff15d146200012957806336568abe1462000149578063397a8bab1462000169575b600080fd5b620000db6004803603810190620000d5919062000c00565b62000279565b604051620000ea919062000c4f565b60405180910390f35b6200011160048036038101906200010b919062000ca7565b620002f6565b60405162000120919062000cea565b60405180910390f35b62000147600480360381019062000141919062000d6c565b62000315565b005b62000167600480360381019062000161919062000d6c565b6200033c565b005b62000187600480360381019062000181919062000db3565b620003c6565b005b620001a76004803603810190620001a1919062000de5565b620003e8565b005b620001c76004803603810190620001c1919062000e67565b62000471565b604051620001d6919062000eaa565b60405180910390f35b620001fd6004803603810190620001f7919062000d6c565b62000548565b6040516200020c919062000c4f565b60405180910390f35b6200021f620005b2565b6040516200022e919062000cea565b60405180910390f35b62000241620005b9565b60405162000250919062000eaa565b60405180910390f35b62000277600480360381019062000271919062000d6c565b62000611565b005b60007f7965db0b000000000000000000000000000000000000000000000000000000007bffffffffffffffffffffffffffffffffffffffffffffffffffffffff1916827bffffffffffffffffffffffffffffffffffffffffffffffffffffffff19161480620002ef5750620002ee8262000638565b5b9050919050565b6000806000838152602001908152602001600020600101549050919050565b6200032082620002f6565b6200032b81620006a2565b620003378383620006ba565b505050565b620003466200079f565b73ffffffffffffffffffffffffffffffffffffffff168173ffffffffffffffffffffffffffffffffffffffff1614620003b6576040517f08c379a0000000000000000000000000000000000000000000000000000000008152600401620003ad9062000f4e565b60405180910390fd5b620003c28282620007a7565b5050565b6000801b620003d581620006a2565b620003e46000801b83620006ba565b5050565b6000801b620003f781620006a2565b60008390508073ffffffffffffffffffffffffffffffffffffffff1663397a8bab846040518263ffffffff1660e01b815260040162000437919062000eaa565b600060405180830381600087803b1580156200045257600080fd5b505af115801562000467573d6000803e3d6000fd5b5050505050505050565b60008060001b6200048281620006a2565b600083604051620004939062000b90565b6200049f919062000f81565b604051809103906000f080158015620004bc573d6000803e3d6000fd5b5090506001819080600181540180825580915050600190039060005260206000200160009091909190916101000a81548173ffffffffffffffffffffffffffffffffffffffff021916908373ffffffffffffffffffffffffffffffffffffffff16021790555060016002600082825462000537919062000fcd565b925050819055508092505050919050565b600080600084815260200190815260200160002060000160008373ffffffffffffffffffffffffffffffffffffffff1673ffffffffffffffffffffffffffffffffffffffff16815260200190815260200160002060009054906101000a900460ff16905092915050565b6000801b81565b6000600180600254620005cd91906200102a565b81548110620005e157620005e062001065565b5b9060005260206000200160009054906101000a900473ffffffffffffffffffffffffffffffffffffffff16905090565b6200061c82620002f6565b6200062781620006a2565b620006338383620007a7565b505050565b60007f01ffc9a7000000000000000000000000000000000000000000000000000000007bffffffffffffffffffffffffffffffffffffffffffffffffffffffff1916827bffffffffffffffffffffffffffffffffffffffffffffffffffffffff1916149050919050565b620006b781620006b16200079f565b6200088d565b50565b620006c6828262000548565b6200079b57600160008084815260200190815260200160002060000160008373ffffffffffffffffffffffffffffffffffffffff1673ffffffffffffffffffffffffffffffffffffffff16815260200190815260200160002060006101000a81548160ff021916908315150217905550620007406200079f565b73ffffffffffffffffffffffffffffffffffffffff168173ffffffffffffffffffffffffffffffffffffffff16837f2f8788117e7eff1d82e926ec794901d17c78024a50270940304540a733656f0d60405160405180910390a45b5050565b600033905090565b620007b3828262000548565b156200088957600080600084815260200190815260200160002060000160008373ffffffffffffffffffffffffffffffffffffffff1673ffffffffffffffffffffffffffffffffffffffff16815260200190815260200160002060006101000a81548160ff0219169083151502179055506200082e6200079f565b73ffffffffffffffffffffffffffffffffffffffff168173ffffffffffffffffffffffffffffffffffffffff16837ff6391f5c32d9c69d2a47ea670b442974b53935d1edc7fd64eb21e047a839171b60405160405180910390a45b5050565b62000899828262000548565b6200093157620008c18173ffffffffffffffffffffffffffffffffffffffff16601462000935565b620008d18360001c602062000935565b604051602001620008e4929190620011b7565b6040516020818303038152906040526040517f08c379a00000000000000000000000000000000000000000000000000000000081526004016200092891906200124b565b60405180910390fd5b5050565b6060600060028360026200094a91906200126f565b62000956919062000fcd565b67ffffffffffffffff811115620009725762000971620012d0565b5b6040519080825280601f01601f191660200182016040528015620009a55781602001600182028036833780820191505090505b5090507f300000000000000000000000000000000000000000000000000000000000000081600081518110620009e057620009df62001065565b5b60200101907effffffffffffffffffffffffffffffffffffffffffffffffffffffffffffff1916908160001a9053507f78000000000000000000000000000000000000000000000000000000000000008160018151811062000a475762000a4662001065565b5b60200101907effffffffffffffffffffffffffffffffffffffffffffffffffffffffffffff1916908160001a9053506000600184600262000a8991906200126f565b62000a95919062000fcd565b90505b600181111562000b3f577f3031323334353637383961626364656600000000000000000000000000000000600f86166010811062000adb5762000ada62001065565b5b1a60f81b82828151811062000af55762000af462001065565b5b60200101907effffffffffffffffffffffffffffffffffffffffffffffffffffffffffffff1916908160001a905350600485901c94508062000b3790620012ff565b905062000a98565b506000841462000b86576040517f08c379a000000000000000000000000000000000000000000000000000000000815260040162000b7d906200137e565b60405180910390fd5b8091505092915050565b61157780620013a183390190565b600080fd5b60007fffffffff0000000000000000000000000000000000000000000000000000000082169050919050565b62000bda8162000ba3565b811462000be657600080fd5b50565b60008135905062000bfa8162000bcf565b92915050565b60006020828403121562000c195762000c1862000b9e565b5b600062000c298482850162000be9565b91505092915050565b60008115159050919050565b62000c498162000c32565b82525050565b600060208201905062000c66600083018462000c3e565b92915050565b6000819050919050565b62000c818162000c6c565b811462000c8d57600080fd5b50565b60008135905062000ca18162000c76565b92915050565b60006020828403121562000cc05762000cbf62000b9e565b5b600062000cd08482850162000c90565b91505092915050565b62000ce48162000c6c565b82525050565b600060208201905062000d01600083018462000cd9565b92915050565b600073ffffffffffffffffffffffffffffffffffffffff82169050919050565b600062000d348262000d07565b9050919050565b62000d468162000d27565b811462000d5257600080fd5b50565b60008135905062000d668162000d3b565b92915050565b6000806040838503121562000d865762000d8562000b9e565b5b600062000d968582860162000c90565b925050602062000da98582860162000d55565b9150509250929050565b60006020828403121562000dcc5762000dcb62000b9e565b5b600062000ddc8482850162000d55565b91505092915050565b6000806040838503121562000dff5762000dfe62000b9e565b5b600062000e0f8582860162000d55565b925050602062000e228582860162000d55565b9150509250929050565b6000819050919050565b62000e418162000e2c565b811462000e4d57600080fd5b50565b60008135905062000e618162000e36565b92915050565b60006020828403121562000e805762000e7f62000b9e565b5b600062000e908482850162000e50565b91505092915050565b62000ea48162000d27565b82525050565b600060208201905062000ec1600083018462000e99565b92915050565b600082825260208201905092915050565b7f416363657373436f6e74726f6c3a2063616e206f6e6c792072656e6f756e636560008201527f20726f6c657320666f722073656c660000000000000000000000000000000000602082015250565b600062000f36602f8362000ec7565b915062000f438262000ed8565b604082019050919050565b6000602082019050818103600083015262000f698162000f27565b9050919050565b62000f7b8162000e2c565b82525050565b600060208201905062000f98600083018462000f70565b92915050565b7f4e487b7100000000000000000000000000000000000000000000000000000000600052601160045260246000fd5b600062000fda8262000e2c565b915062000fe78362000e2c565b9250827fffffffffffffffffffffffffffffffffffffffffffffffffffffffffffffffff038211156200101f576200101e62000f9e565b5b828201905092915050565b6000620010378262000e2c565b9150620010448362000e2c565b9250828210156200105a576200105962000f9e565b5b828203905092915050565b7f4e487b7100000000000000000000000000000000000000000000000000000000600052603260045260246000fd5b600081905092915050565b7f416363657373436f6e74726f6c3a206163636f756e7420000000000000000000600082015250565b6000620010d760178362001094565b9150620010e4826200109f565b601782019050919050565b600081519050919050565b60005b838110156200111a578082015181840152602081019050620010fd565b838111156200112a576000848401525b50505050565b60006200113d82620010ef565b62001149818562001094565b93506200115b818560208601620010fa565b80840191505092915050565b7f206973206d697373696e6720726f6c6520000000000000000000000000000000600082015250565b60006200119f60118362001094565b9150620011ac8262001167565b601182019050919050565b6000620011c482620010c8565b9150620011d2828562001130565b9150620011df8262001190565b9150620011ed828462001130565b91508190509392505050565b6000601f19601f8301169050919050565b60006200121782620010ef565b62001223818562000ec7565b935062001235818560208601620010fa565b6200124081620011f9565b840191505092915050565b600060208201905081810360008301526200126781846200120a565b905092915050565b60006200127c8262000e2c565b9150620012898362000e2c565b9250817fffffffffffffffffffffffffffffffffffffffffffffffffffffffffffffffff0483118215151615620012c557620012c462000f9e565b5b828202905092915050565b7f4e487b7100000000000000000000000000000000000000000000000000000000600052604160045260246000fd5b60006200130c8262000e2c565b9150600082141562001323576200132262000f9e565b5b600182039050919050565b7f537472696e67733a20686578206c656e67746820696e73756666696369656e74600082015250565b60006200136660208362000ec7565b915062001373826200132e565b602082019050919050565b60006020820190508181036000830152620013998162001357565b905091905056fe60806040523480156200001157600080fd5b5060405162001577380380620015778339818101604052810190620000379190620001fd565b6200004c6000801b336200005a60201b60201c565b80600181905550506200022f565b6200006c82826200014b60201b60201c565b6200014757600160008084815260200190815260200160002060000160008373ffffffffffffffffffffffffffffffffffffffff1673ffffffffffffffffffffffffffffffffffffffff16815260200190815260200160002060006101000a81548160ff021916908315150217905550620000ec620001b560201b60201c565b73ffffffffffffffffffffffffffffffffffffffff168173ffffffffffffffffffffffffffffffffffffffff16837f2f8788117e7eff1d82e926ec794901d17c78024a50270940304540a733656f0d60405160405180910390a45b5050565b600080600084815260200190815260200160002060000160008373ffffffffffffffffffffffffffffffffffffffff1673ffffffffffffffffffffffffffffffffffffffff16815260200190815260200160002060009054906101000a900460ff16905092915050565b600033905090565b600080fd5b6000819050919050565b620001d781620001c2565b8114620001e357600080fd5b50565b600081519050620001f781620001cc565b92915050565b600060208284031215620002165762000215620001bd565b5b60006200022684828501620001e6565b91505092915050565b611338806200023f6000396000f3fe6080604052600436106100ab5760003560e01c806391d148541161006457806391d14854146101c55780639c3962f014610202578063a217fddf14610220578063a55870881461024b578063d547741f14610276578063dd0b7ffe1461029f576100b2565b806301ffc9a7146100b4578063248a9ca3146100f15780632f2ff15d1461012e57806336568abe14610157578063397a8bab146101805780636e353a1d146101a9576100b2565b366100b257005b005b3480156100c057600080fd5b506100db60048036038101906100d69190610b6f565b6102c8565b6040516100e89190610bb7565b60405180910390f35b3480156100fd57600080fd5b5061011860048036038101906101139190610c08565b610342565b6040516101259190610c44565b60405180910390f35b34801561013a57600080fd5b5061015560048036038101906101509190610cbd565b610361565b005b34801561016357600080fd5b5061017e60048036038101906101799190610cbd565b610382565b005b34801561018c57600080fd5b506101a760048036038101906101a29190610cfd565b610405565b005b6101c360048036038101906101be9190610d68565b610423565b005b3480156101d157600080fd5b506101ec60048036038101906101e79190610cbd565b6104e1565b6040516101f99190610bb7565b60405180910390f35b61020a61054b565b6040516102179190610bb7565b60405180910390f35b34801561022c57600080fd5b506102356105a8565b6040516102429190610c44565b60405180910390f35b34801561025757600080fd5b506102606105af565b60405161026d9190610dae565b60405180910390f35b34801561028257600080fd5b5061029d60048036038101906102989190610cbd565b6105b9565b005b3480156102ab57600080fd5b506102c660048036038101906102c19190610df5565b6105da565b005b60007f7965db0b000000000000000000000000000000000000000000000000000000007bffffffffffffffffffffffffffffffffffffffffffffffffffffffff1916827bffffffffffffffffffffffffffffffffffffffffffffffffffffffff1916148061033b575061033a826105f2565b5b9050919050565b6000806000838152602001908152602001600020600101549050919050565b61036a82610342565b6103738161065c565b61037d8383610670565b505050565b61038a610750565b73ffffffffffffffffffffffffffffffffffffffff168173ffffffffffffffffffffffffffffffffffffffff16146103f7576040517f08c379a00000000000000000000000000000000000000000000000000000000081526004016103ee90610ea5565b60405180910390fd5b6104018282610758565b5050565b6000801b6104128161065c565b61041f6000801b83610670565b5050565b6000801b6104308161065c565b60008273ffffffffffffffffffffffffffffffffffffffff164760405161045690610ef6565b60006040518083038185875af1925050503d8060008114610493576040519150601f19603f3d011682016040523d82523d6000602084013e610498565b606091505b50509050806104dc576040517f08c379a00000000000000000000000000000000000000000000000000000000081526004016104d390610f57565b60405180910390fd5b505050565b600080600084815260200190815260200160002060000160008373ffffffffffffffffffffffffffffffffffffffff1673ffffffffffffffffffffffffffffffffffffffff16815260200190815260200160002060009054906101000a900460ff16905092915050565b60008060001b61055a8161065c565b600154471461056857600080fd5b7f83e31f5e5651d64b527802681a291e708d9fe310288785b1b816aa293d9b8fc660016040516105989190610bb7565b60405180910390a1600191505090565b6000801b81565b6000600154905090565b6105c282610342565b6105cb8161065c565b6105d58383610758565b505050565b6000801b6105e78161065c565b816001819055505050565b60007f01ffc9a7000000000000000000000000000000000000000000000000000000007bffffffffffffffffffffffffffffffffffffffffffffffffffffffff1916827bffffffffffffffffffffffffffffffffffffffffffffffffffffffff1916149050919050565b61066d81610668610750565b610839565b50565b61067a82826104e1565b61074c57600160008084815260200190815260200160002060000160008373ffffffffffffffffffffffffffffffffffffffff1673ffffffffffffffffffffffffffffffffffffffff16815260200190815260200160002060006101000a81548160ff0219169083151502179055506106f1610750565b73ffffffffffffffffffffffffffffffffffffffff168173ffffffffffffffffffffffffffffffffffffffff16837f2f8788117e7eff1d82e926ec794901d17c78024a50270940304540a733656f0d60405160405180910390a45b5050565b600033905090565b61076282826104e1565b1561083557600080600084815260200190815260200160002060000160008373ffffffffffffffffffffffffffffffffffffffff1673ffffffffffffffffffffffffffffffffffffffff16815260200190815260200160002060006101000a81548160ff0219169083151502179055506107da610750565b73ffffffffffffffffffffffffffffffffffffffff168173ffffffffffffffffffffffffffffffffffffffff16837ff6391f5c32d9c69d2a47ea670b442974b53935d1edc7fd64eb21e047a839171b60405160405180910390a45b5050565b61084382826104e1565b6108d2576108688173ffffffffffffffffffffffffffffffffffffffff1660146108d6565b6108768360001c60206108d6565b604051602001610887929190611089565b6040516020818303038152906040526040517f08c379a00000000000000000000000000000000000000000000000000000000081526004016108c9919061110d565b60405180910390fd5b5050565b6060600060028360026108e9919061115e565b6108f391906111b8565b67ffffffffffffffff81111561090c5761090b61120e565b5b6040519080825280601f01601f19166020018201604052801561093e5781602001600182028036833780820191505090505b5090507f3000000000000000000000000000000000000000000000000000000000000000816000815181106109765761097561123d565b5b60200101907effffffffffffffffffffffffffffffffffffffffffffffffffffffffffffff1916908160001a9053507f7800000000000000000000000000000000000000000000000000000000000000816001815181106109da576109d961123d565b5b60200101907effffffffffffffffffffffffffffffffffffffffffffffffffffffffffffff1916908160001a90535060006001846002610a1a919061115e565b610a2491906111b8565b90505b6001811115610ac4577f3031323334353637383961626364656600000000000000000000000000000000600f861660108110610a6657610a6561123d565b5b1a60f81b828281518110610a7d57610a7c61123d565b5b60200101907effffffffffffffffffffffffffffffffffffffffffffffffffffffffffffff1916908160001a905350600485901c945080610abd9061126c565b9050610a27565b5060008414610b08576040517f08c379a0000000000000000000000000000000000000000000000000000000008152600401610aff906112e2565b60405180910390fd5b8091505092915050565b600080fd5b60007fffffffff0000000000000000000000000000000000000000000000000000000082169050919050565b610b4c81610b17565b8114610b5757600080fd5b50565b600081359050610b6981610b43565b92915050565b600060208284031215610b8557610b84610b12565b5b6000610b9384828501610b5a565b91505092915050565b60008115159050919050565b610bb181610b9c565b82525050565b6000602082019050610bcc6000830184610ba8565b92915050565b6000819050919050565b610be581610bd2565b8114610bf057600080fd5b50565b600081359050610c0281610bdc565b92915050565b600060208284031215610c1e57610c1d610b12565b5b6000610c2c84828501610bf3565b91505092915050565b610c3e81610bd2565b82525050565b6000602082019050610c596000830184610c35565b92915050565b600073ffffffffffffffffffffffffffffffffffffffff82169050919050565b6000610c8a82610c5f565b9050919050565b610c9a81610c7f565b8114610ca557600080fd5b50565b600081359050610cb781610c91565b92915050565b60008060408385031215610cd457610cd3610b12565b5b6000610ce285828601610bf3565b9250506020610cf385828601610ca8565b9150509250929050565b600060208284031215610d1357610d12610b12565b5b6000610d2184828501610ca8565b91505092915050565b6000610d3582610c5f565b9050919050565b610d4581610d2a565b8114610d5057600080fd5b50565b600081359050610d6281610d3c565b92915050565b600060208284031215610d7e57610d7d610b12565b5b6000610d8c84828501610d53565b91505092915050565b6000819050919050565b610da881610d95565b82525050565b6000602082019050610dc36000830184610d9f565b92915050565b610dd281610d95565b8114610ddd57600080fd5b50565b600081359050610def81610dc9565b92915050565b600060208284031215610e0b57610e0a610b12565b5b6000610e1984828501610de0565b91505092915050565b600082825260208201905092915050565b7f416363657373436f6e74726f6c3a2063616e206f6e6c792072656e6f756e636560008201527f20726f6c657320666f722073656c660000000000000000000000000000000000602082015250565b6000610e8f602f83610e22565b9150610e9a82610e33565b604082019050919050565b60006020820190508181036000830152610ebe81610e82565b9050919050565b600081905092915050565b50565b6000610ee0600083610ec5565b9150610eeb82610ed0565b600082019050919050565b6000610f0182610ed3565b9150819050919050565b7f4574686572207472616e73666572206661696c65642e00000000000000000000600082015250565b6000610f41601683610e22565b9150610f4c82610f0b565b602082019050919050565b60006020820190508181036000830152610f7081610f34565b9050919050565b600081905092915050565b7f416363657373436f6e74726f6c3a206163636f756e7420000000000000000000600082015250565b6000610fb8601783610f77565b9150610fc382610f82565b601782019050919050565b600081519050919050565b60005b83811015610ff7578082015181840152602081019050610fdc565b83811115611006576000848401525b50505050565b600061101782610fce565b6110218185610f77565b9350611031818560208601610fd9565b80840191505092915050565b7f206973206d697373696e6720726f6c6520000000000000000000000000000000600082015250565b6000611073601183610f77565b915061107e8261103d565b601182019050919050565b600061109482610fab565b91506110a0828561100c565b91506110ab82611066565b91506110b7828461100c565b91508190509392505050565b6000601f19601f8301169050919050565b60006110df82610fce565b6110e98185610e22565b93506110f9818560208601610fd9565b611102816110c3565b840191505092915050565b6000602082019050818103600083015261112781846110d4565b905092915050565b7f4e487b7100000000000000000000000000000000000000000000000000000000600052601160045260246000fd5b600061116982610d95565b915061117483610d95565b9250817fffffffffffffffffffffffffffffffffffffffffffffffffffffffffffffffff04831182151516156111ad576111ac61112f565b5b828202905092915050565b60006111c382610d95565b91506111ce83610d95565b9250827fffffffffffffffffffffffffffffffffffffffffffffffffffffffffffffffff038211156112035761120261112f565b5b828201905092915050565b7f4e487b7100000000000000000000000000000000000000000000000000000000600052604160045260246000fd5b7f4e487b7100000000000000000000000000000000000000000000000000000000600052603260045260246000fd5b600061127782610d95565b9150600082141561128b5761128a61112f565b5b600182039050919050565b7f537472696e67733a20686578206c656e67746820696e73756666696369656e74600082015250565b60006112cc602083610e22565b91506112d782611296565b602082019050919050565b600060208201905081810360008301526112fb816112bf565b905091905056fea2646970667358221220ed7bca4c31bd317f388dc96aedc243f45bc2375331562a90829604f8193dfe2764736f6c63430008090033a2646970667358221220f221c3c9f01320b02bdb6f85c9416db2e4a3a5676b81c86c615c28072467a6aa64736f6c63430008090033",
  "linkReferences": {},
  "deployedLinkReferences": {}
}