{
  "_format": "hh-sol-artifact-1",
  "contractName": "MarketWrapper",
  "sourceName": "contracts/main/MarketWrapper.sol",
  "abi": [
    {
      "inputs": [
        {
          "components": [
            {
              "components": [
                {
                  "internalType": "address",
                  "name": "considerationToken",
                  "type": "address"
                },
                {
                  "internalType": "uint256",
                  "name": "considerationIdentifier",
                  "type": "uint256"
                },
                {
                  "internalType": "uint256",
                  "name": "considerationAmount",
                  "type": "uint256"
                },
                {
                  "internalType": "address payable",
                  "name": "offerer",
                  "type": "address"
                },
                {
                  "internalType": "address",
                  "name": "zone",
                  "type": "address"
                },
                {
                  "internalType": "address",
                  "name": "offerToken",
                  "type": "address"
                },
                {
                  "internalType": "uint256",
                  "name": "offerIdentifier",
                  "type": "uint256"
                },
                {
                  "internalType": "uint256",
                  "name": "offerAmount",
                  "type": "uint256"
                },
                {
                  "internalType": "enum BasicOrderType",
                  "name": "basicOrderType",
                  "type": "uint8"
                },
                {
                  "internalType": "uint256",
                  "name": "startTime",
                  "type": "uint256"
                },
                {
                  "internalType": "uint256",
                  "name": "endTime",
                  "type": "uint256"
                },
                {
                  "internalType": "bytes32",
                  "name": "zoneHash",
                  "type": "bytes32"
                },
                {
                  "internalType": "uint256",
                  "name": "salt",
                  "type": "uint256"
                },
                {
                  "internalType": "bytes32",
                  "name": "offererConduitKey",
                  "type": "bytes32"
                },
                {
                  "internalType": "bytes32",
                  "name": "fulfillerConduitKey",
                  "type": "bytes32"
                },
                {
                  "internalType": "uint256",
                  "name": "totalOriginalAdditionalRecipients",
                  "type": "uint256"
                },
                {
                  "components": [
                    {
                      "internalType": "uint256",
                      "name": "amount",
                      "type": "uint256"
                    },
                    {
                      "internalType": "address payable",
                      "name": "recipient",
                      "type": "address"
                    }
                  ],
                  "internalType": "struct AdditionalRecipient[]",
                  "name": "additionalRecipients",
                  "type": "tuple[]"
                },
                {
                  "internalType": "bytes",
                  "name": "signature",
                  "type": "bytes"
                }
              ],
              "internalType": "struct BasicOrderParameters",
              "name": "orderParams",
              "type": "tuple"
            },
            {
              "internalType": "uint256",
              "name": "buyNowPrice",
              "type": "uint256"
            },
            {
              "internalType": "address",
              "name": "marketPlace",
              "type": "address"
            }
          ],
          "internalType": "struct MarketWrapperConstructorParameters",
          "name": "_params",
          "type": "tuple"
        }
      ],
      "stateMutability": "nonpayable",
      "type": "constructor"
    },
    {
      "anonymous": false,
      "inputs": [
        {
          "indexed": false,
          "internalType": "bool",
          "name": "success",
          "type": "bool"
        }
      ],
      "name": "Purchased",
      "type": "event"
    },
    {
      "anonymous": false,
      "inputs": [
        {
          "indexed": true,
          "internalType": "bytes32",
          "name": "role",
          "type": "bytes32"
        },
        {
          "indexed": true,
          "internalType": "bytes32",
          "name": "previousAdminRole",
          "type": "bytes32"
        },
        {
          "indexed": true,
          "internalType": "bytes32",
          "name": "newAdminRole",
          "type": "bytes32"
        }
      ],
      "name": "RoleAdminChanged",
      "type": "event"
    },
    {
      "anonymous": false,
      "inputs": [
        {
          "indexed": true,
          "internalType": "bytes32",
          "name": "role",
          "type": "bytes32"
        },
        {
          "indexed": true,
          "internalType": "address",
          "name": "account",
          "type": "address"
        },
        {
          "indexed": true,
          "internalType": "address",
          "name": "sender",
          "type": "address"
        }
      ],
      "name": "RoleGranted",
      "type": "event"
    },
    {
      "anonymous": false,
      "inputs": [
        {
          "indexed": true,
          "internalType": "bytes32",
          "name": "role",
          "type": "bytes32"
        },
        {
          "indexed": true,
          "internalType": "address",
          "name": "account",
          "type": "address"
        },
        {
          "indexed": true,
          "internalType": "address",
          "name": "sender",
          "type": "address"
        }
      ],
      "name": "RoleRevoked",
      "type": "event"
    },
    {
      "stateMutability": "payable",
      "type": "fallback"
    },
    {
      "inputs": [],
      "name": "DEFAULT_ADMIN_ROLE",
      "outputs": [
        {
          "internalType": "bytes32",
          "name": "",
          "type": "bytes32"
        }
      ],
      "stateMutability": "view",
      "type": "function"
    },
    {
      "inputs": [],
      "name": "buyNow",
      "outputs": [
        {
          "internalType": "bool",
          "name": "",
          "type": "bool"
        }
      ],
      "stateMutability": "payable",
      "type": "function"
    },
    {
      "inputs": [
        {
          "internalType": "address payable",
          "name": "to",
          "type": "address"
        }
      ],
      "name": "emergencyWithdrawal",
      "outputs": [],
      "stateMutability": "payable",
      "type": "function"
    },
    {
      "inputs": [
        {
          "internalType": "bytes32",
          "name": "role",
          "type": "bytes32"
        }
      ],
      "name": "getRoleAdmin",
      "outputs": [
        {
          "internalType": "bytes32",
          "name": "",
          "type": "bytes32"
        }
      ],
      "stateMutability": "view",
      "type": "function"
    },
    {
      "inputs": [
        {
          "internalType": "address",
          "name": "to",
          "type": "address"
        }
      ],
      "name": "grantOwnerRole",
      "outputs": [],
      "stateMutability": "nonpayable",
      "type": "function"
    },
    {
      "inputs": [
        {
          "internalType": "bytes32",
          "name": "role",
          "type": "bytes32"
        },
        {
          "internalType": "address",
          "name": "account",
          "type": "address"
        }
      ],
      "name": "grantRole",
      "outputs": [],
      "stateMutability": "nonpayable",
      "type": "function"
    },
    {
      "inputs": [
        {
          "internalType": "bytes32",
          "name": "role",
          "type": "bytes32"
        },
        {
          "internalType": "address",
          "name": "account",
          "type": "address"
        }
      ],
      "name": "hasRole",
      "outputs": [
        {
          "internalType": "bool",
          "name": "",
          "type": "bool"
        }
      ],
      "stateMutability": "view",
      "type": "function"
    },
    {
      "inputs": [
        {
          "components": [
            {
              "components": [
                {
                  "internalType": "address",
                  "name": "considerationToken",
                  "type": "address"
                },
                {
                  "internalType": "uint256",
                  "name": "considerationIdentifier",
                  "type": "uint256"
                },
                {
                  "internalType": "uint256",
                  "name": "considerationAmount",
                  "type": "uint256"
                },
                {
                  "internalType": "address payable",
                  "name": "offerer",
                  "type": "address"
                },
                {
                  "internalType": "address",
                  "name": "zone",
                  "type": "address"
                },
                {
                  "internalType": "address",
                  "name": "offerToken",
                  "type": "address"
                },
                {
                  "internalType": "uint256",
                  "name": "offerIdentifier",
                  "type": "uint256"
                },
                {
                  "internalType": "uint256",
                  "name": "offerAmount",
                  "type": "uint256"
                },
                {
                  "internalType": "enum BasicOrderType",
                  "name": "basicOrderType",
                  "type": "uint8"
                },
                {
                  "internalType": "uint256",
                  "name": "startTime",
                  "type": "uint256"
                },
                {
                  "internalType": "uint256",
                  "name": "endTime",
                  "type": "uint256"
                },
                {
                  "internalType": "bytes32",
                  "name": "zoneHash",
                  "type": "bytes32"
                },
                {
                  "internalType": "uint256",
                  "name": "salt",
                  "type": "uint256"
                },
                {
                  "internalType": "bytes32",
                  "name": "offererConduitKey",
                  "type": "bytes32"
                },
                {
                  "internalType": "bytes32",
                  "name": "fulfillerConduitKey",
                  "type": "bytes32"
                },
                {
                  "internalType": "uint256",
                  "name": "totalOriginalAdditionalRecipients",
                  "type": "uint256"
                },
                {
                  "components": [
                    {
                      "internalType": "uint256",
                      "name": "amount",
                      "type": "uint256"
                    },
                    {
                      "internalType": "address payable",
                      "name": "recipient",
                      "type": "address"
                    }
                  ],
                  "internalType": "struct AdditionalRecipient[]",
                  "name": "additionalRecipients",
                  "type": "tuple[]"
                },
                {
                  "internalType": "bytes",
                  "name": "signature",
                  "type": "bytes"
                }
              ],
              "internalType": "struct BasicOrderParameters",
              "name": "orderParams",
              "type": "tuple"
            },
            {
              "internalType": "uint256",
              "name": "buyNowPrice",
              "type": "uint256"
            },
            {
              "internalType": "address",
              "name": "marketPlace",
              "type": "address"
            }
          ],
          "internalType": "struct MarketWrapperConstructorParameters",
          "name": "_params",
          "type": "tuple"
        }
      ],
      "name": "migration",
      "outputs": [],
      "stateMutability": "nonpayable",
      "type": "function"
    },
    {
      "inputs": [],
      "name": "params",
      "outputs": [
        {
          "components": [
            {
              "internalType": "address",
              "name": "considerationToken",
              "type": "address"
            },
            {
              "internalType": "uint256",
              "name": "considerationIdentifier",
              "type": "uint256"
            },
            {
              "internalType": "uint256",
              "name": "considerationAmount",
              "type": "uint256"
            },
            {
              "internalType": "address payable",
              "name": "offerer",
              "type": "address"
            },
            {
              "internalType": "address",
              "name": "zone",
              "type": "address"
            },
            {
              "internalType": "address",
              "name": "offerToken",
              "type": "address"
            },
            {
              "internalType": "uint256",
              "name": "offerIdentifier",
              "type": "uint256"
            },
            {
              "internalType": "uint256",
              "name": "offerAmount",
              "type": "uint256"
            },
            {
              "internalType": "enum BasicOrderType",
              "name": "basicOrderType",
              "type": "uint8"
            },
            {
              "internalType": "uint256",
              "name": "startTime",
              "type": "uint256"
            },
            {
              "internalType": "uint256",
              "name": "endTime",
              "type": "uint256"
            },
            {
              "internalType": "bytes32",
              "name": "zoneHash",
              "type": "bytes32"
            },
            {
              "internalType": "uint256",
              "name": "salt",
              "type": "uint256"
            },
            {
              "internalType": "bytes32",
              "name": "offererConduitKey",
              "type": "bytes32"
            },
            {
              "internalType": "bytes32",
              "name": "fulfillerConduitKey",
              "type": "bytes32"
            },
            {
              "internalType": "uint256",
              "name": "totalOriginalAdditionalRecipients",
              "type": "uint256"
            },
            {
              "components": [
                {
                  "internalType": "uint256",
                  "name": "amount",
                  "type": "uint256"
                },
                {
                  "internalType": "address payable",
                  "name": "recipient",
                  "type": "address"
                }
              ],
              "internalType": "struct AdditionalRecipient[]",
              "name": "additionalRecipients",
              "type": "tuple[]"
            },
            {
              "internalType": "bytes",
              "name": "signature",
              "type": "bytes"
            }
          ],
          "internalType": "struct BasicOrderParameters",
          "name": "orderParams",
          "type": "tuple"
        },
        {
          "internalType": "uint256",
          "name": "buyNowPrice",
          "type": "uint256"
        },
        {
          "internalType": "address",
          "name": "marketPlace",
          "type": "address"
        }
      ],
      "stateMutability": "view",
      "type": "function"
    },
    {
      "inputs": [
        {
          "internalType": "bytes32",
          "name": "role",
          "type": "bytes32"
        },
        {
          "internalType": "address",
          "name": "account",
          "type": "address"
        }
      ],
      "name": "renounceRole",
      "outputs": [],
      "stateMutability": "nonpayable",
      "type": "function"
    },
    {
      "inputs": [
        {
          "internalType": "bytes32",
          "name": "role",
          "type": "bytes32"
        },
        {
          "internalType": "address",
          "name": "account",
          "type": "address"
        }
      ],
      "name": "revokeRole",
      "outputs": [],
      "stateMutability": "nonpayable",
      "type": "function"
    },
    {
      "inputs": [
        {
          "internalType": "bytes4",
          "name": "interfaceId",
          "type": "bytes4"
        }
      ],
      "name": "supportsInterface",
      "outputs": [
        {
          "internalType": "bool",
          "name": "",
          "type": "bool"
        }
      ],
      "stateMutability": "view",
      "type": "function"
    },
    {
      "inputs": [
        {
          "internalType": "address",
          "name": "_nftContractAddress",
          "type": "address"
        },
        {
          "internalType": "uint256",
          "name": "_tokenId",
          "type": "uint256"
        },
        {
          "internalType": "address",
          "name": "_to",
          "type": "address"
        }
      ],
      "name": "withdrawNft",
      "outputs": [],
      "stateMutability": "nonpayable",
      "type": "function"
    },
    {
      "stateMutability": "payable",
      "type": "receive"
    }
  ],
  "bytecode": "0x60806040523480156200001157600080fd5b5060405162003b8c38038062003b8c833981810160405281019062000037919062000d44565b6200004c6000801b336200047360201b60201c565b80602001516001601201819055508060400151600160130160006101000a81548173ffffffffffffffffffffffffffffffffffffffff021916908373ffffffffffffffffffffffffffffffffffffffff160217905550806000015160000151600160000160000160006101000a81548173ffffffffffffffffffffffffffffffffffffffff021916908373ffffffffffffffffffffffffffffffffffffffff160217905550806000015160200151600160000160010181905550806000015160400151600160000160020181905550806000015160600151600160000160030160006101000a81548173ffffffffffffffffffffffffffffffffffffffff021916908373ffffffffffffffffffffffffffffffffffffffff160217905550806000015160800151600160000160040160006101000a81548173ffffffffffffffffffffffffffffffffffffffff021916908373ffffffffffffffffffffffffffffffffffffffff160217905550806000015160a00151600160000160050160006101000a81548173ffffffffffffffffffffffffffffffffffffffff021916908373ffffffffffffffffffffffffffffffffffffffff160217905550806000015160c00151600160000160060181905550806000015160e0015160016000016007018190555080600001516101000151600160000160080160006101000a81548160ff0219169083601781111562000269576200026862000d95565b5b021790555080600001516101200151600160000160090181905550806000015161014001516001600001600a0181905550806000015161016001516001600001600b0181905550806000015161018001516001600001600c018190555080600001516101a001516001600001600d018190555080600001516101c001516001600001600e018190555080600001516101e001516001600001600f018190555060005b8160000151610200015151811015620004435760008260000151610200015182815181106200033f576200033e62000dc4565b5b602002602001015160000151905060008360000151610200015183815181106200036e576200036d62000dc4565b5b6020026020010151602001519050600160000160100160405180604001604052808481526020018373ffffffffffffffffffffffffffffffffffffffff1681525090806001815401808255809150506001900390600052602060002090600202016000909190919091506000820151816000015560208201518160010160006101000a81548173ffffffffffffffffffffffffffffffffffffffff021916908373ffffffffffffffffffffffffffffffffffffffff1602179055505050505080806200043a9062000e22565b9150506200030b565b5080600001516102200151600160000160110190805190602001906200046b929190620005d6565b505062000ed3565b6200048582826200056460201b60201c565b6200056057600160008084815260200190815260200160002060000160008373ffffffffffffffffffffffffffffffffffffffff1673ffffffffffffffffffffffffffffffffffffffff16815260200190815260200160002060006101000a81548160ff02191690831515021790555062000505620005ce60201b60201c565b73ffffffffffffffffffffffffffffffffffffffff168173ffffffffffffffffffffffffffffffffffffffff16837f2f8788117e7eff1d82e926ec794901d17c78024a50270940304540a733656f0d60405160405180910390a45b5050565b600080600084815260200190815260200160002060000160008373ffffffffffffffffffffffffffffffffffffffff1673ffffffffffffffffffffffffffffffffffffffff16815260200190815260200160002060009054906101000a900460ff16905092915050565b600033905090565b828054620005e49062000e9e565b90600052602060002090601f01602090048101928262000608576000855562000654565b82601f106200062357805160ff191683800117855562000654565b8280016001018555821562000654579182015b828111156200065357825182559160200191906001019062000636565b5b50905062000663919062000667565b5090565b5b808211156200068257600081600090555060010162000668565b5090565b6000604051905090565b600080fd5b600080fd5b600080fd5b6000601f19601f8301169050919050565b7f4e487b7100000000000000000000000000000000000000000000000000000000600052604160045260246000fd5b620006ea826200069f565b810181811067ffffffffffffffff821117156200070c576200070b620006b0565b5b80604052505050565b60006200072162000686565b90506200072f8282620006df565b919050565b600080fd5b600073ffffffffffffffffffffffffffffffffffffffff82169050919050565b6000620007668262000739565b9050919050565b620007788162000759565b81146200078457600080fd5b50565b60008151905062000798816200076d565b92915050565b6000819050919050565b620007b3816200079e565b8114620007bf57600080fd5b50565b600081519050620007d381620007a8565b92915050565b6000620007e68262000739565b9050919050565b620007f881620007d9565b81146200080457600080fd5b50565b6000815190506200081881620007ed565b92915050565b601881106200082c57600080fd5b50565b60008151905062000840816200081e565b92915050565b6000819050919050565b6200085b8162000846565b81146200086757600080fd5b50565b6000815190506200087b8162000850565b92915050565b600080fd5b600067ffffffffffffffff821115620008a457620008a3620006b0565b5b602082029050602081019050919050565b600080fd5b600060408284031215620008d357620008d26200069a565b5b620008df604062000715565b90506000620008f184828501620007c2565b6000830152506020620009078482850162000807565b60208301525092915050565b60006200092a620009248462000886565b62000715565b9050808382526020820190506040840283018581111562000950576200094f620008b5565b5b835b818110156200097d5780620009688882620008ba565b84526020840193505060408101905062000952565b5050509392505050565b600082601f8301126200099f576200099e62000881565b5b8151620009b184826020860162000913565b91505092915050565b600080fd5b600067ffffffffffffffff821115620009dd57620009dc620006b0565b5b620009e8826200069f565b9050602081019050919050565b60005b8381101562000a15578082015181840152602081019050620009f8565b8381111562000a25576000848401525b50505050565b600062000a4262000a3c84620009bf565b62000715565b90508281526020810184848401111562000a615762000a60620009ba565b5b62000a6e848285620009f5565b509392505050565b600082601f83011262000a8e5762000a8d62000881565b5b815162000aa084826020860162000a2b565b91505092915050565b6000610240828403121562000ac35762000ac26200069a565b5b62000ad061024062000715565b9050600062000ae28482850162000787565b600083015250602062000af884828501620007c2565b602083015250604062000b0e84828501620007c2565b604083015250606062000b248482850162000807565b606083015250608062000b3a8482850162000787565b60808301525060a062000b508482850162000787565b60a08301525060c062000b6684828501620007c2565b60c08301525060e062000b7c84828501620007c2565b60e08301525061010062000b93848285016200082f565b6101008301525061012062000bab84828501620007c2565b6101208301525061014062000bc384828501620007c2565b6101408301525061016062000bdb848285016200086a565b6101608301525061018062000bf384828501620007c2565b610180830152506101a062000c0b848285016200086a565b6101a0830152506101c062000c23848285016200086a565b6101c0830152506101e062000c3b84828501620007c2565b6101e08301525061020082015167ffffffffffffffff81111562000c645762000c6362000734565b5b62000c728482850162000987565b6102008301525061022082015167ffffffffffffffff81111562000c9b5762000c9a62000734565b5b62000ca98482850162000a76565b6102208301525092915050565b60006060828403121562000ccf5762000cce6200069a565b5b62000cdb606062000715565b9050600082015167ffffffffffffffff81111562000cfe5762000cfd62000734565b5b62000d0c8482850162000aa9565b600083015250602062000d2284828501620007c2565b602083015250604062000d388482850162000787565b60408301525092915050565b60006020828403121562000d5d5762000d5c62000690565b5b600082015167ffffffffffffffff81111562000d7e5762000d7d62000695565b5b62000d8c8482850162000cb6565b91505092915050565b7f4e487b7100000000000000000000000000000000000000000000000000000000600052602160045260246000fd5b7f4e487b7100000000000000000000000000000000000000000000000000000000600052603260045260246000fd5b7f4e487b7100000000000000000000000000000000000000000000000000000000600052601160045260246000fd5b600062000e2f826200079e565b91507fffffffffffffffffffffffffffffffffffffffffffffffffffffffffffffffff820362000e645762000e6362000df3565b5b600182019050919050565b7f4e487b7100000000000000000000000000000000000000000000000000000000600052602260045260246000fd5b6000600282049050600182168062000eb757607f821691505b60208210810362000ecd5762000ecc62000e6f565b5b50919050565b612ca98062000ee36000396000f3fe6080604052600436106100c65760003560e01c80636e353a1d1161007f5780639c3962f0116100595780639c3962f014610289578063a217fddf146102a7578063cff0ab96146102d2578063d547741f146102ff576100da565b80636e353a1d1461020757806370143dea1461022357806391d148541461024c576100da565b806301ffc9a7146100e9578063248a9ca3146101265780632c5a0a13146101635780632f2ff15d1461018c57806336568abe146101b5578063397a8bab146101de576100da565b366100da576000801b6100d881610328565b005b6000801b6100e781610328565b005b3480156100f557600080fd5b50610110600480360381019061010b9190611842565b61033c565b60405161011d919061188a565b60405180910390f35b34801561013257600080fd5b5061014d600480360381019061014891906118db565b6103b6565b60405161015a9190611917565b60405180910390f35b34801561016f57600080fd5b5061018a60048036038101906101859190611956565b6103d5565b005b34801561019857600080fd5b506101b360048036038101906101ae91906119fd565b610956565b005b3480156101c157600080fd5b506101dc60048036038101906101d791906119fd565b610977565b005b3480156101ea57600080fd5b5061020560048036038101906102009190611a3d565b6109fa565b005b610221600480360381019061021c9190611aa8565b610a18565b005b34801561022f57600080fd5b5061024a60048036038101906102459190611b0b565b610ad6565b005b34801561025857600080fd5b50610273600480360381019061026e91906119fd565b610c3f565b604051610280919061188a565b60405180910390f35b610291610ca9565b60405161029e919061188a565b60405180910390f35b3480156102b357600080fd5b506102bc610e74565b6040516102c99190611917565b60405180910390f35b3480156102de57600080fd5b506102e7610e7b565b6040516102f693929190611f2f565b60405180910390f35b34801561030b57600080fd5b50610326600480360381019061032191906119fd565b611210565b005b61033981610334611231565b611239565b50565b60007f7965db0b000000000000000000000000000000000000000000000000000000007bffffffffffffffffffffffffffffffffffffffffffffffffffffffff1916827bffffffffffffffffffffffffffffffffffffffffffffffffffffffff191614806103af57506103ae826112d6565b5b9050919050565b6000806000838152602001908152602001600020600101549050919050565b6000801b6103e281610328565b81602001356001601201819055508160400160208101906104039190611a3d565b600160130160006101000a81548173ffffffffffffffffffffffffffffffffffffffff021916908373ffffffffffffffffffffffffffffffffffffffff1602179055508180600001906104569190611f7c565b60000160208101906104689190611a3d565b600160000160000160006101000a81548173ffffffffffffffffffffffffffffffffffffffff021916908373ffffffffffffffffffffffffffffffffffffffff1602179055508180600001906104be9190611f7c565b602001356001600001600101819055508180600001906104de9190611f7c565b604001356001600001600201819055508180600001906104fe9190611f7c565b60600160208101906105109190611aa8565b600160000160030160006101000a81548173ffffffffffffffffffffffffffffffffffffffff021916908373ffffffffffffffffffffffffffffffffffffffff1602179055508180600001906105669190611f7c565b60800160208101906105789190611a3d565b600160000160040160006101000a81548173ffffffffffffffffffffffffffffffffffffffff021916908373ffffffffffffffffffffffffffffffffffffffff1602179055508180600001906105ce9190611f7c565b60a00160208101906105e09190611a3d565b600160000160050160006101000a81548173ffffffffffffffffffffffffffffffffffffffff021916908373ffffffffffffffffffffffffffffffffffffffff1602179055508180600001906106369190611f7c565b60c001356001600001600601819055508180600001906106569190611f7c565b60e001356001600001600701819055508180600001906106769190611f7c565b6101000160208101906106899190611fca565b600160000160080160006101000a81548160ff021916908360178111156106b3576106b2611b8b565b5b02179055508180600001906106c89190611f7c565b61012001356001600001600901819055508180600001906106e99190611f7c565b61014001356001600001600a018190555081806000019061070a9190611f7c565b61016001356001600001600b018190555081806000019061072b9190611f7c565b61018001356001600001600c018190555081806000019061074c9190611f7c565b6101a001356001600001600d018190555081806000019061076d9190611f7c565b6101c001356001600001600e018190555081806000019061078e9190611f7c565b6101e001356001600001600f018190555060005b8280600001906107b29190611f7c565b8061020001906107c29190611ff7565b905081101561091b5760008380600001906107dd9190611f7c565b8061020001906107ed9190611ff7565b838181106107fe576107fd61205a565b5b905060400201600001359050600084806000019061081c9190611f7c565b80610200019061082c9190611ff7565b8481811061083d5761083c61205a565b5b90506040020160200160208101906108559190611aa8565b9050600160000160100160405180604001604052808481526020018373ffffffffffffffffffffffffffffffffffffffff1681525090806001815401808255809150506001900390600052602060002090600202016000909190919091506000820151816000015560208201518160010160006101000a81548173ffffffffffffffffffffffffffffffffffffffff021916908373ffffffffffffffffffffffffffffffffffffffff160217905550505050508080610913906120b8565b9150506107a2565b5081806000019061092c9190611f7c565b80610220019061093c9190612100565b6001600001601101919061095192919061173d565b505050565b61095f826103b6565b61096881610328565b6109728383611340565b505050565b61097f611231565b73ffffffffffffffffffffffffffffffffffffffff168173ffffffffffffffffffffffffffffffffffffffff16146109ec576040517f08c379a00000000000000000000000000000000000000000000000000000000081526004016109e3906121e6565b60405180910390fd5b6109f68282611420565b5050565b6000801b610a0781610328565b610a146000801b83611340565b5050565b6000801b610a2581610328565b60008273ffffffffffffffffffffffffffffffffffffffff1647604051610a4b90612237565b60006040518083038185875af1925050503d8060008114610a88576040519150601f19603f3d011682016040523d82523d6000602084013e610a8d565b606091505b5050905080610ad1576040517f08c379a0000000000000000000000000000000000000000000000000000000008152600401610ac890612298565b60405180910390fd5b505050565b6000801b610ae381610328565b3073ffffffffffffffffffffffffffffffffffffffff168473ffffffffffffffffffffffffffffffffffffffff16636352211e856040518263ffffffff1660e01b8152600401610b3391906122b8565b602060405180830381865afa158015610b50573d6000803e3d6000fd5b505050506040513d601f19601f82011682018060405250810190610b7491906122e8565b73ffffffffffffffffffffffffffffffffffffffff1614610bca576040517f08c379a0000000000000000000000000000000000000000000000000000000008152600401610bc190612361565b60405180910390fd5b8373ffffffffffffffffffffffffffffffffffffffff166323b872dd3084866040518463ffffffff1660e01b8152600401610c0793929190612381565b600060405180830381600087803b158015610c2157600080fd5b505af1158015610c35573d6000803e3d6000fd5b5050505050505050565b600080600084815260200190815260200160002060000160008373ffffffffffffffffffffffffffffffffffffffff1673ffffffffffffffffffffffffffffffffffffffff16815260200190815260200160002060009054906101000a900460ff16905092915050565b60008060001b610cb881610328565b600160120154471015610cca57600080fd5b6000600160130160009054906101000a900473ffffffffffffffffffffffffffffffffffffffff1673ffffffffffffffffffffffffffffffffffffffff166001601201546001600001604051602401610d2391906128b5565b6040516020818303038152906040527ffb0f3ee1000000000000000000000000000000000000000000000000000000007bffffffffffffffffffffffffffffffffffffffffffffffffffffffff19166020820180517bffffffffffffffffffffffffffffffffffffffffffffffffffffffff8381831617835250505050604051610dad9190612908565b60006040518083038185875af1925050503d8060008114610dea576040519150601f19603f3d011682016040523d82523d6000602084013e610def565b606091505b5050905080610e33576040517f08c379a0000000000000000000000000000000000000000000000000000000008152600401610e2a9061296b565b60405180910390fd5b7f83e31f5e5651d64b527802681a291e708d9fe310288785b1b816aa293d9b8fc66001604051610e63919061188a565b60405180910390a160019250505090565b6000801b81565b600180600001604051806102400160405290816000820160009054906101000a900473ffffffffffffffffffffffffffffffffffffffff1673ffffffffffffffffffffffffffffffffffffffff1673ffffffffffffffffffffffffffffffffffffffff16815260200160018201548152602001600282015481526020016003820160009054906101000a900473ffffffffffffffffffffffffffffffffffffffff1673ffffffffffffffffffffffffffffffffffffffff1673ffffffffffffffffffffffffffffffffffffffff1681526020016004820160009054906101000a900473ffffffffffffffffffffffffffffffffffffffff1673ffffffffffffffffffffffffffffffffffffffff1673ffffffffffffffffffffffffffffffffffffffff1681526020016005820160009054906101000a900473ffffffffffffffffffffffffffffffffffffffff1673ffffffffffffffffffffffffffffffffffffffff1673ffffffffffffffffffffffffffffffffffffffff16815260200160068201548152602001600782015481526020016008820160009054906101000a900460ff16601781111561103257611031611b8b565b5b601781111561104457611043611b8b565b5b815260200160098201548152602001600a8201548152602001600b8201548152602001600c8201548152602001600d8201548152602001600e8201548152602001600f820154815260200160108201805480602002602001604051908101604052809291908181526020016000905b828210156111455783829060005260206000209060020201604051806040016040529081600082015481526020016001820160009054906101000a900473ffffffffffffffffffffffffffffffffffffffff1673ffffffffffffffffffffffffffffffffffffffff1673ffffffffffffffffffffffffffffffffffffffff1681525050815260200190600101906110b3565b50505050815260200160118201805461115d906125c0565b80601f0160208091040260200160405190810160405280929190818152602001828054611189906125c0565b80156111d65780601f106111ab576101008083540402835291602001916111d6565b820191906000526020600020905b8154815290600101906020018083116111b957829003601f168201915b505050505081525050908060120154908060130160009054906101000a900473ffffffffffffffffffffffffffffffffffffffff16905083565b611219826103b6565b61122281610328565b61122c8383611420565b505050565b600033905090565b6112438282610c3f565b6112d2576112688173ffffffffffffffffffffffffffffffffffffffff166014611501565b6112768360001c6020611501565b604051602001611287929190612a6a565b6040516020818303038152906040526040517f08c379a00000000000000000000000000000000000000000000000000000000081526004016112c99190612add565b60405180910390fd5b5050565b60007f01ffc9a7000000000000000000000000000000000000000000000000000000007bffffffffffffffffffffffffffffffffffffffffffffffffffffffff1916827bffffffffffffffffffffffffffffffffffffffffffffffffffffffff1916149050919050565b61134a8282610c3f565b61141c57600160008084815260200190815260200160002060000160008373ffffffffffffffffffffffffffffffffffffffff1673ffffffffffffffffffffffffffffffffffffffff16815260200190815260200160002060006101000a81548160ff0219169083151502179055506113c1611231565b73ffffffffffffffffffffffffffffffffffffffff168173ffffffffffffffffffffffffffffffffffffffff16837f2f8788117e7eff1d82e926ec794901d17c78024a50270940304540a733656f0d60405160405180910390a45b5050565b61142a8282610c3f565b156114fd57600080600084815260200190815260200160002060000160008373ffffffffffffffffffffffffffffffffffffffff1673ffffffffffffffffffffffffffffffffffffffff16815260200190815260200160002060006101000a81548160ff0219169083151502179055506114a2611231565b73ffffffffffffffffffffffffffffffffffffffff168173ffffffffffffffffffffffffffffffffffffffff16837ff6391f5c32d9c69d2a47ea670b442974b53935d1edc7fd64eb21e047a839171b60405160405180910390a45b5050565b6060600060028360026115149190612aff565b61151e9190612b59565b67ffffffffffffffff81111561153757611536612baf565b5b6040519080825280601f01601f1916602001820160405280156115695781602001600182028036833780820191505090505b5090507f3000000000000000000000000000000000000000000000000000000000000000816000815181106115a1576115a061205a565b5b60200101907effffffffffffffffffffffffffffffffffffffffffffffffffffffffffffff1916908160001a9053507f7800000000000000000000000000000000000000000000000000000000000000816001815181106116055761160461205a565b5b60200101907effffffffffffffffffffffffffffffffffffffffffffffffffffffffffffff1916908160001a905350600060018460026116459190612aff565b61164f9190612b59565b90505b60018111156116ef577f3031323334353637383961626364656600000000000000000000000000000000600f8616601081106116915761169061205a565b5b1a60f81b8282815181106116a8576116a761205a565b5b60200101907effffffffffffffffffffffffffffffffffffffffffffffffffffffffffffff1916908160001a905350600485901c9450806116e890612bde565b9050611652565b5060008414611733576040517f08c379a000000000000000000000000000000000000000000000000000000000815260040161172a90612c53565b60405180910390fd5b8091505092915050565b828054611749906125c0565b90600052602060002090601f01602090048101928261176b57600085556117b2565b82601f1061178457803560ff19168380011785556117b2565b828001600101855582156117b2579182015b828111156117b1578235825591602001919060010190611796565b5b5090506117bf91906117c3565b5090565b5b808211156117dc5760008160009055506001016117c4565b5090565b600080fd5b600080fd5b60007fffffffff0000000000000000000000000000000000000000000000000000000082169050919050565b61181f816117ea565b811461182a57600080fd5b50565b60008135905061183c81611816565b92915050565b600060208284031215611858576118576117e0565b5b60006118668482850161182d565b91505092915050565b60008115159050919050565b6118848161186f565b82525050565b600060208201905061189f600083018461187b565b92915050565b6000819050919050565b6118b8816118a5565b81146118c357600080fd5b50565b6000813590506118d5816118af565b92915050565b6000602082840312156118f1576118f06117e0565b5b60006118ff848285016118c6565b91505092915050565b611911816118a5565b82525050565b600060208201905061192c6000830184611908565b92915050565b600080fd5b60006060828403121561194d5761194c611932565b5b81905092915050565b60006020828403121561196c5761196b6117e0565b5b600082013567ffffffffffffffff81111561198a576119896117e5565b5b61199684828501611937565b91505092915050565b600073ffffffffffffffffffffffffffffffffffffffff82169050919050565b60006119ca8261199f565b9050919050565b6119da816119bf565b81146119e557600080fd5b50565b6000813590506119f7816119d1565b92915050565b60008060408385031215611a1457611a136117e0565b5b6000611a22858286016118c6565b9250506020611a33858286016119e8565b9150509250929050565b600060208284031215611a5357611a526117e0565b5b6000611a61848285016119e8565b91505092915050565b6000611a758261199f565b9050919050565b611a8581611a6a565b8114611a9057600080fd5b50565b600081359050611aa281611a7c565b92915050565b600060208284031215611abe57611abd6117e0565b5b6000611acc84828501611a93565b91505092915050565b6000819050919050565b611ae881611ad5565b8114611af357600080fd5b50565b600081359050611b0581611adf565b92915050565b600080600060608486031215611b2457611b236117e0565b5b6000611b32868287016119e8565b9350506020611b4386828701611af6565b9250506040611b54868287016119e8565b9150509250925092565b611b67816119bf565b82525050565b611b7681611ad5565b82525050565b611b8581611a6a565b82525050565b7f4e487b7100000000000000000000000000000000000000000000000000000000600052602160045260246000fd5b60188110611bcb57611bca611b8b565b5b50565b6000819050611bdc82611bba565b919050565b6000611bec82611bce565b9050919050565b611bfc81611be1565b82525050565b611c0b816118a5565b82525050565b600081519050919050565b600082825260208201905092915050565b6000819050602082019050919050565b604082016000820151611c536000850182611b6d565b506020820151611c666020850182611b7c565b50505050565b6000611c788383611c3d565b60408301905092915050565b6000602082019050919050565b6000611c9c82611c11565b611ca68185611c1c565b9350611cb183611c2d565b8060005b83811015611ce2578151611cc98882611c6c565b9750611cd483611c84565b925050600181019050611cb5565b5085935050505092915050565b600081519050919050565b600082825260208201905092915050565b60005b83811015611d29578082015181840152602081019050611d0e565b83811115611d38576000848401525b50505050565b6000601f19601f8301169050919050565b6000611d5a82611cef565b611d648185611cfa565b9350611d74818560208601611d0b565b611d7d81611d3e565b840191505092915050565b600061024083016000830151611da16000860182611b5e565b506020830151611db46020860182611b6d565b506040830151611dc76040860182611b6d565b506060830151611dda6060860182611b7c565b506080830151611ded6080860182611b5e565b5060a0830151611e0060a0860182611b5e565b5060c0830151611e1360c0860182611b6d565b5060e0830151611e2660e0860182611b6d565b50610100830151611e3b610100860182611bf3565b50610120830151611e50610120860182611b6d565b50610140830151611e65610140860182611b6d565b50610160830151611e7a610160860182611c02565b50610180830151611e8f610180860182611b6d565b506101a0830151611ea46101a0860182611c02565b506101c0830151611eb96101c0860182611c02565b506101e0830151611ece6101e0860182611b6d565b50610200830151848203610200860152611ee88282611c91565b915050610220830151848203610220860152611f048282611d4f565b9150508091505092915050565b611f1a81611ad5565b82525050565b611f29816119bf565b82525050565b60006060820190508181036000830152611f498186611d88565b9050611f586020830185611f11565b611f656040830184611f20565b949350505050565b600080fd5b600080fd5b600080fd5b60008235600161024003833603038112611f9957611f98611f6d565b5b80830191505092915050565b60188110611fb257600080fd5b50565b600081359050611fc481611fa5565b92915050565b600060208284031215611fe057611fdf6117e0565b5b6000611fee84828501611fb5565b91505092915050565b6000808335600160200384360303811261201457612013611f6d565b5b80840192508235915067ffffffffffffffff82111561203657612035611f72565b5b60208301925060408202360383131561205257612051611f77565b5b509250929050565b7f4e487b7100000000000000000000000000000000000000000000000000000000600052603260045260246000fd5b7f4e487b7100000000000000000000000000000000000000000000000000000000600052601160045260246000fd5b60006120c382611ad5565b91507fffffffffffffffffffffffffffffffffffffffffffffffffffffffffffffffff82036120f5576120f4612089565b5b600182019050919050565b6000808335600160200384360303811261211d5761211c611f6d565b5b80840192508235915067ffffffffffffffff82111561213f5761213e611f72565b5b60208301925060018202360383131561215b5761215a611f77565b5b509250929050565b600082825260208201905092915050565b7f416363657373436f6e74726f6c3a2063616e206f6e6c792072656e6f756e636560008201527f20726f6c657320666f722073656c660000000000000000000000000000000000602082015250565b60006121d0602f83612163565b91506121db82612174565b604082019050919050565b600060208201905081810360008301526121ff816121c3565b9050919050565b600081905092915050565b50565b6000612221600083612206565b915061222c82612211565b600082019050919050565b600061224282612214565b9150819050919050565b7f4574686572207472616e73666572206661696c65642e00000000000000000000600082015250565b6000612282601683612163565b915061228d8261224c565b602082019050919050565b600060208201905081810360008301526122b181612275565b9050919050565b60006020820190506122cd6000830184611f11565b92915050565b6000815190506122e2816119d1565b92915050565b6000602082840312156122fe576122fd6117e0565b5b600061230c848285016122d3565b91505092915050565b7f436f6e747261637420646f6573206e6f74206f776e20746865204e4654000000600082015250565b600061234b601d83612163565b915061235682612315565b602082019050919050565b6000602082019050818103600083015261237a8161233e565b9050919050565b60006060820190506123966000830186611f20565b6123a36020830185611f20565b6123b06040830184611f11565b949350505050565b60008160001c9050919050565b600073ffffffffffffffffffffffffffffffffffffffff82169050919050565b60006123f86123f3836123b8565b6123c5565b9050919050565b6000819050919050565b600061241c612417836123b8565b6123ff565b9050919050565b600073ffffffffffffffffffffffffffffffffffffffff82169050919050565b6000612456612451836123b8565b612423565b9050919050565b600060ff82169050919050565b600061247d612478836123b8565b61245d565b9050919050565b6000819050919050565b60006124a161249c836123b8565b612484565b9050919050565b600081549050919050565b60008190508160005260206000209050919050565b6040820160008083015490506124dd81612409565b6124ea6000860182611b6d565b50600183015490506124fb81612443565b6125086020860182611b7c565b5050505050565b600061251b83836124c8565b60408301905092915050565b6000600282019050919050565b600061253f826124a8565b6125498185611c1c565b9350612554836124b3565b8060005b83811015612584578161256b888261250f565b975061257683612527565b925050600181019050612558565b5085935050505092915050565b7f4e487b7100000000000000000000000000000000000000000000000000000000600052602260045260246000fd5b600060028204905060018216806125d857607f821691505b6020821081036125eb576125ea612591565b5b50919050565b60008190508160005260206000209050919050565b60008154612613816125c0565b61261d8186611cfa565b94506001821660008114612638576001811461264a5761267d565b60ff198316865260208601935061267d565b612653856125f1565b60005b8381101561267557815481890152600182019150602081019050612656565b808801955050505b50505092915050565b60006102408301600080840154905061269e816123e5565b6126ab6000870182611b5e565b50600184015490506126bc81612409565b6126c96020870182611b6d565b50600284015490506126da81612409565b6126e76040870182611b6d565b50600384015490506126f881612443565b6127056060870182611b7c565b5060048401549050612716816123e5565b6127236080870182611b5e565b5060058401549050612734816123e5565b61274160a0870182611b5e565b506006840154905061275281612409565b61275f60c0870182611b6d565b506007840154905061277081612409565b61277d60e0870182611b6d565b506008840154905061278e8161246a565b61279c610100870182611bf3565b50600984015490506127ad81612409565b6127bb610120870182611b6d565b50600a84015490506127cc81612409565b6127da610140870182611b6d565b50600b84015490506127eb8161248e565b6127f9610160870182611c02565b50600c840154905061280a81612409565b612818610180870182611b6d565b50600d84015490506128298161248e565b6128376101a0870182611c02565b50600e84015490506128488161248e565b6128566101c0870182611c02565b50600f840154905061286781612409565b6128756101e0870182611b6d565b506010840185830361020087015261288d8382612534565b925050601184018583036102208701526128a78382612606565b925050819250505092915050565b600060208201905081810360008301526128cf8184612686565b905092915050565b60006128e282611cef565b6128ec8185612206565b93506128fc818560208601611d0b565b80840191505092915050565b600061291482846128d7565b915081905092915050565b7f5075726368617365204661696c65640000000000000000000000000000000000600082015250565b6000612955600f83612163565b91506129608261291f565b602082019050919050565b6000602082019050818103600083015261298481612948565b9050919050565b600081905092915050565b7f416363657373436f6e74726f6c3a206163636f756e7420000000000000000000600082015250565b60006129cc60178361298b565b91506129d782612996565b601782019050919050565b600081519050919050565b60006129f8826129e2565b612a02818561298b565b9350612a12818560208601611d0b565b80840191505092915050565b7f206973206d697373696e6720726f6c6520000000000000000000000000000000600082015250565b6000612a5460118361298b565b9150612a5f82612a1e565b601182019050919050565b6000612a75826129bf565b9150612a8182856129ed565b9150612a8c82612a47565b9150612a9882846129ed565b91508190509392505050565b6000612aaf826129e2565b612ab98185612163565b9350612ac9818560208601611d0b565b612ad281611d3e565b840191505092915050565b60006020820190508181036000830152612af78184612aa4565b905092915050565b6000612b0a82611ad5565b9150612b1583611ad5565b9250817fffffffffffffffffffffffffffffffffffffffffffffffffffffffffffffffff0483118215151615612b4e57612b4d612089565b5b828202905092915050565b6000612b6482611ad5565b9150612b6f83611ad5565b9250827fffffffffffffffffffffffffffffffffffffffffffffffffffffffffffffffff03821115612ba457612ba3612089565b5b828201905092915050565b7f4e487b7100000000000000000000000000000000000000000000000000000000600052604160045260246000fd5b6000612be982611ad5565b915060008203612bfc57612bfb612089565b5b600182039050919050565b7f537472696e67733a20686578206c656e67746820696e73756666696369656e74600082015250565b6000612c3d602083612163565b9150612c4882612c07565b602082019050919050565b60006020820190508181036000830152612c6c81612c30565b905091905056fea264697066735822122064581f17ff7b7d4fcb462ce207c342498cb79a32f6eb714d17eeb27588180da464736f6c634300080d0033",
  "linkReferences": {},
  "deployedLinkReferences": {}
}