{
  "_format": "hh-sol-artifact-1",
  "contractName": "MarketWrapper",
  "sourceName": "contracts/main/MarketWrapper.sol",
  "abi": [
    {
      "inputs": [
        {
          "internalType": "uint256",
          "name": "_buyNowPrice",
          "type": "uint256"
        },
        {
          "internalType": "address",
          "name": "_marketPlace",
          "type": "address"
        },
        {
          "internalType": "bytes",
          "name": "_transactionData",
          "type": "bytes"
        },
        {
          "internalType": "uint256",
          "name": "_gasEstimate",
          "type": "uint256"
        }
      ],
      "stateMutability": "nonpayable",
      "type": "constructor"
    },
    {
      "anonymous": false,
      "inputs": [
        {
          "indexed": false,
          "internalType": "bool",
          "name": "success",
          "type": "bool"
        }
      ],
      "name": "Purchased",
      "type": "event"
    },
    {
      "anonymous": false,
      "inputs": [
        {
          "indexed": true,
          "internalType": "bytes32",
          "name": "role",
          "type": "bytes32"
        },
        {
          "indexed": true,
          "internalType": "bytes32",
          "name": "previousAdminRole",
          "type": "bytes32"
        },
        {
          "indexed": true,
          "internalType": "bytes32",
          "name": "newAdminRole",
          "type": "bytes32"
        }
      ],
      "name": "RoleAdminChanged",
      "type": "event"
    },
    {
      "anonymous": false,
      "inputs": [
        {
          "indexed": true,
          "internalType": "bytes32",
          "name": "role",
          "type": "bytes32"
        },
        {
          "indexed": true,
          "internalType": "address",
          "name": "account",
          "type": "address"
        },
        {
          "indexed": true,
          "internalType": "address",
          "name": "sender",
          "type": "address"
        }
      ],
      "name": "RoleGranted",
      "type": "event"
    },
    {
      "anonymous": false,
      "inputs": [
        {
          "indexed": true,
          "internalType": "bytes32",
          "name": "role",
          "type": "bytes32"
        },
        {
          "indexed": true,
          "internalType": "address",
          "name": "account",
          "type": "address"
        },
        {
          "indexed": true,
          "internalType": "address",
          "name": "sender",
          "type": "address"
        }
      ],
      "name": "RoleRevoked",
      "type": "event"
    },
    {
      "stateMutability": "payable",
      "type": "fallback"
    },
    {
      "inputs": [],
      "name": "DEFAULT_ADMIN_ROLE",
      "outputs": [
        {
          "internalType": "bytes32",
          "name": "",
          "type": "bytes32"
        }
      ],
      "stateMutability": "view",
      "type": "function"
    },
    {
      "inputs": [],
      "name": "buyNow",
      "outputs": [
        {
          "internalType": "bool",
          "name": "",
          "type": "bool"
        }
      ],
      "stateMutability": "nonpayable",
      "type": "function"
    },
    {
      "inputs": [],
      "name": "buyNowPrice",
      "outputs": [
        {
          "internalType": "uint256",
          "name": "",
          "type": "uint256"
        }
      ],
      "stateMutability": "view",
      "type": "function"
    },
    {
      "inputs": [
        {
          "internalType": "address payable",
          "name": "to",
          "type": "address"
        }
      ],
      "name": "emergencyWithdrawal",
      "outputs": [],
      "stateMutability": "payable",
      "type": "function"
    },
    {
      "inputs": [],
      "name": "gasEstimate",
      "outputs": [
        {
          "internalType": "uint256",
          "name": "",
          "type": "uint256"
        }
      ],
      "stateMutability": "view",
      "type": "function"
    },
    {
      "inputs": [],
      "name": "getBuyNowPrice",
      "outputs": [
        {
          "internalType": "uint256",
          "name": "",
          "type": "uint256"
        }
      ],
      "stateMutability": "view",
      "type": "function"
    },
    {
      "inputs": [
        {
          "internalType": "bytes32",
          "name": "role",
          "type": "bytes32"
        }
      ],
      "name": "getRoleAdmin",
      "outputs": [
        {
          "internalType": "bytes32",
          "name": "",
          "type": "bytes32"
        }
      ],
      "stateMutability": "view",
      "type": "function"
    },
    {
      "inputs": [
        {
          "internalType": "address",
          "name": "to",
          "type": "address"
        }
      ],
      "name": "grantOwnerRole",
      "outputs": [],
      "stateMutability": "nonpayable",
      "type": "function"
    },
    {
      "inputs": [
        {
          "internalType": "bytes32",
          "name": "role",
          "type": "bytes32"
        },
        {
          "internalType": "address",
          "name": "account",
          "type": "address"
        }
      ],
      "name": "grantRole",
      "outputs": [],
      "stateMutability": "nonpayable",
      "type": "function"
    },
    {
      "inputs": [
        {
          "internalType": "bytes32",
          "name": "role",
          "type": "bytes32"
        },
        {
          "internalType": "address",
          "name": "account",
          "type": "address"
        }
      ],
      "name": "hasRole",
      "outputs": [
        {
          "internalType": "bool",
          "name": "",
          "type": "bool"
        }
      ],
      "stateMutability": "view",
      "type": "function"
    },
    {
      "inputs": [],
      "name": "marketPlace",
      "outputs": [
        {
          "internalType": "address",
          "name": "",
          "type": "address"
        }
      ],
      "stateMutability": "view",
      "type": "function"
    },
    {
      "inputs": [
        {
          "internalType": "bytes32",
          "name": "role",
          "type": "bytes32"
        },
        {
          "internalType": "address",
          "name": "account",
          "type": "address"
        }
      ],
      "name": "renounceRole",
      "outputs": [],
      "stateMutability": "nonpayable",
      "type": "function"
    },
    {
      "inputs": [
        {
          "internalType": "bytes32",
          "name": "role",
          "type": "bytes32"
        },
        {
          "internalType": "address",
          "name": "account",
          "type": "address"
        }
      ],
      "name": "revokeRole",
      "outputs": [],
      "stateMutability": "nonpayable",
      "type": "function"
    },
    {
      "inputs": [
        {
          "internalType": "uint256",
          "name": "_price",
          "type": "uint256"
        }
      ],
      "name": "setBuyNowPrice",
      "outputs": [],
      "stateMutability": "nonpayable",
      "type": "function"
    },
    {
      "inputs": [
        {
          "internalType": "address",
          "name": "_marketPlace",
          "type": "address"
        }
      ],
      "name": "setMarketPlace",
      "outputs": [],
      "stateMutability": "nonpayable",
      "type": "function"
    },
    {
      "inputs": [
        {
          "components": [
            {
              "internalType": "address",
              "name": "considerationToken",
              "type": "address"
            },
            {
              "internalType": "uint256",
              "name": "considerationIdentifier",
              "type": "uint256"
            },
            {
              "internalType": "uint256",
              "name": "considerationAmount",
              "type": "uint256"
            },
            {
              "internalType": "address payable",
              "name": "offerer",
              "type": "address"
            },
            {
              "internalType": "address",
              "name": "zone",
              "type": "address"
            },
            {
              "internalType": "address",
              "name": "offerToken",
              "type": "address"
            },
            {
              "internalType": "uint256",
              "name": "offerIdentifier",
              "type": "uint256"
            },
            {
              "internalType": "uint256",
              "name": "offerAmount",
              "type": "uint256"
            },
            {
              "internalType": "enum BasicOrderType",
              "name": "basicOrderType",
              "type": "uint8"
            },
            {
              "internalType": "uint256",
              "name": "startTime",
              "type": "uint256"
            },
            {
              "internalType": "uint256",
              "name": "endTime",
              "type": "uint256"
            },
            {
              "internalType": "bytes32",
              "name": "zoneHash",
              "type": "bytes32"
            },
            {
              "internalType": "uint256",
              "name": "salt",
              "type": "uint256"
            },
            {
              "internalType": "bytes32",
              "name": "offererConduitKey",
              "type": "bytes32"
            },
            {
              "internalType": "bytes32",
              "name": "fulfillerConduitKey",
              "type": "bytes32"
            },
            {
              "internalType": "uint256",
              "name": "totalOriginalAdditionalRecipients",
              "type": "uint256"
            },
            {
              "components": [
                {
                  "internalType": "uint256",
                  "name": "amount",
                  "type": "uint256"
                },
                {
                  "internalType": "address payable",
                  "name": "recipient",
                  "type": "address"
                }
              ],
              "internalType": "struct AdditionalRecipient[]",
              "name": "additionalRecipients",
              "type": "tuple[]"
            },
            {
              "internalType": "bytes",
              "name": "signature",
              "type": "bytes"
            }
          ],
          "internalType": "struct BasicOrderParameters",
          "name": "_transactionData",
          "type": "tuple"
        }
      ],
      "name": "setTransactionData",
      "outputs": [],
      "stateMutability": "nonpayable",
      "type": "function"
    },
    {
      "inputs": [
        {
          "internalType": "bytes4",
          "name": "interfaceId",
          "type": "bytes4"
        }
      ],
      "name": "supportsInterface",
      "outputs": [
        {
          "internalType": "bool",
          "name": "",
          "type": "bool"
        }
      ],
      "stateMutability": "view",
      "type": "function"
    },
    {
      "inputs": [],
      "name": "transactionData",
      "outputs": [
        {
          "internalType": "bytes",
          "name": "",
          "type": "bytes"
        }
      ],
      "stateMutability": "view",
      "type": "function"
    },
    {
      "stateMutability": "payable",
      "type": "receive"
    }
  ],
  "bytecode": "0x60806040523480156200001157600080fd5b506040516200281f3803806200281f83398181016040528101906200003791906200050e565b6200004c6000801b33620000be60201b60201c565b8360018190555082600260006101000a81548173ffffffffffffffffffffffffffffffffffffffff021916908373ffffffffffffffffffffffffffffffffffffffff1602179055508160039080519060200190620000ac92919062000221565b50806004819055505050505062000604565b620000d08282620001af60201b60201c565b620001ab57600160008084815260200190815260200160002060000160008373ffffffffffffffffffffffffffffffffffffffff1673ffffffffffffffffffffffffffffffffffffffff16815260200190815260200160002060006101000a81548160ff021916908315150217905550620001506200021960201b60201c565b73ffffffffffffffffffffffffffffffffffffffff168173ffffffffffffffffffffffffffffffffffffffff16837f2f8788117e7eff1d82e926ec794901d17c78024a50270940304540a733656f0d60405160405180910390a45b5050565b600080600084815260200190815260200160002060000160008373ffffffffffffffffffffffffffffffffffffffff1673ffffffffffffffffffffffffffffffffffffffff16815260200190815260200160002060009054906101000a900460ff16905092915050565b600033905090565b8280546200022f90620005ce565b90600052602060002090601f0160209004810192826200025357600085556200029f565b82601f106200026e57805160ff19168380011785556200029f565b828001600101855582156200029f579182015b828111156200029e57825182559160200191906001019062000281565b5b509050620002ae9190620002b2565b5090565b5b80821115620002cd576000816000905550600101620002b3565b5090565b6000604051905090565b600080fd5b600080fd5b6000819050919050565b620002fa81620002e5565b81146200030657600080fd5b50565b6000815190506200031a81620002ef565b92915050565b600073ffffffffffffffffffffffffffffffffffffffff82169050919050565b60006200034d8262000320565b9050919050565b6200035f8162000340565b81146200036b57600080fd5b50565b6000815190506200037f8162000354565b92915050565b600080fd5b600080fd5b6000601f19601f8301169050919050565b7f4e487b7100000000000000000000000000000000000000000000000000000000600052604160045260246000fd5b620003da826200038f565b810181811067ffffffffffffffff82111715620003fc57620003fb620003a0565b5b80604052505050565b600062000411620002d1565b90506200041f8282620003cf565b919050565b600067ffffffffffffffff821115620004425762000441620003a0565b5b6200044d826200038f565b9050602081019050919050565b60005b838110156200047a5780820151818401526020810190506200045d565b838111156200048a576000848401525b50505050565b6000620004a7620004a18462000424565b62000405565b905082815260208101848484011115620004c657620004c56200038a565b5b620004d38482856200045a565b509392505050565b600082601f830112620004f357620004f262000385565b5b81516200050584826020860162000490565b91505092915050565b600080600080608085870312156200052b576200052a620002db565b5b60006200053b8782880162000309565b94505060206200054e878288016200036e565b935050604085015167ffffffffffffffff811115620005725762000571620002e0565b5b6200058087828801620004db565b9250506060620005938782880162000309565b91505092959194509250565b7f4e487b7100000000000000000000000000000000000000000000000000000000600052602260045260246000fd5b60006002820490506001821680620005e757607f821691505b60208210811415620005fe57620005fd6200059f565b5b50919050565b61220b80620006146000396000f3fe60806040526004361061010d5760003560e01c8063539a2c6d116100955780639c3962f0116100645780639c3962f014610362578063a217fddf1461038d578063a5587088146103b8578063d547741f146103e3578063dd0b7ffe1461040c57610114565b8063539a2c6d146102b55780635ecbdce9146102de5780636e353a1d1461030957806391d148541461032557610114565b80632e25d2a6116100dc5780632e25d2a6146101e65780632f2ff15d1461021157806330568a8d1461023a57806336568abe14610263578063397a8bab1461028c57610114565b806301ffc9a714610116578063136449db14610153578063248a9ca31461017e578063278bd065146101bb57610114565b3661011457005b005b34801561012257600080fd5b5061013d6004803603810190610138919061102f565b610435565b60405161014a9190611077565b60405180910390f35b34801561015f57600080fd5b506101686104af565b60405161017591906110ab565b60405180910390f35b34801561018a57600080fd5b506101a560048036038101906101a091906110fc565b6104b5565b6040516101b29190611138565b60405180910390f35b3480156101c757600080fd5b506101d06104d4565b6040516101dd91906111ec565b60405180910390f35b3480156101f257600080fd5b506101fb610562565b604051610208919061124f565b60405180910390f35b34801561021d57600080fd5b5061023860048036038101906102339190611296565b610588565b005b34801561024657600080fd5b50610261600480360381019061025c91906112d6565b6105a9565b005b34801561026f57600080fd5b5061028a60048036038101906102859190611296565b6105fb565b005b34801561029857600080fd5b506102b360048036038101906102ae91906112d6565b61067e565b005b3480156102c157600080fd5b506102dc60048036038101906102d791906117c7565b61069c565b005b3480156102ea57600080fd5b506102f3610751565b60405161030091906110ab565b60405180910390f35b610323600480360381019061031e9190611810565b610757565b005b34801561033157600080fd5b5061034c60048036038101906103479190611296565b610815565b6040516103599190611077565b60405180910390f35b34801561036e57600080fd5b5061037761087f565b6040516103849190611077565b60405180910390f35b34801561039957600080fd5b506103a26109b6565b6040516103af9190611138565b60405180910390f35b3480156103c457600080fd5b506103cd6109bd565b6040516103da91906110ab565b60405180910390f35b3480156103ef57600080fd5b5061040a60048036038101906104059190611296565b6109c7565b005b34801561041857600080fd5b50610433600480360381019061042e919061183d565b6109e8565b005b60007f7965db0b000000000000000000000000000000000000000000000000000000007bffffffffffffffffffffffffffffffffffffffffffffffffffffffff1916827bffffffffffffffffffffffffffffffffffffffffffffffffffffffff191614806104a857506104a782610a00565b5b9050919050565b60045481565b6000806000838152602001908152602001600020600101549050919050565b600380546104e190611899565b80601f016020809104026020016040519081016040528092919081815260200182805461050d90611899565b801561055a5780601f1061052f5761010080835404028352916020019161055a565b820191906000526020600020905b81548152906001019060200180831161053d57829003601f168201915b505050505081565b600260009054906101000a900473ffffffffffffffffffffffffffffffffffffffff1681565b610591826104b5565b61059a81610a6a565b6105a48383610a7e565b505050565b6000801b6105b681610a6a565b81600260006101000a81548173ffffffffffffffffffffffffffffffffffffffff021916908373ffffffffffffffffffffffffffffffffffffffff1602179055505050565b610603610b5e565b73ffffffffffffffffffffffffffffffffffffffff168173ffffffffffffffffffffffffffffffffffffffff1614610670576040517f08c379a00000000000000000000000000000000000000000000000000000000081526004016106679061194e565b60405180910390fd5b61067a8282610b66565b5050565b6000801b61068b81610a6a565b6106986000801b83610a7e565b5050565b6000801b6106a981610a6a565b816040516024016106ba9190611cd2565b6040516020818303038152906040527fc105f051000000000000000000000000000000000000000000000000000000007bffffffffffffffffffffffffffffffffffffffffffffffffffffffff19166020820180517bffffffffffffffffffffffffffffffffffffffffffffffffffffffff83818316178352505050506003908051906020019061074c929190610f20565b505050565b60015481565b6000801b61076481610a6a565b60008273ffffffffffffffffffffffffffffffffffffffff164760405161078a90611d25565b60006040518083038185875af1925050503d80600081146107c7576040519150601f19603f3d011682016040523d82523d6000602084013e6107cc565b606091505b5050905080610810576040517f08c379a000000000000000000000000000000000000000000000000000000000815260040161080790611d86565b60405180910390fd5b505050565b600080600084815260200190815260200160002060000160008373ffffffffffffffffffffffffffffffffffffffff1673ffffffffffffffffffffffffffffffffffffffff16815260200190815260200160002060009054906101000a900460ff16905092915050565b60008060001b61088e81610a6a565b60015447101561089d57600080fd5b6000600260009054906101000a900473ffffffffffffffffffffffffffffffffffffffff1673ffffffffffffffffffffffffffffffffffffffff166001546004549060036040516108ee9190611e3a565b600060405180830381858888f193505050503d806000811461092c576040519150601f19603f3d011682016040523d82523d6000602084013e610931565b606091505b5050905080610975576040517f08c379a000000000000000000000000000000000000000000000000000000000815260040161096c90611e9d565b60405180910390fd5b7f83e31f5e5651d64b527802681a291e708d9fe310288785b1b816aa293d9b8fc660016040516109a59190611077565b60405180910390a160019250505090565b6000801b81565b6000600154905090565b6109d0826104b5565b6109d981610a6a565b6109e38383610b66565b505050565b6000801b6109f581610a6a565b816001819055505050565b60007f01ffc9a7000000000000000000000000000000000000000000000000000000007bffffffffffffffffffffffffffffffffffffffffffffffffffffffff1916827bffffffffffffffffffffffffffffffffffffffffffffffffffffffff1916149050919050565b610a7b81610a76610b5e565b610c47565b50565b610a888282610815565b610b5a57600160008084815260200190815260200160002060000160008373ffffffffffffffffffffffffffffffffffffffff1673ffffffffffffffffffffffffffffffffffffffff16815260200190815260200160002060006101000a81548160ff021916908315150217905550610aff610b5e565b73ffffffffffffffffffffffffffffffffffffffff168173ffffffffffffffffffffffffffffffffffffffff16837f2f8788117e7eff1d82e926ec794901d17c78024a50270940304540a733656f0d60405160405180910390a45b5050565b600033905090565b610b708282610815565b15610c4357600080600084815260200190815260200160002060000160008373ffffffffffffffffffffffffffffffffffffffff1673ffffffffffffffffffffffffffffffffffffffff16815260200190815260200160002060006101000a81548160ff021916908315150217905550610be8610b5e565b73ffffffffffffffffffffffffffffffffffffffff168173ffffffffffffffffffffffffffffffffffffffff16837ff6391f5c32d9c69d2a47ea670b442974b53935d1edc7fd64eb21e047a839171b60405160405180910390a45b5050565b610c518282610815565b610ce057610c768173ffffffffffffffffffffffffffffffffffffffff166014610ce4565b610c848360001c6020610ce4565b604051602001610c95929190611f9c565b6040516020818303038152906040526040517f08c379a0000000000000000000000000000000000000000000000000000000008152600401610cd7919061200f565b60405180910390fd5b5050565b606060006002836002610cf79190612060565b610d0191906120ba565b67ffffffffffffffff811115610d1a57610d19611308565b5b6040519080825280601f01601f191660200182016040528015610d4c5781602001600182028036833780820191505090505b5090507f300000000000000000000000000000000000000000000000000000000000000081600081518110610d8457610d83612110565b5b60200101907effffffffffffffffffffffffffffffffffffffffffffffffffffffffffffff1916908160001a9053507f780000000000000000000000000000000000000000000000000000000000000081600181518110610de857610de7612110565b5b60200101907effffffffffffffffffffffffffffffffffffffffffffffffffffffffffffff1916908160001a90535060006001846002610e289190612060565b610e3291906120ba565b90505b6001811115610ed2577f3031323334353637383961626364656600000000000000000000000000000000600f861660108110610e7457610e73612110565b5b1a60f81b828281518110610e8b57610e8a612110565b5b60200101907effffffffffffffffffffffffffffffffffffffffffffffffffffffffffffff1916908160001a905350600485901c945080610ecb9061213f565b9050610e35565b5060008414610f16576040517f08c379a0000000000000000000000000000000000000000000000000000000008152600401610f0d906121b5565b60405180910390fd5b8091505092915050565b828054610f2c90611899565b90600052602060002090601f016020900481019282610f4e5760008555610f95565b82601f10610f6757805160ff1916838001178555610f95565b82800160010185558215610f95579182015b82811115610f94578251825591602001919060010190610f79565b5b509050610fa29190610fa6565b5090565b5b80821115610fbf576000816000905550600101610fa7565b5090565b6000604051905090565b600080fd5b600080fd5b60007fffffffff0000000000000000000000000000000000000000000000000000000082169050919050565b61100c81610fd7565b811461101757600080fd5b50565b60008135905061102981611003565b92915050565b60006020828403121561104557611044610fcd565b5b60006110538482850161101a565b91505092915050565b60008115159050919050565b6110718161105c565b82525050565b600060208201905061108c6000830184611068565b92915050565b6000819050919050565b6110a581611092565b82525050565b60006020820190506110c0600083018461109c565b92915050565b6000819050919050565b6110d9816110c6565b81146110e457600080fd5b50565b6000813590506110f6816110d0565b92915050565b60006020828403121561111257611111610fcd565b5b6000611120848285016110e7565b91505092915050565b611132816110c6565b82525050565b600060208201905061114d6000830184611129565b92915050565b600081519050919050565b600082825260208201905092915050565b60005b8381101561118d578082015181840152602081019050611172565b8381111561119c576000848401525b50505050565b6000601f19601f8301169050919050565b60006111be82611153565b6111c8818561115e565b93506111d881856020860161116f565b6111e1816111a2565b840191505092915050565b6000602082019050818103600083015261120681846111b3565b905092915050565b600073ffffffffffffffffffffffffffffffffffffffff82169050919050565b60006112398261120e565b9050919050565b6112498161122e565b82525050565b60006020820190506112646000830184611240565b92915050565b6112738161122e565b811461127e57600080fd5b50565b6000813590506112908161126a565b92915050565b600080604083850312156112ad576112ac610fcd565b5b60006112bb858286016110e7565b92505060206112cc85828601611281565b9150509250929050565b6000602082840312156112ec576112eb610fcd565b5b60006112fa84828501611281565b91505092915050565b600080fd5b7f4e487b7100000000000000000000000000000000000000000000000000000000600052604160045260246000fd5b611340826111a2565b810181811067ffffffffffffffff8211171561135f5761135e611308565b5b80604052505050565b6000611372610fc3565b905061137e8282611337565b919050565b600080fd5b61139181611092565b811461139c57600080fd5b50565b6000813590506113ae81611388565b92915050565b60006113bf8261120e565b9050919050565b6113cf816113b4565b81146113da57600080fd5b50565b6000813590506113ec816113c6565b92915050565b601881106113ff57600080fd5b50565b600081359050611411816113f2565b92915050565b600080fd5b600067ffffffffffffffff82111561143757611436611308565b5b602082029050602081019050919050565b600080fd5b60006040828403121561146357611462611303565b5b61146d6040611368565b9050600061147d8482850161139f565b6000830152506020611491848285016113dd565b60208301525092915050565b60006114b06114ab8461141c565b611368565b905080838252602082019050604084028301858111156114d3576114d2611448565b5b835b818110156114fc57806114e8888261144d565b8452602084019350506040810190506114d5565b5050509392505050565b600082601f83011261151b5761151a611417565b5b813561152b84826020860161149d565b91505092915050565b600080fd5b600067ffffffffffffffff82111561155457611553611308565b5b61155d826111a2565b9050602081019050919050565b82818337600083830152505050565b600061158c61158784611539565b611368565b9050828152602081018484840111156115a8576115a7611534565b5b6115b384828561156a565b509392505050565b600082601f8301126115d0576115cf611417565b5b81356115e0848260208601611579565b91505092915050565b60006102408284031215611600576115ff611303565b5b61160b610240611368565b9050600061161b84828501611281565b600083015250602061162f8482850161139f565b60208301525060406116438482850161139f565b6040830152506060611657848285016113dd565b606083015250608061166b84828501611281565b60808301525060a061167f84828501611281565b60a08301525060c06116938482850161139f565b60c08301525060e06116a78482850161139f565b60e0830152506101006116bc84828501611402565b610100830152506101206116d28482850161139f565b610120830152506101406116e88482850161139f565b610140830152506101606116fe848285016110e7565b610160830152506101806117148482850161139f565b610180830152506101a061172a848285016110e7565b6101a0830152506101c0611740848285016110e7565b6101c0830152506101e06117568482850161139f565b6101e08301525061020082013567ffffffffffffffff81111561177c5761177b611383565b5b61178884828501611506565b6102008301525061022082013567ffffffffffffffff8111156117ae576117ad611383565b5b6117ba848285016115bb565b6102208301525092915050565b6000602082840312156117dd576117dc610fcd565b5b600082013567ffffffffffffffff8111156117fb576117fa610fd2565b5b611807848285016115e9565b91505092915050565b60006020828403121561182657611825610fcd565b5b6000611834848285016113dd565b91505092915050565b60006020828403121561185357611852610fcd565b5b60006118618482850161139f565b91505092915050565b7f4e487b7100000000000000000000000000000000000000000000000000000000600052602260045260246000fd5b600060028204905060018216806118b157607f821691505b602082108114156118c5576118c461186a565b5b50919050565b600082825260208201905092915050565b7f416363657373436f6e74726f6c3a2063616e206f6e6c792072656e6f756e636560008201527f20726f6c657320666f722073656c660000000000000000000000000000000000602082015250565b6000611938602f836118cb565b9150611943826118dc565b604082019050919050565b600060208201905081810360008301526119678161192b565b9050919050565b6119778161122e565b82525050565b61198681611092565b82525050565b611995816113b4565b82525050565b7f4e487b7100000000000000000000000000000000000000000000000000000000600052602160045260246000fd5b601881106119db576119da61199b565b5b50565b60008190506119ec826119ca565b919050565b60006119fc826119de565b9050919050565b611a0c816119f1565b82525050565b611a1b816110c6565b82525050565b600081519050919050565b600082825260208201905092915050565b6000819050602082019050919050565b604082016000820151611a63600085018261197d565b506020820151611a76602085018261198c565b50505050565b6000611a888383611a4d565b60408301905092915050565b6000602082019050919050565b6000611aac82611a21565b611ab68185611a2c565b9350611ac183611a3d565b8060005b83811015611af2578151611ad98882611a7c565b9750611ae483611a94565b925050600181019050611ac5565b5085935050505092915050565b600082825260208201905092915050565b6000611b1b82611153565b611b258185611aff565b9350611b3581856020860161116f565b611b3e816111a2565b840191505092915050565b600061024083016000830151611b62600086018261196e565b506020830151611b75602086018261197d565b506040830151611b88604086018261197d565b506060830151611b9b606086018261198c565b506080830151611bae608086018261196e565b5060a0830151611bc160a086018261196e565b5060c0830151611bd460c086018261197d565b5060e0830151611be760e086018261197d565b50610100830151611bfc610100860182611a03565b50610120830151611c1161012086018261197d565b50610140830151611c2661014086018261197d565b50610160830151611c3b610160860182611a12565b50610180830151611c5061018086018261197d565b506101a0830151611c656101a0860182611a12565b506101c0830151611c7a6101c0860182611a12565b506101e0830151611c8f6101e086018261197d565b50610200830151848203610200860152611ca98282611aa1565b915050610220830151848203610220860152611cc58282611b10565b9150508091505092915050565b60006020820190508181036000830152611cec8184611b49565b905092915050565b600081905092915050565b50565b6000611d0f600083611cf4565b9150611d1a82611cff565b600082019050919050565b6000611d3082611d02565b9150819050919050565b7f4574686572207472616e73666572206661696c65642e00000000000000000000600082015250565b6000611d706016836118cb565b9150611d7b82611d3a565b602082019050919050565b60006020820190508181036000830152611d9f81611d63565b9050919050565b60008190508160005260206000209050919050565b60008154611dc881611899565b611dd28186611cf4565b94506001821660008114611ded5760018114611dfe57611e31565b60ff19831686528186019350611e31565b611e0785611da6565b60005b83811015611e2957815481890152600182019150602081019050611e0a565b838801955050505b50505092915050565b6000611e468284611dbb565b915081905092915050565b7f5075726368617365204661696c65640000000000000000000000000000000000600082015250565b6000611e87600f836118cb565b9150611e9282611e51565b602082019050919050565b60006020820190508181036000830152611eb681611e7a565b9050919050565b600081905092915050565b7f416363657373436f6e74726f6c3a206163636f756e7420000000000000000000600082015250565b6000611efe601783611ebd565b9150611f0982611ec8565b601782019050919050565b600081519050919050565b6000611f2a82611f14565b611f348185611ebd565b9350611f4481856020860161116f565b80840191505092915050565b7f206973206d697373696e6720726f6c6520000000000000000000000000000000600082015250565b6000611f86601183611ebd565b9150611f9182611f50565b601182019050919050565b6000611fa782611ef1565b9150611fb38285611f1f565b9150611fbe82611f79565b9150611fca8284611f1f565b91508190509392505050565b6000611fe182611f14565b611feb81856118cb565b9350611ffb81856020860161116f565b612004816111a2565b840191505092915050565b600060208201905081810360008301526120298184611fd6565b905092915050565b7f4e487b7100000000000000000000000000000000000000000000000000000000600052601160045260246000fd5b600061206b82611092565b915061207683611092565b9250817fffffffffffffffffffffffffffffffffffffffffffffffffffffffffffffffff04831182151516156120af576120ae612031565b5b828202905092915050565b60006120c582611092565b91506120d083611092565b9250827fffffffffffffffffffffffffffffffffffffffffffffffffffffffffffffffff0382111561210557612104612031565b5b828201905092915050565b7f4e487b7100000000000000000000000000000000000000000000000000000000600052603260045260246000fd5b600061214a82611092565b9150600082141561215e5761215d612031565b5b600182039050919050565b7f537472696e67733a20686578206c656e67746820696e73756666696369656e74600082015250565b600061219f6020836118cb565b91506121aa82612169565b602082019050919050565b600060208201905081810360008301526121ce81612192565b905091905056fea264697066735822122065d4bb0e96dd583fd7b887cc810da858d04f3eb13652f51bde3663207fcaea2464736f6c63430008090033",
  "linkReferences": {},
  "deployedLinkReferences": {}
}