{
  "_format": "hh-sol-artifact-1",
  "contractName": "MarketWrapper",
  "sourceName": "contracts/main/MarketWrapper.sol",
  "abi": [
    {
      "inputs": [
        {
          "internalType": "uint256",
          "name": "_buyNowPrice",
          "type": "uint256"
        },
        {
          "internalType": "address",
          "name": "_marketPlace",
          "type": "address"
        },
        {
          "internalType": "string",
          "name": "_ethTransactionData",
          "type": "string"
        }
      ],
      "stateMutability": "nonpayable",
      "type": "constructor"
    },
    {
      "anonymous": false,
      "inputs": [
        {
          "indexed": false,
          "internalType": "bool",
          "name": "success",
          "type": "bool"
        }
      ],
      "name": "Purchased",
      "type": "event"
    },
    {
      "anonymous": false,
      "inputs": [
        {
          "indexed": true,
          "internalType": "bytes32",
          "name": "role",
          "type": "bytes32"
        },
        {
          "indexed": true,
          "internalType": "bytes32",
          "name": "previousAdminRole",
          "type": "bytes32"
        },
        {
          "indexed": true,
          "internalType": "bytes32",
          "name": "newAdminRole",
          "type": "bytes32"
        }
      ],
      "name": "RoleAdminChanged",
      "type": "event"
    },
    {
      "anonymous": false,
      "inputs": [
        {
          "indexed": true,
          "internalType": "bytes32",
          "name": "role",
          "type": "bytes32"
        },
        {
          "indexed": true,
          "internalType": "address",
          "name": "account",
          "type": "address"
        },
        {
          "indexed": true,
          "internalType": "address",
          "name": "sender",
          "type": "address"
        }
      ],
      "name": "RoleGranted",
      "type": "event"
    },
    {
      "anonymous": false,
      "inputs": [
        {
          "indexed": true,
          "internalType": "bytes32",
          "name": "role",
          "type": "bytes32"
        },
        {
          "indexed": true,
          "internalType": "address",
          "name": "account",
          "type": "address"
        },
        {
          "indexed": true,
          "internalType": "address",
          "name": "sender",
          "type": "address"
        }
      ],
      "name": "RoleRevoked",
      "type": "event"
    },
    {
      "stateMutability": "payable",
      "type": "fallback"
    },
    {
      "inputs": [],
      "name": "DEFAULT_ADMIN_ROLE",
      "outputs": [
        {
          "internalType": "bytes32",
          "name": "",
          "type": "bytes32"
        }
      ],
      "stateMutability": "view",
      "type": "function"
    },
    {
      "inputs": [],
      "name": "buyNow",
      "outputs": [
        {
          "internalType": "bool",
          "name": "",
          "type": "bool"
        }
      ],
      "stateMutability": "payable",
      "type": "function"
    },
    {
      "inputs": [],
      "name": "buyNowPrice",
      "outputs": [
        {
          "internalType": "uint256",
          "name": "",
          "type": "uint256"
        }
      ],
      "stateMutability": "view",
      "type": "function"
    },
    {
      "inputs": [
        {
          "internalType": "address payable",
          "name": "to",
          "type": "address"
        }
      ],
      "name": "emergencyWithdrawal",
      "outputs": [],
      "stateMutability": "payable",
      "type": "function"
    },
    {
      "inputs": [],
      "name": "ethTransactionData",
      "outputs": [
        {
          "internalType": "string",
          "name": "",
          "type": "string"
        }
      ],
      "stateMutability": "view",
      "type": "function"
    },
    {
      "inputs": [],
      "name": "getBuyNowPrice",
      "outputs": [
        {
          "internalType": "uint256",
          "name": "",
          "type": "uint256"
        }
      ],
      "stateMutability": "view",
      "type": "function"
    },
    {
      "inputs": [
        {
          "internalType": "bytes32",
          "name": "role",
          "type": "bytes32"
        }
      ],
      "name": "getRoleAdmin",
      "outputs": [
        {
          "internalType": "bytes32",
          "name": "",
          "type": "bytes32"
        }
      ],
      "stateMutability": "view",
      "type": "function"
    },
    {
      "inputs": [
        {
          "internalType": "address",
          "name": "to",
          "type": "address"
        }
      ],
      "name": "grantOwnerRole",
      "outputs": [],
      "stateMutability": "nonpayable",
      "type": "function"
    },
    {
      "inputs": [
        {
          "internalType": "bytes32",
          "name": "role",
          "type": "bytes32"
        },
        {
          "internalType": "address",
          "name": "account",
          "type": "address"
        }
      ],
      "name": "grantRole",
      "outputs": [],
      "stateMutability": "nonpayable",
      "type": "function"
    },
    {
      "inputs": [
        {
          "internalType": "bytes32",
          "name": "role",
          "type": "bytes32"
        },
        {
          "internalType": "address",
          "name": "account",
          "type": "address"
        }
      ],
      "name": "hasRole",
      "outputs": [
        {
          "internalType": "bool",
          "name": "",
          "type": "bool"
        }
      ],
      "stateMutability": "view",
      "type": "function"
    },
    {
      "inputs": [],
      "name": "marketPlace",
      "outputs": [
        {
          "internalType": "address",
          "name": "",
          "type": "address"
        }
      ],
      "stateMutability": "view",
      "type": "function"
    },
    {
      "inputs": [
        {
          "internalType": "bytes32",
          "name": "role",
          "type": "bytes32"
        },
        {
          "internalType": "address",
          "name": "account",
          "type": "address"
        }
      ],
      "name": "renounceRole",
      "outputs": [],
      "stateMutability": "nonpayable",
      "type": "function"
    },
    {
      "inputs": [
        {
          "internalType": "bytes32",
          "name": "role",
          "type": "bytes32"
        },
        {
          "internalType": "address",
          "name": "account",
          "type": "address"
        }
      ],
      "name": "revokeRole",
      "outputs": [],
      "stateMutability": "nonpayable",
      "type": "function"
    },
    {
      "inputs": [
        {
          "internalType": "uint256",
          "name": "_price",
          "type": "uint256"
        }
      ],
      "name": "setBuyNowPrice",
      "outputs": [],
      "stateMutability": "nonpayable",
      "type": "function"
    },
    {
      "inputs": [
        {
          "internalType": "string",
          "name": "_ethTransactionData",
          "type": "string"
        }
      ],
      "name": "setEthTransactionData",
      "outputs": [],
      "stateMutability": "nonpayable",
      "type": "function"
    },
    {
      "inputs": [
        {
          "internalType": "address",
          "name": "_marketPlace",
          "type": "address"
        }
      ],
      "name": "setMarketPlace",
      "outputs": [],
      "stateMutability": "nonpayable",
      "type": "function"
    },
    {
      "inputs": [
        {
          "internalType": "bytes4",
          "name": "interfaceId",
          "type": "bytes4"
        }
      ],
      "name": "supportsInterface",
      "outputs": [
        {
          "internalType": "bool",
          "name": "",
          "type": "bool"
        }
      ],
      "stateMutability": "view",
      "type": "function"
    },
    {
      "stateMutability": "payable",
      "type": "receive"
    }
  ],
  "bytecode": "0x60806040523480156200001157600080fd5b506040516200200338038062002003833981810160405281019062000037919062000506565b6200004c6000801b33620000b660201b60201c565b8260018190555081600260006101000a81548173ffffffffffffffffffffffffffffffffffffffff021916908373ffffffffffffffffffffffffffffffffffffffff1602179055508060039080519060200190620000ac92919062000219565b50505050620005e6565b620000c88282620001a760201b60201c565b620001a357600160008084815260200190815260200160002060000160008373ffffffffffffffffffffffffffffffffffffffff1673ffffffffffffffffffffffffffffffffffffffff16815260200190815260200160002060006101000a81548160ff021916908315150217905550620001486200021160201b60201c565b73ffffffffffffffffffffffffffffffffffffffff168173ffffffffffffffffffffffffffffffffffffffff16837f2f8788117e7eff1d82e926ec794901d17c78024a50270940304540a733656f0d60405160405180910390a45b5050565b600080600084815260200190815260200160002060000160008373ffffffffffffffffffffffffffffffffffffffff1673ffffffffffffffffffffffffffffffffffffffff16815260200190815260200160002060009054906101000a900460ff16905092915050565b600033905090565b8280546200022790620005b0565b90600052602060002090601f0160209004810192826200024b576000855562000297565b82601f106200026657805160ff191683800117855562000297565b8280016001018555821562000297579182015b828111156200029657825182559160200191906001019062000279565b5b509050620002a69190620002aa565b5090565b5b80821115620002c5576000816000905550600101620002ab565b5090565b6000604051905090565b600080fd5b600080fd5b6000819050919050565b620002f281620002dd565b8114620002fe57600080fd5b50565b6000815190506200031281620002e7565b92915050565b600073ffffffffffffffffffffffffffffffffffffffff82169050919050565b6000620003458262000318565b9050919050565b620003578162000338565b81146200036357600080fd5b50565b60008151905062000377816200034c565b92915050565b600080fd5b600080fd5b6000601f19601f8301169050919050565b7f4e487b7100000000000000000000000000000000000000000000000000000000600052604160045260246000fd5b620003d28262000387565b810181811067ffffffffffffffff82111715620003f457620003f362000398565b5b80604052505050565b600062000409620002c9565b9050620004178282620003c7565b919050565b600067ffffffffffffffff8211156200043a576200043962000398565b5b620004458262000387565b9050602081019050919050565b60005b838110156200047257808201518184015260208101905062000455565b8381111562000482576000848401525b50505050565b60006200049f62000499846200041c565b620003fd565b905082815260208101848484011115620004be57620004bd62000382565b5b620004cb84828562000452565b509392505050565b600082601f830112620004eb57620004ea6200037d565b5b8151620004fd84826020860162000488565b91505092915050565b600080600060608486031215620005225762000521620002d3565b5b6000620005328682870162000301565b9350506020620005458682870162000366565b925050604084015167ffffffffffffffff811115620005695762000568620002d8565b5b6200057786828701620004d3565b9150509250925092565b7f4e487b7100000000000000000000000000000000000000000000000000000000600052602260045260246000fd5b60006002820490506001821680620005c957607f821691505b60208210811415620005e057620005df62000581565b5b50919050565b611a0d80620005f66000396000f3fe6080604052600436106101025760003560e01c80636e353a1d11610095578063a217fddf11610064578063a217fddf14610321578063a55870881461034c578063b4c5a66b14610377578063d547741f146103a0578063dd0b7ffe146103c957610109565b80636e353a1d1461027f578063768243db1461029b57806391d14854146102c65780639c3962f01461030357610109565b806330568a8d116100d157806330568a8d146101d957806336568abe14610202578063397a8bab1461022b5780635ecbdce91461025457610109565b806301ffc9a71461010b578063248a9ca3146101485780632e25d2a6146101855780632f2ff15d146101b057610109565b3661010957005b005b34801561011757600080fd5b50610132600480360381019061012d9190610f53565b6103f2565b60405161013f9190610f9b565b60405180910390f35b34801561015457600080fd5b5061016f600480360381019061016a9190610fec565b61046c565b60405161017c9190611028565b60405180910390f35b34801561019157600080fd5b5061019a61048b565b6040516101a79190611084565b60405180910390f35b3480156101bc57600080fd5b506101d760048036038101906101d291906110cb565b6104b1565b005b3480156101e557600080fd5b5061020060048036038101906101fb919061110b565b6104d2565b005b34801561020e57600080fd5b50610229600480360381019061022491906110cb565b610524565b005b34801561023757600080fd5b50610252600480360381019061024d919061110b565b6105a7565b005b34801561026057600080fd5b506102696105c5565b6040516102769190611151565b60405180910390f35b610299600480360381019061029491906111aa565b6105cb565b005b3480156102a757600080fd5b506102b0610689565b6040516102bd9190611270565b60405180910390f35b3480156102d257600080fd5b506102ed60048036038101906102e891906110cb565b610717565b6040516102fa9190610f9b565b60405180910390f35b61030b610781565b6040516103189190610f9b565b60405180910390f35b34801561032d57600080fd5b506103366108b2565b6040516103439190611028565b60405180910390f35b34801561035857600080fd5b506103616108b9565b60405161036e9190611151565b60405180910390f35b34801561038357600080fd5b5061039e600480360381019061039991906113c7565b6108c3565b005b3480156103ac57600080fd5b506103c760048036038101906103c291906110cb565b6108eb565b005b3480156103d557600080fd5b506103f060048036038101906103eb919061143c565b61090c565b005b60007f7965db0b000000000000000000000000000000000000000000000000000000007bffffffffffffffffffffffffffffffffffffffffffffffffffffffff1916827bffffffffffffffffffffffffffffffffffffffffffffffffffffffff19161480610465575061046482610924565b5b9050919050565b6000806000838152602001908152602001600020600101549050919050565b600260009054906101000a900473ffffffffffffffffffffffffffffffffffffffff1681565b6104ba8261046c565b6104c38161098e565b6104cd83836109a2565b505050565b6000801b6104df8161098e565b81600260006101000a81548173ffffffffffffffffffffffffffffffffffffffff021916908373ffffffffffffffffffffffffffffffffffffffff1602179055505050565b61052c610a82565b73ffffffffffffffffffffffffffffffffffffffff168173ffffffffffffffffffffffffffffffffffffffff1614610599576040517f08c379a0000000000000000000000000000000000000000000000000000000008152600401610590906114db565b60405180910390fd5b6105a38282610a8a565b5050565b6000801b6105b48161098e565b6105c16000801b836109a2565b5050565b60015481565b6000801b6105d88161098e565b60008273ffffffffffffffffffffffffffffffffffffffff16476040516105fe9061152c565b60006040518083038185875af1925050503d806000811461063b576040519150601f19603f3d011682016040523d82523d6000602084013e610640565b606091505b5050905080610684576040517f08c379a000000000000000000000000000000000000000000000000000000000815260040161067b9061158d565b60405180910390fd5b505050565b60038054610696906115dc565b80601f01602080910402602001604051908101604052809291908181526020018280546106c2906115dc565b801561070f5780601f106106e45761010080835404028352916020019161070f565b820191906000526020600020905b8154815290600101906020018083116106f257829003601f168201915b505050505081565b600080600084815260200190815260200160002060000160008373ffffffffffffffffffffffffffffffffffffffff1673ffffffffffffffffffffffffffffffffffffffff16815260200190815260200160002060009054906101000a900460ff16905092915050565b60008060001b6107908161098e565b600154471461079e57600080fd5b6000600260009054906101000a900473ffffffffffffffffffffffffffffffffffffffff1673ffffffffffffffffffffffffffffffffffffffff1660015460036040516107eb91906116a2565b60006040518083038185875af1925050503d8060008114610828576040519150601f19603f3d011682016040523d82523d6000602084013e61082d565b606091505b5050905080610871576040517f08c379a000000000000000000000000000000000000000000000000000000000815260040161086890611705565b60405180910390fd5b7f83e31f5e5651d64b527802681a291e708d9fe310288785b1b816aa293d9b8fc660016040516108a19190610f9b565b60405180910390a160019250505090565b6000801b81565b6000600154905090565b6000801b6108d08161098e565b81600390805190602001906108e6929190610e44565b505050565b6108f48261046c565b6108fd8161098e565b6109078383610a8a565b505050565b6000801b6109198161098e565b816001819055505050565b60007f01ffc9a7000000000000000000000000000000000000000000000000000000007bffffffffffffffffffffffffffffffffffffffffffffffffffffffff1916827bffffffffffffffffffffffffffffffffffffffffffffffffffffffff1916149050919050565b61099f8161099a610a82565b610b6b565b50565b6109ac8282610717565b610a7e57600160008084815260200190815260200160002060000160008373ffffffffffffffffffffffffffffffffffffffff1673ffffffffffffffffffffffffffffffffffffffff16815260200190815260200160002060006101000a81548160ff021916908315150217905550610a23610a82565b73ffffffffffffffffffffffffffffffffffffffff168173ffffffffffffffffffffffffffffffffffffffff16837f2f8788117e7eff1d82e926ec794901d17c78024a50270940304540a733656f0d60405160405180910390a45b5050565b600033905090565b610a948282610717565b15610b6757600080600084815260200190815260200160002060000160008373ffffffffffffffffffffffffffffffffffffffff1673ffffffffffffffffffffffffffffffffffffffff16815260200190815260200160002060006101000a81548160ff021916908315150217905550610b0c610a82565b73ffffffffffffffffffffffffffffffffffffffff168173ffffffffffffffffffffffffffffffffffffffff16837ff6391f5c32d9c69d2a47ea670b442974b53935d1edc7fd64eb21e047a839171b60405160405180910390a45b5050565b610b758282610717565b610c0457610b9a8173ffffffffffffffffffffffffffffffffffffffff166014610c08565b610ba88360001c6020610c08565b604051602001610bb99291906117f9565b6040516020818303038152906040526040517f08c379a0000000000000000000000000000000000000000000000000000000008152600401610bfb9190611270565b60405180910390fd5b5050565b606060006002836002610c1b9190611862565b610c2591906118bc565b67ffffffffffffffff811115610c3e57610c3d61129c565b5b6040519080825280601f01601f191660200182016040528015610c705781602001600182028036833780820191505090505b5090507f300000000000000000000000000000000000000000000000000000000000000081600081518110610ca857610ca7611912565b5b60200101907effffffffffffffffffffffffffffffffffffffffffffffffffffffffffffff1916908160001a9053507f780000000000000000000000000000000000000000000000000000000000000081600181518110610d0c57610d0b611912565b5b60200101907effffffffffffffffffffffffffffffffffffffffffffffffffffffffffffff1916908160001a90535060006001846002610d4c9190611862565b610d5691906118bc565b90505b6001811115610df6577f3031323334353637383961626364656600000000000000000000000000000000600f861660108110610d9857610d97611912565b5b1a60f81b828281518110610daf57610dae611912565b5b60200101907effffffffffffffffffffffffffffffffffffffffffffffffffffffffffffff1916908160001a905350600485901c945080610def90611941565b9050610d59565b5060008414610e3a576040517f08c379a0000000000000000000000000000000000000000000000000000000008152600401610e31906119b7565b60405180910390fd5b8091505092915050565b828054610e50906115dc565b90600052602060002090601f016020900481019282610e725760008555610eb9565b82601f10610e8b57805160ff1916838001178555610eb9565b82800160010185558215610eb9579182015b82811115610eb8578251825591602001919060010190610e9d565b5b509050610ec69190610eca565b5090565b5b80821115610ee3576000816000905550600101610ecb565b5090565b6000604051905090565b600080fd5b600080fd5b60007fffffffff0000000000000000000000000000000000000000000000000000000082169050919050565b610f3081610efb565b8114610f3b57600080fd5b50565b600081359050610f4d81610f27565b92915050565b600060208284031215610f6957610f68610ef1565b5b6000610f7784828501610f3e565b91505092915050565b60008115159050919050565b610f9581610f80565b82525050565b6000602082019050610fb06000830184610f8c565b92915050565b6000819050919050565b610fc981610fb6565b8114610fd457600080fd5b50565b600081359050610fe681610fc0565b92915050565b60006020828403121561100257611001610ef1565b5b600061101084828501610fd7565b91505092915050565b61102281610fb6565b82525050565b600060208201905061103d6000830184611019565b92915050565b600073ffffffffffffffffffffffffffffffffffffffff82169050919050565b600061106e82611043565b9050919050565b61107e81611063565b82525050565b60006020820190506110996000830184611075565b92915050565b6110a881611063565b81146110b357600080fd5b50565b6000813590506110c58161109f565b92915050565b600080604083850312156110e2576110e1610ef1565b5b60006110f085828601610fd7565b9250506020611101858286016110b6565b9150509250929050565b60006020828403121561112157611120610ef1565b5b600061112f848285016110b6565b91505092915050565b6000819050919050565b61114b81611138565b82525050565b60006020820190506111666000830184611142565b92915050565b600061117782611043565b9050919050565b6111878161116c565b811461119257600080fd5b50565b6000813590506111a48161117e565b92915050565b6000602082840312156111c0576111bf610ef1565b5b60006111ce84828501611195565b91505092915050565b600081519050919050565b600082825260208201905092915050565b60005b838110156112115780820151818401526020810190506111f6565b83811115611220576000848401525b50505050565b6000601f19601f8301169050919050565b6000611242826111d7565b61124c81856111e2565b935061125c8185602086016111f3565b61126581611226565b840191505092915050565b6000602082019050818103600083015261128a8184611237565b905092915050565b600080fd5b600080fd5b7f4e487b7100000000000000000000000000000000000000000000000000000000600052604160045260246000fd5b6112d482611226565b810181811067ffffffffffffffff821117156112f3576112f261129c565b5b80604052505050565b6000611306610ee7565b905061131282826112cb565b919050565b600067ffffffffffffffff8211156113325761133161129c565b5b61133b82611226565b9050602081019050919050565b82818337600083830152505050565b600061136a61136584611317565b6112fc565b90508281526020810184848401111561138657611385611297565b5b611391848285611348565b509392505050565b600082601f8301126113ae576113ad611292565b5b81356113be848260208601611357565b91505092915050565b6000602082840312156113dd576113dc610ef1565b5b600082013567ffffffffffffffff8111156113fb576113fa610ef6565b5b61140784828501611399565b91505092915050565b61141981611138565b811461142457600080fd5b50565b60008135905061143681611410565b92915050565b60006020828403121561145257611451610ef1565b5b600061146084828501611427565b91505092915050565b7f416363657373436f6e74726f6c3a2063616e206f6e6c792072656e6f756e636560008201527f20726f6c657320666f722073656c660000000000000000000000000000000000602082015250565b60006114c5602f836111e2565b91506114d082611469565b604082019050919050565b600060208201905081810360008301526114f4816114b8565b9050919050565b600081905092915050565b50565b60006115166000836114fb565b915061152182611506565b600082019050919050565b600061153782611509565b9150819050919050565b7f4574686572207472616e73666572206661696c65642e00000000000000000000600082015250565b60006115776016836111e2565b915061158282611541565b602082019050919050565b600060208201905081810360008301526115a68161156a565b9050919050565b7f4e487b7100000000000000000000000000000000000000000000000000000000600052602260045260246000fd5b600060028204905060018216806115f457607f821691505b60208210811415611608576116076115ad565b5b50919050565b60008190508160005260206000209050919050565b60008154611630816115dc565b61163a81866114fb565b94506001821660008114611655576001811461166657611699565b60ff19831686528186019350611699565b61166f8561160e565b60005b8381101561169157815481890152600182019150602081019050611672565b838801955050505b50505092915050565b60006116ae8284611623565b915081905092915050565b7f5075726368617365204661696c65640000000000000000000000000000000000600082015250565b60006116ef600f836111e2565b91506116fa826116b9565b602082019050919050565b6000602082019050818103600083015261171e816116e2565b9050919050565b600081905092915050565b7f416363657373436f6e74726f6c3a206163636f756e7420000000000000000000600082015250565b6000611766601783611725565b915061177182611730565b601782019050919050565b6000611787826111d7565b6117918185611725565b93506117a18185602086016111f3565b80840191505092915050565b7f206973206d697373696e6720726f6c6520000000000000000000000000000000600082015250565b60006117e3601183611725565b91506117ee826117ad565b601182019050919050565b600061180482611759565b9150611810828561177c565b915061181b826117d6565b9150611827828461177c565b91508190509392505050565b7f4e487b7100000000000000000000000000000000000000000000000000000000600052601160045260246000fd5b600061186d82611138565b915061187883611138565b9250817fffffffffffffffffffffffffffffffffffffffffffffffffffffffffffffffff04831182151516156118b1576118b0611833565b5b828202905092915050565b60006118c782611138565b91506118d283611138565b9250827fffffffffffffffffffffffffffffffffffffffffffffffffffffffffffffffff0382111561190757611906611833565b5b828201905092915050565b7f4e487b7100000000000000000000000000000000000000000000000000000000600052603260045260246000fd5b600061194c82611138565b915060008214156119605761195f611833565b5b600182039050919050565b7f537472696e67733a20686578206c656e67746820696e73756666696369656e74600082015250565b60006119a16020836111e2565b91506119ac8261196b565b602082019050919050565b600060208201905081810360008301526119d081611994565b905091905056fea264697066735822122003c33367989c399e49555a4a0d487eaeb1ca1c6d664c94e6116dbfd59ab302b264736f6c63430008090033",
  "linkReferences": {},
  "deployedLinkReferences": {}
}