{
  "_format": "hh-sol-artifact-1",
  "contractName": "MarketWrapper",
  "sourceName": "contracts/main/MarketWrapper.sol",
  "abi": [
    {
      "inputs": [
        {
          "internalType": "uint256",
          "name": "_buyNowPrice",
          "type": "uint256"
        },
        {
          "internalType": "address",
          "name": "_marketPlace",
          "type": "address"
        },
        {
          "components": [
            {
              "internalType": "address",
              "name": "considerationToken",
              "type": "address"
            },
            {
              "internalType": "uint256",
              "name": "considerationIdentifier",
              "type": "uint256"
            },
            {
              "internalType": "uint256",
              "name": "considerationAmount",
              "type": "uint256"
            },
            {
              "internalType": "address payable",
              "name": "offerer",
              "type": "address"
            },
            {
              "internalType": "address",
              "name": "zone",
              "type": "address"
            },
            {
              "internalType": "address",
              "name": "offerToken",
              "type": "address"
            },
            {
              "internalType": "uint256",
              "name": "offerIdentifier",
              "type": "uint256"
            },
            {
              "internalType": "uint256",
              "name": "offerAmount",
              "type": "uint256"
            },
            {
              "internalType": "enum BasicOrderType",
              "name": "basicOrderType",
              "type": "uint8"
            },
            {
              "internalType": "uint256",
              "name": "startTime",
              "type": "uint256"
            },
            {
              "internalType": "uint256",
              "name": "endTime",
              "type": "uint256"
            },
            {
              "internalType": "bytes32",
              "name": "zoneHash",
              "type": "bytes32"
            },
            {
              "internalType": "uint256",
              "name": "salt",
              "type": "uint256"
            },
            {
              "internalType": "bytes32",
              "name": "offererConduitKey",
              "type": "bytes32"
            },
            {
              "internalType": "bytes32",
              "name": "fulfillerConduitKey",
              "type": "bytes32"
            },
            {
              "internalType": "uint256",
              "name": "totalOriginalAdditionalRecipients",
              "type": "uint256"
            },
            {
              "components": [
                {
                  "internalType": "uint256",
                  "name": "amount",
                  "type": "uint256"
                },
                {
                  "internalType": "address payable",
                  "name": "recipient",
                  "type": "address"
                }
              ],
              "internalType": "struct AdditionalRecipient[]",
              "name": "additionalRecipients",
              "type": "tuple[]"
            },
            {
              "internalType": "bytes",
              "name": "signature",
              "type": "bytes"
            }
          ],
          "internalType": "struct BasicOrderParameters",
          "name": "_transactionData",
          "type": "tuple"
        }
      ],
      "stateMutability": "nonpayable",
      "type": "constructor"
    },
    {
      "anonymous": false,
      "inputs": [
        {
          "indexed": false,
          "internalType": "bool",
          "name": "success",
          "type": "bool"
        }
      ],
      "name": "Purchased",
      "type": "event"
    },
    {
      "anonymous": false,
      "inputs": [
        {
          "indexed": true,
          "internalType": "bytes32",
          "name": "role",
          "type": "bytes32"
        },
        {
          "indexed": true,
          "internalType": "bytes32",
          "name": "previousAdminRole",
          "type": "bytes32"
        },
        {
          "indexed": true,
          "internalType": "bytes32",
          "name": "newAdminRole",
          "type": "bytes32"
        }
      ],
      "name": "RoleAdminChanged",
      "type": "event"
    },
    {
      "anonymous": false,
      "inputs": [
        {
          "indexed": true,
          "internalType": "bytes32",
          "name": "role",
          "type": "bytes32"
        },
        {
          "indexed": true,
          "internalType": "address",
          "name": "account",
          "type": "address"
        },
        {
          "indexed": true,
          "internalType": "address",
          "name": "sender",
          "type": "address"
        }
      ],
      "name": "RoleGranted",
      "type": "event"
    },
    {
      "anonymous": false,
      "inputs": [
        {
          "indexed": true,
          "internalType": "bytes32",
          "name": "role",
          "type": "bytes32"
        },
        {
          "indexed": true,
          "internalType": "address",
          "name": "account",
          "type": "address"
        },
        {
          "indexed": true,
          "internalType": "address",
          "name": "sender",
          "type": "address"
        }
      ],
      "name": "RoleRevoked",
      "type": "event"
    },
    {
      "stateMutability": "payable",
      "type": "fallback"
    },
    {
      "inputs": [],
      "name": "DEFAULT_ADMIN_ROLE",
      "outputs": [
        {
          "internalType": "bytes32",
          "name": "",
          "type": "bytes32"
        }
      ],
      "stateMutability": "view",
      "type": "function"
    },
    {
      "inputs": [],
      "name": "buyNow",
      "outputs": [
        {
          "internalType": "bool",
          "name": "",
          "type": "bool"
        }
      ],
      "stateMutability": "payable",
      "type": "function"
    },
    {
      "inputs": [],
      "name": "buyNowPrice",
      "outputs": [
        {
          "internalType": "uint256",
          "name": "",
          "type": "uint256"
        }
      ],
      "stateMutability": "view",
      "type": "function"
    },
    {
      "inputs": [
        {
          "internalType": "address payable",
          "name": "to",
          "type": "address"
        }
      ],
      "name": "emergencyWithdrawal",
      "outputs": [],
      "stateMutability": "payable",
      "type": "function"
    },
    {
      "inputs": [],
      "name": "getBuyNowPrice",
      "outputs": [
        {
          "internalType": "uint256",
          "name": "",
          "type": "uint256"
        }
      ],
      "stateMutability": "view",
      "type": "function"
    },
    {
      "inputs": [
        {
          "internalType": "bytes32",
          "name": "role",
          "type": "bytes32"
        }
      ],
      "name": "getRoleAdmin",
      "outputs": [
        {
          "internalType": "bytes32",
          "name": "",
          "type": "bytes32"
        }
      ],
      "stateMutability": "view",
      "type": "function"
    },
    {
      "inputs": [
        {
          "internalType": "address",
          "name": "to",
          "type": "address"
        }
      ],
      "name": "grantOwnerRole",
      "outputs": [],
      "stateMutability": "nonpayable",
      "type": "function"
    },
    {
      "inputs": [
        {
          "internalType": "bytes32",
          "name": "role",
          "type": "bytes32"
        },
        {
          "internalType": "address",
          "name": "account",
          "type": "address"
        }
      ],
      "name": "grantRole",
      "outputs": [],
      "stateMutability": "nonpayable",
      "type": "function"
    },
    {
      "inputs": [
        {
          "internalType": "bytes32",
          "name": "role",
          "type": "bytes32"
        },
        {
          "internalType": "address",
          "name": "account",
          "type": "address"
        }
      ],
      "name": "hasRole",
      "outputs": [
        {
          "internalType": "bool",
          "name": "",
          "type": "bool"
        }
      ],
      "stateMutability": "view",
      "type": "function"
    },
    {
      "inputs": [],
      "name": "marketPlace",
      "outputs": [
        {
          "internalType": "address",
          "name": "",
          "type": "address"
        }
      ],
      "stateMutability": "view",
      "type": "function"
    },
    {
      "inputs": [
        {
          "internalType": "bytes32",
          "name": "role",
          "type": "bytes32"
        },
        {
          "internalType": "address",
          "name": "account",
          "type": "address"
        }
      ],
      "name": "renounceRole",
      "outputs": [],
      "stateMutability": "nonpayable",
      "type": "function"
    },
    {
      "inputs": [
        {
          "internalType": "bytes32",
          "name": "role",
          "type": "bytes32"
        },
        {
          "internalType": "address",
          "name": "account",
          "type": "address"
        }
      ],
      "name": "revokeRole",
      "outputs": [],
      "stateMutability": "nonpayable",
      "type": "function"
    },
    {
      "inputs": [
        {
          "internalType": "uint256",
          "name": "_price",
          "type": "uint256"
        }
      ],
      "name": "setBuyNowPrice",
      "outputs": [],
      "stateMutability": "nonpayable",
      "type": "function"
    },
    {
      "inputs": [
        {
          "internalType": "address",
          "name": "_marketPlace",
          "type": "address"
        }
      ],
      "name": "setMarketPlace",
      "outputs": [],
      "stateMutability": "nonpayable",
      "type": "function"
    },
    {
      "inputs": [
        {
          "components": [
            {
              "internalType": "address",
              "name": "considerationToken",
              "type": "address"
            },
            {
              "internalType": "uint256",
              "name": "considerationIdentifier",
              "type": "uint256"
            },
            {
              "internalType": "uint256",
              "name": "considerationAmount",
              "type": "uint256"
            },
            {
              "internalType": "address payable",
              "name": "offerer",
              "type": "address"
            },
            {
              "internalType": "address",
              "name": "zone",
              "type": "address"
            },
            {
              "internalType": "address",
              "name": "offerToken",
              "type": "address"
            },
            {
              "internalType": "uint256",
              "name": "offerIdentifier",
              "type": "uint256"
            },
            {
              "internalType": "uint256",
              "name": "offerAmount",
              "type": "uint256"
            },
            {
              "internalType": "enum BasicOrderType",
              "name": "basicOrderType",
              "type": "uint8"
            },
            {
              "internalType": "uint256",
              "name": "startTime",
              "type": "uint256"
            },
            {
              "internalType": "uint256",
              "name": "endTime",
              "type": "uint256"
            },
            {
              "internalType": "bytes32",
              "name": "zoneHash",
              "type": "bytes32"
            },
            {
              "internalType": "uint256",
              "name": "salt",
              "type": "uint256"
            },
            {
              "internalType": "bytes32",
              "name": "offererConduitKey",
              "type": "bytes32"
            },
            {
              "internalType": "bytes32",
              "name": "fulfillerConduitKey",
              "type": "bytes32"
            },
            {
              "internalType": "uint256",
              "name": "totalOriginalAdditionalRecipients",
              "type": "uint256"
            },
            {
              "components": [
                {
                  "internalType": "uint256",
                  "name": "amount",
                  "type": "uint256"
                },
                {
                  "internalType": "address payable",
                  "name": "recipient",
                  "type": "address"
                }
              ],
              "internalType": "struct AdditionalRecipient[]",
              "name": "additionalRecipients",
              "type": "tuple[]"
            },
            {
              "internalType": "bytes",
              "name": "signature",
              "type": "bytes"
            }
          ],
          "internalType": "struct BasicOrderParameters",
          "name": "_transactionData",
          "type": "tuple"
        }
      ],
      "name": "setTransactionData",
      "outputs": [],
      "stateMutability": "nonpayable",
      "type": "function"
    },
    {
      "inputs": [
        {
          "internalType": "bytes4",
          "name": "interfaceId",
          "type": "bytes4"
        }
      ],
      "name": "supportsInterface",
      "outputs": [
        {
          "internalType": "bool",
          "name": "",
          "type": "bool"
        }
      ],
      "stateMutability": "view",
      "type": "function"
    },
    {
      "stateMutability": "payable",
      "type": "receive"
    }
  ],
  "bytecode": "0x60806040523480156200001157600080fd5b5060405162002ee638038062002ee6833981810160405281019062000037919062000988565b6200004c6000801b336200014560201b60201c565b8260018190555081600260006101000a81548173ffffffffffffffffffffffffffffffffffffffff021916908373ffffffffffffffffffffffffffffffffffffffff16021790555080604051602401620000a7919062000dc1565b6040516020818303038152906040527fc105f051000000000000000000000000000000000000000000000000000000007bffffffffffffffffffffffffffffffffffffffffffffffffffffffff19166020820180517bffffffffffffffffffffffffffffffffffffffffffffffffffffffff8381831617835250505050600390805190602001906200013b929190620002a8565b5050505062000e4a565b6200015782826200023660201b60201c565b6200023257600160008084815260200190815260200160002060000160008373ffffffffffffffffffffffffffffffffffffffff1673ffffffffffffffffffffffffffffffffffffffff16815260200190815260200160002060006101000a81548160ff021916908315150217905550620001d7620002a060201b60201c565b73ffffffffffffffffffffffffffffffffffffffff168173ffffffffffffffffffffffffffffffffffffffff16837f2f8788117e7eff1d82e926ec794901d17c78024a50270940304540a733656f0d60405160405180910390a45b5050565b600080600084815260200190815260200160002060000160008373ffffffffffffffffffffffffffffffffffffffff1673ffffffffffffffffffffffffffffffffffffffff16815260200190815260200160002060009054906101000a900460ff16905092915050565b600033905090565b828054620002b69062000e14565b90600052602060002090601f016020900481019282620002da576000855562000326565b82601f10620002f557805160ff191683800117855562000326565b8280016001018555821562000326579182015b828111156200032557825182559160200191906001019062000308565b5b50905062000335919062000339565b5090565b5b80821115620003545760008160009055506001016200033a565b5090565b6000604051905090565b600080fd5b600080fd5b6000819050919050565b62000381816200036c565b81146200038d57600080fd5b50565b600081519050620003a18162000376565b92915050565b600073ffffffffffffffffffffffffffffffffffffffff82169050919050565b6000620003d482620003a7565b9050919050565b620003e681620003c7565b8114620003f257600080fd5b50565b6000815190506200040681620003db565b92915050565b600080fd5b6000601f19601f8301169050919050565b7f4e487b7100000000000000000000000000000000000000000000000000000000600052604160045260246000fd5b6200045c8262000411565b810181811067ffffffffffffffff821117156200047e576200047d62000422565b5b80604052505050565b60006200049362000358565b9050620004a1828262000451565b919050565b600080fd5b6000620004b882620003a7565b9050919050565b620004ca81620004ab565b8114620004d657600080fd5b50565b600081519050620004ea81620004bf565b92915050565b60188110620004fe57600080fd5b50565b6000815190506200051281620004f0565b92915050565b6000819050919050565b6200052d8162000518565b81146200053957600080fd5b50565b6000815190506200054d8162000522565b92915050565b600080fd5b600067ffffffffffffffff82111562000576576200057562000422565b5b602082029050602081019050919050565b600080fd5b600060408284031215620005a557620005a46200040c565b5b620005b1604062000487565b90506000620005c38482850162000390565b6000830152506020620005d984828501620004d9565b60208301525092915050565b6000620005fc620005f68462000558565b62000487565b9050808382526020820190506040840283018581111562000622576200062162000587565b5b835b818110156200064f57806200063a88826200058c565b84526020840193505060408101905062000624565b5050509392505050565b600082601f83011262000671576200067062000553565b5b815162000683848260208601620005e5565b91505092915050565b600080fd5b600067ffffffffffffffff821115620006af57620006ae62000422565b5b620006ba8262000411565b9050602081019050919050565b60005b83811015620006e7578082015181840152602081019050620006ca565b83811115620006f7576000848401525b50505050565b6000620007146200070e8462000691565b62000487565b9050828152602081018484840111156200073357620007326200068c565b5b62000740848285620006c7565b509392505050565b600082601f83011262000760576200075f62000553565b5b815162000772848260208601620006fd565b91505092915050565b600061024082840312156200079557620007946200040c565b5b620007a261024062000487565b90506000620007b484828501620003f5565b6000830152506020620007ca8482850162000390565b6020830152506040620007e08482850162000390565b6040830152506060620007f684828501620004d9565b60608301525060806200080c84828501620003f5565b60808301525060a06200082284828501620003f5565b60a08301525060c0620008388482850162000390565b60c08301525060e06200084e8482850162000390565b60e083015250610100620008658482850162000501565b610100830152506101206200087d8482850162000390565b61012083015250610140620008958482850162000390565b61014083015250610160620008ad848285016200053c565b61016083015250610180620008c58482850162000390565b610180830152506101a0620008dd848285016200053c565b6101a0830152506101c0620008f5848285016200053c565b6101c0830152506101e06200090d8482850162000390565b6101e08301525061020082015167ffffffffffffffff811115620009365762000935620004a6565b5b620009448482850162000659565b6102008301525061022082015167ffffffffffffffff8111156200096d576200096c620004a6565b5b6200097b8482850162000748565b6102208301525092915050565b600080600060608486031215620009a457620009a362000362565b5b6000620009b48682870162000390565b9350506020620009c786828701620003f5565b925050604084015167ffffffffffffffff811115620009eb57620009ea62000367565b5b620009f9868287016200077b565b9150509250925092565b62000a0e81620003c7565b82525050565b62000a1f816200036c565b82525050565b62000a3081620004ab565b82525050565b7f4e487b7100000000000000000000000000000000000000000000000000000000600052602160045260246000fd5b6018811062000a795762000a7862000a36565b5b50565b600081905062000a8c8262000a65565b919050565b600062000a9e8262000a7c565b9050919050565b62000ab08162000a91565b82525050565b62000ac18162000518565b82525050565b600081519050919050565b600082825260208201905092915050565b6000819050602082019050919050565b60408201600082015162000b0b600085018262000a14565b50602082015162000b20602085018262000a25565b50505050565b600062000b34838362000af3565b60408301905092915050565b6000602082019050919050565b600062000b5a8262000ac7565b62000b66818562000ad2565b935062000b738362000ae3565b8060005b8381101562000baa57815162000b8e888262000b26565b975062000b9b8362000b40565b92505060018101905062000b77565b5085935050505092915050565b600081519050919050565b600082825260208201905092915050565b600062000be08262000bb7565b62000bec818562000bc2565b935062000bfe818560208601620006c7565b62000c098162000411565b840191505092915050565b60006102408301600083015162000c2f600086018262000a03565b50602083015162000c44602086018262000a14565b50604083015162000c59604086018262000a14565b50606083015162000c6e606086018262000a25565b50608083015162000c83608086018262000a03565b5060a083015162000c9860a086018262000a03565b5060c083015162000cad60c086018262000a14565b5060e083015162000cc260e086018262000a14565b5061010083015162000cd961010086018262000aa5565b5061012083015162000cf061012086018262000a14565b5061014083015162000d0761014086018262000a14565b5061016083015162000d1e61016086018262000ab6565b5061018083015162000d3561018086018262000a14565b506101a083015162000d4c6101a086018262000ab6565b506101c083015162000d636101c086018262000ab6565b506101e083015162000d7a6101e086018262000a14565b5061020083015184820361020086015262000d96828262000b4d565b91505061022083015184820361022086015262000db4828262000bd3565b9150508091505092915050565b6000602082019050818103600083015262000ddd818462000c14565b905092915050565b7f4e487b7100000000000000000000000000000000000000000000000000000000600052602260045260246000fd5b6000600282049050600182168062000e2d57607f821691505b6020821081141562000e445762000e4362000de5565b5b50919050565b61208c8062000e5a6000396000f3fe6080604052600436106100f75760003560e01c80635ecbdce91161008a578063a217fddf11610059578063a217fddf14610314578063a55870881461033f578063d547741f1461036a578063dd0b7ffe14610393576100fe565b80635ecbdce9146102725780636e353a1d1461029d57806391d14854146102b95780639c3962f0146102f6576100fe565b806330568a8d116100c657806330568a8d146101ce57806336568abe146101f7578063397a8bab14610220578063539a2c6d14610249576100fe565b806301ffc9a714610100578063248a9ca31461013d5780632e25d2a61461017a5780632f2ff15d146101a5576100fe565b366100fe57005b005b34801561010c57600080fd5b5061012760048036038101906101229190610f1c565b6103bc565b6040516101349190610f64565b60405180910390f35b34801561014957600080fd5b50610164600480360381019061015f9190610fb5565b610436565b6040516101719190610ff1565b60405180910390f35b34801561018657600080fd5b5061018f610455565b60405161019c919061104d565b60405180910390f35b3480156101b157600080fd5b506101cc60048036038101906101c79190611094565b61047b565b005b3480156101da57600080fd5b506101f560048036038101906101f091906110d4565b61049c565b005b34801561020357600080fd5b5061021e60048036038101906102199190611094565b6104ee565b005b34801561022c57600080fd5b50610247600480360381019061024291906110d4565b610571565b005b34801561025557600080fd5b50610270600480360381019061026b91906115e0565b61058f565b005b34801561027e57600080fd5b50610287610644565b6040516102949190611638565b60405180910390f35b6102b760048036038101906102b29190611653565b61064a565b005b3480156102c557600080fd5b506102e060048036038101906102db9190611094565b610708565b6040516102ed9190610f64565b60405180910390f35b6102fe610772565b60405161030b9190610f64565b60405180910390f35b34801561032057600080fd5b506103296108a3565b6040516103369190610ff1565b60405180910390f35b34801561034b57600080fd5b506103546108aa565b6040516103619190611638565b60405180910390f35b34801561037657600080fd5b50610391600480360381019061038c9190611094565b6108b4565b005b34801561039f57600080fd5b506103ba60048036038101906103b59190611680565b6108d5565b005b60007f7965db0b000000000000000000000000000000000000000000000000000000007bffffffffffffffffffffffffffffffffffffffffffffffffffffffff1916827bffffffffffffffffffffffffffffffffffffffffffffffffffffffff1916148061042f575061042e826108ed565b5b9050919050565b6000806000838152602001908152602001600020600101549050919050565b600260009054906101000a900473ffffffffffffffffffffffffffffffffffffffff1681565b61048482610436565b61048d81610957565b610497838361096b565b505050565b6000801b6104a981610957565b81600260006101000a81548173ffffffffffffffffffffffffffffffffffffffff021916908373ffffffffffffffffffffffffffffffffffffffff1602179055505050565b6104f6610a4b565b73ffffffffffffffffffffffffffffffffffffffff168173ffffffffffffffffffffffffffffffffffffffff1614610563576040517f08c379a000000000000000000000000000000000000000000000000000000000815260040161055a90611730565b60405180910390fd5b61056d8282610a53565b5050565b6000801b61057e81610957565b61058b6000801b8361096b565b5050565b6000801b61059c81610957565b816040516024016105ad9190611af2565b6040516020818303038152906040527fc105f051000000000000000000000000000000000000000000000000000000007bffffffffffffffffffffffffffffffffffffffffffffffffffffffff19166020820180517bffffffffffffffffffffffffffffffffffffffffffffffffffffffff83818316178352505050506003908051906020019061063f929190610e0d565b505050565b60015481565b6000801b61065781610957565b60008273ffffffffffffffffffffffffffffffffffffffff164760405161067d90611b45565b60006040518083038185875af1925050503d80600081146106ba576040519150601f19603f3d011682016040523d82523d6000602084013e6106bf565b606091505b5050905080610703576040517f08c379a00000000000000000000000000000000000000000000000000000000081526004016106fa90611ba6565b60405180910390fd5b505050565b600080600084815260200190815260200160002060000160008373ffffffffffffffffffffffffffffffffffffffff1673ffffffffffffffffffffffffffffffffffffffff16815260200190815260200160002060009054906101000a900460ff16905092915050565b60008060001b61078181610957565b600154471461078f57600080fd5b6000600260009054906101000a900473ffffffffffffffffffffffffffffffffffffffff1673ffffffffffffffffffffffffffffffffffffffff1660015460036040516107dc9190611cbb565b60006040518083038185875af1925050503d8060008114610819576040519150601f19603f3d011682016040523d82523d6000602084013e61081e565b606091505b5050905080610862576040517f08c379a000000000000000000000000000000000000000000000000000000000815260040161085990611d1e565b60405180910390fd5b7f83e31f5e5651d64b527802681a291e708d9fe310288785b1b816aa293d9b8fc660016040516108929190610f64565b60405180910390a160019250505090565b6000801b81565b6000600154905090565b6108bd82610436565b6108c681610957565b6108d08383610a53565b505050565b6000801b6108e281610957565b816001819055505050565b60007f01ffc9a7000000000000000000000000000000000000000000000000000000007bffffffffffffffffffffffffffffffffffffffffffffffffffffffff1916827bffffffffffffffffffffffffffffffffffffffffffffffffffffffff1916149050919050565b61096881610963610a4b565b610b34565b50565b6109758282610708565b610a4757600160008084815260200190815260200160002060000160008373ffffffffffffffffffffffffffffffffffffffff1673ffffffffffffffffffffffffffffffffffffffff16815260200190815260200160002060006101000a81548160ff0219169083151502179055506109ec610a4b565b73ffffffffffffffffffffffffffffffffffffffff168173ffffffffffffffffffffffffffffffffffffffff16837f2f8788117e7eff1d82e926ec794901d17c78024a50270940304540a733656f0d60405160405180910390a45b5050565b600033905090565b610a5d8282610708565b15610b3057600080600084815260200190815260200160002060000160008373ffffffffffffffffffffffffffffffffffffffff1673ffffffffffffffffffffffffffffffffffffffff16815260200190815260200160002060006101000a81548160ff021916908315150217905550610ad5610a4b565b73ffffffffffffffffffffffffffffffffffffffff168173ffffffffffffffffffffffffffffffffffffffff16837ff6391f5c32d9c69d2a47ea670b442974b53935d1edc7fd64eb21e047a839171b60405160405180910390a45b5050565b610b3e8282610708565b610bcd57610b638173ffffffffffffffffffffffffffffffffffffffff166014610bd1565b610b718360001c6020610bd1565b604051602001610b82929190611e1d565b6040516020818303038152906040526040517f08c379a0000000000000000000000000000000000000000000000000000000008152600401610bc49190611e90565b60405180910390fd5b5050565b606060006002836002610be49190611ee1565b610bee9190611f3b565b67ffffffffffffffff811115610c0757610c06611117565b5b6040519080825280601f01601f191660200182016040528015610c395781602001600182028036833780820191505090505b5090507f300000000000000000000000000000000000000000000000000000000000000081600081518110610c7157610c70611f91565b5b60200101907effffffffffffffffffffffffffffffffffffffffffffffffffffffffffffff1916908160001a9053507f780000000000000000000000000000000000000000000000000000000000000081600181518110610cd557610cd4611f91565b5b60200101907effffffffffffffffffffffffffffffffffffffffffffffffffffffffffffff1916908160001a90535060006001846002610d159190611ee1565b610d1f9190611f3b565b90505b6001811115610dbf577f3031323334353637383961626364656600000000000000000000000000000000600f861660108110610d6157610d60611f91565b5b1a60f81b828281518110610d7857610d77611f91565b5b60200101907effffffffffffffffffffffffffffffffffffffffffffffffffffffffffffff1916908160001a905350600485901c945080610db890611fc0565b9050610d22565b5060008414610e03576040517f08c379a0000000000000000000000000000000000000000000000000000000008152600401610dfa90612036565b60405180910390fd5b8091505092915050565b828054610e1990611bf5565b90600052602060002090601f016020900481019282610e3b5760008555610e82565b82601f10610e5457805160ff1916838001178555610e82565b82800160010185558215610e82579182015b82811115610e81578251825591602001919060010190610e66565b5b509050610e8f9190610e93565b5090565b5b80821115610eac576000816000905550600101610e94565b5090565b6000604051905090565b600080fd5b600080fd5b60007fffffffff0000000000000000000000000000000000000000000000000000000082169050919050565b610ef981610ec4565b8114610f0457600080fd5b50565b600081359050610f1681610ef0565b92915050565b600060208284031215610f3257610f31610eba565b5b6000610f4084828501610f07565b91505092915050565b60008115159050919050565b610f5e81610f49565b82525050565b6000602082019050610f796000830184610f55565b92915050565b6000819050919050565b610f9281610f7f565b8114610f9d57600080fd5b50565b600081359050610faf81610f89565b92915050565b600060208284031215610fcb57610fca610eba565b5b6000610fd984828501610fa0565b91505092915050565b610feb81610f7f565b82525050565b60006020820190506110066000830184610fe2565b92915050565b600073ffffffffffffffffffffffffffffffffffffffff82169050919050565b60006110378261100c565b9050919050565b6110478161102c565b82525050565b6000602082019050611062600083018461103e565b92915050565b6110718161102c565b811461107c57600080fd5b50565b60008135905061108e81611068565b92915050565b600080604083850312156110ab576110aa610eba565b5b60006110b985828601610fa0565b92505060206110ca8582860161107f565b9150509250929050565b6000602082840312156110ea576110e9610eba565b5b60006110f88482850161107f565b91505092915050565b600080fd5b6000601f19601f8301169050919050565b7f4e487b7100000000000000000000000000000000000000000000000000000000600052604160045260246000fd5b61114f82611106565b810181811067ffffffffffffffff8211171561116e5761116d611117565b5b80604052505050565b6000611181610eb0565b905061118d8282611146565b919050565b600080fd5b6000819050919050565b6111aa81611197565b81146111b557600080fd5b50565b6000813590506111c7816111a1565b92915050565b60006111d88261100c565b9050919050565b6111e8816111cd565b81146111f357600080fd5b50565b600081359050611205816111df565b92915050565b6018811061121857600080fd5b50565b60008135905061122a8161120b565b92915050565b600080fd5b600067ffffffffffffffff8211156112505761124f611117565b5b602082029050602081019050919050565b600080fd5b60006040828403121561127c5761127b611101565b5b6112866040611177565b90506000611296848285016111b8565b60008301525060206112aa848285016111f6565b60208301525092915050565b60006112c96112c484611235565b611177565b905080838252602082019050604084028301858111156112ec576112eb611261565b5b835b8181101561131557806113018882611266565b8452602084019350506040810190506112ee565b5050509392505050565b600082601f83011261133457611333611230565b5b81356113448482602086016112b6565b91505092915050565b600080fd5b600067ffffffffffffffff82111561136d5761136c611117565b5b61137682611106565b9050602081019050919050565b82818337600083830152505050565b60006113a56113a084611352565b611177565b9050828152602081018484840111156113c1576113c061134d565b5b6113cc848285611383565b509392505050565b600082601f8301126113e9576113e8611230565b5b81356113f9848260208601611392565b91505092915050565b6000610240828403121561141957611418611101565b5b611424610240611177565b905060006114348482850161107f565b6000830152506020611448848285016111b8565b602083015250604061145c848285016111b8565b6040830152506060611470848285016111f6565b60608301525060806114848482850161107f565b60808301525060a06114988482850161107f565b60a08301525060c06114ac848285016111b8565b60c08301525060e06114c0848285016111b8565b60e0830152506101006114d58482850161121b565b610100830152506101206114eb848285016111b8565b61012083015250610140611501848285016111b8565b6101408301525061016061151784828501610fa0565b6101608301525061018061152d848285016111b8565b610180830152506101a061154384828501610fa0565b6101a0830152506101c061155984828501610fa0565b6101c0830152506101e061156f848285016111b8565b6101e08301525061020082013567ffffffffffffffff81111561159557611594611192565b5b6115a18482850161131f565b6102008301525061022082013567ffffffffffffffff8111156115c7576115c6611192565b5b6115d3848285016113d4565b6102208301525092915050565b6000602082840312156115f6576115f5610eba565b5b600082013567ffffffffffffffff81111561161457611613610ebf565b5b61162084828501611402565b91505092915050565b61163281611197565b82525050565b600060208201905061164d6000830184611629565b92915050565b60006020828403121561166957611668610eba565b5b6000611677848285016111f6565b91505092915050565b60006020828403121561169657611695610eba565b5b60006116a4848285016111b8565b91505092915050565b600082825260208201905092915050565b7f416363657373436f6e74726f6c3a2063616e206f6e6c792072656e6f756e636560008201527f20726f6c657320666f722073656c660000000000000000000000000000000000602082015250565b600061171a602f836116ad565b9150611725826116be565b604082019050919050565b600060208201905081810360008301526117498161170d565b9050919050565b6117598161102c565b82525050565b61176881611197565b82525050565b611777816111cd565b82525050565b7f4e487b7100000000000000000000000000000000000000000000000000000000600052602160045260246000fd5b601881106117bd576117bc61177d565b5b50565b60008190506117ce826117ac565b919050565b60006117de826117c0565b9050919050565b6117ee816117d3565b82525050565b6117fd81610f7f565b82525050565b600081519050919050565b600082825260208201905092915050565b6000819050602082019050919050565b604082016000820151611845600085018261175f565b506020820151611858602085018261176e565b50505050565b600061186a838361182f565b60408301905092915050565b6000602082019050919050565b600061188e82611803565b611898818561180e565b93506118a38361181f565b8060005b838110156118d45781516118bb888261185e565b97506118c683611876565b9250506001810190506118a7565b5085935050505092915050565b600081519050919050565b600082825260208201905092915050565b60005b8381101561191b578082015181840152602081019050611900565b8381111561192a576000848401525b50505050565b600061193b826118e1565b61194581856118ec565b93506119558185602086016118fd565b61195e81611106565b840191505092915050565b6000610240830160008301516119826000860182611750565b506020830151611995602086018261175f565b5060408301516119a8604086018261175f565b5060608301516119bb606086018261176e565b5060808301516119ce6080860182611750565b5060a08301516119e160a0860182611750565b5060c08301516119f460c086018261175f565b5060e0830151611a0760e086018261175f565b50610100830151611a1c6101008601826117e5565b50610120830151611a3161012086018261175f565b50610140830151611a4661014086018261175f565b50610160830151611a5b6101608601826117f4565b50610180830151611a7061018086018261175f565b506101a0830151611a856101a08601826117f4565b506101c0830151611a9a6101c08601826117f4565b506101e0830151611aaf6101e086018261175f565b50610200830151848203610200860152611ac98282611883565b915050610220830151848203610220860152611ae58282611930565b9150508091505092915050565b60006020820190508181036000830152611b0c8184611969565b905092915050565b600081905092915050565b50565b6000611b2f600083611b14565b9150611b3a82611b1f565b600082019050919050565b6000611b5082611b22565b9150819050919050565b7f4574686572207472616e73666572206661696c65642e00000000000000000000600082015250565b6000611b906016836116ad565b9150611b9b82611b5a565b602082019050919050565b60006020820190508181036000830152611bbf81611b83565b9050919050565b7f4e487b7100000000000000000000000000000000000000000000000000000000600052602260045260246000fd5b60006002820490506001821680611c0d57607f821691505b60208210811415611c2157611c20611bc6565b5b50919050565b60008190508160005260206000209050919050565b60008154611c4981611bf5565b611c538186611b14565b94506001821660008114611c6e5760018114611c7f57611cb2565b60ff19831686528186019350611cb2565b611c8885611c27565b60005b83811015611caa57815481890152600182019150602081019050611c8b565b838801955050505b50505092915050565b6000611cc78284611c3c565b915081905092915050565b7f5075726368617365204661696c65640000000000000000000000000000000000600082015250565b6000611d08600f836116ad565b9150611d1382611cd2565b602082019050919050565b60006020820190508181036000830152611d3781611cfb565b9050919050565b600081905092915050565b7f416363657373436f6e74726f6c3a206163636f756e7420000000000000000000600082015250565b6000611d7f601783611d3e565b9150611d8a82611d49565b601782019050919050565b600081519050919050565b6000611dab82611d95565b611db58185611d3e565b9350611dc58185602086016118fd565b80840191505092915050565b7f206973206d697373696e6720726f6c6520000000000000000000000000000000600082015250565b6000611e07601183611d3e565b9150611e1282611dd1565b601182019050919050565b6000611e2882611d72565b9150611e348285611da0565b9150611e3f82611dfa565b9150611e4b8284611da0565b91508190509392505050565b6000611e6282611d95565b611e6c81856116ad565b9350611e7c8185602086016118fd565b611e8581611106565b840191505092915050565b60006020820190508181036000830152611eaa8184611e57565b905092915050565b7f4e487b7100000000000000000000000000000000000000000000000000000000600052601160045260246000fd5b6000611eec82611197565b9150611ef783611197565b9250817fffffffffffffffffffffffffffffffffffffffffffffffffffffffffffffffff0483118215151615611f3057611f2f611eb2565b5b828202905092915050565b6000611f4682611197565b9150611f5183611197565b9250827fffffffffffffffffffffffffffffffffffffffffffffffffffffffffffffffff03821115611f8657611f85611eb2565b5b828201905092915050565b7f4e487b7100000000000000000000000000000000000000000000000000000000600052603260045260246000fd5b6000611fcb82611197565b91506000821415611fdf57611fde611eb2565b5b600182039050919050565b7f537472696e67733a20686578206c656e67746820696e73756666696369656e74600082015250565b60006120206020836116ad565b915061202b82611fea565b602082019050919050565b6000602082019050818103600083015261204f81612013565b905091905056fea2646970667358221220819ea898161e9a1d6e36757b613371ee3e5b9ce26757d5f73228df50e388feb264736f6c63430008090033",
  "linkReferences": {},
  "deployedLinkReferences": {}
}