{
  "_format": "hh-sol-artifact-1",
  "contractName": "MarketWrapper",
  "sourceName": "contracts/main/MarketWrapper.sol",
  "abi": [
    {
      "inputs": [
        {
          "components": [
            {
              "components": [
                {
                  "internalType": "address",
                  "name": "considerationToken",
                  "type": "address"
                },
                {
                  "internalType": "uint256",
                  "name": "considerationIdentifier",
                  "type": "uint256"
                },
                {
                  "internalType": "uint256",
                  "name": "considerationAmount",
                  "type": "uint256"
                },
                {
                  "internalType": "address payable",
                  "name": "offerer",
                  "type": "address"
                },
                {
                  "internalType": "address",
                  "name": "zone",
                  "type": "address"
                },
                {
                  "internalType": "address",
                  "name": "offerToken",
                  "type": "address"
                },
                {
                  "internalType": "uint256",
                  "name": "offerIdentifier",
                  "type": "uint256"
                },
                {
                  "internalType": "uint256",
                  "name": "offerAmount",
                  "type": "uint256"
                },
                {
                  "internalType": "enum BasicOrderType",
                  "name": "basicOrderType",
                  "type": "uint8"
                },
                {
                  "internalType": "uint256",
                  "name": "startTime",
                  "type": "uint256"
                },
                {
                  "internalType": "uint256",
                  "name": "endTime",
                  "type": "uint256"
                },
                {
                  "internalType": "bytes32",
                  "name": "zoneHash",
                  "type": "bytes32"
                },
                {
                  "internalType": "uint256",
                  "name": "salt",
                  "type": "uint256"
                },
                {
                  "internalType": "bytes32",
                  "name": "offererConduitKey",
                  "type": "bytes32"
                },
                {
                  "internalType": "bytes32",
                  "name": "fulfillerConduitKey",
                  "type": "bytes32"
                },
                {
                  "internalType": "uint256",
                  "name": "totalOriginalAdditionalRecipients",
                  "type": "uint256"
                },
                {
                  "components": [
                    {
                      "internalType": "uint256",
                      "name": "amount",
                      "type": "uint256"
                    },
                    {
                      "internalType": "address payable",
                      "name": "recipient",
                      "type": "address"
                    }
                  ],
                  "internalType": "struct AdditionalRecipient[]",
                  "name": "additionalRecipients",
                  "type": "tuple[]"
                },
                {
                  "internalType": "bytes",
                  "name": "signature",
                  "type": "bytes"
                }
              ],
              "internalType": "struct BasicOrderParameters",
              "name": "orderParams",
              "type": "tuple"
            },
            {
              "internalType": "uint256",
              "name": "buyNowPrice",
              "type": "uint256"
            },
            {
              "internalType": "address",
              "name": "marketPlace",
              "type": "address"
            }
          ],
          "internalType": "struct IMarketWrapper.MarketWrapperConstructorParameters",
          "name": "_params",
          "type": "tuple"
        }
      ],
      "stateMutability": "nonpayable",
      "type": "constructor"
    },
    {
      "anonymous": false,
      "inputs": [
        {
          "indexed": false,
          "internalType": "bool",
          "name": "success",
          "type": "bool"
        }
      ],
      "name": "Purchased",
      "type": "event"
    },
    {
      "anonymous": false,
      "inputs": [
        {
          "indexed": true,
          "internalType": "bytes32",
          "name": "role",
          "type": "bytes32"
        },
        {
          "indexed": true,
          "internalType": "bytes32",
          "name": "previousAdminRole",
          "type": "bytes32"
        },
        {
          "indexed": true,
          "internalType": "bytes32",
          "name": "newAdminRole",
          "type": "bytes32"
        }
      ],
      "name": "RoleAdminChanged",
      "type": "event"
    },
    {
      "anonymous": false,
      "inputs": [
        {
          "indexed": true,
          "internalType": "bytes32",
          "name": "role",
          "type": "bytes32"
        },
        {
          "indexed": true,
          "internalType": "address",
          "name": "account",
          "type": "address"
        },
        {
          "indexed": true,
          "internalType": "address",
          "name": "sender",
          "type": "address"
        }
      ],
      "name": "RoleGranted",
      "type": "event"
    },
    {
      "anonymous": false,
      "inputs": [
        {
          "indexed": true,
          "internalType": "bytes32",
          "name": "role",
          "type": "bytes32"
        },
        {
          "indexed": true,
          "internalType": "address",
          "name": "account",
          "type": "address"
        },
        {
          "indexed": true,
          "internalType": "address",
          "name": "sender",
          "type": "address"
        }
      ],
      "name": "RoleRevoked",
      "type": "event"
    },
    {
      "stateMutability": "payable",
      "type": "fallback"
    },
    {
      "inputs": [],
      "name": "DEFAULT_ADMIN_ROLE",
      "outputs": [
        {
          "internalType": "bytes32",
          "name": "",
          "type": "bytes32"
        }
      ],
      "stateMutability": "view",
      "type": "function"
    },
    {
      "inputs": [],
      "name": "buyNow",
      "outputs": [
        {
          "internalType": "bool",
          "name": "",
          "type": "bool"
        }
      ],
      "stateMutability": "payable",
      "type": "function"
    },
    {
      "inputs": [
        {
          "internalType": "address payable",
          "name": "to",
          "type": "address"
        }
      ],
      "name": "emergencyWithdrawal",
      "outputs": [],
      "stateMutability": "payable",
      "type": "function"
    },
    {
      "inputs": [],
      "name": "getBuyNowPrice",
      "outputs": [
        {
          "internalType": "uint256",
          "name": "",
          "type": "uint256"
        }
      ],
      "stateMutability": "view",
      "type": "function"
    },
    {
      "inputs": [
        {
          "internalType": "bytes32",
          "name": "role",
          "type": "bytes32"
        }
      ],
      "name": "getRoleAdmin",
      "outputs": [
        {
          "internalType": "bytes32",
          "name": "",
          "type": "bytes32"
        }
      ],
      "stateMutability": "view",
      "type": "function"
    },
    {
      "inputs": [
        {
          "internalType": "address",
          "name": "to",
          "type": "address"
        }
      ],
      "name": "grantOwnerRole",
      "outputs": [],
      "stateMutability": "nonpayable",
      "type": "function"
    },
    {
      "inputs": [
        {
          "internalType": "bytes32",
          "name": "role",
          "type": "bytes32"
        },
        {
          "internalType": "address",
          "name": "account",
          "type": "address"
        }
      ],
      "name": "grantRole",
      "outputs": [],
      "stateMutability": "nonpayable",
      "type": "function"
    },
    {
      "inputs": [
        {
          "internalType": "bytes32",
          "name": "role",
          "type": "bytes32"
        },
        {
          "internalType": "address",
          "name": "account",
          "type": "address"
        }
      ],
      "name": "hasRole",
      "outputs": [
        {
          "internalType": "bool",
          "name": "",
          "type": "bool"
        }
      ],
      "stateMutability": "view",
      "type": "function"
    },
    {
      "inputs": [
        {
          "components": [
            {
              "components": [
                {
                  "internalType": "address",
                  "name": "considerationToken",
                  "type": "address"
                },
                {
                  "internalType": "uint256",
                  "name": "considerationIdentifier",
                  "type": "uint256"
                },
                {
                  "internalType": "uint256",
                  "name": "considerationAmount",
                  "type": "uint256"
                },
                {
                  "internalType": "address payable",
                  "name": "offerer",
                  "type": "address"
                },
                {
                  "internalType": "address",
                  "name": "zone",
                  "type": "address"
                },
                {
                  "internalType": "address",
                  "name": "offerToken",
                  "type": "address"
                },
                {
                  "internalType": "uint256",
                  "name": "offerIdentifier",
                  "type": "uint256"
                },
                {
                  "internalType": "uint256",
                  "name": "offerAmount",
                  "type": "uint256"
                },
                {
                  "internalType": "enum BasicOrderType",
                  "name": "basicOrderType",
                  "type": "uint8"
                },
                {
                  "internalType": "uint256",
                  "name": "startTime",
                  "type": "uint256"
                },
                {
                  "internalType": "uint256",
                  "name": "endTime",
                  "type": "uint256"
                },
                {
                  "internalType": "bytes32",
                  "name": "zoneHash",
                  "type": "bytes32"
                },
                {
                  "internalType": "uint256",
                  "name": "salt",
                  "type": "uint256"
                },
                {
                  "internalType": "bytes32",
                  "name": "offererConduitKey",
                  "type": "bytes32"
                },
                {
                  "internalType": "bytes32",
                  "name": "fulfillerConduitKey",
                  "type": "bytes32"
                },
                {
                  "internalType": "uint256",
                  "name": "totalOriginalAdditionalRecipients",
                  "type": "uint256"
                },
                {
                  "components": [
                    {
                      "internalType": "uint256",
                      "name": "amount",
                      "type": "uint256"
                    },
                    {
                      "internalType": "address payable",
                      "name": "recipient",
                      "type": "address"
                    }
                  ],
                  "internalType": "struct AdditionalRecipient[]",
                  "name": "additionalRecipients",
                  "type": "tuple[]"
                },
                {
                  "internalType": "bytes",
                  "name": "signature",
                  "type": "bytes"
                }
              ],
              "internalType": "struct BasicOrderParameters",
              "name": "orderParams",
              "type": "tuple"
            },
            {
              "internalType": "uint256",
              "name": "buyNowPrice",
              "type": "uint256"
            },
            {
              "internalType": "address",
              "name": "marketPlace",
              "type": "address"
            }
          ],
          "internalType": "struct IMarketWrapper.MarketWrapperConstructorParameters",
          "name": "_params",
          "type": "tuple"
        }
      ],
      "name": "migration",
      "outputs": [],
      "stateMutability": "nonpayable",
      "type": "function"
    },
    {
      "inputs": [],
      "name": "params",
      "outputs": [
        {
          "components": [
            {
              "internalType": "address",
              "name": "considerationToken",
              "type": "address"
            },
            {
              "internalType": "uint256",
              "name": "considerationIdentifier",
              "type": "uint256"
            },
            {
              "internalType": "uint256",
              "name": "considerationAmount",
              "type": "uint256"
            },
            {
              "internalType": "address payable",
              "name": "offerer",
              "type": "address"
            },
            {
              "internalType": "address",
              "name": "zone",
              "type": "address"
            },
            {
              "internalType": "address",
              "name": "offerToken",
              "type": "address"
            },
            {
              "internalType": "uint256",
              "name": "offerIdentifier",
              "type": "uint256"
            },
            {
              "internalType": "uint256",
              "name": "offerAmount",
              "type": "uint256"
            },
            {
              "internalType": "enum BasicOrderType",
              "name": "basicOrderType",
              "type": "uint8"
            },
            {
              "internalType": "uint256",
              "name": "startTime",
              "type": "uint256"
            },
            {
              "internalType": "uint256",
              "name": "endTime",
              "type": "uint256"
            },
            {
              "internalType": "bytes32",
              "name": "zoneHash",
              "type": "bytes32"
            },
            {
              "internalType": "uint256",
              "name": "salt",
              "type": "uint256"
            },
            {
              "internalType": "bytes32",
              "name": "offererConduitKey",
              "type": "bytes32"
            },
            {
              "internalType": "bytes32",
              "name": "fulfillerConduitKey",
              "type": "bytes32"
            },
            {
              "internalType": "uint256",
              "name": "totalOriginalAdditionalRecipients",
              "type": "uint256"
            },
            {
              "components": [
                {
                  "internalType": "uint256",
                  "name": "amount",
                  "type": "uint256"
                },
                {
                  "internalType": "address payable",
                  "name": "recipient",
                  "type": "address"
                }
              ],
              "internalType": "struct AdditionalRecipient[]",
              "name": "additionalRecipients",
              "type": "tuple[]"
            },
            {
              "internalType": "bytes",
              "name": "signature",
              "type": "bytes"
            }
          ],
          "internalType": "struct BasicOrderParameters",
          "name": "orderParams",
          "type": "tuple"
        },
        {
          "internalType": "uint256",
          "name": "buyNowPrice",
          "type": "uint256"
        },
        {
          "internalType": "address",
          "name": "marketPlace",
          "type": "address"
        }
      ],
      "stateMutability": "view",
      "type": "function"
    },
    {
      "inputs": [
        {
          "internalType": "bytes32",
          "name": "role",
          "type": "bytes32"
        },
        {
          "internalType": "address",
          "name": "account",
          "type": "address"
        }
      ],
      "name": "renounceRole",
      "outputs": [],
      "stateMutability": "nonpayable",
      "type": "function"
    },
    {
      "inputs": [
        {
          "internalType": "bytes32",
          "name": "role",
          "type": "bytes32"
        },
        {
          "internalType": "address",
          "name": "account",
          "type": "address"
        }
      ],
      "name": "revokeRole",
      "outputs": [],
      "stateMutability": "nonpayable",
      "type": "function"
    },
    {
      "inputs": [
        {
          "internalType": "bytes4",
          "name": "interfaceId",
          "type": "bytes4"
        }
      ],
      "name": "supportsInterface",
      "outputs": [
        {
          "internalType": "bool",
          "name": "",
          "type": "bool"
        }
      ],
      "stateMutability": "view",
      "type": "function"
    },
    {
      "inputs": [
        {
          "internalType": "address",
          "name": "_nftContractAddress",
          "type": "address"
        },
        {
          "internalType": "uint256",
          "name": "_tokenId",
          "type": "uint256"
        },
        {
          "internalType": "address",
          "name": "_to",
          "type": "address"
        }
      ],
      "name": "withdrawNft",
      "outputs": [],
      "stateMutability": "nonpayable",
      "type": "function"
    },
    {
      "stateMutability": "payable",
      "type": "receive"
    }
  ],
  "bytecode": "0x60806040523480156200001157600080fd5b5060405162003bdf38038062003bdf833981810160405281019062000037919062000d44565b6200004c6000801b336200047360201b60201c565b80602001516001601201819055508060400151600160130160006101000a81548173ffffffffffffffffffffffffffffffffffffffff021916908373ffffffffffffffffffffffffffffffffffffffff160217905550806000015160000151600160000160000160006101000a81548173ffffffffffffffffffffffffffffffffffffffff021916908373ffffffffffffffffffffffffffffffffffffffff160217905550806000015160200151600160000160010181905550806000015160400151600160000160020181905550806000015160600151600160000160030160006101000a81548173ffffffffffffffffffffffffffffffffffffffff021916908373ffffffffffffffffffffffffffffffffffffffff160217905550806000015160800151600160000160040160006101000a81548173ffffffffffffffffffffffffffffffffffffffff021916908373ffffffffffffffffffffffffffffffffffffffff160217905550806000015160a00151600160000160050160006101000a81548173ffffffffffffffffffffffffffffffffffffffff021916908373ffffffffffffffffffffffffffffffffffffffff160217905550806000015160c00151600160000160060181905550806000015160e0015160016000016007018190555080600001516101000151600160000160080160006101000a81548160ff0219169083601781111562000269576200026862000d95565b5b021790555080600001516101200151600160000160090181905550806000015161014001516001600001600a0181905550806000015161016001516001600001600b0181905550806000015161018001516001600001600c018190555080600001516101a001516001600001600d018190555080600001516101c001516001600001600e018190555080600001516101e001516001600001600f018190555060005b8160000151610200015151811015620004435760008260000151610200015182815181106200033f576200033e62000dc4565b5b602002602001015160000151905060008360000151610200015183815181106200036e576200036d62000dc4565b5b6020026020010151602001519050600160000160100160405180604001604052808481526020018373ffffffffffffffffffffffffffffffffffffffff1681525090806001815401808255809150506001900390600052602060002090600202016000909190919091506000820151816000015560208201518160010160006101000a81548173ffffffffffffffffffffffffffffffffffffffff021916908373ffffffffffffffffffffffffffffffffffffffff1602179055505050505080806200043a9062000e22565b9150506200030b565b5080600001516102200151600160000160110190805190602001906200046b929190620005d6565b505062000ed3565b6200048582826200056460201b60201c565b6200056057600160008084815260200190815260200160002060000160008373ffffffffffffffffffffffffffffffffffffffff1673ffffffffffffffffffffffffffffffffffffffff16815260200190815260200160002060006101000a81548160ff02191690831515021790555062000505620005ce60201b60201c565b73ffffffffffffffffffffffffffffffffffffffff168173ffffffffffffffffffffffffffffffffffffffff16837f2f8788117e7eff1d82e926ec794901d17c78024a50270940304540a733656f0d60405160405180910390a45b5050565b600080600084815260200190815260200160002060000160008373ffffffffffffffffffffffffffffffffffffffff1673ffffffffffffffffffffffffffffffffffffffff16815260200190815260200160002060009054906101000a900460ff16905092915050565b600033905090565b828054620005e49062000e9e565b90600052602060002090601f01602090048101928262000608576000855562000654565b82601f106200062357805160ff191683800117855562000654565b8280016001018555821562000654579182015b828111156200065357825182559160200191906001019062000636565b5b50905062000663919062000667565b5090565b5b808211156200068257600081600090555060010162000668565b5090565b6000604051905090565b600080fd5b600080fd5b600080fd5b6000601f19601f8301169050919050565b7f4e487b7100000000000000000000000000000000000000000000000000000000600052604160045260246000fd5b620006ea826200069f565b810181811067ffffffffffffffff821117156200070c576200070b620006b0565b5b80604052505050565b60006200072162000686565b90506200072f8282620006df565b919050565b600080fd5b600073ffffffffffffffffffffffffffffffffffffffff82169050919050565b6000620007668262000739565b9050919050565b620007788162000759565b81146200078457600080fd5b50565b60008151905062000798816200076d565b92915050565b6000819050919050565b620007b3816200079e565b8114620007bf57600080fd5b50565b600081519050620007d381620007a8565b92915050565b6000620007e68262000739565b9050919050565b620007f881620007d9565b81146200080457600080fd5b50565b6000815190506200081881620007ed565b92915050565b601881106200082c57600080fd5b50565b60008151905062000840816200081e565b92915050565b6000819050919050565b6200085b8162000846565b81146200086757600080fd5b50565b6000815190506200087b8162000850565b92915050565b600080fd5b600067ffffffffffffffff821115620008a457620008a3620006b0565b5b602082029050602081019050919050565b600080fd5b600060408284031215620008d357620008d26200069a565b5b620008df604062000715565b90506000620008f184828501620007c2565b6000830152506020620009078482850162000807565b60208301525092915050565b60006200092a620009248462000886565b62000715565b9050808382526020820190506040840283018581111562000950576200094f620008b5565b5b835b818110156200097d5780620009688882620008ba565b84526020840193505060408101905062000952565b5050509392505050565b600082601f8301126200099f576200099e62000881565b5b8151620009b184826020860162000913565b91505092915050565b600080fd5b600067ffffffffffffffff821115620009dd57620009dc620006b0565b5b620009e8826200069f565b9050602081019050919050565b60005b8381101562000a15578082015181840152602081019050620009f8565b8381111562000a25576000848401525b50505050565b600062000a4262000a3c84620009bf565b62000715565b90508281526020810184848401111562000a615762000a60620009ba565b5b62000a6e848285620009f5565b509392505050565b600082601f83011262000a8e5762000a8d62000881565b5b815162000aa084826020860162000a2b565b91505092915050565b6000610240828403121562000ac35762000ac26200069a565b5b62000ad061024062000715565b9050600062000ae28482850162000787565b600083015250602062000af884828501620007c2565b602083015250604062000b0e84828501620007c2565b604083015250606062000b248482850162000807565b606083015250608062000b3a8482850162000787565b60808301525060a062000b508482850162000787565b60a08301525060c062000b6684828501620007c2565b60c08301525060e062000b7c84828501620007c2565b60e08301525061010062000b93848285016200082f565b6101008301525061012062000bab84828501620007c2565b6101208301525061014062000bc384828501620007c2565b6101408301525061016062000bdb848285016200086a565b6101608301525061018062000bf384828501620007c2565b610180830152506101a062000c0b848285016200086a565b6101a0830152506101c062000c23848285016200086a565b6101c0830152506101e062000c3b84828501620007c2565b6101e08301525061020082015167ffffffffffffffff81111562000c645762000c6362000734565b5b62000c728482850162000987565b6102008301525061022082015167ffffffffffffffff81111562000c9b5762000c9a62000734565b5b62000ca98482850162000a76565b6102208301525092915050565b60006060828403121562000ccf5762000cce6200069a565b5b62000cdb606062000715565b9050600082015167ffffffffffffffff81111562000cfe5762000cfd62000734565b5b62000d0c8482850162000aa9565b600083015250602062000d2284828501620007c2565b602083015250604062000d388482850162000787565b60408301525092915050565b60006020828403121562000d5d5762000d5c62000690565b5b600082015167ffffffffffffffff81111562000d7e5762000d7d62000695565b5b62000d8c8482850162000cb6565b91505092915050565b7f4e487b7100000000000000000000000000000000000000000000000000000000600052602160045260246000fd5b7f4e487b7100000000000000000000000000000000000000000000000000000000600052603260045260246000fd5b7f4e487b7100000000000000000000000000000000000000000000000000000000600052601160045260246000fd5b600062000e2f826200079e565b91507fffffffffffffffffffffffffffffffffffffffffffffffffffffffffffffffff820362000e645762000e6362000df3565b5b600182019050919050565b7f4e487b7100000000000000000000000000000000000000000000000000000000600052602260045260246000fd5b6000600282049050600182168062000eb757607f821691505b60208210810362000ecd5762000ecc62000e6f565b5b50919050565b612cfc8062000ee36000396000f3fe6080604052600436106100e15760003560e01c806370143dea1161007f578063a217fddf11610059578063a217fddf146102c2578063a5587088146102ed578063cff0ab9614610318578063d547741f14610345576100f5565b806370143dea1461023e57806391d14854146102675780639c3962f0146102a4576100f5565b80632f2ff15d116100bb5780632f2ff15d146101a757806336568abe146101d0578063397a8bab146101f95780636e353a1d14610222576100f5565b806301ffc9a714610104578063248a9ca3146101415780632c5a0a131461017e576100f5565b366100f5576000801b6100f38161036e565b005b6000801b6101028161036e565b005b34801561011057600080fd5b5061012b60048036038101906101269190611895565b610382565b60405161013891906118dd565b60405180910390f35b34801561014d57600080fd5b506101686004803603810190610163919061192e565b6103fc565b604051610175919061196a565b60405180910390f35b34801561018a57600080fd5b506101a560048036038101906101a091906119a9565b61041b565b005b3480156101b357600080fd5b506101ce60048036038101906101c99190611a50565b61099c565b005b3480156101dc57600080fd5b506101f760048036038101906101f29190611a50565b6109bd565b005b34801561020557600080fd5b50610220600480360381019061021b9190611a90565b610a40565b005b61023c60048036038101906102379190611afb565b610a5e565b005b34801561024a57600080fd5b5061026560048036038101906102609190611b5e565b610b1c565b005b34801561027357600080fd5b5061028e60048036038101906102899190611a50565b610c85565b60405161029b91906118dd565b60405180910390f35b6102ac610cef565b6040516102b991906118dd565b60405180910390f35b3480156102ce57600080fd5b506102d7610eba565b6040516102e4919061196a565b60405180910390f35b3480156102f957600080fd5b50610302610ec1565b60405161030f9190611bc0565b60405180910390f35b34801561032457600080fd5b5061032d610ece565b60405161033c93929190611f9d565b60405180910390f35b34801561035157600080fd5b5061036c60048036038101906103679190611a50565b611263565b005b61037f8161037a611284565b61128c565b50565b60007f7965db0b000000000000000000000000000000000000000000000000000000007bffffffffffffffffffffffffffffffffffffffffffffffffffffffff1916827bffffffffffffffffffffffffffffffffffffffffffffffffffffffff191614806103f557506103f482611329565b5b9050919050565b6000806000838152602001908152602001600020600101549050919050565b6000801b6104288161036e565b81602001356001601201819055508160400160208101906104499190611a90565b600160130160006101000a81548173ffffffffffffffffffffffffffffffffffffffff021916908373ffffffffffffffffffffffffffffffffffffffff16021790555081806000019061049c9190611fea565b60000160208101906104ae9190611a90565b600160000160000160006101000a81548173ffffffffffffffffffffffffffffffffffffffff021916908373ffffffffffffffffffffffffffffffffffffffff1602179055508180600001906105049190611fea565b602001356001600001600101819055508180600001906105249190611fea565b604001356001600001600201819055508180600001906105449190611fea565b60600160208101906105569190611afb565b600160000160030160006101000a81548173ffffffffffffffffffffffffffffffffffffffff021916908373ffffffffffffffffffffffffffffffffffffffff1602179055508180600001906105ac9190611fea565b60800160208101906105be9190611a90565b600160000160040160006101000a81548173ffffffffffffffffffffffffffffffffffffffff021916908373ffffffffffffffffffffffffffffffffffffffff1602179055508180600001906106149190611fea565b60a00160208101906106269190611a90565b600160000160050160006101000a81548173ffffffffffffffffffffffffffffffffffffffff021916908373ffffffffffffffffffffffffffffffffffffffff16021790555081806000019061067c9190611fea565b60c0013560016000016006018190555081806000019061069c9190611fea565b60e001356001600001600701819055508180600001906106bc9190611fea565b6101000160208101906106cf9190612038565b600160000160080160006101000a81548160ff021916908360178111156106f9576106f8611c08565b5b021790555081806000019061070e9190611fea565b610120013560016000016009018190555081806000019061072f9190611fea565b61014001356001600001600a01819055508180600001906107509190611fea565b61016001356001600001600b01819055508180600001906107719190611fea565b61018001356001600001600c01819055508180600001906107929190611fea565b6101a001356001600001600d01819055508180600001906107b39190611fea565b6101c001356001600001600e01819055508180600001906107d49190611fea565b6101e001356001600001600f018190555060005b8280600001906107f89190611fea565b8061020001906108089190612065565b90508110156109615760008380600001906108239190611fea565b8061020001906108339190612065565b83818110610844576108436120c8565b5b90506040020160000135905060008480600001906108629190611fea565b8061020001906108729190612065565b84818110610883576108826120c8565b5b905060400201602001602081019061089b9190611afb565b9050600160000160100160405180604001604052808481526020018373ffffffffffffffffffffffffffffffffffffffff1681525090806001815401808255809150506001900390600052602060002090600202016000909190919091506000820151816000015560208201518160010160006101000a81548173ffffffffffffffffffffffffffffffffffffffff021916908373ffffffffffffffffffffffffffffffffffffffff16021790555050505050808061095990612126565b9150506107e8565b508180600001906109729190611fea565b806102200190610982919061216e565b60016000016011019190610997929190611790565b505050565b6109a5826103fc565b6109ae8161036e565b6109b88383611393565b505050565b6109c5611284565b73ffffffffffffffffffffffffffffffffffffffff168173ffffffffffffffffffffffffffffffffffffffff1614610a32576040517f08c379a0000000000000000000000000000000000000000000000000000000008152600401610a2990612254565b60405180910390fd5b610a3c8282611473565b5050565b6000801b610a4d8161036e565b610a5a6000801b83611393565b5050565b6000801b610a6b8161036e565b60008273ffffffffffffffffffffffffffffffffffffffff1647604051610a91906122a5565b60006040518083038185875af1925050503d8060008114610ace576040519150601f19603f3d011682016040523d82523d6000602084013e610ad3565b606091505b5050905080610b17576040517f08c379a0000000000000000000000000000000000000000000000000000000008152600401610b0e90612306565b60405180910390fd5b505050565b6000801b610b298161036e565b3073ffffffffffffffffffffffffffffffffffffffff168473ffffffffffffffffffffffffffffffffffffffff16636352211e856040518263ffffffff1660e01b8152600401610b799190611bc0565b602060405180830381865afa158015610b96573d6000803e3d6000fd5b505050506040513d601f19601f82011682018060405250810190610bba919061233b565b73ffffffffffffffffffffffffffffffffffffffff1614610c10576040517f08c379a0000000000000000000000000000000000000000000000000000000008152600401610c07906123b4565b60405180910390fd5b8373ffffffffffffffffffffffffffffffffffffffff166323b872dd3084866040518463ffffffff1660e01b8152600401610c4d939291906123d4565b600060405180830381600087803b158015610c6757600080fd5b505af1158015610c7b573d6000803e3d6000fd5b5050505050505050565b600080600084815260200190815260200160002060000160008373ffffffffffffffffffffffffffffffffffffffff1673ffffffffffffffffffffffffffffffffffffffff16815260200190815260200160002060009054906101000a900460ff16905092915050565b60008060001b610cfe8161036e565b600160120154471015610d1057600080fd5b6000600160130160009054906101000a900473ffffffffffffffffffffffffffffffffffffffff1673ffffffffffffffffffffffffffffffffffffffff166001601201546001600001604051602401610d699190612908565b6040516020818303038152906040527ffb0f3ee1000000000000000000000000000000000000000000000000000000007bffffffffffffffffffffffffffffffffffffffffffffffffffffffff19166020820180517bffffffffffffffffffffffffffffffffffffffffffffffffffffffff8381831617835250505050604051610df3919061295b565b60006040518083038185875af1925050503d8060008114610e30576040519150601f19603f3d011682016040523d82523d6000602084013e610e35565b606091505b5050905080610e79576040517f08c379a0000000000000000000000000000000000000000000000000000000008152600401610e70906129be565b60405180910390fd5b7f83e31f5e5651d64b527802681a291e708d9fe310288785b1b816aa293d9b8fc66001604051610ea991906118dd565b60405180910390a160019250505090565b6000801b81565b6000600160120154905090565b600180600001604051806102400160405290816000820160009054906101000a900473ffffffffffffffffffffffffffffffffffffffff1673ffffffffffffffffffffffffffffffffffffffff1673ffffffffffffffffffffffffffffffffffffffff16815260200160018201548152602001600282015481526020016003820160009054906101000a900473ffffffffffffffffffffffffffffffffffffffff1673ffffffffffffffffffffffffffffffffffffffff1673ffffffffffffffffffffffffffffffffffffffff1681526020016004820160009054906101000a900473ffffffffffffffffffffffffffffffffffffffff1673ffffffffffffffffffffffffffffffffffffffff1673ffffffffffffffffffffffffffffffffffffffff1681526020016005820160009054906101000a900473ffffffffffffffffffffffffffffffffffffffff1673ffffffffffffffffffffffffffffffffffffffff1673ffffffffffffffffffffffffffffffffffffffff16815260200160068201548152602001600782015481526020016008820160009054906101000a900460ff16601781111561108557611084611c08565b5b601781111561109757611096611c08565b5b815260200160098201548152602001600a8201548152602001600b8201548152602001600c8201548152602001600d8201548152602001600e8201548152602001600f820154815260200160108201805480602002602001604051908101604052809291908181526020016000905b828210156111985783829060005260206000209060020201604051806040016040529081600082015481526020016001820160009054906101000a900473ffffffffffffffffffffffffffffffffffffffff1673ffffffffffffffffffffffffffffffffffffffff1673ffffffffffffffffffffffffffffffffffffffff168152505081526020019060010190611106565b5050505081526020016011820180546111b090612613565b80601f01602080910402602001604051908101604052809291908181526020018280546111dc90612613565b80156112295780601f106111fe57610100808354040283529160200191611229565b820191906000526020600020905b81548152906001019060200180831161120c57829003601f168201915b505050505081525050908060120154908060130160009054906101000a900473ffffffffffffffffffffffffffffffffffffffff16905083565b61126c826103fc565b6112758161036e565b61127f8383611473565b505050565b600033905090565b6112968282610c85565b611325576112bb8173ffffffffffffffffffffffffffffffffffffffff166014611554565b6112c98360001c6020611554565b6040516020016112da929190612abd565b6040516020818303038152906040526040517f08c379a000000000000000000000000000000000000000000000000000000000815260040161131c9190612b30565b60405180910390fd5b5050565b60007f01ffc9a7000000000000000000000000000000000000000000000000000000007bffffffffffffffffffffffffffffffffffffffffffffffffffffffff1916827bffffffffffffffffffffffffffffffffffffffffffffffffffffffff1916149050919050565b61139d8282610c85565b61146f57600160008084815260200190815260200160002060000160008373ffffffffffffffffffffffffffffffffffffffff1673ffffffffffffffffffffffffffffffffffffffff16815260200190815260200160002060006101000a81548160ff021916908315150217905550611414611284565b73ffffffffffffffffffffffffffffffffffffffff168173ffffffffffffffffffffffffffffffffffffffff16837f2f8788117e7eff1d82e926ec794901d17c78024a50270940304540a733656f0d60405160405180910390a45b5050565b61147d8282610c85565b1561155057600080600084815260200190815260200160002060000160008373ffffffffffffffffffffffffffffffffffffffff1673ffffffffffffffffffffffffffffffffffffffff16815260200190815260200160002060006101000a81548160ff0219169083151502179055506114f5611284565b73ffffffffffffffffffffffffffffffffffffffff168173ffffffffffffffffffffffffffffffffffffffff16837ff6391f5c32d9c69d2a47ea670b442974b53935d1edc7fd64eb21e047a839171b60405160405180910390a45b5050565b6060600060028360026115679190612b52565b6115719190612bac565b67ffffffffffffffff81111561158a57611589612c02565b5b6040519080825280601f01601f1916602001820160405280156115bc5781602001600182028036833780820191505090505b5090507f3000000000000000000000000000000000000000000000000000000000000000816000815181106115f4576115f36120c8565b5b60200101907effffffffffffffffffffffffffffffffffffffffffffffffffffffffffffff1916908160001a9053507f780000000000000000000000000000000000000000000000000000000000000081600181518110611658576116576120c8565b5b60200101907effffffffffffffffffffffffffffffffffffffffffffffffffffffffffffff1916908160001a905350600060018460026116989190612b52565b6116a29190612bac565b90505b6001811115611742577f3031323334353637383961626364656600000000000000000000000000000000600f8616601081106116e4576116e36120c8565b5b1a60f81b8282815181106116fb576116fa6120c8565b5b60200101907effffffffffffffffffffffffffffffffffffffffffffffffffffffffffffff1916908160001a905350600485901c94508061173b90612c31565b90506116a5565b5060008414611786576040517f08c379a000000000000000000000000000000000000000000000000000000000815260040161177d90612ca6565b60405180910390fd5b8091505092915050565b82805461179c90612613565b90600052602060002090601f0160209004810192826117be5760008555611805565b82601f106117d757803560ff1916838001178555611805565b82800160010185558215611805579182015b828111156118045782358255916020019190600101906117e9565b5b5090506118129190611816565b5090565b5b8082111561182f576000816000905550600101611817565b5090565b600080fd5b600080fd5b60007fffffffff0000000000000000000000000000000000000000000000000000000082169050919050565b6118728161183d565b811461187d57600080fd5b50565b60008135905061188f81611869565b92915050565b6000602082840312156118ab576118aa611833565b5b60006118b984828501611880565b91505092915050565b60008115159050919050565b6118d7816118c2565b82525050565b60006020820190506118f260008301846118ce565b92915050565b6000819050919050565b61190b816118f8565b811461191657600080fd5b50565b60008135905061192881611902565b92915050565b60006020828403121561194457611943611833565b5b600061195284828501611919565b91505092915050565b611964816118f8565b82525050565b600060208201905061197f600083018461195b565b92915050565b600080fd5b6000606082840312156119a05761199f611985565b5b81905092915050565b6000602082840312156119bf576119be611833565b5b600082013567ffffffffffffffff8111156119dd576119dc611838565b5b6119e98482850161198a565b91505092915050565b600073ffffffffffffffffffffffffffffffffffffffff82169050919050565b6000611a1d826119f2565b9050919050565b611a2d81611a12565b8114611a3857600080fd5b50565b600081359050611a4a81611a24565b92915050565b60008060408385031215611a6757611a66611833565b5b6000611a7585828601611919565b9250506020611a8685828601611a3b565b9150509250929050565b600060208284031215611aa657611aa5611833565b5b6000611ab484828501611a3b565b91505092915050565b6000611ac8826119f2565b9050919050565b611ad881611abd565b8114611ae357600080fd5b50565b600081359050611af581611acf565b92915050565b600060208284031215611b1157611b10611833565b5b6000611b1f84828501611ae6565b91505092915050565b6000819050919050565b611b3b81611b28565b8114611b4657600080fd5b50565b600081359050611b5881611b32565b92915050565b600080600060608486031215611b7757611b76611833565b5b6000611b8586828701611a3b565b9350506020611b9686828701611b49565b9250506040611ba786828701611a3b565b9150509250925092565b611bba81611b28565b82525050565b6000602082019050611bd56000830184611bb1565b92915050565b611be481611a12565b82525050565b611bf381611b28565b82525050565b611c0281611abd565b82525050565b7f4e487b7100000000000000000000000000000000000000000000000000000000600052602160045260246000fd5b60188110611c4857611c47611c08565b5b50565b6000819050611c5982611c37565b919050565b6000611c6982611c4b565b9050919050565b611c7981611c5e565b82525050565b611c88816118f8565b82525050565b600081519050919050565b600082825260208201905092915050565b6000819050602082019050919050565b604082016000820151611cd06000850182611bea565b506020820151611ce36020850182611bf9565b50505050565b6000611cf58383611cba565b60408301905092915050565b6000602082019050919050565b6000611d1982611c8e565b611d238185611c99565b9350611d2e83611caa565b8060005b83811015611d5f578151611d468882611ce9565b9750611d5183611d01565b925050600181019050611d32565b5085935050505092915050565b600081519050919050565b600082825260208201905092915050565b60005b83811015611da6578082015181840152602081019050611d8b565b83811115611db5576000848401525b50505050565b6000601f19601f8301169050919050565b6000611dd782611d6c565b611de18185611d77565b9350611df1818560208601611d88565b611dfa81611dbb565b840191505092915050565b600061024083016000830151611e1e6000860182611bdb565b506020830151611e316020860182611bea565b506040830151611e446040860182611bea565b506060830151611e576060860182611bf9565b506080830151611e6a6080860182611bdb565b5060a0830151611e7d60a0860182611bdb565b5060c0830151611e9060c0860182611bea565b5060e0830151611ea360e0860182611bea565b50610100830151611eb8610100860182611c70565b50610120830151611ecd610120860182611bea565b50610140830151611ee2610140860182611bea565b50610160830151611ef7610160860182611c7f565b50610180830151611f0c610180860182611bea565b506101a0830151611f216101a0860182611c7f565b506101c0830151611f366101c0860182611c7f565b506101e0830151611f4b6101e0860182611bea565b50610200830151848203610200860152611f658282611d0e565b915050610220830151848203610220860152611f818282611dcc565b9150508091505092915050565b611f9781611a12565b82525050565b60006060820190508181036000830152611fb78186611e05565b9050611fc66020830185611bb1565b611fd36040830184611f8e565b949350505050565b600080fd5b600080fd5b600080fd5b6000823560016102400383360303811261200757612006611fdb565b5b80830191505092915050565b6018811061202057600080fd5b50565b60008135905061203281612013565b92915050565b60006020828403121561204e5761204d611833565b5b600061205c84828501612023565b91505092915050565b6000808335600160200384360303811261208257612081611fdb565b5b80840192508235915067ffffffffffffffff8211156120a4576120a3611fe0565b5b6020830192506040820236038313156120c0576120bf611fe5565b5b509250929050565b7f4e487b7100000000000000000000000000000000000000000000000000000000600052603260045260246000fd5b7f4e487b7100000000000000000000000000000000000000000000000000000000600052601160045260246000fd5b600061213182611b28565b91507fffffffffffffffffffffffffffffffffffffffffffffffffffffffffffffffff8203612163576121626120f7565b5b600182019050919050565b6000808335600160200384360303811261218b5761218a611fdb565b5b80840192508235915067ffffffffffffffff8211156121ad576121ac611fe0565b5b6020830192506001820236038313156121c9576121c8611fe5565b5b509250929050565b600082825260208201905092915050565b7f416363657373436f6e74726f6c3a2063616e206f6e6c792072656e6f756e636560008201527f20726f6c657320666f722073656c660000000000000000000000000000000000602082015250565b600061223e602f836121d1565b9150612249826121e2565b604082019050919050565b6000602082019050818103600083015261226d81612231565b9050919050565b600081905092915050565b50565b600061228f600083612274565b915061229a8261227f565b600082019050919050565b60006122b082612282565b9150819050919050565b7f4574686572207472616e73666572206661696c65642e00000000000000000000600082015250565b60006122f06016836121d1565b91506122fb826122ba565b602082019050919050565b6000602082019050818103600083015261231f816122e3565b9050919050565b60008151905061233581611a24565b92915050565b60006020828403121561235157612350611833565b5b600061235f84828501612326565b91505092915050565b7f436f6e747261637420646f6573206e6f74206f776e20746865204e4654000000600082015250565b600061239e601d836121d1565b91506123a982612368565b602082019050919050565b600060208201905081810360008301526123cd81612391565b9050919050565b60006060820190506123e96000830186611f8e565b6123f66020830185611f8e565b6124036040830184611bb1565b949350505050565b60008160001c9050919050565b600073ffffffffffffffffffffffffffffffffffffffff82169050919050565b600061244b6124468361240b565b612418565b9050919050565b6000819050919050565b600061246f61246a8361240b565b612452565b9050919050565b600073ffffffffffffffffffffffffffffffffffffffff82169050919050565b60006124a96124a48361240b565b612476565b9050919050565b600060ff82169050919050565b60006124d06124cb8361240b565b6124b0565b9050919050565b6000819050919050565b60006124f46124ef8361240b565b6124d7565b9050919050565b600081549050919050565b60008190508160005260206000209050919050565b6040820160008083015490506125308161245c565b61253d6000860182611bea565b506001830154905061254e81612496565b61255b6020860182611bf9565b5050505050565b600061256e838361251b565b60408301905092915050565b6000600282019050919050565b6000612592826124fb565b61259c8185611c99565b93506125a783612506565b8060005b838110156125d757816125be8882612562565b97506125c98361257a565b9250506001810190506125ab565b5085935050505092915050565b7f4e487b7100000000000000000000000000000000000000000000000000000000600052602260045260246000fd5b6000600282049050600182168061262b57607f821691505b60208210810361263e5761263d6125e4565b5b50919050565b60008190508160005260206000209050919050565b6000815461266681612613565b6126708186611d77565b9450600182166000811461268b576001811461269d576126d0565b60ff19831686526020860193506126d0565b6126a685612644565b60005b838110156126c8578154818901526001820191506020810190506126a9565b808801955050505b50505092915050565b6000610240830160008084015490506126f181612438565b6126fe6000870182611bdb565b506001840154905061270f8161245c565b61271c6020870182611bea565b506002840154905061272d8161245c565b61273a6040870182611bea565b506003840154905061274b81612496565b6127586060870182611bf9565b506004840154905061276981612438565b6127766080870182611bdb565b506005840154905061278781612438565b61279460a0870182611bdb565b50600684015490506127a58161245c565b6127b260c0870182611bea565b50600784015490506127c38161245c565b6127d060e0870182611bea565b50600884015490506127e1816124bd565b6127ef610100870182611c70565b50600984015490506128008161245c565b61280e610120870182611bea565b50600a840154905061281f8161245c565b61282d610140870182611bea565b50600b840154905061283e816124e1565b61284c610160870182611c7f565b50600c840154905061285d8161245c565b61286b610180870182611bea565b50600d840154905061287c816124e1565b61288a6101a0870182611c7f565b50600e840154905061289b816124e1565b6128a96101c0870182611c7f565b50600f84015490506128ba8161245c565b6128c86101e0870182611bea565b50601084018583036102008701526128e08382612587565b925050601184018583036102208701526128fa8382612659565b925050819250505092915050565b6000602082019050818103600083015261292281846126d9565b905092915050565b600061293582611d6c565b61293f8185612274565b935061294f818560208601611d88565b80840191505092915050565b6000612967828461292a565b915081905092915050565b7f5075726368617365204661696c65640000000000000000000000000000000000600082015250565b60006129a8600f836121d1565b91506129b382612972565b602082019050919050565b600060208201905081810360008301526129d78161299b565b9050919050565b600081905092915050565b7f416363657373436f6e74726f6c3a206163636f756e7420000000000000000000600082015250565b6000612a1f6017836129de565b9150612a2a826129e9565b601782019050919050565b600081519050919050565b6000612a4b82612a35565b612a5581856129de565b9350612a65818560208601611d88565b80840191505092915050565b7f206973206d697373696e6720726f6c6520000000000000000000000000000000600082015250565b6000612aa76011836129de565b9150612ab282612a71565b601182019050919050565b6000612ac882612a12565b9150612ad48285612a40565b9150612adf82612a9a565b9150612aeb8284612a40565b91508190509392505050565b6000612b0282612a35565b612b0c81856121d1565b9350612b1c818560208601611d88565b612b2581611dbb565b840191505092915050565b60006020820190508181036000830152612b4a8184612af7565b905092915050565b6000612b5d82611b28565b9150612b6883611b28565b9250817fffffffffffffffffffffffffffffffffffffffffffffffffffffffffffffffff0483118215151615612ba157612ba06120f7565b5b828202905092915050565b6000612bb782611b28565b9150612bc283611b28565b9250827fffffffffffffffffffffffffffffffffffffffffffffffffffffffffffffffff03821115612bf757612bf66120f7565b5b828201905092915050565b7f4e487b7100000000000000000000000000000000000000000000000000000000600052604160045260246000fd5b6000612c3c82611b28565b915060008203612c4f57612c4e6120f7565b5b600182039050919050565b7f537472696e67733a20686578206c656e67746820696e73756666696369656e74600082015250565b6000612c906020836121d1565b9150612c9b82612c5a565b602082019050919050565b60006020820190508181036000830152612cbf81612c83565b905091905056fea264697066735822122060dd43e6ce50b3c7722fbdbd11e10d22e09d106ffcea15c0c0e49076003287fa64736f6c634300080d0033",
  "linkReferences": {},
  "deployedLinkReferences": {}
}