{
  "_format": "hh-sol-artifact-1",
  "contractName": "MarketWrapper",
  "sourceName": "contracts/main/MarketWrapper.sol",
  "abi": [
    {
      "inputs": [
        {
          "internalType": "uint256",
          "name": "_buyNowPrice",
          "type": "uint256"
        },
        {
          "internalType": "address",
          "name": "_marketPlace",
          "type": "address"
        },
        {
          "internalType": "bytes",
          "name": "_transactionData",
          "type": "bytes"
        }
      ],
      "stateMutability": "nonpayable",
      "type": "constructor"
    },
    {
      "anonymous": false,
      "inputs": [
        {
          "indexed": false,
          "internalType": "bool",
          "name": "success",
          "type": "bool"
        }
      ],
      "name": "Purchased",
      "type": "event"
    },
    {
      "anonymous": false,
      "inputs": [
        {
          "indexed": true,
          "internalType": "bytes32",
          "name": "role",
          "type": "bytes32"
        },
        {
          "indexed": true,
          "internalType": "bytes32",
          "name": "previousAdminRole",
          "type": "bytes32"
        },
        {
          "indexed": true,
          "internalType": "bytes32",
          "name": "newAdminRole",
          "type": "bytes32"
        }
      ],
      "name": "RoleAdminChanged",
      "type": "event"
    },
    {
      "anonymous": false,
      "inputs": [
        {
          "indexed": true,
          "internalType": "bytes32",
          "name": "role",
          "type": "bytes32"
        },
        {
          "indexed": true,
          "internalType": "address",
          "name": "account",
          "type": "address"
        },
        {
          "indexed": true,
          "internalType": "address",
          "name": "sender",
          "type": "address"
        }
      ],
      "name": "RoleGranted",
      "type": "event"
    },
    {
      "anonymous": false,
      "inputs": [
        {
          "indexed": true,
          "internalType": "bytes32",
          "name": "role",
          "type": "bytes32"
        },
        {
          "indexed": true,
          "internalType": "address",
          "name": "account",
          "type": "address"
        },
        {
          "indexed": true,
          "internalType": "address",
          "name": "sender",
          "type": "address"
        }
      ],
      "name": "RoleRevoked",
      "type": "event"
    },
    {
      "stateMutability": "payable",
      "type": "fallback"
    },
    {
      "inputs": [],
      "name": "DEFAULT_ADMIN_ROLE",
      "outputs": [
        {
          "internalType": "bytes32",
          "name": "",
          "type": "bytes32"
        }
      ],
      "stateMutability": "view",
      "type": "function"
    },
    {
      "inputs": [],
      "name": "buyNow",
      "outputs": [
        {
          "internalType": "bool",
          "name": "",
          "type": "bool"
        }
      ],
      "stateMutability": "payable",
      "type": "function"
    },
    {
      "inputs": [],
      "name": "buyNowPrice",
      "outputs": [
        {
          "internalType": "uint256",
          "name": "",
          "type": "uint256"
        }
      ],
      "stateMutability": "view",
      "type": "function"
    },
    {
      "inputs": [
        {
          "internalType": "address payable",
          "name": "to",
          "type": "address"
        }
      ],
      "name": "emergencyWithdrawal",
      "outputs": [],
      "stateMutability": "payable",
      "type": "function"
    },
    {
      "inputs": [],
      "name": "getBuyNowPrice",
      "outputs": [
        {
          "internalType": "uint256",
          "name": "",
          "type": "uint256"
        }
      ],
      "stateMutability": "view",
      "type": "function"
    },
    {
      "inputs": [
        {
          "internalType": "bytes32",
          "name": "role",
          "type": "bytes32"
        }
      ],
      "name": "getRoleAdmin",
      "outputs": [
        {
          "internalType": "bytes32",
          "name": "",
          "type": "bytes32"
        }
      ],
      "stateMutability": "view",
      "type": "function"
    },
    {
      "inputs": [
        {
          "internalType": "address",
          "name": "to",
          "type": "address"
        }
      ],
      "name": "grantOwnerRole",
      "outputs": [],
      "stateMutability": "nonpayable",
      "type": "function"
    },
    {
      "inputs": [
        {
          "internalType": "bytes32",
          "name": "role",
          "type": "bytes32"
        },
        {
          "internalType": "address",
          "name": "account",
          "type": "address"
        }
      ],
      "name": "grantRole",
      "outputs": [],
      "stateMutability": "nonpayable",
      "type": "function"
    },
    {
      "inputs": [
        {
          "internalType": "bytes32",
          "name": "role",
          "type": "bytes32"
        },
        {
          "internalType": "address",
          "name": "account",
          "type": "address"
        }
      ],
      "name": "hasRole",
      "outputs": [
        {
          "internalType": "bool",
          "name": "",
          "type": "bool"
        }
      ],
      "stateMutability": "view",
      "type": "function"
    },
    {
      "inputs": [],
      "name": "marketPlace",
      "outputs": [
        {
          "internalType": "address",
          "name": "",
          "type": "address"
        }
      ],
      "stateMutability": "view",
      "type": "function"
    },
    {
      "inputs": [
        {
          "internalType": "uint256",
          "name": "_price",
          "type": "uint256"
        },
        {
          "internalType": "address",
          "name": "_marketPlace",
          "type": "address"
        },
        {
          "internalType": "bytes",
          "name": "_transactionData",
          "type": "bytes"
        }
      ],
      "name": "migration",
      "outputs": [],
      "stateMutability": "nonpayable",
      "type": "function"
    },
    {
      "inputs": [
        {
          "internalType": "bytes32",
          "name": "role",
          "type": "bytes32"
        },
        {
          "internalType": "address",
          "name": "account",
          "type": "address"
        }
      ],
      "name": "renounceRole",
      "outputs": [],
      "stateMutability": "nonpayable",
      "type": "function"
    },
    {
      "inputs": [
        {
          "internalType": "bytes32",
          "name": "role",
          "type": "bytes32"
        },
        {
          "internalType": "address",
          "name": "account",
          "type": "address"
        }
      ],
      "name": "revokeRole",
      "outputs": [],
      "stateMutability": "nonpayable",
      "type": "function"
    },
    {
      "inputs": [
        {
          "internalType": "uint256",
          "name": "_price",
          "type": "uint256"
        }
      ],
      "name": "setBuyNowPrice",
      "outputs": [],
      "stateMutability": "nonpayable",
      "type": "function"
    },
    {
      "inputs": [
        {
          "internalType": "bytes",
          "name": "_transactionData",
          "type": "bytes"
        }
      ],
      "name": "setTransactionData",
      "outputs": [],
      "stateMutability": "nonpayable",
      "type": "function"
    },
    {
      "inputs": [
        {
          "internalType": "bytes4",
          "name": "interfaceId",
          "type": "bytes4"
        }
      ],
      "name": "supportsInterface",
      "outputs": [
        {
          "internalType": "bool",
          "name": "",
          "type": "bool"
        }
      ],
      "stateMutability": "view",
      "type": "function"
    },
    {
      "inputs": [],
      "name": "transactionData",
      "outputs": [
        {
          "internalType": "bytes",
          "name": "",
          "type": "bytes"
        }
      ],
      "stateMutability": "view",
      "type": "function"
    },
    {
      "stateMutability": "payable",
      "type": "receive"
    }
  ],
  "bytecode": "0x60806040523480156200001157600080fd5b506040516200212138038062002121833981810160405281019062000037919062000506565b6200004c6000801b33620000b660201b60201c565b8260018190555081600260006101000a81548173ffffffffffffffffffffffffffffffffffffffff021916908373ffffffffffffffffffffffffffffffffffffffff1602179055508060039080519060200190620000ac92919062000219565b50505050620005e5565b620000c88282620001a760201b60201c565b620001a357600160008084815260200190815260200160002060000160008373ffffffffffffffffffffffffffffffffffffffff1673ffffffffffffffffffffffffffffffffffffffff16815260200190815260200160002060006101000a81548160ff021916908315150217905550620001486200021160201b60201c565b73ffffffffffffffffffffffffffffffffffffffff168173ffffffffffffffffffffffffffffffffffffffff16837f2f8788117e7eff1d82e926ec794901d17c78024a50270940304540a733656f0d60405160405180910390a45b5050565b600080600084815260200190815260200160002060000160008373ffffffffffffffffffffffffffffffffffffffff1673ffffffffffffffffffffffffffffffffffffffff16815260200190815260200160002060009054906101000a900460ff16905092915050565b600033905090565b8280546200022790620005b0565b90600052602060002090601f0160209004810192826200024b576000855562000297565b82601f106200026657805160ff191683800117855562000297565b8280016001018555821562000297579182015b828111156200029657825182559160200191906001019062000279565b5b509050620002a69190620002aa565b5090565b5b80821115620002c5576000816000905550600101620002ab565b5090565b6000604051905090565b600080fd5b600080fd5b6000819050919050565b620002f281620002dd565b8114620002fe57600080fd5b50565b6000815190506200031281620002e7565b92915050565b600073ffffffffffffffffffffffffffffffffffffffff82169050919050565b6000620003458262000318565b9050919050565b620003578162000338565b81146200036357600080fd5b50565b60008151905062000377816200034c565b92915050565b600080fd5b600080fd5b6000601f19601f8301169050919050565b7f4e487b7100000000000000000000000000000000000000000000000000000000600052604160045260246000fd5b620003d28262000387565b810181811067ffffffffffffffff82111715620003f457620003f362000398565b5b80604052505050565b600062000409620002c9565b9050620004178282620003c7565b919050565b600067ffffffffffffffff8211156200043a576200043962000398565b5b620004458262000387565b9050602081019050919050565b60005b838110156200047257808201518184015260208101905062000455565b8381111562000482576000848401525b50505050565b60006200049f62000499846200041c565b620003fd565b905082815260208101848484011115620004be57620004bd62000382565b5b620004cb84828562000452565b509392505050565b600082601f830112620004eb57620004ea6200037d565b5b8151620004fd84826020860162000488565b91505092915050565b600080600060608486031215620005225762000521620002d3565b5b6000620005328682870162000301565b9350506020620005458682870162000366565b925050604084015167ffffffffffffffff811115620005695762000568620002d8565b5b6200057786828701620004d3565b9150509250925092565b7f4e487b7100000000000000000000000000000000000000000000000000000000600052602260045260246000fd5b60006002820490506001821680620005c957607f821691505b602082108103620005df57620005de62000581565b5b50919050565b611b2c80620005f56000396000f3fe6080604052600436106101025760003560e01c80635ecbdce9116100955780639c3962f0116100645780639c3962f014610346578063a217fddf14610364578063a55870881461038f578063d547741f146103ba578063dd0b7ffe146103e357610116565b80635ecbdce9146102995780636e353a1d146102c45780638c3028d6146102e057806391d148541461030957610116565b80632f2ff15d116100d15780632f2ff15d146101f557806336568abe1461021e578063397a8bab146102475780635592da871461027057610116565b806301ffc9a714610125578063248a9ca314610162578063278bd0651461019f5780632e25d2a6146101ca57610116565b36610116576000801b6101148161040c565b005b6000801b6101238161040c565b005b34801561013157600080fd5b5061014c60048036038101906101479190610f8e565b610420565b6040516101599190610fd6565b60405180910390f35b34801561016e57600080fd5b5061018960048036038101906101849190611027565b61049a565b6040516101969190611063565b60405180910390f35b3480156101ab57600080fd5b506101b46104b9565b6040516101c19190611117565b60405180910390f35b3480156101d657600080fd5b506101df610547565b6040516101ec919061117a565b60405180910390f35b34801561020157600080fd5b5061021c600480360381019061021791906111c1565b61056d565b005b34801561022a57600080fd5b50610245600480360381019061024091906111c1565b61058e565b005b34801561025357600080fd5b5061026e60048036038101906102699190611201565b610611565b005b34801561027c57600080fd5b5061029760048036038101906102929190611363565b61062f565b005b3480156102a557600080fd5b506102ae610657565b6040516102bb91906113c5565b60405180910390f35b6102de60048036038101906102d9919061141e565b61065d565b005b3480156102ec57600080fd5b5061030760048036038101906103029190611477565b61071b565b005b34801561031557600080fd5b50610330600480360381019061032b91906111c1565b61078d565b60405161033d9190610fd6565b60405180910390f35b61034e6107f7565b60405161035b9190610fd6565b60405180910390f35b34801561037057600080fd5b50610379610929565b6040516103869190611063565b60405180910390f35b34801561039b57600080fd5b506103a4610930565b6040516103b191906113c5565b60405180910390f35b3480156103c657600080fd5b506103e160048036038101906103dc91906111c1565b61093a565b005b3480156103ef57600080fd5b5061040a600480360381019061040591906114e6565b61095b565b005b61041d81610418610973565b61097b565b50565b60007f7965db0b000000000000000000000000000000000000000000000000000000007bffffffffffffffffffffffffffffffffffffffffffffffffffffffff1916827bffffffffffffffffffffffffffffffffffffffffffffffffffffffff19161480610493575061049282610a18565b5b9050919050565b6000806000838152602001908152602001600020600101549050919050565b600380546104c690611542565b80601f01602080910402602001604051908101604052809291908181526020018280546104f290611542565b801561053f5780601f106105145761010080835404028352916020019161053f565b820191906000526020600020905b81548152906001019060200180831161052257829003601f168201915b505050505081565b600260009054906101000a900473ffffffffffffffffffffffffffffffffffffffff1681565b6105768261049a565b61057f8161040c565b6105898383610a82565b505050565b610596610973565b73ffffffffffffffffffffffffffffffffffffffff168173ffffffffffffffffffffffffffffffffffffffff1614610603576040517f08c379a00000000000000000000000000000000000000000000000000000000081526004016105fa906115f6565b60405180910390fd5b61060d8282610b62565b5050565b6000801b61061e8161040c565b61062b6000801b83610a82565b5050565b6000801b61063c8161040c565b8160039080519060200190610652929190610e7f565b505050565b60015481565b6000801b61066a8161040c565b60008273ffffffffffffffffffffffffffffffffffffffff164760405161069090611647565b60006040518083038185875af1925050503d80600081146106cd576040519150601f19603f3d011682016040523d82523d6000602084013e6106d2565b606091505b5050905080610716576040517f08c379a000000000000000000000000000000000000000000000000000000000815260040161070d906116a8565b60405180910390fd5b505050565b6000801b6107288161040c565b8360018190555082600260006101000a81548173ffffffffffffffffffffffffffffffffffffffff021916908373ffffffffffffffffffffffffffffffffffffffff1602179055508160039080519060200190610786929190610e7f565b5050505050565b600080600084815260200190815260200160002060000160008373ffffffffffffffffffffffffffffffffffffffff1673ffffffffffffffffffffffffffffffffffffffff16815260200190815260200160002060009054906101000a900460ff16905092915050565b60008060001b6108068161040c565b60015447101561081557600080fd5b6000600260009054906101000a900473ffffffffffffffffffffffffffffffffffffffff1673ffffffffffffffffffffffffffffffffffffffff166001546003604051610862919061175c565b60006040518083038185875af1925050503d806000811461089f576040519150601f19603f3d011682016040523d82523d6000602084013e6108a4565b606091505b50509050806108e8576040517f08c379a00000000000000000000000000000000000000000000000000000000081526004016108df906117bf565b60405180910390fd5b7f83e31f5e5651d64b527802681a291e708d9fe310288785b1b816aa293d9b8fc660016040516109189190610fd6565b60405180910390a160019250505090565b6000801b81565b6000600154905090565b6109438261049a565b61094c8161040c565b6109568383610b62565b505050565b6000801b6109688161040c565b816001819055505050565b600033905090565b610985828261078d565b610a14576109aa8173ffffffffffffffffffffffffffffffffffffffff166014610c43565b6109b88360001c6020610c43565b6040516020016109c99291906118be565b6040516020818303038152906040526040517f08c379a0000000000000000000000000000000000000000000000000000000008152600401610a0b9190611931565b60405180910390fd5b5050565b60007f01ffc9a7000000000000000000000000000000000000000000000000000000007bffffffffffffffffffffffffffffffffffffffffffffffffffffffff1916827bffffffffffffffffffffffffffffffffffffffffffffffffffffffff1916149050919050565b610a8c828261078d565b610b5e57600160008084815260200190815260200160002060000160008373ffffffffffffffffffffffffffffffffffffffff1673ffffffffffffffffffffffffffffffffffffffff16815260200190815260200160002060006101000a81548160ff021916908315150217905550610b03610973565b73ffffffffffffffffffffffffffffffffffffffff168173ffffffffffffffffffffffffffffffffffffffff16837f2f8788117e7eff1d82e926ec794901d17c78024a50270940304540a733656f0d60405160405180910390a45b5050565b610b6c828261078d565b15610c3f57600080600084815260200190815260200160002060000160008373ffffffffffffffffffffffffffffffffffffffff1673ffffffffffffffffffffffffffffffffffffffff16815260200190815260200160002060006101000a81548160ff021916908315150217905550610be4610973565b73ffffffffffffffffffffffffffffffffffffffff168173ffffffffffffffffffffffffffffffffffffffff16837ff6391f5c32d9c69d2a47ea670b442974b53935d1edc7fd64eb21e047a839171b60405160405180910390a45b5050565b606060006002836002610c569190611982565b610c6091906119dc565b67ffffffffffffffff811115610c7957610c78611238565b5b6040519080825280601f01601f191660200182016040528015610cab5781602001600182028036833780820191505090505b5090507f300000000000000000000000000000000000000000000000000000000000000081600081518110610ce357610ce2611a32565b5b60200101907effffffffffffffffffffffffffffffffffffffffffffffffffffffffffffff1916908160001a9053507f780000000000000000000000000000000000000000000000000000000000000081600181518110610d4757610d46611a32565b5b60200101907effffffffffffffffffffffffffffffffffffffffffffffffffffffffffffff1916908160001a90535060006001846002610d879190611982565b610d9191906119dc565b90505b6001811115610e31577f3031323334353637383961626364656600000000000000000000000000000000600f861660108110610dd357610dd2611a32565b5b1a60f81b828281518110610dea57610de9611a32565b5b60200101907effffffffffffffffffffffffffffffffffffffffffffffffffffffffffffff1916908160001a905350600485901c945080610e2a90611a61565b9050610d94565b5060008414610e75576040517f08c379a0000000000000000000000000000000000000000000000000000000008152600401610e6c90611ad6565b60405180910390fd5b8091505092915050565b828054610e8b90611542565b90600052602060002090601f016020900481019282610ead5760008555610ef4565b82601f10610ec657805160ff1916838001178555610ef4565b82800160010185558215610ef4579182015b82811115610ef3578251825591602001919060010190610ed8565b5b509050610f019190610f05565b5090565b5b80821115610f1e576000816000905550600101610f06565b5090565b6000604051905090565b600080fd5b600080fd5b60007fffffffff0000000000000000000000000000000000000000000000000000000082169050919050565b610f6b81610f36565b8114610f7657600080fd5b50565b600081359050610f8881610f62565b92915050565b600060208284031215610fa457610fa3610f2c565b5b6000610fb284828501610f79565b91505092915050565b60008115159050919050565b610fd081610fbb565b82525050565b6000602082019050610feb6000830184610fc7565b92915050565b6000819050919050565b61100481610ff1565b811461100f57600080fd5b50565b60008135905061102181610ffb565b92915050565b60006020828403121561103d5761103c610f2c565b5b600061104b84828501611012565b91505092915050565b61105d81610ff1565b82525050565b60006020820190506110786000830184611054565b92915050565b600081519050919050565b600082825260208201905092915050565b60005b838110156110b857808201518184015260208101905061109d565b838111156110c7576000848401525b50505050565b6000601f19601f8301169050919050565b60006110e98261107e565b6110f38185611089565b935061110381856020860161109a565b61110c816110cd565b840191505092915050565b6000602082019050818103600083015261113181846110de565b905092915050565b600073ffffffffffffffffffffffffffffffffffffffff82169050919050565b600061116482611139565b9050919050565b61117481611159565b82525050565b600060208201905061118f600083018461116b565b92915050565b61119e81611159565b81146111a957600080fd5b50565b6000813590506111bb81611195565b92915050565b600080604083850312156111d8576111d7610f2c565b5b60006111e685828601611012565b92505060206111f7858286016111ac565b9150509250929050565b60006020828403121561121757611216610f2c565b5b6000611225848285016111ac565b91505092915050565b600080fd5b600080fd5b7f4e487b7100000000000000000000000000000000000000000000000000000000600052604160045260246000fd5b611270826110cd565b810181811067ffffffffffffffff8211171561128f5761128e611238565b5b80604052505050565b60006112a2610f22565b90506112ae8282611267565b919050565b600067ffffffffffffffff8211156112ce576112cd611238565b5b6112d7826110cd565b9050602081019050919050565b82818337600083830152505050565b6000611306611301846112b3565b611298565b90508281526020810184848401111561132257611321611233565b5b61132d8482856112e4565b509392505050565b600082601f83011261134a5761134961122e565b5b813561135a8482602086016112f3565b91505092915050565b60006020828403121561137957611378610f2c565b5b600082013567ffffffffffffffff81111561139757611396610f31565b5b6113a384828501611335565b91505092915050565b6000819050919050565b6113bf816113ac565b82525050565b60006020820190506113da60008301846113b6565b92915050565b60006113eb82611139565b9050919050565b6113fb816113e0565b811461140657600080fd5b50565b600081359050611418816113f2565b92915050565b60006020828403121561143457611433610f2c565b5b600061144284828501611409565b91505092915050565b611454816113ac565b811461145f57600080fd5b50565b6000813590506114718161144b565b92915050565b6000806000606084860312156114905761148f610f2c565b5b600061149e86828701611462565b93505060206114af868287016111ac565b925050604084013567ffffffffffffffff8111156114d0576114cf610f31565b5b6114dc86828701611335565b9150509250925092565b6000602082840312156114fc576114fb610f2c565b5b600061150a84828501611462565b91505092915050565b7f4e487b7100000000000000000000000000000000000000000000000000000000600052602260045260246000fd5b6000600282049050600182168061155a57607f821691505b60208210810361156d5761156c611513565b5b50919050565b600082825260208201905092915050565b7f416363657373436f6e74726f6c3a2063616e206f6e6c792072656e6f756e636560008201527f20726f6c657320666f722073656c660000000000000000000000000000000000602082015250565b60006115e0602f83611573565b91506115eb82611584565b604082019050919050565b6000602082019050818103600083015261160f816115d3565b9050919050565b600081905092915050565b50565b6000611631600083611616565b915061163c82611621565b600082019050919050565b600061165282611624565b9150819050919050565b7f4574686572207472616e73666572206661696c65642e00000000000000000000600082015250565b6000611692601683611573565b915061169d8261165c565b602082019050919050565b600060208201905081810360008301526116c181611685565b9050919050565b60008190508160005260206000209050919050565b600081546116ea81611542565b6116f48186611616565b9450600182166000811461170f576001811461172057611753565b60ff19831686528186019350611753565b611729856116c8565b60005b8381101561174b5781548189015260018201915060208101905061172c565b838801955050505b50505092915050565b600061176882846116dd565b915081905092915050565b7f5075726368617365204661696c65640000000000000000000000000000000000600082015250565b60006117a9600f83611573565b91506117b482611773565b602082019050919050565b600060208201905081810360008301526117d88161179c565b9050919050565b600081905092915050565b7f416363657373436f6e74726f6c3a206163636f756e7420000000000000000000600082015250565b60006118206017836117df565b915061182b826117ea565b601782019050919050565b600081519050919050565b600061184c82611836565b61185681856117df565b935061186681856020860161109a565b80840191505092915050565b7f206973206d697373696e6720726f6c6520000000000000000000000000000000600082015250565b60006118a86011836117df565b91506118b382611872565b601182019050919050565b60006118c982611813565b91506118d58285611841565b91506118e08261189b565b91506118ec8284611841565b91508190509392505050565b600061190382611836565b61190d8185611573565b935061191d81856020860161109a565b611926816110cd565b840191505092915050565b6000602082019050818103600083015261194b81846118f8565b905092915050565b7f4e487b7100000000000000000000000000000000000000000000000000000000600052601160045260246000fd5b600061198d826113ac565b9150611998836113ac565b9250817fffffffffffffffffffffffffffffffffffffffffffffffffffffffffffffffff04831182151516156119d1576119d0611953565b5b828202905092915050565b60006119e7826113ac565b91506119f2836113ac565b9250827fffffffffffffffffffffffffffffffffffffffffffffffffffffffffffffffff03821115611a2757611a26611953565b5b828201905092915050565b7f4e487b7100000000000000000000000000000000000000000000000000000000600052603260045260246000fd5b6000611a6c826113ac565b915060008203611a7f57611a7e611953565b5b600182039050919050565b7f537472696e67733a20686578206c656e67746820696e73756666696369656e74600082015250565b6000611ac0602083611573565b9150611acb82611a8a565b602082019050919050565b60006020820190508181036000830152611aef81611ab3565b905091905056fea2646970667358221220cb44e4826d92b734744ad6d6f97481d81b1c19a642c1810983271a882ac72b0c64736f6c634300080d0033",
  "linkReferences": {},
  "deployedLinkReferences": {}
}