{
  "_format": "hh-sol-artifact-1",
  "contractName": "MarketWrapper",
  "sourceName": "contracts/main/MarketWrapper.sol",
  "abi": [
    {
      "inputs": [
        {
          "internalType": "uint256",
          "name": "_buyNowPrice",
          "type": "uint256"
        },
        {
          "internalType": "address",
          "name": "_marketPlace",
          "type": "address"
        },
        {
          "components": [
            {
              "internalType": "address",
              "name": "considerationToken",
              "type": "address"
            },
            {
              "internalType": "uint256",
              "name": "considerationIdentifier",
              "type": "uint256"
            },
            {
              "internalType": "uint256",
              "name": "considerationAmount",
              "type": "uint256"
            },
            {
              "internalType": "address payable",
              "name": "offerer",
              "type": "address"
            },
            {
              "internalType": "address",
              "name": "zone",
              "type": "address"
            },
            {
              "internalType": "address",
              "name": "offerToken",
              "type": "address"
            },
            {
              "internalType": "uint256",
              "name": "offerIdentifier",
              "type": "uint256"
            },
            {
              "internalType": "uint256",
              "name": "offerAmount",
              "type": "uint256"
            },
            {
              "internalType": "enum BasicOrderType",
              "name": "basicOrderType",
              "type": "uint8"
            },
            {
              "internalType": "uint256",
              "name": "startTime",
              "type": "uint256"
            },
            {
              "internalType": "uint256",
              "name": "endTime",
              "type": "uint256"
            },
            {
              "internalType": "bytes32",
              "name": "zoneHash",
              "type": "bytes32"
            },
            {
              "internalType": "uint256",
              "name": "salt",
              "type": "uint256"
            },
            {
              "internalType": "bytes32",
              "name": "offererConduitKey",
              "type": "bytes32"
            },
            {
              "internalType": "bytes32",
              "name": "fulfillerConduitKey",
              "type": "bytes32"
            },
            {
              "internalType": "uint256",
              "name": "totalOriginalAdditionalRecipients",
              "type": "uint256"
            },
            {
              "components": [
                {
                  "internalType": "uint256",
                  "name": "amount",
                  "type": "uint256"
                },
                {
                  "internalType": "address payable",
                  "name": "recipient",
                  "type": "address"
                }
              ],
              "internalType": "struct AdditionalRecipient[]",
              "name": "additionalRecipients",
              "type": "tuple[]"
            },
            {
              "internalType": "bytes",
              "name": "signature",
              "type": "bytes"
            }
          ],
          "internalType": "struct BasicOrderParameters",
          "name": "_transactionData",
          "type": "tuple"
        }
      ],
      "stateMutability": "nonpayable",
      "type": "constructor"
    },
    {
      "anonymous": false,
      "inputs": [
        {
          "indexed": false,
          "internalType": "bool",
          "name": "success",
          "type": "bool"
        }
      ],
      "name": "Purchased",
      "type": "event"
    },
    {
      "anonymous": false,
      "inputs": [
        {
          "indexed": true,
          "internalType": "bytes32",
          "name": "role",
          "type": "bytes32"
        },
        {
          "indexed": true,
          "internalType": "bytes32",
          "name": "previousAdminRole",
          "type": "bytes32"
        },
        {
          "indexed": true,
          "internalType": "bytes32",
          "name": "newAdminRole",
          "type": "bytes32"
        }
      ],
      "name": "RoleAdminChanged",
      "type": "event"
    },
    {
      "anonymous": false,
      "inputs": [
        {
          "indexed": true,
          "internalType": "bytes32",
          "name": "role",
          "type": "bytes32"
        },
        {
          "indexed": true,
          "internalType": "address",
          "name": "account",
          "type": "address"
        },
        {
          "indexed": true,
          "internalType": "address",
          "name": "sender",
          "type": "address"
        }
      ],
      "name": "RoleGranted",
      "type": "event"
    },
    {
      "anonymous": false,
      "inputs": [
        {
          "indexed": true,
          "internalType": "bytes32",
          "name": "role",
          "type": "bytes32"
        },
        {
          "indexed": true,
          "internalType": "address",
          "name": "account",
          "type": "address"
        },
        {
          "indexed": true,
          "internalType": "address",
          "name": "sender",
          "type": "address"
        }
      ],
      "name": "RoleRevoked",
      "type": "event"
    },
    {
      "stateMutability": "payable",
      "type": "fallback"
    },
    {
      "inputs": [],
      "name": "DEFAULT_ADMIN_ROLE",
      "outputs": [
        {
          "internalType": "bytes32",
          "name": "",
          "type": "bytes32"
        }
      ],
      "stateMutability": "view",
      "type": "function"
    },
    {
      "inputs": [],
      "name": "buyNow",
      "outputs": [
        {
          "internalType": "bool",
          "name": "",
          "type": "bool"
        }
      ],
      "stateMutability": "payable",
      "type": "function"
    },
    {
      "inputs": [],
      "name": "buyNowPrice",
      "outputs": [
        {
          "internalType": "uint256",
          "name": "",
          "type": "uint256"
        }
      ],
      "stateMutability": "view",
      "type": "function"
    },
    {
      "inputs": [
        {
          "internalType": "address payable",
          "name": "to",
          "type": "address"
        }
      ],
      "name": "emergencyWithdrawal",
      "outputs": [],
      "stateMutability": "payable",
      "type": "function"
    },
    {
      "inputs": [],
      "name": "getBuyNowPrice",
      "outputs": [
        {
          "internalType": "uint256",
          "name": "",
          "type": "uint256"
        }
      ],
      "stateMutability": "view",
      "type": "function"
    },
    {
      "inputs": [
        {
          "internalType": "bytes32",
          "name": "role",
          "type": "bytes32"
        }
      ],
      "name": "getRoleAdmin",
      "outputs": [
        {
          "internalType": "bytes32",
          "name": "",
          "type": "bytes32"
        }
      ],
      "stateMutability": "view",
      "type": "function"
    },
    {
      "inputs": [
        {
          "internalType": "address",
          "name": "to",
          "type": "address"
        }
      ],
      "name": "grantOwnerRole",
      "outputs": [],
      "stateMutability": "nonpayable",
      "type": "function"
    },
    {
      "inputs": [
        {
          "internalType": "bytes32",
          "name": "role",
          "type": "bytes32"
        },
        {
          "internalType": "address",
          "name": "account",
          "type": "address"
        }
      ],
      "name": "grantRole",
      "outputs": [],
      "stateMutability": "nonpayable",
      "type": "function"
    },
    {
      "inputs": [
        {
          "internalType": "bytes32",
          "name": "role",
          "type": "bytes32"
        },
        {
          "internalType": "address",
          "name": "account",
          "type": "address"
        }
      ],
      "name": "hasRole",
      "outputs": [
        {
          "internalType": "bool",
          "name": "",
          "type": "bool"
        }
      ],
      "stateMutability": "view",
      "type": "function"
    },
    {
      "inputs": [],
      "name": "marketPlace",
      "outputs": [
        {
          "internalType": "address",
          "name": "",
          "type": "address"
        }
      ],
      "stateMutability": "view",
      "type": "function"
    },
    {
      "inputs": [
        {
          "internalType": "bytes32",
          "name": "role",
          "type": "bytes32"
        },
        {
          "internalType": "address",
          "name": "account",
          "type": "address"
        }
      ],
      "name": "renounceRole",
      "outputs": [],
      "stateMutability": "nonpayable",
      "type": "function"
    },
    {
      "inputs": [
        {
          "internalType": "bytes32",
          "name": "role",
          "type": "bytes32"
        },
        {
          "internalType": "address",
          "name": "account",
          "type": "address"
        }
      ],
      "name": "revokeRole",
      "outputs": [],
      "stateMutability": "nonpayable",
      "type": "function"
    },
    {
      "inputs": [
        {
          "internalType": "uint256",
          "name": "_price",
          "type": "uint256"
        }
      ],
      "name": "setBuyNowPrice",
      "outputs": [],
      "stateMutability": "nonpayable",
      "type": "function"
    },
    {
      "inputs": [
        {
          "internalType": "address",
          "name": "_marketPlace",
          "type": "address"
        }
      ],
      "name": "setMarketPlace",
      "outputs": [],
      "stateMutability": "nonpayable",
      "type": "function"
    },
    {
      "inputs": [
        {
          "components": [
            {
              "internalType": "address",
              "name": "considerationToken",
              "type": "address"
            },
            {
              "internalType": "uint256",
              "name": "considerationIdentifier",
              "type": "uint256"
            },
            {
              "internalType": "uint256",
              "name": "considerationAmount",
              "type": "uint256"
            },
            {
              "internalType": "address payable",
              "name": "offerer",
              "type": "address"
            },
            {
              "internalType": "address",
              "name": "zone",
              "type": "address"
            },
            {
              "internalType": "address",
              "name": "offerToken",
              "type": "address"
            },
            {
              "internalType": "uint256",
              "name": "offerIdentifier",
              "type": "uint256"
            },
            {
              "internalType": "uint256",
              "name": "offerAmount",
              "type": "uint256"
            },
            {
              "internalType": "enum BasicOrderType",
              "name": "basicOrderType",
              "type": "uint8"
            },
            {
              "internalType": "uint256",
              "name": "startTime",
              "type": "uint256"
            },
            {
              "internalType": "uint256",
              "name": "endTime",
              "type": "uint256"
            },
            {
              "internalType": "bytes32",
              "name": "zoneHash",
              "type": "bytes32"
            },
            {
              "internalType": "uint256",
              "name": "salt",
              "type": "uint256"
            },
            {
              "internalType": "bytes32",
              "name": "offererConduitKey",
              "type": "bytes32"
            },
            {
              "internalType": "bytes32",
              "name": "fulfillerConduitKey",
              "type": "bytes32"
            },
            {
              "internalType": "uint256",
              "name": "totalOriginalAdditionalRecipients",
              "type": "uint256"
            },
            {
              "components": [
                {
                  "internalType": "uint256",
                  "name": "amount",
                  "type": "uint256"
                },
                {
                  "internalType": "address payable",
                  "name": "recipient",
                  "type": "address"
                }
              ],
              "internalType": "struct AdditionalRecipient[]",
              "name": "additionalRecipients",
              "type": "tuple[]"
            },
            {
              "internalType": "bytes",
              "name": "signature",
              "type": "bytes"
            }
          ],
          "internalType": "struct BasicOrderParameters",
          "name": "_transactionData",
          "type": "tuple"
        }
      ],
      "name": "setTransactionData",
      "outputs": [],
      "stateMutability": "nonpayable",
      "type": "function"
    },
    {
      "inputs": [
        {
          "internalType": "bytes4",
          "name": "interfaceId",
          "type": "bytes4"
        }
      ],
      "name": "supportsInterface",
      "outputs": [
        {
          "internalType": "bool",
          "name": "",
          "type": "bool"
        }
      ],
      "stateMutability": "view",
      "type": "function"
    },
    {
      "inputs": [],
      "name": "transactionData",
      "outputs": [
        {
          "internalType": "bytes",
          "name": "",
          "type": "bytes"
        }
      ],
      "stateMutability": "view",
      "type": "function"
    },
    {
      "stateMutability": "payable",
      "type": "receive"
    }
  ],
  "bytecode": "0x60806040523480156200001157600080fd5b506040516200301638038062003016833981810160405281019062000037919062000988565b6200004c6000801b336200014560201b60201c565b8260018190555081600260006101000a81548173ffffffffffffffffffffffffffffffffffffffff021916908373ffffffffffffffffffffffffffffffffffffffff16021790555080604051602401620000a7919062000dc1565b6040516020818303038152906040527fc105f051000000000000000000000000000000000000000000000000000000007bffffffffffffffffffffffffffffffffffffffffffffffffffffffff19166020820180517bffffffffffffffffffffffffffffffffffffffffffffffffffffffff8381831617835250505050600390805190602001906200013b929190620002a8565b5050505062000e4a565b6200015782826200023660201b60201c565b6200023257600160008084815260200190815260200160002060000160008373ffffffffffffffffffffffffffffffffffffffff1673ffffffffffffffffffffffffffffffffffffffff16815260200190815260200160002060006101000a81548160ff021916908315150217905550620001d7620002a060201b60201c565b73ffffffffffffffffffffffffffffffffffffffff168173ffffffffffffffffffffffffffffffffffffffff16837f2f8788117e7eff1d82e926ec794901d17c78024a50270940304540a733656f0d60405160405180910390a45b5050565b600080600084815260200190815260200160002060000160008373ffffffffffffffffffffffffffffffffffffffff1673ffffffffffffffffffffffffffffffffffffffff16815260200190815260200160002060009054906101000a900460ff16905092915050565b600033905090565b828054620002b69062000e14565b90600052602060002090601f016020900481019282620002da576000855562000326565b82601f10620002f557805160ff191683800117855562000326565b8280016001018555821562000326579182015b828111156200032557825182559160200191906001019062000308565b5b50905062000335919062000339565b5090565b5b80821115620003545760008160009055506001016200033a565b5090565b6000604051905090565b600080fd5b600080fd5b6000819050919050565b62000381816200036c565b81146200038d57600080fd5b50565b600081519050620003a18162000376565b92915050565b600073ffffffffffffffffffffffffffffffffffffffff82169050919050565b6000620003d482620003a7565b9050919050565b620003e681620003c7565b8114620003f257600080fd5b50565b6000815190506200040681620003db565b92915050565b600080fd5b6000601f19601f8301169050919050565b7f4e487b7100000000000000000000000000000000000000000000000000000000600052604160045260246000fd5b6200045c8262000411565b810181811067ffffffffffffffff821117156200047e576200047d62000422565b5b80604052505050565b60006200049362000358565b9050620004a1828262000451565b919050565b600080fd5b6000620004b882620003a7565b9050919050565b620004ca81620004ab565b8114620004d657600080fd5b50565b600081519050620004ea81620004bf565b92915050565b60188110620004fe57600080fd5b50565b6000815190506200051281620004f0565b92915050565b6000819050919050565b6200052d8162000518565b81146200053957600080fd5b50565b6000815190506200054d8162000522565b92915050565b600080fd5b600067ffffffffffffffff82111562000576576200057562000422565b5b602082029050602081019050919050565b600080fd5b600060408284031215620005a557620005a46200040c565b5b620005b1604062000487565b90506000620005c38482850162000390565b6000830152506020620005d984828501620004d9565b60208301525092915050565b6000620005fc620005f68462000558565b62000487565b9050808382526020820190506040840283018581111562000622576200062162000587565b5b835b818110156200064f57806200063a88826200058c565b84526020840193505060408101905062000624565b5050509392505050565b600082601f83011262000671576200067062000553565b5b815162000683848260208601620005e5565b91505092915050565b600080fd5b600067ffffffffffffffff821115620006af57620006ae62000422565b5b620006ba8262000411565b9050602081019050919050565b60005b83811015620006e7578082015181840152602081019050620006ca565b83811115620006f7576000848401525b50505050565b6000620007146200070e8462000691565b62000487565b9050828152602081018484840111156200073357620007326200068c565b5b62000740848285620006c7565b509392505050565b600082601f83011262000760576200075f62000553565b5b815162000772848260208601620006fd565b91505092915050565b600061024082840312156200079557620007946200040c565b5b620007a261024062000487565b90506000620007b484828501620003f5565b6000830152506020620007ca8482850162000390565b6020830152506040620007e08482850162000390565b6040830152506060620007f684828501620004d9565b60608301525060806200080c84828501620003f5565b60808301525060a06200082284828501620003f5565b60a08301525060c0620008388482850162000390565b60c08301525060e06200084e8482850162000390565b60e083015250610100620008658482850162000501565b610100830152506101206200087d8482850162000390565b61012083015250610140620008958482850162000390565b61014083015250610160620008ad848285016200053c565b61016083015250610180620008c58482850162000390565b610180830152506101a0620008dd848285016200053c565b6101a0830152506101c0620008f5848285016200053c565b6101c0830152506101e06200090d8482850162000390565b6101e08301525061020082015167ffffffffffffffff811115620009365762000935620004a6565b5b620009448482850162000659565b6102008301525061022082015167ffffffffffffffff8111156200096d576200096c620004a6565b5b6200097b8482850162000748565b6102208301525092915050565b600080600060608486031215620009a457620009a362000362565b5b6000620009b48682870162000390565b9350506020620009c786828701620003f5565b925050604084015167ffffffffffffffff811115620009eb57620009ea62000367565b5b620009f9868287016200077b565b9150509250925092565b62000a0e81620003c7565b82525050565b62000a1f816200036c565b82525050565b62000a3081620004ab565b82525050565b7f4e487b7100000000000000000000000000000000000000000000000000000000600052602160045260246000fd5b6018811062000a795762000a7862000a36565b5b50565b600081905062000a8c8262000a65565b919050565b600062000a9e8262000a7c565b9050919050565b62000ab08162000a91565b82525050565b62000ac18162000518565b82525050565b600081519050919050565b600082825260208201905092915050565b6000819050602082019050919050565b60408201600082015162000b0b600085018262000a14565b50602082015162000b20602085018262000a25565b50505050565b600062000b34838362000af3565b60408301905092915050565b6000602082019050919050565b600062000b5a8262000ac7565b62000b66818562000ad2565b935062000b738362000ae3565b8060005b8381101562000baa57815162000b8e888262000b26565b975062000b9b8362000b40565b92505060018101905062000b77565b5085935050505092915050565b600081519050919050565b600082825260208201905092915050565b600062000be08262000bb7565b62000bec818562000bc2565b935062000bfe818560208601620006c7565b62000c098162000411565b840191505092915050565b60006102408301600083015162000c2f600086018262000a03565b50602083015162000c44602086018262000a14565b50604083015162000c59604086018262000a14565b50606083015162000c6e606086018262000a25565b50608083015162000c83608086018262000a03565b5060a083015162000c9860a086018262000a03565b5060c083015162000cad60c086018262000a14565b5060e083015162000cc260e086018262000a14565b5061010083015162000cd961010086018262000aa5565b5061012083015162000cf061012086018262000a14565b5061014083015162000d0761014086018262000a14565b5061016083015162000d1e61016086018262000ab6565b5061018083015162000d3561018086018262000a14565b506101a083015162000d4c6101a086018262000ab6565b506101c083015162000d636101c086018262000ab6565b506101e083015162000d7a6101e086018262000a14565b5061020083015184820361020086015262000d96828262000b4d565b91505061022083015184820361022086015262000db4828262000bd3565b9150508091505092915050565b6000602082019050818103600083015262000ddd818462000c14565b905092915050565b7f4e487b7100000000000000000000000000000000000000000000000000000000600052602260045260246000fd5b6000600282049050600182168062000e2d57607f821691505b6020821081141562000e445762000e4362000de5565b5b50919050565b6121bc8062000e5a6000396000f3fe6080604052600436106101025760003560e01c8063539a2c6d116100955780639c3962f0116100645780639c3962f01461032c578063a217fddf1461034a578063a558708814610375578063d547741f146103a0578063dd0b7ffe146103c957610109565b8063539a2c6d1461027f5780635ecbdce9146102a85780636e353a1d146102d357806391d14854146102ef57610109565b80632f2ff15d116100d15780632f2ff15d146101db57806330568a8d1461020457806336568abe1461022d578063397a8bab1461025657610109565b806301ffc9a71461010b578063248a9ca314610148578063278bd065146101855780632e25d2a6146101b057610109565b3661010957005b005b34801561011757600080fd5b50610132600480360381019061012d9190610fe0565b6103f2565b60405161013f9190611028565b60405180910390f35b34801561015457600080fd5b5061016f600480360381019061016a9190611079565b61046c565b60405161017c91906110b5565b60405180910390f35b34801561019157600080fd5b5061019a61048b565b6040516101a79190611169565b60405180910390f35b3480156101bc57600080fd5b506101c5610519565b6040516101d291906111cc565b60405180910390f35b3480156101e757600080fd5b5061020260048036038101906101fd9190611213565b61053f565b005b34801561021057600080fd5b5061022b60048036038101906102269190611253565b610560565b005b34801561023957600080fd5b50610254600480360381019061024f9190611213565b6105b2565b005b34801561026257600080fd5b5061027d60048036038101906102789190611253565b610635565b005b34801561028b57600080fd5b506102a660048036038101906102a1919061174e565b610653565b005b3480156102b457600080fd5b506102bd610708565b6040516102ca91906117a6565b60405180910390f35b6102ed60048036038101906102e891906117c1565b61070e565b005b3480156102fb57600080fd5b5061031660048036038101906103119190611213565b6107cc565b6040516103239190611028565b60405180910390f35b610334610836565b6040516103419190611028565b60405180910390f35b34801561035657600080fd5b5061035f610967565b60405161036c91906110b5565b60405180910390f35b34801561038157600080fd5b5061038a61096e565b60405161039791906117a6565b60405180910390f35b3480156103ac57600080fd5b506103c760048036038101906103c29190611213565b610978565b005b3480156103d557600080fd5b506103f060048036038101906103eb91906117ee565b610999565b005b60007f7965db0b000000000000000000000000000000000000000000000000000000007bffffffffffffffffffffffffffffffffffffffffffffffffffffffff1916827bffffffffffffffffffffffffffffffffffffffffffffffffffffffff191614806104655750610464826109b1565b5b9050919050565b6000806000838152602001908152602001600020600101549050919050565b600380546104989061184a565b80601f01602080910402602001604051908101604052809291908181526020018280546104c49061184a565b80156105115780601f106104e657610100808354040283529160200191610511565b820191906000526020600020905b8154815290600101906020018083116104f457829003601f168201915b505050505081565b600260009054906101000a900473ffffffffffffffffffffffffffffffffffffffff1681565b6105488261046c565b61055181610a1b565b61055b8383610a2f565b505050565b6000801b61056d81610a1b565b81600260006101000a81548173ffffffffffffffffffffffffffffffffffffffff021916908373ffffffffffffffffffffffffffffffffffffffff1602179055505050565b6105ba610b0f565b73ffffffffffffffffffffffffffffffffffffffff168173ffffffffffffffffffffffffffffffffffffffff1614610627576040517f08c379a000000000000000000000000000000000000000000000000000000000815260040161061e906118ff565b60405180910390fd5b6106318282610b17565b5050565b6000801b61064281610a1b565b61064f6000801b83610a2f565b5050565b6000801b61066081610a1b565b816040516024016106719190611c83565b6040516020818303038152906040527fc105f051000000000000000000000000000000000000000000000000000000007bffffffffffffffffffffffffffffffffffffffffffffffffffffffff19166020820180517bffffffffffffffffffffffffffffffffffffffffffffffffffffffff838183161783525050505060039080519060200190610703929190610ed1565b505050565b60015481565b6000801b61071b81610a1b565b60008273ffffffffffffffffffffffffffffffffffffffff164760405161074190611cd6565b60006040518083038185875af1925050503d806000811461077e576040519150601f19603f3d011682016040523d82523d6000602084013e610783565b606091505b50509050806107c7576040517f08c379a00000000000000000000000000000000000000000000000000000000081526004016107be90611d37565b60405180910390fd5b505050565b600080600084815260200190815260200160002060000160008373ffffffffffffffffffffffffffffffffffffffff1673ffffffffffffffffffffffffffffffffffffffff16815260200190815260200160002060009054906101000a900460ff16905092915050565b60008060001b61084581610a1b565b600154471461085357600080fd5b6000600260009054906101000a900473ffffffffffffffffffffffffffffffffffffffff1673ffffffffffffffffffffffffffffffffffffffff1660015460036040516108a09190611deb565b60006040518083038185875af1925050503d80600081146108dd576040519150601f19603f3d011682016040523d82523d6000602084013e6108e2565b606091505b5050905080610926576040517f08c379a000000000000000000000000000000000000000000000000000000000815260040161091d90611e4e565b60405180910390fd5b7f83e31f5e5651d64b527802681a291e708d9fe310288785b1b816aa293d9b8fc660016040516109569190611028565b60405180910390a160019250505090565b6000801b81565b6000600154905090565b6109818261046c565b61098a81610a1b565b6109948383610b17565b505050565b6000801b6109a681610a1b565b816001819055505050565b60007f01ffc9a7000000000000000000000000000000000000000000000000000000007bffffffffffffffffffffffffffffffffffffffffffffffffffffffff1916827bffffffffffffffffffffffffffffffffffffffffffffffffffffffff1916149050919050565b610a2c81610a27610b0f565b610bf8565b50565b610a3982826107cc565b610b0b57600160008084815260200190815260200160002060000160008373ffffffffffffffffffffffffffffffffffffffff1673ffffffffffffffffffffffffffffffffffffffff16815260200190815260200160002060006101000a81548160ff021916908315150217905550610ab0610b0f565b73ffffffffffffffffffffffffffffffffffffffff168173ffffffffffffffffffffffffffffffffffffffff16837f2f8788117e7eff1d82e926ec794901d17c78024a50270940304540a733656f0d60405160405180910390a45b5050565b600033905090565b610b2182826107cc565b15610bf457600080600084815260200190815260200160002060000160008373ffffffffffffffffffffffffffffffffffffffff1673ffffffffffffffffffffffffffffffffffffffff16815260200190815260200160002060006101000a81548160ff021916908315150217905550610b99610b0f565b73ffffffffffffffffffffffffffffffffffffffff168173ffffffffffffffffffffffffffffffffffffffff16837ff6391f5c32d9c69d2a47ea670b442974b53935d1edc7fd64eb21e047a839171b60405160405180910390a45b5050565b610c0282826107cc565b610c9157610c278173ffffffffffffffffffffffffffffffffffffffff166014610c95565b610c358360001c6020610c95565b604051602001610c46929190611f4d565b6040516020818303038152906040526040517f08c379a0000000000000000000000000000000000000000000000000000000008152600401610c889190611fc0565b60405180910390fd5b5050565b606060006002836002610ca89190612011565b610cb2919061206b565b67ffffffffffffffff811115610ccb57610cca611285565b5b6040519080825280601f01601f191660200182016040528015610cfd5781602001600182028036833780820191505090505b5090507f300000000000000000000000000000000000000000000000000000000000000081600081518110610d3557610d346120c1565b5b60200101907effffffffffffffffffffffffffffffffffffffffffffffffffffffffffffff1916908160001a9053507f780000000000000000000000000000000000000000000000000000000000000081600181518110610d9957610d986120c1565b5b60200101907effffffffffffffffffffffffffffffffffffffffffffffffffffffffffffff1916908160001a90535060006001846002610dd99190612011565b610de3919061206b565b90505b6001811115610e83577f3031323334353637383961626364656600000000000000000000000000000000600f861660108110610e2557610e246120c1565b5b1a60f81b828281518110610e3c57610e3b6120c1565b5b60200101907effffffffffffffffffffffffffffffffffffffffffffffffffffffffffffff1916908160001a905350600485901c945080610e7c906120f0565b9050610de6565b5060008414610ec7576040517f08c379a0000000000000000000000000000000000000000000000000000000008152600401610ebe90612166565b60405180910390fd5b8091505092915050565b828054610edd9061184a565b90600052602060002090601f016020900481019282610eff5760008555610f46565b82601f10610f1857805160ff1916838001178555610f46565b82800160010185558215610f46579182015b82811115610f45578251825591602001919060010190610f2a565b5b509050610f539190610f57565b5090565b5b80821115610f70576000816000905550600101610f58565b5090565b6000604051905090565b600080fd5b600080fd5b60007fffffffff0000000000000000000000000000000000000000000000000000000082169050919050565b610fbd81610f88565b8114610fc857600080fd5b50565b600081359050610fda81610fb4565b92915050565b600060208284031215610ff657610ff5610f7e565b5b600061100484828501610fcb565b91505092915050565b60008115159050919050565b6110228161100d565b82525050565b600060208201905061103d6000830184611019565b92915050565b6000819050919050565b61105681611043565b811461106157600080fd5b50565b6000813590506110738161104d565b92915050565b60006020828403121561108f5761108e610f7e565b5b600061109d84828501611064565b91505092915050565b6110af81611043565b82525050565b60006020820190506110ca60008301846110a6565b92915050565b600081519050919050565b600082825260208201905092915050565b60005b8381101561110a5780820151818401526020810190506110ef565b83811115611119576000848401525b50505050565b6000601f19601f8301169050919050565b600061113b826110d0565b61114581856110db565b93506111558185602086016110ec565b61115e8161111f565b840191505092915050565b600060208201905081810360008301526111838184611130565b905092915050565b600073ffffffffffffffffffffffffffffffffffffffff82169050919050565b60006111b68261118b565b9050919050565b6111c6816111ab565b82525050565b60006020820190506111e160008301846111bd565b92915050565b6111f0816111ab565b81146111fb57600080fd5b50565b60008135905061120d816111e7565b92915050565b6000806040838503121561122a57611229610f7e565b5b600061123885828601611064565b9250506020611249858286016111fe565b9150509250929050565b60006020828403121561126957611268610f7e565b5b6000611277848285016111fe565b91505092915050565b600080fd5b7f4e487b7100000000000000000000000000000000000000000000000000000000600052604160045260246000fd5b6112bd8261111f565b810181811067ffffffffffffffff821117156112dc576112db611285565b5b80604052505050565b60006112ef610f74565b90506112fb82826112b4565b919050565b600080fd5b6000819050919050565b61131881611305565b811461132357600080fd5b50565b6000813590506113358161130f565b92915050565b60006113468261118b565b9050919050565b6113568161133b565b811461136157600080fd5b50565b6000813590506113738161134d565b92915050565b6018811061138657600080fd5b50565b60008135905061139881611379565b92915050565b600080fd5b600067ffffffffffffffff8211156113be576113bd611285565b5b602082029050602081019050919050565b600080fd5b6000604082840312156113ea576113e9611280565b5b6113f460406112e5565b9050600061140484828501611326565b600083015250602061141884828501611364565b60208301525092915050565b6000611437611432846113a3565b6112e5565b9050808382526020820190506040840283018581111561145a576114596113cf565b5b835b81811015611483578061146f88826113d4565b84526020840193505060408101905061145c565b5050509392505050565b600082601f8301126114a2576114a161139e565b5b81356114b2848260208601611424565b91505092915050565b600080fd5b600067ffffffffffffffff8211156114db576114da611285565b5b6114e48261111f565b9050602081019050919050565b82818337600083830152505050565b600061151361150e846114c0565b6112e5565b90508281526020810184848401111561152f5761152e6114bb565b5b61153a8482856114f1565b509392505050565b600082601f8301126115575761155661139e565b5b8135611567848260208601611500565b91505092915050565b6000610240828403121561158757611586611280565b5b6115926102406112e5565b905060006115a2848285016111fe565b60008301525060206115b684828501611326565b60208301525060406115ca84828501611326565b60408301525060606115de84828501611364565b60608301525060806115f2848285016111fe565b60808301525060a0611606848285016111fe565b60a08301525060c061161a84828501611326565b60c08301525060e061162e84828501611326565b60e08301525061010061164384828501611389565b6101008301525061012061165984828501611326565b6101208301525061014061166f84828501611326565b6101408301525061016061168584828501611064565b6101608301525061018061169b84828501611326565b610180830152506101a06116b184828501611064565b6101a0830152506101c06116c784828501611064565b6101c0830152506101e06116dd84828501611326565b6101e08301525061020082013567ffffffffffffffff81111561170357611702611300565b5b61170f8482850161148d565b6102008301525061022082013567ffffffffffffffff81111561173557611734611300565b5b61174184828501611542565b6102208301525092915050565b60006020828403121561176457611763610f7e565b5b600082013567ffffffffffffffff81111561178257611781610f83565b5b61178e84828501611570565b91505092915050565b6117a081611305565b82525050565b60006020820190506117bb6000830184611797565b92915050565b6000602082840312156117d7576117d6610f7e565b5b60006117e584828501611364565b91505092915050565b60006020828403121561180457611803610f7e565b5b600061181284828501611326565b91505092915050565b7f4e487b7100000000000000000000000000000000000000000000000000000000600052602260045260246000fd5b6000600282049050600182168061186257607f821691505b602082108114156118765761187561181b565b5b50919050565b600082825260208201905092915050565b7f416363657373436f6e74726f6c3a2063616e206f6e6c792072656e6f756e636560008201527f20726f6c657320666f722073656c660000000000000000000000000000000000602082015250565b60006118e9602f8361187c565b91506118f48261188d565b604082019050919050565b60006020820190508181036000830152611918816118dc565b9050919050565b611928816111ab565b82525050565b61193781611305565b82525050565b6119468161133b565b82525050565b7f4e487b7100000000000000000000000000000000000000000000000000000000600052602160045260246000fd5b6018811061198c5761198b61194c565b5b50565b600081905061199d8261197b565b919050565b60006119ad8261198f565b9050919050565b6119bd816119a2565b82525050565b6119cc81611043565b82525050565b600081519050919050565b600082825260208201905092915050565b6000819050602082019050919050565b604082016000820151611a14600085018261192e565b506020820151611a27602085018261193d565b50505050565b6000611a3983836119fe565b60408301905092915050565b6000602082019050919050565b6000611a5d826119d2565b611a6781856119dd565b9350611a72836119ee565b8060005b83811015611aa3578151611a8a8882611a2d565b9750611a9583611a45565b925050600181019050611a76565b5085935050505092915050565b600082825260208201905092915050565b6000611acc826110d0565b611ad68185611ab0565b9350611ae68185602086016110ec565b611aef8161111f565b840191505092915050565b600061024083016000830151611b13600086018261191f565b506020830151611b26602086018261192e565b506040830151611b39604086018261192e565b506060830151611b4c606086018261193d565b506080830151611b5f608086018261191f565b5060a0830151611b7260a086018261191f565b5060c0830151611b8560c086018261192e565b5060e0830151611b9860e086018261192e565b50610100830151611bad6101008601826119b4565b50610120830151611bc261012086018261192e565b50610140830151611bd761014086018261192e565b50610160830151611bec6101608601826119c3565b50610180830151611c0161018086018261192e565b506101a0830151611c166101a08601826119c3565b506101c0830151611c2b6101c08601826119c3565b506101e0830151611c406101e086018261192e565b50610200830151848203610200860152611c5a8282611a52565b915050610220830151848203610220860152611c768282611ac1565b9150508091505092915050565b60006020820190508181036000830152611c9d8184611afa565b905092915050565b600081905092915050565b50565b6000611cc0600083611ca5565b9150611ccb82611cb0565b600082019050919050565b6000611ce182611cb3565b9150819050919050565b7f4574686572207472616e73666572206661696c65642e00000000000000000000600082015250565b6000611d2160168361187c565b9150611d2c82611ceb565b602082019050919050565b60006020820190508181036000830152611d5081611d14565b9050919050565b60008190508160005260206000209050919050565b60008154611d798161184a565b611d838186611ca5565b94506001821660008114611d9e5760018114611daf57611de2565b60ff19831686528186019350611de2565b611db885611d57565b60005b83811015611dda57815481890152600182019150602081019050611dbb565b838801955050505b50505092915050565b6000611df78284611d6c565b915081905092915050565b7f5075726368617365204661696c65640000000000000000000000000000000000600082015250565b6000611e38600f8361187c565b9150611e4382611e02565b602082019050919050565b60006020820190508181036000830152611e6781611e2b565b9050919050565b600081905092915050565b7f416363657373436f6e74726f6c3a206163636f756e7420000000000000000000600082015250565b6000611eaf601783611e6e565b9150611eba82611e79565b601782019050919050565b600081519050919050565b6000611edb82611ec5565b611ee58185611e6e565b9350611ef58185602086016110ec565b80840191505092915050565b7f206973206d697373696e6720726f6c6520000000000000000000000000000000600082015250565b6000611f37601183611e6e565b9150611f4282611f01565b601182019050919050565b6000611f5882611ea2565b9150611f648285611ed0565b9150611f6f82611f2a565b9150611f7b8284611ed0565b91508190509392505050565b6000611f9282611ec5565b611f9c818561187c565b9350611fac8185602086016110ec565b611fb58161111f565b840191505092915050565b60006020820190508181036000830152611fda8184611f87565b905092915050565b7f4e487b7100000000000000000000000000000000000000000000000000000000600052601160045260246000fd5b600061201c82611305565b915061202783611305565b9250817fffffffffffffffffffffffffffffffffffffffffffffffffffffffffffffffff04831182151516156120605761205f611fe2565b5b828202905092915050565b600061207682611305565b915061208183611305565b9250827fffffffffffffffffffffffffffffffffffffffffffffffffffffffffffffffff038211156120b6576120b5611fe2565b5b828201905092915050565b7f4e487b7100000000000000000000000000000000000000000000000000000000600052603260045260246000fd5b60006120fb82611305565b9150600082141561210f5761210e611fe2565b5b600182039050919050565b7f537472696e67733a20686578206c656e67746820696e73756666696369656e74600082015250565b600061215060208361187c565b915061215b8261211a565b602082019050919050565b6000602082019050818103600083015261217f81612143565b905091905056fea2646970667358221220376f0226aefddaf50b5d56328be0bc0eaac63a5440d7c5482e63b99f3d1805d264736f6c63430008090033",
  "linkReferences": {},
  "deployedLinkReferences": {}
}