{
  "_format": "hh-sol-artifact-1",
  "contractName": "MarketWrapper",
  "sourceName": "contracts/main/MarketWrapper.sol",
  "abi": [
    {
      "inputs": [
        {
          "internalType": "uint256",
          "name": "_buyNowPrice",
          "type": "uint256"
        },
        {
          "internalType": "address",
          "name": "_marketPlace",
          "type": "address"
        },
        {
          "internalType": "bytes",
          "name": "_transactionData",
          "type": "bytes"
        }
      ],
      "stateMutability": "nonpayable",
      "type": "constructor"
    },
    {
      "anonymous": false,
      "inputs": [
        {
          "indexed": false,
          "internalType": "bool",
          "name": "success",
          "type": "bool"
        }
      ],
      "name": "Purchased",
      "type": "event"
    },
    {
      "anonymous": false,
      "inputs": [
        {
          "indexed": true,
          "internalType": "bytes32",
          "name": "role",
          "type": "bytes32"
        },
        {
          "indexed": true,
          "internalType": "bytes32",
          "name": "previousAdminRole",
          "type": "bytes32"
        },
        {
          "indexed": true,
          "internalType": "bytes32",
          "name": "newAdminRole",
          "type": "bytes32"
        }
      ],
      "name": "RoleAdminChanged",
      "type": "event"
    },
    {
      "anonymous": false,
      "inputs": [
        {
          "indexed": true,
          "internalType": "bytes32",
          "name": "role",
          "type": "bytes32"
        },
        {
          "indexed": true,
          "internalType": "address",
          "name": "account",
          "type": "address"
        },
        {
          "indexed": true,
          "internalType": "address",
          "name": "sender",
          "type": "address"
        }
      ],
      "name": "RoleGranted",
      "type": "event"
    },
    {
      "anonymous": false,
      "inputs": [
        {
          "indexed": true,
          "internalType": "bytes32",
          "name": "role",
          "type": "bytes32"
        },
        {
          "indexed": true,
          "internalType": "address",
          "name": "account",
          "type": "address"
        },
        {
          "indexed": true,
          "internalType": "address",
          "name": "sender",
          "type": "address"
        }
      ],
      "name": "RoleRevoked",
      "type": "event"
    },
    {
      "stateMutability": "payable",
      "type": "fallback"
    },
    {
      "inputs": [],
      "name": "DEFAULT_ADMIN_ROLE",
      "outputs": [
        {
          "internalType": "bytes32",
          "name": "",
          "type": "bytes32"
        }
      ],
      "stateMutability": "view",
      "type": "function"
    },
    {
      "inputs": [],
      "name": "buyNow",
      "outputs": [
        {
          "internalType": "bool",
          "name": "",
          "type": "bool"
        }
      ],
      "stateMutability": "payable",
      "type": "function"
    },
    {
      "inputs": [],
      "name": "buyNowPrice",
      "outputs": [
        {
          "internalType": "uint256",
          "name": "",
          "type": "uint256"
        }
      ],
      "stateMutability": "view",
      "type": "function"
    },
    {
      "inputs": [
        {
          "internalType": "address payable",
          "name": "to",
          "type": "address"
        }
      ],
      "name": "emergencyWithdrawal",
      "outputs": [],
      "stateMutability": "payable",
      "type": "function"
    },
    {
      "inputs": [],
      "name": "getBuyNowPrice",
      "outputs": [
        {
          "internalType": "uint256",
          "name": "",
          "type": "uint256"
        }
      ],
      "stateMutability": "view",
      "type": "function"
    },
    {
      "inputs": [
        {
          "internalType": "bytes32",
          "name": "role",
          "type": "bytes32"
        }
      ],
      "name": "getRoleAdmin",
      "outputs": [
        {
          "internalType": "bytes32",
          "name": "",
          "type": "bytes32"
        }
      ],
      "stateMutability": "view",
      "type": "function"
    },
    {
      "inputs": [
        {
          "internalType": "address",
          "name": "to",
          "type": "address"
        }
      ],
      "name": "grantOwnerRole",
      "outputs": [],
      "stateMutability": "nonpayable",
      "type": "function"
    },
    {
      "inputs": [
        {
          "internalType": "bytes32",
          "name": "role",
          "type": "bytes32"
        },
        {
          "internalType": "address",
          "name": "account",
          "type": "address"
        }
      ],
      "name": "grantRole",
      "outputs": [],
      "stateMutability": "nonpayable",
      "type": "function"
    },
    {
      "inputs": [
        {
          "internalType": "bytes32",
          "name": "role",
          "type": "bytes32"
        },
        {
          "internalType": "address",
          "name": "account",
          "type": "address"
        }
      ],
      "name": "hasRole",
      "outputs": [
        {
          "internalType": "bool",
          "name": "",
          "type": "bool"
        }
      ],
      "stateMutability": "view",
      "type": "function"
    },
    {
      "inputs": [],
      "name": "marketPlace",
      "outputs": [
        {
          "internalType": "address",
          "name": "",
          "type": "address"
        }
      ],
      "stateMutability": "view",
      "type": "function"
    },
    {
      "inputs": [
        {
          "internalType": "uint256",
          "name": "_price",
          "type": "uint256"
        },
        {
          "internalType": "address",
          "name": "_marketPlace",
          "type": "address"
        },
        {
          "internalType": "bytes",
          "name": "_transactionData",
          "type": "bytes"
        }
      ],
      "name": "migration",
      "outputs": [],
      "stateMutability": "nonpayable",
      "type": "function"
    },
    {
      "inputs": [
        {
          "internalType": "bytes32",
          "name": "role",
          "type": "bytes32"
        },
        {
          "internalType": "address",
          "name": "account",
          "type": "address"
        }
      ],
      "name": "renounceRole",
      "outputs": [],
      "stateMutability": "nonpayable",
      "type": "function"
    },
    {
      "inputs": [
        {
          "internalType": "bytes32",
          "name": "role",
          "type": "bytes32"
        },
        {
          "internalType": "address",
          "name": "account",
          "type": "address"
        }
      ],
      "name": "revokeRole",
      "outputs": [],
      "stateMutability": "nonpayable",
      "type": "function"
    },
    {
      "inputs": [
        {
          "internalType": "uint256",
          "name": "_price",
          "type": "uint256"
        }
      ],
      "name": "setBuyNowPrice",
      "outputs": [],
      "stateMutability": "nonpayable",
      "type": "function"
    },
    {
      "inputs": [
        {
          "internalType": "bytes",
          "name": "_transactionData",
          "type": "bytes"
        }
      ],
      "name": "setTransactionData",
      "outputs": [],
      "stateMutability": "nonpayable",
      "type": "function"
    },
    {
      "inputs": [
        {
          "internalType": "bytes4",
          "name": "interfaceId",
          "type": "bytes4"
        }
      ],
      "name": "supportsInterface",
      "outputs": [
        {
          "internalType": "bool",
          "name": "",
          "type": "bool"
        }
      ],
      "stateMutability": "view",
      "type": "function"
    },
    {
      "inputs": [],
      "name": "transactionData",
      "outputs": [
        {
          "internalType": "bytes",
          "name": "",
          "type": "bytes"
        }
      ],
      "stateMutability": "view",
      "type": "function"
    },
    {
      "inputs": [
        {
          "internalType": "address",
          "name": "_nftContractAddress",
          "type": "address"
        },
        {
          "internalType": "uint256",
          "name": "_tokenId",
          "type": "uint256"
        },
        {
          "internalType": "address",
          "name": "_to",
          "type": "address"
        }
      ],
      "name": "withdrawNft",
      "outputs": [],
      "stateMutability": "nonpayable",
      "type": "function"
    },
    {
      "stateMutability": "payable",
      "type": "receive"
    }
  ],
  "bytecode": "0x60806040523480156200001157600080fd5b50604051620023f6380380620023f6833981810160405281019062000037919062000506565b6200004c6000801b33620000b660201b60201c565b8260018190555081600260006101000a81548173ffffffffffffffffffffffffffffffffffffffff021916908373ffffffffffffffffffffffffffffffffffffffff1602179055508060039080519060200190620000ac92919062000219565b50505050620005e5565b620000c88282620001a760201b60201c565b620001a357600160008084815260200190815260200160002060000160008373ffffffffffffffffffffffffffffffffffffffff1673ffffffffffffffffffffffffffffffffffffffff16815260200190815260200160002060006101000a81548160ff021916908315150217905550620001486200021160201b60201c565b73ffffffffffffffffffffffffffffffffffffffff168173ffffffffffffffffffffffffffffffffffffffff16837f2f8788117e7eff1d82e926ec794901d17c78024a50270940304540a733656f0d60405160405180910390a45b5050565b600080600084815260200190815260200160002060000160008373ffffffffffffffffffffffffffffffffffffffff1673ffffffffffffffffffffffffffffffffffffffff16815260200190815260200160002060009054906101000a900460ff16905092915050565b600033905090565b8280546200022790620005b0565b90600052602060002090601f0160209004810192826200024b576000855562000297565b82601f106200026657805160ff191683800117855562000297565b8280016001018555821562000297579182015b828111156200029657825182559160200191906001019062000279565b5b509050620002a69190620002aa565b5090565b5b80821115620002c5576000816000905550600101620002ab565b5090565b6000604051905090565b600080fd5b600080fd5b6000819050919050565b620002f281620002dd565b8114620002fe57600080fd5b50565b6000815190506200031281620002e7565b92915050565b600073ffffffffffffffffffffffffffffffffffffffff82169050919050565b6000620003458262000318565b9050919050565b620003578162000338565b81146200036357600080fd5b50565b60008151905062000377816200034c565b92915050565b600080fd5b600080fd5b6000601f19601f8301169050919050565b7f4e487b7100000000000000000000000000000000000000000000000000000000600052604160045260246000fd5b620003d28262000387565b810181811067ffffffffffffffff82111715620003f457620003f362000398565b5b80604052505050565b600062000409620002c9565b9050620004178282620003c7565b919050565b600067ffffffffffffffff8211156200043a576200043962000398565b5b620004458262000387565b9050602081019050919050565b60005b838110156200047257808201518184015260208101905062000455565b8381111562000482576000848401525b50505050565b60006200049f62000499846200041c565b620003fd565b905082815260208101848484011115620004be57620004bd62000382565b5b620004cb84828562000452565b509392505050565b600082601f830112620004eb57620004ea6200037d565b5b8151620004fd84826020860162000488565b91505092915050565b600080600060608486031215620005225762000521620002d3565b5b6000620005328682870162000301565b9350506020620005458682870162000366565b925050604084015167ffffffffffffffff811115620005695762000568620002d8565b5b6200057786828701620004d3565b9150509250925092565b7f4e487b7100000000000000000000000000000000000000000000000000000000600052602260045260246000fd5b60006002820490506001821680620005c957607f821691505b602082108103620005df57620005de62000581565b5b50919050565b611e0180620005f56000396000f3fe60806040526004361061010d5760003560e01c80636e353a1d116100955780639c3962f0116100645780639c3962f01461037a578063a217fddf14610398578063a5587088146103c3578063d547741f146103ee578063dd0b7ffe1461041757610121565b80636e353a1d146102cf57806370143dea146102eb5780638c3028d61461031457806391d148541461033d57610121565b80632f2ff15d116100dc5780632f2ff15d1461020057806336568abe14610229578063397a8bab146102525780635592da871461027b5780635ecbdce9146102a457610121565b806301ffc9a714610130578063248a9ca31461016d578063278bd065146101aa5780632e25d2a6146101d557610121565b36610121576000801b61011f81610440565b005b6000801b61012e81610440565b005b34801561013c57600080fd5b506101576004803603810190610152919061112b565b610454565b6040516101649190611173565b60405180910390f35b34801561017957600080fd5b50610194600480360381019061018f91906111c4565b6104ce565b6040516101a19190611200565b60405180910390f35b3480156101b657600080fd5b506101bf6104ed565b6040516101cc91906112b4565b60405180910390f35b3480156101e157600080fd5b506101ea61057b565b6040516101f79190611317565b60405180910390f35b34801561020c57600080fd5b506102276004803603810190610222919061135e565b6105a1565b005b34801561023557600080fd5b50610250600480360381019061024b919061135e565b6105c2565b005b34801561025e57600080fd5b506102796004803603810190610274919061139e565b610645565b005b34801561028757600080fd5b506102a2600480360381019061029d9190611500565b610663565b005b3480156102b057600080fd5b506102b961068b565b6040516102c69190611562565b60405180910390f35b6102e960048036038101906102e491906115bb565b610691565b005b3480156102f757600080fd5b50610312600480360381019061030d9190611614565b61074f565b005b34801561032057600080fd5b5061033b60048036038101906103369190611667565b6108b8565b005b34801561034957600080fd5b50610364600480360381019061035f919061135e565b61092a565b6040516103719190611173565b60405180910390f35b610382610994565b60405161038f9190611173565b60405180910390f35b3480156103a457600080fd5b506103ad610ac6565b6040516103ba9190611200565b60405180910390f35b3480156103cf57600080fd5b506103d8610acd565b6040516103e59190611562565b60405180910390f35b3480156103fa57600080fd5b506104156004803603810190610410919061135e565b610ad7565b005b34801561042357600080fd5b5061043e600480360381019061043991906116d6565b610af8565b005b6104518161044c610b10565b610b18565b50565b60007f7965db0b000000000000000000000000000000000000000000000000000000007bffffffffffffffffffffffffffffffffffffffffffffffffffffffff1916827bffffffffffffffffffffffffffffffffffffffffffffffffffffffff191614806104c757506104c682610bb5565b5b9050919050565b6000806000838152602001908152602001600020600101549050919050565b600380546104fa90611732565b80601f016020809104026020016040519081016040528092919081815260200182805461052690611732565b80156105735780601f1061054857610100808354040283529160200191610573565b820191906000526020600020905b81548152906001019060200180831161055657829003601f168201915b505050505081565b600260009054906101000a900473ffffffffffffffffffffffffffffffffffffffff1681565b6105aa826104ce565b6105b381610440565b6105bd8383610c1f565b505050565b6105ca610b10565b73ffffffffffffffffffffffffffffffffffffffff168173ffffffffffffffffffffffffffffffffffffffff1614610637576040517f08c379a000000000000000000000000000000000000000000000000000000000815260040161062e906117e6565b60405180910390fd5b6106418282610cff565b5050565b6000801b61065281610440565b61065f6000801b83610c1f565b5050565b6000801b61067081610440565b816003908051906020019061068692919061101c565b505050565b60015481565b6000801b61069e81610440565b60008273ffffffffffffffffffffffffffffffffffffffff16476040516106c490611837565b60006040518083038185875af1925050503d8060008114610701576040519150601f19603f3d011682016040523d82523d6000602084013e610706565b606091505b505090508061074a576040517f08c379a000000000000000000000000000000000000000000000000000000000815260040161074190611898565b60405180910390fd5b505050565b6000801b61075c81610440565b3073ffffffffffffffffffffffffffffffffffffffff168473ffffffffffffffffffffffffffffffffffffffff16636352211e856040518263ffffffff1660e01b81526004016107ac9190611562565b602060405180830381865afa1580156107c9573d6000803e3d6000fd5b505050506040513d601f19601f820116820180604052508101906107ed91906118cd565b73ffffffffffffffffffffffffffffffffffffffff1614610843576040517f08c379a000000000000000000000000000000000000000000000000000000000815260040161083a90611946565b60405180910390fd5b8373ffffffffffffffffffffffffffffffffffffffff166323b872dd3084866040518463ffffffff1660e01b815260040161088093929190611966565b600060405180830381600087803b15801561089a57600080fd5b505af11580156108ae573d6000803e3d6000fd5b5050505050505050565b6000801b6108c581610440565b8360018190555082600260006101000a81548173ffffffffffffffffffffffffffffffffffffffff021916908373ffffffffffffffffffffffffffffffffffffffff160217905550816003908051906020019061092392919061101c565b5050505050565b600080600084815260200190815260200160002060000160008373ffffffffffffffffffffffffffffffffffffffff1673ffffffffffffffffffffffffffffffffffffffff16815260200190815260200160002060009054906101000a900460ff16905092915050565b60008060001b6109a381610440565b6001544710156109b257600080fd5b6000600260009054906101000a900473ffffffffffffffffffffffffffffffffffffffff1673ffffffffffffffffffffffffffffffffffffffff1660015460036040516109ff9190611a31565b60006040518083038185875af1925050503d8060008114610a3c576040519150601f19603f3d011682016040523d82523d6000602084013e610a41565b606091505b5050905080610a85576040517f08c379a0000000000000000000000000000000000000000000000000000000008152600401610a7c90611a94565b60405180910390fd5b7f83e31f5e5651d64b527802681a291e708d9fe310288785b1b816aa293d9b8fc66001604051610ab59190611173565b60405180910390a160019250505090565b6000801b81565b6000600154905090565b610ae0826104ce565b610ae981610440565b610af38383610cff565b505050565b6000801b610b0581610440565b816001819055505050565b600033905090565b610b22828261092a565b610bb157610b478173ffffffffffffffffffffffffffffffffffffffff166014610de0565b610b558360001c6020610de0565b604051602001610b66929190611b93565b6040516020818303038152906040526040517f08c379a0000000000000000000000000000000000000000000000000000000008152600401610ba89190611c06565b60405180910390fd5b5050565b60007f01ffc9a7000000000000000000000000000000000000000000000000000000007bffffffffffffffffffffffffffffffffffffffffffffffffffffffff1916827bffffffffffffffffffffffffffffffffffffffffffffffffffffffff1916149050919050565b610c29828261092a565b610cfb57600160008084815260200190815260200160002060000160008373ffffffffffffffffffffffffffffffffffffffff1673ffffffffffffffffffffffffffffffffffffffff16815260200190815260200160002060006101000a81548160ff021916908315150217905550610ca0610b10565b73ffffffffffffffffffffffffffffffffffffffff168173ffffffffffffffffffffffffffffffffffffffff16837f2f8788117e7eff1d82e926ec794901d17c78024a50270940304540a733656f0d60405160405180910390a45b5050565b610d09828261092a565b15610ddc57600080600084815260200190815260200160002060000160008373ffffffffffffffffffffffffffffffffffffffff1673ffffffffffffffffffffffffffffffffffffffff16815260200190815260200160002060006101000a81548160ff021916908315150217905550610d81610b10565b73ffffffffffffffffffffffffffffffffffffffff168173ffffffffffffffffffffffffffffffffffffffff16837ff6391f5c32d9c69d2a47ea670b442974b53935d1edc7fd64eb21e047a839171b60405160405180910390a45b5050565b606060006002836002610df39190611c57565b610dfd9190611cb1565b67ffffffffffffffff811115610e1657610e156113d5565b5b6040519080825280601f01601f191660200182016040528015610e485781602001600182028036833780820191505090505b5090507f300000000000000000000000000000000000000000000000000000000000000081600081518110610e8057610e7f611d07565b5b60200101907effffffffffffffffffffffffffffffffffffffffffffffffffffffffffffff1916908160001a9053507f780000000000000000000000000000000000000000000000000000000000000081600181518110610ee457610ee3611d07565b5b60200101907effffffffffffffffffffffffffffffffffffffffffffffffffffffffffffff1916908160001a90535060006001846002610f249190611c57565b610f2e9190611cb1565b90505b6001811115610fce577f3031323334353637383961626364656600000000000000000000000000000000600f861660108110610f7057610f6f611d07565b5b1a60f81b828281518110610f8757610f86611d07565b5b60200101907effffffffffffffffffffffffffffffffffffffffffffffffffffffffffffff1916908160001a905350600485901c945080610fc790611d36565b9050610f31565b5060008414611012576040517f08c379a000000000000000000000000000000000000000000000000000000000815260040161100990611dab565b60405180910390fd5b8091505092915050565b82805461102890611732565b90600052602060002090601f01602090048101928261104a5760008555611091565b82601f1061106357805160ff1916838001178555611091565b82800160010185558215611091579182015b82811115611090578251825591602001919060010190611075565b5b50905061109e91906110a2565b5090565b5b808211156110bb5760008160009055506001016110a3565b5090565b6000604051905090565b600080fd5b600080fd5b60007fffffffff0000000000000000000000000000000000000000000000000000000082169050919050565b611108816110d3565b811461111357600080fd5b50565b600081359050611125816110ff565b92915050565b600060208284031215611141576111406110c9565b5b600061114f84828501611116565b91505092915050565b60008115159050919050565b61116d81611158565b82525050565b60006020820190506111886000830184611164565b92915050565b6000819050919050565b6111a18161118e565b81146111ac57600080fd5b50565b6000813590506111be81611198565b92915050565b6000602082840312156111da576111d96110c9565b5b60006111e8848285016111af565b91505092915050565b6111fa8161118e565b82525050565b600060208201905061121560008301846111f1565b92915050565b600081519050919050565b600082825260208201905092915050565b60005b8381101561125557808201518184015260208101905061123a565b83811115611264576000848401525b50505050565b6000601f19601f8301169050919050565b60006112868261121b565b6112908185611226565b93506112a0818560208601611237565b6112a98161126a565b840191505092915050565b600060208201905081810360008301526112ce818461127b565b905092915050565b600073ffffffffffffffffffffffffffffffffffffffff82169050919050565b6000611301826112d6565b9050919050565b611311816112f6565b82525050565b600060208201905061132c6000830184611308565b92915050565b61133b816112f6565b811461134657600080fd5b50565b60008135905061135881611332565b92915050565b60008060408385031215611375576113746110c9565b5b6000611383858286016111af565b925050602061139485828601611349565b9150509250929050565b6000602082840312156113b4576113b36110c9565b5b60006113c284828501611349565b91505092915050565b600080fd5b600080fd5b7f4e487b7100000000000000000000000000000000000000000000000000000000600052604160045260246000fd5b61140d8261126a565b810181811067ffffffffffffffff8211171561142c5761142b6113d5565b5b80604052505050565b600061143f6110bf565b905061144b8282611404565b919050565b600067ffffffffffffffff82111561146b5761146a6113d5565b5b6114748261126a565b9050602081019050919050565b82818337600083830152505050565b60006114a361149e84611450565b611435565b9050828152602081018484840111156114bf576114be6113d0565b5b6114ca848285611481565b509392505050565b600082601f8301126114e7576114e66113cb565b5b81356114f7848260208601611490565b91505092915050565b600060208284031215611516576115156110c9565b5b600082013567ffffffffffffffff811115611534576115336110ce565b5b611540848285016114d2565b91505092915050565b6000819050919050565b61155c81611549565b82525050565b60006020820190506115776000830184611553565b92915050565b6000611588826112d6565b9050919050565b6115988161157d565b81146115a357600080fd5b50565b6000813590506115b58161158f565b92915050565b6000602082840312156115d1576115d06110c9565b5b60006115df848285016115a6565b91505092915050565b6115f181611549565b81146115fc57600080fd5b50565b60008135905061160e816115e8565b92915050565b60008060006060848603121561162d5761162c6110c9565b5b600061163b86828701611349565b935050602061164c868287016115ff565b925050604061165d86828701611349565b9150509250925092565b6000806000606084860312156116805761167f6110c9565b5b600061168e868287016115ff565b935050602061169f86828701611349565b925050604084013567ffffffffffffffff8111156116c0576116bf6110ce565b5b6116cc868287016114d2565b9150509250925092565b6000602082840312156116ec576116eb6110c9565b5b60006116fa848285016115ff565b91505092915050565b7f4e487b7100000000000000000000000000000000000000000000000000000000600052602260045260246000fd5b6000600282049050600182168061174a57607f821691505b60208210810361175d5761175c611703565b5b50919050565b600082825260208201905092915050565b7f416363657373436f6e74726f6c3a2063616e206f6e6c792072656e6f756e636560008201527f20726f6c657320666f722073656c660000000000000000000000000000000000602082015250565b60006117d0602f83611763565b91506117db82611774565b604082019050919050565b600060208201905081810360008301526117ff816117c3565b9050919050565b600081905092915050565b50565b6000611821600083611806565b915061182c82611811565b600082019050919050565b600061184282611814565b9150819050919050565b7f4574686572207472616e73666572206661696c65642e00000000000000000000600082015250565b6000611882601683611763565b915061188d8261184c565b602082019050919050565b600060208201905081810360008301526118b181611875565b9050919050565b6000815190506118c781611332565b92915050565b6000602082840312156118e3576118e26110c9565b5b60006118f1848285016118b8565b91505092915050565b7f436f6e747261637420646f6573206e6f74206f776e20746865204e4654000000600082015250565b6000611930601d83611763565b915061193b826118fa565b602082019050919050565b6000602082019050818103600083015261195f81611923565b9050919050565b600060608201905061197b6000830186611308565b6119886020830185611308565b6119956040830184611553565b949350505050565b60008190508160005260206000209050919050565b600081546119bf81611732565b6119c98186611806565b945060018216600081146119e457600181146119f557611a28565b60ff19831686528186019350611a28565b6119fe8561199d565b60005b83811015611a2057815481890152600182019150602081019050611a01565b838801955050505b50505092915050565b6000611a3d82846119b2565b915081905092915050565b7f5075726368617365204661696c65640000000000000000000000000000000000600082015250565b6000611a7e600f83611763565b9150611a8982611a48565b602082019050919050565b60006020820190508181036000830152611aad81611a71565b9050919050565b600081905092915050565b7f416363657373436f6e74726f6c3a206163636f756e7420000000000000000000600082015250565b6000611af5601783611ab4565b9150611b0082611abf565b601782019050919050565b600081519050919050565b6000611b2182611b0b565b611b2b8185611ab4565b9350611b3b818560208601611237565b80840191505092915050565b7f206973206d697373696e6720726f6c6520000000000000000000000000000000600082015250565b6000611b7d601183611ab4565b9150611b8882611b47565b601182019050919050565b6000611b9e82611ae8565b9150611baa8285611b16565b9150611bb582611b70565b9150611bc18284611b16565b91508190509392505050565b6000611bd882611b0b565b611be28185611763565b9350611bf2818560208601611237565b611bfb8161126a565b840191505092915050565b60006020820190508181036000830152611c208184611bcd565b905092915050565b7f4e487b7100000000000000000000000000000000000000000000000000000000600052601160045260246000fd5b6000611c6282611549565b9150611c6d83611549565b9250817fffffffffffffffffffffffffffffffffffffffffffffffffffffffffffffffff0483118215151615611ca657611ca5611c28565b5b828202905092915050565b6000611cbc82611549565b9150611cc783611549565b9250827fffffffffffffffffffffffffffffffffffffffffffffffffffffffffffffffff03821115611cfc57611cfb611c28565b5b828201905092915050565b7f4e487b7100000000000000000000000000000000000000000000000000000000600052603260045260246000fd5b6000611d4182611549565b915060008203611d5457611d53611c28565b5b600182039050919050565b7f537472696e67733a20686578206c656e67746820696e73756666696369656e74600082015250565b6000611d95602083611763565b9150611da082611d5f565b602082019050919050565b60006020820190508181036000830152611dc481611d88565b905091905056fea2646970667358221220eec5792ddb013a49190ac508ea0a15eae4c2e23b641578704ce0c72a8bc4f33f64736f6c634300080d0033",
  "linkReferences": {},
  "deployedLinkReferences": {}
}