{
  "_format": "hh-sol-artifact-1",
  "contractName": "MarketWrapper",
  "sourceName": "contracts/main/MarketWrapper.sol",
  "abi": [
    {
      "inputs": [],
      "stateMutability": "nonpayable",
      "type": "constructor"
    },
    {
      "anonymous": false,
      "inputs": [
        {
          "indexed": true,
          "internalType": "bytes32",
          "name": "role",
          "type": "bytes32"
        },
        {
          "indexed": true,
          "internalType": "bytes32",
          "name": "previousAdminRole",
          "type": "bytes32"
        },
        {
          "indexed": true,
          "internalType": "bytes32",
          "name": "newAdminRole",
          "type": "bytes32"
        }
      ],
      "name": "RoleAdminChanged",
      "type": "event"
    },
    {
      "anonymous": false,
      "inputs": [
        {
          "indexed": true,
          "internalType": "bytes32",
          "name": "role",
          "type": "bytes32"
        },
        {
          "indexed": true,
          "internalType": "address",
          "name": "account",
          "type": "address"
        },
        {
          "indexed": true,
          "internalType": "address",
          "name": "sender",
          "type": "address"
        }
      ],
      "name": "RoleGranted",
      "type": "event"
    },
    {
      "anonymous": false,
      "inputs": [
        {
          "indexed": true,
          "internalType": "bytes32",
          "name": "role",
          "type": "bytes32"
        },
        {
          "indexed": true,
          "internalType": "address",
          "name": "account",
          "type": "address"
        },
        {
          "indexed": true,
          "internalType": "address",
          "name": "sender",
          "type": "address"
        }
      ],
      "name": "RoleRevoked",
      "type": "event"
    },
    {
      "stateMutability": "payable",
      "type": "fallback"
    },
    {
      "inputs": [],
      "name": "DEFAULT_ADMIN_ROLE",
      "outputs": [
        {
          "internalType": "bytes32",
          "name": "",
          "type": "bytes32"
        }
      ],
      "stateMutability": "view",
      "type": "function"
    },
    {
      "inputs": [],
      "name": "buyNow",
      "outputs": [
        {
          "internalType": "bool",
          "name": "",
          "type": "bool"
        }
      ],
      "stateMutability": "payable",
      "type": "function"
    },
    {
      "inputs": [
        {
          "internalType": "address payable",
          "name": "to",
          "type": "address"
        }
      ],
      "name": "emergencyWithdrawal",
      "outputs": [],
      "stateMutability": "payable",
      "type": "function"
    },
    {
      "inputs": [],
      "name": "getBuyNowPrice",
      "outputs": [
        {
          "internalType": "uint256",
          "name": "",
          "type": "uint256"
        }
      ],
      "stateMutability": "nonpayable",
      "type": "function"
    },
    {
      "inputs": [
        {
          "internalType": "bytes32",
          "name": "role",
          "type": "bytes32"
        }
      ],
      "name": "getRoleAdmin",
      "outputs": [
        {
          "internalType": "bytes32",
          "name": "",
          "type": "bytes32"
        }
      ],
      "stateMutability": "view",
      "type": "function"
    },
    {
      "inputs": [
        {
          "internalType": "address",
          "name": "to",
          "type": "address"
        }
      ],
      "name": "grantOwnerRole",
      "outputs": [],
      "stateMutability": "nonpayable",
      "type": "function"
    },
    {
      "inputs": [
        {
          "internalType": "bytes32",
          "name": "role",
          "type": "bytes32"
        },
        {
          "internalType": "address",
          "name": "account",
          "type": "address"
        }
      ],
      "name": "grantRole",
      "outputs": [],
      "stateMutability": "nonpayable",
      "type": "function"
    },
    {
      "inputs": [
        {
          "internalType": "bytes32",
          "name": "role",
          "type": "bytes32"
        },
        {
          "internalType": "address",
          "name": "account",
          "type": "address"
        }
      ],
      "name": "hasRole",
      "outputs": [
        {
          "internalType": "bool",
          "name": "",
          "type": "bool"
        }
      ],
      "stateMutability": "view",
      "type": "function"
    },
    {
      "inputs": [
        {
          "internalType": "bytes32",
          "name": "role",
          "type": "bytes32"
        },
        {
          "internalType": "address",
          "name": "account",
          "type": "address"
        }
      ],
      "name": "renounceRole",
      "outputs": [],
      "stateMutability": "nonpayable",
      "type": "function"
    },
    {
      "inputs": [
        {
          "internalType": "bytes32",
          "name": "role",
          "type": "bytes32"
        },
        {
          "internalType": "address",
          "name": "account",
          "type": "address"
        }
      ],
      "name": "revokeRole",
      "outputs": [],
      "stateMutability": "nonpayable",
      "type": "function"
    },
    {
      "inputs": [
        {
          "internalType": "bytes4",
          "name": "interfaceId",
          "type": "bytes4"
        }
      ],
      "name": "supportsInterface",
      "outputs": [
        {
          "internalType": "bool",
          "name": "",
          "type": "bool"
        }
      ],
      "stateMutability": "view",
      "type": "function"
    },
    {
      "stateMutability": "payable",
      "type": "receive"
    }
  ],
  "bytecode": "0x608060405234801561001057600080fd5b506100246000801b3361002960201b60201c565b610187565b610039828261011560201b60201c565b61011157600160008084815260200190815260200160002060000160008373ffffffffffffffffffffffffffffffffffffffff1673ffffffffffffffffffffffffffffffffffffffff16815260200190815260200160002060006101000a81548160ff0219169083151502179055506100b661017f60201b60201c565b73ffffffffffffffffffffffffffffffffffffffff168173ffffffffffffffffffffffffffffffffffffffff16837f2f8788117e7eff1d82e926ec794901d17c78024a50270940304540a733656f0d60405160405180910390a45b5050565b600080600084815260200190815260200160002060000160008373ffffffffffffffffffffffffffffffffffffffff1673ffffffffffffffffffffffffffffffffffffffff16815260200190815260200160002060009054906101000a900460ff16905092915050565b600033905090565b61123e806101966000396000f3fe6080604052600436106100a05760003560e01c80636e353a1d116100645780636e353a1d1461019e57806391d14854146101ba5780639c3962f0146101f7578063a217fddf14610215578063a558708814610240578063d547741f1461026b576100a7565b806301ffc9a7146100a9578063248a9ca3146100e65780632f2ff15d1461012357806336568abe1461014c578063397a8bab14610175576100a7565b366100a757005b005b3480156100b557600080fd5b506100d060048036038101906100cb9190610ace565b610294565b6040516100dd9190610b16565b60405180910390f35b3480156100f257600080fd5b5061010d60048036038101906101089190610b67565b61030e565b60405161011a9190610ba3565b60405180910390f35b34801561012f57600080fd5b5061014a60048036038101906101459190610c1c565b61032d565b005b34801561015857600080fd5b50610173600480360381019061016e9190610c1c565b61034e565b005b34801561018157600080fd5b5061019c60048036038101906101979190610c5c565b6103d1565b005b6101b860048036038101906101b39190610cc7565b6103ef565b005b3480156101c657600080fd5b506101e160048036038101906101dc9190610c1c565b6104ad565b6040516101ee9190610b16565b60405180910390f35b6101ff610517565b60405161020c9190610b16565b60405180910390f35b34801561022157600080fd5b5061022a610520565b6040516102379190610ba3565b60405180910390f35b34801561024c57600080fd5b50610255610527565b6040516102629190610d0d565b60405180910390f35b34801561027757600080fd5b50610292600480360381019061028d9190610c1c565b610530565b005b60007f7965db0b000000000000000000000000000000000000000000000000000000007bffffffffffffffffffffffffffffffffffffffffffffffffffffffff1916827bffffffffffffffffffffffffffffffffffffffffffffffffffffffff19161480610307575061030682610551565b5b9050919050565b6000806000838152602001908152602001600020600101549050919050565b6103368261030e565b61033f816105bb565b61034983836105cf565b505050565b6103566106af565b73ffffffffffffffffffffffffffffffffffffffff168173ffffffffffffffffffffffffffffffffffffffff16146103c3576040517f08c379a00000000000000000000000000000000000000000000000000000000081526004016103ba90610dab565b60405180910390fd5b6103cd82826106b7565b5050565b6000801b6103de816105bb565b6103eb6000801b836105cf565b5050565b6000801b6103fc816105bb565b60008273ffffffffffffffffffffffffffffffffffffffff164760405161042290610dfc565b60006040518083038185875af1925050503d806000811461045f576040519150601f19603f3d011682016040523d82523d6000602084013e610464565b606091505b50509050806104a8576040517f08c379a000000000000000000000000000000000000000000000000000000000815260040161049f90610e5d565b60405180910390fd5b505050565b600080600084815260200190815260200160002060000160008373ffffffffffffffffffffffffffffffffffffffff1673ffffffffffffffffffffffffffffffffffffffff16815260200190815260200160002060009054906101000a900460ff16905092915050565b60006001905090565b6000801b81565b60006038905090565b6105398261030e565b610542816105bb565b61054c83836106b7565b505050565b60007f01ffc9a7000000000000000000000000000000000000000000000000000000007bffffffffffffffffffffffffffffffffffffffffffffffffffffffff1916827bffffffffffffffffffffffffffffffffffffffffffffffffffffffff1916149050919050565b6105cc816105c76106af565b610798565b50565b6105d982826104ad565b6106ab57600160008084815260200190815260200160002060000160008373ffffffffffffffffffffffffffffffffffffffff1673ffffffffffffffffffffffffffffffffffffffff16815260200190815260200160002060006101000a81548160ff0219169083151502179055506106506106af565b73ffffffffffffffffffffffffffffffffffffffff168173ffffffffffffffffffffffffffffffffffffffff16837f2f8788117e7eff1d82e926ec794901d17c78024a50270940304540a733656f0d60405160405180910390a45b5050565b600033905090565b6106c182826104ad565b1561079457600080600084815260200190815260200160002060000160008373ffffffffffffffffffffffffffffffffffffffff1673ffffffffffffffffffffffffffffffffffffffff16815260200190815260200160002060006101000a81548160ff0219169083151502179055506107396106af565b73ffffffffffffffffffffffffffffffffffffffff168173ffffffffffffffffffffffffffffffffffffffff16837ff6391f5c32d9c69d2a47ea670b442974b53935d1edc7fd64eb21e047a839171b60405160405180910390a45b5050565b6107a282826104ad565b610831576107c78173ffffffffffffffffffffffffffffffffffffffff166014610835565b6107d58360001c6020610835565b6040516020016107e6929190610f8f565b6040516020818303038152906040526040517f08c379a00000000000000000000000000000000000000000000000000000000081526004016108289190611013565b60405180910390fd5b5050565b6060600060028360026108489190611064565b61085291906110be565b67ffffffffffffffff81111561086b5761086a611114565b5b6040519080825280601f01601f19166020018201604052801561089d5781602001600182028036833780820191505090505b5090507f3000000000000000000000000000000000000000000000000000000000000000816000815181106108d5576108d4611143565b5b60200101907effffffffffffffffffffffffffffffffffffffffffffffffffffffffffffff1916908160001a9053507f78000000000000000000000000000000000000000000000000000000000000008160018151811061093957610938611143565b5b60200101907effffffffffffffffffffffffffffffffffffffffffffffffffffffffffffff1916908160001a905350600060018460026109799190611064565b61098391906110be565b90505b6001811115610a23577f3031323334353637383961626364656600000000000000000000000000000000600f8616601081106109c5576109c4611143565b5b1a60f81b8282815181106109dc576109db611143565b5b60200101907effffffffffffffffffffffffffffffffffffffffffffffffffffffffffffff1916908160001a905350600485901c945080610a1c90611172565b9050610986565b5060008414610a67576040517f08c379a0000000000000000000000000000000000000000000000000000000008152600401610a5e906111e8565b60405180910390fd5b8091505092915050565b600080fd5b60007fffffffff0000000000000000000000000000000000000000000000000000000082169050919050565b610aab81610a76565b8114610ab657600080fd5b50565b600081359050610ac881610aa2565b92915050565b600060208284031215610ae457610ae3610a71565b5b6000610af284828501610ab9565b91505092915050565b60008115159050919050565b610b1081610afb565b82525050565b6000602082019050610b2b6000830184610b07565b92915050565b6000819050919050565b610b4481610b31565b8114610b4f57600080fd5b50565b600081359050610b6181610b3b565b92915050565b600060208284031215610b7d57610b7c610a71565b5b6000610b8b84828501610b52565b91505092915050565b610b9d81610b31565b82525050565b6000602082019050610bb86000830184610b94565b92915050565b600073ffffffffffffffffffffffffffffffffffffffff82169050919050565b6000610be982610bbe565b9050919050565b610bf981610bde565b8114610c0457600080fd5b50565b600081359050610c1681610bf0565b92915050565b60008060408385031215610c3357610c32610a71565b5b6000610c4185828601610b52565b9250506020610c5285828601610c07565b9150509250929050565b600060208284031215610c7257610c71610a71565b5b6000610c8084828501610c07565b91505092915050565b6000610c9482610bbe565b9050919050565b610ca481610c89565b8114610caf57600080fd5b50565b600081359050610cc181610c9b565b92915050565b600060208284031215610cdd57610cdc610a71565b5b6000610ceb84828501610cb2565b91505092915050565b6000819050919050565b610d0781610cf4565b82525050565b6000602082019050610d226000830184610cfe565b92915050565b600082825260208201905092915050565b7f416363657373436f6e74726f6c3a2063616e206f6e6c792072656e6f756e636560008201527f20726f6c657320666f722073656c660000000000000000000000000000000000602082015250565b6000610d95602f83610d28565b9150610da082610d39565b604082019050919050565b60006020820190508181036000830152610dc481610d88565b9050919050565b600081905092915050565b50565b6000610de6600083610dcb565b9150610df182610dd6565b600082019050919050565b6000610e0782610dd9565b9150819050919050565b7f4574686572207472616e73666572206661696c65642e00000000000000000000600082015250565b6000610e47601683610d28565b9150610e5282610e11565b602082019050919050565b60006020820190508181036000830152610e7681610e3a565b9050919050565b600081905092915050565b7f416363657373436f6e74726f6c3a206163636f756e7420000000000000000000600082015250565b6000610ebe601783610e7d565b9150610ec982610e88565b601782019050919050565b600081519050919050565b60005b83811015610efd578082015181840152602081019050610ee2565b83811115610f0c576000848401525b50505050565b6000610f1d82610ed4565b610f278185610e7d565b9350610f37818560208601610edf565b80840191505092915050565b7f206973206d697373696e6720726f6c6520000000000000000000000000000000600082015250565b6000610f79601183610e7d565b9150610f8482610f43565b601182019050919050565b6000610f9a82610eb1565b9150610fa68285610f12565b9150610fb182610f6c565b9150610fbd8284610f12565b91508190509392505050565b6000601f19601f8301169050919050565b6000610fe582610ed4565b610fef8185610d28565b9350610fff818560208601610edf565b61100881610fc9565b840191505092915050565b6000602082019050818103600083015261102d8184610fda565b905092915050565b7f4e487b7100000000000000000000000000000000000000000000000000000000600052601160045260246000fd5b600061106f82610cf4565b915061107a83610cf4565b9250817fffffffffffffffffffffffffffffffffffffffffffffffffffffffffffffffff04831182151516156110b3576110b2611035565b5b828202905092915050565b60006110c982610cf4565b91506110d483610cf4565b9250827fffffffffffffffffffffffffffffffffffffffffffffffffffffffffffffffff0382111561110957611108611035565b5b828201905092915050565b7f4e487b7100000000000000000000000000000000000000000000000000000000600052604160045260246000fd5b7f4e487b7100000000000000000000000000000000000000000000000000000000600052603260045260246000fd5b600061117d82610cf4565b9150600082141561119157611190611035565b5b600182039050919050565b7f537472696e67733a20686578206c656e67746820696e73756666696369656e74600082015250565b60006111d2602083610d28565b91506111dd8261119c565b602082019050919050565b60006020820190508181036000830152611201816111c5565b905091905056fea2646970667358221220b3b8f38e2927c223a4c12b82c7a56b07e86cab6cbc3eca5370713ec63364af7b64736f6c63430008090033",
  "linkReferences": {},
  "deployedLinkReferences": {}
}