{
  "_format": "hh-sol-artifact-1",
  "contractName": "MarketWrapper",
  "sourceName": "contracts/main/MarketWrapper.sol",
  "abi": [
    {
      "inputs": [
        {
          "components": [
            {
              "components": [
                {
                  "internalType": "address",
                  "name": "considerationToken",
                  "type": "address"
                },
                {
                  "internalType": "uint256",
                  "name": "considerationIdentifier",
                  "type": "uint256"
                },
                {
                  "internalType": "uint256",
                  "name": "considerationAmount",
                  "type": "uint256"
                },
                {
                  "internalType": "address payable",
                  "name": "offerer",
                  "type": "address"
                },
                {
                  "internalType": "address",
                  "name": "zone",
                  "type": "address"
                },
                {
                  "internalType": "address",
                  "name": "offerToken",
                  "type": "address"
                },
                {
                  "internalType": "uint256",
                  "name": "offerIdentifier",
                  "type": "uint256"
                },
                {
                  "internalType": "uint256",
                  "name": "offerAmount",
                  "type": "uint256"
                },
                {
                  "internalType": "enum BasicOrderType",
                  "name": "basicOrderType",
                  "type": "uint8"
                },
                {
                  "internalType": "uint256",
                  "name": "startTime",
                  "type": "uint256"
                },
                {
                  "internalType": "uint256",
                  "name": "endTime",
                  "type": "uint256"
                },
                {
                  "internalType": "bytes32",
                  "name": "zoneHash",
                  "type": "bytes32"
                },
                {
                  "internalType": "uint256",
                  "name": "salt",
                  "type": "uint256"
                },
                {
                  "internalType": "bytes32",
                  "name": "offererConduitKey",
                  "type": "bytes32"
                },
                {
                  "internalType": "bytes32",
                  "name": "fulfillerConduitKey",
                  "type": "bytes32"
                },
                {
                  "internalType": "uint256",
                  "name": "totalOriginalAdditionalRecipients",
                  "type": "uint256"
                },
                {
                  "components": [
                    {
                      "internalType": "uint256",
                      "name": "amount",
                      "type": "uint256"
                    },
                    {
                      "internalType": "address payable",
                      "name": "recipient",
                      "type": "address"
                    }
                  ],
                  "internalType": "struct AdditionalRecipient[]",
                  "name": "additionalRecipients",
                  "type": "tuple[]"
                },
                {
                  "internalType": "bytes",
                  "name": "signature",
                  "type": "bytes"
                }
              ],
              "internalType": "struct BasicOrderParameters",
              "name": "orderParams",
              "type": "tuple"
            },
            {
              "internalType": "uint256",
              "name": "buyNowPrice",
              "type": "uint256"
            },
            {
              "internalType": "address",
              "name": "marketPlace",
              "type": "address"
            }
          ],
          "internalType": "struct MarketWrapperConstructorParameters",
          "name": "_params",
          "type": "tuple"
        }
      ],
      "stateMutability": "nonpayable",
      "type": "constructor"
    },
    {
      "anonymous": false,
      "inputs": [
        {
          "indexed": false,
          "internalType": "bool",
          "name": "success",
          "type": "bool"
        }
      ],
      "name": "Purchased",
      "type": "event"
    },
    {
      "anonymous": false,
      "inputs": [
        {
          "indexed": true,
          "internalType": "bytes32",
          "name": "role",
          "type": "bytes32"
        },
        {
          "indexed": true,
          "internalType": "bytes32",
          "name": "previousAdminRole",
          "type": "bytes32"
        },
        {
          "indexed": true,
          "internalType": "bytes32",
          "name": "newAdminRole",
          "type": "bytes32"
        }
      ],
      "name": "RoleAdminChanged",
      "type": "event"
    },
    {
      "anonymous": false,
      "inputs": [
        {
          "indexed": true,
          "internalType": "bytes32",
          "name": "role",
          "type": "bytes32"
        },
        {
          "indexed": true,
          "internalType": "address",
          "name": "account",
          "type": "address"
        },
        {
          "indexed": true,
          "internalType": "address",
          "name": "sender",
          "type": "address"
        }
      ],
      "name": "RoleGranted",
      "type": "event"
    },
    {
      "anonymous": false,
      "inputs": [
        {
          "indexed": true,
          "internalType": "bytes32",
          "name": "role",
          "type": "bytes32"
        },
        {
          "indexed": true,
          "internalType": "address",
          "name": "account",
          "type": "address"
        },
        {
          "indexed": true,
          "internalType": "address",
          "name": "sender",
          "type": "address"
        }
      ],
      "name": "RoleRevoked",
      "type": "event"
    },
    {
      "stateMutability": "payable",
      "type": "fallback"
    },
    {
      "inputs": [],
      "name": "DEFAULT_ADMIN_ROLE",
      "outputs": [
        {
          "internalType": "bytes32",
          "name": "",
          "type": "bytes32"
        }
      ],
      "stateMutability": "view",
      "type": "function"
    },
    {
      "inputs": [],
      "name": "buyNow",
      "outputs": [
        {
          "internalType": "bool",
          "name": "",
          "type": "bool"
        }
      ],
      "stateMutability": "payable",
      "type": "function"
    },
    {
      "inputs": [
        {
          "internalType": "address payable",
          "name": "to",
          "type": "address"
        }
      ],
      "name": "emergencyWithdrawal",
      "outputs": [],
      "stateMutability": "payable",
      "type": "function"
    },
    {
      "inputs": [
        {
          "internalType": "bytes32",
          "name": "role",
          "type": "bytes32"
        }
      ],
      "name": "getRoleAdmin",
      "outputs": [
        {
          "internalType": "bytes32",
          "name": "",
          "type": "bytes32"
        }
      ],
      "stateMutability": "view",
      "type": "function"
    },
    {
      "inputs": [
        {
          "internalType": "address",
          "name": "to",
          "type": "address"
        }
      ],
      "name": "grantOwnerRole",
      "outputs": [],
      "stateMutability": "nonpayable",
      "type": "function"
    },
    {
      "inputs": [
        {
          "internalType": "bytes32",
          "name": "role",
          "type": "bytes32"
        },
        {
          "internalType": "address",
          "name": "account",
          "type": "address"
        }
      ],
      "name": "grantRole",
      "outputs": [],
      "stateMutability": "nonpayable",
      "type": "function"
    },
    {
      "inputs": [
        {
          "internalType": "bytes32",
          "name": "role",
          "type": "bytes32"
        },
        {
          "internalType": "address",
          "name": "account",
          "type": "address"
        }
      ],
      "name": "hasRole",
      "outputs": [
        {
          "internalType": "bool",
          "name": "",
          "type": "bool"
        }
      ],
      "stateMutability": "view",
      "type": "function"
    },
    {
      "inputs": [
        {
          "components": [
            {
              "components": [
                {
                  "internalType": "address",
                  "name": "considerationToken",
                  "type": "address"
                },
                {
                  "internalType": "uint256",
                  "name": "considerationIdentifier",
                  "type": "uint256"
                },
                {
                  "internalType": "uint256",
                  "name": "considerationAmount",
                  "type": "uint256"
                },
                {
                  "internalType": "address payable",
                  "name": "offerer",
                  "type": "address"
                },
                {
                  "internalType": "address",
                  "name": "zone",
                  "type": "address"
                },
                {
                  "internalType": "address",
                  "name": "offerToken",
                  "type": "address"
                },
                {
                  "internalType": "uint256",
                  "name": "offerIdentifier",
                  "type": "uint256"
                },
                {
                  "internalType": "uint256",
                  "name": "offerAmount",
                  "type": "uint256"
                },
                {
                  "internalType": "enum BasicOrderType",
                  "name": "basicOrderType",
                  "type": "uint8"
                },
                {
                  "internalType": "uint256",
                  "name": "startTime",
                  "type": "uint256"
                },
                {
                  "internalType": "uint256",
                  "name": "endTime",
                  "type": "uint256"
                },
                {
                  "internalType": "bytes32",
                  "name": "zoneHash",
                  "type": "bytes32"
                },
                {
                  "internalType": "uint256",
                  "name": "salt",
                  "type": "uint256"
                },
                {
                  "internalType": "bytes32",
                  "name": "offererConduitKey",
                  "type": "bytes32"
                },
                {
                  "internalType": "bytes32",
                  "name": "fulfillerConduitKey",
                  "type": "bytes32"
                },
                {
                  "internalType": "uint256",
                  "name": "totalOriginalAdditionalRecipients",
                  "type": "uint256"
                },
                {
                  "components": [
                    {
                      "internalType": "uint256",
                      "name": "amount",
                      "type": "uint256"
                    },
                    {
                      "internalType": "address payable",
                      "name": "recipient",
                      "type": "address"
                    }
                  ],
                  "internalType": "struct AdditionalRecipient[]",
                  "name": "additionalRecipients",
                  "type": "tuple[]"
                },
                {
                  "internalType": "bytes",
                  "name": "signature",
                  "type": "bytes"
                }
              ],
              "internalType": "struct BasicOrderParameters",
              "name": "orderParams",
              "type": "tuple"
            },
            {
              "internalType": "uint256",
              "name": "buyNowPrice",
              "type": "uint256"
            },
            {
              "internalType": "address",
              "name": "marketPlace",
              "type": "address"
            }
          ],
          "internalType": "struct MarketWrapperConstructorParameters",
          "name": "_params",
          "type": "tuple"
        }
      ],
      "name": "migration",
      "outputs": [],
      "stateMutability": "nonpayable",
      "type": "function"
    },
    {
      "inputs": [],
      "name": "params",
      "outputs": [
        {
          "components": [
            {
              "internalType": "address",
              "name": "considerationToken",
              "type": "address"
            },
            {
              "internalType": "uint256",
              "name": "considerationIdentifier",
              "type": "uint256"
            },
            {
              "internalType": "uint256",
              "name": "considerationAmount",
              "type": "uint256"
            },
            {
              "internalType": "address payable",
              "name": "offerer",
              "type": "address"
            },
            {
              "internalType": "address",
              "name": "zone",
              "type": "address"
            },
            {
              "internalType": "address",
              "name": "offerToken",
              "type": "address"
            },
            {
              "internalType": "uint256",
              "name": "offerIdentifier",
              "type": "uint256"
            },
            {
              "internalType": "uint256",
              "name": "offerAmount",
              "type": "uint256"
            },
            {
              "internalType": "enum BasicOrderType",
              "name": "basicOrderType",
              "type": "uint8"
            },
            {
              "internalType": "uint256",
              "name": "startTime",
              "type": "uint256"
            },
            {
              "internalType": "uint256",
              "name": "endTime",
              "type": "uint256"
            },
            {
              "internalType": "bytes32",
              "name": "zoneHash",
              "type": "bytes32"
            },
            {
              "internalType": "uint256",
              "name": "salt",
              "type": "uint256"
            },
            {
              "internalType": "bytes32",
              "name": "offererConduitKey",
              "type": "bytes32"
            },
            {
              "internalType": "bytes32",
              "name": "fulfillerConduitKey",
              "type": "bytes32"
            },
            {
              "internalType": "uint256",
              "name": "totalOriginalAdditionalRecipients",
              "type": "uint256"
            },
            {
              "components": [
                {
                  "internalType": "uint256",
                  "name": "amount",
                  "type": "uint256"
                },
                {
                  "internalType": "address payable",
                  "name": "recipient",
                  "type": "address"
                }
              ],
              "internalType": "struct AdditionalRecipient[]",
              "name": "additionalRecipients",
              "type": "tuple[]"
            },
            {
              "internalType": "bytes",
              "name": "signature",
              "type": "bytes"
            }
          ],
          "internalType": "struct BasicOrderParameters",
          "name": "orderParams",
          "type": "tuple"
        },
        {
          "internalType": "uint256",
          "name": "buyNowPrice",
          "type": "uint256"
        },
        {
          "internalType": "address",
          "name": "marketPlace",
          "type": "address"
        }
      ],
      "stateMutability": "view",
      "type": "function"
    },
    {
      "inputs": [
        {
          "internalType": "bytes32",
          "name": "role",
          "type": "bytes32"
        },
        {
          "internalType": "address",
          "name": "account",
          "type": "address"
        }
      ],
      "name": "renounceRole",
      "outputs": [],
      "stateMutability": "nonpayable",
      "type": "function"
    },
    {
      "inputs": [
        {
          "internalType": "bytes32",
          "name": "role",
          "type": "bytes32"
        },
        {
          "internalType": "address",
          "name": "account",
          "type": "address"
        }
      ],
      "name": "revokeRole",
      "outputs": [],
      "stateMutability": "nonpayable",
      "type": "function"
    },
    {
      "inputs": [
        {
          "internalType": "uint256",
          "name": "_price",
          "type": "uint256"
        }
      ],
      "name": "setBuyNowPrice",
      "outputs": [],
      "stateMutability": "nonpayable",
      "type": "function"
    },
    {
      "inputs": [
        {
          "internalType": "bytes4",
          "name": "interfaceId",
          "type": "bytes4"
        }
      ],
      "name": "supportsInterface",
      "outputs": [
        {
          "internalType": "bool",
          "name": "",
          "type": "bool"
        }
      ],
      "stateMutability": "view",
      "type": "function"
    },
    {
      "inputs": [
        {
          "internalType": "address",
          "name": "_nftContractAddress",
          "type": "address"
        },
        {
          "internalType": "uint256",
          "name": "_tokenId",
          "type": "uint256"
        },
        {
          "internalType": "address",
          "name": "_to",
          "type": "address"
        }
      ],
      "name": "withdrawNft",
      "outputs": [],
      "stateMutability": "nonpayable",
      "type": "function"
    },
    {
      "stateMutability": "payable",
      "type": "receive"
    }
  ],
  "bytecode": "0x60806040523480156200001157600080fd5b5060405162003c1838038062003c18833981810160405281019062000037919062000d44565b6200004c6000801b336200047360201b60201c565b80602001516001601201819055508060400151600160130160006101000a81548173ffffffffffffffffffffffffffffffffffffffff021916908373ffffffffffffffffffffffffffffffffffffffff160217905550806000015160000151600160000160000160006101000a81548173ffffffffffffffffffffffffffffffffffffffff021916908373ffffffffffffffffffffffffffffffffffffffff160217905550806000015160200151600160000160010181905550806000015160400151600160000160020181905550806000015160600151600160000160030160006101000a81548173ffffffffffffffffffffffffffffffffffffffff021916908373ffffffffffffffffffffffffffffffffffffffff160217905550806000015160800151600160000160040160006101000a81548173ffffffffffffffffffffffffffffffffffffffff021916908373ffffffffffffffffffffffffffffffffffffffff160217905550806000015160a00151600160000160050160006101000a81548173ffffffffffffffffffffffffffffffffffffffff021916908373ffffffffffffffffffffffffffffffffffffffff160217905550806000015160c00151600160000160060181905550806000015160e0015160016000016007018190555080600001516101000151600160000160080160006101000a81548160ff0219169083601781111562000269576200026862000d95565b5b021790555080600001516101200151600160000160090181905550806000015161014001516001600001600a0181905550806000015161016001516001600001600b0181905550806000015161018001516001600001600c018190555080600001516101a001516001600001600d018190555080600001516101c001516001600001600e018190555080600001516101e001516001600001600f018190555060005b8160000151610200015151811015620004435760008260000151610200015182815181106200033f576200033e62000dc4565b5b602002602001015160000151905060008360000151610200015183815181106200036e576200036d62000dc4565b5b6020026020010151602001519050600160000160100160405180604001604052808481526020018373ffffffffffffffffffffffffffffffffffffffff1681525090806001815401808255809150506001900390600052602060002090600202016000909190919091506000820151816000015560208201518160010160006101000a81548173ffffffffffffffffffffffffffffffffffffffff021916908373ffffffffffffffffffffffffffffffffffffffff1602179055505050505080806200043a9062000e22565b9150506200030b565b5080600001516102200151600160000160110190805190602001906200046b929190620005d6565b505062000ed3565b6200048582826200056460201b60201c565b6200056057600160008084815260200190815260200160002060000160008373ffffffffffffffffffffffffffffffffffffffff1673ffffffffffffffffffffffffffffffffffffffff16815260200190815260200160002060006101000a81548160ff02191690831515021790555062000505620005ce60201b60201c565b73ffffffffffffffffffffffffffffffffffffffff168173ffffffffffffffffffffffffffffffffffffffff16837f2f8788117e7eff1d82e926ec794901d17c78024a50270940304540a733656f0d60405160405180910390a45b5050565b600080600084815260200190815260200160002060000160008373ffffffffffffffffffffffffffffffffffffffff1673ffffffffffffffffffffffffffffffffffffffff16815260200190815260200160002060009054906101000a900460ff16905092915050565b600033905090565b828054620005e49062000e9e565b90600052602060002090601f01602090048101928262000608576000855562000654565b82601f106200062357805160ff191683800117855562000654565b8280016001018555821562000654579182015b828111156200065357825182559160200191906001019062000636565b5b50905062000663919062000667565b5090565b5b808211156200068257600081600090555060010162000668565b5090565b6000604051905090565b600080fd5b600080fd5b600080fd5b6000601f19601f8301169050919050565b7f4e487b7100000000000000000000000000000000000000000000000000000000600052604160045260246000fd5b620006ea826200069f565b810181811067ffffffffffffffff821117156200070c576200070b620006b0565b5b80604052505050565b60006200072162000686565b90506200072f8282620006df565b919050565b600080fd5b600073ffffffffffffffffffffffffffffffffffffffff82169050919050565b6000620007668262000739565b9050919050565b620007788162000759565b81146200078457600080fd5b50565b60008151905062000798816200076d565b92915050565b6000819050919050565b620007b3816200079e565b8114620007bf57600080fd5b50565b600081519050620007d381620007a8565b92915050565b6000620007e68262000739565b9050919050565b620007f881620007d9565b81146200080457600080fd5b50565b6000815190506200081881620007ed565b92915050565b601881106200082c57600080fd5b50565b60008151905062000840816200081e565b92915050565b6000819050919050565b6200085b8162000846565b81146200086757600080fd5b50565b6000815190506200087b8162000850565b92915050565b600080fd5b600067ffffffffffffffff821115620008a457620008a3620006b0565b5b602082029050602081019050919050565b600080fd5b600060408284031215620008d357620008d26200069a565b5b620008df604062000715565b90506000620008f184828501620007c2565b6000830152506020620009078482850162000807565b60208301525092915050565b60006200092a620009248462000886565b62000715565b9050808382526020820190506040840283018581111562000950576200094f620008b5565b5b835b818110156200097d5780620009688882620008ba565b84526020840193505060408101905062000952565b5050509392505050565b600082601f8301126200099f576200099e62000881565b5b8151620009b184826020860162000913565b91505092915050565b600080fd5b600067ffffffffffffffff821115620009dd57620009dc620006b0565b5b620009e8826200069f565b9050602081019050919050565b60005b8381101562000a15578082015181840152602081019050620009f8565b8381111562000a25576000848401525b50505050565b600062000a4262000a3c84620009bf565b62000715565b90508281526020810184848401111562000a615762000a60620009ba565b5b62000a6e848285620009f5565b509392505050565b600082601f83011262000a8e5762000a8d62000881565b5b815162000aa084826020860162000a2b565b91505092915050565b6000610240828403121562000ac35762000ac26200069a565b5b62000ad061024062000715565b9050600062000ae28482850162000787565b600083015250602062000af884828501620007c2565b602083015250604062000b0e84828501620007c2565b604083015250606062000b248482850162000807565b606083015250608062000b3a8482850162000787565b60808301525060a062000b508482850162000787565b60a08301525060c062000b6684828501620007c2565b60c08301525060e062000b7c84828501620007c2565b60e08301525061010062000b93848285016200082f565b6101008301525061012062000bab84828501620007c2565b6101208301525061014062000bc384828501620007c2565b6101408301525061016062000bdb848285016200086a565b6101608301525061018062000bf384828501620007c2565b610180830152506101a062000c0b848285016200086a565b6101a0830152506101c062000c23848285016200086a565b6101c0830152506101e062000c3b84828501620007c2565b6101e08301525061020082015167ffffffffffffffff81111562000c645762000c6362000734565b5b62000c728482850162000987565b6102008301525061022082015167ffffffffffffffff81111562000c9b5762000c9a62000734565b5b62000ca98482850162000a76565b6102208301525092915050565b60006060828403121562000ccf5762000cce6200069a565b5b62000cdb606062000715565b9050600082015167ffffffffffffffff81111562000cfe5762000cfd62000734565b5b62000d0c8482850162000aa9565b600083015250602062000d2284828501620007c2565b602083015250604062000d388482850162000787565b60408301525092915050565b60006020828403121562000d5d5762000d5c62000690565b5b600082015167ffffffffffffffff81111562000d7e5762000d7d62000695565b5b62000d8c8482850162000cb6565b91505092915050565b7f4e487b7100000000000000000000000000000000000000000000000000000000600052602160045260246000fd5b7f4e487b7100000000000000000000000000000000000000000000000000000000600052603260045260246000fd5b7f4e487b7100000000000000000000000000000000000000000000000000000000600052601160045260246000fd5b600062000e2f826200079e565b91507fffffffffffffffffffffffffffffffffffffffffffffffffffffffffffffffff820362000e645762000e6362000df3565b5b600182019050919050565b7f4e487b7100000000000000000000000000000000000000000000000000000000600052602260045260246000fd5b6000600282049050600182168062000eb757607f821691505b60208210810362000ecd5762000ecc62000e6f565b5b50919050565b612d358062000ee36000396000f3fe6080604052600436106100e15760003560e01c806370143dea1161007f578063a217fddf11610059578063a217fddf146102c2578063cff0ab96146102ed578063d547741f1461031a578063dd0b7ffe14610343576100f5565b806370143dea1461023e57806391d14854146102675780639c3962f0146102a4576100f5565b80632f2ff15d116100bb5780632f2ff15d146101a757806336568abe146101d0578063397a8bab146101f95780636e353a1d14610222576100f5565b806301ffc9a714610104578063248a9ca3146101415780632c5a0a131461017e576100f5565b366100f5576000801b6100f38161036c565b005b6000801b6101028161036c565b005b34801561011057600080fd5b5061012b600480360381019061012691906118a1565b610380565b60405161013891906118e9565b60405180910390f35b34801561014d57600080fd5b506101686004803603810190610163919061193a565b6103fa565b6040516101759190611976565b60405180910390f35b34801561018a57600080fd5b506101a560048036038101906101a091906119b5565b610419565b005b3480156101b357600080fd5b506101ce60048036038101906101c99190611a5c565b61099a565b005b3480156101dc57600080fd5b506101f760048036038101906101f29190611a5c565b6109bb565b005b34801561020557600080fd5b50610220600480360381019061021b9190611a9c565b610a3e565b005b61023c60048036038101906102379190611b07565b610a5c565b005b34801561024a57600080fd5b5061026560048036038101906102609190611b6a565b610b1a565b005b34801561027357600080fd5b5061028e60048036038101906102899190611a5c565b610c83565b60405161029b91906118e9565b60405180910390f35b6102ac610ced565b6040516102b991906118e9565b60405180910390f35b3480156102ce57600080fd5b506102d7610eb8565b6040516102e49190611976565b60405180910390f35b3480156102f957600080fd5b50610302610ebf565b60405161031193929190611f8e565b60405180910390f35b34801561032657600080fd5b50610341600480360381019061033c9190611a5c565b611254565b005b34801561034f57600080fd5b5061036a60048036038101906103659190611fcc565b611275565b005b61037d81610378611290565b611298565b50565b60007f7965db0b000000000000000000000000000000000000000000000000000000007bffffffffffffffffffffffffffffffffffffffffffffffffffffffff1916827bffffffffffffffffffffffffffffffffffffffffffffffffffffffff191614806103f357506103f282611335565b5b9050919050565b6000806000838152602001908152602001600020600101549050919050565b6000801b6104268161036c565b81602001356001601201819055508160400160208101906104479190611a9c565b600160130160006101000a81548173ffffffffffffffffffffffffffffffffffffffff021916908373ffffffffffffffffffffffffffffffffffffffff16021790555081806000019061049a9190612008565b60000160208101906104ac9190611a9c565b600160000160000160006101000a81548173ffffffffffffffffffffffffffffffffffffffff021916908373ffffffffffffffffffffffffffffffffffffffff1602179055508180600001906105029190612008565b602001356001600001600101819055508180600001906105229190612008565b604001356001600001600201819055508180600001906105429190612008565b60600160208101906105549190611b07565b600160000160030160006101000a81548173ffffffffffffffffffffffffffffffffffffffff021916908373ffffffffffffffffffffffffffffffffffffffff1602179055508180600001906105aa9190612008565b60800160208101906105bc9190611a9c565b600160000160040160006101000a81548173ffffffffffffffffffffffffffffffffffffffff021916908373ffffffffffffffffffffffffffffffffffffffff1602179055508180600001906106129190612008565b60a00160208101906106249190611a9c565b600160000160050160006101000a81548173ffffffffffffffffffffffffffffffffffffffff021916908373ffffffffffffffffffffffffffffffffffffffff16021790555081806000019061067a9190612008565b60c0013560016000016006018190555081806000019061069a9190612008565b60e001356001600001600701819055508180600001906106ba9190612008565b6101000160208101906106cd9190612056565b600160000160080160006101000a81548160ff021916908360178111156106f7576106f6611bea565b5b021790555081806000019061070c9190612008565b610120013560016000016009018190555081806000019061072d9190612008565b61014001356001600001600a018190555081806000019061074e9190612008565b61016001356001600001600b018190555081806000019061076f9190612008565b61018001356001600001600c01819055508180600001906107909190612008565b6101a001356001600001600d01819055508180600001906107b19190612008565b6101c001356001600001600e01819055508180600001906107d29190612008565b6101e001356001600001600f018190555060005b8280600001906107f69190612008565b8061020001906108069190612083565b905081101561095f5760008380600001906108219190612008565b8061020001906108319190612083565b83818110610842576108416120e6565b5b90506040020160000135905060008480600001906108609190612008565b8061020001906108709190612083565b84818110610881576108806120e6565b5b90506040020160200160208101906108999190611b07565b9050600160000160100160405180604001604052808481526020018373ffffffffffffffffffffffffffffffffffffffff1681525090806001815401808255809150506001900390600052602060002090600202016000909190919091506000820151816000015560208201518160010160006101000a81548173ffffffffffffffffffffffffffffffffffffffff021916908373ffffffffffffffffffffffffffffffffffffffff16021790555050505050808061095790612144565b9150506107e6565b508180600001906109709190612008565b806102200190610980919061218c565b6001600001601101919061099592919061179c565b505050565b6109a3826103fa565b6109ac8161036c565b6109b6838361139f565b505050565b6109c3611290565b73ffffffffffffffffffffffffffffffffffffffff168173ffffffffffffffffffffffffffffffffffffffff1614610a30576040517f08c379a0000000000000000000000000000000000000000000000000000000008152600401610a2790612272565b60405180910390fd5b610a3a828261147f565b5050565b6000801b610a4b8161036c565b610a586000801b8361139f565b5050565b6000801b610a698161036c565b60008273ffffffffffffffffffffffffffffffffffffffff1647604051610a8f906122c3565b60006040518083038185875af1925050503d8060008114610acc576040519150601f19603f3d011682016040523d82523d6000602084013e610ad1565b606091505b5050905080610b15576040517f08c379a0000000000000000000000000000000000000000000000000000000008152600401610b0c90612324565b60405180910390fd5b505050565b6000801b610b278161036c565b3073ffffffffffffffffffffffffffffffffffffffff168473ffffffffffffffffffffffffffffffffffffffff16636352211e856040518263ffffffff1660e01b8152600401610b779190612344565b602060405180830381865afa158015610b94573d6000803e3d6000fd5b505050506040513d601f19601f82011682018060405250810190610bb89190612374565b73ffffffffffffffffffffffffffffffffffffffff1614610c0e576040517f08c379a0000000000000000000000000000000000000000000000000000000008152600401610c05906123ed565b60405180910390fd5b8373ffffffffffffffffffffffffffffffffffffffff166323b872dd3084866040518463ffffffff1660e01b8152600401610c4b9392919061240d565b600060405180830381600087803b158015610c6557600080fd5b505af1158015610c79573d6000803e3d6000fd5b5050505050505050565b600080600084815260200190815260200160002060000160008373ffffffffffffffffffffffffffffffffffffffff1673ffffffffffffffffffffffffffffffffffffffff16815260200190815260200160002060009054906101000a900460ff16905092915050565b60008060001b610cfc8161036c565b600160120154471015610d0e57600080fd5b6000600160130160009054906101000a900473ffffffffffffffffffffffffffffffffffffffff1673ffffffffffffffffffffffffffffffffffffffff166001601201546001600001604051602401610d679190612941565b6040516020818303038152906040527ffb0f3ee1000000000000000000000000000000000000000000000000000000007bffffffffffffffffffffffffffffffffffffffffffffffffffffffff19166020820180517bffffffffffffffffffffffffffffffffffffffffffffffffffffffff8381831617835250505050604051610df19190612994565b60006040518083038185875af1925050503d8060008114610e2e576040519150601f19603f3d011682016040523d82523d6000602084013e610e33565b606091505b5050905080610e77576040517f08c379a0000000000000000000000000000000000000000000000000000000008152600401610e6e906129f7565b60405180910390fd5b7f83e31f5e5651d64b527802681a291e708d9fe310288785b1b816aa293d9b8fc66001604051610ea791906118e9565b60405180910390a160019250505090565b6000801b81565b600180600001604051806102400160405290816000820160009054906101000a900473ffffffffffffffffffffffffffffffffffffffff1673ffffffffffffffffffffffffffffffffffffffff1673ffffffffffffffffffffffffffffffffffffffff16815260200160018201548152602001600282015481526020016003820160009054906101000a900473ffffffffffffffffffffffffffffffffffffffff1673ffffffffffffffffffffffffffffffffffffffff1673ffffffffffffffffffffffffffffffffffffffff1681526020016004820160009054906101000a900473ffffffffffffffffffffffffffffffffffffffff1673ffffffffffffffffffffffffffffffffffffffff1673ffffffffffffffffffffffffffffffffffffffff1681526020016005820160009054906101000a900473ffffffffffffffffffffffffffffffffffffffff1673ffffffffffffffffffffffffffffffffffffffff1673ffffffffffffffffffffffffffffffffffffffff16815260200160068201548152602001600782015481526020016008820160009054906101000a900460ff16601781111561107657611075611bea565b5b601781111561108857611087611bea565b5b815260200160098201548152602001600a8201548152602001600b8201548152602001600c8201548152602001600d8201548152602001600e8201548152602001600f820154815260200160108201805480602002602001604051908101604052809291908181526020016000905b828210156111895783829060005260206000209060020201604051806040016040529081600082015481526020016001820160009054906101000a900473ffffffffffffffffffffffffffffffffffffffff1673ffffffffffffffffffffffffffffffffffffffff1673ffffffffffffffffffffffffffffffffffffffff1681525050815260200190600101906110f7565b5050505081526020016011820180546111a19061264c565b80601f01602080910402602001604051908101604052809291908181526020018280546111cd9061264c565b801561121a5780601f106111ef5761010080835404028352916020019161121a565b820191906000526020600020905b8154815290600101906020018083116111fd57829003601f168201915b505050505081525050908060120154908060130160009054906101000a900473ffffffffffffffffffffffffffffffffffffffff16905083565b61125d826103fa565b6112668161036c565b611270838361147f565b505050565b6000801b6112828161036c565b816001601201819055505050565b600033905090565b6112a28282610c83565b611331576112c78173ffffffffffffffffffffffffffffffffffffffff166014611560565b6112d58360001c6020611560565b6040516020016112e6929190612af6565b6040516020818303038152906040526040517f08c379a00000000000000000000000000000000000000000000000000000000081526004016113289190612b69565b60405180910390fd5b5050565b60007f01ffc9a7000000000000000000000000000000000000000000000000000000007bffffffffffffffffffffffffffffffffffffffffffffffffffffffff1916827bffffffffffffffffffffffffffffffffffffffffffffffffffffffff1916149050919050565b6113a98282610c83565b61147b57600160008084815260200190815260200160002060000160008373ffffffffffffffffffffffffffffffffffffffff1673ffffffffffffffffffffffffffffffffffffffff16815260200190815260200160002060006101000a81548160ff021916908315150217905550611420611290565b73ffffffffffffffffffffffffffffffffffffffff168173ffffffffffffffffffffffffffffffffffffffff16837f2f8788117e7eff1d82e926ec794901d17c78024a50270940304540a733656f0d60405160405180910390a45b5050565b6114898282610c83565b1561155c57600080600084815260200190815260200160002060000160008373ffffffffffffffffffffffffffffffffffffffff1673ffffffffffffffffffffffffffffffffffffffff16815260200190815260200160002060006101000a81548160ff021916908315150217905550611501611290565b73ffffffffffffffffffffffffffffffffffffffff168173ffffffffffffffffffffffffffffffffffffffff16837ff6391f5c32d9c69d2a47ea670b442974b53935d1edc7fd64eb21e047a839171b60405160405180910390a45b5050565b6060600060028360026115739190612b8b565b61157d9190612be5565b67ffffffffffffffff81111561159657611595612c3b565b5b6040519080825280601f01601f1916602001820160405280156115c85781602001600182028036833780820191505090505b5090507f300000000000000000000000000000000000000000000000000000000000000081600081518110611600576115ff6120e6565b5b60200101907effffffffffffffffffffffffffffffffffffffffffffffffffffffffffffff1916908160001a9053507f780000000000000000000000000000000000000000000000000000000000000081600181518110611664576116636120e6565b5b60200101907effffffffffffffffffffffffffffffffffffffffffffffffffffffffffffff1916908160001a905350600060018460026116a49190612b8b565b6116ae9190612be5565b90505b600181111561174e577f3031323334353637383961626364656600000000000000000000000000000000600f8616601081106116f0576116ef6120e6565b5b1a60f81b828281518110611707576117066120e6565b5b60200101907effffffffffffffffffffffffffffffffffffffffffffffffffffffffffffff1916908160001a905350600485901c94508061174790612c6a565b90506116b1565b5060008414611792576040517f08c379a000000000000000000000000000000000000000000000000000000000815260040161178990612cdf565b60405180910390fd5b8091505092915050565b8280546117a89061264c565b90600052602060002090601f0160209004810192826117ca5760008555611811565b82601f106117e357803560ff1916838001178555611811565b82800160010185558215611811579182015b828111156118105782358255916020019190600101906117f5565b5b50905061181e9190611822565b5090565b5b8082111561183b576000816000905550600101611823565b5090565b600080fd5b600080fd5b60007fffffffff0000000000000000000000000000000000000000000000000000000082169050919050565b61187e81611849565b811461188957600080fd5b50565b60008135905061189b81611875565b92915050565b6000602082840312156118b7576118b661183f565b5b60006118c58482850161188c565b91505092915050565b60008115159050919050565b6118e3816118ce565b82525050565b60006020820190506118fe60008301846118da565b92915050565b6000819050919050565b61191781611904565b811461192257600080fd5b50565b6000813590506119348161190e565b92915050565b6000602082840312156119505761194f61183f565b5b600061195e84828501611925565b91505092915050565b61197081611904565b82525050565b600060208201905061198b6000830184611967565b92915050565b600080fd5b6000606082840312156119ac576119ab611991565b5b81905092915050565b6000602082840312156119cb576119ca61183f565b5b600082013567ffffffffffffffff8111156119e9576119e8611844565b5b6119f584828501611996565b91505092915050565b600073ffffffffffffffffffffffffffffffffffffffff82169050919050565b6000611a29826119fe565b9050919050565b611a3981611a1e565b8114611a4457600080fd5b50565b600081359050611a5681611a30565b92915050565b60008060408385031215611a7357611a7261183f565b5b6000611a8185828601611925565b9250506020611a9285828601611a47565b9150509250929050565b600060208284031215611ab257611ab161183f565b5b6000611ac084828501611a47565b91505092915050565b6000611ad4826119fe565b9050919050565b611ae481611ac9565b8114611aef57600080fd5b50565b600081359050611b0181611adb565b92915050565b600060208284031215611b1d57611b1c61183f565b5b6000611b2b84828501611af2565b91505092915050565b6000819050919050565b611b4781611b34565b8114611b5257600080fd5b50565b600081359050611b6481611b3e565b92915050565b600080600060608486031215611b8357611b8261183f565b5b6000611b9186828701611a47565b9350506020611ba286828701611b55565b9250506040611bb386828701611a47565b9150509250925092565b611bc681611a1e565b82525050565b611bd581611b34565b82525050565b611be481611ac9565b82525050565b7f4e487b7100000000000000000000000000000000000000000000000000000000600052602160045260246000fd5b60188110611c2a57611c29611bea565b5b50565b6000819050611c3b82611c19565b919050565b6000611c4b82611c2d565b9050919050565b611c5b81611c40565b82525050565b611c6a81611904565b82525050565b600081519050919050565b600082825260208201905092915050565b6000819050602082019050919050565b604082016000820151611cb26000850182611bcc565b506020820151611cc56020850182611bdb565b50505050565b6000611cd78383611c9c565b60408301905092915050565b6000602082019050919050565b6000611cfb82611c70565b611d058185611c7b565b9350611d1083611c8c565b8060005b83811015611d41578151611d288882611ccb565b9750611d3383611ce3565b925050600181019050611d14565b5085935050505092915050565b600081519050919050565b600082825260208201905092915050565b60005b83811015611d88578082015181840152602081019050611d6d565b83811115611d97576000848401525b50505050565b6000601f19601f8301169050919050565b6000611db982611d4e565b611dc38185611d59565b9350611dd3818560208601611d6a565b611ddc81611d9d565b840191505092915050565b600061024083016000830151611e006000860182611bbd565b506020830151611e136020860182611bcc565b506040830151611e266040860182611bcc565b506060830151611e396060860182611bdb565b506080830151611e4c6080860182611bbd565b5060a0830151611e5f60a0860182611bbd565b5060c0830151611e7260c0860182611bcc565b5060e0830151611e8560e0860182611bcc565b50610100830151611e9a610100860182611c52565b50610120830151611eaf610120860182611bcc565b50610140830151611ec4610140860182611bcc565b50610160830151611ed9610160860182611c61565b50610180830151611eee610180860182611bcc565b506101a0830151611f036101a0860182611c61565b506101c0830151611f186101c0860182611c61565b506101e0830151611f2d6101e0860182611bcc565b50610200830151848203610200860152611f478282611cf0565b915050610220830151848203610220860152611f638282611dae565b9150508091505092915050565b611f7981611b34565b82525050565b611f8881611a1e565b82525050565b60006060820190508181036000830152611fa88186611de7565b9050611fb76020830185611f70565b611fc46040830184611f7f565b949350505050565b600060208284031215611fe257611fe161183f565b5b6000611ff084828501611b55565b91505092915050565b600080fd5b600080fd5b600080fd5b6000823560016102400383360303811261202557612024611ff9565b5b80830191505092915050565b6018811061203e57600080fd5b50565b60008135905061205081612031565b92915050565b60006020828403121561206c5761206b61183f565b5b600061207a84828501612041565b91505092915050565b600080833560016020038436030381126120a05761209f611ff9565b5b80840192508235915067ffffffffffffffff8211156120c2576120c1611ffe565b5b6020830192506040820236038313156120de576120dd612003565b5b509250929050565b7f4e487b7100000000000000000000000000000000000000000000000000000000600052603260045260246000fd5b7f4e487b7100000000000000000000000000000000000000000000000000000000600052601160045260246000fd5b600061214f82611b34565b91507fffffffffffffffffffffffffffffffffffffffffffffffffffffffffffffffff820361218157612180612115565b5b600182019050919050565b600080833560016020038436030381126121a9576121a8611ff9565b5b80840192508235915067ffffffffffffffff8211156121cb576121ca611ffe565b5b6020830192506001820236038313156121e7576121e6612003565b5b509250929050565b600082825260208201905092915050565b7f416363657373436f6e74726f6c3a2063616e206f6e6c792072656e6f756e636560008201527f20726f6c657320666f722073656c660000000000000000000000000000000000602082015250565b600061225c602f836121ef565b915061226782612200565b604082019050919050565b6000602082019050818103600083015261228b8161224f565b9050919050565b600081905092915050565b50565b60006122ad600083612292565b91506122b88261229d565b600082019050919050565b60006122ce826122a0565b9150819050919050565b7f4574686572207472616e73666572206661696c65642e00000000000000000000600082015250565b600061230e6016836121ef565b9150612319826122d8565b602082019050919050565b6000602082019050818103600083015261233d81612301565b9050919050565b60006020820190506123596000830184611f70565b92915050565b60008151905061236e81611a30565b92915050565b60006020828403121561238a5761238961183f565b5b60006123988482850161235f565b91505092915050565b7f436f6e747261637420646f6573206e6f74206f776e20746865204e4654000000600082015250565b60006123d7601d836121ef565b91506123e2826123a1565b602082019050919050565b60006020820190508181036000830152612406816123ca565b9050919050565b60006060820190506124226000830186611f7f565b61242f6020830185611f7f565b61243c6040830184611f70565b949350505050565b60008160001c9050919050565b600073ffffffffffffffffffffffffffffffffffffffff82169050919050565b600061248461247f83612444565b612451565b9050919050565b6000819050919050565b60006124a86124a383612444565b61248b565b9050919050565b600073ffffffffffffffffffffffffffffffffffffffff82169050919050565b60006124e26124dd83612444565b6124af565b9050919050565b600060ff82169050919050565b600061250961250483612444565b6124e9565b9050919050565b6000819050919050565b600061252d61252883612444565b612510565b9050919050565b600081549050919050565b60008190508160005260206000209050919050565b60408201600080830154905061256981612495565b6125766000860182611bcc565b5060018301549050612587816124cf565b6125946020860182611bdb565b5050505050565b60006125a78383612554565b60408301905092915050565b6000600282019050919050565b60006125cb82612534565b6125d58185611c7b565b93506125e08361253f565b8060005b8381101561261057816125f7888261259b565b9750612602836125b3565b9250506001810190506125e4565b5085935050505092915050565b7f4e487b7100000000000000000000000000000000000000000000000000000000600052602260045260246000fd5b6000600282049050600182168061266457607f821691505b6020821081036126775761267661261d565b5b50919050565b60008190508160005260206000209050919050565b6000815461269f8161264c565b6126a98186611d59565b945060018216600081146126c457600181146126d657612709565b60ff1983168652602086019350612709565b6126df8561267d565b60005b83811015612701578154818901526001820191506020810190506126e2565b808801955050505b50505092915050565b60006102408301600080840154905061272a81612471565b6127376000870182611bbd565b506001840154905061274881612495565b6127556020870182611bcc565b506002840154905061276681612495565b6127736040870182611bcc565b5060038401549050612784816124cf565b6127916060870182611bdb565b50600484015490506127a281612471565b6127af6080870182611bbd565b50600584015490506127c081612471565b6127cd60a0870182611bbd565b50600684015490506127de81612495565b6127eb60c0870182611bcc565b50600784015490506127fc81612495565b61280960e0870182611bcc565b506008840154905061281a816124f6565b612828610100870182611c52565b506009840154905061283981612495565b612847610120870182611bcc565b50600a840154905061285881612495565b612866610140870182611bcc565b50600b84015490506128778161251a565b612885610160870182611c61565b50600c840154905061289681612495565b6128a4610180870182611bcc565b50600d84015490506128b58161251a565b6128c36101a0870182611c61565b50600e84015490506128d48161251a565b6128e26101c0870182611c61565b50600f84015490506128f381612495565b6129016101e0870182611bcc565b506010840185830361020087015261291983826125c0565b925050601184018583036102208701526129338382612692565b925050819250505092915050565b6000602082019050818103600083015261295b8184612712565b905092915050565b600061296e82611d4e565b6129788185612292565b9350612988818560208601611d6a565b80840191505092915050565b60006129a08284612963565b915081905092915050565b7f5075726368617365204661696c65640000000000000000000000000000000000600082015250565b60006129e1600f836121ef565b91506129ec826129ab565b602082019050919050565b60006020820190508181036000830152612a10816129d4565b9050919050565b600081905092915050565b7f416363657373436f6e74726f6c3a206163636f756e7420000000000000000000600082015250565b6000612a58601783612a17565b9150612a6382612a22565b601782019050919050565b600081519050919050565b6000612a8482612a6e565b612a8e8185612a17565b9350612a9e818560208601611d6a565b80840191505092915050565b7f206973206d697373696e6720726f6c6520000000000000000000000000000000600082015250565b6000612ae0601183612a17565b9150612aeb82612aaa565b601182019050919050565b6000612b0182612a4b565b9150612b0d8285612a79565b9150612b1882612ad3565b9150612b248284612a79565b91508190509392505050565b6000612b3b82612a6e565b612b4581856121ef565b9350612b55818560208601611d6a565b612b5e81611d9d565b840191505092915050565b60006020820190508181036000830152612b838184612b30565b905092915050565b6000612b9682611b34565b9150612ba183611b34565b9250817fffffffffffffffffffffffffffffffffffffffffffffffffffffffffffffffff0483118215151615612bda57612bd9612115565b5b828202905092915050565b6000612bf082611b34565b9150612bfb83611b34565b9250827fffffffffffffffffffffffffffffffffffffffffffffffffffffffffffffffff03821115612c3057612c2f612115565b5b828201905092915050565b7f4e487b7100000000000000000000000000000000000000000000000000000000600052604160045260246000fd5b6000612c7582611b34565b915060008203612c8857612c87612115565b5b600182039050919050565b7f537472696e67733a20686578206c656e67746820696e73756666696369656e74600082015250565b6000612cc96020836121ef565b9150612cd482612c93565b602082019050919050565b60006020820190508181036000830152612cf881612cbc565b905091905056fea26469706673582212201dca428979b5d2f60ba93d05d4367428a9cd7713159b09c887e9c655d79fc2c964736f6c634300080d0033",
  "linkReferences": {},
  "deployedLinkReferences": {}
}