{
  "_format": "hh-sol-artifact-1",
  "contractName": "MarketWrapper",
  "sourceName": "contracts/main/MarketWrapper.sol",
  "abi": [
    {
      "inputs": [],
      "stateMutability": "nonpayable",
      "type": "constructor"
    },
    {
      "anonymous": false,
      "inputs": [
        {
          "indexed": true,
          "internalType": "bytes32",
          "name": "role",
          "type": "bytes32"
        },
        {
          "indexed": true,
          "internalType": "bytes32",
          "name": "previousAdminRole",
          "type": "bytes32"
        },
        {
          "indexed": true,
          "internalType": "bytes32",
          "name": "newAdminRole",
          "type": "bytes32"
        }
      ],
      "name": "RoleAdminChanged",
      "type": "event"
    },
    {
      "anonymous": false,
      "inputs": [
        {
          "indexed": true,
          "internalType": "bytes32",
          "name": "role",
          "type": "bytes32"
        },
        {
          "indexed": true,
          "internalType": "address",
          "name": "account",
          "type": "address"
        },
        {
          "indexed": true,
          "internalType": "address",
          "name": "sender",
          "type": "address"
        }
      ],
      "name": "RoleGranted",
      "type": "event"
    },
    {
      "anonymous": false,
      "inputs": [
        {
          "indexed": true,
          "internalType": "bytes32",
          "name": "role",
          "type": "bytes32"
        },
        {
          "indexed": true,
          "internalType": "address",
          "name": "account",
          "type": "address"
        },
        {
          "indexed": true,
          "internalType": "address",
          "name": "sender",
          "type": "address"
        }
      ],
      "name": "RoleRevoked",
      "type": "event"
    },
    {
      "stateMutability": "payable",
      "type": "fallback"
    },
    {
      "inputs": [],
      "name": "DEFAULT_ADMIN_ROLE",
      "outputs": [
        {
          "internalType": "bytes32",
          "name": "",
          "type": "bytes32"
        }
      ],
      "stateMutability": "view",
      "type": "function"
    },
    {
      "inputs": [],
      "name": "buyNow",
      "outputs": [],
      "stateMutability": "payable",
      "type": "function"
    },
    {
      "inputs": [
        {
          "internalType": "address payable",
          "name": "to",
          "type": "address"
        }
      ],
      "name": "emergencyWithdrawal",
      "outputs": [],
      "stateMutability": "payable",
      "type": "function"
    },
    {
      "inputs": [],
      "name": "getBuyNowPrice",
      "outputs": [
        {
          "internalType": "uint256",
          "name": "",
          "type": "uint256"
        }
      ],
      "stateMutability": "nonpayable",
      "type": "function"
    },
    {
      "inputs": [
        {
          "internalType": "bytes32",
          "name": "role",
          "type": "bytes32"
        }
      ],
      "name": "getRoleAdmin",
      "outputs": [
        {
          "internalType": "bytes32",
          "name": "",
          "type": "bytes32"
        }
      ],
      "stateMutability": "view",
      "type": "function"
    },
    {
      "inputs": [
        {
          "internalType": "address",
          "name": "to",
          "type": "address"
        }
      ],
      "name": "grantOwnerRole",
      "outputs": [],
      "stateMutability": "nonpayable",
      "type": "function"
    },
    {
      "inputs": [
        {
          "internalType": "bytes32",
          "name": "role",
          "type": "bytes32"
        },
        {
          "internalType": "address",
          "name": "account",
          "type": "address"
        }
      ],
      "name": "grantRole",
      "outputs": [],
      "stateMutability": "nonpayable",
      "type": "function"
    },
    {
      "inputs": [
        {
          "internalType": "bytes32",
          "name": "role",
          "type": "bytes32"
        },
        {
          "internalType": "address",
          "name": "account",
          "type": "address"
        }
      ],
      "name": "hasRole",
      "outputs": [
        {
          "internalType": "bool",
          "name": "",
          "type": "bool"
        }
      ],
      "stateMutability": "view",
      "type": "function"
    },
    {
      "inputs": [],
      "name": "migration",
      "outputs": [],
      "stateMutability": "nonpayable",
      "type": "function"
    },
    {
      "inputs": [
        {
          "internalType": "bytes32",
          "name": "role",
          "type": "bytes32"
        },
        {
          "internalType": "address",
          "name": "account",
          "type": "address"
        }
      ],
      "name": "renounceRole",
      "outputs": [],
      "stateMutability": "nonpayable",
      "type": "function"
    },
    {
      "inputs": [
        {
          "internalType": "bytes32",
          "name": "role",
          "type": "bytes32"
        },
        {
          "internalType": "address",
          "name": "account",
          "type": "address"
        }
      ],
      "name": "revokeRole",
      "outputs": [],
      "stateMutability": "nonpayable",
      "type": "function"
    },
    {
      "inputs": [
        {
          "internalType": "bytes4",
          "name": "interfaceId",
          "type": "bytes4"
        }
      ],
      "name": "supportsInterface",
      "outputs": [
        {
          "internalType": "bool",
          "name": "",
          "type": "bool"
        }
      ],
      "stateMutability": "view",
      "type": "function"
    },
    {
      "stateMutability": "payable",
      "type": "receive"
    }
  ],
  "bytecode": "0x608060405234801561001057600080fd5b506100246000801b3361002960201b60201c565b610187565b610039828261011560201b60201c565b61011157600160008084815260200190815260200160002060000160008373ffffffffffffffffffffffffffffffffffffffff1673ffffffffffffffffffffffffffffffffffffffff16815260200190815260200160002060006101000a81548160ff0219169083151502179055506100b661017f60201b60201c565b73ffffffffffffffffffffffffffffffffffffffff168173ffffffffffffffffffffffffffffffffffffffff16837f2f8788117e7eff1d82e926ec794901d17c78024a50270940304540a733656f0d60405160405180910390a45b5050565b600080600084815260200190815260200160002060000160008373ffffffffffffffffffffffffffffffffffffffff1673ffffffffffffffffffffffffffffffffffffffff16815260200190815260200160002060009054906101000a900460ff16905092915050565b600033905090565b611255806101966000396000f3fe6080604052600436106100ab5760003560e01c80636e353a1d116100645780636e353a1d146101c057806391d14854146101dc5780639c3962f014610219578063a217fddf14610223578063a55870881461024e578063d547741f14610279576100b2565b806301ffc9a7146100b45780631705a3bd146100f1578063248a9ca3146101085780632f2ff15d1461014557806336568abe1461016e578063397a8bab14610197576100b2565b366100b257005b005b3480156100c057600080fd5b506100db60048036038101906100d69190610ae5565b6102a2565b6040516100e89190610b2d565b60405180910390f35b3480156100fd57600080fd5b5061010661031c565b005b34801561011457600080fd5b5061012f600480360381019061012a9190610b7e565b61031e565b60405161013c9190610bba565b60405180910390f35b34801561015157600080fd5b5061016c60048036038101906101679190610c33565b61033d565b005b34801561017a57600080fd5b5061019560048036038101906101909190610c33565b61035e565b005b3480156101a357600080fd5b506101be60048036038101906101b99190610c73565b6103e1565b005b6101da60048036038101906101d59190610cde565b6103ff565b005b3480156101e857600080fd5b5061020360048036038101906101fe9190610c33565b6104bd565b6040516102109190610b2d565b60405180910390f35b610221610527565b005b34801561022f57600080fd5b50610238610537565b6040516102459190610bba565b60405180910390f35b34801561025a57600080fd5b5061026361053e565b6040516102709190610d24565b60405180910390f35b34801561028557600080fd5b506102a0600480360381019061029b9190610c33565b610547565b005b60007f7965db0b000000000000000000000000000000000000000000000000000000007bffffffffffffffffffffffffffffffffffffffffffffffffffffffff1916827bffffffffffffffffffffffffffffffffffffffffffffffffffffffff19161480610315575061031482610568565b5b9050919050565b565b6000806000838152602001908152602001600020600101549050919050565b6103468261031e565b61034f816105d2565b61035983836105e6565b505050565b6103666106c6565b73ffffffffffffffffffffffffffffffffffffffff168173ffffffffffffffffffffffffffffffffffffffff16146103d3576040517f08c379a00000000000000000000000000000000000000000000000000000000081526004016103ca90610dc2565b60405180910390fd5b6103dd82826106ce565b5050565b6000801b6103ee816105d2565b6103fb6000801b836105e6565b5050565b6000801b61040c816105d2565b60008273ffffffffffffffffffffffffffffffffffffffff164760405161043290610e13565b60006040518083038185875af1925050503d806000811461046f576040519150601f19603f3d011682016040523d82523d6000602084013e610474565b606091505b50509050806104b8576040517f08c379a00000000000000000000000000000000000000000000000000000000081526004016104af90610e74565b60405180910390fd5b505050565b600080600084815260200190815260200160002060000160008373ffffffffffffffffffffffffffffffffffffffff1673ffffffffffffffffffffffffffffffffffffffff16815260200190815260200160002060009054906101000a900460ff16905092915050565b6000801b610534816105d2565b50565b6000801b81565b60006038905090565b6105508261031e565b610559816105d2565b61056383836106ce565b505050565b60007f01ffc9a7000000000000000000000000000000000000000000000000000000007bffffffffffffffffffffffffffffffffffffffffffffffffffffffff1916827bffffffffffffffffffffffffffffffffffffffffffffffffffffffff1916149050919050565b6105e3816105de6106c6565b6107af565b50565b6105f082826104bd565b6106c257600160008084815260200190815260200160002060000160008373ffffffffffffffffffffffffffffffffffffffff1673ffffffffffffffffffffffffffffffffffffffff16815260200190815260200160002060006101000a81548160ff0219169083151502179055506106676106c6565b73ffffffffffffffffffffffffffffffffffffffff168173ffffffffffffffffffffffffffffffffffffffff16837f2f8788117e7eff1d82e926ec794901d17c78024a50270940304540a733656f0d60405160405180910390a45b5050565b600033905090565b6106d882826104bd565b156107ab57600080600084815260200190815260200160002060000160008373ffffffffffffffffffffffffffffffffffffffff1673ffffffffffffffffffffffffffffffffffffffff16815260200190815260200160002060006101000a81548160ff0219169083151502179055506107506106c6565b73ffffffffffffffffffffffffffffffffffffffff168173ffffffffffffffffffffffffffffffffffffffff16837ff6391f5c32d9c69d2a47ea670b442974b53935d1edc7fd64eb21e047a839171b60405160405180910390a45b5050565b6107b982826104bd565b610848576107de8173ffffffffffffffffffffffffffffffffffffffff16601461084c565b6107ec8360001c602061084c565b6040516020016107fd929190610fa6565b6040516020818303038152906040526040517f08c379a000000000000000000000000000000000000000000000000000000000815260040161083f919061102a565b60405180910390fd5b5050565b60606000600283600261085f919061107b565b61086991906110d5565b67ffffffffffffffff8111156108825761088161112b565b5b6040519080825280601f01601f1916602001820160405280156108b45781602001600182028036833780820191505090505b5090507f3000000000000000000000000000000000000000000000000000000000000000816000815181106108ec576108eb61115a565b5b60200101907effffffffffffffffffffffffffffffffffffffffffffffffffffffffffffff1916908160001a9053507f7800000000000000000000000000000000000000000000000000000000000000816001815181106109505761094f61115a565b5b60200101907effffffffffffffffffffffffffffffffffffffffffffffffffffffffffffff1916908160001a90535060006001846002610990919061107b565b61099a91906110d5565b90505b6001811115610a3a577f3031323334353637383961626364656600000000000000000000000000000000600f8616601081106109dc576109db61115a565b5b1a60f81b8282815181106109f3576109f261115a565b5b60200101907effffffffffffffffffffffffffffffffffffffffffffffffffffffffffffff1916908160001a905350600485901c945080610a3390611189565b905061099d565b5060008414610a7e576040517f08c379a0000000000000000000000000000000000000000000000000000000008152600401610a75906111ff565b60405180910390fd5b8091505092915050565b600080fd5b60007fffffffff0000000000000000000000000000000000000000000000000000000082169050919050565b610ac281610a8d565b8114610acd57600080fd5b50565b600081359050610adf81610ab9565b92915050565b600060208284031215610afb57610afa610a88565b5b6000610b0984828501610ad0565b91505092915050565b60008115159050919050565b610b2781610b12565b82525050565b6000602082019050610b426000830184610b1e565b92915050565b6000819050919050565b610b5b81610b48565b8114610b6657600080fd5b50565b600081359050610b7881610b52565b92915050565b600060208284031215610b9457610b93610a88565b5b6000610ba284828501610b69565b91505092915050565b610bb481610b48565b82525050565b6000602082019050610bcf6000830184610bab565b92915050565b600073ffffffffffffffffffffffffffffffffffffffff82169050919050565b6000610c0082610bd5565b9050919050565b610c1081610bf5565b8114610c1b57600080fd5b50565b600081359050610c2d81610c07565b92915050565b60008060408385031215610c4a57610c49610a88565b5b6000610c5885828601610b69565b9250506020610c6985828601610c1e565b9150509250929050565b600060208284031215610c8957610c88610a88565b5b6000610c9784828501610c1e565b91505092915050565b6000610cab82610bd5565b9050919050565b610cbb81610ca0565b8114610cc657600080fd5b50565b600081359050610cd881610cb2565b92915050565b600060208284031215610cf457610cf3610a88565b5b6000610d0284828501610cc9565b91505092915050565b6000819050919050565b610d1e81610d0b565b82525050565b6000602082019050610d396000830184610d15565b92915050565b600082825260208201905092915050565b7f416363657373436f6e74726f6c3a2063616e206f6e6c792072656e6f756e636560008201527f20726f6c657320666f722073656c660000000000000000000000000000000000602082015250565b6000610dac602f83610d3f565b9150610db782610d50565b604082019050919050565b60006020820190508181036000830152610ddb81610d9f565b9050919050565b600081905092915050565b50565b6000610dfd600083610de2565b9150610e0882610ded565b600082019050919050565b6000610e1e82610df0565b9150819050919050565b7f4574686572207472616e73666572206661696c65642e00000000000000000000600082015250565b6000610e5e601683610d3f565b9150610e6982610e28565b602082019050919050565b60006020820190508181036000830152610e8d81610e51565b9050919050565b600081905092915050565b7f416363657373436f6e74726f6c3a206163636f756e7420000000000000000000600082015250565b6000610ed5601783610e94565b9150610ee082610e9f565b601782019050919050565b600081519050919050565b60005b83811015610f14578082015181840152602081019050610ef9565b83811115610f23576000848401525b50505050565b6000610f3482610eeb565b610f3e8185610e94565b9350610f4e818560208601610ef6565b80840191505092915050565b7f206973206d697373696e6720726f6c6520000000000000000000000000000000600082015250565b6000610f90601183610e94565b9150610f9b82610f5a565b601182019050919050565b6000610fb182610ec8565b9150610fbd8285610f29565b9150610fc882610f83565b9150610fd48284610f29565b91508190509392505050565b6000601f19601f8301169050919050565b6000610ffc82610eeb565b6110068185610d3f565b9350611016818560208601610ef6565b61101f81610fe0565b840191505092915050565b600060208201905081810360008301526110448184610ff1565b905092915050565b7f4e487b7100000000000000000000000000000000000000000000000000000000600052601160045260246000fd5b600061108682610d0b565b915061109183610d0b565b9250817fffffffffffffffffffffffffffffffffffffffffffffffffffffffffffffffff04831182151516156110ca576110c961104c565b5b828202905092915050565b60006110e082610d0b565b91506110eb83610d0b565b9250827fffffffffffffffffffffffffffffffffffffffffffffffffffffffffffffffff038211156111205761111f61104c565b5b828201905092915050565b7f4e487b7100000000000000000000000000000000000000000000000000000000600052604160045260246000fd5b7f4e487b7100000000000000000000000000000000000000000000000000000000600052603260045260246000fd5b600061119482610d0b565b915060008214156111a8576111a761104c565b5b600182039050919050565b7f537472696e67733a20686578206c656e67746820696e73756666696369656e74600082015250565b60006111e9602083610d3f565b91506111f4826111b3565b602082019050919050565b60006020820190508181036000830152611218816111dc565b905091905056fea2646970667358221220ab4c975ac74fccf4b432b77d8fc37e83dd3e1b8a9580f3fb526fb504d2bcd5c664736f6c63430008090033",
  "linkReferences": {},
  "deployedLinkReferences": {}
}