{
  "_format": "hh-sol-artifact-1",
  "contractName": "MarketWrapper",
  "sourceName": "contracts/main/MarketWrapper.sol",
  "abi": [
    {
      "inputs": [
        {
          "components": [
            {
              "components": [
                {
                  "internalType": "address",
                  "name": "considerationToken",
                  "type": "address"
                },
                {
                  "internalType": "uint256",
                  "name": "considerationIdentifier",
                  "type": "uint256"
                },
                {
                  "internalType": "uint256",
                  "name": "considerationAmount",
                  "type": "uint256"
                },
                {
                  "internalType": "address payable",
                  "name": "offerer",
                  "type": "address"
                },
                {
                  "internalType": "address",
                  "name": "zone",
                  "type": "address"
                },
                {
                  "internalType": "address",
                  "name": "offerToken",
                  "type": "address"
                },
                {
                  "internalType": "uint256",
                  "name": "offerIdentifier",
                  "type": "uint256"
                },
                {
                  "internalType": "uint256",
                  "name": "offerAmount",
                  "type": "uint256"
                },
                {
                  "internalType": "enum BasicOrderType",
                  "name": "basicOrderType",
                  "type": "uint8"
                },
                {
                  "internalType": "uint256",
                  "name": "startTime",
                  "type": "uint256"
                },
                {
                  "internalType": "uint256",
                  "name": "endTime",
                  "type": "uint256"
                },
                {
                  "internalType": "bytes32",
                  "name": "zoneHash",
                  "type": "bytes32"
                },
                {
                  "internalType": "uint256",
                  "name": "salt",
                  "type": "uint256"
                },
                {
                  "internalType": "bytes32",
                  "name": "offererConduitKey",
                  "type": "bytes32"
                },
                {
                  "internalType": "bytes32",
                  "name": "fulfillerConduitKey",
                  "type": "bytes32"
                },
                {
                  "internalType": "uint256",
                  "name": "totalOriginalAdditionalRecipients",
                  "type": "uint256"
                },
                {
                  "components": [
                    {
                      "internalType": "uint256",
                      "name": "amount",
                      "type": "uint256"
                    },
                    {
                      "internalType": "address payable",
                      "name": "recipient",
                      "type": "address"
                    }
                  ],
                  "internalType": "struct AdditionalRecipient[]",
                  "name": "additionalRecipients",
                  "type": "tuple[]"
                },
                {
                  "internalType": "bytes",
                  "name": "signature",
                  "type": "bytes"
                }
              ],
              "internalType": "struct BasicOrderParameters",
              "name": "orderParams",
              "type": "tuple"
            },
            {
              "internalType": "uint256",
              "name": "buyNowPrice",
              "type": "uint256"
            },
            {
              "internalType": "address",
              "name": "marketPlace",
              "type": "address"
            }
          ],
          "internalType": "struct MarketWrapperConstructorParameters",
          "name": "_params",
          "type": "tuple"
        }
      ],
      "stateMutability": "nonpayable",
      "type": "constructor"
    },
    {
      "anonymous": false,
      "inputs": [
        {
          "indexed": false,
          "internalType": "bool",
          "name": "success",
          "type": "bool"
        }
      ],
      "name": "Purchased",
      "type": "event"
    },
    {
      "anonymous": false,
      "inputs": [
        {
          "indexed": true,
          "internalType": "bytes32",
          "name": "role",
          "type": "bytes32"
        },
        {
          "indexed": true,
          "internalType": "bytes32",
          "name": "previousAdminRole",
          "type": "bytes32"
        },
        {
          "indexed": true,
          "internalType": "bytes32",
          "name": "newAdminRole",
          "type": "bytes32"
        }
      ],
      "name": "RoleAdminChanged",
      "type": "event"
    },
    {
      "anonymous": false,
      "inputs": [
        {
          "indexed": true,
          "internalType": "bytes32",
          "name": "role",
          "type": "bytes32"
        },
        {
          "indexed": true,
          "internalType": "address",
          "name": "account",
          "type": "address"
        },
        {
          "indexed": true,
          "internalType": "address",
          "name": "sender",
          "type": "address"
        }
      ],
      "name": "RoleGranted",
      "type": "event"
    },
    {
      "anonymous": false,
      "inputs": [
        {
          "indexed": true,
          "internalType": "bytes32",
          "name": "role",
          "type": "bytes32"
        },
        {
          "indexed": true,
          "internalType": "address",
          "name": "account",
          "type": "address"
        },
        {
          "indexed": true,
          "internalType": "address",
          "name": "sender",
          "type": "address"
        }
      ],
      "name": "RoleRevoked",
      "type": "event"
    },
    {
      "stateMutability": "payable",
      "type": "fallback"
    },
    {
      "inputs": [],
      "name": "DEFAULT_ADMIN_ROLE",
      "outputs": [
        {
          "internalType": "bytes32",
          "name": "",
          "type": "bytes32"
        }
      ],
      "stateMutability": "view",
      "type": "function"
    },
    {
      "inputs": [],
      "name": "buyNow",
      "outputs": [
        {
          "internalType": "bool",
          "name": "",
          "type": "bool"
        }
      ],
      "stateMutability": "nonpayable",
      "type": "function"
    },
    {
      "inputs": [
        {
          "internalType": "address payable",
          "name": "to",
          "type": "address"
        }
      ],
      "name": "emergencyWithdrawal",
      "outputs": [],
      "stateMutability": "payable",
      "type": "function"
    },
    {
      "inputs": [
        {
          "internalType": "bytes32",
          "name": "role",
          "type": "bytes32"
        }
      ],
      "name": "getRoleAdmin",
      "outputs": [
        {
          "internalType": "bytes32",
          "name": "",
          "type": "bytes32"
        }
      ],
      "stateMutability": "view",
      "type": "function"
    },
    {
      "inputs": [
        {
          "internalType": "address",
          "name": "to",
          "type": "address"
        }
      ],
      "name": "grantOwnerRole",
      "outputs": [],
      "stateMutability": "nonpayable",
      "type": "function"
    },
    {
      "inputs": [
        {
          "internalType": "bytes32",
          "name": "role",
          "type": "bytes32"
        },
        {
          "internalType": "address",
          "name": "account",
          "type": "address"
        }
      ],
      "name": "grantRole",
      "outputs": [],
      "stateMutability": "nonpayable",
      "type": "function"
    },
    {
      "inputs": [
        {
          "internalType": "bytes32",
          "name": "role",
          "type": "bytes32"
        },
        {
          "internalType": "address",
          "name": "account",
          "type": "address"
        }
      ],
      "name": "hasRole",
      "outputs": [
        {
          "internalType": "bool",
          "name": "",
          "type": "bool"
        }
      ],
      "stateMutability": "view",
      "type": "function"
    },
    {
      "inputs": [
        {
          "components": [
            {
              "components": [
                {
                  "internalType": "address",
                  "name": "considerationToken",
                  "type": "address"
                },
                {
                  "internalType": "uint256",
                  "name": "considerationIdentifier",
                  "type": "uint256"
                },
                {
                  "internalType": "uint256",
                  "name": "considerationAmount",
                  "type": "uint256"
                },
                {
                  "internalType": "address payable",
                  "name": "offerer",
                  "type": "address"
                },
                {
                  "internalType": "address",
                  "name": "zone",
                  "type": "address"
                },
                {
                  "internalType": "address",
                  "name": "offerToken",
                  "type": "address"
                },
                {
                  "internalType": "uint256",
                  "name": "offerIdentifier",
                  "type": "uint256"
                },
                {
                  "internalType": "uint256",
                  "name": "offerAmount",
                  "type": "uint256"
                },
                {
                  "internalType": "enum BasicOrderType",
                  "name": "basicOrderType",
                  "type": "uint8"
                },
                {
                  "internalType": "uint256",
                  "name": "startTime",
                  "type": "uint256"
                },
                {
                  "internalType": "uint256",
                  "name": "endTime",
                  "type": "uint256"
                },
                {
                  "internalType": "bytes32",
                  "name": "zoneHash",
                  "type": "bytes32"
                },
                {
                  "internalType": "uint256",
                  "name": "salt",
                  "type": "uint256"
                },
                {
                  "internalType": "bytes32",
                  "name": "offererConduitKey",
                  "type": "bytes32"
                },
                {
                  "internalType": "bytes32",
                  "name": "fulfillerConduitKey",
                  "type": "bytes32"
                },
                {
                  "internalType": "uint256",
                  "name": "totalOriginalAdditionalRecipients",
                  "type": "uint256"
                },
                {
                  "components": [
                    {
                      "internalType": "uint256",
                      "name": "amount",
                      "type": "uint256"
                    },
                    {
                      "internalType": "address payable",
                      "name": "recipient",
                      "type": "address"
                    }
                  ],
                  "internalType": "struct AdditionalRecipient[]",
                  "name": "additionalRecipients",
                  "type": "tuple[]"
                },
                {
                  "internalType": "bytes",
                  "name": "signature",
                  "type": "bytes"
                }
              ],
              "internalType": "struct BasicOrderParameters",
              "name": "orderParams",
              "type": "tuple"
            },
            {
              "internalType": "uint256",
              "name": "buyNowPrice",
              "type": "uint256"
            },
            {
              "internalType": "address",
              "name": "marketPlace",
              "type": "address"
            }
          ],
          "internalType": "struct MarketWrapperConstructorParameters",
          "name": "_params",
          "type": "tuple"
        }
      ],
      "name": "migration",
      "outputs": [],
      "stateMutability": "nonpayable",
      "type": "function"
    },
    {
      "inputs": [],
      "name": "params",
      "outputs": [
        {
          "components": [
            {
              "internalType": "address",
              "name": "considerationToken",
              "type": "address"
            },
            {
              "internalType": "uint256",
              "name": "considerationIdentifier",
              "type": "uint256"
            },
            {
              "internalType": "uint256",
              "name": "considerationAmount",
              "type": "uint256"
            },
            {
              "internalType": "address payable",
              "name": "offerer",
              "type": "address"
            },
            {
              "internalType": "address",
              "name": "zone",
              "type": "address"
            },
            {
              "internalType": "address",
              "name": "offerToken",
              "type": "address"
            },
            {
              "internalType": "uint256",
              "name": "offerIdentifier",
              "type": "uint256"
            },
            {
              "internalType": "uint256",
              "name": "offerAmount",
              "type": "uint256"
            },
            {
              "internalType": "enum BasicOrderType",
              "name": "basicOrderType",
              "type": "uint8"
            },
            {
              "internalType": "uint256",
              "name": "startTime",
              "type": "uint256"
            },
            {
              "internalType": "uint256",
              "name": "endTime",
              "type": "uint256"
            },
            {
              "internalType": "bytes32",
              "name": "zoneHash",
              "type": "bytes32"
            },
            {
              "internalType": "uint256",
              "name": "salt",
              "type": "uint256"
            },
            {
              "internalType": "bytes32",
              "name": "offererConduitKey",
              "type": "bytes32"
            },
            {
              "internalType": "bytes32",
              "name": "fulfillerConduitKey",
              "type": "bytes32"
            },
            {
              "internalType": "uint256",
              "name": "totalOriginalAdditionalRecipients",
              "type": "uint256"
            },
            {
              "components": [
                {
                  "internalType": "uint256",
                  "name": "amount",
                  "type": "uint256"
                },
                {
                  "internalType": "address payable",
                  "name": "recipient",
                  "type": "address"
                }
              ],
              "internalType": "struct AdditionalRecipient[]",
              "name": "additionalRecipients",
              "type": "tuple[]"
            },
            {
              "internalType": "bytes",
              "name": "signature",
              "type": "bytes"
            }
          ],
          "internalType": "struct BasicOrderParameters",
          "name": "orderParams",
          "type": "tuple"
        },
        {
          "internalType": "uint256",
          "name": "buyNowPrice",
          "type": "uint256"
        },
        {
          "internalType": "address",
          "name": "marketPlace",
          "type": "address"
        }
      ],
      "stateMutability": "view",
      "type": "function"
    },
    {
      "inputs": [
        {
          "internalType": "bytes32",
          "name": "role",
          "type": "bytes32"
        },
        {
          "internalType": "address",
          "name": "account",
          "type": "address"
        }
      ],
      "name": "renounceRole",
      "outputs": [],
      "stateMutability": "nonpayable",
      "type": "function"
    },
    {
      "inputs": [
        {
          "internalType": "bytes32",
          "name": "role",
          "type": "bytes32"
        },
        {
          "internalType": "address",
          "name": "account",
          "type": "address"
        }
      ],
      "name": "revokeRole",
      "outputs": [],
      "stateMutability": "nonpayable",
      "type": "function"
    },
    {
      "inputs": [
        {
          "internalType": "bytes4",
          "name": "interfaceId",
          "type": "bytes4"
        }
      ],
      "name": "supportsInterface",
      "outputs": [
        {
          "internalType": "bool",
          "name": "",
          "type": "bool"
        }
      ],
      "stateMutability": "view",
      "type": "function"
    },
    {
      "stateMutability": "payable",
      "type": "receive"
    }
  ],
  "bytecode": "0x60806040523480156200001157600080fd5b506040516200386d3803806200386d833981810160405281019062000037919062000d44565b6200004c6000801b336200047360201b60201c565b80602001516001601201819055508060400151600160130160006101000a81548173ffffffffffffffffffffffffffffffffffffffff021916908373ffffffffffffffffffffffffffffffffffffffff160217905550806000015160000151600160000160000160006101000a81548173ffffffffffffffffffffffffffffffffffffffff021916908373ffffffffffffffffffffffffffffffffffffffff160217905550806000015160200151600160000160010181905550806000015160400151600160000160020181905550806000015160600151600160000160030160006101000a81548173ffffffffffffffffffffffffffffffffffffffff021916908373ffffffffffffffffffffffffffffffffffffffff160217905550806000015160800151600160000160040160006101000a81548173ffffffffffffffffffffffffffffffffffffffff021916908373ffffffffffffffffffffffffffffffffffffffff160217905550806000015160a00151600160000160050160006101000a81548173ffffffffffffffffffffffffffffffffffffffff021916908373ffffffffffffffffffffffffffffffffffffffff160217905550806000015160c00151600160000160060181905550806000015160e0015160016000016007018190555080600001516101000151600160000160080160006101000a81548160ff0219169083601781111562000269576200026862000d95565b5b021790555080600001516101200151600160000160090181905550806000015161014001516001600001600a0181905550806000015161016001516001600001600b0181905550806000015161018001516001600001600c018190555080600001516101a001516001600001600d018190555080600001516101c001516001600001600e018190555080600001516101e001516001600001600f018190555060005b8160000151610200015151811015620004435760008260000151610200015182815181106200033f576200033e62000dc4565b5b602002602001015160000151905060008360000151610200015183815181106200036e576200036d62000dc4565b5b6020026020010151602001519050600160000160100160405180604001604052808481526020018373ffffffffffffffffffffffffffffffffffffffff1681525090806001815401808255809150506001900390600052602060002090600202016000909190919091506000820151816000015560208201518160010160006101000a81548173ffffffffffffffffffffffffffffffffffffffff021916908373ffffffffffffffffffffffffffffffffffffffff1602179055505050505080806200043a9062000e22565b9150506200030b565b5080600001516102200151600160000160110190805190602001906200046b929190620005d6565b505062000ed3565b6200048582826200056460201b60201c565b6200056057600160008084815260200190815260200160002060000160008373ffffffffffffffffffffffffffffffffffffffff1673ffffffffffffffffffffffffffffffffffffffff16815260200190815260200160002060006101000a81548160ff02191690831515021790555062000505620005ce60201b60201c565b73ffffffffffffffffffffffffffffffffffffffff168173ffffffffffffffffffffffffffffffffffffffff16837f2f8788117e7eff1d82e926ec794901d17c78024a50270940304540a733656f0d60405160405180910390a45b5050565b600080600084815260200190815260200160002060000160008373ffffffffffffffffffffffffffffffffffffffff1673ffffffffffffffffffffffffffffffffffffffff16815260200190815260200160002060009054906101000a900460ff16905092915050565b600033905090565b828054620005e49062000e9e565b90600052602060002090601f01602090048101928262000608576000855562000654565b82601f106200062357805160ff191683800117855562000654565b8280016001018555821562000654579182015b828111156200065357825182559160200191906001019062000636565b5b50905062000663919062000667565b5090565b5b808211156200068257600081600090555060010162000668565b5090565b6000604051905090565b600080fd5b600080fd5b600080fd5b6000601f19601f8301169050919050565b7f4e487b7100000000000000000000000000000000000000000000000000000000600052604160045260246000fd5b620006ea826200069f565b810181811067ffffffffffffffff821117156200070c576200070b620006b0565b5b80604052505050565b60006200072162000686565b90506200072f8282620006df565b919050565b600080fd5b600073ffffffffffffffffffffffffffffffffffffffff82169050919050565b6000620007668262000739565b9050919050565b620007788162000759565b81146200078457600080fd5b50565b60008151905062000798816200076d565b92915050565b6000819050919050565b620007b3816200079e565b8114620007bf57600080fd5b50565b600081519050620007d381620007a8565b92915050565b6000620007e68262000739565b9050919050565b620007f881620007d9565b81146200080457600080fd5b50565b6000815190506200081881620007ed565b92915050565b601881106200082c57600080fd5b50565b60008151905062000840816200081e565b92915050565b6000819050919050565b6200085b8162000846565b81146200086757600080fd5b50565b6000815190506200087b8162000850565b92915050565b600080fd5b600067ffffffffffffffff821115620008a457620008a3620006b0565b5b602082029050602081019050919050565b600080fd5b600060408284031215620008d357620008d26200069a565b5b620008df604062000715565b90506000620008f184828501620007c2565b6000830152506020620009078482850162000807565b60208301525092915050565b60006200092a620009248462000886565b62000715565b9050808382526020820190506040840283018581111562000950576200094f620008b5565b5b835b818110156200097d5780620009688882620008ba565b84526020840193505060408101905062000952565b5050509392505050565b600082601f8301126200099f576200099e62000881565b5b8151620009b184826020860162000913565b91505092915050565b600080fd5b600067ffffffffffffffff821115620009dd57620009dc620006b0565b5b620009e8826200069f565b9050602081019050919050565b60005b8381101562000a15578082015181840152602081019050620009f8565b8381111562000a25576000848401525b50505050565b600062000a4262000a3c84620009bf565b62000715565b90508281526020810184848401111562000a615762000a60620009ba565b5b62000a6e848285620009f5565b509392505050565b600082601f83011262000a8e5762000a8d62000881565b5b815162000aa084826020860162000a2b565b91505092915050565b6000610240828403121562000ac35762000ac26200069a565b5b62000ad061024062000715565b9050600062000ae28482850162000787565b600083015250602062000af884828501620007c2565b602083015250604062000b0e84828501620007c2565b604083015250606062000b248482850162000807565b606083015250608062000b3a8482850162000787565b60808301525060a062000b508482850162000787565b60a08301525060c062000b6684828501620007c2565b60c08301525060e062000b7c84828501620007c2565b60e08301525061010062000b93848285016200082f565b6101008301525061012062000bab84828501620007c2565b6101208301525061014062000bc384828501620007c2565b6101408301525061016062000bdb848285016200086a565b6101608301525061018062000bf384828501620007c2565b610180830152506101a062000c0b848285016200086a565b6101a0830152506101c062000c23848285016200086a565b6101c0830152506101e062000c3b84828501620007c2565b6101e08301525061020082015167ffffffffffffffff81111562000c645762000c6362000734565b5b62000c728482850162000987565b6102008301525061022082015167ffffffffffffffff81111562000c9b5762000c9a62000734565b5b62000ca98482850162000a76565b6102208301525092915050565b60006060828403121562000ccf5762000cce6200069a565b5b62000cdb606062000715565b9050600082015167ffffffffffffffff81111562000cfe5762000cfd62000734565b5b62000d0c8482850162000aa9565b600083015250602062000d2284828501620007c2565b602083015250604062000d388482850162000787565b60408301525092915050565b60006020828403121562000d5d5762000d5c62000690565b5b600082015167ffffffffffffffff81111562000d7e5762000d7d62000695565b5b62000d8c8482850162000cb6565b91505092915050565b7f4e487b7100000000000000000000000000000000000000000000000000000000600052602160045260246000fd5b7f4e487b7100000000000000000000000000000000000000000000000000000000600052603260045260246000fd5b7f4e487b7100000000000000000000000000000000000000000000000000000000600052601160045260246000fd5b600062000e2f826200079e565b91507fffffffffffffffffffffffffffffffffffffffffffffffffffffffffffffffff820362000e645762000e6362000df3565b5b600182019050919050565b7f4e487b7100000000000000000000000000000000000000000000000000000000600052602260045260246000fd5b6000600282049050600182168062000eb757607f821691505b60208210810362000ecd5762000ecc62000e6f565b5b50919050565b61298a8062000ee36000396000f3fe6080604052600436106100ab5760003560e01c80636e353a1d116100645780636e353a1d146101ec57806391d14854146102085780639c3962f014610245578063a217fddf14610270578063cff0ab961461029b578063d547741f146102c8576100bf565b806301ffc9a7146100ce578063248a9ca31461010b5780632c5a0a13146101485780632f2ff15d1461017157806336568abe1461019a578063397a8bab146101c3576100bf565b366100bf576000801b6100bd816102f1565b005b6000801b6100cc816102f1565b005b3480156100da57600080fd5b506100f560048036038101906100f091906116a2565b610305565b60405161010291906116ea565b60405180910390f35b34801561011757600080fd5b50610132600480360381019061012d919061173b565b61037f565b60405161013f9190611777565b60405180910390f35b34801561015457600080fd5b5061016f600480360381019061016a91906117b6565b61039e565b005b34801561017d57600080fd5b506101986004803603810190610193919061185d565b61091f565b005b3480156101a657600080fd5b506101c160048036038101906101bc919061185d565b610940565b005b3480156101cf57600080fd5b506101ea60048036038101906101e5919061189d565b6109c3565b005b61020660048036038101906102019190611908565b6109e1565b005b34801561021457600080fd5b5061022f600480360381019061022a919061185d565b610a9f565b60405161023c91906116ea565b60405180910390f35b34801561025157600080fd5b5061025a610b09565b60405161026791906116ea565b60405180910390f35b34801561027c57600080fd5b50610285610cd4565b6040516102929190611777565b60405180910390f35b3480156102a757600080fd5b506102b0610cdb565b6040516102bf93929190611d10565b60405180910390f35b3480156102d457600080fd5b506102ef60048036038101906102ea919061185d565b611070565b005b610302816102fd611091565b611099565b50565b60007f7965db0b000000000000000000000000000000000000000000000000000000007bffffffffffffffffffffffffffffffffffffffffffffffffffffffff1916827bffffffffffffffffffffffffffffffffffffffffffffffffffffffff19161480610378575061037782611136565b5b9050919050565b6000806000838152602001908152602001600020600101549050919050565b6000801b6103ab816102f1565b81602001356001601201819055508160400160208101906103cc919061189d565b600160130160006101000a81548173ffffffffffffffffffffffffffffffffffffffff021916908373ffffffffffffffffffffffffffffffffffffffff16021790555081806000019061041f9190611d5d565b6000016020810190610431919061189d565b600160000160000160006101000a81548173ffffffffffffffffffffffffffffffffffffffff021916908373ffffffffffffffffffffffffffffffffffffffff1602179055508180600001906104879190611d5d565b602001356001600001600101819055508180600001906104a79190611d5d565b604001356001600001600201819055508180600001906104c79190611d5d565b60600160208101906104d99190611908565b600160000160030160006101000a81548173ffffffffffffffffffffffffffffffffffffffff021916908373ffffffffffffffffffffffffffffffffffffffff16021790555081806000019061052f9190611d5d565b6080016020810190610541919061189d565b600160000160040160006101000a81548173ffffffffffffffffffffffffffffffffffffffff021916908373ffffffffffffffffffffffffffffffffffffffff1602179055508180600001906105979190611d5d565b60a00160208101906105a9919061189d565b600160000160050160006101000a81548173ffffffffffffffffffffffffffffffffffffffff021916908373ffffffffffffffffffffffffffffffffffffffff1602179055508180600001906105ff9190611d5d565b60c0013560016000016006018190555081806000019061061f9190611d5d565b60e0013560016000016007018190555081806000019061063f9190611d5d565b6101000160208101906106529190611dab565b600160000160080160006101000a81548160ff0219169083601781111561067c5761067b61196c565b5b02179055508180600001906106919190611d5d565b61012001356001600001600901819055508180600001906106b29190611d5d565b61014001356001600001600a01819055508180600001906106d39190611d5d565b61016001356001600001600b01819055508180600001906106f49190611d5d565b61018001356001600001600c01819055508180600001906107159190611d5d565b6101a001356001600001600d01819055508180600001906107369190611d5d565b6101c001356001600001600e01819055508180600001906107579190611d5d565b6101e001356001600001600f018190555060005b82806000019061077b9190611d5d565b80610200019061078b9190611dd8565b90508110156108e45760008380600001906107a69190611d5d565b8061020001906107b69190611dd8565b838181106107c7576107c6611e3b565b5b90506040020160000135905060008480600001906107e59190611d5d565b8061020001906107f59190611dd8565b8481811061080657610805611e3b565b5b905060400201602001602081019061081e9190611908565b9050600160000160100160405180604001604052808481526020018373ffffffffffffffffffffffffffffffffffffffff1681525090806001815401808255809150506001900390600052602060002090600202016000909190919091506000820151816000015560208201518160010160006101000a81548173ffffffffffffffffffffffffffffffffffffffff021916908373ffffffffffffffffffffffffffffffffffffffff1602179055505050505080806108dc90611e99565b91505061076b565b508180600001906108f59190611d5d565b8061022001906109059190611ee1565b6001600001601101919061091a92919061159d565b505050565b6109288261037f565b610931816102f1565b61093b83836111a0565b505050565b610948611091565b73ffffffffffffffffffffffffffffffffffffffff168173ffffffffffffffffffffffffffffffffffffffff16146109b5576040517f08c379a00000000000000000000000000000000000000000000000000000000081526004016109ac90611fc7565b60405180910390fd5b6109bf8282611280565b5050565b6000801b6109d0816102f1565b6109dd6000801b836111a0565b5050565b6000801b6109ee816102f1565b60008273ffffffffffffffffffffffffffffffffffffffff1647604051610a1490612018565b60006040518083038185875af1925050503d8060008114610a51576040519150601f19603f3d011682016040523d82523d6000602084013e610a56565b606091505b5050905080610a9a576040517f08c379a0000000000000000000000000000000000000000000000000000000008152600401610a9190612079565b60405180910390fd5b505050565b600080600084815260200190815260200160002060000160008373ffffffffffffffffffffffffffffffffffffffff1673ffffffffffffffffffffffffffffffffffffffff16815260200190815260200160002060009054906101000a900460ff16905092915050565b60008060001b610b18816102f1565b600160120154471015610b2a57600080fd5b6000600160130160009054906101000a900473ffffffffffffffffffffffffffffffffffffffff1673ffffffffffffffffffffffffffffffffffffffff166001601201546001600001604051602401610b839190612596565b6040516020818303038152906040527ffb0f3ee1000000000000000000000000000000000000000000000000000000007bffffffffffffffffffffffffffffffffffffffffffffffffffffffff19166020820180517bffffffffffffffffffffffffffffffffffffffffffffffffffffffff8381831617835250505050604051610c0d91906125e9565b60006040518083038185875af1925050503d8060008114610c4a576040519150601f19603f3d011682016040523d82523d6000602084013e610c4f565b606091505b5050905080610c93576040517f08c379a0000000000000000000000000000000000000000000000000000000008152600401610c8a9061264c565b60405180910390fd5b7f83e31f5e5651d64b527802681a291e708d9fe310288785b1b816aa293d9b8fc66001604051610cc391906116ea565b60405180910390a160019250505090565b6000801b81565b600180600001604051806102400160405290816000820160009054906101000a900473ffffffffffffffffffffffffffffffffffffffff1673ffffffffffffffffffffffffffffffffffffffff1673ffffffffffffffffffffffffffffffffffffffff16815260200160018201548152602001600282015481526020016003820160009054906101000a900473ffffffffffffffffffffffffffffffffffffffff1673ffffffffffffffffffffffffffffffffffffffff1673ffffffffffffffffffffffffffffffffffffffff1681526020016004820160009054906101000a900473ffffffffffffffffffffffffffffffffffffffff1673ffffffffffffffffffffffffffffffffffffffff1673ffffffffffffffffffffffffffffffffffffffff1681526020016005820160009054906101000a900473ffffffffffffffffffffffffffffffffffffffff1673ffffffffffffffffffffffffffffffffffffffff1673ffffffffffffffffffffffffffffffffffffffff16815260200160068201548152602001600782015481526020016008820160009054906101000a900460ff166017811115610e9257610e9161196c565b5b6017811115610ea457610ea361196c565b5b815260200160098201548152602001600a8201548152602001600b8201548152602001600c8201548152602001600d8201548152602001600e8201548152602001600f820154815260200160108201805480602002602001604051908101604052809291908181526020016000905b82821015610fa55783829060005260206000209060020201604051806040016040529081600082015481526020016001820160009054906101000a900473ffffffffffffffffffffffffffffffffffffffff1673ffffffffffffffffffffffffffffffffffffffff1673ffffffffffffffffffffffffffffffffffffffff168152505081526020019060010190610f13565b505050508152602001601182018054610fbd906122a1565b80601f0160208091040260200160405190810160405280929190818152602001828054610fe9906122a1565b80156110365780601f1061100b57610100808354040283529160200191611036565b820191906000526020600020905b81548152906001019060200180831161101957829003601f168201915b505050505081525050908060120154908060130160009054906101000a900473ffffffffffffffffffffffffffffffffffffffff16905083565b6110798261037f565b611082816102f1565b61108c8383611280565b505050565b600033905090565b6110a38282610a9f565b611132576110c88173ffffffffffffffffffffffffffffffffffffffff166014611361565b6110d68360001c6020611361565b6040516020016110e792919061274b565b6040516020818303038152906040526040517f08c379a000000000000000000000000000000000000000000000000000000000815260040161112991906127be565b60405180910390fd5b5050565b60007f01ffc9a7000000000000000000000000000000000000000000000000000000007bffffffffffffffffffffffffffffffffffffffffffffffffffffffff1916827bffffffffffffffffffffffffffffffffffffffffffffffffffffffff1916149050919050565b6111aa8282610a9f565b61127c57600160008084815260200190815260200160002060000160008373ffffffffffffffffffffffffffffffffffffffff1673ffffffffffffffffffffffffffffffffffffffff16815260200190815260200160002060006101000a81548160ff021916908315150217905550611221611091565b73ffffffffffffffffffffffffffffffffffffffff168173ffffffffffffffffffffffffffffffffffffffff16837f2f8788117e7eff1d82e926ec794901d17c78024a50270940304540a733656f0d60405160405180910390a45b5050565b61128a8282610a9f565b1561135d57600080600084815260200190815260200160002060000160008373ffffffffffffffffffffffffffffffffffffffff1673ffffffffffffffffffffffffffffffffffffffff16815260200190815260200160002060006101000a81548160ff021916908315150217905550611302611091565b73ffffffffffffffffffffffffffffffffffffffff168173ffffffffffffffffffffffffffffffffffffffff16837ff6391f5c32d9c69d2a47ea670b442974b53935d1edc7fd64eb21e047a839171b60405160405180910390a45b5050565b60606000600283600261137491906127e0565b61137e919061283a565b67ffffffffffffffff81111561139757611396612890565b5b6040519080825280601f01601f1916602001820160405280156113c95781602001600182028036833780820191505090505b5090507f30000000000000000000000000000000000000000000000000000000000000008160008151811061140157611400611e3b565b5b60200101907effffffffffffffffffffffffffffffffffffffffffffffffffffffffffffff1916908160001a9053507f78000000000000000000000000000000000000000000000000000000000000008160018151811061146557611464611e3b565b5b60200101907effffffffffffffffffffffffffffffffffffffffffffffffffffffffffffff1916908160001a905350600060018460026114a591906127e0565b6114af919061283a565b90505b600181111561154f577f3031323334353637383961626364656600000000000000000000000000000000600f8616601081106114f1576114f0611e3b565b5b1a60f81b82828151811061150857611507611e3b565b5b60200101907effffffffffffffffffffffffffffffffffffffffffffffffffffffffffffff1916908160001a905350600485901c945080611548906128bf565b90506114b2565b5060008414611593576040517f08c379a000000000000000000000000000000000000000000000000000000000815260040161158a90612934565b60405180910390fd5b8091505092915050565b8280546115a9906122a1565b90600052602060002090601f0160209004810192826115cb5760008555611612565b82601f106115e457803560ff1916838001178555611612565b82800160010185558215611612579182015b828111156116115782358255916020019190600101906115f6565b5b50905061161f9190611623565b5090565b5b8082111561163c576000816000905550600101611624565b5090565b600080fd5b600080fd5b60007fffffffff0000000000000000000000000000000000000000000000000000000082169050919050565b61167f8161164a565b811461168a57600080fd5b50565b60008135905061169c81611676565b92915050565b6000602082840312156116b8576116b7611640565b5b60006116c68482850161168d565b91505092915050565b60008115159050919050565b6116e4816116cf565b82525050565b60006020820190506116ff60008301846116db565b92915050565b6000819050919050565b61171881611705565b811461172357600080fd5b50565b6000813590506117358161170f565b92915050565b60006020828403121561175157611750611640565b5b600061175f84828501611726565b91505092915050565b61177181611705565b82525050565b600060208201905061178c6000830184611768565b92915050565b600080fd5b6000606082840312156117ad576117ac611792565b5b81905092915050565b6000602082840312156117cc576117cb611640565b5b600082013567ffffffffffffffff8111156117ea576117e9611645565b5b6117f684828501611797565b91505092915050565b600073ffffffffffffffffffffffffffffffffffffffff82169050919050565b600061182a826117ff565b9050919050565b61183a8161181f565b811461184557600080fd5b50565b60008135905061185781611831565b92915050565b6000806040838503121561187457611873611640565b5b600061188285828601611726565b925050602061189385828601611848565b9150509250929050565b6000602082840312156118b3576118b2611640565b5b60006118c184828501611848565b91505092915050565b60006118d5826117ff565b9050919050565b6118e5816118ca565b81146118f057600080fd5b50565b600081359050611902816118dc565b92915050565b60006020828403121561191e5761191d611640565b5b600061192c848285016118f3565b91505092915050565b61193e8161181f565b82525050565b6000819050919050565b61195781611944565b82525050565b611966816118ca565b82525050565b7f4e487b7100000000000000000000000000000000000000000000000000000000600052602160045260246000fd5b601881106119ac576119ab61196c565b5b50565b60008190506119bd8261199b565b919050565b60006119cd826119af565b9050919050565b6119dd816119c2565b82525050565b6119ec81611705565b82525050565b600081519050919050565b600082825260208201905092915050565b6000819050602082019050919050565b604082016000820151611a34600085018261194e565b506020820151611a47602085018261195d565b50505050565b6000611a598383611a1e565b60408301905092915050565b6000602082019050919050565b6000611a7d826119f2565b611a8781856119fd565b9350611a9283611a0e565b8060005b83811015611ac3578151611aaa8882611a4d565b9750611ab583611a65565b925050600181019050611a96565b5085935050505092915050565b600081519050919050565b600082825260208201905092915050565b60005b83811015611b0a578082015181840152602081019050611aef565b83811115611b19576000848401525b50505050565b6000601f19601f8301169050919050565b6000611b3b82611ad0565b611b458185611adb565b9350611b55818560208601611aec565b611b5e81611b1f565b840191505092915050565b600061024083016000830151611b826000860182611935565b506020830151611b95602086018261194e565b506040830151611ba8604086018261194e565b506060830151611bbb606086018261195d565b506080830151611bce6080860182611935565b5060a0830151611be160a0860182611935565b5060c0830151611bf460c086018261194e565b5060e0830151611c0760e086018261194e565b50610100830151611c1c6101008601826119d4565b50610120830151611c3161012086018261194e565b50610140830151611c4661014086018261194e565b50610160830151611c5b6101608601826119e3565b50610180830151611c7061018086018261194e565b506101a0830151611c856101a08601826119e3565b506101c0830151611c9a6101c08601826119e3565b506101e0830151611caf6101e086018261194e565b50610200830151848203610200860152611cc98282611a72565b915050610220830151848203610220860152611ce58282611b30565b9150508091505092915050565b611cfb81611944565b82525050565b611d0a8161181f565b82525050565b60006060820190508181036000830152611d2a8186611b69565b9050611d396020830185611cf2565b611d466040830184611d01565b949350505050565b600080fd5b600080fd5b600080fd5b60008235600161024003833603038112611d7a57611d79611d4e565b5b80830191505092915050565b60188110611d9357600080fd5b50565b600081359050611da581611d86565b92915050565b600060208284031215611dc157611dc0611640565b5b6000611dcf84828501611d96565b91505092915050565b60008083356001602003843603038112611df557611df4611d4e565b5b80840192508235915067ffffffffffffffff821115611e1757611e16611d53565b5b602083019250604082023603831315611e3357611e32611d58565b5b509250929050565b7f4e487b7100000000000000000000000000000000000000000000000000000000600052603260045260246000fd5b7f4e487b7100000000000000000000000000000000000000000000000000000000600052601160045260246000fd5b6000611ea482611944565b91507fffffffffffffffffffffffffffffffffffffffffffffffffffffffffffffffff8203611ed657611ed5611e6a565b5b600182019050919050565b60008083356001602003843603038112611efe57611efd611d4e565b5b80840192508235915067ffffffffffffffff821115611f2057611f1f611d53565b5b602083019250600182023603831315611f3c57611f3b611d58565b5b509250929050565b600082825260208201905092915050565b7f416363657373436f6e74726f6c3a2063616e206f6e6c792072656e6f756e636560008201527f20726f6c657320666f722073656c660000000000000000000000000000000000602082015250565b6000611fb1602f83611f44565b9150611fbc82611f55565b604082019050919050565b60006020820190508181036000830152611fe081611fa4565b9050919050565b600081905092915050565b50565b6000612002600083611fe7565b915061200d82611ff2565b600082019050919050565b600061202382611ff5565b9150819050919050565b7f4574686572207472616e73666572206661696c65642e00000000000000000000600082015250565b6000612063601683611f44565b915061206e8261202d565b602082019050919050565b6000602082019050818103600083015261209281612056565b9050919050565b60008160001c9050919050565b600073ffffffffffffffffffffffffffffffffffffffff82169050919050565b60006120d96120d483612099565b6120a6565b9050919050565b6000819050919050565b60006120fd6120f883612099565b6120e0565b9050919050565b600073ffffffffffffffffffffffffffffffffffffffff82169050919050565b600061213761213283612099565b612104565b9050919050565b600060ff82169050919050565b600061215e61215983612099565b61213e565b9050919050565b6000819050919050565b600061218261217d83612099565b612165565b9050919050565b600081549050919050565b60008190508160005260206000209050919050565b6040820160008083015490506121be816120ea565b6121cb600086018261194e565b50600183015490506121dc81612124565b6121e9602086018261195d565b5050505050565b60006121fc83836121a9565b60408301905092915050565b6000600282019050919050565b600061222082612189565b61222a81856119fd565b935061223583612194565b8060005b83811015612265578161224c88826121f0565b975061225783612208565b925050600181019050612239565b5085935050505092915050565b7f4e487b7100000000000000000000000000000000000000000000000000000000600052602260045260246000fd5b600060028204905060018216806122b957607f821691505b6020821081036122cc576122cb612272565b5b50919050565b60008190508160005260206000209050919050565b600081546122f4816122a1565b6122fe8186611adb565b94506001821660008114612319576001811461232b5761235e565b60ff198316865260208601935061235e565b612334856122d2565b60005b8381101561235657815481890152600182019150602081019050612337565b808801955050505b50505092915050565b60006102408301600080840154905061237f816120c6565b61238c6000870182611935565b506001840154905061239d816120ea565b6123aa602087018261194e565b50600284015490506123bb816120ea565b6123c8604087018261194e565b50600384015490506123d981612124565b6123e6606087018261195d565b50600484015490506123f7816120c6565b6124046080870182611935565b5060058401549050612415816120c6565b61242260a0870182611935565b5060068401549050612433816120ea565b61244060c087018261194e565b5060078401549050612451816120ea565b61245e60e087018261194e565b506008840154905061246f8161214b565b61247d6101008701826119d4565b506009840154905061248e816120ea565b61249c61012087018261194e565b50600a84015490506124ad816120ea565b6124bb61014087018261194e565b50600b84015490506124cc8161216f565b6124da6101608701826119e3565b50600c84015490506124eb816120ea565b6124f961018087018261194e565b50600d840154905061250a8161216f565b6125186101a08701826119e3565b50600e84015490506125298161216f565b6125376101c08701826119e3565b50600f8401549050612548816120ea565b6125566101e087018261194e565b506010840185830361020087015261256e8382612215565b9250506011840185830361022087015261258883826122e7565b925050819250505092915050565b600060208201905081810360008301526125b08184612367565b905092915050565b60006125c382611ad0565b6125cd8185611fe7565b93506125dd818560208601611aec565b80840191505092915050565b60006125f582846125b8565b915081905092915050565b7f5075726368617365204661696c65640000000000000000000000000000000000600082015250565b6000612636600f83611f44565b915061264182612600565b602082019050919050565b6000602082019050818103600083015261266581612629565b9050919050565b600081905092915050565b7f416363657373436f6e74726f6c3a206163636f756e7420000000000000000000600082015250565b60006126ad60178361266c565b91506126b882612677565b601782019050919050565b600081519050919050565b60006126d9826126c3565b6126e3818561266c565b93506126f3818560208601611aec565b80840191505092915050565b7f206973206d697373696e6720726f6c6520000000000000000000000000000000600082015250565b600061273560118361266c565b9150612740826126ff565b601182019050919050565b6000612756826126a0565b915061276282856126ce565b915061276d82612728565b915061277982846126ce565b91508190509392505050565b6000612790826126c3565b61279a8185611f44565b93506127aa818560208601611aec565b6127b381611b1f565b840191505092915050565b600060208201905081810360008301526127d88184612785565b905092915050565b60006127eb82611944565b91506127f683611944565b9250817fffffffffffffffffffffffffffffffffffffffffffffffffffffffffffffffff048311821515161561282f5761282e611e6a565b5b828202905092915050565b600061284582611944565b915061285083611944565b9250827fffffffffffffffffffffffffffffffffffffffffffffffffffffffffffffffff0382111561288557612884611e6a565b5b828201905092915050565b7f4e487b7100000000000000000000000000000000000000000000000000000000600052604160045260246000fd5b60006128ca82611944565b9150600082036128dd576128dc611e6a565b5b600182039050919050565b7f537472696e67733a20686578206c656e67746820696e73756666696369656e74600082015250565b600061291e602083611f44565b9150612929826128e8565b602082019050919050565b6000602082019050818103600083015261294d81612911565b905091905056fea26469706673582212207cc063999736b4ce870f566e486575f724975c88b1b1d66af02b9f2cf340b0dd64736f6c634300080d0033",
  "linkReferences": {},
  "deployedLinkReferences": {}
}