{
  "_format": "hh-sol-artifact-1",
  "contractName": "MarketWrapper",
  "sourceName": "contracts/main/MarketWrapper.sol",
  "abi": [
    {
      "inputs": [
        {
          "internalType": "uint256",
          "name": "_buyNowPrice",
          "type": "uint256"
        },
        {
          "internalType": "address",
          "name": "_marketPlace",
          "type": "address"
        },
        {
          "internalType": "string",
          "name": "_ethTransactionData",
          "type": "string"
        }
      ],
      "stateMutability": "nonpayable",
      "type": "constructor"
    },
    {
      "anonymous": false,
      "inputs": [
        {
          "indexed": false,
          "internalType": "bool",
          "name": "success",
          "type": "bool"
        }
      ],
      "name": "Purchased",
      "type": "event"
    },
    {
      "anonymous": false,
      "inputs": [
        {
          "indexed": true,
          "internalType": "bytes32",
          "name": "role",
          "type": "bytes32"
        },
        {
          "indexed": true,
          "internalType": "bytes32",
          "name": "previousAdminRole",
          "type": "bytes32"
        },
        {
          "indexed": true,
          "internalType": "bytes32",
          "name": "newAdminRole",
          "type": "bytes32"
        }
      ],
      "name": "RoleAdminChanged",
      "type": "event"
    },
    {
      "anonymous": false,
      "inputs": [
        {
          "indexed": true,
          "internalType": "bytes32",
          "name": "role",
          "type": "bytes32"
        },
        {
          "indexed": true,
          "internalType": "address",
          "name": "account",
          "type": "address"
        },
        {
          "indexed": true,
          "internalType": "address",
          "name": "sender",
          "type": "address"
        }
      ],
      "name": "RoleGranted",
      "type": "event"
    },
    {
      "anonymous": false,
      "inputs": [
        {
          "indexed": true,
          "internalType": "bytes32",
          "name": "role",
          "type": "bytes32"
        },
        {
          "indexed": true,
          "internalType": "address",
          "name": "account",
          "type": "address"
        },
        {
          "indexed": true,
          "internalType": "address",
          "name": "sender",
          "type": "address"
        }
      ],
      "name": "RoleRevoked",
      "type": "event"
    },
    {
      "stateMutability": "payable",
      "type": "fallback"
    },
    {
      "inputs": [],
      "name": "DEFAULT_ADMIN_ROLE",
      "outputs": [
        {
          "internalType": "bytes32",
          "name": "",
          "type": "bytes32"
        }
      ],
      "stateMutability": "view",
      "type": "function"
    },
    {
      "inputs": [],
      "name": "buyNow",
      "outputs": [
        {
          "internalType": "bool",
          "name": "",
          "type": "bool"
        }
      ],
      "stateMutability": "payable",
      "type": "function"
    },
    {
      "inputs": [],
      "name": "buyNowPrice",
      "outputs": [
        {
          "internalType": "uint256",
          "name": "",
          "type": "uint256"
        }
      ],
      "stateMutability": "view",
      "type": "function"
    },
    {
      "inputs": [
        {
          "internalType": "address payable",
          "name": "to",
          "type": "address"
        }
      ],
      "name": "emergencyWithdrawal",
      "outputs": [],
      "stateMutability": "payable",
      "type": "function"
    },
    {
      "inputs": [],
      "name": "ethTransactionData",
      "outputs": [
        {
          "internalType": "string",
          "name": "",
          "type": "string"
        }
      ],
      "stateMutability": "view",
      "type": "function"
    },
    {
      "inputs": [],
      "name": "getBuyNowPrice",
      "outputs": [
        {
          "internalType": "uint256",
          "name": "",
          "type": "uint256"
        }
      ],
      "stateMutability": "view",
      "type": "function"
    },
    {
      "inputs": [
        {
          "internalType": "bytes32",
          "name": "role",
          "type": "bytes32"
        }
      ],
      "name": "getRoleAdmin",
      "outputs": [
        {
          "internalType": "bytes32",
          "name": "",
          "type": "bytes32"
        }
      ],
      "stateMutability": "view",
      "type": "function"
    },
    {
      "inputs": [
        {
          "internalType": "address",
          "name": "to",
          "type": "address"
        }
      ],
      "name": "grantOwnerRole",
      "outputs": [],
      "stateMutability": "nonpayable",
      "type": "function"
    },
    {
      "inputs": [
        {
          "internalType": "bytes32",
          "name": "role",
          "type": "bytes32"
        },
        {
          "internalType": "address",
          "name": "account",
          "type": "address"
        }
      ],
      "name": "grantRole",
      "outputs": [],
      "stateMutability": "nonpayable",
      "type": "function"
    },
    {
      "inputs": [
        {
          "internalType": "bytes32",
          "name": "role",
          "type": "bytes32"
        },
        {
          "internalType": "address",
          "name": "account",
          "type": "address"
        }
      ],
      "name": "hasRole",
      "outputs": [
        {
          "internalType": "bool",
          "name": "",
          "type": "bool"
        }
      ],
      "stateMutability": "view",
      "type": "function"
    },
    {
      "inputs": [],
      "name": "marketPlace",
      "outputs": [
        {
          "internalType": "address",
          "name": "",
          "type": "address"
        }
      ],
      "stateMutability": "view",
      "type": "function"
    },
    {
      "inputs": [
        {
          "internalType": "bytes32",
          "name": "role",
          "type": "bytes32"
        },
        {
          "internalType": "address",
          "name": "account",
          "type": "address"
        }
      ],
      "name": "renounceRole",
      "outputs": [],
      "stateMutability": "nonpayable",
      "type": "function"
    },
    {
      "inputs": [
        {
          "internalType": "bytes32",
          "name": "role",
          "type": "bytes32"
        },
        {
          "internalType": "address",
          "name": "account",
          "type": "address"
        }
      ],
      "name": "revokeRole",
      "outputs": [],
      "stateMutability": "nonpayable",
      "type": "function"
    },
    {
      "inputs": [
        {
          "internalType": "uint256",
          "name": "_price",
          "type": "uint256"
        }
      ],
      "name": "setBuyNowPrice",
      "outputs": [],
      "stateMutability": "nonpayable",
      "type": "function"
    },
    {
      "inputs": [
        {
          "internalType": "string",
          "name": "_ethTransactionData",
          "type": "string"
        }
      ],
      "name": "setEthTransactionData",
      "outputs": [],
      "stateMutability": "nonpayable",
      "type": "function"
    },
    {
      "inputs": [
        {
          "internalType": "address",
          "name": "_marketPlace",
          "type": "address"
        }
      ],
      "name": "setMarketPlace",
      "outputs": [],
      "stateMutability": "nonpayable",
      "type": "function"
    },
    {
      "inputs": [
        {
          "internalType": "bytes4",
          "name": "interfaceId",
          "type": "bytes4"
        }
      ],
      "name": "supportsInterface",
      "outputs": [
        {
          "internalType": "bool",
          "name": "",
          "type": "bool"
        }
      ],
      "stateMutability": "view",
      "type": "function"
    },
    {
      "stateMutability": "payable",
      "type": "receive"
    }
  ],
  "bytecode": "0x60806040523480156200001157600080fd5b506040516200208138038062002081833981810160405281019062000037919062000506565b6200004c6000801b33620000b660201b60201c565b8260018190555081600260006101000a81548173ffffffffffffffffffffffffffffffffffffffff021916908373ffffffffffffffffffffffffffffffffffffffff1602179055508060039080519060200190620000ac92919062000219565b50505050620005e6565b620000c88282620001a760201b60201c565b620001a357600160008084815260200190815260200160002060000160008373ffffffffffffffffffffffffffffffffffffffff1673ffffffffffffffffffffffffffffffffffffffff16815260200190815260200160002060006101000a81548160ff021916908315150217905550620001486200021160201b60201c565b73ffffffffffffffffffffffffffffffffffffffff168173ffffffffffffffffffffffffffffffffffffffff16837f2f8788117e7eff1d82e926ec794901d17c78024a50270940304540a733656f0d60405160405180910390a45b5050565b600080600084815260200190815260200160002060000160008373ffffffffffffffffffffffffffffffffffffffff1673ffffffffffffffffffffffffffffffffffffffff16815260200190815260200160002060009054906101000a900460ff16905092915050565b600033905090565b8280546200022790620005b0565b90600052602060002090601f0160209004810192826200024b576000855562000297565b82601f106200026657805160ff191683800117855562000297565b8280016001018555821562000297579182015b828111156200029657825182559160200191906001019062000279565b5b509050620002a69190620002aa565b5090565b5b80821115620002c5576000816000905550600101620002ab565b5090565b6000604051905090565b600080fd5b600080fd5b6000819050919050565b620002f281620002dd565b8114620002fe57600080fd5b50565b6000815190506200031281620002e7565b92915050565b600073ffffffffffffffffffffffffffffffffffffffff82169050919050565b6000620003458262000318565b9050919050565b620003578162000338565b81146200036357600080fd5b50565b60008151905062000377816200034c565b92915050565b600080fd5b600080fd5b6000601f19601f8301169050919050565b7f4e487b7100000000000000000000000000000000000000000000000000000000600052604160045260246000fd5b620003d28262000387565b810181811067ffffffffffffffff82111715620003f457620003f362000398565b5b80604052505050565b600062000409620002c9565b9050620004178282620003c7565b919050565b600067ffffffffffffffff8211156200043a576200043962000398565b5b620004458262000387565b9050602081019050919050565b60005b838110156200047257808201518184015260208101905062000455565b8381111562000482576000848401525b50505050565b60006200049f62000499846200041c565b620003fd565b905082815260208101848484011115620004be57620004bd62000382565b5b620004cb84828562000452565b509392505050565b600082601f830112620004eb57620004ea6200037d565b5b8151620004fd84826020860162000488565b91505092915050565b600080600060608486031215620005225762000521620002d3565b5b6000620005328682870162000301565b9350506020620005458682870162000366565b925050604084015167ffffffffffffffff811115620005695762000568620002d8565b5b6200057786828701620004d3565b9150509250925092565b7f4e487b7100000000000000000000000000000000000000000000000000000000600052602260045260246000fd5b60006002820490506001821680620005c957607f821691505b60208210811415620005e057620005df62000581565b5b50919050565b611a8b80620005f66000396000f3fe6080604052600436106101025760003560e01c80636e353a1d11610095578063a217fddf11610064578063a217fddf14610321578063a55870881461034c578063b4c5a66b14610377578063d547741f146103a0578063dd0b7ffe146103c957610109565b80636e353a1d1461027f578063768243db1461029b57806391d14854146102c65780639c3962f01461030357610109565b806330568a8d116100d157806330568a8d146101d957806336568abe14610202578063397a8bab1461022b5780635ecbdce91461025457610109565b806301ffc9a71461010b578063248a9ca3146101485780632e25d2a6146101855780632f2ff15d146101b057610109565b3661010957005b005b34801561011757600080fd5b50610132600480360381019061012d9190610f72565b6103f2565b60405161013f9190610fba565b60405180910390f35b34801561015457600080fd5b5061016f600480360381019061016a919061100b565b61046c565b60405161017c9190611047565b60405180910390f35b34801561019157600080fd5b5061019a61048b565b6040516101a791906110a3565b60405180910390f35b3480156101bc57600080fd5b506101d760048036038101906101d291906110ea565b6104b1565b005b3480156101e557600080fd5b5061020060048036038101906101fb919061112a565b6104d2565b005b34801561020e57600080fd5b50610229600480360381019061022491906110ea565b610524565b005b34801561023757600080fd5b50610252600480360381019061024d919061112a565b6105a7565b005b34801561026057600080fd5b506102696105c5565b6040516102769190611170565b60405180910390f35b610299600480360381019061029491906111c9565b6105cb565b005b3480156102a757600080fd5b506102b0610689565b6040516102bd919061128f565b60405180910390f35b3480156102d257600080fd5b506102ed60048036038101906102e891906110ea565b610717565b6040516102fa9190610fba565b60405180910390f35b61030b610781565b6040516103189190610fba565b60405180910390f35b34801561032d57600080fd5b506103366108d1565b6040516103439190611047565b60405180910390f35b34801561035857600080fd5b506103616108d8565b60405161036e9190611170565b60405180910390f35b34801561038357600080fd5b5061039e600480360381019061039991906113e6565b6108e2565b005b3480156103ac57600080fd5b506103c760048036038101906103c291906110ea565b61090a565b005b3480156103d557600080fd5b506103f060048036038101906103eb919061145b565b61092b565b005b60007f7965db0b000000000000000000000000000000000000000000000000000000007bffffffffffffffffffffffffffffffffffffffffffffffffffffffff1916827bffffffffffffffffffffffffffffffffffffffffffffffffffffffff19161480610465575061046482610943565b5b9050919050565b6000806000838152602001908152602001600020600101549050919050565b600260009054906101000a900473ffffffffffffffffffffffffffffffffffffffff1681565b6104ba8261046c565b6104c3816109ad565b6104cd83836109c1565b505050565b6000801b6104df816109ad565b81600260006101000a81548173ffffffffffffffffffffffffffffffffffffffff021916908373ffffffffffffffffffffffffffffffffffffffff1602179055505050565b61052c610aa1565b73ffffffffffffffffffffffffffffffffffffffff168173ffffffffffffffffffffffffffffffffffffffff1614610599576040517f08c379a0000000000000000000000000000000000000000000000000000000008152600401610590906114fa565b60405180910390fd5b6105a38282610aa9565b5050565b6000801b6105b4816109ad565b6105c16000801b836109c1565b5050565b60015481565b6000801b6105d8816109ad565b60008273ffffffffffffffffffffffffffffffffffffffff16476040516105fe9061154b565b60006040518083038185875af1925050503d806000811461063b576040519150601f19603f3d011682016040523d82523d6000602084013e610640565b606091505b5050905080610684576040517f08c379a000000000000000000000000000000000000000000000000000000000815260040161067b906115ac565b60405180910390fd5b505050565b60038054610696906115fb565b80601f01602080910402602001604051908101604052809291908181526020018280546106c2906115fb565b801561070f5780601f106106e45761010080835404028352916020019161070f565b820191906000526020600020905b8154815290600101906020018083116106f257829003601f168201915b505050505081565b600080600084815260200190815260200160002060000160008373ffffffffffffffffffffffffffffffffffffffff1673ffffffffffffffffffffffffffffffffffffffff16815260200190815260200160002060009054906101000a900460ff16905092915050565b60008060001b610790816109ad565b600154471461079e57600080fd5b6000600260009054906101000a900473ffffffffffffffffffffffffffffffffffffffff1673ffffffffffffffffffffffffffffffffffffffff1660015460036040516020016107ee91906116c2565b60405160208183030381529060405260405161080a9190611720565b60006040518083038185875af1925050503d8060008114610847576040519150601f19603f3d011682016040523d82523d6000602084013e61084c565b606091505b5050905080610890576040517f08c379a000000000000000000000000000000000000000000000000000000000815260040161088790611783565b60405180910390fd5b7f83e31f5e5651d64b527802681a291e708d9fe310288785b1b816aa293d9b8fc660016040516108c09190610fba565b60405180910390a160019250505090565b6000801b81565b6000600154905090565b6000801b6108ef816109ad565b8160039080519060200190610905929190610e63565b505050565b6109138261046c565b61091c816109ad565b6109268383610aa9565b505050565b6000801b610938816109ad565b816001819055505050565b60007f01ffc9a7000000000000000000000000000000000000000000000000000000007bffffffffffffffffffffffffffffffffffffffffffffffffffffffff1916827bffffffffffffffffffffffffffffffffffffffffffffffffffffffff1916149050919050565b6109be816109b9610aa1565b610b8a565b50565b6109cb8282610717565b610a9d57600160008084815260200190815260200160002060000160008373ffffffffffffffffffffffffffffffffffffffff1673ffffffffffffffffffffffffffffffffffffffff16815260200190815260200160002060006101000a81548160ff021916908315150217905550610a42610aa1565b73ffffffffffffffffffffffffffffffffffffffff168173ffffffffffffffffffffffffffffffffffffffff16837f2f8788117e7eff1d82e926ec794901d17c78024a50270940304540a733656f0d60405160405180910390a45b5050565b600033905090565b610ab38282610717565b15610b8657600080600084815260200190815260200160002060000160008373ffffffffffffffffffffffffffffffffffffffff1673ffffffffffffffffffffffffffffffffffffffff16815260200190815260200160002060006101000a81548160ff021916908315150217905550610b2b610aa1565b73ffffffffffffffffffffffffffffffffffffffff168173ffffffffffffffffffffffffffffffffffffffff16837ff6391f5c32d9c69d2a47ea670b442974b53935d1edc7fd64eb21e047a839171b60405160405180910390a45b5050565b610b948282610717565b610c2357610bb98173ffffffffffffffffffffffffffffffffffffffff166014610c27565b610bc78360001c6020610c27565b604051602001610bd8929190611877565b6040516020818303038152906040526040517f08c379a0000000000000000000000000000000000000000000000000000000008152600401610c1a919061128f565b60405180910390fd5b5050565b606060006002836002610c3a91906118e0565b610c44919061193a565b67ffffffffffffffff811115610c5d57610c5c6112bb565b5b6040519080825280601f01601f191660200182016040528015610c8f5781602001600182028036833780820191505090505b5090507f300000000000000000000000000000000000000000000000000000000000000081600081518110610cc757610cc6611990565b5b60200101907effffffffffffffffffffffffffffffffffffffffffffffffffffffffffffff1916908160001a9053507f780000000000000000000000000000000000000000000000000000000000000081600181518110610d2b57610d2a611990565b5b60200101907effffffffffffffffffffffffffffffffffffffffffffffffffffffffffffff1916908160001a90535060006001846002610d6b91906118e0565b610d75919061193a565b90505b6001811115610e15577f3031323334353637383961626364656600000000000000000000000000000000600f861660108110610db757610db6611990565b5b1a60f81b828281518110610dce57610dcd611990565b5b60200101907effffffffffffffffffffffffffffffffffffffffffffffffffffffffffffff1916908160001a905350600485901c945080610e0e906119bf565b9050610d78565b5060008414610e59576040517f08c379a0000000000000000000000000000000000000000000000000000000008152600401610e5090611a35565b60405180910390fd5b8091505092915050565b828054610e6f906115fb565b90600052602060002090601f016020900481019282610e915760008555610ed8565b82601f10610eaa57805160ff1916838001178555610ed8565b82800160010185558215610ed8579182015b82811115610ed7578251825591602001919060010190610ebc565b5b509050610ee59190610ee9565b5090565b5b80821115610f02576000816000905550600101610eea565b5090565b6000604051905090565b600080fd5b600080fd5b60007fffffffff0000000000000000000000000000000000000000000000000000000082169050919050565b610f4f81610f1a565b8114610f5a57600080fd5b50565b600081359050610f6c81610f46565b92915050565b600060208284031215610f8857610f87610f10565b5b6000610f9684828501610f5d565b91505092915050565b60008115159050919050565b610fb481610f9f565b82525050565b6000602082019050610fcf6000830184610fab565b92915050565b6000819050919050565b610fe881610fd5565b8114610ff357600080fd5b50565b60008135905061100581610fdf565b92915050565b60006020828403121561102157611020610f10565b5b600061102f84828501610ff6565b91505092915050565b61104181610fd5565b82525050565b600060208201905061105c6000830184611038565b92915050565b600073ffffffffffffffffffffffffffffffffffffffff82169050919050565b600061108d82611062565b9050919050565b61109d81611082565b82525050565b60006020820190506110b86000830184611094565b92915050565b6110c781611082565b81146110d257600080fd5b50565b6000813590506110e4816110be565b92915050565b6000806040838503121561110157611100610f10565b5b600061110f85828601610ff6565b9250506020611120858286016110d5565b9150509250929050565b6000602082840312156111405761113f610f10565b5b600061114e848285016110d5565b91505092915050565b6000819050919050565b61116a81611157565b82525050565b60006020820190506111856000830184611161565b92915050565b600061119682611062565b9050919050565b6111a68161118b565b81146111b157600080fd5b50565b6000813590506111c38161119d565b92915050565b6000602082840312156111df576111de610f10565b5b60006111ed848285016111b4565b91505092915050565b600081519050919050565b600082825260208201905092915050565b60005b83811015611230578082015181840152602081019050611215565b8381111561123f576000848401525b50505050565b6000601f19601f8301169050919050565b6000611261826111f6565b61126b8185611201565b935061127b818560208601611212565b61128481611245565b840191505092915050565b600060208201905081810360008301526112a98184611256565b905092915050565b600080fd5b600080fd5b7f4e487b7100000000000000000000000000000000000000000000000000000000600052604160045260246000fd5b6112f382611245565b810181811067ffffffffffffffff82111715611312576113116112bb565b5b80604052505050565b6000611325610f06565b905061133182826112ea565b919050565b600067ffffffffffffffff821115611351576113506112bb565b5b61135a82611245565b9050602081019050919050565b82818337600083830152505050565b600061138961138484611336565b61131b565b9050828152602081018484840111156113a5576113a46112b6565b5b6113b0848285611367565b509392505050565b600082601f8301126113cd576113cc6112b1565b5b81356113dd848260208601611376565b91505092915050565b6000602082840312156113fc576113fb610f10565b5b600082013567ffffffffffffffff81111561141a57611419610f15565b5b611426848285016113b8565b91505092915050565b61143881611157565b811461144357600080fd5b50565b6000813590506114558161142f565b92915050565b60006020828403121561147157611470610f10565b5b600061147f84828501611446565b91505092915050565b7f416363657373436f6e74726f6c3a2063616e206f6e6c792072656e6f756e636560008201527f20726f6c657320666f722073656c660000000000000000000000000000000000602082015250565b60006114e4602f83611201565b91506114ef82611488565b604082019050919050565b60006020820190508181036000830152611513816114d7565b9050919050565b600081905092915050565b50565b600061153560008361151a565b915061154082611525565b600082019050919050565b600061155682611528565b9150819050919050565b7f4574686572207472616e73666572206661696c65642e00000000000000000000600082015250565b6000611596601683611201565b91506115a182611560565b602082019050919050565b600060208201905081810360008301526115c581611589565b9050919050565b7f4e487b7100000000000000000000000000000000000000000000000000000000600052602260045260246000fd5b6000600282049050600182168061161357607f821691505b60208210811415611627576116266115cc565b5b50919050565b60008190508160005260206000209050919050565b6000815461164f816115fb565b6116598186611201565b945060018216600081146116745760018114611686576116b9565b60ff19831686526020860193506116b9565b61168f8561162d565b60005b838110156116b157815481890152600182019150602081019050611692565b808801955050505b50505092915050565b600060208201905081810360008301526116dc8184611642565b905092915050565b600081519050919050565b60006116fa826116e4565b611704818561151a565b9350611714818560208601611212565b80840191505092915050565b600061172c82846116ef565b915081905092915050565b7f5075726368617365204661696c65640000000000000000000000000000000000600082015250565b600061176d600f83611201565b915061177882611737565b602082019050919050565b6000602082019050818103600083015261179c81611760565b9050919050565b600081905092915050565b7f416363657373436f6e74726f6c3a206163636f756e7420000000000000000000600082015250565b60006117e46017836117a3565b91506117ef826117ae565b601782019050919050565b6000611805826111f6565b61180f81856117a3565b935061181f818560208601611212565b80840191505092915050565b7f206973206d697373696e6720726f6c6520000000000000000000000000000000600082015250565b60006118616011836117a3565b915061186c8261182b565b601182019050919050565b6000611882826117d7565b915061188e82856117fa565b915061189982611854565b91506118a582846117fa565b91508190509392505050565b7f4e487b7100000000000000000000000000000000000000000000000000000000600052601160045260246000fd5b60006118eb82611157565b91506118f683611157565b9250817fffffffffffffffffffffffffffffffffffffffffffffffffffffffffffffffff048311821515161561192f5761192e6118b1565b5b828202905092915050565b600061194582611157565b915061195083611157565b9250827fffffffffffffffffffffffffffffffffffffffffffffffffffffffffffffffff03821115611985576119846118b1565b5b828201905092915050565b7f4e487b7100000000000000000000000000000000000000000000000000000000600052603260045260246000fd5b60006119ca82611157565b915060008214156119de576119dd6118b1565b5b600182039050919050565b7f537472696e67733a20686578206c656e67746820696e73756666696369656e74600082015250565b6000611a1f602083611201565b9150611a2a826119e9565b602082019050919050565b60006020820190508181036000830152611a4e81611a12565b905091905056fea264697066735822122033de0663b4d7c154016d37e0cc9b9c57ef2a6f1b05677f97a264467dc8ee619564736f6c63430008090033",
  "linkReferences": {},
  "deployedLinkReferences": {}
}