{
  "_format": "hh-sol-artifact-1",
  "contractName": "MarketWrapper",
  "sourceName": "contracts/main/MarketWrapper.sol",
  "abi": [
    {
      "inputs": [
        {
          "internalType": "uint256",
          "name": "_buyNowPrice",
          "type": "uint256"
        },
        {
          "internalType": "address",
          "name": "_marketPlace",
          "type": "address"
        },
        {
          "internalType": "bytes",
          "name": "_transactionData",
          "type": "bytes"
        },
        {
          "internalType": "uint256",
          "name": "_gasEstimate",
          "type": "uint256"
        }
      ],
      "stateMutability": "nonpayable",
      "type": "constructor"
    },
    {
      "anonymous": false,
      "inputs": [
        {
          "indexed": false,
          "internalType": "bool",
          "name": "success",
          "type": "bool"
        }
      ],
      "name": "Purchased",
      "type": "event"
    },
    {
      "anonymous": false,
      "inputs": [
        {
          "indexed": true,
          "internalType": "bytes32",
          "name": "role",
          "type": "bytes32"
        },
        {
          "indexed": true,
          "internalType": "bytes32",
          "name": "previousAdminRole",
          "type": "bytes32"
        },
        {
          "indexed": true,
          "internalType": "bytes32",
          "name": "newAdminRole",
          "type": "bytes32"
        }
      ],
      "name": "RoleAdminChanged",
      "type": "event"
    },
    {
      "anonymous": false,
      "inputs": [
        {
          "indexed": true,
          "internalType": "bytes32",
          "name": "role",
          "type": "bytes32"
        },
        {
          "indexed": true,
          "internalType": "address",
          "name": "account",
          "type": "address"
        },
        {
          "indexed": true,
          "internalType": "address",
          "name": "sender",
          "type": "address"
        }
      ],
      "name": "RoleGranted",
      "type": "event"
    },
    {
      "anonymous": false,
      "inputs": [
        {
          "indexed": true,
          "internalType": "bytes32",
          "name": "role",
          "type": "bytes32"
        },
        {
          "indexed": true,
          "internalType": "address",
          "name": "account",
          "type": "address"
        },
        {
          "indexed": true,
          "internalType": "address",
          "name": "sender",
          "type": "address"
        }
      ],
      "name": "RoleRevoked",
      "type": "event"
    },
    {
      "stateMutability": "payable",
      "type": "fallback"
    },
    {
      "inputs": [],
      "name": "DEFAULT_ADMIN_ROLE",
      "outputs": [
        {
          "internalType": "bytes32",
          "name": "",
          "type": "bytes32"
        }
      ],
      "stateMutability": "view",
      "type": "function"
    },
    {
      "inputs": [],
      "name": "buyNow",
      "outputs": [
        {
          "internalType": "bool",
          "name": "",
          "type": "bool"
        }
      ],
      "stateMutability": "nonpayable",
      "type": "function"
    },
    {
      "inputs": [],
      "name": "buyNowPrice",
      "outputs": [
        {
          "internalType": "uint256",
          "name": "",
          "type": "uint256"
        }
      ],
      "stateMutability": "view",
      "type": "function"
    },
    {
      "inputs": [
        {
          "internalType": "address payable",
          "name": "to",
          "type": "address"
        }
      ],
      "name": "emergencyWithdrawal",
      "outputs": [],
      "stateMutability": "payable",
      "type": "function"
    },
    {
      "inputs": [],
      "name": "gasEstimate",
      "outputs": [
        {
          "internalType": "uint256",
          "name": "",
          "type": "uint256"
        }
      ],
      "stateMutability": "view",
      "type": "function"
    },
    {
      "inputs": [],
      "name": "getBuyNowPrice",
      "outputs": [
        {
          "internalType": "uint256",
          "name": "",
          "type": "uint256"
        }
      ],
      "stateMutability": "view",
      "type": "function"
    },
    {
      "inputs": [
        {
          "internalType": "bytes32",
          "name": "role",
          "type": "bytes32"
        }
      ],
      "name": "getRoleAdmin",
      "outputs": [
        {
          "internalType": "bytes32",
          "name": "",
          "type": "bytes32"
        }
      ],
      "stateMutability": "view",
      "type": "function"
    },
    {
      "inputs": [
        {
          "internalType": "address",
          "name": "to",
          "type": "address"
        }
      ],
      "name": "grantOwnerRole",
      "outputs": [],
      "stateMutability": "nonpayable",
      "type": "function"
    },
    {
      "inputs": [
        {
          "internalType": "bytes32",
          "name": "role",
          "type": "bytes32"
        },
        {
          "internalType": "address",
          "name": "account",
          "type": "address"
        }
      ],
      "name": "grantRole",
      "outputs": [],
      "stateMutability": "nonpayable",
      "type": "function"
    },
    {
      "inputs": [
        {
          "internalType": "bytes32",
          "name": "role",
          "type": "bytes32"
        },
        {
          "internalType": "address",
          "name": "account",
          "type": "address"
        }
      ],
      "name": "hasRole",
      "outputs": [
        {
          "internalType": "bool",
          "name": "",
          "type": "bool"
        }
      ],
      "stateMutability": "view",
      "type": "function"
    },
    {
      "inputs": [],
      "name": "marketPlace",
      "outputs": [
        {
          "internalType": "address",
          "name": "",
          "type": "address"
        }
      ],
      "stateMutability": "view",
      "type": "function"
    },
    {
      "inputs": [
        {
          "internalType": "bytes32",
          "name": "role",
          "type": "bytes32"
        },
        {
          "internalType": "address",
          "name": "account",
          "type": "address"
        }
      ],
      "name": "renounceRole",
      "outputs": [],
      "stateMutability": "nonpayable",
      "type": "function"
    },
    {
      "inputs": [
        {
          "internalType": "bytes32",
          "name": "role",
          "type": "bytes32"
        },
        {
          "internalType": "address",
          "name": "account",
          "type": "address"
        }
      ],
      "name": "revokeRole",
      "outputs": [],
      "stateMutability": "nonpayable",
      "type": "function"
    },
    {
      "inputs": [
        {
          "internalType": "uint256",
          "name": "_price",
          "type": "uint256"
        }
      ],
      "name": "setBuyNowPrice",
      "outputs": [],
      "stateMutability": "nonpayable",
      "type": "function"
    },
    {
      "inputs": [
        {
          "internalType": "address",
          "name": "_marketPlace",
          "type": "address"
        }
      ],
      "name": "setMarketPlace",
      "outputs": [],
      "stateMutability": "nonpayable",
      "type": "function"
    },
    {
      "inputs": [
        {
          "components": [
            {
              "internalType": "address",
              "name": "considerationToken",
              "type": "address"
            },
            {
              "internalType": "uint256",
              "name": "considerationIdentifier",
              "type": "uint256"
            },
            {
              "internalType": "uint256",
              "name": "considerationAmount",
              "type": "uint256"
            },
            {
              "internalType": "address payable",
              "name": "offerer",
              "type": "address"
            },
            {
              "internalType": "address",
              "name": "zone",
              "type": "address"
            },
            {
              "internalType": "address",
              "name": "offerToken",
              "type": "address"
            },
            {
              "internalType": "uint256",
              "name": "offerIdentifier",
              "type": "uint256"
            },
            {
              "internalType": "uint256",
              "name": "offerAmount",
              "type": "uint256"
            },
            {
              "internalType": "enum BasicOrderType",
              "name": "basicOrderType",
              "type": "uint8"
            },
            {
              "internalType": "uint256",
              "name": "startTime",
              "type": "uint256"
            },
            {
              "internalType": "uint256",
              "name": "endTime",
              "type": "uint256"
            },
            {
              "internalType": "bytes32",
              "name": "zoneHash",
              "type": "bytes32"
            },
            {
              "internalType": "uint256",
              "name": "salt",
              "type": "uint256"
            },
            {
              "internalType": "bytes32",
              "name": "offererConduitKey",
              "type": "bytes32"
            },
            {
              "internalType": "bytes32",
              "name": "fulfillerConduitKey",
              "type": "bytes32"
            },
            {
              "internalType": "uint256",
              "name": "totalOriginalAdditionalRecipients",
              "type": "uint256"
            },
            {
              "components": [
                {
                  "internalType": "uint256",
                  "name": "amount",
                  "type": "uint256"
                },
                {
                  "internalType": "address payable",
                  "name": "recipient",
                  "type": "address"
                }
              ],
              "internalType": "struct AdditionalRecipient[]",
              "name": "additionalRecipients",
              "type": "tuple[]"
            },
            {
              "internalType": "bytes",
              "name": "signature",
              "type": "bytes"
            }
          ],
          "internalType": "struct BasicOrderParameters",
          "name": "_transactionData",
          "type": "tuple"
        }
      ],
      "name": "setTransactionData",
      "outputs": [],
      "stateMutability": "nonpayable",
      "type": "function"
    },
    {
      "inputs": [
        {
          "internalType": "bytes4",
          "name": "interfaceId",
          "type": "bytes4"
        }
      ],
      "name": "supportsInterface",
      "outputs": [
        {
          "internalType": "bool",
          "name": "",
          "type": "bool"
        }
      ],
      "stateMutability": "view",
      "type": "function"
    },
    {
      "inputs": [],
      "name": "transactionData",
      "outputs": [
        {
          "internalType": "bytes",
          "name": "",
          "type": "bytes"
        }
      ],
      "stateMutability": "view",
      "type": "function"
    },
    {
      "stateMutability": "payable",
      "type": "receive"
    }
  ],
  "bytecode": "0x60806040523480156200001157600080fd5b50604051620028333803806200283383398181016040528101906200003791906200050e565b6200004c6000801b33620000be60201b60201c565b8360018190555082600260006101000a81548173ffffffffffffffffffffffffffffffffffffffff021916908373ffffffffffffffffffffffffffffffffffffffff1602179055508160039080519060200190620000ac92919062000221565b50806004819055505050505062000604565b620000d08282620001af60201b60201c565b620001ab57600160008084815260200190815260200160002060000160008373ffffffffffffffffffffffffffffffffffffffff1673ffffffffffffffffffffffffffffffffffffffff16815260200190815260200160002060006101000a81548160ff021916908315150217905550620001506200021960201b60201c565b73ffffffffffffffffffffffffffffffffffffffff168173ffffffffffffffffffffffffffffffffffffffff16837f2f8788117e7eff1d82e926ec794901d17c78024a50270940304540a733656f0d60405160405180910390a45b5050565b600080600084815260200190815260200160002060000160008373ffffffffffffffffffffffffffffffffffffffff1673ffffffffffffffffffffffffffffffffffffffff16815260200190815260200160002060009054906101000a900460ff16905092915050565b600033905090565b8280546200022f90620005ce565b90600052602060002090601f0160209004810192826200025357600085556200029f565b82601f106200026e57805160ff19168380011785556200029f565b828001600101855582156200029f579182015b828111156200029e57825182559160200191906001019062000281565b5b509050620002ae9190620002b2565b5090565b5b80821115620002cd576000816000905550600101620002b3565b5090565b6000604051905090565b600080fd5b600080fd5b6000819050919050565b620002fa81620002e5565b81146200030657600080fd5b50565b6000815190506200031a81620002ef565b92915050565b600073ffffffffffffffffffffffffffffffffffffffff82169050919050565b60006200034d8262000320565b9050919050565b6200035f8162000340565b81146200036b57600080fd5b50565b6000815190506200037f8162000354565b92915050565b600080fd5b600080fd5b6000601f19601f8301169050919050565b7f4e487b7100000000000000000000000000000000000000000000000000000000600052604160045260246000fd5b620003da826200038f565b810181811067ffffffffffffffff82111715620003fc57620003fb620003a0565b5b80604052505050565b600062000411620002d1565b90506200041f8282620003cf565b919050565b600067ffffffffffffffff821115620004425762000441620003a0565b5b6200044d826200038f565b9050602081019050919050565b60005b838110156200047a5780820151818401526020810190506200045d565b838111156200048a576000848401525b50505050565b6000620004a7620004a18462000424565b62000405565b905082815260208101848484011115620004c657620004c56200038a565b5b620004d38482856200045a565b509392505050565b600082601f830112620004f357620004f262000385565b5b81516200050584826020860162000490565b91505092915050565b600080600080608085870312156200052b576200052a620002db565b5b60006200053b8782880162000309565b94505060206200054e878288016200036e565b935050604085015167ffffffffffffffff811115620005725762000571620002e0565b5b6200058087828801620004db565b9250506060620005938782880162000309565b91505092959194509250565b7f4e487b7100000000000000000000000000000000000000000000000000000000600052602260045260246000fd5b60006002820490506001821680620005e757607f821691505b60208210811415620005fe57620005fd6200059f565b5b50919050565b61221f80620006146000396000f3fe60806040526004361061010d5760003560e01c8063539a2c6d116100955780639c3962f0116100645780639c3962f014610362578063a217fddf1461038d578063a5587088146103b8578063d547741f146103e3578063dd0b7ffe1461040c57610114565b8063539a2c6d146102b55780635ecbdce9146102de5780636e353a1d1461030957806391d148541461032557610114565b80632e25d2a6116100dc5780632e25d2a6146101e65780632f2ff15d1461021157806330568a8d1461023a57806336568abe14610263578063397a8bab1461028c57610114565b806301ffc9a714610116578063136449db14610153578063248a9ca31461017e578063278bd065146101bb57610114565b3661011457005b005b34801561012257600080fd5b5061013d60048036038101906101389190611043565b610435565b60405161014a919061108b565b60405180910390f35b34801561015f57600080fd5b506101686104af565b60405161017591906110bf565b60405180910390f35b34801561018a57600080fd5b506101a560048036038101906101a09190611110565b6104b5565b6040516101b2919061114c565b60405180910390f35b3480156101c757600080fd5b506101d06104d4565b6040516101dd9190611200565b60405180910390f35b3480156101f257600080fd5b506101fb610562565b6040516102089190611263565b60405180910390f35b34801561021d57600080fd5b50610238600480360381019061023391906112aa565b610588565b005b34801561024657600080fd5b50610261600480360381019061025c91906112ea565b6105a9565b005b34801561026f57600080fd5b5061028a600480360381019061028591906112aa565b6105fb565b005b34801561029857600080fd5b506102b360048036038101906102ae91906112ea565b61067e565b005b3480156102c157600080fd5b506102dc60048036038101906102d791906117db565b61069c565b005b3480156102ea57600080fd5b506102f3610751565b60405161030091906110bf565b60405180910390f35b610323600480360381019061031e9190611824565b610757565b005b34801561033157600080fd5b5061034c600480360381019061034791906112aa565b610815565b604051610359919061108b565b60405180910390f35b34801561036e57600080fd5b5061037761087f565b604051610384919061108b565b60405180910390f35b34801561039957600080fd5b506103a26109b5565b6040516103af919061114c565b60405180910390f35b3480156103c457600080fd5b506103cd6109bc565b6040516103da91906110bf565b60405180910390f35b3480156103ef57600080fd5b5061040a600480360381019061040591906112aa565b6109c6565b005b34801561041857600080fd5b50610433600480360381019061042e9190611851565b6109e7565b005b60007f7965db0b000000000000000000000000000000000000000000000000000000007bffffffffffffffffffffffffffffffffffffffffffffffffffffffff1916827bffffffffffffffffffffffffffffffffffffffffffffffffffffffff191614806104a857506104a7826109ff565b5b9050919050565b60045481565b6000806000838152602001908152602001600020600101549050919050565b600380546104e1906118ad565b80601f016020809104026020016040519081016040528092919081815260200182805461050d906118ad565b801561055a5780601f1061052f5761010080835404028352916020019161055a565b820191906000526020600020905b81548152906001019060200180831161053d57829003601f168201915b505050505081565b600260009054906101000a900473ffffffffffffffffffffffffffffffffffffffff1681565b610591826104b5565b61059a81610a69565b6105a48383610a7d565b505050565b6000801b6105b681610a69565b81600260006101000a81548173ffffffffffffffffffffffffffffffffffffffff021916908373ffffffffffffffffffffffffffffffffffffffff1602179055505050565b610603610b5d565b73ffffffffffffffffffffffffffffffffffffffff168173ffffffffffffffffffffffffffffffffffffffff1614610670576040517f08c379a000000000000000000000000000000000000000000000000000000000815260040161066790611962565b60405180910390fd5b61067a8282610b65565b5050565b6000801b61068b81610a69565b6106986000801b83610a7d565b5050565b6000801b6106a981610a69565b816040516024016106ba9190611ce6565b6040516020818303038152906040527fc105f051000000000000000000000000000000000000000000000000000000007bffffffffffffffffffffffffffffffffffffffffffffffffffffffff19166020820180517bffffffffffffffffffffffffffffffffffffffffffffffffffffffff83818316178352505050506003908051906020019061074c929190610f34565b505050565b60015481565b6000801b61076481610a69565b60008273ffffffffffffffffffffffffffffffffffffffff164760405161078a90611d39565b60006040518083038185875af1925050503d80600081146107c7576040519150601f19603f3d011682016040523d82523d6000602084013e6107cc565b606091505b5050905080610810576040517f08c379a000000000000000000000000000000000000000000000000000000000815260040161080790611d9a565b60405180910390fd5b505050565b600080600084815260200190815260200160002060000160008373ffffffffffffffffffffffffffffffffffffffff1673ffffffffffffffffffffffffffffffffffffffff16815260200190815260200160002060009054906101000a900460ff16905092915050565b60008060001b61088e81610a69565b60015447101561089d57600080fd5b6000600260009054906101000a900473ffffffffffffffffffffffffffffffffffffffff1673ffffffffffffffffffffffffffffffffffffffff1660015460009060036040516108ed9190611e4e565b600060405180830381858888f193505050503d806000811461092b576040519150601f19603f3d011682016040523d82523d6000602084013e610930565b606091505b5050905080610974576040517f08c379a000000000000000000000000000000000000000000000000000000000815260040161096b90611eb1565b60405180910390fd5b7f83e31f5e5651d64b527802681a291e708d9fe310288785b1b816aa293d9b8fc660016040516109a4919061108b565b60405180910390a160019250505090565b6000801b81565b6000600154905090565b6109cf826104b5565b6109d881610a69565b6109e28383610b65565b505050565b6000801b6109f481610a69565b816001819055505050565b60007f01ffc9a7000000000000000000000000000000000000000000000000000000007bffffffffffffffffffffffffffffffffffffffffffffffffffffffff1916827bffffffffffffffffffffffffffffffffffffffffffffffffffffffff1916149050919050565b610a7a81610a75610b5d565b610c46565b50565b610a878282610815565b610b5957600160008084815260200190815260200160002060000160008373ffffffffffffffffffffffffffffffffffffffff1673ffffffffffffffffffffffffffffffffffffffff16815260200190815260200160002060006101000a81548160ff021916908315150217905550610afe610b5d565b73ffffffffffffffffffffffffffffffffffffffff168173ffffffffffffffffffffffffffffffffffffffff16837f2f8788117e7eff1d82e926ec794901d17c78024a50270940304540a733656f0d60405160405180910390a45b5050565b600033905090565b610b6f8282610815565b15610c4257600080600084815260200190815260200160002060000160008373ffffffffffffffffffffffffffffffffffffffff1673ffffffffffffffffffffffffffffffffffffffff16815260200190815260200160002060006101000a81548160ff021916908315150217905550610be7610b5d565b73ffffffffffffffffffffffffffffffffffffffff168173ffffffffffffffffffffffffffffffffffffffff16837ff6391f5c32d9c69d2a47ea670b442974b53935d1edc7fd64eb21e047a839171b60405160405180910390a45b5050565b610c508282610815565b610cc757610c5d81610ccb565b610c6b8360001c6020610cf8565b604051602001610c7c929190611fb0565b6040516020818303038152906040526040517f08c379a0000000000000000000000000000000000000000000000000000000008152600401610cbe9190612023565b60405180910390fd5b5050565b6060610cf18273ffffffffffffffffffffffffffffffffffffffff16601460ff16610cf8565b9050919050565b606060006002836002610d0b9190612074565b610d1591906120ce565b67ffffffffffffffff811115610d2e57610d2d61131c565b5b6040519080825280601f01601f191660200182016040528015610d605781602001600182028036833780820191505090505b5090507f300000000000000000000000000000000000000000000000000000000000000081600081518110610d9857610d97612124565b5b60200101907effffffffffffffffffffffffffffffffffffffffffffffffffffffffffffff1916908160001a9053507f780000000000000000000000000000000000000000000000000000000000000081600181518110610dfc57610dfb612124565b5b60200101907effffffffffffffffffffffffffffffffffffffffffffffffffffffffffffff1916908160001a90535060006001846002610e3c9190612074565b610e4691906120ce565b90505b6001811115610ee6577f3031323334353637383961626364656600000000000000000000000000000000600f861660108110610e8857610e87612124565b5b1a60f81b828281518110610e9f57610e9e612124565b5b60200101907effffffffffffffffffffffffffffffffffffffffffffffffffffffffffffff1916908160001a905350600485901c945080610edf90612153565b9050610e49565b5060008414610f2a576040517f08c379a0000000000000000000000000000000000000000000000000000000008152600401610f21906121c9565b60405180910390fd5b8091505092915050565b828054610f40906118ad565b90600052602060002090601f016020900481019282610f625760008555610fa9565b82601f10610f7b57805160ff1916838001178555610fa9565b82800160010185558215610fa9579182015b82811115610fa8578251825591602001919060010190610f8d565b5b509050610fb69190610fba565b5090565b5b80821115610fd3576000816000905550600101610fbb565b5090565b6000604051905090565b600080fd5b600080fd5b60007fffffffff0000000000000000000000000000000000000000000000000000000082169050919050565b61102081610feb565b811461102b57600080fd5b50565b60008135905061103d81611017565b92915050565b60006020828403121561105957611058610fe1565b5b60006110678482850161102e565b91505092915050565b60008115159050919050565b61108581611070565b82525050565b60006020820190506110a0600083018461107c565b92915050565b6000819050919050565b6110b9816110a6565b82525050565b60006020820190506110d460008301846110b0565b92915050565b6000819050919050565b6110ed816110da565b81146110f857600080fd5b50565b60008135905061110a816110e4565b92915050565b60006020828403121561112657611125610fe1565b5b6000611134848285016110fb565b91505092915050565b611146816110da565b82525050565b6000602082019050611161600083018461113d565b92915050565b600081519050919050565b600082825260208201905092915050565b60005b838110156111a1578082015181840152602081019050611186565b838111156111b0576000848401525b50505050565b6000601f19601f8301169050919050565b60006111d282611167565b6111dc8185611172565b93506111ec818560208601611183565b6111f5816111b6565b840191505092915050565b6000602082019050818103600083015261121a81846111c7565b905092915050565b600073ffffffffffffffffffffffffffffffffffffffff82169050919050565b600061124d82611222565b9050919050565b61125d81611242565b82525050565b60006020820190506112786000830184611254565b92915050565b61128781611242565b811461129257600080fd5b50565b6000813590506112a48161127e565b92915050565b600080604083850312156112c1576112c0610fe1565b5b60006112cf858286016110fb565b92505060206112e085828601611295565b9150509250929050565b600060208284031215611300576112ff610fe1565b5b600061130e84828501611295565b91505092915050565b600080fd5b7f4e487b7100000000000000000000000000000000000000000000000000000000600052604160045260246000fd5b611354826111b6565b810181811067ffffffffffffffff821117156113735761137261131c565b5b80604052505050565b6000611386610fd7565b9050611392828261134b565b919050565b600080fd5b6113a5816110a6565b81146113b057600080fd5b50565b6000813590506113c28161139c565b92915050565b60006113d382611222565b9050919050565b6113e3816113c8565b81146113ee57600080fd5b50565b600081359050611400816113da565b92915050565b6018811061141357600080fd5b50565b60008135905061142581611406565b92915050565b600080fd5b600067ffffffffffffffff82111561144b5761144a61131c565b5b602082029050602081019050919050565b600080fd5b60006040828403121561147757611476611317565b5b611481604061137c565b90506000611491848285016113b3565b60008301525060206114a5848285016113f1565b60208301525092915050565b60006114c46114bf84611430565b61137c565b905080838252602082019050604084028301858111156114e7576114e661145c565b5b835b8181101561151057806114fc8882611461565b8452602084019350506040810190506114e9565b5050509392505050565b600082601f83011261152f5761152e61142b565b5b813561153f8482602086016114b1565b91505092915050565b600080fd5b600067ffffffffffffffff8211156115685761156761131c565b5b611571826111b6565b9050602081019050919050565b82818337600083830152505050565b60006115a061159b8461154d565b61137c565b9050828152602081018484840111156115bc576115bb611548565b5b6115c784828561157e565b509392505050565b600082601f8301126115e4576115e361142b565b5b81356115f484826020860161158d565b91505092915050565b6000610240828403121561161457611613611317565b5b61161f61024061137c565b9050600061162f84828501611295565b6000830152506020611643848285016113b3565b6020830152506040611657848285016113b3565b604083015250606061166b848285016113f1565b606083015250608061167f84828501611295565b60808301525060a061169384828501611295565b60a08301525060c06116a7848285016113b3565b60c08301525060e06116bb848285016113b3565b60e0830152506101006116d084828501611416565b610100830152506101206116e6848285016113b3565b610120830152506101406116fc848285016113b3565b61014083015250610160611712848285016110fb565b61016083015250610180611728848285016113b3565b610180830152506101a061173e848285016110fb565b6101a0830152506101c0611754848285016110fb565b6101c0830152506101e061176a848285016113b3565b6101e08301525061020082013567ffffffffffffffff8111156117905761178f611397565b5b61179c8482850161151a565b6102008301525061022082013567ffffffffffffffff8111156117c2576117c1611397565b5b6117ce848285016115cf565b6102208301525092915050565b6000602082840312156117f1576117f0610fe1565b5b600082013567ffffffffffffffff81111561180f5761180e610fe6565b5b61181b848285016115fd565b91505092915050565b60006020828403121561183a57611839610fe1565b5b6000611848848285016113f1565b91505092915050565b60006020828403121561186757611866610fe1565b5b6000611875848285016113b3565b91505092915050565b7f4e487b7100000000000000000000000000000000000000000000000000000000600052602260045260246000fd5b600060028204905060018216806118c557607f821691505b602082108114156118d9576118d861187e565b5b50919050565b600082825260208201905092915050565b7f416363657373436f6e74726f6c3a2063616e206f6e6c792072656e6f756e636560008201527f20726f6c657320666f722073656c660000000000000000000000000000000000602082015250565b600061194c602f836118df565b9150611957826118f0565b604082019050919050565b6000602082019050818103600083015261197b8161193f565b9050919050565b61198b81611242565b82525050565b61199a816110a6565b82525050565b6119a9816113c8565b82525050565b7f4e487b7100000000000000000000000000000000000000000000000000000000600052602160045260246000fd5b601881106119ef576119ee6119af565b5b50565b6000819050611a00826119de565b919050565b6000611a10826119f2565b9050919050565b611a2081611a05565b82525050565b611a2f816110da565b82525050565b600081519050919050565b600082825260208201905092915050565b6000819050602082019050919050565b604082016000820151611a776000850182611991565b506020820151611a8a60208501826119a0565b50505050565b6000611a9c8383611a61565b60408301905092915050565b6000602082019050919050565b6000611ac082611a35565b611aca8185611a40565b9350611ad583611a51565b8060005b83811015611b06578151611aed8882611a90565b9750611af883611aa8565b925050600181019050611ad9565b5085935050505092915050565b600082825260208201905092915050565b6000611b2f82611167565b611b398185611b13565b9350611b49818560208601611183565b611b52816111b6565b840191505092915050565b600061024083016000830151611b766000860182611982565b506020830151611b896020860182611991565b506040830151611b9c6040860182611991565b506060830151611baf60608601826119a0565b506080830151611bc26080860182611982565b5060a0830151611bd560a0860182611982565b5060c0830151611be860c0860182611991565b5060e0830151611bfb60e0860182611991565b50610100830151611c10610100860182611a17565b50610120830151611c25610120860182611991565b50610140830151611c3a610140860182611991565b50610160830151611c4f610160860182611a26565b50610180830151611c64610180860182611991565b506101a0830151611c796101a0860182611a26565b506101c0830151611c8e6101c0860182611a26565b506101e0830151611ca36101e0860182611991565b50610200830151848203610200860152611cbd8282611ab5565b915050610220830151848203610220860152611cd98282611b24565b9150508091505092915050565b60006020820190508181036000830152611d008184611b5d565b905092915050565b600081905092915050565b50565b6000611d23600083611d08565b9150611d2e82611d13565b600082019050919050565b6000611d4482611d16565b9150819050919050565b7f4574686572207472616e73666572206661696c65642e00000000000000000000600082015250565b6000611d846016836118df565b9150611d8f82611d4e565b602082019050919050565b60006020820190508181036000830152611db381611d77565b9050919050565b60008190508160005260206000209050919050565b60008154611ddc816118ad565b611de68186611d08565b94506001821660008114611e015760018114611e1257611e45565b60ff19831686528186019350611e45565b611e1b85611dba565b60005b83811015611e3d57815481890152600182019150602081019050611e1e565b838801955050505b50505092915050565b6000611e5a8284611dcf565b915081905092915050565b7f5075726368617365204661696c65640000000000000000000000000000000000600082015250565b6000611e9b600f836118df565b9150611ea682611e65565b602082019050919050565b60006020820190508181036000830152611eca81611e8e565b9050919050565b600081905092915050565b7f416363657373436f6e74726f6c3a206163636f756e7420000000000000000000600082015250565b6000611f12601783611ed1565b9150611f1d82611edc565b601782019050919050565b600081519050919050565b6000611f3e82611f28565b611f488185611ed1565b9350611f58818560208601611183565b80840191505092915050565b7f206973206d697373696e6720726f6c6520000000000000000000000000000000600082015250565b6000611f9a601183611ed1565b9150611fa582611f64565b601182019050919050565b6000611fbb82611f05565b9150611fc78285611f33565b9150611fd282611f8d565b9150611fde8284611f33565b91508190509392505050565b6000611ff582611f28565b611fff81856118df565b935061200f818560208601611183565b612018816111b6565b840191505092915050565b6000602082019050818103600083015261203d8184611fea565b905092915050565b7f4e487b7100000000000000000000000000000000000000000000000000000000600052601160045260246000fd5b600061207f826110a6565b915061208a836110a6565b9250817fffffffffffffffffffffffffffffffffffffffffffffffffffffffffffffffff04831182151516156120c3576120c2612045565b5b828202905092915050565b60006120d9826110a6565b91506120e4836110a6565b9250827fffffffffffffffffffffffffffffffffffffffffffffffffffffffffffffffff0382111561211957612118612045565b5b828201905092915050565b7f4e487b7100000000000000000000000000000000000000000000000000000000600052603260045260246000fd5b600061215e826110a6565b9150600082141561217257612171612045565b5b600182039050919050565b7f537472696e67733a20686578206c656e67746820696e73756666696369656e74600082015250565b60006121b36020836118df565b91506121be8261217d565b602082019050919050565b600060208201905081810360008301526121e2816121a6565b905091905056fea2646970667358221220fd9054ef89772d1afbac8143f36214830b082cce5eb8628003b88cc864290f6864736f6c63430008090033",
  "linkReferences": {},
  "deployedLinkReferences": {}
}