{
  "_format": "hh-sol-artifact-1",
  "contractName": "ERC721Psi",
  "sourceName": "erc721psi/contracts/ERC721Psi.sol",
  "abi": [
    {
      "inputs": [
        {
          "internalType": "string",
          "name": "name_",
          "type": "string"
        },
        {
          "internalType": "string",
          "name": "symbol_",
          "type": "string"
        }
      ],
      "stateMutability": "nonpayable",
      "type": "constructor"
    },
    {
      "anonymous": false,
      "inputs": [
        {
          "indexed": true,
          "internalType": "address",
          "name": "owner",
          "type": "address"
        },
        {
          "indexed": true,
          "internalType": "address",
          "name": "approved",
          "type": "address"
        },
        {
          "indexed": true,
          "internalType": "uint256",
          "name": "tokenId",
          "type": "uint256"
        }
      ],
      "name": "Approval",
      "type": "event"
    },
    {
      "anonymous": false,
      "inputs": [
        {
          "indexed": true,
          "internalType": "address",
          "name": "owner",
          "type": "address"
        },
        {
          "indexed": true,
          "internalType": "address",
          "name": "operator",
          "type": "address"
        },
        {
          "indexed": false,
          "internalType": "bool",
          "name": "approved",
          "type": "bool"
        }
      ],
      "name": "ApprovalForAll",
      "type": "event"
    },
    {
      "anonymous": false,
      "inputs": [
        {
          "indexed": true,
          "internalType": "address",
          "name": "from",
          "type": "address"
        },
        {
          "indexed": true,
          "internalType": "address",
          "name": "to",
          "type": "address"
        },
        {
          "indexed": true,
          "internalType": "uint256",
          "name": "tokenId",
          "type": "uint256"
        }
      ],
      "name": "Transfer",
      "type": "event"
    },
    {
      "inputs": [
        {
          "internalType": "address",
          "name": "to",
          "type": "address"
        },
        {
          "internalType": "uint256",
          "name": "tokenId",
          "type": "uint256"
        }
      ],
      "name": "approve",
      "outputs": [],
      "stateMutability": "nonpayable",
      "type": "function"
    },
    {
      "inputs": [
        {
          "internalType": "address",
          "name": "owner",
          "type": "address"
        }
      ],
      "name": "balanceOf",
      "outputs": [
        {
          "internalType": "uint256",
          "name": "",
          "type": "uint256"
        }
      ],
      "stateMutability": "view",
      "type": "function"
    },
    {
      "inputs": [
        {
          "internalType": "uint256",
          "name": "tokenId",
          "type": "uint256"
        }
      ],
      "name": "getApproved",
      "outputs": [
        {
          "internalType": "address",
          "name": "",
          "type": "address"
        }
      ],
      "stateMutability": "view",
      "type": "function"
    },
    {
      "inputs": [
        {
          "internalType": "address",
          "name": "owner",
          "type": "address"
        },
        {
          "internalType": "address",
          "name": "operator",
          "type": "address"
        }
      ],
      "name": "isApprovedForAll",
      "outputs": [
        {
          "internalType": "bool",
          "name": "",
          "type": "bool"
        }
      ],
      "stateMutability": "view",
      "type": "function"
    },
    {
      "inputs": [],
      "name": "name",
      "outputs": [
        {
          "internalType": "string",
          "name": "",
          "type": "string"
        }
      ],
      "stateMutability": "view",
      "type": "function"
    },
    {
      "inputs": [
        {
          "internalType": "uint256",
          "name": "tokenId",
          "type": "uint256"
        }
      ],
      "name": "ownerOf",
      "outputs": [
        {
          "internalType": "address",
          "name": "",
          "type": "address"
        }
      ],
      "stateMutability": "view",
      "type": "function"
    },
    {
      "inputs": [
        {
          "internalType": "address",
          "name": "from",
          "type": "address"
        },
        {
          "internalType": "address",
          "name": "to",
          "type": "address"
        },
        {
          "internalType": "uint256",
          "name": "tokenId",
          "type": "uint256"
        }
      ],
      "name": "safeTransferFrom",
      "outputs": [],
      "stateMutability": "nonpayable",
      "type": "function"
    },
    {
      "inputs": [
        {
          "internalType": "address",
          "name": "from",
          "type": "address"
        },
        {
          "internalType": "address",
          "name": "to",
          "type": "address"
        },
        {
          "internalType": "uint256",
          "name": "tokenId",
          "type": "uint256"
        },
        {
          "internalType": "bytes",
          "name": "_data",
          "type": "bytes"
        }
      ],
      "name": "safeTransferFrom",
      "outputs": [],
      "stateMutability": "nonpayable",
      "type": "function"
    },
    {
      "inputs": [
        {
          "internalType": "address",
          "name": "operator",
          "type": "address"
        },
        {
          "internalType": "bool",
          "name": "approved",
          "type": "bool"
        }
      ],
      "name": "setApprovalForAll",
      "outputs": [],
      "stateMutability": "nonpayable",
      "type": "function"
    },
    {
      "inputs": [
        {
          "internalType": "bytes4",
          "name": "interfaceId",
          "type": "bytes4"
        }
      ],
      "name": "supportsInterface",
      "outputs": [
        {
          "internalType": "bool",
          "name": "",
          "type": "bool"
        }
      ],
      "stateMutability": "view",
      "type": "function"
    },
    {
      "inputs": [],
      "name": "symbol",
      "outputs": [
        {
          "internalType": "string",
          "name": "",
          "type": "string"
        }
      ],
      "stateMutability": "view",
      "type": "function"
    },
    {
      "inputs": [
        {
          "internalType": "uint256",
          "name": "index",
          "type": "uint256"
        }
      ],
      "name": "tokenByIndex",
      "outputs": [
        {
          "internalType": "uint256",
          "name": "tokenId",
          "type": "uint256"
        }
      ],
      "stateMutability": "view",
      "type": "function"
    },
    {
      "inputs": [
        {
          "internalType": "address",
          "name": "owner",
          "type": "address"
        },
        {
          "internalType": "uint256",
          "name": "index",
          "type": "uint256"
        }
      ],
      "name": "tokenOfOwnerByIndex",
      "outputs": [
        {
          "internalType": "uint256",
          "name": "tokenId",
          "type": "uint256"
        }
      ],
      "stateMutability": "view",
      "type": "function"
    },
    {
      "inputs": [
        {
          "internalType": "uint256",
          "name": "tokenId",
          "type": "uint256"
        }
      ],
      "name": "tokenURI",
      "outputs": [
        {
          "internalType": "string",
          "name": "",
          "type": "string"
        }
      ],
      "stateMutability": "view",
      "type": "function"
    },
    {
      "inputs": [],
      "name": "totalSupply",
      "outputs": [
        {
          "internalType": "uint256",
          "name": "",
          "type": "uint256"
        }
      ],
      "stateMutability": "view",
      "type": "function"
    },
    {
      "inputs": [
        {
          "internalType": "address",
          "name": "from",
          "type": "address"
        },
        {
          "internalType": "address",
          "name": "to",
          "type": "address"
        },
        {
          "internalType": "uint256",
          "name": "tokenId",
          "type": "uint256"
        }
      ],
      "name": "transferFrom",
      "outputs": [],
      "stateMutability": "nonpayable",
      "type": "function"
    }
  ],
  "bytecode": "0x60806040523480156200001157600080fd5b5060405162002f7a38038062002f7a8339818101604052810190620000379190620002be565b81600190805190602001906200004f92919062000071565b5080600290805190602001906200006892919062000071565b505050620003a8565b8280546200007f9062000372565b90600052602060002090601f016020900481019282620000a35760008555620000ef565b82601f10620000be57805160ff1916838001178555620000ef565b82800160010185558215620000ef579182015b82811115620000ee578251825591602001919060010190620000d1565b5b509050620000fe919062000102565b5090565b5b808211156200011d57600081600090555060010162000103565b5090565b6000604051905090565b600080fd5b600080fd5b600080fd5b600080fd5b6000601f19601f8301169050919050565b7f4e487b7100000000000000000000000000000000000000000000000000000000600052604160045260246000fd5b6200018a826200013f565b810181811067ffffffffffffffff82111715620001ac57620001ab62000150565b5b80604052505050565b6000620001c162000121565b9050620001cf82826200017f565b919050565b600067ffffffffffffffff821115620001f257620001f162000150565b5b620001fd826200013f565b9050602081019050919050565b60005b838110156200022a5780820151818401526020810190506200020d565b838111156200023a576000848401525b50505050565b6000620002576200025184620001d4565b620001b5565b9050828152602081018484840111156200027657620002756200013a565b5b620002838482856200020a565b509392505050565b600082601f830112620002a357620002a262000135565b5b8151620002b584826020860162000240565b91505092915050565b60008060408385031215620002d857620002d76200012b565b5b600083015167ffffffffffffffff811115620002f957620002f862000130565b5b62000307858286016200028b565b925050602083015167ffffffffffffffff8111156200032b576200032a62000130565b5b62000339858286016200028b565b9150509250929050565b7f4e487b7100000000000000000000000000000000000000000000000000000000600052602260045260246000fd5b600060028204905060018216806200038b57607f821691505b60208210811415620003a257620003a162000343565b5b50919050565b612bc280620003b86000396000f3fe608060405234801561001057600080fd5b50600436106101005760003560e01c80634f6ccce711610097578063a22cb46511610066578063a22cb465146102d3578063b88d4fde146102ef578063c87b56dd1461030b578063e985e9c51461033b57610100565b80634f6ccce7146102255780636352211e1461025557806370a082311461028557806395d89b41146102b557610100565b806318160ddd116100d357806318160ddd1461019f57806323b872dd146101bd5780632f745c59146101d957806342842e0e1461020957610100565b806301ffc9a71461010557806306fdde0314610135578063081812fc14610153578063095ea7b314610183575b600080fd5b61011f600480360381019061011a9190611967565b61036b565b60405161012c91906119af565b60405180910390f35b61013d6104b5565b60405161014a9190611a63565b60405180910390f35b61016d60048036038101906101689190611abb565b610547565b60405161017a9190611b29565b60405180910390f35b61019d60048036038101906101989190611b70565b6105cc565b005b6101a76106e4565b6040516101b49190611bbf565b60405180910390f35b6101d760048036038101906101d29190611bda565b6106ee565b005b6101f360048036038101906101ee9190611b70565b61074e565b6040516102009190611bbf565b60405180910390f35b610223600480360381019061021e9190611bda565b610821565b005b61023f600480360381019061023a9190611abb565b610841565b60405161024c9190611bbf565b60405180910390f35b61026f600480360381019061026a9190611abb565b6108e4565b60405161027c9190611b29565b60405180910390f35b61029f600480360381019061029a9190611c2d565b6108fc565b6040516102ac9190611bbf565b60405180910390f35b6102bd6109ee565b6040516102ca9190611a63565b60405180910390f35b6102ed60048036038101906102e89190611c86565b610a80565b005b61030960048036038101906103049190611dfb565b610c01565b005b61032560048036038101906103209190611abb565b610c63565b6040516103329190611a63565b60405180910390f35b61035560048036038101906103509190611e7e565b610d0a565b60405161036291906119af565b60405180910390f35b60007f80ac58cd000000000000000000000000000000000000000000000000000000007bffffffffffffffffffffffffffffffffffffffffffffffffffffffff1916827bffffffffffffffffffffffffffffffffffffffffffffffffffffffff1916148061043657507f5b5e139f000000000000000000000000000000000000000000000000000000007bffffffffffffffffffffffffffffffffffffffffffffffffffffffff1916827bffffffffffffffffffffffffffffffffffffffffffffffffffffffff1916145b8061049e57507f780e9d63000000000000000000000000000000000000000000000000000000007bffffffffffffffffffffffffffffffffffffffffffffffffffffffff1916827bffffffffffffffffffffffffffffffffffffffffffffffffffffffff1916145b806104ae57506104ad82610d9e565b5b9050919050565b6060600180546104c490611eed565b80601f01602080910402602001604051908101604052809291908181526020018280546104f090611eed565b801561053d5780601f106105125761010080835404028352916020019161053d565b820191906000526020600020905b81548152906001019060200180831161052057829003601f168201915b5050505050905090565b600061055282610e08565b610591576040517f08c379a000000000000000000000000000000000000000000000000000000000815260040161058890611f91565b60405180910390fd5b6005600083815260200190815260200160002060009054906101000a900473ffffffffffffffffffffffffffffffffffffffff169050919050565b60006105d7826108e4565b90508073ffffffffffffffffffffffffffffffffffffffff168373ffffffffffffffffffffffffffffffffffffffff161415610648576040517f08c379a000000000000000000000000000000000000000000000000000000000815260040161063f90612023565b60405180910390fd5b8073ffffffffffffffffffffffffffffffffffffffff16610667610e16565b73ffffffffffffffffffffffffffffffffffffffff161480610696575061069581610690610e16565b610d0a565b5b6106d5576040517f08c379a00000000000000000000000000000000000000000000000000000000081526004016106cc906120b5565b60405180910390fd5b6106df8383610e1e565b505050565b6000600454905090565b6106ff6106f9610e16565b82610ed7565b61073e576040517f08c379a000000000000000000000000000000000000000000000000000000000815260040161073590612147565b60405180910390fd5b610749838383610fb5565b505050565b60008060005b6004548110156107df5761076781610e08565b80156107a65750610777816108e4565b73ffffffffffffffffffffffffffffffffffffffff168573ffffffffffffffffffffffffffffffffffffffff16145b156107cc57838214156107bd57809250505061081b565b81806107c890612196565b9250505b80806107d790612196565b915050610754565b506040517f08c379a000000000000000000000000000000000000000000000000000000000815260040161081290612251565b60405180910390fd5b92915050565b61083c83838360405180602001604052806000815250610c01565b505050565b600061084b6106e4565b821061088c576040517f08c379a0000000000000000000000000000000000000000000000000000000008152600401610883906122e3565b60405180910390fd5b6000805b6004548110156108dc576108a381610e08565b156108c957838214156108ba5780925050506108df565b81806108c590612196565b9250505b80806108d490612196565b915050610890565b50505b919050565b6000806108f083611238565b50905080915050919050565b60008073ffffffffffffffffffffffffffffffffffffffff168273ffffffffffffffffffffffffffffffffffffffff16141561096d576040517f08c379a000000000000000000000000000000000000000000000000000000000815260040161096490612375565b60405180910390fd5b6000805b6004548110156109e45761098481610e08565b156109d357610992816108e4565b73ffffffffffffffffffffffffffffffffffffffff168473ffffffffffffffffffffffffffffffffffffffff1614156109d257816109cf90612196565b91505b5b806109dd90612196565b9050610971565b5080915050919050565b6060600280546109fd90611eed565b80601f0160208091040260200160405190810160405280929190818152602001828054610a2990611eed565b8015610a765780601f10610a4b57610100808354040283529160200191610a76565b820191906000526020600020905b815481529060010190602001808311610a5957829003601f168201915b5050505050905090565b610a88610e16565b73ffffffffffffffffffffffffffffffffffffffff168273ffffffffffffffffffffffffffffffffffffffff161415610af6576040517f08c379a0000000000000000000000000000000000000000000000000000000008152600401610aed906123e1565b60405180910390fd5b8060066000610b03610e16565b73ffffffffffffffffffffffffffffffffffffffff1673ffffffffffffffffffffffffffffffffffffffff16815260200190815260200160002060008473ffffffffffffffffffffffffffffffffffffffff1673ffffffffffffffffffffffffffffffffffffffff16815260200190815260200160002060006101000a81548160ff0219169083151502179055508173ffffffffffffffffffffffffffffffffffffffff16610bb0610e16565b73ffffffffffffffffffffffffffffffffffffffff167f17307eab39ab6107e8899845ad3d59bd9653f200f220920489ca2b5937696c3183604051610bf591906119af565b60405180910390a35050565b610c12610c0c610e16565b83610ed7565b610c51576040517f08c379a0000000000000000000000000000000000000000000000000000000008152600401610c4890612147565b60405180910390fd5b610c5d848484846112c9565b50505050565b6060610c6e82610e08565b610cad576040517f08c379a0000000000000000000000000000000000000000000000000000000008152600401610ca490612473565b60405180910390fd5b6000610cb7611327565b90506000815111610cd75760405180602001604052806000815250610d02565b80610ce18461133e565b604051602001610cf29291906124cf565b6040516020818303038152906040525b915050919050565b6000600660008473ffffffffffffffffffffffffffffffffffffffff1673ffffffffffffffffffffffffffffffffffffffff16815260200190815260200160002060008373ffffffffffffffffffffffffffffffffffffffff1673ffffffffffffffffffffffffffffffffffffffff16815260200190815260200160002060009054906101000a900460ff16905092915050565b60007f01ffc9a7000000000000000000000000000000000000000000000000000000007bffffffffffffffffffffffffffffffffffffffffffffffffffffffff1916827bffffffffffffffffffffffffffffffffffffffffffffffffffffffff1916149050919050565b600060045482109050919050565b600033905090565b816005600083815260200190815260200160002060006101000a81548173ffffffffffffffffffffffffffffffffffffffff021916908373ffffffffffffffffffffffffffffffffffffffff160217905550808273ffffffffffffffffffffffffffffffffffffffff16610e91836108e4565b73ffffffffffffffffffffffffffffffffffffffff167f8c5be1e5ebec7d5bd14f71427d1e84f3dd0314c0f7b2291e5b200ac8c7c3b92560405160405180910390a45050565b6000610ee282610e08565b610f21576040517f08c379a0000000000000000000000000000000000000000000000000000000008152600401610f1890612565565b60405180910390fd5b6000610f2c836108e4565b90508073ffffffffffffffffffffffffffffffffffffffff168473ffffffffffffffffffffffffffffffffffffffff161480610f9b57508373ffffffffffffffffffffffffffffffffffffffff16610f8384610547565b73ffffffffffffffffffffffffffffffffffffffff16145b80610fac5750610fab8185610d0a565b5b91505092915050565b600080610fc183611238565b915091508473ffffffffffffffffffffffffffffffffffffffff168273ffffffffffffffffffffffffffffffffffffffff1614611033576040517f08c379a000000000000000000000000000000000000000000000000000000000815260040161102a906125f7565b60405180910390fd5b600073ffffffffffffffffffffffffffffffffffffffff168473ffffffffffffffffffffffffffffffffffffffff1614156110a3576040517f08c379a000000000000000000000000000000000000000000000000000000000815260040161109a90612689565b60405180910390fd5b6110b0858585600161149f565b6110bb600084610e1e565b60006001846110ca91906126a9565b90506110e08160006114a590919063ffffffff16565b1580156110ee575060045481105b1561115a57856003600083815260200190815260200160002060006101000a81548173ffffffffffffffffffffffffffffffffffffffff021916908373ffffffffffffffffffffffffffffffffffffffff16021790555061115981600061150090919063ffffffff16565b5b846003600086815260200190815260200160002060006101000a81548173ffffffffffffffffffffffffffffffffffffffff021916908373ffffffffffffffffffffffffffffffffffffffff1602179055508184146111c8576111c784600061150090919063ffffffff16565b5b838573ffffffffffffffffffffffffffffffffffffffff168773ffffffffffffffffffffffffffffffffffffffff167fddf252ad1be2c89b69c2b068fc378daa952ba7f163c4a11628f55a4df523b3ef60405160405180910390a4611230868686600161155d565b505050505050565b60008061124483610e08565b611283576040517f08c379a000000000000000000000000000000000000000000000000000000000815260040161127a90612771565b60405180910390fd5b61128c83611563565b90506003600082815260200190815260200160002060009054906101000a900473ffffffffffffffffffffffffffffffffffffffff169150915091565b6112d4848484610fb5565b6112e2848484600185611580565b611321576040517f08c379a000000000000000000000000000000000000000000000000000000000815260040161131890612803565b60405180910390fd5b50505050565b606060405180602001604052806000815250905090565b60606000821415611386576040518060400160405280600181526020017f3000000000000000000000000000000000000000000000000000000000000000815250905061149a565b600082905060005b600082146113b85780806113a190612196565b915050600a826113b19190612852565b915061138e565b60008167ffffffffffffffff8111156113d4576113d3611cd0565b5b6040519080825280601f01601f1916602001820160405280156114065781602001600182028036833780820191505090505b5090505b600085146114935760018261141f9190612883565b9150600a8561142e91906128b7565b603061143a91906126a9565b60f81b8183815181106114505761144f6128e8565b5b60200101907effffffffffffffffffffffffffffffffffffffffffffffffffffffffffffff1916908160001a905350600a8561148c9190612852565b945061140a565b8093505050505b919050565b50505050565b600080600883901c9050600060ff84167f8000000000000000000000000000000000000000000000000000000000000000901c9050600081866000016000858152602001908152602001600020541614159250505092915050565b6000600882901c9050600060ff83167f8000000000000000000000000000000000000000000000000000000000000000901c9050808460000160008481526020019081526020016000206000828254179250508190555050505050565b50505050565b600061157982600061175290919063ffffffff16565b9050919050565b60006115a18573ffffffffffffffffffffffffffffffffffffffff1661184b565b15611744576001905060008490505b83856115bc91906126a9565b81101561173e578573ffffffffffffffffffffffffffffffffffffffff1663150b7a026115e7610e16565b8984876040518563ffffffff1660e01b8152600401611609949392919061296c565b602060405180830381600087803b15801561162357600080fd5b505af192505050801561165457506040513d601f19601f8201168201806040525081019061165191906129cd565b60015b6116d7573d8060008114611684576040519150601f19603f3d011682016040523d82523d6000602084013e611689565b606091505b506000815114156116cf576040517f08c379a00000000000000000000000000000000000000000000000000000000081526004016116c690612803565b60405180910390fd5b805181602001fd5b828015611728575063150b7a0260e01b7bffffffffffffffffffffffffffffffffffffffffffffffffffffffff1916817bffffffffffffffffffffffffffffffffffffffffffffffffffffffff1916145b925050808061173690612196565b9150506115b0565b50611749565b600190505b95945050505050565b600080600883901c9050600060ff8416905060008560000160008481526020019081526020016000205490508160ff1881901c905060008111156117ab576117998161186e565b60ff168203600884901b179350611842565b5b60011561184157600083116117f6576040517f08c379a00000000000000000000000000000000000000000000000000000000081526004016117ed90612a6c565b60405180910390fd5b828060019003935050856000016000848152602001908152602001600020549050600081111561183c576118298161186e565b60ff0360ff16600884901b179350611841565b6117ac565b5b50505092915050565b6000808273ffffffffffffffffffffffffffffffffffffffff163b119050919050565b60006040518061012001604052806101008152602001612a8d610100913960f87e818283848586878898a8b8c8d8e8f929395969799a9b9d9e9faaeb6bedeeff6118b7856118e0565b02901c815181106118cb576118ca6128e8565b5b602001015160f81c60f81b60f81c9050919050565b60008082116118ee57600080fd5b8160000382169050919050565b6000604051905090565b600080fd5b600080fd5b60007fffffffff0000000000000000000000000000000000000000000000000000000082169050919050565b6119448161190f565b811461194f57600080fd5b50565b6000813590506119618161193b565b92915050565b60006020828403121561197d5761197c611905565b5b600061198b84828501611952565b91505092915050565b60008115159050919050565b6119a981611994565b82525050565b60006020820190506119c460008301846119a0565b92915050565b600081519050919050565b600082825260208201905092915050565b60005b83811015611a045780820151818401526020810190506119e9565b83811115611a13576000848401525b50505050565b6000601f19601f8301169050919050565b6000611a35826119ca565b611a3f81856119d5565b9350611a4f8185602086016119e6565b611a5881611a19565b840191505092915050565b60006020820190508181036000830152611a7d8184611a2a565b905092915050565b6000819050919050565b611a9881611a85565b8114611aa357600080fd5b50565b600081359050611ab581611a8f565b92915050565b600060208284031215611ad157611ad0611905565b5b6000611adf84828501611aa6565b91505092915050565b600073ffffffffffffffffffffffffffffffffffffffff82169050919050565b6000611b1382611ae8565b9050919050565b611b2381611b08565b82525050565b6000602082019050611b3e6000830184611b1a565b92915050565b611b4d81611b08565b8114611b5857600080fd5b50565b600081359050611b6a81611b44565b92915050565b60008060408385031215611b8757611b86611905565b5b6000611b9585828601611b5b565b9250506020611ba685828601611aa6565b9150509250929050565b611bb981611a85565b82525050565b6000602082019050611bd46000830184611bb0565b92915050565b600080600060608486031215611bf357611bf2611905565b5b6000611c0186828701611b5b565b9350506020611c1286828701611b5b565b9250506040611c2386828701611aa6565b9150509250925092565b600060208284031215611c4357611c42611905565b5b6000611c5184828501611b5b565b91505092915050565b611c6381611994565b8114611c6e57600080fd5b50565b600081359050611c8081611c5a565b92915050565b60008060408385031215611c9d57611c9c611905565b5b6000611cab85828601611b5b565b9250506020611cbc85828601611c71565b9150509250929050565b600080fd5b600080fd5b7f4e487b7100000000000000000000000000000000000000000000000000000000600052604160045260246000fd5b611d0882611a19565b810181811067ffffffffffffffff82111715611d2757611d26611cd0565b5b80604052505050565b6000611d3a6118fb565b9050611d468282611cff565b919050565b600067ffffffffffffffff821115611d6657611d65611cd0565b5b611d6f82611a19565b9050602081019050919050565b82818337600083830152505050565b6000611d9e611d9984611d4b565b611d30565b905082815260208101848484011115611dba57611db9611ccb565b5b611dc5848285611d7c565b509392505050565b600082601f830112611de257611de1611cc6565b5b8135611df2848260208601611d8b565b91505092915050565b60008060008060808587031215611e1557611e14611905565b5b6000611e2387828801611b5b565b9450506020611e3487828801611b5b565b9350506040611e4587828801611aa6565b925050606085013567ffffffffffffffff811115611e6657611e6561190a565b5b611e7287828801611dcd565b91505092959194509250565b60008060408385031215611e9557611e94611905565b5b6000611ea385828601611b5b565b9250506020611eb485828601611b5b565b9150509250929050565b7f4e487b7100000000000000000000000000000000000000000000000000000000600052602260045260246000fd5b60006002820490506001821680611f0557607f821691505b60208210811415611f1957611f18611ebe565b5b50919050565b7f4552433732315073693a20617070726f76656420717565727920666f72206e6f60008201527f6e6578697374656e7420746f6b656e0000000000000000000000000000000000602082015250565b6000611f7b602f836119d5565b9150611f8682611f1f565b604082019050919050565b60006020820190508181036000830152611faa81611f6e565b9050919050565b7f4552433732315073693a20617070726f76616c20746f2063757272656e74206f60008201527f776e657200000000000000000000000000000000000000000000000000000000602082015250565b600061200d6024836119d5565b915061201882611fb1565b604082019050919050565b6000602082019050818103600083015261203c81612000565b9050919050565b7f4552433732315073693a20617070726f76652063616c6c6572206973206e6f7460008201527f206f776e6572206e6f7220617070726f76656420666f7220616c6c0000000000602082015250565b600061209f603b836119d5565b91506120aa82612043565b604082019050919050565b600060208201905081810360008301526120ce81612092565b9050919050565b7f4552433732315073693a207472616e736665722063616c6c6572206973206e6f60008201527f74206f776e6572206e6f7220617070726f766564000000000000000000000000602082015250565b60006121316034836119d5565b915061213c826120d5565b604082019050919050565b6000602082019050818103600083015261216081612124565b9050919050565b7f4e487b7100000000000000000000000000000000000000000000000000000000600052601160045260246000fd5b60006121a182611a85565b91507fffffffffffffffffffffffffffffffffffffffffffffffffffffffffffffffff8214156121d4576121d3612167565b5b600182019050919050565b7f4552433732315073693a206f776e657220696e646578206f7574206f6620626f60008201527f756e647300000000000000000000000000000000000000000000000000000000602082015250565b600061223b6024836119d5565b9150612246826121df565b604082019050919050565b6000602082019050818103600083015261226a8161222e565b9050919050565b7f4552433732315073693a20676c6f62616c20696e646578206f7574206f66206260008201527f6f756e6473000000000000000000000000000000000000000000000000000000602082015250565b60006122cd6025836119d5565b91506122d882612271565b604082019050919050565b600060208201905081810360008301526122fc816122c0565b9050919050565b7f4552433732315073693a2062616c616e636520717565727920666f722074686560008201527f207a65726f206164647265737300000000000000000000000000000000000000602082015250565b600061235f602d836119d5565b915061236a82612303565b604082019050919050565b6000602082019050818103600083015261238e81612352565b9050919050565b7f4552433732315073693a20617070726f766520746f2063616c6c657200000000600082015250565b60006123cb601c836119d5565b91506123d682612395565b602082019050919050565b600060208201905081810360008301526123fa816123be565b9050919050565b7f4552433732315073693a2055524920717565727920666f72206e6f6e6578697360008201527f74656e7420746f6b656e00000000000000000000000000000000000000000000602082015250565b600061245d602a836119d5565b915061246882612401565b604082019050919050565b6000602082019050818103600083015261248c81612450565b9050919050565b600081905092915050565b60006124a9826119ca565b6124b38185612493565b93506124c38185602086016119e6565b80840191505092915050565b60006124db828561249e565b91506124e7828461249e565b91508190509392505050565b7f4552433732315073693a206f70657261746f7220717565727920666f72206e6f60008201527f6e6578697374656e7420746f6b656e0000000000000000000000000000000000602082015250565b600061254f602f836119d5565b915061255a826124f3565b604082019050919050565b6000602082019050818103600083015261257e81612542565b9050919050565b7f4552433732315073693a207472616e73666572206f6620746f6b656e2074686160008201527f74206973206e6f74206f776e0000000000000000000000000000000000000000602082015250565b60006125e1602c836119d5565b91506125ec82612585565b604082019050919050565b60006020820190508181036000830152612610816125d4565b9050919050565b7f4552433732315073693a207472616e7366657220746f20746865207a65726f2060008201527f6164647265737300000000000000000000000000000000000000000000000000602082015250565b60006126736027836119d5565b915061267e82612617565b604082019050919050565b600060208201905081810360008301526126a281612666565b9050919050565b60006126b482611a85565b91506126bf83611a85565b9250827fffffffffffffffffffffffffffffffffffffffffffffffffffffffffffffffff038211156126f4576126f3612167565b5b828201905092915050565b7f4552433732315073693a206f776e657220717565727920666f72206e6f6e657860008201527f697374656e7420746f6b656e0000000000000000000000000000000000000000602082015250565b600061275b602c836119d5565b9150612766826126ff565b604082019050919050565b6000602082019050818103600083015261278a8161274e565b9050919050565b7f4552433732315073693a207472616e7366657220746f206e6f6e20455243373260008201527f31526563656976657220696d706c656d656e7465720000000000000000000000602082015250565b60006127ed6035836119d5565b91506127f882612791565b604082019050919050565b6000602082019050818103600083015261281c816127e0565b9050919050565b7f4e487b7100000000000000000000000000000000000000000000000000000000600052601260045260246000fd5b600061285d82611a85565b915061286883611a85565b92508261287857612877612823565b5b828204905092915050565b600061288e82611a85565b915061289983611a85565b9250828210156128ac576128ab612167565b5b828203905092915050565b60006128c282611a85565b91506128cd83611a85565b9250826128dd576128dc612823565b5b828206905092915050565b7f4e487b7100000000000000000000000000000000000000000000000000000000600052603260045260246000fd5b600081519050919050565b600082825260208201905092915050565b600061293e82612917565b6129488185612922565b93506129588185602086016119e6565b61296181611a19565b840191505092915050565b60006080820190506129816000830187611b1a565b61298e6020830186611b1a565b61299b6040830185611bb0565b81810360608301526129ad8184612933565b905095945050505050565b6000815190506129c78161193b565b92915050565b6000602082840312156129e3576129e2611905565b5b60006129f1848285016129b8565b91505092915050565b7f4269744d6170733a205468652073657420626974206265666f7265207468652060008201527f696e64657820646f65736e27742065786973742e000000000000000000000000602082015250565b6000612a566034836119d5565b9150612a61826129fa565b604082019050919050565b60006020820190508181036000830152612a8581612a49565b905091905056fe0001020903110a19042112290b311a3905412245134d2a550c5d32651b6d3a7506264262237d468514804e8d2b95569d0d495ea533a966b11c886eb93bc176c9071727374353637324837e9b47af86c7155181ad4fd18ed32c9096db57d59ee30e2e4a6a5f92a6be3498aae067ddb2eb1d5989b56fd7baf33ca0c2ee77e5caf7ff0810182028303840444c545c646c7425617c847f8c949c48a4a8b087b8c0c816365272829aaec650acd0d28fdad4e22d6991bd97dfdcea58b4d6f29fede4f6fe0f1f2f3f4b5b6b607b8b93a3a7b7bf357199c5abcfd9e168bcdee9b3f1ecf5fd1e3e5a7a8aa2b670c4ced8bbe8f0f4fc3d79a1c3cde7effb78cce6facbf9f8a2646970667358221220637fe2592c4df41f9c429efbf7afef3480423122257c104ccd87e6dd934b57de64736f6c63430008090033",
  "linkReferences": {},
  "deployedLinkReferences": {}
}